{
  "_format": "hh-sol-artifact-1",
  "contractName": "MockOmniVotingEscrow",
  "sourceName": "contracts/test/MockOmniVotingEscrow.sol",
  "abi": [
    {
      "anonymous": false,
      "inputs": [
        {
          "indexed": false,
          "internalType": "address",
          "name": "user",
          "type": "address"
        },
        {
          "indexed": false,
          "internalType": "uint16",
          "name": "chainId",
          "type": "uint16"
        },
        {
          "indexed": false,
          "internalType": "address",
          "name": "refundAddress",
          "type": "address"
        }
      ],
      "name": "SendUserBalance",
      "type": "event"
    },
    {
      "inputs": [
        {
          "internalType": "uint16",
          "name": "",
          "type": "uint16"
        },
        {
          "internalType": "bool",
          "name": "",
          "type": "bool"
        },
        {
          "internalType": "bytes",
          "name": "",
          "type": "bytes"
        }
      ],
      "name": "estimateSendUserBalance",
      "outputs": [
        {
          "internalType": "uint256",
          "name": "nativeFee",
          "type": "uint256"
        },
        {
          "internalType": "uint256",
          "name": "zroFee",
          "type": "uint256"
        }
      ],
      "stateMutability": "view",
      "type": "function"
    },
    {
      "inputs": [
        {
          "internalType": "address",
          "name": "_user",
          "type": "address"
        },
        {
          "internalType": "uint16",
          "name": "_dstChainId",
          "type": "uint16"
        },
        {
          "internalType": "address payable",
          "name": "_refundAddress",
          "type": "address"
        },
        {
          "internalType": "address",
          "name": "",
          "type": "address"
        },
        {
          "internalType": "bytes",
          "name": "",
          "type": "bytes"
        }
      ],
      "name": "sendUserBalance",
      "outputs": [],
      "stateMutability": "payable",
      "type": "function"
    },
    {
      "inputs": [
        {
          "internalType": "uint256",
          "name": "nativeFee",
          "type": "uint256"
        }
      ],
      "name": "setNativeFee",
      "outputs": [],
      "stateMutability": "nonpayable",
      "type": "function"
    }
  ],
  "bytecode": "0x608060405234801561001057600080fd5b5061035b806100206000396000f3fe6080604052600436106100345760003560e01c80634a7594891461003957806365d092d01461004e578063b91a1e8f14610085575b600080fd5b61004c610047366004610113565b6100a5565b005b34801561005a57600080fd5b5061006e610069366004610216565b6100e7565b60405161007c9291906102f2565b60405180910390f35b34801561009157600080fd5b5061004c6100a03660046102a6565b6100f6565b7fa206926db6e16f74367ba3a60acd9ad3e8e02ca873107bfb00414052a5cbe1788585856040516100d8939291906102be565b60405180910390a15050505050565b60005460015494509492505050565b600055565b803561ffff8116811461010d57600080fd5b92915050565b600080600080600060a0868803121561012a578081fd5b853561013581610300565b94506020610145888883016100fb565b9450604087013561015581610300565b9350606087013561016581610300565b9250608087013567ffffffffffffffff80821115610181578384fd5b818901915089601f830112610194578384fd5b8135818111156101a2578485fd5b604051847fffffffffffffffffffffffffffffffffffffffffffffffffffffffffffffffe0601f84011682010181811084821117156101df578687fd5b60405281815283820185018c10156101f5578586fd5b81858501868301378585838301015280955050505050509295509295909350565b6000806000806060858703121561022b578384fd5b61023586866100fb565b935060208501358015158114610249578384fd5b9250604085013567ffffffffffffffff80821115610265578384fd5b818701915087601f830112610278578384fd5b813581811115610286578485fd5b886020828501011115610297578485fd5b95989497505060200194505050565b6000602082840312156102b7578081fd5b5035919050565b73ffffffffffffffffffffffffffffffffffffffff938416815261ffff929092166020830152909116604082015260600190565b918252602082015260400190565b73ffffffffffffffffffffffffffffffffffffffff8116811461032257600080fd5b5056fea2646970667358221220040f1174aac7af43be9471091cba89428b016b5b180ef63819db0939b750282f64736f6c63430007010033",
  "linkReferences": {},
  "deployedLinkReferences": {}
}