{
  "_format": "hh-sol-artifact-1",
  "contractName": "MockPaymentReceiver",
  "sourceName": "contracts/test/MockPaymentReceiver.sol",
  "abi": [
    {
      "inputs": [],
      "name": "receivePayment",
      "outputs": [
        {
          "internalType": "uint256",
          "name": "",
          "type": "uint256"
        }
      ],
      "stateMutability": "payable",
      "type": "function"
    }
  ],
  "bytecode": "0x6080604052348015600f57600080fd5b50607e8061001e6000396000f3fe608060405260043610601c5760003560e01c8063835c19f3146021575b600080fd5b6027603b565b60405160329190603f565b60405180910390f35b3490565b9081526020019056fea2646970667358221220e06846bc37289e8fdb03637d27a34378103feaedd1e79cdbf6c01787d22e987164736f6c63430007010033",
  "linkReferences": {},
  "deployedLinkReferences": {}
}