{
  "_format": "hh-sol-artifact-1",
  "contractName": "MockSplitCodeFactory",
  "sourceName": "contracts/test/MockSplitCodeFactory.sol",
  "abi": [
    {
      "inputs": [],
      "stateMutability": "nonpayable",
      "type": "constructor"
    },
    {
      "anonymous": false,
      "inputs": [
        {
          "indexed": false,
          "internalType": "address",
          "name": "destination",
          "type": "address"
        }
      ],
      "name": "ContractCreated",
      "type": "event"
    },
    {
      "inputs": [
        {
          "internalType": "bytes32",
          "name": "id",
          "type": "bytes32"
        },
        {
          "internalType": "bytes32",
          "name": "salt",
          "type": "bytes32"
        }
      ],
      "name": "create",
      "outputs": [
        {
          "internalType": "address",
          "name": "",
          "type": "address"
        }
      ],
      "stateMutability": "nonpayable",
      "type": "function"
    },
    {
      "inputs": [],
      "name": "getCreationCode",
      "outputs": [
        {
          "internalType": "bytes",
          "name": "",
          "type": "bytes"
        }
      ],
      "stateMutability": "view",
      "type": "function"
    },
    {
      "inputs": [],
      "name": "getCreationCodeContracts",
      "outputs": [
        {
          "internalType": "address",
          "name": "contractA",
          "type": "address"
        },
        {
          "internalType": "address",
          "name": "contractB",
          "type": "address"
        }
      ],
      "stateMutability": "view",
      "type": "function"
    }
  ],
  "bytecode": "0x61010060405234801561001157600080fd5b5060405161002160208201610189565b601f1982820381018352601f90910116604052805160006002820460a081905280830360e081905281855290915083610064816100b1602090811b61024417901c565b60601b6001600160601b0319166080528285018051838252610090826100b1602090811b61024417901c565b60601b6001600160601b03191660c052949091529290925250610196915050565b80517f602038038060206000396000f3fefefefefefefefefefefefefefefefefefefe808352600091602081018484f090845291506100fd6001600160a01b03831615156101ac610103565b50919050565b816101115761011181610115565b5050565b610125816210905360ea1b610128565b50565b62461bcd60e51b600090815260206004526007602452600a808404818106603090810160081b958390069590950190829004918206850160101b01602363ffffff0060e086901c160160181b0190930160c81b60445260e882901c90606490fd5b6101078061070b83390190565b60805160601c60a05160c05160601c60e0516105306101db600039806102ab5250806101a152806103275250806102cc525080610180528061030352506105306000f3fe608060405234801561001057600080fd5b50600436106100405760003560e01c8062c194db14610045578063174481fa146100c2578063634bc7db14610113575b600080fd5b61004d61015f565b6040805160208082528351818301528351919283929083019185019080838360005b8381101561008757818101518382015260200161006f565b50505050905090810190601f1680156100b45780820380516001836020036101000a031916815260200191505b509250505060405180910390f35b6100ca61017e565b604051808373ffffffffffffffffffffffffffffffffffffffff1681526020018273ffffffffffffffffffffffffffffffffffffffff1681526020019250505060405180910390f35b6101366004803603604081101561012957600080fd5b50803590602001356101c4565b6040805173ffffffffffffffffffffffffffffffffffffffff9092168252519081900360200190f35b6060610179604051806020016040528060008152506102a3565b905090565b7f00000000000000000000000000000000000000000000000000000000000000007f00000000000000000000000000000000000000000000000000000000000000009091565b6000806101f084604051602001808281526020019150506040516020818303038152906040528461037c565b6040805173ffffffffffffffffffffffffffffffffffffffff8316815290519192507fcf78cf0d6f3d8371e1075c69c492ab4ec5d8cf23a1a239b6a51a1d00be7ca312919081900360200190a19392505050565b80517f602038038060206000396000f3fefefefefefefefefefefefefefefefefefefe808352600091602081018484f0908452915061029d73ffffffffffffffffffffffffffffffffffffffff831615156101ac6103c6565b50919050565b8051604080517f00000000000000000000000000000000000000000000000000000000000000007f0000000000000000000000000000000000000000000000000000000000000000818101858101848101602090810190965280855293957f00000000000000000000000000000000000000000000000000000000000000009592947f000000000000000000000000000000000000000000000000000000000000000094938801866000828a3c846000888301883c506020898101908985010161036e8183866103d8565b505050505050505050919050565b60006060610389846102a3565b90506000838251602084016000f5905073ffffffffffffffffffffffffffffffffffffffff81166103be573d6000803e3d6000fd5b949350505050565b816103d4576103d481610452565b5050565b5b602081106104165781518352602092830192909101907fffffffffffffffffffffffffffffffffffffffffffffffffffffffffffffffe0016103d9565b905182516020929092036101000a7fffffffffffffffffffffffffffffffffffffffffffffffffffffffffffffffff0180199091169116179052565b61047c817f42414c000000000000000000000000000000000000000000000000000000000061047f565b50565b7f08c379a000000000000000000000000000000000000000000000000000000000600090815260206004526007602452600a808404818106603090810160081b958390069590950190829004918206850160101b01602363ffffff0060e086901c160160181b0190930160c81b60445260e882901c90606490fdfea264697066735822122002f750690f85f70b92cf78149bd2ba2c37a7b6b938795b11daa15737b83bbb1e64736f6c63430007010033608060405234801561001057600080fd5b506040516101073803806101078339818101604052602081101561003357600080fd5b505180610075576040805162461bcd60e51b815260206004820152600b60248201526a1393d397d6915493d7d25160aa1b604482015290519081900360640190fd5b6000556081806100866000396000f3fe6080604052348015600f57600080fd5b506004361060285760003560e01c80635d1ca63114602d575b600080fd5b60336045565b60408051918252519081900360200190f35b6000549056fea26469706673582212201e6dd6bf0cdc8a5f5979b43d9b927214b1a2d24a36cc321518ffe9a27290867e64736f6c63430007010033",
  "linkReferences": {},
  "deployedLinkReferences": {}
}