{
  "_format": "hh-sol-artifact-1",
  "contractName": "MockRecoveryRateProviderPool",
  "sourceName": "contracts/test/MockRecoveryRateProviderPool.sol",
  "abi": [
    {
      "inputs": [
        {
          "internalType": "contract IVault",
          "name": "vault",
          "type": "address"
        },
        {
          "internalType": "contract IRateProvider[]",
          "name": "rateProviders",
          "type": "address[]"
        }
      ],
      "stateMutability": "nonpayable",
      "type": "constructor"
    },
    {
      "anonymous": false,
      "inputs": [
        {
          "indexed": false,
          "internalType": "bool",
          "name": "enabled",
          "type": "bool"
        }
      ],
      "name": "RecoveryModeStateChanged",
      "type": "event"
    },
    {
      "inputs": [],
      "name": "disableRecoveryMode",
      "outputs": [],
      "stateMutability": "nonpayable",
      "type": "function"
    },
    {
      "inputs": [],
      "name": "enableRecoveryMode",
      "outputs": [],
      "stateMutability": "nonpayable",
      "type": "function"
    },
    {
      "inputs": [
        {
          "internalType": "bytes4",
          "name": "selector",
          "type": "bytes4"
        }
      ],
      "name": "getActionId",
      "outputs": [
        {
          "internalType": "bytes32",
          "name": "",
          "type": "bytes32"
        }
      ],
      "stateMutability": "view",
      "type": "function"
    },
    {
      "inputs": [],
      "name": "getAuthorizer",
      "outputs": [
        {
          "internalType": "contract IAuthorizer",
          "name": "",
          "type": "address"
        }
      ],
      "stateMutability": "view",
      "type": "function"
    },
    {
      "inputs": [],
      "name": "getOwner",
      "outputs": [
        {
          "internalType": "address",
          "name": "",
          "type": "address"
        }
      ],
      "stateMutability": "view",
      "type": "function"
    },
    {
      "inputs": [],
      "name": "getRateProviders",
      "outputs": [
        {
          "internalType": "contract IRateProvider[]",
          "name": "",
          "type": "address[]"
        }
      ],
      "stateMutability": "view",
      "type": "function"
    },
    {
      "inputs": [],
      "name": "inRecoveryMode",
      "outputs": [
        {
          "internalType": "bool",
          "name": "",
          "type": "bool"
        }
      ],
      "stateMutability": "view",
      "type": "function"
    }
  ],
  "bytecode": "0x61010060405234801561001157600080fd5b506040516108993803806108998339818101604052604081101561003457600080fd5b81516020830180516040519294929383019291908464010000000082111561005b57600080fd5b90830190602082018581111561007057600080fd5b825186602082028301116401000000008211171561008d57600080fd5b82525081516020918201928201910280838360005b838110156100ba5781810151838201526020016100a2565b505050509190910160405250503060805250507fba1ba1ba1ba1ba1ba1ba1ba1ba1ba1ba1ba1ba1b00000000000000000000000060a0526001600160601b0319606083901b1660c081905260e052805161011b906001906020840190610123565b5050506101a7565b828054828255906000526020600020908101928215610178579160200282015b8281111561017857825182546001600160a01b0319166001600160a01b03909116178255602090920191600190910190610143565b50610184929150610188565b5090565b5b808211156101845780546001600160a01b0319168155600101610189565b60805160a05160601c60c05160601c60e05160601c6106b96101e0600039806103e2525050806102c452508061025752506106b96000f3fe608060405234801561001057600080fd5b506004361061007d5760003560e01c8063893d20e81161005b578063893d20e814610135578063aaabadc514610166578063b35056b81461016e578063b7b814fc1461018a5761007d565b8063238a2d591461008257806354a844ba146100da578063851c1bb3146100e4575b600080fd5b61008a610192565b60408051602080825283518183015283519192839290830191858101910280838360005b838110156100c65781810151838201526020016100ae565b505050509050019250505060405180910390f35b6100e2610201565b005b610123600480360360208110156100fa57600080fd5b50357fffffffff0000000000000000000000000000000000000000000000000000000016610251565b60408051918252519081900360200190f35b61013d6102c2565b6040805173ffffffffffffffffffffffffffffffffffffffff9092168252519081900360200190f35b61013d6102e6565b6101766102f5565b604080519115158252519081900360200190f35b6100e26102fe565b606060018054806020026020016040519081016040528092919081815260200182805480156101f757602002820191906000526020600020905b815473ffffffffffffffffffffffffffffffffffffffff1681526001909101906020018083116101cc575b5050505050905090565b61020961034e565b610211610397565b61021b60016103ad565b604080516001815290517feff3d4d215b42bf0960be9c6d5e05c22cba4df6627a3a523e2acee733b5854c89181900360200190a1565b604080517f00000000000000000000000000000000000000000000000000000000000000006020808301919091527fffffffff000000000000000000000000000000000000000000000000000000008416828401528251602481840301815260449092019092528051910120919050565b7f000000000000000000000000000000000000000000000000000000000000000090565b60006102f06103de565b905090565b60005460ff1690565b61030661034e565b61030e610477565b61031860006103ad565b604080516000815290517feff3d4d215b42bf0960be9c6d5e05c22cba4df6627a3a523e2acee733b5854c89181900360200190a1565b600061037d6000357fffffffff0000000000000000000000000000000000000000000000000000000016610251565b905061039461038c823361048a565b6101916105dc565b50565b6103ab6103a26102f5565b156101b56105dc565b565b600080547fffffffffffffffffffffffffffffffffffffffffffffffffffffffffffffff0016911515919091179055565b60007f000000000000000000000000000000000000000000000000000000000000000073ffffffffffffffffffffffffffffffffffffffff1663aaabadc56040518163ffffffff1660e01b815260040160206040518083038186803b15801561044657600080fd5b505afa15801561045a573d6000803e3d6000fd5b505050506040513d602081101561047057600080fd5b5051905090565b6103ab6104826102f5565b6101b66105dc565b600073ba1ba1ba1ba1ba1ba1ba1ba1ba1ba1ba1ba1ba1b6104a96102c2565b73ffffffffffffffffffffffffffffffffffffffff16141580156104d157506104d1836105ee565b15610513576104de6102c2565b73ffffffffffffffffffffffffffffffffffffffff163373ffffffffffffffffffffffffffffffffffffffff161490506105d6565b61051b6103de565b73ffffffffffffffffffffffffffffffffffffffff16639be2a8848484306040518463ffffffff1660e01b8152600401808481526020018373ffffffffffffffffffffffffffffffffffffffff1681526020018273ffffffffffffffffffffffffffffffffffffffff168152602001935050505060206040518083038186803b1580156105a757600080fd5b505afa1580156105bb573d6000803e3d6000fd5b505050506040513d60208110156105d157600080fd5b505190505b92915050565b816105ea576105ea816105f4565b5050565b50600090565b7f08c379a000000000000000000000000000000000000000000000000000000000600090815260206004526007602452600a808304818106603090810160081b83860601918390049283060160101b016642414c230000300160c81b604452610394917f42414c0000000000000000000000000000000000000000000000000000000000906242414c90606490fdfea2646970667358221220fbff59e040b49377c0542865ba2c302a1b2110b7e25257e607944a74b739858364736f6c63430007010033",
  "linkReferences": {},
  "deployedLinkReferences": {}
}