{
  "_format": "hh-sol-artifact-1",
  "contractName": "MockChildChainGauge",
  "sourceName": "contracts/test/MockChildChainGauge.sol",
  "abi": [
    {
      "inputs": [
        {
          "internalType": "string",
          "name": "_version",
          "type": "string"
        }
      ],
      "stateMutability": "nonpayable",
      "type": "constructor"
    },
    {
      "anonymous": false,
      "inputs": [
        {
          "indexed": false,
          "internalType": "address",
          "name": "user",
          "type": "address"
        }
      ],
      "name": "UserCheckpoint",
      "type": "event"
    },
    {
      "inputs": [],
      "name": "factory",
      "outputs": [
        {
          "internalType": "contract ILiquidityGaugeFactory",
          "name": "",
          "type": "address"
        }
      ],
      "stateMutability": "view",
      "type": "function"
    },
    {
      "inputs": [
        {
          "internalType": "address",
          "name": "pool",
          "type": "address"
        },
        {
          "internalType": "string",
          "name": "_version",
          "type": "string"
        }
      ],
      "name": "initialize",
      "outputs": [],
      "stateMutability": "nonpayable",
      "type": "function"
    },
    {
      "inputs": [
        {
          "internalType": "address",
          "name": "user",
          "type": "address"
        }
      ],
      "name": "integrate_fraction",
      "outputs": [
        {
          "internalType": "uint256",
          "name": "",
          "type": "uint256"
        }
      ],
      "stateMutability": "view",
      "type": "function"
    },
    {
      "inputs": [],
      "name": "lp_token",
      "outputs": [
        {
          "internalType": "address",
          "name": "",
          "type": "address"
        }
      ],
      "stateMutability": "view",
      "type": "function"
    },
    {
      "inputs": [
        {
          "internalType": "uint256",
          "name": "checkpointStep",
          "type": "uint256"
        }
      ],
      "name": "setMockCheckpointStep",
      "outputs": [],
      "stateMutability": "nonpayable",
      "type": "function"
    },
    {
      "inputs": [
        {
          "internalType": "contract ILiquidityGaugeFactory",
          "name": "_factory",
          "type": "address"
        }
      ],
      "name": "setMockFactory",
      "outputs": [],
      "stateMutability": "nonpayable",
      "type": "function"
    },
    {
      "inputs": [
        {
          "internalType": "address",
          "name": "user",
          "type": "address"
        }
      ],
      "name": "user_checkpoint",
      "outputs": [
        {
          "internalType": "bool",
          "name": "",
          "type": "bool"
        }
      ],
      "stateMutability": "nonpayable",
      "type": "function"
    },
    {
      "inputs": [],
      "name": "version",
      "outputs": [
        {
          "internalType": "string",
          "name": "",
          "type": "string"
        }
      ],
      "stateMutability": "view",
      "type": "function"
    }
  ],
  "bytecode": "0x608060405234801561001057600080fd5b506040516108a53803806108a583398101604081905261002f916100dc565b8051610042906002906020840190610049565b5050610196565b828054600181600116156101000203166002900490600052602060002090601f016020900481019282601f1061008a57805160ff19168380011785556100b7565b828001600101855582156100b7579182015b828111156100b757825182559160200191906001019061009c565b506100c39291506100c7565b5090565b5b808211156100c357600081556001016100c8565b600060208083850312156100ee578182fd5b82516001600160401b0380821115610104578384fd5b818501915085601f830112610117578384fd5b815181811115610125578485fd5b604051601f8201601f1916810185018381118282101715610144578687fd5b604052818152838201850188101561015a578586fd5b8592505b8183101561017b578383018501518184018601529184019161015e565b8183111561018b57858583830101525b979650505050505050565b610700806101a56000396000f3fe608060405234801561001057600080fd5b50600436106100885760003560e01c806382c630661161005b57806382c630661461010057806383d9ddb014610115578063c45a015514610128578063f399e22e1461013057610088565b8063094007071461008d5780634b820093146100b657806354fd4d50146100d6578063554fc806146100eb575b600080fd5b6100a061009b366004610502565b610143565b6040516100ad919061069f565b60405180910390f35b6100c96100c4366004610502565b61016b565b6040516100ad9190610623565b6100de610209565b6040516100ad919061062e565b6100fe6100f93660046105ea565b6102b2565b005b6101086102b7565b6040516100ad9190610602565b6100fe610123366004610502565b6102d3565b61010861031a565b6100fe61013e36600461051e565b610336565b73ffffffffffffffffffffffffffffffffffffffff1660009081526004602052604090205490565b60035473ffffffffffffffffffffffffffffffffffffffff821660009081526004602052604081205490916101a0919061039c565b73ffffffffffffffffffffffffffffffffffffffff83166000908152600460205260409081902091909155517f0103c5dd597c7d8e78094c4dc6d76c405761e7dcd771d4a4826d5e1c484d8c3f906101f9908490610602565b60405180910390a1506001919050565b600280546040805160206001841615610100027fffffffffffffffffffffffffffffffffffffffffffffffffffffffffffffffff01909316849004601f810184900484028201840190925281815292918301828280156102aa5780601f1061027f576101008083540402835291602001916102aa565b820191906000526020600020905b81548152906001019060200180831161028d57829003601f168201915b505050505081565b600355565b60005473ffffffffffffffffffffffffffffffffffffffff1681565b600180547fffffffffffffffffffffffff00000000000000000000000000000000000000001673ffffffffffffffffffffffffffffffffffffffff92909216919091179055565b60015473ffffffffffffffffffffffffffffffffffffffff1681565b6000805473ffffffffffffffffffffffffffffffffffffffff84167fffffffffffffffffffffffff0000000000000000000000000000000000000000918216179091556001805490911633179055805161039790600290602084019061046f565b505050565b60008282016103ae84821015836103b5565b9392505050565b816103c3576103c3816103c7565b5050565b6103f1817f42414c00000000000000000000000000000000000000000000000000000000006103f4565b50565b7f08c379a000000000000000000000000000000000000000000000000000000000600090815260206004526007602452600a808404818106603090810160081b958390069590950190829004918206850160101b01602363ffffff0060e086901c160160181b0190930160c81b60445260e882901c90606490fd5b828054600181600116156101000203166002900490600052602060002090601f016020900481019282601f106104b057805160ff19168380011785556104dd565b828001600101855582156104dd579182015b828111156104dd5782518255916020019190600101906104c2565b506104e99291506104ed565b5090565b5b808211156104e957600081556001016104ee565b600060208284031215610513578081fd5b81356103ae816106a8565b60008060408385031215610530578081fd5b823561053b816106a8565b915060208381013567ffffffffffffffff80821115610558578384fd5b818601915086601f83011261056b578384fd5b813581811115610579578485fd5b604051847fffffffffffffffffffffffffffffffffffffffffffffffffffffffffffffffe0601f84011682010181811084821117156105b6578687fd5b60405281815283820185018910156105cc578586fd5b81858501868301378585838301015280955050505050509250929050565b6000602082840312156105fb578081fd5b5035919050565b73ffffffffffffffffffffffffffffffffffffffff91909116815260200190565b901515815260200190565b6000602080835283518082850152825b8181101561065a5785810183015185820160400152820161063e565b8181111561066b5783604083870101525b50601f017fffffffffffffffffffffffffffffffffffffffffffffffffffffffffffffffe016929092016040019392505050565b90815260200190565b73ffffffffffffffffffffffffffffffffffffffff811681146103f157600080fdfea2646970667358221220c53198354f3a7dddee19af1c66ea4db6a85c339d3a78f338f5a8139d9ee141ea64736f6c63430007010033",
  "linkReferences": {},
  "deployedLinkReferences": {}
}