{
  "_format": "hh-sol-artifact-1",
  "contractName": "MockExternalFees",
  "sourceName": "contracts/test/MockExternalFees.sol",
  "abi": [
    {
      "inputs": [
        {
          "internalType": "uint256",
          "name": "totalSupply",
          "type": "uint256"
        },
        {
          "internalType": "uint256",
          "name": "poolPercentage",
          "type": "uint256"
        }
      ],
      "name": "bptForPoolOwnershipPercentage",
      "outputs": [
        {
          "internalType": "uint256",
          "name": "",
          "type": "uint256"
        }
      ],
      "stateMutability": "pure",
      "type": "function"
    }
  ],
  "bytecode": "0x608060405234801561001057600080fd5b506101db806100206000396000f3fe608060405234801561001057600080fd5b506004361061002b5760003560e01c8063c67546fe14610030575b600080fd5b6100536004803603604081101561004657600080fd5b5080359060200135610065565b60408051918252519081900360200190f35b60006100718383610078565b9392505050565b60006100716100878484610095565b610090846100b9565b6100cb565b60008282026100718415806100b25750838583816100af57fe5b04145b60036100eb565b670de0b6b3a764000081810391100290565b60006100da82151560046100eb565b8183816100e357fe5b049392505050565b816100f9576100f9816100fd565b5050565b610127817f42414c000000000000000000000000000000000000000000000000000000000061012a565b50565b7f08c379a000000000000000000000000000000000000000000000000000000000600090815260206004526007602452600a808404818106603090810160081b958390069590950190829004918206850160101b01602363ffffff0060e086901c160160181b0190930160c81b60445260e882901c90606490fdfea2646970667358221220f0a3193658824e9e92554386ded35965cca2014e7237650f4427b11239efb9d964736f6c63430007010033",
  "linkReferences": {},
  "deployedLinkReferences": {}
}