{
  "address": "0xa42001D6d2237d2c74108FE360403C4b796B7170",
  "abi": [
    {
      "inputs": [
        {
          "internalType": "contract IUniswapV3Factory",
          "name": "_factory",
          "type": "address"
        }
      ],
      "stateMutability": "nonpayable",
      "type": "constructor"
    },
    {
      "anonymous": false,
      "inputs": [
        {
          "indexed": true,
          "internalType": "address",
          "name": "oracle",
          "type": "address"
        }
      ],
      "name": "NewOracle",
      "type": "event"
    },
    {
      "inputs": [],
      "name": "ORACLE_IMPLEMENTATION",
      "outputs": [
        {
          "internalType": "address",
          "name": "",
          "type": "address"
        }
      ],
      "stateMutability": "view",
      "type": "function"
    },
    {
      "inputs": [],
      "name": "UNISWAPV3_FACTORY",
      "outputs": [
        {
          "internalType": "contract IUniswapV3Factory",
          "name": "",
          "type": "address"
        }
      ],
      "stateMutability": "view",
      "type": "function"
    },
    {
      "inputs": [
        {
          "components": [
            {
              "internalType": "contract IUniswapV3Pool",
              "name": "pool",
              "type": "address"
            },
            {
              "internalType": "address",
              "name": "quoteToken",
              "type": "address"
            },
            {
              "internalType": "uint32",
              "name": "periodForAvgPrice",
              "type": "uint32"
            },
            {
              "internalType": "uint8",
              "name": "blockTime",
              "type": "uint8"
            }
          ],
          "internalType": "struct IUniswapV3Oracle.UniswapV3DeploymentConfig",
          "name": "_config",
          "type": "tuple"
        }
      ],
      "name": "create",
      "outputs": [
        {
          "internalType": "contract UniswapV3Oracle",
          "name": "oracle",
          "type": "address"
        }
      ],
      "stateMutability": "nonpayable",
      "type": "function"
    },
    {
      "inputs": [
        {
          "internalType": "bytes32",
          "name": "",
          "type": "bytes32"
        }
      ],
      "name": "getConfigAddress",
      "outputs": [
        {
          "internalType": "address",
          "name": "",
          "type": "address"
        }
      ],
      "stateMutability": "view",
      "type": "function"
    },
    {
      "inputs": [
        {
          "internalType": "address",
          "name": "",
          "type": "address"
        }
      ],
      "name": "getOracleAddress",
      "outputs": [
        {
          "internalType": "address",
          "name": "",
          "type": "address"
        }
      ],
      "stateMutability": "view",
      "type": "function"
    },
    {
      "inputs": [
        {
          "components": [
            {
              "internalType": "contract IUniswapV3Pool",
              "name": "pool",
              "type": "address"
            },
            {
              "internalType": "address",
              "name": "quoteToken",
              "type": "address"
            },
            {
              "internalType": "uint32",
              "name": "periodForAvgPrice",
              "type": "uint32"
            },
            {
              "internalType": "uint8",
              "name": "blockTime",
              "type": "uint8"
            }
          ],
          "internalType": "struct IUniswapV3Oracle.UniswapV3DeploymentConfig",
          "name": "_config",
          "type": "tuple"
        }
      ],
      "name": "hashConfig",
      "outputs": [
        {
          "internalType": "bytes32",
          "name": "configId",
          "type": "bytes32"
        }
      ],
      "stateMutability": "view",
      "type": "function"
    },
    {
      "inputs": [
        {
          "internalType": "contract IUniswapV3Pool",
          "name": "_pool",
          "type": "address"
        },
        {
          "internalType": "uint16",
          "name": "_requiredCardinality",
          "type": "uint16"
        }
      ],
      "name": "observationsStatus",
      "outputs": [
        {
          "internalType": "bool",
          "name": "bufferFull",
          "type": "bool"
        },
        {
          "internalType": "bool",
          "name": "enoughObservations",
          "type": "bool"
        },
        {
          "internalType": "uint16",
          "name": "currentCardinality",
          "type": "uint16"
        }
      ],
      "stateMutability": "view",
      "type": "function"
    },
    {
      "inputs": [
        {
          "components": [
            {
              "internalType": "contract IUniswapV3Pool",
              "name": "pool",
              "type": "address"
            },
            {
              "internalType": "address",
              "name": "quoteToken",
              "type": "address"
            },
            {
              "internalType": "uint32",
              "name": "periodForAvgPrice",
              "type": "uint32"
            },
            {
              "internalType": "uint8",
              "name": "blockTime",
              "type": "uint8"
            }
          ],
          "internalType": "struct IUniswapV3Oracle.UniswapV3DeploymentConfig",
          "name": "_config",
          "type": "tuple"
        }
      ],
      "name": "verifyConfig",
      "outputs": [
        {
          "internalType": "uint16",
          "name": "requiredCardinality",
          "type": "uint16"
        }
      ],
      "stateMutability": "pure",
      "type": "function"
    },
    {
      "inputs": [
        {
          "internalType": "contract IUniswapV3Pool",
          "name": "_pool",
          "type": "address"
        },
        {
          "internalType": "address",
          "name": "_quoteToken",
          "type": "address"
        },
        {
          "internalType": "uint16",
          "name": "_requiredCardinality",
          "type": "uint16"
        }
      ],
      "name": "verifyPool",
      "outputs": [],
      "stateMutability": "view",
      "type": "function"
    }
  ],
  "bytecode": "0x60c06040523480156200001157600080fd5b5060405162002c0738038062002c07833981016040819052620000349162000163565b604051620000429062000155565b604051809103906000f0801580156200005f573d6000803e3d6000fd5b506001600160a01b038116620000aa576040805162461bcd60e51b815260206004820152600b60248201526a5a65726f4164647265737360a81b604482015290519081900360640190fd5b60601b6001600160601b0319166080526040516322afcccb60e01b81526001600160a01b038216906322afcccb90620000ea906103e890600401620001b6565b60206040518083038186803b1580156200010357600080fd5b505afa15801562000118573d6000803e3d6000fd5b505050506040513d601f19601f820116820180604052508101906200013e919062000193565b5060601b6001600160601b03191660a052620001c6565b61161a80620015ed83390190565b60006020828403121562000175578081fd5b81516001600160a01b03811681146200018c578182fd5b9392505050565b600060208284031215620001a5578081fd5b81518060020b81146200018c578182fd5b62ffffff91909116815260200190565b60805160601c60a05160601c6113f3620001fa6000398061034152806108c15250806106b0528061084d52506113f36000f3fe60806040523480156200001157600080fd5b5060043610620000a05760003560e01c8063a8f39f66116200006f578063a8f39f66146200012a578063b36f41481462000134578063b76265fd146200015a578063e2d4624d1462000182578063f896503a146200018c57620000a0565b80635448217314620000a55780635784b41314620000d4578063931a5f2a14620000ed5780639b71f5861462000104575b600080fd5b620000bc620000b636600462000b1b565b620001a3565b604051620000cb919062000dc0565b60405180910390f35b620000eb620000e536600462000b79565b620001be565b005b620000bc620000fe36600462000c07565b62000609565b6200011b6200011536600462000c07565b6200074f565b604051620000cb919062001001565b620000bc6200084b565b6200014b6200014536600462000c07565b6200086f565b604051620000cb919062000e18565b620001716200016b36600462000bca565b620008a1565b604051620000cb9392919062000dfc565b620000bc620008bf565b620000bc6200019d36600462000b60565b620008e3565b6001602052600090815260409020546001600160a01b031681565b6000836001600160a01b0316630dfe16816040518163ffffffff1660e01b815260040160206040518083038186803b158015620001fa57600080fd5b505afa1580156200020f573d6000803e3d6000fd5b505050506040513d601f19601f8201168201806040525081019062000235919062000b41565b90506000846001600160a01b031663d21220a76040518163ffffffff1660e01b815260040160206040518083038186803b1580156200027357600080fd5b505afa15801562000288573d6000803e3d6000fd5b505050506040513d601f19601f82011682018060405250810190620002ae919062000b41565b9050836001600160a01b0316826001600160a01b031614158015620002e55750836001600160a01b0316816001600160a01b031614155b156200030e5760405162461bcd60e51b8152600401620003059062000f4f565b60405180910390fd5b6000826001600160a01b0316856001600160a01b03161462000331578262000333565b815b9050856001600160a01b03167f00000000000000000000000000000000000000000000000000000000000000006001600160a01b0316631698ee8287848a6001600160a01b031663ddca3f436040518163ffffffff1660e01b815260040160206040518083038186803b158015620003aa57600080fd5b505afa158015620003bf573d6000803e3d6000fd5b505050506040513d601f19601f82011682018060405250810190620003e5919062000d48565b6040518463ffffffff1660e01b8152600401620004059392919062000dd4565b60206040518083038186803b1580156200041e57600080fd5b505afa15801562000433573d6000803e3d6000fd5b505050506040513d601f19601f8201168201806040525081019062000459919062000b41565b6001600160a01b031614620004825760405162461bcd60e51b8152600401620003059062000e81565b6040516370a0823160e01b81526000906001600160a01b038516906370a0823190620004b3908a9060040162000dc0565b60206040518083038186803b158015620004cc57600080fd5b505afa158015620004e1573d6000803e3d6000fd5b505050506040513d601f19601f8201168201806040525081019062000507919062000d6d565b905080620005295760405162461bcd60e51b8152600401620003059062000f07565b6040516370a0823160e01b81526001600160a01b038416906370a082319062000557908a9060040162000dc0565b60206040518083038186803b1580156200057057600080fd5b505afa15801562000585573d6000803e3d6000fd5b505050506040513d601f19601f82011682018060405250810190620005ab919062000d6d565b905080620005cd5760405162461bcd60e51b8152600401620003059062000f2b565b6000620005db8887620008fe565b5050905080620005ff5760405162461bcd60e51b8152600401620003059062000f86565b5050505050505050565b60008062000617836200086f565b6000818152602081905260409020549091506001600160a01b031680156200065e576001600160a01b039081166000908152600160205260409020541691506200074a9050565b60006200066b856200074f565b905084816040516200067d9062000b0d565b6200068a92919062000fe0565b604051809103906000f080158015620006a7573d6000803e3d6000fd5b509150620006d57f00000000000000000000000000000000000000000000000000000000000000006200099e565b9350620006e484838562000a3c565b60405163189acdbd60e31b81526001600160a01b0385169063c4d66de8906200071290859060040162000dc0565b600060405180830381600087803b1580156200072d57600080fd5b505af115801562000742573d6000803e3d6000fd5b505050505050505b919050565b6000816060015160ff16600014156200077c5760405162461bcd60e51b8152600401620003059062000ea6565b604082015163ffffffff16620007a65760405162461bcd60e51b8152600401620003059062000ed0565b6000826060015160ff16836040015163ffffffff16600a0281620007c657fe5b04905061ffff811115620007ee5760405162461bcd60e51b8152600401620003059062000e21565b82516001600160a01b0316620008185760405162461bcd60e51b8152600401620003059062000fad565b60208301516001600160a01b0316620008455760405162461bcd60e51b8152600401620003059062000e58565b92915050565b7f000000000000000000000000000000000000000000000000000000000000000081565b60008160405160200162000884919062000fd0565b604051602081830303815290604052805190602001209050919050565b6000806000620008b28585620008fe565b9250925092509250925092565b7f000000000000000000000000000000000000000000000000000000000000000081565b6000602081905290815260409020546001600160a01b031681565b6000806000806000866001600160a01b0316633850c7bd6040518163ffffffff1660e01b815260040160e06040518083038186803b1580156200094057600080fd5b505afa15801562000955573d6000803e3d6000fd5b505050506040513d601f19601f820116820180604052508101906200097b919062000c96565b505061ffff9a8b168b83168111159d9b90911610159a5098975050505050505050565b6000604051733d602d80600a3d3981f3363d3d373d3d3d363d7360601b81528260601b60148201526e5af43d82803e903d91602b57fd5bf360881b60288201526037816000f09150506001600160a01b0381166200074a576040805162461bcd60e51b8152602060048201526016602482015275115490cc4c4d8dce8818dc99585d194819985a5b195960521b604482015290519081900360640190fd5b6000818152602081905260409020546001600160a01b03161562000a9c576040805162461bcd60e51b815260206004820152601260248201527110dbdb999a59d05b1c9958591e515e1a5cdd60721b604482015290519081900360640190fd5b60008181526020818152604080832080546001600160a01b038088166001600160a01b03199283168117909355918552600190935281842080549188169190931681179092555190917fb3eacd0e351fafdfefdec84e1cd19679b38dbcd63ea7c2c24da17fd2bc3b3c0e91a2505050565b610373806200104b83390190565b60006020828403121562000b2d578081fd5b813562000b3a8162001010565b9392505050565b60006020828403121562000b53578081fd5b815162000b3a8162001010565b60006020828403121562000b72578081fd5b5035919050565b60008060006060848603121562000b8e578182fd5b833562000b9b8162001010565b9250602084013562000bad8162001010565b9150604084013562000bbf8162001029565b809150509250925092565b6000806040838503121562000bdd578182fd5b823562000bea8162001010565b9150602083013562000bfc8162001029565b809150509250929050565b60006080828403121562000c19578081fd5b6040516080810181811067ffffffffffffffff8211171562000c3757fe5b604052823562000c478162001010565b8152602083013562000c598162001010565b6020820152604083013563ffffffff8116811462000c75578283fd5b6040820152606083013562000c8a816200103a565b60608201529392505050565b600080600080600080600060e0888a03121562000cb1578283fd5b875162000cbe8162001010565b8097505060208801518060020b811462000cd6578384fd5b604089015190965062000ce98162001029565b606089015190955062000cfc8162001029565b608089015190945062000d0f8162001029565b60a089015190935062000d22816200103a565b60c0890151909250801515811462000d38578182fd5b8091505092959891949750929550565b60006020828403121562000d5a578081fd5b815162ffffff8116811462000b3a578182fd5b60006020828403121562000d7f578081fd5b5051919050565b80516001600160a01b0390811683526020808301519091169083015260408082015163ffffffff169083015260609081015160ff16910152565b6001600160a01b0391909116815260200190565b6001600160a01b03938416815291909216602082015262ffffff909116604082015260600190565b9215158352901515602083015261ffff16604082015260600190565b90815260200190565b6020808252601a908201527f496e76616c6964526571756972656443617264696e616c697479000000000000604082015260600190565b6020808252600f908201526e22b6b83a3ca8bab7ba32aa37b5b2b760891b604082015260600190565b6020808252600b908201526a125b9d985b1a59141bdbdb60aa1b604082015260600190565b60208082526010908201526f496e76616c6964426c6f636b54696d6560801b604082015260600190565b60208082526018908201527f496e76616c6964506572696f64466f7241766750726963650000000000000000604082015260600190565b6020808252600a90820152690456d707479506f6f6c360b41b604082015260600190565b6020808252600a9082015269456d707479506f6f6c3160b01b604082015260600190565b60208082526018908201527f496e76616c6964506f6f6c466f7251756f7465546f6b656e0000000000000000604082015260600190565b6020808252600d908201526c109d5999995c939bdd119d5b1b609a1b604082015260600190565b602080825260099082015268115b5c1d1e541bdbdb60ba1b604082015260600190565b6080810162000845828462000d86565b60a0810162000ff0828562000d86565b61ffff831660808301529392505050565b61ffff91909116815260200190565b6001600160a01b03811681146200102657600080fd5b50565b61ffff811681146200102657600080fd5b60ff811681146200102657600080fdfe61012060405234801561001157600080fd5b50604051610373380380610373833981016040819052610030916100d0565b60f01b6001600160f01b03191660e09081528151606090811b6001600160601b03199081166080526020840151821b1660a052604083015190911b6001600160e01b03191660c052015160f81b7fff00000000000000000000000000000000000000000000000000000000000000166101005261018b565b805161ffff811681146100ba57600080fd5b919050565b805160ff811681146100ba57600080fd5b60008082840360a08112156100e3578283fd5b60808112156100f0578283fd5b50604051608081016001600160401b038111828210171561010d57fe5b604052835161011b81610173565b8152602084015161012b81610173565b6020820152604084015163ffffffff81168114610146578384fd5b6040820152610157606085016100bf565b6060820152915061016a608084016100a8565b90509250929050565b6001600160a01b038116811461018857600080fd5b50565b60805160601c60a05160601c60c05160e01c60e05160f01c6101005160f81c6101a36101d0600039508060db52508060b15250806085525080606052506101a36000f3fe608060405234801561001057600080fd5b506004361061002b5760003560e01c8063c3f909d414610030575b600080fd5b61003861004e565b604051610045919061012a565b60405180910390f35b610056610103565b6001600160a01b037f0000000000000000000000000000000000000000000000000000000000000000811682527f000000000000000000000000000000000000000000000000000000000000000016602082015263ffffffff7f000000000000000000000000000000000000000000000000000000000000000016604082015261ffff7f000000000000000000000000000000000000000000000000000000000000000016606082015290565b60408051608081018252600080825260208201819052918101829052606081019190915290565b81516001600160a01b0390811682526020808401519091169082015260408083015163ffffffff169082015260609182015161ffff16918101919091526080019056fea26469706673582212203958c5e708a3e64007de2a95fc1fa7aac787ec7df5806e592b46c0ac86396be864736f6c63430007060033a2646970667358221220c49f636680176681666cc87ac16199d223283b3ff0fa704f064b216a87b451ff64736f6c63430007060033608060405234801561001057600080fd5b50600080546001600160a01b031916301790556115e8806100326000396000f3fe608060405234801561001057600080fd5b50600436106100935760003560e01c80636a6acf22116100665780636a6acf22146100e85780639af0a55114610108578063c4d66de814610110578063dd3c351714610123578063f9fa619a1461012b57610093565b806313b0be3314610098578063217a4b70146100c1578063324b8d6e146100d657806368a79f9c146100de575b600080fd5b6100ab6100a6366004611320565b61013e565b6040516100b89190611402565b60405180910390f35b6100c961027c565b6040516100b891906113a4565b6100c961030c565b6100e661031b565b005b6100fb6100f63660046111b9565b6104b6565b6040516100b8919061153a565b6100fb6105e4565b6100e661011e3660046110dc565b6106fb565b6100ab61077a565b6100e66101393660046110dc565b6107b9565b60006001600160801b038311156101705760405162461bcd60e51b81526004016101679061140b565b60405180910390fd5b60008060009054906101000a90046001600160a01b03166001600160a01b031663c3f909d46040518163ffffffff1660e01b815260040160806040518083038186803b1580156101bf57600080fd5b505afa1580156101d3573d6000803e3d6000fd5b505050506040513d601f19601f820116820180604052508101906101f79190611203565b905080602001516001600160a01b0316836001600160a01b0316141561022f5760405162461bcd60e51b815260040161016790611504565b6000610243826000015183604001516107bc565b90506102558186868560200151610850565b9250826102745760405162461bcd60e51b81526004016101679061142d565b505092915050565b60008060009054906101000a90046001600160a01b03166001600160a01b031663c3f909d46040518163ffffffff1660e01b815260040160806040518083038186803b1580156102cb57600080fd5b505afa1580156102df573d6000803e3d6000fd5b505050506040513d601f19601f820116820180604052508101906103039190611203565b60200151905090565b6000546001600160a01b031681565b60008060009054906101000a90046001600160a01b03166001600160a01b031663c3f909d46040518163ffffffff1660e01b815260040160806040518083038186803b15801561036a57600080fd5b505afa15801561037e573d6000803e3d6000fd5b505050506040513d601f19601f820116820180604052508101906103a29190611203565b9050600081600001516001600160a01b0316633850c7bd6040518163ffffffff1660e01b815260040160e06040518083038186803b1580156103e357600080fd5b505afa1580156103f7573d6000803e3d6000fd5b505050506040513d601f19601f8201168201806040525081019061041b919061127f565b5050945050505050816060015161ffff168161ffff161061044e5760405162461bcd60e51b8152600401610167906114c1565b815160608301516040516332148f6760e01b81526001600160a01b03909216916332148f67916104809160040161152b565b600060405180830381600087803b15801561049a57600080fd5b505af11580156104ae573d6000803e3d6000fd5b505050505050565b600080846001600160a01b031663252c09d78461ffff168660010161ffff16816104dc57fe5b066040518263ffffffff1660e01b81526004016104f9919061152b565b60806040518083038186803b15801561051157600080fd5b505afa158015610525573d6000803e3d6000fd5b505050506040513d601f19601f82011682018060405250810190610549919061134f565b9294509192508291506105dc90505760405163252c09d760e01b81526001600160a01b0386169063252c09d79061058590600090600401611402565b60806040518083038186803b15801561059d57600080fd5b505afa1580156105b1573d6000803e3d6000fd5b505050506040513d601f19601f820116820180604052508101906105d5919061134f565b5091935050505b509392505050565b60008054604080516330fe427560e21b8152905183926001600160a01b03169163c3f909d4916004808301926080929190829003018186803b15801561062957600080fd5b505afa15801561063d573d6000803e3d6000fd5b505050506040513d601f19601f820116820180604052508101906106619190611203565b905060008082600001516001600160a01b0316633850c7bd6040518163ffffffff1660e01b815260040160e06040518083038186803b1580156106a357600080fd5b505afa1580156106b7573d6000803e3d6000fd5b505050506040513d601f19601f820116820180604052508101906106db919061127f565b5050509350935050506106f3836000015183836104b6565b935050505090565b6000546001600160a01b0316156107245760405162461bcd60e51b815260040161016790611450565b600080546001600160a01b0319166001600160a01b0383161790556040517fed1366a3ee45e9f12efb7c60c52c940da558f2e33acd595abf783bd741c2efcf9061076f9083906113a4565b60405180910390a150565b604051602401610789906114e7565b60408051601f198184030181529190526020810180516001600160e01b031662461bcd60e51b1781529051902081565b50565b60008060006107cb8585610947565b915091506000816000815181106107de57fe5b6020026020010151826001815181106107f357fe5b60200260200101510390508263ffffffff168160060b8161081057fe5b05935060008160060b12801561083a57508263ffffffff168160060b8161083357fe5b0760060b15155b1561084757600019909301925b50505092915050565b60008061085c86610a31565b90506001600160801b036001600160a01b038216116108cb576001600160a01b03808216800290848116908616106108ab576108a6600160c01b876001600160801b031683610d63565b6108c3565b6108c381876001600160801b0316600160c01b610d63565b92505061093e565b60006108ea6001600160a01b0383168068010000000000000000610d63565b9050836001600160a01b0316856001600160a01b0316106109225761091d600160801b876001600160801b031683610d63565b61093a565b61093a81876001600160801b0316600160801b610d63565b9250505b50949350505050565b80606060006109568584610e13565b90925090508015610a2957600080866001600160a01b0316633850c7bd6040518163ffffffff1660e01b815260040160e06040518083038186803b15801561099d57600080fd5b505afa1580156109b1573d6000803e3d6000fd5b505050506040513d601f19601f820116820180604052508101906109d5919061127f565b50505093509350505060006109eb8884846104b6565b90508063ffffffff1642039550610a028887610e13565b90955093508315610a255760405162461bcd60e51b81526004016101679061149e565b5050505b509250929050565b60008060008360020b12610a48578260020b610a50565b8260020b6000035b9050620d89e8811115610a8e576040805162461bcd60e51b81526020600482015260016024820152601560fa1b604482015290519081900360640190fd5b600060018216610aa257600160801b610ab4565b6ffffcb933bd6fad37aa2d162d1a5940015b70ffffffffffffffffffffffffffffffffff1690506002821615610ae8576ffff97272373d413259a46990580e213a0260801c5b6004821615610b07576ffff2e50f5f656932ef12357cf3c7fdcc0260801c5b6008821615610b26576fffe5caca7e10e4e61c3624eaa0941cd00260801c5b6010821615610b45576fffcb9843d60f6159c9db58835c9266440260801c5b6020821615610b64576fff973b41fa98c081472e6896dfb254c00260801c5b6040821615610b83576fff2ea16466c96a3843ec78b326b528610260801c5b6080821615610ba2576ffe5dee046a99a2a811c461f1969c30530260801c5b610100821615610bc2576ffcbe86c7900a88aedcffc83b479aa3a40260801c5b610200821615610be2576ff987a7253ac413176f2b074cf7815e540260801c5b610400821615610c02576ff3392b0822b70005940c7a398e4b70f30260801c5b610800821615610c22576fe7159475a2c29b7443b29c7fa6e889d90260801c5b611000821615610c42576fd097f3bdfd2022b8845ad8f792aa58250260801c5b612000821615610c62576fa9f746462d870fdf8a65dc1f90e061e50260801c5b614000821615610c82576f70d869a156d2a1b890bb3df62baf32f70260801c5b618000821615610ca2576f31be135f97d08fd981231505542fcfa60260801c5b62010000821615610cc3576f09aa508b5b7a84e1c677de54f3e99bc90260801c5b62020000821615610ce3576e5d6af8dedb81196699c329225ee6040260801c5b62040000821615610d02576d2216e584f5fa1ea926041bedfe980260801c5b62080000821615610d1f576b048a170391f7dc42444e8fa20260801c5b60008460020b1315610d3a578060001981610d3657fe5b0490505b640100000000810615610d4e576001610d51565b60005b60ff16602082901c0192505050919050565b6000808060001985870986860292508281109083900303905080610d995760008411610d8e57600080fd5b508290049050610e0c565b808411610da557600080fd5b6000848688096000868103871696879004966002600389028118808a02820302808a02820302808a02820302808a02820302808a02820302808a02909103029181900381900460010186841190950394909402919094039290920491909117919091029150505b9392505050565b604080516002808252606082810190935260009182918160200160208202803683370190505090508381600081518110610e4957fe5b63ffffffff9092166020928302919091019091015260405163883bdbfd60e01b81526001600160a01b0386169063883bdbfd90610e8a9084906004016113b8565b60006040518083038186803b158015610ea257600080fd5b505afa925050508015610ed757506040513d6000823e601f3d908101601f19168201604052610ed491908101906110f8565b60015b610f8b573d808015610f05576040519150601f19603f3d011682016040523d82523d6000602084013e610f0a565b606091505b50604051602401610f1a906114e7565b60408051601f19818403018152919052602080820180516001600160e01b031662461bcd60e51b178152915190912082519183019190912014610f81576040805180820190915260088152675f6f62736572766560c01b6020820152610f81908290610f98565b6001925050610a29565b5095600095509350505050565b815115610fa757815182602001fd5b8060405162461bcd60e51b81526004018080602001828103825283818151815260200191508051906020019080838360005b83811015610ff1578181015183820152602001610fd9565b50505050905090810190601f16801561101e5780820380516001836020036101000a031916815260200191505b509250505060405180910390fd5b600082601f83011261103c578081fd5b8151602061105161104c8361156f565b61154b565b828152818101908583018385028701840188101561106d578586fd5b855b858110156110945781516110828161158d565b8452928401929084019060010161106f565b5090979650505050505050565b805180151581146110b157600080fd5b919050565b8051600681900b81146110b157600080fd5b805163ffffffff811681146110b157600080fd5b6000602082840312156110ed578081fd5b8135610e0c8161158d565b6000806040838503121561110a578081fd5b825167ffffffffffffffff80821115611121578283fd5b818501915085601f830112611134578283fd5b8151602061114461104c8361156f565b82815281810190858301838502870184018b1015611160578788fd5b8796505b8487101561118957611175816110b6565b835260019690960195918301918301611164565b50918801519196509093505050808211156111a2578283fd5b506111af8582860161102c565b9150509250929050565b6000806000606084860312156111cd578081fd5b83356111d88161158d565b925060208401356111e8816115a2565b915060408401356111f8816115a2565b809150509250925092565b600060808284031215611214578081fd5b6040516080810181811067ffffffffffffffff8211171561123157fe5b604052825161123f8161158d565b8152602083015161124f8161158d565b6020820152611260604084016110c8565b60408201526060830151611273816115a2565b60608201529392505050565b600080600080600080600060e0888a031215611299578283fd5b87516112a48161158d565b8097505060208801518060020b81146112bb578384fd5b60408901519096506112cc816115a2565b60608901519095506112dd816115a2565b60808901519094506112ee816115a2565b60a089015190935060ff81168114611304578283fd5b915061131260c089016110a1565b905092959891949750929550565b60008060408385031215611332578182fd5b8235915060208301356113448161158d565b809150509250929050565b60008060008060808587031215611364578182fd5b61136d856110c8565b935061137b602086016110b6565b9250604085015161138b8161158d565b9150611399606086016110a1565b905092959194509250565b6001600160a01b0391909116815260200190565b6020808252825182820181905260009190848201906040850190845b818110156113f657835163ffffffff16835292840192918401916001016113d4565b50909695505050505050565b90815260200190565b6020808252600890820152674f766572666c6f7760c01b604082015260600190565b6020808252600990820152685a65726f51756f746560b81b604082015260600190565b6020808252602e908201527f496e697469616c697a61626c653a20636f6e747261637420697320616c72656160408201526d191e481a5b9a5d1a585b1a5e995960921b606082015260800190565b60208082526009908201526814d51253130813d31160ba1b604082015260600190565b6020808252600c908201526b4e6f744e656365737361727960a01b604082015260600190565b60208082526003908201526213d31160ea1b604082015260600190565b6020808252600d908201526c155cd950985cd9505b5bdd5b9d609a1b604082015260600190565b61ffff91909116815260200190565b63ffffffff91909116815260200190565b60405181810167ffffffffffffffff8111828210171561156757fe5b604052919050565b600067ffffffffffffffff82111561158357fe5b5060209081020190565b6001600160a01b03811681146107b957600080fd5b61ffff811681146107b957600080fdfea2646970667358221220f039820fc0dd15c17275d1ca0b623e86e71fe454742b6800bb859cfbb76f3ed664736f6c63430007060033",
  "language": "Solidity",
  "compiler": "0.7.6+commit.7338295f"
}