{
  "_format": "hh-sol-artifact-1",
  "contractName": "MockTetuShareValueHelper",
  "sourceName": "contracts/test/MockTetuShareValueHelper.sol",
  "abi": [
    {
      "inputs": [
        {
          "internalType": "uint256",
          "name": "wrappedAmount",
          "type": "uint256"
        },
        {
          "internalType": "contract ITetuSmartVault",
          "name": "wrappedToken",
          "type": "address"
        }
      ],
      "name": "fromTetuAmount",
      "outputs": [
        {
          "internalType": "uint256",
          "name": "",
          "type": "uint256"
        }
      ],
      "stateMutability": "view",
      "type": "function"
    },
    {
      "inputs": [
        {
          "internalType": "uint256",
          "name": "mainAmount",
          "type": "uint256"
        },
        {
          "internalType": "contract ITetuSmartVault",
          "name": "wrappedToken",
          "type": "address"
        }
      ],
      "name": "toTetuAmount",
      "outputs": [
        {
          "internalType": "uint256",
          "name": "",
          "type": "uint256"
        }
      ],
      "stateMutability": "view",
      "type": "function"
    }
  ],
  "bytecode": "0x60a0604052670de0b6b3a764000060805234801561001c57600080fd5b5060805161058d61003c600039806101585280610354525061058d6000f3fe608060405234801561001057600080fd5b50600436106100365760003560e01c80634d9ab5cb1461003b578063c8f93a9d14610064575b600080fd5b61004e6100493660046104fd565b610077565b60405161005b919061052c565b60405180910390f35b61004e6100723660046104fd565b61008a565b60006100838383610096565b9392505050565b600061008383836100b6565b6000806100a2836100ce565b90506100ae8482610232565b949350505050565b6000806100c2836100ce565b90506100ae848261026a565b6000808273ffffffffffffffffffffffffffffffffffffffff166318160ddd6040518163ffffffff1660e01b815260040160206040518083038186803b15801561011757600080fd5b505afa15801561012b573d6000803e3d6000fd5b505050506040513d601f19601f8201168201806040525081019061014f91906104e5565b90508061017f577f000000000000000000000000000000000000000000000000000000000000000091505061022d565b60008373ffffffffffffffffffffffffffffffffffffffff1663c2baf3566040518163ffffffff1660e01b815260040160206040518083038186803b1580156101c757600080fd5b505afa1580156101db573d6000803e3d6000fd5b505050506040513d601f19601f820116820180604052508101906101ff91906104e5565b9050600061020c856102b4565b9050600061021a8383610401565b9050610226818561026a565b9450505050505b919050565b600082820261025684158061024f57508385838161024c57fe5b04145b600361040f565b670de0b6b3a7640000815b04949350505050565b6000610279821515600461040f565b670de0b6b3a764000083026102ab8415806102a45750670de0b6b3a76400008583816102a157fe5b04145b600561040f565b82818161026157fe5b6000808273ffffffffffffffffffffffffffffffffffffffff1663a8c62e766040518163ffffffff1660e01b815260040160206040518083038186803b1580156102fd57600080fd5b505afa158015610311573d6000803e3d6000fd5b505050506040513d601f19601f8201168201806040525081019061033591906104c9565b905073ffffffffffffffffffffffffffffffffffffffff811661037b577f000000000000000000000000000000000000000000000000000000000000000091505061022d565b8073ffffffffffffffffffffffffffffffffffffffff166345d01e4a6040518163ffffffff1660e01b815260040160206040518083038186803b1580156103c157600080fd5b505afa1580156103d5573d6000803e3d6000fd5b505050506040513d601f19601f820116820180604052508101906103f991906104e5565b91505061022d565b600082820161008384821015835b8161041d5761041d81610421565b5050565b61044b817f42414c000000000000000000000000000000000000000000000000000000000061044e565b50565b7f08c379a000000000000000000000000000000000000000000000000000000000600090815260206004526007602452600a808404818106603090810160081b958390069590950190829004918206850160101b01602363ffffff0060e086901c160160181b0190930160c81b60445260e882901c90606490fd5b6000602082840312156104da578081fd5b815161008381610535565b6000602082840312156104f6578081fd5b5051919050565b6000806040838503121561050f578081fd5b82359150602083013561052181610535565b809150509250929050565b90815260200190565b73ffffffffffffffffffffffffffffffffffffffff8116811461044b57600080fdfea264697066735822122038c62ad08ce6d4e99322370a974f6da82d15be0195029c90b82948bb0353a6da64736f6c63430007010033",
  "linkReferences": {},
  "deployedLinkReferences": {}
}