{
  "_format": "hh-sol-artifact-1",
  "contractName": "ProtocolFeeSplitter",
  "sourceName": "contracts/ProtocolFeeSplitter.sol",
  "abi": [
    {
      "inputs": [
        {
          "internalType": "contract IProtocolFeesWithdrawer",
          "name": "protocolFeesWithdrawer",
          "type": "address"
        },
        {
          "internalType": "address",
          "name": "daoFundsRecipient",
          "type": "address"
        }
      ],
      "stateMutability": "nonpayable",
      "type": "constructor"
    },
    {
      "anonymous": false,
      "inputs": [
        {
          "indexed": false,
          "internalType": "address",
          "name": "newDaoFundsRecipient",
          "type": "address"
        }
      ],
      "name": "DAOFundsRecipientChanged",
      "type": "event"
    },
    {
      "anonymous": false,
      "inputs": [
        {
          "indexed": false,
          "internalType": "uint256",
          "name": "revenueSharePercentage",
          "type": "uint256"
        }
      ],
      "name": "DefaultRevenueSharePercentageChanged",
      "type": "event"
    },
    {
      "anonymous": false,
      "inputs": [
        {
          "indexed": true,
          "internalType": "bytes32",
          "name": "poolId",
          "type": "bytes32"
        },
        {
          "indexed": true,
          "internalType": "address",
          "name": "beneficiary",
          "type": "address"
        },
        {
          "indexed": false,
          "internalType": "uint256",
          "name": "poolEarned",
          "type": "uint256"
        },
        {
          "indexed": true,
          "internalType": "address",
          "name": "daoFundsRecipient",
          "type": "address"
        },
        {
          "indexed": false,
          "internalType": "uint256",
          "name": "daoEarned",
          "type": "uint256"
        }
      ],
      "name": "FeesCollected",
      "type": "event"
    },
    {
      "anonymous": false,
      "inputs": [
        {
          "indexed": true,
          "internalType": "bytes32",
          "name": "poolId",
          "type": "bytes32"
        },
        {
          "indexed": false,
          "internalType": "address",
          "name": "newBeneficiary",
          "type": "address"
        }
      ],
      "name": "PoolBeneficiaryChanged",
      "type": "event"
    },
    {
      "anonymous": false,
      "inputs": [
        {
          "indexed": true,
          "internalType": "bytes32",
          "name": "poolId",
          "type": "bytes32"
        },
        {
          "indexed": false,
          "internalType": "uint256",
          "name": "revenueSharePercentage",
          "type": "uint256"
        }
      ],
      "name": "PoolRevenueShareChanged",
      "type": "event"
    },
    {
      "anonymous": false,
      "inputs": [
        {
          "indexed": true,
          "internalType": "bytes32",
          "name": "poolId",
          "type": "bytes32"
        }
      ],
      "name": "PoolRevenueShareCleared",
      "type": "event"
    },
    {
      "inputs": [
        {
          "internalType": "bytes32",
          "name": "poolId",
          "type": "bytes32"
        }
      ],
      "name": "clearRevenueSharePercentage",
      "outputs": [],
      "stateMutability": "nonpayable",
      "type": "function"
    },
    {
      "inputs": [
        {
          "internalType": "bytes32",
          "name": "poolId",
          "type": "bytes32"
        }
      ],
      "name": "collectFees",
      "outputs": [
        {
          "internalType": "uint256",
          "name": "beneficiaryAmount",
          "type": "uint256"
        },
        {
          "internalType": "uint256",
          "name": "daoAmount",
          "type": "uint256"
        }
      ],
      "stateMutability": "nonpayable",
      "type": "function"
    },
    {
      "inputs": [
        {
          "internalType": "bytes4",
          "name": "selector",
          "type": "bytes4"
        }
      ],
      "name": "getActionId",
      "outputs": [
        {
          "internalType": "bytes32",
          "name": "",
          "type": "bytes32"
        }
      ],
      "stateMutability": "view",
      "type": "function"
    },
    {
      "inputs": [
        {
          "internalType": "bytes32",
          "name": "poolId",
          "type": "bytes32"
        }
      ],
      "name": "getAmounts",
      "outputs": [
        {
          "internalType": "uint256",
          "name": "beneficiaryAmount",
          "type": "uint256"
        },
        {
          "internalType": "uint256",
          "name": "daoAmount",
          "type": "uint256"
        }
      ],
      "stateMutability": "view",
      "type": "function"
    },
    {
      "inputs": [],
      "name": "getAuthorizer",
      "outputs": [
        {
          "internalType": "contract IAuthorizer",
          "name": "",
          "type": "address"
        }
      ],
      "stateMutability": "view",
      "type": "function"
    },
    {
      "inputs": [],
      "name": "getDaoFundsRecipient",
      "outputs": [
        {
          "internalType": "address",
          "name": "",
          "type": "address"
        }
      ],
      "stateMutability": "view",
      "type": "function"
    },
    {
      "inputs": [],
      "name": "getDefaultRevenueSharePercentage",
      "outputs": [
        {
          "internalType": "uint256",
          "name": "",
          "type": "uint256"
        }
      ],
      "stateMutability": "view",
      "type": "function"
    },
    {
      "inputs": [],
      "name": "getProtocolFeesWithdrawer",
      "outputs": [
        {
          "internalType": "contract IProtocolFeesWithdrawer",
          "name": "",
          "type": "address"
        }
      ],
      "stateMutability": "view",
      "type": "function"
    },
    {
      "inputs": [
        {
          "internalType": "bytes32",
          "name": "poolId",
          "type": "bytes32"
        }
      ],
      "name": "getRevenueShareSettings",
      "outputs": [
        {
          "internalType": "uint256",
          "name": "revenueSharePercentageOverride",
          "type": "uint256"
        },
        {
          "internalType": "address",
          "name": "beneficiary",
          "type": "address"
        },
        {
          "internalType": "bool",
          "name": "overrideSet",
          "type": "bool"
        }
      ],
      "stateMutability": "view",
      "type": "function"
    },
    {
      "inputs": [],
      "name": "getVault",
      "outputs": [
        {
          "internalType": "contract IVault",
          "name": "",
          "type": "address"
        }
      ],
      "stateMutability": "view",
      "type": "function"
    },
    {
      "inputs": [
        {
          "internalType": "address",
          "name": "newDaoFundsRecipient",
          "type": "address"
        }
      ],
      "name": "setDaoFundsRecipient",
      "outputs": [],
      "stateMutability": "nonpayable",
      "type": "function"
    },
    {
      "inputs": [
        {
          "internalType": "uint256",
          "name": "defaultRevenueSharePercentage",
          "type": "uint256"
        }
      ],
      "name": "setDefaultRevenueSharePercentage",
      "outputs": [],
      "stateMutability": "nonpayable",
      "type": "function"
    },
    {
      "inputs": [
        {
          "internalType": "bytes32",
          "name": "poolId",
          "type": "bytes32"
        },
        {
          "internalType": "address",
          "name": "newBeneficiary",
          "type": "address"
        }
      ],
      "name": "setPoolBeneficiary",
      "outputs": [],
      "stateMutability": "nonpayable",
      "type": "function"
    },
    {
      "inputs": [
        {
          "internalType": "bytes32",
          "name": "poolId",
          "type": "bytes32"
        },
        {
          "internalType": "uint256",
          "name": "revenueSharePercentage",
          "type": "uint256"
        }
      ],
      "name": "setRevenueSharePercentage",
      "outputs": [],
      "stateMutability": "nonpayable",
      "type": "function"
    }
  ],
  "bytecode": "0x60e060405234801561001057600080fd5b506040516113973803806113978339818101604052604081101561003357600080fd5b5080516020918201516040805163d2946c2b60e01b81529051929391926001600160a01b0385169263d2946c2b9260048082019391829003018186803b15801561007c57600080fd5b505afa158015610090573d6000803e3d6000fd5b505050506040513d60208110156100a657600080fd5b50516040805163fbfa77cf60e01b815290516001600160a01b039092169163fbfa77cf91600480820192602092909190829003018186803b1580156100ea57600080fd5b505afa1580156100fe573d6000803e3d6000fd5b505050506040513d602081101561011457600080fd5b5051306080819052606082811b6001600160601b031990811660a0529085901b1660c052600080546001600160a01b0319166001600160a01b039485161781559093918316929091169061120c9061018b9039806104ca5280610c565280610eba5250806108f752508061086e525061120c6000f3fe608060405234801561001057600080fd5b50600436106100ea5760003560e01c8063851c1bb31161008c57806392b2b1f61161006657806392b2b1f61461026d5780639d8669d31461028a578063aaabadc5146102a7578063d6c9cd58146102af576100ea565b8063851c1bb31461021e57806389ee2f261461025d5780638d928af814610265576100ea565b80634f4f4bc7116100c85780634f4f4bc714610164578063644b3f1b146101955780637ab74be4146101af578063817db73b146101e8576100ea565b80631cb594fc146100ef5780633b0cf663146101145780634ca760eb14610131575b600080fd5b6101126004803603604081101561010557600080fd5b5080359060200135610301565b005b6101126004803603602081101561012a57600080fd5b50356103e2565b6101126004803603602081101561014757600080fd5b503573ffffffffffffffffffffffffffffffffffffffff16610447565b61016c6104c8565b6040805173ffffffffffffffffffffffffffffffffffffffff9092168252519081900360200190f35b61019d6104ec565b60408051918252519081900360200190f35b610112600480360360408110156101c557600080fd5b508035906020013573ffffffffffffffffffffffffffffffffffffffff166104f2565b610205600480360360208110156101fe57600080fd5b5035610703565b6040805192835260208301919091528051918290030190f35b61019d6004803603602081101561023457600080fd5b50357fffffffff0000000000000000000000000000000000000000000000000000000016610868565b61016c6108d9565b61016c6108f5565b6101126004803603602081101561028357600080fd5b5035610919565b610205600480360360208110156102a057600080fd5b5035610973565b61016c610a13565b6102cc600480360360208110156102c557600080fd5b5035610a93565b6040805193845273ffffffffffffffffffffffffffffffffffffffff9092166020840152151582820152519081900360600190f35b610309610b33565b6103206706f05b59d3b200008211156102bc610b74565b60008281526002602090815260409182902080547f01000000000000000000000000000000000000000000000000000000000000007fffffffffffffffffffffffffffffffffffffffffff00000000000000000000009091166affffffffffffffffffffff8616177effffffffffffffffffffffffffffffffffffffffffffffffffffffffffffff161790558151838152915184927f351d078d378f4b620d746f0652a508c25d9c47976faf18fa2effff8c7b2f92d792908290030190a25050565b6103ea610b33565b60008181526002602052604080822080547effffffffffffffffffffffffffffffffffffffffffffffffffffffffffffff1690555182917feb38a0068c73c40208bc11bcae0ce98b58a5f422aef6dd1c38380cb8feec69ed91a250565b61044f610b33565b6000805473ffffffffffffffffffffffffffffffffffffffff83167fffffffffffffffffffffffff0000000000000000000000000000000000000000909116811790915560408051918252517f1df61f1f2a3e1213878b7b52bc8526b262948087505f0060af8cadae8bcc10309181900360200190a150565b7f000000000000000000000000000000000000000000000000000000000000000090565b60015490565b60006104fc6108f5565b73ffffffffffffffffffffffffffffffffffffffff1663f6c00927846040518263ffffffff1660e01b815260040180828152602001915050604080518083038186803b15801561054b57600080fd5b505afa15801561055f573d6000803e3d6000fd5b505050506040513d604081101561057557600080fd5b5051604080517f893d20e800000000000000000000000000000000000000000000000000000000815290519192506106689173ffffffffffffffffffffffffffffffffffffffff84169163893d20e8916004808301926020929190829003018186803b1580156105e457600080fd5b505afa1580156105f8573d6000803e3d6000fd5b505050506040513d602081101561060e57600080fd5b505173ffffffffffffffffffffffffffffffffffffffff16331480610660575061066061065a7f7ab74be400000000000000000000000000000000000000000000000000000000610868565b33610b86565b610191610b74565b60008381526002602090815260409182902080547fff0000000000000000000000000000000000000000ffffffffffffffffffffff166b01000000000000000000000073ffffffffffffffffffffffffffffffffffffffff8716908102919091179091558251908152915185927fe465e96a44286b329b8c54cccf70d1d6274e8efaea722886b9859f2fe72e434c92908290030190a2505050565b60008060006107106108f5565b73ffffffffffffffffffffffffffffffffffffffff1663f6c00927856040518263ffffffff1660e01b815260040180828152602001915050604080518083038186803b15801561075f57600080fd5b505afa158015610773573d6000803e3d6000fd5b505050506040513d604081101561078957600080fd5b505160008581526002602052604090205490915081906b010000000000000000000000900473ffffffffffffffffffffffffffffffffffffffff166107ce8287610c4f565b90955093506107de828683610e1a565b600054610804908390869073ffffffffffffffffffffffffffffffffffffffff16610e1a565b6000546040805187815260208101879052815173ffffffffffffffffffffffffffffffffffffffff938416938516928a927f5e6a5d32e254e9a9ada84103f092032c1e3a9882a3a838d3fbe3a3d7e443d997929081900390910190a4505050915091565b604080517f00000000000000000000000000000000000000000000000000000000000000006020808301919091527fffffffff000000000000000000000000000000000000000000000000000000008416828401528251602481840301815260449092019092528051910120919050565b60005473ffffffffffffffffffffffffffffffffffffffff1690565b7f000000000000000000000000000000000000000000000000000000000000000090565b610921610b33565b6109386706f05b59d3b200008211156102bc610b74565b60018190556040805182815290517f23f865882575e5485ec12a672dffa26f3ee0470c2434333b8fde4cc38b48c58c9181900360200190a150565b60008060006109806108f5565b73ffffffffffffffffffffffffffffffffffffffff1663f6c00927856040518263ffffffff1660e01b815260040180828152602001915050604080518083038186803b1580156109cf57600080fd5b505afa1580156109e3573d6000803e3d6000fd5b505050506040513d60408110156109f957600080fd5b5051905080610a088186610c4f565b935093505050915091565b6000610a1d6108f5565b73ffffffffffffffffffffffffffffffffffffffff1663aaabadc56040518163ffffffff1660e01b815260040160206040518083038186803b158015610a6257600080fd5b505afa158015610a76573d6000803e3d6000fd5b505050506040513d6020811015610a8c57600080fd5b5051905090565b6000806000610aa06111b6565b50505060009182525060026020908152604091829020825160608101845290546affffffffffffffffffffff81168083526b010000000000000000000000820473ffffffffffffffffffffffffffffffffffffffff169383018490527f010000000000000000000000000000000000000000000000000000000000000090910460ff161515919093018190529192909190565b6000610b626000357fffffffff0000000000000000000000000000000000000000000000000000000016610868565b9050610b716106608233610b86565b50565b81610b8257610b8281610fed565b5050565b6000610b90610a13565b73ffffffffffffffffffffffffffffffffffffffff16639be2a8848484306040518463ffffffff1660e01b8152600401808481526020018373ffffffffffffffffffffffffffffffffffffffff1681526020018273ffffffffffffffffffffffffffffffffffffffff168152602001935050505060206040518083038186803b158015610c1c57600080fd5b505afa158015610c30573d6000803e3d6000fd5b505050506040513d6020811015610c4657600080fd5b50519392505050565b60008060007f0000000000000000000000000000000000000000000000000000000000000000905060008573ffffffffffffffffffffffffffffffffffffffff166370a082318373ffffffffffffffffffffffffffffffffffffffff1663d2946c2b6040518163ffffffff1660e01b815260040160206040518083038186803b158015610cdb57600080fd5b505afa158015610cef573d6000803e3d6000fd5b505050506040513d6020811015610d0557600080fd5b5051604080517fffffffff0000000000000000000000000000000000000000000000000000000060e085901b16815273ffffffffffffffffffffffffffffffffffffffff9092166004830152516024808301926020929190829003018186803b158015610d7157600080fd5b505afa158015610d85573d6000803e3d6000fd5b505050506040513d6020811015610d9b57600080fd5b5051905080610db257600080935093505050610e13565b6000858152600260205260409020546b010000000000000000000000900473ffffffffffffffffffffffffffffffffffffffff1680610df95750600093509150610e139050565b610e0b82610e0688611017565b6110cd565b945094505050505b9250929050565b81610e2457610fe8565b604080516001808252818301909252606091602080830190803683370190505090508381600081518110610e5457fe5b73ffffffffffffffffffffffffffffffffffffffff92909216602092830291909101909101526040805160018082528183019092526060918160200160208202803683370190505090508381600081518110610eac57fe5b6020026020010181815250507f000000000000000000000000000000000000000000000000000000000000000073ffffffffffffffffffffffffffffffffffffffff16636daefab68383866040518463ffffffff1660e01b81526004018080602001806020018473ffffffffffffffffffffffffffffffffffffffff168152602001838103835286818151815260200191508051906020019060200280838360005b83811015610f66578181015183820152602001610f4e565b50505050905001838103825285818151815260200191508051906020019060200280838360005b83811015610fa5578181015183820152602001610f8d565b5050505090500195505050505050600060405180830381600087803b158015610fcd57600080fd5b505af1158015610fe1573d6000803e3d6000fd5b5050505050505b505050565b610b71817f42414c00000000000000000000000000000000000000000000000000000000006110ef565b60006110216111b6565b50600082815260026020908152604091829020825160608101845290546affffffffffffffffffffff811682526b010000000000000000000000810473ffffffffffffffffffffffffffffffffffffffff16928201929092527f010000000000000000000000000000000000000000000000000000000000000090910460ff161515918101829052906110b6576001546110c6565b80516affffffffffffffffffffff165b9392505050565b6000806110da848461116a565b91506110e684836111a0565b90509250929050565b7f08c379a000000000000000000000000000000000000000000000000000000000600090815260206004526007602452600a808404818106603090810160081b958390069590950190829004918206850160101b01602363ffffff0060e086901c160160181b0190930160c81b60445260e882901c90606490fd5b600082820261118e84158061118757508385838161118457fe5b04145b6003610b74565b670de0b6b3a764000090049392505050565b60006111b0838311156001610b74565b50900390565b60408051606081018252600080825260208201819052918101919091529056fea264697066735822122093ae0cdea0f6167b5ee02c7bf6e33dd8e9241dd92be4771133fe5c6b4ea051fb64736f6c63430007010033",
  "linkReferences": {},
  "deployedLinkReferences": {}
}