{
  "_format": "hh-sol-artifact-1",
  "contractName": "MockBaseRelayerLibrary",
  "sourceName": "contracts/test/MockBaseRelayerLibrary.sol",
  "abi": [
    {
      "inputs": [
        {
          "internalType": "contract IVault",
          "name": "vault",
          "type": "address"
        }
      ],
      "stateMutability": "nonpayable",
      "type": "constructor"
    },
    {
      "anonymous": false,
      "inputs": [
        {
          "indexed": false,
          "internalType": "uint256",
          "name": "value",
          "type": "uint256"
        }
      ],
      "name": "ChainedReferenceValueRead",
      "type": "event"
    },
    {
      "inputs": [
        {
          "internalType": "contract IERC20",
          "name": "token",
          "type": "address"
        },
        {
          "internalType": "uint256",
          "name": "amount",
          "type": "uint256"
        }
      ],
      "name": "approveVault",
      "outputs": [],
      "stateMutability": "payable",
      "type": "function"
    },
    {
      "inputs": [
        {
          "internalType": "bytes",
          "name": "input",
          "type": "bytes"
        }
      ],
      "name": "bytesTunnel",
      "outputs": [
        {
          "internalType": "bytes",
          "name": "",
          "type": "bytes"
        }
      ],
      "stateMutability": "pure",
      "type": "function"
    },
    {
      "inputs": [
        {
          "internalType": "uint256",
          "name": "ref",
          "type": "uint256"
        }
      ],
      "name": "getChainedReferenceValue",
      "outputs": [],
      "stateMutability": "nonpayable",
      "type": "function"
    },
    {
      "inputs": [],
      "name": "getEntrypoint",
      "outputs": [
        {
          "internalType": "contract IBalancerRelayer",
          "name": "",
          "type": "address"
        }
      ],
      "stateMutability": "view",
      "type": "function"
    },
    {
      "inputs": [],
      "name": "getVault",
      "outputs": [
        {
          "internalType": "contract IVault",
          "name": "",
          "type": "address"
        }
      ],
      "stateMutability": "view",
      "type": "function"
    },
    {
      "inputs": [
        {
          "internalType": "uint256",
          "name": "amount",
          "type": "uint256"
        }
      ],
      "name": "isChainedReference",
      "outputs": [
        {
          "internalType": "bool",
          "name": "",
          "type": "bool"
        }
      ],
      "stateMutability": "pure",
      "type": "function"
    },
    {
      "inputs": [
        {
          "internalType": "uint256",
          "name": "ref",
          "type": "uint256"
        }
      ],
      "name": "peekChainedReferenceValue",
      "outputs": [
        {
          "internalType": "uint256",
          "name": "value",
          "type": "uint256"
        }
      ],
      "stateMutability": "view",
      "type": "function"
    },
    {
      "inputs": [
        {
          "internalType": "uint256",
          "name": "ref",
          "type": "uint256"
        },
        {
          "internalType": "uint256",
          "name": "value",
          "type": "uint256"
        }
      ],
      "name": "setChainedReferenceValue",
      "outputs": [],
      "stateMutability": "nonpayable",
      "type": "function"
    },
    {
      "inputs": [
        {
          "internalType": "address",
          "name": "relayer",
          "type": "address"
        },
        {
          "internalType": "bool",
          "name": "approved",
          "type": "bool"
        },
        {
          "internalType": "bytes",
          "name": "authorisation",
          "type": "bytes"
        }
      ],
      "name": "setRelayerApproval",
      "outputs": [],
      "stateMutability": "payable",
      "type": "function"
    }
  ],
  "bytecode": "0x6101006040527fae1dc54057af8e8e5ce068cdd4383149c7efcb30e8fb95b592ee1594367fb50960e05234801561003557600080fd5b506040516200162f3803806200162f83398101604081905261005691610141565b80806001600160a01b031663ad5c46486040518163ffffffff1660e01b815260040160206040518083038186803b15801561009057600080fd5b505afa1580156100a4573d6000803e3d6000fd5b505050506040513d601f19601f820116820180604052508101906100c89190610141565b6001600160601b0319606091821b81166080529082901b1660a052604051819030906100f390610133565b6100fe929190610164565b604051809103906000f08015801561011a573d6000803e3d6000fd5b5060601b6001600160601b03191660c052506101969050565b6107878062000ea883390190565b600060208284031215610152578081fd5b815161015d8161017e565b9392505050565b6001600160a01b0392831681529116602082015260400190565b6001600160a01b038116811461019357600080fd5b50565b60805160601c60a05160601c60c05160601c60e051610cd3620001d5600039806107c652508061021152508061034e528061037e525050610cd36000f3fe6080604052600436106100965760003560e01c80638d928af811610069578063c518e5311161004e578063c518e53114610150578063ec6edf0014610170578063f3cab6851461019d57610096565b80638d928af814610128578063b6d247371461013d57610096565b806356cc064e1461009b5780635967b696146100d15780637fd0e5d5146100f357806380db15bd14610115575b600080fd5b3480156100a757600080fd5b506100bb6100b6366004610997565b6101ca565b6040516100c89190610bad565b60405180910390f35b3480156100dd57600080fd5b506100f16100ec366004610a5b565b6101cd565b005b3480156100ff57600080fd5b5061010861020f565b6040516100c89190610be0565b6100f16101233660046108ee565b610233565b34801561013457600080fd5b5061010861037c565b6100f161014b366004610a30565b6103a0565b34801561015c57600080fd5b506100f161016b366004610a8b565b6103e7565b34801561017c57600080fd5b5061019061018b366004610a5b565b6103f1565b6040516100c89190610ba2565b3480156101a957600080fd5b506101bd6101b8366004610a5b565b610402565b6040516100c89190610c38565b90565b7fc78533b5d3aff901cb655b9491c67366edabc3cd9cb680c3934f61d7eb0787526101f782610414565b6040516102049190610c38565b60405180910390a150565b7f000000000000000000000000000000000000000000000000000000000000000090565b73ffffffffffffffffffffffffffffffffffffffff8416301480610255575082155b610294576040517f08c379a000000000000000000000000000000000000000000000000000000000815260040161028b90610c01565b60405180910390fd5b606063fa6e671d60e01b3386866040516024016102b393929190610afb565b60408051601f19818403018152918152602080830180517bffffffffffffffffffffffffffffffffffffffffffffffffffffffff167fffffffff000000000000000000000000000000000000000000000000000000009095169490941790935251610322928691869101610ac8565b60408051601f19818403018152919052905061037473ffffffffffffffffffffffffffffffffffffffff7f0000000000000000000000000000000000000000000000000000000000000000168261043f565b505050505050565b7f000000000000000000000000000000000000000000000000000000000000000090565b6103a9816104c4565b156103ba576103b781610414565b90505b6103e36103c561037c565b73ffffffffffffffffffffffffffffffffffffffff8416908361050b565b5050565b6103e38282610669565b60006103fc826104c4565b92915050565b600061040d8261067c565b9392505050565b60008060006104228461067c565b9150915061042f84610693565b1561040d57600082559392505050565b6060600060608473ffffffffffffffffffffffffffffffffffffffff168460405161046a9190610aac565b6000604051808303816000865af19150503d80600081146104a7576040519150601f19603f3d011682016040523d82523d6000602084013e6104ac565b606091505b50915091506104bb82826106da565b95945050505050565b7ffff0000000000000000000000000000000000000000000000000000000000000167fba100000000000000000000000000000000000000000000000000000000000001490565b80158015906105bc57506040517fdd62ed3e00000000000000000000000000000000000000000000000000000000815273ffffffffffffffffffffffffffffffffffffffff84169063dd62ed3e906105699030908690600401610b2c565b60206040518083038186803b15801561058157600080fd5b505afa158015610595573d6000803e3d6000fd5b505050506040513d601f19601f820116820180604052508101906105b99190610a73565b15155b15610645576106458363095ea7b360e01b8460006040516024016105e1929190610b53565b60408051601f198184030181529190526020810180517bffffffffffffffffffffffffffffffffffffffffffffffffffffffff167fffffffff0000000000000000000000000000000000000000000000000000000090931692909217909152610704565b6106648363095ea7b360e01b84846040516024016105e1929190610b7c565b505050565b6000610674836107b7565b919091555050565b600080610688836107b7565b915081549050915091565b7fffff000000000000000000000000000000000000000000000000000000000000167fba100000000000000000000000000000000000000000000000000000000000001490565b606082156106e95750806103fc565b8151156106f95781518083602001fd5b6103fc6101ae610815565b600060608373ffffffffffffffffffffffffffffffffffffffff168360405161072d9190610aac565b6000604051808303816000865af19150503d806000811461076a576040519150601f19603f3d011682016040523d82523d6000602084013e61076f565b606091505b50915091506000821415610787573d6000803e3d6000fd5b6107b18151600014806107a95750818060200190518101906107a9919061097b565b6101a2610842565b50505050565b600060016107c483610850565b7f00000000000000000000000000000000000000000000000000000000000000006040516020016107f6929190610aed565b60408051808303601f1901815291905280516020909101200392915050565b61083f817f42414c0000000000000000000000000000000000000000000000000000000000610873565b50565b816103e3576103e381610815565b7dffffffffffffffffffffffffffffffffffffffffffffffffffffffffffff1690565b7f08c379a000000000000000000000000000000000000000000000000000000000600090815260206004526007602452600a808404818106603090810160081b958390069590950190829004918206850160101b01602363ffffff0060e086901c160160181b0190930160c81b60445260e882901c90606490fd5b60008060008060608587031215610903578384fd5b843561090e81610c6d565b9350602085013561091e81610c8f565b9250604085013567ffffffffffffffff8082111561093a578384fd5b818701915087601f83011261094d578384fd5b81358181111561095b578485fd5b88602082850101111561096c578485fd5b95989497505060200194505050565b60006020828403121561098c578081fd5b815161040d81610c8f565b600060208083850312156109a9578182fd5b823567ffffffffffffffff808211156109c0578384fd5b818501915085601f8301126109d3578384fd5b8135818111156109e1578485fd5b60405184601f19601f8401168201018181108482111715610a00578687fd5b6040528181528382018501881015610a16578586fd5b818585018683013790810190930193909352509392505050565b60008060408385031215610a42578182fd5b8235610a4d81610c6d565b946020939093013593505050565b600060208284031215610a6c578081fd5b5035919050565b600060208284031215610a84578081fd5b5051919050565b60008060408385031215610a9d578182fd5b50508035926020909101359150565b60008251610abe818460208701610c41565b9190910192915050565b60008451610ada818460208901610c41565b8201838582379092019182525092915050565b918252602082015260400190565b73ffffffffffffffffffffffffffffffffffffffff9384168152919092166020820152901515604082015260600190565b73ffffffffffffffffffffffffffffffffffffffff92831681529116602082015260400190565b73ffffffffffffffffffffffffffffffffffffffff92909216825260ff16602082015260400190565b73ffffffffffffffffffffffffffffffffffffffff929092168252602082015260400190565b901515815260200190565b6000602082528251806020840152610bcc816040850160208701610c41565b601f01601f19169190910160400192915050565b73ffffffffffffffffffffffffffffffffffffffff91909116815260200190565b6020808252601f908201527f52656c617965722063616e206f6e6c7920617070726f766520697473656c6600604082015260600190565b90815260200190565b60005b83811015610c5c578181015183820152602001610c44565b838111156107b15750506000910152565b73ffffffffffffffffffffffffffffffffffffffff8116811461083f57600080fd5b801515811461083f57600080fdfea2646970667358221220607c4445f3fc81a71df16113c26164a1cc99fffc804b8c7838373a8fc03cc43b64736f6c6343000701003360c060405234801561001057600080fd5b5060405161078738038061078783398101604081905261002f91610052565b60016000556001600160601b0319606092831b8116608052911b1660a0526100a3565b60008060408385031215610064578182fd5b825161006f8161008b565b60208401519092506100808161008b565b809150509250929050565b6001600160a01b03811681146100a057600080fd5b50565b60805160601c60a05160601c6106b36100d46000398060fc528061020f5250806058528061012052506106b36000f3fe6080604052600436106100385760003560e01c80637678922e146100885780638d928af8146100b3578063ac9650d8146100c857610083565b36610083576100813373ffffffffffffffffffffffffffffffffffffffff7f000000000000000000000000000000000000000000000000000000000000000016146102066100e8565b005b600080fd5b34801561009457600080fd5b5061009d6100fa565b6040516100aa919061050e565b60405180910390f35b3480156100bf57600080fd5b5061009d61011e565b6100db6100d6366004610480565b610142565b6040516100aa919061052f565b816100f6576100f68161026e565b5050565b7f000000000000000000000000000000000000000000000000000000000000000090565b7f000000000000000000000000000000000000000000000000000000000000000090565b606061014c61029b565b8167ffffffffffffffff8111801561016357600080fd5b5060405190808252806020026020018201604052801561019757816020015b60608152602001906001900390816101825790505b50905060005b82811015610257576102388484838181106101b457fe5b90506020028101906101c691906105e3565b8080601f0160208091040260200160405190810160405280939291908181526020018383808284376000920191909152505073ffffffffffffffffffffffffffffffffffffffff7f000000000000000000000000000000000000000000000000000000000000000016929150506102b4565b82828151811061024457fe5b602090810291909101015260010161019d565b50610260610337565b610268610348565b92915050565b610298817f42414c000000000000000000000000000000000000000000000000000000000061034f565b50565b6102ad600260005414156101906100e8565b6002600055565b6060600060608473ffffffffffffffffffffffffffffffffffffffff16846040516102df91906104ef565b600060405180830381855af49150503d806000811461031a576040519150601f19603f3d011682016040523d82523d6000602084013e61031f565b606091505b509150915061032e82826103ca565b95945050505050565b4780156102985761029833826103f4565b6001600055565b7f08c379a000000000000000000000000000000000000000000000000000000000600090815260206004526007602452600a808404818106603090810160081b958390069590950190829004918206850160101b01602363ffffff0060e086901c160160181b0190930160c81b60445260e882901c90606490fd5b606082156103d9575080610268565b8151156103e95781518083602001fd5b6102686101ae61026e565b610403814710156101a36100e8565b60008273ffffffffffffffffffffffffffffffffffffffff16826040516104299061050b565b60006040518083038185875af1925050503d8060008114610466576040519150601f19603f3d011682016040523d82523d6000602084013e61046b565b606091505b5050905061047b816101a46100e8565b505050565b60008060208385031215610492578182fd5b823567ffffffffffffffff808211156104a9578384fd5b818501915085601f8301126104bc578384fd5b8135818111156104ca578485fd5b86602080830285010111156104dd578485fd5b60209290920196919550909350505050565b6000825161050181846020870161064d565b9190910192915050565b90565b73ffffffffffffffffffffffffffffffffffffffff91909116815260200190565b6000602080830181845280855180835260408601915060408482028701019250838701855b828110156105d6577fffffffffffffffffffffffffffffffffffffffffffffffffffffffffffffffc088860301845281518051808752610599818989018a850161064d565b601f017fffffffffffffffffffffffffffffffffffffffffffffffffffffffffffffffe01695909501860194509285019290850190600101610554565b5092979650505050505050565b60008083357fffffffffffffffffffffffffffffffffffffffffffffffffffffffffffffffe1843603018112610617578283fd5b83018035915067ffffffffffffffff821115610631578283fd5b60200191503681900382131561064657600080fd5b9250929050565b60005b83811015610668578181015183820152602001610650565b83811115610677576000848401525b5050505056fea26469706673582212201120b234fb57d56607056c92dd83b5cf9c324b095090d2b5b628463e9259399564736f6c63430007010033",
  "linkReferences": {},
  "deployedLinkReferences": {}
}