{
  "_format": "hh-sol-artifact-1",
  "contractName": "DoubleEntrypointFixRelayer",
  "sourceName": "contracts/relayer/special/DoubleEntrypointFixRelayer.sol",
  "abi": [
    {
      "inputs": [
        {
          "internalType": "contract IVault",
          "name": "vault",
          "type": "address"
        }
      ],
      "stateMutability": "nonpayable",
      "type": "constructor"
    },
    {
      "inputs": [],
      "name": "BTC_STABLE_POOL_ADDRESS",
      "outputs": [
        {
          "internalType": "contract IERC20",
          "name": "",
          "type": "address"
        }
      ],
      "stateMutability": "view",
      "type": "function"
    },
    {
      "inputs": [],
      "name": "BTC_STABLE_POOL_ID",
      "outputs": [
        {
          "internalType": "bytes32",
          "name": "",
          "type": "bytes32"
        }
      ],
      "stateMutability": "view",
      "type": "function"
    },
    {
      "inputs": [],
      "name": "SNX",
      "outputs": [
        {
          "internalType": "contract IERC20",
          "name": "",
          "type": "address"
        }
      ],
      "stateMutability": "view",
      "type": "function"
    },
    {
      "inputs": [],
      "name": "SNX_IMPLEMENTATION",
      "outputs": [
        {
          "internalType": "contract IERC20",
          "name": "",
          "type": "address"
        }
      ],
      "stateMutability": "view",
      "type": "function"
    },
    {
      "inputs": [],
      "name": "SNX_WEIGHTED_POOL_ADDRESS",
      "outputs": [
        {
          "internalType": "contract IERC20",
          "name": "",
          "type": "address"
        }
      ],
      "stateMutability": "view",
      "type": "function"
    },
    {
      "inputs": [],
      "name": "SNX_WEIGHTED_POOL_ID",
      "outputs": [
        {
          "internalType": "bytes32",
          "name": "",
          "type": "bytes32"
        }
      ],
      "stateMutability": "view",
      "type": "function"
    },
    {
      "inputs": [],
      "name": "WETH",
      "outputs": [
        {
          "internalType": "contract IERC20",
          "name": "",
          "type": "address"
        }
      ],
      "stateMutability": "view",
      "type": "function"
    },
    {
      "inputs": [],
      "name": "exitBTCStablePool",
      "outputs": [],
      "stateMutability": "nonpayable",
      "type": "function"
    },
    {
      "inputs": [],
      "name": "exitSNXWeightedPool",
      "outputs": [],
      "stateMutability": "nonpayable",
      "type": "function"
    },
    {
      "inputs": [],
      "name": "getVault",
      "outputs": [
        {
          "internalType": "contract IVault",
          "name": "",
          "type": "address"
        }
      ],
      "stateMutability": "view",
      "type": "function"
    },
    {
      "inputs": [
        {
          "internalType": "contract IERC20[]",
          "name": "tokens",
          "type": "address[]"
        },
        {
          "internalType": "uint256[]",
          "name": "amounts",
          "type": "uint256[]"
        },
        {
          "internalType": "uint256[]",
          "name": "",
          "type": "uint256[]"
        },
        {
          "internalType": "bytes",
          "name": "",
          "type": "bytes"
        }
      ],
      "name": "receiveFlashLoan",
      "outputs": [],
      "stateMutability": "nonpayable",
      "type": "function"
    },
    {
      "inputs": [],
      "name": "renBTC",
      "outputs": [
        {
          "internalType": "contract IERC20",
          "name": "",
          "type": "address"
        }
      ],
      "stateMutability": "view",
      "type": "function"
    },
    {
      "inputs": [],
      "name": "sBTC",
      "outputs": [
        {
          "internalType": "contract IERC20",
          "name": "",
          "type": "address"
        }
      ],
      "stateMutability": "view",
      "type": "function"
    },
    {
      "inputs": [],
      "name": "sBTC_IMPLEMENTATION",
      "outputs": [
        {
          "internalType": "contract IERC20",
          "name": "",
          "type": "address"
        }
      ],
      "stateMutability": "view",
      "type": "function"
    },
    {
      "inputs": [
        {
          "internalType": "contract IERC20[]",
          "name": "tokens",
          "type": "address[]"
        }
      ],
      "name": "sweepDoubleEntrypointToken",
      "outputs": [],
      "stateMutability": "nonpayable",
      "type": "function"
    },
    {
      "inputs": [],
      "name": "sweepSNXsBTC",
      "outputs": [],
      "stateMutability": "nonpayable",
      "type": "function"
    },
    {
      "inputs": [],
      "name": "wBTC",
      "outputs": [
        {
          "internalType": "contract IERC20",
          "name": "",
          "type": "address"
        }
      ],
      "stateMutability": "view",
      "type": "function"
    }
  ],
  "bytecode": "0x60c06040523480156200001157600080fd5b5060405162001b7e38038062001b7e8339810160408190526200003491620000dd565b806001600160a01b03166080816001600160a01b031660601b81525050806001600160a01b031663d2946c2b6040518163ffffffff1660e01b815260040160206040518083038186803b1580156200008b57600080fd5b505afa158015620000a0573d6000803e3d6000fd5b505050506040513d601f19601f82011682018060405250810190620000c69190620000dd565b60601b6001600160601b03191660a052506200011c565b600060208284031215620000ef578081fd5b8151620000fc8162000103565b9392505050565b6001600160a01b03811681146200011957600080fd5b50565b60805160601c60a05160601c611a15620001696000398061077c5280610ccf52806110e252508061025c528061033c5280610a505280610f595280610f8652806111135250611a156000f3fe608060405234801561001057600080fd5b506004361061011b5760003560e01c80639b452931116100b2578063e043f56f11610081578063e8d6101e11610066578063e8d6101e146101c0578063f04f2707146101c8578063fd6ea58d146101db5761011b565b8063e043f56f146101b0578063e4231540146101b85761011b565b80639b45293114610190578063a2abb55f14610198578063ad5c4648146101a0578063cbc87782146101a85761011b565b80635fbc1031116100ee5780635fbc10311461017057806369af9c7e146101785780636ad3aaa4146101805780638d928af8146101885761011b565b80630306ae12146101205780630a5e13dc146101355780635dc80bd0146101535780635f5fb03614610168575b600080fd5b61013361012e3660046114a3565b6101e3565b005b61013d6103ab565b60405161014a9190611714565b60405180910390f35b61015b6103c3565b60405161014a91906117a7565b6101336103e7565b61013d6105ad565b6101336105c5565b61013d610a36565b61013d610a4e565b61013d610a72565b61013d610a8a565b61013d610aa2565b610133610aba565b61013d610eea565b61015b610f02565b61013d610f26565b6101336101d63660046114de565b610f3e565b61013d610ffa565b6060815167ffffffffffffffff811180156101fd57600080fd5b50604051908082528060200260200182016040528015610227578160200160208202803683370190505b5090508160008151811061023757fe5b602002602001015173ffffffffffffffffffffffffffffffffffffffff166370a082317f00000000000000000000000000000000000000000000000000000000000000006040518263ffffffff1660e01b81526004016102979190611714565b60206040518083038186803b1580156102af57600080fd5b505afa1580156102c3573d6000803e3d6000fd5b505050506040513d601f19601f820116820180604052508101906102e79190611611565b816000815181106102f457fe5b60209081029190910101526040517f5c38449e00000000000000000000000000000000000000000000000000000000815273ffffffffffffffffffffffffffffffffffffffff7f00000000000000000000000000000000000000000000000000000000000000001690635c38449e90610375903090869086906004016118aa565b600060405180830381600087803b15801561038f57600080fd5b505af11580156103a3573d6000803e3d6000fd5b505050505050565b73072f14b85add63488ddad88f855fda4a99d6ac9b81565b7f072f14b85add63488ddad88f855fda4a99d6ac9b00020000000000000000002781565b604080516002808252606080830184529260208301908036833701905050905073639032d3900875a4cf4960ad6b9ee441657aa93c8160008151811061042957fe5b602002602001019073ffffffffffffffffffffffffffffffffffffffff16908173ffffffffffffffffffffffffffffffffffffffff168152505073c011a73ee8576fb46f5e1c5751ca3b9fe0af2a6f8160018151811061048557fe5b602002602001019073ffffffffffffffffffffffffffffffffffffffff16908173ffffffffffffffffffffffffffffffffffffffff16815250506104c8816101e3565b60408051600280825260608083018452926020830190803683370190505090507318fcc34bdeaaf9e3b69d2500343527c0c995b1d68160008151811061050a57fe5b602002602001019073ffffffffffffffffffffffffffffffffffffffff16908173ffffffffffffffffffffffffffffffffffffffff168152505073fe18be6b3bd88a2d2a7f928d00292e7a9963cfc68160018151811061056657fe5b602002602001019073ffffffffffffffffffffffffffffffffffffffff16908173ffffffffffffffffffffffffffffffffffffffff16815250506105a9816101e3565b5050565b73eb4c2781e4eba804ce9a9803c67d0893436bb27d81565b604080516002808252606080830184529260208301908036833701905050905073c011a73ee8576fb46f5e1c5751ca3b9fe0af2a6f8160008151811061060757fe5b602002602001019073ffffffffffffffffffffffffffffffffffffffff16908173ffffffffffffffffffffffffffffffffffffffff168152505073c02aaa39b223fe8d0a0e5c4f27ead9083c756cc28160018151811061066357fe5b73ffffffffffffffffffffffffffffffffffffffff909216602092830291909101909101526040517f70a0823100000000000000000000000000000000000000000000000000000000815260009073072f14b85add63488ddad88f855fda4a99d6ac9b906370a08231906106db903390600401611714565b60206040518083038186803b1580156106f357600080fd5b505afa158015610707573d6000803e3d6000fd5b505050506040513d601f19601f8201168201806040525081019061072b9190611611565b6040517f70a082310000000000000000000000000000000000000000000000000000000081529091506107f99073c011a73ee8576fb46f5e1c5751ca3b9fe0af2a6f9081906370a08231906107a4907f000000000000000000000000000000000000000000000000000000000000000090600401611714565b60206040518083038186803b1580156107bc57600080fd5b505afa1580156107d0573d6000803e3d6000fd5b505050506040513d601f19601f820116820180604052508101906107f49190611611565b611012565b606060018260405160200161080f92919061192d565b604051602081830303815290604052905061082861137f565b604051806080016040528061083c86611173565b8152602001855167ffffffffffffffff8111801561085957600080fd5b50604051908082528060200260200182016040528015610883578160200160208202803683370190505b508152602081018490526000604090910152905061089f610a4e565b6040517f8bdb391300000000000000000000000000000000000000000000000000000000815273ffffffffffffffffffffffffffffffffffffffff9190911690638bdb391390610919907f072f14b85add63488ddad88f855fda4a99d6ac9b000200000000000000000027903390819087906004016117b0565b600060405180830381600087803b15801561093357600080fd5b505af1158015610947573d6000803e3d6000fd5b50506040805160028082526060808301845294509092509060208301908036833701905050905073639032d3900875a4cf4960ad6b9ee441657aa93c8160008151811061099057fe5b602002602001019073ffffffffffffffffffffffffffffffffffffffff16908173ffffffffffffffffffffffffffffffffffffffff168152505073c011a73ee8576fb46f5e1c5751ca3b9fe0af2a6f816001815181106109ec57fe5b602002602001019073ffffffffffffffffffffffffffffffffffffffff16908173ffffffffffffffffffffffffffffffffffffffff1681525050610a2f816101e3565b5050505050565b7318fcc34bdeaaf9e3b69d2500343527c0c995b1d681565b7f000000000000000000000000000000000000000000000000000000000000000090565b732260fac5e5542a773aa44fbcfedf7c193bc2c59981565b73639032d3900875a4cf4960ad6b9ee441657aa93c81565b73c02aaa39b223fe8d0a0e5c4f27ead9083c756cc281565b60408051600380825260808201909252606091602082018380368337019050509050732260fac5e5542a773aa44fbcfedf7c193bc2c59981600081518110610afe57fe5b602002602001019073ffffffffffffffffffffffffffffffffffffffff16908173ffffffffffffffffffffffffffffffffffffffff168152505073eb4c2781e4eba804ce9a9803c67d0893436bb27d81600181518110610b5a57fe5b602002602001019073ffffffffffffffffffffffffffffffffffffffff16908173ffffffffffffffffffffffffffffffffffffffff168152505073fe18be6b3bd88a2d2a7f928d00292e7a9963cfc681600281518110610bb657fe5b73ffffffffffffffffffffffffffffffffffffffff909216602092830291909101909101526040517f70a0823100000000000000000000000000000000000000000000000000000000815260009073feadd389a5c427952d8fdb8057d6c8ba1156cc56906370a0823190610c2e903390600401611714565b60206040518083038186803b158015610c4657600080fd5b505afa158015610c5a573d6000803e3d6000fd5b505050506040513d601f19601f82011682018060405250810190610c7e9190611611565b6040517f70a08231000000000000000000000000000000000000000000000000000000008152909150610cf79073fe18be6b3bd88a2d2a7f928d00292e7a9963cfc69081906370a08231906107a4907f000000000000000000000000000000000000000000000000000000000000000090600401611714565b6060600182604051602001610d0d929190611945565b6040516020818303038152906040529050610d2661137f565b6040518060800160405280610d3a86611173565b8152602001855167ffffffffffffffff81118015610d5757600080fd5b50604051908082528060200260200182016040528015610d81578160200160208202803683370190505b5081526020810184905260006040909101529050610d9d610a4e565b6040517f8bdb391300000000000000000000000000000000000000000000000000000000815273ffffffffffffffffffffffffffffffffffffffff9190911690638bdb391390610e17907ffeadd389a5c427952d8fdb8057d6c8ba1156cc56000000000000000000000066903390819087906004016117b0565b600060405180830381600087803b158015610e3157600080fd5b505af1158015610e45573d6000803e3d6000fd5b5050604080516002808252606080830184529450909250906020830190803683370190505090507318fcc34bdeaaf9e3b69d2500343527c0c995b1d681600081518110610e8e57fe5b602002602001019073ffffffffffffffffffffffffffffffffffffffff16908173ffffffffffffffffffffffffffffffffffffffff168152505073fe18be6b3bd88a2d2a7f928d00292e7a9963cfc6816001815181106109ec57fe5b73fe18be6b3bd88a2d2a7f928d00292e7a9963cfc681565b7ffeadd389a5c427952d8fdb8057d6c8ba1156cc5600000000000000000000006681565b73c011a73ee8576fb46f5e1c5751ca3b9fe0af2a6f81565b610f813373ffffffffffffffffffffffffffffffffffffffff7f0000000000000000000000000000000000000000000000000000000000000000161460cd611176565b610ff47f000000000000000000000000000000000000000000000000000000000000000084600081518110610fb257fe5b602002602001015186600081518110610fc757fe5b602002602001015173ffffffffffffffffffffffffffffffffffffffff166111849092919063ffffffff16565b50505050565b73feadd389a5c427952d8fdb8057d6c8ba1156cc5681565b60408051600180825281830190925260609160208083019080368337019050509050828160008151811061104257fe5b73ffffffffffffffffffffffffffffffffffffffff9290921660209283029190910190910152604080516001808252818301909252606091816020016020820280368337019050509050828160008151811061109a57fe5b60209081029190910101526040517f6daefab600000000000000000000000000000000000000000000000000000000815273ffffffffffffffffffffffffffffffffffffffff7f00000000000000000000000000000000000000000000000000000000000000001690636daefab69061113b90859085907f00000000000000000000000000000000000000000000000000000000000000009060040161175b565b600060405180830381600087803b15801561115557600080fd5b505af1158015611169573d6000803e3d6000fd5b5050505050505050565b90565b816105a9576105a98161122a565b6112258363a9059cbb60e01b84846040516024016111a3929190611735565b604080517fffffffffffffffffffffffffffffffffffffffffffffffffffffffffffffffe08184030181529190526020810180517bffffffffffffffffffffffffffffffffffffffffffffffffffffffff167fffffffff0000000000000000000000000000000000000000000000000000000090931692909217909152611257565b505050565b611254817f42414c0000000000000000000000000000000000000000000000000000000000611304565b50565b600060608373ffffffffffffffffffffffffffffffffffffffff168360405161128091906116f8565b6000604051808303816000865af19150503d80600081146112bd576040519150601f19603f3d011682016040523d82523d6000602084013e6112c2565b606091505b509150915060008214156112da573d6000803e3d6000fd5b610ff48151600014806112fc5750818060200190518101906112fc91906115ea565b6101a2611176565b7f08c379a000000000000000000000000000000000000000000000000000000000600090815260206004526007602452600a808404818106603090810160081b958390069590950190829004918206850160101b01602363ffffff0060e086901c160160181b0190930160c81b60445260e882901c90606490fd5b60405180608001604052806060815260200160608152602001606081526020016000151581525090565b600082601f8301126113b9578081fd5b81356113cc6113c78261197a565b611953565b8181529150602080830190848101818402860182018710156113ed57600080fd5b6000805b8581101561142e57823573ffffffffffffffffffffffffffffffffffffffff8116811461141c578283fd5b855293830193918301916001016113f1565b50505050505092915050565b600082601f83011261144a578081fd5b81356114586113c78261197a565b81815291506020808301908481018184028601820187101561147957600080fd5b60005b848110156114985781358452928201929082019060010161147c565b505050505092915050565b6000602082840312156114b4578081fd5b813567ffffffffffffffff8111156114ca578182fd5b6114d6848285016113a9565b949350505050565b600080600080608085870312156114f3578283fd5b843567ffffffffffffffff8082111561150a578485fd5b611516888389016113a9565b955060209150818701358181111561152c578586fd5b61153889828a0161143a565b95505060408701358181111561154c578485fd5b61155889828a0161143a565b94505060608701358181111561156c578384fd5b8701601f8101891361157c578384fd5b80358281111561158a578485fd5b6115ba847fffffffffffffffffffffffffffffffffffffffffffffffffffffffffffffffe0601f84011601611953565b925080835289848284010111156115cf578485fd5b80848301858501378201909201929092525092959194509250565b6000602082840312156115fb578081fd5b8151801515811461160a578182fd5b9392505050565b600060208284031215611622578081fd5b5051919050565b6000815180845260208085019450808401835b8381101561166e57815173ffffffffffffffffffffffffffffffffffffffff168752958201959082019060010161163c565b509495945050505050565b6000815180845260208085019450808401835b8381101561166e5781518752958201959082019060010161168c565b15159052565b600081518084526116c68160208601602086016119b3565b601f017fffffffffffffffffffffffffffffffffffffffffffffffffffffffffffffffe0169290920160200192915050565b6000825161170a8184602087016119b3565b9190910192915050565b73ffffffffffffffffffffffffffffffffffffffff91909116815260200190565b73ffffffffffffffffffffffffffffffffffffffff929092168252602082015260400190565b60006060825261176e6060830186611629565b82810360208401526117808186611679565b91505073ffffffffffffffffffffffffffffffffffffffff83166040830152949350505050565b90815260200190565b6000858252602073ffffffffffffffffffffffffffffffffffffffff8087168285015280861660408501525060806060840152610100830184516080808601528181518084526101208701915084830193508592505b8083101561182e57611818845161199a565b8252928401926001929092019190840190611806565b508387015193507fffffffffffffffffffffffffffffffffffffffffffffffffffffffffffffff809250828682030160a087015261186c8185611679565b935050506040850151818584030160c086015261188983826116ae565b92505050606084015161189f60e08501826116a8565b509695505050505050565b600073ffffffffffffffffffffffffffffffffffffffff85168252608060208301526118d96080830185611629565b82810360408401526118eb8185611679565b8381036060909401939093525050600281527f307800000000000000000000000000000000000000000000000000000000000060208201526040019392505050565b604081016003841061193b57fe5b9281526020015290565b918252602082015260400190565b60405181810167ffffffffffffffff8111828210171561197257600080fd5b604052919050565b600067ffffffffffffffff821115611990578081fd5b5060209081020190565b73ffffffffffffffffffffffffffffffffffffffff1690565b60005b838110156119ce5781810151838201526020016119b6565b83811115610ff4575050600091015256fea2646970667358221220a67041475b8d4b27ccee77971f642c00285c217e0697a9f954fe9fc457a2e18f64736f6c63430007010033",
  "linkReferences": {},
  "deployedLinkReferences": {}
}