{
  "_format": "hh-sol-artifact-1",
  "contractName": "TemporarilyPausableMock",
  "sourceName": "contracts/test/TemporarilyPausableMock.sol",
  "abi": [
    {
      "inputs": [
        {
          "internalType": "uint256",
          "name": "pauseWindowDuration",
          "type": "uint256"
        },
        {
          "internalType": "uint256",
          "name": "bufferPeriodDuration",
          "type": "uint256"
        }
      ],
      "stateMutability": "nonpayable",
      "type": "constructor"
    },
    {
      "anonymous": false,
      "inputs": [
        {
          "indexed": false,
          "internalType": "bool",
          "name": "paused",
          "type": "bool"
        }
      ],
      "name": "PausedStateChanged",
      "type": "event"
    },
    {
      "inputs": [],
      "name": "getMaxBufferPeriodDuration",
      "outputs": [
        {
          "internalType": "uint256",
          "name": "",
          "type": "uint256"
        }
      ],
      "stateMutability": "pure",
      "type": "function"
    },
    {
      "inputs": [],
      "name": "getMaxPauseWindowDuration",
      "outputs": [
        {
          "internalType": "uint256",
          "name": "",
          "type": "uint256"
        }
      ],
      "stateMutability": "pure",
      "type": "function"
    },
    {
      "inputs": [],
      "name": "getPausedState",
      "outputs": [
        {
          "internalType": "bool",
          "name": "paused",
          "type": "bool"
        },
        {
          "internalType": "uint256",
          "name": "pauseWindowEndTime",
          "type": "uint256"
        },
        {
          "internalType": "uint256",
          "name": "bufferPeriodEndTime",
          "type": "uint256"
        }
      ],
      "stateMutability": "view",
      "type": "function"
    },
    {
      "inputs": [
        {
          "internalType": "bool",
          "name": "paused",
          "type": "bool"
        }
      ],
      "name": "setPaused",
      "outputs": [],
      "stateMutability": "nonpayable",
      "type": "function"
    }
  ],
  "bytecode": "0x60c060405234801561001057600080fd5b506040516103f93803806103f98339818101604052604081101561003357600080fd5b5080516020909101518181610051630163f500831115610194610078565b6100636276a700821115610195610078565b4290910160808190520160a052506100fe9050565b81610086576100868161008a565b5050565b61009a816210905360ea1b61009d565b50565b62461bcd60e51b600090815260206004526007602452600a808404818106603090810160081b958390069590950190829004918206850160101b01602363ffffff0060e086901c160160181b0190930160c81b60445260e882901c90606490fd5b60805160a0516102d8610121600039806101df5250806101bb52506102d86000f3fe608060405234801561001057600080fd5b506004361061004c5760003560e01c806316c38b3c146100515780631c0de0511461007257806388f1d2041461009a578063cd43a4d5146100b4575b600080fd5b6100706004803603602081101561006757600080fd5b503515156100bc565b005b61007a6100c8565b604080519315158452602084019290925282820152519081900360600190f35b6100a26100f1565b60408051918252519081900360200190f35b6100a26100f8565b6100c581610100565b50565b60008060006100d561019a565b1592506100e06101b9565b91506100ea6101dd565b9050909192565b6276a70090565b630163f50090565b80156101205761011b6101116101b9565b4210610193610201565b610135565b61013561012b6101dd565b42106101a9610201565b600080548215157fffffffffffffffffffffffffffffffffffffffffffffffffffffffffffffff00909116811790915560408051918252517f9e3a5e37224532dea67b89face185703738a228a6e8a23dee546960180d3be649181900360200190a150565b60006101a46101dd565b4211806101b4575060005460ff16155b905090565b7f000000000000000000000000000000000000000000000000000000000000000090565b7f000000000000000000000000000000000000000000000000000000000000000090565b8161020f5761020f81610213565b5050565b7f08c379a000000000000000000000000000000000000000000000000000000000600090815260206004526007602452600a808304818106603090810160081b83860601918390049283060160101b016642414c230000300160c81b6044526100c5917f42414c0000000000000000000000000000000000000000000000000000000000906242414c90606490fdfea26469706673582212203b2a733ad1e5ba834a08c9ad11240997ea59e5f975a34b99932cdaf601145dc964736f6c63430007010033",
  "linkReferences": {},
  "deployedLinkReferences": {}
}