{
  "address": "0xb2F667E2e48724Cb816547e7621d2293e113E360",
  "abi": [
    {
      "inputs": [
        {
          "internalType": "contract IBalancerToken",
          "name": "balancerToken",
          "type": "address"
        }
      ],
      "stateMutability": "nonpayable",
      "type": "constructor"
    },
    {
      "inputs": [],
      "name": "ManagerDidNotChange",
      "type": "error"
    },
    {
      "inputs": [],
      "name": "ManagerIsZero",
      "type": "error"
    },
    {
      "inputs": [],
      "name": "OnlyManager",
      "type": "error"
    },
    {
      "inputs": [],
      "name": "OnlyOwnerOrManager",
      "type": "error"
    },
    {
      "anonymous": false,
      "inputs": [
        {
          "indexed": false,
          "internalType": "address",
          "name": "manager",
          "type": "address"
        }
      ],
      "name": "ManagerChanged",
      "type": "event"
    },
    {
      "anonymous": false,
      "inputs": [
        {
          "indexed": false,
          "internalType": "uint256",
          "name": "rate",
          "type": "uint256"
        },
        {
          "indexed": false,
          "internalType": "uint256",
          "name": "supply",
          "type": "uint256"
        }
      ],
      "name": "MiningParametersUpdated",
      "type": "event"
    },
    {
      "anonymous": false,
      "inputs": [],
      "name": "MiningProgramStoped",
      "type": "event"
    },
    {
      "anonymous": false,
      "inputs": [
        {
          "indexed": true,
          "internalType": "address",
          "name": "previousOwner",
          "type": "address"
        },
        {
          "indexed": true,
          "internalType": "address",
          "name": "newOwner",
          "type": "address"
        }
      ],
      "name": "OwnershipTransferStarted",
      "type": "event"
    },
    {
      "anonymous": false,
      "inputs": [
        {
          "indexed": true,
          "internalType": "address",
          "name": "previousOwner",
          "type": "address"
        },
        {
          "indexed": true,
          "internalType": "address",
          "name": "newOwner",
          "type": "address"
        }
      ],
      "name": "OwnershipTransferred",
      "type": "event"
    },
    {
      "inputs": [],
      "name": "INITIAL_RATE",
      "outputs": [
        {
          "internalType": "uint256",
          "name": "",
          "type": "uint256"
        }
      ],
      "stateMutability": "view",
      "type": "function"
    },
    {
      "inputs": [],
      "name": "RATE_DENOMINATOR",
      "outputs": [
        {
          "internalType": "uint256",
          "name": "",
          "type": "uint256"
        }
      ],
      "stateMutability": "view",
      "type": "function"
    },
    {
      "inputs": [],
      "name": "RATE_REDUCTION_COEFFICIENT",
      "outputs": [
        {
          "internalType": "uint256",
          "name": "",
          "type": "uint256"
        }
      ],
      "stateMutability": "view",
      "type": "function"
    },
    {
      "inputs": [],
      "name": "RATE_REDUCTION_TIME",
      "outputs": [
        {
          "internalType": "uint256",
          "name": "",
          "type": "uint256"
        }
      ],
      "stateMutability": "view",
      "type": "function"
    },
    {
      "inputs": [],
      "name": "acceptOwnership",
      "outputs": [],
      "stateMutability": "nonpayable",
      "type": "function"
    },
    {
      "inputs": [],
      "name": "activate",
      "outputs": [],
      "stateMutability": "nonpayable",
      "type": "function"
    },
    {
      "inputs": [],
      "name": "available_supply",
      "outputs": [
        {
          "internalType": "uint256",
          "name": "",
          "type": "uint256"
        }
      ],
      "stateMutability": "view",
      "type": "function"
    },
    {
      "inputs": [
        {
          "internalType": "address",
          "name": "_manager",
          "type": "address"
        }
      ],
      "name": "changeManager",
      "outputs": [],
      "stateMutability": "nonpayable",
      "type": "function"
    },
    {
      "inputs": [],
      "name": "futureEpochTimeWrite",
      "outputs": [
        {
          "internalType": "uint256",
          "name": "",
          "type": "uint256"
        }
      ],
      "stateMutability": "nonpayable",
      "type": "function"
    },
    {
      "inputs": [],
      "name": "future_epoch_time_write",
      "outputs": [
        {
          "internalType": "uint256",
          "name": "",
          "type": "uint256"
        }
      ],
      "stateMutability": "nonpayable",
      "type": "function"
    },
    {
      "inputs": [],
      "name": "getAvailableSupply",
      "outputs": [
        {
          "internalType": "uint256",
          "name": "",
          "type": "uint256"
        }
      ],
      "stateMutability": "view",
      "type": "function"
    },
    {
      "inputs": [],
      "name": "getBalancerToken",
      "outputs": [
        {
          "internalType": "contract IBalancerToken",
          "name": "",
          "type": "address"
        }
      ],
      "stateMutability": "view",
      "type": "function"
    },
    {
      "inputs": [],
      "name": "getFutureEpochTime",
      "outputs": [
        {
          "internalType": "uint256",
          "name": "",
          "type": "uint256"
        }
      ],
      "stateMutability": "view",
      "type": "function"
    },
    {
      "inputs": [],
      "name": "getInflationRate",
      "outputs": [
        {
          "internalType": "uint256",
          "name": "",
          "type": "uint256"
        }
      ],
      "stateMutability": "view",
      "type": "function"
    },
    {
      "inputs": [],
      "name": "getMiningEpoch",
      "outputs": [
        {
          "internalType": "uint256",
          "name": "",
          "type": "uint256"
        }
      ],
      "stateMutability": "view",
      "type": "function"
    },
    {
      "inputs": [],
      "name": "getStartEpochSupply",
      "outputs": [
        {
          "internalType": "uint256",
          "name": "",
          "type": "uint256"
        }
      ],
      "stateMutability": "view",
      "type": "function"
    },
    {
      "inputs": [],
      "name": "getStartEpochTime",
      "outputs": [
        {
          "internalType": "uint256",
          "name": "",
          "type": "uint256"
        }
      ],
      "stateMutability": "view",
      "type": "function"
    },
    {
      "inputs": [],
      "name": "isActive",
      "outputs": [
        {
          "internalType": "bool",
          "name": "",
          "type": "bool"
        }
      ],
      "stateMutability": "view",
      "type": "function"
    },
    {
      "inputs": [],
      "name": "manager",
      "outputs": [
        {
          "internalType": "address",
          "name": "",
          "type": "address"
        }
      ],
      "stateMutability": "view",
      "type": "function"
    },
    {
      "inputs": [
        {
          "internalType": "address",
          "name": "to",
          "type": "address"
        },
        {
          "internalType": "uint256",
          "name": "amount",
          "type": "uint256"
        }
      ],
      "name": "mint",
      "outputs": [],
      "stateMutability": "nonpayable",
      "type": "function"
    },
    {
      "inputs": [
        {
          "internalType": "uint256",
          "name": "start",
          "type": "uint256"
        },
        {
          "internalType": "uint256",
          "name": "end",
          "type": "uint256"
        }
      ],
      "name": "mintableInTimeframe",
      "outputs": [
        {
          "internalType": "uint256",
          "name": "",
          "type": "uint256"
        }
      ],
      "stateMutability": "view",
      "type": "function"
    },
    {
      "inputs": [
        {
          "internalType": "uint256",
          "name": "start",
          "type": "uint256"
        },
        {
          "internalType": "uint256",
          "name": "end",
          "type": "uint256"
        }
      ],
      "name": "mintable_in_timeframe",
      "outputs": [
        {
          "internalType": "uint256",
          "name": "",
          "type": "uint256"
        }
      ],
      "stateMutability": "view",
      "type": "function"
    },
    {
      "inputs": [],
      "name": "owner",
      "outputs": [
        {
          "internalType": "address",
          "name": "",
          "type": "address"
        }
      ],
      "stateMutability": "view",
      "type": "function"
    },
    {
      "inputs": [],
      "name": "pendingOwner",
      "outputs": [
        {
          "internalType": "address",
          "name": "",
          "type": "address"
        }
      ],
      "stateMutability": "view",
      "type": "function"
    },
    {
      "inputs": [],
      "name": "rate",
      "outputs": [
        {
          "internalType": "uint256",
          "name": "",
          "type": "uint256"
        }
      ],
      "stateMutability": "view",
      "type": "function"
    },
    {
      "inputs": [],
      "name": "renounceOwnership",
      "outputs": [],
      "stateMutability": "nonpayable",
      "type": "function"
    },
    {
      "inputs": [],
      "name": "startEpochTimeWrite",
      "outputs": [
        {
          "internalType": "uint256",
          "name": "",
          "type": "uint256"
        }
      ],
      "stateMutability": "nonpayable",
      "type": "function"
    },
    {
      "inputs": [],
      "name": "start_epoch_time_write",
      "outputs": [
        {
          "internalType": "uint256",
          "name": "",
          "type": "uint256"
        }
      ],
      "stateMutability": "nonpayable",
      "type": "function"
    },
    {
      "inputs": [],
      "name": "stopMining",
      "outputs": [],
      "stateMutability": "nonpayable",
      "type": "function"
    },
    {
      "inputs": [
        {
          "internalType": "address",
          "name": "newOwner",
          "type": "address"
        }
      ],
      "name": "transferOwnership",
      "outputs": [],
      "stateMutability": "nonpayable",
      "type": "function"
    },
    {
      "inputs": [],
      "name": "updateMiningParameters",
      "outputs": [],
      "stateMutability": "nonpayable",
      "type": "function"
    },
    {
      "inputs": [],
      "name": "update_mining_parameters",
      "outputs": [],
      "stateMutability": "nonpayable",
      "type": "function"
    }
  ],
  "bytecode": "0x60a060405260001960065534801561001657600080fd5b506040516112c03803806112c0833981016040819052610035916100fc565b3361003f33610090565b6001600160a01b03811661006657604051639c774ebf60e01b815260040160405180910390fd5b600280546001600160a01b0319166001600160a01b0392831617905560016003551660805261012c565b600180546001600160a01b03191690556100a9816100ac565b50565b600080546001600160a01b038381166001600160a01b0319831681178455604051919092169283917f8be0079c531659141344cd1fd0a4f28419497f9722a3daafe3b4186f6b6457e09190a35050565b60006020828403121561010e57600080fd5b81516001600160a01b038116811461012557600080fd5b9392505050565b60805161115661016a6000396000818161030a015281816103f6015281816104d9015281816106600152818161076b0152610a4a01526111566000f3fe608060405234801561001057600080fd5b50600436106101f05760003560e01c8063819df2c41161010f578063c167d1cd116100a2578063d725a9ca11610071578063d725a9ca1461032e578063da40867914610349578063e30c397814610351578063f2fde38b1461036257600080fd5b8063c167d1cd1461024a578063c3b03fa81461032e578063cb626ae214610341578063d43b40fa1461034157600080fd5b8063adc4cf43116100de578063adc4cf43146102e2578063b26b238e14610252578063b87b5616146102fd578063c00396991461030857600080fd5b8063819df2c41461025a5780638da5cb5b146102d1578063a228bced146102e2578063a3fbbaae146102ea57600080fd5b806340c10f191161018757806355f741761161015657806355f74176146102aa578063715018a6146102b257806379ba5097146102ba5780637efad8e0146102c257600080fd5b806340c10f1914610262578063481c6a75146102755780634d2fa4131461029a5780634dbac733146102a257600080fd5b806322f3e2d4116101c357806322f3e2d41461022d57806324f92a251461024a578063277dbafb146102525780632c4e722e1461025a57600080fd5b8063087905c9146101f55780630dfbdce41461020c5780630f15f4c01461021457806321609bbf1461021e575b600080fd5b6005545b6040519081526020015b60405180910390f35b6101f9610375565b61021c61038e565b005b6101f9671080e992061ab30081565b60045461023a9060ff1681565b6040519015158152602001610203565b6101f96105e6565b6101f96105f0565b6008546101f9565b61021c610270366004610fd4565b610608565b6002546001600160a01b03165b6040516001600160a01b039091168152602001610203565b6006546101f9565b6101f96107cb565b6007546101f9565b61021c6107e5565b61021c6107f7565b6101f9670de0b6b3a764000081565b6000546001600160a01b0316610282565b6101f9610871565b61021c6102f8366004611000565b61087b565b6101f96301e1338081565b7f0000000000000000000000000000000000000000000000000000000000000000610282565b6101f961033c366004611024565b610972565b61021c610987565b61021c6109ef565b6001546001600160a01b0316610282565b61021c610370366004611000565b610b05565b600654600090610389906301e13380610b75565b905090565b610396610b81565b61039e610bda565b600019600654146103ea5760405162461bcd60e51b8152602060048201526011602482015270105b1c9958591e481858dd1a5d985d1959607a1b60448201526064015b60405180910390fd5b306001600160a01b03167f00000000000000000000000000000000000000000000000000000000000000006001600160a01b0316638da5cb5b6040518163ffffffff1660e01b8152600401602060405180830381865afa158015610452573d6000803e3d6000fd5b505050506040513d601f19601f820116820180604052508101906104769190611046565b6001600160a01b0316146104d75760405162461bcd60e51b815260206004820152602260248201527f42616c616e636572546f6b656e41646d696e206973206e6f742061206d696e7460448201526132b960f11b60648201526084016103e1565b7f00000000000000000000000000000000000000000000000000000000000000006001600160a01b03166318160ddd6040518163ffffffff1660e01b8152600401602060405180830381865afa158015610535573d6000803e3d6000fd5b505050506040513d601f19601f820116820180604052508101906105599190611063565b6007554260065561057762093a80691eb4773b6d1318a00000611092565b6008556004805460ff191660011790557fa96ad9a0b81b29565fbe231714a2f2c152b759e603c91bf87144a3f61944f0a56105bf62093a80691eb4773b6d1318a00000611092565b6007546040805192835260208301919091520160405180910390a16105e46001600355565b565b6000610389610c34565b60006103896301e13380610602610c6e565b90610b75565b6002546001600160a01b031633146106335760405163605919ad60e11b815260040160405180910390fd5b600654610644906301e13380610b75565b421061065257610652610c9d565b61065a610c34565b6106e0827f00000000000000000000000000000000000000000000000000000000000000006001600160a01b03166318160ddd6040518163ffffffff1660e01b8152600401602060405180830381865afa1580156106bc573d6000803e3d6000fd5b505050506040513d601f19601f820116820180604052508101906106029190611063565b11156107455760405162461bcd60e51b815260206004820152602e60248201527f4d696e7420616d6f756e7420657863656564732072656d61696e696e6720617660448201526d61696c61626c6520737570706c7960901b60648201526084016103e1565b6040516340c10f1960e01b81526001600160a01b038381166004830152602482018390527f000000000000000000000000000000000000000000000000000000000000000016906340c10f1990604401600060405180830381600087803b1580156107af57600080fd5b505af11580156107c3573d6000803e3d6000fd5b505050505050565b6107e262093a80691eb4773b6d1318a00000611092565b81565b6107ed610bda565b6105e46000610d51565b60015433906001600160a01b031681146108655760405162461bcd60e51b815260206004820152602960248201527f4f776e61626c6532537465703a2063616c6c6572206973206e6f7420746865206044820152683732bb9037bbb732b960b91b60648201526084016103e1565b61086e81610d51565b50565b6000610389610c6e565b6000546001600160a01b031633148015906108aa57506002546001600160a01b0316336001600160a01b031614155b156108c85760405163b647320d60e01b815260040160405180910390fd5b6001600160a01b0381166108ef57604051639c774ebf60e01b815260040160405180910390fd5b6002546001600160a01b039081169082160361091e57604051632ebe652b60e21b815260040160405180910390fd5b600280546001600160a01b0319166001600160a01b0383169081179091556040519081527f198db6e425fb8aafd1823c6ca50be2d51e5764571a5ae0f0f21c6812e45def0b9060200160405180910390a150565b600061097e8383610d6a565b90505b92915050565b600654610998906301e13380610b75565b4210156109e75760405162461bcd60e51b815260206004820152601a60248201527f45706f636820686173206e6f742066696e69736865642079657400000000000060448201526064016103e1565b6105e4610c9d565b6109f7610bda565b60045460ff16610a365760405162461bcd60e51b815260206004820152600a6024820152694e6f742061637469766560b01b60448201526064016103e1565b6004805460ff191690556001600160a01b037f00000000000000000000000000000000000000000000000000000000000000001663f2fde38b610a816000546001600160a01b031690565b6040516001600160e01b031960e084901b1681526001600160a01b039091166004820152602401600060405180830381600087803b158015610ac257600080fd5b505af1158015610ad6573d6000803e3d6000fd5b50506040517fb6521e7ab0ff3f1fde9e2422524e6436261993852fe0bcbb0480531d0c893e19925060009150a1565b610b0d610bda565b600180546001600160a01b0319166001600160a01b038316908117909155610b3d6000546001600160a01b031690565b6001600160a01b03167f38d16b8cac22d99fc7c124b9cd0de2d3fa1faef420bfe791d8c362d765e2270060405160405180910390a350565b600061097e82846110b4565b600260035403610bd35760405162461bcd60e51b815260206004820152601f60248201527f5265656e7472616e637947756172643a207265656e7472616e742063616c6c0060448201526064016103e1565b6002600355565b6000546001600160a01b031633146105e45760405162461bcd60e51b815260206004820181905260248201527f4f776e61626c653a2063616c6c6572206973206e6f7420746865206f776e657260448201526064016103e1565b600080610c58600854610c5260065442610f4b90919063ffffffff16565b90610f57565b600754909150610c689082610b75565b91505090565b600654600090610c82816301e13380610b75565b4210610c9857610c90610c9d565b505060065490565b919050565b6008546000610cbc610cb3836301e13380610f57565b60075490610b75565b9050610ce2671080e992061ab300610cdc84670de0b6b3a7640000610f57565b90610f63565b600554909250610cf3906001610b75565b600555600654610d07906301e13380610b75565b6006556008829055600781905560408051838152602081018390527fa96ad9a0b81b29565fbe231714a2f2c152b759e603c91bf87144a3f61944f0a5910160405180910390a15050565b600180546001600160a01b031916905561086e81610f6f565b600081831115610daa5760405162461bcd60e51b815260206004820152600b60248201526a1cdd185c9d080f88195b9960aa1b60448201526064016103e1565b600654600854610dbe826301e13380610b75565b841115610df657610dd3826301e13380610b75565b9150610df3671080e992061ab300610cdc83670de0b6b3a7640000610f57565b90505b610e04826301e13380610b75565b841115610e475760405162461bcd60e51b8152602060048201526011602482015270746f6f2066617220696e2066757475726560781b60448201526064016103e1565b6000805b6103e7811015610f4157838610610edb5785610e6b856301e13380610b75565b811115610e8357610e80856301e13380610b75565b90505b87610e92866301e13380610b75565b8110610e9f575050610f41565b85811015610eaa5750845b610ec8610ec1610eba8484610f4b565b8790610f57565b8590610b75565b9350858910610ed8575050610f41565b50505b610ee9846301e13380610f4b565b9350610f09670de0b6b3a7640000610cdc85671080e992061ab300610f57565b9250610f2262093a80691eb4773b6d1318a00000611092565b831115610f3157610f316110c7565b610f3a816110dd565b9050610e4b565b5095945050505050565b600061097e82846110f6565b600061097e8284611109565b600061097e8284611092565b600080546001600160a01b038381166001600160a01b0319831681178455604051919092169283917f8be0079c531659141344cd1fd0a4f28419497f9722a3daafe3b4186f6b6457e09190a35050565b6001600160a01b038116811461086e57600080fd5b60008060408385031215610fe757600080fd5b8235610ff281610fbf565b946020939093013593505050565b60006020828403121561101257600080fd5b813561101d81610fbf565b9392505050565b6000806040838503121561103757600080fd5b50508035926020909101359150565b60006020828403121561105857600080fd5b815161101d81610fbf565b60006020828403121561107557600080fd5b5051919050565b634e487b7160e01b600052601160045260246000fd5b6000826110af57634e487b7160e01b600052601260045260246000fd5b500490565b808201808211156109815761098161107c565b634e487b7160e01b600052600160045260246000fd5b6000600182016110ef576110ef61107c565b5060010190565b818103818111156109815761098161107c565b80820281158282048414176109815761098161107c56fea264697066735822122008285caf8d6a82e86f251211d391a2aa7e4b9ef3a2fbb485c5d611a491ba637b64736f6c63430008150033",
  "language": "Solidity",
  "compiler": "0.8.21+commit.d9974bed"
}