{
  "address": "0x8A3C8F33b36B935f5E68108E664FB139B54eC0E8",
  "abi": [
    {
      "inputs": [
        {
          "internalType": "contract IGaugeAdder",
          "name": "_gaugeAdder",
          "type": "address"
        },
        {
          "internalType": "contract IStakelessGaugeCheckpointerAdaptor",
          "name": "_checkpointerAdaptor",
          "type": "address"
        },
        {
          "internalType": "address",
          "name": "_linkToken",
          "type": "address"
        }
      ],
      "stateMutability": "nonpayable",
      "type": "constructor"
    },
    {
      "inputs": [
        {
          "internalType": "uint256",
          "name": "fees",
          "type": "uint256"
        },
        {
          "internalType": "uint256",
          "name": "balance",
          "type": "uint256"
        },
        {
          "internalType": "enum ICCIPGauge.PayFeesIn",
          "name": "payFeesIn",
          "type": "uint8"
        }
      ],
      "name": "NotEnougtFundsToPayFees",
      "type": "error"
    },
    {
      "anonymous": false,
      "inputs": [
        {
          "indexed": true,
          "internalType": "contract ICCIPGauge",
          "name": "gauge",
          "type": "address"
        },
        {
          "indexed": true,
          "internalType": "string",
          "name": "indexedGaugeType",
          "type": "string"
        },
        {
          "indexed": false,
          "internalType": "string",
          "name": "gaugeType",
          "type": "string"
        }
      ],
      "name": "GaugeAdded",
      "type": "event"
    },
    {
      "anonymous": false,
      "inputs": [
        {
          "indexed": true,
          "internalType": "contract ICCIPGauge",
          "name": "gauge",
          "type": "address"
        },
        {
          "indexed": true,
          "internalType": "string",
          "name": "indexedGaugeType",
          "type": "string"
        },
        {
          "indexed": false,
          "internalType": "string",
          "name": "gaugeType",
          "type": "string"
        }
      ],
      "name": "GaugeRemoved",
      "type": "event"
    },
    {
      "anonymous": false,
      "inputs": [
        {
          "indexed": true,
          "internalType": "address",
          "name": "previousOwner",
          "type": "address"
        },
        {
          "indexed": true,
          "internalType": "address",
          "name": "newOwner",
          "type": "address"
        }
      ],
      "name": "OwnershipTransferStarted",
      "type": "event"
    },
    {
      "anonymous": false,
      "inputs": [
        {
          "indexed": true,
          "internalType": "address",
          "name": "previousOwner",
          "type": "address"
        },
        {
          "indexed": true,
          "internalType": "address",
          "name": "newOwner",
          "type": "address"
        }
      ],
      "name": "OwnershipTransferred",
      "type": "event"
    },
    {
      "inputs": [],
      "name": "CHECKPOINTER_ADAPTOR",
      "outputs": [
        {
          "internalType": "contract IStakelessGaugeCheckpointerAdaptor",
          "name": "",
          "type": "address"
        }
      ],
      "stateMutability": "view",
      "type": "function"
    },
    {
      "inputs": [],
      "name": "GAUGE_ADDER",
      "outputs": [
        {
          "internalType": "contract IGaugeAdder",
          "name": "",
          "type": "address"
        }
      ],
      "stateMutability": "view",
      "type": "function"
    },
    {
      "inputs": [],
      "name": "GAUGE_CONTROLLER",
      "outputs": [
        {
          "internalType": "contract IGaugeController",
          "name": "",
          "type": "address"
        }
      ],
      "stateMutability": "view",
      "type": "function"
    },
    {
      "inputs": [],
      "name": "LINK",
      "outputs": [
        {
          "internalType": "address",
          "name": "",
          "type": "address"
        }
      ],
      "stateMutability": "view",
      "type": "function"
    },
    {
      "inputs": [],
      "name": "acceptOwnership",
      "outputs": [],
      "stateMutability": "nonpayable",
      "type": "function"
    },
    {
      "inputs": [
        {
          "internalType": "string",
          "name": "gaugeType",
          "type": "string"
        },
        {
          "internalType": "contract ICCIPGauge[]",
          "name": "gauges",
          "type": "address[]"
        }
      ],
      "name": "addGauges",
      "outputs": [],
      "stateMutability": "nonpayable",
      "type": "function"
    },
    {
      "inputs": [
        {
          "internalType": "string",
          "name": "gaugeType",
          "type": "string"
        },
        {
          "internalType": "contract ICCIPGauge[]",
          "name": "gauges",
          "type": "address[]"
        }
      ],
      "name": "addGaugesWithVerifiedType",
      "outputs": [],
      "stateMutability": "nonpayable",
      "type": "function"
    },
    {
      "inputs": [
        {
          "internalType": "uint256",
          "name": "minRelativeWeight",
          "type": "uint256"
        },
        {
          "internalType": "enum ICCIPGauge.PayFeesIn",
          "name": "payFeesIn",
          "type": "uint8"
        }
      ],
      "name": "checkpointGaugesAboveRelativeWeight",
      "outputs": [],
      "stateMutability": "payable",
      "type": "function"
    },
    {
      "inputs": [
        {
          "internalType": "string",
          "name": "gaugeType",
          "type": "string"
        },
        {
          "internalType": "uint256",
          "name": "minRelativeWeight",
          "type": "uint256"
        },
        {
          "internalType": "enum ICCIPGauge.PayFeesIn",
          "name": "payFeesIn",
          "type": "uint8"
        }
      ],
      "name": "checkpointGaugesOfTypeAboveRelativeWeight",
      "outputs": [],
      "stateMutability": "payable",
      "type": "function"
    },
    {
      "inputs": [
        {
          "internalType": "string[]",
          "name": "gaugeTypes",
          "type": "string[]"
        },
        {
          "internalType": "contract ICCIPGauge[]",
          "name": "gauges",
          "type": "address[]"
        },
        {
          "internalType": "enum ICCIPGauge.PayFeesIn",
          "name": "payFeesIn",
          "type": "uint8"
        }
      ],
      "name": "checkpointMultipleGauges",
      "outputs": [],
      "stateMutability": "payable",
      "type": "function"
    },
    {
      "inputs": [
        {
          "internalType": "string",
          "name": "gaugeType",
          "type": "string"
        },
        {
          "internalType": "contract ICCIPGauge",
          "name": "gauge",
          "type": "address"
        },
        {
          "internalType": "enum ICCIPGauge.PayFeesIn",
          "name": "payFeesIn",
          "type": "uint8"
        }
      ],
      "name": "checkpointSingleGauge",
      "outputs": [],
      "stateMutability": "payable",
      "type": "function"
    },
    {
      "inputs": [
        {
          "internalType": "string",
          "name": "gaugeType",
          "type": "string"
        },
        {
          "internalType": "uint256",
          "name": "index",
          "type": "uint256"
        }
      ],
      "name": "getGaugeAtIndex",
      "outputs": [
        {
          "internalType": "contract ICCIPGauge",
          "name": "",
          "type": "address"
        }
      ],
      "stateMutability": "view",
      "type": "function"
    },
    {
      "inputs": [],
      "name": "getGaugeTypes",
      "outputs": [
        {
          "internalType": "string[]",
          "name": "",
          "type": "string[]"
        }
      ],
      "stateMutability": "view",
      "type": "function"
    },
    {
      "inputs": [],
      "name": "getRoundedDownBlockTimestamp",
      "outputs": [
        {
          "internalType": "uint256",
          "name": "",
          "type": "uint256"
        }
      ],
      "stateMutability": "view",
      "type": "function"
    },
    {
      "inputs": [
        {
          "internalType": "string",
          "name": "gaugeType",
          "type": "string"
        },
        {
          "internalType": "contract ICCIPGauge",
          "name": "gauge",
          "type": "address"
        },
        {
          "internalType": "enum ICCIPGauge.PayFeesIn",
          "name": "payFeesIn",
          "type": "uint8"
        }
      ],
      "name": "getSingleBridgeCost",
      "outputs": [
        {
          "internalType": "uint256",
          "name": "fees",
          "type": "uint256"
        }
      ],
      "stateMutability": "view",
      "type": "function"
    },
    {
      "inputs": [
        {
          "internalType": "uint256",
          "name": "minRelativeWeight",
          "type": "uint256"
        },
        {
          "internalType": "string",
          "name": "gaugeType",
          "type": "string"
        },
        {
          "internalType": "enum ICCIPGauge.PayFeesIn",
          "name": "payFeesIn",
          "type": "uint8"
        }
      ],
      "name": "getTotalBridgeCost",
      "outputs": [
        {
          "internalType": "uint256",
          "name": "totalCost",
          "type": "uint256"
        }
      ],
      "stateMutability": "view",
      "type": "function"
    },
    {
      "inputs": [
        {
          "internalType": "string",
          "name": "gaugeType",
          "type": "string"
        }
      ],
      "name": "getTotalGauges",
      "outputs": [
        {
          "internalType": "uint256",
          "name": "",
          "type": "uint256"
        }
      ],
      "stateMutability": "view",
      "type": "function"
    },
    {
      "inputs": [
        {
          "internalType": "string",
          "name": "gaugeType",
          "type": "string"
        },
        {
          "internalType": "contract ICCIPGauge",
          "name": "gauge",
          "type": "address"
        }
      ],
      "name": "hasGauge",
      "outputs": [
        {
          "internalType": "bool",
          "name": "",
          "type": "bool"
        }
      ],
      "stateMutability": "view",
      "type": "function"
    },
    {
      "inputs": [
        {
          "internalType": "string",
          "name": "gaugeType",
          "type": "string"
        }
      ],
      "name": "isValidGaugeType",
      "outputs": [
        {
          "internalType": "bool",
          "name": "",
          "type": "bool"
        }
      ],
      "stateMutability": "view",
      "type": "function"
    },
    {
      "inputs": [],
      "name": "owner",
      "outputs": [
        {
          "internalType": "address",
          "name": "",
          "type": "address"
        }
      ],
      "stateMutability": "view",
      "type": "function"
    },
    {
      "inputs": [],
      "name": "pendingOwner",
      "outputs": [
        {
          "internalType": "address",
          "name": "",
          "type": "address"
        }
      ],
      "stateMutability": "view",
      "type": "function"
    },
    {
      "inputs": [
        {
          "internalType": "string",
          "name": "gaugeType",
          "type": "string"
        },
        {
          "internalType": "contract ICCIPGauge[]",
          "name": "gauges",
          "type": "address[]"
        }
      ],
      "name": "removeGauges",
      "outputs": [],
      "stateMutability": "nonpayable",
      "type": "function"
    },
    {
      "inputs": [],
      "name": "renounceOwnership",
      "outputs": [],
      "stateMutability": "nonpayable",
      "type": "function"
    },
    {
      "inputs": [
        {
          "internalType": "address",
          "name": "newOwner",
          "type": "address"
        }
      ],
      "name": "transferOwnership",
      "outputs": [],
      "stateMutability": "nonpayable",
      "type": "function"
    },
    {
      "stateMutability": "payable",
      "type": "receive"
    }
  ],
  "bytecode": "0x6101006040523480156200001257600080fd5b50604051620032103803806200321083398101604081905262000035916200015e565b60016000556200004533620000d8565b6001600160a01b0380841660c081905290831660a05260408051632c6f4d6f60e11b815290516358de9ade916004808201926020929091908290030181865afa15801562000097573d6000803e3d6000fd5b505050506040513d601f19601f82011682018060405250810190620000bd9190620001b2565b6001600160a01b0390811660e0521660805250620001d99050565b600280546001600160a01b0319169055620000f381620000f6565b50565b600180546001600160a01b038381166001600160a01b0319831681179093556040519116919082907f8be0079c531659141344cd1fd0a4f28419497f9722a3daafe3b4186f6b6457e090600090a35050565b6001600160a01b0381168114620000f357600080fd5b6000806000606084860312156200017457600080fd5b8351620001818162000148565b6020850151909350620001948162000148565b6040850151909250620001a78162000148565b809150509250925092565b600060208284031215620001c557600080fd5b8151620001d28162000148565b9392505050565b60805160a05160c05160e051612f6a620002a66000396000818161029f01528181610f36015281816115f101528181611681015281816117060152611c7d0152600081816102f301528181610526015281816105f401528181610718015281816107f401528181610b3c01528181610e260152818161102e01528181611123015281816112570152818161140b0152611e6f01526000818161015f015281816101ea0152818161183c0152611a1e01526000818161026b015281816118c901526119910152612f6a6000f3fe60806040526004361061014f5760003560e01c806373ebd060116100b6578063c91be0431161006f578063c91be0431461045b578063d8dba2ce1461047b578063e30c39781461049b578063eb423322146104b9578063f2fde38b146104cc578063f7178b88146104ec57600080fd5b806373ebd060146103a657806379ba5097146103c65780638b75c999146103db5780638da5cb5b146103fb578063afcb1a8614610419578063c5e049921461043b57600080fd5b806346583adf1161010857806346583adf146103155780634db34d2a14610338578063517b5309146103585780635767680f1461036b57806362e15fde1461037e578063715018a61461039157600080fd5b8063164b96b1146101d857806316e772bc146102295780631b6b6d231461025957806322884e2c1461028d57806327cb2a3b146102c15780632b2c1a4e146102e157600080fd5b366101d357336001600160a01b037f000000000000000000000000000000000000000000000000000000000000000016146101d15760405162461bcd60e51b815260206004820152601760248201527f4f6e6c7920636865636b706f696e742061646170746f7200000000000000000060448201526064015b60405180910390fd5b005b600080fd5b3480156101e457600080fd5b5061020c7f000000000000000000000000000000000000000000000000000000000000000081565b6040516001600160a01b0390911681526020015b60405180910390f35b34801561023557600080fd5b50610249610244366004612363565b61050c565b6040519015158152602001610220565b34801561026557600080fd5b5061020c7f000000000000000000000000000000000000000000000000000000000000000081565b34801561029957600080fd5b5061020c7f000000000000000000000000000000000000000000000000000000000000000081565b3480156102cd57600080fd5b5061020c6102dc3660046123a4565b6105a7565b3480156102ed57600080fd5b5061020c7f000000000000000000000000000000000000000000000000000000000000000081565b34801561032157600080fd5b5061032a6106bc565b604051908152602001610220565b34801561034457600080fd5b5061032a610353366004612363565b6106cb565b6101d1610366366004612403565b6107dc565b6101d1610379366004612473565b6108d4565b6101d161038c366004612508565b610a81565b34801561039d57600080fd5b506101d1610add565b3480156103b257600080fd5b506101d16103c136600461256d565b610af1565b3480156103d257600080fd5b506101d1610d6c565b3480156103e757600080fd5b5061032a6103f636600461268f565b610de6565b34801561040757600080fd5b506001546001600160a01b031661020c565b34801561042557600080fd5b5061042e610e22565b6040516102209190612781565b34801561044757600080fd5b5061032a6104563660046127e3565b610eaa565b34801561046757600080fd5b50610249610476366004612835565b610fe1565b34801561048757600080fd5b506101d161049636600461256d565b6110d8565b3480156104a757600080fd5b506002546001600160a01b031661020c565b6101d16104c736600461288b565b611204565b3480156104d857600080fd5b506101d16104e73660046128dc565b61134f565b3480156104f857600080fd5b506101d161050736600461256d565b6113c0565b6040516305b9dcaf60e21b81526000906001600160a01b037f000000000000000000000000000000000000000000000000000000000000000016906316e772bc9061055d9086908690600401612900565b602060405180830381865afa15801561057a573d6000803e3d6000fd5b505050506040513d601f19601f8201168201806040525081019061059e919061292f565b90505b92915050565b600083838080601f016020809104026020016040519081016040528093929190818152602001838380828437600092019190915250506040516305b9dcaf60e21b81526001600160a01b037f00000000000000000000000000000000000000000000000000000000000000001692506316e772bc915061062b908490600401612951565b602060405180830381865afa158015610648573d6000803e3d6000fd5b505050506040513d601f19601f8201168201806040525081019061066c919061292f565b6106885760405162461bcd60e51b81526004016101c890612964565b6106b3836003878760405161069e929190612990565b908152604051908190036020019020906114e1565b95945050505050565b60006106c66114ed565b905090565b600082828080601f016020809104026020016040519081016040528093929190818152602001838380828437600092019190915250506040516305b9dcaf60e21b81526001600160a01b037f00000000000000000000000000000000000000000000000000000000000000001692506316e772bc915061074f908490600401612951565b602060405180830381865afa15801561076c573d6000803e3d6000fd5b505050506040513d601f19601f82011682018060405250810190610790919061292f565b6107ac5760405162461bcd60e51b81526004016101c890612964565b6107d4600385856040516107c1929190612990565b9081526020016040518091039020611515565b949350505050565b6107e461151f565b60006107ee6114ed565b905060007f00000000000000000000000000000000000000000000000000000000000000006001600160a01b031663afcb1a866040518163ffffffff1660e01b8152600401600060405180830381865afa158015610850573d6000803e3d6000fd5b505050506040513d6000823e601f3d908101601f1916820160405261087891908101906129f3565b905060005b81518110156108bb576108ab82828151811061089b5761089b612ab8565b6020026020010151868587611578565b6108b481612ae4565b905061087d565b506108c461179b565b50506108d06001600055565b5050565b6108dc61151f565b83821461093e5760405162461bcd60e51b815260206004820152602a60248201527f4d69736d61746368206265747765656e20676175676520747970657320616e646044820152692061646472657373657360b01b60648201526084016101c8565b8161098b5760405162461bcd60e51b815260206004820152601760248201527f4e6f2067617567657320746f20636865636b706f696e7400000000000000000060448201526064016101c8565b8160005b81811015610a6657610a0a8585838181106109ac576109ac612ab8565b90506020020160208101906109c191906128dc565b60038989858181106109d5576109d5612ab8565b90506020028101906109e79190612afd565b6040516109f5929190612990565b908152604051908190036020019020906117ac565b610a265760405162461bcd60e51b81526004016101c890612b43565b610a56858583818110610a3b57610a3b612ab8565b9050602002016020810190610a5091906128dc565b846117ce565b610a5f81612ae4565b905061098f565b50610a6f61179b565b50610a7a6001600055565b5050505050565b610a8961151f565b610a9f82600386866040516109f5929190612990565b610abb5760405162461bcd60e51b81526004016101c890612b43565b610ac582826117ce565b610acd61179b565b610ad76001600055565b50505050565b610ae5611a90565b610aef6000611aea565b565b83838080601f016020809104026020016040519081016040528093929190818152602001838380828437600092019190915250506040516305b9dcaf60e21b81526001600160a01b037f00000000000000000000000000000000000000000000000000000000000000001692506316e772bc9150610b73908490600401612951565b602060405180830381865afa158015610b90573d6000803e3d6000fd5b505050506040513d601f19601f82011682018060405250810190610bb4919061292f565b610bd05760405162461bcd60e51b81526004016101c890612964565b600060038686604051610be4929190612990565b9081526020016040518091039020905060005b83811015610d63576000858583818110610c1357610c13612ab8565b9050602002016020810190610c2891906128dc565b9050806001600160a01b0316639c868ac06040518163ffffffff1660e01b8152600401602060405180830381865afa158015610c68573d6000803e3d6000fd5b505050506040513d601f19601f82011682018060405250810190610c8c919061292f565b610ccf5760405162461bcd60e51b815260206004820152601460248201527311d85d59d9481dd85cc81b9bdd081ada5b1b195960621b60448201526064016101c8565b610cd98382611b03565b610cf55760405162461bcd60e51b81526004016101c890612b43565b8787604051610d05929190612990565b6040518091039020816001600160a01b03167fb87757e0365ca4f80cc1f429f422c0ea7ec26bbd3e5778727e77c809462aad028a8a604051610d48929190612900565b60405180910390a35080610d5b81612ae4565b915050610bf7565b50505050505050565b60025433906001600160a01b03168114610dda5760405162461bcd60e51b815260206004820152602960248201527f4f776e61626c6532537465703a2063616c6c6572206973206e6f7420746865206044820152683732bb9037bbb732b960b91b60648201526084016101c8565b610de381611aea565b50565b6000610dfc836003866040516109f59190612b8a565b610e185760405162461bcd60e51b81526004016101c890612b43565b6107d48383611b18565b60607f00000000000000000000000000000000000000000000000000000000000000006001600160a01b031663afcb1a866040518163ffffffff1660e01b8152600401600060405180830381865afa158015610e82573d6000803e3d6000fd5b505050506040513d6000823e601f3d908101601f191682016040526106c691908101906129f3565b600080610eb56114ed565b90506000610ece600387876040516107c1929190612990565b9050600060038787604051610ee4929190612990565b9081526020016040518091039020905060005b82811015610fd5576000610f0b83836114e1565b6040516334c1e32560e21b81526001600160a01b038083166004830152602482018890529192508b917f0000000000000000000000000000000000000000000000000000000000000000169063d3078c9490604401602060405180830381865afa158015610f7d573d6000803e3d6000fd5b505050506040513d601f19601f82011682018060405250810190610fa19190612ba6565b1015610fad5750610fc5565b610fb78188611b18565b610fc19087612bbf565b9550505b610fce81612ae4565b9050610ef7565b50505050949350505050565b600083838080601f016020809104026020016040519081016040528093929190818152602001838380828437600092019190915250506040516305b9dcaf60e21b81526001600160a01b037f00000000000000000000000000000000000000000000000000000000000000001692506316e772bc9150611065908490600401612951565b602060405180830381865afa158015611082573d6000803e3d6000fd5b505050506040513d601f19601f820116820180604052508101906110a6919061292f565b6110c25760405162461bcd60e51b81526004016101c890612964565b6106b383600387876040516109f5929190612990565b83838080601f016020809104026020016040519081016040528093929190818152602001838380828437600092019190915250506040516305b9dcaf60e21b81526001600160a01b037f00000000000000000000000000000000000000000000000000000000000000001692506316e772bc915061115a908490600401612951565b602060405180830381865afa158015611177573d6000803e3d6000fd5b505050506040513d601f19601f8201168201806040525081019061119b919061292f565b6111b75760405162461bcd60e51b81526004016101c890612964565b6111bf611a90565b610a7a85858080601f01602080910402602001604051908101604052809392919081815260200183838082843760009201919091525087925086915060019050611c05565b61120c61151f565b83838080601f016020809104026020016040519081016040528093929190818152602001838380828437600092019190915250506040516305b9dcaf60e21b81526001600160a01b037f00000000000000000000000000000000000000000000000000000000000000001692506316e772bc915061128e908490600401612951565b602060405180830381865afa1580156112ab573d6000803e3d6000fd5b505050506040513d601f19601f820116820180604052508101906112cf919061292f565b6112eb5760405162461bcd60e51b81526004016101c890612964565b60006112f56114ed565b905061133b86868080601f016020809104026020016040519081016040528093929190818152602001838380828437600092019190915250889250859150879050611578565b61134361179b565b5050610ad76001600055565b611357611a90565b600280546001600160a01b0383166001600160a01b031990911681179091556113886001546001600160a01b031690565b6001600160a01b03167f38d16b8cac22d99fc7c124b9cd0de2d3fa1faef420bfe791d8c362d765e2270060405160405180910390a350565b83838080601f016020809104026020016040519081016040528093929190818152602001838380828437600092019190915250506040516305b9dcaf60e21b81526001600160a01b037f00000000000000000000000000000000000000000000000000000000000000001692506316e772bc9150611442908490600401612951565b602060405180830381865afa15801561145f573d6000803e3d6000fd5b505050506040513d601f19601f82011682018060405250810190611483919061292f565b61149f5760405162461bcd60e51b81526004016101c890612964565b610a7a85858080601f01602080910402602001604051908101604052809392919081815260200183838082843760009201829052508893508792509050611c05565b600061059e8383612026565b600060016114fe62093a8042612bd2565b6115089190612bf4565b6106c69062093a80612c07565b60006105a1825490565b6002600054036115715760405162461bcd60e51b815260206004820152601f60248201527f5265656e7472616e637947756172643a207265656e7472616e742063616c6c0060448201526064016101c8565b6002600055565b600060038560405161158a9190612b8a565b9081526020016040518091039020905060006115a582611515565b9050806000036115b6575050610ad7565b60005b81811015610d635760006115cd84836114e1565b604051630a4d7a2560e41b81526001600160a01b03808316600483015291925087917f0000000000000000000000000000000000000000000000000000000000000000169063a4d7a25090602401602060405180830381865afa158015611638573d6000803e3d6000fd5b505050506040513d601f19601f8201168201806040525081019061165c9190612ba6565b10156116de5760405163615e523760e01b81526001600160a01b0382811660048301527f0000000000000000000000000000000000000000000000000000000000000000169063615e523790602401600060405180830381600087803b1580156116c557600080fd5b505af11580156116d9573d6000803e3d6000fd5b505050505b6040516334c1e32560e21b81526001600160a01b0382811660048301526024820188905288917f00000000000000000000000000000000000000000000000000000000000000009091169063d3078c9490604401602060405180830381865afa15801561174f573d6000803e3d6000fd5b505050506040513d601f19601f820116820180604052508101906117739190612ba6565b101561177f575061178b565b61178981866117ce565b505b61179481612ae4565b90506115b9565b478015610de357610de33382612050565b6001600160a01b0381166000908152600183016020526040812054151561059e565b60006117da8383611b18565b905060008260018111156117f0576117f0612c1e565b036118ab57478181101561181d5781818460405163ecd9917560e01b81526004016101c893929190612c56565b6040516354b94c2f60e11b81526001600160a01b0385811660048301527f0000000000000000000000000000000000000000000000000000000000000000169063a972985e90349060240160206040518083038185885af1158015611886573d6000803e3d6000fd5b50505050506040513d601f19601f82011682018060405250810190610a7a919061292f565b604051636eb1769f60e11b81523360048201523060248201526000907f00000000000000000000000000000000000000000000000000000000000000006001600160a01b03169063dd62ed3e90604401602060405180830381865afa158015611918573d6000803e3d6000fd5b505050506040513d601f19601f8201168201806040525081019061193c9190612ba6565b9050818110156119655781818460405163ecd9917560e01b81526004016101c893929190612c56565b6040516323b872dd60e01b81523360048201526001600160a01b038581166024830152604482018490527f000000000000000000000000000000000000000000000000000000000000000016906323b872dd906064016020604051808303816000875af11580156119da573d6000803e3d6000fd5b505050506040513d601f19601f820116820180604052508101906119fe919061292f565b506040516354b94c2f60e11b81526001600160a01b0385811660048301527f0000000000000000000000000000000000000000000000000000000000000000169063a972985e906024016020604051808303816000875af1158015611a67573d6000803e3d6000fd5b505050506040513d601f19601f82011682018060405250810190610a7a919061292f565b505050565b6001546001600160a01b03163314610aef5760405162461bcd60e51b815260206004820181905260248201527f4f776e61626c653a2063616c6c6572206973206e6f7420746865206f776e657260448201526064016101c8565b600280546001600160a01b0319169055610de381612169565b600061059e836001600160a01b0384166121bb565b600080836001600160a01b0316635bbc56c16001600160801b03856040518363ffffffff1660e01b8152600401611b50929190612c71565b600060405180830381865afa158015611b6d573d6000803e3d6000fd5b505050506040513d6000823e601f3d908101601f19168201604052611b959190810190612d4c565b6040516309fdb0d160e01b81529091506001600160a01b038516906309fdb0d190611bc4908490600401612e35565b602060405180830381865afa158015611be1573d6000803e3d6000fd5b505050506040513d601f19601f820116820180604052508101906107d49190612ba6565b6000600385604051611c179190612b8a565b9081526020016040518091039020905060005b8381101561201e576000858583818110611c4657611c46612ab8565b9050602002016020810190611c5b91906128dc565b6040516361df1bf960e01b81526001600160a01b0380831660048301529192507f0000000000000000000000000000000000000000000000000000000000000000909116906361df1bf990602401602060405180830381865afa158015611cc6573d6000803e3d6000fd5b505050506040513d601f19601f82011682018060405250810190611cea919061292f565b611d495760405162461bcd60e51b815260206004820152602a60248201527f476175676520776173206e6f7420616464656420746f2074686520476175676560448201526921b7b73a3937b63632b960b11b60648201526084016101c8565b806001600160a01b0316639c868ac06040518163ffffffff1660e01b8152600401602060405180830381865afa158015611d87573d6000803e3d6000fd5b505050506040513d601f19601f82011682018060405250810190611dab919061292f565b15611deb5760405162461bcd60e51b815260206004820152601060248201526f11d85d59d9481dd85cc81ada5b1b195960821b60448201526064016101c8565b611df583826122ae565b611e515760405162461bcd60e51b815260206004820152602760248201527f476175676520616c726561647920616464656420746f2074686520636865636b6044820152663837b4b73a32b960c91b60648201526084016101c8565b8380611f51575060405163572cb6a560e01b81526001600160a01b037f0000000000000000000000000000000000000000000000000000000000000000169063572cb6a590611ea4908a90600401612951565b602060405180830381865afa158015611ec1573d6000803e3d6000fd5b505050506040513d601f19601f82011682018060405250810190611ee59190612f01565b60405163ce3cc8bd60e01b81526001600160a01b038381166004830152919091169063ce3cc8bd90602401602060405180830381865afa158015611f2d573d6000803e3d6000fd5b505050506040513d601f19601f82011682018060405250810190611f51919061292f565b611fb45760405162461bcd60e51b815260206004820152602e60248201527f476175676520646f6573206e6f7420636f72726573706f6e6420746f2074686560448201526d2073656c6563746564207479706560901b60648201526084016101c8565b86604051611fc29190612b8a565b6040518091039020816001600160a01b03167fbd3a33b3738a69bcfb84219d93fb0b1b2d91efbf2e5bef206c9af4122290fb54896040516120039190612951565b60405180910390a3508061201681612ae4565b915050611c2a565b505050505050565b600082600001828154811061203d5761203d612ab8565b9060005260206000200154905092915050565b804710156120a05760405162461bcd60e51b815260206004820152601d60248201527f416464726573733a20696e73756666696369656e742062616c616e636500000060448201526064016101c8565b6000826001600160a01b03168260405160006040518083038185875af1925050503d80600081146120ed576040519150601f19603f3d011682016040523d82523d6000602084013e6120f2565b606091505b5050905080611a8b5760405162461bcd60e51b815260206004820152603a60248201527f416464726573733a20756e61626c6520746f2073656e642076616c75652c207260448201527f6563697069656e74206d6179206861766520726576657274656400000000000060648201526084016101c8565b600180546001600160a01b038381166001600160a01b0319831681179093556040519116919082907f8be0079c531659141344cd1fd0a4f28419497f9722a3daafe3b4186f6b6457e090600090a35050565b600081815260018301602052604081205480156122a45760006121df600183612bf4565b85549091506000906121f390600190612bf4565b905081811461225857600086600001828154811061221357612213612ab8565b906000526020600020015490508087600001848154811061223657612236612ab8565b6000918252602080832090910192909255918252600188019052604090208390555b855486908061226957612269612f1e565b6001900381819060005260206000200160009055905585600101600086815260200190815260200160002060009055600193505050506105a1565b60009150506105a1565b600061059e836001600160a01b03841660006122dd838360009081526001919091016020526040902054151590565b612313575081546001818101845560008481526020808220909301849055845484825282860190935260409020919091556105a1565b5060006105a1565b60008083601f84011261232d57600080fd5b5081356001600160401b0381111561234457600080fd5b60208301915083602082850101111561235c57600080fd5b9250929050565b6000806020838503121561237657600080fd5b82356001600160401b0381111561238c57600080fd5b6123988582860161231b565b90969095509350505050565b6000806000604084860312156123b957600080fd5b83356001600160401b038111156123cf57600080fd5b6123db8682870161231b565b909790965060209590950135949350505050565b8035600281106123fe57600080fd5b919050565b6000806040838503121561241657600080fd5b82359150612426602084016123ef565b90509250929050565b60008083601f84011261244157600080fd5b5081356001600160401b0381111561245857600080fd5b6020830191508360208260051b850101111561235c57600080fd5b60008060008060006060868803121561248b57600080fd5b85356001600160401b03808211156124a257600080fd5b6124ae89838a0161242f565b909750955060208801359150808211156124c757600080fd5b506124d48882890161242f565b90945092506124e79050604087016123ef565b90509295509295909350565b6001600160a01b0381168114610de357600080fd5b6000806000806060858703121561251e57600080fd5b84356001600160401b0381111561253457600080fd5b6125408782880161231b565b9095509350506020850135612554816124f3565b9150612562604086016123ef565b905092959194509250565b6000806000806040858703121561258357600080fd5b84356001600160401b038082111561259a57600080fd5b6125a68883890161231b565b909650945060208701359150808211156125bf57600080fd5b506125cc8782880161242f565b95989497509550505050565b634e487b7160e01b600052604160045260246000fd5b604080519081016001600160401b0381118282101715612610576126106125d8565b60405290565b60405160a081016001600160401b0381118282101715612610576126106125d8565b604051601f8201601f191681016001600160401b0381118282101715612660576126606125d8565b604052919050565b60006001600160401b03821115612681576126816125d8565b50601f01601f191660200190565b6000806000606084860312156126a457600080fd5b83356001600160401b038111156126ba57600080fd5b8401601f810186136126cb57600080fd5b80356126de6126d982612668565b612638565b8181528760208385010111156126f357600080fd5b81602084016020830137600060208383010152809550505050602084013561271a816124f3565b9150612728604085016123ef565b90509250925092565b60005b8381101561274c578181015183820152602001612734565b50506000910152565b6000815180845261276d816020860160208601612731565b601f01601f19169290920160200192915050565b6000602080830181845280855180835260408601915060408160051b870101925083870160005b828110156127d657603f198886030184526127c4858351612755565b945092850192908501906001016127a8565b5092979650505050505050565b600080600080606085870312156127f957600080fd5b8435935060208501356001600160401b0381111561281657600080fd5b6128228782880161231b565b90945092506125629050604086016123ef565b60008060006040848603121561284a57600080fd5b83356001600160401b0381111561286057600080fd5b61286c8682870161231b565b9094509250506020840135612880816124f3565b809150509250925092565b600080600080606085870312156128a157600080fd5b84356001600160401b038111156128b757600080fd5b6128c38782880161231b565b90955093505060208501359150612562604086016123ef565b6000602082840312156128ee57600080fd5b81356128f9816124f3565b9392505050565b60208152816020820152818360408301376000818301604090810191909152601f909201601f19160101919050565b60006020828403121561294157600080fd5b815180151581146128f957600080fd5b60208152600061059e6020830184612755565b602080825260129082015271496e76616c6964206761756765207479706560701b604082015260600190565b8183823760009101908152919050565b60006001600160401b038211156129b9576129b96125d8565b5060051b60200190565b60006129d16126d984612668565b90508281528383830111156129e557600080fd5b6128f9836020830184612731565b60006020808385031215612a0657600080fd5b82516001600160401b0380821115612a1d57600080fd5b818501915085601f830112612a3157600080fd5b8151612a3f6126d9826129a0565b81815260059190911b83018401908481019088831115612a5e57600080fd5b8585015b83811015612aab57805185811115612a7a5760008081fd5b8601603f81018b13612a8c5760008081fd5b612a9d8b89830151604084016129c3565b845250918601918601612a62565b5098975050505050505050565b634e487b7160e01b600052603260045260246000fd5b634e487b7160e01b600052601160045260246000fd5b600060018201612af657612af6612ace565b5060010190565b6000808335601e19843603018112612b1457600080fd5b8301803591506001600160401b03821115612b2e57600080fd5b60200191503681900382131561235c57600080fd5b60208082526027908201527f476175676520776173206e6f7420616464656420746f2074686520636865636b6040820152663837b4b73a32b960c91b606082015260800190565b60008251612b9c818460208701612731565b9190910192915050565b600060208284031215612bb857600080fd5b5051919050565b808201808211156105a1576105a1612ace565b600082612bef57634e487b7160e01b600052601260045260246000fd5b500490565b818103818111156105a1576105a1612ace565b80820281158282048414176105a1576105a1612ace565b634e487b7160e01b600052602160045260246000fd5b60028110612c5257634e487b7160e01b600052602160045260246000fd5b9052565b83815260208101839052606081016107d46040830184612c34565b6001600160801b0383168152604081016128f96020830184612c34565b600082601f830112612c9f57600080fd5b61059e838351602085016129c3565b80516123fe816124f3565b600082601f830112612cca57600080fd5b81516020612cda6126d9836129a0565b82815260069290921b84018101918181019086841115612cf957600080fd5b8286015b84811015612d415760408189031215612d165760008081fd5b612d1e6125ee565b8151612d29816124f3565b81528185015185820152835291830191604001612cfd565b509695505050505050565b600060208284031215612d5e57600080fd5b81516001600160401b0380821115612d7557600080fd5b9083019060a08286031215612d8957600080fd5b612d91612616565b825182811115612da057600080fd5b612dac87828601612c8e565b825250602083015182811115612dc157600080fd5b612dcd87828601612c8e565b602083015250604083015182811115612de557600080fd5b612df187828601612cb9565b604083015250612e0360608401612cae565b6060820152608083015182811115612e1a57600080fd5b612e2687828601612c8e565b60808301525095945050505050565b60006020808352835160a082850152612e5160c0850182612755565b905081850151601f196040818785030181880152612e6f8484612755565b88820151888203840160608a01528051808352908701955060009450908601905b80851015612ec257855180516001600160a01b0316835287015187830152948601946001949094019390820190612e90565b5060608901516001600160a01b03811660808a0152955060808901519550828882030160a0890152612ef48187612755565b9998505050505050505050565b600060208284031215612f1357600080fd5b81516128f9816124f3565b634e487b7160e01b600052603160045260246000fdfea2646970667358221220fbf159605a9d6cf837954a90ca85616c909ec6ccf56b9c929d1e037cfba308a564736f6c63430008150033",
  "language": "Solidity",
  "compiler": "0.8.21+commit.d9974bed"
}