{
  "address": "0x2375EBa92e1b7ace8585AE7e2d23feDc10887493",
  "abi": [
    {
      "inputs": [
        {
          "internalType": "address",
          "name": "_siloLikeToken",
          "type": "address"
        },
        {
          "internalType": "address",
          "name": "_linkLikeToken",
          "type": "address"
        }
      ],
      "stateMutability": "nonpayable",
      "type": "constructor"
    },
    {
      "inputs": [],
      "name": "InsufficientFeeTokenAmount",
      "type": "error"
    },
    {
      "inputs": [],
      "name": "InvalidMsgValue",
      "type": "error"
    },
    {
      "inputs": [
        {
          "internalType": "uint64",
          "name": "destChainSelector",
          "type": "uint64"
        }
      ],
      "name": "UnsupportedDestinationChain",
      "type": "error"
    },
    {
      "inputs": [],
      "name": "FEE",
      "outputs": [
        {
          "internalType": "uint256",
          "name": "",
          "type": "uint256"
        }
      ],
      "stateMutability": "view",
      "type": "function"
    },
    {
      "inputs": [],
      "name": "LINK_LIKE_TOKEN",
      "outputs": [
        {
          "internalType": "address",
          "name": "",
          "type": "address"
        }
      ],
      "stateMutability": "view",
      "type": "function"
    },
    {
      "inputs": [],
      "name": "SILO_LIKE_TOKEN",
      "outputs": [
        {
          "internalType": "address",
          "name": "",
          "type": "address"
        }
      ],
      "stateMutability": "view",
      "type": "function"
    },
    {
      "inputs": [
        {
          "internalType": "uint64",
          "name": "destinationChainSelector",
          "type": "uint64"
        },
        {
          "components": [
            {
              "internalType": "bytes",
              "name": "receiver",
              "type": "bytes"
            },
            {
              "internalType": "bytes",
              "name": "data",
              "type": "bytes"
            },
            {
              "components": [
                {
                  "internalType": "address",
                  "name": "token",
                  "type": "address"
                },
                {
                  "internalType": "uint256",
                  "name": "amount",
                  "type": "uint256"
                }
              ],
              "internalType": "struct Client.EVMTokenAmount[]",
              "name": "tokenAmounts",
              "type": "tuple[]"
            },
            {
              "internalType": "address",
              "name": "feeToken",
              "type": "address"
            },
            {
              "internalType": "bytes",
              "name": "extraArgs",
              "type": "bytes"
            }
          ],
          "internalType": "struct Client.EVM2AnyMessage",
          "name": "message",
          "type": "tuple"
        }
      ],
      "name": "ccipSend",
      "outputs": [
        {
          "internalType": "bytes32",
          "name": "",
          "type": "bytes32"
        }
      ],
      "stateMutability": "payable",
      "type": "function"
    },
    {
      "inputs": [
        {
          "internalType": "uint64",
          "name": "",
          "type": "uint64"
        },
        {
          "components": [
            {
              "internalType": "bytes",
              "name": "receiver",
              "type": "bytes"
            },
            {
              "internalType": "bytes",
              "name": "data",
              "type": "bytes"
            },
            {
              "components": [
                {
                  "internalType": "address",
                  "name": "token",
                  "type": "address"
                },
                {
                  "internalType": "uint256",
                  "name": "amount",
                  "type": "uint256"
                }
              ],
              "internalType": "struct Client.EVMTokenAmount[]",
              "name": "tokenAmounts",
              "type": "tuple[]"
            },
            {
              "internalType": "address",
              "name": "feeToken",
              "type": "address"
            },
            {
              "internalType": "bytes",
              "name": "extraArgs",
              "type": "bytes"
            }
          ],
          "internalType": "struct Client.EVM2AnyMessage",
          "name": "",
          "type": "tuple"
        }
      ],
      "name": "getFee",
      "outputs": [
        {
          "internalType": "uint256",
          "name": "fee",
          "type": "uint256"
        }
      ],
      "stateMutability": "pure",
      "type": "function"
    },
    {
      "inputs": [
        {
          "internalType": "uint64",
          "name": "",
          "type": "uint64"
        }
      ],
      "name": "getSupportedTokens",
      "outputs": [
        {
          "internalType": "address[]",
          "name": "tokens",
          "type": "address[]"
        }
      ],
      "stateMutability": "pure",
      "type": "function"
    },
    {
      "inputs": [
        {
          "internalType": "uint64",
          "name": "",
          "type": "uint64"
        }
      ],
      "name": "isChainSupported",
      "outputs": [
        {
          "internalType": "bool",
          "name": "supported",
          "type": "bool"
        }
      ],
      "stateMutability": "pure",
      "type": "function"
    }
  ],
  "bytecode": "0x60e060405234801561001057600080fd5b50604051610d94380380610d9483398101604081905261002f91610066565b6001600160a01b039182166080521660a0523360c052610099565b80516001600160a01b038116811461006157600080fd5b919050565b6000806040838503121561007957600080fd5b6100828361004a565b91506100906020840161004a565b90509250929050565b60805160a05160c051610cb06100e46000396000610392015260008181610107015281816101c90152818161022501526102ea01526000818161016e01526103d50152610cb06000f3fe6080604052600436106100705760003560e01c8063b05c50411161004e578063b05c5041146100f5578063c57981b514610141578063dfac49111461015c578063fbca3b741461019057600080fd5b806320487ded1461007557806396f4e9f9146100b1578063a48a9058146100c4575b600080fd5b34801561008157600080fd5b5061009e610090366004610831565b5066038d7ea4c68000919050565b6040519081526020015b60405180910390f35b61009e6100bf36600461092e565b6101bd565b3480156100d057600080fd5b506100e56100df366004610983565b50600190565b60405190151581526020016100a8565b34801561010157600080fd5b506101297f000000000000000000000000000000000000000000000000000000000000000081565b6040516001600160a01b0390911681526020016100a8565b34801561014d57600080fd5b5061009e66038d7ea4c6800081565b34801561016857600080fd5b506101297f000000000000000000000000000000000000000000000000000000000000000081565b34801561019c57600080fd5b506101b06101ab366004610983565b6104d0565b6040516100a891906109a5565b60006001600160a01b037f0000000000000000000000000000000000000000000000000000000000000000166101f960808401606085016109f2565b6001600160a01b03160361036657604051636eb1769f60e11b81523360048201523060248201526000907f00000000000000000000000000000000000000000000000000000000000000006001600160a01b03169063dd62ed3e90604401602060405180830381865afa158015610274573d6000803e3d6000fd5b505050506040513d601f19601f820116820180604052508101906102989190610a0d565b905066038d7ea4c680008110156102c2576040516303ed377360e11b815260040160405180910390fd5b6040516323b872dd60e01b815233600482015230602482015266038d7ea4c6800060448201527f00000000000000000000000000000000000000000000000000000000000000006001600160a01b0316906323b872dd906064016020604051808303816000875af115801561033b573d6000803e3d6000fd5b505050506040513d601f19601f8201168201806040525081019061035f9190610a26565b50506103b7565b66038d7ea4c68000341461038d57604051631841b4e160e01b815260040160405180910390fd5b6103b77f00000000000000000000000000000000000000000000000000000000000000003461052c565b6103c46040830183610a48565b15905061049f576001600160a01b037f0000000000000000000000000000000000000000000000000000000000000000166323b872dd33306104096040870187610a48565b600081811061041a5761041a610a99565b6040805160e088901b6001600160e01b03191681526001600160a01b0396871660048201529490951660248501529093020160200135604482015260640190506020604051808303816000875af1158015610479573d6000803e3d6000fd5b505050506040513d601f19601f8201168201806040525081019061049d9190610a26565b505b82826040516020016104b2929190610b6f565b60405160208183030381529060405280519060200120905092915050565b6040805160018082528183019092526060916020808301908036833701905050905060008160008151811061050757610507610a99565b60200260200101906001600160a01b031690816001600160a01b031681525050919050565b804710156105815760405162461bcd60e51b815260206004820152601d60248201527f416464726573733a20696e73756666696369656e742062616c616e636500000060448201526064015b60405180910390fd5b6000826001600160a01b03168260405160006040518083038185875af1925050503d80600081146105ce576040519150601f19603f3d011682016040523d82523d6000602084013e6105d3565b606091505b505090508061064a5760405162461bcd60e51b815260206004820152603a60248201527f416464726573733a20756e61626c6520746f2073656e642076616c75652c207260448201527f6563697069656e74206d617920686176652072657665727465640000000000006064820152608401610578565b505050565b803567ffffffffffffffff8116811461066757600080fd5b919050565b634e487b7160e01b600052604160045260246000fd5b6040805190810167ffffffffffffffff811182821017156106a5576106a561066c565b60405290565b60405160a0810167ffffffffffffffff811182821017156106a5576106a561066c565b604051601f8201601f1916810167ffffffffffffffff811182821017156106f7576106f761066c565b604052919050565b600082601f83011261071057600080fd5b813567ffffffffffffffff81111561072a5761072a61066c565b61073d601f8201601f19166020016106ce565b81815284602083860101111561075257600080fd5b816020850160208301376000918101602001919091529392505050565b80356001600160a01b038116811461066757600080fd5b600082601f83011261079757600080fd5b8135602067ffffffffffffffff8211156107b3576107b361066c565b6107c1818360051b016106ce565b82815260069290921b840181019181810190868411156107e057600080fd5b8286015b8481101561082657604081890312156107fd5760008081fd5b610805610682565b61080e8261076f565b815281850135858201528352918301916040016107e4565b509695505050505050565b6000806040838503121561084457600080fd5b61084d8361064f565b9150602083013567ffffffffffffffff8082111561086a57600080fd5b9084019060a0828703121561087e57600080fd5b6108866106ab565b82358281111561089557600080fd5b6108a1888286016106ff565b8252506020830135828111156108b657600080fd5b6108c2888286016106ff565b6020830152506040830135828111156108da57600080fd5b6108e688828601610786565b6040830152506108f86060840161076f565b606082015260808301358281111561090f57600080fd5b61091b888286016106ff565b6080830152508093505050509250929050565b6000806040838503121561094157600080fd5b61094a8361064f565b9150602083013567ffffffffffffffff81111561096657600080fd5b830160a0818603121561097857600080fd5b809150509250929050565b60006020828403121561099557600080fd5b61099e8261064f565b9392505050565b6020808252825182820181905260009190848201906040850190845b818110156109e65783516001600160a01b0316835292840192918401916001016109c1565b50909695505050505050565b600060208284031215610a0457600080fd5b61099e8261076f565b600060208284031215610a1f57600080fd5b5051919050565b600060208284031215610a3857600080fd5b8151801515811461099e57600080fd5b6000808335601e19843603018112610a5f57600080fd5b83018035915067ffffffffffffffff821115610a7a57600080fd5b6020019150600681901b3603821315610a9257600080fd5b9250929050565b634e487b7160e01b600052603260045260246000fd5b6000808335601e19843603018112610ac657600080fd5b830160208101925035905067ffffffffffffffff811115610ae657600080fd5b803603821315610a9257600080fd5b81835281816020850137506000828201602090810191909152601f909101601f19169091010190565b8183526000602080850194508260005b85811015610b64576001600160a01b03610b478361076f565b168752818301358388015260409687019690910190600101610b2e565b509495945050505050565b600067ffffffffffffffff808516835260406020840152610b908485610aaf565b60a06040860152610ba560e086018284610af5565b915050610bb56020860186610aaf565b603f1980878503016060880152610bcd848385610af5565b935060408801359250601e19883603018312610be857600080fd5b60209288019283019235915084821115610c0157600080fd5b8160061b3603831315610c1357600080fd5b80878503016080880152610c28848385610b1e565b9450610c366060890161076f565b6001600160a01b03811660a08901529350610c546080890189610aaf565b94509250808786030160c08801525050610c6f838383610af5565b97965050505050505056fea264697066735822122037a3515a1f5283c64572c4c15259383a1e451470912befd48bcdf6708ef6954164736f6c63430008150033",
  "language": "Solidity",
  "compiler": "0.8.21+commit.d9974bed"
}