{
  "address": "0xB19C46e6Ca1BAbf5f0d60080A697511e73151bF1",
  "abi": [
    {
      "inputs": [
        {
          "internalType": "contract IMainnetBalancerMinter",
          "name": "_minter",
          "type": "address"
        },
        {
          "internalType": "address",
          "name": "_router",
          "type": "address"
        },
        {
          "internalType": "address",
          "name": "_link",
          "type": "address"
        }
      ],
      "stateMutability": "nonpayable",
      "type": "constructor"
    },
    {
      "anonymous": false,
      "inputs": [
        {
          "indexed": false,
          "internalType": "bytes32",
          "name": "messageId",
          "type": "bytes32"
        }
      ],
      "name": "CCIPTransferMessage",
      "type": "event"
    },
    {
      "anonymous": false,
      "inputs": [
        {
          "indexed": true,
          "internalType": "uint256",
          "name": "periodTime",
          "type": "uint256"
        },
        {
          "indexed": false,
          "internalType": "uint256",
          "name": "periodEmissions",
          "type": "uint256"
        }
      ],
      "name": "Checkpoint",
      "type": "event"
    },
    {
      "anonymous": false,
      "inputs": [
        {
          "indexed": false,
          "internalType": "bytes",
          "name": "extraArgs",
          "type": "bytes"
        }
      ],
      "name": "ExtraArgsUpdated",
      "type": "event"
    },
    {
      "anonymous": false,
      "inputs": [
        {
          "indexed": false,
          "internalType": "address",
          "name": "checkpointer",
          "type": "address"
        }
      ],
      "name": "NewCheckpointer",
      "type": "event"
    },
    {
      "anonymous": false,
      "inputs": [
        {
          "indexed": true,
          "internalType": "address",
          "name": "previousOwner",
          "type": "address"
        },
        {
          "indexed": true,
          "internalType": "address",
          "name": "newOwner",
          "type": "address"
        }
      ],
      "name": "OwnershipTransferStarted",
      "type": "event"
    },
    {
      "anonymous": false,
      "inputs": [
        {
          "indexed": true,
          "internalType": "address",
          "name": "previousOwner",
          "type": "address"
        },
        {
          "indexed": true,
          "internalType": "address",
          "name": "newOwner",
          "type": "address"
        }
      ],
      "name": "OwnershipTransferred",
      "type": "event"
    },
    {
      "anonymous": false,
      "inputs": [
        {
          "indexed": false,
          "internalType": "uint256",
          "name": "new_relative_weight_cap",
          "type": "uint256"
        }
      ],
      "name": "RelativeWeightCapChanged",
      "type": "event"
    },
    {
      "inputs": [],
      "name": "DESTINATION_CHAIN",
      "outputs": [
        {
          "internalType": "uint64",
          "name": "",
          "type": "uint64"
        }
      ],
      "stateMutability": "view",
      "type": "function"
    },
    {
      "inputs": [],
      "name": "LINK",
      "outputs": [
        {
          "internalType": "address",
          "name": "",
          "type": "address"
        }
      ],
      "stateMutability": "view",
      "type": "function"
    },
    {
      "inputs": [],
      "name": "MAX_RELATIVE_WEIGHT_CAP",
      "outputs": [
        {
          "internalType": "uint256",
          "name": "",
          "type": "uint256"
        }
      ],
      "stateMutability": "view",
      "type": "function"
    },
    {
      "inputs": [],
      "name": "ROUTER",
      "outputs": [
        {
          "internalType": "contract IRouterClient",
          "name": "",
          "type": "address"
        }
      ],
      "stateMutability": "view",
      "type": "function"
    },
    {
      "inputs": [],
      "name": "acceptOwnership",
      "outputs": [],
      "stateMutability": "nonpayable",
      "type": "function"
    },
    {
      "inputs": [
        {
          "internalType": "uint256",
          "name": "_amount",
          "type": "uint256"
        },
        {
          "internalType": "enum ICCIPGauge.PayFeesIn",
          "name": "_payFeesIn",
          "type": "uint8"
        }
      ],
      "name": "buildCCIPMessage",
      "outputs": [
        {
          "components": [
            {
              "internalType": "bytes",
              "name": "receiver",
              "type": "bytes"
            },
            {
              "internalType": "bytes",
              "name": "data",
              "type": "bytes"
            },
            {
              "components": [
                {
                  "internalType": "address",
                  "name": "token",
                  "type": "address"
                },
                {
                  "internalType": "uint256",
                  "name": "amount",
                  "type": "uint256"
                }
              ],
              "internalType": "struct Client.EVMTokenAmount[]",
              "name": "tokenAmounts",
              "type": "tuple[]"
            },
            {
              "internalType": "address",
              "name": "feeToken",
              "type": "address"
            },
            {
              "internalType": "bytes",
              "name": "extraArgs",
              "type": "bytes"
            }
          ],
          "internalType": "struct Client.EVM2AnyMessage",
          "name": "evm2AnyMessage",
          "type": "tuple"
        }
      ],
      "stateMutability": "view",
      "type": "function"
    },
    {
      "inputs": [
        {
          "components": [
            {
              "internalType": "bytes",
              "name": "receiver",
              "type": "bytes"
            },
            {
              "internalType": "bytes",
              "name": "data",
              "type": "bytes"
            },
            {
              "components": [
                {
                  "internalType": "address",
                  "name": "token",
                  "type": "address"
                },
                {
                  "internalType": "uint256",
                  "name": "amount",
                  "type": "uint256"
                }
              ],
              "internalType": "struct Client.EVMTokenAmount[]",
              "name": "tokenAmounts",
              "type": "tuple[]"
            },
            {
              "internalType": "address",
              "name": "feeToken",
              "type": "address"
            },
            {
              "internalType": "bytes",
              "name": "extraArgs",
              "type": "bytes"
            }
          ],
          "internalType": "struct Client.EVM2AnyMessage",
          "name": "_message",
          "type": "tuple"
        }
      ],
      "name": "calculateFee",
      "outputs": [
        {
          "internalType": "uint256",
          "name": "fee",
          "type": "uint256"
        }
      ],
      "stateMutability": "view",
      "type": "function"
    },
    {
      "inputs": [],
      "name": "checkpoint",
      "outputs": [
        {
          "internalType": "bool",
          "name": "",
          "type": "bool"
        }
      ],
      "stateMutability": "payable",
      "type": "function"
    },
    {
      "inputs": [],
      "name": "extraArgs",
      "outputs": [
        {
          "internalType": "bytes",
          "name": "",
          "type": "bytes"
        }
      ],
      "stateMutability": "view",
      "type": "function"
    },
    {
      "inputs": [
        {
          "internalType": "uint256",
          "name": "time",
          "type": "uint256"
        }
      ],
      "name": "getCappedRelativeWeight",
      "outputs": [
        {
          "internalType": "uint256",
          "name": "",
          "type": "uint256"
        }
      ],
      "stateMutability": "view",
      "type": "function"
    },
    {
      "inputs": [],
      "name": "getCheckpointer",
      "outputs": [
        {
          "internalType": "address",
          "name": "",
          "type": "address"
        }
      ],
      "stateMutability": "view",
      "type": "function"
    },
    {
      "inputs": [],
      "name": "getRecipient",
      "outputs": [
        {
          "internalType": "address",
          "name": "",
          "type": "address"
        }
      ],
      "stateMutability": "view",
      "type": "function"
    },
    {
      "inputs": [],
      "name": "getRelativeWeightCap",
      "outputs": [
        {
          "internalType": "uint256",
          "name": "",
          "type": "uint256"
        }
      ],
      "stateMutability": "view",
      "type": "function"
    },
    {
      "inputs": [
        {
          "internalType": "address",
          "name": "_recepient",
          "type": "address"
        },
        {
          "internalType": "uint256",
          "name": "_relativeWeightCap",
          "type": "uint256"
        },
        {
          "internalType": "address",
          "name": "_checkpointer",
          "type": "address"
        }
      ],
      "name": "initialize",
      "outputs": [],
      "stateMutability": "nonpayable",
      "type": "function"
    },
    {
      "inputs": [
        {
          "internalType": "address",
          "name": "user",
          "type": "address"
        }
      ],
      "name": "integrate_fraction",
      "outputs": [
        {
          "internalType": "uint256",
          "name": "",
          "type": "uint256"
        }
      ],
      "stateMutability": "view",
      "type": "function"
    },
    {
      "inputs": [],
      "name": "is_killed",
      "outputs": [
        {
          "internalType": "bool",
          "name": "",
          "type": "bool"
        }
      ],
      "stateMutability": "view",
      "type": "function"
    },
    {
      "inputs": [],
      "name": "killGauge",
      "outputs": [],
      "stateMutability": "nonpayable",
      "type": "function"
    },
    {
      "inputs": [],
      "name": "owner",
      "outputs": [
        {
          "internalType": "address",
          "name": "",
          "type": "address"
        }
      ],
      "stateMutability": "view",
      "type": "function"
    },
    {
      "inputs": [],
      "name": "pendingOwner",
      "outputs": [
        {
          "internalType": "address",
          "name": "",
          "type": "address"
        }
      ],
      "stateMutability": "view",
      "type": "function"
    },
    {
      "inputs": [],
      "name": "renounceOwnership",
      "outputs": [],
      "stateMutability": "nonpayable",
      "type": "function"
    },
    {
      "inputs": [
        {
          "internalType": "address",
          "name": "newCheckpointer",
          "type": "address"
        }
      ],
      "name": "setCheckpointer",
      "outputs": [],
      "stateMutability": "nonpayable",
      "type": "function"
    },
    {
      "inputs": [
        {
          "internalType": "bytes",
          "name": "_extraArgs",
          "type": "bytes"
        }
      ],
      "name": "setExtraArgs",
      "outputs": [],
      "stateMutability": "nonpayable",
      "type": "function"
    },
    {
      "inputs": [
        {
          "internalType": "uint256",
          "name": "relativeWeightCap",
          "type": "uint256"
        }
      ],
      "name": "setRelativeWeightCap",
      "outputs": [],
      "stateMutability": "nonpayable",
      "type": "function"
    },
    {
      "inputs": [
        {
          "internalType": "address",
          "name": "newOwner",
          "type": "address"
        }
      ],
      "name": "transferOwnership",
      "outputs": [],
      "stateMutability": "nonpayable",
      "type": "function"
    },
    {
      "inputs": [],
      "name": "unkillGauge",
      "outputs": [],
      "stateMutability": "nonpayable",
      "type": "function"
    },
    {
      "inputs": [
        {
          "internalType": "address",
          "name": "",
          "type": "address"
        }
      ],
      "name": "user_checkpoint",
      "outputs": [
        {
          "internalType": "bool",
          "name": "",
          "type": "bool"
        }
      ],
      "stateMutability": "pure",
      "type": "function"
    }
  ],
  "bytecode": "0x6101c06040523480156200001257600080fd5b506040516200263b3803806200263b8339810160408190526200003591620003ab565b60016000819055839083908390836200004e3362000325565b6000816001600160a01b031663e6dec36f6040518163ffffffff1660e01b8152600401602060405180830381865afa1580156200008f573d6000803e3d6000fd5b505050506040513d601f19601f82011682018060405250810190620000b59190620003ff565b90506000816001600160a01b031663c00396996040518163ffffffff1660e01b8152600401602060405180830381865afa158015620000f8573d6000803e3d6000fd5b505050506040513d601f19601f820116820180604052508101906200011e9190620003ff565b90506000836001600160a01b03166358de9ade6040518163ffffffff1660e01b8152600401602060405180830381865afa15801562000161573d6000803e3d6000fd5b505050506040513d601f19601f82011682018060405250810190620001879190620003ff565b6001600160a01b0380841660805284811660a081905286821660c05290821660e05260408051635c3dab0b60e11b81529051929350909163b87b5616916004808201926020929091908290030181865afa158015620001ea573d6000803e3d6000fd5b505050506040513d601f19601f8201168201806040525081019062000210919062000426565b6101008181525050826001600160a01b03166321609bbf6040518163ffffffff1660e01b8152600401602060405180830381865afa15801562000257573d6000803e3d6000fd5b505050506040513d601f19601f820116820180604052508101906200027d919062000426565b6101208181525050826001600160a01b0316637efad8e06040518163ffffffff1660e01b8152600401602060405180830381865afa158015620002c4573d6000803e3d6000fd5b505050506040513d601f19601f82011682018060405250810190620002ea919062000426565b61014052505060001960045550506001600160a01b03928316610160529116610180526001600160401b03166101a052506200044092505050565b600280546001600160a01b0319169055620003408162000343565b50565b600180546001600160a01b038381166001600160a01b0319831681179093556040519116919082907f8be0079c531659141344cd1fd0a4f28419497f9722a3daafe3b4186f6b6457e090600090a35050565b6001600160a01b03811681146200034057600080fd5b600080600060608486031215620003c157600080fd5b8351620003ce8162000395565b6020850151909350620003e18162000395565b6040850151909250620003f48162000395565b809150509250925092565b6000602082840312156200041257600080fd5b81516200041f8162000395565b9392505050565b6000602082840312156200043957600080fd5b5051919050565b60805160a05160c05160e05161010051610120516101405161016051610180516101a05161211d6200051e600039600081816101eb01528181610d5101528181611287015261173e01526000818161027a01528181611002015261168a01526000818161030401528181610d240152818161117801528181611258015281816116580152611711015260006109b9015260006109950152600081816108d30152610a3e0152600081816105c4015261085701526000610b3e0152600081816113a40152611497015260008181610f3401526111a7015261211d6000f3fe6080604052600436106101815760003560e01c806379ba5097116100d1578063c2c4c5c11161008a578063e0d94af911610064578063e0d94af914610489578063e2c431db146104a9578063e30c3978146104c7578063f2fde38b146104e557600080fd5b8063c2c4c5c11461044c578063c350a1b514610454578063d34fb2671461047457600080fd5b806379ba5097146103bb57806383f5c39b146103d05780638da5cb5b146103e55780639c868ac0146104035780639f8676711461041b578063ab8f09451461043757600080fd5b80631b88094d1161013e5780634b820093116101185780634b8200931461032657806356f41693146103575780635bbc56c114610379578063715018a6146103a657600080fd5b80631b88094d146102b457806326cc3731146102d257806332fe7b26146102f257600080fd5b8063094007071461018657806309fdb0d1146101b95780630d114ef8146101d957806310d3eb041461022657806314e956f5146102485780631b6b6d2314610268575b600080fd5b34801561019257600080fd5b506101a66101a136600461193a565b610505565b6040519081526020015b60405180910390f35b3480156101c557600080fd5b506101a66101d4366004611957565b61056c565b3480156101e557600080fd5b5061020d7f000000000000000000000000000000000000000000000000000000000000000081565b60405167ffffffffffffffff90911681526020016101b0565b34801561023257600080fd5b50610246610241366004611992565b610585565b005b34801561025457600080fd5b506101a6610263366004611992565b610599565b34801561027457600080fd5b5061029c7f000000000000000000000000000000000000000000000000000000000000000081565b6040516001600160a01b0390911681526020016101b0565b3480156102c057600080fd5b50600b546001600160a01b031661029c565b3480156102de57600080fd5b506102466102ed3660046119ab565b610637565b3480156102fe57600080fd5b5061029c7f000000000000000000000000000000000000000000000000000000000000000081565b34801561033257600080fd5b5061034761034136600461193a565b50600190565b60405190151581526020016101b0565b34801561036357600080fd5b5061036c61068a565b6040516101b09190611a63565b34801561038557600080fd5b50610399610394366004611a76565b610718565b6040516101b09190611b6d565b3480156103b257600080fd5b50610246610731565b3480156103c757600080fd5b50610246610745565b3480156103dc57600080fd5b506008546101a6565b3480156103f157600080fd5b506001546001600160a01b031661029c565b34801561040f57600080fd5b5060075460ff16610347565b34801561042757600080fd5b506101a6670de0b6b3a764000081565b34801561044357600080fd5b506102466107bc565b6103476107d3565b34801561046057600080fd5b5061024661046f366004611b80565b610bd4565b34801561048057600080fd5b50610246610c74565b34801561049557600080fd5b506102466104a436600461193a565b610c88565b3480156104b557600080fd5b506009546001600160a01b031661029c565b3480156104d357600080fd5b506002546001600160a01b031661029c565b3480156104f157600080fd5b5061024661050036600461193a565b610c99565b60006001600160a01b03821630146105645760405162461bcd60e51b815260206004820152601e60248201527f47617567652063616e206f6e6c79206d696e7420666f7220697473656c66000060448201526064015b60405180910390fd5b505060065490565b600061057f61057a83611d72565b610d0a565b92915050565b61058d610dbc565b61059681610e16565b50565b6040516334c1e32560e21b81523060048201526024810182905260009061057f906001600160a01b037f0000000000000000000000000000000000000000000000000000000000000000169063d3078c9490604401602060405180830381865afa15801561060b573d6000803e3d6000fd5b505050506040513d601f19601f8201168201806040525081019061062f9190611e3a565b600854610ec7565b61063f610dbc565b600a61064c828483611edb565b507fd7693fa685e87b95e7bd6dc60982f82ce2510fe103f2b5bfa0f842c392c4f060828260405161067e929190611f9c565b60405180910390a15050565b600a805461069790611e53565b80601f01602080910402602001604051908101604052809291908181526020018280546106c390611e53565b80156107105780601f106106e557610100808354040283529160200191610710565b820191906000526020600020905b8154815290600101906020018083116106f357829003601f168201915b505050505081565b6107206118dd565b61072a8383610edd565b9392505050565b610739610dbc565b61074360006110cf565b565b60025433906001600160a01b031681146107b35760405162461bcd60e51b815260206004820152602960248201527f4f776e61626c6532537465703a2063616c6c6572206973206e6f7420746865206044820152683732bb9037bbb732b960b91b606482015260840161055b565b610596816110cf565b6107c4610dbc565b6007805460ff19166001179055565b60006107dd6110e8565b6009546001600160a01b0316331461082b5760405162461bcd60e51b815260206004820152601160248201527027b7363c9031b432b1b5b837b4b73a32b960791b604482015260640161055b565b6004546000610838611141565b905080821015610bc15760405163615e523760e01b81523060048201527f00000000000000000000000000000000000000000000000000000000000000006001600160a01b03169063615e523790602401600060405180830381600087803b1580156108a357600080fd5b505af11580156108b7573d6000803e3d6000fd5b50506003549150600090506108cd600185611fe1565b935060007f00000000000000000000000000000000000000000000000000000000000000006005546108ff9190611fe1565b9050845b61090e8660ff611fe1565b811015610af357848111610af357600061092b8262093a80611ff4565b905060008061093983610599565b905082851015801561095657506109538362093a80611fe1565b85105b15610a6c576000610967848761200b565b9050670de0b6b3a76400008161097d8a85611ff4565b6109879190611ff4565b610991919061201e565b92507f00000000000000000000000000000000000000000000000000000000000000006109de7f00000000000000000000000000000000000000000000000000000000000000008a611ff4565b6109e8919061201e565b975060006109f98262093a8061200b565b9050670de0b6b3a764000081610a0f8b86611ff4565b610a199190611ff4565b610a23919061201e565b610a2d9085611fe1565b60038a905560058890559350610a637f000000000000000000000000000000000000000000000000000000000000000088611fe1565b96505050610a99565b670de0b6b3a7640000610a7f8883611ff4565b610a8c9062093a80611ff4565b610a96919061201e565b91505b827f21d81d5d656869e8ce3ba8d65526a2f0dbbcd3d36f5f9999eb7c84360e45eced83604051610acb91815260200190565b60405180910390a2610add8287611fe1565b955050505080610aec90612040565b9050610903565b50836004819055508160066000828254610b0d9190611fe1565b90915550508115801590610b24575060075460ff16155b15610bbd576040516335313c2160e11b81523060048201527f00000000000000000000000000000000000000000000000000000000000000006001600160a01b031690636a627842906024016020604051808303816000875af1158015610b8f573d6000803e3d6000fd5b505050506040513d601f19601f82011682018060405250810190610bb39190611e3a565b50610bbd82611161565b5050505b600192505050610bd16001600055565b90565b610bdd8261135a565b610be681611529565b610c50336001600160a01b0316638da5cb5b6040518163ffffffff1660e01b8152600401602060405180830381865afa158015610c27573d6000803e3d6000fd5b505050506040513d601f19601f82011682018060405250810190610c4b9190612059565b6110cf565b5050600b80546001600160a01b0319166001600160a01b0392909216919091179055565b610c7c610dbc565b6007805460ff19169055565b610c90610dbc565b61059681611529565b610ca1610dbc565b600280546001600160a01b0383166001600160a01b03199091168117909155610cd26001546001600160a01b031690565b6001600160a01b03167f38d16b8cac22d99fc7c124b9cd0de2d3fa1faef420bfe791d8c362d765e2270060405160405180910390a350565b6040516320487ded60e01b81526000906001600160a01b037f000000000000000000000000000000000000000000000000000000000000000016906320487ded90610d7b907f0000000000000000000000000000000000000000000000000000000000000000908690600401612076565b602060405180830381865afa158015610d98573d6000803e3d6000fd5b505050506040513d601f19601f8201168201806040525081019061057f9190611e3a565b6001546001600160a01b031633146107435760405162461bcd60e51b815260206004820181905260248201527f4f776e61626c653a2063616c6c6572206973206e6f7420746865206f776e6572604482015260640161055b565b670de0b6b3a7640000811115610e8b5760405162461bcd60e51b815260206004820152603460248201527f52656c61746976652077656967687420636170206578636565647320616c6c6f604482015273776564206162736f6c757465206d6178696d756d60601b606482015260840161055b565b60088190556040518181527f13e45870490f54cea50d245930d12102c72b502641ef6850d0b15a8c92decfb2906020015b60405180910390a150565b6000818310610ed6578161072a565b5090919050565b610ee56118dd565b604080516001808252818301909252600091816020015b6040805180820190915260008082526020820152815260200190600190039081610efc579050509050600060405180604001604052807f00000000000000000000000000000000000000000000000000000000000000006001600160a01b031681526020018681525090508082600081518110610f7b57610f7b612099565b60209081029190910101526040805160a08101909152600b546001600160a01b031660c08201528060e08101604051602081830303815290604052815260200160405180602001604052806000815250815260200183815260200160006001811115610fe957610fe96120af565b866001811115610ffb57610ffb6120af565b14611026577f0000000000000000000000000000000000000000000000000000000000000000611029565b60005b6001600160a01b03168152602001600a805461104490611e53565b80601f016020809104026020016040519081016040528092919081815260200182805461107090611e53565b80156110bd5780601f10611092576101008083540402835291602001916110bd565b820191906000526020600020905b8154815290600101906020018083116110a057829003601f168201915b50505050508152509250505092915050565b600280546001600160a01b0319169055610596816115d4565b60026000540361113a5760405162461bcd60e51b815260206004820152601f60248201527f5265656e7472616e637947756172643a207265656e7472616e742063616c6c00604482015260640161055b565b6002600055565b6000600161115262093a804261201e565b61115c919061200b565b905090565b60405163095ea7b360e01b81526001600160a01b037f000000000000000000000000000000000000000000000000000000000000000081166004830152602482018390527f0000000000000000000000000000000000000000000000000000000000000000169063095ea7b3906044016020604051808303816000875af11580156111f0573d6000803e3d6000fd5b505050506040513d601f19601f8201168201806040525081019061121491906120c5565b50600047801561131657600061122b846000610edd565b9050600061123882610d0a565b90508083106112fb576040516396f4e9f960e01b81526001600160a01b037f000000000000000000000000000000000000000000000000000000000000000016906396f4e9f99083906112b1907f0000000000000000000000000000000000000000000000000000000000000000908790600401612076565b60206040518083038185885af11580156112cf573d6000803e3d6000fd5b50505050506040513d601f19601f820116820180604052508101906112f49190611e3a565b9350611307565b61130485611626565b93505b61130f6117b3565b5050611322565b61131f83611626565b91505b6040518281527f11640279d2bfea2707c549aed7ae3af60fc4367b17ae67764f856612121b5fda9060200160405180910390a1505050565b600454156113a05760405162461bcd60e51b8152602060048201526013602482015272105b1c9958591e481a5b9a5d1a585b1a5e9959606a1b604482015260640161055b565b60007f00000000000000000000000000000000000000000000000000000000000000006001600160a01b0316632c4e722e6040518163ffffffff1660e01b8152600401602060405180830381865afa158015611400573d6000803e3d6000fd5b505050506040513d601f19601f820116820180604052508101906114249190611e3a565b9050806000036114825760405162461bcd60e51b8152602060048201526024808201527f42616c616e636572546f6b656e41646d696e206e6f7420796574206163746976604482015263185d195960e21b606482015260840161055b565b600381905561148f611141565b6004819055507f00000000000000000000000000000000000000000000000000000000000000006001600160a01b031663a228bced6040518163ffffffff1660e01b81526004016020604051808303816000875af11580156114f5573d6000803e3d6000fd5b505050506040513d601f19601f820116820180604052508101906115199190611e3a565b60055561152582610e16565b5050565b6009546001600160a01b038083169116036115865760405162461bcd60e51b815260206004820152601d60248201527f436865636b706f696e7465722061646472657373207468652073616d65000000604482015260640161055b565b600980546001600160a01b0319166001600160a01b0383169081179091556040519081527f3190bf8b029b3c91959167cee9ebe5b851694eb747c7f6fc542bbf2da52dd35b90602001610ebc565b600180546001600160a01b038381166001600160a01b0319831681179093556040519116919082907f8be0079c531659141344cd1fd0a4f28419497f9722a3daafe3b4186f6b6457e090600090a35050565b600080611634836001610edd565b9050600061164182610d0a565b60405163095ea7b360e01b81526001600160a01b037f000000000000000000000000000000000000000000000000000000000000000081166004830152602482018390529192507f00000000000000000000000000000000000000000000000000000000000000009091169063095ea7b3906044016020604051808303816000875af11580156116d5573d6000803e3d6000fd5b505050506040513d601f19601f820116820180604052508101906116f991906120c5565b506040516396f4e9f960e01b81526001600160a01b037f000000000000000000000000000000000000000000000000000000000000000016906396f4e9f990611768907f0000000000000000000000000000000000000000000000000000000000000000908690600401612076565b6020604051808303816000875af1158015611787573d6000803e3d6000fd5b505050506040513d601f19601f820116820180604052508101906117ab9190611e3a565b949350505050565b4780156105965761059633828047101561180f5760405162461bcd60e51b815260206004820152601d60248201527f416464726573733a20696e73756666696369656e742062616c616e6365000000604482015260640161055b565b6000826001600160a01b03168260405160006040518083038185875af1925050503d806000811461185c576040519150601f19603f3d011682016040523d82523d6000602084013e611861565b606091505b50509050806118d85760405162461bcd60e51b815260206004820152603a60248201527f416464726573733a20756e61626c6520746f2073656e642076616c75652c207260448201527f6563697069656e74206d61792068617665207265766572746564000000000000606482015260840161055b565b505050565b6040518060a0016040528060608152602001606081526020016060815260200160006001600160a01b03168152602001606081525090565b6001600160a01b038116811461059657600080fd5b803561193581611915565b919050565b60006020828403121561194c57600080fd5b813561072a81611915565b60006020828403121561196957600080fd5b813567ffffffffffffffff81111561198057600080fd5b820160a0818503121561072a57600080fd5b6000602082840312156119a457600080fd5b5035919050565b600080602083850312156119be57600080fd5b823567ffffffffffffffff808211156119d657600080fd5b818501915085601f8301126119ea57600080fd5b8135818111156119f957600080fd5b866020828501011115611a0b57600080fd5b60209290920196919550909350505050565b6000815180845260005b81811015611a4357602081850181015186830182015201611a27565b506000602082860101526020601f19601f83011685010191505092915050565b60208152600061072a6020830184611a1d565b60008060408385031215611a8957600080fd5b82359150602083013560028110611a9f57600080fd5b809150509250929050565b6000815160a08452611abf60a0850182611a1d565b905060208084015185830382870152611ad88382611a1d565b60408681015188830389830152805180845290850195509092506000918401905b80831015611b2b57855180516001600160a01b0316835285015185830152948401946001929092019190830190611af9565b5060608701519450611b4860608901866001600160a01b03169052565b608087015194508781036080890152611b618186611a1d565b98975050505050505050565b60208152600061072a6020830184611aaa565b600080600060608486031215611b9557600080fd5b8335611ba081611915565b9250602084013591506040840135611bb781611915565b809150509250925092565b634e487b7160e01b600052604160045260246000fd5b6040805190810167ffffffffffffffff81118282101715611bfb57611bfb611bc2565b60405290565b60405160a0810167ffffffffffffffff81118282101715611bfb57611bfb611bc2565b604051601f8201601f1916810167ffffffffffffffff81118282101715611c4d57611c4d611bc2565b604052919050565b600082601f830112611c6657600080fd5b813567ffffffffffffffff811115611c8057611c80611bc2565b611c93601f8201601f1916602001611c24565b818152846020838601011115611ca857600080fd5b816020850160208301376000918101602001919091529392505050565b600082601f830112611cd657600080fd5b8135602067ffffffffffffffff821115611cf257611cf2611bc2565b611d00818360051b01611c24565b82815260069290921b84018101918181019086841115611d1f57600080fd5b8286015b84811015611d675760408189031215611d3c5760008081fd5b611d44611bd8565b8135611d4f81611915565b81528185013585820152835291830191604001611d23565b509695505050505050565b600060a08236031215611d8457600080fd5b611d8c611c01565b823567ffffffffffffffff80821115611da457600080fd5b611db036838701611c55565b83526020850135915080821115611dc657600080fd5b611dd236838701611c55565b60208401526040850135915080821115611deb57600080fd5b611df736838701611cc5565b6040840152611e086060860161192a565b60608401526080850135915080821115611e2157600080fd5b50611e2e36828601611c55565b60808301525092915050565b600060208284031215611e4c57600080fd5b5051919050565b600181811c90821680611e6757607f821691505b602082108103611e8757634e487b7160e01b600052602260045260246000fd5b50919050565b601f8211156118d857600081815260208120601f850160051c81016020861015611eb45750805b601f850160051c820191505b81811015611ed357828155600101611ec0565b505050505050565b67ffffffffffffffff831115611ef357611ef3611bc2565b611f0783611f018354611e53565b83611e8d565b6000601f841160018114611f3b5760008515611f235750838201355b600019600387901b1c1916600186901b178355611f95565b600083815260209020601f19861690835b82811015611f6c5786850135825560209485019460019092019101611f4c565b5086821015611f895760001960f88860031b161c19848701351681555b505060018560011b0183555b5050505050565b60208152816020820152818360408301376000818301604090810191909152601f909201601f19160101919050565b634e487b7160e01b600052601160045260246000fd5b8082018082111561057f5761057f611fcb565b808202811582820484141761057f5761057f611fcb565b8181038181111561057f5761057f611fcb565b60008261203b57634e487b7160e01b600052601260045260246000fd5b500490565b60006001820161205257612052611fcb565b5060010190565b60006020828403121561206b57600080fd5b815161072a81611915565b67ffffffffffffffff831681526040602082015260006117ab6040830184611aaa565b634e487b7160e01b600052603260045260246000fd5b634e487b7160e01b600052602160045260246000fd5b6000602082840312156120d757600080fd5b8151801515811461072a57600080fdfea264697066735822122089b1bca1e3d492187ed31d56e8e6bc6bb18fbbfc6a3938e5e20a4028edbd602d64736f6c63430008150033",
  "language": "Solidity",
  "compiler": "0.8.21+commit.d9974bed"
}