{
  "address": "0xad525F341368AA80093672278234ad364EFcAf0A",
  "abi": [
    {
      "inputs": [
        {
          "internalType": "address",
          "name": "_checkpointer",
          "type": "address"
        },
        {
          "internalType": "address",
          "name": "_gaugeImplementation",
          "type": "address"
        }
      ],
      "stateMutability": "nonpayable",
      "type": "constructor"
    },
    {
      "anonymous": false,
      "inputs": [
        {
          "indexed": true,
          "internalType": "address",
          "name": "gauge",
          "type": "address"
        }
      ],
      "name": "GaugeCreated",
      "type": "event"
    },
    {
      "anonymous": false,
      "inputs": [
        {
          "indexed": true,
          "internalType": "address",
          "name": "previousOwner",
          "type": "address"
        },
        {
          "indexed": true,
          "internalType": "address",
          "name": "newOwner",
          "type": "address"
        }
      ],
      "name": "OwnershipTransferStarted",
      "type": "event"
    },
    {
      "anonymous": false,
      "inputs": [
        {
          "indexed": true,
          "internalType": "address",
          "name": "previousOwner",
          "type": "address"
        },
        {
          "indexed": true,
          "internalType": "address",
          "name": "newOwner",
          "type": "address"
        }
      ],
      "name": "OwnershipTransferred",
      "type": "event"
    },
    {
      "inputs": [],
      "name": "acceptOwnership",
      "outputs": [],
      "stateMutability": "nonpayable",
      "type": "function"
    },
    {
      "inputs": [],
      "name": "checkpointer",
      "outputs": [
        {
          "internalType": "address",
          "name": "",
          "type": "address"
        }
      ],
      "stateMutability": "view",
      "type": "function"
    },
    {
      "inputs": [
        {
          "internalType": "address",
          "name": "recipient",
          "type": "address"
        },
        {
          "internalType": "uint256",
          "name": "relativeWeightCap",
          "type": "uint256"
        }
      ],
      "name": "create",
      "outputs": [
        {
          "internalType": "address",
          "name": "",
          "type": "address"
        }
      ],
      "stateMutability": "nonpayable",
      "type": "function"
    },
    {
      "inputs": [],
      "name": "getGaugeImplementation",
      "outputs": [
        {
          "internalType": "address",
          "name": "",
          "type": "address"
        }
      ],
      "stateMutability": "view",
      "type": "function"
    },
    {
      "inputs": [
        {
          "internalType": "address",
          "name": "gauge",
          "type": "address"
        }
      ],
      "name": "isGaugeFromFactory",
      "outputs": [
        {
          "internalType": "bool",
          "name": "",
          "type": "bool"
        }
      ],
      "stateMutability": "view",
      "type": "function"
    },
    {
      "inputs": [],
      "name": "owner",
      "outputs": [
        {
          "internalType": "address",
          "name": "",
          "type": "address"
        }
      ],
      "stateMutability": "view",
      "type": "function"
    },
    {
      "inputs": [],
      "name": "pendingOwner",
      "outputs": [
        {
          "internalType": "address",
          "name": "",
          "type": "address"
        }
      ],
      "stateMutability": "view",
      "type": "function"
    },
    {
      "inputs": [],
      "name": "renounceOwnership",
      "outputs": [],
      "stateMutability": "nonpayable",
      "type": "function"
    },
    {
      "inputs": [
        {
          "internalType": "address",
          "name": "newOwner",
          "type": "address"
        }
      ],
      "name": "transferOwnership",
      "outputs": [],
      "stateMutability": "nonpayable",
      "type": "function"
    }
  ],
  "bytecode": "0x608060405234801561001057600080fd5b506040516106af3803806106af83398101604081905261002f9161010e565b600080546001600160a01b0319166001600160a01b038316179055818161005b6100563390565b610084565b50600480546001600160a01b0319166001600160a01b0392909216919091179055506101419050565b600380546001600160a01b031916905561009d816100a0565b50565b600280546001600160a01b038381166001600160a01b0319831681179093556040519116919082907f8be0079c531659141344cd1fd0a4f28419497f9722a3daafe3b4186f6b6457e090600090a35050565b80516001600160a01b038116811461010957600080fd5b919050565b6000806040838503121561012157600080fd5b61012a836100f2565b9150610138602084016100f2565b90509250929050565b61055f806101506000396000f3fe608060405234801561001057600080fd5b50600436106100935760003560e01c80638da5cb5b116100665780638da5cb5b146100eb578063ce3cc8bd146100fc578063e30c397814610138578063f2fde38b14610149578063ff441dda1461015c57600080fd5b80630ecaea731461009857806339312dee146100c8578063715018a6146100d957806379ba5097146100e3575b600080fd5b6100ab6100a63660046104dd565b61016f565b6040516001600160a01b0390911681526020015b60405180910390f35b6000546001600160a01b03166100ab565b6100e16101f5565b005b6100e1610209565b6002546001600160a01b03166100ab565b61012861010a366004610507565b6001600160a01b031660009081526001602052604090205460ff1690565b60405190151581526020016100bf565b6003546001600160a01b03166100ab565b6100e1610157366004610507565b610288565b6004546100ab906001600160a01b031681565b60008061017a6102f9565b6004805460405163c350a1b560e01b81526001600160a01b038881169382019390935260248101879052908216604482015291925082169063c350a1b590606401600060405180830381600087803b1580156101d557600080fd5b505af11580156101e9573d6000803e3d6000fd5b50929695505050505050565b6101fd610367565b61020760006103c1565b565b60035433906001600160a01b0316811461027c5760405162461bcd60e51b815260206004820152602960248201527f4f776e61626c6532537465703a2063616c6c6572206973206e6f7420746865206044820152683732bb9037bbb732b960b91b60648201526084015b60405180910390fd5b610285816103c1565b50565b610290610367565b600380546001600160a01b0383166001600160a01b031990911681179091556102c16002546001600160a01b031690565b6001600160a01b03167f38d16b8cac22d99fc7c124b9cd0de2d3fa1faef420bfe791d8c362d765e2270060405160405180910390a350565b600080548190610311906001600160a01b03166103da565b6001600160a01b0381166000818152600160208190526040808320805460ff19169092179091555192935090917faa98436d09d130af48de49867af8b723bbbebb0d737638b5fe8f1bf31bbb71c09190a2919050565b6002546001600160a01b031633146102075760405162461bcd60e51b815260206004820181905260248201527f4f776e61626c653a2063616c6c6572206973206e6f7420746865206f776e65726044820152606401610273565b600380546001600160a01b031916905561028581610474565b6000763d602d80600a3d3981f3363d3d373d3d3d363d730000008260601b60e81c176000526e5af43d82803e903d91602b57fd5bf38260781b17602052603760096000f090506001600160a01b03811661046f5760405162461bcd60e51b8152602060048201526016602482015275115490cc4c4d8dce8818dc99585d194819985a5b195960521b6044820152606401610273565b919050565b600280546001600160a01b038381166001600160a01b0319831681179093556040519116919082907f8be0079c531659141344cd1fd0a4f28419497f9722a3daafe3b4186f6b6457e090600090a35050565b80356001600160a01b038116811461046f57600080fd5b600080604083850312156104f057600080fd5b6104f9836104c6565b946020939093013593505050565b60006020828403121561051957600080fd5b610522826104c6565b939250505056fea264697066735822122097770bb28d272393c896da61088c80c4bc15cf4ec3a4d202b0187338d0446d6464736f6c63430008150033",
  "language": "Solidity",
  "compiler": "0.8.21+commit.d9974bed"
}