{
  "address": "0x5a040892094293A052Db6feCbC781d26fc29CceB",
  "abi": [
    {
      "inputs": [
        {
          "internalType": "contract IGaugeController",
          "name": "gaugeController",
          "type": "address"
        }
      ],
      "stateMutability": "nonpayable",
      "type": "constructor"
    },
    {
      "anonymous": false,
      "inputs": [
        {
          "indexed": true,
          "internalType": "string",
          "name": "indexedGaugeType",
          "type": "string"
        },
        {
          "indexed": false,
          "internalType": "string",
          "name": "gaugeType",
          "type": "string"
        },
        {
          "indexed": false,
          "internalType": "contract ILiquidityGaugeFactory",
          "name": "gaugeFactory",
          "type": "address"
        }
      ],
      "name": "GaugeFactorySet",
      "type": "event"
    },
    {
      "anonymous": false,
      "inputs": [
        {
          "indexed": true,
          "internalType": "string",
          "name": "indexedGaugeType",
          "type": "string"
        },
        {
          "indexed": false,
          "internalType": "string",
          "name": "gaugeType",
          "type": "string"
        }
      ],
      "name": "GaugeTypeAdded",
      "type": "event"
    },
    {
      "anonymous": false,
      "inputs": [
        {
          "indexed": true,
          "internalType": "address",
          "name": "previousOwner",
          "type": "address"
        },
        {
          "indexed": true,
          "internalType": "address",
          "name": "newOwner",
          "type": "address"
        }
      ],
      "name": "OwnershipTransferStarted",
      "type": "event"
    },
    {
      "anonymous": false,
      "inputs": [
        {
          "indexed": true,
          "internalType": "address",
          "name": "previousOwner",
          "type": "address"
        },
        {
          "indexed": true,
          "internalType": "address",
          "name": "newOwner",
          "type": "address"
        }
      ],
      "name": "OwnershipTransferred",
      "type": "event"
    },
    {
      "inputs": [],
      "name": "acceptOwnership",
      "outputs": [],
      "stateMutability": "nonpayable",
      "type": "function"
    },
    {
      "inputs": [
        {
          "internalType": "address",
          "name": "gauge",
          "type": "address"
        },
        {
          "internalType": "string",
          "name": "gaugeType",
          "type": "string"
        }
      ],
      "name": "addGauge",
      "outputs": [],
      "stateMutability": "nonpayable",
      "type": "function"
    },
    {
      "inputs": [
        {
          "internalType": "string",
          "name": "gaugeType",
          "type": "string"
        }
      ],
      "name": "addGaugeType",
      "outputs": [],
      "stateMutability": "nonpayable",
      "type": "function"
    },
    {
      "inputs": [
        {
          "internalType": "string",
          "name": "gaugeType",
          "type": "string"
        }
      ],
      "name": "getFactoryForGaugeType",
      "outputs": [
        {
          "internalType": "contract ILiquidityGaugeFactory",
          "name": "",
          "type": "address"
        }
      ],
      "stateMutability": "view",
      "type": "function"
    },
    {
      "inputs": [],
      "name": "getGaugeController",
      "outputs": [
        {
          "internalType": "contract IGaugeController",
          "name": "",
          "type": "address"
        }
      ],
      "stateMutability": "view",
      "type": "function"
    },
    {
      "inputs": [
        {
          "internalType": "uint256",
          "name": "index",
          "type": "uint256"
        }
      ],
      "name": "getGaugeTypeAtIndex",
      "outputs": [
        {
          "internalType": "string",
          "name": "",
          "type": "string"
        }
      ],
      "stateMutability": "view",
      "type": "function"
    },
    {
      "inputs": [],
      "name": "getGaugeTypes",
      "outputs": [
        {
          "internalType": "string[]",
          "name": "",
          "type": "string[]"
        }
      ],
      "stateMutability": "view",
      "type": "function"
    },
    {
      "inputs": [],
      "name": "getGaugeTypesCount",
      "outputs": [
        {
          "internalType": "uint256",
          "name": "",
          "type": "uint256"
        }
      ],
      "stateMutability": "view",
      "type": "function"
    },
    {
      "inputs": [
        {
          "internalType": "address",
          "name": "gauge",
          "type": "address"
        },
        {
          "internalType": "string",
          "name": "gaugeType",
          "type": "string"
        }
      ],
      "name": "isGaugeFromValidFactory",
      "outputs": [
        {
          "internalType": "bool",
          "name": "",
          "type": "bool"
        }
      ],
      "stateMutability": "view",
      "type": "function"
    },
    {
      "inputs": [
        {
          "internalType": "string",
          "name": "gaugeType",
          "type": "string"
        }
      ],
      "name": "isValidGaugeType",
      "outputs": [
        {
          "internalType": "bool",
          "name": "",
          "type": "bool"
        }
      ],
      "stateMutability": "view",
      "type": "function"
    },
    {
      "inputs": [],
      "name": "owner",
      "outputs": [
        {
          "internalType": "address",
          "name": "",
          "type": "address"
        }
      ],
      "stateMutability": "view",
      "type": "function"
    },
    {
      "inputs": [],
      "name": "pendingOwner",
      "outputs": [
        {
          "internalType": "address",
          "name": "",
          "type": "address"
        }
      ],
      "stateMutability": "view",
      "type": "function"
    },
    {
      "inputs": [],
      "name": "renounceOwnership",
      "outputs": [],
      "stateMutability": "nonpayable",
      "type": "function"
    },
    {
      "inputs": [
        {
          "internalType": "contract ILiquidityGaugeFactory",
          "name": "factory",
          "type": "address"
        },
        {
          "internalType": "string",
          "name": "gaugeType",
          "type": "string"
        }
      ],
      "name": "setGaugeFactory",
      "outputs": [],
      "stateMutability": "nonpayable",
      "type": "function"
    },
    {
      "inputs": [
        {
          "internalType": "address",
          "name": "newOwner",
          "type": "address"
        }
      ],
      "name": "transferOwnership",
      "outputs": [],
      "stateMutability": "nonpayable",
      "type": "function"
    }
  ],
  "bytecode": "0x60a060405234801561001057600080fd5b5060405161115f38038061115f83398101604081905261002f916100ba565b6100383361004e565b60016002556001600160a01b03166080526100ea565b600180546001600160a01b03191690556100678161006a565b50565b600080546001600160a01b038381166001600160a01b0319831681178455604051919092169283917f8be0079c531659141344cd1fd0a4f28419497f9722a3daafe3b4186f6b6457e09190a35050565b6000602082840312156100cc57600080fd5b81516001600160a01b03811681146100e357600080fd5b9392505050565b60805161105361010c6000396000818161019b01526109f101526110536000f3fe608060405234801561001057600080fd5b50600436106100f55760003560e01c8063715018a611610097578063a0ade33e11610066578063a0ade33e14610204578063afcb1a8614610217578063e30c39781461022c578063f2fde38b1461023d57600080fd5b8063715018a6146101d257806379ba5097146101da5780638da5cb5b146101e257806396432aeb146101f357600080fd5b8063231856fa116100d3578063231856fa1461015b578063572cb6a51461016e57806358de9ade146101995780635bf71434146101bf57600080fd5b8063066edd7a146100fa57806308ceb0301461010f57806316e772bc14610138575b600080fd5b61010d610108366004610c15565b610250565b005b61012261011d366004610c65565b6103e1565b60405161012f9190610cce565b60405180910390f35b61014b610146366004610ce8565b610490565b604051901515815260200161012f565b61010d610169366004610ce8565b6104a1565b61018161017c366004610ce8565b6105dd565b6040516001600160a01b03909116815260200161012f565b7f0000000000000000000000000000000000000000000000000000000000000000610181565b61010d6101cd366004610c15565b610637565b61010d610674565b61010d610688565b6000546001600160a01b0316610181565b60035460405190815260200161012f565b61014b610212366004610c15565b610702565b61021f61073c565b60405161012f9190610d1d565b6001546001600160a01b0316610181565b61010d61024b366004610d7f565b610815565b610258610886565b80610262816108e0565b6102875760405162461bcd60e51b815260040161027e90610d9c565b60405180910390fd5b6001600160a01b0383161580610303575060405163ce3cc8bd60e01b8152600060048201526001600160a01b0384169063ce3cc8bd90602401602060405180830381865afa1580156102dd573d6000803e3d6000fd5b505050506040513d601f19601f820116820180604052508101906103019190610dc8565b155b61034f5760405162461bcd60e51b815260206004820152601e60248201527f496e76616c696420666163746f727920696d706c656d656e746174696f6e0000604482015260640161027e565b826004836040516103609190610dea565b90815260405190819003602001812080546001600160a01b03939093166001600160a01b03199093169290921790915561039b908390610dea565b60405180910390207f46b04b7db9f5602bff429ad4ca486bf7ce9ef39d52716794e092c44d68db286783856040516103d4929190610e06565b60405180910390a2505050565b6060600382815481106103f6576103f6610e30565b90600052602060002001805461040b90610e46565b80601f016020809104026020016040519081016040528092919081815260200182805461043790610e46565b80156104845780601f1061045957610100808354040283529160200191610484565b820191906000526020600020905b81548152906001019060200180831161046757829003601f168201915b50505050509050919050565b600061049b826108e0565b92915050565b6104a9610886565b60008151116104fa5760405162461bcd60e51b815260206004820152601a60248201527f476175676520747970652063616e6e6f7420626520656d707479000000000000604482015260640161027e565b610503816108e0565b156105505760405162461bcd60e51b815260206004820152601860248201527f4761756765207479706520616c72656164792061646465640000000000000000604482015260640161027e565b600380546001810182556000919091527fc2575a0e9e593c00f959f8c92f12db2869c3395a3b0502d05e2516446f71f85b0161058c8282610ec0565b508060405161059b9190610dea565b60405180910390207fb6691d9563ae43400fbc0d74ed71ab5fa74200ebcf1c8a2b5c9a0a67fd649be0826040516105d29190610cce565b60405180910390a250565b6000816105e9816108e0565b6106055760405162461bcd60e51b815260040161027e90610d9c565b6004836040516106159190610dea565b908152604051908190036020019020546001600160a01b031691505b50919050565b61063f610886565b80610649816108e0565b6106655760405162461bcd60e51b815260040161027e90610d9c565b61066f8383610986565b505050565b61067c610886565b6106866000610a51565b565b60015433906001600160a01b031681146106f65760405162461bcd60e51b815260206004820152602960248201527f4f776e61626c6532537465703a2063616c6c6572206973206e6f7420746865206044820152683732bb9037bbb732b960b91b606482015260840161027e565b6106ff81610a51565b50565b60008161070e816108e0565b61072a5760405162461bcd60e51b815260040161027e90610d9c565b6107348484610a6a565b949350505050565b60606003805480602002602001604051908101604052809291908181526020016000905b8282101561080c57838290600052602060002001805461077f90610e46565b80601f01602080910402602001604051908101604052809291908181526020018280546107ab90610e46565b80156107f85780601f106107cd576101008083540402835291602001916107f8565b820191906000526020600020905b8154815290600101906020018083116107db57829003601f168201915b505050505081526020019060010190610760565b50505050905090565b61081d610886565b600180546001600160a01b0383166001600160a01b0319909116811790915561084e6000546001600160a01b031690565b6001600160a01b03167f38d16b8cac22d99fc7c124b9cd0de2d3fa1faef420bfe791d8c362d765e2270060405160405180910390a350565b6000546001600160a01b031633146106865760405162461bcd60e51b815260206004820181905260248201527f4f776e61626c653a2063616c6c6572206973206e6f7420746865206f776e6572604482015260640161027e565b600080826040516020016108f49190610dea565b60405160208183030381529060405280519060200120905060005b60035481101561097c576003818154811061092c5761092c610e30565b906000526020600020016040516020016109469190610f80565b60405160208183030381529060405280519060200120820361096c575060019392505050565b61097581610ff6565b905061090f565b5060009392505050565b6109908282610a6a565b6109cc5760405162461bcd60e51b815260206004820152600d60248201526c496e76616c696420676175676560981b604482015260640161027e565b604051623a04f960e81b81526001600160a01b038381166004830152600060248301527f00000000000000000000000000000000000000000000000000000000000000001690633a04f90090604401600060405180830381600087803b158015610a3557600080fd5b505af1158015610a49573d6000803e3d6000fd5b505050505050565b600180546001600160a01b03191690556106ff81610b0d565b600080600483604051610a7d9190610dea565b908152604051908190036020019020546001600160a01b03169050801561097c5760405163ce3cc8bd60e01b81526001600160a01b03858116600483015282169063ce3cc8bd90602401602060405180830381865afa158015610ae4573d6000803e3d6000fd5b505050506040513d601f19601f82011682018060405250810190610b089190610dc8565b610734565b600080546001600160a01b038381166001600160a01b0319831681178455604051919092169283917f8be0079c531659141344cd1fd0a4f28419497f9722a3daafe3b4186f6b6457e09190a35050565b6001600160a01b03811681146106ff57600080fd5b634e487b7160e01b600052604160045260246000fd5b600082601f830112610b9957600080fd5b813567ffffffffffffffff80821115610bb457610bb4610b72565b604051601f8301601f19908116603f01168101908282118183101715610bdc57610bdc610b72565b81604052838152866020858801011115610bf557600080fd5b836020870160208301376000602085830101528094505050505092915050565b60008060408385031215610c2857600080fd5b8235610c3381610b5d565b9150602083013567ffffffffffffffff811115610c4f57600080fd5b610c5b85828601610b88565b9150509250929050565b600060208284031215610c7757600080fd5b5035919050565b60005b83811015610c99578181015183820152602001610c81565b50506000910152565b60008151808452610cba816020860160208601610c7e565b601f01601f19169290920160200192915050565b602081526000610ce16020830184610ca2565b9392505050565b600060208284031215610cfa57600080fd5b813567ffffffffffffffff811115610d1157600080fd5b61073484828501610b88565b6000602080830181845280855180835260408601915060408160051b870101925083870160005b82811015610d7257603f19888603018452610d60858351610ca2565b94509285019290850190600101610d44565b5092979650505050505050565b600060208284031215610d9157600080fd5b8135610ce181610b5d565b602080825260129082015271496e76616c6964206761756765207479706560701b604082015260600190565b600060208284031215610dda57600080fd5b81518015158114610ce157600080fd5b60008251610dfc818460208701610c7e565b9190910192915050565b604081526000610e196040830185610ca2565b905060018060a01b03831660208301529392505050565b634e487b7160e01b600052603260045260246000fd5b600181811c90821680610e5a57607f821691505b60208210810361063157634e487b7160e01b600052602260045260246000fd5b601f82111561066f57600081815260208120601f850160051c81016020861015610ea15750805b601f850160051c820191505b81811015610a4957828155600101610ead565b815167ffffffffffffffff811115610eda57610eda610b72565b610eee81610ee88454610e46565b84610e7a565b602080601f831160018114610f235760008415610f0b5750858301515b600019600386901b1c1916600185901b178555610a49565b600085815260208120601f198616915b82811015610f5257888601518255948401946001909101908401610f33565b5085821015610f705787850151600019600388901b60f8161c191681555b5050505050600190811b01905550565b6000808354610f8e81610e46565b60018281168015610fa65760018114610fbb57610fea565b60ff1984168752821515830287019450610fea565b8760005260208060002060005b85811015610fe15781548a820152908401908201610fc8565b50505082870194505b50929695505050505050565b60006001820161101657634e487b7160e01b600052601160045260246000fd5b506001019056fea2646970667358221220f048bfe6e83086215caa3c311ff86b47dbe917fcbfe0d0685f3144526fcf435c64736f6c63430008150033",
  "language": "Solidity",
  "compiler": "0.8.21+commit.d9974bed"
}