{
  "address": "0x626e6A8D4EB33D77A8b631ABfE2E98dA69E3100e",
  "abi": [
    {
      "inputs": [
        {
          "internalType": "contract ISiloLiquidityGauge",
          "name": "gauge",
          "type": "address"
        }
      ],
      "stateMutability": "nonpayable",
      "type": "constructor"
    },
    {
      "anonymous": false,
      "inputs": [
        {
          "indexed": true,
          "internalType": "address",
          "name": "gauge",
          "type": "address"
        }
      ],
      "name": "GaugeCreated",
      "type": "event"
    },
    {
      "inputs": [
        {
          "internalType": "uint256",
          "name": "relativeWeightCap",
          "type": "uint256"
        },
        {
          "internalType": "address",
          "name": "hookReceiver",
          "type": "address"
        }
      ],
      "name": "create",
      "outputs": [
        {
          "internalType": "address",
          "name": "",
          "type": "address"
        }
      ],
      "stateMutability": "nonpayable",
      "type": "function"
    },
    {
      "inputs": [],
      "name": "getGaugeImplementation",
      "outputs": [
        {
          "internalType": "address",
          "name": "",
          "type": "address"
        }
      ],
      "stateMutability": "view",
      "type": "function"
    },
    {
      "inputs": [
        {
          "internalType": "address",
          "name": "gauge",
          "type": "address"
        }
      ],
      "name": "isGaugeFromFactory",
      "outputs": [
        {
          "internalType": "bool",
          "name": "",
          "type": "bool"
        }
      ],
      "stateMutability": "view",
      "type": "function"
    }
  ],
  "bytecode": "0x608060405234801561001057600080fd5b5060405161036d38038061036d83398101604081905261002f91610054565b600080546001600160a01b0319166001600160a01b0392909216919091179055610084565b60006020828403121561006657600080fd5b81516001600160a01b038116811461007d57600080fd5b9392505050565b6102da806100936000396000f3fe608060405234801561001057600080fd5b50600436106100415760003560e01c806339312dee14610046578063ce3cc8bd14610070578063f01fe692146100ac575b600080fd5b6000546001600160a01b03165b6040516001600160a01b0390911681526020015b60405180910390f35b61009c61007e366004610256565b6001600160a01b031660009081526001602052604090205460ff1690565b6040519015158152602001610067565b6100536100ba366004610278565b6000806100c5610133565b60405163da35a26f60e01b8152600481018690526001600160a01b0385811660248301529192509082169063da35a26f90604401600060405180830381600087803b15801561011357600080fd5b505af1158015610127573d6000803e3d6000fd5b50929695505050505050565b60008054819061014b906001600160a01b03166101a1565b6001600160a01b0381166000818152600160208190526040808320805460ff19169092179091555192935090917faa98436d09d130af48de49867af8b723bbbebb0d737638b5fe8f1bf31bbb71c09190a2919050565b6000763d602d80600a3d3981f3363d3d373d3d3d363d730000008260601b60e81c176000526e5af43d82803e903d91602b57fd5bf38260781b17602052603760096000f090506001600160a01b03811661023a5760405162461bcd60e51b8152602060048201526016602482015275115490cc4c4d8dce8818dc99585d194819985a5b195960521b604482015260640160405180910390fd5b919050565b80356001600160a01b038116811461023a57600080fd5b60006020828403121561026857600080fd5b6102718261023f565b9392505050565b6000806040838503121561028b57600080fd5b8235915061029b6020840161023f565b9050925092905056fea2646970667358221220e28e85d9a0b000def87fe67c43d06900d0201e426cd6fa0889ee81475bbb120c64736f6c63430008150033",
  "language": "Solidity",
  "compiler": "0.8.21+commit.d9974bed"
}