{
  "address": "0xDe73c3be8018beE324E87a570F4daaD9ff16E6B0",
  "abi": [
    {
      "inputs": [
        {
          "internalType": "contract IBalancerTokenAdmin",
          "name": "tokenAdmin",
          "type": "address"
        },
        {
          "internalType": "contract IGaugeController",
          "name": "gaugeController",
          "type": "address"
        }
      ],
      "stateMutability": "nonpayable",
      "type": "constructor"
    },
    {
      "inputs": [],
      "name": "InvalidShortString",
      "type": "error"
    },
    {
      "inputs": [],
      "name": "OverallFee",
      "type": "error"
    },
    {
      "inputs": [
        {
          "internalType": "string",
          "name": "str",
          "type": "string"
        }
      ],
      "name": "StringTooLong",
      "type": "error"
    },
    {
      "anonymous": false,
      "inputs": [],
      "name": "EIP712DomainChanged",
      "type": "event"
    },
    {
      "anonymous": false,
      "inputs": [
        {
          "indexed": true,
          "internalType": "address",
          "name": "gauge",
          "type": "address"
        },
        {
          "indexed": true,
          "internalType": "address",
          "name": "daoReceiver",
          "type": "address"
        },
        {
          "indexed": true,
          "internalType": "address",
          "name": "deployerReceiver",
          "type": "address"
        },
        {
          "indexed": false,
          "internalType": "uint256",
          "name": "mintedToDao",
          "type": "uint256"
        },
        {
          "indexed": false,
          "internalType": "uint256",
          "name": "mintedToDeployer",
          "type": "uint256"
        }
      ],
      "name": "FeeCollected",
      "type": "event"
    },
    {
      "anonymous": false,
      "inputs": [
        {
          "indexed": false,
          "internalType": "uint256",
          "name": "daoFee",
          "type": "uint256"
        },
        {
          "indexed": false,
          "internalType": "uint256",
          "name": "deployerFee",
          "type": "uint256"
        }
      ],
      "name": "FeesUpdate",
      "type": "event"
    },
    {
      "anonymous": false,
      "inputs": [
        {
          "indexed": true,
          "internalType": "address",
          "name": "recipient",
          "type": "address"
        },
        {
          "indexed": false,
          "internalType": "address",
          "name": "gauge",
          "type": "address"
        },
        {
          "indexed": false,
          "internalType": "uint256",
          "name": "minted",
          "type": "uint256"
        }
      ],
      "name": "Minted",
      "type": "event"
    },
    {
      "anonymous": false,
      "inputs": [
        {
          "indexed": true,
          "internalType": "address",
          "name": "recipient",
          "type": "address"
        },
        {
          "indexed": false,
          "internalType": "address",
          "name": "gauge",
          "type": "address"
        },
        {
          "indexed": false,
          "internalType": "uint256",
          "name": "minted",
          "type": "uint256"
        }
      ],
      "name": "MintedToUser",
      "type": "event"
    },
    {
      "anonymous": false,
      "inputs": [
        {
          "indexed": true,
          "internalType": "address",
          "name": "user",
          "type": "address"
        },
        {
          "indexed": true,
          "internalType": "address",
          "name": "minter",
          "type": "address"
        },
        {
          "indexed": false,
          "internalType": "bool",
          "name": "approval",
          "type": "bool"
        }
      ],
      "name": "MinterApprovalSet",
      "type": "event"
    },
    {
      "anonymous": false,
      "inputs": [
        {
          "indexed": true,
          "internalType": "address",
          "name": "previousOwner",
          "type": "address"
        },
        {
          "indexed": true,
          "internalType": "address",
          "name": "newOwner",
          "type": "address"
        }
      ],
      "name": "OwnershipTransferStarted",
      "type": "event"
    },
    {
      "anonymous": false,
      "inputs": [
        {
          "indexed": true,
          "internalType": "address",
          "name": "previousOwner",
          "type": "address"
        },
        {
          "indexed": true,
          "internalType": "address",
          "name": "newOwner",
          "type": "address"
        }
      ],
      "name": "OwnershipTransferred",
      "type": "event"
    },
    {
      "inputs": [],
      "name": "BPS_MAX",
      "outputs": [
        {
          "internalType": "uint256",
          "name": "",
          "type": "uint256"
        }
      ],
      "stateMutability": "view",
      "type": "function"
    },
    {
      "inputs": [],
      "name": "acceptOwnership",
      "outputs": [],
      "stateMutability": "nonpayable",
      "type": "function"
    },
    {
      "inputs": [
        {
          "internalType": "address",
          "name": "minter",
          "type": "address"
        },
        {
          "internalType": "address",
          "name": "user",
          "type": "address"
        }
      ],
      "name": "allowed_to_mint_for",
      "outputs": [
        {
          "internalType": "bool",
          "name": "",
          "type": "bool"
        }
      ],
      "stateMutability": "view",
      "type": "function"
    },
    {
      "inputs": [],
      "name": "daoFee",
      "outputs": [
        {
          "internalType": "uint128",
          "name": "",
          "type": "uint128"
        }
      ],
      "stateMutability": "view",
      "type": "function"
    },
    {
      "inputs": [],
      "name": "deployerFee",
      "outputs": [
        {
          "internalType": "uint128",
          "name": "",
          "type": "uint128"
        }
      ],
      "stateMutability": "view",
      "type": "function"
    },
    {
      "inputs": [],
      "name": "eip712Domain",
      "outputs": [
        {
          "internalType": "bytes1",
          "name": "fields",
          "type": "bytes1"
        },
        {
          "internalType": "string",
          "name": "name",
          "type": "string"
        },
        {
          "internalType": "string",
          "name": "version",
          "type": "string"
        },
        {
          "internalType": "uint256",
          "name": "chainId",
          "type": "uint256"
        },
        {
          "internalType": "address",
          "name": "verifyingContract",
          "type": "address"
        },
        {
          "internalType": "bytes32",
          "name": "salt",
          "type": "bytes32"
        },
        {
          "internalType": "uint256[]",
          "name": "extensions",
          "type": "uint256[]"
        }
      ],
      "stateMutability": "view",
      "type": "function"
    },
    {
      "inputs": [],
      "name": "getBalancerToken",
      "outputs": [
        {
          "internalType": "contract IERC20",
          "name": "",
          "type": "address"
        }
      ],
      "stateMutability": "view",
      "type": "function"
    },
    {
      "inputs": [],
      "name": "getBalancerTokenAdmin",
      "outputs": [
        {
          "internalType": "contract IBalancerTokenAdmin",
          "name": "",
          "type": "address"
        }
      ],
      "stateMutability": "view",
      "type": "function"
    },
    {
      "inputs": [],
      "name": "getDomainSeparator",
      "outputs": [
        {
          "internalType": "bytes32",
          "name": "",
          "type": "bytes32"
        }
      ],
      "stateMutability": "view",
      "type": "function"
    },
    {
      "inputs": [],
      "name": "getFees",
      "outputs": [
        {
          "internalType": "uint256",
          "name": "",
          "type": "uint256"
        },
        {
          "internalType": "uint256",
          "name": "",
          "type": "uint256"
        }
      ],
      "stateMutability": "view",
      "type": "function"
    },
    {
      "inputs": [],
      "name": "getGaugeController",
      "outputs": [
        {
          "internalType": "contract IGaugeController",
          "name": "",
          "type": "address"
        }
      ],
      "stateMutability": "view",
      "type": "function"
    },
    {
      "inputs": [
        {
          "internalType": "address",
          "name": "minter",
          "type": "address"
        },
        {
          "internalType": "address",
          "name": "user",
          "type": "address"
        }
      ],
      "name": "getMinterApproval",
      "outputs": [
        {
          "internalType": "bool",
          "name": "",
          "type": "bool"
        }
      ],
      "stateMutability": "view",
      "type": "function"
    },
    {
      "inputs": [
        {
          "internalType": "address",
          "name": "account",
          "type": "address"
        }
      ],
      "name": "getNextNonce",
      "outputs": [
        {
          "internalType": "uint256",
          "name": "",
          "type": "uint256"
        }
      ],
      "stateMutability": "view",
      "type": "function"
    },
    {
      "inputs": [
        {
          "internalType": "address",
          "name": "gauge",
          "type": "address"
        }
      ],
      "name": "mint",
      "outputs": [
        {
          "internalType": "uint256",
          "name": "",
          "type": "uint256"
        }
      ],
      "stateMutability": "nonpayable",
      "type": "function"
    },
    {
      "inputs": [
        {
          "internalType": "address",
          "name": "gauge",
          "type": "address"
        },
        {
          "internalType": "address",
          "name": "user",
          "type": "address"
        }
      ],
      "name": "mintFor",
      "outputs": [
        {
          "internalType": "uint256",
          "name": "",
          "type": "uint256"
        }
      ],
      "stateMutability": "nonpayable",
      "type": "function"
    },
    {
      "inputs": [
        {
          "internalType": "address[]",
          "name": "gauges",
          "type": "address[]"
        }
      ],
      "name": "mintMany",
      "outputs": [
        {
          "internalType": "uint256",
          "name": "",
          "type": "uint256"
        }
      ],
      "stateMutability": "nonpayable",
      "type": "function"
    },
    {
      "inputs": [
        {
          "internalType": "address[]",
          "name": "gauges",
          "type": "address[]"
        },
        {
          "internalType": "address",
          "name": "user",
          "type": "address"
        }
      ],
      "name": "mintManyFor",
      "outputs": [
        {
          "internalType": "uint256",
          "name": "",
          "type": "uint256"
        }
      ],
      "stateMutability": "nonpayable",
      "type": "function"
    },
    {
      "inputs": [
        {
          "internalType": "address",
          "name": "gauge",
          "type": "address"
        },
        {
          "internalType": "address",
          "name": "user",
          "type": "address"
        }
      ],
      "name": "mint_for",
      "outputs": [],
      "stateMutability": "nonpayable",
      "type": "function"
    },
    {
      "inputs": [
        {
          "internalType": "address[8]",
          "name": "gauges",
          "type": "address[8]"
        }
      ],
      "name": "mint_many",
      "outputs": [],
      "stateMutability": "nonpayable",
      "type": "function"
    },
    {
      "inputs": [
        {
          "internalType": "address",
          "name": "user",
          "type": "address"
        },
        {
          "internalType": "address",
          "name": "gauge",
          "type": "address"
        }
      ],
      "name": "minted",
      "outputs": [
        {
          "internalType": "uint256",
          "name": "",
          "type": "uint256"
        }
      ],
      "stateMutability": "view",
      "type": "function"
    },
    {
      "inputs": [
        {
          "internalType": "address",
          "name": "user",
          "type": "address"
        },
        {
          "internalType": "address",
          "name": "gauge",
          "type": "address"
        }
      ],
      "name": "mintedToUser",
      "outputs": [
        {
          "internalType": "uint256",
          "name": "",
          "type": "uint256"
        }
      ],
      "stateMutability": "view",
      "type": "function"
    },
    {
      "inputs": [],
      "name": "owner",
      "outputs": [
        {
          "internalType": "address",
          "name": "",
          "type": "address"
        }
      ],
      "stateMutability": "view",
      "type": "function"
    },
    {
      "inputs": [],
      "name": "pendingOwner",
      "outputs": [
        {
          "internalType": "address",
          "name": "",
          "type": "address"
        }
      ],
      "stateMutability": "view",
      "type": "function"
    },
    {
      "inputs": [],
      "name": "renounceOwnership",
      "outputs": [],
      "stateMutability": "nonpayable",
      "type": "function"
    },
    {
      "inputs": [
        {
          "internalType": "uint256",
          "name": "_daoFee",
          "type": "uint256"
        },
        {
          "internalType": "uint256",
          "name": "_deployerFee",
          "type": "uint256"
        }
      ],
      "name": "setFees",
      "outputs": [],
      "stateMutability": "nonpayable",
      "type": "function"
    },
    {
      "inputs": [
        {
          "internalType": "address",
          "name": "minter",
          "type": "address"
        },
        {
          "internalType": "bool",
          "name": "approval",
          "type": "bool"
        }
      ],
      "name": "setMinterApproval",
      "outputs": [],
      "stateMutability": "nonpayable",
      "type": "function"
    },
    {
      "inputs": [
        {
          "internalType": "address",
          "name": "minter",
          "type": "address"
        },
        {
          "internalType": "bool",
          "name": "approval",
          "type": "bool"
        },
        {
          "internalType": "address",
          "name": "user",
          "type": "address"
        },
        {
          "internalType": "uint256",
          "name": "deadline",
          "type": "uint256"
        },
        {
          "internalType": "uint8",
          "name": "v",
          "type": "uint8"
        },
        {
          "internalType": "bytes32",
          "name": "r",
          "type": "bytes32"
        },
        {
          "internalType": "bytes32",
          "name": "s",
          "type": "bytes32"
        }
      ],
      "name": "setMinterApprovalWithSignature",
      "outputs": [],
      "stateMutability": "nonpayable",
      "type": "function"
    },
    {
      "inputs": [
        {
          "internalType": "address",
          "name": "minter",
          "type": "address"
        }
      ],
      "name": "toggle_approve_mint",
      "outputs": [],
      "stateMutability": "nonpayable",
      "type": "function"
    },
    {
      "inputs": [
        {
          "internalType": "address",
          "name": "newOwner",
          "type": "address"
        }
      ],
      "name": "transferOwnership",
      "outputs": [],
      "stateMutability": "nonpayable",
      "type": "function"
    }
  ],
  "bytecode": "0x6101c06040523480156200001257600080fd5b506040516200208c3803806200208c8339810160408190526200003591620002d9565b816001600160a01b031663c00396996040518163ffffffff1660e01b8152600401602060405180830381865afa15801562000074573d6000803e3d6000fd5b505050506040513d601f19601f820116820180604052508101906200009a919062000318565b6040518060400160405280600b81526020016a29b4b6379026b4b73a32b960a91b815250604051806040016040528060018152602001603160f81b81525081816001600081905550620000f8600183620001ce60201b90919060201c565b6101205262000109816002620001ce565b61014052815160208084019190912060e052815190820120610100524660a0526200019760e05161010051604080517f8b73c3c69bb8fe3d512ecc4cf759cc79239f7b179b0ffacaa9a75d522b39400f60208201529081019290925260608201524660808201523060a082015260009060c00160405160208183030381529060405280519060200120905090565b60805250503060c052620001ab3362000207565b50506001600160a01b039081166101605291821661018052166101a05262000525565b6000602083511015620001ee57620001e68362000225565b905062000201565b81620001fb8482620003e4565b5060ff90505b92915050565b600580546001600160a01b0319169055620002228162000271565b50565b600080829050601f815111156200025c578260405163305a27a960e01b8152600401620002539190620004b0565b60405180910390fd5b8051620002698262000500565b179392505050565b600480546001600160a01b038381166001600160a01b0319831681179093556040519116919082907f8be0079c531659141344cd1fd0a4f28419497f9722a3daafe3b4186f6b6457e090600090a35050565b6001600160a01b03811681146200022257600080fd5b60008060408385031215620002ed57600080fd5b8251620002fa81620002c3565b60208401519092506200030d81620002c3565b809150509250929050565b6000602082840312156200032b57600080fd5b81516200033881620002c3565b9392505050565b634e487b7160e01b600052604160045260246000fd5b600181811c908216806200036a57607f821691505b6020821081036200038b57634e487b7160e01b600052602260045260246000fd5b50919050565b601f821115620003df57600081815260208120601f850160051c81016020861015620003ba5750805b601f850160051c820191505b81811015620003db57828155600101620003c6565b5050505b505050565b81516001600160401b038111156200040057620004006200033f565b620004188162000411845462000355565b8462000391565b602080601f831160018114620004505760008415620004375750858301515b600019600386901b1c1916600185901b178555620003db565b600085815260208120601f198616915b82811015620004815788860151825594840194600190910190840162000460565b5085821015620004a05787850151600019600388901b60f8161c191681555b5050505050600190811b01905550565b600060208083528351808285015260005b81811015620004df57858101830151858201604001528201620004c1565b506000604082860101526040601f19601f8301168501019250505092915050565b805160208083015191908110156200038b5760001960209190910360031b1b16919050565b60805160a05160c05160e05161010051610120516101405161016051610180516101a051611add620005af600039600081816102e40152610e770152600081816104b501526110c3015260006103f5015260006107c30152600061079801526000610e0201526000610dda01526000610d3501526000610d5f01526000610d890152611add6000f3fe608060405234801561001057600080fd5b50600436106101cf5760003560e01c806384b0196e11610104578063c6542794116100a2578063e30c397811610071578063e30c3978146104a2578063e6dec36f146104b3578063ed24911d146104d9578063f2fde38b146104e157600080fd5b8063c654279414610419578063d4adab401461042c578063db8d55f114610465578063dd289d601461048f57600080fd5b806390193b7c116100de57806390193b7c146103b7578063a099003314610273578063a51e1904146103e0578063c0039699146103f357600080fd5b806384b0196e146103525780638b752bb01461036d5780638da5cb5b146103a657600080fd5b80633eb6e846116101715780636a6278421161014b5780636a6278421461031c578063715018a61461032f5780637504a15d1461033757806379ba50971461034a57600080fd5b80633eb6e846146102bf578063457755cb146102c857806358de9ade146102e257600080fd5b80632957b839116101ad5780632957b8391461020f578063397ada211461023f5780633b9f7384146102605780633c543bc61461027357600080fd5b80630b78f9c0146101d45780630de54ba0146101e957806327f18ae3146101fc575b600080fd5b6101e76101e23660046115eb565b6104f4565b005b6101e76101f7366004611630565b61058c565b6101e761020a366004611669565b61059b565b600654610222906001600160801b031681565b6040516001600160801b0390911681526020015b60405180910390f35b61025261024d3660046116e3565b6105e5565b604051908152602001610236565b61025261026e366004611725565b61060c565b6102af610281366004611669565b6001600160a01b03918216600090815260096020908152604080832093909416825291909152205460ff1690565b6040519015158152602001610236565b610252610bb881565b60065461022290600160801b90046001600160801b031681565b7f00000000000000000000000000000000000000000000000000000000000000005b6040516001600160a01b039091168152602001610236565b61025261032a36600461177c565b610680565b6101e76106a5565b610252610345366004611669565b6106b9565b6101e7610710565b61035a61078a565b60405161023697969594939291906117df565b61025261037b366004611669565b6001600160a01b03918216600090815260076020908152604080832093909416825291909152205490565b6004546001600160a01b0316610304565b6102526103c536600461177c565b6001600160a01b031660009081526003602052604090205490565b6101e76103ee366004611875565b610813565b7f0000000000000000000000000000000000000000000000000000000000000000610304565b6101e76104273660046118a0565b6108a6565b61025261043a366004611669565b6001600160a01b03918216600090815260086020908152604080832093909416825291909152205490565b600654604080516001600160801b038084168252600160801b909304909216602083015201610236565b6101e761049d36600461177c565b610964565b6005546001600160a01b0316610304565b7f0000000000000000000000000000000000000000000000000000000000000000610304565b610252610997565b6101e76104ef36600461177c565b6109a6565b6104fc610a17565b610bb86105098284611936565b111561052857604051630658df5360e31b815260040160405180910390fd5b6001600160801b03828116600160801b838316810282811760068190556040805192861690941782529190910490921660208301527f55589a71b7512692e2b494ce9cccfd8df2c98f5321191acb273c05c37e7b53bd910160405180910390a15050565b610597823383610a71565b5050565b6105a3610ae1565b3360009081526009602090815260408083206001600160a01b038516845290915290205460ff16156105db576105d98282610b3a565b505b6105976001600055565b60006105ef610ae1565b6105fa838333610b52565b90506106066001600055565b92915050565b6000610616610ae1565b3360009081526009602090815260408083206001600160a01b038616845290915290205460ff166106625760405162461bcd60e51b815260040161065990611949565b60405180910390fd5b61066d848484610b52565b90506106796001600055565b9392505050565b600061068a610ae1565b6106948233610b3a565b90506106a06001600055565b919050565b6106ad610a17565b6106b76000610bbe565b565b60006106c3610ae1565b3360009081526009602090815260408083206001600160a01b038616845290915290205460ff166107065760405162461bcd60e51b815260040161065990611949565b6105fa8383610b3a565b60055433906001600160a01b0316811461077e5760405162461bcd60e51b815260206004820152602960248201527f4f776e61626c6532537465703a2063616c6c6572206973206e6f7420746865206044820152683732bb9037bbb732b960b91b6064820152608401610659565b61078781610bbe565b50565b6000606080828080836107be7f00000000000000000000000000000000000000000000000000000000000000006001610bd7565b6107e97f00000000000000000000000000000000000000000000000000000000000000006002610bd7565b60408051600080825260208201909252600f60f81b9b939a50919850469750309650945092509050565b61081b610ae1565b60005b600881101561089b57600082826008811061083b5761083b61198c565b60200201602081019061084e919061177c565b6001600160a01b03161461089b5761088a8282600881106108715761087161198c565b602002016020810190610884919061177c565b33610b3a565b50610894816119a2565b905061081e565b506107876001600055565b60007fc87351a089bbdc3b2b9299d2ce29f08fd982826b275b3642939a2f7fdd81538088886108ea896001600160a01b031660009081526003602052604090205490565b6040805160208101959095526001600160a01b039093169284019290925215156060830152608082015260a0810186905260c00160405160208183030381529060405280519060200120905061094f8682610946878787610c82565b886101f8610cc2565b61095a888789610a71565b5050505050505050565b6001600160a01b038116600090815260096020908152604080832033845290915290205461078790829060ff161561058c565b60006109a1610d28565b905090565b6109ae610a17565b600580546001600160a01b0383166001600160a01b031990911681179091556109df6004546001600160a01b031690565b6001600160a01b03167f38d16b8cac22d99fc7c124b9cd0de2d3fa1faef420bfe791d8c362d765e2270060405160405180910390a350565b6004546001600160a01b031633146106b75760405162461bcd60e51b815260206004820181905260248201527f4f776e61626c653a2063616c6c6572206973206e6f7420746865206f776e65726044820152606401610659565b6001600160a01b03838116600081815260096020908152604080832094871680845294825291829020805460ff191686151590811790915591519182529192917fa3ffb51320bbca4e61e7423e3c97dd7bd7e31b6ea7429eb26ef92780e84572a0910160405180910390a3505050565b600260005403610b335760405162461bcd60e51b815260206004820152601f60248201527f5265656e7472616e637947756172643a207265656e7472616e742063616c6c006044820152606401610659565b6002600055565b6000610b468383610e53565b90506106068282611097565b600082815b81811015610bab57610b99610b92878784818110610b7757610b7761198c565b9050602002016020810190610b8c919061177c565b86610e53565b8490611123565b9250610ba4816119a2565b9050610b57565b50610bb68383611097565b509392505050565b600580546001600160a01b03191690556107878161112f565b606060ff8314610bf157610bea83611181565b9050610606565b818054610bfd906119bb565b80601f0160208091040260200160405190810160405280929190818152602001828054610c29906119bb565b8015610c765780601f10610c4b57610100808354040283529160200191610c76565b820191906000526020600020905b815481529060010190602001808311610c5957829003601f168201915b50505050509050610606565b6040805160418082526080820190925260609160009190602082018180368337019050509050836020820152826040820152846060820153949350505050565b6000610ccd856111c0565b9050610ce3610cdd8783876111ed565b836112a5565b610cf2428410156101b86112a5565b6001600160a01b0386166000908152600360205260408120805460019290610d1b908490611936565b9091555050505050505050565b6000306001600160a01b037f000000000000000000000000000000000000000000000000000000000000000016148015610d8157507f000000000000000000000000000000000000000000000000000000000000000046145b15610dab57507f000000000000000000000000000000000000000000000000000000000000000090565b6109a1604080517f8b73c3c69bb8fe3d512ecc4cf759cc79239f7b179b0ffacaa9a75d522b39400f60208201527f0000000000000000000000000000000000000000000000000000000000000000918101919091527f000000000000000000000000000000000000000000000000000000000000000060608201524660808201523060a082015260009060c00160405160208183030381529060405280519060200120905090565b604051633f9095b760e01b81526001600160a01b03838116600483015260009182917f00000000000000000000000000000000000000000000000000000000000000001690633f9095b790602401602060405180830381865afa158015610ebe573d6000803e3d6000fd5b505050506040513d601f19601f82011682018060405250810190610ee291906119f5565b600f0b1215610f3e5760405162461bcd60e51b815260206004820152602260248201527f476175676520646f6573206e6f74206578697374206f6e20436f6e74726f6c6c60448201526132b960f11b6064820152608401610659565b604051634b82009360e01b81526001600160a01b038381166004830152841690634b820093906024016020604051808303816000875af1158015610f86573d6000803e3d6000fd5b505050506040513d601f19601f82011682018060405250810190610faa9190611a18565b50604051630940070760e01b81526001600160a01b03838116600483015260009190851690630940070790602401602060405180830381865afa158015610ff5573d6000803e3d6000fd5b505050506040513d601f19601f820116820180604052508101906110199190611a35565b6001600160a01b0380851660009081526007602090815260408083209389168352929052205490915061104d9082906112b3565b91508115611090576110608385836112bf565b826001600160a01b0316846001600160a01b031614611090576110838483611327565b9150611090838584611474565b5092915050565b8015610597576040516340c10f1960e01b81526001600160a01b038381166004830152602482018390527f000000000000000000000000000000000000000000000000000000000000000016906340c10f1990604401600060405180830381600087803b15801561110757600080fd5b505af115801561111b573d6000803e3d6000fd5b505050505050565b60006106798284611936565b600480546001600160a01b038381166001600160a01b0319831681179093556040519116919082907f8be0079c531659141344cd1fd0a4f28419497f9722a3daafe3b4186f6b6457e090600090a35050565b6060600061118e83611512565b604080516020808252818301909252919250600091906020820181803683375050509182525060208101929092525090565b60006106066111cd610d28565b8360405161190160f01b8152600281019290925260228201526042902090565b60006111ff82516041146101b96112a5565b602082810151604080850151606080870151835160008082529681018086528a905290861a938101849052908101849052608081018290529293909260019060a0016020604051602081039080840390855afa158015611263573d6000803e3d6000fd5b5050604051601f1901519150506001600160a01b038116158015906112995750876001600160a01b0316816001600160a01b0316145b98975050505050505050565b81610597576105978161153a565b60006106798284611a4e565b6001600160a01b038381166000818152600760209081526040808320948716808452948252918290208590558151938452830184905290917f9d228d69b5fdb8d273a2336f8fb8612d039631024ea9bf09c424a9503aa078f0910160405180910390a2505050565b60008160000361133957506000610606565b600080846001600160a01b031663bccfafd16040518163ffffffff1660e01b81526004016040805180830381865afa158015611379573d6000803e3d6000fd5b505050506040513d601f19601f8201168201806040525081019061139d9190611a61565b60065491935091506000906113be90849087906001600160801b031661154a565b905060006113eb8387600660109054906101000a90046001600160801b03166001600160801b031661154a565b8695509050811515806113fd57508015155b1561146a5780820185039450826001600160a01b0316846001600160a01b0316886001600160a01b03167ff51d4f85b9c67a6999073394e680d7eaba2ae56553370c00088941bf662f6b528585604051611461929190918252602082015260400190565b60405180910390a45b5050505092915050565b6001600160a01b0380841660009081526008602090815260408083209386168352929052908120546114a7908390611936565b6001600160a01b0385811660008181526008602090815260408083209489168084529482529182902085905581519384528301849052929350917f1d3c306136bd426714f135bc4ac6c18f7e52d80d7d07e4cab37de75e47474481910160405180910390a250505050565b600060ff8216601f81111561060657604051632cd44ac360e21b815260040160405180910390fd5b610787816210905360ea1b611588565b600081158061156057506001600160a01b038416155b1561156d57506000610679565b6115778284611a90565b612710900490506106798482611097565b62461bcd60e51b600090815260206004526007602452600a808404818106603090810160081b958390069590950190829004918206850160101b01602363ffffff0060e086901c160160181b0190930160c81b604481905260e883901c91606490fd5b600080604083850312156115fe57600080fd5b50508035926020909101359150565b6001600160a01b038116811461078757600080fd5b801515811461078757600080fd5b6000806040838503121561164357600080fd5b823561164e8161160d565b9150602083013561165e81611622565b809150509250929050565b6000806040838503121561167c57600080fd5b82356116878161160d565b9150602083013561165e8161160d565b60008083601f8401126116a957600080fd5b50813567ffffffffffffffff8111156116c157600080fd5b6020830191508360208260051b85010111156116dc57600080fd5b9250929050565b600080602083850312156116f657600080fd5b823567ffffffffffffffff81111561170d57600080fd5b61171985828601611697565b90969095509350505050565b60008060006040848603121561173a57600080fd5b833567ffffffffffffffff81111561175157600080fd5b61175d86828701611697565b90945092505060208401356117718161160d565b809150509250925092565b60006020828403121561178e57600080fd5b81356106798161160d565b6000815180845260005b818110156117bf576020818501810151868301820152016117a3565b506000602082860101526020601f19601f83011685010191505092915050565b60ff60f81b881681526000602060e0818401526117ff60e084018a611799565b8381036040850152611811818a611799565b606085018990526001600160a01b038816608086015260a0850187905284810360c0860152855180825283870192509083019060005b8181101561186357835183529284019291840191600101611847565b50909c9b505050505050505050505050565b600061010080838503121561188957600080fd5b83818401111561189857600080fd5b509092915050565b600080600080600080600060e0888a0312156118bb57600080fd5b87356118c68161160d565b965060208801356118d681611622565b955060408801356118e68161160d565b945060608801359350608088013560ff8116811461190357600080fd5b9699959850939692959460a0840135945060c09093013592915050565b634e487b7160e01b600052601160045260246000fd5b8082018082111561060657610606611920565b60208082526023908201527f43616c6c6572206e6f7420616c6c6f77656420746f206d696e7420666f72207560408201526239b2b960e91b606082015260800190565b634e487b7160e01b600052603260045260246000fd5b6000600182016119b4576119b4611920565b5060010190565b600181811c908216806119cf57607f821691505b6020821081036119ef57634e487b7160e01b600052602260045260246000fd5b50919050565b600060208284031215611a0757600080fd5b815180600f0b811461067957600080fd5b600060208284031215611a2a57600080fd5b815161067981611622565b600060208284031215611a4757600080fd5b5051919050565b8181038181111561060657610606611920565b60008060408385031215611a7457600080fd5b8251611a7f8161160d565b602084015190925061165e8161160d565b80820281158282048414176106065761060661192056fea264697066735822122074b9514ccb60bc2384b1520ecf78210287c3201e08874bfe5481c2210ad40af264736f6c63430008150033",
  "language": "Solidity",
  "compiler": "0.8.21+commit.d9974bed"
}