{
  "address": "0x560A0c7B3dD8ba59A5093770Bc42Dd0B9ABb5487",
  "abi": [
    {
      "inputs": [
        {
          "internalType": "contract TimelockController",
          "name": "_timelock",
          "type": "address"
        },
        {
          "internalType": "contract IVeSilo",
          "name": "_veSilo",
          "type": "address"
        }
      ],
      "stateMutability": "nonpayable",
      "type": "constructor"
    },
    {
      "inputs": [],
      "name": "Empty",
      "type": "error"
    },
    {
      "inputs": [],
      "name": "InvalidShortString",
      "type": "error"
    },
    {
      "inputs": [
        {
          "internalType": "string",
          "name": "str",
          "type": "string"
        }
      ],
      "name": "StringTooLong",
      "type": "error"
    },
    {
      "inputs": [],
      "name": "VeSiloAlreadyInitialized",
      "type": "error"
    },
    {
      "anonymous": false,
      "inputs": [],
      "name": "EIP712DomainChanged",
      "type": "event"
    },
    {
      "anonymous": false,
      "inputs": [
        {
          "indexed": false,
          "internalType": "uint256",
          "name": "proposalId",
          "type": "uint256"
        }
      ],
      "name": "ProposalCanceled",
      "type": "event"
    },
    {
      "anonymous": false,
      "inputs": [
        {
          "indexed": false,
          "internalType": "uint256",
          "name": "proposalId",
          "type": "uint256"
        },
        {
          "indexed": false,
          "internalType": "address",
          "name": "proposer",
          "type": "address"
        },
        {
          "indexed": false,
          "internalType": "address[]",
          "name": "targets",
          "type": "address[]"
        },
        {
          "indexed": false,
          "internalType": "uint256[]",
          "name": "values",
          "type": "uint256[]"
        },
        {
          "indexed": false,
          "internalType": "string[]",
          "name": "signatures",
          "type": "string[]"
        },
        {
          "indexed": false,
          "internalType": "bytes[]",
          "name": "calldatas",
          "type": "bytes[]"
        },
        {
          "indexed": false,
          "internalType": "uint256",
          "name": "voteStart",
          "type": "uint256"
        },
        {
          "indexed": false,
          "internalType": "uint256",
          "name": "voteEnd",
          "type": "uint256"
        },
        {
          "indexed": false,
          "internalType": "string",
          "name": "description",
          "type": "string"
        }
      ],
      "name": "ProposalCreated",
      "type": "event"
    },
    {
      "anonymous": false,
      "inputs": [
        {
          "indexed": false,
          "internalType": "uint256",
          "name": "proposalId",
          "type": "uint256"
        }
      ],
      "name": "ProposalExecuted",
      "type": "event"
    },
    {
      "anonymous": false,
      "inputs": [
        {
          "indexed": false,
          "internalType": "uint256",
          "name": "proposalId",
          "type": "uint256"
        },
        {
          "indexed": false,
          "internalType": "uint256",
          "name": "eta",
          "type": "uint256"
        }
      ],
      "name": "ProposalQueued",
      "type": "event"
    },
    {
      "anonymous": false,
      "inputs": [
        {
          "indexed": false,
          "internalType": "uint256",
          "name": "oldProposalThreshold",
          "type": "uint256"
        },
        {
          "indexed": false,
          "internalType": "uint256",
          "name": "newProposalThreshold",
          "type": "uint256"
        }
      ],
      "name": "ProposalThresholdSet",
      "type": "event"
    },
    {
      "anonymous": false,
      "inputs": [
        {
          "indexed": false,
          "internalType": "uint256",
          "name": "oldQuorumNumerator",
          "type": "uint256"
        },
        {
          "indexed": false,
          "internalType": "uint256",
          "name": "newQuorumNumerator",
          "type": "uint256"
        }
      ],
      "name": "QuorumNumeratorUpdated",
      "type": "event"
    },
    {
      "anonymous": false,
      "inputs": [
        {
          "indexed": false,
          "internalType": "address",
          "name": "oldTimelock",
          "type": "address"
        },
        {
          "indexed": false,
          "internalType": "address",
          "name": "newTimelock",
          "type": "address"
        }
      ],
      "name": "TimelockChange",
      "type": "event"
    },
    {
      "anonymous": false,
      "inputs": [
        {
          "indexed": true,
          "internalType": "address",
          "name": "voter",
          "type": "address"
        },
        {
          "indexed": false,
          "internalType": "uint256",
          "name": "proposalId",
          "type": "uint256"
        },
        {
          "indexed": false,
          "internalType": "uint8",
          "name": "support",
          "type": "uint8"
        },
        {
          "indexed": false,
          "internalType": "uint256",
          "name": "weight",
          "type": "uint256"
        },
        {
          "indexed": false,
          "internalType": "string",
          "name": "reason",
          "type": "string"
        }
      ],
      "name": "VoteCast",
      "type": "event"
    },
    {
      "anonymous": false,
      "inputs": [
        {
          "indexed": true,
          "internalType": "address",
          "name": "voter",
          "type": "address"
        },
        {
          "indexed": false,
          "internalType": "uint256",
          "name": "proposalId",
          "type": "uint256"
        },
        {
          "indexed": false,
          "internalType": "uint8",
          "name": "support",
          "type": "uint8"
        },
        {
          "indexed": false,
          "internalType": "uint256",
          "name": "weight",
          "type": "uint256"
        },
        {
          "indexed": false,
          "internalType": "string",
          "name": "reason",
          "type": "string"
        },
        {
          "indexed": false,
          "internalType": "bytes",
          "name": "params",
          "type": "bytes"
        }
      ],
      "name": "VoteCastWithParams",
      "type": "event"
    },
    {
      "anonymous": false,
      "inputs": [
        {
          "indexed": false,
          "internalType": "uint256",
          "name": "oldVotingDelay",
          "type": "uint256"
        },
        {
          "indexed": false,
          "internalType": "uint256",
          "name": "newVotingDelay",
          "type": "uint256"
        }
      ],
      "name": "VotingDelaySet",
      "type": "event"
    },
    {
      "anonymous": false,
      "inputs": [
        {
          "indexed": false,
          "internalType": "uint256",
          "name": "oldVotingPeriod",
          "type": "uint256"
        },
        {
          "indexed": false,
          "internalType": "uint256",
          "name": "newVotingPeriod",
          "type": "uint256"
        }
      ],
      "name": "VotingPeriodSet",
      "type": "event"
    },
    {
      "inputs": [],
      "name": "BALLOT_TYPEHASH",
      "outputs": [
        {
          "internalType": "bytes32",
          "name": "",
          "type": "bytes32"
        }
      ],
      "stateMutability": "view",
      "type": "function"
    },
    {
      "inputs": [],
      "name": "CLOCK_MODE",
      "outputs": [
        {
          "internalType": "string",
          "name": "",
          "type": "string"
        }
      ],
      "stateMutability": "pure",
      "type": "function"
    },
    {
      "inputs": [],
      "name": "COUNTING_MODE",
      "outputs": [
        {
          "internalType": "string",
          "name": "",
          "type": "string"
        }
      ],
      "stateMutability": "pure",
      "type": "function"
    },
    {
      "inputs": [],
      "name": "EXTENDED_BALLOT_TYPEHASH",
      "outputs": [
        {
          "internalType": "bytes32",
          "name": "",
          "type": "bytes32"
        }
      ],
      "stateMutability": "view",
      "type": "function"
    },
    {
      "inputs": [
        {
          "internalType": "address[]",
          "name": "targets",
          "type": "address[]"
        },
        {
          "internalType": "uint256[]",
          "name": "values",
          "type": "uint256[]"
        },
        {
          "internalType": "bytes[]",
          "name": "calldatas",
          "type": "bytes[]"
        },
        {
          "internalType": "bytes32",
          "name": "descriptionHash",
          "type": "bytes32"
        }
      ],
      "name": "cancel",
      "outputs": [
        {
          "internalType": "uint256",
          "name": "",
          "type": "uint256"
        }
      ],
      "stateMutability": "nonpayable",
      "type": "function"
    },
    {
      "inputs": [
        {
          "internalType": "uint256",
          "name": "proposalId",
          "type": "uint256"
        },
        {
          "internalType": "uint8",
          "name": "support",
          "type": "uint8"
        }
      ],
      "name": "castVote",
      "outputs": [
        {
          "internalType": "uint256",
          "name": "",
          "type": "uint256"
        }
      ],
      "stateMutability": "nonpayable",
      "type": "function"
    },
    {
      "inputs": [
        {
          "internalType": "uint256",
          "name": "proposalId",
          "type": "uint256"
        },
        {
          "internalType": "uint8",
          "name": "support",
          "type": "uint8"
        },
        {
          "internalType": "uint8",
          "name": "v",
          "type": "uint8"
        },
        {
          "internalType": "bytes32",
          "name": "r",
          "type": "bytes32"
        },
        {
          "internalType": "bytes32",
          "name": "s",
          "type": "bytes32"
        }
      ],
      "name": "castVoteBySig",
      "outputs": [
        {
          "internalType": "uint256",
          "name": "",
          "type": "uint256"
        }
      ],
      "stateMutability": "nonpayable",
      "type": "function"
    },
    {
      "inputs": [
        {
          "internalType": "uint256",
          "name": "proposalId",
          "type": "uint256"
        },
        {
          "internalType": "uint8",
          "name": "support",
          "type": "uint8"
        },
        {
          "internalType": "string",
          "name": "reason",
          "type": "string"
        }
      ],
      "name": "castVoteWithReason",
      "outputs": [
        {
          "internalType": "uint256",
          "name": "",
          "type": "uint256"
        }
      ],
      "stateMutability": "nonpayable",
      "type": "function"
    },
    {
      "inputs": [
        {
          "internalType": "uint256",
          "name": "proposalId",
          "type": "uint256"
        },
        {
          "internalType": "uint8",
          "name": "support",
          "type": "uint8"
        },
        {
          "internalType": "string",
          "name": "reason",
          "type": "string"
        },
        {
          "internalType": "bytes",
          "name": "params",
          "type": "bytes"
        }
      ],
      "name": "castVoteWithReasonAndParams",
      "outputs": [
        {
          "internalType": "uint256",
          "name": "",
          "type": "uint256"
        }
      ],
      "stateMutability": "nonpayable",
      "type": "function"
    },
    {
      "inputs": [
        {
          "internalType": "uint256",
          "name": "proposalId",
          "type": "uint256"
        },
        {
          "internalType": "uint8",
          "name": "support",
          "type": "uint8"
        },
        {
          "internalType": "string",
          "name": "reason",
          "type": "string"
        },
        {
          "internalType": "bytes",
          "name": "params",
          "type": "bytes"
        },
        {
          "internalType": "uint8",
          "name": "v",
          "type": "uint8"
        },
        {
          "internalType": "bytes32",
          "name": "r",
          "type": "bytes32"
        },
        {
          "internalType": "bytes32",
          "name": "s",
          "type": "bytes32"
        }
      ],
      "name": "castVoteWithReasonAndParamsBySig",
      "outputs": [
        {
          "internalType": "uint256",
          "name": "",
          "type": "uint256"
        }
      ],
      "stateMutability": "nonpayable",
      "type": "function"
    },
    {
      "inputs": [],
      "name": "clock",
      "outputs": [
        {
          "internalType": "uint48",
          "name": "",
          "type": "uint48"
        }
      ],
      "stateMutability": "view",
      "type": "function"
    },
    {
      "inputs": [],
      "name": "eip712Domain",
      "outputs": [
        {
          "internalType": "bytes1",
          "name": "fields",
          "type": "bytes1"
        },
        {
          "internalType": "string",
          "name": "name",
          "type": "string"
        },
        {
          "internalType": "string",
          "name": "version",
          "type": "string"
        },
        {
          "internalType": "uint256",
          "name": "chainId",
          "type": "uint256"
        },
        {
          "internalType": "address",
          "name": "verifyingContract",
          "type": "address"
        },
        {
          "internalType": "bytes32",
          "name": "salt",
          "type": "bytes32"
        },
        {
          "internalType": "uint256[]",
          "name": "extensions",
          "type": "uint256[]"
        }
      ],
      "stateMutability": "view",
      "type": "function"
    },
    {
      "inputs": [
        {
          "internalType": "address[]",
          "name": "targets",
          "type": "address[]"
        },
        {
          "internalType": "uint256[]",
          "name": "values",
          "type": "uint256[]"
        },
        {
          "internalType": "bytes[]",
          "name": "calldatas",
          "type": "bytes[]"
        },
        {
          "internalType": "bytes32",
          "name": "descriptionHash",
          "type": "bytes32"
        }
      ],
      "name": "execute",
      "outputs": [
        {
          "internalType": "uint256",
          "name": "",
          "type": "uint256"
        }
      ],
      "stateMutability": "payable",
      "type": "function"
    },
    {
      "inputs": [
        {
          "internalType": "address",
          "name": "account",
          "type": "address"
        },
        {
          "internalType": "uint256",
          "name": "timepoint",
          "type": "uint256"
        }
      ],
      "name": "getVotes",
      "outputs": [
        {
          "internalType": "uint256",
          "name": "",
          "type": "uint256"
        }
      ],
      "stateMutability": "view",
      "type": "function"
    },
    {
      "inputs": [
        {
          "internalType": "address",
          "name": "account",
          "type": "address"
        },
        {
          "internalType": "uint256",
          "name": "timepoint",
          "type": "uint256"
        },
        {
          "internalType": "bytes",
          "name": "params",
          "type": "bytes"
        }
      ],
      "name": "getVotesWithParams",
      "outputs": [
        {
          "internalType": "uint256",
          "name": "",
          "type": "uint256"
        }
      ],
      "stateMutability": "view",
      "type": "function"
    },
    {
      "inputs": [
        {
          "internalType": "uint256",
          "name": "proposalId",
          "type": "uint256"
        },
        {
          "internalType": "address",
          "name": "account",
          "type": "address"
        }
      ],
      "name": "hasVoted",
      "outputs": [
        {
          "internalType": "bool",
          "name": "",
          "type": "bool"
        }
      ],
      "stateMutability": "view",
      "type": "function"
    },
    {
      "inputs": [
        {
          "internalType": "address[]",
          "name": "targets",
          "type": "address[]"
        },
        {
          "internalType": "uint256[]",
          "name": "values",
          "type": "uint256[]"
        },
        {
          "internalType": "bytes[]",
          "name": "calldatas",
          "type": "bytes[]"
        },
        {
          "internalType": "bytes32",
          "name": "descriptionHash",
          "type": "bytes32"
        }
      ],
      "name": "hashProposal",
      "outputs": [
        {
          "internalType": "uint256",
          "name": "",
          "type": "uint256"
        }
      ],
      "stateMutability": "pure",
      "type": "function"
    },
    {
      "inputs": [],
      "name": "name",
      "outputs": [
        {
          "internalType": "string",
          "name": "",
          "type": "string"
        }
      ],
      "stateMutability": "view",
      "type": "function"
    },
    {
      "inputs": [
        {
          "internalType": "address",
          "name": "",
          "type": "address"
        },
        {
          "internalType": "address",
          "name": "",
          "type": "address"
        },
        {
          "internalType": "uint256[]",
          "name": "",
          "type": "uint256[]"
        },
        {
          "internalType": "uint256[]",
          "name": "",
          "type": "uint256[]"
        },
        {
          "internalType": "bytes",
          "name": "",
          "type": "bytes"
        }
      ],
      "name": "onERC1155BatchReceived",
      "outputs": [
        {
          "internalType": "bytes4",
          "name": "",
          "type": "bytes4"
        }
      ],
      "stateMutability": "nonpayable",
      "type": "function"
    },
    {
      "inputs": [
        {
          "internalType": "address",
          "name": "",
          "type": "address"
        },
        {
          "internalType": "address",
          "name": "",
          "type": "address"
        },
        {
          "internalType": "uint256",
          "name": "",
          "type": "uint256"
        },
        {
          "internalType": "uint256",
          "name": "",
          "type": "uint256"
        },
        {
          "internalType": "bytes",
          "name": "",
          "type": "bytes"
        }
      ],
      "name": "onERC1155Received",
      "outputs": [
        {
          "internalType": "bytes4",
          "name": "",
          "type": "bytes4"
        }
      ],
      "stateMutability": "nonpayable",
      "type": "function"
    },
    {
      "inputs": [
        {
          "internalType": "address",
          "name": "",
          "type": "address"
        },
        {
          "internalType": "address",
          "name": "",
          "type": "address"
        },
        {
          "internalType": "uint256",
          "name": "",
          "type": "uint256"
        },
        {
          "internalType": "bytes",
          "name": "",
          "type": "bytes"
        }
      ],
      "name": "onERC721Received",
      "outputs": [
        {
          "internalType": "bytes4",
          "name": "",
          "type": "bytes4"
        }
      ],
      "stateMutability": "nonpayable",
      "type": "function"
    },
    {
      "inputs": [
        {
          "internalType": "uint256",
          "name": "proposalId",
          "type": "uint256"
        }
      ],
      "name": "proposalDeadline",
      "outputs": [
        {
          "internalType": "uint256",
          "name": "",
          "type": "uint256"
        }
      ],
      "stateMutability": "view",
      "type": "function"
    },
    {
      "inputs": [
        {
          "internalType": "uint256",
          "name": "proposalId",
          "type": "uint256"
        }
      ],
      "name": "proposalEta",
      "outputs": [
        {
          "internalType": "uint256",
          "name": "",
          "type": "uint256"
        }
      ],
      "stateMutability": "view",
      "type": "function"
    },
    {
      "inputs": [
        {
          "internalType": "uint256",
          "name": "proposalId",
          "type": "uint256"
        }
      ],
      "name": "proposalProposer",
      "outputs": [
        {
          "internalType": "address",
          "name": "",
          "type": "address"
        }
      ],
      "stateMutability": "view",
      "type": "function"
    },
    {
      "inputs": [
        {
          "internalType": "uint256",
          "name": "proposalId",
          "type": "uint256"
        }
      ],
      "name": "proposalSnapshot",
      "outputs": [
        {
          "internalType": "uint256",
          "name": "",
          "type": "uint256"
        }
      ],
      "stateMutability": "view",
      "type": "function"
    },
    {
      "inputs": [],
      "name": "proposalThreshold",
      "outputs": [
        {
          "internalType": "uint256",
          "name": "",
          "type": "uint256"
        }
      ],
      "stateMutability": "view",
      "type": "function"
    },
    {
      "inputs": [
        {
          "internalType": "uint256",
          "name": "proposalId",
          "type": "uint256"
        }
      ],
      "name": "proposalVotes",
      "outputs": [
        {
          "internalType": "uint256",
          "name": "againstVotes",
          "type": "uint256"
        },
        {
          "internalType": "uint256",
          "name": "forVotes",
          "type": "uint256"
        },
        {
          "internalType": "uint256",
          "name": "abstainVotes",
          "type": "uint256"
        }
      ],
      "stateMutability": "view",
      "type": "function"
    },
    {
      "inputs": [
        {
          "internalType": "address[]",
          "name": "targets",
          "type": "address[]"
        },
        {
          "internalType": "uint256[]",
          "name": "values",
          "type": "uint256[]"
        },
        {
          "internalType": "bytes[]",
          "name": "calldatas",
          "type": "bytes[]"
        },
        {
          "internalType": "string",
          "name": "description",
          "type": "string"
        }
      ],
      "name": "propose",
      "outputs": [
        {
          "internalType": "uint256",
          "name": "",
          "type": "uint256"
        }
      ],
      "stateMutability": "nonpayable",
      "type": "function"
    },
    {
      "inputs": [
        {
          "internalType": "address[]",
          "name": "targets",
          "type": "address[]"
        },
        {
          "internalType": "uint256[]",
          "name": "values",
          "type": "uint256[]"
        },
        {
          "internalType": "bytes[]",
          "name": "calldatas",
          "type": "bytes[]"
        },
        {
          "internalType": "bytes32",
          "name": "descriptionHash",
          "type": "bytes32"
        }
      ],
      "name": "queue",
      "outputs": [
        {
          "internalType": "uint256",
          "name": "",
          "type": "uint256"
        }
      ],
      "stateMutability": "nonpayable",
      "type": "function"
    },
    {
      "inputs": [
        {
          "internalType": "uint256",
          "name": "_timepoint",
          "type": "uint256"
        }
      ],
      "name": "quorum",
      "outputs": [
        {
          "internalType": "uint256",
          "name": "",
          "type": "uint256"
        }
      ],
      "stateMutability": "view",
      "type": "function"
    },
    {
      "inputs": [],
      "name": "quorumDenominator",
      "outputs": [
        {
          "internalType": "uint256",
          "name": "",
          "type": "uint256"
        }
      ],
      "stateMutability": "view",
      "type": "function"
    },
    {
      "inputs": [
        {
          "internalType": "uint256",
          "name": "timepoint",
          "type": "uint256"
        }
      ],
      "name": "quorumNumerator",
      "outputs": [
        {
          "internalType": "uint256",
          "name": "",
          "type": "uint256"
        }
      ],
      "stateMutability": "view",
      "type": "function"
    },
    {
      "inputs": [],
      "name": "quorumNumerator",
      "outputs": [
        {
          "internalType": "uint256",
          "name": "",
          "type": "uint256"
        }
      ],
      "stateMutability": "view",
      "type": "function"
    },
    {
      "inputs": [
        {
          "internalType": "uint256",
          "name": "proposalId",
          "type": "uint256"
        }
      ],
      "name": "quorumReached",
      "outputs": [
        {
          "internalType": "bool",
          "name": "",
          "type": "bool"
        }
      ],
      "stateMutability": "view",
      "type": "function"
    },
    {
      "inputs": [
        {
          "internalType": "address",
          "name": "target",
          "type": "address"
        },
        {
          "internalType": "uint256",
          "name": "value",
          "type": "uint256"
        },
        {
          "internalType": "bytes",
          "name": "data",
          "type": "bytes"
        }
      ],
      "name": "relay",
      "outputs": [],
      "stateMutability": "payable",
      "type": "function"
    },
    {
      "inputs": [
        {
          "internalType": "uint256",
          "name": "newProposalThreshold",
          "type": "uint256"
        }
      ],
      "name": "setProposalThreshold",
      "outputs": [],
      "stateMutability": "nonpayable",
      "type": "function"
    },
    {
      "inputs": [
        {
          "internalType": "uint256",
          "name": "newVotingDelay",
          "type": "uint256"
        }
      ],
      "name": "setVotingDelay",
      "outputs": [],
      "stateMutability": "nonpayable",
      "type": "function"
    },
    {
      "inputs": [
        {
          "internalType": "uint256",
          "name": "newVotingPeriod",
          "type": "uint256"
        }
      ],
      "name": "setVotingPeriod",
      "outputs": [],
      "stateMutability": "nonpayable",
      "type": "function"
    },
    {
      "inputs": [
        {
          "internalType": "uint256",
          "name": "_proposalId",
          "type": "uint256"
        }
      ],
      "name": "state",
      "outputs": [
        {
          "internalType": "enum IGovernor.ProposalState",
          "name": "",
          "type": "uint8"
        }
      ],
      "stateMutability": "view",
      "type": "function"
    },
    {
      "inputs": [
        {
          "internalType": "bytes4",
          "name": "_interfaceId",
          "type": "bytes4"
        }
      ],
      "name": "supportsInterface",
      "outputs": [
        {
          "internalType": "bool",
          "name": "",
          "type": "bool"
        }
      ],
      "stateMutability": "view",
      "type": "function"
    },
    {
      "inputs": [],
      "name": "timelock",
      "outputs": [
        {
          "internalType": "address",
          "name": "",
          "type": "address"
        }
      ],
      "stateMutability": "view",
      "type": "function"
    },
    {
      "inputs": [],
      "name": "token",
      "outputs": [
        {
          "internalType": "contract IERC5805",
          "name": "",
          "type": "address"
        }
      ],
      "stateMutability": "view",
      "type": "function"
    },
    {
      "inputs": [
        {
          "internalType": "uint256",
          "name": "newQuorumNumerator",
          "type": "uint256"
        }
      ],
      "name": "updateQuorumNumerator",
      "outputs": [],
      "stateMutability": "nonpayable",
      "type": "function"
    },
    {
      "inputs": [
        {
          "internalType": "contract TimelockController",
          "name": "newTimelock",
          "type": "address"
        }
      ],
      "name": "updateTimelock",
      "outputs": [],
      "stateMutability": "nonpayable",
      "type": "function"
    },
    {
      "inputs": [],
      "name": "veSiloToken",
      "outputs": [
        {
          "internalType": "contract IVeSilo",
          "name": "",
          "type": "address"
        }
      ],
      "stateMutability": "view",
      "type": "function"
    },
    {
      "inputs": [],
      "name": "version",
      "outputs": [
        {
          "internalType": "string",
          "name": "",
          "type": "string"
        }
      ],
      "stateMutability": "view",
      "type": "function"
    },
    {
      "inputs": [
        {
          "internalType": "uint256",
          "name": "proposalId",
          "type": "uint256"
        }
      ],
      "name": "voteSucceeded",
      "outputs": [
        {
          "internalType": "bool",
          "name": "",
          "type": "bool"
        }
      ],
      "stateMutability": "view",
      "type": "function"
    },
    {
      "inputs": [],
      "name": "votingDelay",
      "outputs": [
        {
          "internalType": "uint256",
          "name": "",
          "type": "uint256"
        }
      ],
      "stateMutability": "view",
      "type": "function"
    },
    {
      "inputs": [],
      "name": "votingPeriod",
      "outputs": [
        {
          "internalType": "uint256",
          "name": "",
          "type": "uint256"
        }
      ],
      "stateMutability": "view",
      "type": "function"
    },
    {
      "stateMutability": "payable",
      "type": "receive"
    }
  ],
  "bytecode": "0x6101806040523480156200001257600080fd5b50604051620051ac380380620051ac83398101604081905262000035916200090d565b81600160006001610e1069152d02c7e14af68000006040518060400160405280600c81526020016b29b4b637a3b7bb32b93737b960a11b8152508062000080620001b660201b60201c565b6200008d826000620001d1565b610120526200009e816001620001d1565b61014052815160208084019190912060e052815190820120610100524660a0526200012c60e05161010051604080517f8b73c3c69bb8fe3d512ecc4cf759cc79239f7b179b0ffacaa9a75d522b39400f60208201529081019290925260608201524660808201523060a082015260009060c00160405160208183030381529060405280519060200120905090565b60805250503060c0526002620001438282620009f1565b50620001519050836200020a565b6200015c826200024b565b6200016781620002f2565b5050506001600160a01b031661016052620001828162000333565b506200018e81620004b2565b50600e80546001600160a01b0319166001600160a01b03929092169190911790555062000b54565b6040805180820190915260018152603160f81b602082015290565b6000602083511015620001f157620001e9836200051b565b905062000204565b81620001fe8482620009f1565b5060ff90505b92915050565b60065460408051918252602082018390527fc565b045403dc03c2eea82b81a0465edad9e2e7fc4d97e11421c209da93d7a93910160405180910390a1600655565b60008111620002b15760405162461bcd60e51b815260206004820152602760248201527f476f7665726e6f7253657474696e67733a20766f74696e6720706572696f6420604482015266746f6f206c6f7760c81b60648201526084015b60405180910390fd5b60075460408051918252602082018390527f7e3f7f0708a84de9203036abaa450dccc85ad5ff52f78c170f3edb55cf5e8828910160405180910390a1600755565b60085460408051918252602082018390527fccb45da8d5717e6c4544694297c4ba5cf151d455c9bb0ed4fc7a38411bc05461910160405180910390a1600855565b6064811115620003b85760405162461bcd60e51b815260206004820152604360248201527f476f7665726e6f72566f74657351756f72756d4672616374696f6e3a2071756f60448201527f72756d4e756d657261746f72206f7665722071756f72756d44656e6f6d696e616064820152623a37b960e91b608482015260a401620002a8565b6000620003c46200055e565b90508015801590620003d65750600b54155b156200043e576040805180820190915260008152600b9060208101620003fc846200058d565b6001600160e01b0390811690915282546001810184556000938452602093849020835194909301519091166401000000000263ffffffff909316929092179101555b620004736200045e62000450620005fc565b65ffffffffffff1662000609565b62000469846200058d565b600b919062000670565b505060408051828152602081018490527f0553476bf02ef2726e8ce5ced78d63e26e602e4a2257b1f559418e24b4633997910160405180910390a15050565b600c54604080516001600160a01b03928316815291831660208301527f08f74ea46ef7894f65eabfb5e6e695de773a000b47c529ab559178069b226401910160405180910390a1600c80546001600160a01b0319166001600160a01b0392909216919091179055565b600080829050601f8151111562000549578260405163305a27a960e01b8152600401620002a8919062000abd565b8051620005568262000b0d565b179392505050565b600b5460009015620005845762000576600b6200068d565b6001600160e01b0316905090565b600a545b905090565b60006001600160e01b03821115620005f85760405162461bcd60e51b815260206004820152602760248201527f53616665436173743a2076616c756520646f65736e27742066697420696e20326044820152663234206269747360c81b6064820152608401620002a8565b5090565b60006200058842620006db565b600063ffffffff821115620005f85760405162461bcd60e51b815260206004820152602660248201527f53616665436173743a2076616c756520646f65736e27742066697420696e203360448201526532206269747360d01b6064820152608401620002a8565b6000806200068085858562000744565b915091505b935093915050565b80546000908015620006d157620006b983620006ab60018462000b32565b600091825260209091200190565b5464010000000090046001600160e01b0316620006d4565b60005b9392505050565b600065ffffffffffff821115620005f85760405162461bcd60e51b815260206004820152602660248201527f53616665436173743a2076616c756520646f65736e27742066697420696e203460448201526538206269747360d01b6064820152608401620002a8565b825460009081908015620008995760006200076687620006ab60018562000b32565b60408051808201909152905463ffffffff8082168084526401000000009092046001600160e01b031660208401529192509087161015620007ea5760405162461bcd60e51b815260206004820152601b60248201527f436865636b706f696e743a2064656372656173696e67206b65797300000000006044820152606401620002a8565b805163ffffffff8088169116036200083857846200080f88620006ab60018662000b32565b80546001600160e01b03929092166401000000000263ffffffff90921691909117905562000888565b6040805180820190915263ffffffff80881682526001600160e01b0380881660208085019182528b54600181018d5560008d81529190912094519151909216640100000000029216919091179101555b602001519250839150620006859050565b50506040805180820190915263ffffffff80851682526001600160e01b0380851660208085019182528854600181018a5560008a81529182209551925190931664010000000002919093161792019190915590508162000685565b6001600160a01b03811681146200090a57600080fd5b50565b600080604083850312156200092157600080fd5b82516200092e81620008f4565b60208401519092506200094181620008f4565b809150509250929050565b634e487b7160e01b600052604160045260246000fd5b600181811c908216806200097757607f821691505b6020821081036200099857634e487b7160e01b600052602260045260246000fd5b50919050565b601f821115620009ec57600081815260208120601f850160051c81016020861015620009c75750805b601f850160051c820191505b81811015620009e857828155600101620009d3565b5050505b505050565b81516001600160401b0381111562000a0d5762000a0d6200094c565b62000a258162000a1e845462000962565b846200099e565b602080601f83116001811462000a5d576000841562000a445750858301515b600019600386901b1c1916600185901b178555620009e8565b600085815260208120601f198616915b8281101562000a8e5788860151825594840194600190910190840162000a6d565b508582101562000aad5787850151600019600388901b60f8161c191681555b5050505050600190811b01905550565b600060208083528351808285015260005b8181101562000aec5785810183015185820160400152820162000ace565b506000604082860101526040601f19601f8301168501019250505092915050565b80516020808301519190811015620009985760001960209190910360031b1b16919050565b818103818111156200020457634e487b7160e01b600052601160045260246000fd5b60805160a05160c05160e051610100516101205161014051610160516145f262000bba6000396000610a9f0152600061178a0152600061176001526000612a2f01526000612a07015260006129620152600061298c015260006129b601526145f26000f3fe6080604052600436106102b25760003560e01c80637b3c71d311610175578063c01f9e37116100dc578063deaaa7cc11610095578063ece40cc11161006f578063ece40cc114610a21578063f23a6e6114610a41578063f8ce560a14610a6d578063fc0c546a14610a8d57600080fd5b8063deaaa7cc146109ad578063ea0217cf146109e1578063eb9019d414610a0157600080fd5b8063c01f9e37146108bd578063c28bc2fa146108f6578063c59057e414610909578063d33219b414610929578063d4a8dd9814610947578063dd4e2ba51461096757600080fd5b80639a802a6d1161012e5780639a802a6d14610807578063a7713a7014610827578063a890c9101461083c578063ab58fb8e1461085c578063b58131b01461087c578063bc197c811461089157600080fd5b80637b3c71d31461073f5780637d5e81e21461075f57806384b0196e1461077f5780638d73b031146107a757806391ddadf4146107c757806397c3d334146107f357600080fd5b80633bccf4fd1161021957806354fd4d50116101d257806354fd4d5014610675578063567813881461069f5780635f398a14146106bf57806360c4247f146106df578063650a0bd4146106ff57806370b0f6601461071f57600080fd5b80633bccf4fd146105235780633e4f49e6146105435780634385963214610570578063452115d6146105ba5780634bf5d7e9146105da578063544ffc9c1461062057600080fd5b8063150b7a021161026b578063150b7a021461042d578063160cbed7146104715780632656227d146104915780632d63f693146104a45780632fe3e261146104da5780633932abb11461050e57600080fd5b806301ffc9a71461032257806302a251a314610357578063034201811461037657806306f3f9e61461039657806306fdde03146103b6578063143489d0146103d857600080fd5b3661031d57306102c0610ac1565b6001600160a01b03161461031b5760405162461bcd60e51b815260206004820152601f60248201527f476f7665726e6f723a206d7573742073656e6420746f206578656375746f720060448201526064015b60405180910390fd5b005b600080fd5b34801561032e57600080fd5b5061034261033d366004613707565b610ada565b60405190151581526020015b60405180910390f35b34801561036357600080fd5b506007545b60405190815260200161034e565b34801561038257600080fd5b5061036861039136600461384c565b610aeb565b3480156103a257600080fd5b5061031b6103b13660046138f2565b610be3565b3480156103c257600080fd5b506103cb610c6d565b60405161034e9190613951565b3480156103e457600080fd5b506104156103f33660046138f2565b600090815260036020526040902054600160401b90046001600160a01b031690565b6040516001600160a01b03909116815260200161034e565b34801561043957600080fd5b50610458610448366004613979565b630a85bd0160e11b949350505050565b6040516001600160e01b0319909116815260200161034e565b34801561047d57600080fd5b5061036861048c366004613b55565b610cff565b61036861049f366004613b55565b610f00565b3480156104b057600080fd5b506103686104bf3660046138f2565b6000908152600360205260409020546001600160401b031690565b3480156104e657600080fd5b506103687fb3b3f3b703cd84ce352197dcff232b1b5d3cfb2025ce47cf04742d0651f1af8881565b34801561051a57600080fd5b50600654610368565b34801561052f57600080fd5b5061036861053e366004613be4565b610ff2565b34801561054f57600080fd5b5061056361055e3660046138f2565b611068565b60405161034e9190613c48565b34801561057c57600080fd5b5061034261058b366004613c70565b60008281526009602090815260408083206001600160a01b038516845260030190915290205460ff1692915050565b3480156105c657600080fd5b506103686105d5366004613b55565b611073565b3480156105e657600080fd5b506040805180820190915260208082527f6d6f64653d626c6f636b74696d657374616d702666726f6d3d64656661756c74908201526103cb565b34801561062c57600080fd5b5061065a61063b3660046138f2565b6000908152600960205260409020805460018201546002909201549092565b6040805193845260208401929092529082015260600161034e565b34801561068157600080fd5b506040805180820190915260018152603160f81b60208201526103cb565b3480156106ab57600080fd5b506103686106ba366004613ca0565b611184565b3480156106cb57600080fd5b506103686106da366004613ccc565b6111ad565b3480156106eb57600080fd5b506103686106fa3660046138f2565b6111f7565b34801561070b57600080fd5b50600e54610415906001600160a01b031681565b34801561072b57600080fd5b5061031b61073a3660046138f2565b6112a8565b34801561074b57600080fd5b5061036861075a366004613d4f565b61132f565b34801561076b57600080fd5b5061036861077a366004613da8565b611377565b34801561078b57600080fd5b50610794611752565b60405161034e9796959493929190613e97565b3480156107b357600080fd5b506103426107c23660046138f2565b6117da565b3480156107d357600080fd5b506107dc6117f6565b60405165ffffffffffff909116815260200161034e565b3480156107ff57600080fd5b506064610368565b34801561081357600080fd5b50610368610822366004613ef9565b611801565b34801561083357600080fd5b50610368611818565b34801561084857600080fd5b5061031b610857366004613f51565b611842565b34801561086857600080fd5b506103686108773660046138f2565b6118c9565b34801561088857600080fd5b50610368611963565b34801561089d57600080fd5b506104586108ac366004613f6e565b63bc197c8160e01b95945050505050565b3480156108c957600080fd5b506103686108d83660046138f2565b6000908152600360205260409020600101546001600160401b031690565b61031b610904366004614001565b61196e565b34801561091557600080fd5b50610368610924366004613b55565b611a7d565b34801561093557600080fd5b50600c546001600160a01b0316610415565b34801561095357600080fd5b506103426109623660046138f2565b611ab7565b34801561097357600080fd5b506040805180820190915260208082527f737570706f72743d627261766f2671756f72756d3d666f722c6162737461696e908201526103cb565b3480156109b957600080fd5b506103687f150214d74d59b7d1e90c73fc22ef3d991dd0a76b046543d4d80ab92d2a50328f81565b3480156109ed57600080fd5b5061031b6109fc3660046138f2565b611ac2565b348015610a0d57600080fd5b50610368610a1c366004614044565b611b49565b348015610a2d57600080fd5b5061031b610a3c3660046138f2565b611b6a565b348015610a4d57600080fd5b50610458610a5c366004614070565b63f23a6e6160e01b95945050505050565b348015610a7957600080fd5b50610368610a883660046138f2565b611bf1565b348015610a9957600080fd5b506104157f000000000000000000000000000000000000000000000000000000000000000081565b6000610ad5600c546001600160a01b031690565b905090565b6000610ae582611c7f565b92915050565b600080610b8f610b877fb3b3f3b703cd84ce352197dcff232b1b5d3cfb2025ce47cf04742d0651f1af888c8c8c8c604051610b279291906140d8565b60405180910390208b80519060200120604051602001610b6c959493929190948552602085019390935260ff9190911660408401526060830152608082015260a00190565b60405160208183030381529060405280519060200120611ca4565b868686611cd1565b9050610bd58a828b8b8b8080601f0160208091040260200160405190810160405280939291908181526020018383808284376000920191909152508d9250611cef915050565b9a9950505050505050505050565b610beb610ac1565b6001600160a01b0316336001600160a01b031614610c1b5760405162461bcd60e51b8152600401610312906140e8565b30610c24610ac1565b6001600160a01b031614610c615760008036604051610c449291906140d8565b604051809103902090505b80610c5a6004611e44565b03610c4f57505b610c6a81611ec3565b50565b606060028054610c7c9061411f565b80601f0160208091040260200160405190810160405280929190818152602001828054610ca89061411f565b8015610cf55780601f10610cca57610100808354040283529160200191610cf5565b820191906000526020600020905b815481529060010190602001808311610cd857829003601f168201915b5050505050905090565b600080610d0e86868686611a7d565b90506004610d1b82611068565b6007811115610d2c57610d2c613c32565b14610d495760405162461bcd60e51b815260040161031290614159565b600c546040805163793d064960e11b815290516000926001600160a01b03169163f27a0c929160048083019260209291908290030181865afa158015610d93573d6000803e3d6000fd5b505050506040513d601f19601f82011682018060405250810190610db7919061419a565b600c5460405163b1c5f42760e01b81529192506001600160a01b03169063b1c5f42790610df1908a908a908a906000908b90600401614241565b602060405180830381865afa158015610e0e573d6000803e3d6000fd5b505050506040513d601f19601f82011682018060405250810190610e32919061419a565b6000838152600d602052604080822092909255600c5491516308f2a0bb60e41b81526001600160a01b0390921691638f2a0bb091610e7d918b918b918b91908b90899060040161428f565b600060405180830381600087803b158015610e9757600080fd5b505af1158015610eab573d6000803e3d6000fd5b505050507f9a2e42fd6722813d69113e7d0079d3d940171428df7373df9c7f7617cfda2892828242610edd91906142fd565b604080519283526020830191909152015b60405180910390a15095945050505050565b600080610f0f86868686611a7d565b90506000610f1c82611068565b90506004816007811115610f3257610f32613c32565b1480610f4f57506005816007811115610f4d57610f4d613c32565b145b610f6b5760405162461bcd60e51b815260040161031290614159565b60008281526003602052604090819020600201805460ff19166001179055517f712ae1383f79ac853f8d882153778e0260ef8f03b504e2866e0593e04d2b291f90610fb99084815260200190565b60405180910390a1610fce8288888888612031565b610fdb82888888886120d3565b610fe882888888886120e0565b5095945050505050565b604080517f150214d74d59b7d1e90c73fc22ef3d991dd0a76b046543d4d80ab92d2a50328f602082015290810186905260ff85166060820152600090819061104090610b8790608001610b6c565b905061105d87828860405180602001604052806000815250612119565b979650505050505050565b6000610ae582612145565b60008061108286868686611a7d565b9050600061108f82611068565b60078111156110a0576110a0613c32565b146110ed5760405162461bcd60e51b815260206004820152601c60248201527f476f7665726e6f723a20746f6f206c61746520746f2063616e63656c000000006044820152606401610312565b600081815260036020526040902054600160401b90046001600160a01b0316336001600160a01b03161461116e5760405162461bcd60e51b815260206004820152602260248201527f476f7665726e6f723a206f6e6c792070726f706f7365722063616e2063616e63604482015261195b60f21b6064820152608401610312565b61117a8686868661228f565b9695505050505050565b6000803390506111a584828560405180602001604052806000815250612119565b949350505050565b60008033905061105d87828888888080601f0160208091040260200160405190810160405280939291908181526020018383808284376000920191909152508a9250611cef915050565b600b5460009080820361120e575050600a54919050565b6000600b61121d600184614310565b8154811061122d5761122d614323565b60009182526020918290206040805180820190915291015463ffffffff8116808352600160201b9091046001600160e01b0316928201929092529150841061128357602001516001600160e01b03169392505050565b61129761128f8561229d565b600b90612306565b6001600160e01b0316949350505050565b6112b0610ac1565b6001600160a01b0316336001600160a01b0316146112e05760405162461bcd60e51b8152600401610312906140e8565b306112e9610ac1565b6001600160a01b03161461132657600080366040516113099291906140d8565b604051809103902090505b8061131f6004611e44565b0361131457505b610c6a816123b9565b60008033905061117a86828787878080601f01602080910402602001604051908101604052809392919081815260200183838082843760009201919091525061211992505050565b60003361138481846123fa565b6113d05760405162461bcd60e51b815260206004820152601d60248201527f476f7665726e6f723a2070726f706f73657220726573747269637465640000006044820152606401610312565b60006113da6117f6565b65ffffffffffff1690506113ec611963565b6113fb83610a1c600185614310565b10156114635760405162461bcd60e51b815260206004820152603160248201527f476f7665726e6f723a2070726f706f73657220766f7465732062656c6f7720706044820152701c9bdc1bdcd85b081d1a1c995cda1bdb19607a1b6064820152608401610312565b60006114788888888880519060200120611a7d565b9050865188511461149b5760405162461bcd60e51b815260040161031290614339565b85518851146114bc5760405162461bcd60e51b815260040161031290614339565b600088511161150d5760405162461bcd60e51b815260206004820152601860248201527f476f7665726e6f723a20656d7074792070726f706f73616c00000000000000006044820152606401610312565b6000818152600360205260409020546001600160401b03161561157c5760405162461bcd60e51b815260206004820152602160248201527f476f7665726e6f723a2070726f706f73616c20616c72656164792065786973746044820152607360f81b6064820152608401610312565b600061158760065490565b61159190846142fd565b9050600061159e60075490565b6115a890836142fd565b90506040518060e001604052806115be846124eb565b6001600160401b031681526001600160a01b0387166020820152600060408201526060016115eb836124eb565b6001600160401b039081168252600060208084018290526040808501839052606094850183905288835260038252918290208551815492870151878501519186166001600160e01b031990941693909317600160401b6001600160a01b039094168402176001600160e01b0316600160e01b60e09290921c91909102178155938501516080860151908416921c0217600183015560a08301516002909201805460c09094015161ffff1990941692151561ff00191692909217610100931515939093029290921790558a517f7d84a6263ae0d98d3329bd7b46bb4e8d6f98cd35a7adb45c274c8b7fd5ebd5e091859188918e918e918111156116ef576116ef61378f565b60405190808252806020026020018201604052801561172257816020015b606081526020019060019003908161170d5790505b508d88888f60405161173c9998979695949392919061437a565b60405180910390a1509098975050505050505050565b6000606080828080836117857f000000000000000000000000000000000000000000000000000000000000000083612553565b6117b07f00000000000000000000000000000000000000000000000000000000000000006001612553565b60408051600080825260208201909252600f60f81b9b939a50919850469750309650945092509050565b6000818152600960205260408120805460019091015411610ae5565b6000610ad5426125fe565b600061180e848484612665565b90505b9392505050565b600b546000901561183b5761182d600b6126d9565b6001600160e01b0316905090565b50600a5490565b61184a610ac1565b6001600160a01b0316336001600160a01b03161461187a5760405162461bcd60e51b8152600401610312906140e8565b30611883610ac1565b6001600160a01b0316146118c057600080366040516118a39291906140d8565b604051809103902090505b806118b96004611e44565b036118ae57505b610c6a81612709565b600c546000828152600d602052604080822054905163d45c443560e01b81526004810191909152909182916001600160a01b039091169063d45c443590602401602060405180830381865afa158015611926573d6000803e3d6000fd5b505050506040513d601f19601f8201168201806040525081019061194a919061419a565b90508060011461195a5780611811565b60009392505050565b6000610ad560085490565b611976610ac1565b6001600160a01b0316336001600160a01b0316146119a65760405162461bcd60e51b8152600401610312906140e8565b306119af610ac1565b6001600160a01b0316146119ec57600080366040516119cf9291906140d8565b604051809103902090505b806119e56004611e44565b036119da57505b600080856001600160a01b0316858585604051611a0a9291906140d8565b60006040518083038185875af1925050503d8060008114611a47576040519150601f19603f3d011682016040523d82523d6000602084013e611a4c565b606091505b5091509150611a74828260405180606001604052806028815260200161459560289139612772565b50505050505050565b600084848484604051602001611a969493929190614451565b60408051601f19818403018152919052805160209091012095945050505050565b6000610ae58261278b565b611aca610ac1565b6001600160a01b0316336001600160a01b031614611afa5760405162461bcd60e51b8152600401610312906140e8565b30611b03610ac1565b6001600160a01b031614611b405760008036604051611b239291906140d8565b604051809103902090505b80611b396004611e44565b03611b2e57505b610c6a816127d7565b60006118118383611b6560408051602081019091526000815290565b612665565b611b72610ac1565b6001600160a01b0316336001600160a01b031614611ba25760405162461bcd60e51b8152600401610312906140e8565b30611bab610ac1565b6001600160a01b031614611be85760008036604051611bcb9291906140d8565b604051809103902090505b80611be16004611e44565b03611bd657505b610c6a81612878565b60006064611bfe836111f7565b600e5460405163bd85b03960e01b8152600481018690526001600160a01b039091169063bd85b03990602401602060405180830381865afa158015611c47573d6000803e3d6000fd5b505050506040513d601f19601f82011682018060405250810190611c6b919061419a565b611c75919061449c565b610ae591906144c9565b60006001600160e01b03198216636e665ced60e01b1480610ae55750610ae5826128b9565b6000610ae5611cb1612955565b8360405161190160f01b8152600281019290925260228201526042902090565b6000806000611ce287878787612a80565b91509150610fe881612b44565b60008581526003602052604081206001611d0888611068565b6007811115611d1957611d19613c32565b14611d725760405162461bcd60e51b815260206004820152602360248201527f476f7665726e6f723a20766f7465206e6f742063757272656e746c792061637460448201526269766560e81b6064820152608401610312565b8054600090611d8c9088906001600160401b031686612665565b9050611d9b8888888488612c8e565b8351600003611df057866001600160a01b03167fb8e138887d0aa13bab447e82de9d5c1777041ecd21ca36ba824ff1e6c07ddda489888489604051611de394939291906144eb565b60405180910390a261105d565b866001600160a01b03167fe2babfbac5889a709b63bb7f598b324e08bc5a4fb9ec647fb3cbc9ec07eb87128988848989604051611e31959493929190614513565b60405180910390a2979650505050505050565b6000611e5f8254600f81810b600160801b909204900b131590565b15611e7d57604051631ed9509560e11b815260040160405180910390fd5b508054600f0b6000818152600180840160205260408220805492905583546fffffffffffffffffffffffffffffffff191692016001600160801b03169190911790915590565b6064811115611f465760405162461bcd60e51b815260206004820152604360248201527f476f7665726e6f72566f74657351756f72756d4672616374696f6e3a2071756f60448201527f72756d4e756d657261746f72206f7665722071756f72756d44656e6f6d696e616064820152623a37b960e91b608482015260a401610312565b6000611f50611818565b90508015801590611f615750600b54155b15611fc5576040805180820190915260008152600b9060208101611f8484612e08565b6001600160e01b039081169091528254600181018455600093845260209384902083519490930151909116600160201b0263ffffffff909316929092179101555b611ff2611fe0611fd36117f6565b65ffffffffffff1661229d565b611fe984612e08565b600b9190612e71565b505060408051828152602081018490527f0553476bf02ef2726e8ce5ced78d63e26e602e4a2257b1f559418e24b4633997910160405180910390a15050565b3061203a610ac1565b6001600160a01b0316146120cc5760005b84518110156120ca57306001600160a01b031685828151811061207057612070614323565b60200260200101516001600160a01b0316036120ba576120ba83828151811061209b5761209b614323565b6020026020010151805190602001206004612e8c90919063ffffffff16565b6120c381614559565b905061204b565b505b5050505050565b6120cc8585858585612ec8565b306120e9610ac1565b6001600160a01b0316146120cc57600454600f81810b600160801b909204900b13156120cc5760006004556120cc565b600061213c8585858561213760408051602081019091526000815290565b611cef565b95945050505050565b60008061215183612f3c565b9050600481600781111561216757612167613c32565b146121725792915050565b6000838152600d60205260409020548061218d575092915050565b600c54604051632ab0f52960e01b8152600481018390526001600160a01b0390911690632ab0f52990602401602060405180830381865afa1580156121d6573d6000803e3d6000fd5b505050506040513d601f19601f820116820180604052508101906121fa9190614572565b15612209575060079392505050565b600c54604051632c258a9f60e11b8152600481018390526001600160a01b039091169063584b153e90602401602060405180830381865afa158015612252573d6000803e3d6000fd5b505050506040513d601f19601f820116820180604052508101906122769190614572565b15612285575060059392505050565b5060029392505050565b600061213c8585858561307c565b600063ffffffff8211156123025760405162461bcd60e51b815260206004820152602660248201527f53616665436173743a2076616c756520646f65736e27742066697420696e203360448201526532206269747360d01b6064820152608401610312565b5090565b8154600090818160058111156123635760006123218461312e565b61232b9085614310565b60008881526020902090915081015463ffffffff908116908716101561235357809150612361565b61235e8160016142fd565b92505b505b600061237187878585613216565b905080156123ac5761239687612388600184614310565b600091825260209091200190565b54600160201b90046001600160e01b031661105d565b6000979650505050505050565b60065460408051918252602082018390527fc565b045403dc03c2eea82b81a0465edad9e2e7fc4d97e11421c209da93d7a93910160405180910390a1600655565b80516000906034811015612412576001915050610ae5565b82810160131901516001600160a01b031981166b046e0e4dee0dee6cae47a60f60a31b1461244557600192505050610ae5565b600080612453602885614310565b90505b838110156124ca5760008061248a88848151811061247657612476614323565b01602001516001600160f81b031916613274565b91509150816124a25760019650505050505050610ae5565b8060ff166004856001600160a01b0316901b1793505050806124c390614559565b9050612456565b50856001600160a01b0316816001600160a01b031614935050505092915050565b60006001600160401b038211156123025760405162461bcd60e51b815260206004820152602660248201527f53616665436173743a2076616c756520646f65736e27742066697420696e203660448201526534206269747360d01b6064820152608401610312565b606060ff831461256d5761256683613306565b9050610ae5565b8180546125799061411f565b80601f01602080910402602001604051908101604052809291908181526020018280546125a59061411f565b80156125f25780601f106125c7576101008083540402835291602001916125f2565b820191906000526020600020905b8154815290600101906020018083116125d557829003601f168201915b50505050509050610ae5565b600065ffffffffffff8211156123025760405162461bcd60e51b815260206004820152602660248201527f53616665436173743a2076616c756520646f65736e27742066697420696e203460448201526538206269747360d01b6064820152608401610312565b600e54604051627eeac760e11b81526001600160a01b03858116600483015260248201859052600092169062fdd58e90604401602060405180830381865afa1580156126b5573d6000803e3d6000fd5b505050506040513d601f19601f8201168201806040525081019061180e919061419a565b8054600090801561195a576126f383612388600184614310565b54600160201b90046001600160e01b0316611811565b600c54604080516001600160a01b03928316815291831660208301527f08f74ea46ef7894f65eabfb5e6e695de773a000b47c529ab559178069b226401910160405180910390a1600c80546001600160a01b0319166001600160a01b0392909216919091179055565b60608315612781575081611811565b6118118383613345565b6000818152600960205260408120600281015460018201546127ad91906142fd565b6000848152600360205260409020546127ce906001600160401b0316611bf1565b11159392505050565b600081116128375760405162461bcd60e51b815260206004820152602760248201527f476f7665726e6f7253657474696e67733a20766f74696e6720706572696f6420604482015266746f6f206c6f7760c81b6064820152608401610312565b60075460408051918252602082018390527f7e3f7f0708a84de9203036abaa450dccc85ad5ff52f78c170f3edb55cf5e8828910160405180910390a1600755565b60085460408051918252602082018390527fccb45da8d5717e6c4544694297c4ba5cf151d455c9bb0ed4fc7a38411bc05461910160405180910390a1600855565b600063288ace0360e11b6318df743f60e31b63bf26d89760e01b6379dd796f60e01b6001600160e01b031986168214806128ff57506001600160e01b0319868116908216145b8061291657506001600160e01b0319868116908516145b8061293157506001600160e01b03198616630271189760e51b145b8061117a57506301ffc9a760e01b6001600160e01b03198716149695505050505050565b6000306001600160a01b037f0000000000000000000000000000000000000000000000000000000000000000161480156129ae57507f000000000000000000000000000000000000000000000000000000000000000046145b156129d857507f000000000000000000000000000000000000000000000000000000000000000090565b610ad5604080517f8b73c3c69bb8fe3d512ecc4cf759cc79239f7b179b0ffacaa9a75d522b39400f60208201527f0000000000000000000000000000000000000000000000000000000000000000918101919091527f000000000000000000000000000000000000000000000000000000000000000060608201524660808201523060a082015260009060c00160405160208183030381529060405280519060200120905090565b6000807f7fffffffffffffffffffffffffffffff5d576e7357a4501ddfe92f46681b20a0831115612ab75750600090506003612b3b565b6040805160008082526020820180845289905260ff881692820192909252606081018690526080810185905260019060a0016020604051602081039080840390855afa158015612b0b573d6000803e3d6000fd5b5050604051601f1901519150506001600160a01b038116612b3457600060019250925050612b3b565b9150600090505b94509492505050565b6000816004811115612b5857612b58613c32565b03612b605750565b6001816004811115612b7457612b74613c32565b03612bc15760405162461bcd60e51b815260206004820152601860248201527f45434453413a20696e76616c6964207369676e617475726500000000000000006044820152606401610312565b6002816004811115612bd557612bd5613c32565b03612c225760405162461bcd60e51b815260206004820152601f60248201527f45434453413a20696e76616c6964207369676e6174757265206c656e677468006044820152606401610312565b6003816004811115612c3657612c36613c32565b03610c6a5760405162461bcd60e51b815260206004820152602260248201527f45434453413a20696e76616c6964207369676e6174757265202773272076616c604482015261756560f01b6064820152608401610312565b60008581526009602090815260408083206001600160a01b0388168452600381019092529091205460ff1615612d165760405162461bcd60e51b815260206004820152602760248201527f476f7665726e6f72566f74696e6753696d706c653a20766f746520616c726561604482015266191e4818d85cdd60ca1b6064820152608401610312565b6001600160a01b03851660009081526003820160205260409020805460ff1916600117905560ff8416612d625782816000016000828254612d5791906142fd565b909155506120ca9050565b60001960ff851601612d825782816001016000828254612d5791906142fd565b60011960ff851601612da25782816002016000828254612d5791906142fd565b60405162461bcd60e51b815260206004820152603560248201527f476f7665726e6f72566f74696e6753696d706c653a20696e76616c69642076616044820152746c756520666f7220656e756d20566f74655479706560581b6064820152608401610312565b60006001600160e01b038211156123025760405162461bcd60e51b815260206004820152602760248201527f53616665436173743a2076616c756520646f65736e27742066697420696e20326044820152663234206269747360c81b6064820152608401610312565b600080612e7f85858561336f565b915091505b935093915050565b8154600160801b90819004600f0b6000818152600180860160205260409091209390935583546001600160801b03908116939091011602179055565b600c5460405163e38335e560e01b81526001600160a01b039091169063e38335e5903490612f03908890889088906000908990600401614241565b6000604051808303818588803b158015612f1c57600080fd5b505af1158015612f30573d6000803e3d6000fd5b50505050505050505050565b6000818152600360205260408120600281015460ff1615612f605750600792915050565b6002810154610100900460ff1615612f7b5750600292915050565b6000838152600360205260408120546001600160401b031690819003612fe35760405162461bcd60e51b815260206004820152601d60248201527f476f7665726e6f723a20756e6b6e6f776e2070726f706f73616c2069640000006044820152606401610312565b6000612fed6117f6565b65ffffffffffff16905080821061300957506000949350505050565b6000858152600360205260409020600101546001600160401b03168181106130375750600195945050505050565b6130408661278b565b801561305f575060008681526009602052604090208054600190910154115b156130705750600495945050505050565b50600395945050505050565b60008061308b8686868661350e565b6000818152600d60205260409020549091501561213c57600c546000828152600d60205260409081902054905163c4d252f560e01b81526001600160a01b039092169163c4d252f5916130e49160040190815260200190565b600060405180830381600087803b1580156130fe57600080fd5b505af1158015613112573d6000803e3d6000fd5b5050506000828152600d60205260408120555095945050505050565b60008160000361314057506000919050565b6000600161314d8461361a565b901c6001901b90506001818481613166576131666144b3565b048201901c9050600181848161317e5761317e6144b3565b048201901c90506001818481613196576131966144b3565b048201901c905060018184816131ae576131ae6144b3565b048201901c905060018184816131c6576131c66144b3565b048201901c905060018184816131de576131de6144b3565b048201901c905060018184816131f6576131f66144b3565b048201901c905061181181828581613210576132106144b3565b046136ae565b60005b8183101561326c57600061322d84846136c4565b60008781526020902090915063ffffffff86169082015463ffffffff16111561325857809250613266565b6132638160016142fd565b93505b50613219565b509392505050565b60008060f883901c602f8111801561328f5750603a8160ff16105b156132a457600194602f199091019350915050565b8060ff1660401080156132ba575060478160ff16105b156132cf576001946036199091019350915050565b8060ff1660601080156132e5575060678160ff16105b156132fa576001946056199091019350915050565b50600093849350915050565b60606000613313836136df565b604080516020808252818301909252919250600091906020820181803683375050509182525060208101929092525090565b8151156133555781518083602001fd5b8060405162461bcd60e51b81526004016103129190613951565b8254600090819080156134b557600061338d87612388600185614310565b60408051808201909152905463ffffffff808216808452600160201b9092046001600160e01b03166020840152919250908716101561340e5760405162461bcd60e51b815260206004820152601b60248201527f436865636b706f696e743a2064656372656173696e67206b65797300000000006044820152606401610312565b805163ffffffff808816911603613456578461342f88612388600186614310565b80546001600160e01b0392909216600160201b0263ffffffff9092169190911790556134a5565b6040805180820190915263ffffffff80881682526001600160e01b0380881660208085019182528b54600181018d5560008d81529190912094519151909216600160201b029216919091179101555b602001519250839150612e849050565b50506040805180820190915263ffffffff80851682526001600160e01b0380851660208085019182528854600181018a5560008a815291822095519251909316600160201b029190931617920191909155905081612e84565b60008061351d86868686611a7d565b9050600061352a82611068565b9050600281600781111561354057613540613c32565b141580156135605750600681600781111561355d5761355d613c32565b14155b801561357e5750600781600781111561357b5761357b613c32565b14155b6135ca5760405162461bcd60e51b815260206004820152601d60248201527f476f7665726e6f723a2070726f706f73616c206e6f74206163746976650000006044820152606401610312565b60008281526003602052604090819020600201805461ff001916610100179055517f789cf55be980739dad1d0699b93b58e806b51c9d96619bfa8fe0a28abaa7b30c90610eee9084815260200190565b600080608083901c1561362f57608092831c92015b604083901c1561364157604092831c92015b602083901c1561365357602092831c92015b601083901c1561366557601092831c92015b600883901c1561367757600892831c92015b600483901c1561368957600492831c92015b600283901c1561369b57600292831c92015b600183901c15610ae55760010192915050565b60008183106136bd5781611811565b5090919050565b60006136d360028484186144c9565b611811908484166142fd565b600060ff8216601f811115610ae557604051632cd44ac360e21b815260040160405180910390fd5b60006020828403121561371957600080fd5b81356001600160e01b03198116811461181157600080fd5b803560ff8116811461374257600080fd5b919050565b60008083601f84011261375957600080fd5b5081356001600160401b0381111561377057600080fd5b60208301915083602082850101111561378857600080fd5b9250929050565b634e487b7160e01b600052604160045260246000fd5b604051601f8201601f191681016001600160401b03811182821017156137cd576137cd61378f565b604052919050565b60006001600160401b038311156137ee576137ee61378f565b613801601f8401601f19166020016137a5565b905082815283838301111561381557600080fd5b828260208301376000602084830101529392505050565b600082601f83011261383d57600080fd5b611811838335602085016137d5565b60008060008060008060008060e0898b03121561386857600080fd5b8835975061387860208a01613731565b965060408901356001600160401b038082111561389457600080fd5b6138a08c838d01613747565b909850965060608b01359150808211156138b957600080fd5b506138c68b828c0161382c565b9450506138d560808a01613731565b925060a0890135915060c089013590509295985092959890939650565b60006020828403121561390457600080fd5b5035919050565b6000815180845260005b8181101561393157602081850181015186830182015201613915565b506000602082860101526020601f19601f83011685010191505092915050565b602081526000611811602083018461390b565b6001600160a01b0381168114610c6a57600080fd5b6000806000806080858703121561398f57600080fd5b843561399a81613964565b935060208501356139aa81613964565b92506040850135915060608501356001600160401b038111156139cc57600080fd5b6139d88782880161382c565b91505092959194509250565b60006001600160401b038211156139fd576139fd61378f565b5060051b60200190565b600082601f830112613a1857600080fd5b81356020613a2d613a28836139e4565b6137a5565b82815260059290921b84018101918181019086841115613a4c57600080fd5b8286015b84811015613a70578035613a6381613964565b8352918301918301613a50565b509695505050505050565b600082601f830112613a8c57600080fd5b81356020613a9c613a28836139e4565b82815260059290921b84018101918181019086841115613abb57600080fd5b8286015b84811015613a705780358352918301918301613abf565b600082601f830112613ae757600080fd5b81356020613af7613a28836139e4565b82815260059290921b84018101918181019086841115613b1657600080fd5b8286015b84811015613a705780356001600160401b03811115613b395760008081fd5b613b478986838b010161382c565b845250918301918301613b1a565b60008060008060808587031215613b6b57600080fd5b84356001600160401b0380821115613b8257600080fd5b613b8e88838901613a07565b95506020870135915080821115613ba457600080fd5b613bb088838901613a7b565b94506040870135915080821115613bc657600080fd5b50613bd387828801613ad6565b949793965093946060013593505050565b600080600080600060a08688031215613bfc57600080fd5b85359450613c0c60208701613731565b9350613c1a60408701613731565b94979396509394606081013594506080013592915050565b634e487b7160e01b600052602160045260246000fd5b6020810160088310613c6a57634e487b7160e01b600052602160045260246000fd5b91905290565b60008060408385031215613c8357600080fd5b823591506020830135613c9581613964565b809150509250929050565b60008060408385031215613cb357600080fd5b82359150613cc360208401613731565b90509250929050565b600080600080600060808688031215613ce457600080fd5b85359450613cf460208701613731565b935060408601356001600160401b0380821115613d1057600080fd5b613d1c89838a01613747565b90955093506060880135915080821115613d3557600080fd5b50613d428882890161382c565b9150509295509295909350565b60008060008060608587031215613d6557600080fd5b84359350613d7560208601613731565b925060408501356001600160401b03811115613d9057600080fd5b613d9c87828801613747565b95989497509550505050565b60008060008060808587031215613dbe57600080fd5b84356001600160401b0380821115613dd557600080fd5b613de188838901613a07565b95506020870135915080821115613df757600080fd5b613e0388838901613a7b565b94506040870135915080821115613e1957600080fd5b613e2588838901613ad6565b93506060870135915080821115613e3b57600080fd5b508501601f81018713613e4d57600080fd5b6139d8878235602084016137d5565b600081518084526020808501945080840160005b83811015613e8c57815187529582019590820190600101613e70565b509495945050505050565b60ff60f81b8816815260e060208201526000613eb660e083018961390b565b8281036040840152613ec8818961390b565b606084018890526001600160a01b038716608085015260a0840186905283810360c08501529050610bd58185613e5c565b600080600060608486031215613f0e57600080fd5b8335613f1981613964565b92506020840135915060408401356001600160401b03811115613f3b57600080fd5b613f478682870161382c565b9150509250925092565b600060208284031215613f6357600080fd5b813561181181613964565b600080600080600060a08688031215613f8657600080fd5b8535613f9181613964565b94506020860135613fa181613964565b935060408601356001600160401b0380821115613fbd57600080fd5b613fc989838a01613a7b565b94506060880135915080821115613fdf57600080fd5b613feb89838a01613a7b565b93506080880135915080821115613d3557600080fd5b6000806000806060858703121561401757600080fd5b843561402281613964565b93506020850135925060408501356001600160401b03811115613d9057600080fd5b6000806040838503121561405757600080fd5b823561406281613964565b946020939093013593505050565b600080600080600060a0868803121561408857600080fd5b853561409381613964565b945060208601356140a381613964565b9350604086013592506060860135915060808601356001600160401b038111156140cc57600080fd5b613d428882890161382c565b8183823760009101908152919050565b60208082526018908201527f476f7665726e6f723a206f6e6c79476f7665726e616e63650000000000000000604082015260600190565b600181811c9082168061413357607f821691505b60208210810361415357634e487b7160e01b600052602260045260246000fd5b50919050565b60208082526021908201527f476f7665726e6f723a2070726f706f73616c206e6f74207375636365737366756040820152601b60fa1b606082015260800190565b6000602082840312156141ac57600080fd5b5051919050565b600081518084526020808501945080840160005b83811015613e8c5781516001600160a01b0316875295820195908201906001016141c7565b600081518084526020808501808196508360051b8101915082860160005b8581101561423457828403895261422284835161390b565b9885019893509084019060010161420a565b5091979650505050505050565b60a08152600061425460a08301886141b3565b82810360208401526142668188613e5c565b9050828103604084015261427a81876141ec565b60608401959095525050608001529392505050565b60c0815260006142a260c08301896141b3565b82810360208401526142b48189613e5c565b905082810360408401526142c881886141ec565b60608401969096525050608081019290925260a0909101529392505050565b634e487b7160e01b600052601160045260246000fd5b80820180821115610ae557610ae56142e7565b81810381811115610ae557610ae56142e7565b634e487b7160e01b600052603260045260246000fd5b60208082526021908201527f476f7665726e6f723a20696e76616c69642070726f706f73616c206c656e67746040820152600d60fb1b606082015260800190565b60006101208b8352602060018060a01b038c16818501528160408501526143a38285018c6141b3565b915083820360608501526143b7828b613e5c565b915083820360808501528189518084528284019150828160051b850101838c0160005b8381101561440857601f198784030185526143f683835161390b565b948601949250908501906001016143da565b505086810360a088015261441c818c6141ec565b9450505050508560c08401528460e0840152828103610100840152614441818561390b565b9c9b505050505050505050505050565b60808152600061446460808301876141b3565b82810360208401526144768187613e5c565b9050828103604084015261448a81866141ec565b91505082606083015295945050505050565b8082028115828204841417610ae557610ae56142e7565b634e487b7160e01b600052601260045260246000fd5b6000826144e657634e487b7160e01b600052601260045260246000fd5b500490565b84815260ff8416602082015282604082015260806060820152600061117a608083018461390b565b85815260ff8516602082015283604082015260a06060820152600061453b60a083018561390b565b828103608084015261454d818561390b565b98975050505050505050565b60006001820161456b5761456b6142e7565b5060010190565b60006020828403121561458457600080fd5b8151801515811461181157600080fdfe476f7665726e6f723a2072656c617920726576657274656420776974686f7574206d657373616765a2646970667358221220b9539984cb9d960dff7ce3d4022a5a22df72dfa99184f51924a08335b11546b064736f6c63430008150033",
  "language": "Solidity",
  "compiler": "0.8.21+commit.d9974bed"
}