{
  "address": "0xDbb928338Cb8DE157FD6A3145c52d2F6b10bBcbd",
  "abi": [
    {
      "inputs": [
        {
          "internalType": "address[]",
          "name": "initialAllowedAddresses",
          "type": "address[]"
        }
      ],
      "stateMutability": "nonpayable",
      "type": "constructor"
    },
    {
      "anonymous": false,
      "inputs": [
        {
          "indexed": false,
          "internalType": "address",
          "name": "contractAddress",
          "type": "address"
        }
      ],
      "name": "ContractAddressAdded",
      "type": "event"
    },
    {
      "anonymous": false,
      "inputs": [
        {
          "indexed": false,
          "internalType": "address",
          "name": "contractAddress",
          "type": "address"
        }
      ],
      "name": "ContractAddressRemoved",
      "type": "event"
    },
    {
      "anonymous": false,
      "inputs": [
        {
          "indexed": true,
          "internalType": "address",
          "name": "previousOwner",
          "type": "address"
        },
        {
          "indexed": true,
          "internalType": "address",
          "name": "newOwner",
          "type": "address"
        }
      ],
      "name": "OwnershipTransferStarted",
      "type": "event"
    },
    {
      "anonymous": false,
      "inputs": [
        {
          "indexed": true,
          "internalType": "address",
          "name": "previousOwner",
          "type": "address"
        },
        {
          "indexed": true,
          "internalType": "address",
          "name": "newOwner",
          "type": "address"
        }
      ],
      "name": "OwnershipTransferred",
      "type": "event"
    },
    {
      "inputs": [],
      "name": "acceptOwnership",
      "outputs": [],
      "stateMutability": "nonpayable",
      "type": "function"
    },
    {
      "inputs": [
        {
          "internalType": "address",
          "name": "contractAddress",
          "type": "address"
        }
      ],
      "name": "allowlistAddress",
      "outputs": [],
      "stateMutability": "nonpayable",
      "type": "function"
    },
    {
      "inputs": [
        {
          "internalType": "address",
          "name": "contractAddress",
          "type": "address"
        }
      ],
      "name": "check",
      "outputs": [
        {
          "internalType": "bool",
          "name": "",
          "type": "bool"
        }
      ],
      "stateMutability": "view",
      "type": "function"
    },
    {
      "inputs": [
        {
          "internalType": "address",
          "name": "contractAddress",
          "type": "address"
        }
      ],
      "name": "denylistAddress",
      "outputs": [],
      "stateMutability": "nonpayable",
      "type": "function"
    },
    {
      "inputs": [
        {
          "internalType": "uint256",
          "name": "index",
          "type": "uint256"
        }
      ],
      "name": "getAllowlistedAddress",
      "outputs": [
        {
          "internalType": "address",
          "name": "",
          "type": "address"
        }
      ],
      "stateMutability": "view",
      "type": "function"
    },
    {
      "inputs": [],
      "name": "getAllowlistedAddressesLength",
      "outputs": [
        {
          "internalType": "uint256",
          "name": "",
          "type": "uint256"
        }
      ],
      "stateMutability": "view",
      "type": "function"
    },
    {
      "inputs": [],
      "name": "owner",
      "outputs": [
        {
          "internalType": "address",
          "name": "",
          "type": "address"
        }
      ],
      "stateMutability": "view",
      "type": "function"
    },
    {
      "inputs": [],
      "name": "pendingOwner",
      "outputs": [
        {
          "internalType": "address",
          "name": "",
          "type": "address"
        }
      ],
      "stateMutability": "view",
      "type": "function"
    },
    {
      "inputs": [],
      "name": "renounceOwnership",
      "outputs": [],
      "stateMutability": "nonpayable",
      "type": "function"
    },
    {
      "inputs": [
        {
          "internalType": "address",
          "name": "newOwner",
          "type": "address"
        }
      ],
      "name": "transferOwnership",
      "outputs": [],
      "stateMutability": "nonpayable",
      "type": "function"
    }
  ],
  "bytecode": "0x60806040523480156200001157600080fd5b5060405162000aba38038062000aba833981016040819052620000349162000246565b6200003f3362000096565b805160005b818110156200008d576200007a83828151811062000066576200006662000318565b6020026020010151620000b460201b60201c565b62000085816200032e565b905062000044565b50505062000356565b600180546001600160a01b0319169055620000b18162000151565b50565b620000c1600282620001a1565b620001125760405162461bcd60e51b815260206004820152601b60248201527f4164647265737320616c726561647920616c6c6f776c69737465640000000000604482015260640160405180910390fd5b6040516001600160a01b03821681527fc1fafd2633d2190fbc0bd1e0e993dc44495d77bd7a5bc0a4951b5edb0d58254e9060200160405180910390a150565b600080546001600160a01b038381166001600160a01b0319831681178455604051919092169283917f8be0079c531659141344cd1fd0a4f28419497f9722a3daafe3b4186f6b6457e09190a35050565b6000620001b8836001600160a01b038416620001c1565b90505b92915050565b60008181526001830160205260408120546200020a57508154600181810184556000848152602080822090930184905584548482528286019093526040902091909155620001bb565b506000620001bb565b634e487b7160e01b600052604160045260246000fd5b80516001600160a01b03811681146200024157600080fd5b919050565b600060208083850312156200025a57600080fd5b82516001600160401b03808211156200027257600080fd5b818501915085601f8301126200028757600080fd5b8151818111156200029c576200029c62000213565b8060051b604051601f19603f83011681018181108582111715620002c457620002c462000213565b604052918252848201925083810185019188831115620002e357600080fd5b938501935b828510156200030c57620002fc8562000229565b84529385019392850192620002e8565b98975050505050505050565b634e487b7160e01b600052603260045260246000fd5b6000600182016200034f57634e487b7160e01b600052601160045260246000fd5b5060010190565b61075480620003666000396000f3fe608060405234801561001057600080fd5b506004361061009e5760003560e01c8063c23697a811610066578063c23697a814610109578063c7abf7e21461012c578063e30c397814610142578063f191aad014610153578063f2fde38b1461016657600080fd5b80632ee7ca64146100a3578063715018a6146100d357806379ba5097146100dd5780638da5cb5b146100e5578063a5ee4e71146100f6575b600080fd5b6100b66100b136600461068f565b610179565b6040516001600160a01b0390911681526020015b60405180910390f35b6100db61018c565b005b6100db6101a0565b6000546001600160a01b03166100b6565b6100db6101043660046106a8565b61021f565b61011c6101173660046106a8565b6102be565b60405190151581526020016100ca565b6101346102cb565b6040519081526020016100ca565b6001546001600160a01b03166100b6565b6100db6101613660046106a8565b6102dc565b6100db6101743660046106a8565b6102ed565b600061018660028361035e565b92915050565b610194610371565b61019e60006103cb565b565b60015433906001600160a01b031681146102135760405162461bcd60e51b815260206004820152602960248201527f4f776e61626c6532537465703a2063616c6c6572206973206e6f7420746865206044820152683732bb9037bbb732b960b91b60648201526084015b60405180910390fd5b61021c816103cb565b50565b610227610371565b6102326002826103e4565b61027e5760405162461bcd60e51b815260206004820152601a60248201527f41646472657373206973206e6f7420616c6c6f776c6973746564000000000000604482015260640161020a565b6040516001600160a01b03821681527f6b7e0fe40ab6dde83349106ff5b5ce7689d5912a704a21a972034191d182de32906020015b60405180910390a150565b60006101866002836103f9565b60006102d7600261041b565b905090565b6102e4610371565b61021c81610425565b6102f5610371565b600180546001600160a01b0383166001600160a01b031990911681179091556103266000546001600160a01b031690565b6001600160a01b03167f38d16b8cac22d99fc7c124b9cd0de2d3fa1faef420bfe791d8c362d765e2270060405160405180910390a350565b600061036a83836104b5565b9392505050565b6000546001600160a01b0316331461019e5760405162461bcd60e51b815260206004820181905260248201527f4f776e61626c653a2063616c6c6572206973206e6f7420746865206f776e6572604482015260640161020a565b600180546001600160a01b031916905561021c816104df565b600061036a836001600160a01b03841661052f565b6001600160a01b0381166000908152600183016020526040812054151561036a565b6000610186825490565b610430600282610622565b61047c5760405162461bcd60e51b815260206004820152601b60248201527f4164647265737320616c726561647920616c6c6f776c69737465640000000000604482015260640161020a565b6040516001600160a01b03821681527fc1fafd2633d2190fbc0bd1e0e993dc44495d77bd7a5bc0a4951b5edb0d58254e906020016102b3565b60008260000182815481106104cc576104cc6106d1565b9060005260206000200154905092915050565b600080546001600160a01b038381166001600160a01b0319831681178455604051919092169283917f8be0079c531659141344cd1fd0a4f28419497f9722a3daafe3b4186f6b6457e09190a35050565b600081815260018301602052604081205480156106185760006105536001836106e7565b8554909150600090610567906001906106e7565b90508181146105cc576000866000018281548110610587576105876106d1565b90600052602060002001549050808760000184815481106105aa576105aa6106d1565b6000918252602080832090910192909255918252600188019052604090208390555b85548690806105dd576105dd610708565b600190038181906000526020600020016000905590558560010160008681526020019081526020016000206000905560019350505050610186565b6000915050610186565b600061036a836001600160a01b0384166000610651838360009081526001919091016020526040902054151590565b61068757508154600181810184556000848152602080822090930184905584548482528286019093526040902091909155610186565b506000610186565b6000602082840312156106a157600080fd5b5035919050565b6000602082840312156106ba57600080fd5b81356001600160a01b038116811461036a57600080fd5b634e487b7160e01b600052603260045260246000fd5b8181038181111561018657634e487b7160e01b600052601160045260246000fd5b634e487b7160e01b600052603160045260246000fdfea2646970667358221220a4f11156a2c065fcc10f1c1f2e8a3cc4ea43d3b86369f4cee205d901c6ddffd164736f6c63430008150033",
  "language": "Solidity",
  "compiler": "0.8.21+commit.d9974bed"
}