{
  "address": "0xF668250Af083b2B963E9F99DD5713952ac3CaA67",
  "abi": [
    {
      "inputs": [],
      "name": "OnlyCheckpointer",
      "type": "error"
    },
    {
      "inputs": [],
      "name": "TheSameCheckpointer",
      "type": "error"
    },
    {
      "anonymous": false,
      "inputs": [
        {
          "indexed": false,
          "internalType": "address",
          "name": "checkpointer",
          "type": "address"
        }
      ],
      "name": "CheckpointerUpdated",
      "type": "event"
    },
    {
      "anonymous": false,
      "inputs": [
        {
          "indexed": true,
          "internalType": "address",
          "name": "previousOwner",
          "type": "address"
        },
        {
          "indexed": true,
          "internalType": "address",
          "name": "newOwner",
          "type": "address"
        }
      ],
      "name": "OwnershipTransferStarted",
      "type": "event"
    },
    {
      "anonymous": false,
      "inputs": [
        {
          "indexed": true,
          "internalType": "address",
          "name": "previousOwner",
          "type": "address"
        },
        {
          "indexed": true,
          "internalType": "address",
          "name": "newOwner",
          "type": "address"
        }
      ],
      "name": "OwnershipTransferred",
      "type": "event"
    },
    {
      "inputs": [],
      "name": "acceptOwnership",
      "outputs": [],
      "stateMutability": "nonpayable",
      "type": "function"
    },
    {
      "inputs": [
        {
          "internalType": "address",
          "name": "gauge",
          "type": "address"
        }
      ],
      "name": "checkpoint",
      "outputs": [
        {
          "internalType": "bool",
          "name": "result",
          "type": "bool"
        }
      ],
      "stateMutability": "payable",
      "type": "function"
    },
    {
      "inputs": [],
      "name": "checkpointer",
      "outputs": [
        {
          "internalType": "address",
          "name": "",
          "type": "address"
        }
      ],
      "stateMutability": "view",
      "type": "function"
    },
    {
      "inputs": [],
      "name": "owner",
      "outputs": [
        {
          "internalType": "address",
          "name": "",
          "type": "address"
        }
      ],
      "stateMutability": "view",
      "type": "function"
    },
    {
      "inputs": [],
      "name": "pendingOwner",
      "outputs": [
        {
          "internalType": "address",
          "name": "",
          "type": "address"
        }
      ],
      "stateMutability": "view",
      "type": "function"
    },
    {
      "inputs": [],
      "name": "renounceOwnership",
      "outputs": [],
      "stateMutability": "nonpayable",
      "type": "function"
    },
    {
      "inputs": [
        {
          "internalType": "address",
          "name": "newCheckpointer",
          "type": "address"
        }
      ],
      "name": "setStakelessGaugeCheckpointer",
      "outputs": [],
      "stateMutability": "nonpayable",
      "type": "function"
    },
    {
      "inputs": [
        {
          "internalType": "address",
          "name": "newOwner",
          "type": "address"
        }
      ],
      "name": "transferOwnership",
      "outputs": [],
      "stateMutability": "nonpayable",
      "type": "function"
    },
    {
      "stateMutability": "payable",
      "type": "receive"
    }
  ],
  "bytecode": "0x608060405234801561001057600080fd5b5061001a3361001f565b61008b565b600180546001600160a01b03191690556100388161003b565b50565b600080546001600160a01b038381166001600160a01b0319831681178455604051919092169283917f8be0079c531659141344cd1fd0a4f28419497f9722a3daafe3b4186f6b6457e09190a35050565b6106328061009a6000396000f3fe60806040526004361061007f5760003560e01c8063a972985e1161004e578063a972985e1461010e578063e30c397814610131578063f2fde38b1461014f578063ff441dda1461016f57600080fd5b80630de61f9e1461008b578063715018a6146100ad57806379ba5097146100c25780638da5cb5b146100d757600080fd5b3661008657005b600080fd5b34801561009757600080fd5b506100ab6100a63660046105aa565b61018f565b005b3480156100b957600080fd5b506100ab610219565b3480156100ce57600080fd5b506100ab61022d565b3480156100e357600080fd5b506000546001600160a01b03165b6040516001600160a01b0390911681526020015b60405180910390f35b61012161011c3660046105aa565b6102ac565b6040519015158152602001610105565b34801561013d57600080fd5b506001546001600160a01b03166100f1565b34801561015b57600080fd5b506100ab61016a3660046105aa565b610358565b34801561017b57600080fd5b506002546100f1906001600160a01b031681565b6101976103c9565b6002546001600160a01b038083169116036101c55760405163438bfa4760e01b815260040160405180910390fd5b600280546001600160a01b0319166001600160a01b0383169081179091556040519081527ff181b70b4b914be9a4862716c2c9cbeeb0350c22b2ea6e80a23d3a798d176f529060200160405180910390a150565b6102216103c9565b61022b6000610423565b565b60015433906001600160a01b031681146102a05760405162461bcd60e51b815260206004820152602960248201527f4f776e61626c6532537465703a2063616c6c6572206973206e6f7420746865206044820152683732bb9037bbb732b960b91b60648201526084015b60405180910390fd5b6102a981610423565b50565b6002546000906001600160a01b031633146102da57604051631be8096160e01b815260040160405180910390fd5b816001600160a01b031663c2c4c5c1346040518263ffffffff1660e01b815260040160206040518083038185885af115801561031a573d6000803e3d6000fd5b50505050506040513d601f19601f8201168201806040525081019061033f91906105da565b905047801561035257610352338261043c565b50919050565b6103606103c9565b600180546001600160a01b0383166001600160a01b031990911681179091556103916000546001600160a01b031690565b6001600160a01b03167f38d16b8cac22d99fc7c124b9cd0de2d3fa1faef420bfe791d8c362d765e2270060405160405180910390a350565b6000546001600160a01b0316331461022b5760405162461bcd60e51b815260206004820181905260248201527f4f776e61626c653a2063616c6c6572206973206e6f7420746865206f776e65726044820152606401610297565b600180546001600160a01b03191690556102a98161055a565b8047101561048c5760405162461bcd60e51b815260206004820152601d60248201527f416464726573733a20696e73756666696369656e742062616c616e63650000006044820152606401610297565b6000826001600160a01b03168260405160006040518083038185875af1925050503d80600081146104d9576040519150601f19603f3d011682016040523d82523d6000602084013e6104de565b606091505b50509050806105555760405162461bcd60e51b815260206004820152603a60248201527f416464726573733a20756e61626c6520746f2073656e642076616c75652c207260448201527f6563697069656e74206d617920686176652072657665727465640000000000006064820152608401610297565b505050565b600080546001600160a01b038381166001600160a01b0319831681178455604051919092169283917f8be0079c531659141344cd1fd0a4f28419497f9722a3daafe3b4186f6b6457e09190a35050565b6000602082840312156105bc57600080fd5b81356001600160a01b03811681146105d357600080fd5b9392505050565b6000602082840312156105ec57600080fd5b815180151581146105d357600080fdfea264697066735822122068969a391c649ee27eb2a58f8411c9352d37bf22b6b6ec5b872cede753ad20ee64736f6c63430008150033",
  "language": "Solidity",
  "compiler": "0.8.21+commit.d9974bed"
}