{
  "address": "0xaeaB676fEfeFE1ebB85E56E5204Efd9A8bB5E6C7",
  "abi": [
    {
      "inputs": [
        {
          "internalType": "contract IVeSilo",
          "name": "votingEscrow",
          "type": "address"
        },
        {
          "internalType": "contract IVotingEscrowCCIPRemapper",
          "name": "remapper",
          "type": "address"
        },
        {
          "internalType": "address",
          "name": "router",
          "type": "address"
        },
        {
          "internalType": "address",
          "name": "link",
          "type": "address"
        }
      ],
      "stateMutability": "nonpayable",
      "type": "constructor"
    },
    {
      "inputs": [],
      "name": "ChainIdCantBeZero",
      "type": "error"
    },
    {
      "inputs": [
        {
          "internalType": "uint64",
          "name": "dstChainSelector",
          "type": "uint64"
        }
      ],
      "name": "ChainIsNotSupported",
      "type": "error"
    },
    {
      "anonymous": false,
      "inputs": [
        {
          "indexed": false,
          "internalType": "uint64",
          "name": "dstChainSelector",
          "type": "uint64"
        },
        {
          "indexed": false,
          "internalType": "address",
          "name": "receiver",
          "type": "address"
        }
      ],
      "name": "ChildChainReceiverUpdated",
      "type": "event"
    },
    {
      "anonymous": false,
      "inputs": [
        {
          "indexed": false,
          "internalType": "bytes",
          "name": "extraArgs",
          "type": "bytes"
        }
      ],
      "name": "ExtraArgsUpdated",
      "type": "event"
    },
    {
      "anonymous": false,
      "inputs": [
        {
          "indexed": false,
          "internalType": "bytes32",
          "name": "messageId",
          "type": "bytes32"
        }
      ],
      "name": "MessageSentVaiCCIP",
      "type": "event"
    },
    {
      "anonymous": false,
      "inputs": [
        {
          "indexed": true,
          "internalType": "address",
          "name": "previousOwner",
          "type": "address"
        },
        {
          "indexed": true,
          "internalType": "address",
          "name": "newOwner",
          "type": "address"
        }
      ],
      "name": "OwnershipTransferStarted",
      "type": "event"
    },
    {
      "anonymous": false,
      "inputs": [
        {
          "indexed": true,
          "internalType": "address",
          "name": "previousOwner",
          "type": "address"
        },
        {
          "indexed": true,
          "internalType": "address",
          "name": "newOwner",
          "type": "address"
        }
      ],
      "name": "OwnershipTransferred",
      "type": "event"
    },
    {
      "anonymous": false,
      "inputs": [
        {
          "indexed": false,
          "internalType": "uint64",
          "name": "dstChainSelector",
          "type": "uint64"
        },
        {
          "components": [
            {
              "internalType": "int128",
              "name": "bias",
              "type": "int128"
            },
            {
              "internalType": "int128",
              "name": "slope",
              "type": "int128"
            },
            {
              "internalType": "uint256",
              "name": "ts",
              "type": "uint256"
            },
            {
              "internalType": "uint256",
              "name": "blk",
              "type": "uint256"
            }
          ],
          "indexed": false,
          "internalType": "struct IVeSilo.Point",
          "name": "totalSupplyPoint",
          "type": "tuple"
        }
      ],
      "name": "SentTotalSupply",
      "type": "event"
    },
    {
      "anonymous": false,
      "inputs": [
        {
          "indexed": false,
          "internalType": "uint64",
          "name": "dstChainSelector",
          "type": "uint64"
        },
        {
          "indexed": false,
          "internalType": "address",
          "name": "localUser",
          "type": "address"
        },
        {
          "indexed": false,
          "internalType": "address",
          "name": "remoteUser",
          "type": "address"
        },
        {
          "components": [
            {
              "internalType": "int128",
              "name": "bias",
              "type": "int128"
            },
            {
              "internalType": "int128",
              "name": "slope",
              "type": "int128"
            },
            {
              "internalType": "uint256",
              "name": "ts",
              "type": "uint256"
            },
            {
              "internalType": "uint256",
              "name": "blk",
              "type": "uint256"
            }
          ],
          "indexed": false,
          "internalType": "struct IVeSilo.Point",
          "name": "userPoint",
          "type": "tuple"
        },
        {
          "components": [
            {
              "internalType": "int128",
              "name": "bias",
              "type": "int128"
            },
            {
              "internalType": "int128",
              "name": "slope",
              "type": "int128"
            },
            {
              "internalType": "uint256",
              "name": "ts",
              "type": "uint256"
            },
            {
              "internalType": "uint256",
              "name": "blk",
              "type": "uint256"
            }
          ],
          "indexed": false,
          "internalType": "struct IVeSilo.Point",
          "name": "totalSupplyPoint",
          "type": "tuple"
        }
      ],
      "name": "SentUserBalance",
      "type": "event"
    },
    {
      "inputs": [],
      "name": "LINK",
      "outputs": [
        {
          "internalType": "address",
          "name": "",
          "type": "address"
        }
      ],
      "stateMutability": "view",
      "type": "function"
    },
    {
      "inputs": [],
      "name": "REMAPPER",
      "outputs": [
        {
          "internalType": "contract IVotingEscrowCCIPRemapper",
          "name": "",
          "type": "address"
        }
      ],
      "stateMutability": "view",
      "type": "function"
    },
    {
      "inputs": [],
      "name": "ROUTER",
      "outputs": [
        {
          "internalType": "address",
          "name": "",
          "type": "address"
        }
      ],
      "stateMutability": "view",
      "type": "function"
    },
    {
      "inputs": [],
      "name": "VOTING_ESCROW",
      "outputs": [
        {
          "internalType": "contract IVeSilo",
          "name": "",
          "type": "address"
        }
      ],
      "stateMutability": "view",
      "type": "function"
    },
    {
      "inputs": [],
      "name": "acceptOwnership",
      "outputs": [],
      "stateMutability": "nonpayable",
      "type": "function"
    },
    {
      "inputs": [
        {
          "internalType": "uint64",
          "name": "dstChainId",
          "type": "uint64"
        }
      ],
      "name": "childChainReceivers",
      "outputs": [
        {
          "internalType": "address",
          "name": "receiver",
          "type": "address"
        }
      ],
      "stateMutability": "view",
      "type": "function"
    },
    {
      "inputs": [
        {
          "internalType": "uint64",
          "name": "_dstChainSelector",
          "type": "uint64"
        },
        {
          "internalType": "enum ICCIPMessageSender.PayFeesIn",
          "name": "_payFeesIn",
          "type": "uint8"
        }
      ],
      "name": "estimateSendTotalSupply",
      "outputs": [
        {
          "internalType": "uint256",
          "name": "fee",
          "type": "uint256"
        }
      ],
      "stateMutability": "view",
      "type": "function"
    },
    {
      "inputs": [
        {
          "internalType": "address",
          "name": "_localUser",
          "type": "address"
        },
        {
          "internalType": "uint64",
          "name": "_dstChainSelector",
          "type": "uint64"
        },
        {
          "internalType": "enum ICCIPMessageSender.PayFeesIn",
          "name": "_payFeesIn",
          "type": "uint8"
        }
      ],
      "name": "estimateSendUserBalance",
      "outputs": [
        {
          "internalType": "uint256",
          "name": "fee",
          "type": "uint256"
        }
      ],
      "stateMutability": "view",
      "type": "function"
    },
    {
      "inputs": [],
      "name": "extraArgs",
      "outputs": [
        {
          "internalType": "bytes",
          "name": "",
          "type": "bytes"
        }
      ],
      "stateMutability": "view",
      "type": "function"
    },
    {
      "inputs": [
        {
          "internalType": "address",
          "name": "_receiver",
          "type": "address"
        },
        {
          "internalType": "bytes",
          "name": "_data",
          "type": "bytes"
        },
        {
          "internalType": "enum ICCIPMessageSender.PayFeesIn",
          "name": "_payFeesIn",
          "type": "uint8"
        }
      ],
      "name": "getCCIPMessage",
      "outputs": [
        {
          "components": [
            {
              "internalType": "bytes",
              "name": "receiver",
              "type": "bytes"
            },
            {
              "internalType": "bytes",
              "name": "data",
              "type": "bytes"
            },
            {
              "components": [
                {
                  "internalType": "address",
                  "name": "token",
                  "type": "address"
                },
                {
                  "internalType": "uint256",
                  "name": "amount",
                  "type": "uint256"
                }
              ],
              "internalType": "struct Client.EVMTokenAmount[]",
              "name": "tokenAmounts",
              "type": "tuple[]"
            },
            {
              "internalType": "address",
              "name": "feeToken",
              "type": "address"
            },
            {
              "internalType": "bytes",
              "name": "extraArgs",
              "type": "bytes"
            }
          ],
          "internalType": "struct Client.EVM2AnyMessage",
          "name": "ccipMessage",
          "type": "tuple"
        }
      ],
      "stateMutability": "view",
      "type": "function"
    },
    {
      "inputs": [],
      "name": "owner",
      "outputs": [
        {
          "internalType": "address",
          "name": "",
          "type": "address"
        }
      ],
      "stateMutability": "view",
      "type": "function"
    },
    {
      "inputs": [],
      "name": "pendingOwner",
      "outputs": [
        {
          "internalType": "address",
          "name": "",
          "type": "address"
        }
      ],
      "stateMutability": "view",
      "type": "function"
    },
    {
      "inputs": [],
      "name": "renounceOwnership",
      "outputs": [],
      "stateMutability": "nonpayable",
      "type": "function"
    },
    {
      "inputs": [
        {
          "internalType": "uint64",
          "name": "_dstChainSelector",
          "type": "uint64"
        },
        {
          "internalType": "enum ICCIPMessageSender.PayFeesIn",
          "name": "_payFeesIn",
          "type": "uint8"
        }
      ],
      "name": "sendTotalSupply",
      "outputs": [],
      "stateMutability": "payable",
      "type": "function"
    },
    {
      "inputs": [
        {
          "internalType": "address",
          "name": "_localUser",
          "type": "address"
        },
        {
          "internalType": "uint64",
          "name": "_dstChainSelector",
          "type": "uint64"
        },
        {
          "internalType": "enum ICCIPMessageSender.PayFeesIn",
          "name": "_payFeesIn",
          "type": "uint8"
        }
      ],
      "name": "sendUserBalance",
      "outputs": [],
      "stateMutability": "payable",
      "type": "function"
    },
    {
      "inputs": [
        {
          "internalType": "uint64",
          "name": "_dstChainSelector",
          "type": "uint64"
        },
        {
          "internalType": "address",
          "name": "_receiver",
          "type": "address"
        }
      ],
      "name": "setChildChainReceiver",
      "outputs": [],
      "stateMutability": "nonpayable",
      "type": "function"
    },
    {
      "inputs": [
        {
          "internalType": "bytes",
          "name": "_extraArgs",
          "type": "bytes"
        }
      ],
      "name": "setExtraArgs",
      "outputs": [],
      "stateMutability": "nonpayable",
      "type": "function"
    },
    {
      "inputs": [
        {
          "internalType": "address",
          "name": "newOwner",
          "type": "address"
        }
      ],
      "name": "transferOwnership",
      "outputs": [],
      "stateMutability": "nonpayable",
      "type": "function"
    }
  ],
  "bytecode": "0x6101006040523480156200001257600080fd5b5060405162002092380380620020928339810160408190526200003591620000f3565b6001600160a01b03828116608052811660a05262000053336200006d565b50506001600160a01b0391821660c0521660e0526200015b565b600280546001600160a01b031916905562000088816200008b565b50565b600180546001600160a01b038381166001600160a01b0319831681179093556040519116919082907f8be0079c531659141344cd1fd0a4f28419497f9722a3daafe3b4186f6b6457e090600090a35050565b6001600160a01b03811681146200008857600080fd5b600080600080608085870312156200010a57600080fd5b84516200011781620000dd565b60208601519094506200012a81620000dd565b60408601519093506200013d81620000dd565b60608601519092506200015081620000dd565b939692955090935050565b60805160a05160c05160e051611e7f620002136000396000818161037a0152611188015260008181610171015281816106b90152818161091a015281816109be01528181610a5a01528181610d2f01528181610eaf01528181610f4501528181610fd70152818161104801526110e1015260008181610120015281816105120152818161129e015261135a0152600081816101c701528181610de10152818161132b015281816113df01526114770152611e7f6000f3fe6080604052600436106101095760003560e01c8063822907b911610095578063e2b66e6411610064578063e2b66e64146102f4578063e30c39781461032a578063e3a6426214610348578063eb32cb5c14610368578063f2fde38b1461039c57600080fd5b8063822907b9146102905780638da5cb5b146102a35780639eb5b8fa146102c1578063d0b61333146102d457600080fd5b80634540b9ca116100dc5780634540b9ca146101e957806356f416931461021657806366f58d8d14610238578063715018a61461026657806379ba50971461027b57600080fd5b80631b6b6d231461010e5780631f87f3331461015f57806326cc37311461019357806332fe7b26146101b5575b600080fd5b34801561011a57600080fd5b506101427f000000000000000000000000000000000000000000000000000000000000000081565b6040516001600160a01b0390911681526020015b60405180910390f35b34801561016b57600080fd5b506101427f000000000000000000000000000000000000000000000000000000000000000081565b34801561019f57600080fd5b506101b36101ae3660046116e2565b6103bc565b005b3480156101c157600080fd5b506101427f000000000000000000000000000000000000000000000000000000000000000081565b3480156101f557600080fd5b506102096102043660046117c2565b61040f565b6040516101569190611982565b34801561022257600080fd5b5061022b6105d7565b6040516101569190611995565b34801561024457600080fd5b506102586102533660046119bf565b610665565b604051908152602001610156565b34801561027257600080fd5b506101b361076c565b34801561028757600080fd5b506101b3610780565b6101b361029e3660046119f2565b6107fa565b3480156102af57600080fd5b506001546001600160a01b0316610142565b6101b36102cf3660046119bf565b6108cb565b3480156102e057600080fd5b506102586102ef3660046119f2565b610b30565b34801561030057600080fd5b5061014261030f366004611a2e565b6003602052600090815260409020546001600160a01b031681565b34801561033657600080fd5b506002546001600160a01b0316610142565b34801561035457600080fd5b506101b3610363366004611a49565b610ba5565b34801561037457600080fd5b506101427f000000000000000000000000000000000000000000000000000000000000000081565b3480156103a857600080fd5b506101b36103b7366004611a80565b610c40565b6103c4610cb1565b60006103d1828483611b25565b507fd7693fa685e87b95e7bd6dc60982f82ce2510fe103f2b5bfa0f842c392c4f0608282604051610403929190611be5565b60405180910390a15050565b61044a6040518060a0016040528060608152602001606081526020016060815260200160006001600160a01b03168152602001606081525090565b6040805160a081019091526001600160a01b03851660c08201528060e0810160405160208183030381529060405281526020018460405160200161048e9190611995565b60408051601f19818403018152919052815260200160006040519080825280602002602001820160405280156104ea57816020015b60408051808201909152600080825260208201528152602001906001900390816104c35790505b508152602001600184600181111561050457610504611c14565b14610510576000610532565b7f00000000000000000000000000000000000000000000000000000000000000005b6001600160a01b031681526020016000805461054d90611a9d565b80601f016020809104026020016040519081016040528092919081815260200182805461057990611a9d565b80156105c65780601f1061059b576101008083540402835291602001916105c6565b820191906000526020600020905b8154815290600101906020018083116105a957829003601f168201915b505050505081525090509392505050565b600080546105e490611a9d565b80601f016020809104026020016040519081016040528092919081815260200182805461061090611a9d565b801561065d5780601f106106325761010080835404028352916020019161065d565b820191906000526020600020905b81548152906001019060200180831161064057829003601f168201915b505050505081565b6001600160401b0382166000908152600360205260408120546001600160a01b0316806106b55760405163db82509560e01b81526001600160401b03851660048201526024015b60405180910390fd5b60007f00000000000000000000000000000000000000000000000000000000000000006001600160a01b031663900cf0cf6040518163ffffffff1660e01b8152600401602060405180830381865afa158015610715573d6000803e3d6000fd5b505050506040513d601f19601f820116820180604052508101906107399190611c2a565b9050600061074682610d0b565b9050600061075584838861040f565b90506107618782610dc7565b979650505050505050565b610774610cb1565b61077e6000610e60565b565b60025433906001600160a01b031681146107ee5760405162461bcd60e51b815260206004820152602960248201527f4f776e61626c6532537465703a2063616c6c6572206973206e6f7420746865206044820152683732bb9037bbb732b960b91b60648201526084016106ac565b6107f781610e60565b50565b6001600160401b0382166000908152600360205260409020546001600160a01b0316806108455760405163db82509560e01b81526001600160401b03841660048201526024016106ac565b600061084f6116b4565b6108576116b4565b60606108638888610e79565b9296509450909250905061087987868389611245565b50610882611533565b7f1778c32ddc98c0d3b94e32293f9b16e6077e4e3164591168175ea208651fe01c87898685876040516108b9959493929190611c6f565b60405180910390a15050505050505050565b6001600160401b0382166000908152600360205260409020546001600160a01b0316806109165760405163db82509560e01b81526001600160401b03841660048201526024016106ac565b60007f00000000000000000000000000000000000000000000000000000000000000006001600160a01b031663900cf0cf6040518163ffffffff1660e01b8152600401602060405180830381865afa158015610976573d6000803e3d6000fd5b505050506040513d601f19601f8201168201806040525081019061099a9190611c2a565b60405163d1febfb960e01b8152600481018290529091506000906001600160a01b037f0000000000000000000000000000000000000000000000000000000000000000169063d1febfb990602401608060405180830381865afa158015610a05573d6000803e3d6000fd5b505050506040513d601f19601f82011682018060405250810190610a299190611ccd565b905060004262093a80836040015181610a4457610a44611d3e565b0462093a800262093a80011090508015610acc577f00000000000000000000000000000000000000000000000000000000000000006001600160a01b031663c2c4c5c16040518163ffffffff1660e01b8152600401600060405180830381600087803b158015610ab357600080fd5b505af1158015610ac7573d6000803e3d6000fd5b505050505b6000610ad784610d0b565b9050610ae587868389611245565b50610aee611533565b7f304595f02fe5f0c14a1e2c386016b931afb266dbffca23122c2a5d246ee3efa28784604051610b1f929190611d54565b60405180910390a150505050505050565b6001600160401b0382166000908152600360205260408120546001600160a01b031680610b7b5760405163db82509560e01b81526001600160401b03851660048201526024016106ac565b6000610b878686610e79565b50509150506000610b9983838761040f565b90506107618682610dc7565b610bad610cb1565b816001600160401b0316600003610bd757604051636cc3468560e11b815260040160405180910390fd5b6001600160401b03821660008181526003602090815260409182902080546001600160a01b0319166001600160a01b0386169081179091558251938452908301527f6130c757780124605e116b6c86e992f476498059365b50be548f1599ff4b70179101610403565b610c48610cb1565b600280546001600160a01b0383166001600160a01b03199091168117909155610c796001546001600160a01b031690565b6001600160a01b03167f38d16b8cac22d99fc7c124b9cd0de2d3fa1faef420bfe791d8c362d765e2270060405160405180910390a350565b6001546001600160a01b0316331461077e5760405162461bcd60e51b815260206004820181905260248201527f4f776e61626c653a2063616c6c6572206973206e6f7420746865206f776e657260448201526064016106ac565b60405163d1febfb960e01b8152600481018290526060906000906001600160a01b037f0000000000000000000000000000000000000000000000000000000000000000169063d1febfb990602401608060405180830381865afa158015610d76573d6000803e3d6000fd5b505050506040513d601f19601f82011682018060405250810190610d9a9190611ccd565b9050600181604051602001610db0929190611d93565b604051602081830303815290604052915050919050565b6040516320487ded60e01b81526000906001600160a01b037f000000000000000000000000000000000000000000000000000000000000000016906320487ded90610e189086908690600401611dae565b602060405180830381865afa158015610e35573d6000803e3d6000fd5b505050506040513d601f19601f82011682018060405250810190610e599190611c2a565b9392505050565b600280546001600160a01b03191690556107f781611544565b60006060610e856116b4565b610e8d6116b4565b60405163010ae75760e01b81526001600160a01b0387811660048301526000917f00000000000000000000000000000000000000000000000000000000000000009091169063010ae75790602401602060405180830381865afa158015610ef8573d6000803e3d6000fd5b505050506040513d601f19601f82011682018060405250810190610f1c9190611c2a565b6040516328d09d4760e01b81526001600160a01b038981166004830152602482018390529192507f0000000000000000000000000000000000000000000000000000000000000000909116906328d09d4790604401608060405180830381865afa158015610f8e573d6000803e3d6000fd5b505050506040513d601f19601f82011682018060405250810190610fb29190611ccd565b60405163adc6358960e01b81526001600160a01b0389811660048301529193506000917f0000000000000000000000000000000000000000000000000000000000000000169063adc6358990602401602060405180830381865afa15801561101e573d6000803e3d6000fd5b505050506040513d601f19601f820116820180604052508101906110429190611c2a565b905060007f00000000000000000000000000000000000000000000000000000000000000006001600160a01b031663900cf0cf6040518163ffffffff1660e01b8152600401602060405180830381865afa1580156110a4573d6000803e3d6000fd5b505050506040513d601f19601f820116820180604052508101906110c89190611c2a565b60405163d1febfb960e01b8152600481018290529091507f00000000000000000000000000000000000000000000000000000000000000006001600160a01b03169063d1febfb990602401608060405180830381865afa158015611130573d6000803e3d6000fd5b505050506040513d601f19601f820116820180604052508101906111549190611ccd565b6040516374de52ff60e11b81526001600160a01b038b811660048301526001600160401b038b1660248301529196506000917f0000000000000000000000000000000000000000000000000000000000000000169063e9bca5fe90604401602060405180830381865afa1580156111cf573d6000803e3d6000fd5b505050506040513d601f19601f820116820180604052508101906111f39190611dd8565b90506001600160a01b038116611209578961120b565b805b9750600088848789604051602001611227959493929190611df5565b60405160208183030381529060405296505050505092959194509250565b60008061125385858561040f565b905060006112618783610dc7565b9050600184600181111561127757611277611c14565b03611460576040516323b872dd60e01b8152336004820152306024820152604481018290527f00000000000000000000000000000000000000000000000000000000000000006001600160a01b0316906323b872dd906064016020604051808303816000875af11580156112ef573d6000803e3d6000fd5b505050506040513d601f19601f820116820180604052508101906113139190611e27565b5060405163095ea7b360e01b81526001600160a01b037f000000000000000000000000000000000000000000000000000000000000000081166004830152602482018390527f0000000000000000000000000000000000000000000000000000000000000000169063095ea7b3906044016020604051808303816000875af11580156113a3573d6000803e3d6000fd5b505050506040513d601f19601f820116820180604052508101906113c79190611e27565b506040516396f4e9f960e01b81526001600160a01b037f000000000000000000000000000000000000000000000000000000000000000016906396f4e9f990611416908a908690600401611dae565b6020604051808303816000875af1158015611435573d6000803e3d6000fd5b505050506040513d601f19601f820116820180604052508101906114599190611c2a565b92506114f6565b6040516396f4e9f960e01b81526001600160a01b037f000000000000000000000000000000000000000000000000000000000000000016906396f4e9f99083906114b0908b908790600401611dae565b60206040518083038185885af11580156114ce573d6000803e3d6000fd5b50505050506040513d601f19601f820116820180604052508101906114f39190611c2a565b92505b6040518381527f43b8b5116d8240ac8639876f2e976471587f211354432ee725e02c30101dd9ea9060200160405180910390a15050949350505050565b4780156107f7576107f73382611596565b600180546001600160a01b038381166001600160a01b0319831681179093556040519116919082907f8be0079c531659141344cd1fd0a4f28419497f9722a3daafe3b4186f6b6457e090600090a35050565b804710156115e65760405162461bcd60e51b815260206004820152601d60248201527f416464726573733a20696e73756666696369656e742062616c616e636500000060448201526064016106ac565b6000826001600160a01b03168260405160006040518083038185875af1925050503d8060008114611633576040519150601f19603f3d011682016040523d82523d6000602084013e611638565b606091505b50509050806116af5760405162461bcd60e51b815260206004820152603a60248201527f416464726573733a20756e61626c6520746f2073656e642076616c75652c207260448201527f6563697069656e74206d6179206861766520726576657274656400000000000060648201526084016106ac565b505050565b60405180608001604052806000600f0b81526020016000600f0b815260200160008152602001600081525090565b600080602083850312156116f557600080fd5b82356001600160401b038082111561170c57600080fd5b818501915085601f83011261172057600080fd5b81358181111561172f57600080fd5b86602082850101111561174157600080fd5b60209290920196919550909350505050565b6001600160a01b03811681146107f757600080fd5b634e487b7160e01b600052604160045260246000fd5b604051601f8201601f191681016001600160401b03811182821017156117a6576117a6611768565b604052919050565b8035600281106117bd57600080fd5b919050565b6000806000606084860312156117d757600080fd5b83356117e281611753565b92506020848101356001600160401b03808211156117ff57600080fd5b818701915087601f83011261181357600080fd5b81358181111561182557611825611768565b611837601f8201601f1916850161177e565b9150808252888482850101111561184d57600080fd5b8084840185840137600084828401015250809450505050611870604085016117ae565b90509250925092565b6000815180845260005b8181101561189f57602081850181015186830182015201611883565b506000602082860101526020601f19601f83011685010191505092915050565b6000815160a084526118d460a0850182611879565b9050602080840151858303828701526118ed8382611879565b60408681015188830389830152805180845290850195509092506000918401905b8083101561194057855180516001600160a01b031683528501518583015294840194600192909201919083019061190e565b506060870151945061195d60608901866001600160a01b03169052565b6080870151945087810360808901526119768186611879565b98975050505050505050565b602081526000610e5960208301846118bf565b602081526000610e596020830184611879565b80356001600160401b03811681146117bd57600080fd5b600080604083850312156119d257600080fd5b6119db836119a8565b91506119e9602084016117ae565b90509250929050565b600080600060608486031215611a0757600080fd5b8335611a1281611753565b9250611a20602085016119a8565b9150611870604085016117ae565b600060208284031215611a4057600080fd5b610e59826119a8565b60008060408385031215611a5c57600080fd5b611a65836119a8565b91506020830135611a7581611753565b809150509250929050565b600060208284031215611a9257600080fd5b8135610e5981611753565b600181811c90821680611ab157607f821691505b602082108103611ad157634e487b7160e01b600052602260045260246000fd5b50919050565b601f8211156116af57600081815260208120601f850160051c81016020861015611afe5750805b601f850160051c820191505b81811015611b1d57828155600101611b0a565b505050505050565b6001600160401b03831115611b3c57611b3c611768565b611b5083611b4a8354611a9d565b83611ad7565b6000601f841160018114611b845760008515611b6c5750838201355b600019600387901b1c1916600186901b178355611bde565b600083815260209020601f19861690835b82811015611bb55786850135825560209485019460019092019101611b95565b5086821015611bd25760001960f88860031b161c19848701351681555b505060018560011b0183555b5050505050565b60208152816020820152818360408301376000818301604090810191909152601f909201601f19160101919050565b634e487b7160e01b600052602160045260246000fd5b600060208284031215611c3c57600080fd5b5051919050565b8051600f0b82526020810151600f0b602083015260408101516040830152606081015160608301525050565b6001600160401b03861681526001600160a01b038581166020830152841660408201526101608101611ca46060830185611c43565b611cb160e0830184611c43565b9695505050505050565b8051600f81900b81146117bd57600080fd5b600060808284031215611cdf57600080fd5b604051608081018181106001600160401b0382111715611d0157611d01611768565b604052611d0d83611cbb565b8152611d1b60208401611cbb565b602082015260408301516040820152606083015160608201528091505092915050565b634e487b7160e01b600052601260045260246000fd5b6001600160401b038316815260a08101610e596020830184611c43565b60028110611d8f57634e487b7160e01b600052602160045260246000fd5b9052565b60a08101611da18285611d71565b610e596020830184611c43565b6001600160401b0383168152604060208201526000611dd060408301846118bf565b949350505050565b600060208284031215611dea57600080fd5b8151610e5981611753565b6101608101611e048288611d71565b6001600160a01b038616602083015260408201859052611ca46060830185611c43565b600060208284031215611e3957600080fd5b81518015158114610e5957600080fdfea2646970667358221220babacd9c0731543ed271541714791ef86d5cefc83121e77388681ff23a925cc364736f6c63430008150033",
  "language": "Solidity",
  "compiler": "0.8.21+commit.d9974bed"
}