{
  "address": "0x70073098984050f5563333Be76BCd94D21d8673A",
  "abi": [
    {
      "inputs": [
        {
          "internalType": "contract IVotingEscrow",
          "name": "votingEscrow",
          "type": "address"
        },
        {
          "internalType": "contract IERC20",
          "name": "_link",
          "type": "address"
        }
      ],
      "stateMutability": "nonpayable",
      "type": "constructor"
    },
    {
      "anonymous": false,
      "inputs": [
        {
          "indexed": true,
          "internalType": "address",
          "name": "localUser",
          "type": "address"
        },
        {
          "indexed": true,
          "internalType": "address",
          "name": "delegate",
          "type": "address"
        }
      ],
      "name": "AddressDelegateUpdated",
      "type": "event"
    },
    {
      "anonymous": false,
      "inputs": [
        {
          "indexed": true,
          "internalType": "address",
          "name": "localUser",
          "type": "address"
        },
        {
          "indexed": true,
          "internalType": "address",
          "name": "remoteUser",
          "type": "address"
        },
        {
          "indexed": true,
          "internalType": "uint64",
          "name": "chainId",
          "type": "uint64"
        }
      ],
      "name": "AddressMappingUpdated",
      "type": "event"
    },
    {
      "anonymous": false,
      "inputs": [
        {
          "indexed": true,
          "internalType": "address",
          "name": "previousOwner",
          "type": "address"
        },
        {
          "indexed": true,
          "internalType": "address",
          "name": "newOwner",
          "type": "address"
        }
      ],
      "name": "OwnershipTransferStarted",
      "type": "event"
    },
    {
      "anonymous": false,
      "inputs": [
        {
          "indexed": true,
          "internalType": "address",
          "name": "previousOwner",
          "type": "address"
        },
        {
          "indexed": true,
          "internalType": "address",
          "name": "newOwner",
          "type": "address"
        }
      ],
      "name": "OwnershipTransferred",
      "type": "event"
    },
    {
      "anonymous": false,
      "inputs": [
        {
          "indexed": true,
          "internalType": "address",
          "name": "remoteUser",
          "type": "address"
        },
        {
          "indexed": true,
          "internalType": "uint64",
          "name": "chainId",
          "type": "uint64"
        }
      ],
      "name": "RemoteAddressMappingCleared",
      "type": "event"
    },
    {
      "anonymous": false,
      "inputs": [
        {
          "indexed": false,
          "internalType": "contract IVeSiloDelegatorViaCCIP",
          "name": "delegator",
          "type": "address"
        }
      ],
      "name": "VeSiloDelegatorUpdated",
      "type": "event"
    },
    {
      "inputs": [],
      "name": "LINK",
      "outputs": [
        {
          "internalType": "contract IERC20",
          "name": "",
          "type": "address"
        }
      ],
      "stateMutability": "view",
      "type": "function"
    },
    {
      "inputs": [],
      "name": "acceptOwnership",
      "outputs": [],
      "stateMutability": "nonpayable",
      "type": "function"
    },
    {
      "inputs": [
        {
          "internalType": "address",
          "name": "localUser",
          "type": "address"
        },
        {
          "internalType": "uint64",
          "name": "chainId",
          "type": "uint64"
        },
        {
          "internalType": "enum ICCIPMessageSender.PayFeesIn",
          "name": "payFeesIn",
          "type": "uint8"
        }
      ],
      "name": "clearNetworkRemapping",
      "outputs": [],
      "stateMutability": "payable",
      "type": "function"
    },
    {
      "inputs": [
        {
          "internalType": "address",
          "name": "remoteUser",
          "type": "address"
        },
        {
          "internalType": "uint64",
          "name": "chainId",
          "type": "uint64"
        }
      ],
      "name": "getLocalUser",
      "outputs": [
        {
          "internalType": "address",
          "name": "",
          "type": "address"
        }
      ],
      "stateMutability": "view",
      "type": "function"
    },
    {
      "inputs": [
        {
          "internalType": "address",
          "name": "user",
          "type": "address"
        }
      ],
      "name": "getLockedEnd",
      "outputs": [
        {
          "internalType": "uint256",
          "name": "",
          "type": "uint256"
        }
      ],
      "stateMutability": "view",
      "type": "function"
    },
    {
      "inputs": [
        {
          "internalType": "address",
          "name": "localUser",
          "type": "address"
        }
      ],
      "name": "getRemappingManager",
      "outputs": [
        {
          "internalType": "address",
          "name": "",
          "type": "address"
        }
      ],
      "stateMutability": "view",
      "type": "function"
    },
    {
      "inputs": [
        {
          "internalType": "address",
          "name": "localUser",
          "type": "address"
        },
        {
          "internalType": "uint64",
          "name": "chainId",
          "type": "uint64"
        }
      ],
      "name": "getRemoteUser",
      "outputs": [
        {
          "internalType": "address",
          "name": "",
          "type": "address"
        }
      ],
      "stateMutability": "view",
      "type": "function"
    },
    {
      "inputs": [],
      "name": "getTotalSupplyPoint",
      "outputs": [
        {
          "components": [
            {
              "internalType": "int128",
              "name": "bias",
              "type": "int128"
            },
            {
              "internalType": "int128",
              "name": "slope",
              "type": "int128"
            },
            {
              "internalType": "uint256",
              "name": "ts",
              "type": "uint256"
            },
            {
              "internalType": "uint256",
              "name": "blk",
              "type": "uint256"
            }
          ],
          "internalType": "struct IVotingEscrow.Point",
          "name": "",
          "type": "tuple"
        }
      ],
      "stateMutability": "view",
      "type": "function"
    },
    {
      "inputs": [
        {
          "internalType": "address",
          "name": "user",
          "type": "address"
        }
      ],
      "name": "getUserPoint",
      "outputs": [
        {
          "components": [
            {
              "internalType": "int128",
              "name": "bias",
              "type": "int128"
            },
            {
              "internalType": "int128",
              "name": "slope",
              "type": "int128"
            },
            {
              "internalType": "uint256",
              "name": "ts",
              "type": "uint256"
            },
            {
              "internalType": "uint256",
              "name": "blk",
              "type": "uint256"
            }
          ],
          "internalType": "struct IVotingEscrow.Point",
          "name": "",
          "type": "tuple"
        }
      ],
      "stateMutability": "view",
      "type": "function"
    },
    {
      "inputs": [],
      "name": "getVeSiloDelegator",
      "outputs": [
        {
          "internalType": "contract IVeSiloDelegatorViaCCIP",
          "name": "",
          "type": "address"
        }
      ],
      "stateMutability": "view",
      "type": "function"
    },
    {
      "inputs": [],
      "name": "getVotingEscrow",
      "outputs": [
        {
          "internalType": "contract IVotingEscrow",
          "name": "",
          "type": "address"
        }
      ],
      "stateMutability": "view",
      "type": "function"
    },
    {
      "inputs": [],
      "name": "owner",
      "outputs": [
        {
          "internalType": "address",
          "name": "",
          "type": "address"
        }
      ],
      "stateMutability": "view",
      "type": "function"
    },
    {
      "inputs": [],
      "name": "pendingOwner",
      "outputs": [
        {
          "internalType": "address",
          "name": "",
          "type": "address"
        }
      ],
      "stateMutability": "view",
      "type": "function"
    },
    {
      "inputs": [],
      "name": "renounceOwnership",
      "outputs": [],
      "stateMutability": "nonpayable",
      "type": "function"
    },
    {
      "inputs": [
        {
          "internalType": "address",
          "name": "localUser",
          "type": "address"
        },
        {
          "internalType": "address",
          "name": "remoteUser",
          "type": "address"
        },
        {
          "internalType": "uint64",
          "name": "chainId",
          "type": "uint64"
        },
        {
          "internalType": "enum ICCIPMessageSender.PayFeesIn",
          "name": "payFeesIn",
          "type": "uint8"
        }
      ],
      "name": "setNetworkRemapping",
      "outputs": [],
      "stateMutability": "payable",
      "type": "function"
    },
    {
      "inputs": [
        {
          "internalType": "address",
          "name": "localUser",
          "type": "address"
        },
        {
          "internalType": "address",
          "name": "delegate",
          "type": "address"
        }
      ],
      "name": "setNetworkRemappingManager",
      "outputs": [],
      "stateMutability": "nonpayable",
      "type": "function"
    },
    {
      "inputs": [
        {
          "internalType": "contract IVeSiloDelegatorViaCCIP",
          "name": "_delegator",
          "type": "address"
        }
      ],
      "name": "setVeSiloDelegator",
      "outputs": [],
      "stateMutability": "nonpayable",
      "type": "function"
    },
    {
      "inputs": [
        {
          "internalType": "address",
          "name": "newOwner",
          "type": "address"
        }
      ],
      "name": "transferOwnership",
      "outputs": [],
      "stateMutability": "nonpayable",
      "type": "function"
    }
  ],
  "bytecode": "0x60c06040523480156200001157600080fd5b5060405162001dd538038062001dd58339810160408190526200003491620000e0565b6200003f336200005c565b60016002556001600160a01b0391821660a052166080526200011f565b600180546001600160a01b031916905562000077816200007a565b50565b600080546001600160a01b038381166001600160a01b0319831681178455604051919092169283917f8be0079c531659141344cd1fd0a4f28419497f9722a3daafe3b4186f6b6457e09190a35050565b6001600160a01b03811681146200007757600080fd5b60008060408385031215620000f457600080fd5b82516200010181620000ca565b60208401519092506200011481620000ca565b809150509250929050565b60805160a051611c5f62000176600039600081816101540152818161070401528181610aa101528181610dfb01528181611104015261125801526000818161018a0152818161173f01526117db0152611c5f6000f3fe6080604052600436106101095760003560e01c806379ba509711610095578063e30c397811610064578063e30c397814610334578063e9bca5fe14610352578063ee98b1e71461039e578063f2fde38b146103d7578063f6f4a332146103f757600080fd5b806379ba5097146102955780638da5cb5b146102aa578063a9f3f44e146102c8578063d2f54230146102e857600080fd5b80633e7df7c8116100dc5780633e7df7c8146101c15780634f0f0f23146101ef57806360fd6f1f14610202578063715018a61461022257806371628bfd1461023757600080fd5b8063085e87891461010e57806308b0308a146101455780631b6b6d23146101785780632c032ddc146101ac575b600080fd5b34801561011a57600080fd5b506003546001600160a01b03165b6040516001600160a01b0390911681526020015b60405180910390f35b34801561015157600080fd5b507f0000000000000000000000000000000000000000000000000000000000000000610128565b34801561018457600080fd5b506101287f000000000000000000000000000000000000000000000000000000000000000081565b6101bf6101ba36600461194b565b61040c565b005b3480156101cd57600080fd5b506101e16101dc366004611990565b610700565b60405190815260200161013c565b6101bf6101fd3660046119ad565b610795565b34801561020e57600080fd5b506101bf61021d366004611990565b610d65565b34801561022e57600080fd5b506101bf610dc1565b34801561024357600080fd5b50610257610252366004611990565b610dd5565b60405161013c919060006080820190508251600f0b82526020830151600f0b6020830152604083015160408301526060830151606083015292915050565b3480156102a157600080fd5b506101bf610f07565b3480156102b657600080fd5b506000546001600160a01b0316610128565b3480156102d457600080fd5b506101bf6102e3366004611a05565b610f81565b3480156102f457600080fd5b50610128610303366004611a3e565b6001600160401b031660009081526005602090815260408083206001600160a01b0394851684529091529020541690565b34801561034057600080fd5b506001546001600160a01b0316610128565b34801561035e57600080fd5b5061012861036d366004611a3e565b6001600160401b031660009081526004602090815260408083206001600160a01b0394851684529091529020541690565b3480156103aa57600080fd5b506101286103b9366004611990565b6001600160a01b039081166000908152600660205260409020541690565b3480156103e357600080fd5b506101bf6103f2366004611990565b61106d565b34801561040357600080fd5b506102576110de565b6104146111fc565b6001600160a01b03831661046f5760405162461bcd60e51b815260206004820181905260248201527f6c6f63616c557365722063616e6e6f74206265207a65726f206164647265737360448201526064015b60405180910390fd5b61047883611253565b158061048c57506001600160a01b03831633145b6104e45760405162461bcd60e51b815260206004820152602360248201527f6c6f63616c55736572206973207374696c6c20696e20676f6f64207374616e64604482015262696e6760e81b6064820152608401610466565b6001600160401b03821660009081526004602090815260408083206001600160a01b038088168552925290912054168061056a5760405162461bcd60e51b815260206004820152602160248201527f52656d617070696e6720746f20636c65617220646f6573206e6f7420657869736044820152601d60fa1b6064820152608401610466565b6001600160401b03831660008181526005602090815260408083206001600160a01b03808716855290835281842080546001600160a01b031990811690915585855260048452828520918a16808652919093528184208054909316909255517fa9356fd598535f015ff925c93b518bdb018b481543b0deebfec82e0d16107094908390a46040516001600160401b038416906001600160a01b038316907f5604161eb0c2583fb177c349a4567712e92a81c91d0186c8977b67cd64dfadf490600090a360035460405163d0b6133360e01b81526000916001600160a01b03169063d0b613339061066290889088908890600401611a89565b602060405180830381865afa15801561067f573d6000803e3d6000fd5b505050506040513d601f19601f820116820180604052508101906106a39190611ad4565b905060008360018111156106b9576106b9611a73565b036106d0576106cb818387878761134d565b6106dd565b6106dd8183878787611482565b4780156106ee576106ee3382611583565b5050506106fb6001600255565b505050565b60007f000000000000000000000000000000000000000000000000000000000000000060405163adc6358960e01b81526001600160a01b038481166004830152919091169063adc6358990602401602060405180830381865afa15801561076b573d6000803e3d6000fd5b505050506040513d601f19601f8201168201806040525081019061078f9190611ad4565b92915050565b61079d6111fc565b6107d8336001600160a01b03861614806107d057506001600160a01b038581166000908152600660205260409020541633145b61019161169c565b6107e184611253565b6108535760405162461bcd60e51b815260206004820152603860248201527f4f6e6c7920636f6e7472616374732077686963682063616e20686f6c6420766560448201527f42414c2063616e207365742075702061206d617070696e6700000000000000006064820152608401610466565b6001600160a01b0383166108bc5760405162461bcd60e51b815260206004820152602a60248201527f5a65726f20616464726573732063616e6e6f742062652075736564206173207260448201526932b6b7ba32903ab9b2b960b11b6064820152608401610466565b6001600160401b03821660009081526005602090815260408083206001600160a01b03878116855292529091205416156109555760405162461bcd60e51b815260206004820152603460248201527f43616e6e6f74206f766572777269746520616e206578697374696e67206d61706044820152733834b73390313c9030b737ba3432b9103ab9b2b960611b6064820152608401610466565b6001600160401b03821660009081526004602090815260408083206001600160a01b03878116855292529091205416156109eb5760405162461bcd60e51b815260206004820152603160248201527f43616e6e6f742072656d617020746f20616e2061646472657373207468617420604482015270697320696e20757365206c6f63616c6c7960781b6064820152608401610466565b6001600160401b03821660009081526005602090815260408083206001600160a01b0388811685529252909120541615610a825760405162461bcd60e51b815260206004820152603260248201527f43616e6e6f742072656d617020746f20616e2061646472657373207468617420604482015271697320696e207573652072656d6f74656c7960701b6064820152608401610466565b6040516370a0823160e01b81526001600160a01b0384811660048301527f000000000000000000000000000000000000000000000000000000000000000016906370a0823190602401602060405180830381865afa158015610ae8573d6000803e3d6000fd5b505050506040513d601f19601f82011682018060405250810190610b0c9190611ad4565b15610b725760405162461bcd60e51b815260206004820152603060248201527f5461726765742072656d6f7465206164647265737320686173206e6f6e2d7a6560448201526f726f20766542414c2062616c616e636560801b6064820152608401610466565b6001600160401b03821660009081526004602090815260408083206001600160a01b038089168552925290912054168015610c09576001600160401b03831660008181526005602090815260408083206001600160a01b038616808552925280832080546001600160a01b03191690555190917f5604161eb0c2583fb177c349a4567712e92a81c91d0186c8977b67cd64dfadf491a35b6001600160401b03831660008181526005602090815260408083206001600160a01b03808a168086529184528285208054918c166001600160a01b0319928316811790915586865260048552838620818752909452828520805490911682179055905190927fa9356fd598535f015ff925c93b518bdb018b481543b0deebfec82e0d1610709491a460035460405163d0b6133360e01b81526000916001600160a01b03169063d0b6133390610cc690899088908890600401611a89565b602060405180830381865afa158015610ce3573d6000803e3d6000fd5b505050506040513d601f19601f82011682018060405250810190610d079190611ad4565b90506000836001811115610d1d57610d1d611a73565b03610d3457610d2f818388878761134d565b610d41565b610d418183888787611482565b478015610d5257610d523382611583565b505050610d5f6001600255565b50505050565b610d6d6116aa565b600380546001600160a01b0319166001600160a01b0383169081179091556040519081527fbd762807e524b55a30b2afbd210c5b14924702412eb01c37f71d833a1004a1f89060200160405180910390a150565b610dc96116aa565b610dd36000611704565b565b6040805160808101825260008082526020820181905291810182905260608101829052907f000000000000000000000000000000000000000000000000000000000000000060405163010ae75760e01b81526001600160a01b03858116600483015291925060009183169063010ae75790602401602060405180830381865afa158015610e66573d6000803e3d6000fd5b505050506040513d601f19601f82011682018060405250810190610e8a9190611ad4565b6040516328d09d4760e01b81526001600160a01b03868116600483015260248201839052919250908316906328d09d4790604401608060405180830381865afa158015610edb573d6000803e3d6000fd5b505050506040513d601f19601f82011682018060405250810190610eff9190611aff565b949350505050565b60015433906001600160a01b03168114610f755760405162461bcd60e51b815260206004820152602960248201527f4f776e61626c6532537465703a2063616c6c6572206973206e6f7420746865206044820152683732bb9037bbb732b960b91b6064820152608401610466565b610f7e81611704565b50565b610f896116aa565b610f916111fc565b610f9a82611253565b61100c5760405162461bcd60e51b815260206004820152603760248201527f4f6e6c7920636f6e7472616374732077686963682063616e20686f6c6420766560448201527f42414c206d6179206861766520612064656c65676174650000000000000000006064820152608401610466565b6001600160a01b0382811660008181526006602052604080822080546001600160a01b0319169486169485179055517f72cff3a94768f9930e59d7a01948e45bea689391918693c8d164c16f271c46d99190a36110696001600255565b5050565b6110756116aa565b600180546001600160a01b0383166001600160a01b031990911681179091556110a66000546001600160a01b031690565b6001600160a01b03167f38d16b8cac22d99fc7c124b9cd0de2d3fa1faef420bfe791d8c362d765e2270060405160405180910390a350565b6040805160808101825260008082526020820181905291810182905260608101829052907f000000000000000000000000000000000000000000000000000000000000000090506000816001600160a01b031663900cf0cf6040518163ffffffff1660e01b8152600401602060405180830381865afa158015611165573d6000803e3d6000fd5b505050506040513d601f19601f820116820180604052508101906111899190611ad4565b60405163d1febfb960e01b8152600481018290529091506001600160a01b0383169063d1febfb990602401608060405180830381865afa1580156111d1573d6000803e3d6000fd5b505050506040513d601f19601f820116820180604052508101906111f59190611aff565b9250505090565b600280540361124d5760405162461bcd60e51b815260206004820152601f60248201527f5265656e7472616e637947756172643a207265656e7472616e742063616c6c006044820152606401610466565b60028055565b6000807f00000000000000000000000000000000000000000000000000000000000000006001600160a01b0316637175d4f76040518163ffffffff1660e01b8152600401602060405180830381865afa1580156112b4573d6000803e3d6000fd5b505050506040513d601f19601f820116820180604052508101906112d89190611b7e565b604051631846d2f560e31b81526001600160a01b0385811660048301529192509082169063c23697a890602401602060405180830381865afa158015611322573d6000803e3d6000fd5b505050506040513d601f19601f820116820180604052508101906113469190611b9b565b9392505050565b6003546001600160a01b03908116908516156113f65761136e866002611bbd565b34101561138d5760405162461bcd60e51b815260040161046690611be2565b60405163822907b960e01b81526001600160a01b0382169063822907b99088906113bf90899088908890600401611a89565b6000604051808303818588803b1580156113d857600080fd5b505af11580156113ec573d6000803e3d6000fd5b5050505050611416565b853410156114165760405162461bcd60e51b815260040161046690611be2565b60405163822907b960e01b81526001600160a01b0382169063822907b990889061144890889088908890600401611a89565b6000604051808303818588803b15801561146157600080fd5b505af1158015611475573d6000803e3d6000fd5b5050505050505050505050565b6003546001600160a01b039081169085161561150f578560020295506114a8818761171d565b60405163822907b960e01b81526001600160a01b0382169063822907b9906114d890889087908790600401611a89565b600060405180830381600087803b1580156114f257600080fd5b505af1158015611506573d6000803e3d6000fd5b50505050611519565b611519818761171d565b60405163822907b960e01b81526001600160a01b0382169063822907b99061154990879087908790600401611a89565b600060405180830381600087803b15801561156357600080fd5b505af1158015611577573d6000803e3d6000fd5b50505050505050505050565b804710156115d35760405162461bcd60e51b815260206004820152601d60248201527f416464726573733a20696e73756666696369656e742062616c616e63650000006044820152606401610466565b6000826001600160a01b03168260405160006040518083038185875af1925050503d8060008114611620576040519150601f19603f3d011682016040523d82523d6000602084013e611625565b606091505b50509050806106fb5760405162461bcd60e51b815260206004820152603a60248201527f416464726573733a20756e61626c6520746f2073656e642076616c75652c207260448201527f6563697069656e74206d617920686176652072657665727465640000000000006064820152608401610466565b816110695761106981611848565b6000546001600160a01b03163314610dd35760405162461bcd60e51b815260206004820181905260248201527f4f776e61626c653a2063616c6c6572206973206e6f7420746865206f776e65726044820152606401610466565b600180546001600160a01b0319169055610f7e81611858565b6040516323b872dd60e01b8152336004820152306024820152604481018290527f00000000000000000000000000000000000000000000000000000000000000006001600160a01b0316906323b872dd906064016020604051808303816000875af1158015611790573d6000803e3d6000fd5b505050506040513d601f19601f820116820180604052508101906117b49190611b9b565b5060405163095ea7b360e01b81526001600160a01b038381166004830152602482018390527f0000000000000000000000000000000000000000000000000000000000000000169063095ea7b3906044016020604051808303816000875af1158015611824573d6000803e3d6000fd5b505050506040513d601f19601f820116820180604052508101906106fb9190611b9b565b610f7e816210905360ea1b6118a8565b600080546001600160a01b038381166001600160a01b0319831681178455604051919092169283917f8be0079c531659141344cd1fd0a4f28419497f9722a3daafe3b4186f6b6457e09190a35050565b62461bcd60e51b600090815260206004526007602452600a808404818106603090810160081b958390069590950190829004918206850160101b01602363ffffff0060e086901c160160181b0190930160c81b604481905260e883901c91606490fd5b6001600160a01b0381168114610f7e57600080fd5b80356001600160401b038116811461193757600080fd5b919050565b80356002811061193757600080fd5b60008060006060848603121561196057600080fd5b833561196b8161190b565b925061197960208501611920565b91506119876040850161193c565b90509250925092565b6000602082840312156119a257600080fd5b81356113468161190b565b600080600080608085870312156119c357600080fd5b84356119ce8161190b565b935060208501356119de8161190b565b92506119ec60408601611920565b91506119fa6060860161193c565b905092959194509250565b60008060408385031215611a1857600080fd5b8235611a238161190b565b91506020830135611a338161190b565b809150509250929050565b60008060408385031215611a5157600080fd5b8235611a5c8161190b565b9150611a6a60208401611920565b90509250929050565b634e487b7160e01b600052602160045260246000fd5b6001600160a01b03841681526001600160401b03831660208201526060810160028310611ac657634e487b7160e01b600052602160045260246000fd5b826040830152949350505050565b600060208284031215611ae657600080fd5b5051919050565b8051600f81900b811461193757600080fd5b600060808284031215611b1157600080fd5b604051608081018181106001600160401b0382111715611b4157634e487b7160e01b600052604160045260246000fd5b604052611b4d83611aed565b8152611b5b60208401611aed565b602082015260408301516040820152606083015160608201528091505092915050565b600060208284031215611b9057600080fd5b81516113468161190b565b600060208284031215611bad57600080fd5b8151801515811461134657600080fd5b808202811582820484141761078f57634e487b7160e01b600052601160045260246000fd5b60208082526027908201527f496e73756666696369656e742045544820746f2062726964676520757365722060408201526662616c616e636560c81b60608201526080019056fea2646970667358221220a3b4926d041b646026a5d608511e7c21d273b6285c60952818ce177c505660ce64736f6c63430008150033",
  "language": "Solidity",
  "compiler": "0.8.21+commit.d9974bed"
}