{
  "_format": "hh-sol-artifact-1",
  "contractName": "MockYearnTokenVault",
  "sourceName": "contracts/test/MockYearnTokenVault.sol",
  "abi": [
    {
      "inputs": [
        {
          "internalType": "string",
          "name": "name",
          "type": "string"
        },
        {
          "internalType": "string",
          "name": "symbol",
          "type": "string"
        },
        {
          "internalType": "uint8",
          "name": "decimals",
          "type": "uint8"
        },
        {
          "internalType": "contract IERC20",
          "name": "underlyingAsset",
          "type": "address"
        }
      ],
      "stateMutability": "nonpayable",
      "type": "constructor"
    },
    {
      "anonymous": false,
      "inputs": [
        {
          "indexed": true,
          "internalType": "address",
          "name": "owner",
          "type": "address"
        },
        {
          "indexed": true,
          "internalType": "address",
          "name": "spender",
          "type": "address"
        },
        {
          "indexed": false,
          "internalType": "uint256",
          "name": "value",
          "type": "uint256"
        }
      ],
      "name": "Approval",
      "type": "event"
    },
    {
      "anonymous": false,
      "inputs": [
        {
          "indexed": true,
          "internalType": "address",
          "name": "from",
          "type": "address"
        },
        {
          "indexed": true,
          "internalType": "address",
          "name": "to",
          "type": "address"
        },
        {
          "indexed": false,
          "internalType": "uint256",
          "name": "value",
          "type": "uint256"
        }
      ],
      "name": "Transfer",
      "type": "event"
    },
    {
      "inputs": [],
      "name": "DOMAIN_SEPARATOR",
      "outputs": [
        {
          "internalType": "bytes32",
          "name": "",
          "type": "bytes32"
        }
      ],
      "stateMutability": "view",
      "type": "function"
    },
    {
      "inputs": [
        {
          "internalType": "address",
          "name": "owner",
          "type": "address"
        },
        {
          "internalType": "address",
          "name": "spender",
          "type": "address"
        }
      ],
      "name": "allowance",
      "outputs": [
        {
          "internalType": "uint256",
          "name": "",
          "type": "uint256"
        }
      ],
      "stateMutability": "view",
      "type": "function"
    },
    {
      "inputs": [
        {
          "internalType": "address",
          "name": "spender",
          "type": "address"
        },
        {
          "internalType": "uint256",
          "name": "amount",
          "type": "uint256"
        }
      ],
      "name": "approve",
      "outputs": [
        {
          "internalType": "bool",
          "name": "",
          "type": "bool"
        }
      ],
      "stateMutability": "nonpayable",
      "type": "function"
    },
    {
      "inputs": [
        {
          "internalType": "address",
          "name": "account",
          "type": "address"
        }
      ],
      "name": "balanceOf",
      "outputs": [
        {
          "internalType": "uint256",
          "name": "",
          "type": "uint256"
        }
      ],
      "stateMutability": "view",
      "type": "function"
    },
    {
      "inputs": [
        {
          "internalType": "uint256",
          "name": "amount",
          "type": "uint256"
        }
      ],
      "name": "burn",
      "outputs": [],
      "stateMutability": "nonpayable",
      "type": "function"
    },
    {
      "inputs": [
        {
          "internalType": "address",
          "name": "account",
          "type": "address"
        },
        {
          "internalType": "uint256",
          "name": "amount",
          "type": "uint256"
        }
      ],
      "name": "burnFrom",
      "outputs": [],
      "stateMutability": "nonpayable",
      "type": "function"
    },
    {
      "inputs": [
        {
          "internalType": "address",
          "name": "sender",
          "type": "address"
        },
        {
          "internalType": "uint256",
          "name": "amount",
          "type": "uint256"
        }
      ],
      "name": "burnWithoutAllowance",
      "outputs": [],
      "stateMutability": "nonpayable",
      "type": "function"
    },
    {
      "inputs": [],
      "name": "decimals",
      "outputs": [
        {
          "internalType": "uint8",
          "name": "",
          "type": "uint8"
        }
      ],
      "stateMutability": "view",
      "type": "function"
    },
    {
      "inputs": [
        {
          "internalType": "address",
          "name": "spender",
          "type": "address"
        },
        {
          "internalType": "uint256",
          "name": "subtractedValue",
          "type": "uint256"
        }
      ],
      "name": "decreaseAllowance",
      "outputs": [
        {
          "internalType": "bool",
          "name": "",
          "type": "bool"
        }
      ],
      "stateMutability": "nonpayable",
      "type": "function"
    },
    {
      "inputs": [
        {
          "internalType": "uint256",
          "name": "amount",
          "type": "uint256"
        },
        {
          "internalType": "address",
          "name": "recipient",
          "type": "address"
        }
      ],
      "name": "deposit",
      "outputs": [
        {
          "internalType": "uint256",
          "name": "",
          "type": "uint256"
        }
      ],
      "stateMutability": "nonpayable",
      "type": "function"
    },
    {
      "inputs": [
        {
          "internalType": "uint256",
          "name": "wrappedAmount",
          "type": "uint256"
        }
      ],
      "name": "fromYearn",
      "outputs": [
        {
          "internalType": "uint256",
          "name": "",
          "type": "uint256"
        }
      ],
      "stateMutability": "view",
      "type": "function"
    },
    {
      "inputs": [],
      "name": "getDomainSeparator",
      "outputs": [
        {
          "internalType": "bytes32",
          "name": "",
          "type": "bytes32"
        }
      ],
      "stateMutability": "view",
      "type": "function"
    },
    {
      "inputs": [
        {
          "internalType": "address",
          "name": "account",
          "type": "address"
        }
      ],
      "name": "getNextNonce",
      "outputs": [
        {
          "internalType": "uint256",
          "name": "",
          "type": "uint256"
        }
      ],
      "stateMutability": "view",
      "type": "function"
    },
    {
      "inputs": [
        {
          "internalType": "address",
          "name": "spender",
          "type": "address"
        },
        {
          "internalType": "uint256",
          "name": "addedValue",
          "type": "uint256"
        }
      ],
      "name": "increaseAllowance",
      "outputs": [
        {
          "internalType": "bool",
          "name": "",
          "type": "bool"
        }
      ],
      "stateMutability": "nonpayable",
      "type": "function"
    },
    {
      "inputs": [
        {
          "internalType": "address",
          "name": "recipient",
          "type": "address"
        },
        {
          "internalType": "uint256",
          "name": "amount",
          "type": "uint256"
        }
      ],
      "name": "mint",
      "outputs": [],
      "stateMutability": "nonpayable",
      "type": "function"
    },
    {
      "inputs": [],
      "name": "name",
      "outputs": [
        {
          "internalType": "string",
          "name": "",
          "type": "string"
        }
      ],
      "stateMutability": "view",
      "type": "function"
    },
    {
      "inputs": [
        {
          "internalType": "address",
          "name": "owner",
          "type": "address"
        }
      ],
      "name": "nonces",
      "outputs": [
        {
          "internalType": "uint256",
          "name": "",
          "type": "uint256"
        }
      ],
      "stateMutability": "view",
      "type": "function"
    },
    {
      "inputs": [
        {
          "internalType": "address",
          "name": "owner",
          "type": "address"
        },
        {
          "internalType": "address",
          "name": "spender",
          "type": "address"
        },
        {
          "internalType": "uint256",
          "name": "value",
          "type": "uint256"
        },
        {
          "internalType": "uint256",
          "name": "deadline",
          "type": "uint256"
        },
        {
          "internalType": "uint8",
          "name": "v",
          "type": "uint8"
        },
        {
          "internalType": "bytes32",
          "name": "r",
          "type": "bytes32"
        },
        {
          "internalType": "bytes32",
          "name": "s",
          "type": "bytes32"
        }
      ],
      "name": "permit",
      "outputs": [],
      "stateMutability": "nonpayable",
      "type": "function"
    },
    {
      "inputs": [],
      "name": "pricePerShare",
      "outputs": [
        {
          "internalType": "uint256",
          "name": "",
          "type": "uint256"
        }
      ],
      "stateMutability": "view",
      "type": "function"
    },
    {
      "inputs": [
        {
          "internalType": "uint256",
          "name": "newRate",
          "type": "uint256"
        }
      ],
      "name": "setRate",
      "outputs": [],
      "stateMutability": "nonpayable",
      "type": "function"
    },
    {
      "inputs": [],
      "name": "symbol",
      "outputs": [
        {
          "internalType": "string",
          "name": "",
          "type": "string"
        }
      ],
      "stateMutability": "view",
      "type": "function"
    },
    {
      "inputs": [
        {
          "internalType": "uint256",
          "name": "mainAmount",
          "type": "uint256"
        }
      ],
      "name": "toYearn",
      "outputs": [
        {
          "internalType": "uint256",
          "name": "",
          "type": "uint256"
        }
      ],
      "stateMutability": "view",
      "type": "function"
    },
    {
      "inputs": [],
      "name": "token",
      "outputs": [
        {
          "internalType": "address",
          "name": "",
          "type": "address"
        }
      ],
      "stateMutability": "view",
      "type": "function"
    },
    {
      "inputs": [],
      "name": "totalSupply",
      "outputs": [
        {
          "internalType": "uint256",
          "name": "",
          "type": "uint256"
        }
      ],
      "stateMutability": "view",
      "type": "function"
    },
    {
      "inputs": [
        {
          "internalType": "address",
          "name": "recipient",
          "type": "address"
        },
        {
          "internalType": "uint256",
          "name": "amount",
          "type": "uint256"
        }
      ],
      "name": "transfer",
      "outputs": [
        {
          "internalType": "bool",
          "name": "",
          "type": "bool"
        }
      ],
      "stateMutability": "nonpayable",
      "type": "function"
    },
    {
      "inputs": [
        {
          "internalType": "address",
          "name": "sender",
          "type": "address"
        },
        {
          "internalType": "address",
          "name": "recipient",
          "type": "address"
        },
        {
          "internalType": "uint256",
          "name": "amount",
          "type": "uint256"
        }
      ],
      "name": "transferFrom",
      "outputs": [
        {
          "internalType": "bool",
          "name": "",
          "type": "bool"
        }
      ],
      "stateMutability": "nonpayable",
      "type": "function"
    },
    {
      "inputs": [
        {
          "internalType": "uint256",
          "name": "wrappedAmount",
          "type": "uint256"
        },
        {
          "internalType": "address",
          "name": "recipient",
          "type": "address"
        }
      ],
      "name": "withdraw",
      "outputs": [
        {
          "internalType": "uint256",
          "name": "",
          "type": "uint256"
        }
      ],
      "stateMutability": "nonpayable",
      "type": "function"
    }
  ],
  "bytecode": "0x610100604052670de0b6b3a76400006007553480156200001e57600080fd5b506040516200198c3803806200198c833981810160405260808110156200004457600080fd5b81019080805160405193929190846401000000008211156200006557600080fd5b9083019060208201858111156200007b57600080fd5b82516401000000008111828201881017156200009657600080fd5b82525081516020918201929091019080838360005b83811015620000c5578181015183820152602001620000ab565b50505050905090810190601f168015620000f35780820380516001836020036101000a031916815260200191505b50604052602001805160405193929190846401000000008211156200011757600080fd5b9083019060208201858111156200012d57600080fd5b82516401000000008111828201881017156200014857600080fd5b82525081516020918201929091019080838360005b83811015620001775781810151838201526020016200015d565b50505050905090810190601f168015620001a55780820380516001836020036101000a031916815260200191505b5060408181526020838101519382015183830190925260018352603160f81b818401528751939550909350869286928692859283929183918791620001f0916003918501906200028c565b508051620002069060049060208401906200028c565b50506005805460ff19166012179055508151602092830120608052805191012060a052507f8b73c3c69bb8fe3d512ecc4cf759cc79239f7b179b0ffacaa9a75d522b39400f60c052620002598162000276565b50505060601b6001600160601b03191660e0525062000328915050565b6005805460ff191660ff92909216919091179055565b828054600181600116156101000203166002900490600052602060002090601f016020900481019282601f10620002cf57805160ff1916838001178555620002ff565b82800160010185558215620002ff579182015b82811115620002ff578251825591602001919060010190620002e2565b506200030d92915062000311565b5090565b5b808211156200030d576000815560010162000312565b60805160a05160c05160e05160601c6116216200036b600039806106f652806108fd5280610bd352508061115b52508061119d52508061117c52506116216000f3fe608060405234801561001057600080fd5b50600436106101b85760003560e01c806370a08231116100f957806399530b0611610097578063d505accf11610071578063d505accf146105f1578063dd62ed3e1461064f578063ed24911d1461068a578063fc0c546a14610692576101b8565b806399530b0614610577578063a457c2d71461057f578063a9059cbb146105b8576101b8565b80637ecebe00116100d35780637ecebe00146104ec5780638a3e645a1461051f57806390193b7c1461053c57806395d89b411461056f576101b8565b806370a082311461044757806379cc67901461047a5780637c602bc2146104b3576101b8565b8063313ce567116101665780633950935111610140578063395093511461037f57806340c10f19146103b857806342966c68146103f15780636e553f651461040e576101b8565b8063313ce5671461033a57806334fcf437146103585780633644e51514610377576101b8565b806309c23bf31161019757806309c23bf3146102d257806318160ddd146102ef57806323b872dd146102f7576101b8565b8062f714ce146101bd57806306fdde0314610208578063095ea7b314610285575b600080fd5b6101f6600480360360408110156101d357600080fd5b508035906020013573ffffffffffffffffffffffffffffffffffffffff166106c3565b60408051918252519081900360200190f35b610210610724565b6040805160208082528351818301528351919283929083019185019080838360005b8381101561024a578181015183820152602001610232565b50505050905090810190601f1680156102775780820380516001836020036101000a031916815260200191505b509250505060405180910390f35b6102be6004803603604081101561029b57600080fd5b5073ffffffffffffffffffffffffffffffffffffffff81351690602001356107d8565b604080519115158252519081900360200190f35b6101f6600480360360208110156102e857600080fd5b50356107ee565b6101f66107ff565b6102be6004803603606081101561030d57600080fd5b5073ffffffffffffffffffffffffffffffffffffffff813581169160208101359091169060400135610805565b610342610866565b6040805160ff9092168252519081900360200190f35b6103756004803603602081101561036e57600080fd5b503561086f565b005b6101f6610874565b6102be6004803603604081101561039557600080fd5b5073ffffffffffffffffffffffffffffffffffffffff8135169060200135610883565b610375600480360360408110156103ce57600080fd5b5073ffffffffffffffffffffffffffffffffffffffff81351690602001356108c6565b6103756004803603602081101561040757600080fd5b50356108d4565b6101f66004803603604081101561042457600080fd5b508035906020013573ffffffffffffffffffffffffffffffffffffffff166108e1565b6101f66004803603602081101561045d57600080fd5b503573ffffffffffffffffffffffffffffffffffffffff1661093c565b6103756004803603604081101561049057600080fd5b5073ffffffffffffffffffffffffffffffffffffffff8135169060200135610964565b610375600480360360408110156104c957600080fd5b5073ffffffffffffffffffffffffffffffffffffffff813516906020013561099a565b6101f66004803603602081101561050257600080fd5b503573ffffffffffffffffffffffffffffffffffffffff166109a4565b6101f66004803603602081101561053557600080fd5b50356109af565b6101f66004803603602081101561055257600080fd5b503573ffffffffffffffffffffffffffffffffffffffff166109ba565b6102106109e2565b6101f6610a61565b6102be6004803603604081101561059557600080fd5b5073ffffffffffffffffffffffffffffffffffffffff8135169060200135610a67565b6102be600480360360408110156105ce57600080fd5b5073ffffffffffffffffffffffffffffffffffffffff8135169060200135610aad565b610375600480360360e081101561060757600080fd5b5073ffffffffffffffffffffffffffffffffffffffff813581169160208101359091169060408101359060608101359060ff6080820135169060a08101359060c00135610aba565b6101f66004803603604081101561066557600080fd5b5073ffffffffffffffffffffffffffffffffffffffff81358116916020013516610b8f565b6101f6610bc7565b61069a610bd1565b6040805173ffffffffffffffffffffffffffffffffffffffff9092168252519081900360200190f35b60006106cf3384610bf5565b60006106da84610cea565b905061071d73ffffffffffffffffffffffffffffffffffffffff7f0000000000000000000000000000000000000000000000000000000000000000168483610d01565b9392505050565b60038054604080516020601f60027fffffffffffffffffffffffffffffffffffffffffffffffffffffffffffffffff6101006001881615020190951694909404938401819004810282018101909252828152606093909290918301828280156107ce5780601f106107a3576101008083540402835291602001916107ce565b820191906000526020600020905b8154815290600101906020018083116107b157829003601f168201915b5050505050905090565b60006107e5338484610d8e565b50600192915050565b60006107f982610cea565b92915050565b60025490565b6000610812848484610dfd565b73ffffffffffffffffffffffffffffffffffffffff841660009081526001602090815260408083203380855292529091205461085c918691610857908661019e610f26565b610d8e565b5060019392505050565b60055460ff1690565b600755565b600061087e610bc7565b905090565b33600081815260016020908152604080832073ffffffffffffffffffffffffffffffffffffffff8716845290915281205490916107e59185906108579086610f3c565b6108d08282610f4e565b5050565b6108de3382610bf5565b50565b600061092573ffffffffffffffffffffffffffffffffffffffff7f000000000000000000000000000000000000000000000000000000000000000016333086611002565b60006109308461109d565b905061071d8382610f4e565b73ffffffffffffffffffffffffffffffffffffffff1660009081526020819052604090205490565b600061097e826101a16109778633610b8f565b9190610f26565b905061098b833383610d8e565b6109958383610bf5565b505050565b6108d08282610bf5565b60006107f9826109ba565b60006107f98261109d565b73ffffffffffffffffffffffffffffffffffffffff1660009081526006602052604090205490565b60048054604080516020601f60027fffffffffffffffffffffffffffffffffffffffffffffffffffffffffffffffff6101006001881615020190951694909404938401819004810282018101909252828152606093909290918301828280156107ce5780601f106107a3576101008083540402835291602001916107ce565b60075490565b33600081815260016020908152604080832073ffffffffffffffffffffffffffffffffffffffff8716845290915281205490916107e5918590610857908661019f610f26565b60006107e5338484610dfd565b60007f6e71edae12b1b97f4d1f60370fef10105fa2faae0126114a169c64845d6126c9888888610ae98c6109ba565b89604051602001808781526020018673ffffffffffffffffffffffffffffffffffffffff1681526020018573ffffffffffffffffffffffffffffffffffffffff1681526020018481526020018381526020018281526020019650505050505050604051602081830303815290604052805190602001209050610b7a8882610b718787876110b4565b886101f86110f3565b610b85888888610d8e565b5050505050505050565b73ffffffffffffffffffffffffffffffffffffffff918216600090815260016020908152604080832093909416825291909152205490565b600061087e611157565b7f000000000000000000000000000000000000000000000000000000000000000090565b610c1973ffffffffffffffffffffffffffffffffffffffff8316151561019b611222565b610c2582600083610995565b73ffffffffffffffffffffffffffffffffffffffff8216600090815260208190526040902054610c5890826101b2610f26565b73ffffffffffffffffffffffffffffffffffffffff8316600090815260208190526040902055610c98610c9382610c8d6107ff565b90611230565b61123e565b60408051828152905160009173ffffffffffffffffffffffffffffffffffffffff8516917fddf252ad1be2c89b69c2b068fc378daa952ba7f163c4a11628f55a4df523b3ef9181900360200190a35050565b60006107f96007548361124390919063ffffffff16565b6040805173ffffffffffffffffffffffffffffffffffffffff8416602482015260448082018490528251808303909101815260649091019091526020810180517bffffffffffffffffffffffffffffffffffffffffffffffffffffffff167fa9059cbb00000000000000000000000000000000000000000000000000000000179052610995908490611296565b73ffffffffffffffffffffffffffffffffffffffff808416600081815260016020908152604080832094871680845294825291829020859055815185815291517f8c5be1e5ebec7d5bd14f71427d1e84f3dd0314c0f7b2291e5b200ac8c7c3b9259281900390910190a3505050565b610e2173ffffffffffffffffffffffffffffffffffffffff84161515610198611222565b610e4573ffffffffffffffffffffffffffffffffffffffff83161515610199611222565b610e50838383610995565b73ffffffffffffffffffffffffffffffffffffffff8316600090815260208190526040902054610e8390826101a0610f26565b73ffffffffffffffffffffffffffffffffffffffff8085166000908152602081905260408082209390935590841681522054610ebf9082610f3c565b73ffffffffffffffffffffffffffffffffffffffff8084166000818152602081815260409182902094909455805185815290519193928716927fddf252ad1be2c89b69c2b068fc378daa952ba7f163c4a11628f55a4df523b3ef92918290030190a3505050565b6000610f358484111583611222565b5050900390565b600082820161071d8482101583611222565b610f5a60008383610995565b610f6f610c9382610f696107ff565b90610f3c565b73ffffffffffffffffffffffffffffffffffffffff8216600090815260208190526040902054610f9f9082610f3c565b73ffffffffffffffffffffffffffffffffffffffff83166000818152602081815260408083209490945583518581529351929391927fddf252ad1be2c89b69c2b068fc378daa952ba7f163c4a11628f55a4df523b3ef9281900390910190a35050565b6040805173ffffffffffffffffffffffffffffffffffffffff80861660248301528416604482015260648082018490528251808303909101815260849091019091526020810180517bffffffffffffffffffffffffffffffffffffffffffffffffffffffff167f23b872dd00000000000000000000000000000000000000000000000000000000179052611097908590611296565b50505050565b60006107f9600754836113ac90919063ffffffff16565b60408051604180825260808201909252606091829190602082018180368337019050509050836020820152826040820152846060820153949350505050565b60006110fe856113df565b905061111461110e878387611446565b83611222565b611123428410156101b8611222565b50505073ffffffffffffffffffffffffffffffffffffffff9092166000908152600660205260409020805460010190555050565b60007f00000000000000000000000000000000000000000000000000000000000000007f00000000000000000000000000000000000000000000000000000000000000007f00000000000000000000000000000000000000000000000000000000000000006111c4611558565b30604051602001808681526020018581526020018481526020018381526020018273ffffffffffffffffffffffffffffffffffffffff1681526020019550505050505060405160208183030381529060405280519060200120905090565b816108d0576108d08161155c565b600061071d83836001610f26565b600255565b60006112528215156004611222565b670de0b6b3a7640000830261128484158061127d5750670de0b6b3a764000085838161127a57fe5b04145b6005611222565b82818161128d57fe5b04949350505050565b600060608373ffffffffffffffffffffffffffffffffffffffff16836040518082805190602001908083835b602083106112ff57805182527fffffffffffffffffffffffffffffffffffffffffffffffffffffffffffffffe090920191602091820191016112c2565b6001836020036101000a0380198251168184511680821785525050505050509050019150506000604051808303816000865af19150503d8060008114611361576040519150601f19603f3d011682016040523d82523d6000602084013e611366565b606091505b5091509150600082141561137e573d6000803e3d6000fd5b6110978151600014806113a457508180602001905160208110156113a157600080fd5b50515b6101a2611222565b60008282026113d08415806113c95750838583816113c657fe5b04145b6003611222565b670de0b6b3a76400008161128d565b60006113e9611157565b8260405160200180807f190100000000000000000000000000000000000000000000000000000000000081525060020183815260200182815260200192505050604051602081830303815290604052805190602001209050919050565b600061145882516041146101b9611222565b60008060006020850151925060408501519150606085015160001a9050600060018783868660405160008152602001604052604051808581526020018460ff1681526020018381526020018281526020019450505050506020604051602081039080840390855afa1580156114d1573d6000803e3d6000fd5b50506040517fffffffffffffffffffffffffffffffffffffffffffffffffffffffffffffffe0015191505073ffffffffffffffffffffffffffffffffffffffff81161580159061154c57508773ffffffffffffffffffffffffffffffffffffffff168173ffffffffffffffffffffffffffffffffffffffff16145b98975050505050505050565b4690565b7f08c379a000000000000000000000000000000000000000000000000000000000600090815260206004526007602452600a808304818106603090810160081b83860601918390049283060160101b016642414c230000300160c81b6044526108de917f42414c0000000000000000000000000000000000000000000000000000000000906242414c90606490fdfea264697066735822122050c7f3d05cdb3a1b816b931caa81e18370425b7c11bcc5bcdcdff86541609b2264736f6c63430007010033",
  "linkReferences": {},
  "deployedLinkReferences": {}
}