{
  "_format": "hh-sol-artifact-1",
  "contractName": "MockRecoveryRateProviderPoolFactory",
  "sourceName": "contracts/test/MockRecoveryRateProviderPoolFactory.sol",
  "abi": [
    {
      "inputs": [
        {
          "internalType": "contract IVault",
          "name": "_vault",
          "type": "address"
        },
        {
          "internalType": "contract IProtocolFeePercentagesProvider",
          "name": "protocolFeeProvider",
          "type": "address"
        }
      ],
      "stateMutability": "nonpayable",
      "type": "constructor"
    },
    {
      "anonymous": false,
      "inputs": [],
      "name": "FactoryDisabled",
      "type": "event"
    },
    {
      "anonymous": false,
      "inputs": [
        {
          "indexed": true,
          "internalType": "address",
          "name": "pool",
          "type": "address"
        }
      ],
      "name": "PoolCreated",
      "type": "event"
    },
    {
      "inputs": [
        {
          "internalType": "contract IRateProvider[]",
          "name": "rateProviders",
          "type": "address[]"
        },
        {
          "internalType": "bytes32",
          "name": "salt",
          "type": "bytes32"
        }
      ],
      "name": "create",
      "outputs": [
        {
          "internalType": "address",
          "name": "",
          "type": "address"
        }
      ],
      "stateMutability": "nonpayable",
      "type": "function"
    },
    {
      "inputs": [],
      "name": "disable",
      "outputs": [],
      "stateMutability": "nonpayable",
      "type": "function"
    },
    {
      "inputs": [
        {
          "internalType": "bytes4",
          "name": "selector",
          "type": "bytes4"
        }
      ],
      "name": "getActionId",
      "outputs": [
        {
          "internalType": "bytes32",
          "name": "",
          "type": "bytes32"
        }
      ],
      "stateMutability": "view",
      "type": "function"
    },
    {
      "inputs": [],
      "name": "getAuthorizer",
      "outputs": [
        {
          "internalType": "contract IAuthorizer",
          "name": "",
          "type": "address"
        }
      ],
      "stateMutability": "view",
      "type": "function"
    },
    {
      "inputs": [],
      "name": "getCreationCode",
      "outputs": [
        {
          "internalType": "bytes",
          "name": "",
          "type": "bytes"
        }
      ],
      "stateMutability": "view",
      "type": "function"
    },
    {
      "inputs": [],
      "name": "getCreationCodeContracts",
      "outputs": [
        {
          "internalType": "address",
          "name": "contractA",
          "type": "address"
        },
        {
          "internalType": "address",
          "name": "contractB",
          "type": "address"
        }
      ],
      "stateMutability": "view",
      "type": "function"
    },
    {
      "inputs": [],
      "name": "getPauseConfiguration",
      "outputs": [
        {
          "internalType": "uint256",
          "name": "pauseWindowDuration",
          "type": "uint256"
        },
        {
          "internalType": "uint256",
          "name": "bufferPeriodDuration",
          "type": "uint256"
        }
      ],
      "stateMutability": "view",
      "type": "function"
    },
    {
      "inputs": [],
      "name": "getProtocolFeePercentagesProvider",
      "outputs": [
        {
          "internalType": "contract IProtocolFeePercentagesProvider",
          "name": "",
          "type": "address"
        }
      ],
      "stateMutability": "view",
      "type": "function"
    },
    {
      "inputs": [],
      "name": "getVault",
      "outputs": [
        {
          "internalType": "contract IVault",
          "name": "",
          "type": "address"
        }
      ],
      "stateMutability": "view",
      "type": "function"
    },
    {
      "inputs": [],
      "name": "isDisabled",
      "outputs": [
        {
          "internalType": "bool",
          "name": "",
          "type": "bool"
        }
      ],
      "stateMutability": "view",
      "type": "function"
    },
    {
      "inputs": [
        {
          "internalType": "address",
          "name": "pool",
          "type": "address"
        }
      ],
      "name": "isPoolFromFactory",
      "outputs": [
        {
          "internalType": "bool",
          "name": "",
          "type": "bool"
        }
      ],
      "stateMutability": "view",
      "type": "function"
    }
  ],
  "bytecode": "0x6101c06040523480156200001257600080fd5b50604051620017da380380620017da833981016040819052620000359162000242565b81816276a70062278d0060405180602001620000519062000234565b601f1982820381018352601f9091011660405280518390839087903090859060006002820460a081905280830360e081905281855290915083620000a18162000155602090811b6200048417901c565b60601b6001600160601b0319166080528285018051838252620000d08262000155602090811b6200048417901c565b6001600160601b0319606091821b811660c0529690935290526101009590955250509290911b909116610120525062000113630163f500831115610194620001a9565b620001276276a700821115610195620001a9565b6101408290526101605242016101805250505060601b6001600160601b0319166101a0525062000296915050565b80517f602038038060206000396000f3fefefefefefefefefefefefefefefefefefefe808352600091602081018484f09084529150620001a36001600160a01b03831615156101ac620001a9565b50919050565b81620001ba57620001ba81620001be565b5050565b620001d0816210905360ea1b620001d3565b50565b62461bcd60e51b600090815260206004526007602452600a808404818106603090810160081b958390069590950190829004918206850160101b01602363ffffff0060e086901c160160181b0190930160c81b60445260e882901c90606490fd5b6108998062000f4183390190565b6000806040838503121562000255578182fd5b8251620002628162000280565b6020840151909250620002758162000280565b809150509250929050565b6001600160a01b0381168114620001d057600080fd5b60805160601c60a05160c05160601c60e051610100516101205160601c6101405161016051610180516101a05160601c610c236200031e6000398061036552508061020c5280610235525080610259525050806103db52508061038b5250806104eb5250806101e3528061056752508061050c5250806101c252806105435250610c236000f3fe608060405234801561001057600080fd5b50600436106100c85760003560e01c80636634b75311610081578063851c1bb31161005b578063851c1bb3146101715780638d928af814610191578063aaabadc514610199576100c8565b80636634b753146101415780636c57f5a914610161578063739238d614610169576100c8565b80632da47c40116100b25780632da47c40146101015780632f2770db146101175780634c848f7314610121576100c8565b8062c194db146100cd578063174481fa146100eb575b600080fd5b6100d56101a1565b6040516100e29190610abe565b60405180910390f35b6100f36101c0565b6040516100e2929190610a57565b610109610206565b6040516100e2929190610b96565b61011f61028d565b005b61013461012f3660046108d9565b6102f2565b6040516100e29190610a36565b61015461014f3660046108b6565b61032f565b6040516100e29190610a7e565b61015461035a565b610134610363565b61018461017f3660046109aa565b610387565b6040516100e29190610a89565b6101346103d9565b6101346103fd565b60606101bb604051806020016040528060008152506104e3565b905090565b7f00000000000000000000000000000000000000000000000000000000000000007f00000000000000000000000000000000000000000000000000000000000000009091565b600080427f000000000000000000000000000000000000000000000000000000000000000081101561027f57807f00000000000000000000000000000000000000000000000000000000000000000392507f00000000000000000000000000000000000000000000000000000000000000009150610288565b60009250600091505b509091565b6102956105bc565b61029d610605565b600180547fffffffffffffffffffffffffffffffffffffffffffffffffffffffffffffff0016811790556040517f432acbfd662dbb5d8b378384a67159b47ca9d0f1b79f97cf64cf8585fa362d5090600090a1565b60006103266102ff6103d9565b84604051602001610311929190610b2f565b6040516020818303038152906040528361061a565b90505b92915050565b73ffffffffffffffffffffffffffffffffffffffff1660009081526020819052604090205460ff1690565b60015460ff1690565b7f000000000000000000000000000000000000000000000000000000000000000090565b60007f0000000000000000000000000000000000000000000000000000000000000000826040516020016103bc929190610a06565b604051602081830303815290604052805190602001209050919050565b7f000000000000000000000000000000000000000000000000000000000000000090565b60006104076103d9565b73ffffffffffffffffffffffffffffffffffffffff1663aaabadc56040518163ffffffff1660e01b815260040160206040518083038186803b15801561044c57600080fd5b505afa158015610460573d6000803e3d6000fd5b505050506040513d601f19601f820116820180604052508101906101bb91906109ea565b80517f602038038060206000396000f3fefefefefefefefefefefefefefefefefefefe808352600091602081018484f090845291506104dd73ffffffffffffffffffffffffffffffffffffffff831615156101ac6106b0565b50919050565b8051604080517f00000000000000000000000000000000000000000000000000000000000000007f0000000000000000000000000000000000000000000000000000000000000000818101858101848101602090810190965280855293957f00000000000000000000000000000000000000000000000000000000000000009592947f000000000000000000000000000000000000000000000000000000000000000094938801866000828a3c846000888301883c50602089810190898501016105ae8183866106c2565b505050505050505050919050565b60006105eb6000357fffffffff0000000000000000000000000000000000000000000000000000000016610387565b90506106026105fa823361073c565b6101916106b0565b50565b61061861061061035a565b1560d36106b0565b565b6000610624610605565b600061063084846107d2565b73ffffffffffffffffffffffffffffffffffffffff811660008181526020819052604080822080547fffffffffffffffffffffffffffffffffffffffffffffffffffffffffffffff001660011790555192935090917f83a48fbcfc991335314e74d0496aab6a1987e992ddc85dddbcc4d6dd6ef2e9fc9190a29392505050565b816106be576106be8161081c565b5050565b5b602081106107005781518352602092830192909101907fffffffffffffffffffffffffffffffffffffffffffffffffffffffffffffffe0016106c3565b905182516020929092036101000a7fffffffffffffffffffffffffffffffffffffffffffffffffffffffffffffffff0180199091169116179052565b60006107466103fd565b73ffffffffffffffffffffffffffffffffffffffff16639be2a8848484306040518463ffffffff1660e01b815260040161078293929190610a92565b60206040518083038186803b15801561079a57600080fd5b505afa1580156107ae573d6000803e3d6000fd5b505050506040513d601f19601f82011682018060405250810190610326919061098a565b600060606107df846104e3565b90506000838251602084016000f5905073ffffffffffffffffffffffffffffffffffffffff8116610814573d6000803e3d6000fd5b949350505050565b7f08c379a000000000000000000000000000000000000000000000000000000000600090815260206004526007602452600a808304818106603090810160081b83860601918390049283060160101b016642414c230000300160c81b604452610602917f42414c0000000000000000000000000000000000000000000000000000000000906242414c90606490fd5b803561032981610bcb565b6000602082840312156108c7578081fd5b81356108d281610bcb565b9392505050565b600080604083850312156108eb578081fd5b823567ffffffffffffffff80821115610902578283fd5b818501915085601f830112610915578283fd5b813581811115610923578384fd5b60209150818102610935838201610ba4565b8281528381019085850183870186018b101561094f578788fd5b8796505b84871015610979576109658b826108ab565b835260019690960195918501918501610953565b509997909301359750505050505050565b60006020828403121561099b578081fd5b815180151581146108d2578182fd5b6000602082840312156109bb578081fd5b81357fffffffff00000000000000000000000000000000000000000000000000000000811681146108d2578182fd5b6000602082840312156109fb578081fd5b81516108d281610bcb565b9182527fffffffff0000000000000000000000000000000000000000000000000000000016602082015260240190565b73ffffffffffffffffffffffffffffffffffffffff91909116815260200190565b73ffffffffffffffffffffffffffffffffffffffff92831681529116602082015260400190565b901515815260200190565b90815260200190565b92835273ffffffffffffffffffffffffffffffffffffffff918216602084015216604082015260600190565b6000602080835283518082850152825b81811015610aea57858101830151858201604001528201610ace565b81811115610afb5783604083870101525b50601f017fffffffffffffffffffffffffffffffffffffffffffffffffffffffffffffffe016929092016040019392505050565b60006040820173ffffffffffffffffffffffffffffffffffffffff808616845260206040818601528286518085526060870191508288019450855b81811015610b88578551851683529483019491830191600101610b6a565b509098975050505050505050565b918252602082015260400190565b60405181810167ffffffffffffffff81118282101715610bc357600080fd5b604052919050565b73ffffffffffffffffffffffffffffffffffffffff8116811461060257600080fdfea26469706673582212206c4c02ddc1824d95da6ecedd1482505388ce20365905ca3658be1e8d66499d4364736f6c6343000701003361010060405234801561001157600080fd5b506040516108993803806108998339818101604052604081101561003457600080fd5b81516020830180516040519294929383019291908464010000000082111561005b57600080fd5b90830190602082018581111561007057600080fd5b825186602082028301116401000000008211171561008d57600080fd5b82525081516020918201928201910280838360005b838110156100ba5781810151838201526020016100a2565b505050509190910160405250503060805250507fba1ba1ba1ba1ba1ba1ba1ba1ba1ba1ba1ba1ba1b00000000000000000000000060a0526001600160601b0319606083901b1660c081905260e052805161011b906001906020840190610123565b5050506101a7565b828054828255906000526020600020908101928215610178579160200282015b8281111561017857825182546001600160a01b0319166001600160a01b03909116178255602090920191600190910190610143565b50610184929150610188565b5090565b5b808211156101845780546001600160a01b0319168155600101610189565b60805160a05160601c60c05160601c60e05160601c6106b96101e0600039806103e2525050806102c452508061025752506106b96000f3fe608060405234801561001057600080fd5b506004361061007d5760003560e01c8063893d20e81161005b578063893d20e814610135578063aaabadc514610166578063b35056b81461016e578063b7b814fc1461018a5761007d565b8063238a2d591461008257806354a844ba146100da578063851c1bb3146100e4575b600080fd5b61008a610192565b60408051602080825283518183015283519192839290830191858101910280838360005b838110156100c65781810151838201526020016100ae565b505050509050019250505060405180910390f35b6100e2610201565b005b610123600480360360208110156100fa57600080fd5b50357fffffffff0000000000000000000000000000000000000000000000000000000016610251565b60408051918252519081900360200190f35b61013d6102c2565b6040805173ffffffffffffffffffffffffffffffffffffffff9092168252519081900360200190f35b61013d6102e6565b6101766102f5565b604080519115158252519081900360200190f35b6100e26102fe565b606060018054806020026020016040519081016040528092919081815260200182805480156101f757602002820191906000526020600020905b815473ffffffffffffffffffffffffffffffffffffffff1681526001909101906020018083116101cc575b5050505050905090565b61020961034e565b610211610397565b61021b60016103ad565b604080516001815290517feff3d4d215b42bf0960be9c6d5e05c22cba4df6627a3a523e2acee733b5854c89181900360200190a1565b604080517f00000000000000000000000000000000000000000000000000000000000000006020808301919091527fffffffff000000000000000000000000000000000000000000000000000000008416828401528251602481840301815260449092019092528051910120919050565b7f000000000000000000000000000000000000000000000000000000000000000090565b60006102f06103de565b905090565b60005460ff1690565b61030661034e565b61030e610477565b61031860006103ad565b604080516000815290517feff3d4d215b42bf0960be9c6d5e05c22cba4df6627a3a523e2acee733b5854c89181900360200190a1565b600061037d6000357fffffffff0000000000000000000000000000000000000000000000000000000016610251565b905061039461038c823361048a565b6101916105dc565b50565b6103ab6103a26102f5565b156101b56105dc565b565b600080547fffffffffffffffffffffffffffffffffffffffffffffffffffffffffffffff0016911515919091179055565b60007f000000000000000000000000000000000000000000000000000000000000000073ffffffffffffffffffffffffffffffffffffffff1663aaabadc56040518163ffffffff1660e01b815260040160206040518083038186803b15801561044657600080fd5b505afa15801561045a573d6000803e3d6000fd5b505050506040513d602081101561047057600080fd5b5051905090565b6103ab6104826102f5565b6101b66105dc565b600073ba1ba1ba1ba1ba1ba1ba1ba1ba1ba1ba1ba1ba1b6104a96102c2565b73ffffffffffffffffffffffffffffffffffffffff16141580156104d157506104d1836105ee565b15610513576104de6102c2565b73ffffffffffffffffffffffffffffffffffffffff163373ffffffffffffffffffffffffffffffffffffffff161490506105d6565b61051b6103de565b73ffffffffffffffffffffffffffffffffffffffff16639be2a8848484306040518463ffffffff1660e01b8152600401808481526020018373ffffffffffffffffffffffffffffffffffffffff1681526020018273ffffffffffffffffffffffffffffffffffffffff168152602001935050505060206040518083038186803b1580156105a757600080fd5b505afa1580156105bb573d6000803e3d6000fd5b505050506040513d60208110156105d157600080fd5b505190505b92915050565b816105ea576105ea816105f4565b5050565b50600090565b7f08c379a000000000000000000000000000000000000000000000000000000000600090815260206004526007602452600a808304818106603090810160081b83860601918390049283060160101b016642414c230000300160c81b604452610394917f42414c0000000000000000000000000000000000000000000000000000000000906242414c90606490fdfea2646970667358221220fbff59e040b49377c0542865ba2c302a1b2110b7e25257e607944a74b739858364736f6c63430007010033",
  "linkReferences": {},
  "deployedLinkReferences": {}
}