{
  "address": "0x2c0fA05281730EFd3ef71172d8992500B36b56eA",
  "abi": [
    {
      "inputs": [],
      "name": "TEST_CHAIN_SELECTOR",
      "outputs": [
        {
          "internalType": "uint64",
          "name": "",
          "type": "uint64"
        }
      ],
      "stateMutability": "view",
      "type": "function"
    },
    {
      "inputs": [],
      "name": "TEST_MESSAGE_ID",
      "outputs": [
        {
          "internalType": "bytes32",
          "name": "",
          "type": "bytes32"
        }
      ],
      "stateMutability": "view",
      "type": "function"
    },
    {
      "inputs": [
        {
          "internalType": "address",
          "name": "_user",
          "type": "address"
        },
        {
          "internalType": "address",
          "name": "_veChildChain",
          "type": "address"
        },
        {
          "internalType": "uint256",
          "name": "_amount",
          "type": "uint256"
        },
        {
          "internalType": "uint256",
          "name": "_endTime",
          "type": "uint256"
        },
        {
          "internalType": "uint256",
          "name": "_totalSupply",
          "type": "uint256"
        },
        {
          "internalType": "uint256",
          "name": "_totalSupplyEndTime",
          "type": "uint256"
        }
      ],
      "name": "ccipReceiveVotingPower",
      "outputs": [],
      "stateMutability": "nonpayable",
      "type": "function"
    },
    {
      "inputs": [
        {
          "internalType": "bytes",
          "name": "_data",
          "type": "bytes"
        },
        {
          "internalType": "address",
          "name": "_sender",
          "type": "address"
        }
      ],
      "name": "getCCIPMessage",
      "outputs": [
        {
          "components": [
            {
              "internalType": "bytes32",
              "name": "messageId",
              "type": "bytes32"
            },
            {
              "internalType": "uint64",
              "name": "sourceChainSelector",
              "type": "uint64"
            },
            {
              "internalType": "bytes",
              "name": "sender",
              "type": "bytes"
            },
            {
              "internalType": "bytes",
              "name": "data",
              "type": "bytes"
            },
            {
              "components": [
                {
                  "internalType": "address",
                  "name": "token",
                  "type": "address"
                },
                {
                  "internalType": "uint256",
                  "name": "amount",
                  "type": "uint256"
                }
              ],
              "internalType": "struct Client.EVMTokenAmount[]",
              "name": "destTokenAmounts",
              "type": "tuple[]"
            }
          ],
          "internalType": "struct Client.Any2EVMMessage",
          "name": "ccipMessage",
          "type": "tuple"
        }
      ],
      "stateMutability": "pure",
      "type": "function"
    }
  ],
  "bytecode": "0x608060405234801561001057600080fd5b50610730806100206000396000f3fe608060405234801561001057600080fd5b506004361061004c5760003560e01c80635d561c1d146100515780638dd5d63714610077578063caa2b5541461008d578063d2f9f162146100ad575b600080fd5b610059600181565b60405167ffffffffffffffff90911681526020015b60405180910390f35b61007f6100c2565b60405190815260200161006e565b6100a061009b36600461039c565b610113565b60405161006e91906104ae565b6100c06100bb366004610568565b61020e565b005b6040518060400160405280600f81526020016e1d195cdd081b595cdcd859d9481a59608a1b8152506040516020016100fa91906105bd565b6040516020818303038152906040528051906020012081565b6040805160a08101825260008082526020820152606091810182905281810182905260808101919091526040805160e081018252600f60a082019081526e1d195cdd081b595cdcd859d9481a59608a1b60c083015291519091829161017b91906020016105bd565b60408051808303601f190181529181528151602092830120835260018383015280516001600160a01b03871681840152815180820384018152908201825283820152606083018790528051600080825292810190915260809092019190610204565b60408051808201909152600080825260208201528152602001906001900390816101dd5790505b5090529392505050565b600061021a42856105ef565b6102249086610608565b9050600061023242866105ef565b61023c908361062a565b60408051608081018252600f83810b825285900b60208201524291810182905243606082015291925060009061027290866105ef565b61027c9087610608565b9050600061028a42876105ef565b610294908361062a565b90506000604051806080016040528084600f0b815260200183600f0b81526020014281526020014381525090506000808d8b87856040516020016102dc959493929190610651565b604051602081830303815290604052905060006102f9828f610113565b6040516385572ffb60e01b81529091506001600160a01b038e16906385572ffb906103289084906004016104ae565b600060405180830381600087803b15801561034257600080fd5b505af1158015610356573d6000803e3d6000fd5b505050505050505050505050505050505050565b634e487b7160e01b600052604160045260246000fd5b80356001600160a01b038116811461039757600080fd5b919050565b600080604083850312156103af57600080fd5b823567ffffffffffffffff808211156103c757600080fd5b818501915085601f8301126103db57600080fd5b8135818111156103ed576103ed61036a565b604051601f8201601f19908116603f011681019083821181831017156104155761041561036a565b8160405282815288602084870101111561042e57600080fd5b82602086016020830137600060208483010152809650505050505061045560208401610380565b90509250929050565b60005b83811015610479578181015183820152602001610461565b50506000910152565b6000815180845261049a81602086016020860161045e565b601f01601f19169290920160200192915050565b6000602080835283518184015280840151604067ffffffffffffffff82168186015280860151915060a060608601526104ea60c0860183610482565b91506060860151601f19808785030160808801526105088483610482565b608089015188820390920160a089015281518082529186019450600092508501905b8083101561055c57845180516001600160a01b031683528601518683015293850193600192909201919083019061052a565b50979650505050505050565b60008060008060008060c0878903121561058157600080fd5b61058a87610380565b955061059860208801610380565b95989597505050506040840135936060810135936080820135935060a0909101359150565b600082516105cf81846020870161045e565b9190910192915050565b634e487b7160e01b600052601160045260246000fd5b81810381811115610602576106026105d9565b92915050565b60008261062557634e487b7160e01b600052601260045260246000fd5b500490565b600082600f0b82600f0b0280600f0b915080821461064a5761064a6105d9565b5092915050565b61016081016002871061067457634e487b7160e01b600052602160045260246000fd5b8682526001600160a01b0386166020830152604082018590526106c160608301858051600f0b82526020810151600f0b602083015260408101516040830152606081015160608301525050565b8251600f90810b60e08401526020840151900b61010083015260408301516101208301526060830151610140830152969550505050505056fea26469706673582212208f1f308e58f02e611877a2a03580e26b0629253d1dbb1e8ace142e7c1d06f25a64736f6c63430008150033",
  "language": "Solidity",
  "compiler": "0.8.21+commit.d9974bed"
}