{
  "address": "0x408822E4E8682413666809b0655161093cd36f2b",
  "abi": [
    {
      "inputs": [
        {
          "internalType": "contract IChildChainGauge",
          "name": "gaugeImplementation",
          "type": "address"
        },
        {
          "internalType": "string",
          "name": "factoryVersion",
          "type": "string"
        },
        {
          "internalType": "string",
          "name": "productVersion",
          "type": "string"
        }
      ],
      "stateMutability": "nonpayable",
      "type": "constructor"
    },
    {
      "anonymous": false,
      "inputs": [
        {
          "indexed": true,
          "internalType": "address",
          "name": "gauge",
          "type": "address"
        }
      ],
      "name": "GaugeCreated",
      "type": "event"
    },
    {
      "inputs": [
        {
          "internalType": "address",
          "name": "hookReceiver",
          "type": "address"
        }
      ],
      "name": "create",
      "outputs": [
        {
          "internalType": "address",
          "name": "",
          "type": "address"
        }
      ],
      "stateMutability": "nonpayable",
      "type": "function"
    },
    {
      "inputs": [],
      "name": "getGaugeImplementation",
      "outputs": [
        {
          "internalType": "address",
          "name": "",
          "type": "address"
        }
      ],
      "stateMutability": "view",
      "type": "function"
    },
    {
      "inputs": [],
      "name": "getProductVersion",
      "outputs": [
        {
          "internalType": "string",
          "name": "",
          "type": "string"
        }
      ],
      "stateMutability": "view",
      "type": "function"
    },
    {
      "inputs": [
        {
          "internalType": "address",
          "name": "gauge",
          "type": "address"
        }
      ],
      "name": "isGaugeFromFactory",
      "outputs": [
        {
          "internalType": "bool",
          "name": "",
          "type": "bool"
        }
      ],
      "stateMutability": "view",
      "type": "function"
    },
    {
      "inputs": [],
      "name": "version",
      "outputs": [
        {
          "internalType": "string",
          "name": "",
          "type": "string"
        }
      ],
      "stateMutability": "view",
      "type": "function"
    }
  ],
  "bytecode": "0x60806040523480156200001157600080fd5b50604051620008ed380380620008ed833981016040819052620000349162000258565b8282620000418162000179565b50600180546001600160a01b0319166001600160a01b039290921691909117905560405162000075908290602001620002e2565b60405160208183030381529060405280519060200120836001600160a01b03166354fd4d506040518163ffffffff1660e01b8152600401600060405180830381865afa158015620000ca573d6000803e3d6000fd5b505050506040513d6000823e601f3d908101601f19168201604052620000f4919081019062000300565b604051602001620001069190620002e2565b6040516020818303038152906040528051906020012014620001615760405162461bcd60e51b815260206004820152601060248201526f0ac8aa4a6929e9cbe9a92a69a82a886960831b604482015260640160405180910390fd5b60036200016f8282620003cf565b505050506200049b565b6000620001878282620003cf565b5050565b634e487b7160e01b600052604160045260246000fd5b60005b83811015620001be578181015183820152602001620001a4565b50506000910152565b600082601f830112620001d957600080fd5b81516001600160401b0380821115620001f657620001f66200018b565b604051601f8301601f19908116603f011681019082821181831017156200022157620002216200018b565b816040528381528660208588010111156200023b57600080fd5b6200024e846020830160208901620001a1565b9695505050505050565b6000806000606084860312156200026e57600080fd5b83516001600160a01b03811681146200028657600080fd5b60208501519093506001600160401b0380821115620002a457600080fd5b620002b287838801620001c7565b93506040860151915080821115620002c957600080fd5b50620002d886828701620001c7565b9150509250925092565b60008251620002f6818460208701620001a1565b9190910192915050565b6000602082840312156200031357600080fd5b81516001600160401b038111156200032a57600080fd5b6200033884828501620001c7565b949350505050565b600181811c908216806200035557607f821691505b6020821081036200037657634e487b7160e01b600052602260045260246000fd5b50919050565b601f821115620003ca57600081815260208120601f850160051c81016020861015620003a55750805b601f850160051c820191505b81811015620003c657828155600101620003b1565b5050505b505050565b81516001600160401b03811115620003eb57620003eb6200018b565b6200040381620003fc845462000340565b846200037c565b602080601f8311600181146200043b5760008415620004225750858301515b600019600386901b1c1916600185901b178555620003c6565b600085815260208120601f198616915b828110156200046c578886015182559484019460019091019084016200044b565b50858210156200048b5787850151600019600388901b60f8161c191681555b5050505050600190811b01905550565b61044280620004ab6000396000f3fe608060405234801561001057600080fd5b50600436106100575760003560e01c806318d6186f1461005c57806339312dee1461007a57806354fd4d501461009f5780639ed93318146100a7578063ce3cc8bd146100ba575b600080fd5b6100646100f6565b6040516100719190610363565b60405180910390f35b6001546001600160a01b03165b6040516001600160a01b039091168152602001610071565b610064610188565b6100876100b536600461037d565b610197565b6100e66100c836600461037d565b6001600160a01b031660009081526002602052604090205460ff1690565b6040519015158152602001610071565b606060038054610105906103a6565b80601f0160208091040260200160405190810160405280929190818152602001828054610131906103a6565b801561017e5780601f106101535761010080835404028352916020019161017e565b820191906000526020600020905b81548152906001019060200180831161016157829003601f168201915b5050505050905090565b606060008054610105906103a6565b6000806101a2610212565b9050806001600160a01b031663f399e22e846101bc6100f6565b6040518363ffffffff1660e01b81526004016101d99291906103e0565b600060405180830381600087803b1580156101f357600080fd5b505af1158015610207573d6000803e3d6000fd5b509295945050505050565b600154600090819061022c906001600160a01b031661027f565b6001600160a01b038116600081815260026020526040808220805460ff191660011790555192935090917faa98436d09d130af48de49867af8b723bbbebb0d737638b5fe8f1bf31bbb71c09190a2919050565b6000763d602d80600a3d3981f3363d3d373d3d3d363d730000008260601b60e81c176000526e5af43d82803e903d91602b57fd5bf38260781b17602052603760096000f090506001600160a01b0381166103185760405162461bcd60e51b8152602060048201526016602482015275115490cc4c4d8dce8818dc99585d194819985a5b195960521b604482015260640160405180910390fd5b919050565b6000815180845260005b8181101561034357602081850181015186830182015201610327565b506000602082860101526020601f19601f83011685010191505092915050565b602081526000610376602083018461031d565b9392505050565b60006020828403121561038f57600080fd5b81356001600160a01b038116811461037657600080fd5b600181811c908216806103ba57607f821691505b6020821081036103da57634e487b7160e01b600052602260045260246000fd5b50919050565b6001600160a01b03831681526040602082018190526000906104049083018461031d565b94935050505056fea2646970667358221220c352bea628b779245177483087d83dc4a9588121adcb89030486b98c179d8f2764736f6c63430008150033",
  "language": "Solidity",
  "compiler": "0.8.21+commit.d9974bed"
}