{
  "address": "0xBCd67f35c7A2F212db0AD7f68fC773b5aC15377c",
  "abi": [
    {
      "inputs": [
        {
          "internalType": "contract IERC20",
          "name": "balancerToken",
          "type": "address"
        }
      ],
      "stateMutability": "nonpayable",
      "type": "constructor"
    },
    {
      "inputs": [],
      "name": "InvalidShortString",
      "type": "error"
    },
    {
      "inputs": [],
      "name": "OverallFee",
      "type": "error"
    },
    {
      "inputs": [
        {
          "internalType": "string",
          "name": "str",
          "type": "string"
        }
      ],
      "name": "StringTooLong",
      "type": "error"
    },
    {
      "anonymous": false,
      "inputs": [],
      "name": "EIP712DomainChanged",
      "type": "event"
    },
    {
      "anonymous": false,
      "inputs": [
        {
          "indexed": true,
          "internalType": "address",
          "name": "gauge",
          "type": "address"
        },
        {
          "indexed": true,
          "internalType": "address",
          "name": "daoReceiver",
          "type": "address"
        },
        {
          "indexed": true,
          "internalType": "address",
          "name": "deployerReceiver",
          "type": "address"
        },
        {
          "indexed": false,
          "internalType": "uint256",
          "name": "mintedToDao",
          "type": "uint256"
        },
        {
          "indexed": false,
          "internalType": "uint256",
          "name": "mintedToDeployer",
          "type": "uint256"
        }
      ],
      "name": "FeeCollected",
      "type": "event"
    },
    {
      "anonymous": false,
      "inputs": [
        {
          "indexed": false,
          "internalType": "uint256",
          "name": "daoFee",
          "type": "uint256"
        },
        {
          "indexed": false,
          "internalType": "uint256",
          "name": "deployerFee",
          "type": "uint256"
        }
      ],
      "name": "FeesUpdate",
      "type": "event"
    },
    {
      "anonymous": false,
      "inputs": [
        {
          "indexed": true,
          "internalType": "contract ILiquidityGaugeFactory",
          "name": "factory",
          "type": "address"
        }
      ],
      "name": "GaugeFactoryAdded",
      "type": "event"
    },
    {
      "anonymous": false,
      "inputs": [
        {
          "indexed": true,
          "internalType": "contract ILiquidityGaugeFactory",
          "name": "factory",
          "type": "address"
        }
      ],
      "name": "GaugeFactoryRemoved",
      "type": "event"
    },
    {
      "anonymous": false,
      "inputs": [
        {
          "indexed": true,
          "internalType": "address",
          "name": "recipient",
          "type": "address"
        },
        {
          "indexed": false,
          "internalType": "address",
          "name": "gauge",
          "type": "address"
        },
        {
          "indexed": false,
          "internalType": "uint256",
          "name": "minted",
          "type": "uint256"
        }
      ],
      "name": "Minted",
      "type": "event"
    },
    {
      "anonymous": false,
      "inputs": [
        {
          "indexed": true,
          "internalType": "address",
          "name": "recipient",
          "type": "address"
        },
        {
          "indexed": false,
          "internalType": "address",
          "name": "gauge",
          "type": "address"
        },
        {
          "indexed": false,
          "internalType": "uint256",
          "name": "minted",
          "type": "uint256"
        }
      ],
      "name": "MintedToUser",
      "type": "event"
    },
    {
      "anonymous": false,
      "inputs": [
        {
          "indexed": true,
          "internalType": "address",
          "name": "user",
          "type": "address"
        },
        {
          "indexed": true,
          "internalType": "address",
          "name": "minter",
          "type": "address"
        },
        {
          "indexed": false,
          "internalType": "bool",
          "name": "approval",
          "type": "bool"
        }
      ],
      "name": "MinterApprovalSet",
      "type": "event"
    },
    {
      "anonymous": false,
      "inputs": [
        {
          "indexed": true,
          "internalType": "address",
          "name": "previousOwner",
          "type": "address"
        },
        {
          "indexed": true,
          "internalType": "address",
          "name": "newOwner",
          "type": "address"
        }
      ],
      "name": "OwnershipTransferStarted",
      "type": "event"
    },
    {
      "anonymous": false,
      "inputs": [
        {
          "indexed": true,
          "internalType": "address",
          "name": "previousOwner",
          "type": "address"
        },
        {
          "indexed": true,
          "internalType": "address",
          "name": "newOwner",
          "type": "address"
        }
      ],
      "name": "OwnershipTransferred",
      "type": "event"
    },
    {
      "inputs": [],
      "name": "BPS_MAX",
      "outputs": [
        {
          "internalType": "uint256",
          "name": "",
          "type": "uint256"
        }
      ],
      "stateMutability": "view",
      "type": "function"
    },
    {
      "inputs": [],
      "name": "acceptOwnership",
      "outputs": [],
      "stateMutability": "nonpayable",
      "type": "function"
    },
    {
      "inputs": [
        {
          "internalType": "contract ILiquidityGaugeFactory",
          "name": "factory",
          "type": "address"
        }
      ],
      "name": "addGaugeFactory",
      "outputs": [],
      "stateMutability": "nonpayable",
      "type": "function"
    },
    {
      "inputs": [
        {
          "internalType": "address",
          "name": "minter",
          "type": "address"
        },
        {
          "internalType": "address",
          "name": "user",
          "type": "address"
        }
      ],
      "name": "allowed_to_mint_for",
      "outputs": [
        {
          "internalType": "bool",
          "name": "",
          "type": "bool"
        }
      ],
      "stateMutability": "view",
      "type": "function"
    },
    {
      "inputs": [],
      "name": "daoFee",
      "outputs": [
        {
          "internalType": "uint128",
          "name": "",
          "type": "uint128"
        }
      ],
      "stateMutability": "view",
      "type": "function"
    },
    {
      "inputs": [],
      "name": "deployerFee",
      "outputs": [
        {
          "internalType": "uint128",
          "name": "",
          "type": "uint128"
        }
      ],
      "stateMutability": "view",
      "type": "function"
    },
    {
      "inputs": [],
      "name": "eip712Domain",
      "outputs": [
        {
          "internalType": "bytes1",
          "name": "fields",
          "type": "bytes1"
        },
        {
          "internalType": "string",
          "name": "name",
          "type": "string"
        },
        {
          "internalType": "string",
          "name": "version",
          "type": "string"
        },
        {
          "internalType": "uint256",
          "name": "chainId",
          "type": "uint256"
        },
        {
          "internalType": "address",
          "name": "verifyingContract",
          "type": "address"
        },
        {
          "internalType": "bytes32",
          "name": "salt",
          "type": "bytes32"
        },
        {
          "internalType": "uint256[]",
          "name": "extensions",
          "type": "uint256[]"
        }
      ],
      "stateMutability": "view",
      "type": "function"
    },
    {
      "inputs": [],
      "name": "getBalancerToken",
      "outputs": [
        {
          "internalType": "contract IERC20",
          "name": "",
          "type": "address"
        }
      ],
      "stateMutability": "view",
      "type": "function"
    },
    {
      "inputs": [],
      "name": "getDomainSeparator",
      "outputs": [
        {
          "internalType": "bytes32",
          "name": "",
          "type": "bytes32"
        }
      ],
      "stateMutability": "view",
      "type": "function"
    },
    {
      "inputs": [],
      "name": "getFees",
      "outputs": [
        {
          "internalType": "uint256",
          "name": "",
          "type": "uint256"
        },
        {
          "internalType": "uint256",
          "name": "",
          "type": "uint256"
        }
      ],
      "stateMutability": "view",
      "type": "function"
    },
    {
      "inputs": [
        {
          "internalType": "address",
          "name": "minter",
          "type": "address"
        },
        {
          "internalType": "address",
          "name": "user",
          "type": "address"
        }
      ],
      "name": "getMinterApproval",
      "outputs": [
        {
          "internalType": "bool",
          "name": "",
          "type": "bool"
        }
      ],
      "stateMutability": "view",
      "type": "function"
    },
    {
      "inputs": [
        {
          "internalType": "address",
          "name": "account",
          "type": "address"
        }
      ],
      "name": "getNextNonce",
      "outputs": [
        {
          "internalType": "uint256",
          "name": "",
          "type": "uint256"
        }
      ],
      "stateMutability": "view",
      "type": "function"
    },
    {
      "inputs": [
        {
          "internalType": "contract ILiquidityGaugeFactory",
          "name": "factory",
          "type": "address"
        }
      ],
      "name": "isValidGaugeFactory",
      "outputs": [
        {
          "internalType": "bool",
          "name": "",
          "type": "bool"
        }
      ],
      "stateMutability": "view",
      "type": "function"
    },
    {
      "inputs": [
        {
          "internalType": "address",
          "name": "gauge",
          "type": "address"
        }
      ],
      "name": "mint",
      "outputs": [
        {
          "internalType": "uint256",
          "name": "",
          "type": "uint256"
        }
      ],
      "stateMutability": "nonpayable",
      "type": "function"
    },
    {
      "inputs": [
        {
          "internalType": "address",
          "name": "gauge",
          "type": "address"
        },
        {
          "internalType": "address",
          "name": "user",
          "type": "address"
        }
      ],
      "name": "mintFor",
      "outputs": [
        {
          "internalType": "uint256",
          "name": "",
          "type": "uint256"
        }
      ],
      "stateMutability": "nonpayable",
      "type": "function"
    },
    {
      "inputs": [
        {
          "internalType": "address[]",
          "name": "gauges",
          "type": "address[]"
        }
      ],
      "name": "mintMany",
      "outputs": [
        {
          "internalType": "uint256",
          "name": "",
          "type": "uint256"
        }
      ],
      "stateMutability": "nonpayable",
      "type": "function"
    },
    {
      "inputs": [
        {
          "internalType": "address[]",
          "name": "gauges",
          "type": "address[]"
        },
        {
          "internalType": "address",
          "name": "user",
          "type": "address"
        }
      ],
      "name": "mintManyFor",
      "outputs": [
        {
          "internalType": "uint256",
          "name": "",
          "type": "uint256"
        }
      ],
      "stateMutability": "nonpayable",
      "type": "function"
    },
    {
      "inputs": [
        {
          "internalType": "address",
          "name": "gauge",
          "type": "address"
        },
        {
          "internalType": "address",
          "name": "user",
          "type": "address"
        }
      ],
      "name": "mint_for",
      "outputs": [],
      "stateMutability": "nonpayable",
      "type": "function"
    },
    {
      "inputs": [
        {
          "internalType": "address[8]",
          "name": "gauges",
          "type": "address[8]"
        }
      ],
      "name": "mint_many",
      "outputs": [],
      "stateMutability": "nonpayable",
      "type": "function"
    },
    {
      "inputs": [
        {
          "internalType": "address",
          "name": "user",
          "type": "address"
        },
        {
          "internalType": "address",
          "name": "gauge",
          "type": "address"
        }
      ],
      "name": "minted",
      "outputs": [
        {
          "internalType": "uint256",
          "name": "",
          "type": "uint256"
        }
      ],
      "stateMutability": "view",
      "type": "function"
    },
    {
      "inputs": [
        {
          "internalType": "address",
          "name": "user",
          "type": "address"
        },
        {
          "internalType": "address",
          "name": "gauge",
          "type": "address"
        }
      ],
      "name": "mintedToUser",
      "outputs": [
        {
          "internalType": "uint256",
          "name": "",
          "type": "uint256"
        }
      ],
      "stateMutability": "view",
      "type": "function"
    },
    {
      "inputs": [],
      "name": "owner",
      "outputs": [
        {
          "internalType": "address",
          "name": "",
          "type": "address"
        }
      ],
      "stateMutability": "view",
      "type": "function"
    },
    {
      "inputs": [],
      "name": "pendingOwner",
      "outputs": [
        {
          "internalType": "address",
          "name": "",
          "type": "address"
        }
      ],
      "stateMutability": "view",
      "type": "function"
    },
    {
      "inputs": [
        {
          "internalType": "contract ILiquidityGaugeFactory",
          "name": "factory",
          "type": "address"
        }
      ],
      "name": "removeGaugeFactory",
      "outputs": [],
      "stateMutability": "nonpayable",
      "type": "function"
    },
    {
      "inputs": [],
      "name": "renounceOwnership",
      "outputs": [],
      "stateMutability": "nonpayable",
      "type": "function"
    },
    {
      "inputs": [
        {
          "internalType": "uint256",
          "name": "_daoFee",
          "type": "uint256"
        },
        {
          "internalType": "uint256",
          "name": "_deployerFee",
          "type": "uint256"
        }
      ],
      "name": "setFees",
      "outputs": [],
      "stateMutability": "nonpayable",
      "type": "function"
    },
    {
      "inputs": [
        {
          "internalType": "address",
          "name": "minter",
          "type": "address"
        },
        {
          "internalType": "bool",
          "name": "approval",
          "type": "bool"
        }
      ],
      "name": "setMinterApproval",
      "outputs": [],
      "stateMutability": "nonpayable",
      "type": "function"
    },
    {
      "inputs": [
        {
          "internalType": "address",
          "name": "minter",
          "type": "address"
        },
        {
          "internalType": "bool",
          "name": "approval",
          "type": "bool"
        },
        {
          "internalType": "address",
          "name": "user",
          "type": "address"
        },
        {
          "internalType": "uint256",
          "name": "deadline",
          "type": "uint256"
        },
        {
          "internalType": "uint8",
          "name": "v",
          "type": "uint8"
        },
        {
          "internalType": "bytes32",
          "name": "r",
          "type": "bytes32"
        },
        {
          "internalType": "bytes32",
          "name": "s",
          "type": "bytes32"
        }
      ],
      "name": "setMinterApprovalWithSignature",
      "outputs": [],
      "stateMutability": "nonpayable",
      "type": "function"
    },
    {
      "inputs": [
        {
          "internalType": "address",
          "name": "minter",
          "type": "address"
        }
      ],
      "name": "toggle_approve_mint",
      "outputs": [],
      "stateMutability": "nonpayable",
      "type": "function"
    },
    {
      "inputs": [
        {
          "internalType": "address",
          "name": "newOwner",
          "type": "address"
        }
      ],
      "name": "transferOwnership",
      "outputs": [],
      "stateMutability": "nonpayable",
      "type": "function"
    }
  ],
  "bytecode": "0x6101806040523480156200001257600080fd5b506040516200244738038062002447833981016040819052620000359162000259565b806040518060400160405280601281526020017129b4b637902839b2bab2379026b4b73a32b960711b815250604051806040016040528060018152602001603160f81b815250818160016000819055506200009b6001836200016460201b90919060201c565b61012052620000ac81600262000164565b61014052815160208084019190912060e052815190820120610100524660a0526200013a60e05161010051604080517f8b73c3c69bb8fe3d512ecc4cf759cc79239f7b179b0ffacaa9a75d522b39400f60208201529081019290925260608201524660808201523060a082015260009060c00160405160208183030381529060405280519060200120905090565b60805250503060c0526200014e336200019d565b50506001600160a01b0316610160525062000471565b600060208351101562000184576200017c83620001bb565b905062000197565b8162000191848262000330565b5060ff90505b92915050565b600580546001600160a01b0319169055620001b88162000207565b50565b600080829050601f81511115620001f2578260405163305a27a960e01b8152600401620001e99190620003fc565b60405180910390fd5b8051620001ff826200044c565b179392505050565b600480546001600160a01b038381166001600160a01b0319831681179093556040519116919082907f8be0079c531659141344cd1fd0a4f28419497f9722a3daafe3b4186f6b6457e090600090a35050565b6000602082840312156200026c57600080fd5b81516001600160a01b03811681146200028457600080fd5b9392505050565b634e487b7160e01b600052604160045260246000fd5b600181811c90821680620002b657607f821691505b602082108103620002d757634e487b7160e01b600052602260045260246000fd5b50919050565b601f8211156200032b57600081815260208120601f850160051c81016020861015620003065750805b601f850160051c820191505b81811015620003275782815560010162000312565b5050505b505050565b81516001600160401b038111156200034c576200034c6200028b565b62000364816200035d8454620002a1565b84620002dd565b602080601f8311600181146200039c5760008415620003835750858301515b600019600386901b1c1916600185901b17855562000327565b600085815260208120601f198616915b82811015620003cd57888601518255948401946001909101908401620003ac565b5085821015620003ec5787850151600019600388901b60f8161c191681555b5050505050600190811b01905550565b600060208083528351808285015260005b818110156200042b578581018301518582016040015282016200040d565b506000604082860101526040601f19601f8301168501019250505092915050565b80516020808301519190811015620002d75760001960209190910360031b1b16919050565b60805160a05160c05160e05161010051610120516101405161016051611f69620004de6000396000818161042c015261128f015260006109320152600061090701526000610f7101526000610f4901526000610ea401526000610ece01526000610ef80152611f696000f3fe608060405234801561001057600080fd5b50600436106101da5760003560e01c80637a60e63a11610104578063c0039699116100a2578063dd289d6011610071578063dd289d60146104c6578063e30c3978146104d9578063ed24911d146104ea578063f2fde38b146104f257600080fd5b8063c00396991461042a578063c654279414610450578063d4adab4014610463578063db8d55f11461049c57600080fd5b80638da5cb5b116100de5780638da5cb5b146103c957806390193b7c146103ee578063a099003314610291578063a51e19041461041757600080fd5b80637a60e63a1461036257806384b0196e146103755780638b752bb01461039057600080fd5b80633c543bc61161017c5780636c71e9201161014b5780636c71e92014610313578063715018a61461033f5780637504a15d1461034757806379ba50971461035a57600080fd5b80633c543bc6146102915780633eb6e846146102dd578063457755cb146102e65780636a6278421461030057600080fd5b80632957b839116101b85780632957b8391461021a57806338f121521461024a578063397ada211461025d5780633b9f73841461027e57600080fd5b80630b78f9c0146101df5780630de54ba0146101f457806327f18ae314610207575b600080fd5b6101f26101ed366004611a44565b610505565b005b6101f2610202366004611a89565b61059d565b6101f2610215366004611ac2565b6105ac565b60065461022d906001600160801b031681565b6040516001600160801b0390911681526020015b60405180910390f35b6101f2610258366004611af0565b6105f6565b61027061026b366004611b59565b6106b0565b604051908152602001610241565b61027061028c366004611b9b565b6106d7565b6102cd61029f366004611ac2565b6001600160a01b03918216600090815260096020908152604080832093909416825291909152205460ff1690565b6040519015158152602001610241565b610270610bb881565b60065461022d90600160801b90046001600160801b031681565b61027061030e366004611af0565b610742565b6102cd610321366004611af0565b6001600160a01b03166000908152600a602052604090205460ff1690565b6101f2610767565b610270610355366004611ac2565b61077b565b6101f26107d2565b6101f2610370366004611af0565b61084c565b61037d6108f9565b6040516102419796959493929190611c42565b61027061039e366004611ac2565b6001600160a01b03918216600090815260076020908152604080832093909416825291909152205490565b6004546001600160a01b03165b6040516001600160a01b039091168152602001610241565b6102706103fc366004611af0565b6001600160a01b031660009081526003602052604090205490565b6101f2610425366004611cd8565b610982565b7f00000000000000000000000000000000000000000000000000000000000000006103d6565b6101f261045e366004611d03565b610a15565b610270610471366004611ac2565b6001600160a01b03918216600090815260086020908152604080832093909416825291909152205490565b600654604080516001600160801b038084168252600160801b909304909216602083015201610241565b6101f26104d4366004611af0565b610ad3565b6005546001600160a01b03166103d6565b610270610b06565b6101f2610500366004611af0565b610b15565b61050d610b86565b610bb861051a8284611d99565b111561053957604051630658df5360e31b815260040160405180910390fd5b6001600160801b03828116600160801b838316810282811760068190556040805192861690941782529190910490921660208301527f55589a71b7512692e2b494ce9cccfd8df2c98f5321191acb273c05c37e7b53bd910160405180910390a15050565b6105a8823383610be0565b5050565b6105b4610c50565b3360009081526009602090815260408083206001600160a01b038516845290915290205460ff16156105ec576105ea8282610ca9565b505b6105a86001600055565b6105fe610b86565b6001600160a01b0381166000908152600a602052604090205460ff16156106645760405162461bcd60e51b8152602060048201526015602482015274119050d513d49657d053149150511657d051111151605a1b60448201526064015b60405180910390fd5b6001600160a01b0381166000818152600a6020526040808220805460ff19166001179055517f8e2924dc08a7879532dca0c2c0460bd67eb431ab342df45afd2c4f7288aab9b79190a250565b60006106ba610c50565b6106c5838333610cc1565b90506106d16001600055565b92915050565b60006106e1610c50565b3360009081526009602090815260408083206001600160a01b038616845290915290205460ff166107245760405162461bcd60e51b815260040161065b90611dac565b61072f848484610cc1565b905061073b6001600055565b9392505050565b600061074c610c50565b6107568233610ca9565b90506107626001600055565b919050565b61076f610b86565b6107796000610d2d565b565b6000610785610c50565b3360009081526009602090815260408083206001600160a01b038616845290915290205460ff166107c85760405162461bcd60e51b815260040161065b90611dac565b6106c58383610ca9565b60055433906001600160a01b031681146108405760405162461bcd60e51b815260206004820152602960248201527f4f776e61626c6532537465703a2063616c6c6572206973206e6f7420746865206044820152683732bb9037bbb732b960b91b606482015260840161065b565b61084981610d2d565b50565b610854610b86565b6001600160a01b0381166000908152600a602052604090205460ff166108b05760405162461bcd60e51b8152602060048201526011602482015270119050d513d49657d393d517d051111151607a1b604482015260640161065b565b6001600160a01b0381166000818152600a6020526040808220805460ff19169055517fdc66290a40b716cd9557c1d6c84315e06de88697ee252b89e1a9a9b053dc307b9190a250565b60006060808280808361092d7f00000000000000000000000000000000000000000000000000000000000000006001610d46565b6109587f00000000000000000000000000000000000000000000000000000000000000006002610d46565b60408051600080825260208201909252600f60f81b9b939a50919850469750309650945092509050565b61098a610c50565b60005b6008811015610a0a5760008282600881106109aa576109aa611def565b6020020160208101906109bd9190611af0565b6001600160a01b031614610a0a576109f98282600881106109e0576109e0611def565b6020020160208101906109f39190611af0565b33610ca9565b50610a0381611e05565b905061098d565b506108496001600055565b60007fc87351a089bbdc3b2b9299d2ce29f08fd982826b275b3642939a2f7fdd8153808888610a59896001600160a01b031660009081526003602052604090205490565b6040805160208101959095526001600160a01b039093169284019290925215156060830152608082015260a0810186905260c001604051602081830303815290604052805190602001209050610abe8682610ab5878787610df1565b886101f8610e31565b610ac9888789610be0565b5050505050505050565b6001600160a01b038116600090815260096020908152604080832033845290915290205461084990829060ff161561059d565b6000610b10610e97565b905090565b610b1d610b86565b600580546001600160a01b0383166001600160a01b03199091168117909155610b4e6004546001600160a01b031690565b6001600160a01b03167f38d16b8cac22d99fc7c124b9cd0de2d3fa1faef420bfe791d8c362d765e2270060405160405180910390a350565b6004546001600160a01b031633146107795760405162461bcd60e51b815260206004820181905260248201527f4f776e61626c653a2063616c6c6572206973206e6f7420746865206f776e6572604482015260640161065b565b6001600160a01b03838116600081815260096020908152604080832094871680845294825291829020805460ff191686151590811790915591519182529192917fa3ffb51320bbca4e61e7423e3c97dd7bd7e31b6ea7429eb26ef92780e84572a0910160405180910390a3505050565b600260005403610ca25760405162461bcd60e51b815260206004820152601f60248201527f5265656e7472616e637947756172643a207265656e7472616e742063616c6c00604482015260640161065b565b6002600055565b6000610cb58383610fc2565b90506106d1828261127c565b600082815b81811015610d1a57610d08610d01878784818110610ce657610ce6611def565b9050602002016020810190610cfb9190611af0565b86610fc2565b84906112b6565b9250610d1381611e05565b9050610cc6565b50610d25838361127c565b509392505050565b600580546001600160a01b0319169055610849816112c2565b606060ff8314610d6057610d5983611314565b90506106d1565b818054610d6c90611e1e565b80601f0160208091040260200160405190810160405280929190818152602001828054610d9890611e1e565b8015610de55780601f10610dba57610100808354040283529160200191610de5565b820191906000526020600020905b815481529060010190602001808311610dc857829003601f168201915b505050505090506106d1565b6040805160418082526080820190925260609160009190602082018180368337019050509050836020820152826040820152846060820153949350505050565b6000610e3c85611353565b9050610e52610e4c878387611380565b83611438565b610e61428410156101b8611438565b6001600160a01b0386166000908152600360205260408120805460019290610e8a908490611d99565b9091555050505050505050565b6000306001600160a01b037f000000000000000000000000000000000000000000000000000000000000000016148015610ef057507f000000000000000000000000000000000000000000000000000000000000000046145b15610f1a57507f000000000000000000000000000000000000000000000000000000000000000090565b610b10604080517f8b73c3c69bb8fe3d512ecc4cf759cc79239f7b179b0ffacaa9a75d522b39400f60208201527f0000000000000000000000000000000000000000000000000000000000000000918101919091527f000000000000000000000000000000000000000000000000000000000000000060608201524660808201523060a082015260009060c00160405160208183030381529060405280519060200120905090565b6000808390506000816001600160a01b031663c45a01556040518163ffffffff1660e01b8152600401602060405180830381865afa158015611008573d6000803e3d6000fd5b505050506040513d601f19601f8201168201806040525081019061102c9190611e58565b9050611050816001600160a01b03166000908152600a602052604090205460ff1690565b6110945760405162461bcd60e51b8152602060048201526015602482015274494e56414c49445f47415547455f464143544f525960581b604482015260640161065b565b60405163ce3cc8bd60e01b81526001600160a01b03868116600483015282169063ce3cc8bd90602401602060405180830381865afa1580156110da573d6000803e3d6000fd5b505050506040513d601f19601f820116820180604052508101906110fe9190611e75565b61113a5760405162461bcd60e51b815260206004820152600d60248201526c494e56414c49445f474155474560981b604482015260640161065b565b604051634b82009360e01b81526001600160a01b038581166004830152831690634b820093906024016020604051808303816000875af1158015611182573d6000803e3d6000fd5b505050506040513d601f19601f820116820180604052508101906111a69190611e75565b50604051630940070760e01b81526001600160a01b03858116600483015260009190841690630940070790602401602060405180830381865afa1580156111f1573d6000803e3d6000fd5b505050506040513d601f19601f820116820180604052508101906112159190611e92565b6001600160a01b038087166000908152600760209081526040808320938b1683529290522054909150611249908290611446565b935083156112735761125b8685611452565b935061126885878361159f565b611273858786611607565b50505092915050565b80156105a8576105a86001600160a01b037f00000000000000000000000000000000000000000000000000000000000000001683836116a5565b600061073b8284611d99565b600480546001600160a01b038381166001600160a01b0319831681179093556040519116919082907f8be0079c531659141344cd1fd0a4f28419497f9722a3daafe3b4186f6b6457e090600090a35050565b60606000611321836116fc565b604080516020808252818301909252919250600091906020820181803683375050509182525060208101929092525090565b60006106d1611360610e97565b8360405161190160f01b8152600281019290925260228201526042902090565b600061139282516041146101b9611438565b602082810151604080850151606080870151835160008082529681018086528a905290861a938101849052908101849052608081018290529293909260019060a0016020604051602081039080840390855afa1580156113f6573d6000803e3d6000fd5b5050604051601f1901519150506001600160a01b0381161580159061142c5750876001600160a01b0316816001600160a01b0316145b98975050505050505050565b816105a8576105a881611724565b600061073b8284611eab565b600081600003611464575060006106d1565b600080846001600160a01b031663bccfafd16040518163ffffffff1660e01b81526004016040805180830381865afa1580156114a4573d6000803e3d6000fd5b505050506040513d601f19601f820116820180604052508101906114c89190611ebe565b60065491935091506000906114e990849087906001600160801b0316611734565b905060006115168387600660109054906101000a90046001600160801b03166001600160801b0316611734565b86955090508115158061152857508015155b156115955780820185039450826001600160a01b0316846001600160a01b0316886001600160a01b03167ff51d4f85b9c67a6999073394e680d7eaba2ae56553370c00088941bf662f6b52858560405161158c929190918252602082015260400190565b60405180910390a45b5050505092915050565b6001600160a01b038381166000818152600760209081526040808320948716808452948252918290208590558151938452830184905290917f9d228d69b5fdb8d273a2336f8fb8612d039631024ea9bf09c424a9503aa078f0910160405180910390a2505050565b6001600160a01b03808416600090815260086020908152604080832093861683529290529081205461163a908390611d99565b6001600160a01b0385811660008181526008602090815260408083209489168084529482529182902085905581519384528301849052929350917f1d3c306136bd426714f135bc4ac6c18f7e52d80d7d07e4cab37de75e47474481910160405180910390a250505050565b604080516001600160a01b038416602482015260448082018490528251808303909101815260649091019091526020810180516001600160e01b031663a9059cbb60e01b1790526116f7908490611772565b505050565b600060ff8216601f8111156106d157604051632cd44ac360e21b815260040160405180910390fd5b610849816210905360ea1b611847565b600081158061174a57506001600160a01b038416155b156117575750600061073b565b6117618284611eed565b6127109004905061073b84826118aa565b60006117c7826040518060400160405280602081526020017f5361666545524332303a206c6f772d6c6576656c2063616c6c206661696c6564815250856001600160a01b03166118b49092919063ffffffff16565b90508051600014806117e85750808060200190518101906117e89190611e75565b6116f75760405162461bcd60e51b815260206004820152602a60248201527f5361666545524332303a204552433230206f7065726174696f6e20646964206e6044820152691bdd081cdd58d8d9595960b21b606482015260840161065b565b62461bcd60e51b600090815260206004526007602452600a808404818106603090810160081b958390069590950190829004918206850160101b01602363ffffff0060e086901c160160181b0190930160c81b604481905260e883901c91606490fd5b6105a8828261127c565b60606118c384846000856118cb565b949350505050565b60608247101561192c5760405162461bcd60e51b815260206004820152602660248201527f416464726573733a20696e73756666696369656e742062616c616e636520666f6044820152651c8818d85b1b60d21b606482015260840161065b565b600080866001600160a01b031685876040516119489190611f04565b60006040518083038185875af1925050503d8060008114611985576040519150601f19603f3d011682016040523d82523d6000602084013e61198a565b606091505b509150915061199b878383876119a6565b979650505050505050565b60608315611a15578251600003611a0e576001600160a01b0385163b611a0e5760405162461bcd60e51b815260206004820152601d60248201527f416464726573733a2063616c6c20746f206e6f6e2d636f6e7472616374000000604482015260640161065b565b50816118c3565b6118c38383815115611a2a5781518083602001fd5b8060405162461bcd60e51b815260040161065b9190611f20565b60008060408385031215611a5757600080fd5b50508035926020909101359150565b6001600160a01b038116811461084957600080fd5b801515811461084957600080fd5b60008060408385031215611a9c57600080fd5b8235611aa781611a66565b91506020830135611ab781611a7b565b809150509250929050565b60008060408385031215611ad557600080fd5b8235611ae081611a66565b91506020830135611ab781611a66565b600060208284031215611b0257600080fd5b813561073b81611a66565b60008083601f840112611b1f57600080fd5b50813567ffffffffffffffff811115611b3757600080fd5b6020830191508360208260051b8501011115611b5257600080fd5b9250929050565b60008060208385031215611b6c57600080fd5b823567ffffffffffffffff811115611b8357600080fd5b611b8f85828601611b0d565b90969095509350505050565b600080600060408486031215611bb057600080fd5b833567ffffffffffffffff811115611bc757600080fd5b611bd386828701611b0d565b9094509250506020840135611be781611a66565b809150509250925092565b60005b83811015611c0d578181015183820152602001611bf5565b50506000910152565b60008151808452611c2e816020860160208601611bf2565b601f01601f19169290920160200192915050565b60ff60f81b881681526000602060e081840152611c6260e084018a611c16565b8381036040850152611c74818a611c16565b606085018990526001600160a01b038816608086015260a0850187905284810360c0860152855180825283870192509083019060005b81811015611cc657835183529284019291840191600101611caa565b50909c9b505050505050505050505050565b6000610100808385031215611cec57600080fd5b838184011115611cfb57600080fd5b509092915050565b600080600080600080600060e0888a031215611d1e57600080fd5b8735611d2981611a66565b96506020880135611d3981611a7b565b95506040880135611d4981611a66565b945060608801359350608088013560ff81168114611d6657600080fd5b9699959850939692959460a0840135945060c09093013592915050565b634e487b7160e01b600052601160045260246000fd5b808201808211156106d1576106d1611d83565b60208082526023908201527f43616c6c6572206e6f7420616c6c6f77656420746f206d696e7420666f72207560408201526239b2b960e91b606082015260800190565b634e487b7160e01b600052603260045260246000fd5b600060018201611e1757611e17611d83565b5060010190565b600181811c90821680611e3257607f821691505b602082108103611e5257634e487b7160e01b600052602260045260246000fd5b50919050565b600060208284031215611e6a57600080fd5b815161073b81611a66565b600060208284031215611e8757600080fd5b815161073b81611a7b565b600060208284031215611ea457600080fd5b5051919050565b818103818111156106d1576106d1611d83565b60008060408385031215611ed157600080fd5b8251611edc81611a66565b6020840151909250611ab781611a66565b80820281158282048414176106d1576106d1611d83565b60008251611f16818460208701611bf2565b9190910192915050565b60208152600061073b6020830184611c1656fea2646970667358221220bf2d8319156d5619dc7fdf40dbacdfc1cd9c4c09d6930cb4a31d30288265520264736f6c63430008150033",
  "language": "Solidity",
  "compiler": "0.8.21+commit.d9974bed"
}