{
  "address": "0x13b7f88100E291D6f7AacA22300fbe91ac2BB253",
  "abi": [
    {
      "inputs": [
        {
          "internalType": "contract IERC20",
          "name": "votingEscrow",
          "type": "address"
        },
        {
          "internalType": "contract IVeDelegation",
          "name": "delegation",
          "type": "address"
        }
      ],
      "stateMutability": "nonpayable",
      "type": "constructor"
    },
    {
      "anonymous": false,
      "inputs": [
        {
          "indexed": true,
          "internalType": "address",
          "name": "newImplementation",
          "type": "address"
        }
      ],
      "name": "DelegationImplementationUpdated",
      "type": "event"
    },
    {
      "anonymous": false,
      "inputs": [
        {
          "indexed": true,
          "internalType": "address",
          "name": "previousOwner",
          "type": "address"
        },
        {
          "indexed": true,
          "internalType": "address",
          "name": "newOwner",
          "type": "address"
        }
      ],
      "name": "OwnershipTransferStarted",
      "type": "event"
    },
    {
      "anonymous": false,
      "inputs": [
        {
          "indexed": true,
          "internalType": "address",
          "name": "previousOwner",
          "type": "address"
        },
        {
          "indexed": true,
          "internalType": "address",
          "name": "newOwner",
          "type": "address"
        }
      ],
      "name": "OwnershipTransferred",
      "type": "event"
    },
    {
      "inputs": [],
      "name": "acceptOwnership",
      "outputs": [],
      "stateMutability": "nonpayable",
      "type": "function"
    },
    {
      "inputs": [
        {
          "internalType": "address",
          "name": "user",
          "type": "address"
        }
      ],
      "name": "adjustedBalanceOf",
      "outputs": [
        {
          "internalType": "uint256",
          "name": "",
          "type": "uint256"
        }
      ],
      "stateMutability": "view",
      "type": "function"
    },
    {
      "inputs": [
        {
          "internalType": "address",
          "name": "user",
          "type": "address"
        }
      ],
      "name": "adjusted_balance_of",
      "outputs": [
        {
          "internalType": "uint256",
          "name": "",
          "type": "uint256"
        }
      ],
      "stateMutability": "view",
      "type": "function"
    },
    {
      "inputs": [],
      "name": "getDelegationImplementation",
      "outputs": [
        {
          "internalType": "contract IVeDelegation",
          "name": "",
          "type": "address"
        }
      ],
      "stateMutability": "view",
      "type": "function"
    },
    {
      "inputs": [],
      "name": "getVotingEscrow",
      "outputs": [
        {
          "internalType": "contract IERC20",
          "name": "",
          "type": "address"
        }
      ],
      "stateMutability": "view",
      "type": "function"
    },
    {
      "inputs": [],
      "name": "killDelegation",
      "outputs": [],
      "stateMutability": "nonpayable",
      "type": "function"
    },
    {
      "inputs": [],
      "name": "owner",
      "outputs": [
        {
          "internalType": "address",
          "name": "",
          "type": "address"
        }
      ],
      "stateMutability": "view",
      "type": "function"
    },
    {
      "inputs": [],
      "name": "pendingOwner",
      "outputs": [
        {
          "internalType": "address",
          "name": "",
          "type": "address"
        }
      ],
      "stateMutability": "view",
      "type": "function"
    },
    {
      "inputs": [],
      "name": "renounceOwnership",
      "outputs": [],
      "stateMutability": "nonpayable",
      "type": "function"
    },
    {
      "inputs": [
        {
          "internalType": "contract IVeDelegation",
          "name": "delegation",
          "type": "address"
        }
      ],
      "name": "setDelegation",
      "outputs": [],
      "stateMutability": "nonpayable",
      "type": "function"
    },
    {
      "inputs": [],
      "name": "totalSupply",
      "outputs": [
        {
          "internalType": "uint256",
          "name": "",
          "type": "uint256"
        }
      ],
      "stateMutability": "view",
      "type": "function"
    },
    {
      "inputs": [
        {
          "internalType": "address",
          "name": "newOwner",
          "type": "address"
        }
      ],
      "name": "transferOwnership",
      "outputs": [],
      "stateMutability": "nonpayable",
      "type": "function"
    }
  ],
  "bytecode": "0x60a060405234801561001057600080fd5b506040516107d93803806107d983398101604081905261002f916100e1565b61003833610060565b6001600160a01b03918216608052600280546001600160a01b0319169190921617905561011b565b600180546001600160a01b03191690556100798161007c565b50565b600080546001600160a01b038381166001600160a01b0319831681178455604051919092169283917f8be0079c531659141344cd1fd0a4f28419497f9722a3daafe3b4186f6b6457e09190a35050565b6001600160a01b038116811461007957600080fd5b600080604083850312156100f457600080fd5b82516100ff816100cc565b6020840151909250610110816100cc565b809150509250929050565b6080516106966101436000396000818160bb015281816101aa01526104b601526106966000f3fe608060405234801561001057600080fd5b50600436106100b45760003560e01c806379ba50971161007157806379ba5097146101445780638da5cb5b1461014c578063bbf7408a1461010e578063e30c39781461015d578063e6b3e7041461016e578063f2fde38b1461018157600080fd5b806308b0308a146100b957806318160ddd146100f8578063257984181461010e57806363408a90146101215780636448a3ab14610132578063715018a61461013c575b600080fd5b7f00000000000000000000000000000000000000000000000000000000000000005b6040516001600160a01b0390911681526020015b60405180910390f35b610100610194565b6040519081526020016100ef565b61010061011c36600461062a565b61026e565b6002546001600160a01b03166100db565b61013a61027f565b005b61013a6102c4565b61013a6102d8565b6000546001600160a01b03166100db565b6001546001600160a01b03166100db565b61013a61017c36600461062a565b610357565b61013a61018f36600461062a565b610412565b6002546000906001600160a01b031680610230577f00000000000000000000000000000000000000000000000000000000000000006001600160a01b03166318160ddd6040518163ffffffff1660e01b8152600401602060405180830381865afa158015610206573d6000803e3d6000fd5b505050506040513d601f19601f8201168201806040525081019061022a9190610647565b91505090565b806001600160a01b03166318160ddd6040518163ffffffff1660e01b8152600401602060405180830381865afa158015610206573d6000803e3d6000fd5b600061027982610483565b92915050565b610287610557565b600280546001600160a01b03191690556040516000907fb2f6d9cc189e4fc02519ab5ba6d9455bedc32091e375e8a6383ed45f40653e74908290a2565b6102cc610557565b6102d660006105b1565b565b60015433906001600160a01b0316811461034b5760405162461bcd60e51b815260206004820152602960248201527f4f776e61626c6532537465703a2063616c6c6572206973206e6f7420746865206044820152683732bb9037bbb732b960b91b60648201526084015b60405180910390fd5b610354816105b1565b50565b61035f610557565b604051635dfba04560e11b81523360048201526001600160a01b0382169063bbf7408a90602401602060405180830381865afa1580156103a3573d6000803e3d6000fd5b505050506040513d601f19601f820116820180604052508101906103c79190610647565b50600280546001600160a01b0319166001600160a01b0383169081179091556040517fb2f6d9cc189e4fc02519ab5ba6d9455bedc32091e375e8a6383ed45f40653e7490600090a250565b61041a610557565b600180546001600160a01b0383166001600160a01b0319909116811790915561044b6000546001600160a01b031690565b6001600160a01b03167f38d16b8cac22d99fc7c124b9cd0de2d3fa1faef420bfe791d8c362d765e2270060405160405180910390a350565b6002546000906001600160a01b031680610529576040516370a0823160e01b81526001600160a01b0384811660048301527f000000000000000000000000000000000000000000000000000000000000000016906370a08231906024015b602060405180830381865afa1580156104fe573d6000803e3d6000fd5b505050506040513d601f19601f820116820180604052508101906105229190610647565b9392505050565b604051635dfba04560e11b81526001600160a01b03848116600483015282169063bbf7408a906024016104e1565b6000546001600160a01b031633146102d65760405162461bcd60e51b815260206004820181905260248201527f4f776e61626c653a2063616c6c6572206973206e6f7420746865206f776e65726044820152606401610342565b600180546001600160a01b031916905561035481600080546001600160a01b038381166001600160a01b0319831681178455604051919092169283917f8be0079c531659141344cd1fd0a4f28419497f9722a3daafe3b4186f6b6457e09190a35050565b6001600160a01b038116811461035457600080fd5b60006020828403121561063c57600080fd5b813561052281610615565b60006020828403121561065957600080fd5b505191905056fea2646970667358221220c6df934afb431cede3c04f23f25d61cdc4feeeee589751d809d90bfe2fe6984264736f6c63430008150033",
  "language": "Solidity",
  "compiler": "0.8.21+commit.d9974bed"
}