{
  "address": "0xa40111994F44C8add82eF495269e19109c9A982A",
  "abi": [
    {
      "inputs": [
        {
          "internalType": "address",
          "name": "_router",
          "type": "address"
        },
        {
          "internalType": "uint64",
          "name": "_sourceChainSelector",
          "type": "uint64"
        }
      ],
      "stateMutability": "nonpayable",
      "type": "constructor"
    },
    {
      "inputs": [
        {
          "internalType": "address",
          "name": "target",
          "type": "address"
        },
        {
          "internalType": "uint256",
          "name": "value",
          "type": "uint256"
        }
      ],
      "name": "FailedToWithdraw",
      "type": "error"
    },
    {
      "inputs": [
        {
          "internalType": "address",
          "name": "router",
          "type": "address"
        }
      ],
      "name": "InvalidRouter",
      "type": "error"
    },
    {
      "inputs": [],
      "name": "NothingToWithdraw",
      "type": "error"
    },
    {
      "inputs": [],
      "name": "UnauthorizedSender",
      "type": "error"
    },
    {
      "inputs": [],
      "name": "UnknownMessageType",
      "type": "error"
    },
    {
      "inputs": [],
      "name": "UnsupportedSourceChain",
      "type": "error"
    },
    {
      "anonymous": false,
      "inputs": [
        {
          "indexed": false,
          "internalType": "address",
          "name": "sender",
          "type": "address"
        }
      ],
      "name": "MainChainSenderConfiguered",
      "type": "event"
    },
    {
      "anonymous": false,
      "inputs": [
        {
          "indexed": true,
          "internalType": "bytes32",
          "name": "messageId",
          "type": "bytes32"
        }
      ],
      "name": "MessageReceived",
      "type": "event"
    },
    {
      "anonymous": false,
      "inputs": [
        {
          "indexed": true,
          "internalType": "address",
          "name": "previousOwner",
          "type": "address"
        },
        {
          "indexed": true,
          "internalType": "address",
          "name": "newOwner",
          "type": "address"
        }
      ],
      "name": "OwnershipTransferStarted",
      "type": "event"
    },
    {
      "anonymous": false,
      "inputs": [
        {
          "indexed": true,
          "internalType": "address",
          "name": "previousOwner",
          "type": "address"
        },
        {
          "indexed": true,
          "internalType": "address",
          "name": "newOwner",
          "type": "address"
        }
      ],
      "name": "OwnershipTransferred",
      "type": "event"
    },
    {
      "anonymous": false,
      "inputs": [
        {
          "components": [
            {
              "internalType": "int128",
              "name": "bias",
              "type": "int128"
            },
            {
              "internalType": "int128",
              "name": "slope",
              "type": "int128"
            },
            {
              "internalType": "uint256",
              "name": "ts",
              "type": "uint256"
            },
            {
              "internalType": "uint256",
              "name": "blk",
              "type": "uint256"
            }
          ],
          "indexed": false,
          "internalType": "struct IVeSilo.Point",
          "name": "totalSupplyPoint",
          "type": "tuple"
        }
      ],
      "name": "TotalSupplyUpdated",
      "type": "event"
    },
    {
      "anonymous": false,
      "inputs": [
        {
          "indexed": true,
          "internalType": "address",
          "name": "user",
          "type": "address"
        },
        {
          "indexed": false,
          "internalType": "uint256",
          "name": "lockedEnd",
          "type": "uint256"
        },
        {
          "components": [
            {
              "internalType": "int128",
              "name": "bias",
              "type": "int128"
            },
            {
              "internalType": "int128",
              "name": "slope",
              "type": "int128"
            },
            {
              "internalType": "uint256",
              "name": "ts",
              "type": "uint256"
            },
            {
              "internalType": "uint256",
              "name": "blk",
              "type": "uint256"
            }
          ],
          "indexed": false,
          "internalType": "struct IVeSilo.Point",
          "name": "userPoint",
          "type": "tuple"
        }
      ],
      "name": "UserBalanceUpdated",
      "type": "event"
    },
    {
      "inputs": [],
      "name": "SOURCE_CHAIN_SELECTOR",
      "outputs": [
        {
          "internalType": "uint64",
          "name": "",
          "type": "uint64"
        }
      ],
      "stateMutability": "view",
      "type": "function"
    },
    {
      "inputs": [],
      "name": "acceptOwnership",
      "outputs": [],
      "stateMutability": "nonpayable",
      "type": "function"
    },
    {
      "inputs": [
        {
          "internalType": "address",
          "name": "_user",
          "type": "address"
        }
      ],
      "name": "balanceOf",
      "outputs": [
        {
          "internalType": "uint256",
          "name": "balance",
          "type": "uint256"
        }
      ],
      "stateMutability": "view",
      "type": "function"
    },
    {
      "inputs": [
        {
          "components": [
            {
              "internalType": "bytes32",
              "name": "messageId",
              "type": "bytes32"
            },
            {
              "internalType": "uint64",
              "name": "sourceChainSelector",
              "type": "uint64"
            },
            {
              "internalType": "bytes",
              "name": "sender",
              "type": "bytes"
            },
            {
              "internalType": "bytes",
              "name": "data",
              "type": "bytes"
            },
            {
              "components": [
                {
                  "internalType": "address",
                  "name": "token",
                  "type": "address"
                },
                {
                  "internalType": "uint256",
                  "name": "amount",
                  "type": "uint256"
                }
              ],
              "internalType": "struct Client.EVMTokenAmount[]",
              "name": "destTokenAmounts",
              "type": "tuple[]"
            }
          ],
          "internalType": "struct Client.Any2EVMMessage",
          "name": "message",
          "type": "tuple"
        }
      ],
      "name": "ccipReceive",
      "outputs": [],
      "stateMutability": "nonpayable",
      "type": "function"
    },
    {
      "inputs": [
        {
          "components": [
            {
              "internalType": "int128",
              "name": "bias",
              "type": "int128"
            },
            {
              "internalType": "int128",
              "name": "slope",
              "type": "int128"
            },
            {
              "internalType": "uint256",
              "name": "ts",
              "type": "uint256"
            },
            {
              "internalType": "uint256",
              "name": "blk",
              "type": "uint256"
            }
          ],
          "internalType": "struct IVeSilo.Point",
          "name": "_p",
          "type": "tuple"
        }
      ],
      "name": "getPointValue",
      "outputs": [
        {
          "internalType": "uint256",
          "name": "value",
          "type": "uint256"
        }
      ],
      "stateMutability": "view",
      "type": "function"
    },
    {
      "inputs": [],
      "name": "getRouter",
      "outputs": [
        {
          "internalType": "address",
          "name": "",
          "type": "address"
        }
      ],
      "stateMutability": "view",
      "type": "function"
    },
    {
      "inputs": [
        {
          "internalType": "address",
          "name": "user",
          "type": "address"
        }
      ],
      "name": "locked__end",
      "outputs": [
        {
          "internalType": "uint256",
          "name": "endOfLockPeriod",
          "type": "uint256"
        }
      ],
      "stateMutability": "view",
      "type": "function"
    },
    {
      "inputs": [],
      "name": "owner",
      "outputs": [
        {
          "internalType": "address",
          "name": "",
          "type": "address"
        }
      ],
      "stateMutability": "view",
      "type": "function"
    },
    {
      "inputs": [],
      "name": "pendingOwner",
      "outputs": [
        {
          "internalType": "address",
          "name": "",
          "type": "address"
        }
      ],
      "stateMutability": "view",
      "type": "function"
    },
    {
      "inputs": [],
      "name": "renounceOwnership",
      "outputs": [],
      "stateMutability": "nonpayable",
      "type": "function"
    },
    {
      "inputs": [
        {
          "internalType": "address",
          "name": "_sourceChainSender",
          "type": "address"
        }
      ],
      "name": "setSourceChainSender",
      "outputs": [],
      "stateMutability": "nonpayable",
      "type": "function"
    },
    {
      "inputs": [],
      "name": "sourceChainSender",
      "outputs": [
        {
          "internalType": "address",
          "name": "",
          "type": "address"
        }
      ],
      "stateMutability": "view",
      "type": "function"
    },
    {
      "inputs": [
        {
          "internalType": "bytes4",
          "name": "interfaceId",
          "type": "bytes4"
        }
      ],
      "name": "supportsInterface",
      "outputs": [
        {
          "internalType": "bool",
          "name": "",
          "type": "bool"
        }
      ],
      "stateMutability": "pure",
      "type": "function"
    },
    {
      "inputs": [],
      "name": "totalSupply",
      "outputs": [
        {
          "internalType": "uint256",
          "name": "result",
          "type": "uint256"
        }
      ],
      "stateMutability": "view",
      "type": "function"
    },
    {
      "inputs": [],
      "name": "totalSupplyPoint",
      "outputs": [
        {
          "internalType": "int128",
          "name": "bias",
          "type": "int128"
        },
        {
          "internalType": "int128",
          "name": "slope",
          "type": "int128"
        },
        {
          "internalType": "uint256",
          "name": "ts",
          "type": "uint256"
        },
        {
          "internalType": "uint256",
          "name": "blk",
          "type": "uint256"
        }
      ],
      "stateMutability": "view",
      "type": "function"
    },
    {
      "inputs": [
        {
          "internalType": "address",
          "name": "newOwner",
          "type": "address"
        }
      ],
      "name": "transferOwnership",
      "outputs": [],
      "stateMutability": "nonpayable",
      "type": "function"
    },
    {
      "inputs": [
        {
          "internalType": "address",
          "name": "user",
          "type": "address"
        }
      ],
      "name": "userPoints",
      "outputs": [
        {
          "internalType": "int128",
          "name": "bias",
          "type": "int128"
        },
        {
          "internalType": "int128",
          "name": "slope",
          "type": "int128"
        },
        {
          "internalType": "uint256",
          "name": "ts",
          "type": "uint256"
        },
        {
          "internalType": "uint256",
          "name": "blk",
          "type": "uint256"
        }
      ],
      "stateMutability": "view",
      "type": "function"
    },
    {
      "inputs": [
        {
          "internalType": "address",
          "name": "_beneficiary",
          "type": "address"
        }
      ],
      "name": "withdraw",
      "outputs": [],
      "stateMutability": "nonpayable",
      "type": "function"
    },
    {
      "inputs": [
        {
          "internalType": "address",
          "name": "_beneficiary",
          "type": "address"
        },
        {
          "internalType": "address",
          "name": "_token",
          "type": "address"
        }
      ],
      "name": "withdrawToken",
      "outputs": [],
      "stateMutability": "nonpayable",
      "type": "function"
    }
  ],
  "bytecode": "0x60c060405234801561001057600080fd5b50604051620013fd380380620013fd833981016040819052610031916100f3565b816001600160a01b038116610060576040516335fdcccd60e21b81526000600482015260240160405180910390fd5b6001600160a01b031660805261007533610087565b6001600160401b031660a05250610145565b600180546001600160a01b03191690556100a0816100a3565b50565b600080546001600160a01b038381166001600160a01b0319831681178455604051919092169283917f8be0079c531659141344cd1fd0a4f28419497f9722a3daafe3b4186f6b6457e09190a35050565b6000806040838503121561010657600080fd5b82516001600160a01b038116811461011d57600080fd5b60208401519092506001600160401b038116811461013a57600080fd5b809150509250929050565b60805160a0516112846200017960003960008181610191015261087701526000818161027301526106e401526112846000f3fe608060405234801561001057600080fd5b50600436106101215760003560e01c806379ba5097116100ad578063bbb5785711610071578063bbb5785714610297578063e30c3978146102aa578063f2fde38b146102bb578063f4182acb146102ce578063f50ddbc71461031757600080fd5b806379ba50971461022557806385572ffb1461022d5780638da5cb5b14610240578063adc6358914610251578063b0f479a11461027157600080fd5b80634717262b116100f45780634717262b1461018c57806351cff8d9146101cc578063578a0efe146101df57806370a082311461020a578063715018a61461021d57600080fd5b806301ffc9a71461012657806318160ddd1461014e578063378ef708146101645780633aeac4e114610177575b600080fd5b610139610134366004610c0f565b610355565b60405190151581526020015b60405180910390f35b61015661038c565b604051908152602001610145565b610156610172366004610cfe565b6103d2565b61018a610185366004610d6a565b610426565b005b6101b37f000000000000000000000000000000000000000000000000000000000000000081565b60405167ffffffffffffffff9091168152602001610145565b61018a6101da366004610da3565b610535565b6002546101f2906001600160a01b031681565b6040516001600160a01b039091168152602001610145565b610156610218366004610da3565b6105f0565b61018a61064b565b61018a61065f565b61018a61023b366004610dc0565b6106d9565b6000546001600160a01b03166101f2565b61015661025f366004610da3565b60066020526000908152604090205481565b7f00000000000000000000000000000000000000000000000000000000000000006101f2565b61018a6102a5366004610da3565b610735565b6001546001600160a01b03166101f2565b61018a6102c9366004610da3565b610791565b6003546004546005546102ef92600f81810b93600160801b909204900b9184565b60408051600f95860b81529390940b6020840152928201526060810191909152608001610145565b6102ef610325366004610da3565b600760205260009081526040902080546001820154600290920154600f82810b93600160801b909304900b919084565b60006001600160e01b031982166385572ffb60e01b148061038657506001600160e01b031982166301ffc9a760e01b145b92915050565b60408051608081018252600354600f81810b8352600160801b909104900b60208201526004549181019190915260055460608201526000906103cd906103d2565b905090565b6000808260400151426103e59190610e11565b83602001516103f49190610e24565b83516104009190610e4b565b9050600081600f0b1261041c57806001600160801b031661041f565b60005b9392505050565b61042e610802565b6040516370a0823160e01b81523060048201526000906001600160a01b038316906370a0823190602401602060405180830381865afa158015610475573d6000803e3d6000fd5b505050506040513d601f19601f820116820180604052508101906104999190610e8a565b9050806000036104bc57604051630686827b60e51b815260040160405180910390fd5b60405163a9059cbb60e01b81526001600160a01b0384811660048301526024820183905283169063a9059cbb906044016020604051808303816000875af115801561050b573d6000803e3d6000fd5b505050506040513d601f19601f8201168201806040525081019061052f9190610ea3565b50505050565b61053d610802565b47600081900361056057604051630686827b60e51b815260040160405180910390fd5b6000826001600160a01b03168260405160006040518083038185875af1925050503d80600081146105ad576040519150601f19603f3d011682016040523d82523d6000602084013e6105b2565b606091505b50509050806105eb576040516378e1a7e360e11b81526001600160a01b0384166004820152602481018390526044015b60405180910390fd5b505050565b6001600160a01b038116600090815260076020908152604080832081516080810183528154600f81810b8352600160801b909104900b93810193909352600181015491830191909152600201546060820152610386906103d2565b610653610802565b61065d600061085c565b565b60015433906001600160a01b031681146106cd5760405162461bcd60e51b815260206004820152602960248201527f4f776e61626c6532537465703a2063616c6c6572206973206e6f7420746865206044820152683732bb9037bbb732b960b91b60648201526084016105e2565b6106d68161085c565b50565b336001600160a01b037f00000000000000000000000000000000000000000000000000000000000000001614610724576040516335fdcccd60e21b81523360048201526024016105e2565b6106d661073082610fff565b610875565b61073d610802565b600280546001600160a01b0319166001600160a01b0383169081179091556040519081527f684225f2d248264008d124953042124514cfc72cab4a1f1d6e88b0c5736f13a39060200160405180910390a150565b610799610802565b600180546001600160a01b0383166001600160a01b031990911681179091556107ca6000546001600160a01b031690565b6001600160a01b03167f38d16b8cac22d99fc7c124b9cd0de2d3fa1faef420bfe791d8c362d765e2270060405160405180910390a350565b6000546001600160a01b0316331461065d5760405162461bcd60e51b815260206004820181905260248201527f4f776e61626c653a2063616c6c6572206973206e6f7420746865206f776e657260448201526064016105e2565b600180546001600160a01b03191690556106d6816109b5565b7f000000000000000000000000000000000000000000000000000000000000000067ffffffffffffffff16816020015167ffffffffffffffff16146108cd57604051630e488d3560e21b815260040160405180910390fd5b600081604001518060200190518101906108e791906110ac565b6002549091506001600160a01b0380831691161461091857604051630101292160e31b815260040160405180910390fd5b606082015160208101516000816001811115610936576109366110c9565b036109495761094482610a05565b610984565b600181600181111561095d5761095d6110c9565b0361096b5761094482610b6c565b6040516304c735eb60e11b815260040160405180910390fd5b83516040517fe29dc34207c78fc0f6048a32f159139c33339c6d6df8b07dcd33f6d699ff232790600090a250505050565b600080546001600160a01b038381166001600160a01b0319831681178455604051919092169283917f8be0079c531659141344cd1fd0a4f28419497f9722a3daafe3b4186f6b6457e09190a35050565b6040805160808101825260008082526020820181905291810182905260608101829052819060408051608081018252600080825260208201819052918101829052606081019190915284806020019051810190610a629190611146565b6001600160a01b038416600081815260066020908152604080832087905560078252918290208551918601516001600160801b03908116600160801b029216919091178155818501516001820155606085015160029091015551949950929750909550935091507f0b045302c2d4935ce0babec6ac360084c22c66d72556617803377df68c71d85690610af890869086906111aa565b60405180910390a2805160208201516001600160801b03908116600160801b029116176003556040808201516004556060820151600555517f02e5cad5e9890d9e62b08557035a1b58753175a159cf95084efd66d49ee9f3c790610b5d9083906111e5565b60405180910390a15050505050565b6040805160808101825260008082526020808301829052928201819052606082015282519091610ba2918401810190840161121a565b805160208201516001600160801b03908116600160801b029116176003556040808201516004556060820151600555519092507f02e5cad5e9890d9e62b08557035a1b58753175a159cf95084efd66d49ee9f3c79150610c039083906111e5565b60405180910390a15050565b600060208284031215610c2157600080fd5b81356001600160e01b03198116811461041f57600080fd5b634e487b7160e01b600052604160045260246000fd5b6040516080810167ffffffffffffffff81118282101715610c7257610c72610c39565b60405290565b6040805190810167ffffffffffffffff81118282101715610c7257610c72610c39565b60405160a0810167ffffffffffffffff81118282101715610c7257610c72610c39565b604051601f8201601f1916810167ffffffffffffffff81118282101715610ce757610ce7610c39565b604052919050565b80600f0b81146106d657600080fd5b600060808284031215610d1057600080fd5b610d18610c4f565b8235610d2381610cef565b81526020830135610d3381610cef565b6020820152604083810135908201526060928301359281019290925250919050565b6001600160a01b03811681146106d657600080fd5b60008060408385031215610d7d57600080fd5b8235610d8881610d55565b91506020830135610d9881610d55565b809150509250929050565b600060208284031215610db557600080fd5b813561041f81610d55565b600060208284031215610dd257600080fd5b813567ffffffffffffffff811115610de957600080fd5b820160a0818503121561041f57600080fd5b634e487b7160e01b600052601160045260246000fd5b8181038181111561038657610386610dfb565b600082600f0b82600f0b0280600f0b9150808214610e4457610e44610dfb565b5092915050565b600f82810b9082900b036f7fffffffffffffffffffffffffffffff1981126f7fffffffffffffffffffffffffffffff8213171561038657610386610dfb565b600060208284031215610e9c57600080fd5b5051919050565b600060208284031215610eb557600080fd5b8151801515811461041f57600080fd5b803567ffffffffffffffff81168114610edd57600080fd5b919050565b600082601f830112610ef357600080fd5b813567ffffffffffffffff811115610f0d57610f0d610c39565b610f20601f8201601f1916602001610cbe565b818152846020838601011115610f3557600080fd5b816020850160208301376000918101602001919091529392505050565b600082601f830112610f6357600080fd5b8135602067ffffffffffffffff821115610f7f57610f7f610c39565b610f8d818360051b01610cbe565b82815260069290921b84018101918181019086841115610fac57600080fd5b8286015b84811015610ff45760408189031215610fc95760008081fd5b610fd1610c78565b8135610fdc81610d55565b81528185013585820152835291830191604001610fb0565b509695505050505050565b600060a0823603121561101157600080fd5b611019610c9b565b8235815261102960208401610ec5565b6020820152604083013567ffffffffffffffff8082111561104957600080fd5b61105536838701610ee2565b6040840152606085013591508082111561106e57600080fd5b61107a36838701610ee2565b6060840152608085013591508082111561109357600080fd5b506110a036828601610f52565b60808301525092915050565b6000602082840312156110be57600080fd5b815161041f81610d55565b634e487b7160e01b600052602160045260246000fd5b805160028110610edd57600080fd5b60006080828403121561110057600080fd5b611108610c4f565b9050815161111581610cef565b8152602082015161112581610cef565b80602083015250604082015160408201526060820151606082015292915050565b6000806000806000610160868803121561115f57600080fd5b611168866110df565b9450602086015161117881610d55565b6040870151909450925061118f87606088016110ee565b915061119e8760e088016110ee565b90509295509295909350565b82815260a0810161041f60208301848051600f0b82526020810151600f0b602083015260408101516040830152606081015160608301525050565b6080810161038682848051600f0b82526020810151600f0b602083015260408101516040830152606081015160608301525050565b60008060a0838503121561122d57600080fd5b611236836110df565b915061124584602085016110ee565b9050925092905056fea2646970667358221220b995f9e653d1e1dbffbb6f1942dc137f5333e061332d0101b47eeb2ccb5b8bde64736f6c63430008150033",
  "language": "Solidity",
  "compiler": "0.8.21+commit.d9974bed"
}