{
  "_format": "hh-sol-artifact-1",
  "contractName": "MockRewardTokenDistributor",
  "sourceName": "contracts/test/MockRewardTokenDistributor.sol",
  "abi": [
    {
      "inputs": [
        {
          "internalType": "contract IERC20",
          "name": "rewardToken",
          "type": "address"
        },
        {
          "internalType": "address",
          "name": "distributor",
          "type": "address"
        }
      ],
      "name": "add_reward",
      "outputs": [],
      "stateMutability": "nonpayable",
      "type": "function"
    },
    {
      "inputs": [
        {
          "internalType": "address",
          "name": "user",
          "type": "address"
        }
      ],
      "name": "claim_rewards",
      "outputs": [],
      "stateMutability": "nonpayable",
      "type": "function"
    },
    {
      "inputs": [
        {
          "internalType": "address",
          "name": "",
          "type": "address"
        },
        {
          "internalType": "address",
          "name": "",
          "type": "address"
        }
      ],
      "name": "claimable_reward",
      "outputs": [
        {
          "internalType": "uint256",
          "name": "",
          "type": "uint256"
        }
      ],
      "stateMutability": "pure",
      "type": "function"
    },
    {
      "inputs": [
        {
          "internalType": "address",
          "name": "",
          "type": "address"
        },
        {
          "internalType": "address",
          "name": "",
          "type": "address"
        }
      ],
      "name": "claimable_reward_write",
      "outputs": [
        {
          "internalType": "uint256",
          "name": "",
          "type": "uint256"
        }
      ],
      "stateMutability": "pure",
      "type": "function"
    },
    {
      "inputs": [
        {
          "internalType": "contract IERC20",
          "name": "rewardToken",
          "type": "address"
        },
        {
          "internalType": "uint256",
          "name": "amount",
          "type": "uint256"
        }
      ],
      "name": "deposit_reward_token",
      "outputs": [],
      "stateMutability": "nonpayable",
      "type": "function"
    },
    {
      "inputs": [
        {
          "internalType": "contract IERC20",
          "name": "token",
          "type": "address"
        }
      ],
      "name": "reward_data",
      "outputs": [
        {
          "components": [
            {
              "internalType": "contract IERC20",
              "name": "token",
              "type": "address"
            },
            {
              "internalType": "address",
              "name": "distributor",
              "type": "address"
            },
            {
              "internalType": "uint256",
              "name": "period_finish",
              "type": "uint256"
            },
            {
              "internalType": "uint256",
              "name": "rate",
              "type": "uint256"
            },
            {
              "internalType": "uint256",
              "name": "last_update",
              "type": "uint256"
            },
            {
              "internalType": "uint256",
              "name": "integral",
              "type": "uint256"
            }
          ],
          "internalType": "struct IRewardTokenDistributor.Reward",
          "name": "",
          "type": "tuple"
        }
      ],
      "stateMutability": "view",
      "type": "function"
    },
    {
      "inputs": [
        {
          "internalType": "uint256",
          "name": "index",
          "type": "uint256"
        }
      ],
      "name": "reward_tokens",
      "outputs": [
        {
          "internalType": "contract IERC20",
          "name": "",
          "type": "address"
        }
      ],
      "stateMutability": "view",
      "type": "function"
    },
    {
      "inputs": [
        {
          "internalType": "contract IERC20",
          "name": "rewardToken",
          "type": "address"
        },
        {
          "internalType": "address",
          "name": "distributor",
          "type": "address"
        }
      ],
      "name": "set_reward_distributor",
      "outputs": [],
      "stateMutability": "nonpayable",
      "type": "function"
    }
  ],
  "bytecode": "0x608060405234801561001057600080fd5b506108f1806100206000396000f3fe608060405234801561001057600080fd5b50600436106100885760003560e01c806359b7e4091161005b57806359b7e409146100a257806384e9bd7e1461010b57806393f7aa671461011e578063e8de0d4d1461013157610088565b8063058a3a241461008d57806333fd6f74146100a257806348e9c65e146100cb57806354c49fe9146100eb575b600080fd5b6100a061009b3660046106be565b610144565b005b6100b56100b0366004610666565b61019a565b6040516100c29190610890565b60405180910390f35b6100de6100d9366004610643565b6101a2565b6040516100c29190610832565b6100fe6100f93660046106fb565b61021e565b6040516100c2919061077d565b6100a0610119366004610643565b61024b565b6100a061012c3660046106d0565b61024e565b6100a061013f3660046106be565b6102e0565b73ffffffffffffffffffffffffffffffffffffffff918216600090815260096020526040902060010180547fffffffffffffffffffffffff00000000000000000000000000000000000000001691909216179055565b600092915050565b6101aa6105e1565b5073ffffffffffffffffffffffffffffffffffffffff908116600090815260096020908152604091829020825160c08101845281548516815260018201549094169184019190915260028101549183019190915260038101546060830152600481015460808301526005015460a082015290565b60006001826008811061022d57fe5b015473ffffffffffffffffffffffffffffffffffffffff1692915050565b50565b73ffffffffffffffffffffffffffffffffffffffff8281166000908152600960205260409020600101541633146102ba576040517f08c379a00000000000000000000000000000000000000000000000000000000081526004016102b1906107d5565b60405180910390fd5b6102dc73ffffffffffffffffffffffffffffffffffffffff83163330846103f6565b5050565b816001600054600881106102f057fe5b01805473ffffffffffffffffffffffffffffffffffffffff9283167fffffffffffffffffffffffff0000000000000000000000000000000000000000918216179091556040805160c0810182528584168082528585166020808401918252600084860181815260608601828152426080880190815260a08801848152968452600990945296822095518654908a1690891617865592516001868101805492909a1691909816179097559051600284015592516003830155915160048201559051600590910155815401908190556008116102dc576040517f08c379a00000000000000000000000000000000000000000000000000000000081526004016102b19061079e565b610499846323b872dd60e01b8585856040516024016104179392919061074c565b604080517fffffffffffffffffffffffffffffffffffffffffffffffffffffffffffffffe08184030181529190526020810180517bffffffffffffffffffffffffffffffffffffffffffffffffffffffff167fffffffff000000000000000000000000000000000000000000000000000000009093169290921790915261049f565b50505050565b600060608373ffffffffffffffffffffffffffffffffffffffff16836040516104c89190610713565b6000604051808303816000865af19150503d8060008114610505576040519150601f19603f3d011682016040523d82523d6000602084013e61050a565b606091505b50915091506000821415610522573d6000803e3d6000fd5b610499815160001480610544575081806020019051810190610544919061069e565b6101a2816102dc577f08c379a000000000000000000000000000000000000000000000000000000000600090815260206004526007602452600a808304818106603090810160081b83860601918390049283060160101b016642414c230000300160c81b6044526102dc91839161024b917f42414c0000000000000000000000000000000000000000000000000000000000906242414c90606490fd5b6040518060c00160405280600073ffffffffffffffffffffffffffffffffffffffff168152602001600073ffffffffffffffffffffffffffffffffffffffff168152602001600081526020016000815260200160008152602001600081525090565b600060208284031215610654578081fd5b813561065f81610899565b9392505050565b60008060408385031215610678578081fd5b823561068381610899565b9150602083013561069381610899565b809150509250929050565b6000602082840312156106af578081fd5b8151801515811461065f578182fd5b60008060408385031215610678578182fd5b600080604083850312156106e2578182fd5b82356106ed81610899565b946020939093013593505050565b60006020828403121561070c578081fd5b5035919050565b60008251815b818110156107335760208186018101518583015201610719565b818111156107415782828501525b509190910192915050565b73ffffffffffffffffffffffffffffffffffffffff9384168152919092166020820152604081019190915260600190565b73ffffffffffffffffffffffffffffffffffffffff91909116815260200190565b60208082526016908201527f546f6f206d616e792072657761726420746f6b656e7300000000000000000000604082015260600190565b60208082526023908201527f4f6e6c792063616c6c61626c652062792072657761726420646973747269627560408201527f746f720000000000000000000000000000000000000000000000000000000000606082015260800190565b600060c08201905073ffffffffffffffffffffffffffffffffffffffff8084511683528060208501511660208401525060408301516040830152606083015160608301526080830151608083015260a083015160a083015292915050565b90815260200190565b73ffffffffffffffffffffffffffffffffffffffff8116811461024b57600080fdfea2646970667358221220899695e2abd63ae724a49d16650e09be094f21232964e5de63a131e12336669f64736f6c63430007010033",
  "linkReferences": {},
  "deployedLinkReferences": {}
}