{
  "_format": "hh-sol-artifact-1",
  "contractName": "MockAaveAMPLToken",
  "sourceName": "contracts/test/MockAaveAMPLToken.sol",
  "abi": [
    {
      "inputs": [
        {
          "internalType": "address",
          "name": "underlying_",
          "type": "address"
        },
        {
          "internalType": "string",
          "name": "name_",
          "type": "string"
        },
        {
          "internalType": "string",
          "name": "symbol_",
          "type": "string"
        }
      ],
      "stateMutability": "nonpayable",
      "type": "constructor"
    },
    {
      "anonymous": false,
      "inputs": [
        {
          "indexed": true,
          "internalType": "address",
          "name": "owner",
          "type": "address"
        },
        {
          "indexed": true,
          "internalType": "address",
          "name": "spender",
          "type": "address"
        },
        {
          "indexed": false,
          "internalType": "uint256",
          "name": "value",
          "type": "uint256"
        }
      ],
      "name": "Approval",
      "type": "event"
    },
    {
      "anonymous": false,
      "inputs": [
        {
          "indexed": true,
          "internalType": "address",
          "name": "from",
          "type": "address"
        },
        {
          "indexed": true,
          "internalType": "address",
          "name": "to",
          "type": "address"
        },
        {
          "indexed": false,
          "internalType": "uint256",
          "name": "value",
          "type": "uint256"
        }
      ],
      "name": "Transfer",
      "type": "event"
    },
    {
      "inputs": [],
      "name": "INITIAL_DEPOSIT",
      "outputs": [
        {
          "internalType": "uint256",
          "name": "",
          "type": "uint256"
        }
      ],
      "stateMutability": "view",
      "type": "function"
    },
    {
      "inputs": [],
      "name": "UNDERLYING_ASSET_ADDRESS",
      "outputs": [
        {
          "internalType": "address",
          "name": "",
          "type": "address"
        }
      ],
      "stateMutability": "view",
      "type": "function"
    },
    {
      "inputs": [
        {
          "internalType": "address",
          "name": "owner",
          "type": "address"
        },
        {
          "internalType": "address",
          "name": "spender",
          "type": "address"
        }
      ],
      "name": "allowance",
      "outputs": [
        {
          "internalType": "uint256",
          "name": "",
          "type": "uint256"
        }
      ],
      "stateMutability": "view",
      "type": "function"
    },
    {
      "inputs": [
        {
          "internalType": "address",
          "name": "spender",
          "type": "address"
        },
        {
          "internalType": "uint256",
          "name": "amount",
          "type": "uint256"
        }
      ],
      "name": "approve",
      "outputs": [
        {
          "internalType": "bool",
          "name": "",
          "type": "bool"
        }
      ],
      "stateMutability": "nonpayable",
      "type": "function"
    },
    {
      "inputs": [
        {
          "internalType": "address",
          "name": "account",
          "type": "address"
        }
      ],
      "name": "balanceOf",
      "outputs": [
        {
          "internalType": "uint256",
          "name": "",
          "type": "uint256"
        }
      ],
      "stateMutability": "view",
      "type": "function"
    },
    {
      "inputs": [
        {
          "internalType": "address",
          "name": "owner",
          "type": "address"
        }
      ],
      "name": "balanceOfUnderlying",
      "outputs": [
        {
          "internalType": "uint256",
          "name": "",
          "type": "uint256"
        }
      ],
      "stateMutability": "view",
      "type": "function"
    },
    {
      "inputs": [
        {
          "internalType": "uint256",
          "name": "amount",
          "type": "uint256"
        }
      ],
      "name": "burn",
      "outputs": [
        {
          "internalType": "uint256",
          "name": "",
          "type": "uint256"
        }
      ],
      "stateMutability": "nonpayable",
      "type": "function"
    },
    {
      "inputs": [],
      "name": "burnAll",
      "outputs": [
        {
          "internalType": "uint256",
          "name": "",
          "type": "uint256"
        }
      ],
      "stateMutability": "nonpayable",
      "type": "function"
    },
    {
      "inputs": [
        {
          "internalType": "address",
          "name": "to",
          "type": "address"
        }
      ],
      "name": "burnAllTo",
      "outputs": [
        {
          "internalType": "uint256",
          "name": "",
          "type": "uint256"
        }
      ],
      "stateMutability": "nonpayable",
      "type": "function"
    },
    {
      "inputs": [
        {
          "internalType": "address",
          "name": "to",
          "type": "address"
        },
        {
          "internalType": "uint256",
          "name": "amount",
          "type": "uint256"
        }
      ],
      "name": "burnTo",
      "outputs": [
        {
          "internalType": "uint256",
          "name": "",
          "type": "uint256"
        }
      ],
      "stateMutability": "nonpayable",
      "type": "function"
    },
    {
      "inputs": [],
      "name": "decimals",
      "outputs": [
        {
          "internalType": "uint8",
          "name": "",
          "type": "uint8"
        }
      ],
      "stateMutability": "view",
      "type": "function"
    },
    {
      "inputs": [
        {
          "internalType": "address",
          "name": "spender",
          "type": "address"
        },
        {
          "internalType": "uint256",
          "name": "subtractedValue",
          "type": "uint256"
        }
      ],
      "name": "decreaseAllowance",
      "outputs": [
        {
          "internalType": "bool",
          "name": "",
          "type": "bool"
        }
      ],
      "stateMutability": "nonpayable",
      "type": "function"
    },
    {
      "inputs": [
        {
          "internalType": "uint256",
          "name": "uAmount",
          "type": "uint256"
        }
      ],
      "name": "deposit",
      "outputs": [
        {
          "internalType": "uint256",
          "name": "",
          "type": "uint256"
        }
      ],
      "stateMutability": "nonpayable",
      "type": "function"
    },
    {
      "inputs": [
        {
          "internalType": "address",
          "name": "to",
          "type": "address"
        },
        {
          "internalType": "uint256",
          "name": "uAmount",
          "type": "uint256"
        }
      ],
      "name": "depositFor",
      "outputs": [
        {
          "internalType": "uint256",
          "name": "",
          "type": "uint256"
        }
      ],
      "stateMutability": "nonpayable",
      "type": "function"
    },
    {
      "inputs": [
        {
          "internalType": "address",
          "name": "spender",
          "type": "address"
        },
        {
          "internalType": "uint256",
          "name": "addedValue",
          "type": "uint256"
        }
      ],
      "name": "increaseAllowance",
      "outputs": [
        {
          "internalType": "bool",
          "name": "",
          "type": "bool"
        }
      ],
      "stateMutability": "nonpayable",
      "type": "function"
    },
    {
      "inputs": [
        {
          "internalType": "uint256",
          "name": "initialRate",
          "type": "uint256"
        }
      ],
      "name": "initialize",
      "outputs": [],
      "stateMutability": "nonpayable",
      "type": "function"
    },
    {
      "inputs": [
        {
          "internalType": "uint256",
          "name": "amount",
          "type": "uint256"
        }
      ],
      "name": "mint",
      "outputs": [
        {
          "internalType": "uint256",
          "name": "",
          "type": "uint256"
        }
      ],
      "stateMutability": "nonpayable",
      "type": "function"
    },
    {
      "inputs": [
        {
          "internalType": "address",
          "name": "to",
          "type": "address"
        },
        {
          "internalType": "uint256",
          "name": "amount",
          "type": "uint256"
        }
      ],
      "name": "mintFor",
      "outputs": [
        {
          "internalType": "uint256",
          "name": "",
          "type": "uint256"
        }
      ],
      "stateMutability": "nonpayable",
      "type": "function"
    },
    {
      "inputs": [],
      "name": "name",
      "outputs": [
        {
          "internalType": "string",
          "name": "",
          "type": "string"
        }
      ],
      "stateMutability": "view",
      "type": "function"
    },
    {
      "inputs": [],
      "name": "symbol",
      "outputs": [
        {
          "internalType": "string",
          "name": "",
          "type": "string"
        }
      ],
      "stateMutability": "view",
      "type": "function"
    },
    {
      "inputs": [],
      "name": "totalSupply",
      "outputs": [
        {
          "internalType": "uint256",
          "name": "",
          "type": "uint256"
        }
      ],
      "stateMutability": "view",
      "type": "function"
    },
    {
      "inputs": [],
      "name": "totalUnderlying",
      "outputs": [
        {
          "internalType": "uint256",
          "name": "",
          "type": "uint256"
        }
      ],
      "stateMutability": "view",
      "type": "function"
    },
    {
      "inputs": [
        {
          "internalType": "address",
          "name": "recipient",
          "type": "address"
        },
        {
          "internalType": "uint256",
          "name": "amount",
          "type": "uint256"
        }
      ],
      "name": "transfer",
      "outputs": [
        {
          "internalType": "bool",
          "name": "",
          "type": "bool"
        }
      ],
      "stateMutability": "nonpayable",
      "type": "function"
    },
    {
      "inputs": [
        {
          "internalType": "address",
          "name": "sender",
          "type": "address"
        },
        {
          "internalType": "address",
          "name": "recipient",
          "type": "address"
        },
        {
          "internalType": "uint256",
          "name": "amount",
          "type": "uint256"
        }
      ],
      "name": "transferFrom",
      "outputs": [
        {
          "internalType": "bool",
          "name": "",
          "type": "bool"
        }
      ],
      "stateMutability": "nonpayable",
      "type": "function"
    },
    {
      "inputs": [],
      "name": "underlying",
      "outputs": [
        {
          "internalType": "address",
          "name": "",
          "type": "address"
        }
      ],
      "stateMutability": "view",
      "type": "function"
    },
    {
      "inputs": [
        {
          "internalType": "uint256",
          "name": "uAmount",
          "type": "uint256"
        }
      ],
      "name": "underlyingToWrapper",
      "outputs": [
        {
          "internalType": "uint256",
          "name": "",
          "type": "uint256"
        }
      ],
      "stateMutability": "view",
      "type": "function"
    },
    {
      "inputs": [
        {
          "internalType": "uint256",
          "name": "uAmount",
          "type": "uint256"
        }
      ],
      "name": "withdraw",
      "outputs": [
        {
          "internalType": "uint256",
          "name": "",
          "type": "uint256"
        }
      ],
      "stateMutability": "nonpayable",
      "type": "function"
    },
    {
      "inputs": [],
      "name": "withdrawAll",
      "outputs": [
        {
          "internalType": "uint256",
          "name": "",
          "type": "uint256"
        }
      ],
      "stateMutability": "nonpayable",
      "type": "function"
    },
    {
      "inputs": [
        {
          "internalType": "address",
          "name": "to",
          "type": "address"
        }
      ],
      "name": "withdrawAllTo",
      "outputs": [
        {
          "internalType": "uint256",
          "name": "",
          "type": "uint256"
        }
      ],
      "stateMutability": "nonpayable",
      "type": "function"
    },
    {
      "inputs": [
        {
          "internalType": "address",
          "name": "to",
          "type": "address"
        },
        {
          "internalType": "uint256",
          "name": "uAmount",
          "type": "uint256"
        }
      ],
      "name": "withdrawTo",
      "outputs": [
        {
          "internalType": "uint256",
          "name": "",
          "type": "uint256"
        }
      ],
      "stateMutability": "nonpayable",
      "type": "function"
    },
    {
      "inputs": [
        {
          "internalType": "uint256",
          "name": "amount",
          "type": "uint256"
        }
      ],
      "name": "wrapperToUnderlying",
      "outputs": [
        {
          "internalType": "uint256",
          "name": "",
          "type": "uint256"
        }
      ],
      "stateMutability": "view",
      "type": "function"
    }
  ],
  "bytecode": "0x60806040523480156200001157600080fd5b50604051620017bd380380620017bd833981810160405260608110156200003757600080fd5b8151602083018051604051929492938301929190846401000000008211156200005f57600080fd5b9083019060208201858111156200007557600080fd5b82516401000000008111828201881017156200009057600080fd5b82525081516020918201929091019080838360005b83811015620000bf578181015183820152602001620000a5565b50505050905090810190601f168015620000ed5780820380516001836020036101000a031916815260200191505b50604052602001805160405193929190846401000000008211156200011157600080fd5b9083019060208201858111156200012757600080fd5b82516401000000008111828201881017156200014257600080fd5b82525081516020918201929091019080838360005b838110156200017157818101518382015260200162000157565b50505050905090810190601f1680156200019f5780820380516001836020036101000a031916815260200191505b5060405250505082828281818160039080519060200190620001c392919062000219565b508051620001d990600490602084019062000219565b5050600580546001600160a01b0390951661010002610100600160a81b031960ff19909616601217959095169490941790935550620002b5945050505050565b828054600181600116156101000203166002900490600052602060002090601f016020900481019282601f106200025c57805160ff19168380011785556200028c565b828001600101855582156200028c579182015b828111156200028c5782518255916020019190600101906200026f565b506200029a9291506200029e565b5090565b5b808211156200029a57600081556001016200029f565b6114f880620002c56000396000f3fe608060405234801561001057600080fd5b50600436106101e55760003560e01c806395d89b411161010f578063b6b55f25116100a2578063dd62ed3e11610071578063dd62ed3e1461063b578063ea785a5e14610676578063ed0287c0146106af578063fe4b84df146106cc576101e5565b8063b6b55f25146105aa578063c70920bc146105c7578063ca9add8f146105cf578063da1919b314610602576101e5565b8063a4fa9568116100de578063a4fa956814610521578063a9059cbb14610554578063aab3b7db1461058d578063b16a19de14610447576101e5565b806395d89b41146104bb5780639975038c146104c3578063a0712d68146104cb578063a457c2d7146104e8576101e5565b8063313ce567116101875780636f307dc3116101565780636f307dc31461044757806370a0823114610478578063853828b6146104ab5780638eb4f434146104b3576101e5565b8063313ce567146103a057806339509351146103be5780633af9e669146103f757806342966c681461042a576101e5565b8063205c2878116101c3578063205c2878146102ce57806323b872dd146103075780632e1a7d4d1461034a5780632f4f21e214610367576101e5565b806306fdde03146101ea578063095ea7b31461026757806318160ddd146102b4575b600080fd5b6101f26106eb565b6040805160208082528351818301528351919283929083019185019080838360005b8381101561022c578181015183820152602001610214565b50505050905090810190601f1680156102595780820380516001836020036101000a031916815260200191505b509250505060405180910390f35b6102a06004803603604081101561027d57600080fd5b5073ffffffffffffffffffffffffffffffffffffffff813516906020013561079f565b604080519115158252519081900360200190f35b6102bc6107b5565b60408051918252519081900360200190f35b6102bc600480360360408110156102e457600080fd5b5073ffffffffffffffffffffffffffffffffffffffff81351690602001356107bb565b6102a06004803603606081101561031d57600080fd5b5073ffffffffffffffffffffffffffffffffffffffff8135811691602081013590911690604001356107ec565b6102bc6004803603602081101561036057600080fd5b503561084d565b6102bc6004803603604081101561037d57600080fd5b5073ffffffffffffffffffffffffffffffffffffffff8135169060200135610870565b6103a861088d565b6040805160ff9092168252519081900360200190f35b6102a0600480360360408110156103d457600080fd5b5073ffffffffffffffffffffffffffffffffffffffff8135169060200135610896565b6102bc6004803603602081101561040d57600080fd5b503573ffffffffffffffffffffffffffffffffffffffff166108d9565b6102bc6004803603602081101561044057600080fd5b50356108fc565b61044f610919565b6040805173ffffffffffffffffffffffffffffffffffffffff9092168252519081900360200190f35b6102bc6004803603602081101561048e57600080fd5b503573ffffffffffffffffffffffffffffffffffffffff1661093a565b6102bc610962565b6102bc610992565b6101f2610998565b6102bc610a17565b6102bc600480360360208110156104e157600080fd5b5035610a47565b6102a0600480360360408110156104fe57600080fd5b5073ffffffffffffffffffffffffffffffffffffffff8135169060200135610a64565b6102bc6004803603602081101561053757600080fd5b503573ffffffffffffffffffffffffffffffffffffffff16610aaa565b6102a06004803603604081101561056a57600080fd5b5073ffffffffffffffffffffffffffffffffffffffff8135169060200135610ad4565b6102bc600480360360208110156105a357600080fd5b5035610ae1565b6102bc600480360360208110156105c057600080fd5b5035610aef565b6102bc610b0c565b6102bc600480360360208110156105e557600080fd5b503573ffffffffffffffffffffffffffffffffffffffff16610b1b565b6102bc6004803603604081101561061857600080fd5b5073ffffffffffffffffffffffffffffffffffffffff8135169060200135610b4c565b6102bc6004803603604081101561065157600080fd5b5073ffffffffffffffffffffffffffffffffffffffff81358116916020013516610b69565b6102bc6004803603604081101561068c57600080fd5b5073ffffffffffffffffffffffffffffffffffffffff8135169060200135610ba1565b6102bc600480360360208110156106c557600080fd5b5035610bbe565b6106e9600480360360208110156106e257600080fd5b5035610bcc565b005b60038054604080516020601f60027fffffffffffffffffffffffffffffffffffffffffffffffffffffffffffffffff6101006001881615020190951694909404938401819004810282018101909252828152606093909290918301828280156107955780601f1061076a57610100808354040283529160200191610795565b820191906000526020600020905b81548152906001019060200180831161077857829003601f168201915b5050505050905090565b60006107ac338484610c0e565b50600192915050565b60025490565b6000806107d7836107ca610c7d565b6107d26107b5565b610d24565b90506107e533858584610d3a565b9392505050565b60006107f9848484610dcc565b73ffffffffffffffffffffffffffffffffffffffff841660009081526001602090815260408083203380855292529091205461084391869161083e908661019e610ef5565b610c0e565b5060019392505050565b60008061085c836107ca610c7d565b905061086a33338584610d3a565b92915050565b60008061087f836107ca610c7d565b90506107e533858584610f0b565b60055460ff1690565b33600081815260016020908152604080832073ffffffffffffffffffffffffffffffffffffffff8716845290915281205490916107ac91859061083e9086610f98565b600061086a6108e78361093a565b6108ef610c7d565b6108f76107b5565b610faa565b60008061090b836108ef610c7d565b905061086a33338386610d3a565b600554610100900473ffffffffffffffffffffffffffffffffffffffff1690565b73ffffffffffffffffffffffffffffffffffffffff1660009081526020819052604090205490565b60008061096e3361093a565b9050600061097e826108ef610c7d565b905061098c33338385610d3a565b50905090565b6103e881565b60048054604080516020601f60027fffffffffffffffffffffffffffffffffffffffffffffffffffffffffffffffff6101006001881615020190951694909404938401819004810282018101909252828152606093909290918301828280156107955780601f1061076a57610100808354040283529160200191610795565b600080610a233361093a565b90506000610a33826108ef610c7d565b9050610a4133338385610d3a565b91505090565b600080610a56836108ef610c7d565b905061086a33338386610f0b565b33600081815260016020908152604080832073ffffffffffffffffffffffffffffffffffffffff8716845290915281205490916107ac91859061083e908661019f610ef5565b600080610ab63361093a565b90506000610ac6826108ef610c7d565b90506107e533858385610d3a565b60006107ac338484610dcc565b600061086a826108ef610c7d565b600080610afe836107ca610c7d565b905061086a33338584610f0b565b6000610b16610c7d565b905090565b600080610b273361093a565b90506000610b37826108ef610c7d565b9050610b4533858385610d3a565b5092915050565b600080610b5b836108ef610c7d565b90506107e533858386610f0b565b73ffffffffffffffffffffffffffffffffffffffff918216600090815260016020908152604080832093909416825291909152205490565b600080610bb0836108ef610c7d565b90506107e533858386610d3a565b600061086a826107ca610c7d565b6005546103e882810291610c009161010090910473ffffffffffffffffffffffffffffffffffffffff169033903090610fb7565b610c0a308261104c565b5050565b73ffffffffffffffffffffffffffffffffffffffff808416600081815260016020908152604080832094871680845294825291829020859055815185815291517f8c5be1e5ebec7d5bd14f71427d1e84f3dd0314c0f7b2291e5b200ac8c7c3b9259281900390910190a3505050565b600554604080517f70a082310000000000000000000000000000000000000000000000000000000081523060048201529051600092610100900473ffffffffffffffffffffffffffffffffffffffff16916370a08231916024808301926020929190829003018186803b158015610cf357600080fd5b505afa158015610d07573d6000803e3d6000fd5b505050506040513d6020811015610d1d57600080fd5b5051905090565b60008282850281610d3157fe5b04949350505050565b60008111610d93576040517f08c379a000000000000000000000000000000000000000000000000000000000815260040180806020018281038252602e815260200180611467602e913960400191505060405180910390fd5b610d9d8482611105565b600554610dc690610100900473ffffffffffffffffffffffffffffffffffffffff1684846111f5565b50505050565b610df073ffffffffffffffffffffffffffffffffffffffff84161515610198611287565b610e1473ffffffffffffffffffffffffffffffffffffffff83161515610199611287565b610e1f838383611282565b73ffffffffffffffffffffffffffffffffffffffff8316600090815260208190526040902054610e5290826101a0610ef5565b73ffffffffffffffffffffffffffffffffffffffff8085166000908152602081905260408082209390935590841681522054610e8e9082610f98565b73ffffffffffffffffffffffffffffffffffffffff8084166000818152602081815260409182902094909455805185815290519193928716927fddf252ad1be2c89b69c2b068fc378daa952ba7f163c4a11628f55a4df523b3ef92918290030190a3505050565b6000610f048484111583611287565b5050900390565b60008111610f64576040517f08c379a000000000000000000000000000000000000000000000000000000000815260040180806020018281038252602e815260200180611495602e913960400191505060405180910390fd5b600554610f8e90610100900473ffffffffffffffffffffffffffffffffffffffff16853085610fb7565b610dc6838261104c565b60008282016107e58482101583611287565b60008183850281610d3157fe5b6040805173ffffffffffffffffffffffffffffffffffffffff80861660248301528416604482015260648082018490528251808303909101815260849091019091526020810180517bffffffffffffffffffffffffffffffffffffffffffffffffffffffff167f23b872dd00000000000000000000000000000000000000000000000000000000179052610dc6908590611295565b61105860008383611282565b61107261106d826110676107b5565b90610f98565b6113ab565b73ffffffffffffffffffffffffffffffffffffffff82166000908152602081905260409020546110a29082610f98565b73ffffffffffffffffffffffffffffffffffffffff83166000818152602081815260408083209490945583518581529351929391927fddf252ad1be2c89b69c2b068fc378daa952ba7f163c4a11628f55a4df523b3ef9281900390910190a35050565b61112973ffffffffffffffffffffffffffffffffffffffff8316151561019b611287565b61113582600083611282565b73ffffffffffffffffffffffffffffffffffffffff821660009081526020819052604090205461116890826101b2610ef5565b73ffffffffffffffffffffffffffffffffffffffff83166000908152602081905260409020556111a361106d8261119d6107b5565b906113b0565b60408051828152905160009173ffffffffffffffffffffffffffffffffffffffff8516917fddf252ad1be2c89b69c2b068fc378daa952ba7f163c4a11628f55a4df523b3ef9181900360200190a35050565b6040805173ffffffffffffffffffffffffffffffffffffffff8416602482015260448082018490528251808303909101815260649091019091526020810180517bffffffffffffffffffffffffffffffffffffffffffffffffffffffff167fa9059cbb00000000000000000000000000000000000000000000000000000000179052611282908490611295565b505050565b81610c0a57610c0a816113be565b600060608373ffffffffffffffffffffffffffffffffffffffff16836040518082805190602001908083835b602083106112fe57805182527fffffffffffffffffffffffffffffffffffffffffffffffffffffffffffffffe090920191602091820191016112c1565b6001836020036101000a0380198251168184511680821785525050505050509050019150506000604051808303816000865af19150503d8060008114611360576040519150601f19603f3d011682016040523d82523d6000602084013e611365565b606091505b5091509150600082141561137d573d6000803e3d6000fd5b610dc68151600014806113a357508180602001905160208110156113a057600080fd5b50515b6101a2611287565b600255565b60006107e583836001610ef5565b6113e8817f42414c00000000000000000000000000000000000000000000000000000000006113eb565b50565b7f08c379a000000000000000000000000000000000000000000000000000000000600090815260206004526007602452600a808404818106603090810160081b958390069590950190829004918206850160101b01602363ffffff0060e086901c160160181b0190930160c81b60445260e882901c90606490fdfe556e627574746f6e546f6b656e3a20746f6f2066657720756e627574746f6e20746f6b656e7320746f206275726e556e627574746f6e546f6b656e3a20746f6f2066657720756e627574746f6e20746f6b656e7320746f206d696e74a2646970667358221220c8b47cae180bd0e9798b84157bed3cf66f65255fd4b2c6726c7642bf109bcbe064736f6c63430007010033",
  "linkReferences": {},
  "deployedLinkReferences": {}
}