{
  "_format": "hh-sol-artifact-1",
  "contractName": "MaliciousQueryReverter",
  "sourceName": "contracts/test/MaliciousQueryReverter.sol",
  "abi": [
    {
      "inputs": [],
      "name": "maybeRevertMaliciously",
      "outputs": [],
      "stateMutability": "view",
      "type": "function"
    },
    {
      "inputs": [],
      "name": "revertType",
      "outputs": [
        {
          "internalType": "enum MaliciousQueryReverter.RevertType",
          "name": "",
          "type": "uint8"
        }
      ],
      "stateMutability": "view",
      "type": "function"
    },
    {
      "inputs": [
        {
          "internalType": "enum MaliciousQueryReverter.RevertType",
          "name": "newRevertType",
          "type": "uint8"
        }
      ],
      "name": "setRevertType",
      "outputs": [],
      "stateMutability": "nonpayable",
      "type": "function"
    },
    {
      "inputs": [],
      "name": "spoofJoinExitQueryRevert",
      "outputs": [],
      "stateMutability": "pure",
      "type": "function"
    },
    {
      "inputs": [],
      "name": "spoofSwapQueryRevert",
      "outputs": [],
      "stateMutability": "pure",
      "type": "function"
    }
  ],
  "bytecode": "0x60806040526000805460ff1916905534801561001a57600080fd5b5061035f8061002a6000396000f3fe608060405234801561001057600080fd5b50600436106100675760003560e01c80632cd10339116100505780632cd103391461007e5780637ce3ee481461009e578063d652e8c6146100a657610067565b8063146d4eee1461006c57806329478cb414610076575b600080fd5b6100746100cf565b005b61007461013f565b6100746004803603602081101561009457600080fd5b503560ff16610208565b610074610247565b6100ae610320565b604051808260038111156100be57fe5b815260200191505060405180910390f35b60408051600280825260608083018452926020830190803683370190505090506001816000815181106100fe57fe5b60200260200101818152505060028160018151811061011957fe5b602002602001018181525050602081510263fa61cc126020830352600482036024820181fd5b600160005460ff16600381111561015257fe5b14156101bf57604080517f08c379a000000000000000000000000000000000000000000000000000000000815260206004820152601460248201527f4e4f4e5f4d414c4943494f55535f524556455254000000000000000000000000604482015290519081900360640190fd5b600260005460ff1660038111156101d257fe5b14156101e5576101e06100cf565b610206565b600360005460ff1660038111156101f857fe5b1415610206576101e0610247565b565b600080548291907fffffffffffffffffffffffffffffffffffffffffffffffffffffffffffffff0016600183600381111561023f57fe5b021790555050565b604080516002808252606080830184529260208301908036833701905050905060018160008151811061027657fe5b60200260200101818152505060028160018151811061029157fe5b60209081029190910181019190915281516101a47fffffffffffffffffffffffffffffffffffffffffffffffffffffffffffffffe084018190526343adbafb7fffffffffffffffffffffffffffffffffffffffffffffffffffffffffffffffc085015291027fffffffffffffffffffffffffffffffffffffffffffffffffffffffffffffffdc83016044820181fd5b60005460ff168156fea2646970667358221220d638846ec723404cb84a67048f3a7af0af577e8902f55733a913f193e8d8218564736f6c63430007010033",
  "linkReferences": {},
  "deployedLinkReferences": {}
}