{
  "_format": "hh-sol-artifact-1",
  "contractName": "MockBatchRelayerLibrary",
  "sourceName": "contracts/test/MockBatchRelayerLibrary.sol",
  "abi": [
    {
      "inputs": [
        {
          "internalType": "contract IVault",
          "name": "vault",
          "type": "address"
        },
        {
          "internalType": "contract IERC20",
          "name": "wstETH",
          "type": "address"
        },
        {
          "internalType": "contract IBalancerMinter",
          "name": "minter",
          "type": "address"
        }
      ],
      "stateMutability": "nonpayable",
      "type": "constructor"
    },
    {
      "anonymous": false,
      "inputs": [
        {
          "indexed": false,
          "internalType": "uint256",
          "name": "value",
          "type": "uint256"
        }
      ],
      "name": "ChainedReferenceValueRead",
      "type": "event"
    },
    {
      "inputs": [
        {
          "internalType": "contract IERC20",
          "name": "token",
          "type": "address"
        },
        {
          "internalType": "uint256",
          "name": "amount",
          "type": "uint256"
        }
      ],
      "name": "approveVault",
      "outputs": [],
      "stateMutability": "payable",
      "type": "function"
    },
    {
      "inputs": [
        {
          "internalType": "enum IVault.SwapKind",
          "name": "kind",
          "type": "uint8"
        },
        {
          "components": [
            {
              "internalType": "bytes32",
              "name": "poolId",
              "type": "bytes32"
            },
            {
              "internalType": "uint256",
              "name": "assetInIndex",
              "type": "uint256"
            },
            {
              "internalType": "uint256",
              "name": "assetOutIndex",
              "type": "uint256"
            },
            {
              "internalType": "uint256",
              "name": "amount",
              "type": "uint256"
            },
            {
              "internalType": "bytes",
              "name": "userData",
              "type": "bytes"
            }
          ],
          "internalType": "struct IVault.BatchSwapStep[]",
          "name": "swaps",
          "type": "tuple[]"
        },
        {
          "internalType": "contract IAsset[]",
          "name": "assets",
          "type": "address[]"
        },
        {
          "components": [
            {
              "internalType": "address",
              "name": "sender",
              "type": "address"
            },
            {
              "internalType": "bool",
              "name": "fromInternalBalance",
              "type": "bool"
            },
            {
              "internalType": "address payable",
              "name": "recipient",
              "type": "address"
            },
            {
              "internalType": "bool",
              "name": "toInternalBalance",
              "type": "bool"
            }
          ],
          "internalType": "struct IVault.FundManagement",
          "name": "funds",
          "type": "tuple"
        },
        {
          "internalType": "int256[]",
          "name": "limits",
          "type": "int256[]"
        },
        {
          "internalType": "uint256",
          "name": "deadline",
          "type": "uint256"
        },
        {
          "internalType": "uint256",
          "name": "value",
          "type": "uint256"
        },
        {
          "components": [
            {
              "internalType": "uint256",
              "name": "index",
              "type": "uint256"
            },
            {
              "internalType": "uint256",
              "name": "key",
              "type": "uint256"
            }
          ],
          "internalType": "struct VaultActions.OutputReference[]",
          "name": "outputReferences",
          "type": "tuple[]"
        }
      ],
      "name": "batchSwap",
      "outputs": [],
      "stateMutability": "payable",
      "type": "function"
    },
    {
      "inputs": [
        {
          "internalType": "bytes32",
          "name": "poolId",
          "type": "bytes32"
        },
        {
          "internalType": "enum VaultActions.PoolKind",
          "name": "kind",
          "type": "uint8"
        },
        {
          "internalType": "address",
          "name": "sender",
          "type": "address"
        },
        {
          "internalType": "address payable",
          "name": "recipient",
          "type": "address"
        },
        {
          "components": [
            {
              "internalType": "contract IAsset[]",
              "name": "assets",
              "type": "address[]"
            },
            {
              "internalType": "uint256[]",
              "name": "minAmountsOut",
              "type": "uint256[]"
            },
            {
              "internalType": "bytes",
              "name": "userData",
              "type": "bytes"
            },
            {
              "internalType": "bool",
              "name": "toInternalBalance",
              "type": "bool"
            }
          ],
          "internalType": "struct IVault.ExitPoolRequest",
          "name": "request",
          "type": "tuple"
        },
        {
          "components": [
            {
              "internalType": "uint256",
              "name": "index",
              "type": "uint256"
            },
            {
              "internalType": "uint256",
              "name": "key",
              "type": "uint256"
            }
          ],
          "internalType": "struct VaultActions.OutputReference[]",
          "name": "outputReferences",
          "type": "tuple[]"
        }
      ],
      "name": "exitPool",
      "outputs": [],
      "stateMutability": "payable",
      "type": "function"
    },
    {
      "inputs": [
        {
          "internalType": "contract IStakingLiquidityGauge[]",
          "name": "gauges",
          "type": "address[]"
        }
      ],
      "name": "gaugeClaimRewards",
      "outputs": [],
      "stateMutability": "payable",
      "type": "function"
    },
    {
      "inputs": [
        {
          "internalType": "contract IStakingLiquidityGauge",
          "name": "gauge",
          "type": "address"
        },
        {
          "internalType": "address",
          "name": "sender",
          "type": "address"
        },
        {
          "internalType": "address",
          "name": "recipient",
          "type": "address"
        },
        {
          "internalType": "uint256",
          "name": "amount",
          "type": "uint256"
        }
      ],
      "name": "gaugeDeposit",
      "outputs": [],
      "stateMutability": "payable",
      "type": "function"
    },
    {
      "inputs": [
        {
          "internalType": "address[]",
          "name": "gauges",
          "type": "address[]"
        },
        {
          "internalType": "uint256",
          "name": "outputReference",
          "type": "uint256"
        }
      ],
      "name": "gaugeMint",
      "outputs": [],
      "stateMutability": "payable",
      "type": "function"
    },
    {
      "inputs": [
        {
          "internalType": "bool",
          "name": "approval",
          "type": "bool"
        },
        {
          "internalType": "address",
          "name": "user",
          "type": "address"
        },
        {
          "internalType": "uint256",
          "name": "deadline",
          "type": "uint256"
        },
        {
          "internalType": "uint8",
          "name": "v",
          "type": "uint8"
        },
        {
          "internalType": "bytes32",
          "name": "r",
          "type": "bytes32"
        },
        {
          "internalType": "bytes32",
          "name": "s",
          "type": "bytes32"
        }
      ],
      "name": "gaugeSetMinterApproval",
      "outputs": [],
      "stateMutability": "payable",
      "type": "function"
    },
    {
      "inputs": [
        {
          "internalType": "contract IStakingLiquidityGauge",
          "name": "gauge",
          "type": "address"
        },
        {
          "internalType": "address",
          "name": "sender",
          "type": "address"
        },
        {
          "internalType": "address",
          "name": "recipient",
          "type": "address"
        },
        {
          "internalType": "uint256",
          "name": "amount",
          "type": "uint256"
        }
      ],
      "name": "gaugeWithdraw",
      "outputs": [],
      "stateMutability": "payable",
      "type": "function"
    },
    {
      "inputs": [
        {
          "internalType": "uint256",
          "name": "ref",
          "type": "uint256"
        }
      ],
      "name": "getChainedReferenceValue",
      "outputs": [],
      "stateMutability": "nonpayable",
      "type": "function"
    },
    {
      "inputs": [],
      "name": "getEntrypoint",
      "outputs": [
        {
          "internalType": "contract IBalancerRelayer",
          "name": "",
          "type": "address"
        }
      ],
      "stateMutability": "view",
      "type": "function"
    },
    {
      "inputs": [],
      "name": "getVault",
      "outputs": [
        {
          "internalType": "contract IVault",
          "name": "",
          "type": "address"
        }
      ],
      "stateMutability": "view",
      "type": "function"
    },
    {
      "inputs": [
        {
          "internalType": "bytes32",
          "name": "poolId",
          "type": "bytes32"
        },
        {
          "internalType": "enum VaultActions.PoolKind",
          "name": "kind",
          "type": "uint8"
        },
        {
          "internalType": "address",
          "name": "sender",
          "type": "address"
        },
        {
          "internalType": "address",
          "name": "recipient",
          "type": "address"
        },
        {
          "components": [
            {
              "internalType": "contract IAsset[]",
              "name": "assets",
              "type": "address[]"
            },
            {
              "internalType": "uint256[]",
              "name": "maxAmountsIn",
              "type": "uint256[]"
            },
            {
              "internalType": "bytes",
              "name": "userData",
              "type": "bytes"
            },
            {
              "internalType": "bool",
              "name": "fromInternalBalance",
              "type": "bool"
            }
          ],
          "internalType": "struct IVault.JoinPoolRequest",
          "name": "request",
          "type": "tuple"
        },
        {
          "internalType": "uint256",
          "name": "value",
          "type": "uint256"
        },
        {
          "internalType": "uint256",
          "name": "outputReference",
          "type": "uint256"
        }
      ],
      "name": "joinPool",
      "outputs": [],
      "stateMutability": "payable",
      "type": "function"
    },
    {
      "inputs": [
        {
          "components": [
            {
              "internalType": "enum IVault.UserBalanceOpKind",
              "name": "kind",
              "type": "uint8"
            },
            {
              "internalType": "contract IAsset",
              "name": "asset",
              "type": "address"
            },
            {
              "internalType": "uint256",
              "name": "amount",
              "type": "uint256"
            },
            {
              "internalType": "address",
              "name": "sender",
              "type": "address"
            },
            {
              "internalType": "address payable",
              "name": "recipient",
              "type": "address"
            }
          ],
          "internalType": "struct IVault.UserBalanceOp[]",
          "name": "ops",
          "type": "tuple[]"
        },
        {
          "internalType": "uint256",
          "name": "value",
          "type": "uint256"
        }
      ],
      "name": "manageUserBalance",
      "outputs": [],
      "stateMutability": "payable",
      "type": "function"
    },
    {
      "inputs": [
        {
          "internalType": "uint256",
          "name": "ref",
          "type": "uint256"
        }
      ],
      "name": "peekChainedReferenceValue",
      "outputs": [
        {
          "internalType": "uint256",
          "name": "value",
          "type": "uint256"
        }
      ],
      "stateMutability": "view",
      "type": "function"
    },
    {
      "inputs": [
        {
          "internalType": "uint256",
          "name": "ref",
          "type": "uint256"
        },
        {
          "internalType": "uint256",
          "name": "value",
          "type": "uint256"
        }
      ],
      "name": "setChainedReferenceValue",
      "outputs": [],
      "stateMutability": "nonpayable",
      "type": "function"
    },
    {
      "inputs": [
        {
          "internalType": "address",
          "name": "relayer",
          "type": "address"
        },
        {
          "internalType": "bool",
          "name": "approved",
          "type": "bool"
        },
        {
          "internalType": "bytes",
          "name": "authorisation",
          "type": "bytes"
        }
      ],
      "name": "setRelayerApproval",
      "outputs": [],
      "stateMutability": "payable",
      "type": "function"
    },
    {
      "inputs": [
        {
          "internalType": "address",
          "name": "recipient",
          "type": "address"
        },
        {
          "internalType": "uint256",
          "name": "amount",
          "type": "uint256"
        },
        {
          "internalType": "uint256",
          "name": "outputReference",
          "type": "uint256"
        }
      ],
      "name": "stakeETH",
      "outputs": [],
      "stateMutability": "payable",
      "type": "function"
    },
    {
      "inputs": [
        {
          "internalType": "address",
          "name": "recipient",
          "type": "address"
        },
        {
          "internalType": "uint256",
          "name": "amount",
          "type": "uint256"
        },
        {
          "internalType": "uint256",
          "name": "outputReference",
          "type": "uint256"
        }
      ],
      "name": "stakeETHAndWrap",
      "outputs": [],
      "stateMutability": "payable",
      "type": "function"
    },
    {
      "inputs": [
        {
          "components": [
            {
              "internalType": "bytes32",
              "name": "poolId",
              "type": "bytes32"
            },
            {
              "internalType": "enum IVault.SwapKind",
              "name": "kind",
              "type": "uint8"
            },
            {
              "internalType": "contract IAsset",
              "name": "assetIn",
              "type": "address"
            },
            {
              "internalType": "contract IAsset",
              "name": "assetOut",
              "type": "address"
            },
            {
              "internalType": "uint256",
              "name": "amount",
              "type": "uint256"
            },
            {
              "internalType": "bytes",
              "name": "userData",
              "type": "bytes"
            }
          ],
          "internalType": "struct IVault.SingleSwap",
          "name": "singleSwap",
          "type": "tuple"
        },
        {
          "components": [
            {
              "internalType": "address",
              "name": "sender",
              "type": "address"
            },
            {
              "internalType": "bool",
              "name": "fromInternalBalance",
              "type": "bool"
            },
            {
              "internalType": "address payable",
              "name": "recipient",
              "type": "address"
            },
            {
              "internalType": "bool",
              "name": "toInternalBalance",
              "type": "bool"
            }
          ],
          "internalType": "struct IVault.FundManagement",
          "name": "funds",
          "type": "tuple"
        },
        {
          "internalType": "uint256",
          "name": "limit",
          "type": "uint256"
        },
        {
          "internalType": "uint256",
          "name": "deadline",
          "type": "uint256"
        },
        {
          "internalType": "uint256",
          "name": "value",
          "type": "uint256"
        },
        {
          "internalType": "uint256",
          "name": "outputReference",
          "type": "uint256"
        }
      ],
      "name": "swap",
      "outputs": [],
      "stateMutability": "payable",
      "type": "function"
    },
    {
      "inputs": [
        {
          "internalType": "contract IStaticATokenLM",
          "name": "staticToken",
          "type": "address"
        },
        {
          "internalType": "address",
          "name": "sender",
          "type": "address"
        },
        {
          "internalType": "address",
          "name": "recipient",
          "type": "address"
        },
        {
          "internalType": "uint256",
          "name": "amount",
          "type": "uint256"
        },
        {
          "internalType": "bool",
          "name": "toUnderlying",
          "type": "bool"
        },
        {
          "internalType": "uint256",
          "name": "outputReference",
          "type": "uint256"
        }
      ],
      "name": "unwrapAaveStaticToken",
      "outputs": [],
      "stateMutability": "payable",
      "type": "function"
    },
    {
      "inputs": [
        {
          "internalType": "contract ICToken",
          "name": "wrappedToken",
          "type": "address"
        },
        {
          "internalType": "address",
          "name": "sender",
          "type": "address"
        },
        {
          "internalType": "address",
          "name": "recipient",
          "type": "address"
        },
        {
          "internalType": "uint256",
          "name": "amount",
          "type": "uint256"
        },
        {
          "internalType": "uint256",
          "name": "outputReference",
          "type": "uint256"
        }
      ],
      "name": "unwrapCompoundV2",
      "outputs": [],
      "stateMutability": "payable",
      "type": "function"
    },
    {
      "inputs": [
        {
          "internalType": "contract IERC4626",
          "name": "wrappedToken",
          "type": "address"
        },
        {
          "internalType": "address",
          "name": "sender",
          "type": "address"
        },
        {
          "internalType": "address",
          "name": "recipient",
          "type": "address"
        },
        {
          "internalType": "uint256",
          "name": "amount",
          "type": "uint256"
        },
        {
          "internalType": "uint256",
          "name": "outputReference",
          "type": "uint256"
        }
      ],
      "name": "unwrapERC4626",
      "outputs": [],
      "stateMutability": "payable",
      "type": "function"
    },
    {
      "inputs": [
        {
          "internalType": "contract IEulerToken",
          "name": "wrappedToken",
          "type": "address"
        },
        {
          "internalType": "address",
          "name": "sender",
          "type": "address"
        },
        {
          "internalType": "address",
          "name": "recipient",
          "type": "address"
        },
        {
          "internalType": "uint256",
          "name": "amount",
          "type": "uint256"
        },
        {
          "internalType": "uint256",
          "name": "outputReference",
          "type": "uint256"
        }
      ],
      "name": "unwrapEuler",
      "outputs": [],
      "stateMutability": "payable",
      "type": "function"
    },
    {
      "inputs": [
        {
          "internalType": "contract IGearboxDieselToken",
          "name": "wrappedToken",
          "type": "address"
        },
        {
          "internalType": "address",
          "name": "sender",
          "type": "address"
        },
        {
          "internalType": "address",
          "name": "recipient",
          "type": "address"
        },
        {
          "internalType": "uint256",
          "name": "dieselAmount",
          "type": "uint256"
        },
        {
          "internalType": "uint256",
          "name": "outputReference",
          "type": "uint256"
        }
      ],
      "name": "unwrapGearbox",
      "outputs": [],
      "stateMutability": "payable",
      "type": "function"
    },
    {
      "inputs": [
        {
          "internalType": "contract IReaperTokenVault",
          "name": "vaultToken",
          "type": "address"
        },
        {
          "internalType": "address",
          "name": "sender",
          "type": "address"
        },
        {
          "internalType": "address",
          "name": "recipient",
          "type": "address"
        },
        {
          "internalType": "uint256",
          "name": "amount",
          "type": "uint256"
        },
        {
          "internalType": "uint256",
          "name": "outputReference",
          "type": "uint256"
        }
      ],
      "name": "unwrapReaperVaultToken",
      "outputs": [],
      "stateMutability": "payable",
      "type": "function"
    },
    {
      "inputs": [
        {
          "internalType": "contract IShareToken",
          "name": "wrappedToken",
          "type": "address"
        },
        {
          "internalType": "address",
          "name": "sender",
          "type": "address"
        },
        {
          "internalType": "address",
          "name": "recipient",
          "type": "address"
        },
        {
          "internalType": "uint256",
          "name": "amount",
          "type": "uint256"
        },
        {
          "internalType": "uint256",
          "name": "outputReference",
          "type": "uint256"
        }
      ],
      "name": "unwrapShareToken",
      "outputs": [],
      "stateMutability": "payable",
      "type": "function"
    },
    {
      "inputs": [
        {
          "internalType": "contract ITetuSmartVault",
          "name": "wrappedToken",
          "type": "address"
        },
        {
          "internalType": "address",
          "name": "sender",
          "type": "address"
        },
        {
          "internalType": "address",
          "name": "recipient",
          "type": "address"
        },
        {
          "internalType": "uint256",
          "name": "amount",
          "type": "uint256"
        },
        {
          "internalType": "uint256",
          "name": "outputReference",
          "type": "uint256"
        }
      ],
      "name": "unwrapTetu",
      "outputs": [],
      "stateMutability": "payable",
      "type": "function"
    },
    {
      "inputs": [
        {
          "internalType": "contract IUnbuttonToken",
          "name": "wrapperToken",
          "type": "address"
        },
        {
          "internalType": "address",
          "name": "sender",
          "type": "address"
        },
        {
          "internalType": "address",
          "name": "recipient",
          "type": "address"
        },
        {
          "internalType": "uint256",
          "name": "amount",
          "type": "uint256"
        },
        {
          "internalType": "uint256",
          "name": "outputReference",
          "type": "uint256"
        }
      ],
      "name": "unwrapUnbuttonToken",
      "outputs": [],
      "stateMutability": "payable",
      "type": "function"
    },
    {
      "inputs": [
        {
          "internalType": "address",
          "name": "sender",
          "type": "address"
        },
        {
          "internalType": "address",
          "name": "recipient",
          "type": "address"
        },
        {
          "internalType": "uint256",
          "name": "amount",
          "type": "uint256"
        },
        {
          "internalType": "uint256",
          "name": "outputReference",
          "type": "uint256"
        }
      ],
      "name": "unwrapWstETH",
      "outputs": [],
      "stateMutability": "payable",
      "type": "function"
    },
    {
      "inputs": [
        {
          "internalType": "contract IYearnTokenVault",
          "name": "wrappedToken",
          "type": "address"
        },
        {
          "internalType": "address",
          "name": "sender",
          "type": "address"
        },
        {
          "internalType": "address",
          "name": "recipient",
          "type": "address"
        },
        {
          "internalType": "uint256",
          "name": "amount",
          "type": "uint256"
        },
        {
          "internalType": "uint256",
          "name": "outputReference",
          "type": "uint256"
        }
      ],
      "name": "unwrapYearn",
      "outputs": [],
      "stateMutability": "payable",
      "type": "function"
    },
    {
      "inputs": [
        {
          "internalType": "contract IERC20Permit",
          "name": "token",
          "type": "address"
        },
        {
          "internalType": "address",
          "name": "owner",
          "type": "address"
        },
        {
          "internalType": "uint256",
          "name": "value",
          "type": "uint256"
        },
        {
          "internalType": "uint256",
          "name": "deadline",
          "type": "uint256"
        },
        {
          "internalType": "uint8",
          "name": "v",
          "type": "uint8"
        },
        {
          "internalType": "bytes32",
          "name": "r",
          "type": "bytes32"
        },
        {
          "internalType": "bytes32",
          "name": "s",
          "type": "bytes32"
        }
      ],
      "name": "vaultPermit",
      "outputs": [],
      "stateMutability": "payable",
      "type": "function"
    },
    {
      "inputs": [
        {
          "internalType": "contract IERC20PermitDAI",
          "name": "token",
          "type": "address"
        },
        {
          "internalType": "address",
          "name": "holder",
          "type": "address"
        },
        {
          "internalType": "uint256",
          "name": "nonce",
          "type": "uint256"
        },
        {
          "internalType": "uint256",
          "name": "expiry",
          "type": "uint256"
        },
        {
          "internalType": "bool",
          "name": "allowed",
          "type": "bool"
        },
        {
          "internalType": "uint8",
          "name": "v",
          "type": "uint8"
        },
        {
          "internalType": "bytes32",
          "name": "r",
          "type": "bytes32"
        },
        {
          "internalType": "bytes32",
          "name": "s",
          "type": "bytes32"
        }
      ],
      "name": "vaultPermitDAI",
      "outputs": [],
      "stateMutability": "payable",
      "type": "function"
    },
    {
      "inputs": [
        {
          "internalType": "contract IStaticATokenLM",
          "name": "staticToken",
          "type": "address"
        },
        {
          "internalType": "address",
          "name": "sender",
          "type": "address"
        },
        {
          "internalType": "address",
          "name": "recipient",
          "type": "address"
        },
        {
          "internalType": "uint256",
          "name": "amount",
          "type": "uint256"
        },
        {
          "internalType": "bool",
          "name": "fromUnderlying",
          "type": "bool"
        },
        {
          "internalType": "uint256",
          "name": "outputReference",
          "type": "uint256"
        }
      ],
      "name": "wrapAaveDynamicToken",
      "outputs": [],
      "stateMutability": "payable",
      "type": "function"
    },
    {
      "inputs": [
        {
          "internalType": "contract ICToken",
          "name": "wrappedToken",
          "type": "address"
        },
        {
          "internalType": "address",
          "name": "sender",
          "type": "address"
        },
        {
          "internalType": "address",
          "name": "recipient",
          "type": "address"
        },
        {
          "internalType": "uint256",
          "name": "amount",
          "type": "uint256"
        },
        {
          "internalType": "uint256",
          "name": "outputReference",
          "type": "uint256"
        }
      ],
      "name": "wrapCompoundV2",
      "outputs": [],
      "stateMutability": "payable",
      "type": "function"
    },
    {
      "inputs": [
        {
          "internalType": "contract IERC4626",
          "name": "wrappedToken",
          "type": "address"
        },
        {
          "internalType": "address",
          "name": "sender",
          "type": "address"
        },
        {
          "internalType": "address",
          "name": "recipient",
          "type": "address"
        },
        {
          "internalType": "uint256",
          "name": "amount",
          "type": "uint256"
        },
        {
          "internalType": "uint256",
          "name": "outputReference",
          "type": "uint256"
        }
      ],
      "name": "wrapERC4626",
      "outputs": [],
      "stateMutability": "payable",
      "type": "function"
    },
    {
      "inputs": [
        {
          "internalType": "contract IEulerToken",
          "name": "wrappedToken",
          "type": "address"
        },
        {
          "internalType": "address",
          "name": "eulerProtocol",
          "type": "address"
        },
        {
          "internalType": "address",
          "name": "sender",
          "type": "address"
        },
        {
          "internalType": "address",
          "name": "recipient",
          "type": "address"
        },
        {
          "internalType": "uint256",
          "name": "amount",
          "type": "uint256"
        },
        {
          "internalType": "uint256",
          "name": "outputReference",
          "type": "uint256"
        }
      ],
      "name": "wrapEuler",
      "outputs": [],
      "stateMutability": "payable",
      "type": "function"
    },
    {
      "inputs": [
        {
          "internalType": "contract IGearboxDieselToken",
          "name": "wrappedToken",
          "type": "address"
        },
        {
          "internalType": "address",
          "name": "sender",
          "type": "address"
        },
        {
          "internalType": "address",
          "name": "recipient",
          "type": "address"
        },
        {
          "internalType": "uint256",
          "name": "mainAmount",
          "type": "uint256"
        },
        {
          "internalType": "uint256",
          "name": "outputReference",
          "type": "uint256"
        }
      ],
      "name": "wrapGearbox",
      "outputs": [],
      "stateMutability": "payable",
      "type": "function"
    },
    {
      "inputs": [
        {
          "internalType": "contract IReaperTokenVault",
          "name": "vaultToken",
          "type": "address"
        },
        {
          "internalType": "address",
          "name": "sender",
          "type": "address"
        },
        {
          "internalType": "address",
          "name": "recipient",
          "type": "address"
        },
        {
          "internalType": "uint256",
          "name": "amount",
          "type": "uint256"
        },
        {
          "internalType": "uint256",
          "name": "outputReference",
          "type": "uint256"
        }
      ],
      "name": "wrapReaperVaultToken",
      "outputs": [],
      "stateMutability": "payable",
      "type": "function"
    },
    {
      "inputs": [
        {
          "internalType": "contract IShareToken",
          "name": "wrappedToken",
          "type": "address"
        },
        {
          "internalType": "address",
          "name": "sender",
          "type": "address"
        },
        {
          "internalType": "address",
          "name": "recipient",
          "type": "address"
        },
        {
          "internalType": "uint256",
          "name": "amount",
          "type": "uint256"
        },
        {
          "internalType": "uint256",
          "name": "outputReference",
          "type": "uint256"
        }
      ],
      "name": "wrapShareToken",
      "outputs": [],
      "stateMutability": "payable",
      "type": "function"
    },
    {
      "inputs": [
        {
          "internalType": "address",
          "name": "sender",
          "type": "address"
        },
        {
          "internalType": "address",
          "name": "recipient",
          "type": "address"
        },
        {
          "internalType": "uint256",
          "name": "amount",
          "type": "uint256"
        },
        {
          "internalType": "uint256",
          "name": "outputReference",
          "type": "uint256"
        }
      ],
      "name": "wrapStETH",
      "outputs": [],
      "stateMutability": "payable",
      "type": "function"
    },
    {
      "inputs": [
        {
          "internalType": "contract ITetuSmartVault",
          "name": "wrappedToken",
          "type": "address"
        },
        {
          "internalType": "address",
          "name": "sender",
          "type": "address"
        },
        {
          "internalType": "address",
          "name": "recipient",
          "type": "address"
        },
        {
          "internalType": "uint256",
          "name": "amount",
          "type": "uint256"
        },
        {
          "internalType": "uint256",
          "name": "outputReference",
          "type": "uint256"
        }
      ],
      "name": "wrapTetu",
      "outputs": [],
      "stateMutability": "payable",
      "type": "function"
    },
    {
      "inputs": [
        {
          "internalType": "contract IUnbuttonToken",
          "name": "wrapperToken",
          "type": "address"
        },
        {
          "internalType": "address",
          "name": "sender",
          "type": "address"
        },
        {
          "internalType": "address",
          "name": "recipient",
          "type": "address"
        },
        {
          "internalType": "uint256",
          "name": "uAmount",
          "type": "uint256"
        },
        {
          "internalType": "uint256",
          "name": "outputReference",
          "type": "uint256"
        }
      ],
      "name": "wrapUnbuttonToken",
      "outputs": [],
      "stateMutability": "payable",
      "type": "function"
    },
    {
      "inputs": [
        {
          "internalType": "contract IYearnTokenVault",
          "name": "wrappedToken",
          "type": "address"
        },
        {
          "internalType": "address",
          "name": "sender",
          "type": "address"
        },
        {
          "internalType": "address",
          "name": "recipient",
          "type": "address"
        },
        {
          "internalType": "uint256",
          "name": "amount",
          "type": "uint256"
        },
        {
          "internalType": "uint256",
          "name": "outputReference",
          "type": "uint256"
        }
      ],
      "name": "wrapYearn",
      "outputs": [],
      "stateMutability": "payable",
      "type": "function"
    }
  ],
  "bytecode": "0x6101606040527fae1dc54057af8e8e5ce068cdd4383149c7efcb30e8fb95b592ee1594367fb50960e0523480156200003657600080fd5b506040516200666e3803806200666e83398101604081905262000059916200020f565b828282818184806001600160a01b031663ad5c46486040518163ffffffff1660e01b815260040160206040518083038186803b1580156200009957600080fd5b505afa158015620000ae573d6000803e3d6000fd5b505050506040513d601f19601f82011682018060405250810190620000d4919062000262565b6001600160601b0319606091821b81166080529082901b1660a05260405181903090620001019062000201565b6200010e92919062000288565b604051809103906000f0801580156200012b573d6000803e3d6000fd5b506001600160601b0319606091821b811660c05292901b90911661010052506001600160a01b03811662000161576000620001d8565b806001600160a01b031663c1fe3e486040518163ffffffff1660e01b8152600401602060405180830381600087803b1580156200019d57600080fd5b505af1158015620001b2573d6000803e3d6000fd5b505050506040513d601f19601f82011682018060405250810190620001d8919062000262565b6001600160601b0319606091821b81166101205291901b166101405250620002bb945050505050565b6107878062005ee783390190565b60008060006060848603121562000224578283fd5b83516200023181620002a2565b60208501519093506200024481620002a2565b60408501519092506200025781620002a2565b809150509250925092565b60006020828403121562000274578081fd5b81516200028181620002a2565b9392505050565b6001600160a01b0392831681529116602082015260400190565b6001600160a01b0381168114620002b857600080fd5b50565b60805160601c60a05160601c60c05160601c60e0516101005160601c6101205160601c6101405160601c615b8f620003586000398061070c52806107b552806107e05280610c395280610c655280610d08528061312f528061315b525080610c185280610f235280610fc752806131fe5250806112e15280612397525080613aed525080612205525080612305528061248e525050615b8f6000f3fe6080604052600436106102dc5760003560e01c80637bc008f511610184578063b064b376116100d6578063db4c0e911161008a578063efe6910811610064578063efe691081461060f578063f3cab68514610622578063f4dd54b01461064f576102dc565b8063db4c0e91146105d6578063e8210e3c146105e9578063ecc02637146105fc576102dc565b8063c518e531116100bb578063c518e53114610590578063d293f290146105b0578063d80952d5146105c3576102dc565b8063b064b3761461056a578063b6d247371461057d576102dc565b80638d64cfbc11610138578063941e849b11610112578063941e849b14610531578063959fc17a14610544578063abf6d39914610557576102dc565b80638d64cfbc146104f65780638d928af8146105095780638fe4624f1461051e576102dc565b806380db15bd1161016957806380db15bd146104bd5780638b35ac8d146104d05780638c57198b146104e3576102dc565b80637bc008f51461047f5780637fd0e5d514610492576102dc565b8063433b08651161023d57806352b88746116101f157806365ca4804116101cb57806365ca4804146104465780636d307ea8146104595780637ab6e03c1461046c576102dc565b806352b88746146104005780635967b69614610413578063611b90dd14610433576102dc565b80634e9d9bab116102225780634e9d9bab146103c75780634f06a70b146103da5780635001fe75146103ed576102dc565b8063433b0865146103a157806344b6ac74146103b4576102dc565b80632c25efe1116102945780632e6272ea116102795780632e6272ea14610368578063311c5c571461037b5780633f85d3901461038e576102dc565b80632c25efe1146103425780632cbec84e14610355576102dc565b8063138fdc2c116102c5578063138fdc2c14610309578063183694461461031c5780631c9824411461032f576102dc565b80630e248fea146102e15780631089e5e3146102f6575b600080fd5b6102f46102ef36600461475c565b610662565b005b6102f46103043660046146de565b6106fd565b6102f4610317366004614a8d565b610807565b6102f461032a366004614e20565b610a0a565b6102f461033d36600461460c565b610c13565b6102f4610350366004614a8d565b610d36565b6102f46103633660046146de565b610f14565b6102f4610376366004614f1c565b610fee565b6102f4610389366004614a8d565b61110e565b6102f461039c366004614712565b6112ae565b6102f46103af366004614cbe565b611378565b6102f46103c2366004614a8d565b6115a1565b6102f46103d5366004614a8d565b611720565b6102f46103e8366004614a8d565b61197b565b6102f46103fb366004614a8d565b611a8c565b6102f461040e366004614c01565b611c17565b34801561041f57600080fd5b506102f461042e36600461500a565b611dbb565b6102f4610441366004614a8d565b611dfd565b6102f4610454366004614c6e565b611ea0565b6102f4610467366004614a8d565b611fbe565b6102f461047a366004614cbe565b611ff9565b6102f461048d366004614c6e565b6120ff565b34801561049e57600080fd5b506104a7612203565b6040516104b491906152a3565b60405180910390f35b6102f46104cb366004614651565b612227565b6102f46104de366004614a8d565b61232b565b6102f46104f13660046148f1565b612367565b6102f4610504366004614b68565b612412565b34801561051557600080fd5b506104a761248c565b6102f461052c3660046149fd565b6124b0565b6102f461053f366004614a8d565b6126da565b6102f4610552366004614ae7565b612825565b6102f4610565366004614a8d565b6128a2565b6102f4610578366004614a8d565b612955565b6102f461058b366004614bd6565b612a98565b34801561059c57600080fd5b506102f46105ab36600461503a565b612ad2565b6102f46105be366004614a8d565b612adc565b6102f46105d1366004614954565b612b9c565b6102f46105e436600461460c565b61312a565b6102f46105f7366004614a8d565b613225565b6102f461060a36600461482c565b613260565b6102f461061d366004614a8d565b613358565b34801561062e57600080fd5b5061064261063d36600461500a565b613397565b6040516104b491906159f2565b6102f461065d366004614a8d565b6133a9565b8060005b818110156106f75783838281811061067a57fe5b905060200201602081019061068f91906145d4565b6001600160a01b03166384e9bd7e336040518263ffffffff1660e01b81526004016106ba91906152a3565b600060405180830381600087803b1580156106d457600080fd5b505af11580156106e8573d6000803e3d6000fd5b50505050806001019050610666565b50505050565b610706826134d5565b915060007f00000000000000000000000000000000000000000000000000000000000000006001600160a01b031663b0e38900846040518263ffffffff1660e01b815260040161075691906159f2565b60206040518083038186803b15801561076e57600080fd5b505afa158015610782573d6000803e3d6000fd5b505050506040513d601f19601f820116820180604052508101906107a69190615022565b90506107db6001600160a01b037f000000000000000000000000000000000000000000000000000000000000000016846134fb565b6106f77f000000000000000000000000000000000000000000000000000000000000000085838561357a565b6000856001600160a01b0316638da5cb5b6040518163ffffffff1660e01b815260040160206040518083038186803b15801561084257600080fd5b505afa158015610856573d6000803e3d6000fd5b505050506040513d601f19601f8201168201806040525081019061087a91906145f0565b90506000816001600160a01b0316632495a5996040518163ffffffff1660e01b815260040160206040518083038186803b1580156108b757600080fd5b505afa1580156108cb573d6000803e3d6000fd5b505050506040513d601f19601f820116820180604052508101906108ef91906145f0565b90506108fd818386896135a8565b6040517f9aa5d4620000000000000000000000000000000000000000000000000000000081529094506001600160a01b03831690639aa5d4629061094a9087908990600090600401615a31565b600060405180830381600087803b15801561096457600080fd5b505af1158015610978573d6000803e3d6000fd5b50505050610a0183836001600160a01b0316634d778ad1876040518263ffffffff1660e01b81526004016109ac91906159f2565b60206040518083038186803b1580156109c457600080fd5b505afa1580156109d8573d6000803e3d6000fd5b505050506040513d601f19601f820116820180604052508101906109fc9190615022565b6135d3565b50505050505050565b33610a1860208901896145d4565b6001600160a01b03161480610a41575030610a3660208901896145d4565b6001600160a01b0316145b610a665760405162461bcd60e51b8152600401610a5d90615854565b60405180910390fd5b60005b8a51811015610acb5760008b8281518110610a8057fe5b6020026020010151606001519050610a97816135eb565b15610ac257610aa581613632565b8c8381518110610ab157fe5b602002602001015160600181815250505b50600101610a69565b506060610ad661248c565b6001600160a01b031663945bcec9858e8e8e8e8e8e8e8e6040518a63ffffffff1660e01b8152600401610b10989796959493929190615714565b6000604051808303818588803b158015610b2957600080fd5b505af1158015610b3d573d6000803e3d6000fd5b50505050506040513d6000823e601f3d908101601f19168201604052610b66919081019061479c565b905060005b82811015610c0457610b91848483818110610b8257fe5b905060400201602001356135eb565b610bad5760405162461bcd60e51b8152600401610a5d90615930565b610bfc848483818110610bbc57fe5b90506040020160200135610bf784878786818110610bd657fe5b9050604002016000013581518110610bea57fe5b602002602001015161365d565b613669565b600101610b6b565b50505050505050505050505050565b610c5f7f00000000000000000000000000000000000000000000000000000000000000007f000000000000000000000000000000000000000000000000000000000000000084876135a8565b915060007f00000000000000000000000000000000000000000000000000000000000000006001600160a01b031663ea598cb0846040518263ffffffff1660e01b8152600401610caf91906159f2565b602060405180830381600087803b158015610cc957600080fd5b505af1158015610cdd573d6000803e3d6000fd5b505050506040513d601f19601f82011682018060405250810190610d019190615022565b9050610d2f7f000000000000000000000000000000000000000000000000000000000000000085838561357a565b5050505050565b6000856001600160a01b0316636f307dc36040518163ffffffff1660e01b815260040160206040518083038186803b158015610d7157600080fd5b505afa158015610d85573d6000803e3d6000fd5b505050506040513d601f19601f82011682018060405250810190610da991906145f0565b9050610db7818785886135a8565b6040517fa0712d680000000000000000000000000000000000000000000000000000000081529093506001600160a01b0387169063a0712d6890610dff9086906004016159f2565b602060405180830381600087803b158015610e1957600080fd5b505af1158015610e2d573d6000803e3d6000fd5b505050506040513d601f19601f82011682018060405250810190610e519190615022565b15610e6e5760405162461bcd60e51b8152600401610a5d906158c2565b6040517f70a082310000000000000000000000000000000000000000000000000000000081526000906001600160a01b038816906370a0823190610eb69030906004016152a3565b60206040518083038186803b158015610ece57600080fd5b505afa158015610ee2573d6000803e3d6000fd5b505050506040513d601f19601f82011682018060405250810190610f069190615022565b9050610a018786838661357a565b610f1d826134d5565b915060007f00000000000000000000000000000000000000000000000000000000000000006001600160a01b031663a1903eab84306040518363ffffffff1660e01b8152600401610f6e91906152a3565b6020604051808303818588803b158015610f8757600080fd5b505af1158015610f9b573d6000803e3d6000fd5b50505050506040513d601f19601f82011682018060405250810190610fc09190615022565b90506106f77f000000000000000000000000000000000000000000000000000000000000000085838561357a565b33610ffc60208701876145d4565b6001600160a01b0316148061102557503061101a60208701876145d4565b6001600160a01b0316145b6110415760405162461bcd60e51b8152600401610a5d90615854565b61104e86608001516135eb565b15611066576110608660800151613632565b60808701525b600061107061248c565b6001600160a01b03166352bbbe2984898989896040518663ffffffff1660e01b81526004016110a29493929190615967565b6020604051808303818588803b1580156110bb57600080fd5b505af11580156110cf573d6000803e3d6000fd5b50505050506040513d601f19601f820116820180604052508101906110f49190615022565b90506110ff826135eb565b15610a0157610a018282613669565b61111985838661367c565b91506000856001600160a01b0316636f307dc36040518163ffffffff1660e01b815260040160206040518083038186803b15801561115657600080fd5b505afa15801561116a573d6000803e3d6000fd5b505050506040513d601f19601f8201168201806040525081019061118e91906145f0565b6040517f2e1a7d4d0000000000000000000000000000000000000000000000000000000081529091506001600160a01b03871690632e1a7d4d906111d69086906004016159f2565b600060405180830381600087803b1580156111f057600080fd5b505af1158015611204573d6000803e3d6000fd5b50506040517f70a08231000000000000000000000000000000000000000000000000000000008152600092506001600160a01b03841691506370a08231906112509030906004016152a3565b60206040518083038186803b15801561126857600080fd5b505afa15801561127c573d6000803e3d6000fd5b505050506040513d601f19601f820116820180604052508101906112a09190615022565b9050610a018286838661357a565b6040517f3b9f73840000000000000000000000000000000000000000000000000000000081526000906001600160a01b037f00000000000000000000000000000000000000000000000000000000000000001690633b9f73849061131a908790879033906004016154ca565b602060405180830381600087803b15801561133457600080fd5b505af1158015611348573d6000803e3d6000fd5b505050506040513d601f19601f8201168201806040525081019061136c9190615022565b90506106f782826135d3565b611381836135eb565b156113925761138f83613632565b92505b60008261141157866001600160a01b03166351c0e0616040518163ffffffff1660e01b8152600401602060405180830381600087803b1580156113d457600080fd5b505af11580156113e8573d6000803e3d6000fd5b505050506040513d601f19601f8201168201806040525081019061140c91906145f0565b611484565b866001600160a01b0316634800d97f6040518163ffffffff1660e01b8152600401602060405180830381600087803b15801561144c57600080fd5b505af1158015611460573d6000803e3d6000fd5b505050506040513d601f19601f8201168201806040525081019061148491906145f0565b90506001600160a01b03861630146114c9576001600160a01b03861633146114be5760405162461bcd60e51b8152600401610a5d90615854565b6114c98682866136c8565b6114dd6001600160a01b0382168886613764565b6040517f2f2cab870000000000000000000000000000000000000000000000000000000081526000906001600160a01b03891690632f2cab879061152b908990899086908a9060040161549e565b602060405180830381600087803b15801561154557600080fd5b505af1158015611559573d6000803e3d6000fd5b505050506040513d601f19601f8201168201806040525081019061157d9190615022565b9050611588836135eb565b15611597576115978382613669565b5050505050505050565b6115ac85838661367c565b91506000856001600160a01b0316636f307dc36040518163ffffffff1660e01b815260040160206040518083038186803b1580156115e957600080fd5b505afa1580156115fd573d6000803e3d6000fd5b505050506040513d601f19601f8201168201806040525081019061162191906145f0565b6040517fdb006a750000000000000000000000000000000000000000000000000000000081529091506001600160a01b0387169063db006a75906116699086906004016159f2565b602060405180830381600087803b15801561168357600080fd5b505af1158015611697573d6000803e3d6000fd5b505050506040513d601f19601f820116820180604052508101906116bb9190615022565b156116d85760405162461bcd60e51b8152600401610a5d9061581d565b6040517f70a082310000000000000000000000000000000000000000000000000000000081526000906001600160a01b038316906370a08231906112509030906004016152a3565b61172b85838661367c565b91506000856001600160a01b031663eb3beb296040518163ffffffff1660e01b815260040160206040518083038186803b15801561176857600080fd5b505afa15801561177c573d6000803e3d6000fd5b505050506040513d601f19601f820116820180604052508101906117a091906145f0565b90506000866001600160a01b03166338d52e0f6040518163ffffffff1660e01b815260040160206040518083038186803b1580156117dd57600080fd5b505afa1580156117f1573d6000803e3d6000fd5b505050506040513d601f19601f8201168201806040525081019061181591906145f0565b6040517fead5d3590000000000000000000000000000000000000000000000000000000081529091506001600160a01b0383169063ead5d359906118829084907fffffffffffffffffffffffffffffffffffffffffffffffffffffffffffffffff9060009060040161547b565b6040805180830381600087803b15801561189b57600080fd5b505af11580156118af573d6000803e3d6000fd5b505050506040513d601f19601f820116820180604052508101906118d3919061505b565b50506040517f70a082310000000000000000000000000000000000000000000000000000000081526000906001600160a01b038316906370a082319061191d9030906004016152a3565b60206040518083038186803b15801561193557600080fd5b505afa158015611949573d6000803e3d6000fd5b505050506040513d601f19601f8201168201806040525081019061196d9190615022565b90506115978287838761357a565b6000856001600160a01b031663fc0c546a6040518163ffffffff1660e01b815260040160206040518083038186803b1580156119b657600080fd5b505afa1580156119ca573d6000803e3d6000fd5b505050506040513d601f19601f820116820180604052508101906119ee91906145f0565b90506119fc818785886135a8565b92506000866001600160a01b0316636e553f6585876040518363ffffffff1660e01b8152600401611a2e9291906159fb565b602060405180830381600087803b158015611a4857600080fd5b505af1158015611a5c573d6000803e3d6000fd5b505050506040513d601f19601f82011682018060405250810190611a809190615022565b9050610a0183826135d3565b6000856001600160a01b03166338d52e0f6040518163ffffffff1660e01b815260040160206040518083038186803b158015611ac757600080fd5b505afa158015611adb573d6000803e3d6000fd5b505050506040513d601f19601f82011682018060405250810190611aff91906145f0565b90506000866001600160a01b031663eb3beb296040518163ffffffff1660e01b815260040160206040518083038186803b158015611b3c57600080fd5b505afa158015611b50573d6000803e3d6000fd5b505050506040513d601f19601f82011682018060405250810190611b7491906145f0565b9050611b82828286896135a8565b93506000816001600160a01b031663fbf178db84888860006040518563ffffffff1660e01b8152600401611bb9949392919061534f565b6040805180830381600087803b158015611bd257600080fd5b505af1158015611be6573d6000803e3d6000fd5b505050506040513d601f19601f82011682018060405250810190611c0a919061505b565b91505061159784826135d3565b6000866001600160a01b0316637158da7c6040518163ffffffff1660e01b815260040160206040518083038186803b158015611c5257600080fd5b505afa158015611c66573d6000803e3d6000fd5b505050506040513d601f19601f82011682018060405250810190611c8a91906145f0565b9050611c98818785886135a8565b6040517fe2bbb1580000000000000000000000000000000000000000000000000000000081529093506001600160a01b0388169063e2bbb15890611ce3906000908790600401615295565b600060405180830381600087803b158015611cfd57600080fd5b505af1158015611d11573d6000803e3d6000fd5b50506040517f70a08231000000000000000000000000000000000000000000000000000000008152600092506001600160a01b038a1691506370a0823190611d5d9030906004016152a3565b60206040518083038186803b158015611d7557600080fd5b505afa158015611d89573d6000803e3d6000fd5b505050506040513d601f19601f82011682018060405250810190611dad9190615022565b90506115978886838661357a565b7fc78533b5d3aff901cb655b9491c67366edabc3cd9cb680c3934f61d7eb078752611de582613632565b604051611df291906159f2565b60405180910390a150565b611e0885838661367c565b91506000856001600160a01b031663ea785a5e85856040518363ffffffff1660e01b8152600401611e3a929190615462565b602060405180830381600087803b158015611e5457600080fd5b505af1158015611e68573d6000803e3d6000fd5b505050506040513d601f19601f82011682018060405250810190611e8c9190615022565b9050611e9882826135d3565b505050505050565b611eab84828561367c565b6040517f2e1a7d4d0000000000000000000000000000000000000000000000000000000081529091506001600160a01b03851690632e1a7d4d90611ef39084906004016159f2565b600060405180830381600087803b158015611f0d57600080fd5b505af1158015611f21573d6000803e3d6000fd5b505050506001600160a01b03821630146106f7576000846001600160a01b03166382c630666040518163ffffffff1660e01b815260040160206040518083038186803b158015611f7057600080fd5b505afa158015611f84573d6000803e3d6000fd5b505050506040513d601f19601f82011682018060405250810190611fa891906145f0565b9050610d2f6001600160a01b03821684846138b0565b6000856001600160a01b03166338d52e0f6040518163ffffffff1660e01b815260040160206040518083038186803b1580156119b657600080fd5b612002836135eb565b156120135761201083613632565b92505b6001600160a01b0385163014612056576001600160a01b038516331461204b5760405162461bcd60e51b8152600401610a5d90615854565b6120568587856136c8565b6040517fead5d3590000000000000000000000000000000000000000000000000000000081526000906001600160a01b0388169063ead5d359906120a29088908890889060040161547b565b6040805180830381600087803b1580156120bb57600080fd5b505af11580156120cf573d6000803e3d6000fd5b505050506040513d601f19601f820116820180604052508101906120f3919061505b565b9150506110ff826135eb565b6000846001600160a01b03166382c630666040518163ffffffff1660e01b815260040160206040518083038186803b15801561213a57600080fd5b505afa15801561214e573d6000803e3d6000fd5b505050506040513d601f19601f8201168201806040525081019061217291906145f0565b9050612180818684876135a8565b6040517f6e553f650000000000000000000000000000000000000000000000000000000081529092506001600160a01b03861690636e553f65906121ca90859087906004016159fb565b600060405180830381600087803b1580156121e457600080fd5b505af11580156121f8573d6000803e3d6000fd5b505050505050505050565b7f000000000000000000000000000000000000000000000000000000000000000090565b6001600160a01b03841630148061223c575082155b6122585760405162461bcd60e51b8152600401610a5d9061588b565b606063fa6e671d60e01b338686604051602401612277939291906152b7565b60408051601f19818403018152918152602080830180517bffffffffffffffffffffffffffffffffffffffffffffffffffffffff167fffffffff0000000000000000000000000000000000000000000000000000000090951694909417909352516122e6928691869101615270565b60408051601f198184030181529190529050611e986001600160a01b037f000000000000000000000000000000000000000000000000000000000000000016826138cf565b61233685838661367c565b91506000856001600160a01b031662f714ce84866040518363ffffffff1660e01b8152600401611e3a9291906159fb565b6040517fc65427940000000000000000000000000000000000000000000000000000000081526001600160a01b037f0000000000000000000000000000000000000000000000000000000000000000169063c6542794906123d89030908a908a908a908a908a908a90600401615402565b600060405180830381600087803b1580156123f257600080fd5b505af1158015612406573d6000803e3d6000fd5b50505050505050505050565b866001600160a01b031663d505accf8761242a61248c565b88888888886040518863ffffffff1660e01b815260040161245197969594939291906153c1565b600060405180830381600087803b15801561246b57600080fd5b505af115801561247f573d6000803e3d6000fd5b5050505050505050505050565b7f000000000000000000000000000000000000000000000000000000000000000090565b6001600160a01b0385163314806124cf57506001600160a01b03851630145b6124eb5760405162461bcd60e51b8152600401610a5d90615854565b60006124f688613949565b90506000612503836135eb565b61250e5760006125a3565b6040517f70a082310000000000000000000000000000000000000000000000000000000081526001600160a01b038316906370a08231906125539089906004016152a3565b60206040518083038186803b15801561256b57600080fd5b505afa15801561257f573d6000803e3d6000fd5b505050506040513d601f19601f820116820180604052508101906125a39190615022565b90506125b388866040015161394f565b60408601526125c061248c565b6001600160a01b031663b95cac28858b8a8a8a6040518663ffffffff1660e01b81526004016125f2949392919061566e565b6000604051808303818588803b15801561260b57600080fd5b505af115801561261f573d6000803e3d6000fd5b505050505061262d836135eb565b156121f8576040517f70a082310000000000000000000000000000000000000000000000000000000081526000906001600160a01b038416906370a082319061267a908a906004016152a3565b60206040518083038186803b15801561269257600080fd5b505afa1580156126a6573d6000803e3d6000fd5b505050506040513d601f19601f820116820180604052508101906126ca9190615022565b905061240684610bf783856139d6565b6126e585838661367c565b6040517f441a3e700000000000000000000000000000000000000000000000000000000081529092506001600160a01b0386169063441a3e7090612750906000907fffffffffffffffffffffffffffffffffffffffffffffffffffffffffffffffff90600401615295565b600060405180830381600087803b15801561276a57600080fd5b505af115801561277e573d6000803e3d6000fd5b505050506000856001600160a01b0316637158da7c6040518163ffffffff1660e01b815260040160206040518083038186803b1580156127bd57600080fd5b505afa1580156127d1573d6000803e3d6000fd5b505050506040513d601f19601f820116820180604052508101906127f591906145f0565b90506000816001600160a01b03166370a08231306040518263ffffffff1660e01b815260040161125091906152a3565b876001600160a01b0316638fcbaf0c8861283d61248c565b8989898989896040518963ffffffff1660e01b8152600401612866989796959493929190615378565b600060405180830381600087803b15801561288057600080fd5b505af1158015612894573d6000803e3d6000fd5b505050505050505050505050565b6000856001600160a01b0316636f307dc36040518163ffffffff1660e01b815260040160206040518083038186803b1580156128dd57600080fd5b505afa1580156128f1573d6000803e3d6000fd5b505050506040513d601f19601f8201168201806040525081019061291591906145f0565b9050612923818785886135a8565b92506000866001600160a01b0316632f4f21e286866040518363ffffffff1660e01b8152600401611a2e929190615462565b6000856001600160a01b0316636f307dc36040518163ffffffff1660e01b815260040160206040518083038186803b15801561299057600080fd5b505afa1580156129a4573d6000803e3d6000fd5b505050506040513d601f19601f820116820180604052508101906129c891906145f0565b90506129d6818785886135a8565b6040517fb6b55f250000000000000000000000000000000000000000000000000000000081529093506001600160a01b0387169063b6b55f2590612a1e9086906004016159f2565b600060405180830381600087803b158015612a3857600080fd5b505af1158015612a4c573d6000803e3d6000fd5b50506040517f70a08231000000000000000000000000000000000000000000000000000000008152600092506001600160a01b03891691506370a0823190610eb69030906004016152a3565b612aa1816135eb565b15612ab257612aaf81613632565b90505b612ace612abd61248c565b6001600160a01b0384169083613764565b5050565b612ace8282613669565b612ae785838661367c565b6040517f2e1a7d4d0000000000000000000000000000000000000000000000000000000081529092506001600160a01b03861690632e1a7d4d90612b2f9085906004016159f2565b600060405180830381600087803b158015612b4957600080fd5b505af1158015612b5d573d6000803e3d6000fd5b505050506000856001600160a01b031663fc0c546a6040518163ffffffff1660e01b815260040160206040518083038186803b1580156127bd57600080fd5b6001600160a01b038516331480612bbb57506001600160a01b03851630145b612bd75760405162461bcd60e51b8152600401610a5d90615854565b60608167ffffffffffffffff81118015612bf057600080fd5b50604051908082528060200260200182016040528015612c1a578160200160208202803683370190505b50905060608267ffffffffffffffff81118015612c3657600080fd5b50604051908082528060200260200182016040528015612c60578160200160208202803683370190505b50905060005b83811015612dd057612c7d858583818110610b8257fe5b612c995760405162461bcd60e51b8152600401610a5d90615930565b8551600090868684818110612caa57fe5b9050604002016000013581518110612cbe57fe5b60200260200101519050866060015115612d0c57612cdb816139ec565b848381518110612ce757fe5b60200260200101906001600160a01b031690816001600160a01b031681525050612dc7565b612d15816139ef565b612da257612d22816139ec565b6001600160a01b03166370a08231896040518263ffffffff1660e01b8152600401612d4d91906152a3565b60206040518083038186803b158015612d6557600080fd5b505afa158015612d79573d6000803e3d6000fd5b505050506040513d601f19601f82011682018060405250810190612d9d9190615022565b612dae565b876001600160a01b0316315b838381518110612dba57fe5b6020026020010181815250505b50600101612c66565b50846060015115612e6757612de361248c565b6001600160a01b0316630f5a6efa87846040518363ffffffff1660e01b8152600401612e109291906152db565b60006040518083038186803b158015612e2857600080fd5b505afa158015612e3c573d6000803e3d6000fd5b505050506040513d6000823e601f3d908101601f19168201604052612e6491908101906148a2565b90505b612e758886604001516139fc565b6040860152612e8261248c565b6001600160a01b0316638bdb39138a8989896040518563ffffffff1660e01b8152600401612eb3949392919061566e565b600060405180830381600087803b158015612ecd57600080fd5b505af1158015612ee1573d6000803e3d6000fd5b50606092508591505067ffffffffffffffff81118015612f0057600080fd5b50604051908082528060200260200182016040528015612f2a578160200160208202803683370190505b509050856060015115612fc757612f3f61248c565b6001600160a01b0316630f5a6efa88856040518363ffffffff1660e01b8152600401612f6c9291906152db565b60006040518083038186803b158015612f8457600080fd5b505afa158015612f98573d6000803e3d6000fd5b505050506040513d6000823e601f3d908101601f19168201604052612fc091908101906148a2565b90506130c5565b60005b848110156130c3578651600090878784818110612fe357fe5b9050604002016000013581518110612ff757fe5b6020026020010151905061300a816139ef565b61309757613017816139ec565b6001600160a01b03166370a082318a6040518263ffffffff1660e01b815260040161304291906152a3565b60206040518083038186803b15801561305a57600080fd5b505afa15801561306e573d6000803e3d6000fd5b505050506040513d601f19601f820116820180604052508101906130929190615022565b6130a3565b886001600160a01b0316315b8383815181106130af57fe5b602090810291909101015250600101612fca565b505b60005b8481101561247f576131228686838181106130df57fe5b90506040020160200135610bf78584815181106130f857fe5b602002602001015185858151811061310c57fe5b60200260200101516139d690919063ffffffff16565b6001016130c8565b6131557f0000000000000000000000000000000000000000000000000000000000000000838661367c565b915060007f00000000000000000000000000000000000000000000000000000000000000006001600160a01b031663de0e9a3e846040518263ffffffff1660e01b81526004016131a591906159f2565b602060405180830381600087803b1580156131bf57600080fd5b505af11580156131d3573d6000803e3d6000fd5b505050506040513d601f19601f820116820180604052508101906131f79190615022565b9050610d2f7f000000000000000000000000000000000000000000000000000000000000000085838561357a565b6000856001600160a01b031663fc0c546a6040518163ffffffff1660e01b815260040160206040518083038186803b15801561299057600080fd5b60005b828110156132f4573384848381811061327857fe5b905060a00201606001602081019061329091906145d4565b6001600160a01b031614806132d05750308484838181106132ad57fe5b905060a0020160600160208101906132c591906145d4565b6001600160a01b0316145b6132ec5760405162461bcd60e51b8152600401610a5d90615854565b600101613263565b506132fd61248c565b6001600160a01b0316630e8e3e848285856040518463ffffffff1660e01b815260040161332b92919061552a565b6000604051808303818588803b15801561334457600080fd5b505af1158015611597573d6000803e3d6000fd5b61336385838661367c565b91506000856001600160a01b031663ba0876528486306040518463ffffffff1660e01b8152600401611e3a93929190615a12565b60006133a282613a72565b9392505050565b6133b485838661367c565b91506000856001600160a01b0316638da5cb5b6040518163ffffffff1660e01b815260040160206040518083038186803b1580156133f157600080fd5b505afa158015613405573d6000803e3d6000fd5b505050506040513d601f19601f8201168201806040525081019061342991906145f0565b6040517f05fe138b0000000000000000000000000000000000000000000000000000000081529091506001600160a01b038216906305fe138b9061347390869088906004016159fb565b600060405180830381600087803b15801561348d57600080fd5b505af11580156134a1573d6000803e3d6000fd5b50505050611e9882826001600160a01b0316635427c938866040518263ffffffff1660e01b81526004016109ac91906159f2565b60006134e0826135eb565b6134ea57816134f3565b6134f382613632565b90505b919050565b61350a814710156101a3613a89565b6000826001600160a01b031682604051613523906139ec565b60006040518083038185875af1925050503d8060008114613560576040519150601f19603f3d011682016040523d82523d6000602084013e613565565b606091505b50509050613575816101a4613a89565b505050565b6001600160a01b038316301461359e5761359e6001600160a01b03851684846138b0565b6106f781836135d3565b60006135b585848461367c565b90506135cb6001600160a01b0386168583613764565b949350505050565b6135dc826135eb565b15612ace57612ace8282613669565b7ffff0000000000000000000000000000000000000000000000000000000000000167fba100000000000000000000000000000000000000000000000000000000000001490565b600080600061364084613a72565b9150915061364d84613a97565b156133a257600082559392505050565b60ff81901d9081180390565b600061367483613ade565b919091555050565b6000613687836134d5565b90506001600160a01b03821630146133a2576001600160a01b03821633146136c15760405162461bcd60e51b8152600401610a5d90615854565b6133a28285835b806136d257613575565b60408051600180825281830190925260609160208083019080368337019050509050828160008151811061370257fe5b6001600160a01b039290921660209283029190910190910152604080516001808252818301909252606091816020016020820280368337019050509050828160008151811061374d57fe5b602002602001018181525050610d2f858383613b3c565b801580159061380857506040517fdd62ed3e0000000000000000000000000000000000000000000000000000000081526001600160a01b0384169063dd62ed3e906137b59030908690600401615335565b60206040518083038186803b1580156137cd57600080fd5b505afa1580156137e1573d6000803e3d6000fd5b505050506040513d601f19601f820116820180604052508101906138059190615022565b15155b15613891576138918363095ea7b360e01b84600060405160240161382d929190615446565b60408051601f198184030181529190526020810180517bffffffffffffffffffffffffffffffffffffffffffffffffffffffff167fffffffff0000000000000000000000000000000000000000000000000000000090931692909217909152613c76565b6135758363095ea7b360e01b848460405160240161382d929190615462565b6135758363a9059cbb60e01b848460405160240161382d929190615462565b606060006060846001600160a01b0316846040516138ed9190615254565b6000604051808303816000865af19150503d806000811461392a576040519150601f19603f3d011682016040523d82523d6000602084013e61392f565b606091505b509150915061393e8282613d16565b925050505b92915050565b60601c90565b6060600083600381111561395f57fe5b14156139755761396e82613d40565b9050613943565b600183600381111561398357fe5b148061399a5750600283600381111561399857fe5b145b806139b0575060038360038111156139ae57fe5b145b156139be5761396e82613d40565b60405162461bcd60e51b8152600401610a5d906158f9565b60006139e6838311156001613a89565b50900390565b90565b6001600160a01b03161590565b60606000836003811115613a0c57fe5b1415613a1b5761396e82613d7d565b6001836003811115613a2957fe5b1415613a385761396e82613dc6565b6002836003811115613a4657fe5b1415613a555761396e82613e0c565b6003836003811115613a6357fe5b14156139be5761396e82613e38565b600080613a7e83613ade565b915081549050915091565b81612ace57612ace81613e6b565b7fffff000000000000000000000000000000000000000000000000000000000000167fba100000000000000000000000000000000000000000000000000000000000001490565b60006001613aeb83613e98565b7f0000000000000000000000000000000000000000000000000000000000000000604051602001613b1d929190615295565b60408051808303601f1901815291905280516020909101200392915050565b6060825167ffffffffffffffff81118015613b5657600080fd5b50604051908082528060200260200182016040528015613b9057816020015b613b7d6141c7565b815260200190600190039081613b755790505b50905060005b8351811015613c28576040805160a081019091528060038152602001858381518110613bbe57fe5b60200260200101516001600160a01b03168152602001848381518110613be057fe5b60200260200101518152602001866001600160a01b03168152602001306001600160a01b0316815250828281518110613c1557fe5b6020908102919091010152600101613b96565b50613c3161248c565b6001600160a01b0316630e8e3e84826040518263ffffffff1660e01b8152600401613c5c91906155d8565b600060405180830381600087803b15801561334457600080fd5b60006060836001600160a01b031683604051613c929190615254565b6000604051808303816000865af19150503d8060008114613ccf576040519150601f19603f3d011682016040523d82523d6000602084013e613cd4565b606091505b50915091506000821415613cec573d6000803e3d6000fd5b6106f7815160001480613d0e575081806020019051810190613d0e91906148d5565b6101a2613a89565b60608215613d25575080613943565b815115613d355781518083602001fd5b6139436101ae613e6b565b60606000613d4d83613ebb565b90506001816003811115613d5d57fe5b1415613d7457613d6c83613ed1565b9150506134f6565b829150506134f6565b60606000613d8a83613f23565b90506000816002811115613d9a57fe5b1415613da957613d6c83613f39565b6001816002811115613db757fe5b1415613d7457613d6c83613f9c565b60606000613dd383613f23565b6002811115613dde57fe5b905060ff8116613df257613d6c8382613fef565b60015b60ff168160ff161415613d7457613d6c8382614051565b60606000613e1983613f23565b6002811115613e2457fe5b905060ff8116613d7457613d6c8382613fef565b60606000613e4583613f23565b6002811115613e5057fe5b905060ff8116613e6457613d6c8382613fef565b6002613df5565b613e95817f42414c00000000000000000000000000000000000000000000000000000000006140ac565b50565b7dffffffffffffffffffffffffffffffffffffffffffffffffffffffffffff1690565b6000818060200190518101906134f39190614dac565b6060806000613edf8461410d565b91509150613eec82614130565b613ef657836135cb565b60018282604051602001613f0c939291906156e2565b604051602081830303815290604052949350505050565b6000818060200190518101906134f39190614d2d565b6060600080613f478461419a565b91509150613f54826135eb565b15613f9257613f6282613632565b915060008282604051602001613f7a939291906156c1565b604051602081830303815290604052925050506134f6565b83925050506134f6565b60606000613fa9836141b1565b9050613fb4816135eb565b15613d7457613fc281613632565b9050600181604051602001613fd89291906156aa565b6040516020818303038152906040529150506134f6565b6060600080613ffd8561419a565b9150915061400a826135eb565b156140475761401882613632565b915083828260405160200161402f93929190615a63565b60405160208183030381529060405292505050613943565b8492505050613943565b6060600061405e846141b1565b9050614069816135eb565b156140a35761407781613632565b9050828160405160200161408c929190615a50565b604051602081830303815290604052915050613943565b83915050613943565b62461bcd60e51b600090815260206004526007602452600a808404818106603090810160081b958390069590950190829004918206850160101b01602363ffffff0060e086901c160160181b0190930160c81b60445260e882901c90606490fd5b60606000828060200190518101906141259190614dc8565b909590945092505050565b600080805b835181101561419357600084828151811061414c57fe5b6020026020010151905061415f816135eb565b1561418a5761416d81613632565b85838151811061417957fe5b602002602001018181525050600192505b50600101614135565b5092915050565b600080828060200190518101906141259190614d76565b6000818060200190518101906133a29190614d49565b6040805160a081019091528060008152600060208201819052604082018190526060820181905260809091015290565b803561394381615b1c565b60008083601f840112614213578182fd5b50813567ffffffffffffffff81111561422a578182fd5b602083019150836020808302850101111561424457600080fd5b9250929050565b600082601f83011261425b578081fd5b813561426e61426982615aa5565b615a7e565b81815291506020808301908481018184028601820187101561428f57600080fd5b60005b848110156142b75781356142a581615b1c565b84529282019290820190600101614292565b505050505092915050565b600082601f8301126142d2578081fd5b81356142e061426982615aa5565b818152915060208083019084810160005b848110156142b7578135870160a080601f19838c0301121561431257600080fd5b61431b81615a7e565b85830135815260408084013587830152606080850135828401526080915081850135818401525082840135925067ffffffffffffffff83111561435d57600080fd5b61436b8c888587010161448d565b908201528652505092820192908201906001016142f1565b60008083601f840112614394578182fd5b50813567ffffffffffffffff8111156143ab578182fd5b60208301915083602060408302850101111561424457600080fd5b600082601f8301126143d6578081fd5b81356143e461426982615aa5565b81815291506020808301908481018184028601820187101561440557600080fd5b60005b848110156142b757813584529282019290820190600101614408565b600082601f830112614434578081fd5b815161444261426982615aa5565b81815291506020808301908481018184028601820187101561446357600080fd5b60005b848110156142b757815184529282019290820190600101614466565b803561394381615b31565b600082601f83011261449d578081fd5b813567ffffffffffffffff8111156144b3578182fd5b6144c66020601f19601f84011601615a7e565b91508082528360208285010111156144dd57600080fd5b8060208401602084013760009082016020015292915050565b80356002811061394357600080fd5b600060808284031215614516578081fd5b6145206080615a7e565b9050813567ffffffffffffffff8082111561453a57600080fd5b6145468583860161424b565b8352602084013591508082111561455c57600080fd5b614568858386016143c6565b6020840152604084013591508082111561458157600080fd5b5061458e8482850161448d565b6040830152506145a18360608401614482565b606082015292915050565b6000608082840312156145bd578081fd5b50919050565b803560ff8116811461394357600080fd5b6000602082840312156145e5578081fd5b81356133a281615b1c565b600060208284031215614601578081fd5b81516133a281615b1c565b60008060008060808587031215614621578283fd5b843561462c81615b1c565b9350602085013561463c81615b1c565b93969395505050506040820135916060013590565b60008060008060608587031215614666578182fd5b843561467181615b1c565b9350602085013561468181615b31565b9250604085013567ffffffffffffffff8082111561469d578384fd5b818701915087601f8301126146b0578384fd5b8135818111156146be578485fd5b8860208285010111156146cf578485fd5b95989497505060200194505050565b6000806000606084860312156146f2578081fd5b83356146fd81615b1c565b95602085013595506040909401359392505050565b600080600060408486031215614726578081fd5b833567ffffffffffffffff81111561473c578182fd5b61474886828701614202565b909790965060209590950135949350505050565b6000806020838503121561476e578182fd5b823567ffffffffffffffff811115614784578283fd5b61479085828601614202565b90969095509350505050565b600060208083850312156147ae578182fd5b825167ffffffffffffffff8111156147c4578283fd5b8301601f810185136147d4578283fd5b80516147e261426982615aa5565b81815283810190838501858402850186018910156147fe578687fd5b8694505b83851015614820578051835260019490940193918501918501614802565b50979650505050505050565b600080600060408486031215614840578081fd5b833567ffffffffffffffff80821115614857578283fd5b818601915086601f83011261486a578283fd5b813581811115614878578384fd5b87602060a08302850101111561488c578384fd5b6020928301989097509590910135949350505050565b6000602082840312156148b3578081fd5b815167ffffffffffffffff8111156148c9578182fd5b6135cb84828501614424565b6000602082840312156148e6578081fd5b81516133a281615b31565b60008060008060008060c08789031215614909578384fd5b863561491481615b31565b9550602087013561492481615b1c565b94506040870135935061493a88606089016145c3565b92506080870135915060a087013590509295509295509295565b600080600080600080600060c0888a03121561496e578485fd5b87359650602088013561498081615b4c565b9550604088013561499081615b1c565b945060608801356149a081615b1c565b9350608088013567ffffffffffffffff808211156149bc578283fd5b6149c88b838c01614505565b945060a08a01359150808211156149dd578283fd5b506149ea8a828b01614383565b989b979a50959850939692959293505050565b600080600080600080600060e0888a031215614a17578081fd5b873596506020880135614a2981615b4c565b95506040880135614a3981615b1c565b94506060880135614a4981615b1c565b9350608088013567ffffffffffffffff811115614a64578182fd5b614a708a828b01614505565b93505060a0880135915060c0880135905092959891949750929550565b600080600080600060a08688031215614aa4578283fd5b8535614aaf81615b1c565b94506020860135614abf81615b1c565b93506040860135614acf81615b1c565b94979396509394606081013594506080013592915050565b600080600080600080600080610100898b031215614b03578182fd5b8835614b0e81615b1c565b97506020890135614b1e81615b1c565b965060408901359550606089013594506080890135614b3c81615b31565b9350614b4b8a60a08b016145c3565b925060c0890135915060e089013590509295985092959890939650565b600080600080600080600060e0888a031215614b82578081fd5b8735614b8d81615b1c565b96506020880135614b9d81615b1c565b95506040880135945060608801359350614bba8960808a016145c3565b925060a0880135915060c0880135905092959891949750929550565b60008060408385031215614be8578182fd5b8235614bf381615b1c565b946020939093013593505050565b60008060008060008060c08789031215614c19578384fd5b8635614c2481615b1c565b95506020870135614c3481615b1c565b94506040870135614c4481615b1c565b93506060870135614c5481615b1c565b9598949750929560808101359460a0909101359350915050565b60008060008060808587031215614c83578182fd5b8435614c8e81615b1c565b93506020850135614c9e81615b1c565b92506040850135614cae81615b1c565b9396929550929360600135925050565b60008060008060008060c08789031215614cd6578384fd5b8635614ce181615b1c565b95506020870135614cf181615b1c565b94506040870135614d0181615b1c565b9350606087013592506080870135614d1881615b31565b8092505060a087013590509295509295509295565b600060208284031215614d3e578081fd5b81516133a281615b3f565b60008060408385031215614d5b578182fd5b8251614d6681615b3f565b6020939093015192949293505050565b600080600060608486031215614d8a578081fd5b8351614d9581615b3f565b602085015160409095015190969495509392505050565b600060208284031215614dbd578081fd5b81516133a281615b4c565b600080600060608486031215614ddc578081fd5b8351614de781615b4c565b602085015190935067ffffffffffffffff811115614e03578182fd5b614e0f86828701614424565b925050604084015190509250925092565b60008060008060008060008060008060006101608c8e031215614e41578485fd5b614e4b8d8d6144f6565b9a5067ffffffffffffffff8060208e01351115614e66578586fd5b614e768e60208f01358f016142c2565b9a508060408e01351115614e88578586fd5b614e988e60408f01358f01614202565b909a509850614eaa8e60608f016145ac565b97508060e08e01351115614ebc578586fd5b614ecc8e60e08f01358f01614202565b90975095506101008d013594506101208d013593506101408d0135811015614ef2578283fd5b50614f048d6101408e01358e01614383565b81935080925050509295989b509295989b9093969950565b6000806000806000806101208789031215614f35578384fd5b863567ffffffffffffffff80821115614f4c578586fd5b9088019060c0828b031215614f5f578586fd5b614f6960c0615a7e565b82358152614f7a8b602085016144f6565b60208201526040830135614f8d81615b1c565b6040820152614f9f8b606085016141f7565b60608201526080830135608082015260a083013582811115614fbf578788fd5b614fcb8c82860161448d565b60a083015250809850505050614fe488602089016145ac565b959895975050505060a08401359360c08101359360e08201359350610100909101359150565b60006020828403121561501b578081fd5b5035919050565b600060208284031215615033578081fd5b5051919050565b6000806040838503121561504c578182fd5b50508035926020909101359150565b6000806040838503121561506d578182fd5b505080516020909101519092909150565b6001600160a01b03169052565b60008284526020808501945082825b858110156150c85781356150ad81615b1c565b6001600160a01b03168752958201959082019060010161509a565b509495945050505050565b60008284526020808501945082825b858110156150c8578135875295820195908201906001016150e2565b6000815180845260208085019450808401835b838110156150c857815187529582019590820190600101615111565b15159052565b6000815180845261514b816020860160208601615ad2565b601f01601f19169290920160200192915050565b8051608080845281519084018190526000916020919082019060a0860190845b818110156151a45783516001600160a01b03168352928401929184019160010161517f565b5050828501519150858103838701526151bd81836150fe565b92505050604083015184820360408601526151d88282615133565b91505060608301516151ed606086018261512d565b509392505050565b803561520081615b1c565b6001600160a01b03908116835260208201359061521c82615b31565b901515602084015260408201359061523382615b1c565b166040830152606081013561524781615b31565b8015156060840152505050565b60008251615266818460208701615ad2565b9190910192915050565b60008451615282818460208901615ad2565b8201838582379092019182525092915050565b918252602082015260400190565b6001600160a01b0391909116815260200190565b6001600160a01b039384168152919092166020820152901515604082015260600190565b6000604082016001600160a01b03808616845260206040818601528286518085526060870191508288019450855b81811015615327578551851683529483019491830191600101615309565b509098975050505050505050565b6001600160a01b0392831681529116602082015260400190565b6001600160a01b0394851681529290931660208301526040820152901515606082015260800190565b6001600160a01b039889168152969097166020870152604086019490945260608501929092521515608084015260ff1660a083015260c082015260e08101919091526101000190565b6001600160a01b0397881681529590961660208601526040850193909352606084019190915260ff16608083015260a082015260c081019190915260e00190565b6001600160a01b0397881681529515156020870152939095166040850152606084019190915260ff16608083015260a082019290925260c081019190915260e00190565b6001600160a01b0392909216825260ff16602082015260400190565b6001600160a01b03929092168252602082015260400190565b6001600160a01b0393909316835260208301919091521515604082015260600190565b6001600160a01b03949094168452602084019290925261ffff1660408301521515606082015260800190565b6040808252810183905260008460608301825b8681101561550d57602083356154f281615b1c565b6001600160a01b0316835292830192909101906001016154dd565b5080925050506001600160a01b0383166020830152949350505050565b6020808252818101839052600090604080840186845b878110156155cb57813561555381615b4c565b61555c81615b08565b83528185013561556b81615b1c565b6001600160a01b0316838601528184013584840152606061558e81840184615ac5565b61559a8286018261507e565b505060806155aa81840184615ac5565b6155b68286018261507e565b505060a0928301929190910190600101615540565b5090979650505050505050565b602080825282518282018190526000919060409081850190868401855b82811015615661578151805161560a81615b08565b8552808701516001600160a01b03168786015285810151868601526060808201516156378288018261507e565b50506080908101519061564c8682018361507e565b505060a09390930192908501906001016155f5565b5091979650505050505050565b60008582526001600160a01b038086166020840152808516604084015250608060608301526156a0608083018461515f565b9695505050505050565b604081016156b784615afe565b9281526020015290565b606081016156ce85615afe565b938152602081019290925260409091015290565b60006156ed85615b08565b8482526060602083015261570460608301856150fe565b9050826040830152949350505050565b60006101208083016157258c615b12565b8b84526020808501929092528a5190819052610140808501928281028601909101918c8201855b828110156157cc578785037ffffffffffffffffffffffffffffffffffffffffffffffffffffffffffffffec00186528151805186528481015185870152604080820151908701526060808201519087015260809081015160a0918701829052906157b881880183615133565b97860197965050509083019060010161574c565b5050505083810360408501526157e3818a8c61508b565b9150506157f360608401886151f5565b82810360e08401526158068186886150d3565b915050826101008301529998505050505050505050565b60208082526011908201527f756e7772617070696e67206661696c6564000000000000000000000000000000604082015260600190565b60208082526010908201527f496e636f72726563742073656e64657200000000000000000000000000000000604082015260600190565b6020808252601f908201527f52656c617965722063616e206f6e6c7920617070726f766520697473656c6600604082015260600190565b6020808252600f908201527f7772617070696e67206661696c65640000000000000000000000000000000000604082015260600190565b60208082526013908201527f554e48414e444c45445f504f4f4c5f4b494e4400000000000000000000000000604082015260600190565b60208082526019908201527f696e76616c696420636861696e6564207265666572656e636500000000000000604082015260600190565b600060e08252855160e0830152602086015161598281615b12565b61010083015260408601516001600160a01b03908116610120840152606087015116610140830152608086015161016083015260a086015160c06101808401526159d06101a0840182615133565b9150506159e060208301866151f5565b60a082019390935260c0015292915050565b90815260200190565b9182526001600160a01b0316602082015260400190565b9283526001600160a01b03918216602084015216604082015260600190565b9283526001600160a01b03919091166020830152604082015260600190565b60ff929092168252602082015260400190565b60ff9390931683526020830191909152604082015260600190565b60405181810167ffffffffffffffff81118282101715615a9d57600080fd5b604052919050565b600067ffffffffffffffff821115615abb578081fd5b5060209081020190565b600082356133a281615b1c565b60005b83811015615aed578181015183820152602001615ad5565b838111156106f75750506000910152565b60038110613e9557fe5b60048110613e9557fe5b60028110613e9557fe5b6001600160a01b0381168114613e9557600080fd5b8015158114613e9557600080fd5b60038110613e9557600080fd5b60048110613e9557600080fdfea264697066735822122056b794c02b07d56d884940fef816fa3f6fb728f249f952f5c946dda831c0d57764736f6c6343000701003360c060405234801561001057600080fd5b5060405161078738038061078783398101604081905261002f91610052565b60016000556001600160601b0319606092831b8116608052911b1660a0526100a3565b60008060408385031215610064578182fd5b825161006f8161008b565b60208401519092506100808161008b565b809150509250929050565b6001600160a01b03811681146100a057600080fd5b50565b60805160601c60a05160601c6106b36100d46000398060fc528061020f5250806058528061012052506106b36000f3fe6080604052600436106100385760003560e01c80637678922e146100885780638d928af8146100b3578063ac9650d8146100c857610083565b36610083576100813373ffffffffffffffffffffffffffffffffffffffff7f000000000000000000000000000000000000000000000000000000000000000016146102066100e8565b005b600080fd5b34801561009457600080fd5b5061009d6100fa565b6040516100aa919061050e565b60405180910390f35b3480156100bf57600080fd5b5061009d61011e565b6100db6100d6366004610480565b610142565b6040516100aa919061052f565b816100f6576100f68161026e565b5050565b7f000000000000000000000000000000000000000000000000000000000000000090565b7f000000000000000000000000000000000000000000000000000000000000000090565b606061014c61029b565b8167ffffffffffffffff8111801561016357600080fd5b5060405190808252806020026020018201604052801561019757816020015b60608152602001906001900390816101825790505b50905060005b82811015610257576102388484838181106101b457fe5b90506020028101906101c691906105e3565b8080601f0160208091040260200160405190810160405280939291908181526020018383808284376000920191909152505073ffffffffffffffffffffffffffffffffffffffff7f000000000000000000000000000000000000000000000000000000000000000016929150506102b4565b82828151811061024457fe5b602090810291909101015260010161019d565b50610260610337565b610268610348565b92915050565b610298817f42414c000000000000000000000000000000000000000000000000000000000061034f565b50565b6102ad600260005414156101906100e8565b6002600055565b6060600060608473ffffffffffffffffffffffffffffffffffffffff16846040516102df91906104ef565b600060405180830381855af49150503d806000811461031a576040519150601f19603f3d011682016040523d82523d6000602084013e61031f565b606091505b509150915061032e82826103ca565b95945050505050565b4780156102985761029833826103f4565b6001600055565b7f08c379a000000000000000000000000000000000000000000000000000000000600090815260206004526007602452600a808404818106603090810160081b958390069590950190829004918206850160101b01602363ffffff0060e086901c160160181b0190930160c81b60445260e882901c90606490fd5b606082156103d9575080610268565b8151156103e95781518083602001fd5b6102686101ae61026e565b610403814710156101a36100e8565b60008273ffffffffffffffffffffffffffffffffffffffff16826040516104299061050b565b60006040518083038185875af1925050503d8060008114610466576040519150601f19603f3d011682016040523d82523d6000602084013e61046b565b606091505b5050905061047b816101a46100e8565b505050565b60008060208385031215610492578182fd5b823567ffffffffffffffff808211156104a9578384fd5b818501915085601f8301126104bc578384fd5b8135818111156104ca578485fd5b86602080830285010111156104dd578485fd5b60209290920196919550909350505050565b6000825161050181846020870161064d565b9190910192915050565b90565b73ffffffffffffffffffffffffffffffffffffffff91909116815260200190565b6000602080830181845280855180835260408601915060408482028701019250838701855b828110156105d6577fffffffffffffffffffffffffffffffffffffffffffffffffffffffffffffffc088860301845281518051808752610599818989018a850161064d565b601f017fffffffffffffffffffffffffffffffffffffffffffffffffffffffffffffffe01695909501860194509285019290850190600101610554565b5092979650505050505050565b60008083357fffffffffffffffffffffffffffffffffffffffffffffffffffffffffffffffe1843603018112610617578283fd5b83018035915067ffffffffffffffff821115610631578283fd5b60200191503681900382131561064657600080fd5b9250929050565b60005b83811015610668578181015183820152602001610650565b83811115610677576000848401525b5050505056fea26469706673582212201120b234fb57d56607056c92dd83b5cf9c324b095090d2b5b628463e9259399564736f6c63430007010033",
  "linkReferences": {},
  "deployedLinkReferences": {}
}