{
  "_format": "hh-sol-artifact-1",
  "contractName": "MockScalingHelpers",
  "sourceName": "contracts/test/MockScalingHelpers.sol",
  "abi": [
    {
      "inputs": [
        {
          "internalType": "uint256",
          "name": "amount",
          "type": "uint256"
        },
        {
          "internalType": "uint256",
          "name": "scalingFactor",
          "type": "uint256"
        }
      ],
      "name": "downscaleDown",
      "outputs": [
        {
          "internalType": "uint256",
          "name": "",
          "type": "uint256"
        }
      ],
      "stateMutability": "pure",
      "type": "function"
    },
    {
      "inputs": [
        {
          "internalType": "uint256[]",
          "name": "amounts",
          "type": "uint256[]"
        },
        {
          "internalType": "uint256[]",
          "name": "scalingFactors",
          "type": "uint256[]"
        }
      ],
      "name": "downscaleDownArray",
      "outputs": [
        {
          "internalType": "uint256[]",
          "name": "",
          "type": "uint256[]"
        }
      ],
      "stateMutability": "pure",
      "type": "function"
    },
    {
      "inputs": [
        {
          "internalType": "uint256",
          "name": "amount",
          "type": "uint256"
        },
        {
          "internalType": "uint256",
          "name": "scalingFactor",
          "type": "uint256"
        }
      ],
      "name": "downscaleUp",
      "outputs": [
        {
          "internalType": "uint256",
          "name": "",
          "type": "uint256"
        }
      ],
      "stateMutability": "pure",
      "type": "function"
    },
    {
      "inputs": [
        {
          "internalType": "uint256[]",
          "name": "amounts",
          "type": "uint256[]"
        },
        {
          "internalType": "uint256[]",
          "name": "scalingFactors",
          "type": "uint256[]"
        }
      ],
      "name": "downscaleUpArray",
      "outputs": [
        {
          "internalType": "uint256[]",
          "name": "",
          "type": "uint256[]"
        }
      ],
      "stateMutability": "pure",
      "type": "function"
    },
    {
      "inputs": [
        {
          "internalType": "uint256",
          "name": "amount",
          "type": "uint256"
        },
        {
          "internalType": "uint256",
          "name": "scalingFactor",
          "type": "uint256"
        }
      ],
      "name": "upscale",
      "outputs": [
        {
          "internalType": "uint256",
          "name": "",
          "type": "uint256"
        }
      ],
      "stateMutability": "pure",
      "type": "function"
    },
    {
      "inputs": [
        {
          "internalType": "uint256[]",
          "name": "amounts",
          "type": "uint256[]"
        },
        {
          "internalType": "uint256[]",
          "name": "scalingFactors",
          "type": "uint256[]"
        }
      ],
      "name": "upscaleArray",
      "outputs": [
        {
          "internalType": "uint256[]",
          "name": "",
          "type": "uint256[]"
        }
      ],
      "stateMutability": "pure",
      "type": "function"
    }
  ],
  "bytecode": "0x608060405234801561001057600080fd5b506105f0806100206000396000f3fe608060405234801561001057600080fd5b50600436106100725760003560e01c806351d7f8e71161005057806351d7f8e7146100d357806374cd2c44146100e65780638f26f906146100f957610072565b806313c809d4146100775780632659f004146100a05780634f547360146100c0575b600080fd5b61008a61008536600461054c565b61010c565b60405161009791906105b1565b60405180910390f35b6100b36100ae3660046104eb565b61011f565b604051610097919061056d565b6100b36100ce3660046104eb565b610132565b6100b36100e13660046104eb565b61013e565b61008a6100f436600461054c565b61014a565b61008a61010736600461054c565b610156565b60006101188383610162565b9392505050565b606061012b838361016e565b5090919050565b606061012b83836101dd565b606061012b8383610246565b600061011883836102af565b600061011883836102bb565b600061011883836102c7565b8151815161017d9082906102ff565b60005b818110156101d7576101b884828151811061019757fe5b60200260200101518483815181106101ab57fe5b6020026020010151610310565b8482815181106101c457fe5b6020908102919091010152600101610180565b50505050565b815181516101ec9082906102ff565b60005b818110156101d75761022784828151811061020657fe5b602002602001015184838151811061021a57fe5b602002602001015161035a565b84828151811061023357fe5b60209081029190910101526001016101ef565b815181516102559082906102ff565b60005b818110156101d75761029084828151811061026f57fe5b602002602001015184838151811061028357fe5b60200260200101516102c7565b84828151811061029c57fe5b6020908102919091010152600101610258565b6000610118838361035a565b60006101188383610310565b60008282026102eb8415806102e45750838583816102e157fe5b04145b60036103a7565b670de0b6b3a7640000815b04949350505050565b61030c81831460676103a7565b5050565b600061031f82151560046103a7565b670de0b6b3a7640000830261035184158061034a5750670de0b6b3a764000085838161034757fe5b04145b60056103a7565b8281816102f657fe5b600061036982151560046103a7565b670de0b6b3a7640000830261039184158061034a5750670de0b6b3a764000085838161034757fe5b6001836001830304018115150291505092915050565b8161030c5761030c816103da817f42414c00000000000000000000000000000000000000000000000000000000006103dd565b50565b7f08c379a000000000000000000000000000000000000000000000000000000000600090815260206004526007602452600a808404818106603090810160081b958390069590950190829004918206850160101b01602363ffffff0060e086901c160160181b0190930160c81b60445260e882901c90606490fd5b600082601f830112610468578081fd5b813567ffffffffffffffff8082111561047f578283fd5b60208083026040518282820101818110858211171561049c578687fd5b6040528481529450818501925085820181870183018810156104bd57600080fd5b600091505b848210156104e05780358452928201926001919091019082016104c2565b505050505092915050565b600080604083850312156104fd578182fd5b823567ffffffffffffffff80821115610514578384fd5b61052086838701610458565b93506020850135915080821115610535578283fd5b5061054285828601610458565b9150509250929050565b6000806040838503121561055e578182fd5b50508035926020909101359150565b6020808252825182820181905260009190848201906040850190845b818110156105a557835183529284019291840191600101610589565b50909695505050505050565b9081526020019056fea2646970667358221220ab1b0043baf2495c7cc7ef7b7ab58f587241b0691b0ed3f39ff4d03aa140131d64736f6c63430007010033",
  "linkReferences": {},
  "deployedLinkReferences": {}
}