{
  "_format": "hh-sol-artifact-1",
  "contractName": "MockInternalBalanceRelayer",
  "sourceName": "contracts/test/MockInternalBalanceRelayer.sol",
  "abi": [
    {
      "inputs": [
        {
          "internalType": "contract IVault",
          "name": "_vault",
          "type": "address"
        }
      ],
      "stateMutability": "nonpayable",
      "type": "constructor"
    },
    {
      "inputs": [
        {
          "internalType": "address payable",
          "name": "sender",
          "type": "address"
        },
        {
          "internalType": "contract IAsset",
          "name": "asset",
          "type": "address"
        },
        {
          "internalType": "uint256[]",
          "name": "depositAmounts",
          "type": "uint256[]"
        },
        {
          "internalType": "uint256[]",
          "name": "withdrawAmounts",
          "type": "uint256[]"
        }
      ],
      "name": "depositAndWithdraw",
      "outputs": [],
      "stateMutability": "nonpayable",
      "type": "function"
    },
    {
      "inputs": [],
      "name": "vault",
      "outputs": [
        {
          "internalType": "contract IVault",
          "name": "",
          "type": "address"
        }
      ],
      "stateMutability": "view",
      "type": "function"
    }
  ],
  "bytecode": "0x608060405234801561001057600080fd5b5060405161068e38038061068e83398101604081905261002f91610054565b600080546001600160a01b0319166001600160a01b0392909216919091179055610082565b600060208284031215610065578081fd5b81516001600160a01b038116811461007b578182fd5b9392505050565b6105fd806100916000396000f3fe608060405234801561001057600080fd5b50600436106100365760003560e01c80637b58efc11461003b578063fbfa77cf14610050575b600080fd5b61004e61004936600461044d565b61006e565b005b6100586101e4565b6040516100659190610584565b60405180910390f35b61007a82518251610200565b60005b82518110156101dd5760606100a86000878787868151811061009b57fe5b6020026020010151610211565b6000546040517f0e8e3e8400000000000000000000000000000000000000000000000000000000815291925073ffffffffffffffffffffffffffffffffffffffff1690630e8e3e84906100ff9084906004016104ed565b600060405180830381600087803b15801561011957600080fd5b505af115801561012d573d6000803e3d6000fd5b5050505060606101466001888887878151811061009b57fe5b6000546040517f0e8e3e8400000000000000000000000000000000000000000000000000000000815291925073ffffffffffffffffffffffffffffffffffffffff1690630e8e3e849061019d9084906004016104ed565b600060405180830381600087803b1580156101b757600080fd5b505af11580156101cb573d6000803e3d6000fd5b50506001909401935061007d92505050565b5050505050565b60005473ffffffffffffffffffffffffffffffffffffffff1681565b61020d81831460676102d9565b5050565b604080516001808252818301909252606091816020015b61023061038a565b8152602001906001900390816102285790505090506040518060a0016040528086600381111561025c57fe5b81526020018473ffffffffffffffffffffffffffffffffffffffff1681526020018381526020018573ffffffffffffffffffffffffffffffffffffffff1681526020018573ffffffffffffffffffffffffffffffffffffffff16815250816000815181106102c657fe5b6020026020010181905250949350505050565b8161020d5761020d8161030c817f42414c000000000000000000000000000000000000000000000000000000000061030f565b50565b7f08c379a000000000000000000000000000000000000000000000000000000000600090815260206004526007602452600a808404818106603090810160081b958390069590950190829004918206850160101b01602363ffffff0060e086901c160160181b0190930160c81b60445260e882901c90606490fd5b6040805160a081019091528060008152600060208201819052604082018190526060820181905260809091015290565b600082601f8301126103ca578081fd5b813567ffffffffffffffff808211156103e1578283fd5b6020808302604051828282010181811085821117156103fe578687fd5b60405284815294508185019250858201818701830188101561041f57600080fd5b600091505b84821015610442578035845292820192600191909101908201610424565b505050505092915050565b60008060008060808587031215610462578384fd5b843561046d816105a5565b9350602085013561047d816105a5565b9250604085013567ffffffffffffffff80821115610499578384fd5b6104a5888389016103ba565b935060608701359150808211156104ba578283fd5b506104c7878288016103ba565b91505092959194509250565b73ffffffffffffffffffffffffffffffffffffffff169052565b602080825282518282018190526000919060409081850190868401855b8281101561057757815180516004811061052057fe5b855280870151610532888701826104d3565b50858101518686015260608082015161054d828801826104d3565b505060809081015190610562868201836104d3565b505060a093909301929085019060010161050a565b5091979650505050505050565b73ffffffffffffffffffffffffffffffffffffffff91909116815260200190565b73ffffffffffffffffffffffffffffffffffffffff8116811461030c57600080fdfea2646970667358221220e250e8563166af877bcf997f38907f148d31aa339765a0a191a5df163cd3155b64736f6c63430007010033",
  "linkReferences": {},
  "deployedLinkReferences": {}
}