{
  "address": "0x85b0273b0B415F9e28B9ce820240F4aa097F2a29",
  "abi": [
    {
      "inputs": [],
      "name": "AlreadyConfigured",
      "type": "error"
    },
    {
      "inputs": [],
      "name": "CantUpdateActiveGauge",
      "type": "error"
    },
    {
      "inputs": [],
      "name": "InvalidShareToken",
      "type": "error"
    },
    {
      "inputs": [],
      "name": "OwnerIsZeroAddress",
      "type": "error"
    },
    {
      "inputs": [],
      "name": "Unauthorized",
      "type": "error"
    },
    {
      "inputs": [],
      "name": "WrongGaugeShareToken",
      "type": "error"
    },
    {
      "anonymous": false,
      "inputs": [
        {
          "indexed": false,
          "internalType": "address",
          "name": "gauge",
          "type": "address"
        }
      ],
      "name": "GaugeConfigured",
      "type": "event"
    },
    {
      "anonymous": false,
      "inputs": [
        {
          "indexed": false,
          "internalType": "uint8",
          "name": "version",
          "type": "uint8"
        }
      ],
      "name": "Initialized",
      "type": "event"
    },
    {
      "anonymous": false,
      "inputs": [
        {
          "indexed": true,
          "internalType": "address",
          "name": "previousOwner",
          "type": "address"
        },
        {
          "indexed": true,
          "internalType": "address",
          "name": "newOwner",
          "type": "address"
        }
      ],
      "name": "OwnershipTransferred",
      "type": "event"
    },
    {
      "inputs": [
        {
          "internalType": "address",
          "name": "_sender",
          "type": "address"
        },
        {
          "internalType": "uint256",
          "name": "_senderBalance",
          "type": "uint256"
        },
        {
          "internalType": "address",
          "name": "_recipient",
          "type": "address"
        },
        {
          "internalType": "uint256",
          "name": "_recipientBalance",
          "type": "uint256"
        },
        {
          "internalType": "uint256",
          "name": "_totalSupply",
          "type": "uint256"
        },
        {
          "internalType": "uint256",
          "name": "",
          "type": "uint256"
        }
      ],
      "name": "afterTokenTransfer",
      "outputs": [],
      "stateMutability": "nonpayable",
      "type": "function"
    },
    {
      "inputs": [],
      "name": "gauge",
      "outputs": [
        {
          "internalType": "contract IGaugeLike",
          "name": "",
          "type": "address"
        }
      ],
      "stateMutability": "view",
      "type": "function"
    },
    {
      "inputs": [
        {
          "internalType": "address",
          "name": "_owner",
          "type": "address"
        },
        {
          "internalType": "contract IShareToken",
          "name": "_token",
          "type": "address"
        }
      ],
      "name": "initialize",
      "outputs": [],
      "stateMutability": "nonpayable",
      "type": "function"
    },
    {
      "inputs": [],
      "name": "owner",
      "outputs": [
        {
          "internalType": "address",
          "name": "",
          "type": "address"
        }
      ],
      "stateMutability": "view",
      "type": "function"
    },
    {
      "inputs": [],
      "name": "renounceOwnership",
      "outputs": [],
      "stateMutability": "nonpayable",
      "type": "function"
    },
    {
      "inputs": [
        {
          "internalType": "contract IGaugeLike",
          "name": "_gauge",
          "type": "address"
        }
      ],
      "name": "setGauge",
      "outputs": [],
      "stateMutability": "nonpayable",
      "type": "function"
    },
    {
      "inputs": [],
      "name": "shareToken",
      "outputs": [
        {
          "internalType": "contract IShareToken",
          "name": "",
          "type": "address"
        }
      ],
      "stateMutability": "view",
      "type": "function"
    },
    {
      "inputs": [
        {
          "internalType": "address",
          "name": "newOwner",
          "type": "address"
        }
      ],
      "name": "transferOwnership",
      "outputs": [],
      "stateMutability": "nonpayable",
      "type": "function"
    }
  ],
  "bytecode": "0x608060405234801561001057600080fd5b5061086b806100206000396000f3fe608060405234801561001057600080fd5b50600436106100885760003560e01c80638da5cb5b1161005b5780638da5cb5b146100ec578063a6f19c84146100fd578063bbdc013b14610110578063f2fde38b1461012357600080fd5b8063485cc9551461008d57806355a68ed3146100a25780636c9fa59e146100b5578063715018a6146100e4575b600080fd5b6100a061009b36600461073d565b610136565b005b6100a06100b0366004610776565b610324565b6066546100c8906001600160a01b031681565b6040516001600160a01b03909116815260200160405180910390f35b6100a06104c2565b6033546001600160a01b03166100c8565b6065546100c8906001600160a01b031681565b6100a061011e36600461079a565b6104d6565b6100a0610131366004610776565b610603565b600054610100900460ff16158080156101565750600054600160ff909116105b806101705750303b158015610170575060005460ff166001145b6101d85760405162461bcd60e51b815260206004820152602e60248201527f496e697469616c697a61626c653a20636f6e747261637420697320616c72656160448201526d191e481a5b9a5d1a585b1a5e995960921b60648201526084015b60405180910390fd5b6000805460ff1916600117905580156101fb576000805461ff0019166101001790555b6001600160a01b038316610222576040516354a4010f60e01b815260040160405180910390fd5b306001600160a01b0316826001600160a01b0316638fea80626040518163ffffffff1660e01b8152600401602060405180830381865afa15801561026a573d6000803e3d6000fd5b505050506040513d601f19601f8201168201806040525081019061028e91906107f6565b6001600160a01b0316146102b55760405163d938fa3760e01b815260040160405180910390fd5b6102be8361067c565b606680546001600160a01b0319166001600160a01b038416179055801561031f576000805461ff0019169055604051600181527f7f26b83ff96e1f2b6a682f133852f6798a09c465da95921460cefb38474024989060200160405180910390a15b505050565b61032c6106ce565b6065546001600160a01b0316158015906103ba5750606560009054906101000a90046001600160a01b03166001600160a01b0316639c868ac06040518163ffffffff1660e01b8152600401602060405180830381865afa158015610394573d6000803e3d6000fd5b505050506040513d601f19601f820116820180604052508101906103b89190610813565b155b156103d7576040516282649160e71b815260040160405180910390fd5b6066546040805163364fd2cf60e11b815290516001600160a01b0392831692841691636c9fa59e9160048083019260209291908290030181865afa158015610423573d6000803e3d6000fd5b505050506040513d601f19601f8201168201806040525081019061044791906107f6565b6001600160a01b03161461046e5760405163060a0aaf60e41b815260040160405180910390fd5b606580546001600160a01b0319166001600160a01b0383169081179091556040519081527fa1c6eeb718e2772f1b49630a5a44f17c6c7071d697ec2daed6b36b0e73385c7b9060200160405180910390a150565b6104ca6106ce565b6104d4600061067c565b565b6065546001600160a01b031680158061054c5750806001600160a01b0316639c868ac06040518163ffffffff1660e01b8152600401602060405180830381865afa158015610528573d6000803e3d6000fd5b505050506040513d601f19601f8201168201806040525081019061054c9190610813565b1561055757506105fb565b6066546001600160a01b03163314610581576040516282b42960e81b815260040160405180910390fd5b6040516370f1a76560e11b81526001600160a01b038881166004830152602482018890528681166044830152606482018690526084820185905282169063e1e34eca9060a401600060405180830381600087803b1580156105e157600080fd5b505af11580156105f5573d6000803e3d6000fd5b50505050505b505050505050565b61060b6106ce565b6001600160a01b0381166106705760405162461bcd60e51b815260206004820152602660248201527f4f776e61626c653a206e6577206f776e657220697320746865207a65726f206160448201526564647265737360d01b60648201526084016101cf565b6106798161067c565b50565b603380546001600160a01b038381166001600160a01b0319831681179093556040519116919082907f8be0079c531659141344cd1fd0a4f28419497f9722a3daafe3b4186f6b6457e090600090a35050565b6033546001600160a01b031633146104d45760405162461bcd60e51b815260206004820181905260248201527f4f776e61626c653a2063616c6c6572206973206e6f7420746865206f776e657260448201526064016101cf565b6001600160a01b038116811461067957600080fd5b6000806040838503121561075057600080fd5b823561075b81610728565b9150602083013561076b81610728565b809150509250929050565b60006020828403121561078857600080fd5b813561079381610728565b9392505050565b60008060008060008060c087890312156107b357600080fd5b86356107be81610728565b95506020870135945060408701356107d581610728565b959894975094956060810135955060808101359460a0909101359350915050565b60006020828403121561080857600080fd5b815161079381610728565b60006020828403121561082557600080fd5b8151801515811461079357600080fdfea26469706673582212201a67db5800633f55bbc9a628e5f98694756b873c80de29335cc7fcc1940ffd9e64736f6c63430008150033",
  "language": "Solidity",
  "compiler": "0.8.21+commit.d9974bed"
}