{
  "address": "0xB5ACA3882D223A0F99FF8209E694C72dD121140c",
  "abi": [
    {
      "inputs": [],
      "stateMutability": "nonpayable",
      "type": "constructor"
    },
    {
      "inputs": [],
      "name": "acceptOwnership",
      "outputs": [],
      "stateMutability": "nonpayable",
      "type": "function"
    },
    {
      "inputs": [
        {
          "internalType": "address",
          "name": "_silo",
          "type": "address"
        },
        {
          "internalType": "uint256",
          "name": "_action",
          "type": "uint256"
        },
        {
          "internalType": "bytes",
          "name": "_inputAndOutput",
          "type": "bytes"
        }
      ],
      "name": "afterAction",
      "outputs": [],
      "stateMutability": "nonpayable",
      "type": "function"
    },
    {
      "inputs": [
        {
          "internalType": "address",
          "name": "",
          "type": "address"
        },
        {
          "internalType": "uint256",
          "name": "",
          "type": "uint256"
        },
        {
          "internalType": "bytes",
          "name": "",
          "type": "bytes"
        }
      ],
      "name": "beforeAction",
      "outputs": [],
      "stateMutability": "pure",
      "type": "function"
    },
    {
      "inputs": [
        {
          "internalType": "contract IShareToken",
          "name": "",
          "type": "address"
        }
      ],
      "name": "configuredGauges",
      "outputs": [
        {
          "internalType": "contract IGaugeLike",
          "name": "",
          "type": "address"
        }
      ],
      "stateMutability": "view",
      "type": "function"
    },
    {
      "inputs": [],
      "name": "gauge",
      "outputs": [
        {
          "internalType": "contract IGaugeLike",
          "name": "",
          "type": "address"
        }
      ],
      "stateMutability": "view",
      "type": "function"
    },
    {
      "inputs": [
        {
          "internalType": "address",
          "name": "_silo",
          "type": "address"
        }
      ],
      "name": "hookReceiverConfig",
      "outputs": [
        {
          "internalType": "uint24",
          "name": "hooksBefore",
          "type": "uint24"
        },
        {
          "internalType": "uint24",
          "name": "hooksAfter",
          "type": "uint24"
        }
      ],
      "stateMutability": "view",
      "type": "function"
    },
    {
      "inputs": [
        {
          "internalType": "contract ISiloConfig",
          "name": "_siloConfig",
          "type": "address"
        },
        {
          "internalType": "bytes",
          "name": "_data",
          "type": "bytes"
        }
      ],
      "name": "initialize",
      "outputs": [],
      "stateMutability": "nonpayable",
      "type": "function"
    },
    {
      "inputs": [],
      "name": "owner",
      "outputs": [
        {
          "internalType": "address",
          "name": "",
          "type": "address"
        }
      ],
      "stateMutability": "view",
      "type": "function"
    },
    {
      "inputs": [],
      "name": "pendingOwner",
      "outputs": [
        {
          "internalType": "address",
          "name": "",
          "type": "address"
        }
      ],
      "stateMutability": "view",
      "type": "function"
    },
    {
      "inputs": [
        {
          "internalType": "contract IShareToken",
          "name": "_shareToken",
          "type": "address"
        }
      ],
      "name": "removeGauge",
      "outputs": [],
      "stateMutability": "nonpayable",
      "type": "function"
    },
    {
      "inputs": [],
      "name": "renounceOwnership",
      "outputs": [],
      "stateMutability": "nonpayable",
      "type": "function"
    },
    {
      "inputs": [
        {
          "internalType": "contract IGaugeLike",
          "name": "_gauge",
          "type": "address"
        },
        {
          "internalType": "contract IShareToken",
          "name": "_shareToken",
          "type": "address"
        }
      ],
      "name": "setGauge",
      "outputs": [],
      "stateMutability": "nonpayable",
      "type": "function"
    },
    {
      "inputs": [],
      "name": "shareToken",
      "outputs": [
        {
          "internalType": "contract IShareToken",
          "name": "",
          "type": "address"
        }
      ],
      "stateMutability": "view",
      "type": "function"
    },
    {
      "inputs": [],
      "name": "siloConfig",
      "outputs": [
        {
          "internalType": "contract ISiloConfig",
          "name": "",
          "type": "address"
        }
      ],
      "stateMutability": "view",
      "type": "function"
    },
    {
      "inputs": [
        {
          "internalType": "address",
          "name": "newOwner",
          "type": "address"
        }
      ],
      "name": "transferOwnership",
      "outputs": [],
      "stateMutability": "nonpayable",
      "type": "function"
    },
    {
      "anonymous": false,
      "inputs": [
        {
          "indexed": false,
          "internalType": "address",
          "name": "gauge",
          "type": "address"
        },
        {
          "indexed": false,
          "internalType": "address",
          "name": "shareToken",
          "type": "address"
        }
      ],
      "name": "GaugeConfigured",
      "type": "event"
    },
    {
      "anonymous": false,
      "inputs": [
        {
          "indexed": false,
          "internalType": "address",
          "name": "shareToken",
          "type": "address"
        }
      ],
      "name": "GaugeRemoved",
      "type": "event"
    },
    {
      "anonymous": false,
      "inputs": [
        {
          "indexed": false,
          "internalType": "address",
          "name": "silo",
          "type": "address"
        },
        {
          "indexed": false,
          "internalType": "uint24",
          "name": "hooksBefore",
          "type": "uint24"
        },
        {
          "indexed": false,
          "internalType": "uint24",
          "name": "hooksAfter",
          "type": "uint24"
        }
      ],
      "name": "HookConfigured",
      "type": "event"
    },
    {
      "anonymous": false,
      "inputs": [
        {
          "indexed": false,
          "internalType": "uint64",
          "name": "version",
          "type": "uint64"
        }
      ],
      "name": "Initialized",
      "type": "event"
    },
    {
      "anonymous": false,
      "inputs": [
        {
          "indexed": true,
          "internalType": "address",
          "name": "previousOwner",
          "type": "address"
        },
        {
          "indexed": true,
          "internalType": "address",
          "name": "newOwner",
          "type": "address"
        }
      ],
      "name": "OwnershipTransferStarted",
      "type": "event"
    },
    {
      "anonymous": false,
      "inputs": [
        {
          "indexed": true,
          "internalType": "address",
          "name": "previousOwner",
          "type": "address"
        },
        {
          "indexed": true,
          "internalType": "address",
          "name": "newOwner",
          "type": "address"
        }
      ],
      "name": "OwnershipTransferred",
      "type": "event"
    },
    {
      "inputs": [],
      "name": "AlreadyConfigured",
      "type": "error"
    },
    {
      "inputs": [],
      "name": "CantRemoveActiveGauge",
      "type": "error"
    },
    {
      "inputs": [],
      "name": "EmptyGaugeAddress",
      "type": "error"
    },
    {
      "inputs": [],
      "name": "EmptySiloConfig",
      "type": "error"
    },
    {
      "inputs": [],
      "name": "GaugeAlreadyConfigured",
      "type": "error"
    },
    {
      "inputs": [],
      "name": "GaugeIsNotConfigured",
      "type": "error"
    },
    {
      "inputs": [],
      "name": "InvalidInitialization",
      "type": "error"
    },
    {
      "inputs": [],
      "name": "InvalidShareToken",
      "type": "error"
    },
    {
      "inputs": [],
      "name": "NotInitializing",
      "type": "error"
    },
    {
      "inputs": [
        {
          "internalType": "address",
          "name": "owner",
          "type": "address"
        }
      ],
      "name": "OwnableInvalidOwner",
      "type": "error"
    },
    {
      "inputs": [
        {
          "internalType": "address",
          "name": "account",
          "type": "address"
        }
      ],
      "name": "OwnableUnauthorizedAccount",
      "type": "error"
    },
    {
      "inputs": [],
      "name": "OwnerIsZeroAddress",
      "type": "error"
    },
    {
      "inputs": [],
      "name": "RequestNotSupported",
      "type": "error"
    },
    {
      "inputs": [],
      "name": "RevertRequestFromHook",
      "type": "error"
    },
    {
      "inputs": [],
      "name": "WrongGaugeShareToken",
      "type": "error"
    }
  ],
  "bytecode": "0x608060405234801561000f575f80fd5b50338061003557604051631e4fbdf760e01b81525f600482015260240160405180910390fd5b61003e81610055565b50610047610071565b6100505f610055565b610173565b600280546001600160a01b031916905561006e81610122565b50565b7ff0c57e16840df040f15088dc2f81fe391c3923bec73e23a9662efc9c229c6a00805468010000000000000000900460ff16156100c15760405163f92ee8a960e01b815260040160405180910390fd5b80546001600160401b039081161461006e5780546001600160401b0319166001600160401b0390811782556040519081527fc7f505b2f371ae2175ee4913f4499e1f2633a7b5936321eed1cdaeb6115181d29060200160405180910390a150565b600180546001600160a01b038381166001600160a01b0319831681179093556040519116919082907f8be0079c531659141344cd1fd0a4f28419497f9722a3daafe3b4186f6b6457e0905f90a35050565b610f0f806101805f395ff3fe608060405234801561000f575f80fd5b50600436106100f0575f3560e01c8063a37d941111610093578063d714fd1911610063578063d714fd19146101e1578063e30c3978146101f4578063e4784fa914610205578063f2fde38b1461026d575f80fd5b8063a37d941114610180578063a6f19c84146101a8578063aef28235146101bb578063d1f57894146101ce575f80fd5b80636c9fa59e116100ce5780636c9fa59e1461012f578063715018a61461015f57806379ba5097146101675780638da5cb5b1461016f575f80fd5b8063237e6d64146100f457806335cb1099146101095780633a0451451461011c575b5f80fd5b610107610102366004610d0e565b610280565b005b610107610117366004610d8a565b610481565b61010761012a366004610de2565b61049a565b600454610142906001600160a01b031681565b6040516001600160a01b0390911681526020015b60405180910390f35b610107610641565b610107610654565b6001546001600160a01b0316610142565b61014261018e366004610de2565b60066020525f90815260409020546001600160a01b031681565b600354610142906001600160a01b031681565b6101076101c9366004610d8a565b61069d565b6101076101dc366004610e04565b61082d565b600554610142906001600160a01b031681565b6002546001600160a01b0316610142565b610251610213366004610de2565b6001600160a01b03165f908152602081815260409182902082518084019093525462ffffff8082168085526301000000909204169290910182905291565b6040805162ffffff938416815292909116602083015201610156565b61010761027b366004610de2565b6109b6565b610288610a27565b6001600160a01b0382166102af5760405163d1af83ef60e01b815260040160405180910390fd5b806001600160a01b0316826001600160a01b0316632ad87c6f6040518163ffffffff1660e01b8152600401602060405180830381865afa1580156102f5573d5f803e3d5ffd5b505050506040513d601f19601f820116820180604052508101906103199190610e55565b6001600160a01b0316146103405760405163060a0aaf60e41b815260040160405180910390fd5b6001600160a01b038082165f908152600660205260409020541680156103795760405163d0c7225560e01b815260040160405180910390fd5b5f826001600160a01b031663eb3beb296040518163ffffffff1660e01b8152600401602060405180830381865afa1580156103b6573d5f803e3d5ffd5b505050506040513d601f19601f820116820180604052508101906103da9190610e55565b90505f6103e78285610a54565b90505f6103f383610b5f565b9050614000821761040382821790565b9150610410845f84610b85565b6001600160a01b038681165f8181526006602090815260409182902080546001600160a01b0319168c86161790556003548251941684528301919091527f213d54ca7d6adb897962b4f78f6c2424aa527ee584f57a6000f961c507e0ec27910160405180910390a150505050505050565b604051632a188cb160e21b815260040160405180910390fd5b6104a2610a27565b6001600160a01b038082165f9081526006602052604090205416806104da57604051632e77844760e21b815260040160405180910390fd5b806001600160a01b0316639c868ac06040518163ffffffff1660e01b8152600401602060405180830381865afa158015610516573d5f803e3d5ffd5b505050506040513d601f19601f8201168201806040525081019061053a9190610e70565b61055757604051630d0ab16560e01b815260040160405180910390fd5b5f826001600160a01b031663eb3beb296040518163ffffffff1660e01b8152600401602060405180830381865afa158015610594573d5f803e3d5ffd5b505050506040513d601f19601f820116820180604052508101906105b89190610e55565b90505f6105c58285610a54565b90505f6105d183610b5f565b82191690506105e1835f83610b85565b6001600160a01b0385165f8181526006602090815260409182902080546001600160a01b031916905590519182527f94ac12f5301759f065db9de7f23677e50bef009f062b028d4d4612f620f0f5fb910160405180910390a15050505050565b610649610a27565b6106525f610c67565b565b60025433906001600160a01b031681146106915760405163118cdaa760e01b81526001600160a01b03821660048201526024015b60405180910390fd5b61069a81610c67565b50565b335f908152600660205260409020546001600160a01b0316806106d357604051632e77844760e21b815260040160405180910390fd5b806001600160a01b0316639c868ac06040518163ffffffff1660e01b8152600401602060405180830381865afa15801561070f573d5f803e3d5ffd5b505050506040513d601f19601f820116820180604052508101906107339190610e70565b1561073e5750610827565b6107518461074b87610b5f565b81161490565b61075b5750610827565b5f805f805f61079e88888080601f0160208091040260200160405190810160405280939291908181526020018383808284375f92019190915250610c8092505050565b6040516370f1a76560e11b81526001600160a01b0380881660048301526024820185905280871660448301526064820184905260848201839052969b5094995091975095509350509087169063e1e34eca9060a4015f604051808303815f87803b15801561080a575f80fd5b505af115801561081c573d5f803e3d5ffd5b505050505050505050505b50505050565b7ff0c57e16840df040f15088dc2f81fe391c3923bec73e23a9662efc9c229c6a008054600160401b810460ff16159067ffffffffffffffff165f811580156108725750825b90505f8267ffffffffffffffff16600114801561088e5750303b155b90508115801561089c575080155b156108ba5760405163f92ee8a960e01b815260040160405180910390fd5b845467ffffffffffffffff1916600117855583156108e457845460ff60401b1916600160401b1785555b5f6108f187890189610de2565b90506001600160a01b03811661091a576040516354a4010f60e01b815260040160405180910390fd5b6001600160a01b038916610941576040516379c39cf960e01b815260040160405180910390fd5b600580546001600160a01b0319166001600160a01b038b1617905561096581610c67565b5083156109ac57845460ff60401b19168555604051600181527fc7f505b2f371ae2175ee4913f4499e1f2633a7b5936321eed1cdaeb6115181d29060200160405180910390a15b5050505050505050565b6109be610a27565b600280546001600160a01b0383166001600160a01b031990911681179091556109ef6001546001600160a01b031690565b6001600160a01b03167f38d16b8cac22d99fc7c124b9cd0de2d3fa1faef420bfe791d8c362d765e2270060405160405180910390a350565b6001546001600160a01b031633146106525760405163118cdaa760e01b8152336004820152602401610688565b600554604051630483b24f60e41b81526001600160a01b0384811660048301525f92839283928392169063483b24f090602401606060405180830381865afa158015610aa2573d5f803e3d5ffd5b505050506040513d601f19601f82011682018060405250810190610ac69190610e8f565b925092509250816001600160a01b0316856001600160a01b031603610af2576180009350505050610b59565b826001600160a01b0316856001600160a01b031603610b1957620100009350505050610b59565b806001600160a01b0316856001600160a01b031603610b4057620200009350505050610b59565b60405163d938fa3760e01b815260040160405180910390fd5b92915050565b6001600160a01b03165f908152602081905260409020546301000000900462ffffff1690565b60408051808201825262ffffff84811680835284821660208085018281526001600160a01b038a165f818152808452889020965187549251871663010000000265ffffffffffff1990931696169590951717909455845192835292820152918201527f1c26a8451bc890d476a0e7bb8310f00750604879bb30d4813a7718a1ee089fa69060600160405180910390a1826001600160a01b031663cad1aacf6040518163ffffffff1660e01b81526004015f604051808303815f87803b158015610c4c575f80fd5b505af1158015610c5e573d5f803e3d5ffd5b50505050505050565b600280546001600160a01b031916905561069a81610ca9565b6014810151602882015160488301516068840151608885015160a8909501519395929491939092565b600180546001600160a01b038381166001600160a01b0319831681179093556040519116919082907f8be0079c531659141344cd1fd0a4f28419497f9722a3daafe3b4186f6b6457e0905f90a35050565b6001600160a01b038116811461069a575f80fd5b5f8060408385031215610d1f575f80fd5b8235610d2a81610cfa565b91506020830135610d3a81610cfa565b809150509250929050565b5f8083601f840112610d55575f80fd5b50813567ffffffffffffffff811115610d6c575f80fd5b602083019150836020828501011115610d83575f80fd5b9250929050565b5f805f8060608587031215610d9d575f80fd5b8435610da881610cfa565b935060208501359250604085013567ffffffffffffffff811115610dca575f80fd5b610dd687828801610d45565b95989497509550505050565b5f60208284031215610df2575f80fd5b8135610dfd81610cfa565b9392505050565b5f805f60408486031215610e16575f80fd5b8335610e2181610cfa565b9250602084013567ffffffffffffffff811115610e3c575f80fd5b610e4886828701610d45565b9497909650939450505050565b5f60208284031215610e65575f80fd5b8151610dfd81610cfa565b5f60208284031215610e80575f80fd5b81518015158114610dfd575f80fd5b5f805f60608486031215610ea1575f80fd5b8351610eac81610cfa565b6020850151909350610ebd81610cfa565b6040850151909250610ece81610cfa565b80915050925092509256fea2646970667358221220442cd2f323388e97cf516ccc8f7eaa43f915e41d47e81eff2546fcf649f6af3264736f6c63430008180033",
  "language": "Solidity",
  "compiler": "0.8.24+commit.e11b9ed9"
}