{
  "address": "0xC66D2a90c37c873872281a05445EC0e9e82c76a9",
  "abi": [
    {
      "inputs": [],
      "stateMutability": "nonpayable",
      "type": "constructor"
    },
    {
      "inputs": [],
      "name": "AlreadyConfigured",
      "type": "error"
    },
    {
      "inputs": [],
      "name": "CantUpdateActiveGauge",
      "type": "error"
    },
    {
      "inputs": [],
      "name": "InvalidShareToken",
      "type": "error"
    },
    {
      "inputs": [],
      "name": "OwnerIsZeroAddress",
      "type": "error"
    },
    {
      "inputs": [],
      "name": "Unauthorized",
      "type": "error"
    },
    {
      "inputs": [],
      "name": "WrongGaugeShareToken",
      "type": "error"
    },
    {
      "anonymous": false,
      "inputs": [
        {
          "indexed": false,
          "internalType": "address",
          "name": "gauge",
          "type": "address"
        }
      ],
      "name": "GaugeConfigured",
      "type": "event"
    },
    {
      "anonymous": false,
      "inputs": [
        {
          "indexed": false,
          "internalType": "uint8",
          "name": "version",
          "type": "uint8"
        }
      ],
      "name": "Initialized",
      "type": "event"
    },
    {
      "anonymous": false,
      "inputs": [
        {
          "indexed": true,
          "internalType": "address",
          "name": "previousOwner",
          "type": "address"
        },
        {
          "indexed": true,
          "internalType": "address",
          "name": "newOwner",
          "type": "address"
        }
      ],
      "name": "OwnershipTransferStarted",
      "type": "event"
    },
    {
      "anonymous": false,
      "inputs": [
        {
          "indexed": true,
          "internalType": "address",
          "name": "previousOwner",
          "type": "address"
        },
        {
          "indexed": true,
          "internalType": "address",
          "name": "newOwner",
          "type": "address"
        }
      ],
      "name": "OwnershipTransferred",
      "type": "event"
    },
    {
      "inputs": [],
      "name": "acceptOwnership",
      "outputs": [],
      "stateMutability": "nonpayable",
      "type": "function"
    },
    {
      "inputs": [
        {
          "internalType": "address",
          "name": "_sender",
          "type": "address"
        },
        {
          "internalType": "uint256",
          "name": "_senderBalance",
          "type": "uint256"
        },
        {
          "internalType": "address",
          "name": "_recipient",
          "type": "address"
        },
        {
          "internalType": "uint256",
          "name": "_recipientBalance",
          "type": "uint256"
        },
        {
          "internalType": "uint256",
          "name": "_totalSupply",
          "type": "uint256"
        },
        {
          "internalType": "uint256",
          "name": "",
          "type": "uint256"
        }
      ],
      "name": "afterTokenTransfer",
      "outputs": [],
      "stateMutability": "nonpayable",
      "type": "function"
    },
    {
      "inputs": [],
      "name": "gauge",
      "outputs": [
        {
          "internalType": "contract IGaugeLike",
          "name": "",
          "type": "address"
        }
      ],
      "stateMutability": "view",
      "type": "function"
    },
    {
      "inputs": [
        {
          "internalType": "address",
          "name": "_owner",
          "type": "address"
        },
        {
          "internalType": "contract IShareToken",
          "name": "_token",
          "type": "address"
        }
      ],
      "name": "initialize",
      "outputs": [],
      "stateMutability": "nonpayable",
      "type": "function"
    },
    {
      "inputs": [],
      "name": "owner",
      "outputs": [
        {
          "internalType": "address",
          "name": "",
          "type": "address"
        }
      ],
      "stateMutability": "view",
      "type": "function"
    },
    {
      "inputs": [],
      "name": "pendingOwner",
      "outputs": [
        {
          "internalType": "address",
          "name": "",
          "type": "address"
        }
      ],
      "stateMutability": "view",
      "type": "function"
    },
    {
      "inputs": [],
      "name": "renounceOwnership",
      "outputs": [],
      "stateMutability": "nonpayable",
      "type": "function"
    },
    {
      "inputs": [
        {
          "internalType": "contract IGaugeLike",
          "name": "_gauge",
          "type": "address"
        }
      ],
      "name": "setGauge",
      "outputs": [],
      "stateMutability": "nonpayable",
      "type": "function"
    },
    {
      "inputs": [],
      "name": "shareToken",
      "outputs": [
        {
          "internalType": "contract IShareToken",
          "name": "",
          "type": "address"
        }
      ],
      "stateMutability": "view",
      "type": "function"
    },
    {
      "inputs": [
        {
          "internalType": "address",
          "name": "newOwner",
          "type": "address"
        }
      ],
      "name": "transferOwnership",
      "outputs": [],
      "stateMutability": "nonpayable",
      "type": "function"
    }
  ],
  "bytecode": "0x608060405234801561001057600080fd5b5061001961001e565b6100dd565b600054610100900460ff161561008a5760405162461bcd60e51b815260206004820152602760248201527f496e697469616c697a61626c653a20636f6e747261637420697320696e697469604482015266616c697a696e6760c81b606482015260840160405180910390fd5b60005460ff908116146100db576000805460ff191660ff9081179091556040519081527f7f26b83ff96e1f2b6a682f133852f6798a09c465da95921460cefb38474024989060200160405180910390a15b565b610925806100ec6000396000f3fe608060405234801561001057600080fd5b506004361061009e5760003560e01c80638da5cb5b116100665780638da5cb5b1461010a578063a6f19c841461011b578063bbdc013b1461012e578063e30c397814610141578063f2fde38b1461015257600080fd5b8063485cc955146100a357806355a68ed3146100b85780636c9fa59e146100cb578063715018a6146100fa57806379ba509714610102575b600080fd5b6100b66100b13660046107f7565b610165565b005b6100b66100c6366004610830565b610353565b6098546100de906001600160a01b031681565b6040516001600160a01b03909116815260200160405180910390f35b6100b66104f1565b6100b6610505565b6033546001600160a01b03166100de565b6097546100de906001600160a01b031681565b6100b661013c366004610854565b61057f565b6065546001600160a01b03166100de565b6100b6610160366004610830565b6106ac565b600054610100900460ff16158080156101855750600054600160ff909116105b8061019f5750303b15801561019f575060005460ff166001145b6102075760405162461bcd60e51b815260206004820152602e60248201527f496e697469616c697a61626c653a20636f6e747261637420697320616c72656160448201526d191e481a5b9a5d1a585b1a5e995960921b60648201526084015b60405180910390fd5b6000805460ff19166001179055801561022a576000805461ff0019166101001790555b6001600160a01b038316610251576040516354a4010f60e01b815260040160405180910390fd5b306001600160a01b0316826001600160a01b0316638fea80626040518163ffffffff1660e01b8152600401602060405180830381865afa158015610299573d6000803e3d6000fd5b505050506040513d601f19601f820116820180604052508101906102bd91906108b0565b6001600160a01b0316146102e45760405163d938fa3760e01b815260040160405180910390fd5b6102ed8361071d565b609880546001600160a01b0319166001600160a01b038416179055801561034e576000805461ff0019169055604051600181527f7f26b83ff96e1f2b6a682f133852f6798a09c465da95921460cefb38474024989060200160405180910390a15b505050565b61035b610736565b6097546001600160a01b0316158015906103e95750609760009054906101000a90046001600160a01b03166001600160a01b0316639c868ac06040518163ffffffff1660e01b8152600401602060405180830381865afa1580156103c3573d6000803e3d6000fd5b505050506040513d601f19601f820116820180604052508101906103e791906108cd565b155b15610406576040516282649160e71b815260040160405180910390fd5b60985460408051632ad87c6f60e01b815290516001600160a01b0392831692841691632ad87c6f9160048083019260209291908290030181865afa158015610452573d6000803e3d6000fd5b505050506040513d601f19601f8201168201806040525081019061047691906108b0565b6001600160a01b03161461049d5760405163060a0aaf60e41b815260040160405180910390fd5b609780546001600160a01b0319166001600160a01b0383169081179091556040519081527fa1c6eeb718e2772f1b49630a5a44f17c6c7071d697ec2daed6b36b0e73385c7b9060200160405180910390a150565b6104f9610736565b610503600061071d565b565b60655433906001600160a01b031681146105735760405162461bcd60e51b815260206004820152602960248201527f4f776e61626c6532537465703a2063616c6c6572206973206e6f7420746865206044820152683732bb9037bbb732b960b91b60648201526084016101fe565b61057c8161071d565b50565b6097546001600160a01b03168015806105f55750806001600160a01b0316639c868ac06040518163ffffffff1660e01b8152600401602060405180830381865afa1580156105d1573d6000803e3d6000fd5b505050506040513d601f19601f820116820180604052508101906105f591906108cd565b1561060057506106a4565b6098546001600160a01b0316331461062a576040516282b42960e81b815260040160405180910390fd5b6040516370f1a76560e11b81526001600160a01b038881166004830152602482018890528681166044830152606482018690526084820185905282169063e1e34eca9060a401600060405180830381600087803b15801561068a57600080fd5b505af115801561069e573d6000803e3d6000fd5b50505050505b505050505050565b6106b4610736565b606580546001600160a01b0383166001600160a01b031990911681179091556106e56033546001600160a01b031690565b6001600160a01b03167f38d16b8cac22d99fc7c124b9cd0de2d3fa1faef420bfe791d8c362d765e2270060405160405180910390a350565b606580546001600160a01b031916905561057c81610790565b6033546001600160a01b031633146105035760405162461bcd60e51b815260206004820181905260248201527f4f776e61626c653a2063616c6c6572206973206e6f7420746865206f776e657260448201526064016101fe565b603380546001600160a01b038381166001600160a01b0319831681179093556040519116919082907f8be0079c531659141344cd1fd0a4f28419497f9722a3daafe3b4186f6b6457e090600090a35050565b6001600160a01b038116811461057c57600080fd5b6000806040838503121561080a57600080fd5b8235610815816107e2565b91506020830135610825816107e2565b809150509250929050565b60006020828403121561084257600080fd5b813561084d816107e2565b9392505050565b60008060008060008060c0878903121561086d57600080fd5b8635610878816107e2565b955060208701359450604087013561088f816107e2565b959894975094956060810135955060808101359460a0909101359350915050565b6000602082840312156108c257600080fd5b815161084d816107e2565b6000602082840312156108df57600080fd5b8151801515811461084d57600080fdfea264697066735822122042bdd07ee0c306380f5283c12988946ce74a420c6ea6119e46ec6e7579fa6d2a64736f6c63430008150033",
  "language": "Solidity",
  "compiler": "0.8.21+commit.d9974bed"
}