{
  "address": "0x3bc972757798c346bbc87EDE8d31cFfCAC511904",
  "abi": [
    {
      "inputs": [],
      "stateMutability": "nonpayable",
      "type": "constructor"
    },
    {
      "inputs": [],
      "name": "acceptOwnership",
      "outputs": [],
      "stateMutability": "nonpayable",
      "type": "function"
    },
    {
      "inputs": [
        {
          "internalType": "address",
          "name": "_silo",
          "type": "address"
        },
        {
          "internalType": "uint256",
          "name": "_action",
          "type": "uint256"
        },
        {
          "internalType": "bytes",
          "name": "_inputAndOutput",
          "type": "bytes"
        }
      ],
      "name": "afterAction",
      "outputs": [],
      "stateMutability": "nonpayable",
      "type": "function"
    },
    {
      "inputs": [
        {
          "internalType": "address",
          "name": "",
          "type": "address"
        },
        {
          "internalType": "uint256",
          "name": "",
          "type": "uint256"
        },
        {
          "internalType": "bytes",
          "name": "",
          "type": "bytes"
        }
      ],
      "name": "beforeAction",
      "outputs": [],
      "stateMutability": "nonpayable",
      "type": "function"
    },
    {
      "inputs": [
        {
          "internalType": "contract IShareToken",
          "name": "",
          "type": "address"
        }
      ],
      "name": "configuredGauges",
      "outputs": [
        {
          "internalType": "contract IGaugeLike",
          "name": "",
          "type": "address"
        }
      ],
      "stateMutability": "view",
      "type": "function"
    },
    {
      "inputs": [],
      "name": "gauge",
      "outputs": [
        {
          "internalType": "contract IGaugeLike",
          "name": "",
          "type": "address"
        }
      ],
      "stateMutability": "view",
      "type": "function"
    },
    {
      "inputs": [
        {
          "internalType": "address",
          "name": "_silo",
          "type": "address"
        }
      ],
      "name": "hookReceiverConfig",
      "outputs": [
        {
          "internalType": "uint24",
          "name": "hooksBefore",
          "type": "uint24"
        },
        {
          "internalType": "uint24",
          "name": "hooksAfter",
          "type": "uint24"
        }
      ],
      "stateMutability": "view",
      "type": "function"
    },
    {
      "inputs": [
        {
          "internalType": "contract ISiloConfig",
          "name": "_siloConfig",
          "type": "address"
        },
        {
          "internalType": "bytes",
          "name": "_data",
          "type": "bytes"
        }
      ],
      "name": "initialize",
      "outputs": [],
      "stateMutability": "nonpayable",
      "type": "function"
    },
    {
      "inputs": [
        {
          "internalType": "address",
          "name": "_collateralAsset",
          "type": "address"
        },
        {
          "internalType": "address",
          "name": "_debtAsset",
          "type": "address"
        },
        {
          "internalType": "address",
          "name": "_borrower",
          "type": "address"
        },
        {
          "internalType": "uint256",
          "name": "_maxDebtToCover",
          "type": "uint256"
        },
        {
          "internalType": "bool",
          "name": "_receiveSToken",
          "type": "bool"
        }
      ],
      "name": "liquidationCall",
      "outputs": [
        {
          "internalType": "uint256",
          "name": "withdrawCollateral",
          "type": "uint256"
        },
        {
          "internalType": "uint256",
          "name": "repayDebtAssets",
          "type": "uint256"
        }
      ],
      "stateMutability": "nonpayable",
      "type": "function"
    },
    {
      "inputs": [
        {
          "internalType": "address",
          "name": "_borrower",
          "type": "address"
        }
      ],
      "name": "maxLiquidation",
      "outputs": [
        {
          "internalType": "uint256",
          "name": "collateralToLiquidate",
          "type": "uint256"
        },
        {
          "internalType": "uint256",
          "name": "debtToRepay",
          "type": "uint256"
        },
        {
          "internalType": "bool",
          "name": "sTokenRequired",
          "type": "bool"
        }
      ],
      "stateMutability": "view",
      "type": "function"
    },
    {
      "inputs": [],
      "name": "owner",
      "outputs": [
        {
          "internalType": "address",
          "name": "",
          "type": "address"
        }
      ],
      "stateMutability": "view",
      "type": "function"
    },
    {
      "inputs": [],
      "name": "pendingOwner",
      "outputs": [
        {
          "internalType": "address",
          "name": "",
          "type": "address"
        }
      ],
      "stateMutability": "view",
      "type": "function"
    },
    {
      "inputs": [
        {
          "internalType": "contract IShareToken",
          "name": "_shareToken",
          "type": "address"
        }
      ],
      "name": "removeGauge",
      "outputs": [],
      "stateMutability": "nonpayable",
      "type": "function"
    },
    {
      "inputs": [],
      "name": "renounceOwnership",
      "outputs": [],
      "stateMutability": "nonpayable",
      "type": "function"
    },
    {
      "inputs": [
        {
          "internalType": "contract IGaugeLike",
          "name": "_gauge",
          "type": "address"
        },
        {
          "internalType": "contract IShareToken",
          "name": "_shareToken",
          "type": "address"
        }
      ],
      "name": "setGauge",
      "outputs": [],
      "stateMutability": "nonpayable",
      "type": "function"
    },
    {
      "inputs": [],
      "name": "shareToken",
      "outputs": [
        {
          "internalType": "contract IShareToken",
          "name": "",
          "type": "address"
        }
      ],
      "stateMutability": "view",
      "type": "function"
    },
    {
      "inputs": [],
      "name": "siloConfig",
      "outputs": [
        {
          "internalType": "contract ISiloConfig",
          "name": "",
          "type": "address"
        }
      ],
      "stateMutability": "view",
      "type": "function"
    },
    {
      "inputs": [
        {
          "internalType": "address",
          "name": "newOwner",
          "type": "address"
        }
      ],
      "name": "transferOwnership",
      "outputs": [],
      "stateMutability": "nonpayable",
      "type": "function"
    },
    {
      "anonymous": false,
      "inputs": [
        {
          "indexed": false,
          "internalType": "address",
          "name": "gauge",
          "type": "address"
        },
        {
          "indexed": false,
          "internalType": "address",
          "name": "shareToken",
          "type": "address"
        }
      ],
      "name": "GaugeConfigured",
      "type": "event"
    },
    {
      "anonymous": false,
      "inputs": [
        {
          "indexed": false,
          "internalType": "address",
          "name": "shareToken",
          "type": "address"
        }
      ],
      "name": "GaugeRemoved",
      "type": "event"
    },
    {
      "anonymous": false,
      "inputs": [
        {
          "indexed": false,
          "internalType": "address",
          "name": "silo",
          "type": "address"
        },
        {
          "indexed": false,
          "internalType": "uint24",
          "name": "hooksBefore",
          "type": "uint24"
        },
        {
          "indexed": false,
          "internalType": "uint24",
          "name": "hooksAfter",
          "type": "uint24"
        }
      ],
      "name": "HookConfigured",
      "type": "event"
    },
    {
      "anonymous": false,
      "inputs": [
        {
          "indexed": false,
          "internalType": "uint64",
          "name": "version",
          "type": "uint64"
        }
      ],
      "name": "Initialized",
      "type": "event"
    },
    {
      "anonymous": false,
      "inputs": [
        {
          "indexed": true,
          "internalType": "address",
          "name": "liquidator",
          "type": "address"
        },
        {
          "indexed": false,
          "internalType": "bool",
          "name": "receiveSToken",
          "type": "bool"
        }
      ],
      "name": "LiquidationCall",
      "type": "event"
    },
    {
      "anonymous": false,
      "inputs": [
        {
          "indexed": true,
          "internalType": "address",
          "name": "previousOwner",
          "type": "address"
        },
        {
          "indexed": true,
          "internalType": "address",
          "name": "newOwner",
          "type": "address"
        }
      ],
      "name": "OwnershipTransferStarted",
      "type": "event"
    },
    {
      "anonymous": false,
      "inputs": [
        {
          "indexed": true,
          "internalType": "address",
          "name": "previousOwner",
          "type": "address"
        },
        {
          "indexed": true,
          "internalType": "address",
          "name": "newOwner",
          "type": "address"
        }
      ],
      "name": "OwnershipTransferred",
      "type": "event"
    },
    {
      "inputs": [
        {
          "internalType": "address",
          "name": "target",
          "type": "address"
        }
      ],
      "name": "AddressEmptyCode",
      "type": "error"
    },
    {
      "inputs": [],
      "name": "AlreadyConfigured",
      "type": "error"
    },
    {
      "inputs": [],
      "name": "CantRemoveActiveGauge",
      "type": "error"
    },
    {
      "inputs": [],
      "name": "EmptyDebtToCover",
      "type": "error"
    },
    {
      "inputs": [],
      "name": "EmptyGaugeAddress",
      "type": "error"
    },
    {
      "inputs": [],
      "name": "EmptySiloConfig",
      "type": "error"
    },
    {
      "inputs": [],
      "name": "FailedCall",
      "type": "error"
    },
    {
      "inputs": [],
      "name": "FullLiquidationRequired",
      "type": "error"
    },
    {
      "inputs": [],
      "name": "GaugeAlreadyConfigured",
      "type": "error"
    },
    {
      "inputs": [],
      "name": "GaugeIsNotConfigured",
      "type": "error"
    },
    {
      "inputs": [
        {
          "internalType": "uint256",
          "name": "balance",
          "type": "uint256"
        },
        {
          "internalType": "uint256",
          "name": "needed",
          "type": "uint256"
        }
      ],
      "name": "InsufficientBalance",
      "type": "error"
    },
    {
      "inputs": [],
      "name": "InsufficientLiquidation",
      "type": "error"
    },
    {
      "inputs": [],
      "name": "InvalidInitialization",
      "type": "error"
    },
    {
      "inputs": [],
      "name": "InvalidShareToken",
      "type": "error"
    },
    {
      "inputs": [],
      "name": "InvalidSiloForCollateral",
      "type": "error"
    },
    {
      "inputs": [],
      "name": "LiquidationTooBig",
      "type": "error"
    },
    {
      "inputs": [],
      "name": "LiquidityFeeToHi",
      "type": "error"
    },
    {
      "inputs": [],
      "name": "NoDebtToCover",
      "type": "error"
    },
    {
      "inputs": [],
      "name": "NoRepayAssets",
      "type": "error"
    },
    {
      "inputs": [],
      "name": "NotInitializing",
      "type": "error"
    },
    {
      "inputs": [],
      "name": "OnlyDelegateCall",
      "type": "error"
    },
    {
      "inputs": [
        {
          "internalType": "address",
          "name": "owner",
          "type": "address"
        }
      ],
      "name": "OwnableInvalidOwner",
      "type": "error"
    },
    {
      "inputs": [
        {
          "internalType": "address",
          "name": "account",
          "type": "address"
        }
      ],
      "name": "OwnableUnauthorizedAccount",
      "type": "error"
    },
    {
      "inputs": [],
      "name": "OwnerIsZeroAddress",
      "type": "error"
    },
    {
      "inputs": [],
      "name": "RequestNotSupported",
      "type": "error"
    },
    {
      "inputs": [],
      "name": "RevertRequestFromHook",
      "type": "error"
    },
    {
      "inputs": [
        {
          "internalType": "address",
          "name": "token",
          "type": "address"
        }
      ],
      "name": "SafeERC20FailedOperation",
      "type": "error"
    },
    {
      "inputs": [],
      "name": "UnexpectedCollateralToken",
      "type": "error"
    },
    {
      "inputs": [],
      "name": "UnexpectedDebtToken",
      "type": "error"
    },
    {
      "inputs": [],
      "name": "UnknownRatio",
      "type": "error"
    },
    {
      "inputs": [],
      "name": "UserIsSolvent",
      "type": "error"
    },
    {
      "inputs": [],
      "name": "WrongGaugeShareToken",
      "type": "error"
    }
  ],
  "bytecode": "0x608060405234801561000f575f5ffd5b50338061003557604051631e4fbdf760e01b81525f600482015260240160405180910390fd5b61003e81610055565b50610047610071565b6100505f610055565b610173565b600380546001600160a01b031916905561006e81610122565b50565b7ff0c57e16840df040f15088dc2f81fe391c3923bec73e23a9662efc9c229c6a00805468010000000000000000900460ff16156100c15760405163f92ee8a960e01b815260040160405180910390fd5b80546001600160401b039081161461006e5780546001600160401b0319166001600160401b0390811782556040519081527fc7f505b2f371ae2175ee4913f4499e1f2633a7b5936321eed1cdaeb6115181d29060200160405180910390a150565b600280546001600160a01b038381166001600160a01b0319831681179093556040519116919082907f8be0079c531659141344cd1fd0a4f28419497f9722a3daafe3b4186f6b6457e0905f90a35050565b61350e806101805f395ff3fe608060405234801561000f575f5ffd5b5060043610610105575f3560e01c8063a37d94111161009e578063d1f578941161006e578063d1f578941461023b578063d714fd191461024e578063e30c397814610260578063e4784fa914610271578063f2fde38b146102db575f5ffd5b8063a37d9411146101bd578063a6f19c84146101e5578063aef28235146101f8578063bd02d8481461020b575f5ffd5b80636c9fa59e116100d95780636c9fa59e14610171578063715018a61461019c57806379ba5097146101a45780638da5cb5b146101ac575f5ffd5b8062a718a914610109578063237e6d641461013657806335cb10991461014b5780633a0451451461015e575b5f5ffd5b61011c610117366004612d71565b6102ee565b604080519283526020830191909152015b60405180910390f35b610149610144366004612dd5565b610786565b005b610149610159366004612e4a565b610987565b61014961016c366004612ea2565b6109a0565b600554610184906001600160a01b031681565b6040516001600160a01b03909116815260200161012d565b610149610b47565b610149610b5a565b6002546001600160a01b0316610184565b6101846101cb366004612ea2565b60066020525f90815260409020546001600160a01b031681565b600454610184906001600160a01b031681565b610149610206366004612e4a565b610ba3565b61021e610219366004612ea2565b610d32565b60408051938452602084019290925215159082015260600161012d565b610149610249366004612ebd565b610d59565b5f54610184906001600160a01b031681565b6003546001600160a01b0316610184565b6102bf61027f366004612ea2565b6001600160a01b03165f9081526001602090815260409182902082518084019093525462ffffff8082168085526301000000909204169290910182905291565b6040805162ffffff93841681529290911660208301520161012d565b6101496102e9366004612ea2565b610ea9565b5f805481906001600160a01b03168061031a576040516379c39cf960e01b815260040160405180910390fd5b845f0361033a576040516317ff0e0960e11b815260040160405180910390fd5b5f5f610348838b8b8b610f1a565b915091505f5f5f5f5f61036387878f8f8b6101800151611137565b909b5091945092509050610376816111c9565b8b8911156103975760405163d65db62d60e01b815260040160405180910390fd5b6040518b1515815233907fe24aa47ff635f1a546a55407c1830a99c50045332faba28455dedecb35b07a7e9060200160405180910390a2876001600160a01b0316639dd413306040518163ffffffff1660e01b81526004015f604051808303815f87803b158015610406575f5ffd5b505af1158015610418573d5f5f3e3d5ffd5b505050606087015161043691506001600160a01b031633308c61120e565b61045c86604001518a88606001516001600160a01b03166112759092919063ffffffff16565b876001600160a01b03166362402b046040518163ffffffff1660e01b81526004015f604051808303815f87803b158015610494575f5ffd5b505af11580156104a6573d5f5f3e3d5ffd5b5050505085604001516001600160a01b031663acb708158a8f6040518363ffffffff1660e01b81526004016104ee9291909182526001600160a01b0316602082015260400190565b6020604051808303815f875af115801561050a573d5f5f3e3d5ffd5b505050506040513d601f19601f8201168201806040525081019061052e9190612f0e565b505f8b61053b573061053d565b335b905061055688604001518f83878c60a0015160016112fc565b955061056e88604001518f83868c608001515f6112fc565b94508b156106725785156105f15787604001516001600160a01b031663a7d6e44b8760016040518363ffffffff1660e01b81526004016105af929190612f49565b602060405180830381865afa1580156105ca573d5f5f3e3d5ffd5b505050506040513d601f19601f820116820180604052508101906105ee9190612f0e565b9a505b841561066d5787604001516001600160a01b031663a7d6e44b865f6040518363ffffffff1660e01b8152600401610629929190612f49565b602060405180830381865afa158015610644573d5f5f3e3d5ffd5b505050506040513d601f19601f820116820180604052508101906106689190612f0e565b8b019a505b610773565b85156106f25787604001516001600160a01b031663da53766087333060016040518563ffffffff1660e01b81526004016106af9493929190612f66565b6020604051808303815f875af11580156106cb573d5f5f3e3d5ffd5b505050506040513d601f19601f820116820180604052508101906106ef9190612f0e565b9a505b84156107735787604001516001600160a01b031663da5376608633305f6040518563ffffffff1660e01b815260040161072e9493929190612f66565b6020604051808303815f875af115801561074a573d5f5f3e3d5ffd5b505050506040513d601f19601f8201168201806040525081019061076e9190612f0e565b8b019a505b5050505050505050509550959350505050565b61078e6114dd565b6001600160a01b0382166107b55760405163d1af83ef60e01b815260040160405180910390fd5b806001600160a01b0316826001600160a01b0316632ad87c6f6040518163ffffffff1660e01b8152600401602060405180830381865afa1580156107fb573d5f5f3e3d5ffd5b505050506040513d601f19601f8201168201806040525081019061081f9190612fac565b6001600160a01b0316146108465760405163060a0aaf60e41b815260040160405180910390fd5b6001600160a01b038082165f9081526006602052604090205416801561087f5760405163d0c7225560e01b815260040160405180910390fd5b5f826001600160a01b031663eb3beb296040518163ffffffff1660e01b8152600401602060405180830381865afa1580156108bc573d5f5f3e3d5ffd5b505050506040513d601f19601f820116820180604052508101906108e09190612fac565b90505f6108ed828561150a565b90505f6108f983611613565b9050610400821761090982821790565b9150610916845f84611639565b6001600160a01b038681165f8181526006602090815260409182902080546001600160a01b0319168c86161790556004548251941684528301919091527f213d54ca7d6adb897962b4f78f6c2424aa527ee584f57a6000f961c507e0ec27910160405180910390a150505050505050565b604051632a188cb160e21b815260040160405180910390fd5b6109a86114dd565b6001600160a01b038082165f9081526006602052604090205416806109e057604051632e77844760e21b815260040160405180910390fd5b806001600160a01b0316639c868ac06040518163ffffffff1660e01b8152600401602060405180830381865afa158015610a1c573d5f5f3e3d5ffd5b505050506040513d601f19601f82011682018060405250810190610a409190612fd2565b610a5d57604051630d0ab16560e01b815260040160405180910390fd5b5f826001600160a01b031663eb3beb296040518163ffffffff1660e01b8152600401602060405180830381865afa158015610a9a573d5f5f3e3d5ffd5b505050506040513d601f19601f82011682018060405250810190610abe9190612fac565b90505f610acb828561150a565b90505f610ad783611613565b8219169050610ae7835f83611639565b6001600160a01b0385165f8181526006602090815260409182902080546001600160a01b031916905590519182527f94ac12f5301759f065db9de7f23677e50bef009f062b028d4d4612f620f0f5fb910160405180910390a15050505050565b610b4f6114dd565b610b585f61171c565b565b60035433906001600160a01b03168114610b975760405163118cdaa760e01b81526001600160a01b03821660048201526024015b60405180910390fd5b610ba08161171c565b50565b335f908152600660205260409020546001600160a01b031680610bd957604051632e77844760e21b815260040160405180910390fd5b806001600160a01b0316639c868ac06040518163ffffffff1660e01b8152600401602060405180830381865afa158015610c15573d5f5f3e3d5ffd5b505050506040513d601f19601f82011682018060405250810190610c399190612fd2565b15610c445750610d2c565b610c5784610c5187611613565b81161490565b610c615750610d2c565b5f610ca084848080601f0160208091040260200160405190810160405280939291908181526020018383808284375f9201919091525061173592505050565b805160608201516020830151608084015160a08501516040516370f1a76560e11b81526001600160a01b039586166004820152602481019490945291841660448401526064830152608482015291925083169063e1e34eca9060a4015f604051808303815f87803b158015610d13575f5ffd5b505af1158015610d25573d5f5f3e3d5ffd5b5050505050505b50505050565b5f805481908190610d4c906001600160a01b0316856117d9565b9250925092509193909250565b7ff0c57e16840df040f15088dc2f81fe391c3923bec73e23a9662efc9c229c6a008054600160401b810460ff16159067ffffffffffffffff165f81158015610d9e5750825b90505f8267ffffffffffffffff166001148015610dba5750303b155b905081158015610dc8575080155b15610de65760405163f92ee8a960e01b815260040160405180910390fd5b845467ffffffffffffffff191660011785558315610e1057845460ff60401b1916600160401b1785555b5f610e1d87890189612ea2565b90506001600160a01b038116610e46576040516354a4010f60e01b815260040160405180910390fd5b610e4f896119c0565b610e588161171c565b508315610e9f57845460ff60401b19168555604051600181527fc7f505b2f371ae2175ee4913f4499e1f2633a7b5936321eed1cdaeb6115181d29060200160405180910390a15b5050505050505050565b610eb16114dd565b600380546001600160a01b0383166001600160a01b03199091168117909155610ee26002546001600160a01b031690565b6001600160a01b03167f38d16b8cac22d99fc7c124b9cd0de2d3fa1faef420bfe791d8c362d765e2270060405160405180910390a350565b610f22612ccd565b610f2a612ccd565b6040516394c0527d60e01b81526001600160a01b0384811660048301528716906394c0527d9060240161040060405180830381865afa158015610f6f573d5f5f3e3d5ffd5b505050506040513d601f19601f82011682018060405250810190610f939190613169565b604081015191935091506001600160a01b0316610fc357604051632f13551560e11b815260040160405180910390fd5b81606001516001600160a01b0316856001600160a01b031614610ff95760405163055692d760e21b815260040160405180910390fd5b80606001516001600160a01b0316846001600160a01b03161461102f5760405163129e080d60e21b815260040160405180910390fd5b80604001516001600160a01b031663a6afed956040518163ffffffff1660e01b81526004016020604051808303815f875af1158015611070573d5f5f3e3d5ffd5b505050506040513d601f19601f820116820180604052508101906110949190612f0e565b5080604001516001600160a01b031682604001516001600160a01b03161461112e5781604001516001600160a01b031663a6afed956040518163ffffffff1660e01b81526004016020604051808303815f875af11580156110f7573d5f5f3e3d5ffd5b505050506040513d601f19601f8201168201806040525081019061111b9190612f0e565b5061112582611a31565b61112e81611a31565b94509492505050565b5f5f5f5f5f61114a8a8a8a5f5f5f611ab7565b90505f61119c826040518060a001604052808e610160015181526020018e606001516001600160a01b031681526020018d606001516001600160a01b031681526020018b81526020018a815250611d34565b604085015191965094509091506111b4908290611e45565b909c909b509399509197509195505050505050565b6001600160e01b031981165f036111dd5750565b6040805160048152602481019091526020810180516001600160e01b03166001600160e01b03198416178152815190fd5b6040516001600160a01b038481166024830152838116604483015260648201839052610d2c9186918216906323b872dd906084015b604051602081830303815290604052915060e01b6020820180516001600160e01b038381831617835250505050611e78565b604051636eb1769f60e11b81523060048201526001600160a01b0383811660248301525f919085169063dd62ed3e90604401602060405180830381865afa1580156112c2573d5f5f3e3d5ffd5b505050506040513d601f19601f820116820180604052508101906112e69190612f0e565b9050610d2c84846112f785856131b2565b611ede565b5f835f0361130b57505f6114d3565b6113e184886001600160a01b031663b6d821c7856040518263ffffffff1660e01b815260040161133b91906131c5565b602060405180830381865afa158015611356573d5f5f3e3d5ffd5b505050506040513d601f19601f8201168201806040525081019061137a9190612f0e565b856001600160a01b03166318160ddd6040518163ffffffff1660e01b8152600401602060405180830381865afa1580156113b6573d5f5f3e3d5ffd5b505050506040513d601f19601f820116820180604052508101906113da9190612f0e565b5f86611f6d565b9050805f036113f157505f6114d3565b604080516001600160a01b0388811660248301528781166044830152606480830185905283518084039091018152608490920183526020820180516001600160e01b0316633661585b60e21b1790529151634624c6a760e01b81525f928392908b1691634624c6a79161146d918991869182919060040161320d565b5f604051808303815f875af1158015611488573d5f5f3e3d5ffd5b505050506040513d5f823e601f3d908101601f191682016040526114af9190810190613244565b91509150816114d0576114d08160405180602001604052805f815250611faa565b50505b9695505050505050565b6002546001600160a01b03163314610b585760405163118cdaa760e01b8152336004820152602401610b8e565b5f8054604051630483b24f60e41b81526001600160a01b0385811660048301528392839283929091169063483b24f090602401606060405180830381865afa158015611558573d5f5f3e3d5ffd5b505050506040513d601f19601f8201168201806040525081019061157c91906132ec565b925092509250816001600160a01b0316856001600160a01b0316036115a857610800935050505061160d565b826001600160a01b0316856001600160a01b0316036115ce57611000935050505061160d565b806001600160a01b0316856001600160a01b0316036115f457612000935050505061160d565b60405163d938fa3760e01b815260040160405180910390fd5b92915050565b6001600160a01b03165f908152600160205260409020546301000000900462ffffff1690565b60408051808201825262ffffff84811680835284821660208085018281526001600160a01b038a165f81815260018452889020965187549251871663010000000265ffffffffffff1990931696169590951717909455845192835292820152918201527f1c26a8451bc890d476a0e7bb8310f00750604879bb30d4813a7718a1ee089fa69060600160405180910390a1826001600160a01b031663cad1aacf6040518163ffffffff1660e01b81526004015f604051808303815f87803b158015611701575f5ffd5b505af1158015611713573d5f5f3e3d5ffd5b50505050505050565b600380546001600160a01b0319169055610ba081611fd3565b61177a6040518060c001604052805f6001600160a01b031681526020015f6001600160a01b031681526020015f81526020015f81526020015f81526020015f81525090565b506014810151602882015160488301516068840151608885015160a8909501516040805160c0810182526001600160a01b039687168152959094166020860152928401919091526060830152608082019290925260a081019190915290565b6040516394c0527d60e01b81526001600160a01b0382811660048301525f918291829182918291908816906394c0527d9060240161040060405180830381865afa158015611829573d5f5f3e3d5ffd5b505050506040513d601f19601f8201168201806040525081019061184d9190613169565b604081015191935091506001600160a01b0316611874575f5f5f94509450945050506119b9565b5f6118848383895f60015f611ab7565b905080608001515f036118a2575f5f5f9550955095505050506119b9565b5f5f6118b78386606001518660600151612024565b915091505f836060015184604001516118d091906131b2565b9050825f036118f1578084608001515f9850985098505050505050506119b9565b5f6118fc838561217a565b9050866101600151811161191f575f5f5f995099509950505050505050506119b9565b61193b82858760800151868b61016001518c6101800151612197565b809a50819b5050505f60028b01905087604001516001600160a01b0316630910a5106040518163ffffffff1660e01b8152600401602060405180830381865afa15801561198a573d5f5f3e3d5ffd5b505050506040513d601f19601f820116820180604052508101906119ae9190612f0e565b109750505050505050505b9250925092565b6001600160a01b0381166119e7576040516379c39cf960e01b815260040160405180910390fd5b5f546001600160a01b031615611a10576040516308db0db560e11b815260040160405180910390fd5b5f80546001600160a01b0319166001600160a01b0392909216919091179055565b806101e001518015611a4f575060e08101516001600160a01b031615155b15610ba05760e08101516060820151604051637cfd30cd60e11b81526001600160a01b03918216600482015291169063f9fa619a906024015f604051808303815f87803b158015611a9e575f5ffd5b505af1158015611ab0573d5f5f3e3d5ffd5b5050505050565b611af66040518060a001604052805f6001600160a01b031681526020015f6001600160a01b031681526020015f81526020015f81526020015f81525090565b85606001516001600160a01b031687606001516001600160a01b031614611b60576001846001811115611b2b57611b2b612f25565b14611b3f578660e001518660e00151611b4c565b8661010001518661010001515b6001600160a01b0390811660208401521681525b5f5f611b718960800151885f6121f2565b80935081925050505f5f8a604001516001600160a01b031663ffbaaf7a6040518163ffffffff1660e01b81526004016040805180830381865afa158015611bba573d5f5f3e3d5ffd5b505050506040513d601f19601f82011682018060405250810190611bde9190613336565b91509150611bef8382865f5f6122da565b604086015260a08b0151611c04908a5f6121f2565b945092506001876001811115611c1c57611c1c612f25565b14611c275781611c43565b611c438b604001518c61012001518d5f01518e60200151612309565b9150611c538383865f60016122da565b606086015260c08a0151611c68908a886121f2565b945092505f6001886001811115611c8157611c81612f25565b14611cfb578a604001516001600160a01b031663b6d821c760026040518263ffffffff1660e01b8152600401611cb791906131c5565b602060405180830381865afa158015611cd2573d5f5f3e3d5ffd5b505050506040513d601f19601f82011682018060405250810190611cf69190612f0e565b611d0e565b611d0e8b604001518c61012001516123ff565b9050611d1f848287600160026122da565b608087015250939a9950505050505050505050565b5f5f5f5f85604001518660600151611d4c91906131b2565b905085608001515f1480611d6257506060850151155b15611d7d57505f92508291506317ff0e0960e11b90506119b9565b805f03611db4575f8660800151866060015111611d9e578560600151611da4565b86608001515b5f60e01b935093509350506119b9565b5f5f5f611dca8989602001518a604001516124f1565b92509250925080885f015110611df457505f9550859450632f13551560e11b93506119b992505050565b5f611e078286868d60800151878e612547565b91995097509050871580611e19575086155b15611e3957505f965086955063676a56f360e11b94506119b99350505050565b50505050509250925092565b5f5f835f03611e5857505f905080611e71565b828411611e66575f84611e6b565b828403835b90925090505b9250929050565b5f611e8c6001600160a01b03841683612628565b905080515f14158015611eb0575080806020019051810190611eae9190612fd2565b155b15611ed957604051635274afe760e01b81526001600160a01b0384166004820152602401610b8e565b505050565b604080516001600160a01b038416602482015260448082018490528251808303909101815260649091019091526020810180516001600160e01b031663095ea7b360e01b179052611f2f8482612635565b610d2c576040516001600160a01b0384811660248301525f6044830152611f6391869182169063095ea7b390606401611243565b610d2c8482611e78565b5f5f5f611f7b8787866126d2565b91509150815f03611f90578792505050611fa1565b611f9c8883838861272d565b925050505b95945050505050565b815115611fb957815182602001fd5b8060405162461bcd60e51b8152600401610b8e9190613358565b600280546001600160a01b038381166001600160a01b0319831681179093556040519116919082907f8be0079c531659141344cd1fd0a4f28419497f9722a3daafe3b4186f6b6457e0905f90a35050565b5f5f5f8560600151866040015161203b91906131b2565b905080156120cd5785516001600160a01b031661205857806120ca565b85516040516313b0be3360e01b8152600481018390526001600160a01b038781166024830152909116906313b0be3390604401602060405180830381865afa1580156120a6573d5f5f3e3d5ffd5b505050506040513d601f19601f820116820180604052508101906120ca9190612f0e565b92505b6080860151156121715760208601516001600160a01b03166120f357856080015161216e565b602086015160808701516040516313b0be3360e01b815260048101919091526001600160a01b038681166024830152909116906313b0be3390604401602060405180830381865afa15801561214a573d5f5f3e3d5ffd5b505050506040513d601f19601f8201168201806040525081019061216e9190612f0e565b91505b50935093915050565b5f61219083670de0b6b3a764000084600161272d565b9392505050565b5f5f5f5f6121af89886121a98961277a565b88612798565b915091506121be828b8b6127be565b935060028411156121d4576002840393506121d8565b5f93505b6121e38189896127be565b92505050965096945050505050565b5f5f825f0361226c5760405163dce5c2db60e01b81526001600160a01b03858116600483015286169063dce5c2db906024016040805180830381865afa15801561223e573d5f5f3e3d5ffd5b505050506040513d601f19601f820116820180604052508101906122629190613336565b90925090506122d2565b829150846001600160a01b03166318160ddd6040518163ffffffff1660e01b8152600401602060405180830381865afa1580156122ab573d5f5f3e3d5ffd5b505050506040513d601f19601f820116820180604052508101906122cf9190612f0e565b90505b935093915050565b5f5f5f6122e88787866126d2565b91509150815f036122fd578792505050611fa1565b611f9c8882848861272d565b6040516367efe7fd60e11b81526001600160a01b0385811660048301524260248301525f91829186169063cfdfcffa90604401602060405180830381865afa158015612357573d5f5f3e3d5ffd5b505050506040513d601f19601f8201168201806040525081019061237b9190612f0e565b90505f5f876001600160a01b03166339c5c5056040518163ffffffff1660e01b81526004016040805180830381865afa1580156123ba573d5f5f3e3d5ffd5b505050506040513d601f19601f820116820180604052508101906123de9190613336565b915091506123ef82828589896127f4565b50919a9950505050505050505050565b6040516367efe7fd60e11b81526001600160a01b0383811660048301524260248301525f91829184169063cfdfcffa90604401602060405180830381865afa15801561244d573d5f5f3e3d5ffd5b505050506040513d601f19601f820116820180604052508101906124719190612f0e565b90506124e8846001600160a01b031663b6d821c760026040518263ffffffff1660e01b81526004016124a391906131c5565b602060405180830381865afa1580156124be573d5f5f3e3d5ffd5b505050506040513d601f19601f820116820180604052508101906124e29190612f0e565b8261285a565b50949350505050565b5f5f5f6124ff868686612024565b909350915082158015612510575081155b1561252257505f91508190508061253e565b825f0361253157505f1961253e565b61253b828461217a565b90505b93509350939050565b5f5f5f5f5f670de0b6b3a76400008b106125865787866060015111612570578560600151612572565b875b935061257f84888a6127be565b90506125ee565b5f6125a2888b6125988a5f015161277a565b8a608001516128a2565b90508781036125b6578894508791506125ec565b5f6125c2828b8b6127be565b9050808860600151116125d95787606001516125db565b805b95506125e8868a8c6127be565b9250505b505b6125fd818a88608001516129ab565b915061260a828b8b6127be565b9450612618898884846129ec565b9250505096509650969350505050565b606061219083835f612a16565b5f5f5f846001600160a01b031684604051612650919061336a565b5f604051808303815f865af19150503d805f8114612689576040519150601f19603f3d011682016040523d82523d5f602084013e61268e565b606091505b50915091508180156126b85750805115806126b85750808060200190518101906126b89190612fd2565b8015611fa15750505050506001600160a01b03163b151590565b5f5f835f036126df575f94505b60028360028111156126f3576126f3612f25565b1461271e576127046003600a61345b565b61270e90856131b2565b6127198660016131b2565b612721565b83855b90969095509350505050565b5f61275a61273a83612aac565b801561275557505f848061275057612750613466565b868809115b151590565b612765868686612ad8565b61276f91906131b2565b90505b949350505050565b5f61160d82670c7d713b49da0000670de0b6b3a7640000600161272d565b5f5f6127a6858786866128a2565b90506127b38187856129ab565b915094509492505050565b5f815f036127df5760405163658c7bff60e11b815260040160405180910390fd5b816127ea848661347a565b6127729190613491565b5f5f5f5f612802888861285a565b909350905085850161281d8282670de0b6b3a7640000612b95565b92505f61282a84846134a4565b90505f6128388c5f196134a4565b905081811015612846578091505b818c01965050505095509550955095915050565b5f80831580612867575082155b1561287657508290505f611e71565b6128898484670de0b6b3a7640000612b95565b9050808401915083821015611e71575091925f92509050565b5f845f036128b157505f612772565b670de0b6b3a764000082106128c757505f612772565b8385106128d5575083612772565b825f036128e3575083612772565b5f6128ee858561347a565b9050612902670de0b6b3a76400008761347a565b9550858110612914575f915050612772565b670de0b6b3a7640000808704968290039250838502819004850190811061293f578692505050612772565b80670de0b6b3a764000003838161295857612958613466565b0492508683111561296d578692505050612772565b670c7d713b49da000087612989670de0b6b3a76400008661347a565b6129939190613491565b1161299e57826129a0565b865b979650505050505050565b5f80670de0b6b3a76400006129c0848761347a565b6129ca9190613491565b90506129d681866131b2565b9150838211156129e4578391505b509392505050565b5f82851115806129fc5750818411155b15612a0857505f612772565b61276f838603838603612bdd565b606081471015612a425760405163cf47918160e01b815247600482015260248101839052604401610b8e565b5f5f856001600160a01b03168486604051612a5d919061336a565b5f6040518083038185875af1925050503d805f8114612a97576040519150601f19603f3d011682016040523d82523d5f602084013e612a9c565b606091505b50915091506114d3868383612bfc565b5f6002826003811115612ac157612ac1612f25565b612acb91906134b7565b60ff166001149050919050565b5f838302815f1985870982811083820303915050805f03612b0c57838281612b0257612b02613466565b0492505050612190565b808411612b2a57612b2a8415612b23576011612c58565b6012612c58565b5f848688095f868103871696879004966002600389028118808a02820302808a02820302808a02820302808a02820302808a02820302808a02909103029181900381900460010186841190950394909402919094039290920491909117919091029150509392505050565b5f835f03612ba457505f612190565b5082820282848281612bb857612bb8613466565b0414612bc557505f612190565b818181612bd457612bd4613466565b04949350505050565b5f612bf0670de0b6b3a76400008361347a565b90506121908184612c69565b606082612c1157612c0c82612ca4565b612190565b8151158015612c2857506001600160a01b0384163b155b15612c5157604051639996b31560e01b81526001600160a01b0385166004820152602401610b8e565b5080612190565b634e487b715f52806020526024601cfd5b5f815f03612c7b57612c7b6012612c58565b8215612c9c57816001840381612c9357612c93613466565b04600101612190565b505f92915050565b805115612cb45780518082602001fd5b60405163d6bda27560e01b815260040160405180910390fd5b60408051610200810182525f80825260208201819052918101829052606081018290526080810182905260a0810182905260c0810182905260e08101829052610100810182905261012081018290526101408101829052610160810182905261018081018290526101a081018290526101c081018290526101e081019190915290565b6001600160a01b0381168114610ba0575f5ffd5b8015158114610ba0575f5ffd5b5f5f5f5f5f60a08688031215612d85575f5ffd5b8535612d9081612d50565b94506020860135612da081612d50565b93506040860135612db081612d50565b9250606086013591506080860135612dc781612d64565b809150509295509295909350565b5f5f60408385031215612de6575f5ffd5b8235612df181612d50565b91506020830135612e0181612d50565b809150509250929050565b5f5f83601f840112612e1c575f5ffd5b50813567ffffffffffffffff811115612e33575f5ffd5b602083019150836020828501011115611e71575f5ffd5b5f5f5f5f60608587031215612e5d575f5ffd5b8435612e6881612d50565b935060208501359250604085013567ffffffffffffffff811115612e8a575f5ffd5b612e9687828801612e0c565b95989497509550505050565b5f60208284031215612eb2575f5ffd5b813561219081612d50565b5f5f5f60408486031215612ecf575f5ffd5b8335612eda81612d50565b9250602084013567ffffffffffffffff811115612ef5575f5ffd5b612f0186828701612e0c565b9497909650939450505050565b5f60208284031215612f1e575f5ffd5b5051919050565b634e487b7160e01b5f52602160045260245ffd5b60028110610ba057610ba0612f25565b82815260408101612f5983612f39565b8260208301529392505050565b8481526001600160a01b0384811660208301528316604082015260808101612f8d83612f39565b82606083015295945050505050565b8051612fa781612d50565b919050565b5f60208284031215612fbc575f5ffd5b815161219081612d50565b8051612fa781612d64565b5f60208284031215612fe2575f5ffd5b815161219081612d64565b634e487b7160e01b5f52604160045260245ffd5b604051610200810167ffffffffffffffff8111828210171561302557613025612fed565b60405290565b604051601f8201601f1916810167ffffffffffffffff8111828210171561305457613054612fed565b604052919050565b5f610200828403121561306d575f5ffd5b613075613001565b8251815260208084015190820152905061309160408301612f9c565b60408201526130a260608301612f9c565b60608201526130b360808301612f9c565b60808201526130c460a08301612f9c565b60a08201526130d560c08301612f9c565b60c08201526130e660e08301612f9c565b60e08201526130f86101008301612f9c565b61010082015261310b6101208301612f9c565b6101208201526101408281015190820152610160808301519082015261018080830151908201526101a0808301519082015261314a6101c08301612f9c565b6101c082015261315d6101e08301612fc7565b6101e082015292915050565b5f5f610400838503121561317b575f5ffd5b613185848461305c565b915061319584610200850161305c565b90509250929050565b634e487b7160e01b5f52601160045260245ffd5b8082018082111561160d5761160d61319e565b60208101600383106131d9576131d9612f25565b91905290565b5f81518084528060208401602086015e5f602082860101526020601f19601f83011685010191505092915050565b6001600160a01b03851681526020810184905261322983612f39565b826040820152608060608201525f6114d360808301846131df565b5f5f60408385031215613255575f5ffd5b825161326081612d64565b602084015190925067ffffffffffffffff81111561327c575f5ffd5b8301601f8101851361328c575f5ffd5b805167ffffffffffffffff8111156132a6576132a6612fed565b6132b9601f8201601f191660200161302b565b8181528660208385010111156132cd575f5ffd5b8160208401602083015e5f602083830101528093505050509250929050565b5f5f5f606084860312156132fe575f5ffd5b835161330981612d50565b602085015190935061331a81612d50565b604085015190925061332b81612d50565b809150509250925092565b5f5f60408385031215613347575f5ffd5b505080516020909101519092909150565b602081525f61219060208301846131df565b5f82518060208501845e5f920191825250919050565b6001815b60018411156122d25780850481111561339f5761339f61319e565b60018416156133ad57908102905b60019390931c928002613384565b5f826133c95750600161160d565b816133d557505f61160d565b81600181146133eb57600281146133f557613411565b600191505061160d565b60ff8411156134065761340661319e565b50506001821b61160d565b5060208310610133831016604e8410600b8410161715613434575081810a61160d565b6134405f198484613380565b805f19048211156134535761345361319e565b029392505050565b5f61219083836133bb565b634e487b7160e01b5f52601260045260245ffd5b808202811582820484141761160d5761160d61319e565b5f8261349f5761349f613466565b500490565b8181038181111561160d5761160d61319e565b5f60ff8316806134c9576134c9613466565b8060ff8416069150509291505056fea26469706673582212209e1b447656263017f36a6023c827760e355e8d852cba326a2dd98512b88787c464736f6c634300081c0033",
  "language": "Solidity",
  "compiler": "0.8.28+commit.7893614a"
}