{
  "address": "0x011539E7205afE28aa1003E50815FDB8b4DF648b",
  "abi": [
    {
      "inputs": [
        {
          "components": [
            {
              "internalType": "address",
              "name": "protectedHookReceiver0",
              "type": "address"
            },
            {
              "internalType": "address",
              "name": "collateralHookReceiver0",
              "type": "address"
            },
            {
              "internalType": "address",
              "name": "debtHookReceiver0",
              "type": "address"
            },
            {
              "internalType": "address",
              "name": "protectedHookReceiver1",
              "type": "address"
            },
            {
              "internalType": "address",
              "name": "collateralHookReceiver1",
              "type": "address"
            },
            {
              "internalType": "address",
              "name": "debtHookReceiver1",
              "type": "address"
            }
          ],
          "internalType": "struct IHookReceiversFactory.HookReceivers",
          "name": "_implementation",
          "type": "tuple"
        }
      ],
      "name": "create",
      "outputs": [
        {
          "components": [
            {
              "internalType": "address",
              "name": "protectedHookReceiver0",
              "type": "address"
            },
            {
              "internalType": "address",
              "name": "collateralHookReceiver0",
              "type": "address"
            },
            {
              "internalType": "address",
              "name": "debtHookReceiver0",
              "type": "address"
            },
            {
              "internalType": "address",
              "name": "protectedHookReceiver1",
              "type": "address"
            },
            {
              "internalType": "address",
              "name": "collateralHookReceiver1",
              "type": "address"
            },
            {
              "internalType": "address",
              "name": "debtHookReceiver1",
              "type": "address"
            }
          ],
          "internalType": "struct IHookReceiversFactory.HookReceivers",
          "name": "clones",
          "type": "tuple"
        }
      ],
      "stateMutability": "nonpayable",
      "type": "function"
    }
  ],
  "bytecode": "0x608060405234801561001057600080fd5b50610383806100206000396000f3fe608060405234801561001057600080fd5b506004361061002b5760003560e01c806327c03e7e14610030575b600080fd5b61004361003e3660046102a0565b6100a7565b60405161009e919081516001600160a01b03908116825260208084015182169083015260408084015182169083015260608084015182169083015260808084015182169083015260a092830151169181019190915260c00190565b60405180910390f35b6040805160c081018252600080825260208201819052918101829052606081018290526080810182905260a081019190915281516001600160a01b0316156101005781516100f4906101f0565b6001600160a01b031681525b60208201516001600160a01b03161561012f5761012082602001516101f0565b6001600160a01b031660208201525b60408201516001600160a01b03161561015e5761014f82604001516101f0565b6001600160a01b031660408201525b60608201516001600160a01b03161561018d5761017e82606001516101f0565b6001600160a01b031660608201525b60808201516001600160a01b0316156101bc576101ad82608001516101f0565b6001600160a01b031660808201525b60a08201516001600160a01b0316156101eb576101dc8260a001516101f0565b6001600160a01b031660a08201525b919050565b6000763d602d80600a3d3981f3363d3d373d3d3d363d730000008260601b60e81c176000526e5af43d82803e903d91602b57fd5bf38260781b17602052603760096000f090506001600160a01b0381166101eb5760405162461bcd60e51b8152602060048201526016602482015275115490cc4c4d8dce8818dc99585d194819985a5b195960521b604482015260640160405180910390fd5b80356001600160a01b03811681146101eb57600080fd5b600060c082840312156102b257600080fd5b60405160c0810181811067ffffffffffffffff821117156102e357634e487b7160e01b600052604160045260246000fd5b6040526102ef83610289565b81526102fd60208401610289565b602082015261030e60408401610289565b604082015261031f60608401610289565b606082015261033060808401610289565b608082015261034160a08401610289565b60a0820152939250505056fea264697066735822122065054edd6462f949a2d317579543b8a78536c093bfd72101162ed68c483d747864736f6c63430008150033",
  "language": "Solidity",
  "compiler": "0.8.21+commit.d9974bed"
}