{
  "address": "0xBB6AF6B02bdC87Ef6fFEa234C374005A181EbD0B",
  "abi": [
    {
      "inputs": [],
      "name": "ASSET_DATA_OVERFLOW_LIMIT",
      "outputs": [
        {
          "internalType": "uint256",
          "name": "",
          "type": "uint256"
        }
      ],
      "stateMutability": "view",
      "type": "function"
    },
    {
      "inputs": [],
      "name": "RCOMP_MAX",
      "outputs": [
        {
          "internalType": "uint256",
          "name": "",
          "type": "uint256"
        }
      ],
      "stateMutability": "view",
      "type": "function"
    },
    {
      "inputs": [],
      "name": "X_MAX",
      "outputs": [
        {
          "internalType": "int256",
          "name": "",
          "type": "int256"
        }
      ],
      "stateMutability": "view",
      "type": "function"
    },
    {
      "inputs": [
        {
          "components": [
            {
              "internalType": "int256",
              "name": "uopt",
              "type": "int256"
            },
            {
              "internalType": "int256",
              "name": "ucrit",
              "type": "int256"
            },
            {
              "internalType": "int256",
              "name": "ulow",
              "type": "int256"
            },
            {
              "internalType": "int256",
              "name": "ki",
              "type": "int256"
            },
            {
              "internalType": "int256",
              "name": "kcrit",
              "type": "int256"
            },
            {
              "internalType": "int256",
              "name": "klow",
              "type": "int256"
            },
            {
              "internalType": "int256",
              "name": "klin",
              "type": "int256"
            },
            {
              "internalType": "int256",
              "name": "beta",
              "type": "int256"
            },
            {
              "internalType": "int256",
              "name": "ri",
              "type": "int256"
            },
            {
              "internalType": "int256",
              "name": "Tcrit",
              "type": "int256"
            }
          ],
          "internalType": "struct IInterestRateModelV2.ConfigWithState",
          "name": "_c",
          "type": "tuple"
        },
        {
          "internalType": "uint256",
          "name": "_totalDeposits",
          "type": "uint256"
        },
        {
          "internalType": "uint256",
          "name": "_totalBorrowAmount",
          "type": "uint256"
        },
        {
          "internalType": "uint256",
          "name": "_interestRateTimestamp",
          "type": "uint256"
        },
        {
          "internalType": "uint256",
          "name": "_blockTimestamp",
          "type": "uint256"
        }
      ],
      "name": "calculateCompoundInterestRate",
      "outputs": [
        {
          "internalType": "uint256",
          "name": "rcomp",
          "type": "uint256"
        },
        {
          "internalType": "int256",
          "name": "ri",
          "type": "int256"
        },
        {
          "internalType": "int256",
          "name": "Tcrit",
          "type": "int256"
        }
      ],
      "stateMutability": "pure",
      "type": "function"
    },
    {
      "inputs": [
        {
          "components": [
            {
              "internalType": "int256",
              "name": "uopt",
              "type": "int256"
            },
            {
              "internalType": "int256",
              "name": "ucrit",
              "type": "int256"
            },
            {
              "internalType": "int256",
              "name": "ulow",
              "type": "int256"
            },
            {
              "internalType": "int256",
              "name": "ki",
              "type": "int256"
            },
            {
              "internalType": "int256",
              "name": "kcrit",
              "type": "int256"
            },
            {
              "internalType": "int256",
              "name": "klow",
              "type": "int256"
            },
            {
              "internalType": "int256",
              "name": "klin",
              "type": "int256"
            },
            {
              "internalType": "int256",
              "name": "beta",
              "type": "int256"
            },
            {
              "internalType": "int256",
              "name": "ri",
              "type": "int256"
            },
            {
              "internalType": "int256",
              "name": "Tcrit",
              "type": "int256"
            }
          ],
          "internalType": "struct IInterestRateModelV2.ConfigWithState",
          "name": "_c",
          "type": "tuple"
        },
        {
          "internalType": "uint256",
          "name": "_totalDeposits",
          "type": "uint256"
        },
        {
          "internalType": "uint256",
          "name": "_totalBorrowAmount",
          "type": "uint256"
        },
        {
          "internalType": "uint256",
          "name": "_interestRateTimestamp",
          "type": "uint256"
        },
        {
          "internalType": "uint256",
          "name": "_blockTimestamp",
          "type": "uint256"
        }
      ],
      "name": "calculateCompoundInterestRateWithOverflowDetection",
      "outputs": [
        {
          "internalType": "uint256",
          "name": "rcomp",
          "type": "uint256"
        },
        {
          "internalType": "int256",
          "name": "ri",
          "type": "int256"
        },
        {
          "internalType": "int256",
          "name": "Tcrit",
          "type": "int256"
        },
        {
          "internalType": "bool",
          "name": "overflow",
          "type": "bool"
        }
      ],
      "stateMutability": "pure",
      "type": "function"
    },
    {
      "inputs": [
        {
          "components": [
            {
              "internalType": "int256",
              "name": "uopt",
              "type": "int256"
            },
            {
              "internalType": "int256",
              "name": "ucrit",
              "type": "int256"
            },
            {
              "internalType": "int256",
              "name": "ulow",
              "type": "int256"
            },
            {
              "internalType": "int256",
              "name": "ki",
              "type": "int256"
            },
            {
              "internalType": "int256",
              "name": "kcrit",
              "type": "int256"
            },
            {
              "internalType": "int256",
              "name": "klow",
              "type": "int256"
            },
            {
              "internalType": "int256",
              "name": "klin",
              "type": "int256"
            },
            {
              "internalType": "int256",
              "name": "beta",
              "type": "int256"
            },
            {
              "internalType": "int256",
              "name": "ri",
              "type": "int256"
            },
            {
              "internalType": "int256",
              "name": "Tcrit",
              "type": "int256"
            }
          ],
          "internalType": "struct IInterestRateModelV2.ConfigWithState",
          "name": "_c",
          "type": "tuple"
        },
        {
          "internalType": "uint256",
          "name": "_totalDeposits",
          "type": "uint256"
        },
        {
          "internalType": "uint256",
          "name": "_totalBorrowAmount",
          "type": "uint256"
        },
        {
          "internalType": "uint256",
          "name": "_interestRateTimestamp",
          "type": "uint256"
        },
        {
          "internalType": "uint256",
          "name": "_blockTimestamp",
          "type": "uint256"
        }
      ],
      "name": "calculateCurrentInterestRate",
      "outputs": [
        {
          "internalType": "uint256",
          "name": "rcur",
          "type": "uint256"
        }
      ],
      "stateMutability": "pure",
      "type": "function"
    },
    {
      "inputs": [],
      "name": "decimals",
      "outputs": [
        {
          "internalType": "uint256",
          "name": "",
          "type": "uint256"
        }
      ],
      "stateMutability": "view",
      "type": "function"
    },
    {
      "inputs": [
        {
          "internalType": "address",
          "name": "_silo",
          "type": "address"
        },
        {
          "internalType": "uint256",
          "name": "_blockTimestamp",
          "type": "uint256"
        }
      ],
      "name": "getCompoundInterestRate",
      "outputs": [
        {
          "internalType": "uint256",
          "name": "rcomp",
          "type": "uint256"
        }
      ],
      "stateMutability": "view",
      "type": "function"
    },
    {
      "inputs": [
        {
          "internalType": "uint256",
          "name": "_collateralAssets",
          "type": "uint256"
        },
        {
          "internalType": "uint256",
          "name": "_debtAssets",
          "type": "uint256"
        },
        {
          "internalType": "uint256",
          "name": "_interestRateTimestamp",
          "type": "uint256"
        }
      ],
      "name": "getCompoundInterestRateAndUpdate",
      "outputs": [
        {
          "internalType": "uint256",
          "name": "rcomp",
          "type": "uint256"
        }
      ],
      "stateMutability": "nonpayable",
      "type": "function"
    },
    {
      "inputs": [
        {
          "internalType": "address",
          "name": "_silo",
          "type": "address"
        }
      ],
      "name": "getConfig",
      "outputs": [
        {
          "components": [
            {
              "internalType": "int256",
              "name": "uopt",
              "type": "int256"
            },
            {
              "internalType": "int256",
              "name": "ucrit",
              "type": "int256"
            },
            {
              "internalType": "int256",
              "name": "ulow",
              "type": "int256"
            },
            {
              "internalType": "int256",
              "name": "ki",
              "type": "int256"
            },
            {
              "internalType": "int256",
              "name": "kcrit",
              "type": "int256"
            },
            {
              "internalType": "int256",
              "name": "klow",
              "type": "int256"
            },
            {
              "internalType": "int256",
              "name": "klin",
              "type": "int256"
            },
            {
              "internalType": "int256",
              "name": "beta",
              "type": "int256"
            },
            {
              "internalType": "int256",
              "name": "ri",
              "type": "int256"
            },
            {
              "internalType": "int256",
              "name": "Tcrit",
              "type": "int256"
            }
          ],
          "internalType": "struct IInterestRateModelV2.ConfigWithState",
          "name": "fullConfig",
          "type": "tuple"
        }
      ],
      "stateMutability": "view",
      "type": "function"
    },
    {
      "inputs": [
        {
          "internalType": "address",
          "name": "_silo",
          "type": "address"
        },
        {
          "internalType": "uint256",
          "name": "_blockTimestamp",
          "type": "uint256"
        }
      ],
      "name": "getCurrentInterestRate",
      "outputs": [
        {
          "internalType": "uint256",
          "name": "rcur",
          "type": "uint256"
        }
      ],
      "stateMutability": "view",
      "type": "function"
    },
    {
      "inputs": [
        {
          "internalType": "address",
          "name": "silo",
          "type": "address"
        }
      ],
      "name": "getSetup",
      "outputs": [
        {
          "internalType": "int128",
          "name": "ri",
          "type": "int128"
        },
        {
          "internalType": "int128",
          "name": "Tcrit",
          "type": "int128"
        }
      ],
      "stateMutability": "view",
      "type": "function"
    },
    {
      "inputs": [
        {
          "internalType": "address",
          "name": "_irmConfig",
          "type": "address"
        }
      ],
      "name": "initialize",
      "outputs": [],
      "stateMutability": "nonpayable",
      "type": "function"
    },
    {
      "inputs": [],
      "name": "irmConfig",
      "outputs": [
        {
          "internalType": "contract IInterestRateModelV2Config",
          "name": "",
          "type": "address"
        }
      ],
      "stateMutability": "view",
      "type": "function"
    },
    {
      "inputs": [
        {
          "internalType": "address",
          "name": "_silo",
          "type": "address"
        },
        {
          "internalType": "uint256",
          "name": "_blockTimestamp",
          "type": "uint256"
        }
      ],
      "name": "overflowDetected",
      "outputs": [
        {
          "internalType": "bool",
          "name": "overflow",
          "type": "bool"
        }
      ],
      "stateMutability": "view",
      "type": "function"
    },
    {
      "anonymous": false,
      "inputs": [
        {
          "indexed": true,
          "internalType": "address",
          "name": "config",
          "type": "address"
        }
      ],
      "name": "Initialized",
      "type": "event"
    },
    {
      "inputs": [],
      "name": "AddressZero",
      "type": "error"
    },
    {
      "inputs": [],
      "name": "AlreadyInitialized",
      "type": "error"
    },
    {
      "inputs": [],
      "name": "DeployConfigFirst",
      "type": "error"
    },
    {
      "inputs": [],
      "name": "InvalidBeta",
      "type": "error"
    },
    {
      "inputs": [],
      "name": "InvalidKcrit",
      "type": "error"
    },
    {
      "inputs": [],
      "name": "InvalidKi",
      "type": "error"
    },
    {
      "inputs": [],
      "name": "InvalidKlin",
      "type": "error"
    },
    {
      "inputs": [],
      "name": "InvalidKlow",
      "type": "error"
    },
    {
      "inputs": [],
      "name": "InvalidRi",
      "type": "error"
    },
    {
      "inputs": [],
      "name": "InvalidTcrit",
      "type": "error"
    },
    {
      "inputs": [],
      "name": "InvalidTimestamps",
      "type": "error"
    },
    {
      "inputs": [],
      "name": "InvalidUcrit",
      "type": "error"
    },
    {
      "inputs": [],
      "name": "InvalidUlow",
      "type": "error"
    },
    {
      "inputs": [],
      "name": "InvalidUopt",
      "type": "error"
    },
    {
      "inputs": [
        {
          "internalType": "int256",
          "name": "value",
          "type": "int256"
        }
      ],
      "name": "SafeCastOverflowedIntToUint",
      "type": "error"
    },
    {
      "inputs": [
        {
          "internalType": "uint256",
          "name": "value",
          "type": "uint256"
        }
      ],
      "name": "SafeCastOverflowedUintToInt",
      "type": "error"
    }
  ],
  "bytecode": "0x6080604052348015600e575f5ffd5b5061226e8061001c5f395ff3fe608060405234801561000f575f5ffd5b50600436106100f0575f3560e01c806381b51e0c11610093578063c6c721b311610063578063c6c721b314610224578063cfdfcffa1461026c578063e076a5511461027f578063e48a5f7b14610290575f5ffd5b806381b51e0c146101ca57806384de969a146101d9578063b78fec82146101ec578063c4d66de81461020f575f5ffd5b80633ced7d0d116100ce5780633ced7d0d146101445780634fa165e61461015757806364efe177146101825780636e1a414014610195575f5ffd5b8063023279ce146100f4578063109a006e14610127578063313ce5671461013d575b5f5ffd5b610107610102366004611da1565b61031b565b604080519384526020840192909252908201526060015b60405180910390f35b61012f61033d565b60405190815260200161011e565b601261012f565b61012f610152366004611da1565b610355565b60015461016a906001600160a01b031681565b6040516001600160a01b03909116815260200161011e565b61012f610190366004611e69565b6105ce565b6101a86101a3366004611da1565b610662565b604080519485526020850193909352918301521515606082015260800161011e565b61012f6799e8e8e3d530368181565b61012f6101e7366004611e91565b610ad1565b6101ff6101fa366004611e69565b610bbc565b604051901515815260200161011e565b61022261021d366004611eba565b610c53565b005b610252610232366004611eba565b5f60208190529081526040902054600f81810b91600160801b9004900b82565b60408051600f93840b81529190920b60208201520161011e565b61012f61027a366004611e69565b610cec565b61012f690de0b6b3a7640000000081565b6102a361029e366004611eba565b610d83565b60405161011e91905f61014082019050825182526020830151602083015260408301516040830152606083015160608301526080830151608083015260a083015160a083015260c083015160c083015260e083015160e083015261010083015161010083015261012083015161012083015292915050565b5f5f5f61032b8888888888610662565b50919a90995090975095505050505050565b610352690de0b6b3a764000000005f19611efb565b81565b5f818311156103775760405163d22806e360e01b815260040160405180910390fd5b5f6040518060e001604052805f81526020015f81526020015f81526020015f81526020015f81526020015f81526020015f151581525090506103bc8787878787610662565b15801560c086015292506103d6915050575f9150506105c5565b6103e1848403610ed8565b81526103fe6103f9670de0b6b3a76400008888610f0d565b610ed8565b6020808301829052670de0b6b3a7640000604084015288015112156104a2578060400151876020015182602001516104369190611f0e565b6040830151835160e08b015161044c9190611f34565b8a610120015185604001516104619190611f63565b61046b9190611f63565b8a6080015161047a9190611f34565b6104849190611f8a565b61048e9190611f34565b6104989190611f8a565b60608201526104e3565b6104dd5f8260400151896040015184602001516104bf9190611f0e565b8a60a001516104ce9190611f34565b6104d89190611f8a565b610f71565b60608201525b806040015181602001518860c001516104fc9190611f34565b6105069190611f8a565b6080820181905261010088015161051c91610f8a565b60a0820152604081015181518851602084015161057a93929161053e91611f0e565b8a6060015161054d9190611f34565b6105579190611f34565b6105619190611f8a565b8260a001516105709190611f63565b8260800151610f8a565b60a0820181905260608201516105a6916105a19161059791611f63565b8360800151610f8a565b610f98565b91506105b66301e1338083611fb6565b91506105c182610fbd565b9150505b95945050505050565b5f5f836001600160a01b0316639ef2fda06040518163ffffffff1660e01b8152600401606060405180830381865afa15801561060c573d5f5f3e3d5ffd5b505050506040513d601f19601f820116820180604052508101906106309190611fcd565b905061065a61063e85610d83565b82516020840151604085015167ffffffffffffffff1687610355565b949350505050565b5f5f5f5f886101000151925088610120015191505f6040518061014001604052805f81526020015f81526020015f81526020015f81526020015f81526020015f81526020015f81526020015f81526020015f81526020015f8152509050858711156106e05760405163d22806e360e01b815260040160405180910390fd5b6106eb878703610ed8565b8152670de0b6b3a76400006107046103f9828c8c610f0d565b61012083018190528b51829161071a9190611f0e565b8c606001516107299190611f34565b6107339190611f8a565b6020808401919091528b0151610120830151131561081d57808b602001518361012001516107619190611f0e565b8261076c8782611f63565b8e6080015161077b9190611f34565b6107859190611f8a565b61078f9190611f34565b6107999190611f8a565b604083015260208b015161012083015182916107b491611f0e565b828d60e001518e608001516107c99190611f34565b6107d39190611f8a565b6107dd9190611f34565b6107e79190611f8a565b82602001516107f69190611f63565b6060830152815160e08c015161080c9190611f34565b6108169085611f63565b935061087e565b6108465f828d604001518561012001516108379190611f0e565b8e60a001516104ce9190611f34565b604083015260208201516060830152815160e08c015161087b915f9161086c9190611f34565b6108769087611f0e565b610f8a565b93505b808261012001518c60c001516108949190611f34565b61089e9190611f8a565b60a083018190526108b0908690610f8a565b94508160400151856108c29190611f63565b6080830152815160608301516108d89190611f34565b82608001516108e79190611f63565b60c083015260a082015160808301511280159061090c57508160a001518260c0015112155b1561094857815160c083015160808401516002929161092a91611f63565b6109349190611f34565b61093e9190611f8a565b60e0830152610a52565b8160a00151826080015112801561096657508160a001518260c00151125b1561097c57815160a083015161093e9190611f34565b8160a0015182608001511215801561099b57508160a001518260c00151125b156109f6576002826060015160028460a0015185608001516109bd9190611f0e565b6109c79190612174565b6109d19190611f8a565b6109db9190611f8a565b825160a08401516109ec9190611f34565b61093e9190611f0e565b6002826060015160028460a001518560c00151610a139190611f0e565b610a1d9190612174565b610a279190611f8a565b610a319190611f8a565b825160a0840151610a429190611f34565b610a4c9190611f63565b60e08301525b81516020830151610a7a91610a6691611f34565b610a709087611f63565b8360a00151610f8a565b9450610a8b8a8a8460e00151610fd5565b835191975093505f90610aa8908890610aa390610f98565b61111a565b90975090508380610ab65750805b15610ac2575f95505f94505b50505095509550955095915050565b335f8181526020819052604081209091908280610af9610af085610d83565b8989894261031b565b9196509250905060016001607f1b038213610b315760016001607f1b03198212610b235781610b3a565b60016001607f1b0319610b3a565b60016001607f1b035b83546fffffffffffffffffffffffffffffffff19166001600160801b039190911617835560016001607f1b038113610b8f5760016001607f1b03198112610b815780610b98565b60016001607f1b0319610b98565b60016001607f1b035b83546001600160801b03918216600160801b02911617909255509195945050505050565b5f5f836001600160a01b0316639ef2fda06040518163ffffffff1660e01b8152600401606060405180830381865afa158015610bfa573d5f5f3e3d5ffd5b505050506040513d601f19601f82011682018060405250810190610c1e9190611fcd565b9050610c48610c2c85610d83565b82516020840151604085015167ffffffffffffffff1687610662565b979650505050505050565b6001600160a01b038116610c7a57604051639fabe1c160e01b815260040160405180910390fd5b6001546001600160a01b031615610ca35760405162dc149f60e41b815260040160405180910390fd5b600180546001600160a01b0319166001600160a01b0383169081179091556040517f908408e307fc569b417f6cbec5d5a06f44a0a505ac0479b47d421a4b2fd6a1e6905f90a250565b5f5f836001600160a01b0316639ef2fda06040518163ffffffff1660e01b8152600401606060405180830381865afa158015610d2a573d5f5f3e3d5ffd5b505050506040513d601f19601f82011682018060405250810190610d4e9190611fcd565b9050610d78610d5c85610d83565b82516020840151604085015167ffffffffffffffff168761031b565b509095945050505050565b610dcf6040518061014001604052805f81526020015f81526020015f81526020015f81526020015f81526020015f81526020015f81526020015f81526020015f81526020015f81525090565b6001600160a01b038083165f90815260208181526040808320815180830183529054600f81810b8352600160801b909104900b9281019290925260015481516330fe427560e21b815291519294169163c3f909d491600480820192610100929091908290030181865afa158015610e48573d5f5f3e3d5ffd5b505050506040513d601f19601f82011682018060405250810190610e6c9190612182565b805184526020808201518186015260408083015190860152606080830151908601526080808301519086015260a0808301519086015260c0808301519086015260e091820151918501919091528251600f90810b61010086015292015190910b61012083015250919050565b5f6001600160ff1b03821115610f095760405163123baf0360e11b8152600481018390526024015b60405180910390fd5b5090565b5f821580610f19575081155b80610f22575083155b15610f2e57505f610f6a565b610f388383611efb565b610f43855f19611efb565b1115610f6757610f558285855f61114d565b905083811115610f625750825b610f6a565b50825b9392505050565b5f818312610f7f5781610f81565b825b90505b92915050565b5f818313610f7f5781610f81565b5f5f821215610f0957604051635467221960e11b815260048101839052602401610f00565b5f68056bc75e2d63100000808311610f845782610f6a565b5f5f5f6799e8e8e3d53036818412610ffd57690de0b6b3a76400000000925060019150611034565b670de0b6b3a764000061100f8561118f565b6110199190611f0e565b90505f8113611028575f611031565b61103181610f98565b92505b5f8587116110425785611044565b865b90507612725dd1d243aba0e75fe645cc4873f9e65afe688c928e8110611072575f6001935093505050611112565b8386025f81900361108557505050611112565b8685828161109557611095611ed3565b041415806110c657507612725dd1d243aba0e75fe645cc4873f9e65afe688c928e829003670de0b6b3a76400008204115b1561110e57867612725dd1d243aba0e75fe645cc4873f9e65afe688c928e839003670de0b6b3a764000002816110fe576110fe611ed3565b0494506001935061111292505050565b5050505b935093915050565b5f808061112d846502e24d16b5a8611fb6565b905080851161113d57845f611141565b8060015b92509250509250929050565b5f61117a61115a836111e5565b801561117557505f848061117057611170611ed3565b868809115b151590565b611185868686611211565b6105c591906121f0565b5f68023f2fa8f6da5b9d31198212156111a957505f919050565b6804cf46d8192b672ecc82126111bd575f5ffd5b6714057b7ef767814f8202610f6a670de0b6b3a76400006706f05b59d3b200008301056112ce565b5f60028260038111156111fa576111fa612203565b6112049190612217565b60ff166001149050919050565b5f838302815f1985870982811083820303915050805f036112455783828161123b5761123b611ed3565b0492505050610f6a565b80841161126357611263841561125c576011611350565b6012611350565b5f848688095f868103871696879004966002600389028118808a02820302808a02820302808a02820302808a02820302808a02820302808a02909103029181900381900460010186841190950394909402919094039290920491909117919091029150509392505050565b5f5f82121561131f5768033dd1780914b97114198212156112f057505f919050565b6112fb825f036112ce565b6ec097ce7bc90715b34b9f10000000008161131857611318611ed3565b0592915050565b6806f05b59d3b20000008212611333575f5ffd5b670de0b6b3a7640000608083901b04610f6a81611361565b919050565b634e487b715f52806020526024601cfd5b6001607f1b818116156113855770016a09e667f3bcc908b2fb1366ea957d3e0260801c5b6001607e1b8216156113a8577001306fe0a31b7152de8d5a46305c85eded0260801c5b6001607d1b8216156113cb577001172b83c7d517adcdf7c8c50eb14a79200260801c5b6001607c1b8216156113ee5770010b5586cf9890f6298b92b71842a983640260801c5b6001607b1b821615611411577001059b0d31585743ae7c548eb68ca417fe0260801c5b6001607a1b82161561143457700102c9a3e778060ee6f7caca4f7a29bde90260801c5b600160791b8216156114575770010163da9fb33356d84a66ae336dcdfa400260801c5b600160781b82161561147a57700100b1afa5abcbed6129ab13ec11dc95440260801c5b600160771b82161561149d5770010058c86da1c09ea1ff19d294cf2f679c0260801c5b600160761b8216156114c0577001002c605e2e8cec506d21bfc89a23a0110260801c5b600160751b8216156114e357700100162f3904051fa128bca9c55c31e5e00260801c5b600160741b821615611506577001000b175effdc76ba38e31671ca9397260260801c5b600160731b82161561152957700100058ba01fb9f96d6cacd4b180917c3e0260801c5b600160721b82161561154c5770010002c5cc37da9491d0985c348c68e7b40260801c5b600160711b82161561156f577001000162e525ee054754457d59952920270260801c5b600160701b8216156115925770010000b17255775c040618bf4a4ade83fd0260801c5b6001606f1b8216156115b5577001000058b91b5bc9ae2eed81e9b7d4cfac0260801c5b6001606e1b8216156115d857700100002c5c89d5ec6ca4d7c8acc017b7ca0260801c5b6001606d1b8216156115fb5770010000162e43f4f831060e02d839a9d16d0260801c5b6001606c1b82161561161e57700100000b1721bcfc99d9f890ea069117630260801c5b6001606b1b8216156116415770010000058b90cf1e6d97f9ca14dbcc16290260801c5b6001606a1b821615611664577001000002c5c863b73f016468f6bac5ca2c0260801c5b600160691b82161561168757700100000162e430e5a18f6119e3c02282a60260801c5b600160681b8216156116aa577001000000b1721835514b86e6d96efd1bff0260801c5b600160671b8216156116cd57700100000058b90c0b48c6be5df846c5b2f00260801c5b600160661b8216156116f05770010000002c5c8601cc6b9e94213c72737b0260801c5b600160651b821615611713577001000000162e42fff037df38aa2b219f070260801c5b600160641b8216156117365770010000000b17217fba9c739aa5819f44fa0260801c5b600160631b821615611759577001000000058b90bfcdee5acd3c1cedc8240260801c5b600160621b82161561177c57700100000002c5c85fe31f35a6a30da1be510260801c5b600160611b82161561179f5770010000000162e42ff0999ce3541b9fffd00260801c5b600160601b8216156117c257700100000000b17217f80f4ef5aadda455540260801c5b6001605f1b8216156117e55770010000000058b90bfbf8479bd5a81b51ae0260801c5b6001605e1b821615611808577001000000002c5c85fdf84bd62ae30a74cd0260801c5b6001605d1b82161561182b57700100000000162e42fefb2fed257559bdaa0260801c5b6001605c1b82161561184e577001000000000b17217f7d5a7716bba4a9af0260801c5b6001605b1b82161561187157700100000000058b90bfbe9ddbac5e109ccf0260801c5b6001605a1b8216156118945770010000000002c5c85fdf4b15de6f17eb0e0260801c5b600160591b8216156118b7577001000000000162e42fefa494f1478fde050260801c5b600160581b8216156118da5770010000000000b17217f7d20cf927c8e94d0260801c5b600160571b8216156118fd577001000000000058b90bfbe8f71cb4e4b33e0260801c5b600160561b82161561192057700100000000002c5c85fdf477b662b269460260801c5b600160551b8216156119435770010000000000162e42fefa3ae53369388d0260801c5b600160541b82161561196657700100000000000b17217f7d1d351a389d410260801c5b600160531b8216156119895770010000000000058b90bfbe8e8b2d3d4edf0260801c5b600160521b8216156119ac577001000000000002c5c85fdf4741bea6e77f0260801c5b600160511b8216156119cf57700100000000000162e42fefa39fe95583c30260801c5b600160501b8216156119f2577001000000000000b17217f7d1cfb72b45e30260801c5b6980000000000000000000821615611a1b57700100000000000058b90bfbe8e7cc35c3f20260801c5b6940000000000000000000821615611a445770010000000000002c5c85fdf473e242ea390260801c5b6920000000000000000000821615611a6d577001000000000000162e42fefa39f02b772c0260801c5b6910000000000000000000821615611a965770010000000000000b17217f7d1cf7d83c1a0260801c5b6908000000000000000000821615611abf577001000000000000058b90bfbe8e7bdcbe2e0260801c5b6904000000000000000000821615611ae857700100000000000002c5c85fdf473dea871f0260801c5b6902000000000000000000821615611b115770010000000000000162e42fefa39ef44d920260801c5b6901000000000000000000821615611b3a57700100000000000000b17217f7d1cf79e9490260801c5b68800000000000000000821615611b625770010000000000000058b90bfbe8e7bce5450260801c5b68400000000000000000821615611b8a577001000000000000002c5c85fdf473de6eca0260801c5b68200000000000000000821615611bb257700100000000000000162e42fefa39ef366f0260801c5b68100000000000000000821615611bda577001000000000000000b17217f7d1cf79afa0260801c5b68080000000000000000821615611c0257700100000000000000058b90bfbe8e7bcd6e0260801c5b68040000000000000000821615611c2a5770010000000000000002c5c85fdf473de6b30260801c5b68020000000000000000821615611c52577001000000000000000162e42fefa39ef3590260801c5b68010000000000000000821615611c7a5770010000000000000000b17217f7d1cf79ac0260801c5b6001608083901c011b610f8481670de0b6b3a7640000600160801b5f80805f19858709858702925082811083820303915050805f03611cc9575f8411611cbe575f5ffd5b508290049050610f6a565b808411611cd4575f5ffd5b5f8486880960026001871981018816978890046003810283188082028403028082028403028082028403028082028403028082028403029081029092039091025f889003889004909101858311909403939093029303949094049190911702949350505050565b604051610140810167ffffffffffffffff81118282101715611d6b57634e487b7160e01b5f52604160045260245ffd5b60405290565b604051610100810167ffffffffffffffff81118282101715611d6b57634e487b7160e01b5f52604160045260245ffd5b5f5f5f5f5f8587036101c0811215611db7575f5ffd5b610140811215611dc5575f5ffd5b50611dce611d3b565b863581526020808801359082015260408088013590820152606080880135908201526080808801359082015260a0808801359082015260c0808801359082015260e08088013590820152610100808801359082015261012080880135908201529761014087013597506101608701359661018081013596506101a00135945092505050565b80356001600160a01b038116811461134b575f5ffd5b5f5f60408385031215611e7a575f5ffd5b611e8383611e53565b946020939093013593505050565b5f5f5f60608486031215611ea3575f5ffd5b505081359360208301359350604090920135919050565b5f60208284031215611eca575f5ffd5b610f8182611e53565b634e487b7160e01b5f52601260045260245ffd5b634e487b7160e01b5f52601160045260245ffd5b5f82611f0957611f09611ed3565b500490565b8181035f831280158383131683831282161715611f2d57611f2d611ee7565b5092915050565b8082025f8212600160ff1b84141615611f4f57611f4f611ee7565b8181058314821517610f8457610f84611ee7565b8082018281125f831280158216821582161715611f8257611f82611ee7565b505092915050565b5f82611f9857611f98611ed3565b600160ff1b82145f1984141615611fb157611fb1611ee7565b500590565b8082028115828204841417610f8457610f84611ee7565b5f6060828403128015611fde575f5ffd5b506040516060810167ffffffffffffffff8111828210171561200e57634e487b7160e01b5f52604160045260245ffd5b6040908152835182526020808501519083015283015167ffffffffffffffff81168114612039575f5ffd5b60408201529392505050565b80825b600185111561207f5780860481111561206357612063611ee7565b600185161561207157908102905b60019490941c938002612048565b94509492505050565b5f82801561209d57600181146120a7576120b0565b6001915050610f84565b82915050610f84565b50816120bd57505f610f84565b5060015f82138082146120d55780156120f45761210e565b6001600160ff1b038390048311156120ef576120ef611ee7565b61210e565b6001600160ff1b0383900583121561210e5761210e611ee7565b508083161561211a5750805b6121336001600160ff1b03600185901c84800284612045565b5f82136001600160ff1b038290048311161561215157612151611ee7565b5f8212600160ff1b8290058312161561216c5761216c611ee7565b029392505050565b5f610f8160ff841683612088565b5f610100828403128015612194575f5ffd5b5061219d611d71565b825181526020808401519082015260408084015190820152606080840151908201526080808401519082015260a0808401519082015260c0808401519082015260e0928301519281019290925250919050565b80820180821115610f8457610f84611ee7565b634e487b7160e01b5f52602160045260245ffd5b5f60ff83168061222957612229611ed3565b8060ff8416069150509291505056fea264697066735822122071fcbb19e5b655a42029cdc2c8e41d8a53b0bc99d0d54fcae7857b79f6afa26964736f6c634300081c0033",
  "language": "Solidity",
  "compiler": "0.8.28+commit.7893614a"
}