{
  "address": "0xA95aa71AEce270C7f2c777B1020A97503F7bd0a5",
  "abi": [
    {
      "inputs": [],
      "name": "InvalidBeta",
      "type": "error"
    },
    {
      "inputs": [],
      "name": "InvalidKcrit",
      "type": "error"
    },
    {
      "inputs": [],
      "name": "InvalidKi",
      "type": "error"
    },
    {
      "inputs": [],
      "name": "InvalidKlin",
      "type": "error"
    },
    {
      "inputs": [],
      "name": "InvalidKlow",
      "type": "error"
    },
    {
      "inputs": [],
      "name": "InvalidUcrit",
      "type": "error"
    },
    {
      "inputs": [],
      "name": "InvalidUlow",
      "type": "error"
    },
    {
      "inputs": [],
      "name": "InvalidUopt",
      "type": "error"
    },
    {
      "anonymous": false,
      "inputs": [
        {
          "indexed": true,
          "internalType": "bytes32",
          "name": "id",
          "type": "bytes32"
        },
        {
          "indexed": true,
          "internalType": "contract IInterestRateModelV2Config",
          "name": "configAddress",
          "type": "address"
        }
      ],
      "name": "NewInterestRateModelV2Config",
      "type": "event"
    },
    {
      "inputs": [],
      "name": "DP",
      "outputs": [
        {
          "internalType": "uint256",
          "name": "",
          "type": "uint256"
        }
      ],
      "stateMutability": "view",
      "type": "function"
    },
    {
      "inputs": [
        {
          "components": [
            {
              "internalType": "int256",
              "name": "uopt",
              "type": "int256"
            },
            {
              "internalType": "int256",
              "name": "ucrit",
              "type": "int256"
            },
            {
              "internalType": "int256",
              "name": "ulow",
              "type": "int256"
            },
            {
              "internalType": "int256",
              "name": "ki",
              "type": "int256"
            },
            {
              "internalType": "int256",
              "name": "kcrit",
              "type": "int256"
            },
            {
              "internalType": "int256",
              "name": "klow",
              "type": "int256"
            },
            {
              "internalType": "int256",
              "name": "klin",
              "type": "int256"
            },
            {
              "internalType": "int256",
              "name": "beta",
              "type": "int256"
            }
          ],
          "internalType": "struct IInterestRateModelV2.Config",
          "name": "_config",
          "type": "tuple"
        }
      ],
      "name": "create",
      "outputs": [
        {
          "internalType": "bytes32",
          "name": "id",
          "type": "bytes32"
        },
        {
          "internalType": "contract IInterestRateModelV2Config",
          "name": "configContract",
          "type": "address"
        }
      ],
      "stateMutability": "nonpayable",
      "type": "function"
    },
    {
      "inputs": [
        {
          "internalType": "bytes32",
          "name": "",
          "type": "bytes32"
        }
      ],
      "name": "getConfigAddress",
      "outputs": [
        {
          "internalType": "contract IInterestRateModelV2Config",
          "name": "",
          "type": "address"
        }
      ],
      "stateMutability": "view",
      "type": "function"
    },
    {
      "inputs": [
        {
          "components": [
            {
              "internalType": "int256",
              "name": "uopt",
              "type": "int256"
            },
            {
              "internalType": "int256",
              "name": "ucrit",
              "type": "int256"
            },
            {
              "internalType": "int256",
              "name": "ulow",
              "type": "int256"
            },
            {
              "internalType": "int256",
              "name": "ki",
              "type": "int256"
            },
            {
              "internalType": "int256",
              "name": "kcrit",
              "type": "int256"
            },
            {
              "internalType": "int256",
              "name": "klow",
              "type": "int256"
            },
            {
              "internalType": "int256",
              "name": "klin",
              "type": "int256"
            },
            {
              "internalType": "int256",
              "name": "beta",
              "type": "int256"
            }
          ],
          "internalType": "struct IInterestRateModelV2.Config",
          "name": "_config",
          "type": "tuple"
        }
      ],
      "name": "hashConfig",
      "outputs": [
        {
          "internalType": "bytes32",
          "name": "configId",
          "type": "bytes32"
        }
      ],
      "stateMutability": "pure",
      "type": "function"
    },
    {
      "inputs": [
        {
          "components": [
            {
              "internalType": "int256",
              "name": "uopt",
              "type": "int256"
            },
            {
              "internalType": "int256",
              "name": "ucrit",
              "type": "int256"
            },
            {
              "internalType": "int256",
              "name": "ulow",
              "type": "int256"
            },
            {
              "internalType": "int256",
              "name": "ki",
              "type": "int256"
            },
            {
              "internalType": "int256",
              "name": "kcrit",
              "type": "int256"
            },
            {
              "internalType": "int256",
              "name": "klow",
              "type": "int256"
            },
            {
              "internalType": "int256",
              "name": "klin",
              "type": "int256"
            },
            {
              "internalType": "int256",
              "name": "beta",
              "type": "int256"
            }
          ],
          "internalType": "struct IInterestRateModelV2.Config",
          "name": "_config",
          "type": "tuple"
        }
      ],
      "name": "verifyConfig",
      "outputs": [],
      "stateMutability": "view",
      "type": "function"
    }
  ],
  "bytecode": "0x608060405234801561001057600080fd5b50610814806100206000396000f3fe608060405234801561001057600080fd5b50600436106100575760003560e01c8063288b63ba1461005c578063511042ad146100715780636bcc8216146100a6578063ac8c9375146100c3578063f896503a146100d6575b600080fd5b61006f61006a36600461038b565b610117565b005b61008461007f36600461038b565b610282565b604080519283526001600160a01b039091166020830152015b60405180910390f35b6100b5670de0b6b3a764000081565b60405190815260200161009d565b6100b56100d136600461038b565b61034e565b6100ff6100e43660046103a4565b6000602081905290815260409020546001600160a01b031681565b6040516001600160a01b03909116815260200161009d565b670de0b6b3a764000060008235131580610132575081358113155b15610150576040516313e9c00360e21b815260040160405180910390fd5b81356020830135131580610168575080826020013512155b15610186576040516339bda99160e11b815260040160405180910390fd5b6000826040013513158061019f57508135604083013512155b156101bd57604051635c65494d60e01b815260040160405180910390fd5b6000826060013512156101e35760405163fe06781560e01b815260040160405180910390fd5b600082608001351215610209576040516320d12cb560e21b815260040160405180910390fd5b60008260a001351215610232576040516001627ddb5960e01b0319815260040160405180910390fd5b60008260c00135121561025857604051634e435a2160e01b815260040160405180910390fd5b60008260e00135121561027e576040516378a8371160e01b815260040160405180910390fd5b5050565b60008061028e8361034e565b6000818152602081905260409020549092506001600160a01b0316905080156102b657915091565b6102bf83610117565b826040516102cc9061037e565b6102d691906103bd565b604051809103906000f0801580156102f2573d6000803e3d6000fd5b5060008381526020819052604080822080546001600160a01b0319166001600160a01b03851690811790915590519293509184917fff06166be86e78fe42090f7a617c20fde9cb17d75b8e459a2991e996d1d4164d91a3915091565b60008160405160200161036191906103bd565b604051602081830303815290604052805190602001209050919050565b6103c88061041783390190565b6000610100828403121561039e57600080fd5b50919050565b6000602082840312156103b657600080fd5b5035919050565b600061010082019050823582526020830135602083015260408301356040830152606083013560608301526080830135608083015260a083013560a083015260c083013560c083015260e083013560e08301529291505056fe61018060405234801561001157600080fd5b506040516103c83803806103c883398101604081905261003091610077565b80516080908152602082015160a0908152604083015160c0908152606084015160e09081529284015161010052908301516101205282015161014052015161016052610114565b600061010080838503121561008b57600080fd5b604051908101906001600160401b03821181831017156100bb57634e487b7160e01b600052604160045260246000fd5b81604052835181526020840151602082015260408401516040820152606084015160608201526080840151608082015260a084015160a082015260c084015160c082015260e084015160e0820152809250505092915050565b60805160a05160c05160e0516101005161012051610140516101605161025061017860003960006101f3015260006101cd015260006101a7015260006101810152600061015b015260006101350152600061010f0152600060ec01526102506000f3fe608060405234801561001057600080fd5b506004361061002b5760003560e01c8063c3f909d414610030575b600080fd5b6100386100a2565b6040516100999190600061010082019050825182526020830151602083015260408301516040830152606083015160608301526080830151608083015260a083015160a083015260c083015160c083015260e083015160e083015292915050565b60405180910390f35b6100ea60405180610100016040528060008152602001600081526020016000815260200160008152602001600081526020016000815260200160008152602001600081525090565b7f000000000000000000000000000000000000000000000000000000000000000081527f000000000000000000000000000000000000000000000000000000000000000060208201527f000000000000000000000000000000000000000000000000000000000000000060408201527f000000000000000000000000000000000000000000000000000000000000000060608201527f000000000000000000000000000000000000000000000000000000000000000060808201527f000000000000000000000000000000000000000000000000000000000000000060a08201527f000000000000000000000000000000000000000000000000000000000000000060c08201527f000000000000000000000000000000000000000000000000000000000000000060e08201529056fea26469706673582212206be7e2d34acad3020c84dffd61d7fbdc2c0be07b374d3af8c9951acd50aa77c064736f6c63430008150033a2646970667358221220377cc61fd34a84d273c7c1fb2120879c84f6d05dd05722929214b47c10a03a0164736f6c63430008150033",
  "language": "Solidity",
  "compiler": "0.8.21+commit.d9974bed"
}