{
  "address": "0x87e3851737A0D7c3632915c37377D60AADe88C50",
  "abi": [
    {
      "inputs": [],
      "name": "DP",
      "outputs": [
        {
          "internalType": "uint256",
          "name": "",
          "type": "uint256"
        }
      ],
      "stateMutability": "view",
      "type": "function"
    },
    {
      "inputs": [
        {
          "components": [
            {
              "internalType": "int256",
              "name": "uopt",
              "type": "int256"
            },
            {
              "internalType": "int256",
              "name": "ucrit",
              "type": "int256"
            },
            {
              "internalType": "int256",
              "name": "ulow",
              "type": "int256"
            },
            {
              "internalType": "int256",
              "name": "ki",
              "type": "int256"
            },
            {
              "internalType": "int256",
              "name": "kcrit",
              "type": "int256"
            },
            {
              "internalType": "int256",
              "name": "klow",
              "type": "int256"
            },
            {
              "internalType": "int256",
              "name": "klin",
              "type": "int256"
            },
            {
              "internalType": "int256",
              "name": "beta",
              "type": "int256"
            }
          ],
          "internalType": "struct IInterestRateModelV2.Config",
          "name": "_config",
          "type": "tuple"
        }
      ],
      "name": "create",
      "outputs": [
        {
          "internalType": "bytes32",
          "name": "id",
          "type": "bytes32"
        },
        {
          "internalType": "contract IInterestRateModelV2Config",
          "name": "configContract",
          "type": "address"
        }
      ],
      "stateMutability": "nonpayable",
      "type": "function"
    },
    {
      "inputs": [
        {
          "internalType": "bytes32",
          "name": "",
          "type": "bytes32"
        }
      ],
      "name": "getConfigAddress",
      "outputs": [
        {
          "internalType": "contract IInterestRateModelV2Config",
          "name": "",
          "type": "address"
        }
      ],
      "stateMutability": "view",
      "type": "function"
    },
    {
      "inputs": [
        {
          "components": [
            {
              "internalType": "int256",
              "name": "uopt",
              "type": "int256"
            },
            {
              "internalType": "int256",
              "name": "ucrit",
              "type": "int256"
            },
            {
              "internalType": "int256",
              "name": "ulow",
              "type": "int256"
            },
            {
              "internalType": "int256",
              "name": "ki",
              "type": "int256"
            },
            {
              "internalType": "int256",
              "name": "kcrit",
              "type": "int256"
            },
            {
              "internalType": "int256",
              "name": "klow",
              "type": "int256"
            },
            {
              "internalType": "int256",
              "name": "klin",
              "type": "int256"
            },
            {
              "internalType": "int256",
              "name": "beta",
              "type": "int256"
            }
          ],
          "internalType": "struct IInterestRateModelV2.Config",
          "name": "_config",
          "type": "tuple"
        }
      ],
      "name": "hashConfig",
      "outputs": [
        {
          "internalType": "bytes32",
          "name": "configId",
          "type": "bytes32"
        }
      ],
      "stateMutability": "pure",
      "type": "function"
    },
    {
      "inputs": [
        {
          "components": [
            {
              "internalType": "int256",
              "name": "uopt",
              "type": "int256"
            },
            {
              "internalType": "int256",
              "name": "ucrit",
              "type": "int256"
            },
            {
              "internalType": "int256",
              "name": "ulow",
              "type": "int256"
            },
            {
              "internalType": "int256",
              "name": "ki",
              "type": "int256"
            },
            {
              "internalType": "int256",
              "name": "kcrit",
              "type": "int256"
            },
            {
              "internalType": "int256",
              "name": "klow",
              "type": "int256"
            },
            {
              "internalType": "int256",
              "name": "klin",
              "type": "int256"
            },
            {
              "internalType": "int256",
              "name": "beta",
              "type": "int256"
            }
          ],
          "internalType": "struct IInterestRateModelV2.Config",
          "name": "_config",
          "type": "tuple"
        }
      ],
      "name": "verifyConfig",
      "outputs": [],
      "stateMutability": "view",
      "type": "function"
    },
    {
      "anonymous": false,
      "inputs": [
        {
          "indexed": true,
          "internalType": "bytes32",
          "name": "id",
          "type": "bytes32"
        },
        {
          "indexed": true,
          "internalType": "contract IInterestRateModelV2Config",
          "name": "configAddress",
          "type": "address"
        }
      ],
      "name": "NewInterestRateModelV2Config",
      "type": "event"
    },
    {
      "inputs": [],
      "name": "InvalidBeta",
      "type": "error"
    },
    {
      "inputs": [],
      "name": "InvalidKcrit",
      "type": "error"
    },
    {
      "inputs": [],
      "name": "InvalidKi",
      "type": "error"
    },
    {
      "inputs": [],
      "name": "InvalidKlin",
      "type": "error"
    },
    {
      "inputs": [],
      "name": "InvalidKlow",
      "type": "error"
    },
    {
      "inputs": [],
      "name": "InvalidUcrit",
      "type": "error"
    },
    {
      "inputs": [],
      "name": "InvalidUlow",
      "type": "error"
    },
    {
      "inputs": [],
      "name": "InvalidUopt",
      "type": "error"
    }
  ],
  "bytecode": "0x608060405234801561000f575f80fd5b506107e28061001d5f395ff3fe608060405234801561000f575f80fd5b5060043610610055575f3560e01c8063288b63ba14610059578063511042ad1461006e5780636bcc8216146100a3578063ac8c9375146100c0578063f896503a146100d3575b5f80fd5b61006c610067366004610379565b610113565b005b61008161007c366004610379565b610277565b604080519283526001600160a01b039091166020830152015b60405180910390f35b6100b2670de0b6b3a764000081565b60405190815260200161009a565b6100b26100ce366004610379565b61033d565b6100fb6100e1366004610390565b5f602081905290815260409020546001600160a01b031681565b6040516001600160a01b03909116815260200161009a565b670de0b6b3a76400005f823513158061012d575081358113155b1561014b576040516313e9c00360e21b815260040160405180910390fd5b81356020830135131580610163575080826020013512155b15610181576040516339bda99160e11b815260040160405180910390fd5b5f826040013513158061019957508135604083013512155b156101b757604051635c65494d60e01b815260040160405180910390fd5b5f826060013512156101dc5760405163fe06781560e01b815260040160405180910390fd5b5f82608001351215610201576040516320d12cb560e21b815260040160405180910390fd5b5f8260a001351215610229576040516001627ddb5960e01b0319815260040160405180910390fd5b5f8260c00135121561024e57604051634e435a2160e01b815260040160405180910390fd5b5f8260e001351215610273576040516378a8371160e01b815260040160405180910390fd5b5050565b5f806102828361033d565b5f818152602081905260409020549092506001600160a01b0316905080156102a957915091565b6102b283610113565b826040516102bf9061036c565b6102c991906103a7565b604051809103905ff0801580156102e2573d5f803e3d5ffd5b505f8381526020819052604080822080546001600160a01b0319166001600160a01b03851690811790915590519293509184917fff06166be86e78fe42090f7a617c20fde9cb17d75b8e459a2991e996d1d4164d91a3915091565b5f8160405160200161034f91906103a7565b604051602081830303815290604052805190602001209050919050565b6103ad8061040083390190565b5f610100828403121561038a575f80fd5b50919050565b5f602082840312156103a0575f80fd5b5035919050565b5f61010082019050823582526020830135602083015260408301356040830152606083013560608301526080830135608083015260a083013560a083015260c083013560c083015260e083013560e08301529291505056fe610180604052348015610010575f80fd5b506040516103ad3803806103ad83398101604081905261002f91610076565b80516080908152602082015160a0908152604083015160c0908152606084015160e0908152928401516101005290830151610120528201516101405201516101605261010f565b5f610100808385031215610088575f80fd5b604051908101906001600160401b03821181831017156100b657634e487b7160e01b5f52604160045260245ffd5b81604052835181526020840151602082015260408401516040820152606084015160608201526080840151608082015260a084015160a082015260c084015160c082015260e084015160e0820152809250505092915050565b60805160a05160c05160e051610100516101205161014051610160516102446101695f395f6101e701525f6101c101525f61019b01525f61017501525f61014f01525f61012901525f61010301525f60e001526102445ff3fe608060405234801561000f575f80fd5b5060043610610029575f3560e01c8063c3f909d41461002d575b5f80fd5b61003561009e565b60405161009591905f61010082019050825182526020830151602083015260408301516040830152606083015160608301526080830151608083015260a083015160a083015260c083015160c083015260e083015160e083015292915050565b60405180910390f35b6100de6040518061010001604052805f81526020015f81526020015f81526020015f81526020015f81526020015f81526020015f81526020015f81525090565b7f000000000000000000000000000000000000000000000000000000000000000081527f000000000000000000000000000000000000000000000000000000000000000060208201527f000000000000000000000000000000000000000000000000000000000000000060408201527f000000000000000000000000000000000000000000000000000000000000000060608201527f000000000000000000000000000000000000000000000000000000000000000060808201527f000000000000000000000000000000000000000000000000000000000000000060a08201527f000000000000000000000000000000000000000000000000000000000000000060c08201527f000000000000000000000000000000000000000000000000000000000000000060e08201529056fea26469706673582212200e424876faec3ec8a9afdd6e021228f7d635c24ab3b00622eec86191c894597d64736f6c63430008180033a264697066735822122088318ae844ad42099a09376b5e76e013a64439c4a7d04813fa4012e300533ec464736f6c63430008180033",
  "language": "Solidity",
  "compiler": "0.8.24+commit.e11b9ed9"
}