{
  "address": "0xc7cCc7b9130FbbE4C072AD757a84db9789f8eE21",
  "abi": [
    {
      "inputs": [
        {
          "internalType": "address",
          "name": "_nativeToken",
          "type": "address"
        },
        {
          "internalType": "address",
          "name": "_exchangeProxy",
          "type": "address"
        },
        {
          "internalType": "address payable",
          "name": "_tokensReceiver",
          "type": "address"
        }
      ],
      "stateMutability": "nonpayable",
      "type": "constructor"
    },
    {
      "inputs": [],
      "name": "EXCHANGE_PROXY",
      "outputs": [
        {
          "internalType": "address",
          "name": "",
          "type": "address"
        }
      ],
      "stateMutability": "view",
      "type": "function"
    },
    {
      "inputs": [],
      "name": "NATIVE_TOKEN",
      "outputs": [
        {
          "internalType": "address",
          "name": "",
          "type": "address"
        }
      ],
      "stateMutability": "view",
      "type": "function"
    },
    {
      "inputs": [],
      "name": "TOKENS_RECEIVER",
      "outputs": [
        {
          "internalType": "address payable",
          "name": "",
          "type": "address"
        }
      ],
      "stateMutability": "view",
      "type": "function"
    },
    {
      "inputs": [
        {
          "internalType": "contract ISilo",
          "name": "_flashLoanFrom",
          "type": "address"
        },
        {
          "internalType": "address",
          "name": "_debtAsset",
          "type": "address"
        },
        {
          "internalType": "uint256",
          "name": "_maxDebtToCover",
          "type": "uint256"
        },
        {
          "components": [
            {
              "internalType": "contract IPartialLiquidation",
              "name": "hook",
              "type": "address"
            },
            {
              "internalType": "address",
              "name": "collateralAsset",
              "type": "address"
            },
            {
              "internalType": "address",
              "name": "user",
              "type": "address"
            }
          ],
          "internalType": "struct ILiquidationHelper.LiquidationData",
          "name": "_liquidation",
          "type": "tuple"
        },
        {
          "components": [
            {
              "internalType": "address",
              "name": "sellToken",
              "type": "address"
            },
            {
              "internalType": "address",
              "name": "allowanceTarget",
              "type": "address"
            },
            {
              "internalType": "bytes",
              "name": "swapCallData",
              "type": "bytes"
            }
          ],
          "internalType": "struct ILiquidationHelper.DexSwapInput[]",
          "name": "_swapsInputs0x",
          "type": "tuple[]"
        }
      ],
      "name": "executeLiquidation",
      "outputs": [
        {
          "internalType": "uint256",
          "name": "withdrawCollateral",
          "type": "uint256"
        },
        {
          "internalType": "uint256",
          "name": "repayDebtAssets",
          "type": "uint256"
        }
      ],
      "stateMutability": "nonpayable",
      "type": "function"
    },
    {
      "inputs": [
        {
          "internalType": "address",
          "name": "_sellToken",
          "type": "address"
        },
        {
          "internalType": "address",
          "name": "_spender",
          "type": "address"
        },
        {
          "internalType": "bytes",
          "name": "_swapCallData",
          "type": "bytes"
        }
      ],
      "name": "fillQuote",
      "outputs": [],
      "stateMutability": "nonpayable",
      "type": "function"
    },
    {
      "inputs": [
        {
          "internalType": "address",
          "name": "",
          "type": "address"
        },
        {
          "internalType": "address",
          "name": "_debtAsset",
          "type": "address"
        },
        {
          "internalType": "uint256",
          "name": "_maxDebtToCover",
          "type": "uint256"
        },
        {
          "internalType": "uint256",
          "name": "_fee",
          "type": "uint256"
        },
        {
          "internalType": "bytes",
          "name": "_data",
          "type": "bytes"
        }
      ],
      "name": "onFlashLoan",
      "outputs": [
        {
          "internalType": "bytes32",
          "name": "",
          "type": "bytes32"
        }
      ],
      "stateMutability": "nonpayable",
      "type": "function"
    },
    {
      "inputs": [],
      "name": "AddressZero",
      "type": "error"
    },
    {
      "inputs": [],
      "name": "FailedCall",
      "type": "error"
    },
    {
      "inputs": [
        {
          "internalType": "uint256",
          "name": "balance",
          "type": "uint256"
        },
        {
          "internalType": "uint256",
          "name": "needed",
          "type": "uint256"
        }
      ],
      "name": "InsufficientBalance",
      "type": "error"
    },
    {
      "inputs": [],
      "name": "NoDebtToCover",
      "type": "error"
    },
    {
      "inputs": [],
      "name": "STokenNotSupported",
      "type": "error"
    }
  ],
  "bytecode": "0x60e060405234801561000f575f5ffd5b5060405161128238038061128283398101604081905261002e9161008b565b816001600160a01b03811661005657604051639fabe1c160e01b815260040160405180910390fd5b506001600160a01b0392831660c0529082166080521660a0526100d5565b6001600160a01b0381168114610088575f5ffd5b50565b5f5f5f6060848603121561009d575f5ffd5b83516100a881610074565b60208501519093506100b981610074565b60408501519092506100ca81610074565b809150509250925092565b60805160a05160c0516111626101205f395f8181608f015281816107ab015261094001525f81816101320152818161080601526109ac01525f818160ce015261067701526111625ff3fe608060405234801561000f575f5ffd5b5060043610610060575f3560e01c806323e30c8b1461006457806331f7d9641461008a5780636fca4f8f146100c95780637b364c5d146100f05780638cf1626114610118578063b34cbaf71461012d575b5f5ffd5b610077610072366004610a85565b610154565b6040519081526020015b60405180910390f35b6100b17f000000000000000000000000000000000000000000000000000000000000000081565b6040516001600160a01b039091168152602001610081565b6100b17f000000000000000000000000000000000000000000000000000000000000000081565b6101036100fe366004610b28565b6104c8565b60408051928352602083019190915201610081565b61012b610126366004610ca2565b610602565b005b6100b17f000000000000000000000000000000000000000000000000000000000000000081565b5f808061016384860186610cff565b815160405163095ea7b360e01b81526001600160a01b039182166004820152602481018b905292945090925089169063095ea7b3906044016020604051808303815f875af11580156101b7573d5f5f3e3d5ffd5b505050506040513d601f19601f820116820180604052508101906101db9190610e7a565b5081516020830151604080850151905162a718a960e01b81526001600160a01b0392831660048201528b831660248201529082166044820152606481018a90525f608482015291169062a718a99060a40160408051808303815f875af1158015610247573d5f5f3e3d5ffd5b505050506040513d601f19601f8201168201806040525081019061026b9190610ea0565b5f808260015d5082905d5050815160405163095ea7b360e01b81526001600160a01b0391821660048201525f60248201529089169063095ea7b3906044016020604051808303815f875af11580156102c5573d5f5f3e3d5ffd5b505050506040513d601f19601f820116820180604052508101906102e99190610e7a565b505f6102f58789610ed6565b9050886001600160a01b031683602001516001600160a01b0316036103a15760208301516040516370a0823160e01b81523060048201525f916001600160a01b0316906370a0823190602401602060405180830381865afa15801561035c573d5f5f3e3d5ffd5b505050506040513d601f19601f820116820180604052508101906103809190610eef565b905061039b846020015183836103969190610f06565b61079e565b5061042a565b6103aa82610884565b6040516370a0823160e01b81523060048201525f906001600160a01b038b16906370a0823190602401602060405180830381865afa1580156103ee573d5f5f3e3d5ffd5b505050506040513d601f19601f820116820180604052508101906104129190610eef565b905080821015610428576104288a83830361079e565b505b60405163095ea7b360e01b8152336004820152602481018290526001600160a01b038a169063095ea7b3906044016020604051808303815f875af1158015610474573d5f5f3e3d5ffd5b505050506040513d601f19601f820116820180604052508101906104989190610e7a565b507f439148f0bbc682ca079e46d6e2c2f0c1e3b820f1a291b069d8882abf8cf18dd99a9950505050505050505050565b5f5f855f036104ea576040516317ff0e0960e11b815260040160405180910390fd5b876001600160a01b0316635cffe9de30898989898960405160200161051193929190610f41565b6040516020818303038152906040526040518563ffffffff1660e01b815260040161053f94939291906110b4565b6020604051808303815f875af115801561055b573d5f5f3e3d5ffd5b505050506040513d601f19601f8201168201806040525081019061057f9190610e7a565b5060405163095ea7b360e01b81526001600160a01b0389811660048301525f602483015288169063095ea7b3906044016020604051808303815f875af11580156105cb573d5f5f3e3d5ffd5b505050506040513d601f19601f820116820180604052508101906105ef9190610e7a565b50505f5c9760015c975095505050505050565b60405163095ea7b360e01b81526001600160a01b0383811660048301525f19602483015284169063095ea7b3906044016020604051808303815f875af115801561064e573d5f5f3e3d5ffd5b505050506040513d601f19601f820116820180604052508101906106729190610e7a565b505f5f7f00000000000000000000000000000000000000000000000000000000000000006001600160a01b0316836040516106ad91906110f0565b5f604051808303815f865af19150503d805f81146106e6576040519150601f19603f3d011682016040523d82523d5f602084013e6106eb565b606091505b5091509150816107275760408051808201909152601081526f14d5d05417d0d0531317d1905253115160821b60208201526107279082906108f8565b60405163095ea7b360e01b81526001600160a01b0385811660048301525f602483015286169063095ea7b3906044016020604051808303815f875af1158015610772573d5f5f3e3d5ffd5b505050506040513d601f19601f820116820180604052508101906107969190610e7a565b505050505050565b805f036107a9575050565b7f00000000000000000000000000000000000000000000000000000000000000006001600160a01b0316826001600160a01b0316036107ef576107eb8161092a565b5050565b60405163a9059cbb60e01b81526001600160a01b037f0000000000000000000000000000000000000000000000000000000000000000811660048301526024820183905283169063a9059cbb906044016020604051808303815f875af115801561085b573d5f5f3e3d5ffd5b505050506040513d601f19601f8201168201806040525081019061087f9190610e7a565b505050565b5f5b81518110156107eb576108f08282815181106108a4576108a4611106565b60200260200101515f01518383815181106108c1576108c1611106565b6020026020010151602001518484815181106108df576108df611106565b602002602001015160400151610602565b600101610886565b81511561090757815182602001fd5b8060405162461bcd60e51b8152600401610921919061111a565b60405180910390fd5b604051632e1a7d4d60e01b8152600481018290527f00000000000000000000000000000000000000000000000000000000000000006001600160a01b031690632e1a7d4d906024015f604051808303815f87803b158015610989575f5ffd5b505af115801561099b573d5f5f3e3d5ffd5b506109d49250506001600160a01b037f0000000000000000000000000000000000000000000000000000000000000000169050826109d7565b50565b80471015610a015760405163cf47918160e01b815247600482015260248101829052604401610921565b5f826001600160a01b0316826040515f6040518083038185875af1925050503d805f8114610a4a576040519150601f19603f3d011682016040523d82523d5f602084013e610a4f565b606091505b505090508061087f5760405163d6bda27560e01b815260040160405180910390fd5b6001600160a01b03811681146109d4575f5ffd5b5f5f5f5f5f5f60a08789031215610a9a575f5ffd5b8635610aa581610a71565b95506020870135610ab581610a71565b9450604087013593506060870135925060808701356001600160401b03811115610add575f5ffd5b8701601f81018913610aed575f5ffd5b80356001600160401b03811115610b02575f5ffd5b896020828401011115610b13575f5ffd5b60208201935080925050509295509295509295565b5f5f5f5f5f5f86880360e0811215610b3e575f5ffd5b8735610b4981610a71565b96506020880135610b5981610a71565b9550604088013594506060605f1982011215610b73575f5ffd5b5060608701925060c08701356001600160401b03811115610b92575f5ffd5b8701601f81018913610ba2575f5ffd5b80356001600160401b03811115610bb7575f5ffd5b8960208260051b8401011115610b13575f5ffd5b634e487b7160e01b5f52604160045260245ffd5b604051606081016001600160401b0381118282101715610c0157610c01610bcb565b60405290565b604051601f8201601f191681016001600160401b0381118282101715610c2f57610c2f610bcb565b604052919050565b5f82601f830112610c46575f5ffd5b81356001600160401b03811115610c5f57610c5f610bcb565b610c72601f8201601f1916602001610c07565b818152846020838601011115610c86575f5ffd5b816020850160208301375f918101602001919091529392505050565b5f5f5f60608486031215610cb4575f5ffd5b8335610cbf81610a71565b92506020840135610ccf81610a71565b915060408401356001600160401b03811115610ce9575f5ffd5b610cf586828701610c37565b9150509250925092565b5f5f8284036080811215610d11575f5ffd5b6060811215610d1e575f5ffd5b50610d27610bdf565b8335610d3281610a71565b81526020840135610d4281610a71565b60208201526040840135610d5581610a71565b6040820152915060608301356001600160401b03811115610d74575f5ffd5b8301601f81018513610d84575f5ffd5b80356001600160401b03811115610d9d57610d9d610bcb565b8060051b610dad60208201610c07565b91825260208184018101929081019088841115610dc8575f5ffd5b6020850192505b83831015610e6b5782356001600160401b03811115610dec575f5ffd5b85016060818b03601f19011215610e01575f5ffd5b610e09610bdf565b6020820135610e1781610a71565b81526040820135610e2781610a71565b602082015260608201356001600160401b03811115610e44575f5ffd5b610e538c602083860101610c37565b60408301525083525060209283019290910190610dcf565b80955050505050509250929050565b5f60208284031215610e8a575f5ffd5b81518015158114610e99575f5ffd5b9392505050565b5f5f60408385031215610eb1575f5ffd5b505080516020909101519092909150565b634e487b7160e01b5f52601160045260245ffd5b80820180821115610ee957610ee9610ec2565b92915050565b5f60208284031215610eff575f5ffd5b5051919050565b81810381811115610ee957610ee9610ec2565b81835281816020850137505f828201602090810191909152601f909101601f19169091010190565b5f608082018535610f5181610a71565b6001600160a01b031683526020860135610f6a81610a71565b6001600160a01b031660208401526040860135610f8681610a71565b6001600160a01b031660408401526080606084015283905260a0600584901b83018101908301855f605e1936839003015b8782101561107857868503609f190184528235818112610fd5575f5ffd5b89018035610fe281610a71565b6001600160a01b031686526020810135610ffb81610a71565b6001600160a01b03166020870152604081013536829003601e19018112611020575f5ffd5b016020810190356001600160401b0381111561103a575f5ffd5b803603821315611048575f5ffd5b6060604088015261105d606088018284610f19565b96505050602083019250602084019350600182019150610fb7565b509298975050505050505050565b5f81518084528060208401602086015e5f602082860101526020601f19601f83011685010191505092915050565b6001600160a01b03858116825284166020820152604081018390526080606082018190525f906110e690830184611086565b9695505050505050565b5f82518060208501845e5f920191825250919050565b634e487b7160e01b5f52603260045260245ffd5b602081525f610e99602083018461108656fea2646970667358221220aaf87a1a68df936faeecb816244896d701857e35a827e92f94d521e725915c6864736f6c634300081c0033",
  "language": "Solidity",
  "compiler": "0.8.28+commit.7893614a"
}