{
  "address": "0xA5B7Fa178151B29cb87b6c196D88249d94151A3B",
  "abi": [
    {
      "inputs": [],
      "name": "DOMAIN_SEPARATOR",
      "outputs": [
        {
          "internalType": "bytes32",
          "name": "",
          "type": "bytes32"
        }
      ],
      "stateMutability": "view",
      "type": "function"
    },
    {
      "inputs": [
        {
          "internalType": "address",
          "name": "owner",
          "type": "address"
        },
        {
          "internalType": "address",
          "name": "spender",
          "type": "address"
        }
      ],
      "name": "allowance",
      "outputs": [
        {
          "internalType": "uint256",
          "name": "",
          "type": "uint256"
        }
      ],
      "stateMutability": "view",
      "type": "function"
    },
    {
      "inputs": [
        {
          "internalType": "address",
          "name": "spender",
          "type": "address"
        },
        {
          "internalType": "uint256",
          "name": "value",
          "type": "uint256"
        }
      ],
      "name": "approve",
      "outputs": [
        {
          "internalType": "bool",
          "name": "result",
          "type": "bool"
        }
      ],
      "stateMutability": "nonpayable",
      "type": "function"
    },
    {
      "inputs": [
        {
          "internalType": "address",
          "name": "account",
          "type": "address"
        }
      ],
      "name": "balanceOf",
      "outputs": [
        {
          "internalType": "uint256",
          "name": "",
          "type": "uint256"
        }
      ],
      "stateMutability": "view",
      "type": "function"
    },
    {
      "inputs": [
        {
          "internalType": "address",
          "name": "_account",
          "type": "address"
        }
      ],
      "name": "balanceOfAndTotalSupply",
      "outputs": [
        {
          "internalType": "uint256",
          "name": "",
          "type": "uint256"
        },
        {
          "internalType": "uint256",
          "name": "",
          "type": "uint256"
        }
      ],
      "stateMutability": "view",
      "type": "function"
    },
    {
      "inputs": [
        {
          "internalType": "address",
          "name": "_owner",
          "type": "address"
        },
        {
          "internalType": "address",
          "name": "_spender",
          "type": "address"
        },
        {
          "internalType": "uint256",
          "name": "_amount",
          "type": "uint256"
        }
      ],
      "name": "burn",
      "outputs": [],
      "stateMutability": "nonpayable",
      "type": "function"
    },
    {
      "inputs": [],
      "name": "decimals",
      "outputs": [
        {
          "internalType": "uint8",
          "name": "",
          "type": "uint8"
        }
      ],
      "stateMutability": "view",
      "type": "function"
    },
    {
      "inputs": [],
      "name": "eip712Domain",
      "outputs": [
        {
          "internalType": "bytes1",
          "name": "fields",
          "type": "bytes1"
        },
        {
          "internalType": "string",
          "name": "name",
          "type": "string"
        },
        {
          "internalType": "string",
          "name": "version",
          "type": "string"
        },
        {
          "internalType": "uint256",
          "name": "chainId",
          "type": "uint256"
        },
        {
          "internalType": "address",
          "name": "verifyingContract",
          "type": "address"
        },
        {
          "internalType": "bytes32",
          "name": "salt",
          "type": "bytes32"
        },
        {
          "internalType": "uint256[]",
          "name": "extensions",
          "type": "uint256[]"
        }
      ],
      "stateMutability": "view",
      "type": "function"
    },
    {
      "inputs": [
        {
          "internalType": "address",
          "name": "_from",
          "type": "address"
        },
        {
          "internalType": "address",
          "name": "_to",
          "type": "address"
        },
        {
          "internalType": "uint256",
          "name": "_amount",
          "type": "uint256"
        }
      ],
      "name": "forwardTransferFromNoChecks",
      "outputs": [],
      "stateMutability": "nonpayable",
      "type": "function"
    },
    {
      "inputs": [],
      "name": "hookReceiver",
      "outputs": [
        {
          "internalType": "address",
          "name": "",
          "type": "address"
        }
      ],
      "stateMutability": "view",
      "type": "function"
    },
    {
      "inputs": [],
      "name": "hookSetup",
      "outputs": [
        {
          "components": [
            {
              "internalType": "address",
              "name": "hookReceiver",
              "type": "address"
            },
            {
              "internalType": "uint24",
              "name": "hooksBefore",
              "type": "uint24"
            },
            {
              "internalType": "uint24",
              "name": "hooksAfter",
              "type": "uint24"
            },
            {
              "internalType": "uint24",
              "name": "tokenType",
              "type": "uint24"
            }
          ],
          "internalType": "struct IShareToken.HookSetup",
          "name": "",
          "type": "tuple"
        }
      ],
      "stateMutability": "view",
      "type": "function"
    },
    {
      "inputs": [
        {
          "internalType": "contract ISilo",
          "name": "_silo",
          "type": "address"
        },
        {
          "internalType": "address",
          "name": "_hookReceiver",
          "type": "address"
        },
        {
          "internalType": "uint24",
          "name": "_tokenType",
          "type": "uint24"
        }
      ],
      "name": "initialize",
      "outputs": [],
      "stateMutability": "nonpayable",
      "type": "function"
    },
    {
      "inputs": [
        {
          "internalType": "address",
          "name": "_owner",
          "type": "address"
        },
        {
          "internalType": "address",
          "name": "",
          "type": "address"
        },
        {
          "internalType": "uint256",
          "name": "_amount",
          "type": "uint256"
        }
      ],
      "name": "mint",
      "outputs": [],
      "stateMutability": "nonpayable",
      "type": "function"
    },
    {
      "inputs": [],
      "name": "name",
      "outputs": [
        {
          "internalType": "string",
          "name": "",
          "type": "string"
        }
      ],
      "stateMutability": "view",
      "type": "function"
    },
    {
      "inputs": [
        {
          "internalType": "address",
          "name": "owner",
          "type": "address"
        }
      ],
      "name": "nonces",
      "outputs": [
        {
          "internalType": "uint256",
          "name": "",
          "type": "uint256"
        }
      ],
      "stateMutability": "view",
      "type": "function"
    },
    {
      "inputs": [
        {
          "internalType": "address",
          "name": "owner",
          "type": "address"
        },
        {
          "internalType": "address",
          "name": "spender",
          "type": "address"
        },
        {
          "internalType": "uint256",
          "name": "value",
          "type": "uint256"
        },
        {
          "internalType": "uint256",
          "name": "deadline",
          "type": "uint256"
        },
        {
          "internalType": "uint8",
          "name": "v",
          "type": "uint8"
        },
        {
          "internalType": "bytes32",
          "name": "r",
          "type": "bytes32"
        },
        {
          "internalType": "bytes32",
          "name": "s",
          "type": "bytes32"
        }
      ],
      "name": "permit",
      "outputs": [],
      "stateMutability": "nonpayable",
      "type": "function"
    },
    {
      "inputs": [],
      "name": "silo",
      "outputs": [
        {
          "internalType": "contract ISilo",
          "name": "",
          "type": "address"
        }
      ],
      "stateMutability": "view",
      "type": "function"
    },
    {
      "inputs": [],
      "name": "siloConfig",
      "outputs": [
        {
          "internalType": "contract ISiloConfig",
          "name": "",
          "type": "address"
        }
      ],
      "stateMutability": "view",
      "type": "function"
    },
    {
      "inputs": [],
      "name": "symbol",
      "outputs": [
        {
          "internalType": "string",
          "name": "",
          "type": "string"
        }
      ],
      "stateMutability": "view",
      "type": "function"
    },
    {
      "inputs": [
        {
          "internalType": "uint24",
          "name": "_hooksBefore",
          "type": "uint24"
        },
        {
          "internalType": "uint24",
          "name": "_hooksAfter",
          "type": "uint24"
        }
      ],
      "name": "synchronizeHooks",
      "outputs": [],
      "stateMutability": "nonpayable",
      "type": "function"
    },
    {
      "inputs": [],
      "name": "totalSupply",
      "outputs": [
        {
          "internalType": "uint256",
          "name": "",
          "type": "uint256"
        }
      ],
      "stateMutability": "view",
      "type": "function"
    },
    {
      "inputs": [
        {
          "internalType": "address",
          "name": "_to",
          "type": "address"
        },
        {
          "internalType": "uint256",
          "name": "_amount",
          "type": "uint256"
        }
      ],
      "name": "transfer",
      "outputs": [
        {
          "internalType": "bool",
          "name": "result",
          "type": "bool"
        }
      ],
      "stateMutability": "nonpayable",
      "type": "function"
    },
    {
      "inputs": [
        {
          "internalType": "address",
          "name": "_from",
          "type": "address"
        },
        {
          "internalType": "address",
          "name": "_to",
          "type": "address"
        },
        {
          "internalType": "uint256",
          "name": "_amount",
          "type": "uint256"
        }
      ],
      "name": "transferFrom",
      "outputs": [
        {
          "internalType": "bool",
          "name": "result",
          "type": "bool"
        }
      ],
      "stateMutability": "nonpayable",
      "type": "function"
    },
    {
      "anonymous": false,
      "inputs": [
        {
          "indexed": true,
          "internalType": "address",
          "name": "owner",
          "type": "address"
        },
        {
          "indexed": true,
          "internalType": "address",
          "name": "spender",
          "type": "address"
        },
        {
          "indexed": false,
          "internalType": "uint256",
          "name": "value",
          "type": "uint256"
        }
      ],
      "name": "Approval",
      "type": "event"
    },
    {
      "anonymous": false,
      "inputs": [],
      "name": "EIP712DomainChanged",
      "type": "event"
    },
    {
      "anonymous": false,
      "inputs": [
        {
          "indexed": false,
          "internalType": "uint64",
          "name": "version",
          "type": "uint64"
        }
      ],
      "name": "Initialized",
      "type": "event"
    },
    {
      "anonymous": false,
      "inputs": [
        {
          "indexed": true,
          "internalType": "address",
          "name": "notificationReceiver",
          "type": "address"
        },
        {
          "indexed": false,
          "internalType": "bool",
          "name": "success",
          "type": "bool"
        }
      ],
      "name": "NotificationSent",
      "type": "event"
    },
    {
      "anonymous": false,
      "inputs": [
        {
          "indexed": true,
          "internalType": "address",
          "name": "from",
          "type": "address"
        },
        {
          "indexed": true,
          "internalType": "address",
          "name": "to",
          "type": "address"
        },
        {
          "indexed": false,
          "internalType": "uint256",
          "name": "value",
          "type": "uint256"
        }
      ],
      "name": "Transfer",
      "type": "event"
    },
    {
      "inputs": [],
      "name": "AmountExceedsAllowance",
      "type": "error"
    },
    {
      "inputs": [],
      "name": "CrossReentrantCall",
      "type": "error"
    },
    {
      "inputs": [],
      "name": "ECDSAInvalidSignature",
      "type": "error"
    },
    {
      "inputs": [
        {
          "internalType": "uint256",
          "name": "length",
          "type": "uint256"
        }
      ],
      "name": "ECDSAInvalidSignatureLength",
      "type": "error"
    },
    {
      "inputs": [
        {
          "internalType": "bytes32",
          "name": "s",
          "type": "bytes32"
        }
      ],
      "name": "ECDSAInvalidSignatureS",
      "type": "error"
    },
    {
      "inputs": [
        {
          "internalType": "address",
          "name": "spender",
          "type": "address"
        },
        {
          "internalType": "uint256",
          "name": "allowance",
          "type": "uint256"
        },
        {
          "internalType": "uint256",
          "name": "needed",
          "type": "uint256"
        }
      ],
      "name": "ERC20InsufficientAllowance",
      "type": "error"
    },
    {
      "inputs": [
        {
          "internalType": "address",
          "name": "sender",
          "type": "address"
        },
        {
          "internalType": "uint256",
          "name": "balance",
          "type": "uint256"
        },
        {
          "internalType": "uint256",
          "name": "needed",
          "type": "uint256"
        }
      ],
      "name": "ERC20InsufficientBalance",
      "type": "error"
    },
    {
      "inputs": [
        {
          "internalType": "address",
          "name": "approver",
          "type": "address"
        }
      ],
      "name": "ERC20InvalidApprover",
      "type": "error"
    },
    {
      "inputs": [
        {
          "internalType": "address",
          "name": "receiver",
          "type": "address"
        }
      ],
      "name": "ERC20InvalidReceiver",
      "type": "error"
    },
    {
      "inputs": [
        {
          "internalType": "address",
          "name": "sender",
          "type": "address"
        }
      ],
      "name": "ERC20InvalidSender",
      "type": "error"
    },
    {
      "inputs": [
        {
          "internalType": "address",
          "name": "spender",
          "type": "address"
        }
      ],
      "name": "ERC20InvalidSpender",
      "type": "error"
    },
    {
      "inputs": [
        {
          "internalType": "uint256",
          "name": "deadline",
          "type": "uint256"
        }
      ],
      "name": "ERC2612ExpiredSignature",
      "type": "error"
    },
    {
      "inputs": [
        {
          "internalType": "address",
          "name": "signer",
          "type": "address"
        },
        {
          "internalType": "address",
          "name": "owner",
          "type": "address"
        }
      ],
      "name": "ERC2612InvalidSigner",
      "type": "error"
    },
    {
      "inputs": [],
      "name": "Forbidden",
      "type": "error"
    },
    {
      "inputs": [
        {
          "internalType": "address",
          "name": "account",
          "type": "address"
        },
        {
          "internalType": "uint256",
          "name": "currentNonce",
          "type": "uint256"
        }
      ],
      "name": "InvalidAccountNonce",
      "type": "error"
    },
    {
      "inputs": [],
      "name": "InvalidInitialization",
      "type": "error"
    },
    {
      "inputs": [],
      "name": "NotInitializing",
      "type": "error"
    },
    {
      "inputs": [],
      "name": "OnlySilo",
      "type": "error"
    },
    {
      "inputs": [],
      "name": "OnlySiloConfig",
      "type": "error"
    },
    {
      "inputs": [],
      "name": "OwnerIsZero",
      "type": "error"
    },
    {
      "inputs": [],
      "name": "RecipientIsZero",
      "type": "error"
    },
    {
      "inputs": [],
      "name": "RecipientNotSolventAfterTransfer",
      "type": "error"
    },
    {
      "inputs": [],
      "name": "SenderNotSolventAfterTransfer",
      "type": "error"
    },
    {
      "inputs": [],
      "name": "ShareTransferNotAllowed",
      "type": "error"
    },
    {
      "inputs": [],
      "name": "ZeroTransfer",
      "type": "error"
    }
  ],
  "bytecode": "0x608060405234801561000f575f80fd5b5061001861001d565b6100cf565b7ff0c57e16840df040f15088dc2f81fe391c3923bec73e23a9662efc9c229c6a00805468010000000000000000900460ff161561006d5760405163f92ee8a960e01b815260040160405180910390fd5b80546001600160401b03908116146100cc5780546001600160401b0319166001600160401b0390811782556040519081527fc7f505b2f371ae2175ee4913f4499e1f2633a7b5936321eed1cdaeb6115181d29060200160405180910390a15b50565b611fc0806100dc5f395ff3fe608060405234801561000f575f80fd5b5060043610610148575f3560e01c806384b0196e116100bf578063d714fd1911610079578063d714fd19146103af578063d985616c146103b7578063dce5c2db146103ca578063dd62ed3e146103f2578063eb3beb2914610405578063f6b911bc1461040d575f80fd5b806384b0196e1461030f5780638fea80621461032a57806395d89b411461036e578063a9059cbb14610376578063c6c3bbe614610389578063d505accf1461039c575f80fd5b8063313ce56711610110578063313ce5671461029f578063336c8d70146102b95780633644e515146102ce5780634c7b0f3c146102d657806370a08231146102e95780637ecebe00146102fc575f80fd5b806306fdde031461014c578063095ea7b31461016a5780630ed4fe311461018d57806318160ddd1461025b57806323b872dd1461028c575b5f80fd5b610154610420565b6040516101619190611a19565b60405180910390f35b61017d610178366004611a3f565b610494565b6040519015158152602001610161565b610212604080516080810182525f8082526020820181905291810182905260608101919091525f80516020611f2b83398151915260408051608081018252600292909201546001600160a01b038116835262ffffff600160a01b820481166020850152600160b81b8204811692840192909252600160d01b9004166060820152919050565b604051610161919081516001600160a01b0316815260208083015162ffffff90811691830191909152604080840151821690830152606092830151169181019190915260800190565b7f52c63247e1f47db19d5ce0460030c497f067ca4cebf71ba98eeadabe20bace02545b604051908152602001610161565b61017d61029a366004611a69565b6104b6565b6102a7610525565b60405160ff9091168152602001610161565b6102cc6102c7366004611abe565b610591565b005b61027e6105a1565b6102cc6102e4366004611b02565b6105aa565b61027e6102f7366004611b33565b61063e565b61027e61030a366004611b33565b61066e565b61031761067e565b6040516101619796959493929190611b4e565b7f01b0b3f9d6e360167e522fa2b18ba597ad7b2b35841fec7e1ca4dbb0adea1202546001600160a01b03165b6040516001600160a01b039091168152602001610161565b61015461072c565b61017d610384366004611a3f565b610774565b6102cc610397366004611a69565b6107e1565b6102cc6103aa366004611bf3565b610824565b610356610847565b6102cc6103c5366004611a69565b610850565b6103dd6103d8366004611b33565b6108de565b60408051928352602083019190915201610161565b61027e610400366004611c5f565b610914565b61035661095d565b6102cc61041b366004611a69565b610966565b606073__$e36323ec861de5853ea34405a6a6c240f5$__6306fdde036040518163ffffffff1660e01b81526004015f60405180830381865af4158015610468573d5f803e3d5ffd5b505050506040513d5f823e601f3d908101601f1916820160405261048f9190810190611caa565b905090565b5f6104a56104a06109cd565b6109fb565b6104af8383610a7c565b9392505050565b5f806104c0610a93565b90506104cd858585610aef565b9150806001600160a01b03166362402b046040518163ffffffff1660e01b81526004015f604051808303815f87803b158015610507575f80fd5b505af1158015610519573d5f803e3d5ffd5b50505050509392505050565b5f73__$e36323ec861de5853ea34405a6a6c240f5$__63313ce5676040518163ffffffff1660e01b8152600401602060405180830381865af415801561056d573d5f803e3d5ffd5b505050506040513d601f19601f8201168201806040525081019061048f9190611d52565b61059c838383610b12565b505050565b5f61048f610d18565b6105b2610d21565b6001600160a01b0316336001600160a01b0316146105e3576040516310528c6d60e11b815260040160405180910390fd5b7f01b0b3f9d6e360167e522fa2b18ba597ad7b2b35841fec7e1ca4dbb0adea1202805465ffffffffffff60a01b1916600160a01b62ffffff9485160262ffffff60b81b191617600160b81b9290931691909102919091179055565b5f805f80516020611f4b8339815191525b6001600160a01b039093165f9081526020939093525050604090205490565b5f61067882610d3c565b92915050565b5f60608082808083815f80516020611f6b83398151915280549091501580156106a957506001810154155b6106f25760405162461bcd60e51b81526020600482015260156024820152741152540dcc4c8e88155b9a5b9a5d1a585b1a5e9959605a1b60448201526064015b60405180910390fd5b6106fa610d64565b610702610e24565b604080515f80825260208201909252600f60f81b9c939b5091995046985030975095509350915050565b606073__$e36323ec861de5853ea34405a6a6c240f5$__6395d89b416040518163ffffffff1660e01b81526004015f60405180830381865af4158015610468573d5f803e3d5ffd5b5f8061077e610a93565b905061078a8484610e62565b9150806001600160a01b03166362402b046040518163ffffffff1660e01b81526004015f604051808303815f87803b1580156107c4575f80fd5b505af11580156107d6573d5f803e3d5ffd5b505050505092915050565b6107e9610d21565b6001600160a01b0316336001600160a01b03161461081a576040516310528c6d60e11b815260040160405180910390fd5b61059c8382610e6f565b61082f6104a06109cd565b61083e87878787878787610ea7565b50505050505050565b5f61048f6109cd565b610858610d21565b6001600160a01b0316336001600160a01b031614610889576040516310528c6d60e11b815260040160405180910390fd5b7f01b0b3f9d6e360167e522fa2b18ba597ad7b2b35841fec7e1ca4dbb0adea1203805460ff191690555f80516020611f2b8339815191526108cb848484610ffc565b600301805460ff19166001179055505050565b5f806108e98361063e565b7f52c63247e1f47db19d5ce0460030c497f067ca4cebf71ba98eeadabe20bace025491509150915091565b6001600160a01b039182165f9081527f52c63247e1f47db19d5ce0460030c497f067ca4cebf71ba98eeadabe20bace016020908152604080832093909416825291909152205490565b5f61048f610d21565b61096e610d21565b6001600160a01b0316336001600160a01b03161461099f576040516310528c6d60e11b815260040160405180910390fd5b816001600160a01b0316836001600160a01b0316146109c3576109c3838383611059565b61059c83826110bc565b7f01b0b3f9d6e360167e522fa2b18ba597ad7b2b35841fec7e1ca4dbb0adea1201546001600160a01b031690565b806001600160a01b031663d2c725e06040518163ffffffff1660e01b8152600401602060405180830381865afa158015610a37573d5f803e3d5ffd5b505050506040513d601f19601f82011682018060405250810190610a5b9190611d6d565b15610a795760405163e17fbf8960e01b815260040160405180910390fd5b50565b5f33610a898185856110f0565b5060019392505050565b5f610a9c6109cd565b9050806001600160a01b0316639dd413306040518163ffffffff1660e01b81526004015f604051808303815f87803b158015610ad6575f80fd5b505af1158015610ae8573d5f803e3d5ffd5b5050505090565b5f33610afc858285611059565b610b07858585610ffc565b506001949350505050565b7ff0c57e16840df040f15088dc2f81fe391c3923bec73e23a9662efc9c229c6a008054600160401b810460ff16159067ffffffffffffffff165f81158015610b575750825b90505f8267ffffffffffffffff166001148015610b735750303b155b905081158015610b81575080155b15610b9f5760405163f92ee8a960e01b815260040160405180910390fd5b845467ffffffffffffffff191660011785558315610bc957845460ff60401b1916600160401b1785555b610bf86040518060400160405280600e81526020016d29b4b637a9b430b932aa37b5b2b760911b8152506110fd565b610c4e6040518060400160405280600e81526020016d29b4b637a9b430b932aa37b5b2b760911b8152506040518060400160405280600e81526020016d29b4b637a9b430b932aa37b5b2b760911b815250611128565b604051631983f68f60e21b81526001600160a01b03808a1660048301528816602482015262ffffff8716604482015273__$e36323ec861de5853ea34405a6a6c240f5$__9063660fda3c906064015f6040518083038186803b158015610cb2575f80fd5b505af4158015610cc4573d5f803e3d5ffd5b505050508315610d0e57845460ff60401b19168555604051600181527fc7f505b2f371ae2175ee4913f4499e1f2633a7b5936321eed1cdaeb6115181d29060200160405180910390a15b5050505050505050565b5f61048f61113a565b5f80516020611f2b833981519152546001600160a01b031690565b5f807f5ab42ced628888259c08ac98db1eb0cf702fc1501344311d8b100cd1bfe4bb0061064f565b7fa16a46d94261c7517cc8ff89f61c0ce93598e3c849801011dee649a6a557d10280546060915f80516020611f6b83398151915291610da290611d8c565b80601f0160208091040260200160405190810160405280929190818152602001828054610dce90611d8c565b8015610e195780601f10610df057610100808354040283529160200191610e19565b820191905f5260205f20905b815481529060010190602001808311610dfc57829003601f168201915b505050505091505090565b7fa16a46d94261c7517cc8ff89f61c0ce93598e3c849801011dee649a6a557d10380546060915f80516020611f6b83398151915291610da290611d8c565b5f33610a89818585610ffc565b6001600160a01b038216610e985760405163ec442f0560e01b81525f60048201526024016106e9565b610ea35f83836111ad565b5050565b83421115610ecb5760405163313c898160e11b8152600481018590526024016106e9565b5f7f6e71edae12b1b97f4d1f60370fef10105fa2faae0126114a169c64845d6126c9888888610f358c6001600160a01b03165f9081527f5ab42ced628888259c08ac98db1eb0cf702fc1501344311d8b100cd1bfe4bb006020526040902080546001810190915590565b6040805160208101969096526001600160a01b0394851690860152929091166060840152608083015260a082015260c0810186905260e0016040516020818303038152906040528051906020012090505f610f8f826111e3565b90505f610f9e8287878761120f565b9050896001600160a01b0316816001600160a01b031614610fe5576040516325c0072360e11b81526001600160a01b0380831660048301528b1660248201526044016106e9565b610ff08a8a8a6110f0565b50505050505050505050565b6001600160a01b03831661102557604051634b637e8f60e11b81525f60048201526024016106e9565b6001600160a01b03821661104e5760405163ec442f0560e01b81525f60048201526024016106e9565b61059c8383836111ad565b5f6110648484610914565b90505f1981146110b657818110156110a857604051637dc7a0d960e11b81526001600160a01b038416600482015260248101829052604481018390526064016106e9565b6110b684848484035f61123b565b50505050565b6001600160a01b0382166110e557604051634b637e8f60e11b81525f60048201526024016106e9565b610ea3825f836111ad565b61059c838383600161123b565b61110561131f565b610a7981604051806040016040528060018152602001603160f81b81525061136a565b61113061131f565b610ea382826113c9565b5f7f8b73c3c69bb8fe3d512ecc4cf759cc79239f7b179b0ffacaa9a75d522b39400f611164611419565b61116c611481565b60408051602081019490945283019190915260608201524660808201523060a082015260c00160405160208183030381529060405280519060200120905090565b805f036111cd576040516310cadee360e01b815260040160405180910390fd5b6111d88383836114c3565b61059c8383836115fc565b5f6106786111ef610d18565b8360405161190160f01b8152600281019290925260228201526042902090565b5f805f8061121f888888886116ab565b92509250925061122f8282611773565b50909695505050505050565b5f80516020611f4b8339815191526001600160a01b0385166112725760405163e602df0560e01b81525f60048201526024016106e9565b6001600160a01b03841661129b57604051634a1406b160e11b81525f60048201526024016106e9565b6001600160a01b038086165f9081526001830160209081526040808320938816835292905220839055811561131857836001600160a01b0316856001600160a01b03167f8c5be1e5ebec7d5bd14f71427d1e84f3dd0314c0f7b2291e5b200ac8c7c3b9258560405161130f91815260200190565b60405180910390a35b5050505050565b7ff0c57e16840df040f15088dc2f81fe391c3923bec73e23a9662efc9c229c6a0054600160401b900460ff1661136857604051631afcd79f60e31b815260040160405180910390fd5b565b61137261131f565b5f80516020611f6b8339815191527fa16a46d94261c7517cc8ff89f61c0ce93598e3c849801011dee649a6a557d1026113ab8482611e08565b50600381016113ba8382611e08565b505f8082556001909101555050565b6113d161131f565b5f80516020611f4b8339815191527f52c63247e1f47db19d5ce0460030c497f067ca4cebf71ba98eeadabe20bace0361140a8482611e08565b50600481016110b68382611e08565b5f5f80516020611f6b83398151915281611431610d64565b80519091501561144957805160209091012092915050565b81548015611458579392505050565b7fc5d2460186f7233c927e7db2dcc703c0e500b653ca82273b7bfad8045d85a470935050505090565b5f5f80516020611f6b83398151915281611499610e24565b8051909150156114b157805160209091012092915050565b60018201548015611458579392505050565b5f80516020611f4b8339815191526001600160a01b0384166114fd5781816002015f8282546114f29190611ec8565b9091555061156d9050565b6001600160a01b0384165f908152602082905260409020548281101561154f5760405163391434e360e21b81526001600160a01b038616600482015260248101829052604481018490526064016106e9565b6001600160a01b0385165f9081526020839052604090209083900390555b6001600160a01b03831661158b5760028101805483900390556115a9565b6001600160a01b0383165f9081526020829052604090208054830190555b826001600160a01b0316846001600160a01b03167fddf252ad1be2c89b69c2b068fc378daa952ba7f163c4a11628f55a4df523b3ef846040516115ee91815260200190565b60405180910390a350505050565b5f80516020611f2b833981519152611614848461182b565b80156116245750600381015460ff165b156116a057604051636fb12c5f60e11b81526001600160a01b038086166004830152841660248201526044810183905273__$0c603b63fef61d2abd9717344845f11cca$__9063df6258be906064015f6040518083038186803b158015611689575f80fd5b505af415801561169b573d5f803e3d5ffd5b505050505b6110b6848484611850565b5f80807f7fffffffffffffffffffffffffffffff5d576e7357a4501ddfe92f46681b20a08411156116e457505f91506003905082611769565b604080515f808252602082018084528a905260ff891692820192909252606081018790526080810186905260019060a0016020604051602081039080840390855afa158015611735573d5f803e3d5ffd5b5050604051601f1901519150506001600160a01b03811661176057505f925060019150829050611769565b92505f91508190505b9450945094915050565b5f82600381111561178657611786611ee7565b0361178f575050565b60018260038111156117a3576117a3611ee7565b036117c15760405163f645eedf60e01b815260040160405180910390fd5b60028260038111156117d5576117d5611ee7565b036117f65760405163fce698f760e01b8152600481018290526024016106e9565b600382600381111561180a5761180a611ee7565b03610ea3576040516335e2f38360e21b8152600481018290526024016106e9565b5f6001600160a01b038316158015906104af5750506001600160a01b03161515919050565b604080516080810182527f01b0b3f9d6e360167e522fa2b18ba597ad7b2b35841fec7e1ca4dbb0adea1202546001600160a01b038116825262ffffff600160a01b820481166020840152600160b81b820480821694840194909452600160d01b9091048116606083018190525f80516020611f2b83398151915293610800909117919082161681146118e457505050505050565b815183546001600160a01b039182169163aef282359116838989896119088361063e565b6119118d61063e565b7f52c63247e1f47db19d5ce0460030c497f067ca4cebf71ba98eeadabe20bace02546040516bffffffffffffffffffffffff19606097881b811660208301529590961b909416603486015260488501929092526068840152608883015260a882015260c8016040516020818303038152906040526040518463ffffffff1660e01b81526004016119a393929190611efb565b5f604051808303815f87803b1580156119ba575f80fd5b505af1158015610ff0573d5f803e3d5ffd5b5f5b838110156119e65781810151838201526020016119ce565b50505f910152565b5f8151808452611a058160208601602086016119cc565b601f01601f19169290920160200192915050565b602081525f6104af60208301846119ee565b6001600160a01b0381168114610a79575f80fd5b5f8060408385031215611a50575f80fd5b8235611a5b81611a2b565b946020939093013593505050565b5f805f60608486031215611a7b575f80fd5b8335611a8681611a2b565b92506020840135611a9681611a2b565b929592945050506040919091013590565b803562ffffff81168114611ab9575f80fd5b919050565b5f805f60608486031215611ad0575f80fd5b8335611adb81611a2b565b92506020840135611aeb81611a2b565b9150611af960408501611aa7565b90509250925092565b5f8060408385031215611b13575f80fd5b611b1c83611aa7565b9150611b2a60208401611aa7565b90509250929050565b5f60208284031215611b43575f80fd5b81356104af81611a2b565b60ff60f81b881681525f602060e06020840152611b6e60e084018a6119ee565b8381036040850152611b80818a6119ee565b606085018990526001600160a01b038816608086015260a0850187905284810360c0860152855180825260208088019350909101905f5b81811015611bd357835183529284019291840191600101611bb7565b50909c9b505050505050505050505050565b60ff81168114610a79575f80fd5b5f805f805f805f60e0888a031215611c09575f80fd5b8735611c1481611a2b565b96506020880135611c2481611a2b565b955060408801359450606088013593506080880135611c4281611be5565b9699959850939692959460a0840135945060c09093013592915050565b5f8060408385031215611c70575f80fd5b8235611c7b81611a2b565b91506020830135611c8b81611a2b565b809150509250929050565b634e487b7160e01b5f52604160045260245ffd5b5f60208284031215611cba575f80fd5b815167ffffffffffffffff80821115611cd1575f80fd5b818401915084601f830112611ce4575f80fd5b815181811115611cf657611cf6611c96565b604051601f8201601f19908116603f01168101908382118183101715611d1e57611d1e611c96565b81604052828152876020848701011115611d36575f80fd5b611d478360208301602088016119cc565b979650505050505050565b5f60208284031215611d62575f80fd5b81516104af81611be5565b5f60208284031215611d7d575f80fd5b815180151581146104af575f80fd5b600181811c90821680611da057607f821691505b602082108103611dbe57634e487b7160e01b5f52602260045260245ffd5b50919050565b601f82111561059c57805f5260205f20601f840160051c81016020851015611de95750805b601f840160051c820191505b81811015611318575f8155600101611df5565b815167ffffffffffffffff811115611e2257611e22611c96565b611e3681611e308454611d8c565b84611dc4565b602080601f831160018114611e69575f8415611e525750858301515b5f19600386901b1c1916600185901b178555611ec0565b5f85815260208120601f198616915b82811015611e9757888601518255948401946001909101908401611e78565b5085821015611eb457878501515f19600388901b60f8161c191681555b505060018460011b0185555b505050505050565b8082018082111561067857634e487b7160e01b5f52601160045260245ffd5b634e487b7160e01b5f52602160045260245ffd5b60018060a01b0384168152826020820152606060408201525f611f2160608301846119ee565b9594505050505056fe01b0b3f9d6e360167e522fa2b18ba597ad7b2b35841fec7e1ca4dbb0adea120052c63247e1f47db19d5ce0460030c497f067ca4cebf71ba98eeadabe20bace00a16a46d94261c7517cc8ff89f61c0ce93598e3c849801011dee649a6a557d100a264697066735822122090b89173c6e593ecdeff27a5ee72484e6b5fad91f03a295436dd7c21110b0d1c64736f6c63430008180033",
  "language": "Solidity",
  "compiler": "0.8.24+commit.e11b9ed9"
}