{
  "address": "0x95fB4B8EEf1dbdDb6937974EA42cEC14dAa1204e",
  "abi": [
    {
      "inputs": [],
      "name": "Forbidden",
      "type": "error"
    },
    {
      "inputs": [],
      "name": "OnlySilo",
      "type": "error"
    },
    {
      "inputs": [],
      "name": "SenderNotSolventAfterTransfer",
      "type": "error"
    },
    {
      "inputs": [],
      "name": "ShareTransferNotAllowed",
      "type": "error"
    },
    {
      "inputs": [],
      "name": "TokenIsNotAContract",
      "type": "error"
    },
    {
      "anonymous": false,
      "inputs": [
        {
          "indexed": true,
          "internalType": "address",
          "name": "owner",
          "type": "address"
        },
        {
          "indexed": true,
          "internalType": "address",
          "name": "spender",
          "type": "address"
        },
        {
          "indexed": false,
          "internalType": "uint256",
          "name": "value",
          "type": "uint256"
        }
      ],
      "name": "Approval",
      "type": "event"
    },
    {
      "anonymous": false,
      "inputs": [
        {
          "indexed": false,
          "internalType": "uint8",
          "name": "version",
          "type": "uint8"
        }
      ],
      "name": "Initialized",
      "type": "event"
    },
    {
      "anonymous": false,
      "inputs": [
        {
          "indexed": true,
          "internalType": "address",
          "name": "notificationReceiver",
          "type": "address"
        },
        {
          "indexed": false,
          "internalType": "bool",
          "name": "success",
          "type": "bool"
        }
      ],
      "name": "NotificationSent",
      "type": "event"
    },
    {
      "anonymous": false,
      "inputs": [
        {
          "indexed": true,
          "internalType": "address",
          "name": "from",
          "type": "address"
        },
        {
          "indexed": true,
          "internalType": "address",
          "name": "to",
          "type": "address"
        },
        {
          "indexed": false,
          "internalType": "uint256",
          "name": "value",
          "type": "uint256"
        }
      ],
      "name": "Transfer",
      "type": "event"
    },
    {
      "inputs": [
        {
          "internalType": "address",
          "name": "owner",
          "type": "address"
        },
        {
          "internalType": "address",
          "name": "spender",
          "type": "address"
        }
      ],
      "name": "allowance",
      "outputs": [
        {
          "internalType": "uint256",
          "name": "",
          "type": "uint256"
        }
      ],
      "stateMutability": "view",
      "type": "function"
    },
    {
      "inputs": [
        {
          "internalType": "address",
          "name": "spender",
          "type": "address"
        },
        {
          "internalType": "uint256",
          "name": "amount",
          "type": "uint256"
        }
      ],
      "name": "approve",
      "outputs": [
        {
          "internalType": "bool",
          "name": "",
          "type": "bool"
        }
      ],
      "stateMutability": "nonpayable",
      "type": "function"
    },
    {
      "inputs": [
        {
          "internalType": "address",
          "name": "account",
          "type": "address"
        }
      ],
      "name": "balanceOf",
      "outputs": [
        {
          "internalType": "uint256",
          "name": "",
          "type": "uint256"
        }
      ],
      "stateMutability": "view",
      "type": "function"
    },
    {
      "inputs": [
        {
          "internalType": "address",
          "name": "_account",
          "type": "address"
        }
      ],
      "name": "balanceOfAndTotalSupply",
      "outputs": [
        {
          "internalType": "uint256",
          "name": "",
          "type": "uint256"
        },
        {
          "internalType": "uint256",
          "name": "",
          "type": "uint256"
        }
      ],
      "stateMutability": "view",
      "type": "function"
    },
    {
      "inputs": [
        {
          "internalType": "address",
          "name": "_owner",
          "type": "address"
        },
        {
          "internalType": "address",
          "name": "_spender",
          "type": "address"
        },
        {
          "internalType": "uint256",
          "name": "_amount",
          "type": "uint256"
        }
      ],
      "name": "burn",
      "outputs": [],
      "stateMutability": "nonpayable",
      "type": "function"
    },
    {
      "inputs": [],
      "name": "decimals",
      "outputs": [
        {
          "internalType": "uint8",
          "name": "",
          "type": "uint8"
        }
      ],
      "stateMutability": "view",
      "type": "function"
    },
    {
      "inputs": [
        {
          "internalType": "address",
          "name": "spender",
          "type": "address"
        },
        {
          "internalType": "uint256",
          "name": "subtractedValue",
          "type": "uint256"
        }
      ],
      "name": "decreaseAllowance",
      "outputs": [
        {
          "internalType": "bool",
          "name": "",
          "type": "bool"
        }
      ],
      "stateMutability": "nonpayable",
      "type": "function"
    },
    {
      "inputs": [
        {
          "internalType": "address",
          "name": "_owner",
          "type": "address"
        },
        {
          "internalType": "address",
          "name": "_spender",
          "type": "address"
        },
        {
          "internalType": "uint256",
          "name": "_amount",
          "type": "uint256"
        }
      ],
      "name": "forwardApprove",
      "outputs": [],
      "stateMutability": "nonpayable",
      "type": "function"
    },
    {
      "inputs": [
        {
          "internalType": "address",
          "name": "_owner",
          "type": "address"
        },
        {
          "internalType": "address",
          "name": "_recipient",
          "type": "address"
        },
        {
          "internalType": "uint256",
          "name": "_amount",
          "type": "uint256"
        }
      ],
      "name": "forwardTransfer",
      "outputs": [],
      "stateMutability": "nonpayable",
      "type": "function"
    },
    {
      "inputs": [
        {
          "internalType": "address",
          "name": "_spender",
          "type": "address"
        },
        {
          "internalType": "address",
          "name": "_from",
          "type": "address"
        },
        {
          "internalType": "address",
          "name": "_to",
          "type": "address"
        },
        {
          "internalType": "uint256",
          "name": "_amount",
          "type": "uint256"
        }
      ],
      "name": "forwardTransferFrom",
      "outputs": [],
      "stateMutability": "nonpayable",
      "type": "function"
    },
    {
      "inputs": [],
      "name": "hookReceiver",
      "outputs": [
        {
          "internalType": "address",
          "name": "",
          "type": "address"
        }
      ],
      "stateMutability": "view",
      "type": "function"
    },
    {
      "inputs": [
        {
          "internalType": "address",
          "name": "spender",
          "type": "address"
        },
        {
          "internalType": "uint256",
          "name": "addedValue",
          "type": "uint256"
        }
      ],
      "name": "increaseAllowance",
      "outputs": [
        {
          "internalType": "bool",
          "name": "",
          "type": "bool"
        }
      ],
      "stateMutability": "nonpayable",
      "type": "function"
    },
    {
      "inputs": [
        {
          "internalType": "contract ISilo",
          "name": "_silo",
          "type": "address"
        },
        {
          "internalType": "address",
          "name": "_hookReceiver",
          "type": "address"
        }
      ],
      "name": "initialize",
      "outputs": [],
      "stateMutability": "nonpayable",
      "type": "function"
    },
    {
      "inputs": [
        {
          "internalType": "address",
          "name": "_owner",
          "type": "address"
        },
        {
          "internalType": "address",
          "name": "",
          "type": "address"
        },
        {
          "internalType": "uint256",
          "name": "_amount",
          "type": "uint256"
        }
      ],
      "name": "mint",
      "outputs": [],
      "stateMutability": "nonpayable",
      "type": "function"
    },
    {
      "inputs": [],
      "name": "name",
      "outputs": [
        {
          "internalType": "string",
          "name": "",
          "type": "string"
        }
      ],
      "stateMutability": "view",
      "type": "function"
    },
    {
      "inputs": [],
      "name": "silo",
      "outputs": [
        {
          "internalType": "contract ISilo",
          "name": "",
          "type": "address"
        }
      ],
      "stateMutability": "view",
      "type": "function"
    },
    {
      "inputs": [],
      "name": "symbol",
      "outputs": [
        {
          "internalType": "string",
          "name": "",
          "type": "string"
        }
      ],
      "stateMutability": "view",
      "type": "function"
    },
    {
      "inputs": [],
      "name": "totalSupply",
      "outputs": [
        {
          "internalType": "uint256",
          "name": "",
          "type": "uint256"
        }
      ],
      "stateMutability": "view",
      "type": "function"
    },
    {
      "inputs": [
        {
          "internalType": "address",
          "name": "to",
          "type": "address"
        },
        {
          "internalType": "uint256",
          "name": "amount",
          "type": "uint256"
        }
      ],
      "name": "transfer",
      "outputs": [
        {
          "internalType": "bool",
          "name": "",
          "type": "bool"
        }
      ],
      "stateMutability": "nonpayable",
      "type": "function"
    },
    {
      "inputs": [
        {
          "internalType": "address",
          "name": "from",
          "type": "address"
        },
        {
          "internalType": "address",
          "name": "to",
          "type": "address"
        },
        {
          "internalType": "uint256",
          "name": "amount",
          "type": "uint256"
        }
      ],
      "name": "transferFrom",
      "outputs": [
        {
          "internalType": "bool",
          "name": "",
          "type": "bool"
        }
      ],
      "stateMutability": "nonpayable",
      "type": "function"
    }
  ],
  "bytecode": "0x608060405234801561001057600080fd5b5061001961001e565b6100dd565b600054610100900460ff161561008a5760405162461bcd60e51b815260206004820152602760248201527f496e697469616c697a61626c653a20636f6e747261637420697320696e697469604482015266616c697a696e6760c81b606482015260840160405180910390fd5b60005460ff908116146100db576000805460ff191660ff9081179091556040519081527f7f26b83ff96e1f2b6a682f133852f6798a09c465da95921460cefb38474024989060200160405180910390a15b565b611e2b806100ec6000396000f3fe608060405234801561001057600080fd5b506004361061012c5760003560e01c80638fea8062116100ad578063c6c3bbe611610071578063c6c3bbe614610294578063dce5c2db146102a7578063dd62ed3e146102e9578063eb3beb29146102fc578063f6b911bc1461030f57600080fd5b80638fea80621461022857806395d89b4114610253578063a457c2d71461025b578063a9059cbb1461026e578063c37d11c21461028157600080fd5b8063313ce567116100f4578063313ce567146101ac5780633947d87e146101c657806339509351146101d9578063485cc955146101ec57806370a08231146101ff57600080fd5b806306fdde0314610131578063095ea7b31461014f5780631339c6491461017257806318160ddd1461018757806323b872dd14610199575b600080fd5b610139610322565b60405161014691906118ab565b60405180910390f35b61016261015d3660046118f6565b6105a5565b6040519015158152602001610146565b610185610180366004611922565b6105bf565b005b6035545b604051908152602001610146565b6101626101a7366004611922565b6105fa565b6101b461061e565b60405160ff9091168152602001610146565b6101856101d4366004611963565b610723565b6101626101e73660046118f6565b61076a565b6101856101fa3660046119b4565b61078c565b61018b61020d3660046119ed565b6001600160a01b031660009081526033602052604090205490565b60665461023b906001600160a01b031681565b6040516001600160a01b039091168152602001610146565b6101396108a5565b6101626102693660046118f6565b610ab9565b61016261027c3660046118f6565b610b34565b61018561028f366004611922565b610b42565b6101856102a2366004611922565b610b78565b6102d46102b53660046119ed565b6001600160a01b03166000908152603360205260409020546035549091565b60408051928352602083019190915201610146565b61018b6102f73660046119b4565b610bad565b60655461023b906001600160a01b031681565b61018561031d366004611922565b610bd8565b60606000606560009054906101000a90046001600160a01b03166001600160a01b03166379502c556040518163ffffffff1660e01b8152600401602060405180830381865afa158015610379573d6000803e3d6000fd5b505050506040513d601f19601f8201168201806040525081019061039d9190611a0a565b60655460405163e48a5f7b60e01b81526001600160a01b0391821660048201529192506000919083169063e48a5f7b9060240161020060405180830381865afa1580156103ee573d6000803e3d6000fd5b505050506040513d601f19601f820116820180604052508101906104129190611a87565b90506000610480836001600160a01b031663189e17e46040518163ffffffff1660e01b8152600401602060405180830381865afa158015610457573d6000803e3d6000fd5b505050506040513d601f19601f8201168201806040525081019061047b9190611b91565b610c31565b604080516020808201835260008252825180840190935260088352670811195c1bdcda5d60c21b9083015260a0850151929350916001600160a01b031630036104f2576040518060400160405280600f81526020016e02737b716b137b93937bbb0b136329608d1b8152509150610563565b60c08401516001600160a01b03163003610531576040518060400160405280600b81526020016a02137b93937bbb0b13632960ad1b8152509150610563565b60e08401516001600160a01b031630036105635750604080518082019091526005815264081119589d60da1b60208201525b60006105728560800151610cc4565b90508281838660405160200161058b9493929190611baa565b604051602081830303815290604052965050505050505090565b6000336105b3818585610d6a565b60019150505b92915050565b6065546001600160a01b031633146105ea576040516310528c6d60e11b815260040160405180910390fd5b6105f5838383610e8e565b505050565b60003361060885828561104a565b610613858585610e8e565b506001949350505050565b600080606560009054906101000a90046001600160a01b03166001600160a01b03166379502c556040518163ffffffff1660e01b8152600401602060405180830381865afa158015610674573d6000803e3d6000fd5b505050506040513d601f19601f820116820180604052508101906106989190611a0a565b60655460405163e48a5f7b60e01b81526001600160a01b0391821660048201529192506000919083169063e48a5f7b9060240161020060405180830381865afa1580156106e9573d6000803e3d6000fd5b505050506040513d601f19601f8201168201806040525081019061070d9190611a87565b905061071c81608001516110be565b9250505090565b6065546001600160a01b0316331461074e576040516310528c6d60e11b815260040160405180910390fd5b61075983858361104a565b610764838383610e8e565b50505050565b6000336105b381858561077d8383610bad565b6107879190611c38565b610d6a565b600054610100900460ff16158080156107ac5750600054600160ff909116105b806107c65750303b1580156107c6575060005460ff166001145b61082e5760405162461bcd60e51b815260206004820152602e60248201527f496e697469616c697a61626c653a20636f6e747261637420697320616c72656160448201526d191e481a5b9a5d1a585b1a5e995960921b60648201526084015b60405180910390fd5b6000805460ff191660011790558015610851576000805461ff0019166101001790555b61085b838361112b565b80156105f5576000805461ff0019169055604051600181527f7f26b83ff96e1f2b6a682f133852f6798a09c465da95921460cefb38474024989060200160405180910390a1505050565b60606000606560009054906101000a90046001600160a01b03166001600160a01b03166379502c556040518163ffffffff1660e01b8152600401602060405180830381865afa1580156108fc573d6000803e3d6000fd5b505050506040513d601f19601f820116820180604052508101906109209190611a0a565b60655460405163e48a5f7b60e01b81526001600160a01b0391821660048201529192506000919083169063e48a5f7b9060240161020060405180830381865afa158015610971573d6000803e3d6000fd5b505050506040513d601f19601f820116820180604052508101906109959190611a87565b905060006109da836001600160a01b031663189e17e46040518163ffffffff1660e01b8152600401602060405180830381865afa158015610457573d6000803e3d6000fd5b905060608260a001516001600160a01b0316306001600160a01b031603610a1a5750604080518082019091526002815261373160f11b6020820152610a7a565b60c08301516001600160a01b03163003610a4c57506040805180820190915260018152603160f91b6020820152610a7a565b60e08301516001600160a01b03163003610a7a57506040805180820190915260018152601960fa1b60208201525b6000610a898460800151610cc4565b9050818184604051602001610aa093929190611c59565b6040516020818303038152906040529550505050505090565b60003381610ac78286610bad565b905083811015610b275760405162461bcd60e51b815260206004820152602560248201527f45524332303a2064656372656173656420616c6c6f77616e63652062656c6f77604482015264207a65726f60d81b6064820152608401610825565b6106138286868403610d6a565b6000336105b3818585610e8e565b6065546001600160a01b03163314610b6d576040516310528c6d60e11b815260040160405180910390fd5b6105f5838383610d6a565b6065546001600160a01b03163314610ba3576040516310528c6d60e11b815260040160405180910390fd5b6105f583826111c4565b6001600160a01b03918216600090815260346020908152604080832093909416825291909152205490565b6065546001600160a01b03163314610c03576040516310528c6d60e11b815260040160405180910390fd5b816001600160a01b0316836001600160a01b031614610c2757610c2783838361104a565b6105f5838261129d565b60606000610c3e836113e4565b600101905060008167ffffffffffffffff811115610c5e57610c5e611a27565b6040519080825280601f01601f191660200182016040528015610c88576020820181803683370190505b5090508181016020015b600019016f181899199a1a9b1b9c1cb0b131b232b360811b600a86061a8153600a8504945084610c9257509392505050565b6040805160048152602481019091526020810180516001600160e01b03166395d89b4160e01b1790526060906000908190610d009085906114bc565b91509150811580610d1057508051155b15610d355750506040805180820190915260018152603f60f81b602082015292915050565b6020815103610d4f57610d4781611579565b949350505050565b80806020019051810190610d479190611ca9565b5050919050565b6001600160a01b038316610dcc5760405162461bcd60e51b8152602060048201526024808201527f45524332303a20617070726f76652066726f6d20746865207a65726f206164646044820152637265737360e01b6064820152608401610825565b6001600160a01b038216610e2d5760405162461bcd60e51b815260206004820152602260248201527f45524332303a20617070726f766520746f20746865207a65726f206164647265604482015261737360f01b6064820152608401610825565b6001600160a01b0383811660008181526034602090815260408083209487168084529482529182902085905590518481527f8c5be1e5ebec7d5bd14f71427d1e84f3dd0314c0f7b2291e5b200ac8c7c3b925910160405180910390a3505050565b6001600160a01b038316610ef25760405162461bcd60e51b815260206004820152602560248201527f45524332303a207472616e736665722066726f6d20746865207a65726f206164604482015264647265737360d81b6064820152608401610825565b6001600160a01b038216610f545760405162461bcd60e51b815260206004820152602360248201527f45524332303a207472616e7366657220746f20746865207a65726f206164647260448201526265737360e81b6064820152608401610825565b610f5f8383836115f8565b6001600160a01b03831660009081526033602052604090205481811015610fd75760405162461bcd60e51b815260206004820152602660248201527f45524332303a207472616e7366657220616d6f756e7420657863656564732062604482015265616c616e636560d01b6064820152608401610825565b6001600160a01b0380851660008181526033602052604080822086860390559286168082529083902080548601905591517fddf252ad1be2c89b69c2b068fc378daa952ba7f163c4a11628f55a4df523b3ef906110379086815260200190565b60405180910390a3610764848484611692565b60006110568484610bad565b9050600019811461076457818110156110b15760405162461bcd60e51b815260206004820152601d60248201527f45524332303a20696e73756666696369656e7420616c6c6f77616e63650000006044820152606401610825565b6107648484848403610d6a565b6040805160048152602481019091526020810180516001600160e01b031663313ce56760e01b179052600090819081906110f99085906114bc565b915091508161110c575060009392505050565b808060200190518101906111209190611d56565b60ff16949350505050565b600054610100900460ff166111965760405162461bcd60e51b815260206004820152602b60248201527f496e697469616c697a61626c653a20636f6e7472616374206973206e6f74206960448201526a6e697469616c697a696e6760a81b6064820152608401610825565b606580546001600160a01b039384166001600160a01b03199182161790915560668054929093169116179055565b6001600160a01b03821661121a5760405162461bcd60e51b815260206004820152601f60248201527f45524332303a206d696e7420746f20746865207a65726f2061646472657373006044820152606401610825565b611226600083836115f8565b80603560008282546112389190611c38565b90915550506001600160a01b0382166000818152603360209081526040808320805486019055518481527fddf252ad1be2c89b69c2b068fc378daa952ba7f163c4a11628f55a4df523b3ef910160405180910390a361129960008383611692565b5050565b6001600160a01b0382166112fd5760405162461bcd60e51b815260206004820152602160248201527f45524332303a206275726e2066726f6d20746865207a65726f206164647265736044820152607360f81b6064820152608401610825565b611309826000836115f8565b6001600160a01b0382166000908152603360205260409020548181101561137d5760405162461bcd60e51b815260206004820152602260248201527f45524332303a206275726e20616d6f756e7420657863656564732062616c616e604482015261636560f01b6064820152608401610825565b6001600160a01b03831660008181526033602090815260408083208686039055603580548790039055518581529192917fddf252ad1be2c89b69c2b068fc378daa952ba7f163c4a11628f55a4df523b3ef910160405180910390a36105f583600084611692565b60008072184f03e93ff9f4daa797ed6e38ed64bf6a1f0160401b83106114235772184f03e93ff9f4daa797ed6e38ed64bf6a1f0160401b830492506040015b6d04ee2d6d415b85acef8100000000831061144f576d04ee2d6d415b85acef8100000000830492506020015b662386f26fc10000831061146d57662386f26fc10000830492506010015b6305f5e1008310611485576305f5e100830492506008015b612710831061149957612710830492506004015b606483106114ab576064830492506002015b600a83106105b95760010192915050565b600060606001600160a01b0384163b6114e8576040516373d39f9d60e01b815260040160405180910390fd5b600080856001600160a01b0316856040516115039190611d79565b600060405180830381855afa9150503d806000811461153e576040519150601f19603f3d011682016040523d82523d6000602084013e611543565b606091505b50915091508161156a57600060405180602001604052806000815250935093505050611572565b600193509150505b9250929050565b805160609060005b81811015610d635783818151811061159b5761159b611d95565b01602001516001600160f81b031916156115f057828482815181106115c2576115c2611d95565b602001015160f81c60f81b6040516020016115de929190611dab565b60405160208183030381529060405292505b600101611581565b611602838361173c565b156105f55760655460405163ec25ac0160e01b81526001600160a01b0384811660048301529091169063ec25ac0190602401602060405180830381865afa158015611651573d6000803e3d6000fd5b505050506040513d601f19601f820116820180604052508101906116759190611dda565b6105f5576040516349bb6ced60e11b815260040160405180910390fd5b61169d838383611765565b6116a7838361173c565b801561171e57506065546040516338b51ce160e01b81526001600160a01b038581166004830152909116906338b51ce190602401602060405180830381865afa1580156116f8573d6000803e3d6000fd5b505050506040513d601f19601f8201168201806040525081019061171c9190611dda565b155b156105f557604051633c3b8e1b60e21b815260040160405180910390fd5b60006001600160a01b0383161580159061175e57506001600160a01b03821615155b9392505050565b6066546001600160a01b031661177a57505050565b6066546000906001600160a01b0316846117a9816001600160a01b031660009081526033602052604090205490565b856117c9876001600160a01b031660009081526033602052604090205490565b6035546040516001600160a01b0395861660248201526044810194909452939091166064830152608482015260a481019190915260c4810184905260e40160408051601f198184030181529181526020820180516001600160e01b031663bbdc013b60e01b1790525161183c9190611d79565b6000604051808303816000865af19150503d8060008114611879576040519150601f19603f3d011682016040523d82523d6000602084013e61187e565b606091505b50505050505050565b60005b838110156118a257818101518382015260200161188a565b50506000910152565b60208152600082518060208401526118ca816040850160208701611887565b601f01601f19169190910160400192915050565b6001600160a01b03811681146118f357600080fd5b50565b6000806040838503121561190957600080fd5b8235611914816118de565b946020939093013593505050565b60008060006060848603121561193757600080fd5b8335611942816118de565b92506020840135611952816118de565b929592945050506040919091013590565b6000806000806080858703121561197957600080fd5b8435611984816118de565b93506020850135611994816118de565b925060408501356119a4816118de565b9396929550929360600135925050565b600080604083850312156119c757600080fd5b82356119d2816118de565b915060208301356119e2816118de565b809150509250929050565b6000602082840312156119ff57600080fd5b813561175e816118de565b600060208284031215611a1c57600080fd5b815161175e816118de565b634e487b7160e01b600052604160045260246000fd5b604051610200810167ffffffffffffffff81118282101715611a6157611a61611a27565b60405290565b8051611a72816118de565b919050565b80518015158114611a7257600080fd5b60006102008284031215611a9a57600080fd5b611aa2611a3d565b8251815260208301516020820152611abc60408401611a67565b6040820152611acd60608401611a67565b6060820152611ade60808401611a67565b6080820152611aef60a08401611a67565b60a0820152611b0060c08401611a67565b60c0820152611b1160e08401611a67565b60e0820152610100611b24818501611a67565b90820152610120611b36848201611a67565b90820152610140611b48848201611a67565b90820152610160838101519082015261018080840151908201526101a080840151908201526101c080840151908201526101e0611b86818501611a77565b908201529392505050565b600060208284031215611ba357600080fd5b5051919050565b6c029b4b637902334b730b731b29609d1b815260008551611bd281600d850160208a01611887565b855190830190611be981600d840160208a01611887565b8551910190611bff81600d840160208901611887565b690161029b4b637a4b21d160b51b600d92909101918201528351611c2a816017840160208801611887565b016017019695505050505050565b808201808211156105b957634e487b7160e01b600052601160045260246000fd5b60008451611c6b818460208901611887565b845190830190611c7f818360208901611887565b602d60f81b91019081528351611c9c816001840160208801611887565b0160010195945050505050565b600060208284031215611cbb57600080fd5b815167ffffffffffffffff80821115611cd357600080fd5b818401915084601f830112611ce757600080fd5b815181811115611cf957611cf9611a27565b604051601f8201601f19908116603f01168101908382118183101715611d2157611d21611a27565b81604052828152876020848701011115611d3a57600080fd5b611d4b836020830160208801611887565b979650505050505050565b600060208284031215611d6857600080fd5b815160ff8116811461175e57600080fd5b60008251611d8b818460208701611887565b9190910192915050565b634e487b7160e01b600052603260045260246000fd5b60008351611dbd818460208801611887565b6001600160f81b0319939093169190920190815260010192915050565b600060208284031215611dec57600080fd5b61175e82611a7756fea26469706673582212204fd730aa70aeab83e751f13892939fbaaeecf50c10873e12ee01b5c4204d8d9464736f6c63430008150033",
  "language": "Solidity",
  "compiler": "0.8.21+commit.d9974bed"
}