{
  "address": "0x77c5abdfaE4534A5d89FEDE8ecbFcEa839bDc4c4",
  "abi": [
    {
      "inputs": [],
      "name": "DOMAIN_SEPARATOR",
      "outputs": [
        {
          "internalType": "bytes32",
          "name": "",
          "type": "bytes32"
        }
      ],
      "stateMutability": "view",
      "type": "function"
    },
    {
      "inputs": [
        {
          "internalType": "address",
          "name": "owner",
          "type": "address"
        },
        {
          "internalType": "address",
          "name": "spender",
          "type": "address"
        }
      ],
      "name": "allowance",
      "outputs": [
        {
          "internalType": "uint256",
          "name": "",
          "type": "uint256"
        }
      ],
      "stateMutability": "view",
      "type": "function"
    },
    {
      "inputs": [
        {
          "internalType": "address",
          "name": "spender",
          "type": "address"
        },
        {
          "internalType": "uint256",
          "name": "value",
          "type": "uint256"
        }
      ],
      "name": "approve",
      "outputs": [
        {
          "internalType": "bool",
          "name": "result",
          "type": "bool"
        }
      ],
      "stateMutability": "nonpayable",
      "type": "function"
    },
    {
      "inputs": [
        {
          "internalType": "address",
          "name": "account",
          "type": "address"
        }
      ],
      "name": "balanceOf",
      "outputs": [
        {
          "internalType": "uint256",
          "name": "",
          "type": "uint256"
        }
      ],
      "stateMutability": "view",
      "type": "function"
    },
    {
      "inputs": [
        {
          "internalType": "address",
          "name": "_account",
          "type": "address"
        }
      ],
      "name": "balanceOfAndTotalSupply",
      "outputs": [
        {
          "internalType": "uint256",
          "name": "",
          "type": "uint256"
        },
        {
          "internalType": "uint256",
          "name": "",
          "type": "uint256"
        }
      ],
      "stateMutability": "view",
      "type": "function"
    },
    {
      "inputs": [
        {
          "internalType": "address",
          "name": "_owner",
          "type": "address"
        },
        {
          "internalType": "address",
          "name": "",
          "type": "address"
        },
        {
          "internalType": "uint256",
          "name": "_amount",
          "type": "uint256"
        }
      ],
      "name": "burn",
      "outputs": [],
      "stateMutability": "nonpayable",
      "type": "function"
    },
    {
      "inputs": [],
      "name": "decimals",
      "outputs": [
        {
          "internalType": "uint8",
          "name": "",
          "type": "uint8"
        }
      ],
      "stateMutability": "view",
      "type": "function"
    },
    {
      "inputs": [
        {
          "internalType": "address",
          "name": "_owner",
          "type": "address"
        },
        {
          "internalType": "uint256",
          "name": "_subtractedValue",
          "type": "uint256"
        }
      ],
      "name": "decreaseReceiveAllowance",
      "outputs": [],
      "stateMutability": "nonpayable",
      "type": "function"
    },
    {
      "inputs": [],
      "name": "eip712Domain",
      "outputs": [
        {
          "internalType": "bytes1",
          "name": "fields",
          "type": "bytes1"
        },
        {
          "internalType": "string",
          "name": "name",
          "type": "string"
        },
        {
          "internalType": "string",
          "name": "version",
          "type": "string"
        },
        {
          "internalType": "uint256",
          "name": "chainId",
          "type": "uint256"
        },
        {
          "internalType": "address",
          "name": "verifyingContract",
          "type": "address"
        },
        {
          "internalType": "bytes32",
          "name": "salt",
          "type": "bytes32"
        },
        {
          "internalType": "uint256[]",
          "name": "extensions",
          "type": "uint256[]"
        }
      ],
      "stateMutability": "view",
      "type": "function"
    },
    {
      "inputs": [
        {
          "internalType": "address",
          "name": "",
          "type": "address"
        },
        {
          "internalType": "address",
          "name": "",
          "type": "address"
        },
        {
          "internalType": "uint256",
          "name": "",
          "type": "uint256"
        }
      ],
      "name": "forwardTransferFromNoChecks",
      "outputs": [],
      "stateMutability": "pure",
      "type": "function"
    },
    {
      "inputs": [],
      "name": "hookReceiver",
      "outputs": [
        {
          "internalType": "address",
          "name": "",
          "type": "address"
        }
      ],
      "stateMutability": "view",
      "type": "function"
    },
    {
      "inputs": [],
      "name": "hookSetup",
      "outputs": [
        {
          "components": [
            {
              "internalType": "address",
              "name": "hookReceiver",
              "type": "address"
            },
            {
              "internalType": "uint24",
              "name": "hooksBefore",
              "type": "uint24"
            },
            {
              "internalType": "uint24",
              "name": "hooksAfter",
              "type": "uint24"
            },
            {
              "internalType": "uint24",
              "name": "tokenType",
              "type": "uint24"
            }
          ],
          "internalType": "struct IShareToken.HookSetup",
          "name": "",
          "type": "tuple"
        }
      ],
      "stateMutability": "view",
      "type": "function"
    },
    {
      "inputs": [
        {
          "internalType": "address",
          "name": "_owner",
          "type": "address"
        },
        {
          "internalType": "uint256",
          "name": "_addedValue",
          "type": "uint256"
        }
      ],
      "name": "increaseReceiveAllowance",
      "outputs": [],
      "stateMutability": "nonpayable",
      "type": "function"
    },
    {
      "inputs": [
        {
          "internalType": "contract ISilo",
          "name": "_silo",
          "type": "address"
        },
        {
          "internalType": "address",
          "name": "_hookReceiver",
          "type": "address"
        },
        {
          "internalType": "uint24",
          "name": "_tokenType",
          "type": "uint24"
        }
      ],
      "name": "initialize",
      "outputs": [],
      "stateMutability": "nonpayable",
      "type": "function"
    },
    {
      "inputs": [
        {
          "internalType": "address",
          "name": "_owner",
          "type": "address"
        },
        {
          "internalType": "address",
          "name": "_spender",
          "type": "address"
        },
        {
          "internalType": "uint256",
          "name": "_amount",
          "type": "uint256"
        }
      ],
      "name": "mint",
      "outputs": [],
      "stateMutability": "nonpayable",
      "type": "function"
    },
    {
      "inputs": [],
      "name": "name",
      "outputs": [
        {
          "internalType": "string",
          "name": "",
          "type": "string"
        }
      ],
      "stateMutability": "view",
      "type": "function"
    },
    {
      "inputs": [
        {
          "internalType": "address",
          "name": "owner",
          "type": "address"
        }
      ],
      "name": "nonces",
      "outputs": [
        {
          "internalType": "uint256",
          "name": "",
          "type": "uint256"
        }
      ],
      "stateMutability": "view",
      "type": "function"
    },
    {
      "inputs": [
        {
          "internalType": "address",
          "name": "owner",
          "type": "address"
        },
        {
          "internalType": "address",
          "name": "spender",
          "type": "address"
        },
        {
          "internalType": "uint256",
          "name": "value",
          "type": "uint256"
        },
        {
          "internalType": "uint256",
          "name": "deadline",
          "type": "uint256"
        },
        {
          "internalType": "uint8",
          "name": "v",
          "type": "uint8"
        },
        {
          "internalType": "bytes32",
          "name": "r",
          "type": "bytes32"
        },
        {
          "internalType": "bytes32",
          "name": "s",
          "type": "bytes32"
        }
      ],
      "name": "permit",
      "outputs": [],
      "stateMutability": "nonpayable",
      "type": "function"
    },
    {
      "inputs": [
        {
          "internalType": "address",
          "name": "_owner",
          "type": "address"
        },
        {
          "internalType": "address",
          "name": "_recipient",
          "type": "address"
        }
      ],
      "name": "receiveAllowance",
      "outputs": [
        {
          "internalType": "uint256",
          "name": "",
          "type": "uint256"
        }
      ],
      "stateMutability": "view",
      "type": "function"
    },
    {
      "inputs": [
        {
          "internalType": "address",
          "name": "owner",
          "type": "address"
        },
        {
          "internalType": "uint256",
          "name": "_amount",
          "type": "uint256"
        }
      ],
      "name": "setReceiveApproval",
      "outputs": [],
      "stateMutability": "nonpayable",
      "type": "function"
    },
    {
      "inputs": [],
      "name": "silo",
      "outputs": [
        {
          "internalType": "contract ISilo",
          "name": "",
          "type": "address"
        }
      ],
      "stateMutability": "view",
      "type": "function"
    },
    {
      "inputs": [],
      "name": "siloConfig",
      "outputs": [
        {
          "internalType": "contract ISiloConfig",
          "name": "",
          "type": "address"
        }
      ],
      "stateMutability": "view",
      "type": "function"
    },
    {
      "inputs": [],
      "name": "symbol",
      "outputs": [
        {
          "internalType": "string",
          "name": "",
          "type": "string"
        }
      ],
      "stateMutability": "view",
      "type": "function"
    },
    {
      "inputs": [
        {
          "internalType": "uint24",
          "name": "_hooksBefore",
          "type": "uint24"
        },
        {
          "internalType": "uint24",
          "name": "_hooksAfter",
          "type": "uint24"
        }
      ],
      "name": "synchronizeHooks",
      "outputs": [],
      "stateMutability": "nonpayable",
      "type": "function"
    },
    {
      "inputs": [],
      "name": "totalSupply",
      "outputs": [
        {
          "internalType": "uint256",
          "name": "",
          "type": "uint256"
        }
      ],
      "stateMutability": "view",
      "type": "function"
    },
    {
      "inputs": [
        {
          "internalType": "address",
          "name": "_to",
          "type": "address"
        },
        {
          "internalType": "uint256",
          "name": "_amount",
          "type": "uint256"
        }
      ],
      "name": "transfer",
      "outputs": [
        {
          "internalType": "bool",
          "name": "result",
          "type": "bool"
        }
      ],
      "stateMutability": "nonpayable",
      "type": "function"
    },
    {
      "inputs": [
        {
          "internalType": "address",
          "name": "_from",
          "type": "address"
        },
        {
          "internalType": "address",
          "name": "_to",
          "type": "address"
        },
        {
          "internalType": "uint256",
          "name": "_amount",
          "type": "uint256"
        }
      ],
      "name": "transferFrom",
      "outputs": [
        {
          "internalType": "bool",
          "name": "result",
          "type": "bool"
        }
      ],
      "stateMutability": "nonpayable",
      "type": "function"
    },
    {
      "anonymous": false,
      "inputs": [
        {
          "indexed": true,
          "internalType": "address",
          "name": "owner",
          "type": "address"
        },
        {
          "indexed": true,
          "internalType": "address",
          "name": "spender",
          "type": "address"
        },
        {
          "indexed": false,
          "internalType": "uint256",
          "name": "value",
          "type": "uint256"
        }
      ],
      "name": "Approval",
      "type": "event"
    },
    {
      "anonymous": false,
      "inputs": [],
      "name": "EIP712DomainChanged",
      "type": "event"
    },
    {
      "anonymous": false,
      "inputs": [
        {
          "indexed": false,
          "internalType": "uint64",
          "name": "version",
          "type": "uint64"
        }
      ],
      "name": "Initialized",
      "type": "event"
    },
    {
      "anonymous": false,
      "inputs": [
        {
          "indexed": true,
          "internalType": "address",
          "name": "notificationReceiver",
          "type": "address"
        },
        {
          "indexed": false,
          "internalType": "bool",
          "name": "success",
          "type": "bool"
        }
      ],
      "name": "NotificationSent",
      "type": "event"
    },
    {
      "anonymous": false,
      "inputs": [
        {
          "indexed": true,
          "internalType": "address",
          "name": "_owner",
          "type": "address"
        },
        {
          "indexed": true,
          "internalType": "address",
          "name": "_receiver",
          "type": "address"
        },
        {
          "indexed": false,
          "internalType": "uint256",
          "name": "_value",
          "type": "uint256"
        }
      ],
      "name": "ReceiveApproval",
      "type": "event"
    },
    {
      "anonymous": false,
      "inputs": [
        {
          "indexed": true,
          "internalType": "address",
          "name": "from",
          "type": "address"
        },
        {
          "indexed": true,
          "internalType": "address",
          "name": "to",
          "type": "address"
        },
        {
          "indexed": false,
          "internalType": "uint256",
          "name": "value",
          "type": "uint256"
        }
      ],
      "name": "Transfer",
      "type": "event"
    },
    {
      "inputs": [],
      "name": "AmountExceedsAllowance",
      "type": "error"
    },
    {
      "inputs": [],
      "name": "CrossReentrantCall",
      "type": "error"
    },
    {
      "inputs": [],
      "name": "ECDSAInvalidSignature",
      "type": "error"
    },
    {
      "inputs": [
        {
          "internalType": "uint256",
          "name": "length",
          "type": "uint256"
        }
      ],
      "name": "ECDSAInvalidSignatureLength",
      "type": "error"
    },
    {
      "inputs": [
        {
          "internalType": "bytes32",
          "name": "s",
          "type": "bytes32"
        }
      ],
      "name": "ECDSAInvalidSignatureS",
      "type": "error"
    },
    {
      "inputs": [
        {
          "internalType": "address",
          "name": "spender",
          "type": "address"
        },
        {
          "internalType": "uint256",
          "name": "allowance",
          "type": "uint256"
        },
        {
          "internalType": "uint256",
          "name": "needed",
          "type": "uint256"
        }
      ],
      "name": "ERC20InsufficientAllowance",
      "type": "error"
    },
    {
      "inputs": [
        {
          "internalType": "address",
          "name": "sender",
          "type": "address"
        },
        {
          "internalType": "uint256",
          "name": "balance",
          "type": "uint256"
        },
        {
          "internalType": "uint256",
          "name": "needed",
          "type": "uint256"
        }
      ],
      "name": "ERC20InsufficientBalance",
      "type": "error"
    },
    {
      "inputs": [
        {
          "internalType": "address",
          "name": "approver",
          "type": "address"
        }
      ],
      "name": "ERC20InvalidApprover",
      "type": "error"
    },
    {
      "inputs": [
        {
          "internalType": "address",
          "name": "receiver",
          "type": "address"
        }
      ],
      "name": "ERC20InvalidReceiver",
      "type": "error"
    },
    {
      "inputs": [
        {
          "internalType": "address",
          "name": "sender",
          "type": "address"
        }
      ],
      "name": "ERC20InvalidSender",
      "type": "error"
    },
    {
      "inputs": [
        {
          "internalType": "address",
          "name": "spender",
          "type": "address"
        }
      ],
      "name": "ERC20InvalidSpender",
      "type": "error"
    },
    {
      "inputs": [
        {
          "internalType": "uint256",
          "name": "deadline",
          "type": "uint256"
        }
      ],
      "name": "ERC2612ExpiredSignature",
      "type": "error"
    },
    {
      "inputs": [
        {
          "internalType": "address",
          "name": "signer",
          "type": "address"
        },
        {
          "internalType": "address",
          "name": "owner",
          "type": "address"
        }
      ],
      "name": "ERC2612InvalidSigner",
      "type": "error"
    },
    {
      "inputs": [],
      "name": "Forbidden",
      "type": "error"
    },
    {
      "inputs": [
        {
          "internalType": "address",
          "name": "account",
          "type": "address"
        },
        {
          "internalType": "uint256",
          "name": "currentNonce",
          "type": "uint256"
        }
      ],
      "name": "InvalidAccountNonce",
      "type": "error"
    },
    {
      "inputs": [],
      "name": "InvalidInitialization",
      "type": "error"
    },
    {
      "inputs": [],
      "name": "NotInitializing",
      "type": "error"
    },
    {
      "inputs": [],
      "name": "OnlySilo",
      "type": "error"
    },
    {
      "inputs": [],
      "name": "OnlySiloConfig",
      "type": "error"
    },
    {
      "inputs": [],
      "name": "OwnerIsZero",
      "type": "error"
    },
    {
      "inputs": [],
      "name": "RecipientIsZero",
      "type": "error"
    },
    {
      "inputs": [],
      "name": "RecipientNotSolventAfterTransfer",
      "type": "error"
    },
    {
      "inputs": [],
      "name": "SenderNotSolventAfterTransfer",
      "type": "error"
    },
    {
      "inputs": [],
      "name": "ShareTransferNotAllowed",
      "type": "error"
    },
    {
      "inputs": [],
      "name": "ZeroTransfer",
      "type": "error"
    }
  ],
  "bytecode": "0x608060405234801562000010575f80fd5b506200001b62000021565b620000d5565b7ff0c57e16840df040f15088dc2f81fe391c3923bec73e23a9662efc9c229c6a00805468010000000000000000900460ff1615620000725760405163f92ee8a960e01b815260040160405180910390fd5b80546001600160401b0390811614620000d25780546001600160401b0319166001600160401b0390811782556040519081527fc7f505b2f371ae2175ee4913f4499e1f2633a7b5936321eed1cdaeb6115181d29060200160405180910390a15b50565b61255580620000e35f395ff3fe608060405234801561000f575f80fd5b50600436106101a1575f3560e01c80637ecebe00116100f3578063d505accf11610093578063dce5c2db1161006e578063dce5c2db1461046f578063dd62ed3e14610497578063eb3beb29146104aa578063f6b911bc146104b2575f80fd5b8063d505accf14610441578063d714fd1914610454578063d985616c1461045c575f80fd5b80638fea8062116100ce5780638fea8062146103cf57806395d89b4114610413578063a9059cbb1461041b578063c6c3bbe61461042e575f80fd5b80637ecebe001461038e57806380d4336e146103a157806384b0196e146103b4575f80fd5b8063336c8d701161015e5780634c7b0f3c116101395780634c7b0f3c1461034257806362221ca11461035557806370a082311461036857806375d680161461037b575f80fd5b8063336c8d701461031257806334deadf2146103275780633644e5151461033a575f80fd5b806306fdde03146101a5578063095ea7b3146101c35780630ed4fe31146101e657806318160ddd146102b457806323b872dd146102e5578063313ce567146102f8575b5f80fd5b6101ad6104c5565b6040516101ba9190611e3b565b60405180910390f35b6101d66101d1366004611e61565b610539565b60405190151581526020016101ba565b61026b604080516080810182525f8082526020820181905291810182905260608101919091525f805160206124c083398151915260408051608081018252600292909201546001600160a01b038116835262ffffff600160a01b820481166020850152600160b81b8204811692840192909252600160d01b9004166060820152919050565b6040516101ba919081516001600160a01b0316815260208083015162ffffff90811691830191909152604080840151821690830152606092830151169181019190915260800190565b7f52c63247e1f47db19d5ce0460030c497f067ca4cebf71ba98eeadabe20bace02545b6040519081526020016101ba565b6101d66102f3366004611e8b565b61055b565b6103006105ca565b60405160ff90911681526020016101ba565b610325610320366004611ee0565b610636565b005b610325610335366004611e61565b610646565b6102d761067a565b610325610350366004611f24565b610683565b6102d7610363366004611f55565b610717565b6102d7610376366004611f8c565b610728565b610325610389366004611e61565b610758565b6102d761039c366004611f8c565b61078f565b6103256103af366004611e61565b610799565b6103bc6107e0565b6040516101ba9796959493929190611fa7565b7f01b0b3f9d6e360167e522fa2b18ba597ad7b2b35841fec7e1ca4dbb0adea1202546001600160a01b03165b6040516001600160a01b0390911681526020016101ba565b6101ad61088e565b6101d6610429366004611e61565b6108d6565b61032561043c366004611e8b565b610943565b61032561044f36600461204c565b6109aa565b6103fb6109cd565b61032561046a366004611e8b565b6109d6565b61048261047d366004611f8c565b6109ef565b604080519283526020830191909152016101ba565b6102d76104a5366004611f55565b610a25565b6103fb610a6e565b6103256104c0366004611e8b565b610a77565b606073__$e36323ec861de5853ea34405a6a6c240f5$__6306fdde036040518163ffffffff1660e01b81526004015f60405180830381865af415801561050d573d5f803e3d5ffd5b505050506040513d5f823e601f3d908101601f1916820160405261053491908101906120f6565b905090565b5f61054a610545610aba565b610ae8565b6105548383610b69565b9392505050565b5f80610565610b80565b9050610572858585610bdc565b9150806001600160a01b03166362402b046040518163ffffffff1660e01b81526004015f604051808303815f87803b1580156105ac575f80fd5b505af11580156105be573d5f803e3d5ffd5b50505050509392505050565b5f73__$e36323ec861de5853ea34405a6a6c240f5$__63313ce5676040518163ffffffff1660e01b8152600401602060405180830381865af4158015610612573d5f803e3d5ffd5b505050506040513d601f19601f82011682018060405250810190610534919061219e565b610641838383610bff565b505050565b61066a5f805160206124c08339815191525b600101546001600160a01b0316610ae8565b61067682335b83610e05565b5050565b5f610534610ed8565b61068b610ee1565b6001600160a01b0316336001600160a01b0316146106bc576040516310528c6d60e11b815260040160405180910390fd5b7f01b0b3f9d6e360167e522fa2b18ba597ad7b2b35841fec7e1ca4dbb0adea1202805465ffffffffffff60a01b1916600160a01b62ffffff9485160262ffffff60b81b191617600160b81b9290931691909102919091179055565b5f6105548383610efc565b92915050565b5f805f805160206124e08339815191525b6001600160a01b039093165f9081526020939093525050604090205490565b61076e5f805160206124c0833981519152610658565b5f6107798333610efc565b9050610641833361078a85856121b9565b610e05565b5f61072282610f45565b6107af5f805160206124c0833981519152610658565b5f6107ba8333610efc565b90505f8282106107cc578282036107ce565b5f5b90506107da8433610670565b50505050565b5f60608082808083815f80516020612500833981519152805490915015801561080b57506001810154155b6108545760405162461bcd60e51b81526020600482015260156024820152741152540dcc4c8e88155b9a5b9a5d1a585b1a5e9959605a1b60448201526064015b60405180910390fd5b61085c610f6d565b61086461102d565b604080515f80825260208201909252600f60f81b9c939b5091995046985030975095509350915050565b606073__$e36323ec861de5853ea34405a6a6c240f5$__6395d89b416040518163ffffffff1660e01b81526004015f60405180830381865af415801561050d573d5f803e3d5ffd5b5f806108e0610b80565b90506108ec848461106b565b9150806001600160a01b03166362402b046040518163ffffffff1660e01b81526004015f604051808303815f87803b158015610926575f80fd5b505af1158015610938573d5f803e3d5ffd5b505050505092915050565b61094b610ee1565b6001600160a01b0316336001600160a01b03161461097c576040516310528c6d60e11b815260040160405180910390fd5b816001600160a01b0316836001600160a01b0316146109a0576109a0838383611078565b61064183826110d5565b6109b5610545610aba565b6109c487878787878787611109565b50505050505050565b5f610534610aba565b604051631dd2188d60e31b815260040160405180910390fd5b5f806109fa83610728565b7f52c63247e1f47db19d5ce0460030c497f067ca4cebf71ba98eeadabe20bace025491509150915091565b6001600160a01b039182165f9081527f52c63247e1f47db19d5ce0460030c497f067ca4cebf71ba98eeadabe20bace016020908152604080832093909416825291909152205490565b5f610534610ee1565b610a7f610ee1565b6001600160a01b0316336001600160a01b031614610ab0576040516310528c6d60e11b815260040160405180910390fd5b610641838261125e565b7f01b0b3f9d6e360167e522fa2b18ba597ad7b2b35841fec7e1ca4dbb0adea1201546001600160a01b031690565b806001600160a01b031663d2c725e06040518163ffffffff1660e01b8152600401602060405180830381865afa158015610b24573d5f803e3d5ffd5b505050506040513d601f19601f82011682018060405250810190610b4891906121e7565b15610b665760405163e17fbf8960e01b815260040160405180910390fd5b50565b5f33610b76818585611292565b5060019392505050565b5f610b89610aba565b9050806001600160a01b0316639dd413306040518163ffffffff1660e01b81526004015f604051808303815f87803b158015610bc3575f80fd5b505af1158015610bd5573d5f803e3d5ffd5b5050505090565b5f33610be9858285611078565b610bf485858561129f565b506001949350505050565b7ff0c57e16840df040f15088dc2f81fe391c3923bec73e23a9662efc9c229c6a008054600160401b810460ff16159067ffffffffffffffff165f81158015610c445750825b90505f8267ffffffffffffffff166001148015610c605750303b155b905081158015610c6e575080155b15610c8c5760405163f92ee8a960e01b815260040160405180910390fd5b845467ffffffffffffffff191660011785558315610cb657845460ff60401b1916600160401b1785555b610ce56040518060400160405280600e81526020016d29b4b637a9b430b932aa37b5b2b760911b8152506112fc565b610d3b6040518060400160405280600e81526020016d29b4b637a9b430b932aa37b5b2b760911b8152506040518060400160405280600e81526020016d29b4b637a9b430b932aa37b5b2b760911b815250611327565b604051631983f68f60e21b81526001600160a01b03808a1660048301528816602482015262ffffff8716604482015273__$e36323ec861de5853ea34405a6a6c240f5$__9063660fda3c906064015f6040518083038186803b158015610d9f575f80fd5b505af4158015610db1573d5f803e3d5ffd5b505050508315610dfb57845460ff60401b19168555604051600181527fc7f505b2f371ae2175ee4913f4499e1f2633a7b5936321eed1cdaeb6115181d29060200160405180910390a15b5050505050505050565b6001600160a01b038316610e2c57604051634269a05960e01b815260040160405180910390fd5b6001600160a01b038216610e535760405163b05313bb60e01b815260040160405180910390fd5b6001600160a01b038381165f8181527f5a499b742bad5e18c139447ced974d19a977bcf86e03691ee458d10efcd04d0060208181526040808420958816808552958252928390208690559151858152909392917fa80d0efa8328d29034668db835056d5d5e5876f77ffc7bc09f1e06b2ba18b12191015b60405180910390a350505050565b5f610534611339565b5f805160206124c0833981519152546001600160a01b031690565b6001600160a01b039182165f9081527f5a499b742bad5e18c139447ced974d19a977bcf86e03691ee458d10efcd04d006020908152604080832093909416825291909152205490565b5f807f5ab42ced628888259c08ac98db1eb0cf702fc1501344311d8b100cd1bfe4bb00610739565b7fa16a46d94261c7517cc8ff89f61c0ce93598e3c849801011dee649a6a557d10280546060915f8051602061250083398151915291610fab90612200565b80601f0160208091040260200160405190810160405280929190818152602001828054610fd790612200565b80156110225780601f10610ff957610100808354040283529160200191611022565b820191905f5260205f20905b81548152906001019060200180831161100557829003601f168201915b505050505091505090565b7fa16a46d94261c7517cc8ff89f61c0ce93598e3c849801011dee649a6a557d10380546060915f8051602061250083398151915291610fab90612200565b5f33610b7681858561129f565b5f6110838484610a25565b90505f1981146107da57818110156110c757604051637dc7a0d960e11b81526001600160a01b0384166004820152602481018290526044810183905260640161084b565b6107da84848484035f6113ac565b6001600160a01b0382166110fe5760405163ec442f0560e01b81525f600482015260240161084b565b6106765f8383611490565b8342111561112d5760405163313c898160e11b81526004810185905260240161084b565b5f7f6e71edae12b1b97f4d1f60370fef10105fa2faae0126114a169c64845d6126c98888886111978c6001600160a01b03165f9081527f5ab42ced628888259c08ac98db1eb0cf702fc1501344311d8b100cd1bfe4bb006020526040902080546001810190915590565b6040805160208101969096526001600160a01b0394851690860152929091166060840152608083015260a082015260c0810186905260e0016040516020818303038152906040528051906020012090505f6111f1826114d1565b90505f611200828787876114fd565b9050896001600160a01b0316816001600160a01b031614611247576040516325c0072360e11b81526001600160a01b0380831660048301528b16602482015260440161084b565b6112528a8a8a611292565b50505050505050505050565b6001600160a01b03821661128757604051634b637e8f60e11b81525f600482015260240161084b565b610676825f83611490565b61064183838360016113ac565b6001600160a01b0383166112c857604051634b637e8f60e11b81525f600482015260240161084b565b6001600160a01b0382166112f15760405163ec442f0560e01b81525f600482015260240161084b565b610641838383611490565b611304611529565b610b6681604051806040016040528060018152602001603160f81b815250611574565b61132f611529565b61067682826115d3565b5f7f8b73c3c69bb8fe3d512ecc4cf759cc79239f7b179b0ffacaa9a75d522b39400f611363611623565b61136b61168b565b60408051602081019490945283019190915260608201524660808201523060a082015260c00160405160208183030381529060405280519060200120905090565b5f805160206124e08339815191526001600160a01b0385166113e35760405163e602df0560e01b81525f600482015260240161084b565b6001600160a01b03841661140c57604051634a1406b160e11b81525f600482015260240161084b565b6001600160a01b038086165f9081526001830160209081526040808320938816835292905220839055811561148957836001600160a01b0316856001600160a01b03167f8c5be1e5ebec7d5bd14f71427d1e84f3dd0314c0f7b2291e5b200ac8c7c3b9258560405161148091815260200190565b60405180910390a35b5050505050565b805f036114b0576040516310cadee360e01b815260040160405180910390fd5b6114bb8383836116cd565b6114c68383836116ef565b61064183838361181a565b5f6107226114dd610ed8565b8360405161190160f01b8152600281019290925260228201526042902090565b5f805f8061150d88888888611830565b92509250925061151d82826118f8565b50909695505050505050565b7ff0c57e16840df040f15088dc2f81fe391c3923bec73e23a9662efc9c229c6a0054600160401b900460ff1661157257604051631afcd79f60e31b815260040160405180910390fd5b565b61157c611529565b5f805160206125008339815191527fa16a46d94261c7517cc8ff89f61c0ce93598e3c849801011dee649a6a557d1026115b5848261227c565b50600381016115c4838261227c565b505f8082556001909101555050565b6115db611529565b5f805160206124e08339815191527f52c63247e1f47db19d5ce0460030c497f067ca4cebf71ba98eeadabe20bace03611614848261227c565b50600481016107da838261227c565b5f5f805160206125008339815191528161163b610f6d565b80519091501561165357805160209091012092915050565b81548015611662579392505050565b7fc5d2460186f7233c927e7db2dcc703c0e500b653ca82273b7bfad8045d85a470935050505090565b5f5f80516020612500833981519152816116a361102d565b8051909150156116bb57805160209091012092915050565b60018201548015611662579392505050565b5f806116da8585856119b0565b91509150801561148957611489858584610e05565b5f805160206124e08339815191526001600160a01b0384166117295781816002015f82825461171e91906121b9565b909155506117999050565b6001600160a01b0384165f908152602082905260409020548281101561177b5760405163391434e360e21b81526001600160a01b0386166004820152602481018290526044810184905260640161084b565b6001600160a01b0385165f9081526020839052604090209083900390555b6001600160a01b0383166117b75760028101805483900390556117d5565b6001600160a01b0383165f9081526020829052604090208054830190555b826001600160a01b0316846001600160a01b03167fddf252ad1be2c89b69c2b068fc378daa952ba7f163c4a11628f55a4df523b3ef84604051610eca91815260200190565b611825838383611a74565b610641838383611b4f565b5f80807f7fffffffffffffffffffffffffffffff5d576e7357a4501ddfe92f46681b20a084111561186957505f915060039050826118ee565b604080515f808252602082018084528a905260ff891692820192909252606081018790526080810186905260019060a0016020604051602081039080840390855afa1580156118ba573d5f803e3d5ffd5b5050604051601f1901519150506001600160a01b0381166118e557505f9250600191508290506118ee565b92505f91508190505b9450945094915050565b5f82600381111561190b5761190b61233c565b03611914575050565b60018260038111156119285761192861233c565b036119465760405163f645eedf60e01b815260040160405180910390fd5b600282600381111561195a5761195a61233c565b0361197b5760405163fce698f760e01b81526004810182905260240161084b565b600382600381111561198f5761198f61233c565b03610676576040516335e2f38360e21b81526004810182905260240161084b565b5f805f805160206124c08339815191526119ca8686611ccb565b15611a6b5760018101546040516372db655960e01b81526001600160a01b0388811660048301528781166024830152909116906372db6559906044015f604051808303815f87803b158015611a1d575f80fd5b505af1158015611a2f573d5f803e3d5ffd5b505050505f611a3e8787610efc565b905084811015611a61576040516303814af160e61b815260040160405180910390fd5b8490039250600191505b50935093915050565b611a7e8383611ccb565b15610641577f01b0b3f9d6e360167e522fa2b18ba597ad7b2b35841fec7e1ca4dbb0adea1201545f805160206124c083398151915290611ac7906001600160a01b031684611cf0565b80546040516338b51ce160e01b81526001600160a01b038581166004830152909116906338b51ce190602401602060405180830381865afa158015611b0e573d5f803e3d5ffd5b505050506040513d601f19601f82011682018060405250810190611b3291906121e7565b6107da576040516377b1921f60e11b815260040160405180910390fd5b604080516080810182527f01b0b3f9d6e360167e522fa2b18ba597ad7b2b35841fec7e1ca4dbb0adea1202546001600160a01b038116825262ffffff600160a01b820481166020840152600160b81b820480821694840194909452600160d01b9091048116606083018190525f805160206124c08339815191529361080090911791908216168114611be357505050505050565b815183546001600160a01b039182169163aef28235911683898989611c0783610728565b611c108d610728565b7f52c63247e1f47db19d5ce0460030c497f067ca4cebf71ba98eeadabe20bace02546040516bffffffffffffffffffffffff19606097881b811660208301529590961b909416603486015260488501929092526068840152608883015260a882015260c8016040516020818303038152906040526040518463ffffffff1660e01b8152600401611ca293929190612350565b5f604051808303815f87803b158015611cb9575f80fd5b505af1158015611252573d5f803e3d5ffd5b5f6001600160a01b038316158015906105545750506001600160a01b03161515919050565b6040516394c0527d60e01b81526001600160a01b0382811660048301525f9182918516906394c0527d9060240161040060405180830381865afa158015611d39573d5f803e3d5ffd5b505050506040513d601f19601f82011682018060405250810190611d5d9190612493565b91509150611d6a82611d6f565b6107da815b806101e001518015611d8d575060e08101516001600160a01b031615155b15610b665760e08101516060820151604051637cfd30cd60e11b81526001600160a01b03918216600482015291169063f9fa619a906024015f604051808303815f87803b158015611ddc575f80fd5b505af1158015611489573d5f803e3d5ffd5b5f5b83811015611e08578181015183820152602001611df0565b50505f910152565b5f8151808452611e27816020860160208601611dee565b601f01601f19169290920160200192915050565b602081525f6105546020830184611e10565b6001600160a01b0381168114610b66575f80fd5b5f8060408385031215611e72575f80fd5b8235611e7d81611e4d565b946020939093013593505050565b5f805f60608486031215611e9d575f80fd5b8335611ea881611e4d565b92506020840135611eb881611e4d565b929592945050506040919091013590565b803562ffffff81168114611edb575f80fd5b919050565b5f805f60608486031215611ef2575f80fd5b8335611efd81611e4d565b92506020840135611f0d81611e4d565b9150611f1b60408501611ec9565b90509250925092565b5f8060408385031215611f35575f80fd5b611f3e83611ec9565b9150611f4c60208401611ec9565b90509250929050565b5f8060408385031215611f66575f80fd5b8235611f7181611e4d565b91506020830135611f8181611e4d565b809150509250929050565b5f60208284031215611f9c575f80fd5b813561055481611e4d565b60ff60f81b881681525f602060e06020840152611fc760e084018a611e10565b8381036040850152611fd9818a611e10565b606085018990526001600160a01b038816608086015260a0850187905284810360c0860152855180825260208088019350909101905f5b8181101561202c57835183529284019291840191600101612010565b50909c9b505050505050505050505050565b60ff81168114610b66575f80fd5b5f805f805f805f60e0888a031215612062575f80fd5b873561206d81611e4d565b9650602088013561207d81611e4d565b95506040880135945060608801359350608088013561209b8161203e565b9699959850939692959460a0840135945060c09093013592915050565b634e487b7160e01b5f52604160045260245ffd5b604051610200810167ffffffffffffffff811182821017156120f0576120f06120b8565b60405290565b5f60208284031215612106575f80fd5b815167ffffffffffffffff8082111561211d575f80fd5b818401915084601f830112612130575f80fd5b815181811115612142576121426120b8565b604051601f8201601f19908116603f0116810190838211818310171561216a5761216a6120b8565b81604052828152876020848701011115612182575f80fd5b612193836020830160208801611dee565b979650505050505050565b5f602082840312156121ae575f80fd5b81516105548161203e565b8082018082111561072257634e487b7160e01b5f52601160045260245ffd5b80518015158114611edb575f80fd5b5f602082840312156121f7575f80fd5b610554826121d8565b600181811c9082168061221457607f821691505b60208210810361223257634e487b7160e01b5f52602260045260245ffd5b50919050565b601f82111561064157805f5260205f20601f840160051c8101602085101561225d5750805b601f840160051c820191505b81811015611489575f8155600101612269565b815167ffffffffffffffff811115612296576122966120b8565b6122aa816122a48454612200565b84612238565b602080601f8311600181146122dd575f84156122c65750858301515b5f19600386901b1c1916600185901b178555612334565b5f85815260208120601f198616915b8281101561230b578886015182559484019460019091019084016122ec565b508582101561232857878501515f19600388901b60f8161c191681555b505060018460011b0185555b505050505050565b634e487b7160e01b5f52602160045260245ffd5b60018060a01b0384168152826020820152606060408201525f6123766060830184611e10565b95945050505050565b8051611edb81611e4d565b5f610200828403121561239b575f80fd5b6123a36120cc565b905081518152602082015160208201526123bf6040830161237f565b60408201526123d06060830161237f565b60608201526123e16080830161237f565b60808201526123f260a0830161237f565b60a082015261240360c0830161237f565b60c082015261241460e0830161237f565b60e082015261010061242781840161237f565b9082015261012061243983820161237f565b908201526101408281015190820152610160808301519082015261018080830151908201526101a080830151908201526101c061247781840161237f565b908201526101e06124898382016121d8565b9082015292915050565b5f8061040083850312156124a5575f80fd5b6124af848461238a565b9150611f4c84610200850161238a56fe01b0b3f9d6e360167e522fa2b18ba597ad7b2b35841fec7e1ca4dbb0adea120052c63247e1f47db19d5ce0460030c497f067ca4cebf71ba98eeadabe20bace00a16a46d94261c7517cc8ff89f61c0ce93598e3c849801011dee649a6a557d100a2646970667358221220236fd83e086a9829e42172d8d89b703f6f38bd25cf5a24a45bc553fac10ff73c64736f6c63430008180033",
  "language": "Solidity",
  "compiler": "0.8.24+commit.e11b9ed9"
}