{
  "address": "0x1af9aBAc6DdA2f84fdaf75B53208B9906bda370A",
  "abi": [
    {
      "inputs": [
        {
          "internalType": "address",
          "name": "owner",
          "type": "address"
        },
        {
          "internalType": "address",
          "name": "spender",
          "type": "address"
        }
      ],
      "name": "allowance",
      "outputs": [
        {
          "internalType": "uint256",
          "name": "",
          "type": "uint256"
        }
      ],
      "stateMutability": "view",
      "type": "function"
    },
    {
      "inputs": [
        {
          "internalType": "address",
          "name": "spender",
          "type": "address"
        },
        {
          "internalType": "uint256",
          "name": "value",
          "type": "uint256"
        }
      ],
      "name": "approve",
      "outputs": [
        {
          "internalType": "bool",
          "name": "",
          "type": "bool"
        }
      ],
      "stateMutability": "nonpayable",
      "type": "function"
    },
    {
      "inputs": [
        {
          "internalType": "address",
          "name": "account",
          "type": "address"
        }
      ],
      "name": "balanceOf",
      "outputs": [
        {
          "internalType": "uint256",
          "name": "",
          "type": "uint256"
        }
      ],
      "stateMutability": "view",
      "type": "function"
    },
    {
      "inputs": [
        {
          "internalType": "address",
          "name": "_account",
          "type": "address"
        }
      ],
      "name": "balanceOfAndTotalSupply",
      "outputs": [
        {
          "internalType": "uint256",
          "name": "",
          "type": "uint256"
        },
        {
          "internalType": "uint256",
          "name": "",
          "type": "uint256"
        }
      ],
      "stateMutability": "view",
      "type": "function"
    },
    {
      "inputs": [
        {
          "internalType": "address",
          "name": "_owner",
          "type": "address"
        },
        {
          "internalType": "address",
          "name": "",
          "type": "address"
        },
        {
          "internalType": "uint256",
          "name": "_amount",
          "type": "uint256"
        }
      ],
      "name": "burn",
      "outputs": [],
      "stateMutability": "nonpayable",
      "type": "function"
    },
    {
      "inputs": [],
      "name": "decimals",
      "outputs": [
        {
          "internalType": "uint8",
          "name": "",
          "type": "uint8"
        }
      ],
      "stateMutability": "view",
      "type": "function"
    },
    {
      "inputs": [
        {
          "internalType": "address",
          "name": "_owner",
          "type": "address"
        },
        {
          "internalType": "uint256",
          "name": "_subtractedValue",
          "type": "uint256"
        }
      ],
      "name": "decreaseReceiveAllowance",
      "outputs": [],
      "stateMutability": "nonpayable",
      "type": "function"
    },
    {
      "inputs": [
        {
          "internalType": "address",
          "name": "_owner",
          "type": "address"
        },
        {
          "internalType": "address",
          "name": "_spender",
          "type": "address"
        },
        {
          "internalType": "uint256",
          "name": "_amount",
          "type": "uint256"
        }
      ],
      "name": "forwardApprove",
      "outputs": [],
      "stateMutability": "nonpayable",
      "type": "function"
    },
    {
      "inputs": [
        {
          "internalType": "address",
          "name": "_owner",
          "type": "address"
        },
        {
          "internalType": "address",
          "name": "_recipient",
          "type": "address"
        },
        {
          "internalType": "uint256",
          "name": "_amount",
          "type": "uint256"
        }
      ],
      "name": "forwardTransfer",
      "outputs": [],
      "stateMutability": "nonpayable",
      "type": "function"
    },
    {
      "inputs": [
        {
          "internalType": "address",
          "name": "_spender",
          "type": "address"
        },
        {
          "internalType": "address",
          "name": "_from",
          "type": "address"
        },
        {
          "internalType": "address",
          "name": "_to",
          "type": "address"
        },
        {
          "internalType": "uint256",
          "name": "_amount",
          "type": "uint256"
        }
      ],
      "name": "forwardTransferFrom",
      "outputs": [],
      "stateMutability": "nonpayable",
      "type": "function"
    },
    {
      "inputs": [],
      "name": "hookReceiver",
      "outputs": [
        {
          "internalType": "address",
          "name": "",
          "type": "address"
        }
      ],
      "stateMutability": "view",
      "type": "function"
    },
    {
      "inputs": [],
      "name": "hookSetup",
      "outputs": [
        {
          "components": [
            {
              "internalType": "address",
              "name": "hookReceiver",
              "type": "address"
            },
            {
              "internalType": "uint24",
              "name": "hooksBefore",
              "type": "uint24"
            },
            {
              "internalType": "uint24",
              "name": "hooksAfter",
              "type": "uint24"
            },
            {
              "internalType": "uint24",
              "name": "tokenType",
              "type": "uint24"
            }
          ],
          "internalType": "struct IShareToken.HookSetup",
          "name": "",
          "type": "tuple"
        }
      ],
      "stateMutability": "view",
      "type": "function"
    },
    {
      "inputs": [
        {
          "internalType": "address",
          "name": "_owner",
          "type": "address"
        },
        {
          "internalType": "uint256",
          "name": "_addedValue",
          "type": "uint256"
        }
      ],
      "name": "increaseReceiveAllowance",
      "outputs": [],
      "stateMutability": "nonpayable",
      "type": "function"
    },
    {
      "inputs": [
        {
          "internalType": "contract ISilo",
          "name": "_silo",
          "type": "address"
        }
      ],
      "name": "initialize",
      "outputs": [],
      "stateMutability": "nonpayable",
      "type": "function"
    },
    {
      "inputs": [
        {
          "internalType": "address",
          "name": "_owner",
          "type": "address"
        },
        {
          "internalType": "address",
          "name": "_spender",
          "type": "address"
        },
        {
          "internalType": "uint256",
          "name": "_amount",
          "type": "uint256"
        }
      ],
      "name": "mint",
      "outputs": [],
      "stateMutability": "nonpayable",
      "type": "function"
    },
    {
      "inputs": [],
      "name": "name",
      "outputs": [
        {
          "internalType": "string",
          "name": "",
          "type": "string"
        }
      ],
      "stateMutability": "view",
      "type": "function"
    },
    {
      "inputs": [
        {
          "internalType": "address",
          "name": "_owner",
          "type": "address"
        },
        {
          "internalType": "address",
          "name": "_recipient",
          "type": "address"
        }
      ],
      "name": "receiveAllowance",
      "outputs": [
        {
          "internalType": "uint256",
          "name": "",
          "type": "uint256"
        }
      ],
      "stateMutability": "view",
      "type": "function"
    },
    {
      "inputs": [
        {
          "internalType": "address",
          "name": "owner",
          "type": "address"
        },
        {
          "internalType": "uint256",
          "name": "_amount",
          "type": "uint256"
        }
      ],
      "name": "setReceiveApproval",
      "outputs": [],
      "stateMutability": "nonpayable",
      "type": "function"
    },
    {
      "inputs": [],
      "name": "silo",
      "outputs": [
        {
          "internalType": "contract ISilo",
          "name": "",
          "type": "address"
        }
      ],
      "stateMutability": "view",
      "type": "function"
    },
    {
      "inputs": [],
      "name": "siloConfig",
      "outputs": [
        {
          "internalType": "contract ISiloConfig",
          "name": "",
          "type": "address"
        }
      ],
      "stateMutability": "view",
      "type": "function"
    },
    {
      "inputs": [],
      "name": "symbol",
      "outputs": [
        {
          "internalType": "string",
          "name": "",
          "type": "string"
        }
      ],
      "stateMutability": "view",
      "type": "function"
    },
    {
      "inputs": [
        {
          "internalType": "address",
          "name": "_hookReceiver",
          "type": "address"
        },
        {
          "internalType": "uint24",
          "name": "_hooksBefore",
          "type": "uint24"
        },
        {
          "internalType": "uint24",
          "name": "_hooksAfter",
          "type": "uint24"
        },
        {
          "internalType": "uint24",
          "name": "_tokenType",
          "type": "uint24"
        }
      ],
      "name": "synchronizeHooks",
      "outputs": [],
      "stateMutability": "nonpayable",
      "type": "function"
    },
    {
      "inputs": [],
      "name": "totalSupply",
      "outputs": [
        {
          "internalType": "uint256",
          "name": "",
          "type": "uint256"
        }
      ],
      "stateMutability": "view",
      "type": "function"
    },
    {
      "inputs": [
        {
          "internalType": "address",
          "name": "_to",
          "type": "address"
        },
        {
          "internalType": "uint256",
          "name": "_amount",
          "type": "uint256"
        }
      ],
      "name": "transfer",
      "outputs": [
        {
          "internalType": "bool",
          "name": "result",
          "type": "bool"
        }
      ],
      "stateMutability": "nonpayable",
      "type": "function"
    },
    {
      "inputs": [
        {
          "internalType": "address",
          "name": "_from",
          "type": "address"
        },
        {
          "internalType": "address",
          "name": "_to",
          "type": "address"
        },
        {
          "internalType": "uint256",
          "name": "_amount",
          "type": "uint256"
        }
      ],
      "name": "transferFrom",
      "outputs": [
        {
          "internalType": "bool",
          "name": "result",
          "type": "bool"
        }
      ],
      "stateMutability": "nonpayable",
      "type": "function"
    },
    {
      "anonymous": false,
      "inputs": [
        {
          "indexed": true,
          "internalType": "address",
          "name": "owner",
          "type": "address"
        },
        {
          "indexed": true,
          "internalType": "address",
          "name": "spender",
          "type": "address"
        },
        {
          "indexed": false,
          "internalType": "uint256",
          "name": "value",
          "type": "uint256"
        }
      ],
      "name": "Approval",
      "type": "event"
    },
    {
      "anonymous": false,
      "inputs": [
        {
          "indexed": false,
          "internalType": "uint64",
          "name": "version",
          "type": "uint64"
        }
      ],
      "name": "Initialized",
      "type": "event"
    },
    {
      "anonymous": false,
      "inputs": [
        {
          "indexed": true,
          "internalType": "address",
          "name": "notificationReceiver",
          "type": "address"
        },
        {
          "indexed": false,
          "internalType": "bool",
          "name": "success",
          "type": "bool"
        }
      ],
      "name": "NotificationSent",
      "type": "event"
    },
    {
      "anonymous": false,
      "inputs": [
        {
          "indexed": true,
          "internalType": "address",
          "name": "_owner",
          "type": "address"
        },
        {
          "indexed": true,
          "internalType": "address",
          "name": "_receiver",
          "type": "address"
        },
        {
          "indexed": false,
          "internalType": "uint256",
          "name": "_value",
          "type": "uint256"
        }
      ],
      "name": "ReceiveApproval",
      "type": "event"
    },
    {
      "anonymous": false,
      "inputs": [
        {
          "indexed": true,
          "internalType": "address",
          "name": "from",
          "type": "address"
        },
        {
          "indexed": true,
          "internalType": "address",
          "name": "to",
          "type": "address"
        },
        {
          "indexed": false,
          "internalType": "uint256",
          "name": "value",
          "type": "uint256"
        }
      ],
      "name": "Transfer",
      "type": "event"
    },
    {
      "inputs": [],
      "name": "AmountExceedsAllowance",
      "type": "error"
    },
    {
      "inputs": [
        {
          "internalType": "address",
          "name": "spender",
          "type": "address"
        },
        {
          "internalType": "uint256",
          "name": "allowance",
          "type": "uint256"
        },
        {
          "internalType": "uint256",
          "name": "needed",
          "type": "uint256"
        }
      ],
      "name": "ERC20InsufficientAllowance",
      "type": "error"
    },
    {
      "inputs": [
        {
          "internalType": "address",
          "name": "sender",
          "type": "address"
        },
        {
          "internalType": "uint256",
          "name": "balance",
          "type": "uint256"
        },
        {
          "internalType": "uint256",
          "name": "needed",
          "type": "uint256"
        }
      ],
      "name": "ERC20InsufficientBalance",
      "type": "error"
    },
    {
      "inputs": [
        {
          "internalType": "address",
          "name": "approver",
          "type": "address"
        }
      ],
      "name": "ERC20InvalidApprover",
      "type": "error"
    },
    {
      "inputs": [
        {
          "internalType": "address",
          "name": "receiver",
          "type": "address"
        }
      ],
      "name": "ERC20InvalidReceiver",
      "type": "error"
    },
    {
      "inputs": [
        {
          "internalType": "address",
          "name": "sender",
          "type": "address"
        }
      ],
      "name": "ERC20InvalidSender",
      "type": "error"
    },
    {
      "inputs": [
        {
          "internalType": "address",
          "name": "spender",
          "type": "address"
        }
      ],
      "name": "ERC20InvalidSpender",
      "type": "error"
    },
    {
      "inputs": [],
      "name": "Forbidden",
      "type": "error"
    },
    {
      "inputs": [],
      "name": "InvalidInitialization",
      "type": "error"
    },
    {
      "inputs": [],
      "name": "NotInitializing",
      "type": "error"
    },
    {
      "inputs": [],
      "name": "OnlySilo",
      "type": "error"
    },
    {
      "inputs": [],
      "name": "OnlySiloConfig",
      "type": "error"
    },
    {
      "inputs": [],
      "name": "OwnerIsZero",
      "type": "error"
    },
    {
      "inputs": [],
      "name": "RecipientIsZero",
      "type": "error"
    },
    {
      "inputs": [],
      "name": "RecipientNotSolventAfterTransfer",
      "type": "error"
    },
    {
      "inputs": [],
      "name": "SenderNotSolventAfterTransfer",
      "type": "error"
    },
    {
      "inputs": [],
      "name": "ShareTransferNotAllowed",
      "type": "error"
    },
    {
      "inputs": [],
      "name": "TokenIsNotAContract",
      "type": "error"
    }
  ],
  "bytecode": "0x608060405234801562000010575f80fd5b50604080518082018252600e8082526d29b4b637a9b430b932aa37b5b2b760911b60208084018290528451808601909552918452908301529060036200005783826200011f565b5060046200006682826200011f565b5050600580546001600160a01b0319163017905550620001eb565b634e487b7160e01b5f52604160045260245ffd5b600181811c90821680620000aa57607f821691505b602082108103620000c957634e487b7160e01b5f52602260045260245ffd5b50919050565b601f8211156200011a57805f5260205f20601f840160051c81016020851015620000f65750805b601f840160051c820191505b8181101562000117575f815560010162000102565b50505b505050565b81516001600160401b038111156200013b576200013b62000081565b62000153816200014c845462000095565b84620000cf565b602080601f83116001811462000189575f8415620001715750858301515b5f19600386901b1c1916600185901b178555620001e3565b5f85815260208120601f198616915b82811015620001b95788860151825594840194600190910190840162000198565b5085821015620001d757878501515f19600388901b60f8161c191681555b505060018460011b0185555b505050505050565b61221080620001f95f395ff3fe608060405234801561000f575f80fd5b506004361061016d575f3560e01c806380d4336e116100d9578063c4d66de811610093578063dce5c2db1161006e578063dce5c2db1461040e578063dd62ed3e1461044f578063eb3beb2914610487578063f6b911bc1461049a575f80fd5b8063c4d66de8146103d5578063c6c3bbe6146103e8578063d714fd19146103fb575f80fd5b806380d4336e1461035c5780638fea80621461036f57806395d89b411461039457806397ede0ee1461039c578063a9059cbb146103af578063c37d11c2146103c2575f80fd5b8063313ce5671161012a578063313ce567146102a957806334deadf2146102c35780633947d87e146102d657806362221ca1146102e957806370a082311461032157806375d6801614610349575f80fd5b806306fdde0314610171578063095ea7b31461018f5780630ed4fe31146101b25780631339c6491461026f57806318160ddd1461028457806323b872dd14610296575b5f80fd5b6101796104ad565b6040516101869190611b4f565b60405180910390f35b6101a261019d366004611b75565b6106c1565b6040519015158152602001610186565b610226604080516080810182525f80825260208201819052918101829052606081019190915250604080516080810182526007546001600160a01b038116825262ffffff600160a01b820481166020840152600160b81b8204811693830193909352600160d01b9004909116606082015290565b604051610186919081516001600160a01b0316815260208083015162ffffff90811691830191909152604080840151821690830152606092830151169181019190915260800190565b61028261027d366004611b9f565b6106da565b005b6002545b604051908152602001610186565b6101a26102a4366004611b9f565b610715565b6102b1610784565b60405160ff9091168152602001610186565b6102826102d1366004611b75565b61080b565b6102826102e4366004611bdd565b61081b565b6102886102f7366004611c2b565b6001600160a01b039182165f90815260086020908152604080832093909416825291909152205490565b61028861032f366004611c62565b6001600160a01b03165f9081526020819052604090205490565b610282610357366004611b75565b610862565b61028261036a366004611b75565b61089c565b6007546001600160a01b03165b6040516001600160a01b039091168152602001610186565b6101796108dd565b6102826103aa366004611c94565b610a83565b6101a26103bd366004611b75565b610b10565b6102826103d0366004611b9f565b610b7d565b6102826103e3366004611c62565b610bb3565b6102826103f6366004611b9f565b610cc1565b60065461037c906001600160a01b031681565b61043a61041c366004611c62565b6001600160a01b03165f908152602081905260409020546002549091565b60408051928352602083019190915201610186565b61028861045d366004611c2b565b6001600160a01b039182165f90815260016020908152604080832093909416825291909152205490565b60055461037c906001600160a01b031681565b6102826104a8366004611b9f565b610d1a565b60065460055460405163e48a5f7b60e01b81526001600160a01b0391821660048201526060925f92169063e48a5f7b9060240161024060405180830381865afa1580156104fc573d5f803e3d5ffd5b505050506040513d601f19601f820116820180604052508101906105209190611e6c565b90505f61059f60065f9054906101000a90046001600160a01b03166001600160a01b031663189e17e46040518163ffffffff1660e01b8152600401602060405180830381865afa158015610576573d5f803e3d5ffd5b505050506040513d601f19601f8201168201806040525081019061059a9190611e87565b610d4f565b60408051602080820183525f8252825180840190935260088352670811195c1bdcda5d60c21b9083015260a0850151929350916001600160a01b03163003610610576040518060400160405280600f81526020016e02737b716b137b93937bbb0b136329608d1b8152509150610681565b60c08401516001600160a01b0316300361064f576040518060400160405280600b81526020016a02137b93937bbb0b13632960ad1b8152509150610681565b60e08401516001600160a01b031630036106815750604080518082019091526005815264081119589d60da1b60208201525b5f61068f8560800151610ddf565b9050828183866040516020016106a89493929190611e9e565b6040516020818303038152906040529550505050505090565b5f336106ce818585610e84565b60019150505b92915050565b6005546001600160a01b03163314610705576040516310528c6d60e11b815260040160405180910390fd5b610710838383610e91565b505050565b5f8061071f610ef3565b905061072c858585610f63565b9150806001600160a01b0316637d9996286040518163ffffffff1660e01b81526004015f604051808303815f87803b158015610766575f80fd5b505af1158015610778573d5f803e3d5ffd5b50505050509392505050565b60065460055460405163e48a5f7b60e01b81526001600160a01b0391821660048201525f928392169063e48a5f7b9060240161024060405180830381865afa1580156107d2573d5f803e3d5ffd5b505050506040513d601f19601f820116820180604052508101906107f69190611e6c565b90506108058160800151610f86565b91505090565b61081782335b83610ff1565b5050565b6005546001600160a01b03163314610846576040516310528c6d60e11b815260040160405180910390fd5b6108518385836110a0565b61085c838383610e91565b50505050565b6001600160a01b0382165f90815260086020908152604080832033808552925290912054906107109084906108978585611f2b565b610ff1565b6001600160a01b0382165f908152600860209081526040808320338452909152812054908282106108cf578282036108d1565b5f5b905061085c8433610811565b60065460055460405163e48a5f7b60e01b81526001600160a01b0391821660048201526060925f92169063e48a5f7b9060240161024060405180830381865afa15801561092c573d5f803e3d5ffd5b505050506040513d601f19601f820116820180604052508101906109509190611e6c565b90505f6109a660065f9054906101000a90046001600160a01b03166001600160a01b031663189e17e46040518163ffffffff1660e01b8152600401602060405180830381865afa158015610576573d5f803e3d5ffd5b905060608260a001516001600160a01b0316306001600160a01b0316036109e65750604080518082019091526002815261373160f11b6020820152610a46565b60c08301516001600160a01b03163003610a1857506040805180820190915260018152603160f91b6020820152610a46565b60e08301516001600160a01b03163003610a4657506040805180820190915260018152601960fa1b60208201525b5f610a548460800151610ddf565b9050818184604051602001610a6b93929190611f4a565b60405160208183030381529060405294505050505090565b6005546001600160a01b03163314610aae576040516310528c6d60e11b815260040160405180910390fd5b600780546001600160a01b03959095166001600160b81b031990951694909417600160a01b62ffffff948516021765ffffffffffff60b81b1916600160b81b9284169290920262ffffff60d01b191691909117600160d01b9190921602179055565b5f80610b1a610ef3565b9050610b268484611115565b9150806001600160a01b0316637d9996286040518163ffffffff1660e01b81526004015f604051808303815f87803b158015610b60575f80fd5b505af1158015610b72573d5f803e3d5ffd5b505050505092915050565b6005546001600160a01b03163314610ba8576040516310528c6d60e11b815260040160405180910390fd5b610710838383610e84565b7ff0c57e16840df040f15088dc2f81fe391c3923bec73e23a9662efc9c229c6a008054600160401b810460ff16159067ffffffffffffffff165f81158015610bf85750825b90505f8267ffffffffffffffff166001148015610c145750303b155b905081158015610c22575080155b15610c405760405163f92ee8a960e01b815260040160405180910390fd5b845467ffffffffffffffff191660011785558315610c6a57845460ff60401b1916600160401b1785555b610c7386611122565b8315610cb957845460ff60401b19168555604051600181527fc7f505b2f371ae2175ee4913f4499e1f2633a7b5936321eed1cdaeb6115181d29060200160405180910390a15b505050505050565b6005546001600160a01b03163314610cec576040516310528c6d60e11b815260040160405180910390fd5b816001600160a01b0316836001600160a01b031614610d1057610d108383836110a0565b61071083826111c0565b6005546001600160a01b03163314610d45576040516310528c6d60e11b815260040160405180910390fd5b61071083826111f4565b60605f610d5b83611228565b60010190505f8167ffffffffffffffff811115610d7a57610d7a611ce7565b6040519080825280601f01601f191660200182016040528015610da4576020820181803683370190505b5090508181016020015b5f19016f181899199a1a9b1b9c1cb0b131b232b360811b600a86061a8153600a8504945084610dae57509392505050565b6040805160048152602481019091526020810180516001600160e01b03166395d89b4160e01b1790526060905f908190610e1a9085906112ff565b91509150811580610e2a57508051155b15610e4f5750506040805180820190915260018152603f60f81b602082015292915050565b6020815103610e6957610e61816113b5565b949350505050565b80806020019051810190610e619190611f99565b5050919050565b6107108383836001611433565b6001600160a01b038316610ebf57604051634b637e8f60e11b81525f60048201526024015b60405180910390fd5b6001600160a01b038216610ee85760405163ec442f0560e01b81525f6004820152602401610eb6565b610710838383611505565b600654600754604051632132b46560e11b8152600160d01b90910462ffffff166140001760048201526001600160a01b0390911690819063426568ca906024015f604051808303815f87803b158015610f4a575f80fd5b505af1158015610f5c573d5f803e3d5ffd5b5050505090565b5f33610f708582856110a0565b610f7b858585610e91565b506001949350505050565b6040805160048152602481019091526020810180516001600160e01b031663313ce56760e01b1790525f9081908190610fc09085906112ff565b9150915081610fd257505f9392505050565b80806020019051810190610fe69190612041565b60ff16949350505050565b6001600160a01b03831661101857604051634269a05960e01b815260040160405180910390fd5b6001600160a01b03821661103f5760405163b05313bb60e01b815260040160405180910390fd5b6001600160a01b038381165f8181526008602090815260408083209487168084529482529182902085905590518481527fa80d0efa8328d29034668db835056d5d5e5876f77ffc7bc09f1e06b2ba18b12191015b60405180910390a3505050565b6001600160a01b038381165f908152600160209081526040808320938616835292905220545f19811461085c578181101561110757604051637dc7a0d960e11b81526001600160a01b03841660048201526024810182905260448101839052606401610eb6565b61085c84848484035f611433565b5f336106ce818585610e91565b600580546001600160a01b0319166001600160a01b038316908117909155604080516379502c5560e01b815290516379502c55916004808201926020929091908290030181865afa158015611179573d5f803e3d5ffd5b505050506040513d601f19601f8201168201806040525081019061119d9190612061565b600680546001600160a01b0319166001600160a01b039290921691909117905550565b6001600160a01b0382166111e95760405163ec442f0560e01b81525f6004820152602401610eb6565b6108175f8383611505565b6001600160a01b03821661121d57604051634b637e8f60e11b81525f6004820152602401610eb6565b610817825f83611505565b5f8072184f03e93ff9f4daa797ed6e38ed64bf6a1f0160401b83106112665772184f03e93ff9f4daa797ed6e38ed64bf6a1f0160401b830492506040015b6d04ee2d6d415b85acef81000000008310611292576d04ee2d6d415b85acef8100000000830492506020015b662386f26fc1000083106112b057662386f26fc10000830492506010015b6305f5e10083106112c8576305f5e100830492506008015b61271083106112dc57612710830492506004015b606483106112ee576064830492506002015b600a83106106d45760010192915050565b5f60606001600160a01b0384163b61132a576040516373d39f9d60e01b815260040160405180910390fd5b5f80856001600160a01b031685604051611344919061207c565b5f60405180830381855afa9150503d805f811461137c576040519150601f19603f3d011682016040523d82523d5f602084013e611381565b606091505b5091509150816113a6575f60405180602001604052805f8152509350935050506113ae565b600193509150505b9250929050565b80516060905f5b81811015610e7d578381815181106113d6576113d6612097565b01602001516001600160f81b0319161561142b57828482815181106113fd576113fd612097565b602001015160f81c60f81b6040516020016114199291906120ab565b60405160208183030381529060405292505b6001016113bc565b6001600160a01b03841661145c5760405163e602df0560e01b81525f6004820152602401610eb6565b6001600160a01b03831661148557604051634a1406b160e11b81525f6004820152602401610eb6565b6001600160a01b038085165f908152600160209081526040808320938716835292905220829055801561085c57826001600160a01b0316846001600160a01b03167f8c5be1e5ebec7d5bd14f71427d1e84f3dd0314c0f7b2291e5b200ac8c7c3b925846040516114f791815260200190565b60405180910390a350505050565b611510838383611526565b61151b8383836115ea565b610710838383611703565b6115308383611842565b15610710576006546040516372db655960e01b81526001600160a01b0385811660048301528481166024830152909116906372db6559906044015f604051808303815f87803b158015611581575f80fd5b505af1158015611593573d5f803e3d5ffd5b505050506001600160a01b038381165f90815260086020908152604080832093861683529290522054818110156115dd576040516303814af160e61b815260040160405180910390fd5b61085c8484848403610ff1565b6001600160a01b038316611614578060025f8282546116099190611f2b565b909155506116849050565b6001600160a01b0383165f90815260208190526040902054818110156116665760405163391434e360e21b81526001600160a01b03851660048201526024810182905260448101839052606401610eb6565b6001600160a01b0384165f9081526020819052604090209082900390555b6001600160a01b0382166116a0576002805482900390556116be565b6001600160a01b0382165f9081526020819052604090208054820190555b816001600160a01b0316836001600160a01b03167fddf252ad1be2c89b69c2b068fc378daa952ba7f163c4a11628f55a4df523b3ef8360405161109391815260200190565b61170d8383611842565b156117a45761171b8261186a565b6005546040516338b51ce160e01b81526001600160a01b038481166004830152909116906338b51ce190602401602060405180830381865afa158015611763573d5f803e3d5ffd5b505050506040513d601f19601f8201168201806040525081019061178791906120d9565b6117a4576040516377b1921f60e11b815260040160405180910390fd5b6001600160a01b038316158015906117d157506001600160a01b0383165f90815260208190526040902054155b1561183757801561183757600654604051633e3f27fd60e21b81526001600160a01b0385811660048301529091169063f8fc9ff4906024015f604051808303815f87803b158015611820575f80fd5b505af1158015611832573d5f803e3d5ffd5b505050505b610710838383611902565b5f6001600160a01b0383161580159061186357506001600160a01b03821615155b9392505050565b600654600554604051633b691b9f60e01b81526001600160a01b03918216600482015283821660248201525f604482018190529283921690633b691b9f9060640161050060405180830381865afa1580156118c7573d5f803e3d5ffd5b505050506040513d601f19601f820116820180604052508101906118eb91906120f2565b50915091506118f982611a79565b61071081611a79565b604080516080810182526007546001600160a01b03811680835262ffffff600160a01b830481166020850152600160b81b8304811694840194909452600160d01b9091049092166060820152906119595750505050565b6060810151604082015161400062ffffff9283161791908216168114611980575050505050565b81516005546001600160a01b039182169163aef282359116838888886119ba836001600160a01b03165f9081526020819052604090205490565b6001600160a01b038c165f908152602081905260409020546002546040516bffffffffffffffffffffffff19606097881b811660208301529590961b909416603486015260488501929092526068840152608883015260a882015260c8016040516020818303038152906040526040518463ffffffff1660e01b8152600401611a45939291906121ab565b5f604051808303815f87803b158015611a5c575f80fd5b505af1158015611a6e573d5f803e3d5ffd5b505050505050505050565b8061022001518015611a9857506101008101516001600160a01b031615155b15611aff576101008101516080820151604051637cfd30cd60e11b81526001600160a01b03918216600482015291169063f9fa619a906024015f604051808303815f87803b158015611ae8575f80fd5b505af1158015611afa573d5f803e3d5ffd5b505050505b50565b5f5b83811015611b1c578181015183820152602001611b04565b50505f910152565b5f8151808452611b3b816020860160208601611b02565b601f01601f19169290920160200192915050565b602081525f6118636020830184611b24565b6001600160a01b0381168114611aff575f80fd5b5f8060408385031215611b86575f80fd5b8235611b9181611b61565b946020939093013593505050565b5f805f60608486031215611bb1575f80fd5b8335611bbc81611b61565b92506020840135611bcc81611b61565b929592945050506040919091013590565b5f805f8060808587031215611bf0575f80fd5b8435611bfb81611b61565b93506020850135611c0b81611b61565b92506040850135611c1b81611b61565b9396929550929360600135925050565b5f8060408385031215611c3c575f80fd5b8235611c4781611b61565b91506020830135611c5781611b61565b809150509250929050565b5f60208284031215611c72575f80fd5b813561186381611b61565b803562ffffff81168114611c8f575f80fd5b919050565b5f805f8060808587031215611ca7575f80fd5b8435611cb281611b61565b9350611cc060208601611c7d565b9250611cce60408601611c7d565b9150611cdc60608601611c7d565b905092959194509250565b634e487b7160e01b5f52604160045260245ffd5b604051610240810167ffffffffffffffff81118282101715611d1f57611d1f611ce7565b60405290565b8051611c8f81611b61565b80518015158114611c8f575f80fd5b5f6102408284031215611d50575f80fd5b611d58611cfb565b90508151815260208201516020820152611d7460408301611d25565b6040820152611d8560608301611d25565b6060820152611d9660808301611d25565b6080820152611da760a08301611d25565b60a0820152611db860c08301611d25565b60c0820152611dc960e08301611d25565b60e0820152610100611ddc818401611d25565b90820152610120611dee838201611d25565b90820152610140611e00838201611d25565b90820152610160828101519082015261018080830151908201526101a080830151908201526101c080830151908201526101e0611e3e818401611d25565b90820152610200611e50838201611d25565b90820152610220611e62838201611d30565b9082015292915050565b5f6102408284031215611e7d575f80fd5b6118638383611d3f565b5f60208284031215611e97575f80fd5b5051919050565b6c029b4b637902334b730b731b29609d1b81525f8551611ec581600d850160208a01611b02565b855190830190611edc81600d840160208a01611b02565b8551910190611ef281600d840160208901611b02565b690161029b4b637a4b21d160b51b600d92909101918201528351611f1d816017840160208801611b02565b016017019695505050505050565b808201808211156106d457634e487b7160e01b5f52601160045260245ffd5b5f8451611f5b818460208901611b02565b845190830190611f6f818360208901611b02565b602d60f81b91019081528351611f8c816001840160208801611b02565b0160010195945050505050565b5f60208284031215611fa9575f80fd5b815167ffffffffffffffff80821115611fc0575f80fd5b818401915084601f830112611fd3575f80fd5b815181811115611fe557611fe5611ce7565b604051601f8201601f19908116603f0116810190838211818310171561200d5761200d611ce7565b81604052828152876020848701011115612025575f80fd5b612036836020830160208801611b02565b979650505050505050565b5f60208284031215612051575f80fd5b815160ff81168114611863575f80fd5b5f60208284031215612071575f80fd5b815161186381611b61565b5f825161208d818460208701611b02565b9190910192915050565b634e487b7160e01b5f52603260045260245ffd5b5f83516120bc818460208801611b02565b6001600160f81b0319939093169190920190815260010192915050565b5f602082840312156120e9575f80fd5b61186382611d30565b5f805f838503610500811215612106575f80fd5b6121108686611d3f565b9350612120866102408701611d3f565b9250608061047f1982011215612134575f80fd5b506040516080810181811067ffffffffffffffff8211171561215857612158611ce7565b6040526121686104808601611d30565b81526121776104a08601611d30565b60208201526121896104c08601611d30565b604082015261219b6104e08601611d30565b6060820152809150509250925092565b60018060a01b0384168152826020820152606060408201525f6121d16060830184611b24565b9594505050505056fea26469706673582212200e4d6509bd2865a13e6d9858cf04744ed39fcff9cc8a47c3b387bed15b84284564736f6c63430008180033",
  "language": "Solidity",
  "compiler": "0.8.24+commit.e11b9ed9"
}