{
  "address": "0x8C1b49B1A45d9FD50c5846a6Cd19a5ADaA376B1B",
  "abi": [
    {
      "inputs": [],
      "stateMutability": "nonpayable",
      "type": "constructor"
    },
    {
      "inputs": [],
      "name": "MAX_FEE",
      "outputs": [
        {
          "internalType": "uint256",
          "name": "",
          "type": "uint256"
        }
      ],
      "stateMutability": "view",
      "type": "function"
    },
    {
      "inputs": [],
      "name": "MAX_PERCENT",
      "outputs": [
        {
          "internalType": "uint256",
          "name": "",
          "type": "uint256"
        }
      ],
      "stateMutability": "view",
      "type": "function"
    },
    {
      "inputs": [],
      "name": "acceptOwnership",
      "outputs": [],
      "stateMutability": "nonpayable",
      "type": "function"
    },
    {
      "inputs": [
        {
          "internalType": "address",
          "name": "to",
          "type": "address"
        },
        {
          "internalType": "uint256",
          "name": "tokenId",
          "type": "uint256"
        }
      ],
      "name": "approve",
      "outputs": [],
      "stateMutability": "nonpayable",
      "type": "function"
    },
    {
      "inputs": [
        {
          "internalType": "address",
          "name": "owner",
          "type": "address"
        }
      ],
      "name": "balanceOf",
      "outputs": [
        {
          "internalType": "uint256",
          "name": "",
          "type": "uint256"
        }
      ],
      "stateMutability": "view",
      "type": "function"
    },
    {
      "inputs": [
        {
          "components": [
            {
              "internalType": "address",
              "name": "deployer",
              "type": "address"
            },
            {
              "internalType": "address",
              "name": "liquidationModule",
              "type": "address"
            },
            {
              "internalType": "address",
              "name": "hookReceiver",
              "type": "address"
            },
            {
              "internalType": "uint256",
              "name": "deployerFee",
              "type": "uint256"
            },
            {
              "internalType": "address",
              "name": "token0",
              "type": "address"
            },
            {
              "internalType": "address",
              "name": "solvencyOracle0",
              "type": "address"
            },
            {
              "internalType": "address",
              "name": "maxLtvOracle0",
              "type": "address"
            },
            {
              "internalType": "address",
              "name": "interestRateModel0",
              "type": "address"
            },
            {
              "internalType": "address",
              "name": "interestRateModelConfig0",
              "type": "address"
            },
            {
              "internalType": "uint256",
              "name": "maxLtv0",
              "type": "uint256"
            },
            {
              "internalType": "uint256",
              "name": "lt0",
              "type": "uint256"
            },
            {
              "internalType": "uint256",
              "name": "liquidationFee0",
              "type": "uint256"
            },
            {
              "internalType": "uint256",
              "name": "flashloanFee0",
              "type": "uint256"
            },
            {
              "internalType": "bool",
              "name": "callBeforeQuote0",
              "type": "bool"
            },
            {
              "internalType": "address",
              "name": "token1",
              "type": "address"
            },
            {
              "internalType": "address",
              "name": "solvencyOracle1",
              "type": "address"
            },
            {
              "internalType": "address",
              "name": "maxLtvOracle1",
              "type": "address"
            },
            {
              "internalType": "address",
              "name": "interestRateModel1",
              "type": "address"
            },
            {
              "internalType": "address",
              "name": "interestRateModelConfig1",
              "type": "address"
            },
            {
              "internalType": "uint256",
              "name": "maxLtv1",
              "type": "uint256"
            },
            {
              "internalType": "uint256",
              "name": "lt1",
              "type": "uint256"
            },
            {
              "internalType": "uint256",
              "name": "liquidationFee1",
              "type": "uint256"
            },
            {
              "internalType": "uint256",
              "name": "flashloanFee1",
              "type": "uint256"
            },
            {
              "internalType": "bool",
              "name": "callBeforeQuote1",
              "type": "bool"
            }
          ],
          "internalType": "struct ISiloConfig.InitData",
          "name": "_initData",
          "type": "tuple"
        }
      ],
      "name": "createSilo",
      "outputs": [
        {
          "internalType": "contract ISiloConfig",
          "name": "siloConfig",
          "type": "address"
        }
      ],
      "stateMutability": "nonpayable",
      "type": "function"
    },
    {
      "inputs": [],
      "name": "daoFee",
      "outputs": [
        {
          "internalType": "uint256",
          "name": "",
          "type": "uint256"
        }
      ],
      "stateMutability": "view",
      "type": "function"
    },
    {
      "inputs": [],
      "name": "daoFeeReceiver",
      "outputs": [
        {
          "internalType": "address",
          "name": "",
          "type": "address"
        }
      ],
      "stateMutability": "view",
      "type": "function"
    },
    {
      "inputs": [
        {
          "internalType": "uint256",
          "name": "tokenId",
          "type": "uint256"
        }
      ],
      "name": "getApproved",
      "outputs": [
        {
          "internalType": "address",
          "name": "",
          "type": "address"
        }
      ],
      "stateMutability": "view",
      "type": "function"
    },
    {
      "inputs": [
        {
          "internalType": "address",
          "name": "_silo",
          "type": "address"
        }
      ],
      "name": "getFeeReceivers",
      "outputs": [
        {
          "internalType": "address",
          "name": "dao",
          "type": "address"
        },
        {
          "internalType": "address",
          "name": "deployer",
          "type": "address"
        }
      ],
      "stateMutability": "view",
      "type": "function"
    },
    {
      "inputs": [],
      "name": "getNextSiloId",
      "outputs": [
        {
          "internalType": "uint256",
          "name": "",
          "type": "uint256"
        }
      ],
      "stateMutability": "view",
      "type": "function"
    },
    {
      "inputs": [
        {
          "internalType": "uint256",
          "name": "_id",
          "type": "uint256"
        }
      ],
      "name": "idToSilos",
      "outputs": [
        {
          "internalType": "address[2]",
          "name": "silos",
          "type": "address[2]"
        }
      ],
      "stateMutability": "view",
      "type": "function"
    },
    {
      "inputs": [
        {
          "internalType": "address",
          "name": "_siloImpl",
          "type": "address"
        },
        {
          "internalType": "address",
          "name": "_shareCollateralTokenImpl",
          "type": "address"
        },
        {
          "internalType": "address",
          "name": "_shareDebtTokenImpl",
          "type": "address"
        },
        {
          "internalType": "uint256",
          "name": "_daoFee",
          "type": "uint256"
        },
        {
          "internalType": "address",
          "name": "_daoFeeReceiver",
          "type": "address"
        }
      ],
      "name": "initialize",
      "outputs": [],
      "stateMutability": "nonpayable",
      "type": "function"
    },
    {
      "inputs": [
        {
          "internalType": "address",
          "name": "owner",
          "type": "address"
        },
        {
          "internalType": "address",
          "name": "operator",
          "type": "address"
        }
      ],
      "name": "isApprovedForAll",
      "outputs": [
        {
          "internalType": "bool",
          "name": "",
          "type": "bool"
        }
      ],
      "stateMutability": "view",
      "type": "function"
    },
    {
      "inputs": [
        {
          "internalType": "address",
          "name": "_silo",
          "type": "address"
        }
      ],
      "name": "isSilo",
      "outputs": [
        {
          "internalType": "bool",
          "name": "",
          "type": "bool"
        }
      ],
      "stateMutability": "view",
      "type": "function"
    },
    {
      "inputs": [],
      "name": "maxDeployerFee",
      "outputs": [
        {
          "internalType": "uint256",
          "name": "",
          "type": "uint256"
        }
      ],
      "stateMutability": "view",
      "type": "function"
    },
    {
      "inputs": [],
      "name": "maxFlashloanFee",
      "outputs": [
        {
          "internalType": "uint256",
          "name": "",
          "type": "uint256"
        }
      ],
      "stateMutability": "view",
      "type": "function"
    },
    {
      "inputs": [],
      "name": "maxLiquidationFee",
      "outputs": [
        {
          "internalType": "uint256",
          "name": "",
          "type": "uint256"
        }
      ],
      "stateMutability": "view",
      "type": "function"
    },
    {
      "inputs": [],
      "name": "name",
      "outputs": [
        {
          "internalType": "string",
          "name": "",
          "type": "string"
        }
      ],
      "stateMutability": "view",
      "type": "function"
    },
    {
      "inputs": [],
      "name": "owner",
      "outputs": [
        {
          "internalType": "address",
          "name": "",
          "type": "address"
        }
      ],
      "stateMutability": "view",
      "type": "function"
    },
    {
      "inputs": [
        {
          "internalType": "uint256",
          "name": "tokenId",
          "type": "uint256"
        }
      ],
      "name": "ownerOf",
      "outputs": [
        {
          "internalType": "address",
          "name": "",
          "type": "address"
        }
      ],
      "stateMutability": "view",
      "type": "function"
    },
    {
      "inputs": [],
      "name": "pendingOwner",
      "outputs": [
        {
          "internalType": "address",
          "name": "",
          "type": "address"
        }
      ],
      "stateMutability": "view",
      "type": "function"
    },
    {
      "inputs": [],
      "name": "renounceOwnership",
      "outputs": [],
      "stateMutability": "nonpayable",
      "type": "function"
    },
    {
      "inputs": [
        {
          "internalType": "address",
          "name": "from",
          "type": "address"
        },
        {
          "internalType": "address",
          "name": "to",
          "type": "address"
        },
        {
          "internalType": "uint256",
          "name": "tokenId",
          "type": "uint256"
        }
      ],
      "name": "safeTransferFrom",
      "outputs": [],
      "stateMutability": "nonpayable",
      "type": "function"
    },
    {
      "inputs": [
        {
          "internalType": "address",
          "name": "from",
          "type": "address"
        },
        {
          "internalType": "address",
          "name": "to",
          "type": "address"
        },
        {
          "internalType": "uint256",
          "name": "tokenId",
          "type": "uint256"
        },
        {
          "internalType": "bytes",
          "name": "data",
          "type": "bytes"
        }
      ],
      "name": "safeTransferFrom",
      "outputs": [],
      "stateMutability": "nonpayable",
      "type": "function"
    },
    {
      "inputs": [
        {
          "internalType": "address",
          "name": "operator",
          "type": "address"
        },
        {
          "internalType": "bool",
          "name": "approved",
          "type": "bool"
        }
      ],
      "name": "setApprovalForAll",
      "outputs": [],
      "stateMutability": "nonpayable",
      "type": "function"
    },
    {
      "inputs": [
        {
          "internalType": "uint256",
          "name": "_newDaoFee",
          "type": "uint256"
        }
      ],
      "name": "setDaoFee",
      "outputs": [],
      "stateMutability": "nonpayable",
      "type": "function"
    },
    {
      "inputs": [
        {
          "internalType": "address",
          "name": "_newDaoFeeReceiver",
          "type": "address"
        }
      ],
      "name": "setDaoFeeReceiver",
      "outputs": [],
      "stateMutability": "nonpayable",
      "type": "function"
    },
    {
      "inputs": [
        {
          "internalType": "uint256",
          "name": "_newMaxDeployerFee",
          "type": "uint256"
        }
      ],
      "name": "setMaxDeployerFee",
      "outputs": [],
      "stateMutability": "nonpayable",
      "type": "function"
    },
    {
      "inputs": [
        {
          "internalType": "uint256",
          "name": "_newMaxFlashloanFee",
          "type": "uint256"
        }
      ],
      "name": "setMaxFlashloanFee",
      "outputs": [],
      "stateMutability": "nonpayable",
      "type": "function"
    },
    {
      "inputs": [
        {
          "internalType": "uint256",
          "name": "_newMaxLiquidationFee",
          "type": "uint256"
        }
      ],
      "name": "setMaxLiquidationFee",
      "outputs": [],
      "stateMutability": "nonpayable",
      "type": "function"
    },
    {
      "inputs": [],
      "name": "shareCollateralTokenImpl",
      "outputs": [
        {
          "internalType": "address",
          "name": "",
          "type": "address"
        }
      ],
      "stateMutability": "view",
      "type": "function"
    },
    {
      "inputs": [],
      "name": "shareDebtTokenImpl",
      "outputs": [
        {
          "internalType": "address",
          "name": "",
          "type": "address"
        }
      ],
      "stateMutability": "view",
      "type": "function"
    },
    {
      "inputs": [],
      "name": "siloImpl",
      "outputs": [
        {
          "internalType": "address",
          "name": "",
          "type": "address"
        }
      ],
      "stateMutability": "view",
      "type": "function"
    },
    {
      "inputs": [
        {
          "internalType": "address",
          "name": "silo",
          "type": "address"
        }
      ],
      "name": "siloToId",
      "outputs": [
        {
          "internalType": "uint256",
          "name": "id",
          "type": "uint256"
        }
      ],
      "stateMutability": "view",
      "type": "function"
    },
    {
      "inputs": [
        {
          "internalType": "bytes4",
          "name": "interfaceId",
          "type": "bytes4"
        }
      ],
      "name": "supportsInterface",
      "outputs": [
        {
          "internalType": "bool",
          "name": "",
          "type": "bool"
        }
      ],
      "stateMutability": "view",
      "type": "function"
    },
    {
      "inputs": [],
      "name": "symbol",
      "outputs": [
        {
          "internalType": "string",
          "name": "",
          "type": "string"
        }
      ],
      "stateMutability": "view",
      "type": "function"
    },
    {
      "inputs": [
        {
          "internalType": "uint256",
          "name": "tokenId",
          "type": "uint256"
        }
      ],
      "name": "tokenURI",
      "outputs": [
        {
          "internalType": "string",
          "name": "",
          "type": "string"
        }
      ],
      "stateMutability": "view",
      "type": "function"
    },
    {
      "inputs": [
        {
          "internalType": "address",
          "name": "from",
          "type": "address"
        },
        {
          "internalType": "address",
          "name": "to",
          "type": "address"
        },
        {
          "internalType": "uint256",
          "name": "tokenId",
          "type": "uint256"
        }
      ],
      "name": "transferFrom",
      "outputs": [],
      "stateMutability": "nonpayable",
      "type": "function"
    },
    {
      "inputs": [
        {
          "internalType": "address",
          "name": "newOwner",
          "type": "address"
        }
      ],
      "name": "transferOwnership",
      "outputs": [],
      "stateMutability": "nonpayable",
      "type": "function"
    },
    {
      "inputs": [
        {
          "components": [
            {
              "internalType": "address",
              "name": "deployer",
              "type": "address"
            },
            {
              "internalType": "address",
              "name": "liquidationModule",
              "type": "address"
            },
            {
              "internalType": "address",
              "name": "hookReceiver",
              "type": "address"
            },
            {
              "internalType": "uint256",
              "name": "deployerFee",
              "type": "uint256"
            },
            {
              "internalType": "address",
              "name": "token0",
              "type": "address"
            },
            {
              "internalType": "address",
              "name": "solvencyOracle0",
              "type": "address"
            },
            {
              "internalType": "address",
              "name": "maxLtvOracle0",
              "type": "address"
            },
            {
              "internalType": "address",
              "name": "interestRateModel0",
              "type": "address"
            },
            {
              "internalType": "address",
              "name": "interestRateModelConfig0",
              "type": "address"
            },
            {
              "internalType": "uint256",
              "name": "maxLtv0",
              "type": "uint256"
            },
            {
              "internalType": "uint256",
              "name": "lt0",
              "type": "uint256"
            },
            {
              "internalType": "uint256",
              "name": "liquidationFee0",
              "type": "uint256"
            },
            {
              "internalType": "uint256",
              "name": "flashloanFee0",
              "type": "uint256"
            },
            {
              "internalType": "bool",
              "name": "callBeforeQuote0",
              "type": "bool"
            },
            {
              "internalType": "address",
              "name": "token1",
              "type": "address"
            },
            {
              "internalType": "address",
              "name": "solvencyOracle1",
              "type": "address"
            },
            {
              "internalType": "address",
              "name": "maxLtvOracle1",
              "type": "address"
            },
            {
              "internalType": "address",
              "name": "interestRateModel1",
              "type": "address"
            },
            {
              "internalType": "address",
              "name": "interestRateModelConfig1",
              "type": "address"
            },
            {
              "internalType": "uint256",
              "name": "maxLtv1",
              "type": "uint256"
            },
            {
              "internalType": "uint256",
              "name": "lt1",
              "type": "uint256"
            },
            {
              "internalType": "uint256",
              "name": "liquidationFee1",
              "type": "uint256"
            },
            {
              "internalType": "uint256",
              "name": "flashloanFee1",
              "type": "uint256"
            },
            {
              "internalType": "bool",
              "name": "callBeforeQuote1",
              "type": "bool"
            }
          ],
          "internalType": "struct ISiloConfig.InitData",
          "name": "_initData",
          "type": "tuple"
        }
      ],
      "name": "validateSiloInitData",
      "outputs": [
        {
          "internalType": "bool",
          "name": "",
          "type": "bool"
        }
      ],
      "stateMutability": "view",
      "type": "function"
    },
    {
      "anonymous": false,
      "inputs": [
        {
          "indexed": true,
          "internalType": "address",
          "name": "owner",
          "type": "address"
        },
        {
          "indexed": true,
          "internalType": "address",
          "name": "approved",
          "type": "address"
        },
        {
          "indexed": true,
          "internalType": "uint256",
          "name": "tokenId",
          "type": "uint256"
        }
      ],
      "name": "Approval",
      "type": "event"
    },
    {
      "anonymous": false,
      "inputs": [
        {
          "indexed": true,
          "internalType": "address",
          "name": "owner",
          "type": "address"
        },
        {
          "indexed": true,
          "internalType": "address",
          "name": "operator",
          "type": "address"
        },
        {
          "indexed": false,
          "internalType": "bool",
          "name": "approved",
          "type": "bool"
        }
      ],
      "name": "ApprovalForAll",
      "type": "event"
    },
    {
      "anonymous": false,
      "inputs": [
        {
          "indexed": false,
          "internalType": "uint256",
          "name": "daoFee",
          "type": "uint256"
        }
      ],
      "name": "DaoFeeChanged",
      "type": "event"
    },
    {
      "anonymous": false,
      "inputs": [
        {
          "indexed": false,
          "internalType": "address",
          "name": "daoFeeReceiver",
          "type": "address"
        }
      ],
      "name": "DaoFeeReceiverChanged",
      "type": "event"
    },
    {
      "anonymous": false,
      "inputs": [
        {
          "indexed": false,
          "internalType": "uint256",
          "name": "maxDeployerFee",
          "type": "uint256"
        }
      ],
      "name": "MaxDeployerFeeChanged",
      "type": "event"
    },
    {
      "anonymous": false,
      "inputs": [
        {
          "indexed": false,
          "internalType": "uint256",
          "name": "maxFlashloanFee",
          "type": "uint256"
        }
      ],
      "name": "MaxFlashloanFeeChanged",
      "type": "event"
    },
    {
      "anonymous": false,
      "inputs": [
        {
          "indexed": false,
          "internalType": "uint256",
          "name": "maxLiquidationFee",
          "type": "uint256"
        }
      ],
      "name": "MaxLiquidationFeeChanged",
      "type": "event"
    },
    {
      "anonymous": false,
      "inputs": [
        {
          "indexed": true,
          "internalType": "address",
          "name": "token0",
          "type": "address"
        },
        {
          "indexed": true,
          "internalType": "address",
          "name": "token1",
          "type": "address"
        },
        {
          "indexed": false,
          "internalType": "address",
          "name": "silo0",
          "type": "address"
        },
        {
          "indexed": false,
          "internalType": "address",
          "name": "silo1",
          "type": "address"
        },
        {
          "indexed": false,
          "internalType": "address",
          "name": "siloConfig",
          "type": "address"
        }
      ],
      "name": "NewSilo",
      "type": "event"
    },
    {
      "anonymous": false,
      "inputs": [
        {
          "indexed": true,
          "internalType": "address",
          "name": "previousOwner",
          "type": "address"
        },
        {
          "indexed": true,
          "internalType": "address",
          "name": "newOwner",
          "type": "address"
        }
      ],
      "name": "OwnershipTransferStarted",
      "type": "event"
    },
    {
      "anonymous": false,
      "inputs": [
        {
          "indexed": true,
          "internalType": "address",
          "name": "previousOwner",
          "type": "address"
        },
        {
          "indexed": true,
          "internalType": "address",
          "name": "newOwner",
          "type": "address"
        }
      ],
      "name": "OwnershipTransferred",
      "type": "event"
    },
    {
      "anonymous": false,
      "inputs": [
        {
          "indexed": true,
          "internalType": "address",
          "name": "from",
          "type": "address"
        },
        {
          "indexed": true,
          "internalType": "address",
          "name": "to",
          "type": "address"
        },
        {
          "indexed": true,
          "internalType": "uint256",
          "name": "tokenId",
          "type": "uint256"
        }
      ],
      "name": "Transfer",
      "type": "event"
    },
    {
      "inputs": [],
      "name": "BeforeCall",
      "type": "error"
    },
    {
      "inputs": [
        {
          "internalType": "address",
          "name": "sender",
          "type": "address"
        },
        {
          "internalType": "uint256",
          "name": "tokenId",
          "type": "uint256"
        },
        {
          "internalType": "address",
          "name": "owner",
          "type": "address"
        }
      ],
      "name": "ERC721IncorrectOwner",
      "type": "error"
    },
    {
      "inputs": [
        {
          "internalType": "address",
          "name": "operator",
          "type": "address"
        },
        {
          "internalType": "uint256",
          "name": "tokenId",
          "type": "uint256"
        }
      ],
      "name": "ERC721InsufficientApproval",
      "type": "error"
    },
    {
      "inputs": [
        {
          "internalType": "address",
          "name": "approver",
          "type": "address"
        }
      ],
      "name": "ERC721InvalidApprover",
      "type": "error"
    },
    {
      "inputs": [
        {
          "internalType": "address",
          "name": "operator",
          "type": "address"
        }
      ],
      "name": "ERC721InvalidOperator",
      "type": "error"
    },
    {
      "inputs": [
        {
          "internalType": "address",
          "name": "owner",
          "type": "address"
        }
      ],
      "name": "ERC721InvalidOwner",
      "type": "error"
    },
    {
      "inputs": [
        {
          "internalType": "address",
          "name": "receiver",
          "type": "address"
        }
      ],
      "name": "ERC721InvalidReceiver",
      "type": "error"
    },
    {
      "inputs": [
        {
          "internalType": "address",
          "name": "sender",
          "type": "address"
        }
      ],
      "name": "ERC721InvalidSender",
      "type": "error"
    },
    {
      "inputs": [
        {
          "internalType": "uint256",
          "name": "tokenId",
          "type": "uint256"
        }
      ],
      "name": "ERC721NonexistentToken",
      "type": "error"
    },
    {
      "inputs": [
        {
          "internalType": "address",
          "name": "asset0",
          "type": "address"
        },
        {
          "internalType": "address",
          "name": "asset1",
          "type": "address"
        }
      ],
      "name": "EmptySiloAsset",
      "type": "error"
    },
    {
      "inputs": [],
      "name": "FailedDeployment",
      "type": "error"
    },
    {
      "inputs": [
        {
          "internalType": "uint256",
          "name": "balance",
          "type": "uint256"
        },
        {
          "internalType": "uint256",
          "name": "needed",
          "type": "uint256"
        }
      ],
      "name": "InsufficientBalance",
      "type": "error"
    },
    {
      "inputs": [],
      "name": "InvalidDeployer",
      "type": "error"
    },
    {
      "inputs": [],
      "name": "InvalidFee",
      "type": "error"
    },
    {
      "inputs": [],
      "name": "InvalidInitialization",
      "type": "error"
    },
    {
      "inputs": [],
      "name": "InvalidIrm",
      "type": "error"
    },
    {
      "inputs": [],
      "name": "InvalidIrmConfig",
      "type": "error"
    },
    {
      "inputs": [],
      "name": "InvalidLt",
      "type": "error"
    },
    {
      "inputs": [],
      "name": "InvalidMaxLt",
      "type": "error"
    },
    {
      "inputs": [],
      "name": "InvalidMaxLtv",
      "type": "error"
    },
    {
      "inputs": [],
      "name": "MaxDeployerFee",
      "type": "error"
    },
    {
      "inputs": [],
      "name": "MaxFee",
      "type": "error"
    },
    {
      "inputs": [],
      "name": "MaxFlashloanFee",
      "type": "error"
    },
    {
      "inputs": [],
      "name": "MaxLiquidationFee",
      "type": "error"
    },
    {
      "inputs": [],
      "name": "MissingLiquidationModule",
      "type": "error"
    },
    {
      "inputs": [],
      "name": "OnlyCreator",
      "type": "error"
    },
    {
      "inputs": [],
      "name": "OracleMisconfiguration",
      "type": "error"
    },
    {
      "inputs": [
        {
          "internalType": "address",
          "name": "owner",
          "type": "address"
        }
      ],
      "name": "OwnableInvalidOwner",
      "type": "error"
    },
    {
      "inputs": [
        {
          "internalType": "address",
          "name": "account",
          "type": "address"
        }
      ],
      "name": "OwnableUnauthorizedAccount",
      "type": "error"
    },
    {
      "inputs": [],
      "name": "SameAsset",
      "type": "error"
    },
    {
      "inputs": [],
      "name": "Uninitialized",
      "type": "error"
    },
    {
      "inputs": [],
      "name": "ZeroAddress",
      "type": "error"
    }
  ],
  "bytecode": "0x60a060405234801562000010575f80fd5b50336040518060400160405280601981526020017f53696c6f2046696e616e636520466565205265636569766572000000000000008152506040518060400160405280600781526020016666656553494c4f60c81b815250815f9081620000789190620001db565b506001620000878282620001db565b5050506001600160a01b038116620000b857604051631e4fbdf760e01b81525f600482015260240160405180910390fd5b620000c381620000ce565b5033608052620002a7565b600780546001600160a01b0319169055620000e981620000ec565b50565b600680546001600160a01b038381166001600160a01b0319831681179093556040519116919082907f8be0079c531659141344cd1fd0a4f28419497f9722a3daafe3b4186f6b6457e0905f90a35050565b634e487b7160e01b5f52604160045260245ffd5b600181811c908216806200016657607f821691505b6020821081036200018557634e487b7160e01b5f52602260045260245ffd5b50919050565b601f821115620001d657805f5260205f20601f840160051c81016020851015620001b25750805b601f840160051c820191505b81811015620001d3575f8155600101620001be565b50505b505050565b81516001600160401b03811115620001f757620001f76200013d565b6200020f8162000208845462000151565b846200018b565b602080601f83116001811462000245575f84156200022d5750858301515b5f19600386901b1c1916600185901b1785556200029f565b5f85815260208120601f198616915b82811015620002755788860151825594840194600190910190840162000254565b50858210156200029357878501515f19600388901b60f8161c191681555b505060018460011b0185555b505050505050565b608051615620620002c05f395f610cad01526156205ff3fe608060405234801562000010575f80fd5b50600436106200027c575f3560e01c806363fcc73f116200015b578063b14a25a811620000cf578063c87b56dd116200008f578063c87b56dd14620005ad578063e30c397814620005c4578063e93919b814620005d6578063e985e9c514620005fc578063eeb016f21462000613578063f2fde38b146200061d575f80fd5b8063b14a25a81462000536578063b20ff790146200054d578063b88d4fde146200056f578063bc063e1a1462000586578063bc2ef3f31462000596575f80fd5b80638da5cb5b116200011b5780638da5cb5b14620004e257806395d89b4114620004f4578063a22cb46514620004fe578063a4c3e2721462000515578063ab12bf80146200051f575f80fd5b806363fcc73f14620004995780636abd4e1914620004a357806370a0823114620004b7578063715018a614620004ce57806379ba509714620004d8575f80fd5b80632957b83911620001f35780635500f93111620001b35780635500f931146200042c578063552490e6146200044357806356bf27ae146200045757806361ed96f5146200046e5780636352211e1462000482575f80fd5b80632957b83914620003d457806342842e0e14620003de57806349f33f2e14620003f5578063530b97a414620003fe5780635410b1a91462000415575f80fd5b806312f0dcd8116200023f57806312f0dcd8146200032d578063152f751d146200035a578063181a0a7214620003715780632396ef0c14620003a957806323b872dd14620003bd575f80fd5b806301ffc9a7146200028057806306fdde0314620002ac578063081812fc14620002c5578063095ea7b314620002f55780631036bbe2146200030e575b5f80fd5b620002976200029136600462002495565b62000634565b60405190151581526020015b60405180910390f35b620002b662000687565b604051620002a3919062002504565b620002dc620002d636600462002518565b6200071e565b6040516001600160a01b039091168152602001620002a3565b6200030c620003063660046200254c565b62000748565b005b6200031e670de0b6b3a764000081565b604051908152602001620002a3565b620002976200033e36600462002577565b6001600160a01b03165f90815260126020526040902054151590565b620002976200036b36600462002618565b62000759565b620003886200038236600462002577565b62000ba8565b604080516001600160a01b03938416815292909116602083015201620002a3565b600e54620002dc906001600160a01b031681565b6200030c620003ce366004620027bc565b62000bf2565b6200031e60095481565b6200030c620003ef366004620027bc565b62000c81565b6008546200031e565b6200030c6200040f366004620027fa565b62000ca2565b6200030c6200042636600462002518565b62000df4565b620002dc6200043d36600462002618565b62000e0c565b601054620002dc906001600160a01b031681565b6200030c6200046836600462002518565b62001182565b600d54620002dc906001600160a01b031681565b620002dc6200049336600462002518565b62001197565b6200031e600b5481565b600f54620002dc906001600160a01b031681565b6200031e620004c836600462002577565b620011a3565b6200030c620011ea565b6200030c62001201565b6006546001600160a01b0316620002dc565b620002b662001246565b6200030c6200050f3660046200285d565b62001257565b6200031e600a5481565b6200030c6200053036600462002577565b62001264565b6200030c6200054736600462002518565b62001279565b6200031e6200055e36600462002577565b60126020525f908152604090205481565b6200030c6200058036600462002893565b6200128e565b6200031e67058d15e17628000081565b6200030c620005a736600462002518565b620012aa565b620002b6620005be36600462002518565b620012bf565b6007546001600160a01b0316620002dc565b620005ed620005e736600462002518565b6200135f565b604051620002a3919062002959565b620002976200060d36600462002994565b620013b2565b6200031e600c5481565b6200030c6200062e36600462002577565b620013df565b5f6001600160e01b031982166380ac58cd60e01b14806200066557506001600160e01b03198216635b5e139f60e01b145b806200068157506301ffc9a760e01b6001600160e01b03198316145b92915050565b60605f80546200069790620029c1565b80601f0160208091040260200160405190810160405280929190818152602001828054620006c590620029c1565b8015620007145780601f10620006ea5761010080835404028352916020019162000714565b820191905f5260205f20905b815481529060010190602001808311620006f657829003601f168201915b5050505050905090565b5f6200072a8262001453565b505f828152600460205260409020546001600160a01b031662000681565b620007558282336200148d565b5050565b60208101515f906001600160a01b0316620007875760405163d55e022760e01b815260040160405180910390fd5b816101c001516001600160a01b031682608001516001600160a01b031603620007c35760405163534c524d60e11b815260040160405180910390fd5b610120820151158015620007da5750610260820151155b15620007f9576040516375fcbb8960e01b815260040160405180910390fd5b816101400151826101200151111562000825576040516375fcbb8960e01b815260040160405180910390fd5b816102800151826102600151111562000851576040516375fcbb8960e01b815260040160405180910390fd5b670de0b6b3a76400008261014001511180620008795750670de0b6b3a7640000826102800151115b1562000898576040516313fd16a560e11b815260040160405180910390fd5b60c08201516001600160a01b031615801590620008c0575060a08201516001600160a01b0316155b15620008df5760405163952268d360e01b815260040160405180910390fd5b816101a001518015620008fd575060a08201516001600160a01b0316155b156200091c5760405163040075f160e51b815260040160405180910390fd5b6102008201516001600160a01b0316158015906200094657506101e08201516001600160a01b0316155b15620009655760405163952268d360e01b815260040160405180910390fd5b816102e0015180156200098457506101e08201516001600160a01b0316155b15620009a35760405163040075f160e51b815260040160405180910390fd5b5f8260600151118015620009bf575081516001600160a01b0316155b15620009de5760405163043c669f60e01b815260040160405180910390fd5b600a548260600151111562000a065760405163589a63d960e01b815260040160405180910390fd5b600b54826101800151111562000a2f5760405163e88639bf60e01b815260040160405180910390fd5b600b54826102c00151111562000a585760405163e88639bf60e01b815260040160405180910390fd5b600c54826101600151111562000a8157604051638ef8260d60e01b815260040160405180910390fd5b600c54826102a00151111562000aaa57604051638ef8260d60e01b815260040160405180910390fd5b6101008201516001600160a01b0316158062000ad257506102408201516001600160a01b0316155b1562000af157604051630283cdcf60e51b815260040160405180910390fd5b60e08201516001600160a01b0316158062000b1857506102208201516001600160a01b0316155b1562000b3757604051632e4e395f60e01b815260040160405180910390fd5b60808201516001600160a01b0316158062000b5e57506101c08201516001600160a01b0316155b1562000ba05760808201516101c0830151604051639092351d60e01b81526001600160a01b039283166004820152911660248201526044015b60405180910390fd5b506001919050565b600d546001600160a01b038281165f9081526012602052604081205490928392169062000be9905f908152600260205260409020546001600160a01b031690565b91509150915091565b6001600160a01b03821662000c1d57604051633250574960e11b81525f600482015260240162000b97565b5f62000c2b8383336200149c565b9050836001600160a01b0316816001600160a01b03161462000c7b576040516364283d7b60e01b81526001600160a01b038086166004830152602482018490528216604482015260640162000b97565b50505050565b62000c9d83838360405180602001604052805f8152506200128e565b505050565b336001600160a01b037f0000000000000000000000000000000000000000000000000000000000000000161462000cec576040516308f78f9960e31b815260040160405180910390fd5b6008541562000d0e5760405163f92ee8a960e01b815260040160405180910390fd5b60016008556001600160a01b038516158062000d3157506001600160a01b038416155b8062000d4457506001600160a01b038316155b1562000d635760405163d92e233d60e01b815260040160405180910390fd5b600e80546001600160a01b038088166001600160a01b031992831617909255600f80548784169083161790556010805492861692909116919091179055670214e8348c4f000080670429d069189e000062000dbe8562001595565b62000dc984620015fb565b62000dd48362001672565b62000ddf82620016d1565b62000dea8162001730565b5050505050505050565b62000dfe6200178f565b62000e098162001672565b50565b5f62000e188262000759565b505f8062000e2684620017be565b60085491935091505f81900362000e505760405163071cbeb560e21b815260040160405180910390fd5b600880546001019055600954808452825262000e6d83836200199c565b600e5462000e84906001600160a01b031662001a60565b6001600160a01b039081166040850152600e5462000ea3911662001a60565b6001600160a01b03166040808401919091525181908490849062000ec7906200234d565b62000ed59392919062002b3f565b604051809103905ff08015801562000eef573d5f803e3d5ffd5b50604080850151610100880151915163485cc95560e01b81526001600160a01b0380851660048301529283166024820152929650169063485cc955906044015f604051808303815f87803b15801562000f46575f80fd5b505af115801562000f59573d5f803e3d5ffd5b505050604080840151610240880151915163485cc95560e01b81526001600160a01b03888116600483015292831660248201529116915063485cc955906044015f604051808303815f87803b15801562000fb1575f80fd5b505af115801562000fc4573d5f803e3d5ffd5b5050505062000fd4838362001a6d565b82604001516001600160a01b031663cad1aacf6040518163ffffffff1660e01b81526004015f604051808303815f87803b15801562001011575f80fd5b505af115801562001024573d5f803e3d5ffd5b5050505081604001516001600160a01b031663cad1aacf6040518163ffffffff1660e01b81526004015f604051808303815f87803b15801562001065575f80fd5b505af115801562001078573d5f803e3d5ffd5b50505050604083810180516001600160a01b039081165f90815260126020908152848220869055868501805184168352858320879055855180870187529451841685525190921683830152848152601190915291909120620010dc9160026200235b565b5084516001600160a01b031615620010fc578451620010fc908262001cbd565b81608001516001600160a01b031683608001516001600160a01b03167f14581c35c816c9e78ddb2643fc50083788783d932b9fac097874be56ce1f2dcc856040015185604001518860405162001172939291906001600160a01b0393841681529183166020830152909116604082015260600190565b60405180910390a3505050919050565b6200118c6200178f565b62000e0981620016d1565b5f620006818262001453565b5f6001600160a01b038216620011cf576040516322718ad960e21b81525f600482015260240162000b97565b506001600160a01b03165f9081526003602052604090205490565b620011f46200178f565b620011ff5f62001d24565b565b60075433906001600160a01b031681146200123b5760405163118cdaa760e01b81526001600160a01b038216600482015260240162000b97565b62000e098162001d24565b6060600180546200069790620029c1565b6200075533838362001d3f565b6200126e6200178f565b62000e0981620015fb565b620012836200178f565b62000e098162001595565b6200129b84848462000bf2565b62000c7b338585858562001ddf565b620012b46200178f565b62000e098162001730565b6060620012cc8262001453565b505f6200130960408051808201909152601881527f2f2f6170702e73696c6f2e66696e616e63652f73696c6f2f0000000000000000602082015290565b90505f815111620013295760405180602001604052805f81525062001358565b80620013358462001f12565b6040516020016200134892919062002b66565b6040516020818303038152906040525b9392505050565b62001369620023b8565b5f82815260116020526040908190208151808301928390529160029082845b81546001600160a01b03168152600190910190602001808311620013885750505050509050919050565b6001600160a01b039182165f90815260056020908152604080832093909416825291909152205460ff1690565b620013e96200178f565b600780546001600160a01b0383166001600160a01b031990911681179091556200141b6006546001600160a01b031690565b6001600160a01b03167f38d16b8cac22d99fc7c124b9cd0de2d3fa1faef420bfe791d8c362d765e2270060405160405180910390a350565b5f818152600260205260408120546001600160a01b0316806200068157604051637e27328960e01b81526004810184905260240162000b97565b62000c9d838383600162001fa9565b5f828152600260205260408120546001600160a01b0390811690831615620014cb57620014cb818486620020b8565b6001600160a01b038116156200150857620014e95f855f8062001fa9565b6001600160a01b0381165f90815260036020526040902080545f190190555b6001600160a01b0385161562001537576001600160a01b0385165f908152600360205260409020805460010190555b5f8481526002602052604080822080546001600160a01b0319166001600160a01b0389811691821790925591518793918516917fddf252ad1be2c89b69c2b068fc378daa952ba7f163c4a11628f55a4df523b3ef91a4949350505050565b67058d15e176280000811115620015bf5760405163e3ca8ad560e01b815260040160405180910390fd5b60098190556040518181527f4fad9480b42671731d484ac2e96b50de7c154624b63f3d3eb30c38dc6ebfb0c7906020015b60405180910390a150565b6001600160a01b038116620016235760405163d92e233d60e01b815260040160405180910390fd5b600d80546001600160a01b0319166001600160a01b0383169081179091556040519081527fd4d4983241668aa2825c51b20af727fb71c4842fec0f87360e3a242e420d8a3090602001620015f0565b67058d15e17628000081106200169b5760405163e3ca8ad560e01b815260040160405180910390fd5b600a8190556040518181527f2d968512555a43164b980ee73a764cfa2aecd7305806fda33d94fdca1bc6d4cf90602001620015f0565b67058d15e1762800008110620016fa5760405163e3ca8ad560e01b815260040160405180910390fd5b600b8190556040518181527fb85fdb9b20a2472208897b9903ae1a3e943769ab70ef74e679ecd80ec2ab502090602001620015f0565b67058d15e1762800008110620017595760405163e3ca8ad560e01b815260040160405180910390fd5b600c8190556040518181527f0565ffb26c5ec0ddf0975584b3c48758d8486aea008bd280bf2c98f2464f441f90602001620015f0565b6006546001600160a01b03163314620011ff5760405163118cdaa760e01b815233600482015260240162000b97565b620017c8620023d6565b620017d2620023d6565b60408301516001600160a01b03908116610200840152602084015181166101e084015260808085015182169084015260a0840151811661010084015260c0840151161562001825578260c001516200182b565b8260a001515b6001600160a01b039081166101208085019190915260e0850151909116610140808501919091529084015161016080850191909152908401516101808085019190915260608501516020850152908401516101a080850191909152908401516101c08401528301518015620018ad57506101208201516001600160a01b031615155b151561022083015260408301516001600160a01b0390811661020080840191909152602085015182166101e0808501919091526101c086015183166080850152850151821661010084015284015116156200190e5782610200015162001915565b826101e001515b6001600160a01b0390811661012083015261022084015116610140820152610260830151610160820152610280830151610180820152606083015160208201526102a08301516101a08201526102c08301516101c08201526102e083015180156200198d57506101208101516001600160a01b031615155b15156102208201529092909150565b600f54620019b3906001600160a01b031662001a60565b6001600160a01b0390811660a0840152600f54620019d2911662001a60565b6001600160a01b0390811660c0840152601054620019f1911662001a60565b6001600160a01b0390811660e0840152600f5462001a10911662001a60565b6001600160a01b0390811660a0830152600f5462001a2f911662001a60565b6001600160a01b0390811660c083015260105462001a4e911662001a60565b6001600160a01b031660e09091015250565b5f62000681825f62002122565b60a0820151604080840151905163189acdbd60e31b81526001600160a01b03918216600482015291169063c4d66de8906024015f604051808303815f87803b15801562001ab8575f80fd5b505af115801562001acb573d5f803e3d5ffd5b50505060c0830151604080850151905163189acdbd60e31b81526001600160a01b0391821660048201529116915063c4d66de8906024015f604051808303815f87803b15801562001b1a575f80fd5b505af115801562001b2d573d5f803e3d5ffd5b50505060e0830151604080850151905163189acdbd60e31b81526001600160a01b0391821660048201529116915063c4d66de8906024015f604051808303815f87803b15801562001b7c575f80fd5b505af115801562001b8f573d5f803e3d5ffd5b50505060a0820151604080840151905163189acdbd60e31b81526001600160a01b0391821660048201529116915063c4d66de8906024015f604051808303815f87803b15801562001bde575f80fd5b505af115801562001bf1573d5f803e3d5ffd5b50505060c0820151604080840151905163189acdbd60e31b81526001600160a01b0391821660048201529116915063c4d66de8906024015f604051808303815f87803b15801562001c40575f80fd5b505af115801562001c53573d5f803e3d5ffd5b50505060e0820151604080840151905163189acdbd60e31b81526001600160a01b0391821660048201529116915063c4d66de8906024015f604051808303815f87803b15801562001ca2575f80fd5b505af115801562001cb5573d5f803e3d5ffd5b505050505050565b6001600160a01b03821662001ce857604051633250574960e11b81525f600482015260240162000b97565b5f62001cf683835f6200149c565b90506001600160a01b0381161562000c9d576040516339e3563760e11b81525f600482015260240162000b97565b600780546001600160a01b031916905562000e0981620021b5565b6001600160a01b03821662001d7357604051630b61174360e31b81526001600160a01b038316600482015260240162000b97565b6001600160a01b038381165f81815260056020908152604080832094871680845294825291829020805460ff191686151590811790915591519182527f17307eab39ab6107e8899845ad3d59bd9653f200f220920489ca2b5937696c31910160405180910390a3505050565b6001600160a01b0383163b1562001f0b57604051630a85bd0160e11b81526001600160a01b0384169063150b7a029062001e2490889088908790879060040162002b98565b6020604051808303815f875af192505050801562001e61575060408051601f3d908101601f1916820190925262001e5e9181019062002bd6565b60015b62001ecd573d80801562001e91576040519150601f19603f3d011682016040523d82523d5f602084013e62001e96565b606091505b5080515f0362001ec557604051633250574960e11b81526001600160a01b038516600482015260240162000b97565b805181602001fd5b6001600160e01b03198116630a85bd0160e11b1462001cb557604051633250574960e11b81526001600160a01b038516600482015260240162000b97565b5050505050565b60605f62001f208362002206565b60010190505f8167ffffffffffffffff81111562001f425762001f4262002593565b6040519080825280601f01601f19166020018201604052801562001f6d576020820181803683370190505b5090508181016020015b5f19016f181899199a1a9b1b9c1cb0b131b232b360811b600a86061a8153600a850494508462001f7757509392505050565b808062001fbe57506001600160a01b03821615155b1562002089575f62001fd08462001453565b90506001600160a01b0383161580159062001ffd5750826001600160a01b0316816001600160a01b031614155b8015620020135750620020118184620013b2565b155b156200203e5760405163a9fbf51f60e01b81526001600160a01b038416600482015260240162000b97565b8115620020875783856001600160a01b0316826001600160a01b03167f8c5be1e5ebec7d5bd14f71427d1e84f3dd0314c0f7b2291e5b200ac8c7c3b92560405160405180910390a45b505b50505f90815260046020526040902080546001600160a01b0319166001600160a01b0392909216919091179055565b620020c5838383620022e4565b62000c9d576001600160a01b038316620020f657604051637e27328960e01b81526004810182905260240162000b97565b60405163177e802f60e01b81526001600160a01b03831660048201526024810182905260440162000b97565b5f814710156200214f5760405163cf47918160e01b81524760048201526024810183905260440162000b97565b6e5af43d82803e903d91602b57fd5bf360205282601152763d602d80600a3d3981f3363d3d373d3d3d363d730000008360881c175f526037600983f090506001600160a01b038116620006815760405163b06ebf3d60e01b815260040160405180910390fd5b600680546001600160a01b038381166001600160a01b0319831681179093556040519116919082907f8be0079c531659141344cd1fd0a4f28419497f9722a3daafe3b4186f6b6457e0905f90a35050565b5f8072184f03e93ff9f4daa797ed6e38ed64bf6a1f0160401b8310620022455772184f03e93ff9f4daa797ed6e38ed64bf6a1f0160401b830492506040015b6d04ee2d6d415b85acef8100000000831062002272576d04ee2d6d415b85acef8100000000830492506020015b662386f26fc1000083106200229157662386f26fc10000830492506010015b6305f5e1008310620022aa576305f5e100830492506008015b6127108310620022bf57612710830492506004015b60648310620022d2576064830492506002015b600a8310620006815760010192915050565b5f6001600160a01b03831615801590620023455750826001600160a01b0316846001600160a01b03161480620023215750620023218484620013b2565b806200234557505f828152600460205260409020546001600160a01b038481169116145b949350505050565b6129f68062002bf583390190565b8260028101928215620023a6579160200282015b82811115620023a657825182546001600160a01b0319166001600160a01b039091161782556020909201916001909101906200236f565b50620023b492915062002469565b5090565b60405180604001604052806002906020820280368337509192915050565b60408051610240810182525f80825260208201819052918101829052606081018290526080810182905260a0810182905260c0810182905260e08101829052610100810182905261012081018290526101408101829052610160810182905261018081018290526101a081018290526101c081018290526101e08101829052610200810182905261022081019190915290565b5b80821115620023b4575f81556001016200246a565b6001600160e01b03198116811462000e09575f80fd5b5f60208284031215620024a6575f80fd5b813562001358816200247f565b5f5b83811015620024cf578181015183820152602001620024b5565b50505f910152565b5f8151808452620024f0816020860160208601620024b3565b601f01601f19169290920160200192915050565b602081525f620013586020830184620024d7565b5f6020828403121562002529575f80fd5b5035919050565b80356001600160a01b038116811462002547575f80fd5b919050565b5f80604083850312156200255e575f80fd5b620025698362002530565b946020939093013593505050565b5f6020828403121562002588575f80fd5b620013588262002530565b634e487b7160e01b5f52604160045260245ffd5b604051610300810167ffffffffffffffff81118282101715620025ce57620025ce62002593565b60405290565b604051601f8201601f1916810167ffffffffffffffff8111828210171562002600576200260062002593565b604052919050565b8035801515811462002547575f80fd5b5f61030082840312156200262a575f80fd5b62002634620025a7565b6200263f8362002530565b81526200264f6020840162002530565b6020820152620026626040840162002530565b6040820152606083013560608201526200267f6080840162002530565b60808201526200269260a0840162002530565b60a0820152620026a560c0840162002530565b60c0820152620026b860e0840162002530565b60e0820152610100620026cd81850162002530565b9082015261012083810135908201526101408084013590820152610160808401359082015261018080840135908201526101a06200270d81850162002608565b908201526101c06200272184820162002530565b908201526101e06200273584820162002530565b908201526102006200274984820162002530565b908201526102206200275d84820162002530565b908201526102406200277184820162002530565b90820152610260838101359082015261028080840135908201526102a080840135908201526102c080840135908201526102e0620027b181850162002608565b908201529392505050565b5f805f60608486031215620027cf575f80fd5b620027da8462002530565b9250620027ea6020850162002530565b9150604084013590509250925092565b5f805f805f60a086880312156200280f575f80fd5b6200281a8662002530565b94506200282a6020870162002530565b93506200283a6040870162002530565b925060608601359150620028516080870162002530565b90509295509295909350565b5f80604083850312156200286f575f80fd5b6200287a8362002530565b91506200288a6020840162002608565b90509250929050565b5f805f8060808587031215620028a7575f80fd5b620028b28562002530565b93506020620028c381870162002530565b935060408601359250606086013567ffffffffffffffff80821115620028e7575f80fd5b818801915088601f830112620028fb575f80fd5b81358181111562002910576200291062002593565b62002924601f8201601f19168501620025d4565b915080825289848285010111156200293a575f80fd5b80848401858401375f8482840101525080935050505092959194509250565b6040810181835f5b60028110156200298b5781516001600160a01b031683526020928301929091019060010162002961565b50505092915050565b5f8060408385031215620029a6575f80fd5b620029b18362002530565b91506200288a6020840162002530565b600181811c90821680620029d657607f821691505b602082108103620029f557634e487b7160e01b5f52602260045260245ffd5b50919050565b8051825260208101516020830152604081015162002a2460408401826001600160a01b03169052565b50606081015162002a4060608401826001600160a01b03169052565b50608081015162002a5c60808401826001600160a01b03169052565b5060a081015162002a7860a08401826001600160a01b03169052565b5060c081015162002a9460c08401826001600160a01b03169052565b5060e081015162002ab060e08401826001600160a01b03169052565b50610100818101516001600160a01b03908116918401919091526101208083015182169084015261014080830151821690840152610160808301519084015261018080830151908401526101a080830151908401526101c080830151908401526101e0808301518216908401526102008083015190911690830152610220808201518015158285015262000c7b565b8381526104a0810162002b566020830185620029fb565b62002345610260830184620029fb565b5f835162002b79818460208801620024b3565b83519083019062002b8f818360208801620024b3565b01949350505050565b6001600160a01b03858116825284166020820152604081018390526080606082018190525f9062002bcc90830184620024d7565b9695505050505050565b5f6020828403121562002be7575f80fd5b815162001358816200247f56fe61046060405234801562000011575f80fd5b50604051620029f6380380620029f683398101604081905262000034916200050b565b60015f55608083905260208201518251670de0b6b3a76400009162000059916200054d565b10620000785760405163cd4e616760e01b815260040160405180910390fd5b815f015160a08181525050816020015160c08181525050816101e001516001600160a01b031660e0816001600160a01b0316815250508161020001516001600160a01b0316610100816001600160a01b03168152505081604001516001600160a01b0316610120816001600160a01b03168152505081608001516001600160a01b0316610140816001600160a01b0316815250508160a001516001600160a01b0316610160816001600160a01b0316815250508160c001516001600160a01b0316610180816001600160a01b0316815250508160e001516001600160a01b03166101a0816001600160a01b0316815250508161010001516001600160a01b03166101c0816001600160a01b0316815250508161012001516001600160a01b03166101e0816001600160a01b0316815250508161014001516001600160a01b0316610200816001600160a01b03168152505081610160015161022081815250508161018001516102408181525050816101a001516102608181525050816101c00151610280818152505081610220015115156102a08115158152505080604001516001600160a01b03166102c0816001600160a01b03168152505080608001516001600160a01b03166102e0816001600160a01b0316815250508060a001516001600160a01b0316610300816001600160a01b0316815250508060c001516001600160a01b0316610320816001600160a01b0316815250508060e001516001600160a01b0316610340816001600160a01b0316815250508061010001516001600160a01b0316610360816001600160a01b0316815250508061012001516001600160a01b0316610380816001600160a01b0316815250508061014001516001600160a01b03166103a0816001600160a01b0316815250508061016001516103c081815250508061018001516103e08181525050806101a001516104008181525050806101c00151610420818152505080610220015115156104408115158152505050505062000573565b60405161024081016001600160401b03811182821017156200039157634e487b7160e01b5f52604160045260245ffd5b60405290565b80516001600160a01b0381168114620003ae575f80fd5b919050565b80518015158114620003ae575f80fd5b5f6102408284031215620003d5575f80fd5b620003df62000361565b90508151815260208201516020820152620003fd6040830162000397565b6040820152620004106060830162000397565b6060820152620004236080830162000397565b60808201526200043660a0830162000397565b60a08201526200044960c0830162000397565b60c08201526200045c60e0830162000397565b60e08201526101006200047181840162000397565b908201526101206200048583820162000397565b908201526101406200049983820162000397565b90820152610160828101519082015261018080830151908201526101a080830151908201526101c080830151908201526101e0620004d981840162000397565b90820152610200620004ed83820162000397565b9082015261022062000501838201620003b3565b9082015292915050565b5f805f6104a084860312156200051f575f80fd5b83519250620005328560208601620003c3565b915062000544856102608601620003c3565b90509250925092565b808201808211156200056d57634e487b7160e01b5f52601160045260245ffd5b92915050565b60805160a05160c05160e05161010051610120516101405161016051610180516101a0516101c0516101e05161020051610220516102405161026051610280516102a0516102c0516102e05161030051610320516103405161036051610380516103a0516103c0516103e051610400516104205161044051612149620008ad5f395f611c9f01525f8181610bb30152611c1b01525f611bf501525f611bcf01525f611ba901525f81816111580152611b7a01525f611b4b01525f611b1c01525f81816106c701528181610946015281816109ac01528181610dd9015281816115a30152818161162c0152611aed01525f818161072e01528181610923015281816114cf0152611abe01525f818161070801528181610900015281816115390152611a8f01525f81816103d30152818161069a01528181610bd60152611a6001525f81816102b00152818161039901528181610672015281816108c601528181610b7901528181610c6101528181610cf101528181610d6f0152818161128b015281816113b001528181611430015281816117090152611a0201525f61197701525f8181610b3001526118f301525f6118cd01525f6118a701525f61188101525f818161117e015261185201525f61182301525f6117f401525f81816105da015281816108a00152818161097801528181610a7001528181610da40152818161156e015281816115ef01526117c501525f81816106410152818161087d0152818161149a015261179601525f818161061b0152818161085a01528181611504015261176701525f8181610373015281816105ad01528181610b53015261173801525f818161028b01528181610339015281816105850152818161082001528181610b0401528181610c1901528181610cb001528181610d3b01528181610f6d0152818161111f015281816112530152818161137c015281816113fc015281816116da0152611a3101525f8181610539015281816119480152611c7001525f818161055c01528181611465015281816119190152611c4101525f8181610ad9015281816111ea015281816116b401526119dc01525f8181610ab8015281816111c40152818161168e01526119b601525f61014b01526121495ff3fe608060405234801561000f575f80fd5b50600436106100f0575f3560e01c806372db655911610093578063c62d00e511610063578063c62d00e5146102db578063ddc54c19146102f0578063e48a5f7b14610310578063f8fc9ff414610323575f80fd5b806372db6559146102265780637d99962814610239578063a135e0a014610241578063aecc90cb1461027d575f80fd5b80632bbe3254116100ce5780632bbe32541461017b5780633b691b9f146101c1578063426568ca146101d4578063483b24f0146101e9575f80fd5b806307439b49146100f45780630be5afe614610124578063189e17e414610146575b5f80fd5b610107610102366004611e6f565b610336565b6040516001600160a01b0390911681526020015b60405180910390f35b610137610132366004611e88565b610415565b60405161011b93929190611ff9565b61016d7f000000000000000000000000000000000000000000000000000000000000000081565b60405190815260200161011b565b61018e61018936600461204f565b610520565b604080516001600160a01b039586168152938516602085015291841691830191909152909116606082015260800161011b565b6101376101cf366004611e88565b610759565b6101e76101e2366004612080565b6107f0565b005b6101fc6101f7366004611e6f565b61081b565b604080516001600160a01b039485168152928416602084015292169181019190915260600161011b565b6101e7610234366004612097565b61096d565b6101e7610aa3565b61025461024f366004611e6f565b610ab6565b604080519485526020850193909352918301526001600160a01b0316606082015260800161011b565b604080516001600160a01b037f0000000000000000000000000000000000000000000000000000000000000000811682527f00000000000000000000000000000000000000000000000000000000000000001660208201520161011b565b5f54604051600190911415815260200161011b565b6103036102fe3660046120c8565b610bfd565b60405161011b91906120f0565b61030361031e366004611e6f565b610ca6565b6101e7610331366004611e6f565b610d30565b5f7f00000000000000000000000000000000000000000000000000000000000000006001600160a01b0316826001600160a01b03160361039757507f0000000000000000000000000000000000000000000000000000000000000000919050565b7f00000000000000000000000000000000000000000000000000000000000000006001600160a01b0316826001600160a01b0316036103f757507f0000000000000000000000000000000000000000000000000000000000000000919050565b6040516349d73a2760e01b815260040160405180910390fd5b919050565b61041d611dc6565b610425611dc6565b604080516080810182525f80825260208201819052918101829052606081019190915261045184610e3d565b614000808516146105175761040080851614610517576040808516036104825761047b8585610ebd565b90506104fd565b6110008085160361049c5761047b85600280871614611007565b506001600160a01b0384165f908152600160209081526040918290208251608081018452905460ff80821615158352610100820481161515938301939093526201000081048316151593820193909352630100000090920416151560608201525b6105068661110e565b610511868286611241565b90935091505b93509350939050565b5f805f8061052d86610e3d565b6105363361110e565b507f000000000000000000000000000000000000000000000000000000000000000090507f00000000000000000000000000000000000000000000000000000000000000006001600160a01b037f0000000000000000000000000000000000000000000000000000000000000000163303610668577f00000000000000000000000000000000000000000000000000000000000000009250608080871603610600577f00000000000000000000000000000000000000000000000000000000000000009350610750565b6001856001811115610614576106146120ff565b1461063f577f0000000000000000000000000000000000000000000000000000000000000000610661565b7f00000000000000000000000000000000000000000000000000000000000000005b9350610750565b6001600160a01b037f00000000000000000000000000000000000000000000000000000000000000001633036103f7577f000000000000000000000000000000000000000000000000000000000000000092506080808716036106ed577f00000000000000000000000000000000000000000000000000000000000000009350610750565b6001856001811115610701576107016120ff565b1461072c577f0000000000000000000000000000000000000000000000000000000000000000610661565b7f000000000000000000000000000000000000000000000000000000000000000093505b92959194509250565b610761611dc6565b610769611dc6565b60408051608080820183525f808352602080840182905283850182905260609384018290526001600160a01b03891682526001815290849020845192830185525460ff808216151584526101008204811615159284019290925262010000810482161515948301949094526301000000909304909216151590820152610511868286611241565b60038082160361080757610802611371565b61080f565b61080f6113f1565b61081881610e3d565b50565b5f805f7f00000000000000000000000000000000000000000000000000000000000000006001600160a01b0316846001600160a01b0316036108c457507f000000000000000000000000000000000000000000000000000000000000000091507f000000000000000000000000000000000000000000000000000000000000000090507f0000000000000000000000000000000000000000000000000000000000000000610966565b7f00000000000000000000000000000000000000000000000000000000000000006001600160a01b0316846001600160a01b0316036103f757507f000000000000000000000000000000000000000000000000000000000000000091507f000000000000000000000000000000000000000000000000000000000000000090507f00000000000000000000000000000000000000000000000000000000000000005b9193909250565b336001600160a01b037f000000000000000000000000000000000000000000000000000000000000000016148015906109cf5750336001600160a01b037f00000000000000000000000000000000000000000000000000000000000000001614155b156109ed576040516336ed4fb960e01b815260040160405180910390fd5b6001600160a01b0381165f908152600160205260409020805460ff1615610a27578054610a229062010000900460ff166115e4565b505050565b8054600160ff198216811783556001600160a01b039485165f9081526020829052604090205461ffff1990921660ff61010093849004161515909202919091171762ff000019167f0000000000000000000000000000000000000000000000000000000000000000909316331462010000029290921790915550565b610aab6113f1565b610ab460015f55565b565b7f00000000000000000000000000000000000000000000000000000000000000007f00000000000000000000000000000000000000000000000000000000000000005f806001600160a01b037f0000000000000000000000000000000000000000000000000000000000000000811690861603610b7757507f000000000000000000000000000000000000000000000000000000000000000090507f0000000000000000000000000000000000000000000000000000000000000000610bf6565b7f00000000000000000000000000000000000000000000000000000000000000006001600160a01b0316856001600160a01b0316036103f757507f000000000000000000000000000000000000000000000000000000000000000090507f00000000000000000000000000000000000000000000000000000000000000005b9193509193565b610c05611dc6565b610c0e82610e3d565b610c178361110e565b7f00000000000000000000000000000000000000000000000000000000000000006001600160a01b0316836001600160a01b031603610c5f57610c58611678565b9050610ca0565b7f00000000000000000000000000000000000000000000000000000000000000006001600160a01b0316836001600160a01b0316036103f757610c586119a0565b92915050565b610cae611dc6565b7f00000000000000000000000000000000000000000000000000000000000000006001600160a01b0316826001600160a01b031603610cef57610ca0611678565b7f00000000000000000000000000000000000000000000000000000000000000006001600160a01b0316826001600160a01b0316036103f757610ca06119a0565b336001600160a01b037f00000000000000000000000000000000000000000000000000000000000000001614801590610d925750336001600160a01b037f00000000000000000000000000000000000000000000000000000000000000001614155b8015610dc75750336001600160a01b037f00000000000000000000000000000000000000000000000000000000000000001614155b8015610dfc5750336001600160a01b037f00000000000000000000000000000000000000000000000000000000000000001614155b15610e1a5760405163ba30dd5760e01b815260040160405180910390fd5b6001600160a01b03165f908152600160205260409020805463ffffffff19169055565b5f54600281148015610e50575061208082145b15610e59575050565b5f198101610e6957505060025f55565b600381148015610e795750602082145b15610e8657505060025f55565b5f546002148015610e975750600382145b15610ea457505060035f55565b60405163e17fbf8960e01b815260040160405180910390fd5b604080516080810182525f808252602082018190529181018290526060810191909152610ee8611371565b506001600160a01b0382165f908152600160209081526040918290208251608081018452905460ff80821615158084526101008304821615159484019490945262010000820481161515948301949094526301000000900490921615156060830152610ca0576001815260028083161415156020808301918252336001600160a01b037f000000000000000000000000000000000000000000000000000000000000000081169190911460408086019182529187165f9081526001909352912083518154935192516060860151151563010000000263ff0000001991151562010000029190911663ffff0000199415156101000261ff00199315159390931661ffff199096169590951791909117929092169290921717905592915050565b604080516080810182525f808252602082018190529181018290526060810191909152611032611371565b506001600160a01b0382165f908152600160209081526040918290208251608081018452905460ff808216151580845261010083048216151594840194909452620100008204811615159483019490945263010000009004909216151560608301526110b1576040516308d1fde360e11b815260040160405180910390fd5b81151581602001511515036110d95760405163187bc39960e11b815260040160405180910390fd5b6001600160a01b03929092165f908152600160209081526040909120805461ff00191661010093151593840217905582015290565b806001600160a01b0316636e2366147f00000000000000000000000000000000000000000000000000000000000000006001600160a01b0316836001600160a01b03161461117c577f000000000000000000000000000000000000000000000000000000000000000061119e565b7f00000000000000000000000000000000000000000000000000000000000000005b6040516001600160e01b031960e084901b1681526001600160a01b0390911660048201527f000000000000000000000000000000000000000000000000000000000000000060248201527f000000000000000000000000000000000000000000000000000000000000000060448201526064015f604051808303815f87803b158015611228575f80fd5b505af115801561123a573d5f803e3d5ffd5b5050505050565b611249611dc6565b611251611dc6565b7f00000000000000000000000000000000000000000000000000000000000000006001600160a01b03908116908616148015816112c057507f00000000000000000000000000000000000000000000000000000000000000006001600160a01b0316866001600160a01b031614155b156112de576040516349d73a2760e01b815260040160405180910390fd5b5f6112ea868387611cc8565b905080611303576112f9611678565b9350839250611367565b60018103611324576113136119a0565b935061131d611678565b9250611367565b6002810361133e57611334611678565b935061131d6119a0565b6003810361134e576112f96119a0565b6040516332620e6360e01b815260040160405180910390fd5b5050935093915050565b336001600160a01b037f000000000000000000000000000000000000000000000000000000000000000016148015906113d35750336001600160a01b037f00000000000000000000000000000000000000000000000000000000000000001614155b15610ab4576040516310528c6d60e11b815260040160405180910390fd5b336001600160a01b037f000000000000000000000000000000000000000000000000000000000000000016148015906114535750336001600160a01b037f00000000000000000000000000000000000000000000000000000000000000001614155b80156114885750336001600160a01b037f00000000000000000000000000000000000000000000000000000000000000001614155b80156114bd5750336001600160a01b037f00000000000000000000000000000000000000000000000000000000000000001614155b80156114f25750336001600160a01b037f00000000000000000000000000000000000000000000000000000000000000001614155b80156115275750336001600160a01b037f00000000000000000000000000000000000000000000000000000000000000001614155b801561155c5750336001600160a01b037f00000000000000000000000000000000000000000000000000000000000000001614155b80156115915750336001600160a01b037f00000000000000000000000000000000000000000000000000000000000000001614155b80156115c65750336001600160a01b037f00000000000000000000000000000000000000000000000000000000000000001614155b15610ab4576040516394ae3cc360e01b815260040160405180910390fd5b336001600160a01b037f0000000000000000000000000000000000000000000000000000000000000000161480156116195750805b156116215750565b336001600160a01b037f000000000000000000000000000000000000000000000000000000000000000016148015611657575080155b1561165f5750565b60405163fc6ba97d60e01b815260040160405180910390fd5b611680611dc6565b6040518061024001604052807f000000000000000000000000000000000000000000000000000000000000000081526020017f000000000000000000000000000000000000000000000000000000000000000081526020017f00000000000000000000000000000000000000000000000000000000000000006001600160a01b031681526020017f00000000000000000000000000000000000000000000000000000000000000006001600160a01b031681526020017f00000000000000000000000000000000000000000000000000000000000000006001600160a01b031681526020017f00000000000000000000000000000000000000000000000000000000000000006001600160a01b031681526020017f00000000000000000000000000000000000000000000000000000000000000006001600160a01b031681526020017f00000000000000000000000000000000000000000000000000000000000000006001600160a01b031681526020017f00000000000000000000000000000000000000000000000000000000000000006001600160a01b031681526020017f00000000000000000000000000000000000000000000000000000000000000006001600160a01b031681526020017f00000000000000000000000000000000000000000000000000000000000000006001600160a01b031681526020017f000000000000000000000000000000000000000000000000000000000000000081526020017f000000000000000000000000000000000000000000000000000000000000000081526020017f000000000000000000000000000000000000000000000000000000000000000081526020017f000000000000000000000000000000000000000000000000000000000000000081526020017f00000000000000000000000000000000000000000000000000000000000000006001600160a01b031681526020017f00000000000000000000000000000000000000000000000000000000000000006001600160a01b031681526020017f00000000000000000000000000000000000000000000000000000000000000001515815250905090565b6119a8611dc6565b6040518061024001604052807f000000000000000000000000000000000000000000000000000000000000000081526020017f000000000000000000000000000000000000000000000000000000000000000081526020017f00000000000000000000000000000000000000000000000000000000000000006001600160a01b031681526020017f00000000000000000000000000000000000000000000000000000000000000006001600160a01b031681526020017f00000000000000000000000000000000000000000000000000000000000000006001600160a01b031681526020017f00000000000000000000000000000000000000000000000000000000000000006001600160a01b031681526020017f00000000000000000000000000000000000000000000000000000000000000006001600160a01b031681526020017f00000000000000000000000000000000000000000000000000000000000000006001600160a01b031681526020017f00000000000000000000000000000000000000000000000000000000000000006001600160a01b031681526020017f00000000000000000000000000000000000000000000000000000000000000006001600160a01b031681526020017f00000000000000000000000000000000000000000000000000000000000000006001600160a01b031681526020017f000000000000000000000000000000000000000000000000000000000000000081526020017f000000000000000000000000000000000000000000000000000000000000000081526020017f000000000000000000000000000000000000000000000000000000000000000081526020017f000000000000000000000000000000000000000000000000000000000000000081526020017f00000000000000000000000000000000000000000000000000000000000000006001600160a01b031681526020017f00000000000000000000000000000000000000000000000000000000000000006001600160a01b031681526020017f00000000000000000000000000000000000000000000000000000000000000001515815250905090565b82515f90611d25576041196042831601611cf15782611ce8576003611cea565b5f5b9050611dbf565b6043196044831601611d115782611d09576002611cea565b506001611dbf565b82611d1d576001611cea565b506002611dbf565b61010080831603611d825760408401511515831515146060850152602084015115611d6c57836040015115611d605782611ce8576001611cea565b82611d1d576003611cea565b836040015115611d115782611d1d576001611cea565b836040015115611da45782151560608501526020840151611ce8576001611cea565b821560608501526020840151611dbb576002611cea565b5060035b9392505050565b60408051610240810182525f80825260208201819052918101829052606081018290526080810182905260a0810182905260c0810182905260e08101829052610100810182905261012081018290526101408101829052610160810182905261018081018290526101a081018290526101c081018290526101e08101829052610200810182905261022081019190915290565b80356001600160a01b0381168114610410575f80fd5b5f60208284031215611e7f575f80fd5b611dbf82611e59565b5f805f60608486031215611e9a575f80fd5b611ea384611e59565b9250611eb160208501611e59565b9150604084013590509250925092565b80518252602081015160208301526040810151611ee960408401826001600160a01b03169052565b506060810151611f0460608401826001600160a01b03169052565b506080810151611f1f60808401826001600160a01b03169052565b5060a0810151611f3a60a08401826001600160a01b03169052565b5060c0810151611f5560c08401826001600160a01b03169052565b5060e0810151611f7060e08401826001600160a01b03169052565b50610100818101516001600160a01b03908116918401919091526101208083015182169084015261014080830151821690840152610160808301519084015261018080830151908401526101a080830151908401526101c080830151908401526101e0808301518216908401526102008083015190911690830152610220908101511515910152565b61050081016120088286611ec1565b612016610240830185611ec1565b82511515610480830152602083015115156104a0830152604083015115156104c0830152606083015115156104e0830152949350505050565b5f8060408385031215612060575f80fd5b82359150602083013560028110612075575f80fd5b809150509250929050565b5f60208284031215612090575f80fd5b5035919050565b5f80604083850312156120a8575f80fd5b6120b183611e59565b91506120bf60208401611e59565b90509250929050565b5f80604083850312156120d9575f80fd5b6120e283611e59565b946020939093013593505050565b6102408101610ca08284611ec1565b634e487b7160e01b5f52602160045260245ffdfea26469706673582212207bd8f4f3784055d80c438c50660393460b32a9b1160587c508d3786f2853650e64736f6c63430008180033a264697066735822122021b0897cf5c94ea8a601ca90cd08f44df03256c6ad1197ded6943cc9c499804564736f6c63430008180033",
  "language": "Solidity",
  "compiler": "0.8.24+commit.e11b9ed9"
}