{
  "address": "0x2265B128491c6429B2F65E1964949B4168110A1e",
  "abi": [
    {
      "inputs": [
        {
          "internalType": "contract ISiloFactory",
          "name": "_siloFactory",
          "type": "address"
        }
      ],
      "stateMutability": "nonpayable",
      "type": "constructor"
    },
    {
      "inputs": [],
      "name": "AboveMaxLtv",
      "type": "error"
    },
    {
      "inputs": [],
      "name": "BalanceZero",
      "type": "error"
    },
    {
      "inputs": [],
      "name": "BorrowNotPossible",
      "type": "error"
    },
    {
      "inputs": [],
      "name": "DepositNotPossible",
      "type": "error"
    },
    {
      "inputs": [],
      "name": "EarnedZero",
      "type": "error"
    },
    {
      "inputs": [],
      "name": "FlashloanFailed",
      "type": "error"
    },
    {
      "inputs": [],
      "name": "Insolvency",
      "type": "error"
    },
    {
      "inputs": [],
      "name": "InsufficientLiquidation",
      "type": "error"
    },
    {
      "inputs": [],
      "name": "InvalidSiloForCollateral",
      "type": "error"
    },
    {
      "inputs": [],
      "name": "LeverageFailed",
      "type": "error"
    },
    {
      "inputs": [],
      "name": "LiquidationTooBig",
      "type": "error"
    },
    {
      "inputs": [],
      "name": "LiquidityFeeToHi",
      "type": "error"
    },
    {
      "inputs": [],
      "name": "NoDebtToCover",
      "type": "error"
    },
    {
      "inputs": [],
      "name": "NotEnoughLiquidity",
      "type": "error"
    },
    {
      "inputs": [],
      "name": "NotSolvent",
      "type": "error"
    },
    {
      "inputs": [],
      "name": "NothingToPay",
      "type": "error"
    },
    {
      "inputs": [],
      "name": "NothingToWithdraw",
      "type": "error"
    },
    {
      "inputs": [],
      "name": "OnlySilo",
      "type": "error"
    },
    {
      "inputs": [],
      "name": "UnexpectedCollateralToken",
      "type": "error"
    },
    {
      "inputs": [],
      "name": "UnexpectedDebtToken",
      "type": "error"
    },
    {
      "inputs": [],
      "name": "Unsupported",
      "type": "error"
    },
    {
      "inputs": [],
      "name": "UserIsSolvent",
      "type": "error"
    },
    {
      "inputs": [],
      "name": "WrongAssetType",
      "type": "error"
    },
    {
      "inputs": [],
      "name": "WrongToken",
      "type": "error"
    },
    {
      "inputs": [],
      "name": "ZeroAssets",
      "type": "error"
    },
    {
      "inputs": [],
      "name": "ZeroShares",
      "type": "error"
    },
    {
      "inputs": [],
      "name": "ZeroShares",
      "type": "error"
    },
    {
      "anonymous": false,
      "inputs": [
        {
          "indexed": true,
          "internalType": "address",
          "name": "owner",
          "type": "address"
        },
        {
          "indexed": true,
          "internalType": "address",
          "name": "spender",
          "type": "address"
        },
        {
          "indexed": false,
          "internalType": "uint256",
          "name": "value",
          "type": "uint256"
        }
      ],
      "name": "Approval",
      "type": "event"
    },
    {
      "anonymous": false,
      "inputs": [
        {
          "indexed": true,
          "internalType": "address",
          "name": "sender",
          "type": "address"
        },
        {
          "indexed": true,
          "internalType": "address",
          "name": "receiver",
          "type": "address"
        },
        {
          "indexed": true,
          "internalType": "address",
          "name": "owner",
          "type": "address"
        },
        {
          "indexed": false,
          "internalType": "uint256",
          "name": "assets",
          "type": "uint256"
        },
        {
          "indexed": false,
          "internalType": "uint256",
          "name": "shares",
          "type": "uint256"
        }
      ],
      "name": "Borrow",
      "type": "event"
    },
    {
      "anonymous": false,
      "inputs": [
        {
          "indexed": true,
          "internalType": "address",
          "name": "sender",
          "type": "address"
        },
        {
          "indexed": true,
          "internalType": "address",
          "name": "owner",
          "type": "address"
        },
        {
          "indexed": false,
          "internalType": "uint256",
          "name": "assets",
          "type": "uint256"
        },
        {
          "indexed": false,
          "internalType": "uint256",
          "name": "shares",
          "type": "uint256"
        }
      ],
      "name": "Deposit",
      "type": "event"
    },
    {
      "anonymous": false,
      "inputs": [
        {
          "indexed": true,
          "internalType": "address",
          "name": "sender",
          "type": "address"
        },
        {
          "indexed": true,
          "internalType": "address",
          "name": "owner",
          "type": "address"
        },
        {
          "indexed": false,
          "internalType": "uint256",
          "name": "assets",
          "type": "uint256"
        },
        {
          "indexed": false,
          "internalType": "uint256",
          "name": "shares",
          "type": "uint256"
        }
      ],
      "name": "DepositProtected",
      "type": "event"
    },
    {
      "anonymous": false,
      "inputs": [
        {
          "indexed": false,
          "internalType": "uint8",
          "name": "version",
          "type": "uint8"
        }
      ],
      "name": "Initialized",
      "type": "event"
    },
    {
      "anonymous": false,
      "inputs": [],
      "name": "Leverage",
      "type": "event"
    },
    {
      "anonymous": false,
      "inputs": [
        {
          "indexed": true,
          "internalType": "address",
          "name": "liquidator",
          "type": "address"
        },
        {
          "indexed": false,
          "internalType": "bool",
          "name": "receiveSToken",
          "type": "bool"
        }
      ],
      "name": "LiquidationCall",
      "type": "event"
    },
    {
      "anonymous": false,
      "inputs": [
        {
          "indexed": true,
          "internalType": "address",
          "name": "sender",
          "type": "address"
        },
        {
          "indexed": true,
          "internalType": "address",
          "name": "owner",
          "type": "address"
        },
        {
          "indexed": false,
          "internalType": "uint256",
          "name": "assets",
          "type": "uint256"
        },
        {
          "indexed": false,
          "internalType": "uint256",
          "name": "shares",
          "type": "uint256"
        }
      ],
      "name": "Repay",
      "type": "event"
    },
    {
      "anonymous": false,
      "inputs": [
        {
          "indexed": true,
          "internalType": "address",
          "name": "from",
          "type": "address"
        },
        {
          "indexed": true,
          "internalType": "address",
          "name": "to",
          "type": "address"
        },
        {
          "indexed": false,
          "internalType": "uint256",
          "name": "value",
          "type": "uint256"
        }
      ],
      "name": "Transfer",
      "type": "event"
    },
    {
      "anonymous": false,
      "inputs": [
        {
          "indexed": true,
          "internalType": "address",
          "name": "sender",
          "type": "address"
        },
        {
          "indexed": true,
          "internalType": "address",
          "name": "receiver",
          "type": "address"
        },
        {
          "indexed": true,
          "internalType": "address",
          "name": "owner",
          "type": "address"
        },
        {
          "indexed": false,
          "internalType": "uint256",
          "name": "assets",
          "type": "uint256"
        },
        {
          "indexed": false,
          "internalType": "uint256",
          "name": "shares",
          "type": "uint256"
        }
      ],
      "name": "Withdraw",
      "type": "event"
    },
    {
      "anonymous": false,
      "inputs": [
        {
          "indexed": true,
          "internalType": "address",
          "name": "sender",
          "type": "address"
        },
        {
          "indexed": true,
          "internalType": "address",
          "name": "receiver",
          "type": "address"
        },
        {
          "indexed": true,
          "internalType": "address",
          "name": "owner",
          "type": "address"
        },
        {
          "indexed": false,
          "internalType": "uint256",
          "name": "assets",
          "type": "uint256"
        },
        {
          "indexed": false,
          "internalType": "uint256",
          "name": "shares",
          "type": "uint256"
        }
      ],
      "name": "WithdrawProtected",
      "type": "event"
    },
    {
      "inputs": [],
      "name": "accrueInterest",
      "outputs": [
        {
          "internalType": "uint256",
          "name": "accruedInterest",
          "type": "uint256"
        }
      ],
      "stateMutability": "nonpayable",
      "type": "function"
    },
    {
      "inputs": [
        {
          "internalType": "address",
          "name": "_owner",
          "type": "address"
        },
        {
          "internalType": "address",
          "name": "_spender",
          "type": "address"
        }
      ],
      "name": "allowance",
      "outputs": [
        {
          "internalType": "uint256",
          "name": "",
          "type": "uint256"
        }
      ],
      "stateMutability": "view",
      "type": "function"
    },
    {
      "inputs": [
        {
          "internalType": "address",
          "name": "_spender",
          "type": "address"
        },
        {
          "internalType": "uint256",
          "name": "_amount",
          "type": "uint256"
        }
      ],
      "name": "approve",
      "outputs": [
        {
          "internalType": "bool",
          "name": "",
          "type": "bool"
        }
      ],
      "stateMutability": "nonpayable",
      "type": "function"
    },
    {
      "inputs": [],
      "name": "asset",
      "outputs": [
        {
          "internalType": "address",
          "name": "assetTokenAddress",
          "type": "address"
        }
      ],
      "stateMutability": "view",
      "type": "function"
    },
    {
      "inputs": [
        {
          "internalType": "address",
          "name": "_account",
          "type": "address"
        }
      ],
      "name": "balanceOf",
      "outputs": [
        {
          "internalType": "uint256",
          "name": "",
          "type": "uint256"
        }
      ],
      "stateMutability": "view",
      "type": "function"
    },
    {
      "inputs": [
        {
          "internalType": "uint256",
          "name": "_assets",
          "type": "uint256"
        },
        {
          "internalType": "address",
          "name": "_receiver",
          "type": "address"
        },
        {
          "internalType": "address",
          "name": "_borrower",
          "type": "address"
        }
      ],
      "name": "borrow",
      "outputs": [
        {
          "internalType": "uint256",
          "name": "shares",
          "type": "uint256"
        }
      ],
      "stateMutability": "nonpayable",
      "type": "function"
    },
    {
      "inputs": [
        {
          "internalType": "address",
          "name": "_borrower",
          "type": "address"
        }
      ],
      "name": "borrowPossible",
      "outputs": [
        {
          "internalType": "bool",
          "name": "",
          "type": "bool"
        }
      ],
      "stateMutability": "view",
      "type": "function"
    },
    {
      "inputs": [
        {
          "internalType": "uint256",
          "name": "_shares",
          "type": "uint256"
        },
        {
          "internalType": "address",
          "name": "_receiver",
          "type": "address"
        },
        {
          "internalType": "address",
          "name": "_borrower",
          "type": "address"
        }
      ],
      "name": "borrowShares",
      "outputs": [
        {
          "internalType": "uint256",
          "name": "assets",
          "type": "uint256"
        }
      ],
      "stateMutability": "nonpayable",
      "type": "function"
    },
    {
      "inputs": [],
      "name": "config",
      "outputs": [
        {
          "internalType": "contract ISiloConfig",
          "name": "",
          "type": "address"
        }
      ],
      "stateMutability": "view",
      "type": "function"
    },
    {
      "inputs": [
        {
          "internalType": "uint256",
          "name": "_shares",
          "type": "uint256"
        }
      ],
      "name": "convertToAssets",
      "outputs": [
        {
          "internalType": "uint256",
          "name": "assets",
          "type": "uint256"
        }
      ],
      "stateMutability": "view",
      "type": "function"
    },
    {
      "inputs": [
        {
          "internalType": "uint256",
          "name": "_shares",
          "type": "uint256"
        },
        {
          "internalType": "enum ISilo.AssetType",
          "name": "_assetType",
          "type": "uint8"
        }
      ],
      "name": "convertToAssets",
      "outputs": [
        {
          "internalType": "uint256",
          "name": "assets",
          "type": "uint256"
        }
      ],
      "stateMutability": "view",
      "type": "function"
    },
    {
      "inputs": [
        {
          "internalType": "uint256",
          "name": "_assets",
          "type": "uint256"
        },
        {
          "internalType": "enum ISilo.AssetType",
          "name": "_assetType",
          "type": "uint8"
        }
      ],
      "name": "convertToShares",
      "outputs": [
        {
          "internalType": "uint256",
          "name": "shares",
          "type": "uint256"
        }
      ],
      "stateMutability": "view",
      "type": "function"
    },
    {
      "inputs": [
        {
          "internalType": "uint256",
          "name": "_assets",
          "type": "uint256"
        }
      ],
      "name": "convertToShares",
      "outputs": [
        {
          "internalType": "uint256",
          "name": "shares",
          "type": "uint256"
        }
      ],
      "stateMutability": "view",
      "type": "function"
    },
    {
      "inputs": [],
      "name": "decimals",
      "outputs": [
        {
          "internalType": "uint8",
          "name": "",
          "type": "uint8"
        }
      ],
      "stateMutability": "view",
      "type": "function"
    },
    {
      "inputs": [
        {
          "internalType": "uint256",
          "name": "_assets",
          "type": "uint256"
        },
        {
          "internalType": "address",
          "name": "_receiver",
          "type": "address"
        }
      ],
      "name": "deposit",
      "outputs": [
        {
          "internalType": "uint256",
          "name": "shares",
          "type": "uint256"
        }
      ],
      "stateMutability": "nonpayable",
      "type": "function"
    },
    {
      "inputs": [
        {
          "internalType": "uint256",
          "name": "_assets",
          "type": "uint256"
        },
        {
          "internalType": "address",
          "name": "_receiver",
          "type": "address"
        },
        {
          "internalType": "enum ISilo.AssetType",
          "name": "_assetType",
          "type": "uint8"
        }
      ],
      "name": "deposit",
      "outputs": [
        {
          "internalType": "uint256",
          "name": "shares",
          "type": "uint256"
        }
      ],
      "stateMutability": "nonpayable",
      "type": "function"
    },
    {
      "inputs": [
        {
          "internalType": "address",
          "name": "_depositor",
          "type": "address"
        }
      ],
      "name": "depositPossible",
      "outputs": [
        {
          "internalType": "bool",
          "name": "",
          "type": "bool"
        }
      ],
      "stateMutability": "view",
      "type": "function"
    },
    {
      "inputs": [],
      "name": "factory",
      "outputs": [
        {
          "internalType": "contract ISiloFactory",
          "name": "",
          "type": "address"
        }
      ],
      "stateMutability": "view",
      "type": "function"
    },
    {
      "inputs": [
        {
          "internalType": "address",
          "name": "_token",
          "type": "address"
        },
        {
          "internalType": "uint256",
          "name": "_amount",
          "type": "uint256"
        }
      ],
      "name": "flashFee",
      "outputs": [
        {
          "internalType": "uint256",
          "name": "fee",
          "type": "uint256"
        }
      ],
      "stateMutability": "view",
      "type": "function"
    },
    {
      "inputs": [
        {
          "internalType": "contract IERC3156FlashBorrower",
          "name": "_receiver",
          "type": "address"
        },
        {
          "internalType": "address",
          "name": "_token",
          "type": "address"
        },
        {
          "internalType": "uint256",
          "name": "_amount",
          "type": "uint256"
        },
        {
          "internalType": "bytes",
          "name": "_data",
          "type": "bytes"
        }
      ],
      "name": "flashLoan",
      "outputs": [
        {
          "internalType": "bool",
          "name": "success",
          "type": "bool"
        }
      ],
      "stateMutability": "nonpayable",
      "type": "function"
    },
    {
      "inputs": [],
      "name": "getCollateralAndDebtAssets",
      "outputs": [
        {
          "internalType": "uint256",
          "name": "totalCollateralAssets",
          "type": "uint256"
        },
        {
          "internalType": "uint256",
          "name": "totalDebtAssets",
          "type": "uint256"
        }
      ],
      "stateMutability": "view",
      "type": "function"
    },
    {
      "inputs": [],
      "name": "getCollateralAndProtectedAssets",
      "outputs": [
        {
          "internalType": "uint256",
          "name": "totalCollateralAssets",
          "type": "uint256"
        },
        {
          "internalType": "uint256",
          "name": "totalProtectedAssets",
          "type": "uint256"
        }
      ],
      "stateMutability": "view",
      "type": "function"
    },
    {
      "inputs": [],
      "name": "getCollateralAssets",
      "outputs": [
        {
          "internalType": "uint256",
          "name": "totalCollateralAssets",
          "type": "uint256"
        }
      ],
      "stateMutability": "view",
      "type": "function"
    },
    {
      "inputs": [],
      "name": "getDebtAssets",
      "outputs": [
        {
          "internalType": "uint256",
          "name": "totalDebtAssets",
          "type": "uint256"
        }
      ],
      "stateMutability": "view",
      "type": "function"
    },
    {
      "inputs": [],
      "name": "getFeesAndFeeReceivers",
      "outputs": [
        {
          "internalType": "address",
          "name": "daoFeeReceiver",
          "type": "address"
        },
        {
          "internalType": "address",
          "name": "deployerFeeReceiver",
          "type": "address"
        },
        {
          "internalType": "uint256",
          "name": "daoFee",
          "type": "uint256"
        },
        {
          "internalType": "uint256",
          "name": "deployerFee",
          "type": "uint256"
        }
      ],
      "stateMutability": "view",
      "type": "function"
    },
    {
      "inputs": [],
      "name": "getLiquidity",
      "outputs": [
        {
          "internalType": "uint256",
          "name": "liquidity",
          "type": "uint256"
        }
      ],
      "stateMutability": "view",
      "type": "function"
    },
    {
      "inputs": [],
      "name": "getLt",
      "outputs": [
        {
          "internalType": "uint256",
          "name": "lt",
          "type": "uint256"
        }
      ],
      "stateMutability": "view",
      "type": "function"
    },
    {
      "inputs": [
        {
          "internalType": "address",
          "name": "_borrower",
          "type": "address"
        }
      ],
      "name": "getLtv",
      "outputs": [
        {
          "internalType": "uint256",
          "name": "ltv",
          "type": "uint256"
        }
      ],
      "stateMutability": "view",
      "type": "function"
    },
    {
      "inputs": [],
      "name": "getMaxLtv",
      "outputs": [
        {
          "internalType": "uint256",
          "name": "maxLtv",
          "type": "uint256"
        }
      ],
      "stateMutability": "view",
      "type": "function"
    },
    {
      "inputs": [],
      "name": "getProtectedAssets",
      "outputs": [
        {
          "internalType": "uint256",
          "name": "totalProtectedAssets",
          "type": "uint256"
        }
      ],
      "stateMutability": "view",
      "type": "function"
    },
    {
      "inputs": [
        {
          "internalType": "contract ISiloConfig",
          "name": "_siloConfig",
          "type": "address"
        },
        {
          "internalType": "address",
          "name": "_modelConfigAddress",
          "type": "address"
        }
      ],
      "name": "initialize",
      "outputs": [],
      "stateMutability": "nonpayable",
      "type": "function"
    },
    {
      "inputs": [
        {
          "internalType": "address",
          "name": "_borrower",
          "type": "address"
        }
      ],
      "name": "isSolvent",
      "outputs": [
        {
          "internalType": "bool",
          "name": "",
          "type": "bool"
        }
      ],
      "stateMutability": "view",
      "type": "function"
    },
    {
      "inputs": [
        {
          "internalType": "uint256",
          "name": "_assets",
          "type": "uint256"
        },
        {
          "internalType": "contract ILeverageBorrower",
          "name": "_receiver",
          "type": "address"
        },
        {
          "internalType": "address",
          "name": "_borrower",
          "type": "address"
        },
        {
          "internalType": "bytes",
          "name": "_data",
          "type": "bytes"
        }
      ],
      "name": "leverage",
      "outputs": [
        {
          "internalType": "uint256",
          "name": "shares",
          "type": "uint256"
        }
      ],
      "stateMutability": "nonpayable",
      "type": "function"
    },
    {
      "inputs": [
        {
          "internalType": "address",
          "name": "_collateralAsset",
          "type": "address"
        },
        {
          "internalType": "address",
          "name": "_debtAsset",
          "type": "address"
        },
        {
          "internalType": "address",
          "name": "_borrower",
          "type": "address"
        },
        {
          "internalType": "uint256",
          "name": "_debtToCover",
          "type": "uint256"
        },
        {
          "internalType": "bool",
          "name": "_receiveSToken",
          "type": "bool"
        }
      ],
      "name": "liquidationCall",
      "outputs": [],
      "stateMutability": "nonpayable",
      "type": "function"
    },
    {
      "inputs": [
        {
          "internalType": "address",
          "name": "_borrower",
          "type": "address"
        }
      ],
      "name": "maxBorrow",
      "outputs": [
        {
          "internalType": "uint256",
          "name": "maxAssets",
          "type": "uint256"
        }
      ],
      "stateMutability": "view",
      "type": "function"
    },
    {
      "inputs": [
        {
          "internalType": "address",
          "name": "_borrower",
          "type": "address"
        }
      ],
      "name": "maxBorrowShares",
      "outputs": [
        {
          "internalType": "uint256",
          "name": "maxShares",
          "type": "uint256"
        }
      ],
      "stateMutability": "view",
      "type": "function"
    },
    {
      "inputs": [
        {
          "internalType": "address",
          "name": "_receiver",
          "type": "address"
        }
      ],
      "name": "maxDeposit",
      "outputs": [
        {
          "internalType": "uint256",
          "name": "maxAssets",
          "type": "uint256"
        }
      ],
      "stateMutability": "view",
      "type": "function"
    },
    {
      "inputs": [
        {
          "internalType": "address",
          "name": "_receiver",
          "type": "address"
        },
        {
          "internalType": "enum ISilo.AssetType",
          "name": "_assetType",
          "type": "uint8"
        }
      ],
      "name": "maxDeposit",
      "outputs": [
        {
          "internalType": "uint256",
          "name": "maxAssets",
          "type": "uint256"
        }
      ],
      "stateMutability": "view",
      "type": "function"
    },
    {
      "inputs": [
        {
          "internalType": "address",
          "name": "_token",
          "type": "address"
        }
      ],
      "name": "maxFlashLoan",
      "outputs": [
        {
          "internalType": "uint256",
          "name": "maxLoan",
          "type": "uint256"
        }
      ],
      "stateMutability": "view",
      "type": "function"
    },
    {
      "inputs": [
        {
          "internalType": "address",
          "name": "_borrower",
          "type": "address"
        }
      ],
      "name": "maxLiquidation",
      "outputs": [
        {
          "internalType": "uint256",
          "name": "collateralToLiquidate",
          "type": "uint256"
        },
        {
          "internalType": "uint256",
          "name": "debtToRepay",
          "type": "uint256"
        }
      ],
      "stateMutability": "view",
      "type": "function"
    },
    {
      "inputs": [
        {
          "internalType": "address",
          "name": "_receiver",
          "type": "address"
        },
        {
          "internalType": "enum ISilo.AssetType",
          "name": "_assetType",
          "type": "uint8"
        }
      ],
      "name": "maxMint",
      "outputs": [
        {
          "internalType": "uint256",
          "name": "maxShares",
          "type": "uint256"
        }
      ],
      "stateMutability": "view",
      "type": "function"
    },
    {
      "inputs": [
        {
          "internalType": "address",
          "name": "_receiver",
          "type": "address"
        }
      ],
      "name": "maxMint",
      "outputs": [
        {
          "internalType": "uint256",
          "name": "maxShares",
          "type": "uint256"
        }
      ],
      "stateMutability": "view",
      "type": "function"
    },
    {
      "inputs": [
        {
          "internalType": "address",
          "name": "_owner",
          "type": "address"
        },
        {
          "internalType": "enum ISilo.AssetType",
          "name": "_assetType",
          "type": "uint8"
        }
      ],
      "name": "maxRedeem",
      "outputs": [
        {
          "internalType": "uint256",
          "name": "maxShares",
          "type": "uint256"
        }
      ],
      "stateMutability": "view",
      "type": "function"
    },
    {
      "inputs": [
        {
          "internalType": "address",
          "name": "_owner",
          "type": "address"
        }
      ],
      "name": "maxRedeem",
      "outputs": [
        {
          "internalType": "uint256",
          "name": "maxShares",
          "type": "uint256"
        }
      ],
      "stateMutability": "view",
      "type": "function"
    },
    {
      "inputs": [
        {
          "internalType": "address",
          "name": "_borrower",
          "type": "address"
        }
      ],
      "name": "maxRepay",
      "outputs": [
        {
          "internalType": "uint256",
          "name": "assets",
          "type": "uint256"
        }
      ],
      "stateMutability": "view",
      "type": "function"
    },
    {
      "inputs": [
        {
          "internalType": "address",
          "name": "_borrower",
          "type": "address"
        }
      ],
      "name": "maxRepayShares",
      "outputs": [
        {
          "internalType": "uint256",
          "name": "shares",
          "type": "uint256"
        }
      ],
      "stateMutability": "view",
      "type": "function"
    },
    {
      "inputs": [
        {
          "internalType": "address",
          "name": "_owner",
          "type": "address"
        },
        {
          "internalType": "enum ISilo.AssetType",
          "name": "_assetType",
          "type": "uint8"
        }
      ],
      "name": "maxWithdraw",
      "outputs": [
        {
          "internalType": "uint256",
          "name": "maxAssets",
          "type": "uint256"
        }
      ],
      "stateMutability": "view",
      "type": "function"
    },
    {
      "inputs": [
        {
          "internalType": "address",
          "name": "_owner",
          "type": "address"
        }
      ],
      "name": "maxWithdraw",
      "outputs": [
        {
          "internalType": "uint256",
          "name": "maxAssets",
          "type": "uint256"
        }
      ],
      "stateMutability": "view",
      "type": "function"
    },
    {
      "inputs": [
        {
          "internalType": "uint256",
          "name": "_shares",
          "type": "uint256"
        },
        {
          "internalType": "address",
          "name": "_receiver",
          "type": "address"
        }
      ],
      "name": "mint",
      "outputs": [
        {
          "internalType": "uint256",
          "name": "assets",
          "type": "uint256"
        }
      ],
      "stateMutability": "nonpayable",
      "type": "function"
    },
    {
      "inputs": [
        {
          "internalType": "uint256",
          "name": "_shares",
          "type": "uint256"
        },
        {
          "internalType": "address",
          "name": "_receiver",
          "type": "address"
        },
        {
          "internalType": "enum ISilo.AssetType",
          "name": "_assetType",
          "type": "uint8"
        }
      ],
      "name": "mint",
      "outputs": [
        {
          "internalType": "uint256",
          "name": "assets",
          "type": "uint256"
        }
      ],
      "stateMutability": "nonpayable",
      "type": "function"
    },
    {
      "inputs": [],
      "name": "name",
      "outputs": [
        {
          "internalType": "string",
          "name": "",
          "type": "string"
        }
      ],
      "stateMutability": "view",
      "type": "function"
    },
    {
      "inputs": [
        {
          "internalType": "uint256",
          "name": "_assets",
          "type": "uint256"
        }
      ],
      "name": "previewBorrow",
      "outputs": [
        {
          "internalType": "uint256",
          "name": "shares",
          "type": "uint256"
        }
      ],
      "stateMutability": "view",
      "type": "function"
    },
    {
      "inputs": [
        {
          "internalType": "uint256",
          "name": "_shares",
          "type": "uint256"
        }
      ],
      "name": "previewBorrowShares",
      "outputs": [
        {
          "internalType": "uint256",
          "name": "assets",
          "type": "uint256"
        }
      ],
      "stateMutability": "view",
      "type": "function"
    },
    {
      "inputs": [
        {
          "internalType": "uint256",
          "name": "_assets",
          "type": "uint256"
        },
        {
          "internalType": "enum ISilo.AssetType",
          "name": "_assetType",
          "type": "uint8"
        }
      ],
      "name": "previewDeposit",
      "outputs": [
        {
          "internalType": "uint256",
          "name": "shares",
          "type": "uint256"
        }
      ],
      "stateMutability": "view",
      "type": "function"
    },
    {
      "inputs": [
        {
          "internalType": "uint256",
          "name": "_assets",
          "type": "uint256"
        }
      ],
      "name": "previewDeposit",
      "outputs": [
        {
          "internalType": "uint256",
          "name": "shares",
          "type": "uint256"
        }
      ],
      "stateMutability": "view",
      "type": "function"
    },
    {
      "inputs": [
        {
          "internalType": "uint256",
          "name": "_shares",
          "type": "uint256"
        },
        {
          "internalType": "enum ISilo.AssetType",
          "name": "_assetType",
          "type": "uint8"
        }
      ],
      "name": "previewMint",
      "outputs": [
        {
          "internalType": "uint256",
          "name": "assets",
          "type": "uint256"
        }
      ],
      "stateMutability": "view",
      "type": "function"
    },
    {
      "inputs": [
        {
          "internalType": "uint256",
          "name": "_shares",
          "type": "uint256"
        }
      ],
      "name": "previewMint",
      "outputs": [
        {
          "internalType": "uint256",
          "name": "assets",
          "type": "uint256"
        }
      ],
      "stateMutability": "view",
      "type": "function"
    },
    {
      "inputs": [
        {
          "internalType": "uint256",
          "name": "_shares",
          "type": "uint256"
        }
      ],
      "name": "previewRedeem",
      "outputs": [
        {
          "internalType": "uint256",
          "name": "assets",
          "type": "uint256"
        }
      ],
      "stateMutability": "view",
      "type": "function"
    },
    {
      "inputs": [
        {
          "internalType": "uint256",
          "name": "_shares",
          "type": "uint256"
        },
        {
          "internalType": "enum ISilo.AssetType",
          "name": "_assetType",
          "type": "uint8"
        }
      ],
      "name": "previewRedeem",
      "outputs": [
        {
          "internalType": "uint256",
          "name": "assets",
          "type": "uint256"
        }
      ],
      "stateMutability": "view",
      "type": "function"
    },
    {
      "inputs": [
        {
          "internalType": "uint256",
          "name": "_assets",
          "type": "uint256"
        }
      ],
      "name": "previewRepay",
      "outputs": [
        {
          "internalType": "uint256",
          "name": "shares",
          "type": "uint256"
        }
      ],
      "stateMutability": "view",
      "type": "function"
    },
    {
      "inputs": [
        {
          "internalType": "uint256",
          "name": "_shares",
          "type": "uint256"
        }
      ],
      "name": "previewRepayShares",
      "outputs": [
        {
          "internalType": "uint256",
          "name": "assets",
          "type": "uint256"
        }
      ],
      "stateMutability": "view",
      "type": "function"
    },
    {
      "inputs": [
        {
          "internalType": "uint256",
          "name": "_assets",
          "type": "uint256"
        }
      ],
      "name": "previewWithdraw",
      "outputs": [
        {
          "internalType": "uint256",
          "name": "shares",
          "type": "uint256"
        }
      ],
      "stateMutability": "view",
      "type": "function"
    },
    {
      "inputs": [
        {
          "internalType": "uint256",
          "name": "_assets",
          "type": "uint256"
        },
        {
          "internalType": "enum ISilo.AssetType",
          "name": "_assetType",
          "type": "uint8"
        }
      ],
      "name": "previewWithdraw",
      "outputs": [
        {
          "internalType": "uint256",
          "name": "shares",
          "type": "uint256"
        }
      ],
      "stateMutability": "view",
      "type": "function"
    },
    {
      "inputs": [
        {
          "internalType": "uint256",
          "name": "_shares",
          "type": "uint256"
        },
        {
          "internalType": "address",
          "name": "_receiver",
          "type": "address"
        },
        {
          "internalType": "address",
          "name": "_owner",
          "type": "address"
        }
      ],
      "name": "redeem",
      "outputs": [
        {
          "internalType": "uint256",
          "name": "assets",
          "type": "uint256"
        }
      ],
      "stateMutability": "nonpayable",
      "type": "function"
    },
    {
      "inputs": [
        {
          "internalType": "uint256",
          "name": "_shares",
          "type": "uint256"
        },
        {
          "internalType": "address",
          "name": "_receiver",
          "type": "address"
        },
        {
          "internalType": "address",
          "name": "_owner",
          "type": "address"
        },
        {
          "internalType": "enum ISilo.AssetType",
          "name": "_assetType",
          "type": "uint8"
        }
      ],
      "name": "redeem",
      "outputs": [
        {
          "internalType": "uint256",
          "name": "assets",
          "type": "uint256"
        }
      ],
      "stateMutability": "nonpayable",
      "type": "function"
    },
    {
      "inputs": [
        {
          "internalType": "uint256",
          "name": "_assets",
          "type": "uint256"
        },
        {
          "internalType": "address",
          "name": "_borrower",
          "type": "address"
        }
      ],
      "name": "repay",
      "outputs": [
        {
          "internalType": "uint256",
          "name": "shares",
          "type": "uint256"
        }
      ],
      "stateMutability": "nonpayable",
      "type": "function"
    },
    {
      "inputs": [
        {
          "internalType": "uint256",
          "name": "_shares",
          "type": "uint256"
        },
        {
          "internalType": "address",
          "name": "_borrower",
          "type": "address"
        }
      ],
      "name": "repayShares",
      "outputs": [
        {
          "internalType": "uint256",
          "name": "assets",
          "type": "uint256"
        }
      ],
      "stateMutability": "nonpayable",
      "type": "function"
    },
    {
      "inputs": [],
      "name": "siloData",
      "outputs": [
        {
          "internalType": "uint192",
          "name": "daoAndDeployerFees",
          "type": "uint192"
        },
        {
          "internalType": "uint64",
          "name": "interestRateTimestamp",
          "type": "uint64"
        }
      ],
      "stateMutability": "view",
      "type": "function"
    },
    {
      "inputs": [],
      "name": "symbol",
      "outputs": [
        {
          "internalType": "string",
          "name": "",
          "type": "string"
        }
      ],
      "stateMutability": "view",
      "type": "function"
    },
    {
      "inputs": [],
      "name": "totalAssets",
      "outputs": [
        {
          "internalType": "uint256",
          "name": "totalManagedAssets",
          "type": "uint256"
        }
      ],
      "stateMutability": "view",
      "type": "function"
    },
    {
      "inputs": [],
      "name": "totalSupply",
      "outputs": [
        {
          "internalType": "uint256",
          "name": "",
          "type": "uint256"
        }
      ],
      "stateMutability": "view",
      "type": "function"
    },
    {
      "inputs": [
        {
          "internalType": "address",
          "name": "_to",
          "type": "address"
        },
        {
          "internalType": "uint256",
          "name": "_amount",
          "type": "uint256"
        }
      ],
      "name": "transfer",
      "outputs": [
        {
          "internalType": "bool",
          "name": "",
          "type": "bool"
        }
      ],
      "stateMutability": "nonpayable",
      "type": "function"
    },
    {
      "inputs": [
        {
          "internalType": "address",
          "name": "_from",
          "type": "address"
        },
        {
          "internalType": "address",
          "name": "_to",
          "type": "address"
        },
        {
          "internalType": "uint256",
          "name": "_amount",
          "type": "uint256"
        }
      ],
      "name": "transferFrom",
      "outputs": [
        {
          "internalType": "bool",
          "name": "",
          "type": "bool"
        }
      ],
      "stateMutability": "nonpayable",
      "type": "function"
    },
    {
      "inputs": [
        {
          "internalType": "uint256",
          "name": "_shares",
          "type": "uint256"
        },
        {
          "internalType": "address",
          "name": "_owner",
          "type": "address"
        },
        {
          "internalType": "enum ISilo.AssetType",
          "name": "_withdrawType",
          "type": "uint8"
        }
      ],
      "name": "transitionCollateral",
      "outputs": [
        {
          "internalType": "uint256",
          "name": "assets",
          "type": "uint256"
        }
      ],
      "stateMutability": "nonpayable",
      "type": "function"
    },
    {
      "inputs": [],
      "name": "utilizationData",
      "outputs": [
        {
          "components": [
            {
              "internalType": "uint256",
              "name": "collateralAssets",
              "type": "uint256"
            },
            {
              "internalType": "uint256",
              "name": "debtAssets",
              "type": "uint256"
            },
            {
              "internalType": "uint64",
              "name": "interestRateTimestamp",
              "type": "uint64"
            }
          ],
          "internalType": "struct ISilo.UtilizationData",
          "name": "",
          "type": "tuple"
        }
      ],
      "stateMutability": "view",
      "type": "function"
    },
    {
      "inputs": [
        {
          "internalType": "uint256",
          "name": "_assets",
          "type": "uint256"
        },
        {
          "internalType": "address",
          "name": "_receiver",
          "type": "address"
        },
        {
          "internalType": "address",
          "name": "_owner",
          "type": "address"
        }
      ],
      "name": "withdraw",
      "outputs": [
        {
          "internalType": "uint256",
          "name": "shares",
          "type": "uint256"
        }
      ],
      "stateMutability": "nonpayable",
      "type": "function"
    },
    {
      "inputs": [
        {
          "internalType": "uint256",
          "name": "_assets",
          "type": "uint256"
        },
        {
          "internalType": "address",
          "name": "_receiver",
          "type": "address"
        },
        {
          "internalType": "address",
          "name": "_owner",
          "type": "address"
        },
        {
          "internalType": "enum ISilo.AssetType",
          "name": "_assetType",
          "type": "uint8"
        }
      ],
      "name": "withdraw",
      "outputs": [
        {
          "internalType": "uint256",
          "name": "shares",
          "type": "uint256"
        }
      ],
      "stateMutability": "nonpayable",
      "type": "function"
    },
    {
      "inputs": [
        {
          "internalType": "uint256",
          "name": "_withdrawAssetsFromCollateral",
          "type": "uint256"
        },
        {
          "internalType": "uint256",
          "name": "_withdrawAssetsFromProtected",
          "type": "uint256"
        },
        {
          "internalType": "address",
          "name": "_borrower",
          "type": "address"
        },
        {
          "internalType": "address",
          "name": "_liquidator",
          "type": "address"
        },
        {
          "internalType": "bool",
          "name": "_receiveSToken",
          "type": "bool"
        }
      ],
      "name": "withdrawCollateralsToLiquidator",
      "outputs": [],
      "stateMutability": "nonpayable",
      "type": "function"
    },
    {
      "inputs": [],
      "name": "withdrawFees",
      "outputs": [],
      "stateMutability": "nonpayable",
      "type": "function"
    }
  ],
  "bytecode": "0x60a06040523480156200001157600080fd5b5060405162005fd338038062005fd3833981016040819052620000349162000111565b6200003e62000050565b6001600160a01b031660805262000143565b600054610100900460ff1615620000bd5760405162461bcd60e51b815260206004820152602760248201527f496e697469616c697a61626c653a20636f6e747261637420697320696e697469604482015266616c697a696e6760c81b606482015260840160405180910390fd5b60005460ff908116146200010f576000805460ff191660ff9081179091556040519081527f7f26b83ff96e1f2b6a682f133852f6798a09c465da95921460cefb38474024989060200160405180910390a15b565b6000602082840312156200012457600080fd5b81516001600160a01b03811681146200013c57600080fd5b9392505050565b608051615e666200016d60003960008181610935015281816116ae01526128ff0152615e666000f3fe608060405234801561001057600080fd5b50600436106104745760003560e01c806399c1da8a11610257578063c061ddc711610146578063d9d98ce4116100c3578063e72bec5711610087578063e72bec5714610a50578063ec25ac0114610a63578063ecd658b414610a76578063ef8b30f714610a7e578063fa9b1c6a14610a9157600080fd5b8063d9d98ce4146109fc578063da53766014610a0f578063dd62ed3e14610a22578063e36754eb14610a35578063e64e162114610a4857600080fd5b8063c6e6f5921161010a578063c6e6f5921461099d578063ccb54921146109b0578063ce96cb77146109c3578063d5164184146109d6578063d905777e146109e957600080fd5b8063c061ddc7146108d1578063c1357c90146108e4578063c45a015514610930578063c4d5d01614610957578063c63d75b61461098a57600080fd5b8063b3d7f6b9116101d4578063b96f174311610198578063b96f174314610872578063ba08765214610885578063ba8ffe6514610898578063bd02d848146108ab578063bf722ca2146108be57600080fd5b8063b3d7f6b91461081e578063b460af9414610831578063b5dbd7f014610844578063b7ec8d4b1461084c578063b8337c2a1461085f57600080fd5b8063a6afed951161021b578063a6afed95146107ca578063a7d6e44b146107d2578063a9059cbb146107e5578063acb70815146107f8578063b17a12471461080b57600080fd5b806399c1da8a1461075757806399d499c11461075f5780639ef2fda01461077c578063a1ff9bee146107af578063a65fd95d146107b757600080fd5b8063402d267d116103735780636e1f8f7e116102f05780637ff00077116102b45780637ff0007714610703578063889576f71461071657806394bf804d1461072957806395d89b411461073c57806397a9d4571461074457600080fd5b80636e1f8f7e146106a45780636e553f65146106b757806370a08231146106ca57806378007e23146106dd57806379502c55146106f057600080fd5b80635cffe9de116103375780635cffe9de146106455780635d0868f6146106585780635d4086af1461066b5780635f3011491461067e578063613255ab1461069157600080fd5b8063402d267d146105f1578063421a1aee14610604578063476343ee14610617578063485cc9551461061f5780634cdad5061461063257600080fd5b806311b5e6821161040157806329d6509a116103c557806329d6509a1461057e578063313ce5671461059157806338b51ce1146105ab57806338d52e0f146105be5780633a78bdf4146105de57600080fd5b806311b5e6821461052a57806312d4c5741461053d57806318160ddd1461055057806323b872dd14610558578063267e54a71461056b57600080fd5b806307a2d13a1161044857806307a2d13a146104d15780630910a510146104e4578063095ea7b3146104ec5780630a28a4771461050f578063117ff53e1461052257600080fd5b8062a718a91461047957806301e1d1141461048e57806306fdde03146104a9578063071bf3ff146104be575b600080fd5b61048c6104873660046150d3565b610aa4565b005b610496610e9c565b6040519081526020015b60405180910390f35b6104b1610eae565b6040516104a0919061515f565b6104966104cc3660046151a6565b610f22565b6104966104df3660046151db565b610f75565b610496610f97565b6104ff6104fa3660046151f4565b610faf565b60405190151581526020016104a0565b61049661051d3660046151db565b611025565b610496611032565b610496610538366004615220565b611061565b61049661054b3660046151a6565b611074565b6104966110c7565b6104ff610566366004615243565b611132565b610496610579366004615220565b6111b8565b61049661058c366004615284565b6111c4565b6105996112a8565b60405160ff90911681526020016104a0565b6104ff6105b9366004615284565b611313565b6105c66113b1565b6040516001600160a01b0390911681526020016104a0565b6104ff6105ec366004615284565b61141e565b6104966105ff366004615284565b61152b565b610496610612366004615284565b61155f565b61048c611672565b61048c61062d3660046152a1565b61170b565b6104966106403660046151db565b611908565b6104ff61065336600461531b565b611915565b6104966106663660046151a6565b6119b4565b610496610679366004615220565b6119d0565b61049661068c366004615284565b6119f0565b61049661069f366004615284565b611b6a565b6104966106b2366004615220565b611c5f565b6104966106c536600461538d565b611c6b565b6104966106d8366004615284565b611cce565b6104966106eb3660046151db565b611d08565b6033546105c6906001600160a01b031681565b610496610711366004615220565b611d2a565b6104966107243660046153b2565b611d6c565b61049661073736600461538d565b611d92565b6104b1611dd4565b610496610752366004615284565b611e1b565b610496611f45565b610767611fbd565b604080519283526020830191909152016104a0565b610784612009565b604080518251815260208084015190820152918101516001600160401b0316908201526060016104a0565b610496612090565b6104966107c53660046153f4565b61209c565b610496612397565b6104966107e0366004615220565b6123a1565b6104ff6107f33660046151f4565b6123ad565b61049661080636600461538d565b6123e6565b6104966108193660046151a6565b6123fd565b61049661082c3660046151db565b612538565b61049661083f3660046153b2565b612545565b61049661256c565b61049661085a366004615449565b6125e4565b61049661086d366004615487565b612671565b61048c6108803660046154d8565b612697565b6104966108933660046153b2565b612762565b6104966108a63660046151db565b61277d565b6107676108b9366004615284565b61279f565b6104966108cc3660046151db565b61282e565b6104966108df366004615449565b612850565b603454610909906001600160c01b03811690600160c01b90046001600160401b031682565b604080516001600160c01b0390931683526001600160401b039091166020830152016104a0565b6105c67f000000000000000000000000000000000000000000000000000000000000000081565b61095f6128dd565b604080516001600160a01b0395861681529490931660208501529183015260608201526080016104a0565b610496610998366004615284565b61299e565b6104966109ab3660046151db565b6129e9565b6104966109be366004615284565b612a0b565b6104966109d1366004615284565b612b20565b6104966109e43660046153b2565b612b42565b6104966109f7366004615284565b612b68565b610496610a0a3660046151f4565b612b83565b610496610a1d366004615487565b612beb565b610496610a303660046152a1565b612c10565b610496610a4336600461538d565b612c6a565b610767612c81565b610496610a5e3660046151db565b612ca9565b6104ff610a71366004615284565b612ccb565b610496612d8c565b610496610a8c3660046151db565b612d98565b610496610a9f366004615449565b612da5565b610aac6130e3565b6033546040516363da68b560e11b815230600482015260009182916001600160a01b039091169063c7b4d16a9060240161040060405180830381865afa158015610afa573d6000803e3d6000fd5b505050506040513d601f19601f82011682018060405250810190610b1e9190615689565b9150915080608001516001600160a01b0316876001600160a01b031614610b585760405163055692d760e21b815260040160405180910390fd5b81608001516001600160a01b0316866001600160a01b031614610b8e5760405163129e080d60e21b815260040160405180910390fd5b610ba68261014001518360000151846020015161313c565b5081606001516001600160a01b031663a6afed956040518163ffffffff1660e01b81526004016020604051808303816000875af1158015610beb573d6000803e3d6000fd5b505050506040513d601f19601f82011682018060405250810190610c0f91906156b7565b50806101e0015115610c82576101008101516080820151604051637cfd30cd60e11b81526001600160a01b03918216600482015291169063f9fa619a90602401600060405180830381600087803b158015610c6957600080fd5b505af1158015610c7d573d6000803e3d6000fd5b505050505b816101e0015115610cf4576101008201516080830151604051637cfd30cd60e11b81526001600160a01b03918216600482015291169063f9fa619a90602401600060405180830381600087803b158015610cdb57600080fd5b505af1158015610cef573d6000803e3d6000fd5b505050505b6001600160a01b03851633146000808073__$ff3732d68c5c83c0ffcb2490e4fa1c4ff2$__63c1ca943b86888c8c89610d32578a6101a00151610d35565b60005b8a6040518763ffffffff1660e01b8152600401610d57969594939291906157f3565b606060405180830381865af4158015610d74573d6000803e3d6000fd5b505050506040513d601f19601f82011682018060405250810190610d989190615843565b92509250925080600003610dbf576040516317ff0e0960e11b815260040160405180910390fd5b604051871515815260009033907fe24aa47ff635f1a546a55407c1830a99c50045332faba28455dedecb35b07a7e9060200160405180910390a2610e068783838d33613173565b5050606087015160405163b96f174360e01b815260048101869052602481018590526001600160a01b038c811660448301523360648301528a151560848301529091169063b96f17439060a401600060405180830381600087803b158015610e6d57600080fd5b505af1158015610e81573d6000803e3d6000fd5b5050505050505050505050610e9560018055565b5050505050565b6000610ea860016131b0565b50919050565b6060610eb86132a9565b6001600160a01b03166306fdde036040518163ffffffff1660e01b8152600401600060405180830381865afa158015610ef5573d6000803e3d6000fd5b505050506040513d6000823e601f3d908101601f19168201604052610f1d9190810190615871565b905090565b60006002826002811115610f3857610f38615912565b03610f5657604051632ad7929d60e11b815260040160405180910390fd5b603354610f6d906001600160a01b03168484613316565b949350505050565b6000806000610f8460016131b0565b91509150610f6d8483836000600161342e565b603354600090610f1d906001600160a01b0316613486565b6000610fb96132a9565b6001600160a01b031663c37d11c23385856040518463ffffffff1660e01b8152600401610fe893929190615928565b600060405180830381600087803b15801561100257600080fd5b505af1158015611016573d6000803e3d6000fd5b50505050600190505b92915050565b600061101f8260016134e1565b6000603581805b600281111561104a5761104a615912565b815260200190815260200160002060000154905090565b600061106d8383613533565b9392505050565b6000600282600281111561108a5761108a615912565b036110a857604051632ad7929d60e11b815260040160405180910390fd5b6033546110bf906001600160a01b03168484613316565b509392505050565b60006110d16132a9565b6001600160a01b03166318160ddd6040518163ffffffff1660e01b8152600401602060405180830381865afa15801561110e573d6000803e3d6000fd5b505050506040513d601f19601f82011682018060405250810190610f1d91906156b7565b600061113c6132a9565b604051631ca3ec3f60e11b81523360048201526001600160a01b0386811660248301528581166044830152606482018590529190911690633947d87e90608401600060405180830381600087803b15801561119657600080fd5b505af11580156111aa573d6000803e3d6000fd5b506001979650505050505050565b600061106d83836134e1565b60335460405163e48a5f7b60e01b815230600482015260009182916001600160a01b039091169063e48a5f7b9060240161020060405180830381865afa158015611212573d6000803e3d6000fd5b505050506040513d601f19601f82011682018060405250810190611236919061594c565b60e08101516040516370a0823160e01b81526001600160a01b0386811660048301529293509116906370a0823190602401602060405180830381865afa158015611284573d6000803e3d6000fd5b505050506040513d601f19601f8201168201806040525081019061106d91906156b7565b60006112b26132a9565b6001600160a01b031663313ce5676040518163ffffffff1660e01b8152600401602060405180830381865afa1580156112ef573d6000803e3d6000fd5b505050506040513d601f19601f82011682018060405250810190610f1d9190615969565b600080600061132184613585565b60e08101516040516370a0823160e01b81526001600160a01b03888116600483015293955091935060009216906370a0823190602401602060405180830381865afa158015611374573d6000803e3d6000fd5b505050506040513d601f19601f8201168201806040525081019061139891906156b7565b90506113a88383876001856136a9565b95945050505050565b6033546040516307439b4960e01b81523060048201526000916001600160a01b0316906307439b4990602401602060405180830381865afa1580156113fa573d6000803e3d6000fd5b505050506040513d601f19601f82011682018060405250810190610f1d919061598c565b60335460405163e48a5f7b60e01b815230600482015260009182916001600160a01b039091169063e48a5f7b9060240161020060405180830381865afa15801561146c573d6000803e3d6000fd5b505050506040513d601f19601f82011682018060405250810190611490919061594c565b60a081015160c08201516040516308bf74bf60e11b81526001600160a01b0392831660048201529082166024820152908516604482015290915073__$2cb88bc423f502b07e13ce75aaf4711c2a$__9063117ee97e906064015b602060405180830381865af4158015611507573d6000803e3d6000fd5b505050506040513d601f19601f8201168201806040525081019061106d91906159a9565b600061101f8260358360015b600281111561154857611548615912565b8152602001908152602001600020600001546136eb565b6033546040516363da68b560e11b81523060048201526000916001600160a01b03169082908190839063c7b4d16a9060240161040060405180830381865afa1580156115af573d6000803e3d6000fd5b505050506040513d601f19601f820116820180604052508101906115d39190615689565b9150915060008073__$35324b2b5c5ee97b5b21e500a23bd2480c$__638b4f14268560026040518363ffffffff1660e01b81526004016116149291906159da565b6040805180830381865af4158015611630573d6000803e3d6000fd5b505050506040513d601f19601f8201168201806040525081019061165491906159f7565b9150915061166683858985858a613736565b98975050505050505050565b603354604051639e71f57360e01b815273__$35324b2b5c5ee97b5b21e500a23bd2480c$__91639e71f573916116d9916001600160a01b0316907f000000000000000000000000000000000000000000000000000000000000000090603490600401615928565b60006040518083038186803b1580156116f157600080fd5b505af4158015611705573d6000803e3d6000fd5b50505050565b600054610100900460ff161580801561172b5750600054600160ff909116105b806117455750303b158015611745575060005460ff166001145b6117ad5760405162461bcd60e51b815260206004820152602e60248201527f496e697469616c697a61626c653a20636f6e747261637420697320616c72656160448201526d191e481a5b9a5d1a585b1a5e995960921b60648201526084015b60405180910390fd5b6000805460ff1916600117905580156117d0576000805461ff0019166101001790555b6117d86137ca565b603380546001600160a01b0319166001600160a01b03851690811790915560405163e48a5f7b60e01b81523060048201526000919063e48a5f7b9060240161020060405180830381865afa158015611834573d6000803e3d6000fd5b505050506040513d601f19601f82011682018060405250810190611858919061594c565b610140015160405163ee8f931b60e01b81526001600160a01b0385811660048301529192509082169063ee8f931b90602401600060405180830381600087803b1580156118a457600080fd5b505af11580156118b8573d6000803e3d6000fd5b50505050508015611903576000805461ff0019169055604051600181527f7f26b83ff96e1f2b6a682f133852f6798a09c465da95921460cefb38474024989060200160405180910390a15b505050565b600061101f8260016137fb565b60335460405163125f329560e11b815260009173__$2cb88bc423f502b07e13ce75aaf4711c2a$__916324be652a91611969916001600160a01b03909116906034908b908b908b908b908b90600401615a44565b602060405180830381865af4158015611986573d6000803e3d6000fd5b505050506040513d601f19601f820116820180604052508101906119aa91906159a9565b9695505050505050565b600061106d836035600085600281111561153757611537615912565b60008060006119de846131b0565b915091506113a885838360008861384d565b60335460405163e48a5f7b60e01b815230600482015260009182916001600160a01b039091169063e48a5f7b9060240161020060405180830381865afa158015611a3e573d6000803e3d6000fd5b505050506040513d601f19601f82011682018060405250810190611a62919061594c565b60e08101516040516370a0823160e01b81526001600160a01b038681166004830152929350600092909116906370a0823190602401602060405180830381865afa158015611ab4573d6000803e3d6000fd5b505050506040513d601f19601f82011682018060405250810190611ad891906156b7565b905060008073__$35324b2b5c5ee97b5b21e500a23bd2480c$__638b4f14268560026040518363ffffffff1660e01b8152600401611b179291906159da565b6040805180830381865af4158015611b33573d6000803e3d6000fd5b505050506040513d601f19601f82011682018060405250810190611b5791906159f7565b915091506119aa8383836001600261342e565b6033546040516307439b4960e01b81523060048201526000916001600160a01b0316906307439b4990602401602060405180830381865afa158015611bb3573d6000803e3d6000fd5b505050506040513d601f19601f82011682018060405250810190611bd7919061598c565b6001600160a01b0316826001600160a01b031614611bf657600061101f565b6040516370a0823160e01b81523060048201526001600160a01b038316906370a08231906024015b602060405180830381865afa158015611c3b573d6000803e3d6000fd5b505050506040513d601f19601f8201168201806040525081019061101f91906156b7565b600061106d83836138a5565b6000611c756130e3565b82600003611c9657604051630cb65c7760e21b815260040160405180910390fd5b6000611ca06138e5565b915050611cc081608001518560008660018660c001518760e0015161397c565b925061101f91506131aa9050565b6000611cd86132a9565b6040516370a0823160e01b81526001600160a01b03848116600483015291909116906370a0823190602401611c1e565b6000806000611d1760026131b0565b91509150610f6d8483836001600261384d565b6000806000611d38846131b0565b90925090506113a88583836002886002811115611d5757611d57615912565b14611d63576000611d66565b60015b8861342e565b6000611d766130e3565b6000611d8481868686613a8d565b50915061106d905060018055565b6000611d9c6130e3565b6000611da66138e5565b915050611dc681608001516000868660018660c001518760e0015161397c565b50915061101f905060018055565b6060611dde6132a9565b6001600160a01b03166395d89b416040518163ffffffff1660e01b8152600401600060405180830381865afa158015610ef5573d6000803e3d6000fd5b6033546040516363da68b560e11b81523060048201526000916001600160a01b03169082908190839063c7b4d16a9060240161040060405180830381865afa158015611e6b573d6000803e3d6000fd5b505050506040513d601f19601f82011682018060405250810190611e8f9190615689565b9150915060008073__$35324b2b5c5ee97b5b21e500a23bd2480c$__638b4f14268560026040518363ffffffff1660e01b8152600401611ed09291906159da565b6040805180830381865af4158015611eec573d6000803e3d6000fd5b505050506040513d601f19601f82011682018060405250810190611f1091906159f7565b91509150611f2283858985858a613736565b5095508515611f3b575050600019909301949350505050565b5050505050919050565b60335460405163e48a5f7b60e01b81523060048201526000916001600160a01b03169063e48a5f7b9060240161020060405180830381865afa158015611f8f573d6000803e3d6000fd5b505050506040513d601f19601f82011682018060405250810190611fb3919061594c565b6101800151905090565b6001600090815260356020819052600080516020615e1183398151915254919081805b6002811115611ff157611ff1615912565b81526020019081526020016000206000015490509091565b6120366040518060600160405280600081526020016000815260200160006001600160401b031681525090565b5060408051606081018252600080516020615e11833981519152548152600260005260356020908152600080516020615df18339815191525490820152603454600160c01b90046001600160401b03169181019190915290565b60006035816001611039565b60006120a66130e3565b6033546040516363da68b560e11b815230600482015260009182916001600160a01b039091169063c7b4d16a9060240161040060405180830381865afa1580156120f4573d6000803e3d6000fd5b505050506040513d601f19601f820116820180604052508101906121189190615689565b915091506121348261014001518360000151846020015161313c565b50600080612146848b838c8c33613c98565b60408051838152602081018390529197509193506001600160a01b03808b1692908c169133917f96558a334f4759f0e7c423d68c84721860bd8fbf94ddc4e55158ecb125ad04b5910160405180910390a46040517f43e0dfdd4276c907f4df0416ca77293c10ecd1d9f4fcccdcfb856501f962701c90600090a16080840151604051631e94de8d60e21b81527fbd7fad0a2c28fbcc64d9a48d80f46e62c481bf097d121bfa97053b4a326342a4916001600160a01b038c1691637a537a349161221b9133918e9189908f908f90600401615a94565b6020604051808303816000875af115801561223a573d6000803e3d6000fd5b505050506040513d601f19601f8201168201806040525081019061225e91906156b7565b1461227c576040516396dc431b60e01b815260040160405180910390fd5b826101e00151156122ee576101208301516080840151604051637cfd30cd60e11b81526001600160a01b03918216600482015291169063f9fa619a90602401600060405180830381600087803b1580156122d557600080fd5b505af11580156122e9573d6000803e3d6000fd5b505050505b836101e0015115612360576101208401516080850151604051637cfd30cd60e11b81526001600160a01b03918216600482015291169063f9fa619a90602401600060405180830381600087803b15801561234757600080fd5b505af115801561235b573d6000803e3d6000fd5b505050505b61236d83858a6000613cf6565b61238a5760405163950c033560e01b815260040160405180910390fd5b505050506113a860018055565b6000610ea86138e5565b600061106d83836137fb565b60006123b76132a9565b6001600160a01b0316631339c6493385856040518463ffffffff1660e01b8152600401610fe893929190615928565b60006123f06130e3565b6000611cc0848285613d77565b6000600282600281111561241357612413615912565b0361243157604051632ad7929d60e11b815260040160405180910390fd5b603354604051630483b24f60e41b815230600482015260009182916001600160a01b039091169063483b24f090602401606060405180830381865afa15801561247e573d6000803e3d6000fd5b505050506040513d601f19601f820116820180604052508101906124a29190615ad0565b509092509050600060018560028111156124be576124be615912565b146124c957826124cb565b815b90506119aa86826001600160a01b03166318160ddd6040518163ffffffff1660e01b8152600401602060405180830381865afa15801561250f573d6000803e3d6000fd5b505050506040513d601f19601f8201168201806040525081019061253391906156b7565b6136eb565b600061101f826001613533565b600061254f6130e3565b61255f8460008585336001613de9565b915061106d905060018055565b60335460405163e48a5f7b60e01b81523060048201526000916001600160a01b03169063e48a5f7b9060240161020060405180830381865afa1580156125b6573d6000803e3d6000fd5b505050506040513d601f19601f820116820180604052508101906125da919061594c565b6101600151905090565b60006125ee6130e3565b8360000361260f57604051630cb65c7760e21b815260040160405180910390fd5b60006126196138e5565b915060009050600184600281111561263357612633615912565b14612642578160a00151612648565b8160c001515b905061266282608001518760008888868860e0015161397c565b935061106d92506131aa915050565b600061267b6130e3565b61268a85600086863387613de9565b9150610f6d905060018055565b60335473__$ff3732d68c5c83c0ffcb2490e4fa1c4ff2$__9063e8cb7197906001600160a01b031687878787876126cc61421e565b60405160e089901b6001600160e01b03191681526001600160a01b039788166004820152602481019690965260448601949094529185166064850152909316608483015291151560a482015260c4810191909152603560e48201526101040160006040518083038186803b15801561274357600080fd5b505af4158015612757573d6000803e3d6000fd5b505050505050505050565b600061276c6130e3565b6000611d8481868686336001613de9565b600080600061278c60026131b0565b91509150610f6d8483836000600261342e565b604051634a5ad91b60e11b81523060048201526001600160a01b0382166024820152600090819073__$ff3732d68c5c83c0ffcb2490e4fa1c4ff2$__906394b5b236906044016040805180830381865af4158015612801573d6000803e3d6000fd5b505050506040513d601f19601f8201168201806040525081019061282591906159f7565b91509150915091565b600080600061283d60026131b0565b91509150610f6d8483836000600261384d565b600061285a6130e3565b8360000361287b57604051639811e0c760e01b815260040160405180910390fd5b60006128856138e5565b915060009050600184600281111561289f5761289f615912565b146128ae578160a001516128b4565b8160c001515b90506128ce82608001516000888888868860e0015161397c565b5060018055925061106d915050565b6033546040516329ae09bf60e21b81526001600160a01b0391821660048201527f0000000000000000000000000000000000000000000000000000000000000000909116602482015260009081908190819073__$35324b2b5c5ee97b5b21e500a23bd2480c$__9063a6b826fc9060440160a060405180830381865af415801561296b573d6000803e3d6000fd5b505050506040513d601f19601f8201168201806040525081019061298f9190615b12565b50929791965094509092509050565b600061101f826129ac6132a9565b6001600160a01b03166318160ddd6040518163ffffffff1660e01b8152600401602060405180830381865afa15801561250f573d6000803e3d6000fd5b60008060006129f860016131b0565b91509150610f6d8483836000600161384d565b6000806000612a1984613585565b9150915073__$5f084e02cba86e37595b38f777b0951815$__63f1b9d12c838387600060018760e001516001600160a01b03166370a082318c6040518263ffffffff1660e01b8152600401612a7d91906001600160a01b0391909116815260200190565b602060405180830381865afa158015612a9a573d6000803e3d6000fd5b505050506040513d601f19601f82011682018060405250810190612abe91906156b7565b6040518763ffffffff1660e01b8152600401612adf96959493929190615b76565b602060405180830381865af4158015612afc573d6000803e3d6000fd5b505050506040513d601f19601f82011682018060405250810190610f6d91906156b7565b603354600090612b3b906001600160a01b0316836001613316565b5092915050565b6000612b4c6130e3565b6000612b5a85828686613a8d565b925061106d91506131aa9050565b60335460009061106d906001600160a01b0316836001613316565b60335460405163012d690960e11b815260009173__$35324b2b5c5ee97b5b21e500a23bd2480c$__9163025ad21291612bce916001600160a01b039091169087908790600401615928565b602060405180830381865af4158015611284573d6000803e3d6000fd5b6000612bf56130e3565b612c0460008686863387613de9565b509050610f6d60018055565b6000612c1a6132a9565b604051636eb1769f60e11b81526001600160a01b0385811660048301528481166024830152919091169063dd62ed3e90604401602060405180830381865afa158015611284573d6000803e3d6000fd5b6000612c746130e3565b6000611dc6818585613d77565b6001600090815260356020819052600080516020615e11833981519152549190816002611fe0565b6000806000612cb860026131b0565b91509150610f6d8483836001600261342e565b60335460405163e48a5f7b60e01b815230600482015260009182916001600160a01b039091169063e48a5f7b9060240161020060405180830381865afa158015612d19573d6000803e3d6000fd5b505050506040513d601f19601f82011682018060405250810190612d3d919061594c565b60e0015160405163a6e08aa160e01b81526001600160a01b0380831660048301528516602482015290915073__$5fba74f7ae1cbd55759e956bb7df201c56$__9063a6e08aa1906044016114ea565b60006035816002611039565b600061101f8260016138a5565b6000612daf6130e3565b6002826002811115612dc357612dc3615912565b03612de157604051632ad7929d60e11b815260040160405180910390fd5b6000612deb6138e5565b91506000905080806001866002811115612e0757612e07615912565b14612e415760a08401516000805260356020527f842397100357c7bc9e13c9e286c8970fd4253dcc8e63c78c74e0f9bb8b96fef454612e4e565b8360c00151612e4e61421e565b9150915073__$5fba74f7ae1cbd55759e956bb7df201c56$__634fed05f1838a8a338b87603560008f6002811115612e8857612e88615912565b6002811115612e9957612e99615912565b81526020019081526020016000206040518863ffffffff1660e01b8152600401612ec99796959493929190615bd2565b6040805180830381865af4158015612ee5573d6000803e3d6000fd5b505050506040513d601f19601f82011682018060405250810190612f0991906159f7565b98509450600091508190506001866002811115612f2857612f28615912565b14612f395760018460c00151612f41565b60008460a001515b91509150612f8f6000888760008b868a60e00151603560008b6002811115612f6b57612f6b615912565b6002811115612f7c57612f7c615912565b8152602001908152602001600020614255565b909550925060019150612f9f9050565b846002811115612fb157612fb1615912565b036130495760408051848152602081018890526001600160a01b03871691829133917ffbde797d201c681b91056529119e0b02407c7bb96a4a2c75c01fc9667232c8db910160405180910390a460408051848152602081018390526001600160a01b0387169133917f1ad348f5de3e19e23d88e34248ceb6ab09804a35a3abc0e7758045b7b9036acd910160405180910390a36130d8565b60408051848152602081018890526001600160a01b03871691829133917f2dac01ea07cfa812db5881eaad96ba201c018c042b8f9ea7278cdf6f29e65f24910160405180910390a460408051848152602081018390526001600160a01b0387169133917fdcbc1c05240f31ff3ad067ef1ee35ce4997762752e3a095284754544f4c709d7910160405180910390a35b505061106d60018055565b6002600154036131355760405162461bcd60e51b815260206004820152601f60248201527f5265656e7472616e637947756172643a207265656e7472616e742063616c6c0060448201526064016117a4565b6002600155565b603560205260026000908152610f6d8484846034600080516020615e11833981519152600080516020615df1833981519152614279565b6002600090815260356020528061319c8787878787600080516020615df18339815191526143bf565b915091509550959350505050565b60018055565b60335460405163e48a5f7b60e01b8152306004820152600091829182916001600160a01b03169063e48a5f7b9060240161020060405180830381865afa1580156131fe573d6000803e3d6000fd5b505050506040513d601f19601f82011682018060405250810190613222919061594c565b6040516345a78a1360e11b815290915073__$35324b2b5c5ee97b5b21e500a23bd2480c$__90638b4f14269061325e90849088906004016159da565b6040805180830381865af415801561327a573d6000803e3d6000fd5b505050506040513d601f19601f8201168201806040525081019061329e91906159f7565b909590945092505050565b603354604051630483b24f60e41b81523060048201526000916001600160a01b03169063483b24f090602401606060405180830381865afa1580156132f2573d6000803e3d6000fd5b505050506040513d601f19601f82011682018060405250810190612b3b9190615ad0565b60008073__$5fba74f7ae1cbd55759e956bb7df201c56$__63e02f78c18686866035600089600281111561334c5761334c615912565b600281111561335d5761335d615912565b815260208101919091526040016000908120549089600281111561338357613383615912565b14613396576133918b613486565b6133c2565b6000805260356020527f842397100357c7bc9e13c9e286c8970fd4253dcc8e63c78c74e0f9bb8b96fef4545b6040518663ffffffff1660e01b81526004016133e2959493929190615c1b565b6040805180830381865af41580156133fe573d6000803e3d6000fd5b505050506040513d601f19601f8201168201806040525081019061342291906159f7565b91509150935093915050565b60008080600284600281111561344657613446615912565b1461345857600186018760010161345b565b85875b909250905081158061346b575080155b1561347a5787925050506113a8565b6116668882848861452d565b60405163bac8815d60e01b81526001600160a01b038216600482015260009073__$2cb88bc423f502b07e13ce75aaf4711c2a$__9063bac8815d90602401602060405180830381865af4158015611c3b573d6000803e3d6000fd5b600060028260028111156134f7576134f7615912565b0361351557604051632ad7929d60e11b815260040160405180910390fd5b600080613521846131b0565b915091506113a885838360018861384d565b6000600282600281111561354957613549615912565b0361356757604051632ad7929d60e11b815260040160405180910390fd5b600080613573846131b0565b915091506113a885838360018861342e565b61358d615029565b613595615029565b6033546040516363da68b560e11b81523060048201526001600160a01b039091169063c7b4d16a9060240161040060405180830381865afa1580156135de573d6000803e3d6000fd5b505050506040513d601f19601f820116820180604052508101906136029190615689565b60e0828101519082015160405163017a0d7960e21b81526001600160a01b03928316600482015290821660248201529086166044820152919350915073__$5f084e02cba86e37595b38f777b0951815$__906305e835e490606401602060405180830381865af415801561367a573d6000803e3d6000fd5b505050506040513d601f19601f8201168201806040525081019061369e91906159a9565b6136a457905b915091565b604051632269b1c960e11b815260009073__$5f084e02cba86e37595b38f777b0951815$__906344d36392906119699089908990899089908990600401615c53565b603354604051637cf20b3160e11b815260009173__$5fba74f7ae1cbd55759e956bb7df201c56$__9163f9e4166291612bce916001600160a01b039091169087908790600401615928565b60008073__$2cb88bc423f502b07e13ce75aaf4711c2a$__63f8f3684f8989898989896040518763ffffffff1660e01b815260040161377a96959493929190615c9e565b6040805180830381865af4158015613796573d6000803e3d6000fd5b505050506040513d601f19601f820116820180604052508101906137ba91906159f7565b915091505b965096945050505050565b600054610100900460ff166137f15760405162461bcd60e51b81526004016117a490615cf1565b6137f961457e565b565b6000600282600281111561381157613811615912565b0361382f57604051632ad7929d60e11b815260040160405180910390fd5b60008061383b846131b0565b915091506113a885838360008861342e565b60008080600284600281111561386557613865615912565b1461387757600186018760010161387a565b85875b909250905081158061388a575080155b156138995787925050506113a8565b6116668883838861452d565b600060028260028111156138bb576138bb615912565b036138d957604051632ad7929d60e11b815260040160405180910390fd5b6000806119de846131b0565b60006138ef615029565b60335460405163e48a5f7b60e01b81523060048201526001600160a01b039091169063e48a5f7b9060240161020060405180830381865afa158015613938573d6000803e3d6000fd5b505050506040513d601f19601f8201168201806040525081019061395c919061594c565b90506139768161014001518260000151836020015161313c565b91509091565b600080600285600281111561399357613993615912565b036139b157604051632ad7929d60e11b815260040160405180910390fd5b6139d189338a8a8a8989603560008e6002811115612f6b57612f6b615912565b909250905060018560028111156139ea576139ea615912565b03613a3a5760408051838152602081018390526001600160a01b0388169133917fdcbc1c05240f31ff3ad067ef1ee35ce4997762752e3a095284754544f4c709d7910160405180910390a3613a81565b60408051838152602081018390526001600160a01b0388169133917f1ad348f5de3e19e23d88e34248ceb6ab09804a35a3abc0e7758045b7b9036acd910160405180910390a35b97509795505050505050565b6033546040516363da68b560e11b81523060048201526000918291829182916001600160a01b039091169063c7b4d16a9060240161040060405180830381865afa158015613adf573d6000803e3d6000fd5b505050506040513d601f19601f82011682018060405250810190613b039190615689565b91509150613b1f8261014001518360000151846020015161313c565b50613b2e828989898933613c98565b60408051838152602081018390529296509094506001600160a01b03808816929089169133917f96558a334f4759f0e7c423d68c84721860bd8fbf94ddc4e55158ecb125ad04b5910160405180910390a4806101e0015115613bf1576101208101516080820151604051637cfd30cd60e11b81526001600160a01b03918216600482015291169063f9fa619a90602401600060405180830381600087803b158015613bd857600080fd5b505af1158015613bec573d6000803e3d6000fd5b505050505b816101e0015115613c63576101208201516080830151604051637cfd30cd60e11b81526001600160a01b03918216600482015291169063f9fa619a90602401600060405180830381600087803b158015613c4a57600080fd5b505af1158015613c5e573d6000803e3d6000fd5b505050505b613c708183876000613cf6565b613c8d5760405163950c033560e01b815260040160405180910390fd5b505094509492505050565b6000806137ba888888888888603588600281526020019081526020016000206035600060016002811115613cce57613cce615912565b6002811115613cdf57613cdf615912565b8152602001908152602001600020600001546145a5565b604051635f9b921b60e01b815260009073__$5f084e02cba86e37595b38f777b0951815$__90635f9b921b90613d36908890889088908890600401615d3c565b602060405180830381865af4158015613d53573d6000803e3d6000fd5b505050506040513d601f19601f820116820180604052508101906113a891906159a9565b6000806000613d846138e5565b915050613d948187878733613173565b60408051838152602081018390529295509093506001600160a01b0386169133917fe4a1ae657f49cb1fb1c7d3a94ae6093565c4c8c0e03de488f79c377c3c3a24e0910160405180910390a350935093915050565b6000806002836002811115613e0057613e00615912565b03613e1e57604051632ad7929d60e11b815260040160405180910390fd5b6033546040516363da68b560e11b815230600482015260009182916001600160a01b039091169063c7b4d16a9060240161040060405180830381865afa158015613e6c573d6000803e3d6000fd5b505050506040513d601f19601f82011682018060405250810190613e909190615689565b91509150613e9c6138e5565b505080604001516001600160a01b031663a6afed956040518163ffffffff1660e01b81526004016020604051808303816000875af1158015613ee2573d6000803e3d6000fd5b505050506040513d601f19601f82011682018060405250810190613f0691906156b7565b506001856002811115613f1b57613f1b615912565b03613f7057613f6682608001518360c001518c8c8c8c8c8c613f3b61421e565b6035600060015b6002811115613f5357613f53615912565b815260200190815260200160002061476e565b9094509250613fc9565b608082015160a08301516000808052603560208190527f842397100357c7bc9e13c9e286c8970fd4253dcc8e63c78c74e0f9bb8b96fef454613fc39493928f928f928f928f928f928f9290919080613f42565b90945092505b6001856002811115613fdd57613fdd615912565b036140325760408051858152602081018590526001600160a01b03808a1692908b169133917ffbde797d201c681b91056529119e0b02407c7bb96a4a2c75c01fc9667232c8db910160405180910390a461407e565b60408051858152602081018590526001600160a01b03808a1692908b169133917f2dac01ea07cfa812db5881eaad96ba201c018c042b8f9ea7278cdf6f29e65f24910160405180910390a45b60e08101516040516370a0823160e01b81526001600160a01b03898116600483015260009216906370a0823190602401602060405180830381865afa1580156140cb573d6000803e3d6000fd5b505050506040513d601f19601f820116820180604052508101906140ef91906156b7565b905080600003614101575050506137bf565b826101e0015115614173576101008301516080840151604051637cfd30cd60e11b81526001600160a01b03918216600482015291169063f9fa619a90602401600060405180830381600087803b15801561415a57600080fd5b505af115801561416e573d6000803e3d6000fd5b505050505b816101e00151156141e5576101008201516080830151604051637cfd30cd60e11b81526001600160a01b03918216600482015291169063f9fa619a90602401600060405180830381600087803b1580156141cc57600080fd5b505af11580156141e0573d6000803e3d6000fd5b505050505b6141f383838a6000856136a9565b6142105760405163e081c8f360e01b815260040160405180910390fd5b505050965096945050505050565b6035602052600080516020615e118339815191525460026000908152600080516020615df1833981519152549091610f1d91614796565b6000806142688a8a8a8a8a8a8a8a6147b0565b915091509850989650505050505050565b8254600090600160c01b90046001600160401b03168082036142bc57505082546001600160c01b0316600160c01b426001600160401b03160217835560006119aa565b42816001600160401b0316036142d65760009150506119aa565b8354835460405163426f4b4d60e11b815260048101839052602481018290526001600160401b0384166044820152600092919061436f90839083906001600160a01b038f16906384de969a906064016020604051808303816000875af1158015614344573d6000803e3d6000fd5b505050506040513d601f19601f8201168201806040525081019061436891906156b7565b8d8d61491d565b91895591895589546001600160c01b0319600160c01b426001600160401b0316029081166001600160c01b0392831691831691909117909301169190911789559450505050509695505050505050565b600080861580156143ce575085155b156143ec57604051630cb65c7760e21b815260040160405180910390fd5b60008860e001519050600084600001549050614471898983856001600160a01b03166318160ddd6040518163ffffffff1660e01b8152600401602060405180830381865afa158015614442573d6000803e3d6000fd5b505050506040513d601f19601f8201168201806040525081019061446691906156b7565b60016000600261495f565b9094509250600083900361449857604051639811e0c760e01b815260040160405180910390fd5b6144a28482615d98565b8555604051633dae446f60e21b81526001600160a01b0383169063f6b911bc906144d4908a908a908890600401615928565b600060405180830381600087803b1580156144ee57600080fd5b505af1158015614502573d6000803e3d6000fd5b50505060808b015161452091506001600160a01b031687308761499a565b5050965096945050505050565b60008061453b8686866149f2565b9050600183600281111561455157614551615912565b14801561456e57506000848061456957614569615dab565b868809115b156113a8576119aa600182615dc1565b600054610100900460ff166131aa5760405162461bcd60e51b81526004016117a490615cf1565b600080881580156145b4575087155b156145d257604051630cb65c7760e21b815260040160405180910390fd5b6145e58a60a001518b60c0015188614adc565b614602576040516301c08c7960e11b815260040160405180910390fd5b60008a60e0015190506000856000015490506146878b8b83856001600160a01b03166318160ddd6040518163ffffffff1660e01b8152600401602060405180830381865afa158015614658573d6000803e3d6000fd5b505050506040513d601f19601f8201168201806040525081019061467c91906156b7565b60006001600261495f565b909450925060008390036146ae57604051639811e0c760e01b815260040160405180910390fd5b6146b88582614796565b8411156146d857604051634323a55560e01b815260040160405180910390fd5b6146e28482615dc1565b8655604051636361ddf360e11b81526001600160a01b0383169063c6c3bbe690614714908b908b908890600401615928565b600060405180830381600087803b15801561472e57600080fd5b505af1158015614742573d6000803e3d6000fd5b50505060808d015161475f91506001600160a01b03168a86614bc5565b50509850989650505050505050565b6000806147838c8c8c8c8c8c8c8c8c8c614bf5565b915091509a509a98505050505050505050565b60008282116147a75781830361106d565b60009392505050565b6000806147bd8487614d7b565b6147da5760405163206e46bd60e21b815260040160405180910390fd5b600083600001549050614856898983896001600160a01b03166318160ddd6040518163ffffffff1660e01b8152600401602060405180830381865afa158015614827573d6000803e3d6000fd5b505050506040513d601f19601f8201168201806040525081019061484b91906156b7565b60016000600161495f565b9093509150600082900361487d57604051639811e0c760e01b815260040160405180910390fd5b6148878382615dc1565b8455604051636361ddf360e11b81526001600160a01b0387169063c6c3bbe6906148b9908a908e908790600401615928565b600060405180830381600087803b1580156148d357600080fd5b505af11580156148e7573d6000803e3d6000fd5b505050506001600160a01b038b161561490f5761490f6001600160a01b038c168b308661499a565b509850989650505050505050565b60008060008061492d8888614df1565b909350670de0b6b3a764000086880182020492509050818103614950818b615dc1565b94505095509550955095915050565b60008088600003614980575086614979818888888761342e565b9150613a81565b61498d898888878761384d565b9899975050505050505050565b611705846323b872dd60e01b8585856040516024016149bb93929190615928565b60408051601f198184030181529190526020810180516001600160e01b03166001600160e01b031990931692909217909152614e31565b6000808060001985870985870292508281108382030391505080600003614a2c57838281614a2257614a22615dab565b049250505061106d565b808411614a735760405162461bcd60e51b81526020600482015260156024820152744d6174683a206d756c446976206f766572666c6f7760581b60448201526064016117a4565b60008486880960026001871981018816978890046003810283188082028403028082028403028082028403028082028403028082028403029081029092039091026000889003889004909101858311909403939093029303949094049190911702949350505050565b6040516370a0823160e01b81526001600160a01b038281166004830152600091908516906370a0823190602401602060405180830381865afa158015614b26573d6000803e3d6000fd5b505050506040513d601f19601f82011682018060405250810190614b4a91906156b7565b158015610f6d57506040516370a0823160e01b81526001600160a01b0383811660048301528416906370a0823190602401602060405180830381865afa158015614b98573d6000803e3d6000fd5b505050506040513d601f19601f82011682018060405250810190614bbc91906156b7565b15949350505050565b6040516001600160a01b03831660248201526044810182905261190390849063a9059cbb60e01b906064016149bb565b60008060008b6001600160a01b03166318160ddd6040518163ffffffff1660e01b8152600401602060405180830381865afa158015614c38573d6000803e3d6000fd5b505050506040513d601f19601f82011682018060405250810190614c5c91906156b7565b905080600003614c7f57604051630686827b60e51b815260040160405180910390fd5b8354614c928c8c8385600060018d61495f565b9094509250831580614ca2575082155b15614cc057604051630686827b60e51b815260040160405180910390fd5b85841115614ce157604051634323a55560e01b815260040160405180910390fd5b8390038455604051633dae446f60e21b81526001600160a01b038d169063f6b911bc90614d16908b908b908790600401615928565b600060405180830381600087803b158015614d3057600080fd5b505af1158015614d44573d6000803e3d6000fd5b505050506001600160a01b038d1615614d6b57614d6b6001600160a01b038e168a85614bc5565b509a509a98505050505050505050565b6040516370a0823160e01b81526001600160a01b038281166004830152600091908416906370a0823190602401602060405180830381865afa158015614dc5573d6000803e3d6000fd5b505050506040513d601f19601f82011682018060405250810190614de991906156b7565b159392505050565b600080831580614dff575082155b15614e0f57508290506000614e2a565b50670de0b6b3a764000082840204614e278185615dc1565b91505b9250929050565b6000614e86826040518060400160405280602081526020017f5361666545524332303a206c6f772d6c6576656c2063616c6c206661696c6564815250856001600160a01b0316614f069092919063ffffffff16565b9050805160001480614ea7575080806020019051810190614ea791906159a9565b6119035760405162461bcd60e51b815260206004820152602a60248201527f5361666545524332303a204552433230206f7065726174696f6e20646964206e6044820152691bdd081cdd58d8d9595960b21b60648201526084016117a4565b6060610f6d848460008585600080866001600160a01b03168587604051614f2d9190615dd4565b60006040518083038185875af1925050503d8060008114614f6a576040519150601f19603f3d011682016040523d82523d6000602084013e614f6f565b606091505b5091509150614f8087838387614f8b565b979650505050505050565b60608315614ffa578251600003614ff3576001600160a01b0385163b614ff35760405162461bcd60e51b815260206004820152601d60248201527f416464726573733a2063616c6c20746f206e6f6e2d636f6e747261637400000060448201526064016117a4565b5081610f6d565b610f6d838381511561500f5781518083602001fd5b8060405162461bcd60e51b81526004016117a4919061515f565b6040805161020081018252600080825260208201819052918101829052606081018290526080810182905260a0810182905260c0810182905260e08101829052610100810182905261012081018290526101408101829052610160810182905261018081018290526101a081018290526101c081018290526101e081019190915290565b6001600160a01b03811681146150c257600080fd5b50565b80151581146150c257600080fd5b600080600080600060a086880312156150eb57600080fd5b85356150f6816150ad565b94506020860135615106816150ad565b93506040860135615116816150ad565b925060608601359150608086013561512d816150c5565b809150509295509295909350565b60005b8381101561515657818101518382015260200161513e565b50506000910152565b602081526000825180602084015261517e81604085016020870161513b565b601f01601f19169190910160400192915050565b8035600381106151a157600080fd5b919050565b600080604083850312156151b957600080fd5b82356151c4816150ad565b91506151d260208401615192565b90509250929050565b6000602082840312156151ed57600080fd5b5035919050565b6000806040838503121561520757600080fd5b8235615212816150ad565b946020939093013593505050565b6000806040838503121561523357600080fd5b823591506151d260208401615192565b60008060006060848603121561525857600080fd5b8335615263816150ad565b92506020840135615273816150ad565b929592945050506040919091013590565b60006020828403121561529657600080fd5b813561106d816150ad565b600080604083850312156152b457600080fd5b82356152bf816150ad565b915060208301356152cf816150ad565b809150509250929050565b60008083601f8401126152ec57600080fd5b5081356001600160401b0381111561530357600080fd5b602083019150836020828501011115614e2a57600080fd5b60008060008060006080868803121561533357600080fd5b853561533e816150ad565b9450602086013561534e816150ad565b93506040860135925060608601356001600160401b0381111561537057600080fd5b61537c888289016152da565b969995985093965092949392505050565b600080604083850312156153a057600080fd5b8235915060208301356152cf816150ad565b6000806000606084860312156153c757600080fd5b8335925060208401356153d9816150ad565b915060408401356153e9816150ad565b809150509250925092565b60008060008060006080868803121561540c57600080fd5b85359450602086013561541e816150ad565b9350604086013561542e816150ad565b925060608601356001600160401b0381111561537057600080fd5b60008060006060848603121561545e57600080fd5b833592506020840135615470816150ad565b915061547e60408501615192565b90509250925092565b6000806000806080858703121561549d57600080fd5b8435935060208501356154af816150ad565b925060408501356154bf816150ad565b91506154cd60608601615192565b905092959194509250565b600080600080600060a086880312156154f057600080fd5b85359450602086013593506040860135615509816150ad565b92506060860135615519816150ad565b9150608086013561512d816150c5565b634e487b7160e01b600052604160045260246000fd5b60405161020081016001600160401b038111828210171561556257615562615529565b60405290565b80516151a1816150ad565b80516151a1816150c5565b6000610200828403121561559157600080fd5b61559961553f565b905081518152602082015160208201526155b560408301615568565b60408201526155c660608301615568565b60608201526155d760808301615568565b60808201526155e860a08301615568565b60a08201526155f960c08301615568565b60c082015261560a60e08301615568565b60e082015261010061561d818401615568565b9082015261012061562f838201615568565b90820152610140615641838201615568565b90820152610160828101519082015261018080830151908201526101a080830151908201526101c080830151908201526101e061567f818401615573565b9082015292915050565b600080610400838503121561569d57600080fd5b6156a7848461557e565b91506151d284610200850161557e565b6000602082840312156156c957600080fd5b5051919050565b805182526020810151602083015260408101516156f860408401826001600160a01b03169052565b50606081015161571360608401826001600160a01b03169052565b50608081015161572e60808401826001600160a01b03169052565b5060a081015161574960a08401826001600160a01b03169052565b5060c081015161576460c08401826001600160a01b03169052565b5060e081015161577f60e08401826001600160a01b03169052565b50610100818101516001600160a01b0390811691840191909152610120808301518216908401526101408083015190911690830152610160808201519083015261018080820151908301526101a080820151908301526101c080820151908301526101e08082015180151582850152611705565b610480810161580282896156d0565b6158106102008301886156d0565b6001600160a01b039590951661040082015261042081019390935261044083019190915215156104609091015292915050565b60008060006060848603121561585857600080fd5b8351925060208401519150604084015190509250925092565b60006020828403121561588357600080fd5b81516001600160401b038082111561589a57600080fd5b818401915084601f8301126158ae57600080fd5b8151818111156158c0576158c0615529565b604051601f8201601f19908116603f011681019083821181831017156158e8576158e8615529565b8160405282815287602084870101111561590157600080fd5b614f8083602083016020880161513b565b634e487b7160e01b600052602160045260246000fd5b6001600160a01b039384168152919092166020820152604081019190915260600190565b6000610200828403121561595f57600080fd5b61106d838361557e565b60006020828403121561597b57600080fd5b815160ff8116811461106d57600080fd5b60006020828403121561599e57600080fd5b815161106d816150ad565b6000602082840312156159bb57600080fd5b815161106d816150c5565b600381106159d6576159d6615912565b9052565b61022081016159e982856156d0565b61106d6102008301846159c6565b60008060408385031215615a0a57600080fd5b505080516020909101519092909150565b81835281816020850137506000828201602090810191909152601f909101601f19169091010190565b6001600160a01b038881168252602082018890528681166040830152851660608201526080810184905260c060a08201819052600090615a879083018486615a1b565b9998505050505050505050565b6001600160a01b0387811682528681166020830152851660408201526060810184905260a0608082018190526000906116669083018486615a1b565b600080600060608486031215615ae557600080fd5b8351615af0816150ad565b6020850151909350615b01816150ad565b60408501519092506153e9816150ad565b600080600080600060a08688031215615b2a57600080fd5b8551615b35816150ad565b6020870151909550615b46816150ad565b809450506040860151925060608601519150608086015161512d816150ad565b600281106150c2576150c2615912565b6104808101615b8582896156d0565b615b936102008301886156d0565b6001600160a01b038616610400830152615bac85615b66565b84610420830152615bbc84615b66565b6104408201939093526104600152949350505050565b6001600160a01b0388811682526020820188905286811660408301528516606082015260e08101615c0660808301866159c6565b60a082019390935260c0015295945050505050565b6001600160a01b0386811682528516602082015260a08101615c4060408301866159c6565b6060820193909352608001529392505050565b6104608101615c6282886156d0565b615c706102008301876156d0565b6001600160a01b038516610400830152615c8984615b66565b61042082019390935261044001529392505050565b6104808101615cad82896156d0565b615cbb6102008301886156d0565b6001600160a01b039586166104008301526104208201949094526104408101929092529092166104609092019190915292915050565b6020808252602b908201527f496e697469616c697a61626c653a20636f6e7472616374206973206e6f74206960408201526a6e697469616c697a696e6760a81b606082015260800190565b6104408101615d4b82876156d0565b615d596102008301866156d0565b6001600160a01b038416610400830152615d7283615b66565b8261042083015295945050505050565b634e487b7160e01b600052601160045260246000fd5b8181038181111561101f5761101f615d82565b634e487b7160e01b600052601260045260246000fd5b8082018082111561101f5761101f615d82565b60008251615de681846020870161513b565b919091019291505056fef45abd214a7998af36d567f4bc75c5d50e868cf767d965b54d3b0f5c6200ab648e3caac72b6c5bb0462da38c8c8c3b5fbc00a646bd75367c23c11d594c4e36c9a26469706673582212209875479ca543f3613358875d0a8513d7a449e92ca266e15c59356a22c19e6ad664736f6c63430008150033",
  "language": "Solidity",
  "compiler": "0.8.21+commit.d9974bed"
}