{
  "address": "0x89E3Cf1c67C0c0701EF7926A79f65EeEb52904eF",
  "abi": [
    {
      "inputs": [
        {
          "internalType": "contract ISilo",
          "name": "_silo",
          "type": "address"
        },
        {
          "internalType": "address",
          "name": "_borrower",
          "type": "address"
        }
      ],
      "name": "collateralBalanceOfUnderlying",
      "outputs": [
        {
          "internalType": "uint256",
          "name": "borrowerCollateral",
          "type": "uint256"
        }
      ],
      "stateMutability": "view",
      "type": "function"
    },
    {
      "inputs": [
        {
          "internalType": "contract ISilo",
          "name": "_silo",
          "type": "address"
        },
        {
          "internalType": "address",
          "name": "",
          "type": "address"
        },
        {
          "internalType": "address",
          "name": "_borrower",
          "type": "address"
        }
      ],
      "name": "collateralBalanceOfUnderlying",
      "outputs": [
        {
          "internalType": "uint256",
          "name": "borrowerCollateral",
          "type": "uint256"
        }
      ],
      "stateMutability": "view",
      "type": "function"
    },
    {
      "inputs": [
        {
          "internalType": "contract ISilo",
          "name": "_silo",
          "type": "address"
        },
        {
          "internalType": "address",
          "name": "",
          "type": "address"
        },
        {
          "internalType": "address",
          "name": "_borrower",
          "type": "address"
        }
      ],
      "name": "debtBalanceOfUnderlying",
      "outputs": [
        {
          "internalType": "uint256",
          "name": "",
          "type": "uint256"
        }
      ],
      "stateMutability": "view",
      "type": "function"
    },
    {
      "inputs": [
        {
          "internalType": "contract ISilo",
          "name": "_silo",
          "type": "address"
        },
        {
          "internalType": "address",
          "name": "_borrower",
          "type": "address"
        }
      ],
      "name": "debtBalanceOfUnderlying",
      "outputs": [
        {
          "internalType": "uint256",
          "name": "borrowerDebt",
          "type": "uint256"
        }
      ],
      "stateMutability": "view",
      "type": "function"
    },
    {
      "inputs": [
        {
          "internalType": "contract ISilo",
          "name": "_silo",
          "type": "address"
        }
      ],
      "name": "getFeesAndFeeReceivers",
      "outputs": [
        {
          "internalType": "address",
          "name": "daoFeeReceiver",
          "type": "address"
        },
        {
          "internalType": "address",
          "name": "deployerFeeReceiver",
          "type": "address"
        },
        {
          "internalType": "uint256",
          "name": "daoFee",
          "type": "uint256"
        },
        {
          "internalType": "uint256",
          "name": "deployerFee",
          "type": "uint256"
        }
      ],
      "stateMutability": "view",
      "type": "function"
    },
    {
      "inputs": [
        {
          "internalType": "contract ISilo",
          "name": "_silo",
          "type": "address"
        }
      ],
      "name": "getLt",
      "outputs": [
        {
          "internalType": "uint256",
          "name": "lt",
          "type": "uint256"
        }
      ],
      "stateMutability": "view",
      "type": "function"
    },
    {
      "inputs": [
        {
          "internalType": "contract ISilo",
          "name": "_silo",
          "type": "address"
        },
        {
          "internalType": "address",
          "name": "_borrower",
          "type": "address"
        }
      ],
      "name": "getLtv",
      "outputs": [
        {
          "internalType": "uint256",
          "name": "ltv",
          "type": "uint256"
        }
      ],
      "stateMutability": "view",
      "type": "function"
    },
    {
      "inputs": [
        {
          "internalType": "contract ISilo",
          "name": "_silo",
          "type": "address"
        }
      ],
      "name": "getMaxLtv",
      "outputs": [
        {
          "internalType": "uint256",
          "name": "maxLtv",
          "type": "uint256"
        }
      ],
      "stateMutability": "view",
      "type": "function"
    },
    {
      "inputs": [
        {
          "internalType": "contract ISilo",
          "name": "_silo",
          "type": "address"
        }
      ],
      "name": "getRawLiquidity",
      "outputs": [
        {
          "internalType": "uint256",
          "name": "liquidity",
          "type": "uint256"
        }
      ],
      "stateMutability": "view",
      "type": "function"
    }
  ],
  "bytecode": "0x6080604052348015600e575f5ffd5b50611af88061001c5f395ff3fe608060405234801561000f575f5ffd5b5060043610610090575f3560e01c8063af82d2bc11610063578063af82d2bc1461011e578063b003ec1414610131578063d9bd0ea214610144578063f2a07bc914610157578063f5125d3f1461016a575f5ffd5b8063249a64961461009457806337febff4146100d7578063647e0c20146100f85780636c15c9ba1461010b575b5f5ffd5b6100a76100a23660046115b8565b61017d565b604080516001600160a01b0395861681529490931660208501529183015260608201526080015b60405180910390f35b6100ea6100e53660046115b8565b61019a565b6040519081526020016100ce565b6100ea6101063660046115b8565b6101b3565b6100ea6101193660046115d3565b6101c6565b6100ea61012c36600461160a565b6101d8565b6100ea61013f36600461160a565b61024b565b6100ea6101523660046115d3565b610256565b6100ea6101653660046115b8565b6102c1565b6100ea6101783660046115d3565b6102d4565b5f5f5f5f61018a856102e8565b5092989197509550909350915050565b5f6101ad826001600160a01b031661049c565b92915050565b5f6101ad826001600160a01b0316610573565b5f6101d1838361064a565b9392505050565b604051635f30114960e01b81526001600160a01b0382811660048301525f9190851690635f30114990602401602060405180830381865afa15801561021f573d5f5f3e3d5ffd5b505050506040513d601f19601f820116820180604052508101906102439190611652565b949350505050565b5f610243848361064a565b604051635f30114960e01b81526001600160a01b0382811660048301525f9190841690635f30114990602401602060405180830381865afa15801561029d573d5f5f3e3d5ffd5b505050506040513d601f19601f820116820180604052508101906101d19190611652565b5f6101ad826001600160a01b03166108f8565b5f6101d16001600160a01b038416836109d9565b5f5f5f5f5f856001600160a01b03166379502c556040518163ffffffff1660e01b8152600401602060405180830381865afa158015610329573d5f5f3e3d5ffd5b505050506040513d601f19601f8201168201806040525081019061034d9190611669565b604051630509af0560e51b81526001600160a01b038881166004830152919091169063a135e0a090602401608060405180830381865afa158015610393573d5f5f3e3d5ffd5b505050506040513d601f19601f820116820180604052508101906103b79190611694565b9050809350819450829550505050856001600160a01b031663c45a01556040518163ffffffff1660e01b8152600401602060405180830381865afa158015610401573d5f5f3e3d5ffd5b505050506040513d601f19601f820116820180604052508101906104259190611669565b604051630c0d053960e11b81526001600160a01b038881166004830152919091169063181a0a72906024016040805180830381865afa15801561046a573d5f5f3e3d5ffd5b505050506040513d601f19601f8201168201806040525081019061048e91906116d4565b909790965092945090925090565b5f816001600160a01b03166379502c556040518163ffffffff1660e01b8152600401602060405180830381865afa1580156104d9573d5f5f3e3d5ffd5b505050506040513d601f19601f820116820180604052508101906104fd9190611669565b60405163e48a5f7b60e01b81526001600160a01b038481166004830152919091169063e48a5f7b9060240161022060405180830381865afa158015610544573d5f5f3e3d5ffd5b505050506040513d601f19601f82011682018060405250810190610568919061185e565b610160015192915050565b5f816001600160a01b03166379502c556040518163ffffffff1660e01b8152600401602060405180830381865afa1580156105b0573d5f5f3e3d5ffd5b505050506040513d601f19601f820116820180604052508101906105d49190611669565b60405163e48a5f7b60e01b81526001600160a01b038481166004830152919091169063e48a5f7b9060240161022060405180830381865afa15801561061b573d5f5f3e3d5ffd5b505050506040513d601f19601f8201168201806040525081019061063f919061185e565b610140015192915050565b5f5f5f846001600160a01b03166379502c556040518163ffffffff1660e01b8152600401602060405180830381865afa158015610689573d5f5f3e3d5ffd5b505050506040513d601f19601f820116820180604052508101906106ad9190611669565b604051630483b24f60e41b81526001600160a01b038781166004830152919091169063483b24f090602401606060405180830381865afa1580156106f3573d5f5f3e3d5ffd5b505050506040513d601f19601f820116820180604052508101906107179190611879565b506040516370a0823160e01b81526001600160a01b0387811660048301529294509092505f918416906370a0823190602401602060405180830381865afa158015610764573d5f5f3e3d5ffd5b505050506040513d601f19601f820116820180604052508101906107889190611652565b6040516370a0823160e01b81526001600160a01b0387811660048301529192505f918416906370a0823190602401602060405180830381865afa1580156107d1573d5f5f3e3d5ffd5b505050506040513d601f19601f820116820180604052508101906107f59190611652565b9050811561086d5760405163a7d6e44b60e01b81526001600160a01b0388169063a7d6e44b9061082b9085905f906004016118cc565b602060405180830381865afa158015610846573d5f5f3e3d5ffd5b505050506040513d601f19601f8201168201806040525081019061086a9190611652565b94505b80156108ee5760405163a7d6e44b60e01b81526001600160a01b0388169063a7d6e44b906108a29084906001906004016118cc565b602060405180830381865afa1580156108bd573d5f5f3e3d5ffd5b505050506040513d601f19601f820116820180604052508101906108e19190611652565b6108eb9086611904565b94505b5050505092915050565b5f6101ad826001600160a01b031663b6d821c760016040518263ffffffff1660e01b81526004016109299190611917565b602060405180830381865afa158015610944573d5f5f3e3d5ffd5b505050506040513d601f19601f820116820180604052508101906109689190611652565b60405163b6d821c760e01b81526001600160a01b0385169063b6d821c79061099590600290600401611917565b602060405180830381865afa1580156109b0573d5f5f3e3d5ffd5b505050506040513d601f19601f820116820180604052508101906109d49190611652565b610b56565b5f5f5f846001600160a01b03166379502c556040518163ffffffff1660e01b8152600401602060405180830381865afa158015610a18573d5f5f3e3d5ffd5b505050506040513d601f19601f82011682018060405250810190610a3c9190611669565b6040516394c0527d60e01b81526001600160a01b03868116600483015291909116906394c0527d9060240161044060405180830381865afa158015610a83573d5f5f3e3d5ffd5b505050506040513d601f19601f82011682018060405250810190610aa79190611931565b604081015191935091506001600160a01b031615610b4e57610b4b8282865f60018660c001516001600160a01b03166370a082318b6040518263ffffffff1660e01b8152600401610b0791906001600160a01b0391909116815260200190565b602060405180830381865afa158015610b22573d5f5f3e3d5ffd5b505050506040513d601f19601f82011682018060405250810190610b469190611652565b610b6e565b92505b505092915050565b5f828211610b66578183036101d1565b5f9392505050565b5f815f03610b7d57505f610bbb565b5f610b8c888888888888610bc5565b905080608001515f03610ba2575f915050610bbb565b610bb58189606001518960600151610e42565b93505050505b9695505050505050565b610c046040518060a001604052805f6001600160a01b031681526020015f6001600160a01b031681526020015f81526020015f81526020015f81525090565b85606001516001600160a01b031687606001516001600160a01b031614610c6e576001846001811115610c3957610c396118b8565b14610c4d578660e001518660e00151610c5a565b8661010001518661010001515b6001600160a01b0390811660208401521681525b5f5f610c7f8960800151885f610e98565b80935081925050505f5f8a604001516001600160a01b031663ffbaaf7a6040518163ffffffff1660e01b81526004016040805180830381865afa158015610cc8573d5f5f3e3d5ffd5b505050506040513d601f19601f82011682018060405250810190610cec9190611966565b91509150610cfd8382865f5f610f80565b604086015260a08b0151610d12908a5f610e98565b945092506001876001811115610d2a57610d2a6118b8565b14610d355781610d51565b610d518b604001518c61012001518d5f01518e60200151610fbd565b9150610d618383865f6001610f80565b606086015260c08a0151610d76908a88610e98565b945092505f6001886001811115610d8f57610d8f6118b8565b14610e09578a604001516001600160a01b031663b6d821c760026040518263ffffffff1660e01b8152600401610dc59190611917565b602060405180830381865afa158015610de0573d5f5f3e3d5ffd5b505050506040513d601f19601f82011682018060405250810190610e049190611652565b610e1c565b610e1c8b604001518c61012001516110b3565b9050610e2d84828760016002610f80565b608087015250939a9950505050505050505050565b5f5f5f610e508686866111a5565b909350915082158015610e61575081155b15610e7357505f915081905080610e8f565b825f03610e8257505f19610e8f565b610e8c82846112fb565b90505b93509350939050565b5f5f825f03610f125760405163dce5c2db60e01b81526001600160a01b03858116600483015286169063dce5c2db906024016040805180830381865afa158015610ee4573d5f5f3e3d5ffd5b505050506040513d601f19601f82011682018060405250810190610f089190611966565b9092509050610f78565b829150846001600160a01b03166318160ddd6040518163ffffffff1660e01b8152600401602060405180830381865afa158015610f51573d5f5f3e3d5ffd5b505050506040513d601f19601f82011682018060405250810190610f759190611652565b90505b935093915050565b5f5f5f610f8e878786611311565b91509150815f03610fa3578792505050610fb4565b610faf8882848861136c565b925050505b95945050505050565b6040516367efe7fd60e11b81526001600160a01b0385811660048301524260248301525f91829186169063cfdfcffa90604401602060405180830381865afa15801561100b573d5f5f3e3d5ffd5b505050506040513d601f19601f8201168201806040525081019061102f9190611652565b90505f5f876001600160a01b03166339c5c5056040518163ffffffff1660e01b81526004016040805180830381865afa15801561106e573d5f5f3e3d5ffd5b505050506040513d601f19601f820116820180604052508101906110929190611966565b915091506110a382828589896113ae565b50919a9950505050505050505050565b6040516367efe7fd60e11b81526001600160a01b0383811660048301524260248301525f91829184169063cfdfcffa90604401602060405180830381865afa158015611101573d5f5f3e3d5ffd5b505050506040513d601f19601f820116820180604052508101906111259190611652565b905061119c846001600160a01b031663b6d821c760026040518263ffffffff1660e01b81526004016111579190611917565b602060405180830381865afa158015611172573d5f5f3e3d5ffd5b505050506040513d601f19601f820116820180604052508101906111969190611652565b82611414565b50949350505050565b5f5f5f856060015186604001516111bc9190611904565b9050801561124e5785516001600160a01b03166111d9578061124b565b85516040516313b0be3360e01b8152600481018390526001600160a01b038781166024830152909116906313b0be3390604401602060405180830381865afa158015611227573d5f5f3e3d5ffd5b505050506040513d601f19601f8201168201806040525081019061124b9190611652565b92505b6080860151156112f25760208601516001600160a01b03166112745785608001516112ef565b602086015160808701516040516313b0be3360e01b815260048101919091526001600160a01b038681166024830152909116906313b0be3390604401602060405180830381865afa1580156112cb573d5f5f3e3d5ffd5b505050506040513d601f19601f820116820180604052508101906112ef9190611652565b91505b50935093915050565b5f6101d183670de0b6b3a764000084600161136c565b5f5f835f0361131e575f94505b6002836002811115611332576113326118b8565b1461135d576113436003600a611a63565b61134d9085611904565b611358866001611904565b611360565b83855b90969095509350505050565b5f6113996113798361145f565b801561139457505f848061138f5761138f611a6e565b868809115b151590565b6113a486868661148b565b610fb49190611904565b5f5f5f5f6113bc8888611414565b90935090508585016113d78282670de0b6b3a7640000611548565b92505f6113e48484611a82565b90505f6113f28c5f19611a82565b905081811015611400578091505b818c01965050505095509550955095915050565b5f80831580611421575082155b1561143057508290505f611458565b6114438484670de0b6b3a7640000611548565b905080840191508382101561145857508290505f5b9250929050565b5f6002826003811115611474576114746118b8565b61147e9190611a95565b60ff166001149050919050565b5f838302815f1985870982811083820303915050805f036114bf578382816114b5576114b5611a6e565b04925050506101d1565b8084116114dd576114dd84156114d6576011611590565b6012611590565b5f848688095f868103871696879004966002600389028118808a02820302808a02820302808a02820302808a02820302808a02820302808a02909103029181900381900460010186841190950394909402919094039290920491909117919091029150509392505050565b5f835f0361155757505f6101d1565b508282028284828161156b5761156b611a6e565b041461157857505f6101d1565b81818161158757611587611a6e565b04949350505050565b634e487b715f52806020526024601cfd5b6001600160a01b03811681146115b5575f5ffd5b50565b5f602082840312156115c8575f5ffd5b81356101d1816115a1565b5f5f604083850312156115e4575f5ffd5b82356115ef816115a1565b915060208301356115ff816115a1565b809150509250929050565b5f5f5f6060848603121561161c575f5ffd5b8335611627816115a1565b92506020840135611637816115a1565b91506040840135611647816115a1565b809150509250925092565b5f60208284031215611662575f5ffd5b5051919050565b5f60208284031215611679575f5ffd5b81516101d1816115a1565b805161168f816115a1565b919050565b5f5f5f5f608085870312156116a7575f5ffd5b845160208601516040870151606088015192965090945092506116c9816115a1565b939692955090935050565b5f5f604083850312156116e5575f5ffd5b82516116f0816115a1565b60208401519092506115ff816115a1565b604051610220810167ffffffffffffffff8111828210171561173157634e487b7160e01b5f52604160045260245ffd5b60405290565b8051801515811461168f575f5ffd5b5f6102208284031215611757575f5ffd5b61175f611701565b8251815260208084015190820152905061177b60408301611684565b604082015261178c60608301611684565b606082015261179d60808301611684565b60808201526117ae60a08301611684565b60a08201526117bf60c08301611684565b60c08201526117d060e08301611684565b60e08201526117e26101008301611684565b6101008201526117f56101208301611684565b6101208201526101408281015190820152610160808301519082015261018080830151908201526101a080830151908201526101c0808301519082015261183f6101e08301611684565b6101e08201526118526102008301611737565b61020082015292915050565b5f610220828403121561186f575f5ffd5b6101d18383611746565b5f5f5f6060848603121561188b575f5ffd5b8351611896816115a1565b60208501519093506118a7816115a1565b6040850151909250611647816115a1565b634e487b7160e01b5f52602160045260245ffd5b82815260408101600283106118e3576118e36118b8565b8260208301529392505050565b634e487b7160e01b5f52601160045260245ffd5b808201808211156101ad576101ad6118f0565b602081016003831061192b5761192b6118b8565b91905290565b5f5f6104408385031215611943575f5ffd5b61194d8484611746565b915061195d846102208501611746565b90509250929050565b5f5f60408385031215611977575f5ffd5b505080516020909101519092909150565b6001815b6001841115610f78578085048111156119a7576119a76118f0565b60018416156119b557908102905b60019390931c92800261198c565b5f826119d1575060016101ad565b816119dd57505f6101ad565b81600181146119f357600281146119fd57611a19565b60019150506101ad565b60ff841115611a0e57611a0e6118f0565b50506001821b6101ad565b5060208310610133831016604e8410600b8410161715611a3c575081810a6101ad565b611a485f198484611988565b805f1904821115611a5b57611a5b6118f0565b029392505050565b5f6101d183836119c3565b634e487b7160e01b5f52601260045260245ffd5b818103818111156101ad576101ad6118f0565b5f60ff831680611ab357634e487b7160e01b5f52601260045260245ffd5b8060ff8416069150509291505056fea2646970667358221220f47f9c1e781eef526f8fb5e45dbefdf8b50de4150c8dcc436f43ce34353a65ef64736f6c634300081c0033",
  "language": "Solidity",
  "compiler": "0.8.28+commit.7893614a"
}