{
  "address": "0xF52240F3Dd820fdDF30050a202213075f16d4d62",
  "abi": [
    {
      "inputs": [
        {
          "internalType": "contract ISiloFactory",
          "name": "_siloFactory",
          "type": "address"
        }
      ],
      "stateMutability": "nonpayable",
      "type": "constructor"
    },
    {
      "stateMutability": "payable",
      "type": "receive"
    },
    {
      "inputs": [],
      "name": "accrueInterest",
      "outputs": [
        {
          "internalType": "uint256",
          "name": "accruedInterest",
          "type": "uint256"
        }
      ],
      "stateMutability": "nonpayable",
      "type": "function"
    },
    {
      "inputs": [
        {
          "internalType": "address",
          "name": "_interestRateModel",
          "type": "address"
        },
        {
          "internalType": "uint256",
          "name": "_daoFee",
          "type": "uint256"
        },
        {
          "internalType": "uint256",
          "name": "_deployerFee",
          "type": "uint256"
        }
      ],
      "name": "accrueInterestForConfig",
      "outputs": [],
      "stateMutability": "nonpayable",
      "type": "function"
    },
    {
      "inputs": [
        {
          "internalType": "address",
          "name": "_owner",
          "type": "address"
        },
        {
          "internalType": "address",
          "name": "_spender",
          "type": "address"
        }
      ],
      "name": "allowance",
      "outputs": [
        {
          "internalType": "uint256",
          "name": "",
          "type": "uint256"
        }
      ],
      "stateMutability": "view",
      "type": "function"
    },
    {
      "inputs": [
        {
          "internalType": "address",
          "name": "_spender",
          "type": "address"
        },
        {
          "internalType": "uint256",
          "name": "_amount",
          "type": "uint256"
        }
      ],
      "name": "approve",
      "outputs": [
        {
          "internalType": "bool",
          "name": "",
          "type": "bool"
        }
      ],
      "stateMutability": "nonpayable",
      "type": "function"
    },
    {
      "inputs": [],
      "name": "asset",
      "outputs": [
        {
          "internalType": "address",
          "name": "assetTokenAddress",
          "type": "address"
        }
      ],
      "stateMutability": "view",
      "type": "function"
    },
    {
      "inputs": [
        {
          "internalType": "address",
          "name": "_account",
          "type": "address"
        }
      ],
      "name": "balanceOf",
      "outputs": [
        {
          "internalType": "uint256",
          "name": "",
          "type": "uint256"
        }
      ],
      "stateMutability": "view",
      "type": "function"
    },
    {
      "inputs": [
        {
          "internalType": "uint256",
          "name": "_assets",
          "type": "uint256"
        },
        {
          "internalType": "address",
          "name": "_receiver",
          "type": "address"
        },
        {
          "internalType": "address",
          "name": "_borrower",
          "type": "address"
        },
        {
          "internalType": "bool",
          "name": "_sameAsset",
          "type": "bool"
        }
      ],
      "name": "borrow",
      "outputs": [
        {
          "internalType": "uint256",
          "name": "shares",
          "type": "uint256"
        }
      ],
      "stateMutability": "nonpayable",
      "type": "function"
    },
    {
      "inputs": [
        {
          "internalType": "uint256",
          "name": "_shares",
          "type": "uint256"
        },
        {
          "internalType": "address",
          "name": "_receiver",
          "type": "address"
        },
        {
          "internalType": "address",
          "name": "_borrower",
          "type": "address"
        },
        {
          "internalType": "bool",
          "name": "_sameAsset",
          "type": "bool"
        }
      ],
      "name": "borrowShares",
      "outputs": [
        {
          "internalType": "uint256",
          "name": "assets",
          "type": "uint256"
        }
      ],
      "stateMutability": "nonpayable",
      "type": "function"
    },
    {
      "inputs": [
        {
          "internalType": "address",
          "name": "_target",
          "type": "address"
        },
        {
          "internalType": "uint256",
          "name": "_value",
          "type": "uint256"
        },
        {
          "internalType": "bytes",
          "name": "_input",
          "type": "bytes"
        }
      ],
      "name": "callOnBehalfOfSilo",
      "outputs": [
        {
          "internalType": "bool",
          "name": "success",
          "type": "bool"
        },
        {
          "internalType": "bytes",
          "name": "result",
          "type": "bytes"
        }
      ],
      "stateMutability": "payable",
      "type": "function"
    },
    {
      "inputs": [],
      "name": "config",
      "outputs": [
        {
          "internalType": "contract ISiloConfig",
          "name": "siloConfig",
          "type": "address"
        }
      ],
      "stateMutability": "view",
      "type": "function"
    },
    {
      "inputs": [
        {
          "internalType": "uint256",
          "name": "_shares",
          "type": "uint256"
        }
      ],
      "name": "convertToAssets",
      "outputs": [
        {
          "internalType": "uint256",
          "name": "assets",
          "type": "uint256"
        }
      ],
      "stateMutability": "view",
      "type": "function"
    },
    {
      "inputs": [
        {
          "internalType": "uint256",
          "name": "_shares",
          "type": "uint256"
        },
        {
          "internalType": "enum ISilo.AssetType",
          "name": "_assetType",
          "type": "uint8"
        }
      ],
      "name": "convertToAssets",
      "outputs": [
        {
          "internalType": "uint256",
          "name": "assets",
          "type": "uint256"
        }
      ],
      "stateMutability": "view",
      "type": "function"
    },
    {
      "inputs": [
        {
          "internalType": "uint256",
          "name": "_assets",
          "type": "uint256"
        },
        {
          "internalType": "enum ISilo.AssetType",
          "name": "_assetType",
          "type": "uint8"
        }
      ],
      "name": "convertToShares",
      "outputs": [
        {
          "internalType": "uint256",
          "name": "shares",
          "type": "uint256"
        }
      ],
      "stateMutability": "view",
      "type": "function"
    },
    {
      "inputs": [
        {
          "internalType": "uint256",
          "name": "_assets",
          "type": "uint256"
        }
      ],
      "name": "convertToShares",
      "outputs": [
        {
          "internalType": "uint256",
          "name": "shares",
          "type": "uint256"
        }
      ],
      "stateMutability": "view",
      "type": "function"
    },
    {
      "inputs": [],
      "name": "decimals",
      "outputs": [
        {
          "internalType": "uint8",
          "name": "",
          "type": "uint8"
        }
      ],
      "stateMutability": "view",
      "type": "function"
    },
    {
      "inputs": [
        {
          "internalType": "uint256",
          "name": "_assets",
          "type": "uint256"
        },
        {
          "internalType": "address",
          "name": "_receiver",
          "type": "address"
        }
      ],
      "name": "deposit",
      "outputs": [
        {
          "internalType": "uint256",
          "name": "shares",
          "type": "uint256"
        }
      ],
      "stateMutability": "nonpayable",
      "type": "function"
    },
    {
      "inputs": [
        {
          "internalType": "uint256",
          "name": "_assets",
          "type": "uint256"
        },
        {
          "internalType": "address",
          "name": "_receiver",
          "type": "address"
        },
        {
          "internalType": "enum ISilo.CollateralType",
          "name": "_collateralType",
          "type": "uint8"
        }
      ],
      "name": "deposit",
      "outputs": [
        {
          "internalType": "uint256",
          "name": "shares",
          "type": "uint256"
        }
      ],
      "stateMutability": "nonpayable",
      "type": "function"
    },
    {
      "inputs": [],
      "name": "factory",
      "outputs": [
        {
          "internalType": "contract ISiloFactory",
          "name": "",
          "type": "address"
        }
      ],
      "stateMutability": "view",
      "type": "function"
    },
    {
      "inputs": [
        {
          "internalType": "address",
          "name": "_token",
          "type": "address"
        },
        {
          "internalType": "uint256",
          "name": "_amount",
          "type": "uint256"
        }
      ],
      "name": "flashFee",
      "outputs": [
        {
          "internalType": "uint256",
          "name": "fee",
          "type": "uint256"
        }
      ],
      "stateMutability": "view",
      "type": "function"
    },
    {
      "inputs": [
        {
          "internalType": "contract IERC3156FlashBorrower",
          "name": "_receiver",
          "type": "address"
        },
        {
          "internalType": "address",
          "name": "_token",
          "type": "address"
        },
        {
          "internalType": "uint256",
          "name": "_amount",
          "type": "uint256"
        },
        {
          "internalType": "bytes",
          "name": "_data",
          "type": "bytes"
        }
      ],
      "name": "flashLoan",
      "outputs": [
        {
          "internalType": "bool",
          "name": "success",
          "type": "bool"
        }
      ],
      "stateMutability": "nonpayable",
      "type": "function"
    },
    {
      "inputs": [],
      "name": "getCollateralAndDebtAssets",
      "outputs": [
        {
          "internalType": "uint256",
          "name": "totalCollateralAssets",
          "type": "uint256"
        },
        {
          "internalType": "uint256",
          "name": "totalDebtAssets",
          "type": "uint256"
        }
      ],
      "stateMutability": "view",
      "type": "function"
    },
    {
      "inputs": [],
      "name": "getCollateralAndProtectedAssets",
      "outputs": [
        {
          "internalType": "uint256",
          "name": "totalCollateralAssets",
          "type": "uint256"
        },
        {
          "internalType": "uint256",
          "name": "totalProtectedAssets",
          "type": "uint256"
        }
      ],
      "stateMutability": "view",
      "type": "function"
    },
    {
      "inputs": [],
      "name": "getCollateralAssets",
      "outputs": [
        {
          "internalType": "uint256",
          "name": "totalCollateralAssets",
          "type": "uint256"
        }
      ],
      "stateMutability": "view",
      "type": "function"
    },
    {
      "inputs": [],
      "name": "getDebtAssets",
      "outputs": [
        {
          "internalType": "uint256",
          "name": "totalDebtAssets",
          "type": "uint256"
        }
      ],
      "stateMutability": "view",
      "type": "function"
    },
    {
      "inputs": [],
      "name": "getLiquidity",
      "outputs": [
        {
          "internalType": "uint256",
          "name": "liquidity",
          "type": "uint256"
        }
      ],
      "stateMutability": "view",
      "type": "function"
    },
    {
      "inputs": [],
      "name": "getRawLiquidity",
      "outputs": [
        {
          "internalType": "uint256",
          "name": "liquidity",
          "type": "uint256"
        }
      ],
      "stateMutability": "view",
      "type": "function"
    },
    {
      "inputs": [
        {
          "internalType": "contract ISiloConfig",
          "name": "_siloConfig",
          "type": "address"
        },
        {
          "internalType": "address",
          "name": "_modelConfigAddress",
          "type": "address"
        }
      ],
      "name": "initialize",
      "outputs": [],
      "stateMutability": "nonpayable",
      "type": "function"
    },
    {
      "inputs": [
        {
          "internalType": "address",
          "name": "_borrower",
          "type": "address"
        }
      ],
      "name": "isSolvent",
      "outputs": [
        {
          "internalType": "bool",
          "name": "",
          "type": "bool"
        }
      ],
      "stateMutability": "view",
      "type": "function"
    },
    {
      "inputs": [
        {
          "internalType": "uint256",
          "name": "_assets",
          "type": "uint256"
        },
        {
          "internalType": "contract ILeverageBorrower",
          "name": "_receiver",
          "type": "address"
        },
        {
          "internalType": "address",
          "name": "_borrower",
          "type": "address"
        },
        {
          "internalType": "bool",
          "name": "_sameAsset",
          "type": "bool"
        },
        {
          "internalType": "bytes",
          "name": "_data",
          "type": "bytes"
        }
      ],
      "name": "leverage",
      "outputs": [
        {
          "internalType": "uint256",
          "name": "shares",
          "type": "uint256"
        }
      ],
      "stateMutability": "nonpayable",
      "type": "function"
    },
    {
      "inputs": [
        {
          "internalType": "uint256",
          "name": "_depositAssets",
          "type": "uint256"
        },
        {
          "internalType": "uint256",
          "name": "_borrowAssets",
          "type": "uint256"
        },
        {
          "internalType": "address",
          "name": "_borrower",
          "type": "address"
        },
        {
          "internalType": "enum ISilo.CollateralType",
          "name": "_collateralType",
          "type": "uint8"
        }
      ],
      "name": "leverageSameAsset",
      "outputs": [
        {
          "internalType": "uint256",
          "name": "depositedShares",
          "type": "uint256"
        },
        {
          "internalType": "uint256",
          "name": "borrowedShares",
          "type": "uint256"
        }
      ],
      "stateMutability": "nonpayable",
      "type": "function"
    },
    {
      "inputs": [
        {
          "internalType": "uint256",
          "name": "_assets",
          "type": "uint256"
        },
        {
          "internalType": "address",
          "name": "_borrower",
          "type": "address"
        },
        {
          "internalType": "address",
          "name": "_repayer",
          "type": "address"
        }
      ],
      "name": "liquidationRepay",
      "outputs": [
        {
          "internalType": "uint256",
          "name": "shares",
          "type": "uint256"
        }
      ],
      "stateMutability": "nonpayable",
      "type": "function"
    },
    {
      "inputs": [
        {
          "internalType": "address",
          "name": "_borrower",
          "type": "address"
        },
        {
          "internalType": "bool",
          "name": "_sameAsset",
          "type": "bool"
        }
      ],
      "name": "maxBorrow",
      "outputs": [
        {
          "internalType": "uint256",
          "name": "maxAssets",
          "type": "uint256"
        }
      ],
      "stateMutability": "view",
      "type": "function"
    },
    {
      "inputs": [
        {
          "internalType": "address",
          "name": "_borrower",
          "type": "address"
        },
        {
          "internalType": "bool",
          "name": "_sameAsset",
          "type": "bool"
        }
      ],
      "name": "maxBorrowShares",
      "outputs": [
        {
          "internalType": "uint256",
          "name": "maxShares",
          "type": "uint256"
        }
      ],
      "stateMutability": "view",
      "type": "function"
    },
    {
      "inputs": [
        {
          "internalType": "address",
          "name": "",
          "type": "address"
        }
      ],
      "name": "maxDeposit",
      "outputs": [
        {
          "internalType": "uint256",
          "name": "maxAssets",
          "type": "uint256"
        }
      ],
      "stateMutability": "view",
      "type": "function"
    },
    {
      "inputs": [
        {
          "internalType": "address",
          "name": "",
          "type": "address"
        },
        {
          "internalType": "enum ISilo.CollateralType",
          "name": "_collateralType",
          "type": "uint8"
        }
      ],
      "name": "maxDeposit",
      "outputs": [
        {
          "internalType": "uint256",
          "name": "maxAssets",
          "type": "uint256"
        }
      ],
      "stateMutability": "view",
      "type": "function"
    },
    {
      "inputs": [
        {
          "internalType": "address",
          "name": "_token",
          "type": "address"
        }
      ],
      "name": "maxFlashLoan",
      "outputs": [
        {
          "internalType": "uint256",
          "name": "maxLoan",
          "type": "uint256"
        }
      ],
      "stateMutability": "view",
      "type": "function"
    },
    {
      "inputs": [
        {
          "internalType": "address",
          "name": "",
          "type": "address"
        },
        {
          "internalType": "enum ISilo.CollateralType",
          "name": "_collateralType",
          "type": "uint8"
        }
      ],
      "name": "maxMint",
      "outputs": [
        {
          "internalType": "uint256",
          "name": "maxShares",
          "type": "uint256"
        }
      ],
      "stateMutability": "view",
      "type": "function"
    },
    {
      "inputs": [
        {
          "internalType": "address",
          "name": "",
          "type": "address"
        }
      ],
      "name": "maxMint",
      "outputs": [
        {
          "internalType": "uint256",
          "name": "maxShares",
          "type": "uint256"
        }
      ],
      "stateMutability": "view",
      "type": "function"
    },
    {
      "inputs": [
        {
          "internalType": "address",
          "name": "_owner",
          "type": "address"
        },
        {
          "internalType": "enum ISilo.CollateralType",
          "name": "_collateralType",
          "type": "uint8"
        }
      ],
      "name": "maxRedeem",
      "outputs": [
        {
          "internalType": "uint256",
          "name": "maxShares",
          "type": "uint256"
        }
      ],
      "stateMutability": "view",
      "type": "function"
    },
    {
      "inputs": [
        {
          "internalType": "address",
          "name": "_owner",
          "type": "address"
        }
      ],
      "name": "maxRedeem",
      "outputs": [
        {
          "internalType": "uint256",
          "name": "maxShares",
          "type": "uint256"
        }
      ],
      "stateMutability": "view",
      "type": "function"
    },
    {
      "inputs": [
        {
          "internalType": "address",
          "name": "_borrower",
          "type": "address"
        }
      ],
      "name": "maxRepay",
      "outputs": [
        {
          "internalType": "uint256",
          "name": "assets",
          "type": "uint256"
        }
      ],
      "stateMutability": "view",
      "type": "function"
    },
    {
      "inputs": [
        {
          "internalType": "address",
          "name": "_borrower",
          "type": "address"
        }
      ],
      "name": "maxRepayShares",
      "outputs": [
        {
          "internalType": "uint256",
          "name": "shares",
          "type": "uint256"
        }
      ],
      "stateMutability": "view",
      "type": "function"
    },
    {
      "inputs": [
        {
          "internalType": "address",
          "name": "_owner",
          "type": "address"
        },
        {
          "internalType": "enum ISilo.CollateralType",
          "name": "_collateralType",
          "type": "uint8"
        }
      ],
      "name": "maxWithdraw",
      "outputs": [
        {
          "internalType": "uint256",
          "name": "maxAssets",
          "type": "uint256"
        }
      ],
      "stateMutability": "view",
      "type": "function"
    },
    {
      "inputs": [
        {
          "internalType": "address",
          "name": "_owner",
          "type": "address"
        }
      ],
      "name": "maxWithdraw",
      "outputs": [
        {
          "internalType": "uint256",
          "name": "maxAssets",
          "type": "uint256"
        }
      ],
      "stateMutability": "view",
      "type": "function"
    },
    {
      "inputs": [
        {
          "internalType": "uint256",
          "name": "_shares",
          "type": "uint256"
        },
        {
          "internalType": "address",
          "name": "_receiver",
          "type": "address"
        }
      ],
      "name": "mint",
      "outputs": [
        {
          "internalType": "uint256",
          "name": "assets",
          "type": "uint256"
        }
      ],
      "stateMutability": "nonpayable",
      "type": "function"
    },
    {
      "inputs": [
        {
          "internalType": "uint256",
          "name": "_shares",
          "type": "uint256"
        },
        {
          "internalType": "address",
          "name": "_receiver",
          "type": "address"
        },
        {
          "internalType": "enum ISilo.CollateralType",
          "name": "_collateralType",
          "type": "uint8"
        }
      ],
      "name": "mint",
      "outputs": [
        {
          "internalType": "uint256",
          "name": "assets",
          "type": "uint256"
        }
      ],
      "stateMutability": "nonpayable",
      "type": "function"
    },
    {
      "inputs": [],
      "name": "name",
      "outputs": [
        {
          "internalType": "string",
          "name": "",
          "type": "string"
        }
      ],
      "stateMutability": "view",
      "type": "function"
    },
    {
      "inputs": [
        {
          "internalType": "uint256",
          "name": "_assets",
          "type": "uint256"
        }
      ],
      "name": "previewBorrow",
      "outputs": [
        {
          "internalType": "uint256",
          "name": "shares",
          "type": "uint256"
        }
      ],
      "stateMutability": "view",
      "type": "function"
    },
    {
      "inputs": [
        {
          "internalType": "uint256",
          "name": "_shares",
          "type": "uint256"
        }
      ],
      "name": "previewBorrowShares",
      "outputs": [
        {
          "internalType": "uint256",
          "name": "assets",
          "type": "uint256"
        }
      ],
      "stateMutability": "view",
      "type": "function"
    },
    {
      "inputs": [
        {
          "internalType": "uint256",
          "name": "_assets",
          "type": "uint256"
        },
        {
          "internalType": "enum ISilo.CollateralType",
          "name": "_collateralType",
          "type": "uint8"
        }
      ],
      "name": "previewDeposit",
      "outputs": [
        {
          "internalType": "uint256",
          "name": "shares",
          "type": "uint256"
        }
      ],
      "stateMutability": "view",
      "type": "function"
    },
    {
      "inputs": [
        {
          "internalType": "uint256",
          "name": "_assets",
          "type": "uint256"
        }
      ],
      "name": "previewDeposit",
      "outputs": [
        {
          "internalType": "uint256",
          "name": "shares",
          "type": "uint256"
        }
      ],
      "stateMutability": "view",
      "type": "function"
    },
    {
      "inputs": [
        {
          "internalType": "uint256",
          "name": "_shares",
          "type": "uint256"
        },
        {
          "internalType": "enum ISilo.CollateralType",
          "name": "_collateralType",
          "type": "uint8"
        }
      ],
      "name": "previewMint",
      "outputs": [
        {
          "internalType": "uint256",
          "name": "assets",
          "type": "uint256"
        }
      ],
      "stateMutability": "view",
      "type": "function"
    },
    {
      "inputs": [
        {
          "internalType": "uint256",
          "name": "_shares",
          "type": "uint256"
        }
      ],
      "name": "previewMint",
      "outputs": [
        {
          "internalType": "uint256",
          "name": "assets",
          "type": "uint256"
        }
      ],
      "stateMutability": "view",
      "type": "function"
    },
    {
      "inputs": [
        {
          "internalType": "uint256",
          "name": "_shares",
          "type": "uint256"
        }
      ],
      "name": "previewRedeem",
      "outputs": [
        {
          "internalType": "uint256",
          "name": "assets",
          "type": "uint256"
        }
      ],
      "stateMutability": "view",
      "type": "function"
    },
    {
      "inputs": [
        {
          "internalType": "uint256",
          "name": "_shares",
          "type": "uint256"
        },
        {
          "internalType": "enum ISilo.CollateralType",
          "name": "_collateralType",
          "type": "uint8"
        }
      ],
      "name": "previewRedeem",
      "outputs": [
        {
          "internalType": "uint256",
          "name": "assets",
          "type": "uint256"
        }
      ],
      "stateMutability": "view",
      "type": "function"
    },
    {
      "inputs": [
        {
          "internalType": "uint256",
          "name": "_assets",
          "type": "uint256"
        }
      ],
      "name": "previewRepay",
      "outputs": [
        {
          "internalType": "uint256",
          "name": "shares",
          "type": "uint256"
        }
      ],
      "stateMutability": "view",
      "type": "function"
    },
    {
      "inputs": [
        {
          "internalType": "uint256",
          "name": "_shares",
          "type": "uint256"
        }
      ],
      "name": "previewRepayShares",
      "outputs": [
        {
          "internalType": "uint256",
          "name": "assets",
          "type": "uint256"
        }
      ],
      "stateMutability": "view",
      "type": "function"
    },
    {
      "inputs": [
        {
          "internalType": "uint256",
          "name": "_assets",
          "type": "uint256"
        }
      ],
      "name": "previewWithdraw",
      "outputs": [
        {
          "internalType": "uint256",
          "name": "shares",
          "type": "uint256"
        }
      ],
      "stateMutability": "view",
      "type": "function"
    },
    {
      "inputs": [
        {
          "internalType": "uint256",
          "name": "_assets",
          "type": "uint256"
        },
        {
          "internalType": "enum ISilo.CollateralType",
          "name": "_collateralType",
          "type": "uint8"
        }
      ],
      "name": "previewWithdraw",
      "outputs": [
        {
          "internalType": "uint256",
          "name": "shares",
          "type": "uint256"
        }
      ],
      "stateMutability": "view",
      "type": "function"
    },
    {
      "inputs": [
        {
          "internalType": "uint256",
          "name": "_shares",
          "type": "uint256"
        },
        {
          "internalType": "address",
          "name": "_receiver",
          "type": "address"
        },
        {
          "internalType": "address",
          "name": "_owner",
          "type": "address"
        }
      ],
      "name": "redeem",
      "outputs": [
        {
          "internalType": "uint256",
          "name": "assets",
          "type": "uint256"
        }
      ],
      "stateMutability": "nonpayable",
      "type": "function"
    },
    {
      "inputs": [
        {
          "internalType": "uint256",
          "name": "_shares",
          "type": "uint256"
        },
        {
          "internalType": "address",
          "name": "_receiver",
          "type": "address"
        },
        {
          "internalType": "address",
          "name": "_owner",
          "type": "address"
        },
        {
          "internalType": "enum ISilo.CollateralType",
          "name": "_collateralType",
          "type": "uint8"
        }
      ],
      "name": "redeem",
      "outputs": [
        {
          "internalType": "uint256",
          "name": "assets",
          "type": "uint256"
        }
      ],
      "stateMutability": "nonpayable",
      "type": "function"
    },
    {
      "inputs": [
        {
          "internalType": "uint256",
          "name": "_assets",
          "type": "uint256"
        },
        {
          "internalType": "address",
          "name": "_borrower",
          "type": "address"
        }
      ],
      "name": "repay",
      "outputs": [
        {
          "internalType": "uint256",
          "name": "shares",
          "type": "uint256"
        }
      ],
      "stateMutability": "nonpayable",
      "type": "function"
    },
    {
      "inputs": [
        {
          "internalType": "uint256",
          "name": "_shares",
          "type": "uint256"
        },
        {
          "internalType": "address",
          "name": "_borrower",
          "type": "address"
        }
      ],
      "name": "repayShares",
      "outputs": [
        {
          "internalType": "uint256",
          "name": "assets",
          "type": "uint256"
        }
      ],
      "stateMutability": "nonpayable",
      "type": "function"
    },
    {
      "inputs": [],
      "name": "sharedStorage",
      "outputs": [
        {
          "internalType": "contract ISiloConfig",
          "name": "siloConfig",
          "type": "address"
        },
        {
          "internalType": "uint24",
          "name": "hooksBefore",
          "type": "uint24"
        },
        {
          "internalType": "uint24",
          "name": "hooksAfter",
          "type": "uint24"
        },
        {
          "internalType": "contract IHookReceiver",
          "name": "hookReceiver",
          "type": "address"
        }
      ],
      "stateMutability": "view",
      "type": "function"
    },
    {
      "inputs": [],
      "name": "siloData",
      "outputs": [
        {
          "internalType": "uint192",
          "name": "daoAndDeployerFees",
          "type": "uint192"
        },
        {
          "internalType": "uint64",
          "name": "interestRateTimestamp",
          "type": "uint64"
        }
      ],
      "stateMutability": "view",
      "type": "function"
    },
    {
      "inputs": [
        {
          "internalType": "bool",
          "name": "_sameAsset",
          "type": "bool"
        }
      ],
      "name": "switchCollateralTo",
      "outputs": [],
      "stateMutability": "nonpayable",
      "type": "function"
    },
    {
      "inputs": [],
      "name": "symbol",
      "outputs": [
        {
          "internalType": "string",
          "name": "",
          "type": "string"
        }
      ],
      "stateMutability": "view",
      "type": "function"
    },
    {
      "inputs": [
        {
          "internalType": "uint256",
          "name": "assetType",
          "type": "uint256"
        }
      ],
      "name": "total",
      "outputs": [
        {
          "internalType": "uint256",
          "name": "assets",
          "type": "uint256"
        }
      ],
      "stateMutability": "view",
      "type": "function"
    },
    {
      "inputs": [],
      "name": "totalAssets",
      "outputs": [
        {
          "internalType": "uint256",
          "name": "totalManagedAssets",
          "type": "uint256"
        }
      ],
      "stateMutability": "view",
      "type": "function"
    },
    {
      "inputs": [],
      "name": "totalSupply",
      "outputs": [
        {
          "internalType": "uint256",
          "name": "",
          "type": "uint256"
        }
      ],
      "stateMutability": "view",
      "type": "function"
    },
    {
      "inputs": [
        {
          "internalType": "address",
          "name": "_to",
          "type": "address"
        },
        {
          "internalType": "uint256",
          "name": "_amount",
          "type": "uint256"
        }
      ],
      "name": "transfer",
      "outputs": [
        {
          "internalType": "bool",
          "name": "",
          "type": "bool"
        }
      ],
      "stateMutability": "nonpayable",
      "type": "function"
    },
    {
      "inputs": [
        {
          "internalType": "address",
          "name": "_from",
          "type": "address"
        },
        {
          "internalType": "address",
          "name": "_to",
          "type": "address"
        },
        {
          "internalType": "uint256",
          "name": "_amount",
          "type": "uint256"
        }
      ],
      "name": "transferFrom",
      "outputs": [
        {
          "internalType": "bool",
          "name": "",
          "type": "bool"
        }
      ],
      "stateMutability": "nonpayable",
      "type": "function"
    },
    {
      "inputs": [
        {
          "internalType": "uint256",
          "name": "_shares",
          "type": "uint256"
        },
        {
          "internalType": "address",
          "name": "_owner",
          "type": "address"
        },
        {
          "internalType": "enum ISilo.CollateralType",
          "name": "_withdrawType",
          "type": "uint8"
        }
      ],
      "name": "transitionCollateral",
      "outputs": [
        {
          "internalType": "uint256",
          "name": "assets",
          "type": "uint256"
        }
      ],
      "stateMutability": "nonpayable",
      "type": "function"
    },
    {
      "inputs": [],
      "name": "updateHooks",
      "outputs": [],
      "stateMutability": "nonpayable",
      "type": "function"
    },
    {
      "inputs": [],
      "name": "utilizationData",
      "outputs": [
        {
          "components": [
            {
              "internalType": "uint256",
              "name": "collateralAssets",
              "type": "uint256"
            },
            {
              "internalType": "uint256",
              "name": "debtAssets",
              "type": "uint256"
            },
            {
              "internalType": "uint64",
              "name": "interestRateTimestamp",
              "type": "uint64"
            }
          ],
          "internalType": "struct ISilo.UtilizationData",
          "name": "",
          "type": "tuple"
        }
      ],
      "stateMutability": "view",
      "type": "function"
    },
    {
      "inputs": [
        {
          "internalType": "uint256",
          "name": "_assets",
          "type": "uint256"
        },
        {
          "internalType": "address",
          "name": "_receiver",
          "type": "address"
        },
        {
          "internalType": "address",
          "name": "_owner",
          "type": "address"
        }
      ],
      "name": "withdraw",
      "outputs": [
        {
          "internalType": "uint256",
          "name": "shares",
          "type": "uint256"
        }
      ],
      "stateMutability": "nonpayable",
      "type": "function"
    },
    {
      "inputs": [
        {
          "internalType": "uint256",
          "name": "_assets",
          "type": "uint256"
        },
        {
          "internalType": "address",
          "name": "_receiver",
          "type": "address"
        },
        {
          "internalType": "address",
          "name": "_owner",
          "type": "address"
        },
        {
          "internalType": "enum ISilo.CollateralType",
          "name": "_collateralType",
          "type": "uint8"
        }
      ],
      "name": "withdraw",
      "outputs": [
        {
          "internalType": "uint256",
          "name": "shares",
          "type": "uint256"
        }
      ],
      "stateMutability": "nonpayable",
      "type": "function"
    },
    {
      "inputs": [
        {
          "internalType": "uint256",
          "name": "_withdrawAssetsFromCollateral",
          "type": "uint256"
        },
        {
          "internalType": "uint256",
          "name": "_withdrawAssetsFromProtected",
          "type": "uint256"
        },
        {
          "internalType": "address",
          "name": "_borrower",
          "type": "address"
        },
        {
          "internalType": "address",
          "name": "_liquidator",
          "type": "address"
        },
        {
          "internalType": "bool",
          "name": "_receiveSToken",
          "type": "bool"
        }
      ],
      "name": "withdrawCollateralsToLiquidator",
      "outputs": [],
      "stateMutability": "nonpayable",
      "type": "function"
    },
    {
      "inputs": [],
      "name": "withdrawFees",
      "outputs": [],
      "stateMutability": "nonpayable",
      "type": "function"
    },
    {
      "anonymous": false,
      "inputs": [
        {
          "indexed": false,
          "internalType": "uint256",
          "name": "hooksBefore",
          "type": "uint256"
        }
      ],
      "name": "AccruedInterest",
      "type": "event"
    },
    {
      "anonymous": false,
      "inputs": [
        {
          "indexed": true,
          "internalType": "address",
          "name": "owner",
          "type": "address"
        },
        {
          "indexed": true,
          "internalType": "address",
          "name": "spender",
          "type": "address"
        },
        {
          "indexed": false,
          "internalType": "uint256",
          "name": "value",
          "type": "uint256"
        }
      ],
      "name": "Approval",
      "type": "event"
    },
    {
      "anonymous": false,
      "inputs": [
        {
          "indexed": true,
          "internalType": "address",
          "name": "sender",
          "type": "address"
        },
        {
          "indexed": true,
          "internalType": "address",
          "name": "receiver",
          "type": "address"
        },
        {
          "indexed": true,
          "internalType": "address",
          "name": "owner",
          "type": "address"
        },
        {
          "indexed": false,
          "internalType": "uint256",
          "name": "assets",
          "type": "uint256"
        },
        {
          "indexed": false,
          "internalType": "uint256",
          "name": "shares",
          "type": "uint256"
        }
      ],
      "name": "Borrow",
      "type": "event"
    },
    {
      "anonymous": false,
      "inputs": [
        {
          "indexed": true,
          "internalType": "address",
          "name": "borrower",
          "type": "address"
        },
        {
          "indexed": false,
          "internalType": "bool",
          "name": "sameAseet",
          "type": "bool"
        }
      ],
      "name": "CollateralTypeChanged",
      "type": "event"
    },
    {
      "anonymous": false,
      "inputs": [
        {
          "indexed": true,
          "internalType": "address",
          "name": "sender",
          "type": "address"
        },
        {
          "indexed": true,
          "internalType": "address",
          "name": "owner",
          "type": "address"
        },
        {
          "indexed": false,
          "internalType": "uint256",
          "name": "assets",
          "type": "uint256"
        },
        {
          "indexed": false,
          "internalType": "uint256",
          "name": "shares",
          "type": "uint256"
        }
      ],
      "name": "Deposit",
      "type": "event"
    },
    {
      "anonymous": false,
      "inputs": [
        {
          "indexed": true,
          "internalType": "address",
          "name": "sender",
          "type": "address"
        },
        {
          "indexed": true,
          "internalType": "address",
          "name": "owner",
          "type": "address"
        },
        {
          "indexed": false,
          "internalType": "uint256",
          "name": "assets",
          "type": "uint256"
        },
        {
          "indexed": false,
          "internalType": "uint256",
          "name": "shares",
          "type": "uint256"
        }
      ],
      "name": "DepositProtected",
      "type": "event"
    },
    {
      "anonymous": false,
      "inputs": [
        {
          "indexed": false,
          "internalType": "uint256",
          "name": "amount",
          "type": "uint256"
        }
      ],
      "name": "FlashLoan",
      "type": "event"
    },
    {
      "anonymous": false,
      "inputs": [
        {
          "indexed": false,
          "internalType": "uint24",
          "name": "hooksBefore",
          "type": "uint24"
        },
        {
          "indexed": false,
          "internalType": "uint24",
          "name": "hooksAfter",
          "type": "uint24"
        }
      ],
      "name": "HooksUpdated",
      "type": "event"
    },
    {
      "anonymous": false,
      "inputs": [
        {
          "indexed": true,
          "internalType": "address",
          "name": "sender",
          "type": "address"
        },
        {
          "indexed": true,
          "internalType": "address",
          "name": "owner",
          "type": "address"
        },
        {
          "indexed": false,
          "internalType": "uint256",
          "name": "assets",
          "type": "uint256"
        },
        {
          "indexed": false,
          "internalType": "uint256",
          "name": "shares",
          "type": "uint256"
        }
      ],
      "name": "Repay",
      "type": "event"
    },
    {
      "anonymous": false,
      "inputs": [
        {
          "indexed": true,
          "internalType": "address",
          "name": "from",
          "type": "address"
        },
        {
          "indexed": true,
          "internalType": "address",
          "name": "to",
          "type": "address"
        },
        {
          "indexed": false,
          "internalType": "uint256",
          "name": "value",
          "type": "uint256"
        }
      ],
      "name": "Transfer",
      "type": "event"
    },
    {
      "anonymous": false,
      "inputs": [
        {
          "indexed": true,
          "internalType": "address",
          "name": "sender",
          "type": "address"
        },
        {
          "indexed": true,
          "internalType": "address",
          "name": "receiver",
          "type": "address"
        },
        {
          "indexed": true,
          "internalType": "address",
          "name": "owner",
          "type": "address"
        },
        {
          "indexed": false,
          "internalType": "uint256",
          "name": "assets",
          "type": "uint256"
        },
        {
          "indexed": false,
          "internalType": "uint256",
          "name": "shares",
          "type": "uint256"
        }
      ],
      "name": "Withdraw",
      "type": "event"
    },
    {
      "anonymous": false,
      "inputs": [
        {
          "indexed": true,
          "internalType": "address",
          "name": "sender",
          "type": "address"
        },
        {
          "indexed": true,
          "internalType": "address",
          "name": "receiver",
          "type": "address"
        },
        {
          "indexed": true,
          "internalType": "address",
          "name": "owner",
          "type": "address"
        },
        {
          "indexed": false,
          "internalType": "uint256",
          "name": "assets",
          "type": "uint256"
        },
        {
          "indexed": false,
          "internalType": "uint256",
          "name": "shares",
          "type": "uint256"
        }
      ],
      "name": "WithdrawProtected",
      "type": "event"
    },
    {
      "inputs": [],
      "name": "AboveMaxLtv",
      "type": "error"
    },
    {
      "inputs": [
        {
          "internalType": "address",
          "name": "target",
          "type": "address"
        }
      ],
      "name": "AddressEmptyCode",
      "type": "error"
    },
    {
      "inputs": [],
      "name": "BorrowNotPossible",
      "type": "error"
    },
    {
      "inputs": [],
      "name": "EarnedZero",
      "type": "error"
    },
    {
      "inputs": [],
      "name": "FailedCall",
      "type": "error"
    },
    {
      "inputs": [],
      "name": "FlashloanFailed",
      "type": "error"
    },
    {
      "inputs": [],
      "name": "InputCanBeAssetsOrShares",
      "type": "error"
    },
    {
      "inputs": [],
      "name": "Insolvency",
      "type": "error"
    },
    {
      "inputs": [
        {
          "internalType": "uint256",
          "name": "balance",
          "type": "uint256"
        },
        {
          "internalType": "uint256",
          "name": "needed",
          "type": "uint256"
        }
      ],
      "name": "InsufficientBalance",
      "type": "error"
    },
    {
      "inputs": [],
      "name": "LeverageFailed",
      "type": "error"
    },
    {
      "inputs": [],
      "name": "LeverageTooHigh",
      "type": "error"
    },
    {
      "inputs": [],
      "name": "NoDebt",
      "type": "error"
    },
    {
      "inputs": [],
      "name": "NoLiquidity",
      "type": "error"
    },
    {
      "inputs": [],
      "name": "NotEnoughLiquidity",
      "type": "error"
    },
    {
      "inputs": [],
      "name": "NotSolvent",
      "type": "error"
    },
    {
      "inputs": [],
      "name": "NothingToPay",
      "type": "error"
    },
    {
      "inputs": [],
      "name": "NothingToWithdraw",
      "type": "error"
    },
    {
      "inputs": [],
      "name": "OnlyHookReceiver",
      "type": "error"
    },
    {
      "inputs": [],
      "name": "OnlyLiquidationModule",
      "type": "error"
    },
    {
      "inputs": [],
      "name": "OnlySiloConfig",
      "type": "error"
    },
    {
      "inputs": [
        {
          "internalType": "address",
          "name": "token",
          "type": "address"
        }
      ],
      "name": "SafeERC20FailedOperation",
      "type": "error"
    },
    {
      "inputs": [],
      "name": "SiloInitialized",
      "type": "error"
    },
    {
      "inputs": [],
      "name": "ThereIsDebtInOtherSilo",
      "type": "error"
    },
    {
      "inputs": [],
      "name": "TwoAssetsDebt",
      "type": "error"
    },
    {
      "inputs": [],
      "name": "Unsupported",
      "type": "error"
    },
    {
      "inputs": [],
      "name": "WrongToken",
      "type": "error"
    },
    {
      "inputs": [],
      "name": "ZeroAmount",
      "type": "error"
    },
    {
      "inputs": [],
      "name": "ZeroAssets",
      "type": "error"
    },
    {
      "inputs": [],
      "name": "ZeroShares",
      "type": "error"
    }
  ],
  "bytecode": "0x60a060405234801562000010575f80fd5b5060405162005d6a38038062005d6a833981016040819052620000339162000057565b6001600160a01b0316608052600180546001600160a01b0319163017905562000086565b5f6020828403121562000068575f80fd5b81516001600160a01b03811681146200007f575f80fd5b9392505050565b608051615ccb6200009f5f395f610c620152615ccb5ff3fe60806040526004361061045b575f3560e01c806394bf804d11610241578063c1357c9011610134578063d9d98ce4116100b3578063e72bec5711610078578063e72bec5714610e01578063ecd658b414610e20578063ef8b30f714610e34578063fa9b1c6a14610e53578063fe09539a14610e72575f80fd5b8063d9d98ce414610d71578063da53766014610d90578063dd62ed3e14610daf578063e36754eb14610dce578063e64e162114610ded575f80fd5b8063cad1aacf116100f9578063cad1aacf14610ce1578063ce96cb7714610cf5578063d4ca6d1d14610d14578063d7872b5914610d33578063d905777e14610d52575f80fd5b8063c1357c9014610bfa578063c45a015514610c51578063c63d75b614610c84578063c6e6f59214610ca3578063caacd56314610cc2575f80fd5b8063b17a1247116101c0578063b96f174311610185578063b96f174314610b5f578063ba08765214610b7e578063ba8ffe6514610b9d578063bf722ca214610bbc578063c061ddc714610bdb575f80fd5b8063b17a124714610ac4578063b3d7f6b914610ae3578063b460af9414610b02578063b7ec8d4b14610b21578063b8337c2a14610b40575f80fd5b8063a6afed9511610206578063a6afed9514610a28578063a7d6e44b14610a3c578063a9059cbb14610a5b578063acb7081514610a7a578063b119ebfe14610a99575f80fd5b806394bf804d1461098e57806395d89b41146109ad57806399d499c1146109c15780639ef2fda0146109d5578063a1ff9bee14610a14575f80fd5b8063402d267d116103595780636e236614116102d857806379502c551161029d57806379502c551461089d5780637ff00077146108ba578063832fd14c146108d95780638707c33e146108f85780638f8e741914610917575f80fd5b80636e236614146108025780636e553f651461082157806370a082311461084057806378007e231461085f578063782785ea1461087e575f80fd5b80635d0868f61161031e5780635d0868f6146107675780635d4086af146107865780635f301149146107a5578063613255ab146107c45780636e1f8f7e146107e3575f80fd5b8063402d267d146106d5578063476343ee146106f4578063485cc9551461070a5780634cdad506146107295780635cffe9de14610748575f80fd5b80630a28a477116103e5578063267e54a7116103aa578063267e54a71461062657806329d6509a14610645578063313ce5671461066457806338b51ce11461068a57806338d52e0f146106a9575f80fd5b80630a28a4771461059657806311b5e682146105b557806312d4c574146105d457806318160ddd146105f357806323b872dd14610607575f80fd5b806306fdde031161042b57806306fdde03146104f4578063071bf3ff1461051557806307a2d13a146105345780630910a51014610553578063095ea7b314610567575f80fd5b806301e1d11414610466578063066846e11461048d578063068731ba146104c157806306b7992b146104d5575f80fd5b3661046257005b5f80fd5b348015610471575f80fd5b5061047a610e93565b6040519081526020015b60405180910390f35b348015610498575f80fd5b506104ac6104a7366004614e8a565b610ea4565b60408051928352602083019190915201610484565b3480156104cc575f80fd5b5061047a611017565b3480156104e0575f80fd5b5061047a6104ef366004614edc565b611050565b3480156104ff575f80fd5b50610508611078565b6040516104849190614f79565b348015610520575f80fd5b5061047a61052f366004614f8b565b6110e3565b34801561053f575f80fd5b5061047a61054e366004614fb5565b611104565b34801561055e575f80fd5b5061047a611123565b348015610572575f80fd5b50610586610581366004614fcc565b61113a565b6040519015158152602001610484565b3480156105a1575f80fd5b5061047a6105b0366004614fb5565b6111aa565b3480156105c0575f80fd5b5061047a6105cf366004614ff6565b6111b6565b3480156105df575f80fd5b5061047a6105ee366004614f8b565b6111c8565b3480156105fe575f80fd5b5061047a6111e9565b348015610612575f80fd5b50610586610621366004615017565b611251565b348015610631575f80fd5b5061047a610640366004614ff6565b6112d1565b348015610650575f80fd5b5061047a61065f366004615055565b6112dc565b34801561066f575f80fd5b506106786113bb565b60405160ff9091168152602001610484565b348015610695575f80fd5b506105866106a4366004615055565b611423565b3480156106b4575f80fd5b506106bd6114bc565b6040516001600160a01b039091168152602001610484565b3480156106e0575f80fd5b5061047a6106ef366004615055565b611526565b3480156106ff575f80fd5b50610708611545565b005b348015610715575f80fd5b50610708610724366004615070565b6115e6565b348015610734575f80fd5b5061047a610743366004614fb5565b611707565b348015610753575f80fd5b506105866107623660046150e4565b611713565b348015610772575f80fd5b5061047a610781366004614f8b565b6117dc565b348015610791575f80fd5b5061047a6107a0366004615151565b6117f5565b3480156107b0575f80fd5b5061047a6107bf366004615055565b611812565b3480156107cf575f80fd5b5061047a6107de366004615055565b611920565b3480156107ee575f80fd5b5061047a6107fd366004614ff6565b611a0f565b34801561080d575f80fd5b5061070861081c366004615177565b611a1a565b34801561082c575f80fd5b5061047a61083b3660046151a9565b611a51565b34801561084b575f80fd5b5061047a61085a366004615055565b611a5f565b34801561086a575f80fd5b5061047a610879366004614fb5565b611a98565b348015610889575f80fd5b5061047a6108983660046151cc565b611ab8565b3480156108a8575f80fd5b506001546001600160a01b03166106bd565b3480156108c5575f80fd5b5061047a6108d4366004615151565b611b0a565b3480156108e4575f80fd5b5061047a6108f336600461524b565b611b49565b348015610903575f80fd5b5061047a61091236600461524b565b611b62565b348015610922575f80fd5b50600154600254610954916001600160a01b038082169262ffffff600160a01b8404811693600160b81b900416911684565b60405161048494939291906001600160a01b03948516815262ffffff93841660208201529190921660408201529116606082015260800190565b348015610999575f80fd5b5061047a6109a83660046151a9565b611b7b565b3480156109b8575f80fd5b50610508611b89565b3480156109cc575f80fd5b506104ac611bcd565b3480156109e0575f80fd5b506109e9611c04565b604080518251815260208084015190820152918101516001600160401b031690820152606001610484565b348015610a1f575f80fd5b5061047a611c85565b348015610a33575f80fd5b5061047a611d18565b348015610a47575f80fd5b5061047a610a56366004614ff6565b611d21565b348015610a66575f80fd5b50610586610a75366004614fcc565b611d2c565b348015610a85575f80fd5b5061047a610a943660046151a9565b611d64565b348015610aa4575f80fd5b5061047a610ab3366004614fb5565b60036020525f908152604090205481565b348015610acf575f80fd5b5061047a610ade366004614f8b565b611d72565b348015610aee575f80fd5b5061047a610afd366004614fb5565b611e72565b348015610b0d575f80fd5b5061047a610b1c366004615277565b611e7e565b348015610b2c575f80fd5b5061047a610b3b3660046152b6565b611e8e565b348015610b4b575f80fd5b5061047a610b5a3660046152f1565b611e9b565b348015610b6a575f80fd5b50610708610b79366004615326565b611eaa565b348015610b89575f80fd5b5061047a610b98366004615277565b611ed5565b348015610ba8575f80fd5b5061047a610bb7366004614fb5565b611ee6565b348015610bc7575f80fd5b5061047a610bd6366004614fb5565b611f05565b348015610be6575f80fd5b5061047a610bf53660046152b6565b611f24565b348015610c05575f80fd5b505f54610c2a906001600160c01b03811690600160c01b90046001600160401b031682565b604080516001600160c01b0390931683526001600160401b03909116602083015201610484565b348015610c5c575f80fd5b506106bd7f000000000000000000000000000000000000000000000000000000000000000081565b348015610c8f575f80fd5b5061047a610c9e366004615055565b611f3a565b348015610cae575f80fd5b5061047a610cbd366004614fb5565b611f81565b348015610ccd575f80fd5b50610708610cdc366004615381565b611fa0565b348015610cec575f80fd5b50610708612041565b348015610d00575f80fd5b5061047a610d0f366004615055565b6120ff565b348015610d1f575f80fd5b5061047a610d2e366004615277565b612121565b348015610d3e575f80fd5b5061047a610d4d366004614edc565b612130565b348015610d5d575f80fd5b5061047a610d6c366004615055565b61214e565b348015610d7c575f80fd5b5061047a610d8b366004614fcc565b612169565b348015610d9b575f80fd5b5061047a610daa3660046152f1565b612182565b348015610dba575f80fd5b5061047a610dc9366004615070565b612191565b348015610dd9575f80fd5b5061047a610de83660046151a9565b6121e8565b348015610df8575f80fd5b506104ac6121f6565b348015610e0c575f80fd5b5061047a610e1b366004614fb5565b61221c565b348015610e2b575f80fd5b5061047a61223c565b348015610e3f575f80fd5b5061047a610e4e366004614fb5565b6122c0565b348015610e5e575f80fd5b5061047a610e6d3660046152b6565b6122cc565b610e85610e8036600461539c565b612494565b6040516104849291906153f3565b5f610e9e600161252c565b50919050565b600360208190525f80516020615c768339815191525460025f90815291829173__$1c8c6ee4f595ff59af83bdc8e432701c1d$__9163e74f5001916001918a918a918a918a915f80516020615c56833981519152908a8489811115610f0b57610f0b61540d565b81526020019081526020015f206040518963ffffffff1660e01b8152600401610f3b989796959493929190615441565b6040805180830381865af4158015610f55573d5f803e3d5ffd5b505050506040513d601f19601f82011682018060405250810190610f799190615492565b60408051888152602081018390529294509092506001600160a01b03861691829133917f96558a334f4759f0e7c423d68c84721860bd8fbf94ddc4e55158ecb125ad04b5910160405180910390a460408051878152602081018490526001600160a01b0386169133917fdcbc1c05240f31ff3ad067ef1ee35ce4997762752e3a095284754544f4c709d791015b60405180910390a394509492505050565b60036020525f80516020615c768339815191525460025f9081525f80516020615c5683398151915254909161104b916125b2565b905090565b5f61106e5f868686865f60405180602001604052805f8152506125ca565b5095945050505050565b6060611082612730565b6001600160a01b03166306fdde036040518163ffffffff1660e01b81526004015f60405180830381865afa1580156110bc573d5f803e3d5ffd5b505050506040513d5f823e601f3d908101601f1916820160405261104b91908101906154f1565b6001545f906110fc906001600160a01b0316848461279a565b949350505050565b5f805f611111600161252c565b915091506110fc8483835f60016127fc565b6001545f9061104b906001600160a01b031661282b565b5f611143612730565b6001600160a01b031663c37d11c23385856040518463ffffffff1660e01b815260040161117293929190615598565b5f604051808303815f87803b158015611189575f80fd5b505af115801561119b573d5f803e3d5ffd5b50505050600190505b92915050565b5f6111a48260016128ab565b5f6111c183836128ef565b9392505050565b6001545f906111e1906001600160a01b0316848461279a565b509392505050565b5f6111f2612730565b6001600160a01b03166318160ddd6040518163ffffffff1660e01b8152600401602060405180830381865afa15801561122d573d5f803e3d5ffd5b505050506040513d601f19601f8201168201806040525081019061104b91906155bc565b5f61125a612730565b604051631ca3ec3f60e11b81523360048201526001600160a01b0386811660248301528581166044830152606482018590529190911690633947d87e906084015f604051808303815f87803b1580156112b1575f80fd5b505af11580156112c3573d5f803e3d5ffd5b506001979650505050505050565b5f6111c183836128ab565b60015460405163e48a5f7b60e01b81523060048201525f9182916001600160a01b039091169063e48a5f7b9060240161024060405180830381865afa158015611327573d5f803e3d5ffd5b505050506040513d601f19601f8201168201806040525081019061134b9190615716565b60e08101516040516370a0823160e01b81526001600160a01b0386811660048301529293509116906370a0823190602401602060405180830381865afa158015611397573d5f803e3d5ffd5b505050506040513d601f19601f820116820180604052508101906111c191906155bc565b5f6113c4612730565b6001600160a01b031663313ce5676040518163ffffffff1660e01b8152600401602060405180830381865afa1580156113ff573d5f803e3d5ffd5b505050506040513d601f19601f8201168201806040525081019061104b9190615731565b600154604051633b691b9f60e01b81525f918291829182916001600160a01b0390911690633b691b9f9061145f90309089908690600401615598565b61050060405180830381865afa15801561147b573d5f803e3d5ffd5b505050506040513d601f19601f8201168201806040525081019061149f9190615751565b9250925092506114b3838383886001612933565b95945050505050565b6001546040516307439b4960e01b81523060048201525f916001600160a01b0316906307439b4990602401602060405180830381865afa158015611502573d5f803e3d5ffd5b505050506040513d601f19601f8201168201806040525081019061104b9190615812565b5f6111a460038260015b81526020019081526020015f205f01546129d8565b61154d6129e2565b505f80805260036020527f3617319a054d772f909f7c479a2cebe5066e836a939412e32403c99029b92eff54604051631208eeff60e01b81523060048201526024810192909252604482015273__$1c8c6ee4f595ff59af83bdc8e432701c1d$__90631208eeff906064015f6040518083038186803b1580156115ce575f80fd5b505af41580156115e0573d5f803e3d5ffd5b50505050565b6001546001600160a01b03161561161057604051630e13a05360e31b815260040160405180910390fd5b60405163e48a5f7b60e01b81523060048201525f906001600160a01b0384169063e48a5f7b9060240161024060405180830381865afa158015611655573d5f803e3d5ffd5b505050506040513d601f19601f820116820180604052508101906116799190615716565b600180546001600160a01b038681166001600160a01b031992831617909255610200830151600280549184169190921617905561014082015160405163ee8f931b60e01b81528583166004820152929350169063ee8f931b906024015f604051808303815f87803b1580156116ec575f80fd5b505af11580156116fe573d5f803e3d5ffd5b50505050505050565b5f6111a4826001612a6b565b604051632cabdcdf60e11b81525f9073__$1c8c6ee4f595ff59af83bdc8e432701c1d$__90635957b9be90611759906001908a908a908a9088908b908b9060040161582d565b602060405180830381865af4158015611774573d5f803e3d5ffd5b505050506040513d601f19601f82011682018060405250810190611798919061588e565b905080156114b3576040518481527f97bf554031869ec4edcf72b0dcdc2234dd406afe091f3631be088f348e1795749060200160405180910390a195945050505050565b5f6111c160035f8460018111156115305761153061540d565b5f805f6118018461252c565b915091506114b38583835f88612aae565b60015460405163e48a5f7b60e01b81523060048201525f9182916001600160a01b039091169063e48a5f7b9060240161024060405180830381865afa15801561185d573d5f803e3d5ffd5b505050506040513d601f19601f820116820180604052508101906118819190615716565b60e08101516040516370a0823160e01b81526001600160a01b0386811660048301529293505f92909116906370a0823190602401602060405180830381865afa1580156118d0573d5f803e3d5ffd5b505050506040513d601f19601f820116820180604052508101906118f491906155bc565b90505f80611903846002612add565b91509150611916838383600160026127fc565b9695505050505050565b6001546040516307439b4960e01b81523060048201525f916001600160a01b0316906307439b4990602401602060405180830381865afa158015611966573d5f803e3d5ffd5b505050506040513d601f19601f8201168201806040525081019061198a9190615812565b6001600160a01b0316826001600160a01b0316146119a8575f6111a4565b6040516370a0823160e01b81523060048201526001600160a01b038316906370a08231906024015b602060405180830381865afa1580156119eb573d5f803e3d5ffd5b505050506040513d601f19601f820116820180604052508101906111a491906155bc565b5f6111c18383612cca565b6001546001600160a01b03163314611a45576040516359d74a4160e01b815260040160405180910390fd5b6115e08383835f612d0d565b5f6110fc835f846001612e10565b5f611a68612730565b6040516370a0823160e01b81526001600160a01b03848116600483015291909116906370a08231906024016119d0565b5f805f611aa5600261252c565b915091506110fc84838360016002612aae565b5f611afe875f888888600189898080601f0160208091040260200160405190810160405280939291908181526020018383808284375f920191909152506125ca92505050565b98975050505050505050565b5f805f611b168461252c565b90925090506114b38583836002886002811115611b3557611b3561540d565b14611b40575f611b43565b60015b886127fc565b6001545f906110fc906001600160a01b03168484612f68565b6001545f906111e1906001600160a01b03168484612f68565b5f6111e15f84846001612e10565b6060611b93612730565b6001600160a01b03166395d89b416040518163ffffffff1660e01b81526004015f60405180830381865afa1580156110bc573d5f803e3d5ffd5b60015f908152600360208190525f80516020615c7683398151915254919081805b81526020019081526020015f205f015490509091565b611c2e60405180606001604052805f81526020015f81526020015f6001600160401b031681525090565b50604080516060810182525f80516020615c7683398151915254815260025f908152600360209081525f80516020615c56833981519152549083015254600160c01b90046001600160401b03169181019190915290565b60015460405163e48a5f7b60e01b81523060048201525f9182916001600160a01b039091169063e48a5f7b9060240161024060405180830381865afa158015611cd0573d5f803e3d5ffd5b505050506040513d601f19601f82011682018060405250810190611cf49190615716565b9050611d128160400151826101400151835f01518460200151613049565b91505090565b5f61104b6129e2565b5f6111c18383612a6b565b5f611d35612730565b6001600160a01b0316631339c6493385856040518463ffffffff1660e01b815260040161117293929190615598565b5f6110fc835f84335f61313f565b600154604051630483b24f60e41b81523060048201525f91829182916001600160a01b03169063483b24f090602401606060405180830381865afa158015611dbc573d5f803e3d5ffd5b505050506040513d601f19601f82011682018060405250810190611de091906158a9565b5090925090505f6001856001811115611dfb57611dfb61540d565b14611e065782611e08565b815b9050611916816001600160a01b03166318160ddd6040518163ffffffff1660e01b8152600401602060405180830381865afa158015611e49573d5f803e3d5ffd5b505050506040513d601f19601f82011682018060405250810190611e6d91906155bc565b6129d8565b5f6111a48260016128ef565b5f6114b3845f8585336001613256565b5f6114b3845f8585612e10565b5f611916855f86863387613256565b600154611ece906001600160a01b03168686868686611ec7611017565b6003613432565b5050505050565b5f8061106e81868686336001613256565b5f805f611ef3600261252c565b915091506110fc8483835f60026127fc565b5f805f611f12600261252c565b915091506110fc8483835f6002612aae565b5f611f315f858585612e10565b50949350505050565b5f6111a4611f46612730565b6001600160a01b03166318160ddd6040518163ffffffff1660e01b8152600401602060405180830381865afa158015611e49573d5f803e3d5ffd5b5f805f611f8e600161252c565b915091506110fc8483835f6001612aae565b6040516346b12ba960e11b815260016004820152811515602482015273__$1c8c6ee4f595ff59af83bdc8e432701c1d$__90638d625752906044015f6040518083038186803b158015611ff1575f80fd5b505af4158015612003573d5f803e3d5ffd5b505060405183151581523392507fdd042fc19b7ba37bcb317da65c652fc8c9975978c98b4346947d29c466fd7949915060200160405180910390a250565b604051635c5e66cf60e11b8152600160048201525f90819073__$1c8c6ee4f595ff59af83bdc8e432701c1d$__9063b8bccd9e906024016040805180830381865af4158015612092573d5f803e3d5ffd5b505050506040513d601f19601f820116820180604052508101906120b691906158fa565b6040805162ffffff8085168252831660208201529294509092507f2b7ec2cd1f9292c7a9ae800c2479f6be4217beacb0c01ef2d7e4e84fced3d75b910160405180910390a15050565b600180545f9161211a916001600160a01b031690849061279a565b5092915050565b5f6114b3845f8585600161313f565b5f611916855f8686865f60405180602001604052805f8152506125ca565b600180545f916111c1916001600160a01b031690849061279a565b6001545f906111c1906001600160a01b0316848461352e565b5f61106e5f8686863387613256565b5f61219a612730565b604051636eb1769f60e11b81526001600160a01b0385811660048301528481166024830152919091169063dd62ed3e90604401602060405180830381865afa158015611397573d5f803e3d5ffd5b5f6111e15f8484335f61313f565b60015f908152600360208190525f80516020615c76833981519152549190816002611bee565b5f805f612229600261252c565b915091506110fc848383600160026127fc565b60015460405163e48a5f7b60e01b81523060048201525f9182916001600160a01b039091169063e48a5f7b9060240161024060405180830381865afa158015612287573d5f803e3d5ffd5b505050506040513d601f19601f820116820180604052508101906122ab9190615716565b9050611d128160400151826101400151613635565b5f6111a4826001612cca565b5f8073__$1c8c6ee4f595ff59af83bdc8e432701c1d$__63bcd1399d600187878760036040518663ffffffff1660e01b815260040161230f959493929190615922565b6040805180830381865af4158015612329573d5f803e3d5ffd5b505050506040513d601f19601f8201168201806040525081019061234d9190615492565b909250905060018360018111156123665761236661540d565b036123fe5760408051838152602081018790526001600160a01b03861691829133917ffbde797d201c681b91056529119e0b02407c7bb96a4a2c75c01fc9667232c8db910160405180910390a460408051838152602081018390526001600160a01b0386169133917f1ad348f5de3e19e23d88e34248ceb6ab09804a35a3abc0e7758045b7b9036acd910160405180910390a36111e1565b60408051838152602081018790526001600160a01b03861691829133917f2dac01ea07cfa812db5881eaad96ba201c018c042b8f9ea7278cdf6f29e65f24910160405180910390a460408051838152602081018390526001600160a01b0386169133917fdcbc1c05240f31ff3ad067ef1ee35ce4997762752e3a095284754544f4c709d7910160405180910390a3509392505050565b6002545f906060906001600160a01b031633146124c4576040516380897acb60e01b815260040160405180910390fd5b856001600160a01b03168585856040516124df92919061595c565b5f6040518083038185875af1925050503d805f8114612519576040519150601f19603f3d011682016040523d82523d5f602084013e61251e565b606091505b509097909650945050505050565b60015460405163e48a5f7b60e01b81523060048201525f91829182916001600160a01b03169063e48a5f7b9060240161024060405180830381865afa158015612577573d5f803e3d5ffd5b505050506040513d601f19601f8201168201806040525081019061259b9190615716565b90506125a78185612add565b909590945092505050565b5f8282116125c2578183036111c1565b5f9392505050565b5f8073__$1c8c6ee4f595ff59af83bdc8e432701c1d$__63f55e217c60016040518060e001604052808d81526020018c81526020018b6001600160a01b031681526020018a6001600160a01b031681526020018915158152602001881515815260200160035f600160028111156126435761264361540d565b815260208082019290925260409081015f90812054909352600290925260039052516001600160e01b031960e085901b1681526126959291905f80516020615c5683398151915290899060040161596b565b6040805180830381865af41580156126af573d5f803e3d5ffd5b505050506040513d601f19601f820116820180604052508101906126d39190615492565b60408051838152602081018390529294509092506001600160a01b0380891692908a169133917f96558a334f4759f0e7c423d68c84721860bd8fbf94ddc4e55158ecb125ad04b5910160405180910390a497509795505050505050565b600154604051630483b24f60e41b81523060048201525f916001600160a01b03169063483b24f090602401606060405180830381865afa158015612776573d5f803e3d5ffd5b505050506040513d601f19601f8201168201806040525081019061211a91906158a9565b5f806127ef858585848760018111156127b5576127b561540d565b146127c0575f61371b565b5f805260036020527f3617319a054d772f909f7c479a2cebe5066e836a939412e32403c99029b92eff5461371b565b915091505b935093915050565b5f805f61280a878786613a39565b91509150815f0361281f5787925050506114b3565b611afe88828488613a7b565b60405163e48a5f7b60e01b81523060048201525f9081906001600160a01b0384169063e48a5f7b9060240161024060405180830381865afa158015612872573d5f803e3d5ffd5b505050506040513d601f19601f820116820180604052508101906128969190615716565b90506128a181613abd565b5090949350505050565b5f808260018111156128bf576128bf61540d565b60028111156128d0576128d061540d565b90505f806128dd8361252c565b91509150611916868383600187612aae565b5f808260018111156129035761290361540d565b60028111156129145761291461540d565b90505f806129218361252c565b915091506119168683836001876127fc565b82515f90612943575060016114b3565b60e08501516040516370a0823160e01b81526001600160a01b0380861660048301525f926129c4928a928a92899287928a9216906370a0823190602401602060405180830381865afa15801561299b573d5f803e3d5ffd5b505050506040513d601f19601f820116820180604052508101906129bf91906155bc565b613afd565b610180880151101591505095945050505050565b5f6111a482613b52565b60015460405163e48a5f7b60e01b81523060048201525f9182916001600160a01b039091169063e48a5f7b9060240161024060405180830381865afa158015612a2d573d5f803e3d5ffd5b505050506040513d601f19601f82011682018060405250810190612a519190615716565b9050611d12816101400151825f015183602001515f612d0d565b5f80826001811115612a7f57612a7f61540d565b6002811115612a9057612a9061540d565b90505f80612a9d8361252c565b915091506119168683835f876127fc565b5f805f612abc878786613a39565b91509150815f03612ad15787925050506114b3565b611afe88838388613a7b565b5f8080836002811115612af257612af261540d565b03612bd057604084810151905163588cf5ff60e11b81525f60048201526001600160a01b039091169063b119ebfe90602401602060405180830381865afa158015612b3f573d5f803e3d5ffd5b505050506040513d601f19601f82011682018060405250810190612b6391906155bc565b91508360a001516001600160a01b03166318160ddd6040518163ffffffff1660e01b8152600401602060405180830381865afa158015612ba5573d5f803e3d5ffd5b505050506040513d601f19601f82011682018060405250810190612bc991906155bc565b9050612cc3565b6001836002811115612be457612be461540d565b03612c4757612c058460400151856101400151865f01518760200151613049565b91508360c001516001600160a01b03166318160ddd6040518163ffffffff1660e01b8152600401602060405180830381865afa158015612ba5573d5f803e3d5ffd5b612c5a8460400151856101400151613635565b91508360e001516001600160a01b03166318160ddd6040518163ffffffff1660e01b8152600401602060405180830381865afa158015612c9c573d5f803e3d5ffd5b505050506040513d601f19601f82011682018060405250810190612cc091906155bc565b90505b9250929050565b5f80826001811115612cde57612cde61540d565b6002811115612cef57612cef61540d565b90505f80612cfc8361252c565b915091506119168683835f87612aae565b5f6001600160a01b03821615801590612d2f57506001600160a01b0382163014155b15612d9757816001600160a01b031663a6afed956040518163ffffffff1660e01b81526004016020604051808303815f875af1158015612d71573d5f803e3d5ffd5b505050506040513d601f19601f82011682018060405250810190612d9591906155bc565b505b600360205260025f908152612dcd908690869086905f80516020615c768339815191525f80516020615c56833981519152613b8c565b905080156110fc576040518181527fd1fe0093c54116fe147366ec7de3cfa98e1e02e91d7ccb124241f6beae255b4c9060200160405180910390a1949350505050565b5f8073__$1c8c6ee4f595ff59af83bdc8e432701c1d$__63825cab6b60018888888860035f8b6001811115612e4757612e4761540d565b81526020019081526020015f206040518763ffffffff1660e01b8152600401612e75969594939291906159e1565b6040805180830381865af4158015612e8f573d5f803e3d5ffd5b505050506040513d601f19601f82011682018060405250810190612eb39190615492565b90925090506001836001811115612ecc57612ecc61540d565b03612f1c5760408051838152602081018390526001600160a01b0386169133917fdcbc1c05240f31ff3ad067ef1ee35ce4997762752e3a095284754544f4c709d7910160405180910390a3612f5f565b60408051838152602081018390526001600160a01b0386169133917f1ad348f5de3e19e23d88e34248ceb6ab09804a35a3abc0e7758045b7b9036acd9101611006565b94509492505050565b5f805f805f876001600160a01b0316633b691b9f308989612f8a576004612f8d565b60025b6040176040518463ffffffff1660e01b8152600401612fae93929190615598565b61050060405180830381865afa158015612fca573d5f803e3d5ffd5b505050506040513d601f19601f82011682018060405250810190612fee9190615751565b925092509250612ffd81613cc9565b61300f575f80945094505050506127f4565b8515613019578192505b5f80613026846002612add565b9150915061303885858b85858f613cdc565b965096505050505050935093915050565b6040516367efe7fd60e11b81526001600160a01b0385811660048301524260248301525f91829186169063cfdfcffa90604401602060405180830381865afa158015613097573d5f803e3d5ffd5b505050506040513d601f19601f820116820180604052508101906130bb91906155bc565b90505f80876001600160a01b031663e64e16216040518163ffffffff1660e01b81526004016040805180830381865afa1580156130fa573d5f803e3d5ffd5b505050506040513d601f19601f8201168201806040525081019061311e9190615492565b9150915061312f8282858989613d82565b50919a9950505050505050505050565b60025f90815260036020526040516311bbe5c160e31b81526001600482015260248101879052604481018690526001600160a01b0380861660648301528416608482015282151560a48201525f80516020615c5683398151915260c4820152819073__$1c8c6ee4f595ff59af83bdc8e432701c1d$__90638ddf2e089060e4016040805180830381865af41580156131d9573d5f803e3d5ffd5b505050506040513d601f19601f820116820180604052508101906131fd9190615492565b60408051838152602081018390529294509092506001600160a01b0380881692908716917fe4a1ae657f49cb1fb1c7d3a94ae6093565c4c8c0e03de488f79c377c3c3a24e0910160405180910390a39550959350505050565b5f8073__$1c8c6ee4f595ff59af83bdc8e432701c1d$__63cc87164b60016040518060c001604052808c81526020018b81526020018a6001600160a01b03168152602001896001600160a01b03168152602001886001600160a01b031681526020018760018111156132ca576132ca61540d565b905260035f8860018111156132e1576132e161540d565b81526020019081526020015f2060035f6002808111156133035761330361540d565b81526020019081526020015f206040518563ffffffff1660e01b815260040161332f9493929190615a23565b6040805180830381865af4158015613349573d5f803e3d5ffd5b505050506040513d601f19601f8201168201806040525081019061336d9190615492565b909250905060018360018111156133865761338661540d565b036133db5760408051838152602081018390526001600160a01b03808816929089169133917ffbde797d201c681b91056529119e0b02407c7bb96a4a2c75c01fc9667232c8db910160405180910390a4613427565b60408051838152602081018390526001600160a01b03808816929089169133917f2dac01ea07cfa812db5881eaad96ba201c018c042b8f9ea7278cdf6f29e65f24910160405180910390a45b965096945050505050565b60405163e48a5f7b60e01b81523060048201525f906001600160a01b038a169063e48a5f7b9060240161024060405180830381865afa158015613477573d5f803e3d5ffd5b505050506040513d601f19601f8201168201806040525081019061349b9190615716565b9050806101e001516001600160a01b0316336001600160a01b0316146134d4576040516307514e8360e51b815260040160405180910390fd5b83156135145760c081015160a082015160015f908152602085905260408082205482805291205461350f9392918c918c918c918c9190613dc2565b613523565b61352381898989898888613df5565b505050505050505050565b5f815f0361354f57604051631f2a200560e01b815260040160405180910390fd5b604051630509af0560e51b81523060048201525f9081906001600160a01b0387169063a135e0a090602401608060405180830381865afa158015613595573d5f803e3d5ffd5b505050506040513d601f19601f820116820180604052508101906135b99190615a93565b935093505050806001600160a01b0316856001600160a01b0316146135f157604051634851657960e11b815260040160405180910390fd5b815f03613602575f925050506111c1565b61360c8285615ada565b670de0b6b3a7640000900492505f83900361362c576001925050506111c1565b50509392505050565b6040516367efe7fd60e11b81526001600160a01b0383811660048301524260248301525f91829184169063cfdfcffa90604401602060405180830381865afa158015613683573d5f803e3d5ffd5b505050506040513d601f19601f820116820180604052508101906136a791906155bc565b60405163588cf5ff60e11b815260026004820152909150611f31906001600160a01b0386169063b119ebfe90602401602060405180830381865afa1580156136f1573d5f803e3d5ffd5b505050506040513d601f19601f8201168201806040525081019061371591906155bc565b82613efd565b5f805f805f886001600160a01b0316633b691b9f308a6101006040518463ffffffff1660e01b815260040161375293929190615598565b61050060405180830381865afa15801561376e573d5f803e3d5ffd5b505050506040513d601f19601f820116820180604052508101906137929190615751565b919450925090505f8060018960018111156137af576137af61540d565b0361382d578460c001516001600160a01b03166318160ddd6040518163ffffffff1660e01b8152600401602060405180830381865afa1580156137f4573d5f803e3d5ffd5b505050506040513d601f19601f8201168201806040525081019061381891906155bc565b915061382385613abd565b5098509050613897565b8460a001516001600160a01b03166318160ddd6040518163ffffffff1660e01b8152600401602060405180830381865afa15801561386d573d5f803e3d5ffd5b505050506040513d601f19601f8201168201806040525081019061389191906155bc565b91508790505b6138a083613f3a565b15613a1c575f8960018111156138b8576138b861540d565b146139305760c08501516040516370a0823160e01b81526001600160a01b038c81166004830152909116906370a0823190602401602060405180830381865afa158015613907573d5f803e3d5ffd5b505050506040513d601f19601f8201168201806040525081019061392b91906155bc565b61399e565b60a08501516040516370a0823160e01b81526001600160a01b038c81166004830152909116906370a0823190602401602060405180830381865afa15801561397a573d5f803e3d5ffd5b505050506040513d601f19601f8201168201806040525081019061399e91906155bc565b95506139cf8689845f8d60018111156139b9576139b961540d565b60028111156139ca576139ca61540d565b6127fc565b96505f8960018111156139e4576139e461540d565b14806139f05750808711155b156139ff575050505050612f5f565b809650613a108789845f6001612aae565b95505050505050612f5f565b613a2b85858c84868e8e613f66565b965096505050505050612f5f565b5f80835f03613a46575f94505b6002836002811115613a5a57613a5a61540d565b14613a6c576001840185600101613a6f565b83855b90969095509350505050565b5f613aa8613a8883614064565b8015613aa357505f8480613a9e57613a9e615af1565b868809115b151590565b613ab3868686614090565b6114b39190615b05565b5f805f613ad830856101400151865f01518760200151613049565b9150613ae930856101400151613635565b9050613af582826125b2565b949193509150565b5f815f03613b0c57505f611916565b5f613b1b88888888888861414d565b905080608001515f03613b31575f915050611916565b613b4481896080015189608001516143c9565b9a9950505050505050505050565b5f8115613b7e576001600160801b03821015613b78576001600160801b038290036111a4565b5f6111a4565b6001600160801b0392915050565b82545f90600160c01b90046001600160401b0316808203613bcd57505082546001600160c01b0316600160c01b426001600160401b0316021783555f611916565b42816001600160401b031603613be6575f915050611916565b8354835460405163426f4b4d60e11b815260048101839052602481018290526001600160401b03841660448201525f929190613c7b90839083906001600160a01b038f16906384de969a906064016020604051808303815f875af1158015613c50573d5f803e3d5ffd5b505050506040513d601f19601f82011682018060405250810190613c7491906155bc565b8d8d613d82565b919098559755505085546001600160c01b0319600160c01b426001600160401b0316029081166001600160c01b03928316918316919091179095011693909317909455509095945050505050565b80515f9015806111a45750506060015190565b5f805f613cee8989896001805f61414d565b90505f80613d05838c608001518c6080015161442a565b915091505f613d1a8c61016001518484614576565b9050613d3881838c8e608001518f60e0015189602001518f8f6145bd565b90965094505f613d478861282b565b905080871115613d6557809650613d62878b8b5f6002612aae565b95505b8615613d72575f19909601955b5050505050965096945050505050565b5f805f80613d908888613efd565b909350670de0b6b3a764000086880182020492509050818103613db3818b615b05565b94505095509550955095915050565b8415613dd657613dd6848487848b5f6147a6565b8515613deb57613deb848488858c60016147a6565b5050505050505050565b8415613e8857613e8587608001518860a001516040518060c001604052808981526020015f8152602001876001600160a01b03168152602001886001600160a01b03168152602001886001600160a01b031681526020015f6001811115613e5e57613e5e61540d565b90525f80805260208690526040812054908690805b81526020019081526020015f2061487c565b50505b85156116fe5761352387608001518860c001516040518060c001604052808a81526020015f8152602001876001600160a01b03168152602001886001600160a01b03168152602001886001600160a01b03168152602001600180811115613ef157613ef161540d565b905285855f6001613e73565b5f80831580613f0a575082155b15613f1957508290505f612cc3565b50670de0b6b3a764000082840204613f318185615b05565b91509250929050565b80515f90613f4a57506001919050565b8160600151613f5d5781602001516111a4565b50602001511590565b5f805f613ff58a8a8a5f60018e60e001516001600160a01b03166370a082318f6040518263ffffffff1660e01b8152600401613fb191906001600160a01b0391909116815260200190565b602060405180830381865afa158015613fcc573d5f803e3d5ffd5b505050506040513d601f19601f82011682018060405250810190613ff091906155bc565b61414d565b90505f8061400c838d608001518d6080015161442a565b9150915061402a82828e610180015186604001518760600151614a30565b94505050614045838260600151836040015188888b8d614ab8565b90935091508215614057575f19909201915b5097509795505050505050565b5f60028260038111156140795761407961540d565b6140839190615b18565b60ff166001149050919050565b5f838302815f1985870982811083820303915050805f036140c4578382816140ba576140ba615af1565b04925050506111c1565b8084116140e2576140e284156140db576011614b67565b6012614b67565b5f848688095f868103871696879004966002600389028118808a02820302808a02820302808a02820302808a02820302808a02820302808a02909103029181900381900460010186841190950394909402919094039290920491909117919091029150509392505050565b61418c6040518060a001604052805f6001600160a01b031681526020015f6001600160a01b031681526020015f81526020015f81526020015f81525090565b85608001516001600160a01b031687608001516001600160a01b0316146141f85760018460018111156141c1576141c161540d565b146141d7578661010001518661010001516141e4565b8661012001518661012001515b6001600160a01b0390811660208401521681525b5f806142098960a00151885f614b78565b80935081925050505f808a604001516001600160a01b03166399d499c16040518163ffffffff1660e01b81526004016040805180830381865afa158015614252573d5f803e3d5ffd5b505050506040513d601f19601f820116820180604052508101906142769190615492565b915091506142878382865f806127fc565b604086015260c08b015161429c908a5f614b78565b9450925060018760018111156142b4576142b461540d565b146142bf57816142db565b6142db8b604001518c61014001518d5f01518e60200151613049565b91506142eb8383865f60016127fc565b606086015260e08a0151614300908a88614b78565b945092505f60018860018111156143195761431961540d565b146143905760408b810151905163588cf5ff60e11b8152600260048201526001600160a01b039091169063b119ebfe90602401602060405180830381865afa158015614367573d5f803e3d5ffd5b505050506040513d601f19601f8201168201806040525081019061438b91906155bc565b6143a3565b6143a38b604001518c6101400151613635565b90506143b4848287600160026127fc565b608087015250939a9950505050505050505050565b5f805f6143d786868661442a565b9093509150821580156143e8575081155b156143fa57505f915081905080614421565b825f0361440957505f19614421565b61441e82670de0b6b3a7640000856001613a7b565b90505b93509350939050565b606083015160408401515f9182910180156144c95785516001600160a01b031661445457806144c6565b85516040516313b0be3360e01b8152600481018390526001600160a01b038781166024830152909116906313b0be3390604401602060405180830381865afa1580156144a2573d5f803e3d5ffd5b505050506040513d601f19601f820116820180604052508101906144c691906155bc565b92505b60808601511561456d5760208601516001600160a01b03166144ef57856080015161456a565b602086015160808701516040516313b0be3360e01b815260048101919091526001600160a01b038681166024830152909116906313b0be3390604401602060405180830381865afa158015614546573d5f803e3d5ffd5b505050506040513d601f19601f8201168201806040525081019061456a91906155bc565b91505b50935093915050565b5f825f0361458557505f6111c1565b5f670de0b6b3a76400006145998686615ada565b6145a39190615b39565b90508281116145b2575f6114b3565b919091039392505050565b5f80895f036145d057505f905080614799565b885f03614703575f876001600160a01b031663313ce5676040518163ffffffff1660e01b8152600401602060405180830381865afa158015614614573d5f803e3d5ffd5b505050506040513d601f19601f820116820180604052508101906146389190615731565b61464390600a615c2c565b90505f6001600160a01b038716156146c9576040516313b0be3360e01b8152600481018390526001600160a01b038a811660248301528816906313b0be3390604401602060405180830381865afa1580156146a0573d5f803e3d5ffd5b505050506040513d601f19601f820116820180604052508101906146c491906155bc565b6146cb565b815b9050806146e0670de0b6b3a76400008e615ada565b6146ea9190615b39565b93506146fa8487875f6002612aae565b92505050614799565b6040516370a0823160e01b81526001600160a01b0389811660048301525f91908816906370a0823190602401602060405180830381865afa15801561474a573d5f803e3d5ffd5b505050506040513d601f19601f8201168201806040525081019061476e91906155bc565b90508961477b828d615ada565b6147859190615b39565b91506147958286865f60026127fc565b9250505b9850989650505050505050565b5f6148138585856001600160a01b03166318160ddd6040518163ffffffff1660e01b8152600401602060405180830381865afa1580156147e8573d5f803e3d5ffd5b505050506040513d601f19601f8201168201806040525081019061480c91906155bc565b5f86612aae565b604051631339c64960e01b81529091506001600160a01b03841690631339c64990614846908a908a908690600401615598565b5f604051808303815f87803b15801561485d575f80fd5b505af115801561486f573d5f803e3d5ffd5b5050505050505050505050565b5f805f866001600160a01b03166318160ddd6040518163ffffffff1660e01b8152600401602060405180830381865afa1580156148bb573d5f803e3d5ffd5b505050506040513d601f19601f820116820180604052508101906148df91906155bc565b9050805f0361490157604051630686827b60e51b815260040160405180910390fd5b5f845f01549050614945875f0151886020015183855f60018d60a00151600181111561492f5761492f61540d565b60028111156149405761494061540d565b614c5a565b9094509250831580614955575082155b1561497357604051630686827b60e51b815260040160405180910390fd5b8584111561499457604051634323a55560e01b815260040160405180910390fd5b839003845560608601516080870151604051633dae446f60e21b81526001600160a01b038a169263f6b911bc926149cf928790600401615598565b5f604051808303815f87803b1580156149e6575f80fd5b505af11580156149f8573d5f803e3d5ffd5b505050506001600160a01b03881615614a25576040860151614a25906001600160a01b038a169085614cb0565b509550959350505050565b5f855f03614a3f57505f6114b3565b845f03614a4d5750846114b3565b835f03614a5b57505f6114b3565b5f614a6e670de0b6b3a764000087615ada565b9050848181614a7f57614a7f615af1565b046001019050808711614a95575f9150506114b3565b80870387848601820281614aab57614aab615af1565b0498975050505050505050565b5f80885f03614acb57505f905080614b5b565b835f03614adc57505f905080614b5b565b6001866001811115614af057614af061540d565b03614b1757878911614b025788614b04565b875b915082821115614b12578291505b614b29565b868911614b245788614b26565b865b91505b614b588286865f8a6001811115614b4257614b4261540d565b6002811115614b5357614b5361540d565b612aae565b90505b97509795505050505050565b634e487b715f52806020526024601cfd5b5f808215614b865782614bee565b6040516370a0823160e01b81526001600160a01b0385811660048301528616906370a0823190602401602060405180830381865afa158015614bca573d5f803e3d5ffd5b505050506040513d601f19601f82011682018060405250810190614bee91906155bc565b9150846001600160a01b03166318160ddd6040518163ffffffff1660e01b8152600401602060405180830381865afa158015614c2c573d5f803e3d5ffd5b505050506040513d601f19601f82011682018060405250810190614c5091906155bc565b9050935093915050565b5f80885f03614c79575086614c7281888888876127fc565b9150614b5b565b875f03614c9757614c8d8988888787612aae565b9050889150614b5b565b60405163785e338960e11b815260040160405180910390fd5b604080516001600160a01b038416602482015260448082018490528251808303909101815260649091019091526020810180516001600160e01b031663a9059cbb60e01b179052614d02908490614d07565b505050565b5f614d1b6001600160a01b03841683614d6d565b905080515f14158015614d3f575080806020019051810190614d3d919061588e565b155b15614d0257604051635274afe760e01b81526001600160a01b03841660048201526024015b60405180910390fd5b60606111c183835f845f80856001600160a01b03168486604051614d919190615c3a565b5f6040518083038185875af1925050503d805f8114614dcb576040519150601f19603f3d011682016040523d82523d5f602084013e614dd0565b606091505b5091509150611916868383606082614df057614deb82614e37565b6111c1565b8151158015614e0757506001600160a01b0384163b155b15614e3057604051639996b31560e01b81526001600160a01b0385166004820152602401614d64565b50806111c1565b805115614e475780518082602001fd5b60405163d6bda27560e01b815260040160405180910390fd5b50565b6001600160a01b0381168114614e60575f80fd5b803560028110614e85575f80fd5b919050565b5f805f8060808587031215614e9d575f80fd5b84359350602085013592506040850135614eb681614e63565b9150614ec460608601614e77565b905092959194509250565b8015158114614e60575f80fd5b5f805f8060808587031215614eef575f80fd5b843593506020850135614f0181614e63565b92506040850135614f1181614e63565b91506060850135614f2181614ecf565b939692955090935050565b5f5b83811015614f46578181015183820152602001614f2e565b50505f910152565b5f8151808452614f65816020860160208601614f2c565b601f01601f19169290920160200192915050565b602081525f6111c16020830184614f4e565b5f8060408385031215614f9c575f80fd5b8235614fa781614e63565b9150612cc060208401614e77565b5f60208284031215614fc5575f80fd5b5035919050565b5f8060408385031215614fdd575f80fd5b8235614fe881614e63565b946020939093013593505050565b5f8060408385031215615007575f80fd5b82359150612cc060208401614e77565b5f805f60608486031215615029575f80fd5b833561503481614e63565b9250602084013561504481614e63565b929592945050506040919091013590565b5f60208284031215615065575f80fd5b81356111c181614e63565b5f8060408385031215615081575f80fd5b823561508c81614e63565b9150602083013561509c81614e63565b809150509250929050565b5f8083601f8401126150b7575f80fd5b5081356001600160401b038111156150cd575f80fd5b602083019150836020828501011115612cc3575f80fd5b5f805f805f608086880312156150f8575f80fd5b853561510381614e63565b9450602086013561511381614e63565b93506040860135925060608601356001600160401b03811115615134575f80fd5b615140888289016150a7565b969995985093965092949392505050565b5f8060408385031215615162575f80fd5b8235915060208301356003811061509c575f80fd5b5f805f60608486031215615189575f80fd5b833561519481614e63565b95602085013595506040909401359392505050565b5f80604083850312156151ba575f80fd5b82359150602083013561509c81614e63565b5f805f805f8060a087890312156151e1575f80fd5b8635955060208701356151f381614e63565b9450604087013561520381614e63565b9350606087013561521381614ecf565b925060808701356001600160401b0381111561522d575f80fd5b61523989828a016150a7565b979a9699509497509295939492505050565b5f806040838503121561525c575f80fd5b823561526781614e63565b9150602083013561509c81614ecf565b5f805f60608486031215615289575f80fd5b83359250602084013561529b81614e63565b915060408401356152ab81614e63565b809150509250925092565b5f805f606084860312156152c8575f80fd5b8335925060208401356152da81614e63565b91506152e860408501614e77565b90509250925092565b5f805f8060808587031215615304575f80fd5b84359350602085013561531681614e63565b92506040850135614eb681614e63565b5f805f805f60a0868803121561533a575f80fd5b8535945060208601359350604086013561535381614e63565b9250606086013561536381614e63565b9150608086013561537381614ecf565b809150509295509295909350565b5f60208284031215615391575f80fd5b81356111c181614ecf565b5f805f80606085870312156153af575f80fd5b84356153ba81614e63565b93506020850135925060408501356001600160401b038111156153db575f80fd5b6153e7878288016150a7565b95989497509550505050565b8215158152604060208201525f6110fc6040830184614f4e565b634e487b7160e01b5f52602160045260245ffd5b6002811061543d57634e487b7160e01b5f52602160045260245ffd5b9052565b88815260208101889052604081018790526001600160a01b038616606082015261010081016154736080830187615421565b8460a08301528360c08301528260e08301529998505050505050505050565b5f80604083850312156154a3575f80fd5b505080516020909101519092909150565b634e487b7160e01b5f52604160045260245ffd5b60405161024081016001600160401b03811182821017156154eb576154eb6154b4565b60405290565b5f60208284031215615501575f80fd5b81516001600160401b0380821115615517575f80fd5b818401915084601f83011261552a575f80fd5b81518181111561553c5761553c6154b4565b604051601f8201601f19908116603f01168101908382118183101715615564576155646154b4565b8160405282815287602084870101111561557c575f80fd5b61558d836020830160208801614f2c565b979650505050505050565b6001600160a01b039384168152919092166020820152604081019190915260600190565b5f602082840312156155cc575f80fd5b5051919050565b8051614e8581614e63565b8051614e8581614ecf565b5f61024082840312156155fa575f80fd5b6156026154c8565b9050815181526020820151602082015261561e604083016155d3565b604082015261562f606083016155d3565b6060820152615640608083016155d3565b608082015261565160a083016155d3565b60a082015261566260c083016155d3565b60c082015261567360e083016155d3565b60e08201526101006156868184016155d3565b908201526101206156988382016155d3565b908201526101406156aa8382016155d3565b90820152610160828101519082015261018080830151908201526101a080830151908201526101c080830151908201526101e06156e88184016155d3565b908201526102006156fa8382016155d3565b9082015261022061570c8382016155de565b9082015292915050565b5f6102408284031215615727575f80fd5b6111c183836155e9565b5f60208284031215615741575f80fd5b815160ff811681146111c1575f80fd5b5f805f838503610500811215615765575f80fd5b61576f86866155e9565b935061577f8661024087016155e9565b9250608061047f1982011215615793575f80fd5b50604051608081018181106001600160401b03821117156157b6576157b66154b4565b6040526104808501516157c881614ecf565b81526104a08501516157d981614ecf565b60208201526104c08501516157ed81614ecf565b60408201526104e085015161580181614ecf565b606082015292959194509192509050565b5f60208284031215615822575f80fd5b81516111c181614e63565b8781526001600160a01b03878116602083015286166040820152606081018590526080810184905260c060a0820181905281018290525f828460e08401375f60e0848401015260e0601f19601f850116830101905098975050505050505050565b5f6020828403121561589e575f80fd5b81516111c181614ecf565b5f805f606084860312156158bb575f80fd5b83516158c681614e63565b60208501519093506158d781614e63565b60408501519092506152ab81614e63565b805162ffffff81168114614e85575f80fd5b5f806040838503121561590b575f80fd5b615914836158e8565b9150612cc0602084016158e8565b858152602081018590526001600160a01b038416604082015260a0810161594c6060830185615421565b8260808301529695505050505050565b818382375f9101908152919050565b5f6101408683528551602084015260208601516040840152604086015160018060a01b03808216606086015280606089015116608086015250506080860151151560a084015260a0860151151560c084015260c086015160e0840152846101008401528061012084015261558d81840185614f4e565b86815260208101869052604081018590526001600160a01b038416606082015260c08101615a126080830185615421565b8260a0830152979650505050505050565b5f610120820190508582528451602083015260208501516040830152604085015160018060a01b0380821660608501528060608801511660808501528060808801511660a0850152505060a0850151615a7f60c0840182615421565b5060e0820193909352610100015292915050565b5f805f8060808587031215615aa6575f80fd5b8451935060208501519250604085015191506060850151614f2181614e63565b634e487b7160e01b5f52601160045260245ffd5b80820281158282048414176111a4576111a4615ac6565b634e487b7160e01b5f52601260045260245ffd5b808201808211156111a4576111a4615ac6565b5f60ff831680615b2a57615b2a615af1565b8060ff84160691505092915050565b5f82615b4757615b47615af1565b500490565b600181815b80851115615b8657815f1904821115615b6c57615b6c615ac6565b80851615615b7957918102915b93841c9390800290615b51565b509250929050565b5f82615b9c575060016111a4565b81615ba857505f6111a4565b8160018114615bbe5760028114615bc857615be4565b60019150506111a4565b60ff841115615bd957615bd9615ac6565b50506001821b6111a4565b5060208310610133831016604e8410600b8410161715615c07575081810a6111a4565b615c118383615b4c565b805f1904821115615c2457615c24615ac6565b029392505050565b5f6111c160ff841683615b8e565b5f8251615c4b818460208701614f2c565b919091019291505056fec3a24b0501bd2c13a7e57f2db4369ec4c223447539fc0724a9d55ac4a06ebd4da15bc60c955c405d20d9149c709e2460f1c2d9a497496a7f46004d1772c3054ca26469706673582212204af8fd79f3ecaae3cbd9b932ddd5653dbe46da05c514c237244ba3b2a81c199364736f6c63430008180033",
  "language": "Solidity",
  "compiler": "0.8.24+commit.e11b9ed9"
}