{
  "address": "0x408822E4E8682413666809b0655161093cd36f2b",
  "abi": [
    {
      "inputs": [],
      "name": "BeforeCall",
      "type": "error"
    },
    {
      "inputs": [
        {
          "internalType": "address",
          "name": "asset0",
          "type": "address"
        },
        {
          "internalType": "address",
          "name": "asset1",
          "type": "address"
        }
      ],
      "name": "EmptySiloAsset",
      "type": "error"
    },
    {
      "inputs": [],
      "name": "InvalidDeployer",
      "type": "error"
    },
    {
      "inputs": [],
      "name": "InvalidFee",
      "type": "error"
    },
    {
      "inputs": [],
      "name": "InvalidIrm",
      "type": "error"
    },
    {
      "inputs": [],
      "name": "InvalidIrmConfig",
      "type": "error"
    },
    {
      "inputs": [],
      "name": "InvalidLt",
      "type": "error"
    },
    {
      "inputs": [],
      "name": "InvalidMaxLt",
      "type": "error"
    },
    {
      "inputs": [],
      "name": "InvalidMaxLtv",
      "type": "error"
    },
    {
      "inputs": [],
      "name": "MaxDeployerFee",
      "type": "error"
    },
    {
      "inputs": [],
      "name": "MaxFee",
      "type": "error"
    },
    {
      "inputs": [],
      "name": "MaxFlashloanFee",
      "type": "error"
    },
    {
      "inputs": [],
      "name": "MaxLiquidationFee",
      "type": "error"
    },
    {
      "inputs": [],
      "name": "OracleMisconfiguration",
      "type": "error"
    },
    {
      "inputs": [],
      "name": "SameAsset",
      "type": "error"
    },
    {
      "inputs": [],
      "name": "ZeroAddress",
      "type": "error"
    },
    {
      "anonymous": false,
      "inputs": [
        {
          "indexed": true,
          "internalType": "address",
          "name": "owner",
          "type": "address"
        },
        {
          "indexed": true,
          "internalType": "address",
          "name": "approved",
          "type": "address"
        },
        {
          "indexed": true,
          "internalType": "uint256",
          "name": "tokenId",
          "type": "uint256"
        }
      ],
      "name": "Approval",
      "type": "event"
    },
    {
      "anonymous": false,
      "inputs": [
        {
          "indexed": true,
          "internalType": "address",
          "name": "owner",
          "type": "address"
        },
        {
          "indexed": true,
          "internalType": "address",
          "name": "operator",
          "type": "address"
        },
        {
          "indexed": false,
          "internalType": "bool",
          "name": "approved",
          "type": "bool"
        }
      ],
      "name": "ApprovalForAll",
      "type": "event"
    },
    {
      "anonymous": false,
      "inputs": [
        {
          "indexed": false,
          "internalType": "uint256",
          "name": "daoFee",
          "type": "uint256"
        }
      ],
      "name": "DaoFeeChanged",
      "type": "event"
    },
    {
      "anonymous": false,
      "inputs": [
        {
          "indexed": false,
          "internalType": "address",
          "name": "daoFeeReceiver",
          "type": "address"
        }
      ],
      "name": "DaoFeeReceiverChanged",
      "type": "event"
    },
    {
      "anonymous": false,
      "inputs": [
        {
          "indexed": false,
          "internalType": "uint8",
          "name": "version",
          "type": "uint8"
        }
      ],
      "name": "Initialized",
      "type": "event"
    },
    {
      "anonymous": false,
      "inputs": [
        {
          "indexed": false,
          "internalType": "uint256",
          "name": "maxDeployerFee",
          "type": "uint256"
        }
      ],
      "name": "MaxDeployerFeeChanged",
      "type": "event"
    },
    {
      "anonymous": false,
      "inputs": [
        {
          "indexed": false,
          "internalType": "uint256",
          "name": "maxFlashloanFee",
          "type": "uint256"
        }
      ],
      "name": "MaxFlashloanFeeChanged",
      "type": "event"
    },
    {
      "anonymous": false,
      "inputs": [
        {
          "indexed": false,
          "internalType": "uint256",
          "name": "maxLiquidationFee",
          "type": "uint256"
        }
      ],
      "name": "MaxLiquidationFeeChanged",
      "type": "event"
    },
    {
      "anonymous": false,
      "inputs": [
        {
          "indexed": true,
          "internalType": "address",
          "name": "token0",
          "type": "address"
        },
        {
          "indexed": true,
          "internalType": "address",
          "name": "token1",
          "type": "address"
        },
        {
          "indexed": false,
          "internalType": "address",
          "name": "silo0",
          "type": "address"
        },
        {
          "indexed": false,
          "internalType": "address",
          "name": "silo1",
          "type": "address"
        },
        {
          "indexed": false,
          "internalType": "address",
          "name": "siloConfig",
          "type": "address"
        }
      ],
      "name": "NewSilo",
      "type": "event"
    },
    {
      "anonymous": false,
      "inputs": [
        {
          "indexed": true,
          "internalType": "address",
          "name": "previousOwner",
          "type": "address"
        },
        {
          "indexed": true,
          "internalType": "address",
          "name": "newOwner",
          "type": "address"
        }
      ],
      "name": "OwnershipTransferred",
      "type": "event"
    },
    {
      "anonymous": false,
      "inputs": [
        {
          "indexed": true,
          "internalType": "address",
          "name": "from",
          "type": "address"
        },
        {
          "indexed": true,
          "internalType": "address",
          "name": "to",
          "type": "address"
        },
        {
          "indexed": true,
          "internalType": "uint256",
          "name": "tokenId",
          "type": "uint256"
        }
      ],
      "name": "Transfer",
      "type": "event"
    },
    {
      "inputs": [],
      "name": "MAX_FEE",
      "outputs": [
        {
          "internalType": "uint256",
          "name": "",
          "type": "uint256"
        }
      ],
      "stateMutability": "view",
      "type": "function"
    },
    {
      "inputs": [],
      "name": "MAX_PERCENT",
      "outputs": [
        {
          "internalType": "uint256",
          "name": "",
          "type": "uint256"
        }
      ],
      "stateMutability": "view",
      "type": "function"
    },
    {
      "inputs": [
        {
          "internalType": "address",
          "name": "to",
          "type": "address"
        },
        {
          "internalType": "uint256",
          "name": "tokenId",
          "type": "uint256"
        }
      ],
      "name": "approve",
      "outputs": [],
      "stateMutability": "nonpayable",
      "type": "function"
    },
    {
      "inputs": [
        {
          "internalType": "address",
          "name": "owner",
          "type": "address"
        }
      ],
      "name": "balanceOf",
      "outputs": [
        {
          "internalType": "uint256",
          "name": "",
          "type": "uint256"
        }
      ],
      "stateMutability": "view",
      "type": "function"
    },
    {
      "inputs": [
        {
          "components": [
            {
              "internalType": "address",
              "name": "deployer",
              "type": "address"
            },
            {
              "internalType": "uint256",
              "name": "deployerFee",
              "type": "uint256"
            },
            {
              "internalType": "address",
              "name": "token0",
              "type": "address"
            },
            {
              "internalType": "address",
              "name": "solvencyOracle0",
              "type": "address"
            },
            {
              "internalType": "address",
              "name": "maxLtvOracle0",
              "type": "address"
            },
            {
              "internalType": "address",
              "name": "interestRateModel0",
              "type": "address"
            },
            {
              "internalType": "address",
              "name": "interestRateModelConfig0",
              "type": "address"
            },
            {
              "internalType": "uint256",
              "name": "maxLtv0",
              "type": "uint256"
            },
            {
              "internalType": "uint256",
              "name": "lt0",
              "type": "uint256"
            },
            {
              "internalType": "uint256",
              "name": "liquidationFee0",
              "type": "uint256"
            },
            {
              "internalType": "uint256",
              "name": "flashloanFee0",
              "type": "uint256"
            },
            {
              "internalType": "bool",
              "name": "callBeforeQuote0",
              "type": "bool"
            },
            {
              "internalType": "address",
              "name": "protectedHookReceiver0",
              "type": "address"
            },
            {
              "internalType": "address",
              "name": "collateralHookReceiver0",
              "type": "address"
            },
            {
              "internalType": "address",
              "name": "debtHookReceiver0",
              "type": "address"
            },
            {
              "internalType": "address",
              "name": "token1",
              "type": "address"
            },
            {
              "internalType": "address",
              "name": "solvencyOracle1",
              "type": "address"
            },
            {
              "internalType": "address",
              "name": "maxLtvOracle1",
              "type": "address"
            },
            {
              "internalType": "address",
              "name": "interestRateModel1",
              "type": "address"
            },
            {
              "internalType": "address",
              "name": "interestRateModelConfig1",
              "type": "address"
            },
            {
              "internalType": "uint256",
              "name": "maxLtv1",
              "type": "uint256"
            },
            {
              "internalType": "uint256",
              "name": "lt1",
              "type": "uint256"
            },
            {
              "internalType": "uint256",
              "name": "liquidationFee1",
              "type": "uint256"
            },
            {
              "internalType": "uint256",
              "name": "flashloanFee1",
              "type": "uint256"
            },
            {
              "internalType": "bool",
              "name": "callBeforeQuote1",
              "type": "bool"
            },
            {
              "internalType": "address",
              "name": "protectedHookReceiver1",
              "type": "address"
            },
            {
              "internalType": "address",
              "name": "collateralHookReceiver1",
              "type": "address"
            },
            {
              "internalType": "address",
              "name": "debtHookReceiver1",
              "type": "address"
            }
          ],
          "internalType": "struct ISiloConfig.InitData",
          "name": "_initData",
          "type": "tuple"
        }
      ],
      "name": "createSilo",
      "outputs": [
        {
          "internalType": "contract ISiloConfig",
          "name": "siloConfig",
          "type": "address"
        }
      ],
      "stateMutability": "nonpayable",
      "type": "function"
    },
    {
      "inputs": [],
      "name": "daoFee",
      "outputs": [
        {
          "internalType": "uint256",
          "name": "",
          "type": "uint256"
        }
      ],
      "stateMutability": "view",
      "type": "function"
    },
    {
      "inputs": [],
      "name": "daoFeeReceiver",
      "outputs": [
        {
          "internalType": "address",
          "name": "",
          "type": "address"
        }
      ],
      "stateMutability": "view",
      "type": "function"
    },
    {
      "inputs": [
        {
          "internalType": "uint256",
          "name": "tokenId",
          "type": "uint256"
        }
      ],
      "name": "getApproved",
      "outputs": [
        {
          "internalType": "address",
          "name": "",
          "type": "address"
        }
      ],
      "stateMutability": "view",
      "type": "function"
    },
    {
      "inputs": [
        {
          "internalType": "address",
          "name": "_silo",
          "type": "address"
        }
      ],
      "name": "getFeeReceivers",
      "outputs": [
        {
          "internalType": "address",
          "name": "dao",
          "type": "address"
        },
        {
          "internalType": "address",
          "name": "deployer",
          "type": "address"
        }
      ],
      "stateMutability": "view",
      "type": "function"
    },
    {
      "inputs": [],
      "name": "getNextSiloId",
      "outputs": [
        {
          "internalType": "uint256",
          "name": "",
          "type": "uint256"
        }
      ],
      "stateMutability": "view",
      "type": "function"
    },
    {
      "inputs": [
        {
          "internalType": "uint256",
          "name": "_id",
          "type": "uint256"
        }
      ],
      "name": "idToSilos",
      "outputs": [
        {
          "internalType": "address[2]",
          "name": "silos",
          "type": "address[2]"
        }
      ],
      "stateMutability": "view",
      "type": "function"
    },
    {
      "inputs": [
        {
          "internalType": "address",
          "name": "_siloImpl",
          "type": "address"
        },
        {
          "internalType": "address",
          "name": "_shareCollateralTokenImpl",
          "type": "address"
        },
        {
          "internalType": "address",
          "name": "_shareDebtTokenImpl",
          "type": "address"
        },
        {
          "internalType": "uint256",
          "name": "_daoFee",
          "type": "uint256"
        },
        {
          "internalType": "address",
          "name": "_daoFeeReceiver",
          "type": "address"
        }
      ],
      "name": "initialize",
      "outputs": [],
      "stateMutability": "nonpayable",
      "type": "function"
    },
    {
      "inputs": [
        {
          "internalType": "address",
          "name": "owner",
          "type": "address"
        },
        {
          "internalType": "address",
          "name": "operator",
          "type": "address"
        }
      ],
      "name": "isApprovedForAll",
      "outputs": [
        {
          "internalType": "bool",
          "name": "",
          "type": "bool"
        }
      ],
      "stateMutability": "view",
      "type": "function"
    },
    {
      "inputs": [
        {
          "internalType": "address",
          "name": "_silo",
          "type": "address"
        }
      ],
      "name": "isSilo",
      "outputs": [
        {
          "internalType": "bool",
          "name": "",
          "type": "bool"
        }
      ],
      "stateMutability": "view",
      "type": "function"
    },
    {
      "inputs": [],
      "name": "maxDeployerFee",
      "outputs": [
        {
          "internalType": "uint256",
          "name": "",
          "type": "uint256"
        }
      ],
      "stateMutability": "view",
      "type": "function"
    },
    {
      "inputs": [],
      "name": "maxFlashloanFee",
      "outputs": [
        {
          "internalType": "uint256",
          "name": "",
          "type": "uint256"
        }
      ],
      "stateMutability": "view",
      "type": "function"
    },
    {
      "inputs": [],
      "name": "maxLiquidationFee",
      "outputs": [
        {
          "internalType": "uint256",
          "name": "",
          "type": "uint256"
        }
      ],
      "stateMutability": "view",
      "type": "function"
    },
    {
      "inputs": [],
      "name": "name",
      "outputs": [
        {
          "internalType": "string",
          "name": "",
          "type": "string"
        }
      ],
      "stateMutability": "view",
      "type": "function"
    },
    {
      "inputs": [],
      "name": "owner",
      "outputs": [
        {
          "internalType": "address",
          "name": "",
          "type": "address"
        }
      ],
      "stateMutability": "view",
      "type": "function"
    },
    {
      "inputs": [
        {
          "internalType": "uint256",
          "name": "tokenId",
          "type": "uint256"
        }
      ],
      "name": "ownerOf",
      "outputs": [
        {
          "internalType": "address",
          "name": "",
          "type": "address"
        }
      ],
      "stateMutability": "view",
      "type": "function"
    },
    {
      "inputs": [],
      "name": "renounceOwnership",
      "outputs": [],
      "stateMutability": "nonpayable",
      "type": "function"
    },
    {
      "inputs": [
        {
          "internalType": "address",
          "name": "from",
          "type": "address"
        },
        {
          "internalType": "address",
          "name": "to",
          "type": "address"
        },
        {
          "internalType": "uint256",
          "name": "tokenId",
          "type": "uint256"
        }
      ],
      "name": "safeTransferFrom",
      "outputs": [],
      "stateMutability": "nonpayable",
      "type": "function"
    },
    {
      "inputs": [
        {
          "internalType": "address",
          "name": "from",
          "type": "address"
        },
        {
          "internalType": "address",
          "name": "to",
          "type": "address"
        },
        {
          "internalType": "uint256",
          "name": "tokenId",
          "type": "uint256"
        },
        {
          "internalType": "bytes",
          "name": "data",
          "type": "bytes"
        }
      ],
      "name": "safeTransferFrom",
      "outputs": [],
      "stateMutability": "nonpayable",
      "type": "function"
    },
    {
      "inputs": [
        {
          "internalType": "address",
          "name": "operator",
          "type": "address"
        },
        {
          "internalType": "bool",
          "name": "approved",
          "type": "bool"
        }
      ],
      "name": "setApprovalForAll",
      "outputs": [],
      "stateMutability": "nonpayable",
      "type": "function"
    },
    {
      "inputs": [
        {
          "internalType": "uint256",
          "name": "_newDaoFee",
          "type": "uint256"
        }
      ],
      "name": "setDaoFee",
      "outputs": [],
      "stateMutability": "nonpayable",
      "type": "function"
    },
    {
      "inputs": [
        {
          "internalType": "address",
          "name": "_newDaoFeeReceiver",
          "type": "address"
        }
      ],
      "name": "setDaoFeeReceiver",
      "outputs": [],
      "stateMutability": "nonpayable",
      "type": "function"
    },
    {
      "inputs": [
        {
          "internalType": "uint256",
          "name": "_newMaxDeployerFee",
          "type": "uint256"
        }
      ],
      "name": "setMaxDeployerFee",
      "outputs": [],
      "stateMutability": "nonpayable",
      "type": "function"
    },
    {
      "inputs": [
        {
          "internalType": "uint256",
          "name": "_newMaxFlashloanFee",
          "type": "uint256"
        }
      ],
      "name": "setMaxFlashloanFee",
      "outputs": [],
      "stateMutability": "nonpayable",
      "type": "function"
    },
    {
      "inputs": [
        {
          "internalType": "uint256",
          "name": "_newMaxLiquidationFee",
          "type": "uint256"
        }
      ],
      "name": "setMaxLiquidationFee",
      "outputs": [],
      "stateMutability": "nonpayable",
      "type": "function"
    },
    {
      "inputs": [],
      "name": "shareCollateralTokenImpl",
      "outputs": [
        {
          "internalType": "address",
          "name": "",
          "type": "address"
        }
      ],
      "stateMutability": "view",
      "type": "function"
    },
    {
      "inputs": [],
      "name": "shareDebtTokenImpl",
      "outputs": [
        {
          "internalType": "address",
          "name": "",
          "type": "address"
        }
      ],
      "stateMutability": "view",
      "type": "function"
    },
    {
      "inputs": [],
      "name": "siloImpl",
      "outputs": [
        {
          "internalType": "address",
          "name": "",
          "type": "address"
        }
      ],
      "stateMutability": "view",
      "type": "function"
    },
    {
      "inputs": [
        {
          "internalType": "address",
          "name": "silo",
          "type": "address"
        }
      ],
      "name": "siloToId",
      "outputs": [
        {
          "internalType": "uint256",
          "name": "id",
          "type": "uint256"
        }
      ],
      "stateMutability": "view",
      "type": "function"
    },
    {
      "inputs": [
        {
          "internalType": "bytes4",
          "name": "interfaceId",
          "type": "bytes4"
        }
      ],
      "name": "supportsInterface",
      "outputs": [
        {
          "internalType": "bool",
          "name": "",
          "type": "bool"
        }
      ],
      "stateMutability": "view",
      "type": "function"
    },
    {
      "inputs": [],
      "name": "symbol",
      "outputs": [
        {
          "internalType": "string",
          "name": "",
          "type": "string"
        }
      ],
      "stateMutability": "view",
      "type": "function"
    },
    {
      "inputs": [
        {
          "internalType": "uint256",
          "name": "tokenId",
          "type": "uint256"
        }
      ],
      "name": "tokenURI",
      "outputs": [
        {
          "internalType": "string",
          "name": "",
          "type": "string"
        }
      ],
      "stateMutability": "view",
      "type": "function"
    },
    {
      "inputs": [
        {
          "internalType": "address",
          "name": "from",
          "type": "address"
        },
        {
          "internalType": "address",
          "name": "to",
          "type": "address"
        },
        {
          "internalType": "uint256",
          "name": "tokenId",
          "type": "uint256"
        }
      ],
      "name": "transferFrom",
      "outputs": [],
      "stateMutability": "nonpayable",
      "type": "function"
    },
    {
      "inputs": [
        {
          "internalType": "address",
          "name": "newOwner",
          "type": "address"
        }
      ],
      "name": "transferOwnership",
      "outputs": [],
      "stateMutability": "nonpayable",
      "type": "function"
    },
    {
      "inputs": [
        {
          "components": [
            {
              "internalType": "address",
              "name": "deployer",
              "type": "address"
            },
            {
              "internalType": "uint256",
              "name": "deployerFee",
              "type": "uint256"
            },
            {
              "internalType": "address",
              "name": "token0",
              "type": "address"
            },
            {
              "internalType": "address",
              "name": "solvencyOracle0",
              "type": "address"
            },
            {
              "internalType": "address",
              "name": "maxLtvOracle0",
              "type": "address"
            },
            {
              "internalType": "address",
              "name": "interestRateModel0",
              "type": "address"
            },
            {
              "internalType": "address",
              "name": "interestRateModelConfig0",
              "type": "address"
            },
            {
              "internalType": "uint256",
              "name": "maxLtv0",
              "type": "uint256"
            },
            {
              "internalType": "uint256",
              "name": "lt0",
              "type": "uint256"
            },
            {
              "internalType": "uint256",
              "name": "liquidationFee0",
              "type": "uint256"
            },
            {
              "internalType": "uint256",
              "name": "flashloanFee0",
              "type": "uint256"
            },
            {
              "internalType": "bool",
              "name": "callBeforeQuote0",
              "type": "bool"
            },
            {
              "internalType": "address",
              "name": "protectedHookReceiver0",
              "type": "address"
            },
            {
              "internalType": "address",
              "name": "collateralHookReceiver0",
              "type": "address"
            },
            {
              "internalType": "address",
              "name": "debtHookReceiver0",
              "type": "address"
            },
            {
              "internalType": "address",
              "name": "token1",
              "type": "address"
            },
            {
              "internalType": "address",
              "name": "solvencyOracle1",
              "type": "address"
            },
            {
              "internalType": "address",
              "name": "maxLtvOracle1",
              "type": "address"
            },
            {
              "internalType": "address",
              "name": "interestRateModel1",
              "type": "address"
            },
            {
              "internalType": "address",
              "name": "interestRateModelConfig1",
              "type": "address"
            },
            {
              "internalType": "uint256",
              "name": "maxLtv1",
              "type": "uint256"
            },
            {
              "internalType": "uint256",
              "name": "lt1",
              "type": "uint256"
            },
            {
              "internalType": "uint256",
              "name": "liquidationFee1",
              "type": "uint256"
            },
            {
              "internalType": "uint256",
              "name": "flashloanFee1",
              "type": "uint256"
            },
            {
              "internalType": "bool",
              "name": "callBeforeQuote1",
              "type": "bool"
            },
            {
              "internalType": "address",
              "name": "protectedHookReceiver1",
              "type": "address"
            },
            {
              "internalType": "address",
              "name": "collateralHookReceiver1",
              "type": "address"
            },
            {
              "internalType": "address",
              "name": "debtHookReceiver1",
              "type": "address"
            }
          ],
          "internalType": "struct ISiloConfig.InitData",
          "name": "_initData",
          "type": "tuple"
        }
      ],
      "name": "validateSiloInitData",
      "outputs": [
        {
          "internalType": "bool",
          "name": "",
          "type": "bool"
        }
      ],
      "stateMutability": "view",
      "type": "function"
    }
  ],
  "bytecode": "0x608060405234801561001057600080fd5b50614c2f806100206000396000f3fe60806040523480156200001157600080fd5b50600436106200026d5760003560e01c806363fcc73f1162000155578063b20ff79011620000c7578063e93919b81162000086578063e93919b81462000587578063e985e9c514620005ad578063ec5283a014620005ec578063eeb016f21462000603578063f2fde38b146200060d57600080fd5b8063b20ff790146200050f578063b88d4fde1462000532578063bc063e1a1462000549578063bc2ef3f31462000559578063c87b56dd146200057057600080fd5b806395d89b41116200011457806395d89b4114620004b6578063a22cb46514620004c0578063a4c3e27214620004d7578063ab12bf8014620004e1578063b14a25a814620004f857600080fd5b806363fcc73f14620004655780636abd4e19146200046f57806370a082311462000483578063715018a6146200049a5780638da5cb5b14620004a457600080fd5b806323b872dd11620001ef5780635410b1a911620001ae5780635410b1a914620003f8578063552490e6146200040f57806356bf27ae146200042357806361ed96f5146200043a5780636352211e146200044e57600080fd5b806323b872dd146200039f5780632957b83914620003b657806342842e0e14620003c057806349f33f2e14620003d7578063530b97a414620003e157600080fd5b8063095ea7b3116200023c578063095ea7b314620002fe5780631036bbe2146200031757806312f0dcd81462000336578063181a0a7214620003645780632396ef0c146200038b57600080fd5b806301ffc9a7146200027257806304b729e4146200029e57806306fdde0314620002ce578063081812fc14620002e7575b600080fd5b6200028962000283366004620027ee565b62000624565b60405190151581526020015b60405180910390f35b620002b5620002af366004620028ae565b62000678565b6040516001600160a01b03909116815260200162000295565b620002d86200093e565b60405162000295919062002af8565b620002b5620002f836600462002b0d565b620009d8565b620003156200030f36600462002b27565b62000a01565b005b62000327670de0b6b3a764000081565b60405190815260200162000295565b620002896200034736600462002b54565b6001600160a01b0316600090815260d36020526040902054151590565b6200037b6200037536600462002b54565b62000b25565b6040516200029592919062002b72565b60cf54620002b5906001600160a01b031681565b62000315620003b036600462002b8c565b62000b71565b6200032760ca5481565b62000315620003d136600462002b8c565b62000ba9565b6200032762000bc6565b62000315620003f236600462002bcd565b62000bd7565b620003156200040936600462002b0d565b62000e3f565b60d154620002b5906001600160a01b031681565b620003156200043436600462002b0d565b62000e57565b60ce54620002b5906001600160a01b031681565b620002b56200045f36600462002b0d565b62000e6c565b6200032760cc5481565b60d054620002b5906001600160a01b031681565b620003276200049436600462002b54565b62000ece565b6200031562000f56565b6097546001600160a01b0316620002b5565b620002d862000f6e565b62000315620004d136600462002c34565b62000f7f565b6200032760cb5481565b62000315620004f236600462002b54565b62000f90565b620003156200050936600462002b0d565b62000fa5565b620003276200052036600462002b54565b60d36020526000908152604090205481565b620003156200054336600462002c6c565b62000fba565b6200032767058d15e17628000081565b620003156200056a36600462002b0d565b62000ff9565b620002d86200058136600462002b0d565b6200100e565b6200059e6200059836600462002b0d565b620010b0565b60405162000295919062002d39565b62000289620005be36600462002d75565b6001600160a01b039182166000908152606a6020908152604080832093909416825291909152205460ff1690565b62000289620005fd366004620028ae565b62001104565b6200032760cd5481565b620003156200061e36600462002b54565b62001511565b60006001600160e01b031982166380ac58cd60e01b14806200065657506001600160e01b03198216635b5e139f60e01b145b806200067257506301ffc9a760e01b6001600160e01b03198316145b92915050565b6000620006858262001104565b5060008062000694846200158d565b915091506000620006a460c95490565b9050620006b560c980546001019055565b60ca548084528252620006c9838362001732565b60cf54620006e0906001600160a01b0316620017f6565b6001600160a01b03908116604085015260cf54620006ff9116620017f6565b6001600160a01b0316604080840191909152518190849084906200072390620026b3565b620007319392919062002ece565b604051809103906000f0801580156200074e573d6000803e3d6000fd5b50935082604001516001600160a01b031663485cc955858760c001516040518363ffffffff1660e01b81526004016200078992919062002b72565b600060405180830381600087803b158015620007a457600080fd5b505af1158015620007b9573d6000803e3d6000fd5b5050505081604001516001600160a01b031663485cc955858761026001516040518363ffffffff1660e01b8152600401620007f692919062002b72565b600060405180830381600087803b1580156200081157600080fd5b505af115801562000826573d6000803e3d6000fd5b505050506200083783838762001892565b604080840180516001600160a01b03908116600090815260d3602090815284822086905586850180518416835285832087905585518087018752945184168552519092168383015284815260d29091529190912062000898916002620026c1565b5084516001600160a01b031615620008b8578451620008b8908262001b3d565b81608001516001600160a01b031683608001516001600160a01b03167f14581c35c816c9e78ddb2643fc50083788783d932b9fac097874be56ce1f2dcc85604001518560400151886040516200092e939291906001600160a01b0393841681529183166020830152909116604082015260600190565b60405180910390a3505050919050565b6060606580546200094f9062002ef5565b80601f01602080910402602001604051908101604052809291908181526020018280546200097d9062002ef5565b8015620009ce5780601f10620009a257610100808354040283529160200191620009ce565b820191906000526020600020905b815481529060010190602001808311620009b057829003601f168201915b5050505050905090565b6000620009e58262001cce565b506000908152606960205260409020546001600160a01b031690565b600062000a0e8262000e6c565b9050806001600160a01b0316836001600160a01b03160362000a815760405162461bcd60e51b815260206004820152602160248201527f4552433732313a20617070726f76616c20746f2063757272656e74206f776e656044820152603960f91b60648201526084015b60405180910390fd5b336001600160a01b038216148062000aa0575062000aa08133620005be565b62000b145760405162461bcd60e51b815260206004820152603d60248201527f4552433732313a20617070726f76652063616c6c6572206973206e6f7420746f60448201527f6b656e206f776e6572206f7220617070726f76656420666f7220616c6c000000606482015260840162000a78565b62000b20838362001d2f565b505050565b60ce546001600160a01b03828116600090815260d3602052604081205490928392169062000b68906000908152606760205260409020546001600160a01b031690565b91509150915091565b62000b7d338262001d9f565b62000b9c5760405162461bcd60e51b815260040162000a789062002f31565b62000b2083838362001e24565b62000b208383836040518060200160405280600081525062000fba565b600062000bd260c95490565b905090565b600054610100900460ff161580801562000bf85750600054600160ff909116105b8062000c145750303b15801562000c14575060005460ff166001145b62000c795760405162461bcd60e51b815260206004820152602e60248201527f496e697469616c697a61626c653a20636f6e747261637420697320616c72656160448201526d191e481a5b9a5d1a585b1a5e995960921b606482015260840162000a78565b6000805460ff19166001179055801562000c9d576000805461ff0019166101001790555b62000cfd6040518060400160405280601981526020017f53696c6f2046696e616e636520466565205265636569766572000000000000008152506040518060400160405280600781526020016666656553494c4f60c81b81525062001f94565b62000d0762001fca565b62000d1660c980546001019055565b6001600160a01b038616158062000d3457506001600160a01b038516155b8062000d4757506001600160a01b038416155b1562000d665760405163d92e233d60e01b815260040160405180910390fd5b60cf80546001600160a01b038089166001600160a01b03199283161790925560d0805488841690831617905560d1805492871692909116919091179055670214e8348c4f000080670429d069189e000062000dc18662001ffe565b62000dcc8562002064565b62000dd783620020db565b62000de2826200213a565b62000ded8162002199565b505050801562000e37576000805461ff0019169055604051600181527f7f26b83ff96e1f2b6a682f133852f6798a09c465da95921460cefb38474024989060200160405180910390a15b505050505050565b62000e49620021f8565b62000e5481620020db565b50565b62000e61620021f8565b62000e54816200213a565b6000818152606760205260408120546001600160a01b031680620006725760405162461bcd60e51b8152602060048201526018602482015277115490cdcc8c4e881a5b9d985b1a59081d1bdad95b88125160421b604482015260640162000a78565b60006001600160a01b03821662000f3a5760405162461bcd60e51b815260206004820152602960248201527f4552433732313a2061646472657373207a65726f206973206e6f7420612076616044820152683634b21037bbb732b960b91b606482015260840162000a78565b506001600160a01b031660009081526068602052604090205490565b62000f60620021f8565b62000f6c600062002254565b565b6060606680546200094f9062002ef5565b62000f8c338383620022a6565b5050565b62000f9a620021f8565b62000e548162002064565b62000faf620021f8565b62000e548162001ffe565b62000fc6338362001d9f565b62000fe55760405162461bcd60e51b815260040162000a789062002f31565b62000ff38484848462002376565b50505050565b62001003620021f8565b62000e548162002199565b60606200101b8262001cce565b60006200105860408051808201909152601881527f2f2f6170702e73696c6f2e66696e616e63652f73696c6f2f0000000000000000602082015290565b905060008151116200107a5760405180602001604052806000815250620010a9565b806200108684620023b0565b6040516020016200109992919062002f7e565b6040516020818303038152906040525b9392505050565b620010ba6200271e565b600082815260d26020526040908190208151808301928390529160029082845b81546001600160a01b03168152600190910190602001808311620010da5750505050509050919050565b6000816101e001516001600160a01b031682604001516001600160a01b031603620011425760405163534c524d60e11b815260040160405180910390fd5b60e0820151158015620011585750610280820151155b1562001177576040516375fcbb8960e01b815260040160405180910390fd5b8161010001518260e001511115620011a2576040516375fcbb8960e01b815260040160405180910390fd5b816102a001518261028001511115620011ce576040516375fcbb8960e01b815260040160405180910390fd5b670de0b6b3a76400008261010001511180620011f65750670de0b6b3a7640000826102a00151115b1562001215576040516313fd16a560e11b815260040160405180910390fd5b60808201516001600160a01b0316158015906200123d575060608201516001600160a01b0316155b156200125c5760405163952268d360e01b815260040160405180910390fd5b81610160015180156200127a575060608201516001600160a01b0316155b15620012995760405163040075f160e51b815260040160405180910390fd5b6102208201516001600160a01b031615801590620012c357506102008201516001600160a01b0316155b15620012e25760405163952268d360e01b815260040160405180910390fd5b81610300015180156200130157506102008201516001600160a01b0316155b15620013205760405163040075f160e51b815260040160405180910390fd5b600082602001511180156200133d575081516001600160a01b0316155b156200135c5760405163043c669f60e01b815260040160405180910390fd5b60cb5482602001511115620013845760405163589a63d960e01b815260040160405180910390fd5b60cc548261014001511115620013ad5760405163e88639bf60e01b815260040160405180910390fd5b60cc54826102e001511115620013d65760405163e88639bf60e01b815260040160405180910390fd5b60cd548261012001511115620013ff57604051638ef8260d60e01b815260040160405180910390fd5b60cd54826102c0015111156200142857604051638ef8260d60e01b815260040160405180910390fd5b60c08201516001600160a01b031615806200144f57506102608201516001600160a01b0316155b156200146e57604051630283cdcf60e51b815260040160405180910390fd5b60a08201516001600160a01b031615806200149557506102408201516001600160a01b0316155b15620014b457604051632e4e395f60e01b815260040160405180910390fd5b60408201516001600160a01b03161580620014db57506101e08201516001600160a01b0316155b1562001509578160400151826101e00151604051639092351d60e01b815260040162000a7892919062002b72565b506001919050565b6200151b620021f8565b6001600160a01b038116620015825760405162461bcd60e51b815260206004820152602660248201527f4f776e61626c653a206e6577206f776e657220697320746865207a65726f206160448201526564647265737360d01b606482015260840162000a78565b62000e548162002254565b620015976200273c565b620015a16200273c565b60408301516001600160a01b03908116608080850191909152606085015182166101008501528401511615620015dc578260800151620015e2565b82606001515b6001600160a01b039081166101208085019190915260a08501519091166101408085019190915260e08501516101608086019190915261010086015161018086015260208087015190860152918501516101a08501528401516101c084015283015180156200165e57506101208201516001600160a01b031615155b15156101e0808401919091528301516001600160a01b03908116608083015261020084015181166101008301526102208401511615620016a457826102200151620016ab565b8261020001515b6001600160a01b03908116610120830152610240840151166101408201526102808301516101608201526102a0830151610180820152602080840151908201526102c08301516101a08201526102e08301516101c082015261030083015180156200172357506101208101516001600160a01b031615155b15156101e08201529092909150565b60d05462001749906001600160a01b0316620017f6565b6001600160a01b0390811660a084015260d054620017689116620017f6565b6001600160a01b0390811660c084015260d154620017879116620017f6565b6001600160a01b0390811660e084015260d054620017a69116620017f6565b6001600160a01b0390811660a083015260d054620017c59116620017f6565b6001600160a01b0390811660c083015260d154620017e49116620017f6565b6001600160a01b031660e09091015250565b6000763d602d80600a3d3981f3363d3d373d3d3d363d730000008260601b60e81c176000526e5af43d82803e903d91602b57fd5bf38260781b17602052603760096000f090506001600160a01b0381166200188d5760405162461bcd60e51b8152602060048201526016602482015275115490cc4c4d8dce8818dc99585d194819985a5b195960521b604482015260640162000a78565b919050565b8260a001516001600160a01b031663485cc95584604001518361018001516040518363ffffffff1660e01b8152600401620018cf92919062002b72565b600060405180830381600087803b158015620018ea57600080fd5b505af1158015620018ff573d6000803e3d6000fd5b505050508260c001516001600160a01b031663485cc9558460400151836101a001516040518363ffffffff1660e01b81526004016200194092919062002b72565b600060405180830381600087803b1580156200195b57600080fd5b505af115801562001970573d6000803e3d6000fd5b505050508260e001516001600160a01b031663485cc9558460400151836101c001516040518363ffffffff1660e01b8152600401620019b192919062002b72565b600060405180830381600087803b158015620019cc57600080fd5b505af1158015620019e1573d6000803e3d6000fd5b505050508160a001516001600160a01b031663485cc95583604001518361032001516040518363ffffffff1660e01b815260040162001a2292919062002b72565b600060405180830381600087803b15801562001a3d57600080fd5b505af115801562001a52573d6000803e3d6000fd5b505050508160c001516001600160a01b031663485cc95583604001518361034001516040518363ffffffff1660e01b815260040162001a9392919062002b72565b600060405180830381600087803b15801562001aae57600080fd5b505af115801562001ac3573d6000803e3d6000fd5b505050508160e001516001600160a01b031663485cc95583604001518361036001516040518363ffffffff1660e01b815260040162001b0492919062002b72565b600060405180830381600087803b15801562001b1f57600080fd5b505af115801562001b34573d6000803e3d6000fd5b50505050505050565b6001600160a01b03821662001b955760405162461bcd60e51b815260206004820181905260248201527f4552433732313a206d696e7420746f20746865207a65726f2061646472657373604482015260640162000a78565b6000818152606760205260409020546001600160a01b03161562001bfc5760405162461bcd60e51b815260206004820152601c60248201527f4552433732313a20746f6b656e20616c7265616479206d696e74656400000000604482015260640162000a78565b6000818152606760205260409020546001600160a01b03161562001c635760405162461bcd60e51b815260206004820152601c60248201527f4552433732313a20746f6b656e20616c7265616479206d696e74656400000000604482015260640162000a78565b6001600160a01b038216600081815260686020908152604080832080546001019055848352606790915280822080546001600160a01b0319168417905551839291907fddf252ad1be2c89b69c2b068fc378daa952ba7f163c4a11628f55a4df523b3ef908290a45050565b6000818152606760205260409020546001600160a01b031662000e545760405162461bcd60e51b8152602060048201526018602482015277115490cdcc8c4e881a5b9d985b1a59081d1bdad95b88125160421b604482015260640162000a78565b600081815260696020526040902080546001600160a01b0319166001600160a01b038416908117909155819062001d668262000e6c565b6001600160a01b03167f8c5be1e5ebec7d5bd14f71427d1e84f3dd0314c0f7b2291e5b200ac8c7c3b92560405160405180910390a45050565b60008062001dad8362000e6c565b9050806001600160a01b0316846001600160a01b0316148062001df557506001600160a01b038082166000908152606a602090815260408083209388168352929052205460ff165b8062001e1c5750836001600160a01b031662001e1184620009d8565b6001600160a01b0316145b949350505050565b826001600160a01b031662001e398262000e6c565b6001600160a01b03161462001e625760405162461bcd60e51b815260040162000a789062002fb1565b6001600160a01b03821662001ec65760405162461bcd60e51b8152602060048201526024808201527f4552433732313a207472616e7366657220746f20746865207a65726f206164646044820152637265737360e01b606482015260840162000a78565b826001600160a01b031662001edb8262000e6c565b6001600160a01b03161462001f045760405162461bcd60e51b815260040162000a789062002fb1565b600081815260696020908152604080832080546001600160a01b03199081169091556001600160a01b0387811680865260688552838620805460001901905590871680865283862080546001019055868652606790945282852080549092168417909155905184937fddf252ad1be2c89b69c2b068fc378daa952ba7f163c4a11628f55a4df523b3ef91a4505050565b600054610100900460ff1662001fbe5760405162461bcd60e51b815260040162000a789062002ff6565b62000f8c82826200244a565b600054610100900460ff1662001ff45760405162461bcd60e51b815260040162000a789062002ff6565b62000f6c62002491565b67058d15e176280000811115620020285760405163e3ca8ad560e01b815260040160405180910390fd5b60ca8190556040518181527f4fad9480b42671731d484ac2e96b50de7c154624b63f3d3eb30c38dc6ebfb0c7906020015b60405180910390a150565b6001600160a01b0381166200208c5760405163d92e233d60e01b815260040160405180910390fd5b60ce80546001600160a01b0319166001600160a01b0383169081179091556040519081527fd4d4983241668aa2825c51b20af727fb71c4842fec0f87360e3a242e420d8a309060200162002059565b67058d15e1762800008110620021045760405163e3ca8ad560e01b815260040160405180910390fd5b60cb8190556040518181527f2d968512555a43164b980ee73a764cfa2aecd7305806fda33d94fdca1bc6d4cf9060200162002059565b67058d15e1762800008110620021635760405163e3ca8ad560e01b815260040160405180910390fd5b60cc8190556040518181527fb85fdb9b20a2472208897b9903ae1a3e943769ab70ef74e679ecd80ec2ab50209060200162002059565b67058d15e1762800008110620021c25760405163e3ca8ad560e01b815260040160405180910390fd5b60cd8190556040518181527f0565ffb26c5ec0ddf0975584b3c48758d8486aea008bd280bf2c98f2464f441f9060200162002059565b6097546001600160a01b0316331462000f6c5760405162461bcd60e51b815260206004820181905260248201527f4f776e61626c653a2063616c6c6572206973206e6f7420746865206f776e6572604482015260640162000a78565b609780546001600160a01b038381166001600160a01b0319831681179093556040519116919082907f8be0079c531659141344cd1fd0a4f28419497f9722a3daafe3b4186f6b6457e090600090a35050565b816001600160a01b0316836001600160a01b031603620023095760405162461bcd60e51b815260206004820152601960248201527f4552433732313a20617070726f766520746f2063616c6c657200000000000000604482015260640162000a78565b6001600160a01b038381166000818152606a6020908152604080832094871680845294825291829020805460ff191686151590811790915591519182527f17307eab39ab6107e8899845ad3d59bd9653f200f220920489ca2b5937696c31910160405180910390a3505050565b6200238384848462001e24565b6200239184848484620024c6565b62000ff35760405162461bcd60e51b815260040162000a789062003041565b60606000620023bf83620025d4565b600101905060008167ffffffffffffffff811115620023e257620023e26200280e565b6040519080825280601f01601f1916602001820160405280156200240d576020820181803683370190505b5090508181016020015b600019016f181899199a1a9b1b9c1cb0b131b232b360811b600a86061a8153600a85049450846200241757509392505050565b600054610100900460ff16620024745760405162461bcd60e51b815260040162000a789062002ff6565b6065620024828382620030dd565b50606662000b208282620030dd565b600054610100900460ff16620024bb5760405162461bcd60e51b815260040162000a789062002ff6565b62000f6c3362002254565b60006001600160a01b0384163b15620025c957604051630a85bd0160e11b81526001600160a01b0385169063150b7a02906200250d903390899088908890600401620031aa565b6020604051808303816000875af19250505080156200254b575060408051601f3d908101601f191682019092526200254891810190620031e9565b60015b620025ae573d8080156200257c576040519150601f19603f3d011682016040523d82523d6000602084013e62002581565b606091505b508051600003620025a65760405162461bcd60e51b815260040162000a789062003041565b805181602001fd5b6001600160e01b031916630a85bd0160e11b14905062001e1c565b506001949350505050565b60008072184f03e93ff9f4daa797ed6e38ed64bf6a1f0160401b8310620026145772184f03e93ff9f4daa797ed6e38ed64bf6a1f0160401b830492506040015b6d04ee2d6d415b85acef8100000000831062002641576d04ee2d6d415b85acef8100000000830492506020015b662386f26fc1000083106200266057662386f26fc10000830492506010015b6305f5e100831062002679576305f5e100830492506008015b61271083106200268e57612710830492506004015b60648310620026a1576064830492506002015b600a8310620006725760010192915050565b6119f0806200320a83390190565b82600281019282156200270c579160200282015b828111156200270c57825182546001600160a01b0319166001600160a01b03909116178255602090920191600190910190620026d5565b506200271a929150620027c0565b5090565b60405180604001604052806002906020820280368337509192915050565b6040805161020081018252600080825260208201819052918101829052606081018290526080810182905260a0810182905260c0810182905260e08101829052610100810182905261012081018290526101408101829052610160810182905261018081018290526101a081018290526101c081018290526101e081019190915290565b5b808211156200271a5760008155600101620027c1565b6001600160e01b03198116811462000e5457600080fd5b6000602082840312156200280157600080fd5b8135620010a981620027d7565b634e487b7160e01b600052604160045260246000fd5b604051610380810167ffffffffffffffff811182821017156200284b576200284b6200280e565b60405290565b604051601f8201601f1916810167ffffffffffffffff811182821017156200287d576200287d6200280e565b604052919050565b80356001600160a01b03811681146200188d57600080fd5b803580151581146200188d57600080fd5b60006103808284031215620028c257600080fd5b620028cc62002824565b620028d78362002885565b815260208301356020820152620028f16040840162002885565b6040820152620029046060840162002885565b6060820152620029176080840162002885565b60808201526200292a60a0840162002885565b60a08201526200293d60c0840162002885565b60c082015260e083810135908201526101008084013590820152610120808401359082015261014080840135908201526101606200297d8185016200289d565b908201526101806200299184820162002885565b908201526101a0620029a584820162002885565b908201526101c0620029b984820162002885565b908201526101e0620029cd84820162002885565b90820152610200620029e184820162002885565b90820152610220620029f584820162002885565b9082015261024062002a0984820162002885565b9082015261026062002a1d84820162002885565b9082015261028083810135908201526102a080840135908201526102c080840135908201526102e0808401359082015261030062002a5d8185016200289d565b9082015261032062002a7184820162002885565b9082015261034062002a8584820162002885565b9082015261036062002a9984820162002885565b908201529392505050565b60005b8381101562002ac157818101518382015260200162002aa7565b50506000910152565b6000815180845262002ae481602086016020860162002aa4565b601f01601f19169290920160200192915050565b602081526000620010a9602083018462002aca565b60006020828403121562002b2057600080fd5b5035919050565b6000806040838503121562002b3b57600080fd5b62002b468362002885565b946020939093013593505050565b60006020828403121562002b6757600080fd5b620010a98262002885565b6001600160a01b0392831681529116602082015260400190565b60008060006060848603121562002ba257600080fd5b62002bad8462002885565b925062002bbd6020850162002885565b9150604084013590509250925092565b600080600080600060a0868803121562002be657600080fd5b62002bf18662002885565b945062002c016020870162002885565b935062002c116040870162002885565b92506060860135915062002c286080870162002885565b90509295509295909350565b6000806040838503121562002c4857600080fd5b62002c538362002885565b915062002c63602084016200289d565b90509250929050565b6000806000806080858703121562002c8357600080fd5b62002c8e8562002885565b9350602062002c9f81870162002885565b935060408601359250606086013567ffffffffffffffff8082111562002cc457600080fd5b818801915088601f83011262002cd957600080fd5b81358181111562002cee5762002cee6200280e565b62002d02601f8201601f1916850162002851565b9150808252898482850101111562002d1957600080fd5b808484018584013760008482840101525080935050505092959194509250565b60408101818360005b600281101562002d6c5781516001600160a01b031683526020928301929091019060010162002d42565b50505092915050565b6000806040838503121562002d8957600080fd5b62002d948362002885565b915062002c636020840162002885565b8051825260208101516020830152604081015162002dcd60408401826001600160a01b03169052565b50606081015162002de960608401826001600160a01b03169052565b50608081015162002e0560808401826001600160a01b03169052565b5060a081015162002e2160a08401826001600160a01b03169052565b5060c081015162002e3d60c08401826001600160a01b03169052565b5060e081015162002e5960e08401826001600160a01b03169052565b50610100818101516001600160a01b0390811691840191909152610120808301518216908401526101408083015190911690830152610160808201519083015261018080820151908301526101a080820151908301526101c080820151908301526101e0808201518015158285015262000ff3565b838152610420810162002ee5602083018562002da4565b62001e1c61022083018462002da4565b600181811c9082168062002f0a57607f821691505b60208210810362002f2b57634e487b7160e01b600052602260045260246000fd5b50919050565b6020808252602d908201527f4552433732313a2063616c6c6572206973206e6f7420746f6b656e206f776e6560408201526c1c881bdc88185c1c1c9bdd9959609a1b606082015260800190565b6000835162002f9281846020880162002aa4565b83519083019062002fa881836020880162002aa4565b01949350505050565b60208082526025908201527f4552433732313a207472616e736665722066726f6d20696e636f72726563742060408201526437bbb732b960d91b606082015260800190565b6020808252602b908201527f496e697469616c697a61626c653a20636f6e7472616374206973206e6f74206960408201526a6e697469616c697a696e6760a81b606082015260800190565b60208082526032908201527f4552433732313a207472616e7366657220746f206e6f6e20455243373231526560408201527131b2b4bb32b91034b6b83632b6b2b73a32b960711b606082015260800190565b601f82111562000b2057600081815260208120601f850160051c81016020861015620030bc5750805b601f850160051c820191505b8181101562000e3757828155600101620030c8565b815167ffffffffffffffff811115620030fa57620030fa6200280e565b62003112816200310b845462002ef5565b8462003093565b602080601f8311600181146200314a5760008415620031315750858301515b600019600386901b1c1916600185901b17855562000e37565b600085815260208120601f198616915b828110156200317b578886015182559484019460019091019084016200315a565b50858210156200319a5787850151600019600388901b60f8161c191681555b5050505050600190811b01905550565b6001600160a01b0385811682528416602082015260408101839052608060608201819052600090620031df9083018462002aca565b9695505050505050565b600060208284031215620031fc57600080fd5b8151620010a981620027d756fe6104206040523480156200001257600080fd5b50604051620019f0380380620019f08339810160408190526200003591620002e4565b6080928352815160a0908152602083015160c09081526040808501516001600160a01b0390811660e0908152868801518216610100908152858801518316610120908152858901518416610140908152838a01518516610160908152838b01518616610180908152838c015187166101a0908152838d015188166101c0908152838e01516101e0908152838f015161020052828f015161022052818f0151610240529d8e0151151561026052988c01518816610280529c8b015187166102a052988a015186166102c0529689015185166102e052928801518416610300529087015183166103205286015182166103405285015116610360529083015161038052908201516103a052928101516103c052918201516103e052015115156104005262000329565b60405161020081016001600160401b03811182821017156200018e57634e487b7160e01b600052604160045260246000fd5b60405290565b80516001600160a01b0381168114620001ac57600080fd5b919050565b80518015158114620001ac57600080fd5b60006102008284031215620001d657600080fd5b620001e06200015c565b90508151815260208201516020820152620001fe6040830162000194565b6040820152620002116060830162000194565b6060820152620002246080830162000194565b60808201526200023760a0830162000194565b60a08201526200024a60c0830162000194565b60c08201526200025d60e0830162000194565b60e08201526101006200027281840162000194565b908201526101206200028683820162000194565b908201526101406200029a83820162000194565b90820152610160828101519082015261018080830151908201526101a080830151908201526101c080830151908201526101e0620002da818401620001b1565b9082015292915050565b60008060006104208486031215620002fb57600080fd5b835192506200030e8560208601620001c2565b915062000320856102208601620001c2565b90509250925092565b60805160a05160c05160e05161010051610120516101405161016051610180516101a0516101c0516101e05161020051610220516102405161026051610280516102a0516102c0516102e05161030051610320516103405161036051610380516103a0516103c0516103e051610400516113c96200062760003960008181610ae2015261116401526000818161052c01528181610abc015261113e015260008181610a960152611118015260008181610a7001526110f2015260008181610a4a01526110cc015260008181610a1b015261109d0152600081816109ec015261106e0152600081816109bd015261103f0152600081816104070152818161098e01526110100152600081816103e40152818161095f0152610fe10152600081816103c1015281816109300152610fb201526000818161029d0152818161054f015281816109010152610f830152600081816101930152818161026301528181610387015281816104f201528181610611015281816108a301528181610b4d01528181610c5701528181610e940152610f250152600081816108210152610e670152600081816104a9015281816107fb0152610e410152600081816107d50152610e1b0152600081816107af0152610df50152600081816107890152610dcf01526000818161075a0152610da001526000818161072b0152610d710152600081816106fc0152610d42015260008181610361015281816106cd0152610d1301526000818161033e0152818161069e0152610ce401526000818161031b0152818161066f0152610cb501526000818161023d015281816104cc015281816106400152610c8601526000818161016e01528181610203015281816102e10152818161047d015281816105e2015281816108d201528181610b0a01528181610b9701528181610c280152610f54015260008181610451015281816105bc0152818161087d01528181610c020152610eff015260008181610430015281816105960152818161085701528181610bdc0152610ed90152600060b701526113c96000f3fe608060405234801561001057600080fd5b506004361061007d5760003560e01c8063a135e0a01161005b578063a135e0a014610124578063aecc90cb14610160578063c7b4d16a146101be578063e48a5f7b146101df57600080fd5b806307439b4914610082578063189e17e4146100b2578063483b24f0146100e7575b600080fd5b610095610090366004611213565b6101ff565b6040516001600160a01b0390911681526020015b60405180910390f35b6100d97f000000000000000000000000000000000000000000000000000000000000000081565b6040519081526020016100a9565b6100fa6100f5366004611213565b6102da565b604080516001600160a01b03948516815292841660208401529216918101919091526060016100a9565b610137610132366004611213565b61042e565b604080519485526020850193909352918301526001600160a01b031660608201526080016100a9565b604080516001600160a01b037f0000000000000000000000000000000000000000000000000000000000000000811682527f0000000000000000000000000000000000000000000000000000000000000000166020820152016100a9565b6101d16101cc366004611213565b610576565b6040516100a9929190611361565b6101f26101ed366004611213565b610b8d565b6040516100a9919061137e565b60007f00000000000000000000000000000000000000000000000000000000000000006001600160a01b0316826001600160a01b03160361026157507f0000000000000000000000000000000000000000000000000000000000000000919050565b7f00000000000000000000000000000000000000000000000000000000000000006001600160a01b0316826001600160a01b0316036102c157507f0000000000000000000000000000000000000000000000000000000000000000919050565b6040516349d73a2760e01b815260040160405180910390fd5b60008060007f00000000000000000000000000000000000000000000000000000000000000006001600160a01b0316846001600160a01b03160361038557507f000000000000000000000000000000000000000000000000000000000000000091507f000000000000000000000000000000000000000000000000000000000000000090507f0000000000000000000000000000000000000000000000000000000000000000610427565b7f00000000000000000000000000000000000000000000000000000000000000006001600160a01b0316846001600160a01b0316036102c157507f000000000000000000000000000000000000000000000000000000000000000091507f000000000000000000000000000000000000000000000000000000000000000090507f00000000000000000000000000000000000000000000000000000000000000005b9193909250565b7f00000000000000000000000000000000000000000000000000000000000000007f00000000000000000000000000000000000000000000000000000000000000006000806001600160a01b037f00000000000000000000000000000000000000000000000000000000000000008116908616036104f057507f000000000000000000000000000000000000000000000000000000000000000090507f000000000000000000000000000000000000000000000000000000000000000061056f565b7f00000000000000000000000000000000000000000000000000000000000000006001600160a01b0316856001600160a01b0316036102c157507f000000000000000000000000000000000000000000000000000000000000000090507f00000000000000000000000000000000000000000000000000000000000000005b9193509193565b61057e61118f565b61058661118f565b60006040518061020001604052807f000000000000000000000000000000000000000000000000000000000000000081526020017f000000000000000000000000000000000000000000000000000000000000000081526020017f00000000000000000000000000000000000000000000000000000000000000006001600160a01b031681526020017f00000000000000000000000000000000000000000000000000000000000000006001600160a01b031681526020017f00000000000000000000000000000000000000000000000000000000000000006001600160a01b031681526020017f00000000000000000000000000000000000000000000000000000000000000006001600160a01b031681526020017f00000000000000000000000000000000000000000000000000000000000000006001600160a01b031681526020017f00000000000000000000000000000000000000000000000000000000000000006001600160a01b031681526020017f00000000000000000000000000000000000000000000000000000000000000006001600160a01b031681526020017f00000000000000000000000000000000000000000000000000000000000000006001600160a01b031681526020017f00000000000000000000000000000000000000000000000000000000000000006001600160a01b031681526020017f000000000000000000000000000000000000000000000000000000000000000081526020017f000000000000000000000000000000000000000000000000000000000000000081526020017f000000000000000000000000000000000000000000000000000000000000000081526020017f000000000000000000000000000000000000000000000000000000000000000081526020017f00000000000000000000000000000000000000000000000000000000000000001515815250905060006040518061020001604052807f000000000000000000000000000000000000000000000000000000000000000081526020017f000000000000000000000000000000000000000000000000000000000000000081526020017f00000000000000000000000000000000000000000000000000000000000000006001600160a01b031681526020017f00000000000000000000000000000000000000000000000000000000000000006001600160a01b031681526020017f00000000000000000000000000000000000000000000000000000000000000006001600160a01b031681526020017f00000000000000000000000000000000000000000000000000000000000000006001600160a01b031681526020017f00000000000000000000000000000000000000000000000000000000000000006001600160a01b031681526020017f00000000000000000000000000000000000000000000000000000000000000006001600160a01b031681526020017f00000000000000000000000000000000000000000000000000000000000000006001600160a01b031681526020017f00000000000000000000000000000000000000000000000000000000000000006001600160a01b031681526020017f00000000000000000000000000000000000000000000000000000000000000006001600160a01b031681526020017f000000000000000000000000000000000000000000000000000000000000000081526020017f000000000000000000000000000000000000000000000000000000000000000081526020017f000000000000000000000000000000000000000000000000000000000000000081526020017f000000000000000000000000000000000000000000000000000000000000000081526020017f0000000000000000000000000000000000000000000000000000000000000000151581525090507f00000000000000000000000000000000000000000000000000000000000000006001600160a01b0316856001600160a01b031603610b4b579094909350915050565b7f00000000000000000000000000000000000000000000000000000000000000006001600160a01b0316856001600160a01b0316036102c15794909350915050565b610b9561118f565b7f00000000000000000000000000000000000000000000000000000000000000006001600160a01b0316826001600160a01b031603610e92576040518061020001604052807f000000000000000000000000000000000000000000000000000000000000000081526020017f000000000000000000000000000000000000000000000000000000000000000081526020017f00000000000000000000000000000000000000000000000000000000000000006001600160a01b031681526020017f00000000000000000000000000000000000000000000000000000000000000006001600160a01b031681526020017f00000000000000000000000000000000000000000000000000000000000000006001600160a01b031681526020017f00000000000000000000000000000000000000000000000000000000000000006001600160a01b031681526020017f00000000000000000000000000000000000000000000000000000000000000006001600160a01b031681526020017f00000000000000000000000000000000000000000000000000000000000000006001600160a01b031681526020017f00000000000000000000000000000000000000000000000000000000000000006001600160a01b031681526020017f00000000000000000000000000000000000000000000000000000000000000006001600160a01b031681526020017f00000000000000000000000000000000000000000000000000000000000000006001600160a01b031681526020017f000000000000000000000000000000000000000000000000000000000000000081526020017f000000000000000000000000000000000000000000000000000000000000000081526020017f000000000000000000000000000000000000000000000000000000000000000081526020017f000000000000000000000000000000000000000000000000000000000000000081526020017f000000000000000000000000000000000000000000000000000000000000000015158152509050919050565b7f00000000000000000000000000000000000000000000000000000000000000006001600160a01b0316826001600160a01b0316036102c1576040518061020001604052807f000000000000000000000000000000000000000000000000000000000000000081526020017f000000000000000000000000000000000000000000000000000000000000000081526020017f00000000000000000000000000000000000000000000000000000000000000006001600160a01b031681526020017f00000000000000000000000000000000000000000000000000000000000000006001600160a01b031681526020017f00000000000000000000000000000000000000000000000000000000000000006001600160a01b031681526020017f00000000000000000000000000000000000000000000000000000000000000006001600160a01b031681526020017f00000000000000000000000000000000000000000000000000000000000000006001600160a01b031681526020017f00000000000000000000000000000000000000000000000000000000000000006001600160a01b031681526020017f00000000000000000000000000000000000000000000000000000000000000006001600160a01b031681526020017f00000000000000000000000000000000000000000000000000000000000000006001600160a01b031681526020017f00000000000000000000000000000000000000000000000000000000000000006001600160a01b031681526020017f000000000000000000000000000000000000000000000000000000000000000081526020017f000000000000000000000000000000000000000000000000000000000000000081526020017f000000000000000000000000000000000000000000000000000000000000000081526020017f000000000000000000000000000000000000000000000000000000000000000081526020017f000000000000000000000000000000000000000000000000000000000000000015158152509050919050565b6040805161020081018252600080825260208201819052918101829052606081018290526080810182905260a0810182905260c0810182905260e08101829052610100810182905261012081018290526101408101829052610160810182905261018081018290526101a081018290526101c081018290526101e081019190915290565b60006020828403121561122557600080fd5b81356001600160a01b038116811461123c57600080fd5b9392505050565b8051825260208101516020830152604081015161126b60408401826001600160a01b03169052565b50606081015161128660608401826001600160a01b03169052565b5060808101516112a160808401826001600160a01b03169052565b5060a08101516112bc60a08401826001600160a01b03169052565b5060c08101516112d760c08401826001600160a01b03169052565b5060e08101516112f260e08401826001600160a01b03169052565b50610100818101516001600160a01b0390811691840191909152610120808301518216908401526101408083015190911690830152610160808201519083015261018080820151908301526101a080820151908301526101c080820151908301526101e0908101511515910152565b61040081016113708285611243565b61123c610200830184611243565b610200810161138d8284611243565b9291505056fea26469706673582212207ca1ee6d7cbd67710e4945058ab50b41943aff18dad1bf879f1c154cb7a12d3764736f6c63430008150033a26469706673582212200b6a24a746fac6c6b5f731b97c89af1c2ec798d37e456ba7ff97a7395dda5f7564736f6c63430008150033",
  "language": "Solidity",
  "compiler": "0.8.21+commit.d9974bed"
}