{
  "address": "0xB14F20982F2d1E5933362f5A796736D9ffa220E4",
  "abi": [
    {
      "inputs": [
        {
          "internalType": "contract ISilo",
          "name": "_silo",
          "type": "address"
        },
        {
          "internalType": "address",
          "name": "_borrower",
          "type": "address"
        }
      ],
      "name": "collateralBalanceOfUnderlying",
      "outputs": [
        {
          "internalType": "uint256",
          "name": "borrowerCollateral",
          "type": "uint256"
        }
      ],
      "stateMutability": "view",
      "type": "function"
    },
    {
      "inputs": [
        {
          "internalType": "contract ISilo",
          "name": "_silo",
          "type": "address"
        },
        {
          "internalType": "address",
          "name": "",
          "type": "address"
        },
        {
          "internalType": "address",
          "name": "_borrower",
          "type": "address"
        }
      ],
      "name": "collateralBalanceOfUnderlying",
      "outputs": [
        {
          "internalType": "uint256",
          "name": "borrowerCollateral",
          "type": "uint256"
        }
      ],
      "stateMutability": "view",
      "type": "function"
    },
    {
      "inputs": [
        {
          "internalType": "contract ISilo",
          "name": "_silo",
          "type": "address"
        },
        {
          "internalType": "address",
          "name": "",
          "type": "address"
        },
        {
          "internalType": "address",
          "name": "_borrower",
          "type": "address"
        }
      ],
      "name": "debtBalanceOfUnderlying",
      "outputs": [
        {
          "internalType": "uint256",
          "name": "",
          "type": "uint256"
        }
      ],
      "stateMutability": "view",
      "type": "function"
    },
    {
      "inputs": [
        {
          "internalType": "contract ISilo",
          "name": "_silo",
          "type": "address"
        },
        {
          "internalType": "address",
          "name": "_borrower",
          "type": "address"
        }
      ],
      "name": "debtBalanceOfUnderlying",
      "outputs": [
        {
          "internalType": "uint256",
          "name": "borrowerDebt",
          "type": "uint256"
        }
      ],
      "stateMutability": "view",
      "type": "function"
    },
    {
      "inputs": [
        {
          "internalType": "contract ISilo",
          "name": "_silo",
          "type": "address"
        }
      ],
      "name": "getFeesAndFeeReceivers",
      "outputs": [
        {
          "internalType": "address",
          "name": "daoFeeReceiver",
          "type": "address"
        },
        {
          "internalType": "address",
          "name": "deployerFeeReceiver",
          "type": "address"
        },
        {
          "internalType": "uint256",
          "name": "daoFee",
          "type": "uint256"
        },
        {
          "internalType": "uint256",
          "name": "deployerFee",
          "type": "uint256"
        }
      ],
      "stateMutability": "view",
      "type": "function"
    },
    {
      "inputs": [
        {
          "internalType": "contract ISilo",
          "name": "_silo",
          "type": "address"
        }
      ],
      "name": "getLt",
      "outputs": [
        {
          "internalType": "uint256",
          "name": "lt",
          "type": "uint256"
        }
      ],
      "stateMutability": "view",
      "type": "function"
    },
    {
      "inputs": [
        {
          "internalType": "contract ISilo",
          "name": "_silo",
          "type": "address"
        },
        {
          "internalType": "address",
          "name": "_borrower",
          "type": "address"
        }
      ],
      "name": "getLtv",
      "outputs": [
        {
          "internalType": "uint256",
          "name": "ltv",
          "type": "uint256"
        }
      ],
      "stateMutability": "view",
      "type": "function"
    },
    {
      "inputs": [
        {
          "internalType": "contract ISilo",
          "name": "_silo",
          "type": "address"
        }
      ],
      "name": "getMaxLtv",
      "outputs": [
        {
          "internalType": "uint256",
          "name": "maxLtv",
          "type": "uint256"
        }
      ],
      "stateMutability": "view",
      "type": "function"
    },
    {
      "inputs": [
        {
          "internalType": "contract ISilo",
          "name": "_silo",
          "type": "address"
        }
      ],
      "name": "getRawLiquidity",
      "outputs": [
        {
          "internalType": "uint256",
          "name": "liquidity",
          "type": "uint256"
        }
      ],
      "stateMutability": "view",
      "type": "function"
    }
  ],
  "bytecode": "0x608060405234801561000f575f80fd5b506119678061001d5f395ff3fe608060405234801561000f575f80fd5b5060043610610090575f3560e01c8063af82d2bc11610063578063af82d2bc1461011e578063b003ec1414610131578063d9bd0ea214610144578063f2a07bc914610157578063f5125d3f1461016a575f80fd5b8063249a64961461009457806337febff4146100d7578063647e0c20146100f85780636c15c9ba1461010b575b5f80fd5b6100a76100a2366004611547565b61017d565b604080516001600160a01b0395861681529490931660208501529183015260608201526080015b60405180910390f35b6100ea6100e5366004611547565b61019a565b6040519081526020016100ce565b6100ea610106366004611547565b6101b3565b6100ea610119366004611562565b6101c6565b6100ea61012c366004611599565b6101d8565b6100ea61013f366004611599565b61024b565b6100ea610152366004611562565b610256565b6100ea610165366004611547565b6102c1565b6100ea610178366004611562565b6102d4565b5f805f8061018a856102e8565b5092989197509550909350915050565b5f6101ad826001600160a01b031661049c565b92915050565b5f6101ad826001600160a01b0316610573565b5f6101d1838361064a565b9392505050565b604051635f30114960e01b81526001600160a01b0382811660048301525f9190851690635f30114990602401602060405180830381865afa15801561021f573d5f803e3d5ffd5b505050506040513d601f19601f8201168201806040525081019061024391906115e1565b949350505050565b5f610243848361064a565b604051635f30114960e01b81526001600160a01b0382811660048301525f9190841690635f30114990602401602060405180830381865afa15801561029d573d5f803e3d5ffd5b505050506040513d601f19601f820116820180604052508101906101d191906115e1565b5f6101ad826001600160a01b03166108f0565b5f6101d16001600160a01b038416836109c9565b5f805f805f856001600160a01b03166379502c556040518163ffffffff1660e01b8152600401602060405180830381865afa158015610329573d5f803e3d5ffd5b505050506040513d601f19601f8201168201806040525081019061034d91906115f8565b604051630509af0560e51b81526001600160a01b038881166004830152919091169063a135e0a090602401608060405180830381865afa158015610393573d5f803e3d5ffd5b505050506040513d601f19601f820116820180604052508101906103b79190611623565b9050809350819450829550505050856001600160a01b031663c45a01556040518163ffffffff1660e01b8152600401602060405180830381865afa158015610401573d5f803e3d5ffd5b505050506040513d601f19601f8201168201806040525081019061042591906115f8565b604051630c0d053960e11b81526001600160a01b038881166004830152919091169063181a0a72906024016040805180830381865afa15801561046a573d5f803e3d5ffd5b505050506040513d601f19601f8201168201806040525081019061048e9190611661565b909790965092945090925090565b5f816001600160a01b03166379502c556040518163ffffffff1660e01b8152600401602060405180830381865afa1580156104d9573d5f803e3d5ffd5b505050506040513d601f19601f820116820180604052508101906104fd91906115f8565b60405163e48a5f7b60e01b81526001600160a01b038481166004830152919091169063e48a5f7b9060240161020060405180830381865afa158015610544573d5f803e3d5ffd5b505050506040513d601f19601f8201168201806040525081019061056891906117dc565b610160015192915050565b5f816001600160a01b03166379502c556040518163ffffffff1660e01b8152600401602060405180830381865afa1580156105b0573d5f803e3d5ffd5b505050506040513d601f19601f820116820180604052508101906105d491906115f8565b60405163e48a5f7b60e01b81526001600160a01b038481166004830152919091169063e48a5f7b9060240161020060405180830381865afa15801561061b573d5f803e3d5ffd5b505050506040513d601f19601f8201168201806040525081019061063f91906117dc565b610140015192915050565b5f805f846001600160a01b03166379502c556040518163ffffffff1660e01b8152600401602060405180830381865afa158015610689573d5f803e3d5ffd5b505050506040513d601f19601f820116820180604052508101906106ad91906115f8565b604051630483b24f60e41b81526001600160a01b038781166004830152919091169063483b24f090602401606060405180830381865afa1580156106f3573d5f803e3d5ffd5b505050506040513d601f19601f8201168201806040525081019061071791906117f7565b506040516370a0823160e01b81526001600160a01b0387811660048301529294509092505f918416906370a0823190602401602060405180830381865afa158015610764573d5f803e3d5ffd5b505050506040513d601f19601f8201168201806040525081019061078891906115e1565b6040516370a0823160e01b81526001600160a01b0387811660048301529192505f918416906370a0823190602401602060405180830381865afa1580156107d1573d5f803e3d5ffd5b505050506040513d601f19601f820116820180604052508101906107f591906115e1565b9050811561086d5760405163a7d6e44b60e01b81526001600160a01b0388169063a7d6e44b9061082b9085905f9060040161184a565b602060405180830381865afa158015610846573d5f803e3d5ffd5b505050506040513d601f19601f8201168201806040525081019061086a91906115e1565b94505b80156108e65760405163a7d6e44b60e01b81526001600160a01b0388169063a7d6e44b906108a290849060019060040161184a565b602060405180830381865afa1580156108bd573d5f803e3d5ffd5b505050506040513d601f19601f820116820180604052508101906108e191906115e1565b850194505b5050505092915050565b604051630805bcfb60e31b8152600160048201525f906101ad906001600160a01b0384169063402de7d890602401602060405180830381865afa158015610939573d5f803e3d5ffd5b505050506040513d601f19601f8201168201806040525081019061095d91906115e1565b604051630805bcfb60e31b8152600260048201526001600160a01b0385169063402de7d890602401602060405180830381865afa1580156109a0573d5f803e3d5ffd5b505050506040513d601f19601f820116820180604052508101906109c491906115e1565b610b46565b5f805f846001600160a01b03166379502c556040518163ffffffff1660e01b8152600401602060405180830381865afa158015610a08573d5f803e3d5ffd5b505050506040513d601f19601f82011682018060405250810190610a2c91906115f8565b6040516394c0527d60e01b81526001600160a01b03868116600483015291909116906394c0527d9060240161040060405180830381865afa158015610a73573d5f803e3d5ffd5b505050506040513d601f19601f82011682018060405250810190610a97919061187a565b604081015191935091506001600160a01b031615610b3e57610b3b8282865f60018660c001516001600160a01b03166370a082318b6040518263ffffffff1660e01b8152600401610af791906001600160a01b0391909116815260200190565b602060405180830381865afa158015610b12573d5f803e3d5ffd5b505050506040513d601f19601f82011682018060405250810190610b3691906115e1565b610b5e565b92505b505092915050565b5f828211610b56578183036101d1565b5f9392505050565b5f815f03610b6d57505f610bab565b5f610b7c888888888888610bb5565b905080608001515f03610b92575f915050610bab565b610ba58189606001518960600151610e2f565b93505050505b9695505050505050565b610bf46040518060a001604052805f6001600160a01b031681526020015f6001600160a01b031681526020015f81526020015f81526020015f81525090565b85606001516001600160a01b031687606001516001600160a01b031614610c5e576001846001811115610c2957610c29611836565b14610c3d578660e001518660e00151610c4a565b8661010001518661010001515b6001600160a01b0390811660208401521681525b5f80610c6f8960800151885f610e85565b80935081925050505f808a604001516001600160a01b031663ffbaaf7a6040518163ffffffff1660e01b81526004016040805180830381865afa158015610cb8573d5f803e3d5ffd5b505050506040513d601f19601f82011682018060405250810190610cdc91906118af565b91509150610ced8382865f80610f6d565b604086015260a08b0151610d02908a5f610e85565b945092506001876001811115610d1a57610d1a611836565b14610d255781610d41565b610d418b604001518c61012001518d5f01518e60200151610faa565b9150610d518383865f6001610f6d565b606086015260c08a0151610d66908a88610e85565b945092505f6001886001811115610d7f57610d7f611836565b14610df65760408b8101519051630805bcfb60e31b8152600260048201526001600160a01b039091169063402de7d890602401602060405180830381865afa158015610dcd573d5f803e3d5ffd5b505050506040513d601f19601f82011682018060405250810190610df191906115e1565b610e09565b610e098b604001518c61012001516110a0565b9050610e1a84828760016002610f6d565b608087015250939a9950505050505050505050565b5f805f610e3d86868661118f565b909350915082158015610e4e575081155b15610e6057505f915081905080610e7c565b825f03610e6f57505f19610e7c565b610e7982846112db565b90505b93509350939050565b5f80825f03610eff5760405163dce5c2db60e01b81526001600160a01b03858116600483015286169063dce5c2db906024016040805180830381865afa158015610ed1573d5f803e3d5ffd5b505050506040513d601f19601f82011682018060405250810190610ef591906118af565b9092509050610f65565b829150846001600160a01b03166318160ddd6040518163ffffffff1660e01b8152600401602060405180830381865afa158015610f3e573d5f803e3d5ffd5b505050506040513d601f19601f82011682018060405250810190610f6291906115e1565b90505b935093915050565b5f805f610f7b8787866112f1565b91509150815f03610f90578792505050610fa1565b610f9c88828488611333565b925050505b95945050505050565b6040516367efe7fd60e11b81526001600160a01b0385811660048301524260248301525f91829186169063cfdfcffa90604401602060405180830381865afa158015610ff8573d5f803e3d5ffd5b505050506040513d601f19601f8201168201806040525081019061101c91906115e1565b90505f80876001600160a01b03166339c5c5056040518163ffffffff1660e01b81526004016040805180830381865afa15801561105b573d5f803e3d5ffd5b505050506040513d601f19601f8201168201806040525081019061107f91906118af565b915091506110908282858989611375565b50919a9950505050505050505050565b6040516367efe7fd60e11b81526001600160a01b0383811660048301524260248301525f91829184169063cfdfcffa90604401602060405180830381865afa1580156110ee573d5f803e3d5ffd5b505050506040513d601f19601f8201168201806040525081019061111291906115e1565b604051630805bcfb60e31b815260026004820152909150611186906001600160a01b0386169063402de7d890602401602060405180830381865afa15801561115c573d5f803e3d5ffd5b505050506040513d601f19601f8201168201806040525081019061118091906115e1565b826113bd565b50949350505050565b606083015160408401515f91829101801561122e5785516001600160a01b03166111b9578061122b565b85516040516313b0be3360e01b8152600481018390526001600160a01b038781166024830152909116906313b0be3390604401602060405180830381865afa158015611207573d5f803e3d5ffd5b505050506040513d601f19601f8201168201806040525081019061122b91906115e1565b92505b6080860151156112d25760208601516001600160a01b03166112545785608001516112cf565b602086015160808701516040516313b0be3360e01b815260048101919091526001600160a01b038681166024830152909116906313b0be3390604401602060405180830381865afa1580156112ab573d5f803e3d5ffd5b505050506040513d601f19601f820116820180604052508101906112cf91906115e1565b91505b50935093915050565b5f6101d183670de0b6b3a7640000846001611333565b5f80835f036112fe575f94505b600283600281111561131257611312611836565b14611324576001840185600101611327565b83855b90969095509350505050565b5f61136061134083611436565b801561135b57505f8480611356576113566118d1565b868809115b151590565b61136b868686611462565b610fa191906118e5565b5f805f8061138388886113bd565b9093509050670de0b6b3a764000086860182020491508181038919818110156113aa578091505b818b019550505095509550955095915050565b5f808315806113ca575082155b156113d957508290505f61142f565b670de0b6b3a76400008404835f19816113f4576113f46118d1565b0411156114165761140f8484670de0b6b3a76400005f611333565b905061141a565b505f195b831980821115611428578091505b8185019250505b9250929050565b5f600282600381111561144b5761144b611836565b6114559190611904565b60ff166001149050919050565b5f838302815f1985870982811083820303915050805f036114965783828161148c5761148c6118d1565b04925050506101d1565b8084116114b4576114b484156114ad57601161151f565b601261151f565b5f848688095f868103871696879004966002600389028118808a02820302808a02820302808a02820302808a02820302808a02820302808a02909103029181900381900460010186841190950394909402919094039290920491909117919091029150509392505050565b634e487b715f52806020526024601cfd5b6001600160a01b0381168114611544575f80fd5b50565b5f60208284031215611557575f80fd5b81356101d181611530565b5f8060408385031215611573575f80fd5b823561157e81611530565b9150602083013561158e81611530565b809150509250929050565b5f805f606084860312156115ab575f80fd5b83356115b681611530565b925060208401356115c681611530565b915060408401356115d681611530565b809150509250925092565b5f602082840312156115f1575f80fd5b5051919050565b5f60208284031215611608575f80fd5b81516101d181611530565b805161161e81611530565b919050565b5f805f8060808587031215611636575f80fd5b845193506020850151925060408501519150606085015161165681611530565b939692955090935050565b5f8060408385031215611672575f80fd5b825161167d81611530565b602084015190925061158e81611530565b604051610200810167ffffffffffffffff811182821017156116be57634e487b7160e01b5f52604160045260245ffd5b60405290565b8051801515811461161e575f80fd5b5f61020082840312156116e4575f80fd5b6116ec61168e565b9050815181526020820151602082015261170860408301611613565b604082015261171960608301611613565b606082015261172a60808301611613565b608082015261173b60a08301611613565b60a082015261174c60c08301611613565b60c082015261175d60e08301611613565b60e0820152610100611770818401611613565b90820152610120611782838201611613565b908201526101408281015190820152610160808301519082015261018080830151908201526101a080830151908201526101c06117c0818401611613565b908201526101e06117d28382016116c4565b9082015292915050565b5f61020082840312156117ed575f80fd5b6101d183836116d3565b5f805f60608486031215611809575f80fd5b835161181481611530565b602085015190935061182581611530565b60408501519092506115d681611530565b634e487b7160e01b5f52602160045260245ffd5b828152604081016002831061186d57634e487b7160e01b5f52602160045260245ffd5b8260208301529392505050565b5f80610400838503121561188c575f80fd5b61189684846116d3565b91506118a68461020085016116d3565b90509250929050565b5f80604083850312156118c0575f80fd5b505080516020909101519092909150565b634e487b7160e01b5f52601260045260245ffd5b808201808211156101ad57634e487b7160e01b5f52601160045260245ffd5b5f60ff83168061192257634e487b7160e01b5f52601260045260245ffd5b8060ff8416069150509291505056fea2646970667358221220dba56556aa46f03c8c18de95a330cbbce4a66febc702ae262724f34e001fed6764736f6c63430008180033",
  "language": "Solidity",
  "compiler": "0.8.24+commit.e11b9ed9"
}