{
  "address": "0xCb6CcBd979aa167b81411e672050c01826d715EC",
  "abi": [
    {
      "inputs": [
        {
          "internalType": "uint256",
          "name": "_daoFee",
          "type": "uint256"
        },
        {
          "internalType": "address",
          "name": "_daoFeeReceiver",
          "type": "address"
        }
      ],
      "stateMutability": "nonpayable",
      "type": "constructor"
    },
    {
      "inputs": [],
      "name": "MAX_FEE",
      "outputs": [
        {
          "internalType": "uint256",
          "name": "",
          "type": "uint256"
        }
      ],
      "stateMutability": "view",
      "type": "function"
    },
    {
      "inputs": [],
      "name": "MAX_PERCENT",
      "outputs": [
        {
          "internalType": "uint256",
          "name": "",
          "type": "uint256"
        }
      ],
      "stateMutability": "view",
      "type": "function"
    },
    {
      "inputs": [],
      "name": "acceptOwnership",
      "outputs": [],
      "stateMutability": "nonpayable",
      "type": "function"
    },
    {
      "inputs": [
        {
          "internalType": "address",
          "name": "to",
          "type": "address"
        },
        {
          "internalType": "uint256",
          "name": "tokenId",
          "type": "uint256"
        }
      ],
      "name": "approve",
      "outputs": [],
      "stateMutability": "nonpayable",
      "type": "function"
    },
    {
      "inputs": [
        {
          "internalType": "address",
          "name": "owner",
          "type": "address"
        }
      ],
      "name": "balanceOf",
      "outputs": [
        {
          "internalType": "uint256",
          "name": "",
          "type": "uint256"
        }
      ],
      "stateMutability": "view",
      "type": "function"
    },
    {
      "inputs": [],
      "name": "baseURI",
      "outputs": [
        {
          "internalType": "string",
          "name": "",
          "type": "string"
        }
      ],
      "stateMutability": "view",
      "type": "function"
    },
    {
      "inputs": [
        {
          "internalType": "uint256",
          "name": "_siloIdToBurn",
          "type": "uint256"
        }
      ],
      "name": "burn",
      "outputs": [],
      "stateMutability": "nonpayable",
      "type": "function"
    },
    {
      "inputs": [
        {
          "components": [
            {
              "internalType": "address",
              "name": "deployer",
              "type": "address"
            },
            {
              "internalType": "address",
              "name": "hookReceiver",
              "type": "address"
            },
            {
              "internalType": "uint256",
              "name": "deployerFee",
              "type": "uint256"
            },
            {
              "internalType": "address",
              "name": "token0",
              "type": "address"
            },
            {
              "internalType": "address",
              "name": "solvencyOracle0",
              "type": "address"
            },
            {
              "internalType": "address",
              "name": "maxLtvOracle0",
              "type": "address"
            },
            {
              "internalType": "address",
              "name": "interestRateModel0",
              "type": "address"
            },
            {
              "internalType": "uint256",
              "name": "maxLtv0",
              "type": "uint256"
            },
            {
              "internalType": "uint256",
              "name": "lt0",
              "type": "uint256"
            },
            {
              "internalType": "uint256",
              "name": "liquidationFee0",
              "type": "uint256"
            },
            {
              "internalType": "uint256",
              "name": "flashloanFee0",
              "type": "uint256"
            },
            {
              "internalType": "bool",
              "name": "callBeforeQuote0",
              "type": "bool"
            },
            {
              "internalType": "address",
              "name": "token1",
              "type": "address"
            },
            {
              "internalType": "address",
              "name": "solvencyOracle1",
              "type": "address"
            },
            {
              "internalType": "address",
              "name": "maxLtvOracle1",
              "type": "address"
            },
            {
              "internalType": "address",
              "name": "interestRateModel1",
              "type": "address"
            },
            {
              "internalType": "uint256",
              "name": "maxLtv1",
              "type": "uint256"
            },
            {
              "internalType": "uint256",
              "name": "lt1",
              "type": "uint256"
            },
            {
              "internalType": "uint256",
              "name": "liquidationFee1",
              "type": "uint256"
            },
            {
              "internalType": "uint256",
              "name": "flashloanFee1",
              "type": "uint256"
            },
            {
              "internalType": "bool",
              "name": "callBeforeQuote1",
              "type": "bool"
            }
          ],
          "internalType": "struct ISiloConfig.InitData",
          "name": "_initData",
          "type": "tuple"
        },
        {
          "internalType": "contract ISiloConfig",
          "name": "_siloConfig",
          "type": "address"
        },
        {
          "internalType": "address",
          "name": "_siloImpl",
          "type": "address"
        },
        {
          "internalType": "address",
          "name": "_shareProtectedCollateralTokenImpl",
          "type": "address"
        },
        {
          "internalType": "address",
          "name": "_shareDebtTokenImpl",
          "type": "address"
        }
      ],
      "name": "createSilo",
      "outputs": [],
      "stateMutability": "nonpayable",
      "type": "function"
    },
    {
      "inputs": [],
      "name": "daoFee",
      "outputs": [
        {
          "internalType": "uint256",
          "name": "",
          "type": "uint256"
        }
      ],
      "stateMutability": "view",
      "type": "function"
    },
    {
      "inputs": [],
      "name": "daoFeeReceiver",
      "outputs": [
        {
          "internalType": "address",
          "name": "",
          "type": "address"
        }
      ],
      "stateMutability": "view",
      "type": "function"
    },
    {
      "inputs": [
        {
          "internalType": "uint256",
          "name": "tokenId",
          "type": "uint256"
        }
      ],
      "name": "getApproved",
      "outputs": [
        {
          "internalType": "address",
          "name": "",
          "type": "address"
        }
      ],
      "stateMutability": "view",
      "type": "function"
    },
    {
      "inputs": [
        {
          "internalType": "address",
          "name": "_silo",
          "type": "address"
        }
      ],
      "name": "getFeeReceivers",
      "outputs": [
        {
          "internalType": "address",
          "name": "dao",
          "type": "address"
        },
        {
          "internalType": "address",
          "name": "deployer",
          "type": "address"
        }
      ],
      "stateMutability": "view",
      "type": "function"
    },
    {
      "inputs": [],
      "name": "getNextSiloId",
      "outputs": [
        {
          "internalType": "uint256",
          "name": "",
          "type": "uint256"
        }
      ],
      "stateMutability": "view",
      "type": "function"
    },
    {
      "inputs": [
        {
          "internalType": "uint256",
          "name": "id",
          "type": "uint256"
        }
      ],
      "name": "idToSiloConfig",
      "outputs": [
        {
          "internalType": "address",
          "name": "siloConfig",
          "type": "address"
        }
      ],
      "stateMutability": "view",
      "type": "function"
    },
    {
      "inputs": [
        {
          "internalType": "address",
          "name": "owner",
          "type": "address"
        },
        {
          "internalType": "address",
          "name": "operator",
          "type": "address"
        }
      ],
      "name": "isApprovedForAll",
      "outputs": [
        {
          "internalType": "bool",
          "name": "",
          "type": "bool"
        }
      ],
      "stateMutability": "view",
      "type": "function"
    },
    {
      "inputs": [
        {
          "internalType": "address",
          "name": "silo",
          "type": "address"
        }
      ],
      "name": "isSilo",
      "outputs": [
        {
          "internalType": "bool",
          "name": "",
          "type": "bool"
        }
      ],
      "stateMutability": "view",
      "type": "function"
    },
    {
      "inputs": [],
      "name": "maxDeployerFee",
      "outputs": [
        {
          "internalType": "uint256",
          "name": "",
          "type": "uint256"
        }
      ],
      "stateMutability": "view",
      "type": "function"
    },
    {
      "inputs": [],
      "name": "maxFlashloanFee",
      "outputs": [
        {
          "internalType": "uint256",
          "name": "",
          "type": "uint256"
        }
      ],
      "stateMutability": "view",
      "type": "function"
    },
    {
      "inputs": [],
      "name": "maxLiquidationFee",
      "outputs": [
        {
          "internalType": "uint256",
          "name": "",
          "type": "uint256"
        }
      ],
      "stateMutability": "view",
      "type": "function"
    },
    {
      "inputs": [],
      "name": "name",
      "outputs": [
        {
          "internalType": "string",
          "name": "",
          "type": "string"
        }
      ],
      "stateMutability": "view",
      "type": "function"
    },
    {
      "inputs": [],
      "name": "owner",
      "outputs": [
        {
          "internalType": "address",
          "name": "",
          "type": "address"
        }
      ],
      "stateMutability": "view",
      "type": "function"
    },
    {
      "inputs": [
        {
          "internalType": "uint256",
          "name": "tokenId",
          "type": "uint256"
        }
      ],
      "name": "ownerOf",
      "outputs": [
        {
          "internalType": "address",
          "name": "",
          "type": "address"
        }
      ],
      "stateMutability": "view",
      "type": "function"
    },
    {
      "inputs": [],
      "name": "pendingOwner",
      "outputs": [
        {
          "internalType": "address",
          "name": "",
          "type": "address"
        }
      ],
      "stateMutability": "view",
      "type": "function"
    },
    {
      "inputs": [],
      "name": "renounceOwnership",
      "outputs": [],
      "stateMutability": "nonpayable",
      "type": "function"
    },
    {
      "inputs": [
        {
          "internalType": "address",
          "name": "from",
          "type": "address"
        },
        {
          "internalType": "address",
          "name": "to",
          "type": "address"
        },
        {
          "internalType": "uint256",
          "name": "tokenId",
          "type": "uint256"
        }
      ],
      "name": "safeTransferFrom",
      "outputs": [],
      "stateMutability": "nonpayable",
      "type": "function"
    },
    {
      "inputs": [
        {
          "internalType": "address",
          "name": "from",
          "type": "address"
        },
        {
          "internalType": "address",
          "name": "to",
          "type": "address"
        },
        {
          "internalType": "uint256",
          "name": "tokenId",
          "type": "uint256"
        },
        {
          "internalType": "bytes",
          "name": "data",
          "type": "bytes"
        }
      ],
      "name": "safeTransferFrom",
      "outputs": [],
      "stateMutability": "nonpayable",
      "type": "function"
    },
    {
      "inputs": [
        {
          "internalType": "address",
          "name": "operator",
          "type": "address"
        },
        {
          "internalType": "bool",
          "name": "approved",
          "type": "bool"
        }
      ],
      "name": "setApprovalForAll",
      "outputs": [],
      "stateMutability": "nonpayable",
      "type": "function"
    },
    {
      "inputs": [
        {
          "internalType": "string",
          "name": "_newBaseURI",
          "type": "string"
        }
      ],
      "name": "setBaseURI",
      "outputs": [],
      "stateMutability": "nonpayable",
      "type": "function"
    },
    {
      "inputs": [
        {
          "internalType": "uint256",
          "name": "_newDaoFee",
          "type": "uint256"
        }
      ],
      "name": "setDaoFee",
      "outputs": [],
      "stateMutability": "nonpayable",
      "type": "function"
    },
    {
      "inputs": [
        {
          "internalType": "address",
          "name": "_newDaoFeeReceiver",
          "type": "address"
        }
      ],
      "name": "setDaoFeeReceiver",
      "outputs": [],
      "stateMutability": "nonpayable",
      "type": "function"
    },
    {
      "inputs": [
        {
          "internalType": "uint256",
          "name": "_newMaxDeployerFee",
          "type": "uint256"
        }
      ],
      "name": "setMaxDeployerFee",
      "outputs": [],
      "stateMutability": "nonpayable",
      "type": "function"
    },
    {
      "inputs": [
        {
          "internalType": "uint256",
          "name": "_newMaxFlashloanFee",
          "type": "uint256"
        }
      ],
      "name": "setMaxFlashloanFee",
      "outputs": [],
      "stateMutability": "nonpayable",
      "type": "function"
    },
    {
      "inputs": [
        {
          "internalType": "uint256",
          "name": "_newMaxLiquidationFee",
          "type": "uint256"
        }
      ],
      "name": "setMaxLiquidationFee",
      "outputs": [],
      "stateMutability": "nonpayable",
      "type": "function"
    },
    {
      "inputs": [
        {
          "internalType": "bytes4",
          "name": "interfaceId",
          "type": "bytes4"
        }
      ],
      "name": "supportsInterface",
      "outputs": [
        {
          "internalType": "bool",
          "name": "",
          "type": "bool"
        }
      ],
      "stateMutability": "view",
      "type": "function"
    },
    {
      "inputs": [],
      "name": "symbol",
      "outputs": [
        {
          "internalType": "string",
          "name": "",
          "type": "string"
        }
      ],
      "stateMutability": "view",
      "type": "function"
    },
    {
      "inputs": [
        {
          "internalType": "uint256",
          "name": "tokenId",
          "type": "uint256"
        }
      ],
      "name": "tokenURI",
      "outputs": [
        {
          "internalType": "string",
          "name": "",
          "type": "string"
        }
      ],
      "stateMutability": "view",
      "type": "function"
    },
    {
      "inputs": [
        {
          "internalType": "address",
          "name": "from",
          "type": "address"
        },
        {
          "internalType": "address",
          "name": "to",
          "type": "address"
        },
        {
          "internalType": "uint256",
          "name": "tokenId",
          "type": "uint256"
        }
      ],
      "name": "transferFrom",
      "outputs": [],
      "stateMutability": "nonpayable",
      "type": "function"
    },
    {
      "inputs": [
        {
          "internalType": "address",
          "name": "newOwner",
          "type": "address"
        }
      ],
      "name": "transferOwnership",
      "outputs": [],
      "stateMutability": "nonpayable",
      "type": "function"
    },
    {
      "inputs": [
        {
          "components": [
            {
              "internalType": "address",
              "name": "deployer",
              "type": "address"
            },
            {
              "internalType": "address",
              "name": "hookReceiver",
              "type": "address"
            },
            {
              "internalType": "uint256",
              "name": "deployerFee",
              "type": "uint256"
            },
            {
              "internalType": "address",
              "name": "token0",
              "type": "address"
            },
            {
              "internalType": "address",
              "name": "solvencyOracle0",
              "type": "address"
            },
            {
              "internalType": "address",
              "name": "maxLtvOracle0",
              "type": "address"
            },
            {
              "internalType": "address",
              "name": "interestRateModel0",
              "type": "address"
            },
            {
              "internalType": "uint256",
              "name": "maxLtv0",
              "type": "uint256"
            },
            {
              "internalType": "uint256",
              "name": "lt0",
              "type": "uint256"
            },
            {
              "internalType": "uint256",
              "name": "liquidationFee0",
              "type": "uint256"
            },
            {
              "internalType": "uint256",
              "name": "flashloanFee0",
              "type": "uint256"
            },
            {
              "internalType": "bool",
              "name": "callBeforeQuote0",
              "type": "bool"
            },
            {
              "internalType": "address",
              "name": "token1",
              "type": "address"
            },
            {
              "internalType": "address",
              "name": "solvencyOracle1",
              "type": "address"
            },
            {
              "internalType": "address",
              "name": "maxLtvOracle1",
              "type": "address"
            },
            {
              "internalType": "address",
              "name": "interestRateModel1",
              "type": "address"
            },
            {
              "internalType": "uint256",
              "name": "maxLtv1",
              "type": "uint256"
            },
            {
              "internalType": "uint256",
              "name": "lt1",
              "type": "uint256"
            },
            {
              "internalType": "uint256",
              "name": "liquidationFee1",
              "type": "uint256"
            },
            {
              "internalType": "uint256",
              "name": "flashloanFee1",
              "type": "uint256"
            },
            {
              "internalType": "bool",
              "name": "callBeforeQuote1",
              "type": "bool"
            }
          ],
          "internalType": "struct ISiloConfig.InitData",
          "name": "_initData",
          "type": "tuple"
        }
      ],
      "name": "validateSiloInitData",
      "outputs": [
        {
          "internalType": "bool",
          "name": "",
          "type": "bool"
        }
      ],
      "stateMutability": "view",
      "type": "function"
    },
    {
      "anonymous": false,
      "inputs": [
        {
          "indexed": true,
          "internalType": "address",
          "name": "owner",
          "type": "address"
        },
        {
          "indexed": true,
          "internalType": "address",
          "name": "approved",
          "type": "address"
        },
        {
          "indexed": true,
          "internalType": "uint256",
          "name": "tokenId",
          "type": "uint256"
        }
      ],
      "name": "Approval",
      "type": "event"
    },
    {
      "anonymous": false,
      "inputs": [
        {
          "indexed": true,
          "internalType": "address",
          "name": "owner",
          "type": "address"
        },
        {
          "indexed": true,
          "internalType": "address",
          "name": "operator",
          "type": "address"
        },
        {
          "indexed": false,
          "internalType": "bool",
          "name": "approved",
          "type": "bool"
        }
      ],
      "name": "ApprovalForAll",
      "type": "event"
    },
    {
      "anonymous": false,
      "inputs": [
        {
          "indexed": false,
          "internalType": "uint256",
          "name": "daoFee",
          "type": "uint256"
        }
      ],
      "name": "DaoFeeChanged",
      "type": "event"
    },
    {
      "anonymous": false,
      "inputs": [
        {
          "indexed": false,
          "internalType": "address",
          "name": "daoFeeReceiver",
          "type": "address"
        }
      ],
      "name": "DaoFeeReceiverChanged",
      "type": "event"
    },
    {
      "anonymous": false,
      "inputs": [
        {
          "indexed": false,
          "internalType": "uint256",
          "name": "maxDeployerFee",
          "type": "uint256"
        }
      ],
      "name": "MaxDeployerFeeChanged",
      "type": "event"
    },
    {
      "anonymous": false,
      "inputs": [
        {
          "indexed": false,
          "internalType": "uint256",
          "name": "maxFlashloanFee",
          "type": "uint256"
        }
      ],
      "name": "MaxFlashloanFeeChanged",
      "type": "event"
    },
    {
      "anonymous": false,
      "inputs": [
        {
          "indexed": false,
          "internalType": "uint256",
          "name": "maxLiquidationFee",
          "type": "uint256"
        }
      ],
      "name": "MaxLiquidationFeeChanged",
      "type": "event"
    },
    {
      "anonymous": false,
      "inputs": [
        {
          "indexed": true,
          "internalType": "address",
          "name": "token0",
          "type": "address"
        },
        {
          "indexed": true,
          "internalType": "address",
          "name": "token1",
          "type": "address"
        },
        {
          "indexed": false,
          "internalType": "address",
          "name": "silo0",
          "type": "address"
        },
        {
          "indexed": false,
          "internalType": "address",
          "name": "silo1",
          "type": "address"
        },
        {
          "indexed": false,
          "internalType": "address",
          "name": "siloConfig",
          "type": "address"
        }
      ],
      "name": "NewSilo",
      "type": "event"
    },
    {
      "anonymous": false,
      "inputs": [
        {
          "indexed": true,
          "internalType": "address",
          "name": "previousOwner",
          "type": "address"
        },
        {
          "indexed": true,
          "internalType": "address",
          "name": "newOwner",
          "type": "address"
        }
      ],
      "name": "OwnershipTransferStarted",
      "type": "event"
    },
    {
      "anonymous": false,
      "inputs": [
        {
          "indexed": true,
          "internalType": "address",
          "name": "previousOwner",
          "type": "address"
        },
        {
          "indexed": true,
          "internalType": "address",
          "name": "newOwner",
          "type": "address"
        }
      ],
      "name": "OwnershipTransferred",
      "type": "event"
    },
    {
      "anonymous": false,
      "inputs": [
        {
          "indexed": true,
          "internalType": "address",
          "name": "from",
          "type": "address"
        },
        {
          "indexed": true,
          "internalType": "address",
          "name": "to",
          "type": "address"
        },
        {
          "indexed": true,
          "internalType": "uint256",
          "name": "tokenId",
          "type": "uint256"
        }
      ],
      "name": "Transfer",
      "type": "event"
    },
    {
      "inputs": [
        {
          "internalType": "address",
          "name": "sender",
          "type": "address"
        },
        {
          "internalType": "uint256",
          "name": "tokenId",
          "type": "uint256"
        },
        {
          "internalType": "address",
          "name": "owner",
          "type": "address"
        }
      ],
      "name": "ERC721IncorrectOwner",
      "type": "error"
    },
    {
      "inputs": [
        {
          "internalType": "address",
          "name": "operator",
          "type": "address"
        },
        {
          "internalType": "uint256",
          "name": "tokenId",
          "type": "uint256"
        }
      ],
      "name": "ERC721InsufficientApproval",
      "type": "error"
    },
    {
      "inputs": [
        {
          "internalType": "address",
          "name": "approver",
          "type": "address"
        }
      ],
      "name": "ERC721InvalidApprover",
      "type": "error"
    },
    {
      "inputs": [
        {
          "internalType": "address",
          "name": "operator",
          "type": "address"
        }
      ],
      "name": "ERC721InvalidOperator",
      "type": "error"
    },
    {
      "inputs": [
        {
          "internalType": "address",
          "name": "owner",
          "type": "address"
        }
      ],
      "name": "ERC721InvalidOwner",
      "type": "error"
    },
    {
      "inputs": [
        {
          "internalType": "address",
          "name": "receiver",
          "type": "address"
        }
      ],
      "name": "ERC721InvalidReceiver",
      "type": "error"
    },
    {
      "inputs": [
        {
          "internalType": "address",
          "name": "sender",
          "type": "address"
        }
      ],
      "name": "ERC721InvalidSender",
      "type": "error"
    },
    {
      "inputs": [
        {
          "internalType": "uint256",
          "name": "tokenId",
          "type": "uint256"
        }
      ],
      "name": "ERC721NonexistentToken",
      "type": "error"
    },
    {
      "inputs": [],
      "name": "EmptyToken0",
      "type": "error"
    },
    {
      "inputs": [],
      "name": "EmptyToken1",
      "type": "error"
    },
    {
      "inputs": [],
      "name": "FailedDeployment",
      "type": "error"
    },
    {
      "inputs": [
        {
          "internalType": "uint256",
          "name": "balance",
          "type": "uint256"
        },
        {
          "internalType": "uint256",
          "name": "needed",
          "type": "uint256"
        }
      ],
      "name": "InsufficientBalance",
      "type": "error"
    },
    {
      "inputs": [],
      "name": "InvalidCallBeforeQuote",
      "type": "error"
    },
    {
      "inputs": [],
      "name": "InvalidDeployer",
      "type": "error"
    },
    {
      "inputs": [],
      "name": "InvalidIrm",
      "type": "error"
    },
    {
      "inputs": [],
      "name": "InvalidIrmConfig",
      "type": "error"
    },
    {
      "inputs": [],
      "name": "InvalidLt",
      "type": "error"
    },
    {
      "inputs": [],
      "name": "InvalidMaxLtv",
      "type": "error"
    },
    {
      "inputs": [],
      "name": "InvalidQuoteToken",
      "type": "error"
    },
    {
      "inputs": [],
      "name": "MaxDeployerFeeExceeded",
      "type": "error"
    },
    {
      "inputs": [],
      "name": "MaxFeeExceeded",
      "type": "error"
    },
    {
      "inputs": [],
      "name": "MaxFlashloanFeeExceeded",
      "type": "error"
    },
    {
      "inputs": [],
      "name": "MaxLiquidationFeeExceeded",
      "type": "error"
    },
    {
      "inputs": [],
      "name": "MissingHookReceiver",
      "type": "error"
    },
    {
      "inputs": [],
      "name": "OracleMisconfiguration",
      "type": "error"
    },
    {
      "inputs": [
        {
          "internalType": "address",
          "name": "owner",
          "type": "address"
        }
      ],
      "name": "OwnableInvalidOwner",
      "type": "error"
    },
    {
      "inputs": [
        {
          "internalType": "address",
          "name": "account",
          "type": "address"
        }
      ],
      "name": "OwnableUnauthorizedAccount",
      "type": "error"
    },
    {
      "inputs": [],
      "name": "SameAsset",
      "type": "error"
    },
    {
      "inputs": [
        {
          "internalType": "uint256",
          "name": "value",
          "type": "uint256"
        },
        {
          "internalType": "uint256",
          "name": "length",
          "type": "uint256"
        }
      ],
      "name": "StringsInsufficientHexLength",
      "type": "error"
    },
    {
      "inputs": [],
      "name": "ZeroAddress",
      "type": "error"
    }
  ],
  "bytecode": "0x608060405234801562000010575f80fd5b50604051620032c4380380620032c48339810160408190526200003391620003d5565b336040518060400160405280601981526020017f53696c6f2046696e616e636520466565205265636569766572000000000000008152506040518060400160405280600781526020016666656553494c4f60c81b815250815f90816200009a9190620004af565b506001620000a98282620004af565b5050506001600160a01b038116620000da57604051631e4fbdf760e01b81525f600482015260240160405180910390fd5b620000e58162000169565b50600160105560408051606081019091526024808252620032a06020830139600d90620001139082620004af565b50670214e8348c4f000080670429d069189e0000620001328562000187565b6200013d84620001ed565b620001488362000264565b6200015382620002c4565b6200015e8162000324565b50505050506200057b565b600780546001600160a01b0319169055620001848162000384565b50565b67058d15e176280000811115620001b15760405163f4df6ae560e01b815260040160405180910390fd5b60088190556040518181527f4fad9480b42671731d484ac2e96b50de7c154624b63f3d3eb30c38dc6ebfb0c7906020015b60405180910390a150565b6001600160a01b038116620002155760405163d92e233d60e01b815260040160405180910390fd5b600c80546001600160a01b0319166001600160a01b0383169081179091556040519081527fd4d4983241668aa2825c51b20af727fb71c4842fec0f87360e3a242e420d8a3090602001620001e2565b67058d15e1762800008111156200028e5760405163f4df6ae560e01b815260040160405180910390fd5b60098190556040518181527f2d968512555a43164b980ee73a764cfa2aecd7305806fda33d94fdca1bc6d4cf90602001620001e2565b67058d15e176280000811115620002ee5760405163f4df6ae560e01b815260040160405180910390fd5b600a8190556040518181527fb85fdb9b20a2472208897b9903ae1a3e943769ab70ef74e679ecd80ec2ab502090602001620001e2565b67058d15e1762800008111156200034e5760405163f4df6ae560e01b815260040160405180910390fd5b600b8190556040518181527f0565ffb26c5ec0ddf0975584b3c48758d8486aea008bd280bf2c98f2464f441f90602001620001e2565b600680546001600160a01b038381166001600160a01b0319831681179093556040519116919082907f8be0079c531659141344cd1fd0a4f28419497f9722a3daafe3b4186f6b6457e0905f90a35050565b5f8060408385031215620003e7575f80fd5b825160208401519092506001600160a01b038116811462000406575f80fd5b809150509250929050565b634e487b7160e01b5f52604160045260245ffd5b600181811c908216806200043a57607f821691505b6020821081036200045957634e487b7160e01b5f52602260045260245ffd5b50919050565b601f821115620004aa57805f5260205f20601f840160051c81016020851015620004865750805b601f840160051c820191505b81811015620004a7575f815560010162000492565b50505b505050565b81516001600160401b03811115620004cb57620004cb62000411565b620004e381620004dc845462000425565b846200045f565b602080601f83116001811462000519575f8415620005015750858301515b5f19600386901b1c1916600185901b17855562000573565b5f85815260208120601f198616915b82811015620005495788860151825594840194600190910190840162000528565b50858210156200056757878501515f19600388901b60f8161c191681555b505060018460011b0185555b505050505050565b612d1780620005895f395ff3fe608060405234801561000f575f80fd5b5060043610610234575f3560e01c80636c0360eb11610135578063b14a25a8116100b4578063de9bfd0611610079578063de9bfd06146104cd578063e30c3978146104f5578063e985e9c514610506578063eeb016f214610519578063f2fde38b14610522575f80fd5b8063b14a25a814610472578063b88d4fde14610485578063bc063e1a14610498578063bc2ef3f3146104a7578063c87b56dd146104ba575f80fd5b80638da5cb5b116100fa5780638da5cb5b1461042a57806395d89b411461043b578063a22cb46514610443578063a4c3e27214610456578063ab12bf801461045f575f80fd5b80636c0360eb146103ec5780636fdb9632146103f457806370a0823114610407578063715018a61461041a57806379ba509714610422575f80fd5b80632cb546ef116101c157806355f804b31161018657806355f804b31461039757806356bf27ae146103aa57806361ed96f5146103bd5780636352211e146103d057806363fcc73f146103e3575f80fd5b80632cb546ef1461034357806342842e0e1461035657806342966c681461036957806349f33f2e1461037c5780635410b1a914610384575f80fd5b80631036bbe2116102075780631036bbe2146102b557806312f0dcd8146102d2578063181a0a72146102f457806323b872dd146103275780632957b8391461033a575f80fd5b806301ffc9a71461023857806306fdde0314610260578063081812fc14610275578063095ea7b3146102a0575b5f80fd5b61024b6102463660046124cc565b610535565b60405190151581526020015b60405180910390f35b610268610586565b6040516102579190612534565b610288610283366004612546565b610615565b6040516001600160a01b039091168152602001610257565b6102b36102ae366004612581565b61063c565b005b6102c4670de0b6b3a764000081565b604051908152602001610257565b61024b6102e03660046125ab565b600f6020525f908152604090205460ff1681565b6103076103023660046125ab565b61064b565b604080516001600160a01b03938416815292909116602083015201610257565b6102b36103353660046125c6565b610744565b6102c460085481565b61024b6103513660046127d0565b6107d2565b6102b36103643660046125c6565b610bb6565b6102b3610377366004612546565b610bd5565b6010546102c4565b6102b3610392366004612546565b610be1565b6102b36103a53660046127eb565b610bf2565b6102b36103b8366004612546565b610c07565b600c54610288906001600160a01b031681565b6102886103de366004612546565b610c18565b6102c4600a5481565b610268610c22565b6102b3610402366004612857565b610cae565b6102c46104153660046125ab565b610fe7565b6102b361102c565b6102b361103f565b6006546001600160a01b0316610288565b610268611080565b6102b36104513660046128c8565b61108f565b6102c460095481565b6102b361046d3660046125ab565b61109a565b6102b3610480366004612546565b6110ab565b6102b36104933660046128fb565b6110bc565b6102c467058d15e17628000081565b6102b36104b5366004612546565b6110d4565b6102686104c8366004612546565b6110e5565b6102886104db366004612546565b600e6020525f90815260409020546001600160a01b031681565b6007546001600160a01b0316610288565b61024b6105143660046129b8565b611144565b6102c4600b5481565b6102b36105303660046125ab565b611171565b5f6001600160e01b031982166380ac58cd60e01b148061056557506001600160e01b03198216635b5e139f60e01b145b8061058057506301ffc9a760e01b6001600160e01b03198316145b92915050565b60605f8054610594906129ef565b80601f01602080910402602001604051908101604052809291908181526020018280546105c0906129ef565b801561060b5780601f106105e25761010080835404028352916020019161060b565b820191905f5260205f20905b8154815290600101906020018083116105ee57829003601f168201915b5050505050905090565b5f61061f826111e2565b505f828152600460205260409020546001600160a01b0316610580565b61064782823361121a565b5050565b5f805f836001600160a01b03166379502c556040518163ffffffff1660e01b8152600401602060405180830381865afa15801561068a573d5f803e3d5ffd5b505050506040513d601f19601f820116820180604052508101906106ae9190612a27565b6001600160a01b031663189e17e46040518163ffffffff1660e01b8152600401602060405180830381865afa1580156106e9573d5f803e3d5ffd5b505050506040513d601f19601f8201168201806040525081019061070d9190612a42565b600c549091506001600160a01b031661073a825f908152600260205260409020546001600160a01b031690565b9250925050915091565b6001600160a01b03821661077257604051633250574960e11b81525f60048201526024015b60405180910390fd5b5f61077e838333611227565b9050836001600160a01b0316816001600160a01b0316146107cc576040516364283d7b60e01b81526001600160a01b0380861660048301526024820184905282166044820152606401610769565b50505050565b60208101515f906001600160a01b03166107ff5760405163d83793a160e01b815260040160405180910390fd5b60608201516001600160a01b031661082a57604051636bb1aa5360e11b815260040160405180910390fd5b6101808201516001600160a01b031661085657604051634eaf414f60e11b815260040160405180910390fd5b8161018001516001600160a01b031682606001516001600160a01b0316036108915760405163534c524d60e11b815260040160405180910390fd5b60e08201511580156108a65750610200820151155b156108c4576040516375fcbb8960e01b815260040160405180910390fd5b8161010001518260e0015111156108ee576040516375fcbb8960e01b815260040160405180910390fd5b8161022001518261020001511115610919576040516375fcbb8960e01b815260040160405180910390fd5b670de0b6b3a764000082610100015111806109405750670de0b6b3a7640000826102200151115b1561095e576040516313fd16a560e11b815260040160405180910390fd5b60a08201516001600160a01b031615801590610985575060808201516001600160a01b0316155b156109a35760405163952268d360e01b815260040160405180910390fd5b81610160015180156109c0575060808201516001600160a01b0316155b156109de576040516349cc353360e01b815260040160405180910390fd5b6101c08201516001600160a01b031615801590610a0757506101a08201516001600160a01b0316155b15610a255760405163952268d360e01b815260040160405180910390fd5b8161028001518015610a4357506101a08201516001600160a01b0316155b15610a61576040516349cc353360e01b815260040160405180910390fd5b610a6a8261131b565b5f8260400151118015610a85575081516001600160a01b0316155b15610aa35760405163043c669f60e01b815260040160405180910390fd5b60095482604001511115610aca57604051632b01a30160e01b815260040160405180910390fd5b600a548261014001511115610af25760405163923f853d60e01b815260040160405180910390fd5b600a548261026001511115610b1a5760405163923f853d60e01b815260040160405180910390fd5b600b548261012001511115610b425760405163f817842b60e01b815260040160405180910390fd5b600b548261024001511115610b6a5760405163f817842b60e01b815260040160405180910390fd5b60c08201516001600160a01b03161580610b9057506101e08201516001600160a01b0316155b15610bae57604051632e4e395f60e01b815260040160405180910390fd5b506001919050565b610bd083838360405180602001604052805f8152506110bc565b505050565b610bde8161135c565b50565b610be9611394565b610bde816113c1565b610bfa611394565b600d610bd0828483612a9d565b610c0f611394565b610bde81611426565b5f610580826111e2565b600d8054610c2f906129ef565b80601f0160208091040260200160405190810160405280929190818152602001828054610c5b906129ef565b8015610ca65780601f10610c7d57610100808354040283529160200191610ca6565b820191905f5260205f20905b815481529060010190602001808311610c8957829003601f168201915b505050505081565b6001600160a01b0383161580610ccb57506001600160a01b038216155b80610cdd57506001600160a01b038116155b80610cef57506001600160a01b038416155b15610d0d5760405163d92e233d60e01b815260040160405180910390fd5b610d16856107d2565b50610d1f612434565b610d27612434565b610d3087611484565b601080546001810190915560085480845282529193509150610d558383878785611638565b610d5f86826116c5565b6001600160a01b03166040840152610d7786826116d8565b6001600160a01b0390811660408481019190915284810151905163189acdbd60e31b8152898316600482015291169063c4d66de8906024015f604051808303815f87803b158015610dc6575f80fd5b505af1158015610dd8573d5f803e3d5ffd5b505050604080840151905163189acdbd60e31b81526001600160a01b038a81166004830152909116915063c4d66de8906024015f604051808303815f87803b158015610e22575f80fd5b505af1158015610e34573d5f803e3d5ffd5b50505050610e4283836116e6565b82604001516001600160a01b031663cad1aacf6040518163ffffffff1660e01b81526004015f604051808303815f87803b158015610e7e575f80fd5b505af1158015610e90573d5f803e3d5ffd5b5050505081604001516001600160a01b031663cad1aacf6040518163ffffffff1660e01b81526004015f604051808303815f87803b158015610ed0575f80fd5b505af1158015610ee2573d5f803e3d5ffd5b5050505f828152600e6020908152604080832080546001600160a01b0319166001600160a01b038d8116919091179091558782015181168452600f909252808320805460ff1990811660019081179092558783015184168552919093208054909116909217909155895116159050610f60578751610f609082611899565b81606001516001600160a01b031683606001516001600160a01b03167f14581c35c816c9e78ddb2643fc50083788783d932b9fac097874be56ce1f2dcc856040015185604001518b604051610fd5939291906001600160a01b0393841681529183166020830152909116604082015260600190565b60405180910390a35050505050505050565b5f6001600160a01b038216611011576040516322718ad960e21b81525f6004820152602401610769565b506001600160a01b03165f9081526003602052604090205490565b611034611394565b61103d5f6118fa565b565b60075433906001600160a01b031681146110775760405163118cdaa760e01b81526001600160a01b0382166004820152602401610769565b610bde816118fa565b606060018054610594906129ef565b610647338383611913565b6110a2611394565b610bde816119b1565b6110b3611394565b610bde81611a26565b6110c7848484610744565b6107cc3385858585611a84565b6110dc611394565b610bde81611bac565b60606110f0826111e2565b50600d6110fc46611c0a565b5f848152600e602052604090205461111c906001600160a01b0316611c9a565b60405160200161112e93929190612b57565b6040516020818303038152906040529050919050565b6001600160a01b039182165f90815260056020908152604080832093909416825291909152205460ff1690565b611179611394565b600780546001600160a01b0383166001600160a01b031990911681179091556111aa6006546001600160a01b031690565b6001600160a01b03167f38d16b8cac22d99fc7c124b9cd0de2d3fa1faef420bfe791d8c362d765e2270060405160405180910390a350565b5f818152600260205260408120546001600160a01b03168061058057604051637e27328960e01b815260048101849052602401610769565b610bd08383836001611cb0565b5f828152600260205260408120546001600160a01b039081169083161561125357611253818486611db4565b6001600160a01b0381161561128d5761126e5f855f80611cb0565b6001600160a01b0381165f90815260036020526040902080545f190190555b6001600160a01b038516156112bb576001600160a01b0385165f908152600360205260409020805460010190555b5f8481526002602052604080822080546001600160a01b0319166001600160a01b0389811691821790925591518793918516917fddf252ad1be2c89b69c2b068fc378daa952ba7f163c4a11628f55a4df523b3ef91a490505b9392505050565b5f61132a818360800151611e18565b905061133a818360a00151611e18565b905061134b81836101a00151611e18565b9050610bd081836101c00151611e18565b5f6113685f835f611227565b90506001600160a01b03811661064757604051637e27328960e01b815260048101839052602401610769565b6006546001600160a01b0316331461103d5760405163118cdaa760e01b8152336004820152602401610769565b67058d15e1762800008111156113ea5760405163f4df6ae560e01b815260040160405180910390fd5b60098190556040518181527f2d968512555a43164b980ee73a764cfa2aecd7305806fda33d94fdca1bc6d4cf906020015b60405180910390a150565b67058d15e17628000081111561144f5760405163f4df6ae560e01b815260040160405180910390fd5b600a8190556040518181527fb85fdb9b20a2472208897b9903ae1a3e943769ab70ef74e679ecd80ec2ab50209060200161141b565b61148c612434565b611494612434565b60208301516001600160a01b039081166101c08401526060808501518216908401526080840151811660e084015260a084015116156114d7578260a001516114dd565b82608001515b6001600160a01b039081166101008085019190915260c08501519091166101208085019190915260e08501516101408086019190915291850151610160808601919091526040860151602086015290850151610180850152908401516101a0840152830151801561155b57506101008201516001600160a01b031615155b15156101e083015260208301516001600160a01b039081166101c080840191909152610180850151821660608401526101a0850151821660e084015284015116156115ab57826101c001516115b2565b826101a001515b6001600160a01b039081166101008301526101e084015116610120820152610200830151610140820152610220830151610160820152604083015160208201526102408301516101808201526102608301516101a0820152610280830151801561162957506101008101516001600160a01b031615155b15156101e08201529092909150565b6040808601516001600160a01b0390811660a0808901919091529186015116908501526116658382611ed1565b6001600160a01b0316608086015261167d8382611edf565b6001600160a01b031660808501526116958282611eed565b6001600160a01b031660c08601526116ad8282611efb565b6001600160a01b031660c09094019390935250505050565b5f611314836116d384611f09565b611f63565b5f611314836116d384611f6f565b6040808301516101c084015160808501519251630336c8d760e41b8152612000936140009392916001600160a01b039091169063336c8d709061173190859085908990600401612bfb565b5f604051808303815f87803b158015611748575f80fd5b505af115801561175a573d5f803e3d5ffd5b505050508560c001516001600160a01b031663336c8d708383866040518463ffffffff1660e01b815260040161179293929190612bfb565b5f604051808303815f87803b1580156117a9575f80fd5b505af11580156117bb573d5f803e3d5ffd5b5050506040808701516101c088015160808901519251630336c8d760e41b8152919350916001600160a01b03169063336c8d709061180190859085908b90600401612bfb565b5f604051808303815f87803b158015611818575f80fd5b505af115801561182a573d5f803e3d5ffd5b505050508660c001516001600160a01b031663336c8d708383886040518463ffffffff1660e01b815260040161186293929190612bfb565b5f604051808303815f87803b158015611879575f80fd5b505af115801561188b573d5f803e3d5ffd5b505050505050505050505050565b6001600160a01b0382166118c257604051633250574960e11b81525f6004820152602401610769565b5f6118ce83835f611227565b90506001600160a01b03811615610bd0576040516339e3563760e11b81525f6004820152602401610769565b600780546001600160a01b0319169055610bde81611fac565b6001600160a01b03821661194557604051630b61174360e31b81526001600160a01b0383166004820152602401610769565b6001600160a01b038381165f81815260056020908152604080832094871680845294825291829020805460ff191686151590811790915591519182527f17307eab39ab6107e8899845ad3d59bd9653f200f220920489ca2b5937696c31910160405180910390a3505050565b6001600160a01b0381166119d85760405163d92e233d60e01b815260040160405180910390fd5b600c80546001600160a01b0319166001600160a01b0383169081179091556040519081527fd4d4983241668aa2825c51b20af727fb71c4842fec0f87360e3a242e420d8a309060200161141b565b67058d15e176280000811115611a4f5760405163f4df6ae560e01b815260040160405180910390fd5b60088190556040518181527f4fad9480b42671731d484ac2e96b50de7c154624b63f3d3eb30c38dc6ebfb0c79060200161141b565b6001600160a01b0383163b15611ba557604051630a85bd0160e11b81526001600160a01b0384169063150b7a0290611ac6908890889087908790600401612c23565b6020604051808303815f875af1925050508015611b00575060408051601f3d908101601f19168201909252611afd91810190612c5f565b60015b611b67573d808015611b2d576040519150601f19603f3d011682016040523d82523d5f602084013e611b32565b606091505b5080515f03611b5f57604051633250574960e11b81526001600160a01b0385166004820152602401610769565b805181602001fd5b6001600160e01b03198116630a85bd0160e11b14611ba357604051633250574960e11b81526001600160a01b0385166004820152602401610769565b505b5050505050565b67058d15e176280000811115611bd55760405163f4df6ae560e01b815260040160405180910390fd5b600b8190556040518181527f0565ffb26c5ec0ddf0975584b3c48758d8486aea008bd280bf2c98f2464f441f9060200161141b565b60605f611c1683611ffd565b60010190505f8167ffffffffffffffff811115611c3557611c35612604565b6040519080825280601f01601f191660200182016040528015611c5f576020820181803683370190505b5090508181016020015b5f19016f181899199a1a9b1b9c1cb0b131b232b360811b600a86061a8153600a8504945084611c6957509392505050565b60606105806001600160a01b03831660146120d4565b8080611cc457506001600160a01b03821615155b15611d85575f611cd3846111e2565b90506001600160a01b03831615801590611cff5750826001600160a01b0316816001600160a01b031614155b8015611d125750611d108184611144565b155b15611d3b5760405163a9fbf51f60e01b81526001600160a01b0384166004820152602401610769565b8115611d835783856001600160a01b0316826001600160a01b03167f8c5be1e5ebec7d5bd14f71427d1e84f3dd0314c0f7b2291e5b200ac8c7c3b92560405160405180910390a45b505b50505f90815260046020526040902080546001600160a01b0319166001600160a01b0392909216919091179055565b611dbf83838361224e565b610bd0576001600160a01b038316611ded57604051637e27328960e01b815260048101829052602401610769565b60405163177e802f60e01b81526001600160a01b038316600482015260248101829052604401610769565b5f6001600160a01b038216611e2e575081610580565b816001600160a01b031663217a4b706040518163ffffffff1660e01b8152600401602060405180830381865afa158015611e6a573d5f803e3d5ffd5b505050506040513d601f19601f82011682018060405250810190611e8e9190612a27565b90506001600160a01b0383161561058057806001600160a01b0316836001600160a01b031614610580576040516368ada7f160e11b815260040160405180910390fd5b5f611314836116d3846122af565b5f611314836116d3846122ec565b5f611314836116d384612329565b5f611314836116d384612366565b5f817f1d056e62b182fd7d4dada6cf9079a3ba83adb009746718f4f8751cbe6b93da61604051602001611f46929190918252602082015260400190565b604051602081830303815290604052805190602001209050919050565b5f61131483835f6123a3565b5f817fccf028ea8322db4ac7e226915bfb048583cd927e584ca9a1865904fbc439f663604051602001611f46929190918252602082015260400190565b600680546001600160a01b038381166001600160a01b0319831681179093556040519116919082907f8be0079c531659141344cd1fd0a4f28419497f9722a3daafe3b4186f6b6457e0905f90a35050565b5f8072184f03e93ff9f4daa797ed6e38ed64bf6a1f0160401b831061203b5772184f03e93ff9f4daa797ed6e38ed64bf6a1f0160401b830492506040015b6d04ee2d6d415b85acef81000000008310612067576d04ee2d6d415b85acef8100000000830492506020015b662386f26fc10000831061208557662386f26fc10000830492506010015b6305f5e100831061209d576305f5e100830492506008015b61271083106120b157612710830492506004015b606483106120c3576064830492506002015b600a83106105805760010192915050565b6060825f6120e3846002612c8e565b6120ee906002612ca5565b67ffffffffffffffff81111561210657612106612604565b6040519080825280601f01601f191660200182016040528015612130576020820181803683370190505b509050600360fc1b815f8151811061214a5761214a612cb8565b60200101906001600160f81b03191690815f1a905350600f60fb1b8160018151811061217857612178612cb8565b60200101906001600160f81b03191690815f1a9053505f61219a856002612c8e565b6121a5906001612ca5565b90505b600181111561221c576f181899199a1a9b1b9c1cb0b131b232b360811b83600f16601081106121d9576121d9612cb8565b1a60f81b8282815181106121ef576121ef612cb8565b60200101906001600160f81b03191690815f1a90535060049290921c9161221581612ccc565b90506121a8565b5081156122465760405163e22e27eb60e01b81526004810186905260248101859052604401610769565b949350505050565b5f6001600160a01b038316158015906122465750826001600160a01b0316846001600160a01b0316148061228757506122878484611144565b806122465750505f908152600460205260409020546001600160a01b03908116911614919050565b5f817f4245b46a55891445529f9a01161a9f64cdec348f693a26b07e5f0aa22b486b7d604051602001611f46929190918252602082015260400190565b5f817f700bad9da2e1385ef7139f09887b5c24cdbc6e2d1b8562842d95da2e68c340cd604051602001611f46929190918252602082015260400190565b5f817fbe4a9bb64c254c9ac164216a73a2afa86df28fb3a0204a98a311293dcd5f35fc604051602001611f46929190918252602082015260400190565b5f817ff36c517579d731f207a45998256dee21125b3bb93f46a3a5d2a4caff5251ca74604051602001611f46929190918252602082015260400190565b5f814710156123ce5760405163cf47918160e01b815247600482015260248101839052604401610769565b6e5af43d82803e903d91602b57fd5bf360205283601152763d602d80600a3d3981f3363d3d373d3d3d363d730000008460881c175f52826037600984f590506001600160a01b0381166113145760405163b06ebf3d60e01b815260040160405180910390fd5b60408051610200810182525f80825260208201819052918101829052606081018290526080810182905260a0810182905260c0810182905260e08101829052610100810182905261012081018290526101408101829052610160810182905261018081018290526101a081018290526101c081018290526101e081019190915290565b6001600160e01b031981168114610bde575f80fd5b5f602082840312156124dc575f80fd5b8135611314816124b7565b5f5b838110156125015781810151838201526020016124e9565b50505f910152565b5f81518084526125208160208601602086016124e7565b601f01601f19169290920160200192915050565b602081525f6113146020830184612509565b5f60208284031215612556575f80fd5b5035919050565b6001600160a01b0381168114610bde575f80fd5b803561257c8161255d565b919050565b5f8060408385031215612592575f80fd5b823561259d8161255d565b946020939093013593505050565b5f602082840312156125bb575f80fd5b81356113148161255d565b5f805f606084860312156125d8575f80fd5b83356125e38161255d565b925060208401356125f38161255d565b929592945050506040919091013590565b634e487b7160e01b5f52604160045260245ffd5b6040516102a0810167ffffffffffffffff8111828210171561263c5761263c612604565b60405290565b604051601f8201601f1916810167ffffffffffffffff8111828210171561266b5761266b612604565b604052919050565b8035801515811461257c575f80fd5b5f6102a08284031215612693575f80fd5b61269b612618565b90506126a682612571565b81526126b460208301612571565b6020820152604082013560408201526126cf60608301612571565b60608201526126e060808301612571565b60808201526126f160a08301612571565b60a082015261270260c08301612571565b60c082015260e08281013590820152610100808301359082015261012080830135908201526101408083013590820152610160612740818401612673565b90820152610180612752838201612571565b908201526101a0612764838201612571565b908201526101c0612776838201612571565b908201526101e0612788838201612571565b9082015261020082810135908201526102208083013590820152610240808301359082015261026080830135908201526102806127c6818401612673565b9082015292915050565b5f6102a082840312156127e1575f80fd5b6113148383612682565b5f80602083850312156127fc575f80fd5b823567ffffffffffffffff80821115612813575f80fd5b818501915085601f830112612826575f80fd5b813581811115612834575f80fd5b866020828501011115612845575f80fd5b60209290920196919550909350505050565b5f805f805f610320868803121561286c575f80fd5b6128768787612682565b94506102a08601356128878161255d565b93506102c08601356128988161255d565b92506102e08601356128a98161255d565b91506103008601356128ba8161255d565b809150509295509295909350565b5f80604083850312156128d9575f80fd5b82356128e48161255d565b91506128f260208401612673565b90509250929050565b5f805f806080858703121561290e575f80fd5b84356129198161255d565b935060208581013561292a8161255d565b935060408601359250606086013567ffffffffffffffff8082111561294d575f80fd5b818801915088601f830112612960575f80fd5b81358181111561297257612972612604565b612984601f8201601f19168501612642565b91508082528984828501011115612999575f80fd5b80848401858401375f8482840101525080935050505092959194509250565b5f80604083850312156129c9575f80fd5b82356129d48161255d565b915060208301356129e48161255d565b809150509250929050565b600181811c90821680612a0357607f821691505b602082108103612a2157634e487b7160e01b5f52602260045260245ffd5b50919050565b5f60208284031215612a37575f80fd5b81516113148161255d565b5f60208284031215612a52575f80fd5b5051919050565b601f821115610bd057805f5260205f20601f840160051c81016020851015612a7e5750805b601f840160051c820191505b81811015611ba5575f8155600101612a8a565b67ffffffffffffffff831115612ab557612ab5612604565b612ac983612ac383546129ef565b83612a59565b5f601f841160018114612afa575f8515612ae35750838201355b5f19600387901b1c1916600186901b178355611ba5565b5f83815260208120601f198716915b82811015612b295786850135825560209485019460019092019101612b09565b5086821015612b45575f1960f88860031b161c19848701351681555b505060018560011b0183555050505050565b5f808554612b64816129ef565b60018281168015612b7c5760018114612b9157612bbd565b60ff1984168752821515830287019450612bbd565b895f526020805f205f5b85811015612bb45781548a820152908401908201612b9b565b50505082870194505b505050508451612bd18183602089016124e7565b602f60f81b91019081528351612bee8160018401602088016124e7565b0160010195945050505050565b6001600160a01b03938416815291909216602082015262ffffff909116604082015260600190565b6001600160a01b03858116825284166020820152604081018390526080606082018190525f90612c5590830184612509565b9695505050505050565b5f60208284031215612c6f575f80fd5b8151611314816124b7565b634e487b7160e01b5f52601160045260245ffd5b808202811582820484141761058057610580612c7a565b8082018082111561058057610580612c7a565b634e487b7160e01b5f52603260045260245ffd5b5f81612cda57612cda612c7a565b505f19019056fea26469706673582212200c29820dbc3829b5cfeb7d8dead44c05e85a6438cddc7e2eeda5834ef573396564736f6c6343000818003368747470733a2f2f76322e6170702e73696c6f2e66696e616e63652f6d61726b6574732f",
  "language": "Solidity",
  "compiler": "0.8.24+commit.e11b9ed9"
}