{
  "address": "0x74477D70453213Dc1484503dABCDb64f9146884d",
  "abi": [
    {
      "inputs": [
        {
          "internalType": "contract IInterestRateModelV2ConfigFactory",
          "name": "_irmConfigFactory",
          "type": "address"
        },
        {
          "internalType": "contract ISiloFactory",
          "name": "_siloFactory",
          "type": "address"
        },
        {
          "internalType": "contract IHookReceiversFactory",
          "name": "_hookReceiversFactory",
          "type": "address"
        },
        {
          "internalType": "address",
          "name": "_timelockController",
          "type": "address"
        }
      ],
      "stateMutability": "nonpayable",
      "type": "constructor"
    },
    {
      "inputs": [
        {
          "internalType": "address",
          "name": "_factory",
          "type": "address"
        }
      ],
      "name": "FailedToCreateAnOracle",
      "type": "error"
    },
    {
      "anonymous": false,
      "inputs": [
        {
          "indexed": false,
          "internalType": "contract ISiloConfig",
          "name": "siloConfig",
          "type": "address"
        }
      ],
      "name": "SiloCreated",
      "type": "event"
    },
    {
      "inputs": [],
      "name": "HOOK_RECEIVERS_FACTORY",
      "outputs": [
        {
          "internalType": "contract IHookReceiversFactory",
          "name": "",
          "type": "address"
        }
      ],
      "stateMutability": "view",
      "type": "function"
    },
    {
      "inputs": [],
      "name": "IRM_CONFIG_FACTORY",
      "outputs": [
        {
          "internalType": "contract IInterestRateModelV2ConfigFactory",
          "name": "",
          "type": "address"
        }
      ],
      "stateMutability": "view",
      "type": "function"
    },
    {
      "inputs": [],
      "name": "SILO_FACTORY",
      "outputs": [
        {
          "internalType": "contract ISiloFactory",
          "name": "",
          "type": "address"
        }
      ],
      "stateMutability": "view",
      "type": "function"
    },
    {
      "inputs": [],
      "name": "TIMELOCK_CONTROLLER",
      "outputs": [
        {
          "internalType": "address",
          "name": "",
          "type": "address"
        }
      ],
      "stateMutability": "view",
      "type": "function"
    },
    {
      "inputs": [
        {
          "components": [
            {
              "components": [
                {
                  "internalType": "address",
                  "name": "factory",
                  "type": "address"
                },
                {
                  "internalType": "bytes",
                  "name": "txInput",
                  "type": "bytes"
                }
              ],
              "internalType": "struct ISiloDeployer.OracleCreationTxData",
              "name": "solvencyOracle0",
              "type": "tuple"
            },
            {
              "components": [
                {
                  "internalType": "address",
                  "name": "factory",
                  "type": "address"
                },
                {
                  "internalType": "bytes",
                  "name": "txInput",
                  "type": "bytes"
                }
              ],
              "internalType": "struct ISiloDeployer.OracleCreationTxData",
              "name": "maxLtvOracle0",
              "type": "tuple"
            },
            {
              "components": [
                {
                  "internalType": "address",
                  "name": "factory",
                  "type": "address"
                },
                {
                  "internalType": "bytes",
                  "name": "txInput",
                  "type": "bytes"
                }
              ],
              "internalType": "struct ISiloDeployer.OracleCreationTxData",
              "name": "solvencyOracle1",
              "type": "tuple"
            },
            {
              "components": [
                {
                  "internalType": "address",
                  "name": "factory",
                  "type": "address"
                },
                {
                  "internalType": "bytes",
                  "name": "txInput",
                  "type": "bytes"
                }
              ],
              "internalType": "struct ISiloDeployer.OracleCreationTxData",
              "name": "maxLtvOracle1",
              "type": "tuple"
            }
          ],
          "internalType": "struct ISiloDeployer.Oracles",
          "name": "_oracles",
          "type": "tuple"
        },
        {
          "components": [
            {
              "internalType": "int256",
              "name": "uopt",
              "type": "int256"
            },
            {
              "internalType": "int256",
              "name": "ucrit",
              "type": "int256"
            },
            {
              "internalType": "int256",
              "name": "ulow",
              "type": "int256"
            },
            {
              "internalType": "int256",
              "name": "ki",
              "type": "int256"
            },
            {
              "internalType": "int256",
              "name": "kcrit",
              "type": "int256"
            },
            {
              "internalType": "int256",
              "name": "klow",
              "type": "int256"
            },
            {
              "internalType": "int256",
              "name": "klin",
              "type": "int256"
            },
            {
              "internalType": "int256",
              "name": "beta",
              "type": "int256"
            }
          ],
          "internalType": "struct IInterestRateModelV2.Config",
          "name": "_irmConfigData0",
          "type": "tuple"
        },
        {
          "components": [
            {
              "internalType": "int256",
              "name": "uopt",
              "type": "int256"
            },
            {
              "internalType": "int256",
              "name": "ucrit",
              "type": "int256"
            },
            {
              "internalType": "int256",
              "name": "ulow",
              "type": "int256"
            },
            {
              "internalType": "int256",
              "name": "ki",
              "type": "int256"
            },
            {
              "internalType": "int256",
              "name": "kcrit",
              "type": "int256"
            },
            {
              "internalType": "int256",
              "name": "klow",
              "type": "int256"
            },
            {
              "internalType": "int256",
              "name": "klin",
              "type": "int256"
            },
            {
              "internalType": "int256",
              "name": "beta",
              "type": "int256"
            }
          ],
          "internalType": "struct IInterestRateModelV2.Config",
          "name": "_irmConfigData1",
          "type": "tuple"
        },
        {
          "components": [
            {
              "internalType": "address",
              "name": "deployer",
              "type": "address"
            },
            {
              "internalType": "uint256",
              "name": "deployerFee",
              "type": "uint256"
            },
            {
              "internalType": "address",
              "name": "token0",
              "type": "address"
            },
            {
              "internalType": "address",
              "name": "solvencyOracle0",
              "type": "address"
            },
            {
              "internalType": "address",
              "name": "maxLtvOracle0",
              "type": "address"
            },
            {
              "internalType": "address",
              "name": "interestRateModel0",
              "type": "address"
            },
            {
              "internalType": "address",
              "name": "interestRateModelConfig0",
              "type": "address"
            },
            {
              "internalType": "uint256",
              "name": "maxLtv0",
              "type": "uint256"
            },
            {
              "internalType": "uint256",
              "name": "lt0",
              "type": "uint256"
            },
            {
              "internalType": "uint256",
              "name": "liquidationFee0",
              "type": "uint256"
            },
            {
              "internalType": "uint256",
              "name": "flashloanFee0",
              "type": "uint256"
            },
            {
              "internalType": "bool",
              "name": "callBeforeQuote0",
              "type": "bool"
            },
            {
              "internalType": "address",
              "name": "protectedHookReceiver0",
              "type": "address"
            },
            {
              "internalType": "address",
              "name": "collateralHookReceiver0",
              "type": "address"
            },
            {
              "internalType": "address",
              "name": "debtHookReceiver0",
              "type": "address"
            },
            {
              "internalType": "address",
              "name": "token1",
              "type": "address"
            },
            {
              "internalType": "address",
              "name": "solvencyOracle1",
              "type": "address"
            },
            {
              "internalType": "address",
              "name": "maxLtvOracle1",
              "type": "address"
            },
            {
              "internalType": "address",
              "name": "interestRateModel1",
              "type": "address"
            },
            {
              "internalType": "address",
              "name": "interestRateModelConfig1",
              "type": "address"
            },
            {
              "internalType": "uint256",
              "name": "maxLtv1",
              "type": "uint256"
            },
            {
              "internalType": "uint256",
              "name": "lt1",
              "type": "uint256"
            },
            {
              "internalType": "uint256",
              "name": "liquidationFee1",
              "type": "uint256"
            },
            {
              "internalType": "uint256",
              "name": "flashloanFee1",
              "type": "uint256"
            },
            {
              "internalType": "bool",
              "name": "callBeforeQuote1",
              "type": "bool"
            },
            {
              "internalType": "address",
              "name": "protectedHookReceiver1",
              "type": "address"
            },
            {
              "internalType": "address",
              "name": "collateralHookReceiver1",
              "type": "address"
            },
            {
              "internalType": "address",
              "name": "debtHookReceiver1",
              "type": "address"
            }
          ],
          "internalType": "struct ISiloConfig.InitData",
          "name": "_siloInitData",
          "type": "tuple"
        }
      ],
      "name": "deploy",
      "outputs": [
        {
          "internalType": "contract ISiloConfig",
          "name": "siloConfig",
          "type": "address"
        }
      ],
      "stateMutability": "nonpayable",
      "type": "function"
    }
  ],
  "bytecode": "0x6101006040523480156200001257600080fd5b50604051620012eb380380620012eb833981016040819052620000359162000071565b6001600160a01b0393841660805291831660a052821660c0521660e052620000d9565b6001600160a01b03811681146200006e57600080fd5b50565b600080600080608085870312156200008857600080fd5b8451620000958162000058565b6020860151909450620000a88162000058565b6040860151909350620000bb8162000058565b6060860151909250620000ce8162000058565b939692955090935050565b60805160a05160c05160e0516111b9620001326000396000818160f2015261087601526000818160a4015261041e01526000818160cb015261016101526000818160610152818161024301526102c101526111b96000f3fe608060405234801561001057600080fd5b50600436106100575760003560e01c806328cdfde01461005c5780634c8d72351461009f5780635956617c146100c65780635d049c0a146100ed578063c3f032ad14610114575b600080fd5b6100837f000000000000000000000000000000000000000000000000000000000000000081565b6040516001600160a01b03909116815260200160405180910390f35b6100837f000000000000000000000000000000000000000000000000000000000000000081565b6100837f000000000000000000000000000000000000000000000000000000000000000081565b6100837f000000000000000000000000000000000000000000000000000000000000000081565b6100836101223660046109ea565b600061012f848484610229565b61013882610370565b61014a8261014587610cf0565b6104e7565b60405163012dca7960e21b81526001600160a01b037f000000000000000000000000000000000000000000000000000000000000000016906304b729e490610196908590600401610da7565b6020604051808303816000875af11580156101b5573d6000803e3d6000fd5b505050506040513d601f19601f820116820180604052508101906101d99190610f5c565b90506101e581836105c0565b6040516001600160a01b03821681527f520b4351811464729581037d20341082d8883f518612cfb0d3c2f75c12b0c29d9060200160405180910390a1949350505050565b60405163511042ad60e01b81526000906001600160a01b037f0000000000000000000000000000000000000000000000000000000000000000169063511042ad90610278908790600401610f80565b60408051808303816000875af1158015610296573d6000803e3d6000fd5b505050506040513d601f19601f820116820180604052508101906102ba9190610fd9565b91505060007f00000000000000000000000000000000000000000000000000000000000000006001600160a01b031663511042ad856040518263ffffffff1660e01b815260040161030b9190610f80565b60408051808303816000875af1158015610329573d6000803e3d6000fd5b505050506040513d601f19601f8201168201806040525081019061034d9190610fd9565b6001600160a01b0393841660c08601529092166102609093019290925250505050565b6040805160c0810182526101808301516001600160a01b0390811682526101a08401518116602083019081526101c08501518216838501908152610320860151831660608501908152610340870151841660808601908152610360880151851660a0870190815296516313e01f3f60e11b8152865186166004820152935185166024850152915184166044840152518316606483015251821660848201529251811660a484015290916000917f000000000000000000000000000000000000000000000000000000000000000016906327c03e7e9060c40160c0604051808303816000875af1158015610467573d6000803e3d6000fd5b505050506040513d601f19601f8201168201806040525081019061048b9190611009565b80516001600160a01b03908116610180860152602082015181166101a0860152604082015181166101c0860152606082015181166103208601526080820151811661034086015260a09091015116610360909301929092525050565b60608201516001600160a01b0316610509578051610504906106d5565b61050f565b81606001515b6001600160a01b03908116606084015260808301511661053b5761053681602001516106d5565b610541565b81608001515b6001600160a01b0390811660808401526102008301511661056e5761056981604001516106d5565b610575565b8161020001515b6001600160a01b03908116610200840152610220830151166105a35761059e81606001516106d5565b6105aa565b8161022001515b6001600160a01b03166102209092019190915250565b600080836001600160a01b031663aecc90cb6040518163ffffffff1660e01b81526004016040805180830381865afa158015610600573d6000803e3d6000fd5b505050506040513d601f19601f8201168201806040525081019061062491906110b4565b91509150600060405180606001604052808561018001516001600160a01b03168152602001856101a001516001600160a01b03168152602001856101c001516001600160a01b0316815250905061067c8582856107a5565b60405180606001604052808561032001516001600160a01b031681526020018561034001516001600160a01b031681526020018561036001516001600160a01b031681525090506106ce8582846107a5565b5050505050565b80516000906001600160a01b0381166106f15750600092915050565b600080826001600160a01b0316856020015160405161071091906110e3565b6000604051808303816000865af19150503d806000811461074d576040519150601f19603f3d011682016040523d82523d6000602084013e610752565b606091505b509150915081158061076657508051602014155b1561079357604051630557304160e31b81526001600160a01b038416600482015260240160405180910390fd5b61079c81611112565b95945050505050565b604051630483b24f60e41b81526001600160a01b038281166004830152600091829182919087169063483b24f090602401606060405180830381865afa1580156107f3573d6000803e3d6000fd5b505050506040513d601f19601f820116820180604052508101906108179190611136565b8751929550909350915061082c908490610850565b61083a828660200151610850565b610848818660400151610850565b505050505050565b6001600160a01b038116156108de5760405163485cc95560e01b81526001600160a01b037f000000000000000000000000000000000000000000000000000000000000000081166004830152838116602483015282169063485cc95590604401600060405180830381600087803b1580156108ca57600080fd5b505af1158015610848573d6000803e3d6000fd5b5050565b600061010082840312156108f557600080fd5b50919050565b634e487b7160e01b600052604160045260246000fd5b604051610380810167ffffffffffffffff81118282101715610935576109356108fb565b60405290565b6040805190810167ffffffffffffffff81118282101715610935576109356108fb565b6040516080810167ffffffffffffffff81118282101715610935576109356108fb565b604051601f8201601f1916810167ffffffffffffffff811182821017156109aa576109aa6108fb565b604052919050565b6001600160a01b03811681146109c757600080fd5b50565b80356109d5816109b2565b919050565b803580151581146109d557600080fd5b6000806000808486036105a0811215610a0257600080fd5b853567ffffffffffffffff811115610a1957600080fd5b860160808189031215610a2b57600080fd5b9450610a3a87602088016108e2565b9350610a4a8761012088016108e2565b925061038061021f1982011215610a6057600080fd5b50610a69610911565b610a7661022087016109ca565b81526102408601356020820152610a9061026087016109ca565b6040820152610280610aa38188016109ca565b60608301526102a0610ab68189016109ca565b60808401526102c0610ac9818a016109ca565b60a08501526102e0610adc818b016109ca565b60c0860152610300808b013560e0870152610320808c0135610100880152610340808d0135610120890152610360808e01356101408a0152610b216103808f016109da565b6101608a0152610b346103a08f016109ca565b6101808a0152610b476103c08f016109ca565b6101a08a0152610b5a6103e08f016109ca565b6101c08a0152610b6d6104008f016109ca565b6101e08a0152610b806104208f016109ca565b6102008a0152610b936104408f016109ca565b6102208a0152610ba66104608f016109ca565b6102408a0152610bb96104808f016109ca565b6102608a01526104a08e0135888a01526104c08e0135878a01526104e08e0135868a01526105008e0135858a0152610bf46105208f016109da565b848a0152610c056105408f016109ca565b838a0152610c166105608f016109ca565b828a0152610c276105808f016109ca565b9089015250999c989b50969950939750505050505050565b600060408284031215610c5157600080fd5b610c5961093b565b90508135610c66816109b2565b815260208281013567ffffffffffffffff80821115610c8457600080fd5b818501915085601f830112610c9857600080fd5b813581811115610caa57610caa6108fb565b610cbc601f8201601f19168501610981565b91508082528684828501011115610cd257600080fd5b80848401858401376000908201840152918301919091525092915050565b600060808236031215610d0257600080fd5b610d0a61095e565b823567ffffffffffffffff80821115610d2257600080fd5b610d2e36838701610c3f565b83526020850135915080821115610d4457600080fd5b610d5036838701610c3f565b60208401526040850135915080821115610d6957600080fd5b610d7536838701610c3f565b60408401526060850135915080821115610d8e57600080fd5b50610d9b36828601610c3f565b60608301525092915050565b81516001600160a01b031681526103808101602083015160208301526040830151610ddd60408401826001600160a01b03169052565b506060830151610df860608401826001600160a01b03169052565b506080830151610e1360808401826001600160a01b03169052565b5060a0830151610e2e60a08401826001600160a01b03169052565b5060c0830151610e4960c08401826001600160a01b03169052565b5060e0838101519083015261010080840151908301526101208084015190830152610140808401519083015261016080840151151590830152610180808401516001600160a01b03908116918401919091526101a0808501518216908401526101c0808501518216908401526101e0808501518216908401526102008085015182169084015261022080850151821690840152610240808501518216908401526102608085015182169084015261028080850151908401526102a080850151908401526102c080850151908401526102e080850151908401526103008085015115159084015261032080850151821690840152610340808501518216908401526103609384015116929091019190915290565b600060208284031215610f6e57600080fd5b8151610f79816109b2565b9392505050565b600061010082019050823582526020830135602083015260408301356040830152606083013560608301526080830135608083015260a083013560a083015260c083013560c083015260e083013560e083015292915050565b60008060408385031215610fec57600080fd5b825191506020830151610ffe816109b2565b809150509250929050565b600060c0828403121561101b57600080fd5b60405160c0810181811067ffffffffffffffff8211171561103e5761103e6108fb565b604052825161104c816109b2565b8152602083015161105c816109b2565b6020820152604083015161106f816109b2565b60408201526060830151611082816109b2565b60608201526080830151611095816109b2565b608082015260a08301516110a8816109b2565b60a08201529392505050565b600080604083850312156110c757600080fd5b82516110d2816109b2565b6020840151909250610ffe816109b2565b6000825160005b8181101561110457602081860181015185830152016110ea565b506000920191825250919050565b805160208083015191908110156108f55760001960209190910360031b1b16919050565b60008060006060848603121561114b57600080fd5b8351611156816109b2565b6020850151909350611167816109b2565b6040850151909250611178816109b2565b80915050925092509256fea264697066735822122085c257880a5ca67947c5b302cbe0f56e49e33cfcd27193ef98699bec95dc2ae564736f6c63430008150033",
  "language": "Solidity",
  "compiler": "0.8.21+commit.d9974bed"
}