{
  "address": "0xe376888fD6E5D5Afc12FEa0a8C18f283051c23aD",
  "abi": [
    {
      "inputs": [
        {
          "internalType": "uint256",
          "name": "_daoFee",
          "type": "uint256"
        },
        {
          "internalType": "address",
          "name": "_daoFeeReceiver",
          "type": "address"
        }
      ],
      "stateMutability": "nonpayable",
      "type": "constructor"
    },
    {
      "inputs": [],
      "name": "MAX_FEE",
      "outputs": [
        {
          "internalType": "uint256",
          "name": "",
          "type": "uint256"
        }
      ],
      "stateMutability": "view",
      "type": "function"
    },
    {
      "inputs": [],
      "name": "MAX_PERCENT",
      "outputs": [
        {
          "internalType": "uint256",
          "name": "",
          "type": "uint256"
        }
      ],
      "stateMutability": "view",
      "type": "function"
    },
    {
      "inputs": [],
      "name": "acceptOwnership",
      "outputs": [],
      "stateMutability": "nonpayable",
      "type": "function"
    },
    {
      "inputs": [
        {
          "internalType": "address",
          "name": "to",
          "type": "address"
        },
        {
          "internalType": "uint256",
          "name": "tokenId",
          "type": "uint256"
        }
      ],
      "name": "approve",
      "outputs": [],
      "stateMutability": "nonpayable",
      "type": "function"
    },
    {
      "inputs": [
        {
          "internalType": "address",
          "name": "owner",
          "type": "address"
        }
      ],
      "name": "balanceOf",
      "outputs": [
        {
          "internalType": "uint256",
          "name": "",
          "type": "uint256"
        }
      ],
      "stateMutability": "view",
      "type": "function"
    },
    {
      "inputs": [],
      "name": "baseURI",
      "outputs": [
        {
          "internalType": "string",
          "name": "",
          "type": "string"
        }
      ],
      "stateMutability": "view",
      "type": "function"
    },
    {
      "inputs": [
        {
          "internalType": "uint256",
          "name": "_siloIdToBurn",
          "type": "uint256"
        }
      ],
      "name": "burn",
      "outputs": [],
      "stateMutability": "nonpayable",
      "type": "function"
    },
    {
      "inputs": [
        {
          "components": [
            {
              "internalType": "address",
              "name": "deployer",
              "type": "address"
            },
            {
              "internalType": "address",
              "name": "hookReceiver",
              "type": "address"
            },
            {
              "internalType": "uint256",
              "name": "deployerFee",
              "type": "uint256"
            },
            {
              "internalType": "address",
              "name": "token0",
              "type": "address"
            },
            {
              "internalType": "address",
              "name": "solvencyOracle0",
              "type": "address"
            },
            {
              "internalType": "address",
              "name": "maxLtvOracle0",
              "type": "address"
            },
            {
              "internalType": "address",
              "name": "interestRateModel0",
              "type": "address"
            },
            {
              "internalType": "uint256",
              "name": "maxLtv0",
              "type": "uint256"
            },
            {
              "internalType": "uint256",
              "name": "lt0",
              "type": "uint256"
            },
            {
              "internalType": "uint256",
              "name": "liquidationFee0",
              "type": "uint256"
            },
            {
              "internalType": "uint256",
              "name": "flashloanFee0",
              "type": "uint256"
            },
            {
              "internalType": "bool",
              "name": "callBeforeQuote0",
              "type": "bool"
            },
            {
              "internalType": "address",
              "name": "token1",
              "type": "address"
            },
            {
              "internalType": "address",
              "name": "solvencyOracle1",
              "type": "address"
            },
            {
              "internalType": "address",
              "name": "maxLtvOracle1",
              "type": "address"
            },
            {
              "internalType": "address",
              "name": "interestRateModel1",
              "type": "address"
            },
            {
              "internalType": "uint256",
              "name": "maxLtv1",
              "type": "uint256"
            },
            {
              "internalType": "uint256",
              "name": "lt1",
              "type": "uint256"
            },
            {
              "internalType": "uint256",
              "name": "liquidationFee1",
              "type": "uint256"
            },
            {
              "internalType": "uint256",
              "name": "flashloanFee1",
              "type": "uint256"
            },
            {
              "internalType": "bool",
              "name": "callBeforeQuote1",
              "type": "bool"
            }
          ],
          "internalType": "struct ISiloConfig.InitData",
          "name": "_initData",
          "type": "tuple"
        },
        {
          "internalType": "contract ISiloConfig",
          "name": "_siloConfig",
          "type": "address"
        },
        {
          "internalType": "address",
          "name": "_siloImpl",
          "type": "address"
        },
        {
          "internalType": "address",
          "name": "_shareProtectedCollateralTokenImpl",
          "type": "address"
        },
        {
          "internalType": "address",
          "name": "_shareDebtTokenImpl",
          "type": "address"
        }
      ],
      "name": "createSilo",
      "outputs": [],
      "stateMutability": "nonpayable",
      "type": "function"
    },
    {
      "inputs": [],
      "name": "daoFee",
      "outputs": [
        {
          "internalType": "uint256",
          "name": "",
          "type": "uint256"
        }
      ],
      "stateMutability": "view",
      "type": "function"
    },
    {
      "inputs": [],
      "name": "daoFeeReceiver",
      "outputs": [
        {
          "internalType": "address",
          "name": "",
          "type": "address"
        }
      ],
      "stateMutability": "view",
      "type": "function"
    },
    {
      "inputs": [
        {
          "internalType": "uint256",
          "name": "tokenId",
          "type": "uint256"
        }
      ],
      "name": "getApproved",
      "outputs": [
        {
          "internalType": "address",
          "name": "",
          "type": "address"
        }
      ],
      "stateMutability": "view",
      "type": "function"
    },
    {
      "inputs": [
        {
          "internalType": "address",
          "name": "_silo",
          "type": "address"
        }
      ],
      "name": "getFeeReceivers",
      "outputs": [
        {
          "internalType": "address",
          "name": "dao",
          "type": "address"
        },
        {
          "internalType": "address",
          "name": "deployer",
          "type": "address"
        }
      ],
      "stateMutability": "view",
      "type": "function"
    },
    {
      "inputs": [],
      "name": "getNextSiloId",
      "outputs": [
        {
          "internalType": "uint256",
          "name": "",
          "type": "uint256"
        }
      ],
      "stateMutability": "view",
      "type": "function"
    },
    {
      "inputs": [
        {
          "internalType": "uint256",
          "name": "id",
          "type": "uint256"
        }
      ],
      "name": "idToSiloConfig",
      "outputs": [
        {
          "internalType": "address",
          "name": "siloConfig",
          "type": "address"
        }
      ],
      "stateMutability": "view",
      "type": "function"
    },
    {
      "inputs": [
        {
          "internalType": "address",
          "name": "owner",
          "type": "address"
        },
        {
          "internalType": "address",
          "name": "operator",
          "type": "address"
        }
      ],
      "name": "isApprovedForAll",
      "outputs": [
        {
          "internalType": "bool",
          "name": "",
          "type": "bool"
        }
      ],
      "stateMutability": "view",
      "type": "function"
    },
    {
      "inputs": [
        {
          "internalType": "address",
          "name": "silo",
          "type": "address"
        }
      ],
      "name": "isSilo",
      "outputs": [
        {
          "internalType": "bool",
          "name": "",
          "type": "bool"
        }
      ],
      "stateMutability": "view",
      "type": "function"
    },
    {
      "inputs": [],
      "name": "maxDeployerFee",
      "outputs": [
        {
          "internalType": "uint256",
          "name": "",
          "type": "uint256"
        }
      ],
      "stateMutability": "view",
      "type": "function"
    },
    {
      "inputs": [],
      "name": "maxFlashloanFee",
      "outputs": [
        {
          "internalType": "uint256",
          "name": "",
          "type": "uint256"
        }
      ],
      "stateMutability": "view",
      "type": "function"
    },
    {
      "inputs": [],
      "name": "maxLiquidationFee",
      "outputs": [
        {
          "internalType": "uint256",
          "name": "",
          "type": "uint256"
        }
      ],
      "stateMutability": "view",
      "type": "function"
    },
    {
      "inputs": [],
      "name": "name",
      "outputs": [
        {
          "internalType": "string",
          "name": "",
          "type": "string"
        }
      ],
      "stateMutability": "view",
      "type": "function"
    },
    {
      "inputs": [],
      "name": "owner",
      "outputs": [
        {
          "internalType": "address",
          "name": "",
          "type": "address"
        }
      ],
      "stateMutability": "view",
      "type": "function"
    },
    {
      "inputs": [
        {
          "internalType": "uint256",
          "name": "tokenId",
          "type": "uint256"
        }
      ],
      "name": "ownerOf",
      "outputs": [
        {
          "internalType": "address",
          "name": "",
          "type": "address"
        }
      ],
      "stateMutability": "view",
      "type": "function"
    },
    {
      "inputs": [],
      "name": "pendingOwner",
      "outputs": [
        {
          "internalType": "address",
          "name": "",
          "type": "address"
        }
      ],
      "stateMutability": "view",
      "type": "function"
    },
    {
      "inputs": [],
      "name": "renounceOwnership",
      "outputs": [],
      "stateMutability": "nonpayable",
      "type": "function"
    },
    {
      "inputs": [
        {
          "internalType": "address",
          "name": "from",
          "type": "address"
        },
        {
          "internalType": "address",
          "name": "to",
          "type": "address"
        },
        {
          "internalType": "uint256",
          "name": "tokenId",
          "type": "uint256"
        }
      ],
      "name": "safeTransferFrom",
      "outputs": [],
      "stateMutability": "nonpayable",
      "type": "function"
    },
    {
      "inputs": [
        {
          "internalType": "address",
          "name": "from",
          "type": "address"
        },
        {
          "internalType": "address",
          "name": "to",
          "type": "address"
        },
        {
          "internalType": "uint256",
          "name": "tokenId",
          "type": "uint256"
        },
        {
          "internalType": "bytes",
          "name": "data",
          "type": "bytes"
        }
      ],
      "name": "safeTransferFrom",
      "outputs": [],
      "stateMutability": "nonpayable",
      "type": "function"
    },
    {
      "inputs": [
        {
          "internalType": "address",
          "name": "operator",
          "type": "address"
        },
        {
          "internalType": "bool",
          "name": "approved",
          "type": "bool"
        }
      ],
      "name": "setApprovalForAll",
      "outputs": [],
      "stateMutability": "nonpayable",
      "type": "function"
    },
    {
      "inputs": [
        {
          "internalType": "string",
          "name": "_newBaseURI",
          "type": "string"
        }
      ],
      "name": "setBaseURI",
      "outputs": [],
      "stateMutability": "nonpayable",
      "type": "function"
    },
    {
      "inputs": [
        {
          "internalType": "uint256",
          "name": "_newDaoFee",
          "type": "uint256"
        }
      ],
      "name": "setDaoFee",
      "outputs": [],
      "stateMutability": "nonpayable",
      "type": "function"
    },
    {
      "inputs": [
        {
          "internalType": "address",
          "name": "_newDaoFeeReceiver",
          "type": "address"
        }
      ],
      "name": "setDaoFeeReceiver",
      "outputs": [],
      "stateMutability": "nonpayable",
      "type": "function"
    },
    {
      "inputs": [
        {
          "internalType": "uint256",
          "name": "_newMaxDeployerFee",
          "type": "uint256"
        }
      ],
      "name": "setMaxDeployerFee",
      "outputs": [],
      "stateMutability": "nonpayable",
      "type": "function"
    },
    {
      "inputs": [
        {
          "internalType": "uint256",
          "name": "_newMaxFlashloanFee",
          "type": "uint256"
        }
      ],
      "name": "setMaxFlashloanFee",
      "outputs": [],
      "stateMutability": "nonpayable",
      "type": "function"
    },
    {
      "inputs": [
        {
          "internalType": "uint256",
          "name": "_newMaxLiquidationFee",
          "type": "uint256"
        }
      ],
      "name": "setMaxLiquidationFee",
      "outputs": [],
      "stateMutability": "nonpayable",
      "type": "function"
    },
    {
      "inputs": [
        {
          "internalType": "bytes4",
          "name": "interfaceId",
          "type": "bytes4"
        }
      ],
      "name": "supportsInterface",
      "outputs": [
        {
          "internalType": "bool",
          "name": "",
          "type": "bool"
        }
      ],
      "stateMutability": "view",
      "type": "function"
    },
    {
      "inputs": [],
      "name": "symbol",
      "outputs": [
        {
          "internalType": "string",
          "name": "",
          "type": "string"
        }
      ],
      "stateMutability": "view",
      "type": "function"
    },
    {
      "inputs": [
        {
          "internalType": "uint256",
          "name": "tokenId",
          "type": "uint256"
        }
      ],
      "name": "tokenURI",
      "outputs": [
        {
          "internalType": "string",
          "name": "",
          "type": "string"
        }
      ],
      "stateMutability": "view",
      "type": "function"
    },
    {
      "inputs": [
        {
          "internalType": "address",
          "name": "from",
          "type": "address"
        },
        {
          "internalType": "address",
          "name": "to",
          "type": "address"
        },
        {
          "internalType": "uint256",
          "name": "tokenId",
          "type": "uint256"
        }
      ],
      "name": "transferFrom",
      "outputs": [],
      "stateMutability": "nonpayable",
      "type": "function"
    },
    {
      "inputs": [
        {
          "internalType": "address",
          "name": "newOwner",
          "type": "address"
        }
      ],
      "name": "transferOwnership",
      "outputs": [],
      "stateMutability": "nonpayable",
      "type": "function"
    },
    {
      "inputs": [
        {
          "components": [
            {
              "internalType": "address",
              "name": "deployer",
              "type": "address"
            },
            {
              "internalType": "address",
              "name": "hookReceiver",
              "type": "address"
            },
            {
              "internalType": "uint256",
              "name": "deployerFee",
              "type": "uint256"
            },
            {
              "internalType": "address",
              "name": "token0",
              "type": "address"
            },
            {
              "internalType": "address",
              "name": "solvencyOracle0",
              "type": "address"
            },
            {
              "internalType": "address",
              "name": "maxLtvOracle0",
              "type": "address"
            },
            {
              "internalType": "address",
              "name": "interestRateModel0",
              "type": "address"
            },
            {
              "internalType": "uint256",
              "name": "maxLtv0",
              "type": "uint256"
            },
            {
              "internalType": "uint256",
              "name": "lt0",
              "type": "uint256"
            },
            {
              "internalType": "uint256",
              "name": "liquidationFee0",
              "type": "uint256"
            },
            {
              "internalType": "uint256",
              "name": "flashloanFee0",
              "type": "uint256"
            },
            {
              "internalType": "bool",
              "name": "callBeforeQuote0",
              "type": "bool"
            },
            {
              "internalType": "address",
              "name": "token1",
              "type": "address"
            },
            {
              "internalType": "address",
              "name": "solvencyOracle1",
              "type": "address"
            },
            {
              "internalType": "address",
              "name": "maxLtvOracle1",
              "type": "address"
            },
            {
              "internalType": "address",
              "name": "interestRateModel1",
              "type": "address"
            },
            {
              "internalType": "uint256",
              "name": "maxLtv1",
              "type": "uint256"
            },
            {
              "internalType": "uint256",
              "name": "lt1",
              "type": "uint256"
            },
            {
              "internalType": "uint256",
              "name": "liquidationFee1",
              "type": "uint256"
            },
            {
              "internalType": "uint256",
              "name": "flashloanFee1",
              "type": "uint256"
            },
            {
              "internalType": "bool",
              "name": "callBeforeQuote1",
              "type": "bool"
            }
          ],
          "internalType": "struct ISiloConfig.InitData",
          "name": "_initData",
          "type": "tuple"
        }
      ],
      "name": "validateSiloInitData",
      "outputs": [
        {
          "internalType": "bool",
          "name": "",
          "type": "bool"
        }
      ],
      "stateMutability": "view",
      "type": "function"
    },
    {
      "anonymous": false,
      "inputs": [
        {
          "indexed": true,
          "internalType": "address",
          "name": "owner",
          "type": "address"
        },
        {
          "indexed": true,
          "internalType": "address",
          "name": "approved",
          "type": "address"
        },
        {
          "indexed": true,
          "internalType": "uint256",
          "name": "tokenId",
          "type": "uint256"
        }
      ],
      "name": "Approval",
      "type": "event"
    },
    {
      "anonymous": false,
      "inputs": [
        {
          "indexed": true,
          "internalType": "address",
          "name": "owner",
          "type": "address"
        },
        {
          "indexed": true,
          "internalType": "address",
          "name": "operator",
          "type": "address"
        },
        {
          "indexed": false,
          "internalType": "bool",
          "name": "approved",
          "type": "bool"
        }
      ],
      "name": "ApprovalForAll",
      "type": "event"
    },
    {
      "anonymous": false,
      "inputs": [
        {
          "indexed": false,
          "internalType": "string",
          "name": "newBaseURI",
          "type": "string"
        }
      ],
      "name": "BaseURI",
      "type": "event"
    },
    {
      "anonymous": false,
      "inputs": [
        {
          "indexed": false,
          "internalType": "uint256",
          "name": "daoFee",
          "type": "uint256"
        }
      ],
      "name": "DaoFeeChanged",
      "type": "event"
    },
    {
      "anonymous": false,
      "inputs": [
        {
          "indexed": false,
          "internalType": "address",
          "name": "daoFeeReceiver",
          "type": "address"
        }
      ],
      "name": "DaoFeeReceiverChanged",
      "type": "event"
    },
    {
      "anonymous": false,
      "inputs": [
        {
          "indexed": false,
          "internalType": "uint256",
          "name": "maxDeployerFee",
          "type": "uint256"
        }
      ],
      "name": "MaxDeployerFeeChanged",
      "type": "event"
    },
    {
      "anonymous": false,
      "inputs": [
        {
          "indexed": false,
          "internalType": "uint256",
          "name": "maxFlashloanFee",
          "type": "uint256"
        }
      ],
      "name": "MaxFlashloanFeeChanged",
      "type": "event"
    },
    {
      "anonymous": false,
      "inputs": [
        {
          "indexed": false,
          "internalType": "uint256",
          "name": "maxLiquidationFee",
          "type": "uint256"
        }
      ],
      "name": "MaxLiquidationFeeChanged",
      "type": "event"
    },
    {
      "anonymous": false,
      "inputs": [
        {
          "indexed": true,
          "internalType": "address",
          "name": "implementation",
          "type": "address"
        },
        {
          "indexed": true,
          "internalType": "address",
          "name": "token0",
          "type": "address"
        },
        {
          "indexed": true,
          "internalType": "address",
          "name": "token1",
          "type": "address"
        },
        {
          "indexed": false,
          "internalType": "address",
          "name": "silo0",
          "type": "address"
        },
        {
          "indexed": false,
          "internalType": "address",
          "name": "silo1",
          "type": "address"
        },
        {
          "indexed": false,
          "internalType": "address",
          "name": "siloConfig",
          "type": "address"
        }
      ],
      "name": "NewSilo",
      "type": "event"
    },
    {
      "anonymous": false,
      "inputs": [
        {
          "indexed": true,
          "internalType": "address",
          "name": "previousOwner",
          "type": "address"
        },
        {
          "indexed": true,
          "internalType": "address",
          "name": "newOwner",
          "type": "address"
        }
      ],
      "name": "OwnershipTransferStarted",
      "type": "event"
    },
    {
      "anonymous": false,
      "inputs": [
        {
          "indexed": true,
          "internalType": "address",
          "name": "previousOwner",
          "type": "address"
        },
        {
          "indexed": true,
          "internalType": "address",
          "name": "newOwner",
          "type": "address"
        }
      ],
      "name": "OwnershipTransferred",
      "type": "event"
    },
    {
      "anonymous": false,
      "inputs": [
        {
          "indexed": true,
          "internalType": "address",
          "name": "from",
          "type": "address"
        },
        {
          "indexed": true,
          "internalType": "address",
          "name": "to",
          "type": "address"
        },
        {
          "indexed": true,
          "internalType": "uint256",
          "name": "tokenId",
          "type": "uint256"
        }
      ],
      "name": "Transfer",
      "type": "event"
    },
    {
      "inputs": [
        {
          "internalType": "address",
          "name": "sender",
          "type": "address"
        },
        {
          "internalType": "uint256",
          "name": "tokenId",
          "type": "uint256"
        },
        {
          "internalType": "address",
          "name": "owner",
          "type": "address"
        }
      ],
      "name": "ERC721IncorrectOwner",
      "type": "error"
    },
    {
      "inputs": [
        {
          "internalType": "address",
          "name": "operator",
          "type": "address"
        },
        {
          "internalType": "uint256",
          "name": "tokenId",
          "type": "uint256"
        }
      ],
      "name": "ERC721InsufficientApproval",
      "type": "error"
    },
    {
      "inputs": [
        {
          "internalType": "address",
          "name": "approver",
          "type": "address"
        }
      ],
      "name": "ERC721InvalidApprover",
      "type": "error"
    },
    {
      "inputs": [
        {
          "internalType": "address",
          "name": "operator",
          "type": "address"
        }
      ],
      "name": "ERC721InvalidOperator",
      "type": "error"
    },
    {
      "inputs": [
        {
          "internalType": "address",
          "name": "owner",
          "type": "address"
        }
      ],
      "name": "ERC721InvalidOwner",
      "type": "error"
    },
    {
      "inputs": [
        {
          "internalType": "address",
          "name": "receiver",
          "type": "address"
        }
      ],
      "name": "ERC721InvalidReceiver",
      "type": "error"
    },
    {
      "inputs": [
        {
          "internalType": "address",
          "name": "sender",
          "type": "address"
        }
      ],
      "name": "ERC721InvalidSender",
      "type": "error"
    },
    {
      "inputs": [
        {
          "internalType": "uint256",
          "name": "tokenId",
          "type": "uint256"
        }
      ],
      "name": "ERC721NonexistentToken",
      "type": "error"
    },
    {
      "inputs": [],
      "name": "EmptyToken0",
      "type": "error"
    },
    {
      "inputs": [],
      "name": "EmptyToken1",
      "type": "error"
    },
    {
      "inputs": [],
      "name": "FailedDeployment",
      "type": "error"
    },
    {
      "inputs": [],
      "name": "HookIsZeroAddress",
      "type": "error"
    },
    {
      "inputs": [
        {
          "internalType": "uint256",
          "name": "balance",
          "type": "uint256"
        },
        {
          "internalType": "uint256",
          "name": "needed",
          "type": "uint256"
        }
      ],
      "name": "InsufficientBalance",
      "type": "error"
    },
    {
      "inputs": [],
      "name": "InvalidCallBeforeQuote",
      "type": "error"
    },
    {
      "inputs": [],
      "name": "InvalidDeployer",
      "type": "error"
    },
    {
      "inputs": [],
      "name": "InvalidIrm",
      "type": "error"
    },
    {
      "inputs": [],
      "name": "InvalidIrmConfig",
      "type": "error"
    },
    {
      "inputs": [],
      "name": "InvalidLt",
      "type": "error"
    },
    {
      "inputs": [],
      "name": "InvalidMaxLtv",
      "type": "error"
    },
    {
      "inputs": [],
      "name": "InvalidQuoteToken",
      "type": "error"
    },
    {
      "inputs": [],
      "name": "MaxDeployerFeeExceeded",
      "type": "error"
    },
    {
      "inputs": [],
      "name": "MaxFeeExceeded",
      "type": "error"
    },
    {
      "inputs": [],
      "name": "MaxFlashloanFeeExceeded",
      "type": "error"
    },
    {
      "inputs": [],
      "name": "MaxLiquidationFeeExceeded",
      "type": "error"
    },
    {
      "inputs": [],
      "name": "MissingHookReceiver",
      "type": "error"
    },
    {
      "inputs": [],
      "name": "OracleMisconfiguration",
      "type": "error"
    },
    {
      "inputs": [
        {
          "internalType": "address",
          "name": "owner",
          "type": "address"
        }
      ],
      "name": "OwnableInvalidOwner",
      "type": "error"
    },
    {
      "inputs": [
        {
          "internalType": "address",
          "name": "account",
          "type": "address"
        }
      ],
      "name": "OwnableUnauthorizedAccount",
      "type": "error"
    },
    {
      "inputs": [],
      "name": "SameAsset",
      "type": "error"
    },
    {
      "inputs": [
        {
          "internalType": "uint256",
          "name": "value",
          "type": "uint256"
        },
        {
          "internalType": "uint256",
          "name": "length",
          "type": "uint256"
        }
      ],
      "name": "StringsInsufficientHexLength",
      "type": "error"
    },
    {
      "inputs": [],
      "name": "ZeroAddress",
      "type": "error"
    }
  ],
  "bytecode": "0x608060405234801561000f575f5ffd5b506040516132d83803806132d883398101604081905261002e916103b2565b336040518060400160405280601981526020017f53696c6f2046696e616e636520466565205265636569766572000000000000008152506040518060400160405280600781526020016666656553494c4f60c81b815250815f90816100939190610484565b5060016100a08282610484565b5050506001600160a01b0381166100d057604051631e4fbdf760e01b81525f600482015260240160405180910390fd5b6100d981610151565b506001601055604080516060810190915260248082526132b46020830139600d906101049082610484565b5061010e8261016d565b610117816101d2565b610128670214e8348c4f0000610247565b610139670214e8348c4f00006102a5565b61014a670429d069189e0000610303565b505061053e565b600780546001600160a01b031916905561016a81610361565b50565b67058d15e1762800008111156101965760405163f4df6ae560e01b815260040160405180910390fd5b60088190556040518181527f4fad9480b42671731d484ac2e96b50de7c154624b63f3d3eb30c38dc6ebfb0c7906020015b60405180910390a150565b6001600160a01b0381166101f95760405163506d9faf60e11b815260040160405180910390fd5b600c80546001600160a01b0319166001600160a01b0383169081179091556040519081527fd4d4983241668aa2825c51b20af727fb71c4842fec0f87360e3a242e420d8a30906020016101c7565b67058d15e1762800008111156102705760405163f4df6ae560e01b815260040160405180910390fd5b60098190556040518181527f2d968512555a43164b980ee73a764cfa2aecd7305806fda33d94fdca1bc6d4cf906020016101c7565b67058d15e1762800008111156102ce5760405163f4df6ae560e01b815260040160405180910390fd5b600a8190556040518181527fb85fdb9b20a2472208897b9903ae1a3e943769ab70ef74e679ecd80ec2ab5020906020016101c7565b67058d15e17628000081111561032c5760405163f4df6ae560e01b815260040160405180910390fd5b600b8190556040518181527f0565ffb26c5ec0ddf0975584b3c48758d8486aea008bd280bf2c98f2464f441f906020016101c7565b600680546001600160a01b038381166001600160a01b0319831681179093556040519116919082907f8be0079c531659141344cd1fd0a4f28419497f9722a3daafe3b4186f6b6457e0905f90a35050565b5f5f604083850312156103c3575f5ffd5b825160208401519092506001600160a01b03811681146103e1575f5ffd5b809150509250929050565b634e487b7160e01b5f52604160045260245ffd5b600181811c9082168061041457607f821691505b60208210810361043257634e487b7160e01b5f52602260045260245ffd5b50919050565b601f82111561047f57805f5260205f20601f840160051c8101602085101561045d5750805b601f840160051c820191505b8181101561047c575f8155600101610469565b50505b505050565b81516001600160401b0381111561049d5761049d6103ec565b6104b1816104ab8454610400565b84610438565b6020601f8211600181146104e3575f83156104cc5750848201515b5f19600385901b1c1916600184901b17845561047c565b5f84815260208120601f198516915b8281101561051257878501518255602094850194600190920191016104f2565b508482101561052f57868401515f19600387901b60f8161c191681555b50505050600190811b01905550565b612d698061054b5f395ff3fe608060405234801561000f575f5ffd5b5060043610610234575f3560e01c80636c0360eb11610135578063b14a25a8116100b4578063de9bfd0611610079578063de9bfd06146104cd578063e30c3978146104f5578063e985e9c514610506578063eeb016f214610519578063f2fde38b14610522575f5ffd5b8063b14a25a814610472578063b88d4fde14610485578063bc063e1a14610498578063bc2ef3f3146104a7578063c87b56dd146104ba575f5ffd5b80638da5cb5b116100fa5780638da5cb5b1461042a57806395d89b411461043b578063a22cb46514610443578063a4c3e27214610456578063ab12bf801461045f575f5ffd5b80636c0360eb146103ec5780636fdb9632146103f457806370a0823114610407578063715018a61461041a57806379ba509714610422575f5ffd5b80632cb546ef116101c157806355f804b31161018657806355f804b31461039757806356bf27ae146103aa57806361ed96f5146103bd5780636352211e146103d057806363fcc73f146103e3575f5ffd5b80632cb546ef1461034357806342842e0e1461035657806342966c681461036957806349f33f2e1461037c5780635410b1a914610384575f5ffd5b80631036bbe2116102075780631036bbe2146102b557806312f0dcd8146102d2578063181a0a72146102f457806323b872dd146103275780632957b8391461033a575f5ffd5b806301ffc9a71461023857806306fdde0314610260578063081812fc14610275578063095ea7b3146102a0575b5f5ffd5b61024b610246366004612506565b610535565b60405190151581526020015b60405180910390f35b610268610586565b604051610257919061254f565b610288610283366004612561565b610615565b6040516001600160a01b039091168152602001610257565b6102b36102ae36600461259c565b61063c565b005b6102c4670de0b6b3a764000081565b604051908152602001610257565b61024b6102e03660046125c6565b600f6020525f908152604090205460ff1681565b6103076103023660046125c6565b61064b565b604080516001600160a01b03938416815292909116602083015201610257565b6102b36103353660046125e1565b610744565b6102c460085481565b61024b6103513660046127f1565b6107d2565b6102b36103643660046125e1565b6107e5565b6102b3610377366004612561565b610804565b6010546102c4565b6102b3610392366004612561565b610810565b6102b36103a536600461280c565b610821565b6102b36103b8366004612561565b610874565b600c54610288906001600160a01b031681565b6102886103de366004612561565b610885565b6102c4600a5481565b61026861088f565b6102b361040236600461287a565b61091b565b6102c46104153660046125c6565b610c68565b6102b3610cad565b6102b3610cc0565b6006546001600160a01b0316610288565b610268610d01565b6102b36104513660046128eb565b610d10565b6102c460095481565b6102b361046d3660046125c6565b610d1b565b6102b3610480366004612561565b610d2c565b6102b361049336600461291e565b610d3d565b6102c467058d15e17628000081565b6102b36104b5366004612561565b610d55565b6102686104c8366004612561565b610d66565b6102886104db366004612561565b600e6020525f90815260409020546001600160a01b031681565b6007546001600160a01b0316610288565b61024b6105143660046129e0565b610dc5565b6102c4600b5481565b6102b36105303660046125c6565b610df2565b5f6001600160e01b031982166380ac58cd60e01b148061056557506001600160e01b03198216635b5e139f60e01b145b8061058057506301ffc9a760e01b6001600160e01b03198316145b92915050565b60605f805461059490612a17565b80601f01602080910402602001604051908101604052809291908181526020018280546105c090612a17565b801561060b5780601f106105e25761010080835404028352916020019161060b565b820191905f5260205f20905b8154815290600101906020018083116105ee57829003601f168201915b5050505050905090565b5f61061f82610e63565b505f828152600460205260409020546001600160a01b0316610580565b610647828233610e9b565b5050565b5f5f5f836001600160a01b03166379502c556040518163ffffffff1660e01b8152600401602060405180830381865afa15801561068a573d5f5f3e3d5ffd5b505050506040513d601f19601f820116820180604052508101906106ae9190612a4f565b6001600160a01b031663189e17e46040518163ffffffff1660e01b8152600401602060405180830381865afa1580156106e9573d5f5f3e3d5ffd5b505050506040513d601f19601f8201168201806040525081019061070d9190612a6a565b600c549091506001600160a01b031661073a825f908152600260205260409020546001600160a01b031690565b9250925050915091565b6001600160a01b03821661077257604051633250574960e11b81525f60048201526024015b60405180910390fd5b5f61077e838333610ea8565b9050836001600160a01b0316816001600160a01b0316146107cc576040516364283d7b60e01b81526001600160a01b0380861660048301526024820184905282166044820152606401610769565b50505050565b5f61058082600954600a54600b54610f9c565b6107ff83838360405180602001604052805f815250610d3d565b505050565b61080d81611377565b50565b6108186113af565b61080d816113dc565b6108296113af565b600d610836828483612ac5565b507f01e56a02aca7f26a28165a040851ba78f30282b55ca81c63a804cdc1e2dcea728282604051610868929190612b7f565b60405180910390a15050565b61087c6113af565b61080d81611441565b5f61058082610e63565b600d805461089c90612a17565b80601f01602080910402602001604051908101604052809291908181526020018280546108c890612a17565b80156109135780601f106108ea57610100808354040283529160200191610913565b820191905f5260205f20905b8154815290600101906020018083116108f657829003601f168201915b505050505081565b6001600160a01b0383161580159061093b57506001600160a01b03821615155b801561094f57506001600160a01b03811615155b801561096357506001600160a01b03841615155b6109805760405163d92e233d60e01b815260040160405180910390fd5b61098861246e565b61099061246e565b6109a287600954600a54600b5461149f565b6010805460018101909155600854808452825291935091506109c48682611631565b6001600160a01b031660408401526109dc8682611644565b6001600160a01b031660408301526109f78383878785611652565b604080840151905163189acdbd60e31b81526001600160a01b0389811660048301529091169063c4d66de8906024015f604051808303815f87803b158015610a3d575f5ffd5b505af1158015610a4f573d5f5f3e3d5ffd5b505050604080840151905163189acdbd60e31b81526001600160a01b038a81166004830152909116915063c4d66de8906024015f604051808303815f87803b158015610a99575f5ffd5b505af1158015610aab573d5f5f3e3d5ffd5b50505050610ab983836116df565b82604001516001600160a01b031663cad1aacf6040518163ffffffff1660e01b81526004015f604051808303815f87803b158015610af5575f5ffd5b505af1158015610b07573d5f5f3e3d5ffd5b5050505081604001516001600160a01b031663cad1aacf6040518163ffffffff1660e01b81526004015f604051808303815f87803b158015610b47575f5ffd5b505af1158015610b59573d5f5f3e3d5ffd5b5050505f828152600e6020908152604080832080546001600160a01b0319166001600160a01b038d8116919091179091558782015181168452600f909252808320805460ff1990811660019081179092558783015184168552919093208054909116909217909155895116159050610bd7578751610bd79082611892565b81606001516001600160a01b031683606001516001600160a01b0316876001600160a01b03167f3d6b896c73b628ec6ba0bdfe3cdee1356ea2af31af2a97bbd6b532ca6fa00acb866040015186604001518c604051610c56939291906001600160a01b0393841681529183166020830152909116604082015260600190565b60405180910390a45050505050505050565b5f6001600160a01b038216610c92576040516322718ad960e21b81525f6004820152602401610769565b506001600160a01b03165f9081526003602052604090205490565b610cb56113af565b610cbe5f6118f3565b565b60075433906001600160a01b03168114610cf85760405163118cdaa760e01b81526001600160a01b0382166004820152602401610769565b61080d816118f3565b60606001805461059490612a17565b61064733838361190c565b610d236113af565b61080d816119aa565b610d346113af565b61080d81611a1f565b610d48848484610744565b6107cc3385858585611a7d565b610d5d6113af565b61080d81611ba5565b6060610d7182610e63565b50600d610d7d46611c03565b5f848152600e6020526040902054610d9d906001600160a01b0316611c93565b604051602001610daf93929190612bc4565b6040516020818303038152906040529050919050565b6001600160a01b039182165f90815260056020908152604080832093909416825291909152205460ff1690565b610dfa6113af565b600780546001600160a01b0383166001600160a01b03199091168117909155610e2b6006546001600160a01b031690565b6001600160a01b03167f38d16b8cac22d99fc7c124b9cd0de2d3fa1faef420bfe791d8c362d765e2270060405160405180910390a350565b5f818152600260205260408120546001600160a01b03168061058057604051637e27328960e01b815260048101849052602401610769565b6107ff8383836001611ca9565b5f828152600260205260408120546001600160a01b0390811690831615610ed457610ed4818486611dad565b6001600160a01b03811615610f0e57610eef5f855f5f611ca9565b6001600160a01b0381165f90815260036020526040902080545f190190555b6001600160a01b03851615610f3c576001600160a01b0385165f908152600360205260409020805460010190555b5f8481526002602052604080822080546001600160a01b0319166001600160a01b0389811691821790925591518793918516917fddf252ad1be2c89b69c2b068fc378daa952ba7f163c4a11628f55a4df523b3ef91a490505b9392505050565b60208401515f906001600160a01b0316610fc95760405163d83793a160e01b815260040160405180910390fd5b60608501516001600160a01b0316610ff457604051636bb1aa5360e11b815260040160405180910390fd5b6101808501516001600160a01b031661102057604051634eaf414f60e11b815260040160405180910390fd5b8461018001516001600160a01b031685606001516001600160a01b03160361105b5760405163534c524d60e11b815260040160405180910390fd5b60e0850151151580611071575061020085015115155b61108e576040516375fcbb8960e01b815260040160405180910390fd5b8461010001518560e0015111156110b8576040516375fcbb8960e01b815260040160405180910390fd5b84610220015185610200015111156110e3576040516375fcbb8960e01b815260040160405180910390fd5b670de0b6b3a76400008561010001511115801561110d5750670de0b6b3a764000085610220015111155b61112a576040516313fd16a560e11b815260040160405180910390fd5b60a08501516001600160a01b03161580611150575060808501516001600160a01b031615155b61116d5760405163952268d360e01b815260040160405180910390fd5b846101600151158061118b575060808501516001600160a01b031615155b6111a8576040516349cc353360e01b815260040160405180910390fd5b6101c08501516001600160a01b031615806111d057506101a08501516001600160a01b031615155b6111ed5760405163952268d360e01b815260040160405180910390fd5b846102800151158061120c57506101a08501516001600160a01b031615155b611229576040516349cc353360e01b815260040160405180910390fd5b61123285611e11565b6040850151158061124c575084516001600160a01b031615155b6112695760405163043c669f60e01b815260040160405180910390fd5b838560400151111561128e57604051632b01a30160e01b815260040160405180910390fd5b8285610140015111156112b45760405163923f853d60e01b815260040160405180910390fd5b8285610260015111156112da5760405163923f853d60e01b815260040160405180910390fd5b8185610120015111156113005760405163f817842b60e01b815260040160405180910390fd5b8185610240015111156113265760405163f817842b60e01b815260040160405180910390fd5b60c08501516001600160a01b03161580159061134f57506101e08501516001600160a01b031615155b61136c57604051632e4e395f60e01b815260040160405180910390fd5b506001949350505050565b5f6113835f835f610ea8565b90506001600160a01b03811661064757604051637e27328960e01b815260048101839052602401610769565b6006546001600160a01b03163314610cbe5760405163118cdaa760e01b8152336004820152602401610769565b67058d15e1762800008111156114055760405163f4df6ae560e01b815260040160405180910390fd5b60098190556040518181527f2d968512555a43164b980ee73a764cfa2aecd7305806fda33d94fdca1bc6d4cf906020015b60405180910390a150565b67058d15e17628000081111561146a5760405163f4df6ae560e01b815260040160405180910390fd5b600a8190556040518181527fb85fdb9b20a2472208897b9903ae1a3e943769ab70ef74e679ecd80ec2ab502090602001611436565b6114a761246e565b6114af61246e565b6114bb86868686610f9c565b5060208601516001600160a01b039081166101c08401526060808801518216908401526080870151811660e084015260a087015116156114ff578560a00151611505565b85608001515b6001600160a01b039081166101008085019190915260c088015182166101208086019190915260e0808a015161014080880191909152928a01516101608088019190915260408b0151602080890191909152928b015161018080890191909152938b01516101a080890191909152908b015115156101e0880152918a015184166101c080870191909152928a0151841660608601529089015183169084015287015116156115b857856101c001516115bf565b856101a001515b6001600160a01b039081166101008301526101e080880151909116610120830152610200870151610140830152610220870151610160830152604087015160208301526102408701516101808301526102608701516101a0830152610280909601511515958101959095529492505050565b5f610f958361163f84611e52565b611eac565b5f610f958361163f84611eb8565b6040808601516001600160a01b0390811660a08089019190915291860151169085015261167f8382611ef5565b6001600160a01b031660808601526116978382611f03565b6001600160a01b031660808501526116af8282611f11565b6001600160a01b031660c08601526116c78282611f1f565b6001600160a01b031660c09094019390935250505050565b6040808301516101c084015160808501519251630336c8d760e41b8152611000936120009392916001600160a01b039091169063336c8d709061172a90859085908990600401612c57565b5f604051808303815f87803b158015611741575f5ffd5b505af1158015611753573d5f5f3e3d5ffd5b505050508560c001516001600160a01b031663336c8d708383866040518463ffffffff1660e01b815260040161178b93929190612c57565b5f604051808303815f87803b1580156117a2575f5ffd5b505af11580156117b4573d5f5f3e3d5ffd5b5050506040808701516101c088015160808901519251630336c8d760e41b8152919350916001600160a01b03169063336c8d70906117fa90859085908b90600401612c57565b5f604051808303815f87803b158015611811575f5ffd5b505af1158015611823573d5f5f3e3d5ffd5b505050508660c001516001600160a01b031663336c8d708383886040518463ffffffff1660e01b815260040161185b93929190612c57565b5f604051808303815f87803b158015611872575f5ffd5b505af1158015611884573d5f5f3e3d5ffd5b505050505050505050505050565b6001600160a01b0382166118bb57604051633250574960e11b81525f6004820152602401610769565b5f6118c783835f610ea8565b90506001600160a01b038116156107ff576040516339e3563760e11b81525f6004820152602401610769565b600780546001600160a01b031916905561080d81611f2d565b6001600160a01b03821661193e57604051630b61174360e31b81526001600160a01b0383166004820152602401610769565b6001600160a01b038381165f81815260056020908152604080832094871680845294825291829020805460ff191686151590811790915591519182527f17307eab39ab6107e8899845ad3d59bd9653f200f220920489ca2b5937696c31910160405180910390a3505050565b6001600160a01b0381166119d15760405163506d9faf60e11b815260040160405180910390fd5b600c80546001600160a01b0319166001600160a01b0383169081179091556040519081527fd4d4983241668aa2825c51b20af727fb71c4842fec0f87360e3a242e420d8a3090602001611436565b67058d15e176280000811115611a485760405163f4df6ae560e01b815260040160405180910390fd5b60088190556040518181527f4fad9480b42671731d484ac2e96b50de7c154624b63f3d3eb30c38dc6ebfb0c790602001611436565b6001600160a01b0383163b15611b9e57604051630a85bd0160e11b81526001600160a01b0384169063150b7a0290611abf908890889087908790600401612c7f565b6020604051808303815f875af1925050508015611af9575060408051601f3d908101601f19168201909252611af691810190612cb1565b60015b611b60573d808015611b26576040519150601f19603f3d011682016040523d82523d5f602084013e611b2b565b606091505b5080515f03611b5857604051633250574960e11b81526001600160a01b0385166004820152602401610769565b805181602001fd5b6001600160e01b03198116630a85bd0160e11b14611b9c57604051633250574960e11b81526001600160a01b0385166004820152602401610769565b505b5050505050565b67058d15e176280000811115611bce5760405163f4df6ae560e01b815260040160405180910390fd5b600b8190556040518181527f0565ffb26c5ec0ddf0975584b3c48758d8486aea008bd280bf2c98f2464f441f90602001611436565b60605f611c0f83611f7e565b60010190505f8167ffffffffffffffff811115611c2e57611c2e61261f565b6040519080825280601f01601f191660200182016040528015611c58576020820181803683370190505b5090508181016020015b5f19016f181899199a1a9b1b9c1cb0b131b232b360811b600a86061a8153600a8504945084611c6257509392505050565b60606105806001600160a01b0383166014612055565b8080611cbd57506001600160a01b03821615155b15611d7e575f611ccc84610e63565b90506001600160a01b03831615801590611cf85750826001600160a01b0316816001600160a01b031614155b8015611d0b5750611d098184610dc5565b155b15611d345760405163a9fbf51f60e01b81526001600160a01b0384166004820152602401610769565b8115611d7c5783856001600160a01b0316826001600160a01b03167f8c5be1e5ebec7d5bd14f71427d1e84f3dd0314c0f7b2291e5b200ac8c7c3b92560405160405180910390a45b505b50505f90815260046020526040902080546001600160a01b0319166001600160a01b0392909216919091179055565b611db88383836121cf565b6107ff576001600160a01b038316611de657604051637e27328960e01b815260048101829052602401610769565b60405163177e802f60e01b81526001600160a01b038316600482015260248101829052604401610769565b5f611e20818360800151612230565b9050611e30818360a00151612230565b9050611e4181836101a00151612230565b90506107ff81836101c00151612230565b5f817f1d056e62b182fd7d4dada6cf9079a3ba83adb009746718f4f8751cbe6b93da61604051602001611e8f929190918252602082015260400190565b604051602081830303815290604052805190602001209050919050565b5f610f9583835f6122e9565b5f817fccf028ea8322db4ac7e226915bfb048583cd927e584ca9a1865904fbc439f663604051602001611e8f929190918252602082015260400190565b5f610f958361163f8461237a565b5f610f958361163f846123b7565b5f610f958361163f846123f4565b5f610f958361163f84612431565b600680546001600160a01b038381166001600160a01b0319831681179093556040519116919082907f8be0079c531659141344cd1fd0a4f28419497f9722a3daafe3b4186f6b6457e0905f90a35050565b5f8072184f03e93ff9f4daa797ed6e38ed64bf6a1f0160401b8310611fbc5772184f03e93ff9f4daa797ed6e38ed64bf6a1f0160401b830492506040015b6d04ee2d6d415b85acef81000000008310611fe8576d04ee2d6d415b85acef8100000000830492506020015b662386f26fc10000831061200657662386f26fc10000830492506010015b6305f5e100831061201e576305f5e100830492506008015b612710831061203257612710830492506004015b60648310612044576064830492506002015b600a83106105805760010192915050565b6060825f612064846002612ce0565b61206f906002612cf7565b67ffffffffffffffff8111156120875761208761261f565b6040519080825280601f01601f1916602001820160405280156120b1576020820181803683370190505b509050600360fc1b815f815181106120cb576120cb612d0a565b60200101906001600160f81b03191690815f1a905350600f60fb1b816001815181106120f9576120f9612d0a565b60200101906001600160f81b03191690815f1a9053505f61211b856002612ce0565b612126906001612cf7565b90505b600181111561219d576f181899199a1a9b1b9c1cb0b131b232b360811b83600f166010811061215a5761215a612d0a565b1a60f81b82828151811061217057612170612d0a565b60200101906001600160f81b03191690815f1a90535060049290921c9161219681612d1e565b9050612129565b5081156121c75760405163e22e27eb60e01b81526004810186905260248101859052604401610769565b949350505050565b5f6001600160a01b038316158015906121c75750826001600160a01b0316846001600160a01b0316148061220857506122088484610dc5565b806121c75750505f908152600460205260409020546001600160a01b03908116911614919050565b5f6001600160a01b038216612246575081610580565b816001600160a01b031663217a4b706040518163ffffffff1660e01b8152600401602060405180830381865afa158015612282573d5f5f3e3d5ffd5b505050506040513d601f19601f820116820180604052508101906122a69190612a4f565b90506001600160a01b0383161561058057806001600160a01b0316836001600160a01b031614610580576040516368ada7f160e11b815260040160405180910390fd5b5f814710156123145760405163cf47918160e01b815247600482015260248101839052604401610769565b6e5af43d82803e903d91602b57fd5bf360205283601152763d602d80600a3d3981f3363d3d373d3d3d363d730000008460881c175f52826037600984f590506001600160a01b038116610f955760405163b06ebf3d60e01b815260040160405180910390fd5b5f817f4245b46a55891445529f9a01161a9f64cdec348f693a26b07e5f0aa22b486b7d604051602001611e8f929190918252602082015260400190565b5f817f700bad9da2e1385ef7139f09887b5c24cdbc6e2d1b8562842d95da2e68c340cd604051602001611e8f929190918252602082015260400190565b5f817fbe4a9bb64c254c9ac164216a73a2afa86df28fb3a0204a98a311293dcd5f35fc604051602001611e8f929190918252602082015260400190565b5f817ff36c517579d731f207a45998256dee21125b3bb93f46a3a5d2a4caff5251ca74604051602001611e8f929190918252602082015260400190565b60408051610200810182525f80825260208201819052918101829052606081018290526080810182905260a0810182905260c0810182905260e08101829052610100810182905261012081018290526101408101829052610160810182905261018081018290526101a081018290526101c081018290526101e081019190915290565b6001600160e01b03198116811461080d575f5ffd5b5f60208284031215612516575f5ffd5b8135610f95816124f1565b5f81518084528060208401602086015e5f602082860101526020601f19601f83011685010191505092915050565b602081525f610f956020830184612521565b5f60208284031215612571575f5ffd5b5035919050565b6001600160a01b038116811461080d575f5ffd5b803561259781612578565b919050565b5f5f604083850312156125ad575f5ffd5b82356125b881612578565b946020939093013593505050565b5f602082840312156125d6575f5ffd5b8135610f9581612578565b5f5f5f606084860312156125f3575f5ffd5b83356125fe81612578565b9250602084013561260e81612578565b929592945050506040919091013590565b634e487b7160e01b5f52604160045260245ffd5b6040516102a0810167ffffffffffffffff811182821017156126575761265761261f565b60405290565b604051601f8201601f1916810167ffffffffffffffff811182821017156126865761268661261f565b604052919050565b80358015158114612597575f5ffd5b5f6102a082840312156126ae575f5ffd5b6126b6612633565b90506126c18261258c565b81526126cf6020830161258c565b6020820152604082810135908201526126ea6060830161258c565b60608201526126fb6080830161258c565b608082015261270c60a0830161258c565b60a082015261271d60c0830161258c565b60c082015260e0828101359082015261010080830135908201526101208083013590820152610140808301359082015261275a610160830161268e565b61016082015261276d610180830161258c565b6101808201526127806101a0830161258c565b6101a08201526127936101c0830161258c565b6101c08201526127a66101e0830161258c565b6101e082015261020082810135908201526102208083013590820152610240808301359082015261026080830135908201526127e5610280830161268e565b61028082015292915050565b5f6102a08284031215612802575f5ffd5b610f95838361269d565b5f5f6020838503121561281d575f5ffd5b823567ffffffffffffffff811115612833575f5ffd5b8301601f81018513612843575f5ffd5b803567ffffffffffffffff811115612859575f5ffd5b85602082840101111561286a575f5ffd5b6020919091019590945092505050565b5f5f5f5f5f610320868803121561288f575f5ffd5b612899878761269d565b94506102a08601356128aa81612578565b93506102c08601356128bb81612578565b92506102e08601356128cc81612578565b91506103008601356128dd81612578565b809150509295509295909350565b5f5f604083850312156128fc575f5ffd5b823561290781612578565b91506129156020840161268e565b90509250929050565b5f5f5f5f60808587031215612931575f5ffd5b843561293c81612578565b9350602085013561294c81612578565b925060408501359150606085013567ffffffffffffffff81111561296e575f5ffd5b8501601f8101871361297e575f5ffd5b803567ffffffffffffffff8111156129985761299861261f565b6129ab601f8201601f191660200161265d565b8181528860208385010111156129bf575f5ffd5b816020840160208301375f6020838301015280935050505092959194509250565b5f5f604083850312156129f1575f5ffd5b82356129fc81612578565b91506020830135612a0c81612578565b809150509250929050565b600181811c90821680612a2b57607f821691505b602082108103612a4957634e487b7160e01b5f52602260045260245ffd5b50919050565b5f60208284031215612a5f575f5ffd5b8151610f9581612578565b5f60208284031215612a7a575f5ffd5b5051919050565b601f8211156107ff57805f5260205f20601f840160051c81016020851015612aa65750805b601f840160051c820191505b81811015611b9e575f8155600101612ab2565b67ffffffffffffffff831115612add57612add61261f565b612af183612aeb8354612a17565b83612a81565b5f601f841160018114612b22575f8515612b0b5750838201355b5f19600387901b1c1916600186901b178355611b9e565b5f83815260208120601f198716915b82811015612b515786850135825560209485019460019092019101612b31565b5086821015612b6d575f1960f88860031b161c19848701351681555b505060018560011b0183555050505050565b60208152816020820152818360408301375f818301604090810191909152601f909201601f19160101919050565b5f81518060208401855e5f93019283525090919050565b5f5f8554612bd181612a17565b600182168015612be85760018114612bfd57612c2a565b60ff1983168652811515820286019350612c2a565b885f5260205f205f5b83811015612c2257815488820152600190910190602001612c06565b505081860193505b505050612c378186612bad565b9050602f60f81b8152612c4d6001820185612bad565b9695505050505050565b6001600160a01b03938416815291909216602082015262ffffff909116604082015260600190565b6001600160a01b03858116825284166020820152604081018390526080606082018190525f90612c4d90830184612521565b5f60208284031215612cc1575f5ffd5b8151610f95816124f1565b634e487b7160e01b5f52601160045260245ffd5b808202811582820484141761058057610580612ccc565b8082018082111561058057610580612ccc565b634e487b7160e01b5f52603260045260245ffd5b5f81612d2c57612d2c612ccc565b505f19019056fea2646970667358221220ddac2f95bb9d098f92dc03a03c2c890754e63b22133e9e083bac260d4cd6208d64736f6c634300081c003368747470733a2f2f76322e6170702e73696c6f2e66696e616e63652f6d61726b6574732f",
  "language": "Solidity",
  "compiler": "0.8.28+commit.7893614a"
}