{
  "address": "0xa42001D6d2237d2c74108FE360403C4b796B7170",
  "abi": [
    {
      "inputs": [
        {
          "internalType": "contract ISiloFactory",
          "name": "_siloFactory",
          "type": "address"
        }
      ],
      "stateMutability": "nonpayable",
      "type": "constructor"
    },
    {
      "inputs": [],
      "name": "AboveMaxLtv",
      "type": "error"
    },
    {
      "inputs": [],
      "name": "BalanceZero",
      "type": "error"
    },
    {
      "inputs": [],
      "name": "BorrowNotPossible",
      "type": "error"
    },
    {
      "inputs": [],
      "name": "DepositNotPossible",
      "type": "error"
    },
    {
      "inputs": [],
      "name": "EarnedZero",
      "type": "error"
    },
    {
      "inputs": [],
      "name": "FlashloanFailed",
      "type": "error"
    },
    {
      "inputs": [],
      "name": "Insolvency",
      "type": "error"
    },
    {
      "inputs": [],
      "name": "InsufficientLiquidation",
      "type": "error"
    },
    {
      "inputs": [],
      "name": "InvalidSiloForCollateral",
      "type": "error"
    },
    {
      "inputs": [],
      "name": "LeverageFailed",
      "type": "error"
    },
    {
      "inputs": [],
      "name": "LeverageReentrancyCall",
      "type": "error"
    },
    {
      "inputs": [],
      "name": "LiquidationTooBig",
      "type": "error"
    },
    {
      "inputs": [],
      "name": "LiquidityFeeToHi",
      "type": "error"
    },
    {
      "inputs": [],
      "name": "NoDebtToCover",
      "type": "error"
    },
    {
      "inputs": [],
      "name": "NotEnoughLiquidity",
      "type": "error"
    },
    {
      "inputs": [],
      "name": "NotSolvent",
      "type": "error"
    },
    {
      "inputs": [],
      "name": "NothingToPay",
      "type": "error"
    },
    {
      "inputs": [],
      "name": "NothingToWithdraw",
      "type": "error"
    },
    {
      "inputs": [],
      "name": "OnlySilo",
      "type": "error"
    },
    {
      "inputs": [],
      "name": "UnexpectedCollateralToken",
      "type": "error"
    },
    {
      "inputs": [],
      "name": "UnexpectedDebtToken",
      "type": "error"
    },
    {
      "inputs": [],
      "name": "Unsupported",
      "type": "error"
    },
    {
      "inputs": [],
      "name": "UserIsSolvent",
      "type": "error"
    },
    {
      "inputs": [],
      "name": "WrongAssetType",
      "type": "error"
    },
    {
      "inputs": [],
      "name": "WrongToken",
      "type": "error"
    },
    {
      "inputs": [],
      "name": "ZeroAssets",
      "type": "error"
    },
    {
      "inputs": [],
      "name": "ZeroShares",
      "type": "error"
    },
    {
      "anonymous": false,
      "inputs": [
        {
          "indexed": true,
          "internalType": "address",
          "name": "owner",
          "type": "address"
        },
        {
          "indexed": true,
          "internalType": "address",
          "name": "spender",
          "type": "address"
        },
        {
          "indexed": false,
          "internalType": "uint256",
          "name": "value",
          "type": "uint256"
        }
      ],
      "name": "Approval",
      "type": "event"
    },
    {
      "anonymous": false,
      "inputs": [
        {
          "indexed": true,
          "internalType": "address",
          "name": "sender",
          "type": "address"
        },
        {
          "indexed": true,
          "internalType": "address",
          "name": "receiver",
          "type": "address"
        },
        {
          "indexed": true,
          "internalType": "address",
          "name": "owner",
          "type": "address"
        },
        {
          "indexed": false,
          "internalType": "uint256",
          "name": "assets",
          "type": "uint256"
        },
        {
          "indexed": false,
          "internalType": "uint256",
          "name": "shares",
          "type": "uint256"
        }
      ],
      "name": "Borrow",
      "type": "event"
    },
    {
      "anonymous": false,
      "inputs": [
        {
          "indexed": true,
          "internalType": "address",
          "name": "sender",
          "type": "address"
        },
        {
          "indexed": true,
          "internalType": "address",
          "name": "owner",
          "type": "address"
        },
        {
          "indexed": false,
          "internalType": "uint256",
          "name": "assets",
          "type": "uint256"
        },
        {
          "indexed": false,
          "internalType": "uint256",
          "name": "shares",
          "type": "uint256"
        }
      ],
      "name": "Deposit",
      "type": "event"
    },
    {
      "anonymous": false,
      "inputs": [
        {
          "indexed": true,
          "internalType": "address",
          "name": "sender",
          "type": "address"
        },
        {
          "indexed": true,
          "internalType": "address",
          "name": "owner",
          "type": "address"
        },
        {
          "indexed": false,
          "internalType": "uint256",
          "name": "assets",
          "type": "uint256"
        },
        {
          "indexed": false,
          "internalType": "uint256",
          "name": "shares",
          "type": "uint256"
        }
      ],
      "name": "DepositProtected",
      "type": "event"
    },
    {
      "anonymous": false,
      "inputs": [
        {
          "indexed": false,
          "internalType": "uint8",
          "name": "version",
          "type": "uint8"
        }
      ],
      "name": "Initialized",
      "type": "event"
    },
    {
      "anonymous": false,
      "inputs": [],
      "name": "Leverage",
      "type": "event"
    },
    {
      "anonymous": false,
      "inputs": [
        {
          "indexed": true,
          "internalType": "address",
          "name": "liquidator",
          "type": "address"
        },
        {
          "indexed": false,
          "internalType": "bool",
          "name": "receiveSToken",
          "type": "bool"
        }
      ],
      "name": "LiquidationCall",
      "type": "event"
    },
    {
      "anonymous": false,
      "inputs": [
        {
          "indexed": true,
          "internalType": "address",
          "name": "sender",
          "type": "address"
        },
        {
          "indexed": true,
          "internalType": "address",
          "name": "owner",
          "type": "address"
        },
        {
          "indexed": false,
          "internalType": "uint256",
          "name": "assets",
          "type": "uint256"
        },
        {
          "indexed": false,
          "internalType": "uint256",
          "name": "shares",
          "type": "uint256"
        }
      ],
      "name": "Repay",
      "type": "event"
    },
    {
      "anonymous": false,
      "inputs": [
        {
          "indexed": true,
          "internalType": "address",
          "name": "from",
          "type": "address"
        },
        {
          "indexed": true,
          "internalType": "address",
          "name": "to",
          "type": "address"
        },
        {
          "indexed": false,
          "internalType": "uint256",
          "name": "value",
          "type": "uint256"
        }
      ],
      "name": "Transfer",
      "type": "event"
    },
    {
      "anonymous": false,
      "inputs": [
        {
          "indexed": true,
          "internalType": "address",
          "name": "sender",
          "type": "address"
        },
        {
          "indexed": true,
          "internalType": "address",
          "name": "receiver",
          "type": "address"
        },
        {
          "indexed": true,
          "internalType": "address",
          "name": "owner",
          "type": "address"
        },
        {
          "indexed": false,
          "internalType": "uint256",
          "name": "assets",
          "type": "uint256"
        },
        {
          "indexed": false,
          "internalType": "uint256",
          "name": "shares",
          "type": "uint256"
        }
      ],
      "name": "Withdraw",
      "type": "event"
    },
    {
      "anonymous": false,
      "inputs": [
        {
          "indexed": true,
          "internalType": "address",
          "name": "sender",
          "type": "address"
        },
        {
          "indexed": true,
          "internalType": "address",
          "name": "receiver",
          "type": "address"
        },
        {
          "indexed": true,
          "internalType": "address",
          "name": "owner",
          "type": "address"
        },
        {
          "indexed": false,
          "internalType": "uint256",
          "name": "assets",
          "type": "uint256"
        },
        {
          "indexed": false,
          "internalType": "uint256",
          "name": "shares",
          "type": "uint256"
        }
      ],
      "name": "WithdrawProtected",
      "type": "event"
    },
    {
      "inputs": [],
      "name": "accrueInterest",
      "outputs": [
        {
          "internalType": "uint256",
          "name": "accruedInterest",
          "type": "uint256"
        }
      ],
      "stateMutability": "nonpayable",
      "type": "function"
    },
    {
      "inputs": [
        {
          "internalType": "address",
          "name": "_owner",
          "type": "address"
        },
        {
          "internalType": "address",
          "name": "_spender",
          "type": "address"
        }
      ],
      "name": "allowance",
      "outputs": [
        {
          "internalType": "uint256",
          "name": "",
          "type": "uint256"
        }
      ],
      "stateMutability": "view",
      "type": "function"
    },
    {
      "inputs": [
        {
          "internalType": "address",
          "name": "_spender",
          "type": "address"
        },
        {
          "internalType": "uint256",
          "name": "_amount",
          "type": "uint256"
        }
      ],
      "name": "approve",
      "outputs": [
        {
          "internalType": "bool",
          "name": "",
          "type": "bool"
        }
      ],
      "stateMutability": "nonpayable",
      "type": "function"
    },
    {
      "inputs": [],
      "name": "asset",
      "outputs": [
        {
          "internalType": "address",
          "name": "assetTokenAddress",
          "type": "address"
        }
      ],
      "stateMutability": "view",
      "type": "function"
    },
    {
      "inputs": [
        {
          "internalType": "address",
          "name": "_account",
          "type": "address"
        }
      ],
      "name": "balanceOf",
      "outputs": [
        {
          "internalType": "uint256",
          "name": "",
          "type": "uint256"
        }
      ],
      "stateMutability": "view",
      "type": "function"
    },
    {
      "inputs": [
        {
          "internalType": "uint256",
          "name": "_assets",
          "type": "uint256"
        },
        {
          "internalType": "address",
          "name": "_receiver",
          "type": "address"
        },
        {
          "internalType": "address",
          "name": "_borrower",
          "type": "address"
        }
      ],
      "name": "borrow",
      "outputs": [
        {
          "internalType": "uint256",
          "name": "shares",
          "type": "uint256"
        }
      ],
      "stateMutability": "nonpayable",
      "type": "function"
    },
    {
      "inputs": [
        {
          "internalType": "address",
          "name": "_borrower",
          "type": "address"
        }
      ],
      "name": "borrowPossible",
      "outputs": [
        {
          "internalType": "bool",
          "name": "",
          "type": "bool"
        }
      ],
      "stateMutability": "view",
      "type": "function"
    },
    {
      "inputs": [
        {
          "internalType": "uint256",
          "name": "_shares",
          "type": "uint256"
        },
        {
          "internalType": "address",
          "name": "_receiver",
          "type": "address"
        },
        {
          "internalType": "address",
          "name": "_borrower",
          "type": "address"
        }
      ],
      "name": "borrowShares",
      "outputs": [
        {
          "internalType": "uint256",
          "name": "assets",
          "type": "uint256"
        }
      ],
      "stateMutability": "nonpayable",
      "type": "function"
    },
    {
      "inputs": [],
      "name": "config",
      "outputs": [
        {
          "internalType": "contract ISiloConfig",
          "name": "",
          "type": "address"
        }
      ],
      "stateMutability": "view",
      "type": "function"
    },
    {
      "inputs": [
        {
          "internalType": "uint256",
          "name": "_shares",
          "type": "uint256"
        }
      ],
      "name": "convertToAssets",
      "outputs": [
        {
          "internalType": "uint256",
          "name": "assets",
          "type": "uint256"
        }
      ],
      "stateMutability": "view",
      "type": "function"
    },
    {
      "inputs": [
        {
          "internalType": "uint256",
          "name": "_shares",
          "type": "uint256"
        },
        {
          "internalType": "enum ISilo.AssetType",
          "name": "_assetType",
          "type": "uint8"
        }
      ],
      "name": "convertToAssets",
      "outputs": [
        {
          "internalType": "uint256",
          "name": "assets",
          "type": "uint256"
        }
      ],
      "stateMutability": "view",
      "type": "function"
    },
    {
      "inputs": [
        {
          "internalType": "uint256",
          "name": "_assets",
          "type": "uint256"
        },
        {
          "internalType": "enum ISilo.AssetType",
          "name": "_assetType",
          "type": "uint8"
        }
      ],
      "name": "convertToShares",
      "outputs": [
        {
          "internalType": "uint256",
          "name": "shares",
          "type": "uint256"
        }
      ],
      "stateMutability": "view",
      "type": "function"
    },
    {
      "inputs": [
        {
          "internalType": "uint256",
          "name": "_assets",
          "type": "uint256"
        }
      ],
      "name": "convertToShares",
      "outputs": [
        {
          "internalType": "uint256",
          "name": "shares",
          "type": "uint256"
        }
      ],
      "stateMutability": "view",
      "type": "function"
    },
    {
      "inputs": [],
      "name": "decimals",
      "outputs": [
        {
          "internalType": "uint8",
          "name": "",
          "type": "uint8"
        }
      ],
      "stateMutability": "view",
      "type": "function"
    },
    {
      "inputs": [
        {
          "internalType": "uint256",
          "name": "_assets",
          "type": "uint256"
        },
        {
          "internalType": "address",
          "name": "_receiver",
          "type": "address"
        }
      ],
      "name": "deposit",
      "outputs": [
        {
          "internalType": "uint256",
          "name": "shares",
          "type": "uint256"
        }
      ],
      "stateMutability": "nonpayable",
      "type": "function"
    },
    {
      "inputs": [
        {
          "internalType": "uint256",
          "name": "_assets",
          "type": "uint256"
        },
        {
          "internalType": "address",
          "name": "_receiver",
          "type": "address"
        },
        {
          "internalType": "enum ISilo.AssetType",
          "name": "_assetType",
          "type": "uint8"
        }
      ],
      "name": "deposit",
      "outputs": [
        {
          "internalType": "uint256",
          "name": "shares",
          "type": "uint256"
        }
      ],
      "stateMutability": "nonpayable",
      "type": "function"
    },
    {
      "inputs": [
        {
          "internalType": "address",
          "name": "_depositor",
          "type": "address"
        }
      ],
      "name": "depositPossible",
      "outputs": [
        {
          "internalType": "bool",
          "name": "",
          "type": "bool"
        }
      ],
      "stateMutability": "view",
      "type": "function"
    },
    {
      "inputs": [],
      "name": "factory",
      "outputs": [
        {
          "internalType": "contract ISiloFactory",
          "name": "",
          "type": "address"
        }
      ],
      "stateMutability": "view",
      "type": "function"
    },
    {
      "inputs": [
        {
          "internalType": "address",
          "name": "_token",
          "type": "address"
        },
        {
          "internalType": "uint256",
          "name": "_amount",
          "type": "uint256"
        }
      ],
      "name": "flashFee",
      "outputs": [
        {
          "internalType": "uint256",
          "name": "fee",
          "type": "uint256"
        }
      ],
      "stateMutability": "view",
      "type": "function"
    },
    {
      "inputs": [
        {
          "internalType": "contract IERC3156FlashBorrower",
          "name": "_receiver",
          "type": "address"
        },
        {
          "internalType": "address",
          "name": "_token",
          "type": "address"
        },
        {
          "internalType": "uint256",
          "name": "_amount",
          "type": "uint256"
        },
        {
          "internalType": "bytes",
          "name": "_data",
          "type": "bytes"
        }
      ],
      "name": "flashLoan",
      "outputs": [
        {
          "internalType": "bool",
          "name": "success",
          "type": "bool"
        }
      ],
      "stateMutability": "nonpayable",
      "type": "function"
    },
    {
      "inputs": [],
      "name": "getCollateralAndProtectedAssets",
      "outputs": [
        {
          "internalType": "uint256",
          "name": "totalCollateralAssets",
          "type": "uint256"
        },
        {
          "internalType": "uint256",
          "name": "totalProtectedAssets",
          "type": "uint256"
        }
      ],
      "stateMutability": "view",
      "type": "function"
    },
    {
      "inputs": [],
      "name": "getCollateralAssets",
      "outputs": [
        {
          "internalType": "uint256",
          "name": "totalCollateralAssets",
          "type": "uint256"
        }
      ],
      "stateMutability": "view",
      "type": "function"
    },
    {
      "inputs": [],
      "name": "getDebtAssets",
      "outputs": [
        {
          "internalType": "uint256",
          "name": "totalDebtAssets",
          "type": "uint256"
        }
      ],
      "stateMutability": "view",
      "type": "function"
    },
    {
      "inputs": [],
      "name": "getFeesAndFeeReceivers",
      "outputs": [
        {
          "internalType": "address",
          "name": "daoFeeReceiver",
          "type": "address"
        },
        {
          "internalType": "address",
          "name": "deployerFeeReceiver",
          "type": "address"
        },
        {
          "internalType": "uint256",
          "name": "daoFee",
          "type": "uint256"
        },
        {
          "internalType": "uint256",
          "name": "deployerFee",
          "type": "uint256"
        }
      ],
      "stateMutability": "view",
      "type": "function"
    },
    {
      "inputs": [],
      "name": "getLiquidity",
      "outputs": [
        {
          "internalType": "uint256",
          "name": "liquidity",
          "type": "uint256"
        }
      ],
      "stateMutability": "view",
      "type": "function"
    },
    {
      "inputs": [],
      "name": "getLt",
      "outputs": [
        {
          "internalType": "uint256",
          "name": "lt",
          "type": "uint256"
        }
      ],
      "stateMutability": "view",
      "type": "function"
    },
    {
      "inputs": [
        {
          "internalType": "address",
          "name": "_borrower",
          "type": "address"
        }
      ],
      "name": "getLtv",
      "outputs": [
        {
          "internalType": "uint256",
          "name": "ltv",
          "type": "uint256"
        }
      ],
      "stateMutability": "view",
      "type": "function"
    },
    {
      "inputs": [],
      "name": "getMaxLtv",
      "outputs": [
        {
          "internalType": "uint256",
          "name": "maxLtv",
          "type": "uint256"
        }
      ],
      "stateMutability": "view",
      "type": "function"
    },
    {
      "inputs": [],
      "name": "getProtectedAssets",
      "outputs": [
        {
          "internalType": "uint256",
          "name": "totalProtectedAssets",
          "type": "uint256"
        }
      ],
      "stateMutability": "view",
      "type": "function"
    },
    {
      "inputs": [
        {
          "internalType": "contract ISiloConfig",
          "name": "_siloConfig",
          "type": "address"
        },
        {
          "internalType": "address",
          "name": "_modelConfigAddress",
          "type": "address"
        }
      ],
      "name": "initialize",
      "outputs": [],
      "stateMutability": "nonpayable",
      "type": "function"
    },
    {
      "inputs": [
        {
          "internalType": "address",
          "name": "_borrower",
          "type": "address"
        }
      ],
      "name": "isSolvent",
      "outputs": [
        {
          "internalType": "bool",
          "name": "",
          "type": "bool"
        }
      ],
      "stateMutability": "view",
      "type": "function"
    },
    {
      "inputs": [
        {
          "internalType": "uint256",
          "name": "_assets",
          "type": "uint256"
        },
        {
          "internalType": "contract ILeverageBorrower",
          "name": "_receiver",
          "type": "address"
        },
        {
          "internalType": "address",
          "name": "_borrower",
          "type": "address"
        },
        {
          "internalType": "bytes",
          "name": "_data",
          "type": "bytes"
        }
      ],
      "name": "leverage",
      "outputs": [
        {
          "internalType": "uint256",
          "name": "shares",
          "type": "uint256"
        }
      ],
      "stateMutability": "nonpayable",
      "type": "function"
    },
    {
      "inputs": [
        {
          "internalType": "address",
          "name": "_collateralAsset",
          "type": "address"
        },
        {
          "internalType": "address",
          "name": "_debtAsset",
          "type": "address"
        },
        {
          "internalType": "address",
          "name": "_borrower",
          "type": "address"
        },
        {
          "internalType": "uint256",
          "name": "_debtToCover",
          "type": "uint256"
        },
        {
          "internalType": "bool",
          "name": "_receiveSToken",
          "type": "bool"
        }
      ],
      "name": "liquidationCall",
      "outputs": [],
      "stateMutability": "nonpayable",
      "type": "function"
    },
    {
      "inputs": [
        {
          "internalType": "address",
          "name": "_borrower",
          "type": "address"
        }
      ],
      "name": "maxBorrow",
      "outputs": [
        {
          "internalType": "uint256",
          "name": "maxAssets",
          "type": "uint256"
        }
      ],
      "stateMutability": "view",
      "type": "function"
    },
    {
      "inputs": [
        {
          "internalType": "address",
          "name": "_borrower",
          "type": "address"
        }
      ],
      "name": "maxBorrowShares",
      "outputs": [
        {
          "internalType": "uint256",
          "name": "maxShares",
          "type": "uint256"
        }
      ],
      "stateMutability": "view",
      "type": "function"
    },
    {
      "inputs": [
        {
          "internalType": "address",
          "name": "_receiver",
          "type": "address"
        }
      ],
      "name": "maxDeposit",
      "outputs": [
        {
          "internalType": "uint256",
          "name": "maxAssets",
          "type": "uint256"
        }
      ],
      "stateMutability": "view",
      "type": "function"
    },
    {
      "inputs": [
        {
          "internalType": "address",
          "name": "_receiver",
          "type": "address"
        },
        {
          "internalType": "enum ISilo.AssetType",
          "name": "",
          "type": "uint8"
        }
      ],
      "name": "maxDeposit",
      "outputs": [
        {
          "internalType": "uint256",
          "name": "maxAssets",
          "type": "uint256"
        }
      ],
      "stateMutability": "view",
      "type": "function"
    },
    {
      "inputs": [
        {
          "internalType": "address",
          "name": "_token",
          "type": "address"
        }
      ],
      "name": "maxFlashLoan",
      "outputs": [
        {
          "internalType": "uint256",
          "name": "maxLoan",
          "type": "uint256"
        }
      ],
      "stateMutability": "view",
      "type": "function"
    },
    {
      "inputs": [
        {
          "internalType": "address",
          "name": "_borrower",
          "type": "address"
        }
      ],
      "name": "maxLiquidation",
      "outputs": [
        {
          "internalType": "uint256",
          "name": "collateralToLiquidate",
          "type": "uint256"
        },
        {
          "internalType": "uint256",
          "name": "debtToRepay",
          "type": "uint256"
        }
      ],
      "stateMutability": "view",
      "type": "function"
    },
    {
      "inputs": [
        {
          "internalType": "address",
          "name": "_receiver",
          "type": "address"
        },
        {
          "internalType": "enum ISilo.AssetType",
          "name": "",
          "type": "uint8"
        }
      ],
      "name": "maxMint",
      "outputs": [
        {
          "internalType": "uint256",
          "name": "maxShares",
          "type": "uint256"
        }
      ],
      "stateMutability": "view",
      "type": "function"
    },
    {
      "inputs": [
        {
          "internalType": "address",
          "name": "_receiver",
          "type": "address"
        }
      ],
      "name": "maxMint",
      "outputs": [
        {
          "internalType": "uint256",
          "name": "maxShares",
          "type": "uint256"
        }
      ],
      "stateMutability": "view",
      "type": "function"
    },
    {
      "inputs": [
        {
          "internalType": "address",
          "name": "_owner",
          "type": "address"
        },
        {
          "internalType": "enum ISilo.AssetType",
          "name": "_assetType",
          "type": "uint8"
        }
      ],
      "name": "maxRedeem",
      "outputs": [
        {
          "internalType": "uint256",
          "name": "maxShares",
          "type": "uint256"
        }
      ],
      "stateMutability": "view",
      "type": "function"
    },
    {
      "inputs": [
        {
          "internalType": "address",
          "name": "_owner",
          "type": "address"
        }
      ],
      "name": "maxRedeem",
      "outputs": [
        {
          "internalType": "uint256",
          "name": "maxShares",
          "type": "uint256"
        }
      ],
      "stateMutability": "view",
      "type": "function"
    },
    {
      "inputs": [
        {
          "internalType": "address",
          "name": "_borrower",
          "type": "address"
        }
      ],
      "name": "maxRepay",
      "outputs": [
        {
          "internalType": "uint256",
          "name": "assets",
          "type": "uint256"
        }
      ],
      "stateMutability": "view",
      "type": "function"
    },
    {
      "inputs": [
        {
          "internalType": "address",
          "name": "_borrower",
          "type": "address"
        }
      ],
      "name": "maxRepayShares",
      "outputs": [
        {
          "internalType": "uint256",
          "name": "shares",
          "type": "uint256"
        }
      ],
      "stateMutability": "view",
      "type": "function"
    },
    {
      "inputs": [
        {
          "internalType": "address",
          "name": "_owner",
          "type": "address"
        },
        {
          "internalType": "enum ISilo.AssetType",
          "name": "_assetType",
          "type": "uint8"
        }
      ],
      "name": "maxWithdraw",
      "outputs": [
        {
          "internalType": "uint256",
          "name": "maxAssets",
          "type": "uint256"
        }
      ],
      "stateMutability": "view",
      "type": "function"
    },
    {
      "inputs": [
        {
          "internalType": "address",
          "name": "_owner",
          "type": "address"
        }
      ],
      "name": "maxWithdraw",
      "outputs": [
        {
          "internalType": "uint256",
          "name": "maxAssets",
          "type": "uint256"
        }
      ],
      "stateMutability": "view",
      "type": "function"
    },
    {
      "inputs": [
        {
          "internalType": "uint256",
          "name": "_shares",
          "type": "uint256"
        },
        {
          "internalType": "address",
          "name": "_receiver",
          "type": "address"
        }
      ],
      "name": "mint",
      "outputs": [
        {
          "internalType": "uint256",
          "name": "assets",
          "type": "uint256"
        }
      ],
      "stateMutability": "nonpayable",
      "type": "function"
    },
    {
      "inputs": [
        {
          "internalType": "uint256",
          "name": "_shares",
          "type": "uint256"
        },
        {
          "internalType": "address",
          "name": "_receiver",
          "type": "address"
        },
        {
          "internalType": "enum ISilo.AssetType",
          "name": "_assetType",
          "type": "uint8"
        }
      ],
      "name": "mint",
      "outputs": [
        {
          "internalType": "uint256",
          "name": "assets",
          "type": "uint256"
        }
      ],
      "stateMutability": "nonpayable",
      "type": "function"
    },
    {
      "inputs": [],
      "name": "name",
      "outputs": [
        {
          "internalType": "string",
          "name": "",
          "type": "string"
        }
      ],
      "stateMutability": "view",
      "type": "function"
    },
    {
      "inputs": [
        {
          "internalType": "uint256",
          "name": "_assets",
          "type": "uint256"
        }
      ],
      "name": "previewBorrow",
      "outputs": [
        {
          "internalType": "uint256",
          "name": "shares",
          "type": "uint256"
        }
      ],
      "stateMutability": "view",
      "type": "function"
    },
    {
      "inputs": [
        {
          "internalType": "uint256",
          "name": "_shares",
          "type": "uint256"
        }
      ],
      "name": "previewBorrowShares",
      "outputs": [
        {
          "internalType": "uint256",
          "name": "assets",
          "type": "uint256"
        }
      ],
      "stateMutability": "view",
      "type": "function"
    },
    {
      "inputs": [
        {
          "internalType": "uint256",
          "name": "_assets",
          "type": "uint256"
        },
        {
          "internalType": "enum ISilo.AssetType",
          "name": "_assetType",
          "type": "uint8"
        }
      ],
      "name": "previewDeposit",
      "outputs": [
        {
          "internalType": "uint256",
          "name": "shares",
          "type": "uint256"
        }
      ],
      "stateMutability": "view",
      "type": "function"
    },
    {
      "inputs": [
        {
          "internalType": "uint256",
          "name": "_assets",
          "type": "uint256"
        }
      ],
      "name": "previewDeposit",
      "outputs": [
        {
          "internalType": "uint256",
          "name": "shares",
          "type": "uint256"
        }
      ],
      "stateMutability": "view",
      "type": "function"
    },
    {
      "inputs": [
        {
          "internalType": "uint256",
          "name": "_shares",
          "type": "uint256"
        },
        {
          "internalType": "enum ISilo.AssetType",
          "name": "_assetType",
          "type": "uint8"
        }
      ],
      "name": "previewMint",
      "outputs": [
        {
          "internalType": "uint256",
          "name": "assets",
          "type": "uint256"
        }
      ],
      "stateMutability": "view",
      "type": "function"
    },
    {
      "inputs": [
        {
          "internalType": "uint256",
          "name": "_shares",
          "type": "uint256"
        }
      ],
      "name": "previewMint",
      "outputs": [
        {
          "internalType": "uint256",
          "name": "assets",
          "type": "uint256"
        }
      ],
      "stateMutability": "view",
      "type": "function"
    },
    {
      "inputs": [
        {
          "internalType": "uint256",
          "name": "_shares",
          "type": "uint256"
        }
      ],
      "name": "previewRedeem",
      "outputs": [
        {
          "internalType": "uint256",
          "name": "assets",
          "type": "uint256"
        }
      ],
      "stateMutability": "view",
      "type": "function"
    },
    {
      "inputs": [
        {
          "internalType": "uint256",
          "name": "_shares",
          "type": "uint256"
        },
        {
          "internalType": "enum ISilo.AssetType",
          "name": "_assetType",
          "type": "uint8"
        }
      ],
      "name": "previewRedeem",
      "outputs": [
        {
          "internalType": "uint256",
          "name": "assets",
          "type": "uint256"
        }
      ],
      "stateMutability": "view",
      "type": "function"
    },
    {
      "inputs": [
        {
          "internalType": "uint256",
          "name": "_assets",
          "type": "uint256"
        }
      ],
      "name": "previewRepay",
      "outputs": [
        {
          "internalType": "uint256",
          "name": "shares",
          "type": "uint256"
        }
      ],
      "stateMutability": "view",
      "type": "function"
    },
    {
      "inputs": [
        {
          "internalType": "uint256",
          "name": "_shares",
          "type": "uint256"
        }
      ],
      "name": "previewRepayShares",
      "outputs": [
        {
          "internalType": "uint256",
          "name": "assets",
          "type": "uint256"
        }
      ],
      "stateMutability": "view",
      "type": "function"
    },
    {
      "inputs": [
        {
          "internalType": "uint256",
          "name": "_assets",
          "type": "uint256"
        }
      ],
      "name": "previewWithdraw",
      "outputs": [
        {
          "internalType": "uint256",
          "name": "shares",
          "type": "uint256"
        }
      ],
      "stateMutability": "view",
      "type": "function"
    },
    {
      "inputs": [
        {
          "internalType": "uint256",
          "name": "_assets",
          "type": "uint256"
        },
        {
          "internalType": "enum ISilo.AssetType",
          "name": "_assetType",
          "type": "uint8"
        }
      ],
      "name": "previewWithdraw",
      "outputs": [
        {
          "internalType": "uint256",
          "name": "shares",
          "type": "uint256"
        }
      ],
      "stateMutability": "view",
      "type": "function"
    },
    {
      "inputs": [
        {
          "internalType": "uint256",
          "name": "_shares",
          "type": "uint256"
        },
        {
          "internalType": "address",
          "name": "_receiver",
          "type": "address"
        },
        {
          "internalType": "address",
          "name": "_owner",
          "type": "address"
        }
      ],
      "name": "redeem",
      "outputs": [
        {
          "internalType": "uint256",
          "name": "assets",
          "type": "uint256"
        }
      ],
      "stateMutability": "nonpayable",
      "type": "function"
    },
    {
      "inputs": [
        {
          "internalType": "uint256",
          "name": "_shares",
          "type": "uint256"
        },
        {
          "internalType": "address",
          "name": "_receiver",
          "type": "address"
        },
        {
          "internalType": "address",
          "name": "_owner",
          "type": "address"
        },
        {
          "internalType": "enum ISilo.AssetType",
          "name": "_assetType",
          "type": "uint8"
        }
      ],
      "name": "redeem",
      "outputs": [
        {
          "internalType": "uint256",
          "name": "assets",
          "type": "uint256"
        }
      ],
      "stateMutability": "nonpayable",
      "type": "function"
    },
    {
      "inputs": [
        {
          "internalType": "uint256",
          "name": "_assets",
          "type": "uint256"
        },
        {
          "internalType": "address",
          "name": "_borrower",
          "type": "address"
        }
      ],
      "name": "repay",
      "outputs": [
        {
          "internalType": "uint256",
          "name": "shares",
          "type": "uint256"
        }
      ],
      "stateMutability": "nonpayable",
      "type": "function"
    },
    {
      "inputs": [
        {
          "internalType": "uint256",
          "name": "_shares",
          "type": "uint256"
        },
        {
          "internalType": "address",
          "name": "_borrower",
          "type": "address"
        }
      ],
      "name": "repayShares",
      "outputs": [
        {
          "internalType": "uint256",
          "name": "assets",
          "type": "uint256"
        }
      ],
      "stateMutability": "nonpayable",
      "type": "function"
    },
    {
      "inputs": [],
      "name": "siloData",
      "outputs": [
        {
          "internalType": "uint192",
          "name": "daoAndDeployerFees",
          "type": "uint192"
        },
        {
          "internalType": "uint64",
          "name": "interestRateTimestamp",
          "type": "uint64"
        }
      ],
      "stateMutability": "view",
      "type": "function"
    },
    {
      "inputs": [],
      "name": "symbol",
      "outputs": [
        {
          "internalType": "string",
          "name": "",
          "type": "string"
        }
      ],
      "stateMutability": "view",
      "type": "function"
    },
    {
      "inputs": [],
      "name": "totalAssets",
      "outputs": [
        {
          "internalType": "uint256",
          "name": "totalManagedAssets",
          "type": "uint256"
        }
      ],
      "stateMutability": "view",
      "type": "function"
    },
    {
      "inputs": [],
      "name": "totalSupply",
      "outputs": [
        {
          "internalType": "uint256",
          "name": "",
          "type": "uint256"
        }
      ],
      "stateMutability": "view",
      "type": "function"
    },
    {
      "inputs": [
        {
          "internalType": "address",
          "name": "_to",
          "type": "address"
        },
        {
          "internalType": "uint256",
          "name": "_amount",
          "type": "uint256"
        }
      ],
      "name": "transfer",
      "outputs": [
        {
          "internalType": "bool",
          "name": "",
          "type": "bool"
        }
      ],
      "stateMutability": "nonpayable",
      "type": "function"
    },
    {
      "inputs": [
        {
          "internalType": "address",
          "name": "_from",
          "type": "address"
        },
        {
          "internalType": "address",
          "name": "_to",
          "type": "address"
        },
        {
          "internalType": "uint256",
          "name": "_amount",
          "type": "uint256"
        }
      ],
      "name": "transferFrom",
      "outputs": [
        {
          "internalType": "bool",
          "name": "",
          "type": "bool"
        }
      ],
      "stateMutability": "nonpayable",
      "type": "function"
    },
    {
      "inputs": [
        {
          "internalType": "uint256",
          "name": "_shares",
          "type": "uint256"
        },
        {
          "internalType": "address",
          "name": "_owner",
          "type": "address"
        },
        {
          "internalType": "enum ISilo.AssetType",
          "name": "_withdrawType",
          "type": "uint8"
        }
      ],
      "name": "transitionCollateral",
      "outputs": [
        {
          "internalType": "uint256",
          "name": "assets",
          "type": "uint256"
        }
      ],
      "stateMutability": "nonpayable",
      "type": "function"
    },
    {
      "inputs": [],
      "name": "utilizationData",
      "outputs": [
        {
          "components": [
            {
              "internalType": "uint256",
              "name": "collateralAssets",
              "type": "uint256"
            },
            {
              "internalType": "uint256",
              "name": "debtAssets",
              "type": "uint256"
            },
            {
              "internalType": "uint64",
              "name": "interestRateTimestamp",
              "type": "uint64"
            }
          ],
          "internalType": "struct ISilo.UtilizationData",
          "name": "",
          "type": "tuple"
        }
      ],
      "stateMutability": "view",
      "type": "function"
    },
    {
      "inputs": [
        {
          "internalType": "uint256",
          "name": "_assets",
          "type": "uint256"
        },
        {
          "internalType": "address",
          "name": "_receiver",
          "type": "address"
        },
        {
          "internalType": "address",
          "name": "_owner",
          "type": "address"
        }
      ],
      "name": "withdraw",
      "outputs": [
        {
          "internalType": "uint256",
          "name": "shares",
          "type": "uint256"
        }
      ],
      "stateMutability": "nonpayable",
      "type": "function"
    },
    {
      "inputs": [
        {
          "internalType": "uint256",
          "name": "_assets",
          "type": "uint256"
        },
        {
          "internalType": "address",
          "name": "_receiver",
          "type": "address"
        },
        {
          "internalType": "address",
          "name": "_owner",
          "type": "address"
        },
        {
          "internalType": "enum ISilo.AssetType",
          "name": "_assetType",
          "type": "uint8"
        }
      ],
      "name": "withdraw",
      "outputs": [
        {
          "internalType": "uint256",
          "name": "shares",
          "type": "uint256"
        }
      ],
      "stateMutability": "nonpayable",
      "type": "function"
    },
    {
      "inputs": [
        {
          "internalType": "uint256",
          "name": "_withdrawAssetsFromCollateral",
          "type": "uint256"
        },
        {
          "internalType": "uint256",
          "name": "_withdrawAssetsFromProtected",
          "type": "uint256"
        },
        {
          "internalType": "address",
          "name": "_borrower",
          "type": "address"
        },
        {
          "internalType": "address",
          "name": "_liquidator",
          "type": "address"
        },
        {
          "internalType": "bool",
          "name": "_receiveSToken",
          "type": "bool"
        }
      ],
      "name": "withdrawCollateralsToLiquidator",
      "outputs": [],
      "stateMutability": "nonpayable",
      "type": "function"
    },
    {
      "inputs": [],
      "name": "withdrawFees",
      "outputs": [],
      "stateMutability": "nonpayable",
      "type": "function"
    }
  ],
  "bytecode": "0x60a06040523480156200001157600080fd5b50604051620060c5380380620060c5833981016040819052620000349162000111565b6200003e62000050565b6001600160a01b031660805262000143565b600054610100900460ff1615620000bd5760405162461bcd60e51b815260206004820152602760248201527f496e697469616c697a61626c653a20636f6e747261637420697320696e697469604482015266616c697a696e6760c81b606482015260840160405180910390fd5b60005460ff908116146200010f576000805460ff191660ff9081179091556040519081527f7f26b83ff96e1f2b6a682f133852f6798a09c465da95921460cefb38474024989060200160405180910390a15b565b6000602082840312156200012457600080fd5b81516001600160a01b03811681146200013c57600080fd5b9392505050565b608051615f586200016d60003960008181610915015281816118e90152612bb20152615f586000f3fe608060405234801561001057600080fd5b50600436106104695760003560e01c806399c1da8a1161024c578063bf722ca211610146578063d905777e116100c3578063e72bec5711610087578063e72bec5714610a15578063ec25ac0114610a28578063ecd658b414610a3b578063ef8b30f71461096a578063fa9b1c6a14610a4357600080fd5b8063d905777e146109b6578063d9d98ce4146109c9578063da537660146109dc578063dd62ed3e146109ef578063e36754eb14610a0257600080fd5b8063c63d75b61161010a578063c63d75b6146105e6578063c6e6f5921461096a578063ccb549211461097d578063ce96cb7714610990578063d5164184146109a357600080fd5b8063bf722ca21461089c578063c061ddc7146108af578063c1357c90146108c2578063c45a015514610910578063c4d5d0161461093757600080fd5b8063b17a1247116101d4578063b8337c2a11610198578063b8337c2a1461083d578063b96f174314610850578063ba08765214610863578063ba8ffe6514610876578063bd02d8481461088957600080fd5b8063b17a12471461063a578063b3d7f6b9146104c6578063b460af941461080f578063b5dbd7f014610822578063b7ec8d4b1461082a57600080fd5b8063a65fd95d1161021b578063a65fd95d146107ce578063a6afed95146107e1578063a7d6e44b1461051f578063a9059cbb146107e9578063acb70815146107fc57600080fd5b806399c1da8a1461073957806399d499c1146107415780639ef2fda014610792578063a1ff9bee146107c657600080fd5b8063402d267d116103685780636e1f8f7e116102e55780637ff00077116102a95780637ff00077146106e5578063889576f7146106f857806394bf804d1461070b57806395d89b411461071e57806397a9d4571461072657600080fd5b80636e1f8f7e146106865780636e553f651461069957806370a08231146106ac57806378007e23146106bf57806379502c55146106d257600080fd5b80635cffe9de1161032c5780635cffe9de146106275780635d0868f61461063a5780635d4086af1461064d5780635f30114914610660578063613255ab1461067357600080fd5b8063402d267d146105e6578063421a1aee146105f9578063476343ee1461060c578063485cc955146106145780634cdad506146104c657600080fd5b806311b5e682116103f657806329d6509a116103ba57806329d6509a14610573578063313ce5671461058657806338b51ce1146105a057806338d52e0f146105b35780633a78bdf4146105d357600080fd5b806311b5e6821461051f57806312d4c5741461053257806318160ddd1461054557806323b872dd1461054d578063267e54a71461056057600080fd5b806307a2d13a1161043d57806307a2d13a146104c65780630910a510146104d9578063095ea7b3146104e15780630a28a47714610504578063117ff53e1461051757600080fd5b8062a718a91461046e57806301e1d1141461048357806306fdde031461049e578063071bf3ff146104b3575b600080fd5b61048161047c366004615142565b610a56565b005b61048b610ec4565b6040519081526020015b60405180910390f35b6104a6610ed6565b60405161049591906151ce565b61048b6104c1366004615215565b610f4a565b61048b6104d436600461524a565b61101f565b61048b611041565b6104f46104ef366004615263565b611078565b6040519015158152602001610495565b61048b61051236600461524a565b6110ee565b61048b61110f565b61048b61052d36600461528f565b61113e565b61048b610540366004615215565b611199565b61048b61126e565b6104f461055b3660046152b2565b6112d9565b61048b61056e36600461528f565b611361565b61048b6105813660046152f3565b6113b3565b61058e611498565b60405160ff9091168152602001610495565b6104f46105ae3660046152f3565b611503565b6105bb611595565b6040516001600160a01b039091168152602001610495565b6104f46105e13660046152f3565b611602565b61048b6105f43660046152f3565b61170f565b61048b6106073660046152f3565b61179a565b6104816118ad565b610481610622366004615310565b611946565b6104f461063536600461538b565b611b4b565b61048b610648366004615215565b611c14565b61048b61065b36600461528f565b611c7c565b61048b61066e3660046152f3565b611c8a565b61048b6106813660046152f3565b611d9f565b61048b61069436600461528f565b611e70565b61048b6106a73660046153fe565b611ec3565b61048b6106ba3660046152f3565b611f26565b61048b6106cd36600461524a565b611f60565b6034546105bb906001600160a01b031681565b61048b6106f336600461528f565b611f82565b61048b610706366004615423565b611f90565b61048b6107193660046153fe565b611fe3565b6104a6612025565b61048b6107343660046152f3565b61206c565b61048b61217f565b6036602052600080516020615f0383398151915254600080527f4cb2b152c1b54ce671907a93c300fd5aa72383a9d4ec19a81e3333632ae92e00545b60408051928352602083019190915201610495565b61079a6121f7565b6040805182518152602080840151908201529181015167ffffffffffffffff1690820152606001610495565b61048b612280565b61048b6107dc366004615465565b61228c565b61048b6126e1565b6104f46107f7366004615263565b6126eb565b61048b61080a3660046153fe565b612724565b61048b61081d366004615423565b612776565b61048b6127ca565b61048b6108383660046154bb565b612842565b61048b61084b3660046154f9565b6128cf565b61048161085e36600461554a565b612922565b61048b610871366004615423565b6129ed565b61048b61088436600461524a565b612a30565b61077d6108973660046152f3565b612a52565b61048b6108aa36600461524a565b612ae1565b61048b6108bd3660046154bb565b612b03565b6035546108e8906001600160c01b03811690600160c01b900467ffffffffffffffff1682565b604080516001600160c01b03909316835267ffffffffffffffff909116602083015201610495565b6105bb7f000000000000000000000000000000000000000000000000000000000000000081565b61093f612b90565b604080516001600160a01b039586168152949093166020850152918301526060820152608001610495565b61048b61097836600461524a565b612c51565b61048b61098b3660046152f3565b612c73565b61048b61099e3660046152f3565b612c94565b61048b6109b1366004615423565b612d4f565b61048b6109c43660046152f3565b612da2565b61048b6109d7366004615263565b612e56565b61048b6109ea3660046154f9565b612ea1565b61048b6109fd366004615310565b612ef3565b61048b610a103660046153fe565b612f35565b61048b610a2336600461524a565b612f87565b6104f4610a363660046152f3565b612fa9565b61048b61306a565b61048b610a513660046154bb565b613076565b6034546040516363da68b560e11b815230600482015260009182916001600160a01b039091169063c7b4d16a9060240161040060405180830381865afa158015610aa4573d6000803e3d6000fd5b505050506040513d601f19601f82011682018060405250810190610ac891906156fc565b9150915080608001516001600160a01b0316876001600160a01b031614610b025760405163055692d760e21b815260040160405180910390fd5b81608001516001600160a01b0316866001600160a01b031614610b385760405163129e080d60e21b815260040160405180910390fd5b610b5082610140015183600001518460200151613456565b5081606001516001600160a01b031663a6afed956040518163ffffffff1660e01b81526004016020604051808303816000875af1158015610b95573d6000803e3d6000fd5b505050506040513d601f19601f82011682018060405250810190610bb9919061572a565b50806101e0015115610c2c576101008101516080820151604051637cfd30cd60e11b81526001600160a01b03918216600482015291169063f9fa619a90602401600060405180830381600087803b158015610c1357600080fd5b505af1158015610c27573d6000803e3d6000fd5b505050505b816101e0015115610c9e576101008201516080830151604051637cfd30cd60e11b81526001600160a01b03918216600482015291169063f9fa619a90602401600060405180830381600087803b158015610c8557600080fd5b505af1158015610c99573d6000803e3d6000fd5b505050505b6001600160a01b03851633146000808073__$ff3732d68c5c83c0ffcb2490e4fa1c4ff2$__63c1ca943b86888c8c89610cdc578a6101a00151610cdf565b60005b8a6040518763ffffffff1660e01b8152600401610d0196959493929190615866565b606060405180830381865af4158015610d1e573d6000803e3d6000fd5b505050506040513d601f19601f82011682018060405250810190610d4291906158b6565b92509250925080600003610d69576040516317ff0e0960e11b815260040160405180910390fd5b604051871515815260009033907fe24aa47ff635f1a546a55407c1830a99c50045332faba28455dedecb35b07a7e9060200160405180910390a273__$2cb88bc423f502b07e13ce75aaf4711c2a$__637e0d82518884848e3360366000600281526020019081526020016000206040518763ffffffff1660e01b8152600401610df7969594939291906158fa565b6040805180830381865af4158015610e13573d6000803e3d6000fd5b505050506040513d601f19601f82011682018060405250810190610e379190615940565b5050606087015160405163b96f174360e01b815260048101869052602481018590526001600160a01b038c811660448301523360648301528a151560848301529091169063b96f17439060a401600060405180830381600087803b158015610e9e57600080fd5b505af1158015610eb2573d6000803e3d6000fd5b50505050505050505050505050505050565b6000610ed06001613523565b50919050565b6060610ee06135ac565b6001600160a01b03166306fdde036040518163ffffffff1660e01b8152600401600060405180830381865afa158015610f1d573d6000803e3d6000fd5b505050506040513d6000823e601f3d908101601f19168201604052610f459190810190615964565b905090565b60345460009073__$5fba74f7ae1cbd55759e956bb7df201c56$__9063e02f78c1906001600160a01b03168585603686826002811115610f8c57610f8c6158e4565b6002811115610f9d57610f9d6158e4565b815260200190815260200160002060000154610fb7611041565b6040518663ffffffff1660e01b8152600401610fd7959493929190615a1a565b6040805180830381865af4158015610ff3573d6000803e3d6000fd5b505050506040513d601f19601f820116820180604052508101906110179190615940565b949350505050565b600080600061102e6001613523565b9150915061101784838360006001613619565b6036602052600080516020615f038339815191525460026000908152600080516020615ee3833981519152549091610f459161367d565b60006110826135ac565b6001600160a01b031663c37d11c23385856040518463ffffffff1660e01b81526004016110b193929190615a52565b600060405180830381600087803b1580156110cb57600080fd5b505af11580156110df573d6000803e3d6000fd5b50505050600190505b92915050565b60008060006110fd6001613523565b91509150611017848383600180613697565b6000603681805b6002811115611127576111276158e4565b815260200190815260200160002060000154905090565b60006002826002811115611154576111546158e4565b0361117257604051632ad7929d60e11b815260040160405180910390fd5b60008061117e84613523565b91509150611190858383600088613619565b95945050505050565b60345460009073__$5fba74f7ae1cbd55759e956bb7df201c56$__9063e02f78c1906001600160a01b031685856036868260028111156111db576111db6158e4565b60028111156111ec576111ec6158e4565b815260200190815260200160002060000154611206611041565b6040518663ffffffff1660e01b8152600401611226959493929190615a1a565b6040805180830381865af4158015611242573d6000803e3d6000fd5b505050506040513d601f19601f820116820180604052508101906112669190615940565b509392505050565b60006112786135ac565b6001600160a01b03166318160ddd6040518163ffffffff1660e01b8152600401602060405180830381865afa1580156112b5573d6000803e3d6000fd5b505050506040513d601f19601f82011682018060405250810190610f45919061572a565b60006112e36135ac565b604051631ca3ec3f60e11b81523360048201526001600160a01b0386811660248301528581166044830152606482018590529190911690633947d87e90608401600060405180830381600087803b15801561133d57600080fd5b505af1158015611351573d6000803e3d6000fd5b50505050600190505b9392505050565b60006002826002811115611377576113776158e4565b0361139557604051632ad7929d60e11b815260040160405180910390fd5b6000806113a184613523565b91509150611190858383600088613697565b60345460405163e48a5f7b60e01b815230600482015260009182916001600160a01b039091169063e48a5f7b9060240161020060405180830381865afa158015611401573d6000803e3d6000fd5b505050506040513d601f19601f820116820180604052508101906114259190615a76565b60e08101516040516370a0823160e01b81526001600160a01b0386811660048301529293509116906370a08231906024015b602060405180830381865afa158015611474573d6000803e3d6000fd5b505050506040513d601f19601f8201168201806040525081019061135a919061572a565b60006114a26135ac565b6001600160a01b031663313ce5676040518163ffffffff1660e01b8152600401602060405180830381865afa1580156114df573d6000803e3d6000fd5b505050506040513d601f19601f82011682018060405250810190610f459190615a93565b6000806000611511846136ef565b604051631792531160e11b8152919350915073__$5f084e02cba86e37595b38f777b0951815$__90632f24a6229061155490859085908990600190600401615ab6565b602060405180830381865af4158015611571573d6000803e3d6000fd5b505050506040513d601f19601f820116820180604052508101906110179190615b03565b6034546040516307439b4960e01b81523060048201526000916001600160a01b0316906307439b4990602401602060405180830381865afa1580156115de573d6000803e3d6000fd5b505050506040513d601f19601f82011682018060405250810190610f459190615b20565b60345460405163e48a5f7b60e01b815230600482015260009182916001600160a01b039091169063e48a5f7b9060240161020060405180830381865afa158015611650573d6000803e3d6000fd5b505050506040513d601f19601f820116820180604052508101906116749190615a76565b60a081015160c08201516040516308bf74bf60e11b81526001600160a01b0392831660048201529082166024820152908516604482015290915073__$2cb88bc423f502b07e13ce75aaf4711c2a$__9063117ee97e906064015b602060405180830381865af41580156116eb573d6000803e3d6000fd5b505050506040513d601f19601f8201168201806040525081019061135a9190615b03565b60345460405163c4f2ffa560e01b81526001600160a01b039182166004820152908216602482015260009073__$5fba74f7ae1cbd55759e956bb7df201c56$__9063c4f2ffa590604401602060405180830381865af4158015611776573d6000803e3d6000fd5b505050506040513d601f19601f820116820180604052508101906110e8919061572a565b6034546040516363da68b560e11b8152306004820152600091829182916001600160a01b03169063c7b4d16a9060240161040060405180830381865afa1580156117e8573d6000803e3d6000fd5b505050506040513d601f19601f8201168201806040525081019061180c91906156fc565b9150915060008061181e846002613813565b604051635095598960e11b8152919350915073__$2cb88bc423f502b07e13ce75aaf4711c2a$__9063a12ab3129061186290869088908b9088908890600401615b3d565b6040805180830381865af415801561187e573d6000803e3d6000fd5b505050506040513d601f19601f820116820180604052508101906118a29190615940565b979650505050505050565b603454604051639e71f57360e01b815273__$35324b2b5c5ee97b5b21e500a23bd2480c$__91639e71f57391611914916001600160a01b0316907f000000000000000000000000000000000000000000000000000000000000000090603590600401615a52565b60006040518083038186803b15801561192c57600080fd5b505af4158015611940573d6000803e3d6000fd5b50505050565b600054610100900460ff16158080156119665750600054600160ff909116105b806119805750303b158015611980575060005460ff166001145b6119e85760405162461bcd60e51b815260206004820152602e60248201527f496e697469616c697a61626c653a20636f6e747261637420697320616c72656160448201526d191e481a5b9a5d1a585b1a5e995960921b60648201526084015b60405180910390fd5b6000805460ff191660011790558015611a0b576000805461ff0019166101001790555b611a13613a0d565b611a1b613a3e565b603480546001600160a01b0319166001600160a01b03851690811790915560405163e48a5f7b60e01b81523060048201526000919063e48a5f7b9060240161020060405180830381865afa158015611a77573d6000803e3d6000fd5b505050506040513d601f19601f82011682018060405250810190611a9b9190615a76565b610140015160405163ee8f931b60e01b81526001600160a01b0385811660048301529192509082169063ee8f931b90602401600060405180830381600087803b158015611ae757600080fd5b505af1158015611afb573d6000803e3d6000fd5b50505050508015611b46576000805461ff0019169055604051600181527f7f26b83ff96e1f2b6a682f133852f6798a09c465da95921460cefb38474024989060200160405180910390a15b505050565b6000600260335403611b70576040516359ca47ed60e01b815260040160405180910390fd5b600260335560345460405163125f329560e11b815273__$2cb88bc423f502b07e13ce75aaf4711c2a$__916324be652a91611bc4916001600160a01b0316906035908b908b908b908b908b90600401615bab565b602060405180830381865af4158015611be1573d6000803e3d6000fd5b505050506040513d601f19601f82011682018060405250810190611c059190615b03565b60016033559695505050505050565b60345460405163c4f2ffa560e01b81526001600160a01b039182166004820152908316602482015260009073__$5fba74f7ae1cbd55759e956bb7df201c56$__9063c4f2ffa5906044015b602060405180830381865af4158015611474573d6000803e3d6000fd5b60008060006113a184613523565b60345460405163e48a5f7b60e01b815230600482015260009182916001600160a01b039091169063e48a5f7b9060240161020060405180830381865afa158015611cd8573d6000803e3d6000fd5b505050506040513d601f19601f82011682018060405250810190611cfc9190615a76565b60e08101516040516370a0823160e01b81526001600160a01b038681166004830152929350600092909116906370a0823190602401602060405180830381865afa158015611d4e573d6000803e3d6000fd5b505050506040513d601f19601f82011682018060405250810190611d72919061572a565b9050600080611d82846002613813565b91509150611d9583838360016002613619565b9695505050505050565b6034546040516307439b4960e01b81523060048201526000916001600160a01b0316906307439b4990602401602060405180830381865afa158015611de8573d6000803e3d6000fd5b505050506040513d601f19601f82011682018060405250810190611e0c9190615b20565b6001600160a01b0316826001600160a01b031614611e2b5760006110e8565b6040516370a0823160e01b81523060048201526001600160a01b038316906370a08231906024015b602060405180830381865afa158015611776573d6000803e3d6000fd5b60006002826002811115611e8657611e866158e4565b03611ea457604051632ad7929d60e11b815260040160405180910390fd5b600080611eb084613523565b9150915061119085838360006001613697565b6000611ecd613a6c565b82600003611eee57604051630cb65c7760e21b815260040160405180910390fd5b6000611ef8613ac5565b915050611f1881608001518560008660018660c001518760e00151613c19565b92506110e89150613dc39050565b6000611f306135ac565b6040516370a0823160e01b81526001600160a01b03848116600483015291909116906370a0823190602401611e53565b6000806000611f6f6002613523565b9150915061101784838360016002613697565b600080600061117e84613523565b6000611f9a613a6c565b600260335403611fbd576040516359ca47ed60e01b815260040160405180910390fd5b60026033556000611fd081868686613dc9565b506001603355915061135a905060018055565b6000611fed613a6c565b6000611ff7613ac5565b91505061201781608001516000868660018660c001518760e00151613c19565b5091506110e8905060018055565b606061202f6135ac565b6001600160a01b03166395d89b416040518163ffffffff1660e01b8152600401600060405180830381865afa158015610f1d573d6000803e3d6000fd5b6034546040516363da68b560e11b8152306004820152600091829182916001600160a01b03169063c7b4d16a9060240161040060405180830381865afa1580156120ba573d6000803e3d6000fd5b505050506040513d601f19601f820116820180604052508101906120de91906156fc565b915091506000806120f0846002613813565b604051635095598960e11b8152919350915073__$2cb88bc423f502b07e13ce75aaf4711c2a$__9063a12ab3129061213490869088908b9088908890600401615b3d565b6040805180830381865af4158015612150573d6000803e3d6000fd5b505050506040513d601f19601f820116820180604052508101906121749190615940565b509695505050505050565b60345460405163e48a5f7b60e01b81523060048201526000916001600160a01b03169063e48a5f7b9060240161020060405180830381865afa1580156121c9573d6000803e3d6000fd5b505050506040513d601f19601f820116820180604052508101906121ed9190615a76565b6101800151905090565b61222560405180606001604052806000815260200160008152602001600067ffffffffffffffff1681525090565b5060408051606081018252600080516020615f03833981519152548152600260005260366020908152600080516020615ee38339815191525490820152603554600160c01b900467ffffffffffffffff169181019190915290565b60006036816001611116565b60006002603354036122b1576040516359ca47ed60e01b815260040160405180910390fd5b60026033556034546040516363da68b560e11b815230600482015260009182916001600160a01b039091169063c7b4d16a9060240161040060405180830381865afa158015612304573d6000803e3d6000fd5b505050506040513d601f19601f8201168201806040525081019061232891906156fc565b9150915061234482610140015183600001518460200151613456565b5060008073__$2cb88bc423f502b07e13ce75aaf4711c2a$__636656fb0a858c848d8d33603684600281526020019081526020016000206036600060016002811115612392576123926158e4565b60028111156123a3576123a36158e4565b8152602001908152602001600020600001546040518963ffffffff1660e01b81526004016123d8989796959493929190615bfb565b6040805180830381865af41580156123f4573d6000803e3d6000fd5b505050506040513d601f19601f820116820180604052508101906124189190615940565b60408051838152602081018390529197509193506001600160a01b03808b1692908c169133917f96558a334f4759f0e7c423d68c84721860bd8fbf94ddc4e55158ecb125ad04b5910160405180910390a46040517f43e0dfdd4276c907f4df0416ca77293c10ecd1d9f4fcccdcfb856501f962701c90600090a16080840151604051631e94de8d60e21b81527fbd7fad0a2c28fbcc64d9a48d80f46e62c481bf097d121bfa97053b4a326342a4916001600160a01b038c1691637a537a34916124ed9133918e9189908f908f90600401615c53565b6020604051808303816000875af115801561250c573d6000803e3d6000fd5b505050506040513d601f19601f82011682018060405250810190612530919061572a565b1461254e576040516396dc431b60e01b815260040160405180910390fd5b826101e00151156125c0576101208301516080840151604051637cfd30cd60e11b81526001600160a01b03918216600482015291169063f9fa619a90602401600060405180830381600087803b1580156125a757600080fd5b505af11580156125bb573d6000803e3d6000fd5b505050505b836101e0015115612632576101208401516080850151604051637cfd30cd60e11b81526001600160a01b03918216600482015291169063f9fa619a90602401600060405180830381600087803b15801561261957600080fd5b505af115801561262d573d6000803e3d6000fd5b505050505b604051635f9b921b60e01b815273__$5f084e02cba86e37595b38f777b0951815$__90635f9b921b9061267090869088908d90600090600401615ab6565b602060405180830381865af415801561268d573d6000803e3d6000fd5b505050506040513d601f19601f820116820180604052508101906126b19190615b03565b6126ce5760405163950c033560e01b815260040160405180910390fd5b5050600160335550909695505050505050565b6000610ed0613ac5565b60006126f56135ac565b6001600160a01b0316631339c6493385856040518463ffffffff1660e01b81526004016110b193929190615a52565b600061272e613a6c565b600260335403612751576040516359ca47ed60e01b815260040160405180910390fd5b60026033556000612763848285614109565b600160335592506110e89150613dc39050565b6000612780613a6c565b6002603354036127a3576040516359ca47ed60e01b815260040160405180910390fd5b60026033556127b88460008585336001614208565b6001603355915061135a905060018055565b60345460405163e48a5f7b60e01b81523060048201526000916001600160a01b03169063e48a5f7b9060240161020060405180830381865afa158015612814573d6000803e3d6000fd5b505050506040513d601f19601f820116820180604052508101906128389190615a76565b6101600151905090565b600061284c613a6c565b8360000361286d57604051630cb65c7760e21b815260040160405180910390fd5b6000612877613ac5565b9150600090506001846002811115612891576128916158e4565b146128a0578160a001516128a6565b8160c001515b90506128c082608001518760008888868860e00151613c19565b935061135a9250613dc3915050565b60006128d9613a6c565b6002603354036128fc576040516359ca47ed60e01b815260040160405180910390fd5b600260335561291085600086863387614208565b60016033559150611017905060018055565b60345473__$ff3732d68c5c83c0ffcb2490e4fa1c4ff2$__9063e8cb7197906001600160a01b03168787878787612957611041565b60405160e089901b6001600160e01b03191681526001600160a01b039788166004820152602481019690965260448601949094529185166064850152909316608483015291151560a482015260c4810191909152603660e48201526101040160006040518083038186803b1580156129ce57600080fd5b505af41580156129e2573d6000803e3d6000fd5b505050505050505050565b60006129f7613a6c565b600260335403612a1a576040516359ca47ed60e01b815260040160405180910390fd5b60026033556000611fd081868686336001614208565b6000806000612a3f6002613523565b9150915061101784838360016002613619565b604051634a5ad91b60e11b81523060048201526001600160a01b0382166024820152600090819073__$ff3732d68c5c83c0ffcb2490e4fa1c4ff2$__906394b5b236906044016040805180830381865af4158015612ab4573d6000803e3d6000fd5b505050506040513d601f19601f82011682018060405250810190612ad89190615940565b91509150915091565b6000806000612af06002613523565b9150915061101784838360006002613697565b6000612b0d613a6c565b83600003612b2e57604051639811e0c760e01b815260040160405180910390fd5b6000612b38613ac5565b9150600090506001846002811115612b5257612b526158e4565b14612b61578160a00151612b67565b8160c001515b9050612b8182608001516000888888868860e00151613c19565b5060018055925061135a915050565b6034546040516329ae09bf60e21b81526001600160a01b0391821660048201527f0000000000000000000000000000000000000000000000000000000000000000909116602482015260009081908190819073__$35324b2b5c5ee97b5b21e500a23bd2480c$__9063a6b826fc9060440160a060405180830381865af4158015612c1e573d6000803e3d6000fd5b505050506040513d601f19601f82011682018060405250810190612c429190615c8f565b50929791965094509092509050565b6000806000612c606001613523565b9150915061101784838360006001613697565b6000806000612c81846136ef565b915091506110178282866000600161469a565b603454600160008181526036602052600080516020615f0383398151915254909273__$5fba74f7ae1cbd55759e956bb7df201c56$__9263e02f78c1926001600160a01b0390921691869190612ce8611041565b6040518663ffffffff1660e01b8152600401612d08959493929190615a1a565b6040805180830381865af4158015612d24573d6000803e3d6000fd5b505050506040513d601f19601f82011682018060405250810190612d489190615940565b5092915050565b6000612d59613a6c565b600260335403612d7c576040516359ca47ed60e01b815260040160405180910390fd5b60026033556000612d8f85828686613dc9565b6001603355925061135a9150613dc39050565b603454600160008181526036602052600080516020615f0383398151915254909273__$5fba74f7ae1cbd55759e956bb7df201c56$__9263e02f78c1926001600160a01b0390921691869190612df6611041565b6040518663ffffffff1660e01b8152600401612e16959493929190615a1a565b6040805180830381865af4158015612e32573d6000803e3d6000fd5b505050506040513d601f19601f8201168201806040525081019061135a9190615940565b60345460405163012d690960e11b815260009173__$35324b2b5c5ee97b5b21e500a23bd2480c$__9163025ad21291611c5f916001600160a01b039091169087908790600401615a52565b6000612eab613a6c565b600260335403612ece576040516359ca47ed60e01b815260040160405180910390fd5b6002603355612ee260008686863387614208565b506001603355905061101760018055565b6000612efd6135ac565b604051636eb1769f60e11b81526001600160a01b0385811660048301528481166024830152919091169063dd62ed3e90604401611457565b6000612f3f613a6c565b600260335403612f62576040516359ca47ed60e01b815260040160405180910390fd5b60026033556000612f74818585614109565b50600160335591506110e8905060018055565b6000806000612f966002613523565b9150915061101784838360006002613619565b60345460405163e48a5f7b60e01b815230600482015260009182916001600160a01b039091169063e48a5f7b9060240161020060405180830381865afa158015612ff7573d6000803e3d6000fd5b505050506040513d601f19601f8201168201806040525081019061301b9190615a76565b60e0015160405163a6e08aa160e01b81526001600160a01b0380831660048301528516602482015290915073__$5fba74f7ae1cbd55759e956bb7df201c56$__9063a6e08aa1906044016116ce565b60006036816002611116565b6000613080613a6c565b6002603354036130a3576040516359ca47ed60e01b815260040160405180910390fd5b600260338190558260028111156130bc576130bc6158e4565b036130da57604051632ad7929d60e11b815260040160405180910390fd5b60006130e4613ac5565b91506000905080806001866002811115613100576131006158e4565b1461313a5760a08401516000805260366020527f4cb2b152c1b54ce671907a93c300fd5aa72383a9d4ec19a81e3333632ae92e0054613147565b8360c00151613147611041565b9150915073__$5fba74f7ae1cbd55759e956bb7df201c56$__634fed05f1838a8a338b87603660008f6002811115613181576131816158e4565b6002811115613192576131926158e4565b81526020019081526020016000206040518863ffffffff1660e01b81526004016131c29796959493929190615ce3565b6040805180830381865af41580156131de573d6000803e3d6000fd5b505050506040513d601f19601f820116820180604052508101906132029190615940565b98509450600091508190506001866002811115613221576132216158e4565b146132325760018460c0015161323a565b60008460a001515b9150915073__$5fba74f7ae1cbd55759e956bb7df201c56$__6341d490c46000898860008c878b60e00151603660008c600281111561327b5761327b6158e4565b600281111561328c5761328c6158e4565b81526020019081526020016000206040518963ffffffff1660e01b81526004016132bd989796959493929190615d2c565b6040805180830381865af41580156132d9573d6000803e3d6000fd5b505050506040513d601f19601f820116820180604052508101906132fd9190615940565b90955092506001915061330d9050565b84600281111561331f5761331f6158e4565b036133b75760408051848152602081018890526001600160a01b03871691829133917ffbde797d201c681b91056529119e0b02407c7bb96a4a2c75c01fc9667232c8db910160405180910390a460408051848152602081018390526001600160a01b0387169133917f1ad348f5de3e19e23d88e34248ceb6ab09804a35a3abc0e7758045b7b9036acd910160405180910390a3613446565b60408051848152602081018890526001600160a01b03871691829133917f2dac01ea07cfa812db5881eaad96ba201c018c042b8f9ea7278cdf6f29e65f24910160405180910390a460408051848152602081018390526001600160a01b0387169133917fdcbc1c05240f31ff3ad067ef1ee35ce4997762752e3a095284754544f4c709d7910160405180910390a35b5050600160335561135a60018055565b6036602090815260026000908152604080516316dbd58560e31b81526001600160a01b0387166004820152602481018690526044810185905260356064820152600080516020615f038339815191526084820152600080516020615ee383398151915260a48201529051919273__$2cb88bc423f502b07e13ce75aaf4711c2a$__9263b6deac289260c48082019392918290030181865af41580156134ff573d6000803e3d6000fd5b505050506040513d601f19601f82011682018060405250810190611017919061572a565b60345460405163e48a5f7b60e01b8152306004820152600091829182916001600160a01b03169063e48a5f7b9060240161020060405180830381865afa158015613571573d6000803e3d6000fd5b505050506040513d601f19601f820116820180604052508101906135959190615a76565b90506135a18185613813565b909590945092505050565b603454604051630483b24f60e41b81523060048201526000916001600160a01b03169063483b24f090602401606060405180830381865afa1580156135f5573d6000803e3d6000fd5b505050506040513d601f19601f82011682018060405250810190612d489190615d77565b600080806002846002811115613631576136316158e4565b14613643576001860187600101613646565b85875b9092509050811580613656575080155b15613665578792505050611190565b6136718882848861476c565b98975050505050505050565b600082821161368e5781830361135a565b60009392505050565b6000808060028460028111156136af576136af6158e4565b146136c15760018601876001016136c4565b85875b90925090508115806136d4575080155b156136e3578792505050611190565b6136718883838861476c565b6136f7615098565b6136ff615098565b6034546040516363da68b560e11b81523060048201526001600160a01b039091169063c7b4d16a9060240161040060405180830381865afa158015613748573d6000803e3d6000fd5b505050506040513d601f19601f8201168201806040525081019061376c91906156fc565b60e0828101519082015160405163017a0d7960e21b81526001600160a01b03928316600482015290821660248201529086166044820152919350915073__$5f084e02cba86e37595b38f777b0951815$__906305e835e490606401602060405180830381865af41580156137e4573d6000803e3d6000fd5b505050506040513d601f19601f820116820180604052508101906138089190615b03565b61380e57905b915091565b60008080836002811115613829576138296158e4565b036139035783604001516001600160a01b031663117ff53e6040518163ffffffff1660e01b8152600401602060405180830381865afa158015613870573d6000803e3d6000fd5b505050506040513d601f19601f82011682018060405250810190613894919061572a565b91508360a001516001600160a01b03166318160ddd6040518163ffffffff1660e01b8152600401602060405180830381865afa1580156138d8573d6000803e3d6000fd5b505050506040513d601f19601f820116820180604052508101906138fc919061572a565b9050613a06565b6001836002811115613917576139176158e4565b0361397d576139398460400151856101400151866000015187602001516147bd565b91508360c001516001600160a01b03166318160ddd6040518163ffffffff1660e01b8152600401602060405180830381865afa1580156138d8573d6000803e3d6000fd5b6002836002811115613991576139916158e4565b036139ed576139a98460400151856101400151614911565b91508360e001516001600160a01b03166318160ddd6040518163ffffffff1660e01b8152600401602060405180830381865afa1580156138d8573d6000803e3d6000fd5b604051632ad7929d60e11b815260040160405180910390fd5b9250929050565b600054610100900460ff16613a345760405162461bcd60e51b81526004016119df90615db9565b613a3c6149fc565b565b600054610100900460ff16613a655760405162461bcd60e51b81526004016119df90615db9565b6001603355565b600260015403613abe5760405162461bcd60e51b815260206004820152601f60248201527f5265656e7472616e637947756172643a207265656e7472616e742063616c6c0060448201526064016119df565b6002600155565b6000613acf615098565b60345460405163e48a5f7b60e01b81523060048201526001600160a01b039091169063e48a5f7b9060240161020060405180830381865afa158015613b18573d6000803e3d6000fd5b505050506040513d601f19601f82011682018060405250810190613b3c9190615a76565b6101408101518151602080840151603682526002600052604080516316dbd58560e31b81526001600160a01b0390951660048601526024850193909352604484015260356064840152600080516020615f038339815191526084840152600080516020615ee383398151915260a4840152905192935073__$2cb88bc423f502b07e13ce75aaf4711c2a$__9263b6deac289260c48082019392918290030181865af4158015613bef573d6000803e3d6000fd5b505050506040513d601f19601f82011682018060405250810190613c13919061572a565b91509091565b6000806002856002811115613c3057613c306158e4565b03613c4e57604051632ad7929d60e11b815260040160405180910390fd5b73__$5fba74f7ae1cbd55759e956bb7df201c56$__6341d490c48a338b8b8b8a8a603660008f6002811115613c8557613c856158e4565b6002811115613c9657613c966158e4565b81526020019081526020016000206040518963ffffffff1660e01b8152600401613cc7989796959493929190615d2c565b6040805180830381865af4158015613ce3573d6000803e3d6000fd5b505050506040513d601f19601f82011682018060405250810190613d079190615940565b90925090506001856002811115613d2057613d206158e4565b03613d705760408051838152602081018390526001600160a01b0388169133917fdcbc1c05240f31ff3ad067ef1ee35ce4997762752e3a095284754544f4c709d7910160405180910390a3613db7565b60408051838152602081018390526001600160a01b0388169133917f1ad348f5de3e19e23d88e34248ceb6ab09804a35a3abc0e7758045b7b9036acd910160405180910390a35b97509795505050505050565b60018055565b6034546040516363da68b560e11b81523060048201526000918291829182916001600160a01b039091169063c7b4d16a9060240161040060405180830381865afa158015613e1b573d6000803e3d6000fd5b505050506040513d601f19601f82011682018060405250810190613e3f91906156fc565b91509150613e5b82610140015183600001518460200151613456565b5073__$2cb88bc423f502b07e13ce75aaf4711c2a$__636656fb0a838a8a8a8a3360366000600281526020019081526020016000206036600060016002811115613ea757613ea76158e4565b6002811115613eb857613eb86158e4565b8152602001908152602001600020600001546040518963ffffffff1660e01b8152600401613eed989796959493929190615bfb565b6040805180830381865af4158015613f09573d6000803e3d6000fd5b505050506040513d601f19601f82011682018060405250810190613f2d9190615940565b60408051838152602081018390529296509094506001600160a01b03808816929089169133917f96558a334f4759f0e7c423d68c84721860bd8fbf94ddc4e55158ecb125ad04b5910160405180910390a4806101e0015115613ff0576101208101516080820151604051637cfd30cd60e11b81526001600160a01b03918216600482015291169063f9fa619a90602401600060405180830381600087803b158015613fd757600080fd5b505af1158015613feb573d6000803e3d6000fd5b505050505b816101e0015115614062576101208201516080830151604051637cfd30cd60e11b81526001600160a01b03918216600482015291169063f9fa619a90602401600060405180830381600087803b15801561404957600080fd5b505af115801561405d573d6000803e3d6000fd5b505050505b604051635f9b921b60e01b815273__$5f084e02cba86e37595b38f777b0951815$__90635f9b921b906140a090849086908a90600090600401615ab6565b602060405180830381865af41580156140bd573d6000803e3d6000fd5b505050506040513d601f19601f820116820180604052508101906140e19190615b03565b6140fe5760405163950c033560e01b815260040160405180910390fd5b505094509492505050565b6000806000614116613ac5565b60026000526036602052604051637e0d825160e01b815290925073__$2cb88bc423f502b07e13ce75aaf4711c2a$__9150637e0d8251906141739084908a908a908a903390600080516020615ee3833981519152906004016158fa565b6040805180830381865af415801561418f573d6000803e3d6000fd5b505050506040513d601f19601f820116820180604052508101906141b39190615940565b60408051838152602081018390529295509093506001600160a01b0386169133917fe4a1ae657f49cb1fb1c7d3a94ae6093565c4c8c0e03de488f79c377c3c3a24e0910160405180910390a350935093915050565b600080600283600281111561421f5761421f6158e4565b0361423d57604051632ad7929d60e11b815260040160405180910390fd5b6034546040516363da68b560e11b815230600482015260009182916001600160a01b039091169063c7b4d16a9060240161040060405180830381865afa15801561428b573d6000803e3d6000fd5b505050506040513d601f19601f820116820180604052508101906142af91906156fc565b915091506142bb613ac5565b50600190508560028111156142d2576142d26158e4565b036143965773__$5fba74f7ae1cbd55759e956bb7df201c56$__635cc17fa183608001518460c001518d8d8d8d8d8d614309611041565b600160005260366020526040516001600160e01b031960e08c901b16815261434c99989796959493929190600080516020615f0383398151915290600401615e04565b6040805180830381865af4158015614368573d6000803e3d6000fd5b505050506040513d601f19601f8201168201806040525081019061438c9190615940565b9094509250614458565b608082015160a083015173__$5fba74f7ae1cbd55759e956bb7df201c56$__91635cc17fa1918d8d8d8d8d8d603660008081526020810191909152604001600090812054906036908081526020019081526020016000206040518b63ffffffff1660e01b81526004016144129a99989796959493929190615e04565b6040805180830381865af415801561442e573d6000803e3d6000fd5b505050506040513d601f19601f820116820180604052508101906144529190615940565b90945092505b600185600281111561446c5761446c6158e4565b036144c15760408051858152602081018590526001600160a01b03808a1692908b169133917ffbde797d201c681b91056529119e0b02407c7bb96a4a2c75c01fc9667232c8db910160405180910390a461450d565b60408051858152602081018590526001600160a01b03808a1692908b169133917f2dac01ea07cfa812db5881eaad96ba201c018c042b8f9ea7278cdf6f29e65f24910160405180910390a45b816101e001511561457f576101008201516080830151604051637cfd30cd60e11b81526001600160a01b03918216600482015291169063f9fa619a90602401600060405180830381600087803b15801561456657600080fd5b505af115801561457a573d6000803e3d6000fd5b505050505b806101e00151156145f1576101008101516080820151604051637cfd30cd60e11b81526001600160a01b03918216600482015291169063f9fa619a90602401600060405180830381600087803b1580156145d857600080fd5b505af11580156145ec573d6000803e3d6000fd5b505050505b604051631792531160e11b815273__$5f084e02cba86e37595b38f777b0951815$__90632f24a6229061462f90859085908c90600090600401615ab6565b602060405180830381865af415801561464c573d6000803e3d6000fd5b505050506040513d601f19601f820116820180604052508101906146709190615b03565b61468d5760405163e081c8f360e01b815260040160405180910390fd5b5050965096945050505050565b60e08401516040516370a0823160e01b81526001600160a01b03858116600483015260009283929116906370a0823190602401602060405180830381865afa1580156146ea573d6000803e3d6000fd5b505050506040513d601f19601f8201168201806040525081019061470e919061572a565b905080600003614722576000915050611190565b6000614732888888888887614a23565b9050806080015160000361474b57600092505050611190565b61475e8189608001518960800151614c87565b9a9950505050505050505050565b60008061477a868686614cf5565b90506001836002811115614790576147906158e4565b1480156147ad5750600084806147a8576147a8615e6a565b868809115b1561119057611d95600182615e96565b6040516367efe7fd60e11b81526001600160a01b038581166004830152426024830152600091829186169063cfdfcffa90604401602060405180830381865afa15801561480e573d6000803e3d6000fd5b505050506040513d601f19601f82011682018060405250810190614832919061572a565b9050614903866001600160a01b031663a1ff9bee6040518163ffffffff1660e01b8152600401602060405180830381865afa158015614875573d6000803e3d6000fd5b505050506040513d601f19601f82011682018060405250810190614899919061572a565b876001600160a01b031663ecd658b46040518163ffffffff1660e01b8152600401602060405180830381865afa1580156148d7573d6000803e3d6000fd5b505050506040513d601f19601f820116820180604052508101906148fb919061572a565b838787614ddf565b509198975050505050505050565b6040516367efe7fd60e11b81526001600160a01b038381166004830152426024830152600091829184169063cfdfcffa90604401602060405180830381865afa158015614962573d6000803e3d6000fd5b505050506040513d601f19601f82011682018060405250810190614986919061572a565b90506149f3846001600160a01b031663ecd658b46040518163ffffffff1660e01b8152600401602060405180830381865afa1580156149c9573d6000803e3d6000fd5b505050506040513d601f19601f820116820180604052508101906149ed919061572a565b82614e21565b50949350505050565b600054610100900460ff16613dc35760405162461bcd60e51b81526004016119df90615db9565b614a676040518060a0016040528060006001600160a01b0316815260200160006001600160a01b031681526020016000815260200160008152602001600081525090565b6001846001811115614a7b57614a7b6158e4565b14614a9157866101000151866101000151614a9e565b8661012001518661012001515b6001600160a01b03908116602084015216815260a08701516000908190614ac6908883614e60565b80935081925050506000808a604001516001600160a01b03166399d499c16040518163ffffffff1660e01b81526004016040805180830381865afa158015614b12573d6000803e3d6000fd5b505050506040513d601f19601f82011682018060405250810190614b369190615940565b91509150614b48838286600080613619565b604086015260c08b0151614b5e908a6000614e60565b945092506001876001811115614b7657614b766158e4565b14614b815781614b9e565b614b9e8b604001518c61014001518d600001518e602001516147bd565b9150614baf83838660006001613619565b606086015260e08a0151614bc4908a88614e60565b9450925060006001886001811115614bde57614bde6158e4565b14614c4e578a604001516001600160a01b031663ecd658b46040518163ffffffff1660e01b8152600401602060405180830381865afa158015614c25573d6000803e3d6000fd5b505050506040513d601f19601f82011682018060405250810190614c49919061572a565b614c61565b614c618b604001518c6101400151614911565b9050614c7284828760016002613619565b608087015250939a9950505050505050505050565b6000806000614c97868686614f47565b909350915082158015614ca8575081155b15614cbb57506000915081905080614cec565b82600003614ccc5750600019614cec565b82614cdf670de0b6b3a764000084615ea9565b614ce99190615ec0565b90505b93509350939050565b6000808060001985870985870292508281108382030391505080600003614d2f57838281614d2557614d25615e6a565b049250505061135a565b808411614d765760405162461bcd60e51b81526020600482015260156024820152744d6174683a206d756c446976206f766572666c6f7760581b60448201526064016119df565b60008486880960026001871981018816978890046003810283188082028403028082028403028082028403028082028403028082028403029081029092039091026000889003889004909101858311909403939093029303949094049190911702949350505050565b600080600080614def8888614e21565b909350670de0b6b3a764000086880182020492509050818103614e12818b615e96565b94505095509550955095915050565b600080831580614e2f575082155b15614e3f57508290506000613a06565b50670de0b6b3a764000082840204614e578185615e96565b91509250929050565b6000808215614e6f5782614ed9565b6040516370a0823160e01b81526001600160a01b0385811660048301528616906370a0823190602401602060405180830381865afa158015614eb5573d6000803e3d6000fd5b505050506040513d601f19601f82011682018060405250810190614ed9919061572a565b9150846001600160a01b03166318160ddd6040518163ffffffff1660e01b8152600401602060405180830381865afa158015614f19573d6000803e3d6000fd5b505050506040513d601f19601f82011682018060405250810190614f3d919061572a565b9050935093915050565b606083015160408401516000918291018015614fe95785516001600160a01b0316614f725780614fe6565b85516040516313b0be3360e01b8152600481018390526001600160a01b038781166024830152909116906313b0be3390604401602060405180830381865afa158015614fc2573d6000803e3d6000fd5b505050506040513d601f19601f82011682018060405250810190614fe6919061572a565b92505b60808601511561508f5760208601516001600160a01b031661500f57856080015161508c565b602086015160808701516040516313b0be3360e01b815260048101919091526001600160a01b038681166024830152909116906313b0be3390604401602060405180830381865afa158015615068573d6000803e3d6000fd5b505050506040513d601f19601f8201168201806040525081019061508c919061572a565b91505b50935093915050565b6040805161020081018252600080825260208201819052918101829052606081018290526080810182905260a0810182905260c0810182905260e08101829052610100810182905261012081018290526101408101829052610160810182905261018081018290526101a081018290526101c081018290526101e081019190915290565b6001600160a01b038116811461513157600080fd5b50565b801515811461513157600080fd5b600080600080600060a0868803121561515a57600080fd5b85356151658161511c565b945060208601356151758161511c565b935060408601356151858161511c565b925060608601359150608086013561519c81615134565b809150509295509295909350565b60005b838110156151c55781810151838201526020016151ad565b50506000910152565b60208152600082518060208401526151ed8160408501602087016151aa565b601f01601f19169190910160400192915050565b80356003811061521057600080fd5b919050565b6000806040838503121561522857600080fd5b82356152338161511c565b915061524160208401615201565b90509250929050565b60006020828403121561525c57600080fd5b5035919050565b6000806040838503121561527657600080fd5b82356152818161511c565b946020939093013593505050565b600080604083850312156152a257600080fd5b8235915061524160208401615201565b6000806000606084860312156152c757600080fd5b83356152d28161511c565b925060208401356152e28161511c565b929592945050506040919091013590565b60006020828403121561530557600080fd5b813561135a8161511c565b6000806040838503121561532357600080fd5b823561532e8161511c565b9150602083013561533e8161511c565b809150509250929050565b60008083601f84011261535b57600080fd5b50813567ffffffffffffffff81111561537357600080fd5b602083019150836020828501011115613a0657600080fd5b6000806000806000608086880312156153a357600080fd5b85356153ae8161511c565b945060208601356153be8161511c565b935060408601359250606086013567ffffffffffffffff8111156153e157600080fd5b6153ed88828901615349565b969995985093965092949392505050565b6000806040838503121561541157600080fd5b82359150602083013561533e8161511c565b60008060006060848603121561543857600080fd5b83359250602084013561544a8161511c565b9150604084013561545a8161511c565b809150509250925092565b60008060008060006080868803121561547d57600080fd5b85359450602086013561548f8161511c565b9350604086013561549f8161511c565b9250606086013567ffffffffffffffff8111156153e157600080fd5b6000806000606084860312156154d057600080fd5b8335925060208401356154e28161511c565b91506154f060408501615201565b90509250925092565b6000806000806080858703121561550f57600080fd5b8435935060208501356155218161511c565b925060408501356155318161511c565b915061553f60608601615201565b905092959194509250565b600080600080600060a0868803121561556257600080fd5b8535945060208601359350604086013561557b8161511c565b9250606086013561558b8161511c565b9150608086013561519c81615134565b634e487b7160e01b600052604160045260246000fd5b604051610200810167ffffffffffffffff811182821017156155d5576155d561559b565b60405290565b80516152108161511c565b805161521081615134565b6000610200828403121561560457600080fd5b61560c6155b1565b90508151815260208201516020820152615628604083016155db565b6040820152615639606083016155db565b606082015261564a608083016155db565b608082015261565b60a083016155db565b60a082015261566c60c083016155db565b60c082015261567d60e083016155db565b60e08201526101006156908184016155db565b908201526101206156a28382016155db565b908201526101406156b48382016155db565b90820152610160828101519082015261018080830151908201526101a080830151908201526101c080830151908201526101e06156f28184016155e6565b9082015292915050565b600080610400838503121561571057600080fd5b61571a84846155f1565b91506152418461020085016155f1565b60006020828403121561573c57600080fd5b5051919050565b8051825260208101516020830152604081015161576b60408401826001600160a01b03169052565b50606081015161578660608401826001600160a01b03169052565b5060808101516157a160808401826001600160a01b03169052565b5060a08101516157bc60a08401826001600160a01b03169052565b5060c08101516157d760c08401826001600160a01b03169052565b5060e08101516157f260e08401826001600160a01b03169052565b50610100818101516001600160a01b0390811691840191909152610120808301518216908401526101408083015190911690830152610160808201519083015261018080820151908301526101a080820151908301526101c080820151908301526101e08082015180151582850152611940565b61048081016158758289615743565b615883610200830188615743565b6001600160a01b039590951661040082015261042081019390935261044083019190915215156104609091015292915050565b6000806000606084860312156158cb57600080fd5b8351925060208401519150604084015190509250925092565b634e487b7160e01b600052602160045260246000fd5b6102a081016159098289615743565b6102008201969096526102208101949094526001600160a01b03928316610240850152911661026083015261028090910152919050565b6000806040838503121561595357600080fd5b505080516020909101519092909150565b60006020828403121561597657600080fd5b815167ffffffffffffffff8082111561598e57600080fd5b818401915084601f8301126159a257600080fd5b8151818111156159b4576159b461559b565b604051601f8201601f19908116603f011681019083821181831017156159dc576159dc61559b565b816040528281528760208487010111156159f557600080fd5b6118a28360208301602088016151aa565b60038110615a1657615a166158e4565b9052565b6001600160a01b0386811682528516602082015260a08101615a3f6040830186615a06565b6060820193909352608001529392505050565b6001600160a01b039384168152919092166020820152604081019190915260600190565b60006102008284031215615a8957600080fd5b61135a83836155f1565b600060208284031215615aa557600080fd5b815160ff8116811461135a57600080fd5b6104408101615ac58287615743565b615ad3610200830186615743565b6001600160a01b03841661040083015260028310615af357615af36158e4565b8261042083015295945050505050565b600060208284031215615b1557600080fd5b815161135a81615134565b600060208284031215615b3257600080fd5b815161135a8161511c565b6104608101615b4c8288615743565b615b5a610200830187615743565b6001600160a01b03949094166104008201526104208101929092526104409091015292915050565b81835281816020850137506000828201602090810191909152601f909101601f19169091010190565b6001600160a01b038881168252602082018890528681166040830152851660608201526080810184905260c060a08201819052600090615bee9083018486615b82565b9998505050505050505050565b6102e08101615c0a828b615743565b6102008201989098526102208101969096526001600160a01b0394851661024087015292841661026086015292166102808401526102a08301919091526102c090910152919050565b6001600160a01b0387811682528681166020830152851660408201526060810184905260a0608082018190526000906136719083018486615b82565b600080600080600060a08688031215615ca757600080fd5b8551615cb28161511c565b6020870151909550615cc38161511c565b809450506040860151925060608601519150608086015161519c8161511c565b6001600160a01b0388811682526020820188905286811660408301528516606082015260e08101615d176080830186615a06565b60a082019390935260c0015295945050505050565b6001600160a01b0398891681529688166020880152604087019590955260608601939093529085166080850152841660a084015290921660c082015260e08101919091526101000190565b600080600060608486031215615d8c57600080fd5b8351615d978161511c565b6020850151909350615da88161511c565b604085015190925061545a8161511c565b6020808252602b908201527f496e697469616c697a61626c653a20636f6e7472616374206973206e6f74206960408201526a6e697469616c697a696e6760a81b606082015260800190565b6001600160a01b038b811682528a81166020830152604082018a905260608201899052878116608083015286811660a0830152851660c08201526101408101615e5060e0830186615a06565b610100820193909352610120015298975050505050505050565b634e487b7160e01b600052601260045260246000fd5b634e487b7160e01b600052601160045260246000fd5b808201808211156110e8576110e8615e80565b80820281158282048414176110e8576110e8615e80565b600082615edd57634e487b7160e01b600052601260045260246000fd5b50049056fe49d58ea9a5daf69ab79ed6bff1f0de709220367fa3b259710db785f85d2077ebc082cfcdc2bfeeffb970c9772df3384f481b69fbc495624ec92a9254cc4b32f0a26469706673582212209b68a8a22364069cfe1a45e587c3daf8aea8baa3ca8832595fa8d1d0338ba62964736f6c63430008150033",
  "language": "Solidity",
  "compiler": "0.8.21+commit.d9974bed"
}