{
  "address": "0x822A1263d5E4eF3775eD1e8EAD77750A8B194B00",
  "abi": [
    {
      "inputs": [
        {
          "internalType": "contract IInterestRateModelV2ConfigFactory",
          "name": "_irmConfigFactory",
          "type": "address"
        },
        {
          "internalType": "contract ISiloFactory",
          "name": "_siloFactory",
          "type": "address"
        }
      ],
      "stateMutability": "nonpayable",
      "type": "constructor"
    },
    {
      "inputs": [],
      "name": "IRM_CONFIG_FACTORY",
      "outputs": [
        {
          "internalType": "contract IInterestRateModelV2ConfigFactory",
          "name": "",
          "type": "address"
        }
      ],
      "stateMutability": "view",
      "type": "function"
    },
    {
      "inputs": [],
      "name": "SILO_FACTORY",
      "outputs": [
        {
          "internalType": "contract ISiloFactory",
          "name": "",
          "type": "address"
        }
      ],
      "stateMutability": "view",
      "type": "function"
    },
    {
      "inputs": [
        {
          "components": [
            {
              "components": [
                {
                  "internalType": "address",
                  "name": "factory",
                  "type": "address"
                },
                {
                  "internalType": "bytes",
                  "name": "txInput",
                  "type": "bytes"
                }
              ],
              "internalType": "struct ISiloDeployer.OracleCreationTxData",
              "name": "solvencyOracle0",
              "type": "tuple"
            },
            {
              "components": [
                {
                  "internalType": "address",
                  "name": "factory",
                  "type": "address"
                },
                {
                  "internalType": "bytes",
                  "name": "txInput",
                  "type": "bytes"
                }
              ],
              "internalType": "struct ISiloDeployer.OracleCreationTxData",
              "name": "maxLtvOracle0",
              "type": "tuple"
            },
            {
              "components": [
                {
                  "internalType": "address",
                  "name": "factory",
                  "type": "address"
                },
                {
                  "internalType": "bytes",
                  "name": "txInput",
                  "type": "bytes"
                }
              ],
              "internalType": "struct ISiloDeployer.OracleCreationTxData",
              "name": "solvencyOracle1",
              "type": "tuple"
            },
            {
              "components": [
                {
                  "internalType": "address",
                  "name": "factory",
                  "type": "address"
                },
                {
                  "internalType": "bytes",
                  "name": "txInput",
                  "type": "bytes"
                }
              ],
              "internalType": "struct ISiloDeployer.OracleCreationTxData",
              "name": "maxLtvOracle1",
              "type": "tuple"
            }
          ],
          "internalType": "struct ISiloDeployer.Oracles",
          "name": "_oracles",
          "type": "tuple"
        },
        {
          "components": [
            {
              "internalType": "int256",
              "name": "uopt",
              "type": "int256"
            },
            {
              "internalType": "int256",
              "name": "ucrit",
              "type": "int256"
            },
            {
              "internalType": "int256",
              "name": "ulow",
              "type": "int256"
            },
            {
              "internalType": "int256",
              "name": "ki",
              "type": "int256"
            },
            {
              "internalType": "int256",
              "name": "kcrit",
              "type": "int256"
            },
            {
              "internalType": "int256",
              "name": "klow",
              "type": "int256"
            },
            {
              "internalType": "int256",
              "name": "klin",
              "type": "int256"
            },
            {
              "internalType": "int256",
              "name": "beta",
              "type": "int256"
            }
          ],
          "internalType": "struct IInterestRateModelV2.Config",
          "name": "_irmConfigData0",
          "type": "tuple"
        },
        {
          "components": [
            {
              "internalType": "int256",
              "name": "uopt",
              "type": "int256"
            },
            {
              "internalType": "int256",
              "name": "ucrit",
              "type": "int256"
            },
            {
              "internalType": "int256",
              "name": "ulow",
              "type": "int256"
            },
            {
              "internalType": "int256",
              "name": "ki",
              "type": "int256"
            },
            {
              "internalType": "int256",
              "name": "kcrit",
              "type": "int256"
            },
            {
              "internalType": "int256",
              "name": "klow",
              "type": "int256"
            },
            {
              "internalType": "int256",
              "name": "klin",
              "type": "int256"
            },
            {
              "internalType": "int256",
              "name": "beta",
              "type": "int256"
            }
          ],
          "internalType": "struct IInterestRateModelV2.Config",
          "name": "_irmConfigData1",
          "type": "tuple"
        },
        {
          "components": [
            {
              "internalType": "address",
              "name": "implementation",
              "type": "address"
            },
            {
              "internalType": "bytes",
              "name": "initializationData",
              "type": "bytes"
            }
          ],
          "internalType": "struct ISiloDeployer.ClonableHookReceiver",
          "name": "_clonableHookReceiver",
          "type": "tuple"
        },
        {
          "components": [
            {
              "internalType": "address",
              "name": "deployer",
              "type": "address"
            },
            {
              "internalType": "address",
              "name": "liquidationModule",
              "type": "address"
            },
            {
              "internalType": "address",
              "name": "hookReceiver",
              "type": "address"
            },
            {
              "internalType": "uint256",
              "name": "deployerFee",
              "type": "uint256"
            },
            {
              "internalType": "address",
              "name": "token0",
              "type": "address"
            },
            {
              "internalType": "address",
              "name": "solvencyOracle0",
              "type": "address"
            },
            {
              "internalType": "address",
              "name": "maxLtvOracle0",
              "type": "address"
            },
            {
              "internalType": "address",
              "name": "interestRateModel0",
              "type": "address"
            },
            {
              "internalType": "address",
              "name": "interestRateModelConfig0",
              "type": "address"
            },
            {
              "internalType": "uint256",
              "name": "maxLtv0",
              "type": "uint256"
            },
            {
              "internalType": "uint256",
              "name": "lt0",
              "type": "uint256"
            },
            {
              "internalType": "uint256",
              "name": "liquidationFee0",
              "type": "uint256"
            },
            {
              "internalType": "uint256",
              "name": "flashloanFee0",
              "type": "uint256"
            },
            {
              "internalType": "bool",
              "name": "callBeforeQuote0",
              "type": "bool"
            },
            {
              "internalType": "address",
              "name": "token1",
              "type": "address"
            },
            {
              "internalType": "address",
              "name": "solvencyOracle1",
              "type": "address"
            },
            {
              "internalType": "address",
              "name": "maxLtvOracle1",
              "type": "address"
            },
            {
              "internalType": "address",
              "name": "interestRateModel1",
              "type": "address"
            },
            {
              "internalType": "address",
              "name": "interestRateModelConfig1",
              "type": "address"
            },
            {
              "internalType": "uint256",
              "name": "maxLtv1",
              "type": "uint256"
            },
            {
              "internalType": "uint256",
              "name": "lt1",
              "type": "uint256"
            },
            {
              "internalType": "uint256",
              "name": "liquidationFee1",
              "type": "uint256"
            },
            {
              "internalType": "uint256",
              "name": "flashloanFee1",
              "type": "uint256"
            },
            {
              "internalType": "bool",
              "name": "callBeforeQuote1",
              "type": "bool"
            }
          ],
          "internalType": "struct ISiloConfig.InitData",
          "name": "_siloInitData",
          "type": "tuple"
        }
      ],
      "name": "deploy",
      "outputs": [
        {
          "internalType": "contract ISiloConfig",
          "name": "siloConfig",
          "type": "address"
        }
      ],
      "stateMutability": "nonpayable",
      "type": "function"
    },
    {
      "anonymous": false,
      "inputs": [
        {
          "indexed": false,
          "internalType": "contract ISiloConfig",
          "name": "siloConfig",
          "type": "address"
        }
      ],
      "name": "SiloCreated",
      "type": "event"
    },
    {
      "inputs": [],
      "name": "FailedDeployment",
      "type": "error"
    },
    {
      "inputs": [
        {
          "internalType": "address",
          "name": "_factory",
          "type": "address"
        }
      ],
      "name": "FailedToCreateAnOracle",
      "type": "error"
    },
    {
      "inputs": [],
      "name": "HookReceiverMissconfigured",
      "type": "error"
    },
    {
      "inputs": [
        {
          "internalType": "uint256",
          "name": "balance",
          "type": "uint256"
        },
        {
          "internalType": "uint256",
          "name": "needed",
          "type": "uint256"
        }
      ],
      "name": "InsufficientBalance",
      "type": "error"
    }
  ],
  "bytecode": "0x60c060405234801561000f575f80fd5b50604051610f08380380610f0883398101604081905261002e9161005c565b6001600160a01b039182166080521660a052610094565b6001600160a01b0381168114610059575f80fd5b50565b5f806040838503121561006d575f80fd5b825161007881610045565b602084015190925061008981610045565b809150509250929050565b60805160a051610e406100c85f395f8181608b015261010601525f81816048015281816101e601526102600152610e405ff3fe608060405234801561000f575f80fd5b506004361061003f575f3560e01c806328cdfde0146100435780635956617c14610086578063da90acd8146100ad575b5f80fd5b61006a7f000000000000000000000000000000000000000000000000000000000000000081565b6040516001600160a01b03909116815260200160405180910390f35b61006a7f000000000000000000000000000000000000000000000000000000000000000081565b61006a6100bb36600461074e565b5f6100c78585846101cd565b6100d9826100d488610a2c565b61030d565b6100ef826100ea6020860186610add565b6103e6565b604051635500f93160e01b81526001600160a01b037f00000000000000000000000000000000000000000000000000000000000000001690635500f9319061013b908590600401610aff565b6020604051808303815f875af1158015610157573d5f803e3d5ffd5b505050506040513d601f19601f8201168201806040525081019061017b9190610c91565b9050610188828285610453565b6040516001600160a01b03821681527f520b4351811464729581037d20341082d8883f518612cfb0d3c2f75c12b0c29d9060200160405180910390a195945050505050565b60405163511042ad60e01b81525f906001600160a01b037f0000000000000000000000000000000000000000000000000000000000000000169063511042ad9061021b908790600401610cac565b60408051808303815f875af1158015610236573d5f803e3d5ffd5b505050506040513d601f19601f8201168201806040525081019061025a9190610d04565b9150505f7f00000000000000000000000000000000000000000000000000000000000000006001600160a01b031663511042ad856040518263ffffffff1660e01b81526004016102aa9190610cac565b60408051808303815f875af11580156102c5573d5f803e3d5ffd5b505050506040513d601f19601f820116820180604052508101906102e99190610d04565b6001600160a01b039384166101008601529092166102409093019290925250505050565b60a08201516001600160a01b031661032f57805161032a906104e1565b610335565b8160a001515b6001600160a01b0390811660a084015260c0830151166103615761035c81602001516104e1565b610367565b8160c001515b6001600160a01b0390811660c08401526101e0830151166103945761038f81604001516104e1565b61039b565b816101e001515b6001600160a01b039081166101e0840152610200830151166103c9576103c481606001516104e1565b6103d0565b8161020001515b6001600160a01b03166102009092019190915250565b6001600160a01b0381161580159061040a575060408201516001600160a01b031615155b15610428576040516311cbd2b760e21b815260040160405180910390fd5b6001600160a01b0381161561044f57610440816105ab565b6001600160a01b031660408301525b5050565b5f6104616020830183610add565b6001600160a01b0316146104dc5760408301516001600160a01b031663d1f57894836104906020850185610d32565b6040518463ffffffff1660e01b81526004016104ae93929190610d7c565b5f604051808303815f87803b1580156104c5575f80fd5b505af11580156104d7573d5f803e3d5ffd5b505050505b505050565b80515f906001600160a01b0381166104fb57505f92915050565b5f80826001600160a01b031685602001516040516105199190610dbb565b5f604051808303815f865af19150503d805f8114610552576040519150601f19603f3d011682016040523d82523d5f602084013e610557565b606091505b509150915081158061056b57508051602014155b1561059957604051630557304160e31b81526001600160a01b03841660048201526024015b60405180910390fd5b6105a281610de7565b95945050505050565b5f6105b6825f6105bc565b92915050565b5f814710156105e75760405163cf47918160e01b815247600482015260248101839052604401610590565b6e5af43d82803e903d91602b57fd5bf360205282601152763d602d80600a3d3981f3363d3d373d3d3d363d730000008360881c175f526037600983f090506001600160a01b0381166105b65760405163b06ebf3d60e01b815260040160405180910390fd5b5f610100828403121561065d575f80fd5b50919050565b634e487b7160e01b5f52604160045260245ffd5b604051610300810167ffffffffffffffff8111828210171561069b5761069b610663565b60405290565b6040805190810167ffffffffffffffff8111828210171561069b5761069b610663565b6040516080810167ffffffffffffffff8111828210171561069b5761069b610663565b604051601f8201601f1916810167ffffffffffffffff8111828210171561071057610710610663565b604052919050565b6001600160a01b038116811461072c575f80fd5b50565b803561073a81610718565b919050565b8035801515811461073a575f80fd5b5f805f805f858703610540811215610764575f80fd5b863567ffffffffffffffff8082111561077b575f80fd5b908801906080828b03121561078e575f80fd5b81975061079e8a60208b0161064c565b96506107ae8a6101208b0161064c565b95506102208901359150808211156107c4575f80fd5b5087016040818a0312156107d6575f80fd5b925061024061030061023f1983018113156107ef575f80fd5b6107f7610677565b9250610804828a0161072f565b8352610260610814818b0161072f565b6020850152610280610827818c0161072f565b60408601526102a0808c013560608701526102c0610846818e0161072f565b60808801526102e0610859818f0161072f565b60a0890152610869868f0161072f565b60c089015261087b6103208f0161072f565b60e089015261088d6103408f0161072f565b6101008901526103608e01356101208901526103808e01356101408901526103a08e01356101608901526103c08e01356101808901526108d06103e08f0161073f565b6101a08901526108e36104008f0161072f565b6101c08901526108f66104208f0161072f565b6101e08901526109096104408f0161072f565b61020089015261091c6104608f0161072f565b61022089015261092f6104808f0161072f565b878901526104a08e0135858901526104c08e0135848901526104e08e0135838901526105008e0135828901526109686105208f0161073f565b8189015250505050505050809150509295509295909350565b5f60408284031215610991575f80fd5b6109996106a1565b905081356109a681610718565b815260208281013567ffffffffffffffff808211156109c3575f80fd5b818501915085601f8301126109d6575f80fd5b8135818111156109e8576109e8610663565b6109fa601f8201601f191685016106e7565b91508082528684828501011115610a0f575f80fd5b80848401858401375f908201840152918301919091525092915050565b5f60808236031215610a3c575f80fd5b610a446106c4565b823567ffffffffffffffff80821115610a5b575f80fd5b610a6736838701610981565b83526020850135915080821115610a7c575f80fd5b610a8836838701610981565b60208401526040850135915080821115610aa0575f80fd5b610aac36838701610981565b60408401526060850135915080821115610ac4575f80fd5b50610ad136828601610981565b60608301525092915050565b5f60208284031215610aed575f80fd5b8135610af881610718565b9392505050565b81516001600160a01b0316815261030081016020830151610b2b60208401826001600160a01b03169052565b506040830151610b4660408401826001600160a01b03169052565b50606083015160608301526080830151610b6b60808401826001600160a01b03169052565b5060a0830151610b8660a08401826001600160a01b03169052565b5060c0830151610ba160c08401826001600160a01b03169052565b5060e0830151610bbc60e08401826001600160a01b03169052565b50610100838101516001600160a01b039081169184019190915261012080850151908401526101408085015190840152610160808501519084015261018080850151908401526101a0808501511515908401526101c0808501518216908401526101e08085015182169084015261020080850151821690840152610220808501518216908401526102408085015190911690830152610260808401519083015261028080840151908301526102a080840151908301526102c080840151908301526102e0928301511515929091019190915290565b5f60208284031215610ca1575f80fd5b8151610af881610718565b5f61010082019050823582526020830135602083015260408301356040830152606083013560608301526080830135608083015260a083013560a083015260c083013560c083015260e083013560e083015292915050565b5f8060408385031215610d15575f80fd5b825191506020830151610d2781610718565b809150509250929050565b5f808335601e19843603018112610d47575f80fd5b83018035915067ffffffffffffffff821115610d61575f80fd5b602001915036819003821315610d75575f80fd5b9250929050565b6001600160a01b03841681526040602082018190528101829052818360608301375f818301606090810191909152601f909201601f1916010192915050565b5f82515f5b81811015610dda5760208186018101518583015201610dc0565b505f920191825250919050565b8051602080830151919081101561065d575f1960209190910360031b1b1691905056fea26469706673582212205e38c8ce43b6f70f9f7b7aea3735fab647dbecbe5ce80de83ba418b94ff3ccb464736f6c63430008180033",
  "language": "Solidity",
  "compiler": "0.8.24+commit.e11b9ed9"
}