{
  "address": "0x26C93b3f608b42A0dd5Be1e57C711F0B187325Dc",
  "abi": [
    {
      "inputs": [
        {
          "internalType": "address",
          "name": "_wrappedNativeToken",
          "type": "address"
        }
      ],
      "stateMutability": "nonpayable",
      "type": "constructor"
    },
    {
      "stateMutability": "payable",
      "type": "receive"
    },
    {
      "inputs": [],
      "name": "WRAPPED_NATIVE_TOKEN",
      "outputs": [
        {
          "internalType": "contract IWrappedNativeToken",
          "name": "",
          "type": "address"
        }
      ],
      "stateMutability": "view",
      "type": "function"
    },
    {
      "inputs": [
        {
          "components": [
            {
              "internalType": "enum SiloRouter.ActionType",
              "name": "actionType",
              "type": "uint8"
            },
            {
              "internalType": "contract ISilo",
              "name": "silo",
              "type": "address"
            },
            {
              "internalType": "contract IERC20",
              "name": "asset",
              "type": "address"
            },
            {
              "internalType": "bytes",
              "name": "options",
              "type": "bytes"
            }
          ],
          "internalType": "struct SiloRouter.Action[]",
          "name": "_actions",
          "type": "tuple[]"
        }
      ],
      "name": "execute",
      "outputs": [],
      "stateMutability": "payable",
      "type": "function"
    },
    {
      "inputs": [
        {
          "internalType": "address",
          "name": "target",
          "type": "address"
        }
      ],
      "name": "AddressEmptyCode",
      "type": "error"
    },
    {
      "inputs": [],
      "name": "ApprovalFailed",
      "type": "error"
    },
    {
      "inputs": [],
      "name": "ERC20TransferFailed",
      "type": "error"
    },
    {
      "inputs": [],
      "name": "EthTransferFailed",
      "type": "error"
    },
    {
      "inputs": [],
      "name": "FailedCall",
      "type": "error"
    },
    {
      "inputs": [
        {
          "internalType": "uint256",
          "name": "balance",
          "type": "uint256"
        },
        {
          "internalType": "uint256",
          "name": "needed",
          "type": "uint256"
        }
      ],
      "name": "InsufficientBalance",
      "type": "error"
    },
    {
      "inputs": [],
      "name": "InvalidSilo",
      "type": "error"
    },
    {
      "inputs": [
        {
          "internalType": "address",
          "name": "token",
          "type": "address"
        }
      ],
      "name": "SafeERC20FailedOperation",
      "type": "error"
    },
    {
      "inputs": [],
      "name": "TokenIsNotAContract",
      "type": "error"
    }
  ],
  "bytecode": "0x60a060405234801561000f575f5ffd5b506040516111ec3803806111ec83398101604081905261002e9161016f565b61003781610049565b506001600160a01b03166080526101d2565b6040805160048152602481019091526020810180516001600160e01b0390811663313ce56760e01b179091525f9182918291610088918691906100b916565b915091508161009a57505f9392505050565b808060200190518101906100ae919061019c565b60ff16949350505050565b5f60606001600160a01b0384163b6100e4576040516373d39f9d60e01b815260040160405180910390fd5b5f5f856001600160a01b0316856040516100fe91906101bc565b5f60405180830381855afa9150503d805f8114610136576040519150601f19603f3d011682016040523d82523d5f602084013e61013b565b606091505b509150915081610160575f60405180602001604052805f815250935093505050610168565b600193509150505b9250929050565b5f6020828403121561017f575f5ffd5b81516001600160a01b0381168114610195575f5ffd5b9392505050565b5f602082840312156101ac575f5ffd5b815160ff81168114610195575f5ffd5b5f82518060208501845e5f920191825250919050565b608051610fe76102055f395f81816047015281816107200152818161076d01528181610a9d0152610ad80152610fe75ff3fe60806040526004361061002b575f3560e01c80631b3f8c5e14610036578063c3cd3eda14610085575f5ffd5b3661003257005b5f5ffd5b348015610041575f5ffd5b506100697f000000000000000000000000000000000000000000000000000000000000000081565b6040516001600160a01b03909116815260200160405180910390f35b610098610093366004610d3b565b61009a565b005b805f5b818110156100d9576100d18484838181106100ba576100ba610dac565b90506020028101906100cc9190610dc0565b610222565b60010161009d565b505f5b818110156101a1575f8484838181106100f7576100f7610dac565b90506020028101906101099190610dc0565b61011a906060810190604001610df2565b6040516370a0823160e01b81523060048201529091505f906001600160a01b038316906370a0823190602401602060405180830381865afa158015610161573d5f5f3e3d5ffd5b505050506040513d601f19601f820116820180604052508101906101859190610e0d565b9050801561019757610197828261071e565b50506001016100dc565b5034158015906101b057504715155b1561021d576040515f90339047908381818185875af1925050503d805f81146101f4576040519150601f19603f3d011682016040523d82523d5f602084013e6101f9565b606091505b505090508061021b57604051630db2c7f160e31b815260040160405180910390fd5b505b505050565b5f6102306020830183610e38565b600381111561024157610241610e24565b0361032d575f6102546060830183610e56565b8101906102619190610ea0565b905061027d6102766060840160408501610df2565b825161084a565b6102a76102906060840160408501610df2565b6102a06040850160208601610df2565b83516108dd565b6102b76040830160208401610df2565b6001600160a01b031663b7ec8d4b825f01513384602001516040518463ffffffff1660e01b81526004016102ed93929190610f05565b6020604051808303815f875af1158015610309573d5f5f3e3d5ffd5b505050506040513d601f19601f8201168201806040525081019061021d9190610e0d565b600161033c6020830183610e38565b600381111561034d5761034d610e24565b036104ed575f6103606060830183610e56565b81019061036d9190610ea0565b90505f8160200151600181111561038657610386610e24565b60ff16600281111561039a5761039a610e24565b90505f6103ad6040850160208601610df2565b8351604051637ff0007760e01b81526001600160a01b039290921691637ff00077916103dd918690600401610f39565b602060405180830381865afa1580156103f8573d5f5f3e3d5ffd5b505050506040513d601f19601f8201168201806040525081019061041c9190610e0d565b90506104376104316060860160408701610df2565b8261084a565b61046061044a6060860160408701610df2565b61045a6040870160208801610df2565b836108dd565b6104706040850160208601610df2565b6001600160a01b031663c061ddc7845f01513386602001516040518463ffffffff1660e01b81526004016104a693929190610f05565b6020604051808303815f875af11580156104c2573d5f5f3e3d5ffd5b505050506040513d601f19601f820116820180604052508101906104e69190610e0d565b5050505050565b60026104fc6020830183610e38565b600381111561050d5761050d610e24565b0361059d575f6105206060830183610e56565b81019061052d9190610ea0565b90506105426102766060840160408501610df2565b6105556102906060840160408501610df2565b6105656040830160208401610df2565b815160405163acb7081560e01b815260048101919091523360248201526001600160a01b03919091169063acb70815906044016102ed565b60036105ac6020830183610e38565b60038111156105bd576105bd610e24565b0361071b575f6105d06060830183610e56565b8101906105dd9190610ea0565b90505f6105f06040840160208501610df2565b8251604051637ff0007760e01b81526001600160a01b039290921691637ff000779161062191600290600401610f39565b602060405180830381865afa15801561063c573d5f5f3e3d5ffd5b505050506040513d601f19601f820116820180604052508101906106609190610e0d565b90506106756104316060850160408601610df2565b6106986106886060850160408601610df2565b61045a6040860160208701610df2565b6106a86040840160208501610df2565b825160405163e36754eb60e01b815260048101919091523360248201526001600160a01b03919091169063e36754eb906044016020604051808303815f875af11580156106f7573d5f5f3e3d5ffd5b505050506040513d601f19601f8201168201806040525081019061021b9190610e0d565b50565b7f00000000000000000000000000000000000000000000000000000000000000006001600160a01b0316826001600160a01b03160361083257604051632e1a7d4d60e01b8152600481018290527f00000000000000000000000000000000000000000000000000000000000000006001600160a01b031690632e1a7d4d906024015f604051808303815f87803b1580156107b6575f5ffd5b505af11580156107c8573d5f5f3e3d5ffd5b50506040515f925033915083908381818185875af1925050503d805f811461080b576040519150601f19603f3d011682016040523d82523d5f602084013e610810565b606091505b505090508061021d57604051633c9fd93960e21b815260040160405180910390fd5b6108466001600160a01b0383163383610a32565b5050565b6040516370a0823160e01b81523060048201525f906001600160a01b038416906370a0823190602401602060405180830381865afa15801561088e573d5f5f3e3d5ffd5b505050506040513d601f19601f820116820180604052508101906108b29190610e0d565b90508181106108c1575f6108cb565b6108cb8183610f5d565b9150811561021d5761021d8383610a91565b604051636eb1769f60e11b81523060048201526001600160a01b03838116602483015282919085169063dd62ed3e90604401602060405180830381865afa15801561092a573d5f5f3e3d5ffd5b505050506040513d601f19601f8201168201806040525081019061094e9190610e0d565b101561021d576040516001600160a01b0383811660248301525f1960448301525f91829186169060640160408051601f198184030181529181526020820180516001600160e01b031663095ea7b360e01b179052516109ad9190610f7c565b5f604051808303815f865af19150503d805f81146109e6576040519150601f19603f3d011682016040523d82523d5f602084013e6109eb565b606091505b5091509150818015610a15575080511580610a15575080806020019051810190610a159190610f92565b6104e6576040516340b27c2160e11b815260040160405180910390fd5b6040516001600160a01b0383811660248301526044820183905261021d91859182169063a9059cbb906064015b604051602081830303815290604052915060e01b6020820180516001600160e01b038381831617835250505050610b5f565b3415801590610ad157507f00000000000000000000000000000000000000000000000000000000000000006001600160a01b0316826001600160a01b0316145b15610b4a577f00000000000000000000000000000000000000000000000000000000000000006001600160a01b031663d0e30db0826040518263ffffffff1660e01b81526004015f604051808303818588803b158015610b2f575f5ffd5b505af1158015610b41573d5f5f3e3d5ffd5b50505050505050565b6108466001600160a01b038316333084610bc5565b5f610b736001600160a01b03841683610bfe565b905080515f14158015610b97575080806020019051810190610b959190610f92565b155b1561021d57604051635274afe760e01b81526001600160a01b03841660048201526024015b60405180910390fd5b6040516001600160a01b03848116602483015283811660448301526064820183905261021b9186918216906323b872dd90608401610a5f565b6060610c0b83835f610c14565b90505b92915050565b606081471015610c405760405163cf47918160e01b815247600482015260248101839052604401610bbc565b5f5f856001600160a01b03168486604051610c5b9190610f7c565b5f6040518083038185875af1925050503d805f8114610c95576040519150601f19603f3d011682016040523d82523d5f602084013e610c9a565b606091505b5091509150610caa868383610cb6565b925050505b9392505050565b606082610ccb57610cc682610d12565b610caf565b8151158015610ce257506001600160a01b0384163b155b15610d0b57604051639996b31560e01b81526001600160a01b0385166004820152602401610bbc565b5080610caf565b805115610d225780518082602001fd5b60405163d6bda27560e01b815260040160405180910390fd5b5f5f60208385031215610d4c575f5ffd5b823567ffffffffffffffff811115610d62575f5ffd5b8301601f81018513610d72575f5ffd5b803567ffffffffffffffff811115610d88575f5ffd5b8560208260051b8401011115610d9c575f5ffd5b6020919091019590945092505050565b634e487b7160e01b5f52603260045260245ffd5b5f8235607e19833603018112610dd4575f5ffd5b9190910192915050565b6001600160a01b038116811461071b575f5ffd5b5f60208284031215610e02575f5ffd5b8135610caf81610dde565b5f60208284031215610e1d575f5ffd5b5051919050565b634e487b7160e01b5f52602160045260245ffd5b5f60208284031215610e48575f5ffd5b813560048110610caf575f5ffd5b5f5f8335601e19843603018112610e6b575f5ffd5b83018035915067ffffffffffffffff821115610e85575f5ffd5b602001915036819003821315610e99575f5ffd5b9250929050565b5f6040828403128015610eb1575f5ffd5b506040805190810167ffffffffffffffff81118282101715610ee157634e487b7160e01b5f52604160045260245ffd5b60405282358152602083013560028110610ef9575f5ffd5b60208201529392505050565b8381526001600160a01b03831660208201526060810160028310610f2b57610f2b610e24565b826040830152949350505050565b8281526040810160038310610f5057610f50610e24565b8260208301529392505050565b81810381811115610c0e57634e487b7160e01b5f52601160045260245ffd5b5f82518060208501845e5f920191825250919050565b5f60208284031215610fa2575f5ffd5b81518015158114610caf575f5ffdfea2646970667358221220e3e9d49dbf0d18113c94b728eda6252279ceb18cc3f455024cafa71f07c7923864736f6c634300081c0033",
  "language": "Solidity",
  "compiler": "0.8.28+commit.7893614a"
}