{
  "_format": "hh-sol-artifact-1",
  "contractName": "MockInvariantGrowthProtocolSwapFees",
  "sourceName": "contracts/test/MockInvariantGrowthProtocolSwapFees.sol",
  "abi": [
    {
      "inputs": [
        {
          "internalType": "uint256",
          "name": "invariantGrowthRatio",
          "type": "uint256"
        },
        {
          "internalType": "uint256",
          "name": "previousSupply",
          "type": "uint256"
        },
        {
          "internalType": "uint256",
          "name": "currentSupply",
          "type": "uint256"
        },
        {
          "internalType": "uint256",
          "name": "protocolSwapFeePercentage",
          "type": "uint256"
        }
      ],
      "name": "calculateDueProtocolFees",
      "outputs": [
        {
          "internalType": "uint256",
          "name": "",
          "type": "uint256"
        }
      ],
      "stateMutability": "pure",
      "type": "function"
    }
  ],
  "bytecode": "0x608060405234801561001057600080fd5b506102dd806100206000396000f3fe608060405234801561001057600080fd5b506004361061002b5760003560e01c8063b469a98c14610030575b600080fd5b61005f6004803603608081101561004657600080fd5b5080359060208101359060408101359060600135610071565b60408051918252519081900360200190f35b600061007f85858585610088565b95945050505050565b60008061009f8661009986886100b5565b85610108565b90506100ab8482610151565b9695505050505050565b60006100c4821515600461016e565b670de0b6b3a764000083026100f68415806100ef5750670de0b6b3a76400008583816100ec57fe5b04145b600561016e565b8281816100ff57fe5b04949350505050565b60008383101580610117575081155b156101245750600061014a565b600061013084866100b5565b670de0b6b3a76400000390506101468184610180565b9150505b9392505050565b600061014a61016084846101b3565b610169846101cd565b6101df565b8161017c5761017c816101ff565b5050565b60008282026101a484158061019d57508385838161019a57fe5b04145b600361016e565b670de0b6b3a7640000816100ff565b600082820261014a84158061019d57508385838161019a57fe5b670de0b6b3a764000081810391100290565b60006101ee821515600461016e565b8183816101f757fe5b049392505050565b610229817f42414c000000000000000000000000000000000000000000000000000000000061022c565b50565b7f08c379a000000000000000000000000000000000000000000000000000000000600090815260206004526007602452600a808404818106603090810160081b958390069590950190829004918206850160101b01602363ffffff0060e086901c160160181b0190930160c81b60445260e882901c90606490fdfea264697066735822122026de7d4d6ea130d9dd5e98b0685d73cc641bc9003c4ad0193f0c6c3bc4296c8e64736f6c63430007010033",
  "linkReferences": {},
  "deployedLinkReferences": {}
}