{
  "_format": "hh-sol-artifact-1",
  "contractName": "PausableConstants",
  "sourceName": "contracts/helpers/TemporarilyPausable.sol",
  "abi": [
    {
      "inputs": [],
      "name": "MAX_BUFFER_PERIOD_DURATION",
      "outputs": [
        {
          "internalType": "uint256",
          "name": "",
          "type": "uint256"
        }
      ],
      "stateMutability": "view",
      "type": "function"
    },
    {
      "inputs": [],
      "name": "MAX_PAUSE_WINDOW_DURATION",
      "outputs": [
        {
          "internalType": "uint256",
          "name": "",
          "type": "uint256"
        }
      ],
      "stateMutability": "view",
      "type": "function"
    }
  ],
  "bytecode": "0x60a5610024600b82828239805160001a607314601757fe5b30600052607381538281f3fe7300000000000000000000000000000000000000003014608060405260043610603d5760003560e01c80638b19548d146042578063fc5e93fe14605a575b600080fd5b60486060565b60408051918252519081900360200190f35b60486067565b6276a70081565b630163f5008156fea2646970667358221220271086f9808e7f6766851636fca64ff04f115ca14c0551c6421ab038c7e467dc64736f6c63430007010033",
  "linkReferences": {},
  "deployedLinkReferences": {}
}