{
  "_format": "hh-sol-artifact-1",
  "contractName": "MockEulerToken",
  "sourceName": "contracts/test/MockEulerToken.sol",
  "abi": [
    {
      "inputs": [
        {
          "internalType": "string",
          "name": "name",
          "type": "string"
        },
        {
          "internalType": "string",
          "name": "symbol",
          "type": "string"
        },
        {
          "internalType": "uint8",
          "name": "decimals",
          "type": "uint8"
        },
        {
          "internalType": "address",
          "name": "underlying",
          "type": "address"
        },
        {
          "internalType": "contract IMockEulerProtocol",
          "name": "eulerProtocol",
          "type": "address"
        }
      ],
      "stateMutability": "nonpayable",
      "type": "constructor"
    },
    {
      "anonymous": false,
      "inputs": [
        {
          "indexed": true,
          "internalType": "address",
          "name": "owner",
          "type": "address"
        },
        {
          "indexed": true,
          "internalType": "address",
          "name": "spender",
          "type": "address"
        },
        {
          "indexed": false,
          "internalType": "uint256",
          "name": "value",
          "type": "uint256"
        }
      ],
      "name": "Approval",
      "type": "event"
    },
    {
      "anonymous": false,
      "inputs": [
        {
          "indexed": true,
          "internalType": "address",
          "name": "from",
          "type": "address"
        },
        {
          "indexed": true,
          "internalType": "address",
          "name": "to",
          "type": "address"
        },
        {
          "indexed": false,
          "internalType": "uint256",
          "name": "value",
          "type": "uint256"
        }
      ],
      "name": "Transfer",
      "type": "event"
    },
    {
      "inputs": [],
      "name": "DOMAIN_SEPARATOR",
      "outputs": [
        {
          "internalType": "bytes32",
          "name": "",
          "type": "bytes32"
        }
      ],
      "stateMutability": "view",
      "type": "function"
    },
    {
      "inputs": [],
      "name": "EULER_PROTOCOL",
      "outputs": [
        {
          "internalType": "contract IMockEulerProtocol",
          "name": "",
          "type": "address"
        }
      ],
      "stateMutability": "view",
      "type": "function"
    },
    {
      "inputs": [
        {
          "internalType": "address",
          "name": "owner",
          "type": "address"
        },
        {
          "internalType": "address",
          "name": "spender",
          "type": "address"
        }
      ],
      "name": "allowance",
      "outputs": [
        {
          "internalType": "uint256",
          "name": "",
          "type": "uint256"
        }
      ],
      "stateMutability": "view",
      "type": "function"
    },
    {
      "inputs": [
        {
          "internalType": "address",
          "name": "spender",
          "type": "address"
        },
        {
          "internalType": "uint256",
          "name": "amount",
          "type": "uint256"
        }
      ],
      "name": "approve",
      "outputs": [
        {
          "internalType": "bool",
          "name": "",
          "type": "bool"
        }
      ],
      "stateMutability": "nonpayable",
      "type": "function"
    },
    {
      "inputs": [
        {
          "internalType": "address",
          "name": "account",
          "type": "address"
        }
      ],
      "name": "balanceOf",
      "outputs": [
        {
          "internalType": "uint256",
          "name": "",
          "type": "uint256"
        }
      ],
      "stateMutability": "view",
      "type": "function"
    },
    {
      "inputs": [
        {
          "internalType": "uint256",
          "name": "amount",
          "type": "uint256"
        }
      ],
      "name": "burn",
      "outputs": [],
      "stateMutability": "nonpayable",
      "type": "function"
    },
    {
      "inputs": [
        {
          "internalType": "address",
          "name": "account",
          "type": "address"
        },
        {
          "internalType": "uint256",
          "name": "amount",
          "type": "uint256"
        }
      ],
      "name": "burnFrom",
      "outputs": [],
      "stateMutability": "nonpayable",
      "type": "function"
    },
    {
      "inputs": [
        {
          "internalType": "address",
          "name": "sender",
          "type": "address"
        },
        {
          "internalType": "uint256",
          "name": "amount",
          "type": "uint256"
        }
      ],
      "name": "burnWithoutAllowance",
      "outputs": [],
      "stateMutability": "nonpayable",
      "type": "function"
    },
    {
      "inputs": [
        {
          "internalType": "uint256",
          "name": "balance",
          "type": "uint256"
        }
      ],
      "name": "convertBalanceToUnderlying",
      "outputs": [
        {
          "internalType": "uint256",
          "name": "",
          "type": "uint256"
        }
      ],
      "stateMutability": "view",
      "type": "function"
    },
    {
      "inputs": [
        {
          "internalType": "uint256",
          "name": "balance",
          "type": "uint256"
        }
      ],
      "name": "convertUnderlyingToBalance",
      "outputs": [
        {
          "internalType": "uint256",
          "name": "",
          "type": "uint256"
        }
      ],
      "stateMutability": "view",
      "type": "function"
    },
    {
      "inputs": [],
      "name": "decimals",
      "outputs": [
        {
          "internalType": "uint8",
          "name": "",
          "type": "uint8"
        }
      ],
      "stateMutability": "view",
      "type": "function"
    },
    {
      "inputs": [
        {
          "internalType": "address",
          "name": "spender",
          "type": "address"
        },
        {
          "internalType": "uint256",
          "name": "subtractedValue",
          "type": "uint256"
        }
      ],
      "name": "decreaseAllowance",
      "outputs": [
        {
          "internalType": "bool",
          "name": "",
          "type": "bool"
        }
      ],
      "stateMutability": "nonpayable",
      "type": "function"
    },
    {
      "inputs": [
        {
          "internalType": "uint256",
          "name": "",
          "type": "uint256"
        },
        {
          "internalType": "uint256",
          "name": "amount",
          "type": "uint256"
        }
      ],
      "name": "deposit",
      "outputs": [],
      "stateMutability": "nonpayable",
      "type": "function"
    },
    {
      "inputs": [],
      "name": "exchangeRateMultiplier",
      "outputs": [
        {
          "internalType": "uint256",
          "name": "",
          "type": "uint256"
        }
      ],
      "stateMutability": "view",
      "type": "function"
    },
    {
      "inputs": [],
      "name": "getDomainSeparator",
      "outputs": [
        {
          "internalType": "bytes32",
          "name": "",
          "type": "bytes32"
        }
      ],
      "stateMutability": "view",
      "type": "function"
    },
    {
      "inputs": [
        {
          "internalType": "address",
          "name": "account",
          "type": "address"
        }
      ],
      "name": "getNextNonce",
      "outputs": [
        {
          "internalType": "uint256",
          "name": "",
          "type": "uint256"
        }
      ],
      "stateMutability": "view",
      "type": "function"
    },
    {
      "inputs": [
        {
          "internalType": "address",
          "name": "spender",
          "type": "address"
        },
        {
          "internalType": "uint256",
          "name": "addedValue",
          "type": "uint256"
        }
      ],
      "name": "increaseAllowance",
      "outputs": [
        {
          "internalType": "bool",
          "name": "",
          "type": "bool"
        }
      ],
      "stateMutability": "nonpayable",
      "type": "function"
    },
    {
      "inputs": [
        {
          "internalType": "address",
          "name": "recipient",
          "type": "address"
        },
        {
          "internalType": "uint256",
          "name": "amount",
          "type": "uint256"
        }
      ],
      "name": "mint",
      "outputs": [],
      "stateMutability": "nonpayable",
      "type": "function"
    },
    {
      "inputs": [],
      "name": "name",
      "outputs": [
        {
          "internalType": "string",
          "name": "",
          "type": "string"
        }
      ],
      "stateMutability": "view",
      "type": "function"
    },
    {
      "inputs": [
        {
          "internalType": "address",
          "name": "owner",
          "type": "address"
        }
      ],
      "name": "nonces",
      "outputs": [
        {
          "internalType": "uint256",
          "name": "",
          "type": "uint256"
        }
      ],
      "stateMutability": "view",
      "type": "function"
    },
    {
      "inputs": [
        {
          "internalType": "address",
          "name": "owner",
          "type": "address"
        },
        {
          "internalType": "address",
          "name": "spender",
          "type": "address"
        },
        {
          "internalType": "uint256",
          "name": "value",
          "type": "uint256"
        },
        {
          "internalType": "uint256",
          "name": "deadline",
          "type": "uint256"
        },
        {
          "internalType": "uint8",
          "name": "v",
          "type": "uint8"
        },
        {
          "internalType": "bytes32",
          "name": "r",
          "type": "bytes32"
        },
        {
          "internalType": "bytes32",
          "name": "s",
          "type": "bytes32"
        }
      ],
      "name": "permit",
      "outputs": [],
      "stateMutability": "nonpayable",
      "type": "function"
    },
    {
      "inputs": [
        {
          "internalType": "uint256",
          "name": "_exchangeRateMultiplier",
          "type": "uint256"
        }
      ],
      "name": "setExchangeRateMultiplier",
      "outputs": [],
      "stateMutability": "nonpayable",
      "type": "function"
    },
    {
      "inputs": [],
      "name": "symbol",
      "outputs": [
        {
          "internalType": "string",
          "name": "",
          "type": "string"
        }
      ],
      "stateMutability": "view",
      "type": "function"
    },
    {
      "inputs": [],
      "name": "totalSupply",
      "outputs": [
        {
          "internalType": "uint256",
          "name": "",
          "type": "uint256"
        }
      ],
      "stateMutability": "view",
      "type": "function"
    },
    {
      "inputs": [
        {
          "internalType": "address",
          "name": "recipient",
          "type": "address"
        },
        {
          "internalType": "uint256",
          "name": "amount",
          "type": "uint256"
        }
      ],
      "name": "transfer",
      "outputs": [
        {
          "internalType": "bool",
          "name": "",
          "type": "bool"
        }
      ],
      "stateMutability": "nonpayable",
      "type": "function"
    },
    {
      "inputs": [
        {
          "internalType": "address",
          "name": "sender",
          "type": "address"
        },
        {
          "internalType": "address",
          "name": "recipient",
          "type": "address"
        },
        {
          "internalType": "uint256",
          "name": "amount",
          "type": "uint256"
        }
      ],
      "name": "transferFrom",
      "outputs": [
        {
          "internalType": "bool",
          "name": "",
          "type": "bool"
        }
      ],
      "stateMutability": "nonpayable",
      "type": "function"
    },
    {
      "inputs": [],
      "name": "underlyingAsset",
      "outputs": [
        {
          "internalType": "address",
          "name": "",
          "type": "address"
        }
      ],
      "stateMutability": "view",
      "type": "function"
    },
    {
      "inputs": [
        {
          "internalType": "uint256",
          "name": "",
          "type": "uint256"
        },
        {
          "internalType": "uint256",
          "name": "amount",
          "type": "uint256"
        }
      ],
      "name": "withdraw",
      "outputs": [],
      "stateMutability": "nonpayable",
      "type": "function"
    }
  ],
  "bytecode": "0x6101206040523480156200001257600080fd5b506040516200190038038062001900833981810160405260a08110156200003857600080fd5b81019080805160405193929190846401000000008211156200005957600080fd5b9083019060208201858111156200006f57600080fd5b82516401000000008111828201881017156200008a57600080fd5b82525081516020918201929091019080838360005b83811015620000b95781810151838201526020016200009f565b50505050905090810190601f168015620000e75780820380516001836020036101000a031916815260200191505b50604052602001805160405193929190846401000000008211156200010b57600080fd5b9083019060208201858111156200012157600080fd5b82516401000000008111828201881017156200013c57600080fd5b82525081516020918201929091019080838360005b838110156200016b57818101518382015260200162000151565b50505050905090810190601f168015620001995780820380516001836020036101000a031916815260200191505b5060408181526020838101518483015160609095015184840190935260018452603160f81b828501528851909650939450909287928792879285928392909183918791620001ee9160039190850190620002a0565b50805162000204906004906020840190620002a0565b50506005805460ff19166012179055508151602092830120608052805191012060a052507f8b73c3c69bb8fe3d512ecc4cf759cc79239f7b179b0ffacaa9a75d522b39400f60c05262000257816200028a565b5050670de0b6b3a7640000600755506001600160601b0319606092831b811661010052911b1660e052506200033c915050565b6005805460ff191660ff92909216919091179055565b828054600181600116156101000203166002900490600052602060002090601f016020900481019282601f10620002e357805160ff191683800117855562000313565b8280016001018555821562000313579182015b8281111562000313578251825591602001919060010190620002f6565b506200032192915062000325565b5090565b5b8082111562000321576000815560010162000326565b60805160a05160c05160e05160601c6101005160601c61156a62000396600039806109275280610a205280610ccf52508061087652806108eb5280610c93525080611240525080611282525080611261525061156a6000f3fe608060405234801561001057600080fd5b50600436106101c45760003560e01c806370a08231116100f9578063a457c2d711610097578063d505accf11610071578063d505accf146105e7578063dd62ed3e14610645578063e2bbb15814610680578063ed24911d146106a3576101c4565b8063a457c2d71461056d578063a9059cbb146105a6578063b176bd9e146105df576101c4565b80637c602bc2116100d35780637c602bc2146104c65780637ecebe00146104ff57806390193b7c1461053257806395d89b4114610565576101c4565b806370a08231146104525780637158da7c1461048557806379cc67901461048d576101c4565b80633644e5151161016657806342966c681161014057806342966c68146103c457806342cfe0ac146103e1578063441a3e701461041257806352eac8af14610435576101c4565b80633644e5151461034a578063395093511461035257806340c10f191461038b576101c4565b806318160ddd116101a257806318160ddd146102c257806323b872dd146102ca57806328c082851461030d578063313ce5671461032c576101c4565b8063010ad6d1146101c957806306fdde03146101f8578063095ea7b314610275575b600080fd5b6101e6600480360360208110156101df57600080fd5b50356106ab565b60408051918252519081900360200190f35b6102006106c8565b6040805160208082528351818301528351919283929083019185019080838360005b8381101561023a578181015183820152602001610222565b50505050905090810190601f1680156102675780820380516001836020036101000a031916815260200191505b509250505060405180910390f35b6102ae6004803603604081101561028b57600080fd5b5073ffffffffffffffffffffffffffffffffffffffff813516906020013561077c565b604080519115158252519081900360200190f35b6101e6610792565b6102ae600480360360608110156102e057600080fd5b5073ffffffffffffffffffffffffffffffffffffffff813581169160208101359091169060400135610798565b61032a6004803603602081101561032357600080fd5b50356107f9565b005b6103346107fe565b6040805160ff9092168252519081900360200190f35b6101e6610807565b6102ae6004803603604081101561036857600080fd5b5073ffffffffffffffffffffffffffffffffffffffff8135169060200135610816565b61032a600480360360408110156103a157600080fd5b5073ffffffffffffffffffffffffffffffffffffffff8135169060200135610859565b61032a600480360360208110156103da57600080fd5b5035610867565b6103e9610874565b6040805173ffffffffffffffffffffffffffffffffffffffff9092168252519081900360200190f35b61032a6004803603604081101561042857600080fd5b5080359060200135610898565b6101e66004803603602081101561044b57600080fd5b50356109df565b6101e66004803603602081101561046857600080fd5b503573ffffffffffffffffffffffffffffffffffffffff166109f6565b6103e9610a1e565b61032a600480360360408110156104a357600080fd5b5073ffffffffffffffffffffffffffffffffffffffff8135169060200135610a42565b61032a600480360360408110156104dc57600080fd5b5073ffffffffffffffffffffffffffffffffffffffff8135169060200135610a73565b6101e66004803603602081101561051557600080fd5b503573ffffffffffffffffffffffffffffffffffffffff16610a7d565b6101e66004803603602081101561054857600080fd5b503573ffffffffffffffffffffffffffffffffffffffff16610a84565b610200610aac565b6102ae6004803603604081101561058357600080fd5b5073ffffffffffffffffffffffffffffffffffffffff8135169060200135610b2b565b6102ae600480360360408110156105bc57600080fd5b5073ffffffffffffffffffffffffffffffffffffffff8135169060200135610b71565b6101e6610b7e565b61032a600480360360e08110156105fd57600080fd5b5073ffffffffffffffffffffffffffffffffffffffff813581169160208101359091169060408101359060608101359060ff6080820135169060a08101359060c00135610b84565b6101e66004803603604081101561065b57600080fd5b5073ffffffffffffffffffffffffffffffffffffffff81358116916020013516610c59565b61032a6004803603604081101561069657600080fd5b5080359060200135610c91565b6101e6610d8a565b60006106c260075483610d9490919063ffffffff16565b92915050565b60038054604080516020601f60027fffffffffffffffffffffffffffffffffffffffffffffffffffffffffffffffff6101006001881615020190951694909404938401819004810282018101909252828152606093909290918301828280156107725780601f1061074757610100808354040283529160200191610772565b820191906000526020600020905b81548152906001019060200180831161075557829003601f168201915b5050505050905090565b6000610789338484610dd6565b50600192915050565b60025490565b60006107a5848484610e45565b73ffffffffffffffffffffffffffffffffffffffff84166000908152600160209081526040808320338085529252909120546107ef9186916107ea908661019e610f6e565b610dd6565b5060019392505050565b600755565b60055460ff1690565b6000610811610d8a565b905090565b33600081815260016020908152604080832073ffffffffffffffffffffffffffffffffffffffff8716845290915281205490916107899185906107ea9086610f84565b6108638282610f9d565b5050565b6108713382611056565b50565b7f000000000000000000000000000000000000000000000000000000000000000081565b60007fffffffffffffffffffffffffffffffffffffffffffffffffffffffffffffffff8214156108dd576108cb336109f6565b90506108d6816106ab565b91506108e9565b6108e6826109df565b90505b7f000000000000000000000000000000000000000000000000000000000000000073ffffffffffffffffffffffffffffffffffffffff1663d218fe887f000000000000000000000000000000000000000000000000000000000000000084336040518463ffffffff1660e01b8152600401808473ffffffffffffffffffffffffffffffffffffffff1681526020018381526020018273ffffffffffffffffffffffffffffffffffffffff1681526020019350505050600060405180830381600087803b1580156109b857600080fd5b505af11580156109cc573d6000803e3d6000fd5b505050506109da3382611056565b505050565b60006106c26007548361114690919063ffffffff16565b73ffffffffffffffffffffffffffffffffffffffff1660009081526020819052604090205490565b7f000000000000000000000000000000000000000000000000000000000000000090565b6000610a5c826101a1610a558633610c59565b9190610f6e565b9050610a69833383610dd6565b6109da8383611056565b6108638282611056565b60006106c2825b73ffffffffffffffffffffffffffffffffffffffff1660009081526006602052604090205490565b60048054604080516020601f60027fffffffffffffffffffffffffffffffffffffffffffffffffffffffffffffffff6101006001881615020190951694909404938401819004810282018101909252828152606093909290918301828280156107725780601f1061074757610100808354040283529160200191610772565b33600081815260016020908152604080832073ffffffffffffffffffffffffffffffffffffffff8716845290915281205490916107899185906107ea908661019f610f6e565b6000610789338484610e45565b60075481565b60007f6e71edae12b1b97f4d1f60370fef10105fa2faae0126114a169c64845d6126c9888888610bb38c610a84565b89604051602001808781526020018673ffffffffffffffffffffffffffffffffffffffff1681526020018573ffffffffffffffffffffffffffffffffffffffff1681526020018481526020018381526020018281526020019650505050505050604051602081830303815290604052805190602001209050610c448882610c3b878787611199565b886101f86111d8565b610c4f888888610dd6565b5050505050505050565b73ffffffffffffffffffffffffffffffffffffffff918216600090815260016020908152604080832093909416825291909152205490565b7f000000000000000000000000000000000000000000000000000000000000000073ffffffffffffffffffffffffffffffffffffffff16633d4216d97f000000000000000000000000000000000000000000000000000000000000000083336040518463ffffffff1660e01b8152600401808473ffffffffffffffffffffffffffffffffffffffff1681526020018381526020018273ffffffffffffffffffffffffffffffffffffffff1681526020019350505050600060405180830381600087803b158015610d6057600080fd5b505af1158015610d74573d6000803e3d6000fd5b5050505061086333610d85836109df565b610f9d565b600061081161123c565b6000828202610db8841580610db1575083858381610dae57fe5b04145b6003611307565b6001670de0b6b3a76400006001830304018115150291505092915050565b73ffffffffffffffffffffffffffffffffffffffff808416600081815260016020908152604080832094871680845294825291829020859055815185815291517f8c5be1e5ebec7d5bd14f71427d1e84f3dd0314c0f7b2291e5b200ac8c7c3b9259281900390910190a3505050565b610e6973ffffffffffffffffffffffffffffffffffffffff84161515610198611307565b610e8d73ffffffffffffffffffffffffffffffffffffffff83161515610199611307565b610e988383836109da565b73ffffffffffffffffffffffffffffffffffffffff8316600090815260208190526040902054610ecb90826101a0610f6e565b73ffffffffffffffffffffffffffffffffffffffff8085166000908152602081905260408082209390935590841681522054610f079082610f84565b73ffffffffffffffffffffffffffffffffffffffff8084166000818152602081815260409182902094909455805185815290519193928716927fddf252ad1be2c89b69c2b068fc378daa952ba7f163c4a11628f55a4df523b3ef92918290030190a3505050565b6000610f7d8484111583611307565b5050900390565b6000828201610f968482101583611307565b9392505050565b610fa9600083836109da565b610fc3610fbe82610fb8610792565b90610f84565b611315565b73ffffffffffffffffffffffffffffffffffffffff8216600090815260208190526040902054610ff39082610f84565b73ffffffffffffffffffffffffffffffffffffffff83166000818152602081815260408083209490945583518581529351929391927fddf252ad1be2c89b69c2b068fc378daa952ba7f163c4a11628f55a4df523b3ef9281900390910190a35050565b61107a73ffffffffffffffffffffffffffffffffffffffff8316151561019b611307565b611086826000836109da565b73ffffffffffffffffffffffffffffffffffffffff82166000908152602081905260409020546110b990826101b2610f6e565b73ffffffffffffffffffffffffffffffffffffffff83166000908152602081905260409020556110f4610fbe826110ee610792565b9061131a565b60408051828152905160009173ffffffffffffffffffffffffffffffffffffffff8516917fddf252ad1be2c89b69c2b068fc378daa952ba7f163c4a11628f55a4df523b3ef9181900360200190a35050565b60006111558215156004611307565b670de0b6b3a764000083026111878415806111805750670de0b6b3a764000085838161117d57fe5b04145b6005611307565b82818161119057fe5b04949350505050565b60408051604180825260808201909252606091829190602082018180368337019050509050836020820152826040820152846060820153949350505050565b60006111e385611328565b90506111f96111f387838761138f565b83611307565b611208428410156101b8611307565b50505073ffffffffffffffffffffffffffffffffffffffff9092166000908152600660205260409020805460010190555050565b60007f00000000000000000000000000000000000000000000000000000000000000007f00000000000000000000000000000000000000000000000000000000000000007f00000000000000000000000000000000000000000000000000000000000000006112a96114a1565b30604051602001808681526020018581526020018481526020018381526020018273ffffffffffffffffffffffffffffffffffffffff1681526020019550505050505060405160208183030381529060405280519060200120905090565b8161086357610863816114a5565b600255565b6000610f9683836001610f6e565b600061133261123c565b8260405160200180807f190100000000000000000000000000000000000000000000000000000000000081525060020183815260200182815260200192505050604051602081830303815290604052805190602001209050919050565b60006113a182516041146101b9611307565b60008060006020850151925060408501519150606085015160001a9050600060018783868660405160008152602001604052604051808581526020018460ff1681526020018381526020018281526020019450505050506020604051602081039080840390855afa15801561141a573d6000803e3d6000fd5b50506040517fffffffffffffffffffffffffffffffffffffffffffffffffffffffffffffffe0015191505073ffffffffffffffffffffffffffffffffffffffff81161580159061149557508773ffffffffffffffffffffffffffffffffffffffff168173ffffffffffffffffffffffffffffffffffffffff16145b98975050505050505050565b4690565b7f08c379a000000000000000000000000000000000000000000000000000000000600090815260206004526007602452600a808304818106603090810160081b83860601918390049283060160101b016642414c230000300160c81b604452610871917f42414c0000000000000000000000000000000000000000000000000000000000906242414c90606490fdfea26469706673582212200801305bd73da036a693572f6a89a182559b68d9198a035134d9aea269c180d364736f6c63430007010033",
  "linkReferences": {},
  "deployedLinkReferences": {}
}