{
  "_format": "hh-sol-artifact-1",
  "contractName": "MockWordCodec",
  "sourceName": "contracts/test/MockWordCodec.sol",
  "abi": [
    {
      "inputs": [
        {
          "internalType": "bytes32",
          "name": "word",
          "type": "bytes32"
        },
        {
          "internalType": "uint256",
          "name": "offset",
          "type": "uint256"
        },
        {
          "internalType": "uint256",
          "name": "bitLength",
          "type": "uint256"
        }
      ],
      "name": "clearWordAtPosition",
      "outputs": [
        {
          "internalType": "bytes32",
          "name": "",
          "type": "bytes32"
        }
      ],
      "stateMutability": "pure",
      "type": "function"
    },
    {
      "inputs": [
        {
          "internalType": "bytes32",
          "name": "value",
          "type": "bytes32"
        },
        {
          "internalType": "uint256",
          "name": "offset",
          "type": "uint256"
        },
        {
          "internalType": "uint256",
          "name": "bitLength",
          "type": "uint256"
        }
      ],
      "name": "decodeInt",
      "outputs": [
        {
          "internalType": "int256",
          "name": "",
          "type": "int256"
        }
      ],
      "stateMutability": "pure",
      "type": "function"
    },
    {
      "inputs": [
        {
          "internalType": "bytes32",
          "name": "value",
          "type": "bytes32"
        },
        {
          "internalType": "uint256",
          "name": "offset",
          "type": "uint256"
        },
        {
          "internalType": "uint256",
          "name": "bitLength",
          "type": "uint256"
        }
      ],
      "name": "decodeUint",
      "outputs": [
        {
          "internalType": "uint256",
          "name": "",
          "type": "uint256"
        }
      ],
      "stateMutability": "pure",
      "type": "function"
    },
    {
      "inputs": [
        {
          "internalType": "int256",
          "name": "value",
          "type": "int256"
        },
        {
          "internalType": "uint256",
          "name": "offset",
          "type": "uint256"
        },
        {
          "internalType": "uint256",
          "name": "bitLength",
          "type": "uint256"
        }
      ],
      "name": "encodeInt",
      "outputs": [
        {
          "internalType": "bytes32",
          "name": "",
          "type": "bytes32"
        }
      ],
      "stateMutability": "pure",
      "type": "function"
    },
    {
      "inputs": [
        {
          "internalType": "uint256",
          "name": "value",
          "type": "uint256"
        },
        {
          "internalType": "uint256",
          "name": "offset",
          "type": "uint256"
        },
        {
          "internalType": "uint256",
          "name": "bitLength",
          "type": "uint256"
        }
      ],
      "name": "encodeUint",
      "outputs": [
        {
          "internalType": "bytes32",
          "name": "",
          "type": "bytes32"
        }
      ],
      "stateMutability": "pure",
      "type": "function"
    },
    {
      "inputs": [
        {
          "internalType": "bytes32",
          "name": "word",
          "type": "bytes32"
        },
        {
          "internalType": "int256",
          "name": "value",
          "type": "int256"
        },
        {
          "internalType": "uint256",
          "name": "offset",
          "type": "uint256"
        },
        {
          "internalType": "uint256",
          "name": "bitLength",
          "type": "uint256"
        }
      ],
      "name": "insertInt",
      "outputs": [
        {
          "internalType": "bytes32",
          "name": "",
          "type": "bytes32"
        }
      ],
      "stateMutability": "pure",
      "type": "function"
    },
    {
      "inputs": [
        {
          "internalType": "bytes32",
          "name": "word",
          "type": "bytes32"
        },
        {
          "internalType": "uint256",
          "name": "value",
          "type": "uint256"
        },
        {
          "internalType": "uint256",
          "name": "offset",
          "type": "uint256"
        },
        {
          "internalType": "uint256",
          "name": "bitLength",
          "type": "uint256"
        }
      ],
      "name": "insertUint",
      "outputs": [
        {
          "internalType": "bytes32",
          "name": "",
          "type": "bytes32"
        }
      ],
      "stateMutability": "pure",
      "type": "function"
    },
    {
      "inputs": [
        {
          "internalType": "bytes32",
          "name": "oldPoolState",
          "type": "bytes32"
        },
        {
          "internalType": "bytes32",
          "name": "newPoolState",
          "type": "bytes32"
        },
        {
          "internalType": "uint256",
          "name": "offset",
          "type": "uint256"
        },
        {
          "internalType": "uint256",
          "name": "bitLength",
          "type": "uint256"
        }
      ],
      "name": "isOtherStateUnchanged",
      "outputs": [
        {
          "internalType": "bool",
          "name": "",
          "type": "bool"
        }
      ],
      "stateMutability": "pure",
      "type": "function"
    }
  ],
  "bytecode": "0x608060405234801561001057600080fd5b5061052e806100206000396000f3fe608060405234801561001057600080fd5b50600436106100885760003560e01c80634efc6d6f1161005b5780634efc6d6f146101495780639223250a14610172578063a427ee1e1461019b578063ab2d3f47146101ca57610088565b80631bbdab7f1461008d5780632393cb9e146100c857806337b1cd81146100f15780634cf60a711461011a575b600080fd5b6100b6600480360360608110156100a357600080fd5b508035906020810135906040013561020d565b60408051918252519081900360200190f35b6100b6600480360360608110156100de57600080fd5b5080359060208101359060400135610222565b6100b66004803603606081101561010757600080fd5b508035906020810135906040013561022f565b6100b66004803603608081101561013057600080fd5b508035906020810135906040810135906060013561023c565b6100b66004803603606081101561015f57600080fd5b5080359060208101359060400135610253565b6100b66004803603606081101561018857600080fd5b5080359060208101359060400135610260565b6100b6600480360360808110156101b157600080fd5b508035906020810135906040810135906060013561026d565b6101f9600480360360808110156101e057600080fd5b508035906020810135906040810135906060013561027b565b604080519115158252519081900360200190f35b600061021a848484610289565b949350505050565b600061021a848484610298565b600061021a8484846102bb565b600061024a858585856102da565b95945050505050565b600061021a8484846102fd565b600061021a84848461030c565b600061024a8585858561031f565b600061024a85858585610347565b6001901b6000190191901c1690565b600160001980830182901b81019490931c911b9091019081169182119019021790565b60006102c8848484610372565b506001901b6000190191909116901b90565b60006102e78484846103ee565b506001901b60001901811b1992909216911b1790565b6001901b60001901901b191690565b60006103198484846103ee565b50501b90565b600061032c848484610372565b50600019600190911b01918216811b91901b19919091161790565b6000806103558685856102fd565b905060006103648686866102fd565b919091149695505050505050565b61038161010083106064610426565b6103aa600182101580156103a3575061039f60ff8461010003610438565b8211155b6064610426565b600083126103cb576103c6600019820184901d156101b4610426565b6103e9565b6103e9600182036103de85600101610444565b901c156101b4610426565b505050565b6103fd61010083106064610426565b61041b600182101580156103a3575061039f60ff8461010003610438565b6103e983821c156101b45b816104345761043481610450565b5050565b80820390821102900390565b60ff81901d9081180390565b61047a817f42414c000000000000000000000000000000000000000000000000000000000061047d565b50565b7f08c379a000000000000000000000000000000000000000000000000000000000600090815260206004526007602452600a808404818106603090810160081b958390069590950190829004918206850160101b01602363ffffff0060e086901c160160181b0190930160c81b60445260e882901c90606490fdfea2646970667358221220db40100a139313cdd5ff458138a23fbc6199f36715ffef25dd67fcc65cfb099864736f6c63430007010033",
  "linkReferences": {},
  "deployedLinkReferences": {}
}