{
  "_format": "hh-sol-artifact-1",
  "contractName": "BreakableERC20Mock",
  "sourceName": "contracts/test/BreakableERC20Mock.sol",
  "abi": [
    {
      "inputs": [
        {
          "internalType": "string",
          "name": "name",
          "type": "string"
        },
        {
          "internalType": "string",
          "name": "symbol",
          "type": "string"
        }
      ],
      "stateMutability": "nonpayable",
      "type": "constructor"
    },
    {
      "anonymous": false,
      "inputs": [
        {
          "indexed": true,
          "internalType": "address",
          "name": "owner",
          "type": "address"
        },
        {
          "indexed": true,
          "internalType": "address",
          "name": "spender",
          "type": "address"
        },
        {
          "indexed": false,
          "internalType": "uint256",
          "name": "value",
          "type": "uint256"
        }
      ],
      "name": "Approval",
      "type": "event"
    },
    {
      "anonymous": false,
      "inputs": [
        {
          "indexed": true,
          "internalType": "address",
          "name": "from",
          "type": "address"
        },
        {
          "indexed": true,
          "internalType": "address",
          "name": "to",
          "type": "address"
        },
        {
          "indexed": false,
          "internalType": "uint256",
          "name": "value",
          "type": "uint256"
        }
      ],
      "name": "Transfer",
      "type": "event"
    },
    {
      "inputs": [
        {
          "internalType": "address",
          "name": "owner",
          "type": "address"
        },
        {
          "internalType": "address",
          "name": "spender",
          "type": "address"
        }
      ],
      "name": "allowance",
      "outputs": [
        {
          "internalType": "uint256",
          "name": "",
          "type": "uint256"
        }
      ],
      "stateMutability": "view",
      "type": "function"
    },
    {
      "inputs": [
        {
          "internalType": "address",
          "name": "spender",
          "type": "address"
        },
        {
          "internalType": "uint256",
          "name": "amount",
          "type": "uint256"
        }
      ],
      "name": "approve",
      "outputs": [
        {
          "internalType": "bool",
          "name": "",
          "type": "bool"
        }
      ],
      "stateMutability": "nonpayable",
      "type": "function"
    },
    {
      "inputs": [
        {
          "internalType": "address",
          "name": "account",
          "type": "address"
        }
      ],
      "name": "balanceOf",
      "outputs": [
        {
          "internalType": "uint256",
          "name": "",
          "type": "uint256"
        }
      ],
      "stateMutability": "view",
      "type": "function"
    },
    {
      "inputs": [],
      "name": "decimals",
      "outputs": [
        {
          "internalType": "uint8",
          "name": "",
          "type": "uint8"
        }
      ],
      "stateMutability": "view",
      "type": "function"
    },
    {
      "inputs": [
        {
          "internalType": "address",
          "name": "spender",
          "type": "address"
        },
        {
          "internalType": "uint256",
          "name": "subtractedValue",
          "type": "uint256"
        }
      ],
      "name": "decreaseAllowance",
      "outputs": [
        {
          "internalType": "bool",
          "name": "",
          "type": "bool"
        }
      ],
      "stateMutability": "nonpayable",
      "type": "function"
    },
    {
      "inputs": [
        {
          "internalType": "address",
          "name": "spender",
          "type": "address"
        },
        {
          "internalType": "uint256",
          "name": "addedValue",
          "type": "uint256"
        }
      ],
      "name": "increaseAllowance",
      "outputs": [
        {
          "internalType": "bool",
          "name": "",
          "type": "bool"
        }
      ],
      "stateMutability": "nonpayable",
      "type": "function"
    },
    {
      "inputs": [],
      "name": "isBroken",
      "outputs": [
        {
          "internalType": "bool",
          "name": "",
          "type": "bool"
        }
      ],
      "stateMutability": "view",
      "type": "function"
    },
    {
      "inputs": [
        {
          "internalType": "address",
          "name": "recipient",
          "type": "address"
        },
        {
          "internalType": "uint256",
          "name": "amount",
          "type": "uint256"
        }
      ],
      "name": "mint",
      "outputs": [],
      "stateMutability": "nonpayable",
      "type": "function"
    },
    {
      "inputs": [],
      "name": "name",
      "outputs": [
        {
          "internalType": "string",
          "name": "",
          "type": "string"
        }
      ],
      "stateMutability": "view",
      "type": "function"
    },
    {
      "inputs": [
        {
          "internalType": "bool",
          "name": "_isBroken",
          "type": "bool"
        }
      ],
      "name": "setIsBroken",
      "outputs": [],
      "stateMutability": "nonpayable",
      "type": "function"
    },
    {
      "inputs": [],
      "name": "symbol",
      "outputs": [
        {
          "internalType": "string",
          "name": "",
          "type": "string"
        }
      ],
      "stateMutability": "view",
      "type": "function"
    },
    {
      "inputs": [],
      "name": "totalSupply",
      "outputs": [
        {
          "internalType": "uint256",
          "name": "",
          "type": "uint256"
        }
      ],
      "stateMutability": "view",
      "type": "function"
    },
    {
      "inputs": [
        {
          "internalType": "address",
          "name": "recipient",
          "type": "address"
        },
        {
          "internalType": "uint256",
          "name": "amount",
          "type": "uint256"
        }
      ],
      "name": "transfer",
      "outputs": [
        {
          "internalType": "bool",
          "name": "",
          "type": "bool"
        }
      ],
      "stateMutability": "nonpayable",
      "type": "function"
    },
    {
      "inputs": [
        {
          "internalType": "address",
          "name": "sender",
          "type": "address"
        },
        {
          "internalType": "address",
          "name": "recipient",
          "type": "address"
        },
        {
          "internalType": "uint256",
          "name": "amount",
          "type": "uint256"
        }
      ],
      "name": "transferFrom",
      "outputs": [
        {
          "internalType": "bool",
          "name": "",
          "type": "bool"
        }
      ],
      "stateMutability": "nonpayable",
      "type": "function"
    }
  ],
  "bytecode": "0x60806040523480156200001157600080fd5b5060405162000e5338038062000e53833981810160405260408110156200003757600080fd5b81019080805160405193929190846401000000008211156200005857600080fd5b9083019060208201858111156200006e57600080fd5b82516401000000008111828201881017156200008957600080fd5b82525081516020918201929091019080838360005b83811015620000b85781810151838201526020016200009e565b50505050905090810190601f168015620000e65780820380516001836020036101000a031916815260200191505b50604052602001805160405193929190846401000000008211156200010a57600080fd5b9083019060208201858111156200012057600080fd5b82516401000000008111828201881017156200013b57600080fd5b82525081516020918201929091019080838360005b838110156200016a57818101518382015260200162000150565b50505050905090810190601f168015620001985780820380516001836020036101000a031916815260200191505b50604052505082518391508290620001b8906003906020850190620001e7565b508051620001ce906004906020840190620001e7565b50506005805460ff191660121790555062000283915050565b828054600181600116156101000203166002900490600052602060002090601f016020900481019282601f106200022a57805160ff19168380011785556200025a565b828001600101855582156200025a579182015b828111156200025a5782518255916020019190600101906200023d565b50620002689291506200026c565b5090565b5b808211156200026857600081556001016200026d565b610bc080620002936000396000f3fe608060405234801561001057600080fd5b50600436106100ea5760003560e01c80633ac15e6f1161008c57806395d89b411161006657806395d89b4114610302578063a457c2d71461030a578063a9059cbb14610343578063dd62ed3e1461037c576100ea565b80633ac15e6f1461027557806340c10f191461029657806370a08231146102cf576100ea565b806318160ddd116100c857806318160ddd146101c157806323b872dd146101db578063313ce5671461021e578063395093511461023c576100ea565b806306fdde03146100ef578063095ea7b31461016c5780630dfbe1af146101b9575b600080fd5b6100f76103b7565b6040805160208082528351818301528351919283929083019185019080838360005b83811015610131578181015183820152602001610119565b50505050905090810190601f16801561015e5780820380516001836020036101000a031916815260200191505b509250505060405180910390f35b6101a56004803603604081101561018257600080fd5b5073ffffffffffffffffffffffffffffffffffffffff813516906020013561046b565b604080519115158252519081900360200190f35b6101a56104f6565b6101c9610504565b60408051918252519081900360200190f35b6101a5600480360360608110156101f157600080fd5b5073ffffffffffffffffffffffffffffffffffffffff81358116916020810135909116906040013561050a565b610226610597565b6040805160ff9092168252519081900360200190f35b6101a56004803603604081101561025257600080fd5b5073ffffffffffffffffffffffffffffffffffffffff81351690602001356105a0565b6102946004803603602081101561028b57600080fd5b503515156105f1565b005b610294600480360360408110156102ac57600080fd5b5073ffffffffffffffffffffffffffffffffffffffff8135169060200135610628565b6101c9600480360360208110156102e557600080fd5b503573ffffffffffffffffffffffffffffffffffffffff16610636565b6100f761065e565b6101a56004803603604081101561032057600080fd5b5073ffffffffffffffffffffffffffffffffffffffff81351690602001356106dd565b6101a56004803603604081101561035957600080fd5b5073ffffffffffffffffffffffffffffffffffffffff8135169060200135610723565b6101c96004803603604081101561039257600080fd5b5073ffffffffffffffffffffffffffffffffffffffff813581169160200135166107a7565b60038054604080516020601f60027fffffffffffffffffffffffffffffffffffffffffffffffffffffffffffffffff6101006001881615020190951694909404938401819004810282018101909252828152606093909290918301828280156104615780601f1061043657610100808354040283529160200191610461565b820191906000526020600020905b81548152906001019060200180831161044457829003601f168201915b5050505050905090565b600554600090610100900460ff16156104e557604080517f08c379a000000000000000000000000000000000000000000000000000000000815260206004820152600c60248201527f42524f4b454e5f544f4b454e0000000000000000000000000000000000000000604482015290519081900360640190fd5b6104ef83836107df565b9392505050565b600554610100900460ff1681565b60025490565b600554600090610100900460ff161561058457604080517f08c379a000000000000000000000000000000000000000000000000000000000815260206004820152600c60248201527f42524f4b454e5f544f4b454e0000000000000000000000000000000000000000604482015290519081900360640190fd5b61058f8484846107ec565b949350505050565b60055460ff1690565b33600081815260016020908152604080832073ffffffffffffffffffffffffffffffffffffffff8716845290915281205490916105e89185906105e39086610848565b61085a565b50600192915050565b60058054911515610100027fffffffffffffffffffffffffffffffffffffffffffffffffffffffffffff00ff909216919091179055565b61063282826108c9565b5050565b73ffffffffffffffffffffffffffffffffffffffff1660009081526020819052604090205490565b60048054604080516020601f60027fffffffffffffffffffffffffffffffffffffffffffffffffffffffffffffffff6101006001881615020190951694909404938401819004810282018101909252828152606093909290918301828280156104615780601f1061043657610100808354040283529160200191610461565b33600081815260016020908152604080832073ffffffffffffffffffffffffffffffffffffffff8716845290915281205490916105e89185906105e3908661019f610982565b600554600090610100900460ff161561079d57604080517f08c379a000000000000000000000000000000000000000000000000000000000815260206004820152600c60248201527f42524f4b454e5f544f4b454e0000000000000000000000000000000000000000604482015290519081900360640190fd5b6104ef8383610998565b73ffffffffffffffffffffffffffffffffffffffff918216600090815260016020908152604080832093909416825291909152205490565b60006105e833848461085a565b60006107f98484846109a1565b73ffffffffffffffffffffffffffffffffffffffff841660009081526001602090815260408083203380855292529091205461083e9186916105e3908661019e610982565b5060019392505050565b60008282016104ef8482101583610aca565b73ffffffffffffffffffffffffffffffffffffffff808416600081815260016020908152604080832094871680845294825291829020859055815185815291517f8c5be1e5ebec7d5bd14f71427d1e84f3dd0314c0f7b2291e5b200ac8c7c3b9259281900390910190a3505050565b6108d560008383610ad8565b6108ef6108ea826108e4610504565b90610848565b610add565b73ffffffffffffffffffffffffffffffffffffffff821660009081526020819052604090205461091f9082610848565b73ffffffffffffffffffffffffffffffffffffffff83166000818152602081815260408083209490945583518581529351929391927fddf252ad1be2c89b69c2b068fc378daa952ba7f163c4a11628f55a4df523b3ef9281900390910190a35050565b60006109918484111583610aca565b5050900390565b60006105e83384845b6109c573ffffffffffffffffffffffffffffffffffffffff84161515610198610aca565b6109e973ffffffffffffffffffffffffffffffffffffffff83161515610199610aca565b6109f4838383610ad8565b73ffffffffffffffffffffffffffffffffffffffff8316600090815260208190526040902054610a2790826101a0610982565b73ffffffffffffffffffffffffffffffffffffffff8085166000908152602081905260408082209390935590841681522054610a639082610848565b73ffffffffffffffffffffffffffffffffffffffff8084166000818152602081815260409182902094909455805185815290519193928716927fddf252ad1be2c89b69c2b068fc378daa952ba7f163c4a11628f55a4df523b3ef92918290030190a3505050565b816106325761063281610ae2565b505050565b600255565b610b0c817f42414c0000000000000000000000000000000000000000000000000000000000610b0f565b50565b7f08c379a000000000000000000000000000000000000000000000000000000000600090815260206004526007602452600a808404818106603090810160081b958390069590950190829004918206850160101b01602363ffffff0060e086901c160160181b0190930160c81b60445260e882901c90606490fdfea264697066735822122083ea1ad0a7f007154d54d7804915ce9ee68a34f1d99bac891fdd9636ded5d17364736f6c63430007010033",
  "linkReferences": {},
  "deployedLinkReferences": {}
}