{
  "_format": "hh-sol-artifact-1",
  "contractName": "MockReentrancyPool",
  "sourceName": "contracts/test/MockReentrancyPool.sol",
  "abi": [
    {
      "inputs": [
        {
          "internalType": "contract IVault",
          "name": "vault",
          "type": "address"
        },
        {
          "internalType": "enum IVault.PoolSpecialization",
          "name": "specialization",
          "type": "uint8"
        },
        {
          "internalType": "string",
          "name": "name",
          "type": "string"
        },
        {
          "internalType": "string",
          "name": "symbol",
          "type": "string"
        },
        {
          "internalType": "contract IERC20[]",
          "name": "tokens",
          "type": "address[]"
        },
        {
          "internalType": "address[]",
          "name": "assetManagers",
          "type": "address[]"
        },
        {
          "internalType": "uint256",
          "name": "swapFeePercentage",
          "type": "uint256"
        },
        {
          "internalType": "uint256",
          "name": "pauseWindowDuration",
          "type": "uint256"
        },
        {
          "internalType": "uint256",
          "name": "bufferPeriodDuration",
          "type": "uint256"
        },
        {
          "internalType": "address",
          "name": "owner",
          "type": "address"
        }
      ],
      "stateMutability": "nonpayable",
      "type": "constructor"
    },
    {
      "anonymous": false,
      "inputs": [
        {
          "indexed": true,
          "internalType": "address",
          "name": "owner",
          "type": "address"
        },
        {
          "indexed": true,
          "internalType": "address",
          "name": "spender",
          "type": "address"
        },
        {
          "indexed": false,
          "internalType": "uint256",
          "name": "value",
          "type": "uint256"
        }
      ],
      "name": "Approval",
      "type": "event"
    },
    {
      "anonymous": false,
      "inputs": [
        {
          "indexed": false,
          "internalType": "bool",
          "name": "paused",
          "type": "bool"
        }
      ],
      "name": "PausedStateChanged",
      "type": "event"
    },
    {
      "anonymous": false,
      "inputs": [],
      "name": "ProtectedFunctionCalled",
      "type": "event"
    },
    {
      "anonymous": false,
      "inputs": [
        {
          "indexed": false,
          "internalType": "bool",
          "name": "enabled",
          "type": "bool"
        }
      ],
      "name": "RecoveryModeStateChanged",
      "type": "event"
    },
    {
      "anonymous": false,
      "inputs": [
        {
          "indexed": false,
          "internalType": "uint256",
          "name": "swapFeePercentage",
          "type": "uint256"
        }
      ],
      "name": "SwapFeePercentageChanged",
      "type": "event"
    },
    {
      "anonymous": false,
      "inputs": [
        {
          "indexed": true,
          "internalType": "address",
          "name": "from",
          "type": "address"
        },
        {
          "indexed": true,
          "internalType": "address",
          "name": "to",
          "type": "address"
        },
        {
          "indexed": false,
          "internalType": "uint256",
          "name": "value",
          "type": "uint256"
        }
      ],
      "name": "Transfer",
      "type": "event"
    },
    {
      "inputs": [],
      "name": "DOMAIN_SEPARATOR",
      "outputs": [
        {
          "internalType": "bytes32",
          "name": "",
          "type": "bytes32"
        }
      ],
      "stateMutability": "view",
      "type": "function"
    },
    {
      "inputs": [
        {
          "internalType": "address",
          "name": "owner",
          "type": "address"
        },
        {
          "internalType": "address",
          "name": "spender",
          "type": "address"
        }
      ],
      "name": "allowance",
      "outputs": [
        {
          "internalType": "uint256",
          "name": "",
          "type": "uint256"
        }
      ],
      "stateMutability": "view",
      "type": "function"
    },
    {
      "inputs": [
        {
          "internalType": "address",
          "name": "spender",
          "type": "address"
        },
        {
          "internalType": "uint256",
          "name": "amount",
          "type": "uint256"
        }
      ],
      "name": "approve",
      "outputs": [
        {
          "internalType": "bool",
          "name": "",
          "type": "bool"
        }
      ],
      "stateMutability": "nonpayable",
      "type": "function"
    },
    {
      "inputs": [
        {
          "internalType": "address",
          "name": "account",
          "type": "address"
        }
      ],
      "name": "balanceOf",
      "outputs": [
        {
          "internalType": "uint256",
          "name": "",
          "type": "uint256"
        }
      ],
      "stateMutability": "view",
      "type": "function"
    },
    {
      "inputs": [],
      "name": "decimals",
      "outputs": [
        {
          "internalType": "uint8",
          "name": "",
          "type": "uint8"
        }
      ],
      "stateMutability": "view",
      "type": "function"
    },
    {
      "inputs": [
        {
          "internalType": "address",
          "name": "spender",
          "type": "address"
        },
        {
          "internalType": "uint256",
          "name": "amount",
          "type": "uint256"
        }
      ],
      "name": "decreaseAllowance",
      "outputs": [
        {
          "internalType": "bool",
          "name": "",
          "type": "bool"
        }
      ],
      "stateMutability": "nonpayable",
      "type": "function"
    },
    {
      "inputs": [],
      "name": "disableRecoveryMode",
      "outputs": [],
      "stateMutability": "nonpayable",
      "type": "function"
    },
    {
      "inputs": [],
      "name": "enableRecoveryMode",
      "outputs": [],
      "stateMutability": "nonpayable",
      "type": "function"
    },
    {
      "inputs": [
        {
          "internalType": "bytes4",
          "name": "selector",
          "type": "bytes4"
        }
      ],
      "name": "getActionId",
      "outputs": [
        {
          "internalType": "bytes32",
          "name": "",
          "type": "bytes32"
        }
      ],
      "stateMutability": "view",
      "type": "function"
    },
    {
      "inputs": [],
      "name": "getAuthorizer",
      "outputs": [
        {
          "internalType": "contract IAuthorizer",
          "name": "",
          "type": "address"
        }
      ],
      "stateMutability": "view",
      "type": "function"
    },
    {
      "inputs": [],
      "name": "getDomainSeparator",
      "outputs": [
        {
          "internalType": "bytes32",
          "name": "",
          "type": "bytes32"
        }
      ],
      "stateMutability": "view",
      "type": "function"
    },
    {
      "inputs": [
        {
          "internalType": "address",
          "name": "account",
          "type": "address"
        }
      ],
      "name": "getNextNonce",
      "outputs": [
        {
          "internalType": "uint256",
          "name": "",
          "type": "uint256"
        }
      ],
      "stateMutability": "view",
      "type": "function"
    },
    {
      "inputs": [],
      "name": "getOwner",
      "outputs": [
        {
          "internalType": "address",
          "name": "",
          "type": "address"
        }
      ],
      "stateMutability": "view",
      "type": "function"
    },
    {
      "inputs": [],
      "name": "getPausedState",
      "outputs": [
        {
          "internalType": "bool",
          "name": "paused",
          "type": "bool"
        },
        {
          "internalType": "uint256",
          "name": "pauseWindowEndTime",
          "type": "uint256"
        },
        {
          "internalType": "uint256",
          "name": "bufferPeriodEndTime",
          "type": "uint256"
        }
      ],
      "stateMutability": "view",
      "type": "function"
    },
    {
      "inputs": [],
      "name": "getPoolId",
      "outputs": [
        {
          "internalType": "bytes32",
          "name": "",
          "type": "bytes32"
        }
      ],
      "stateMutability": "view",
      "type": "function"
    },
    {
      "inputs": [],
      "name": "getProtocolFeesCollector",
      "outputs": [
        {
          "internalType": "contract IProtocolFeesCollector",
          "name": "",
          "type": "address"
        }
      ],
      "stateMutability": "view",
      "type": "function"
    },
    {
      "inputs": [],
      "name": "getScalingFactors",
      "outputs": [
        {
          "internalType": "uint256[]",
          "name": "",
          "type": "uint256[]"
        }
      ],
      "stateMutability": "view",
      "type": "function"
    },
    {
      "inputs": [],
      "name": "getSwapFeePercentage",
      "outputs": [
        {
          "internalType": "uint256",
          "name": "",
          "type": "uint256"
        }
      ],
      "stateMutability": "view",
      "type": "function"
    },
    {
      "inputs": [],
      "name": "getVault",
      "outputs": [
        {
          "internalType": "contract IVault",
          "name": "",
          "type": "address"
        }
      ],
      "stateMutability": "view",
      "type": "function"
    },
    {
      "inputs": [],
      "name": "inRecoveryMode",
      "outputs": [
        {
          "internalType": "bool",
          "name": "",
          "type": "bool"
        }
      ],
      "stateMutability": "view",
      "type": "function"
    },
    {
      "inputs": [
        {
          "internalType": "address",
          "name": "spender",
          "type": "address"
        },
        {
          "internalType": "uint256",
          "name": "addedValue",
          "type": "uint256"
        }
      ],
      "name": "increaseAllowance",
      "outputs": [
        {
          "internalType": "bool",
          "name": "",
          "type": "bool"
        }
      ],
      "stateMutability": "nonpayable",
      "type": "function"
    },
    {
      "inputs": [],
      "name": "name",
      "outputs": [
        {
          "internalType": "string",
          "name": "",
          "type": "string"
        }
      ],
      "stateMutability": "view",
      "type": "function"
    },
    {
      "inputs": [
        {
          "internalType": "address",
          "name": "owner",
          "type": "address"
        }
      ],
      "name": "nonces",
      "outputs": [
        {
          "internalType": "uint256",
          "name": "",
          "type": "uint256"
        }
      ],
      "stateMutability": "view",
      "type": "function"
    },
    {
      "inputs": [
        {
          "internalType": "bytes32",
          "name": "poolId",
          "type": "bytes32"
        },
        {
          "internalType": "address",
          "name": "sender",
          "type": "address"
        },
        {
          "internalType": "address",
          "name": "recipient",
          "type": "address"
        },
        {
          "internalType": "uint256[]",
          "name": "balances",
          "type": "uint256[]"
        },
        {
          "internalType": "uint256",
          "name": "lastChangeBlock",
          "type": "uint256"
        },
        {
          "internalType": "uint256",
          "name": "protocolSwapFeePercentage",
          "type": "uint256"
        },
        {
          "internalType": "bytes",
          "name": "userData",
          "type": "bytes"
        }
      ],
      "name": "onExitPool",
      "outputs": [
        {
          "internalType": "uint256[]",
          "name": "",
          "type": "uint256[]"
        },
        {
          "internalType": "uint256[]",
          "name": "",
          "type": "uint256[]"
        }
      ],
      "stateMutability": "nonpayable",
      "type": "function"
    },
    {
      "inputs": [
        {
          "internalType": "bytes32",
          "name": "poolId",
          "type": "bytes32"
        },
        {
          "internalType": "address",
          "name": "sender",
          "type": "address"
        },
        {
          "internalType": "address",
          "name": "recipient",
          "type": "address"
        },
        {
          "internalType": "uint256[]",
          "name": "balances",
          "type": "uint256[]"
        },
        {
          "internalType": "uint256",
          "name": "lastChangeBlock",
          "type": "uint256"
        },
        {
          "internalType": "uint256",
          "name": "protocolSwapFeePercentage",
          "type": "uint256"
        },
        {
          "internalType": "bytes",
          "name": "userData",
          "type": "bytes"
        }
      ],
      "name": "onJoinPool",
      "outputs": [
        {
          "internalType": "uint256[]",
          "name": "",
          "type": "uint256[]"
        },
        {
          "internalType": "uint256[]",
          "name": "",
          "type": "uint256[]"
        }
      ],
      "stateMutability": "nonpayable",
      "type": "function"
    },
    {
      "inputs": [
        {
          "components": [
            {
              "internalType": "enum IVault.SwapKind",
              "name": "kind",
              "type": "uint8"
            },
            {
              "internalType": "contract IERC20",
              "name": "tokenIn",
              "type": "address"
            },
            {
              "internalType": "contract IERC20",
              "name": "tokenOut",
              "type": "address"
            },
            {
              "internalType": "uint256",
              "name": "amount",
              "type": "uint256"
            },
            {
              "internalType": "bytes32",
              "name": "poolId",
              "type": "bytes32"
            },
            {
              "internalType": "uint256",
              "name": "lastChangeBlock",
              "type": "uint256"
            },
            {
              "internalType": "address",
              "name": "from",
              "type": "address"
            },
            {
              "internalType": "address",
              "name": "to",
              "type": "address"
            },
            {
              "internalType": "bytes",
              "name": "userData",
              "type": "bytes"
            }
          ],
          "internalType": "struct IPoolSwapStructs.SwapRequest",
          "name": "swapRequest",
          "type": "tuple"
        },
        {
          "internalType": "uint256[]",
          "name": "balances",
          "type": "uint256[]"
        },
        {
          "internalType": "uint256",
          "name": "indexIn",
          "type": "uint256"
        },
        {
          "internalType": "uint256",
          "name": "indexOut",
          "type": "uint256"
        }
      ],
      "name": "onSwap",
      "outputs": [
        {
          "internalType": "uint256",
          "name": "",
          "type": "uint256"
        }
      ],
      "stateMutability": "nonpayable",
      "type": "function"
    },
    {
      "inputs": [],
      "name": "pause",
      "outputs": [],
      "stateMutability": "nonpayable",
      "type": "function"
    },
    {
      "inputs": [
        {
          "internalType": "address",
          "name": "owner",
          "type": "address"
        },
        {
          "internalType": "address",
          "name": "spender",
          "type": "address"
        },
        {
          "internalType": "uint256",
          "name": "value",
          "type": "uint256"
        },
        {
          "internalType": "uint256",
          "name": "deadline",
          "type": "uint256"
        },
        {
          "internalType": "uint8",
          "name": "v",
          "type": "uint8"
        },
        {
          "internalType": "bytes32",
          "name": "r",
          "type": "bytes32"
        },
        {
          "internalType": "bytes32",
          "name": "s",
          "type": "bytes32"
        }
      ],
      "name": "permit",
      "outputs": [],
      "stateMutability": "nonpayable",
      "type": "function"
    },
    {
      "inputs": [],
      "name": "protectedFunction",
      "outputs": [],
      "stateMutability": "nonpayable",
      "type": "function"
    },
    {
      "inputs": [
        {
          "internalType": "bytes32",
          "name": "poolId",
          "type": "bytes32"
        },
        {
          "internalType": "address",
          "name": "sender",
          "type": "address"
        },
        {
          "internalType": "address",
          "name": "recipient",
          "type": "address"
        },
        {
          "internalType": "uint256[]",
          "name": "balances",
          "type": "uint256[]"
        },
        {
          "internalType": "uint256",
          "name": "lastChangeBlock",
          "type": "uint256"
        },
        {
          "internalType": "uint256",
          "name": "protocolSwapFeePercentage",
          "type": "uint256"
        },
        {
          "internalType": "bytes",
          "name": "userData",
          "type": "bytes"
        }
      ],
      "name": "queryExit",
      "outputs": [
        {
          "internalType": "uint256",
          "name": "bptIn",
          "type": "uint256"
        },
        {
          "internalType": "uint256[]",
          "name": "amountsOut",
          "type": "uint256[]"
        }
      ],
      "stateMutability": "view",
      "type": "function"
    },
    {
      "inputs": [
        {
          "internalType": "bytes32",
          "name": "poolId",
          "type": "bytes32"
        },
        {
          "internalType": "address",
          "name": "sender",
          "type": "address"
        },
        {
          "internalType": "address",
          "name": "recipient",
          "type": "address"
        },
        {
          "internalType": "uint256[]",
          "name": "balances",
          "type": "uint256[]"
        },
        {
          "internalType": "uint256",
          "name": "lastChangeBlock",
          "type": "uint256"
        },
        {
          "internalType": "uint256",
          "name": "protocolSwapFeePercentage",
          "type": "uint256"
        },
        {
          "internalType": "bytes",
          "name": "userData",
          "type": "bytes"
        }
      ],
      "name": "queryJoin",
      "outputs": [
        {
          "internalType": "uint256",
          "name": "bptOut",
          "type": "uint256"
        },
        {
          "internalType": "uint256[]",
          "name": "amountsIn",
          "type": "uint256[]"
        }
      ],
      "stateMutability": "view",
      "type": "function"
    },
    {
      "inputs": [
        {
          "internalType": "uint256",
          "name": "swapFeePercentage",
          "type": "uint256"
        }
      ],
      "name": "setSwapFeePercentage",
      "outputs": [],
      "stateMutability": "nonpayable",
      "type": "function"
    },
    {
      "inputs": [],
      "name": "symbol",
      "outputs": [
        {
          "internalType": "string",
          "name": "",
          "type": "string"
        }
      ],
      "stateMutability": "view",
      "type": "function"
    },
    {
      "inputs": [],
      "name": "totalSupply",
      "outputs": [
        {
          "internalType": "uint256",
          "name": "",
          "type": "uint256"
        }
      ],
      "stateMutability": "view",
      "type": "function"
    },
    {
      "inputs": [
        {
          "internalType": "address",
          "name": "recipient",
          "type": "address"
        },
        {
          "internalType": "uint256",
          "name": "amount",
          "type": "uint256"
        }
      ],
      "name": "transfer",
      "outputs": [
        {
          "internalType": "bool",
          "name": "",
          "type": "bool"
        }
      ],
      "stateMutability": "nonpayable",
      "type": "function"
    },
    {
      "inputs": [
        {
          "internalType": "address",
          "name": "sender",
          "type": "address"
        },
        {
          "internalType": "address",
          "name": "recipient",
          "type": "address"
        },
        {
          "internalType": "uint256",
          "name": "amount",
          "type": "uint256"
        }
      ],
      "name": "transferFrom",
      "outputs": [
        {
          "internalType": "bool",
          "name": "",
          "type": "bool"
        }
      ],
      "stateMutability": "nonpayable",
      "type": "function"
    },
    {
      "inputs": [],
      "name": "unpause",
      "outputs": [],
      "stateMutability": "nonpayable",
      "type": "function"
    }
  ],
  "bytecode": "0x6102006040523480156200001257600080fd5b50604051620039a1380380620039a183398101604081905262000035916200086c565b898989898989898989898983838a8a8e86336001600160a01b031660001b8480604051806040016040528060018152602001603160f81b8152508787816003908051906020019062000089929190620005ee565b5080516200009f906004906020840190620005ee565b50506005805460ff19166012179055508151602092830120608052805191012060a052507f8b73c3c69bb8fe3d512ecc4cf759cc79239f7b179b0ffacaa9a75d522b39400f60c05260e0526001600160601b0319606091821b81166101005291901b1661012052506200011e9050630163f50083111561019462000268565b620001326276a70082111561019562000268565b4291909101610140819052016101605260601b6001600160601b03191661018052855162000166906002111560c862000268565b62000180620001746200027d565b8751111560c962000268565b6200018b8462000282565b6000620001a68b8b89896200031660201b62000e181760201c565b9050806101a081815250508a6001600160a01b031663d2946c2b6040518163ffffffff1660e01b815260040160206040518083038186803b158015620001eb57600080fd5b505afa15801562000200573d6000803e3d6000fd5b505050506040513d601f19601f8201168201806040525081019062000226919062000846565b6001600160a01b03166101c0816001600160a01b031660601b81525050505050505050505050505085516101e081815250505050505050505050505062000a90565b816200027957620002798162000345565b5050565b600890565b6200029b620002906200035a565b82101560cb62000268565b620002b4620002a962000363565b82111560ca62000268565b620002d68160c0603f6008546200036f60201b62000e3817909392919060201c565b6008556040517fa9ba3ffe0b6c366b81232caab38605a0699ad5398d6cce76f91ee809e322dafc906200030b90839062000a1e565b60405180910390a150565b60006200032e836200039460201b62000e5b1760201c565b6200033c85858585620003a0565b95945050505050565b62000357816210905360ea1b6200049a565b50565b64e8d4a5100090565b67016345785d8a000090565b60006200037e848484620004fb565b506001901b60001901811b1992909216911b1790565b8062000279816200055b565b600080856001600160a01b03166309b2760f866040518263ffffffff1660e01b8152600401620003d1919062000a09565b602060405180830381600087803b158015620003ec57600080fd5b505af115801562000401573d6000803e3d6000fd5b505050506040513d601f19601f820116820180604052508101906200042791906200082d565b604051633354e3e960e11b81529091506001600160a01b038716906366a9c7d2906200045c908490889088906004016200097b565b600060405180830381600087803b1580156200047757600080fd5b505af11580156200048c573d6000803e3d6000fd5b509298975050505050505050565b62461bcd60e51b600090815260206004526007602452600a808404818106603090810160081b958390069590950190829004918206850160101b01602363ffffff0060e086901c160160181b0190930160c81b60445260e882901c90606490fd5b6200050c6101008310606462000268565b62000545600182101580156200053d57506200053960ff8461010003620005e260201b62000e691760201c565b8211155b606462000268565b6200055683821c156101b462000268565b505050565b6002815110156200056c5762000357565b6000816000815181106200057c57fe5b602002602001015190506000600190505b825181101562000556576000838281518110620005a657fe5b60200260200101519050620005d7816001600160a01b0316846001600160a01b03161060656200026860201b60201c565b91506001016200058d565b80820390821102900390565b828054600181600116156101000203166002900490600052602060002090601f016020900481019282601f106200063157805160ff191683800117855562000661565b8280016001018555821562000661579182015b828111156200066157825182559160200191906001019062000644565b506200066f92915062000673565b5090565b5b808211156200066f576000815560010162000674565b8051620006978162000a7a565b92915050565b600082601f830112620006ae578081fd5b8151620006c5620006bf8262000a4e565b62000a27565b818152915060208083019084810181840286018201871015620006e757600080fd5b60005b8481101562000713578151620007008162000a7a565b84529282019290820190600101620006ea565b505050505092915050565b600082601f8301126200072f578081fd5b815162000740620006bf8262000a4e565b8181529150602080830190848101818402860182018710156200076257600080fd5b60005b84811015620007135781516200077b8162000a7a565b8452928201929082019060010162000765565b8051600381106200069757600080fd5b600082601f830112620007af578081fd5b81516001600160401b03811115620007c5578182fd5b6020620007db601f8301601f1916820162000a27565b92508183528481838601011115620007f257600080fd5b60005b8281101562000812578481018201518482018301528101620007f5565b82811115620008245760008284860101525b50505092915050565b6000602082840312156200083f578081fd5b5051919050565b60006020828403121562000858578081fd5b8151620008658162000a7a565b9392505050565b6000806000806000806000806000806101408b8d0312156200088c578586fd5b620008988c8c6200068a565b9950620008a98c60208d016200078e565b60408c01519099506001600160401b0380821115620008c6578788fd5b620008d48e838f016200079e565b995060608d0151915080821115620008ea578788fd5b620008f88e838f016200079e565b985060808d01519150808211156200090e578788fd5b6200091c8e838f016200071e565b975060a08d015191508082111562000932578687fd5b50620009418d828e016200069d565b95505060c08b0151935060e08b015192506101008b015191506200096a8c6101208d016200068a565b90509295989b9194979a5092959850565b60006060820185835260206060818501528186518084526080860191508288019350845b81811015620009c757620009b4855162000a6e565b835293830193918301916001016200099f565b505084810360408601528551808252908201925081860190845b818110156200048c57620009f6835162000a6e565b85529383019391830191600101620009e1565b602081016003831062000a1857fe5b91905290565b90815260200190565b6040518181016001600160401b038111828210171562000a4657600080fd5b604052919050565b60006001600160401b0382111562000a64578081fd5b5060209081020190565b6001600160a01b031690565b6001600160a01b03811681146200035757600080fd5b60805160a05160c05160e0516101005160601c6101205160601c61014051610160516101805160601c6101a0516101c05160601c6101e051612e8462000b1d60003980610e8d525080610be75250806107885250508061119b525080611177525080610a8a525080610a665250806109f0525080611a81525080611ac3525080611aa25250612e846000f3fe608060405234801561001057600080fd5b50600436106102775760003560e01c806374f3b00911610160578063a457c2d7116100d8578063d2946c2b1161008c578063d5c096c411610071578063d5c096c4146104b5578063dd62ed3e146104c8578063ed24911d146104db57610277565b8063d2946c2b1461049a578063d505accf146104a257610277565b8063aaabadc5116100bd578063aaabadc514610482578063b35056b81461048a578063b7b814fc1461049257610277565b8063a457c2d71461045c578063a9059cbb1461046f57610277565b806387ec68171161012f5780638d928af8116101145780638d928af81461043957806390193b7c1461044157806395d89b411461045457610277565b806387ec681714610411578063893d20e81461042457610277565b806374f3b009146103c25780637ecebe00146103e35780638456cb59146103f6578063851c1bb3146103fe57610277565b80633644e515116101f35780633f4ba83a116101c257806355c67628116101a757806355c67628146103865780636028bfd41461038e57806370a08231146103af57610277565b80633f4ba83a1461037657806354a844ba1461037e57610277565b80633644e5151461034057806338e9922e1461034857806338fff2d01461035b578063395093511461036357610277565b806318160ddd1161024a5780631dd746ea1161022f5780631dd746ea1461030357806323b872dd14610318578063313ce5671461032b57610277565b806318160ddd146102e45780631c0de051146102ec57610277565b806301ec954a1461027c578063021e9894146102a557806306fdde03146102af578063095ea7b3146102c4575b600080fd5b61028f61028a366004612859565b6104e3565b60405161029c9190612bb6565b60405180910390f35b6102ad6105a3565b005b6102b76105de565b60405161029c9190612d1d565b6102d76102d236600461264d565b610674565b60405161029c9190612b93565b61028f61068b565b6102f4610691565b60405161029c93929190612b9e565b61030b6106ba565b60405161029c9190612b5b565b6102d761032636600461259d565b6106c9565b610333610757565b60405161029c9190612daf565b61028f610760565b6102ad610356366004612978565b61076a565b61028f610786565b6102d761037136600461264d565b6107aa565b6102ad6107f2565b6102ad610806565b61028f61085a565b6103a161039c3660046126b0565b61086d565b60405161029c929190612d8e565b61028f6103bd366004612549565b6108a4565b6103d56103d03660046126b0565b6108cc565b60405161029c929190612b6e565b61028f6103f1366004612549565b6109cf565b6102ad6109da565b61028f61040c366004612753565b6109ec565b6103a161041f3660046126b0565b610a3e565b61042c610a64565b60405161029c9190612aa3565b61042c610a88565b61028f61044f366004612549565b610aac565b6102b7610ad4565b6102d761046a36600461264d565b610b35565b6102d761047d36600461264d565b610b73565b61042c610b80565b6102d7610b8a565b6102ad610b9b565b61042c610be5565b6102ad6104b03660046125dd565b610c09565b6103d56104c33660046126b0565b610c94565b61028f6104d6366004612565565b610db7565b61028f610e0e565b6000846080015161052a6104f5610a88565b73ffffffffffffffffffffffffffffffffffffffff163373ffffffffffffffffffffffffffffffffffffffff161460cd610e75565b61053f610535610786565b82146101f4610e75565b610547610e83565b6105598484610554610e8b565b610eaf565b6060610563610ecc565b905060008751600181111561057457fe5b1461058b576105868787878785610f56565b610598565b6105988787878785610fc0565b979650505050505050565b6105b36105ae610a88565b611024565b6040517f0255b68e185bc7301c6caec1bf96953e1143eb9001e4379ff003afa59f0c77e890600090a1565b60038054604080516020601f600260001961010060018816150201909516949094049384018190048102820181019092528281526060939092909183018282801561066a5780601f1061063f5761010080835404028352916020019161066a565b820191906000526020600020905b81548152906001019060200180831161064d57829003601f168201915b5050505050905090565b60006106813384846110e3565b5060015b92915050565b60025490565b600080600061069e611158565b1592506106a9611175565b91506106b3611199565b9050909192565b60606106c4610ecc565b905090565b6000806106d68533610db7565b90506107073373ffffffffffffffffffffffffffffffffffffffff871614806106ff5750838210155b61019e610e75565b6107128585856111bd565b3373ffffffffffffffffffffffffffffffffffffffff86161480159061073a57506000198114155b1561074c5761074c85338584036110e3565b506001949350505050565b60055460ff1690565b60006106c4610e0e565b6107726112de565b61077a611324565b61078381611337565b50565b7f000000000000000000000000000000000000000000000000000000000000000090565b33600081815260016020908152604080832073ffffffffffffffffffffffffffffffffffffffff8716845290915281205490916106819185906107ed90866113b0565b6110e3565b6107fa6112de565b61080460006113c9565b565b61080e6112de565b61081661145a565b610820600161146e565b7feff3d4d215b42bf0960be9c6d5e05c22cba4df6627a3a523e2acee733b5854c860016040516108509190612b93565b60405180910390a1565b6008546000906106c49060c0603f6114c5565b60006060610883865161087e610e8b565b6114d4565b610898898989898989896114e16115436115b2565b97509795505050505050565b73ffffffffffffffffffffffffffffffffffffffff1660009081526020819052604090205490565b606080886108db6104f5610a88565b6108e6610535610786565b606060006108f386611774565b1561091b576109006117a3565b6109128961090c61068b565b886117b6565b9250905061096d565b610923610e83565b606061092d610ecc565b90506109398a826117d7565b61095d8d8d8d8d8d610949610b8a565b610953578d610956565b60005b878e6114e1565b9350915061096b8382611543565b505b6109778b82611840565b81895167ffffffffffffffff8111801561099057600080fd5b506040519080825280602002602001820160405280156109ba578160200160208202803683370190505b509450945050505b5097509795505050505050565b600061068582610aac565b6109e26112de565b61080460016113c9565b60007f000000000000000000000000000000000000000000000000000000000000000082604051602001610a21929190612a2d565b604051602081830303815290604052805190602001209050919050565b60006060610a4f865161087e610e8b565b610898898989898989896114e161184a6115b2565b7f000000000000000000000000000000000000000000000000000000000000000090565b7f000000000000000000000000000000000000000000000000000000000000000090565b73ffffffffffffffffffffffffffffffffffffffff1660009081526006602052604090205490565b60048054604080516020601f600260001961010060018816150201909516949094049384018190048102820181019092528281526060939092909183018282801561066a5780601f1061063f5761010080835404028352916020019161066a565b600080610b423385610db7565b9050808310610b5c57610b57338560006110e3565b610b69565b610b6933858584036110e3565b5060019392505050565b60006106813384846111bd565b60006106c46118b3565b6008546000906106c49060ff61193a565b610ba36112de565b610bab6117a3565b610bb5600061146e565b7feff3d4d215b42bf0960be9c6d5e05c22cba4df6627a3a523e2acee733b5854c860006040516108509190612b93565b7f000000000000000000000000000000000000000000000000000000000000000090565b60007f6e71edae12b1b97f4d1f60370fef10105fa2faae0126114a169c64845d6126c9888888610c388c610aac565b89604051602001610c4e96959493929190612beb565b604051602081830303815290604052805190602001209050610c7f8882610c76878787611941565b886101f8611980565b610c8a8888886110e3565b5050505050505050565b60608088610ca36104f5610a88565b610cae610535610786565b610cb6610e83565b6060610cc0610ecc565b9050610cca61068b565b610d775760006060610cdf8d8d8d868b6119e4565b91509150610cf8610cee611a34565b83101560cc610e75565b610d0a6000610d05611a34565b611a3b565b610d1d8b610d16611a34565b8403611a3b565b610d27818461184a565b808a5167ffffffffffffffff81118015610d4057600080fd5b50604051908082528060200260200182016040528015610d6a578160200160208202803683370190505b50955095505050506109c2565b610d8188826117d7565b60006060610da98d8d8d8d8d610d95610b8a565b610d9f578d610da2565b60005b898e6114e1565b91509150610d1d8b83611a3b565b6000610dc1610a88565b73ffffffffffffffffffffffffffffffffffffffff168273ffffffffffffffffffffffffffffffffffffffff161415610dfd5750600019610685565b610e078383611a45565b9050610685565b60006106c4611a7d565b6000610e2383610e5b565b610e2f85858585611b1a565b95945050505050565b6000610e45848484611c3d565b506001901b60001901811b1992909216911b1790565b80610e6581611c83565b5050565b80820390821102900390565b81610e6557610e6581611d16565b610804611324565b7f000000000000000000000000000000000000000000000000000000000000000090565b610ec78184108015610ec057508183105b6064610e75565b505050565b60606000610ed8610e8b565b90508067ffffffffffffffff81118015610ef157600080fd5b50604051908082528060200260200182016040528015610f1b578160200160208202803683370190505b50915060005b81811015610f5157670de0b6b3a7640000838281518110610f3e57fe5b6020908102919091010152600101610f21565b505090565b6000610f6285836117d7565b610f838660600151838581518110610f7657fe5b6020026020010151611d40565b60608701526000610f9687878787611d4c565b9050610fb581848781518110610fa857fe5b6020026020010151611d61565b905061059881611d6d565b6000610fcf8660600151611d89565b6060870152610fde85836117d7565b610ff28660600151838681518110610f7657fe5b6060870152600061100587878787611d4c565b90506105988184868151811061101757fe5b6020026020010151611daa565b60408051600080825260208201909252606091611057565b61104461240a565b81526020019060019003908161103c5790505b506040517f0e8e3e8400000000000000000000000000000000000000000000000000000000815290915073ffffffffffffffffffffffffffffffffffffffff831690630e8e3e84906110ad908490600401612ac4565b600060405180830381600087803b1580156110c757600080fd5b505af11580156110db573d6000803e3d6000fd5b505050505050565b73ffffffffffffffffffffffffffffffffffffffff80841660008181526001602090815260408083209487168084529490915290819020849055517f8c5be1e5ebec7d5bd14f71427d1e84f3dd0314c0f7b2291e5b200ac8c7c3b9259061114b908590612bb6565b60405180910390a3505050565b6000611162611199565b4211806106c457505060075460ff161590565b7f000000000000000000000000000000000000000000000000000000000000000090565b7f000000000000000000000000000000000000000000000000000000000000000090565b6111e173ffffffffffffffffffffffffffffffffffffffff84161515610198610e75565b61120573ffffffffffffffffffffffffffffffffffffffff83161515610199610e75565b611210838383610ec7565b73ffffffffffffffffffffffffffffffffffffffff831660009081526020819052604090205461124390826101a0611db6565b73ffffffffffffffffffffffffffffffffffffffff808516600090815260208190526040808220939093559084168152205461127f90826113b0565b73ffffffffffffffffffffffffffffffffffffffff80841660008181526020819052604090819020939093559151908516907fddf252ad1be2c89b69c2b068fc378daa952ba7f163c4a11628f55a4df523b3ef9061114b908590612bb6565b600061130d6000357fffffffff00000000000000000000000000000000000000000000000000000000166109ec565b905061078361131c8233611dcc565b610191610e75565b61080461132f611158565b610192610e75565b61134c611342611ee9565b82101560cb610e75565b611361611357611ef2565b82111560ca610e75565b600854611372908260c0603f610e38565b6008556040517fa9ba3ffe0b6c366b81232caab38605a0699ad5398d6cce76f91ee809e322dafc906113a5908390612bb6565b60405180910390a150565b60008282016113c28482101583610e75565b9392505050565b80156113e9576113e46113da611175565b4210610193610e75565b6113fe565b6113fe6113f4611199565b42106101a9610e75565b600780547fffffffffffffffffffffffffffffffffffffffffffffffffffffffffffffff00168215151790556040517f9e3a5e37224532dea67b89face185703738a228a6e8a23dee546960180d3be64906113a5908390612b93565b610804611465610b8a565b156101b5610e75565b60085461147d908260ff611efe565b6008556040517feff3d4d215b42bf0960be9c6d5e05c22cba4df6627a3a523e2acee733b5854c8906114b0908390612b93565b60405180910390a18061078357610783610804565b6001901b6000190191901c1690565b610e658183146067610e75565b600060606114ed6105a3565b6000875167ffffffffffffffff8111801561150757600080fd5b50604051908082528060200260200182016040528015611531578160200160208202803683370190505b50915091509850989650505050505050565b815181516115529082906114d4565b60005b818110156115ac5761158d84828151811061156c57fe5b602002602001015184838151811061158057fe5b6020026020010151611f0d565b84828151811061159957fe5b6020908102919091010152600101611555565b50505050565b3330146116ae5760003073ffffffffffffffffffffffffffffffffffffffff166000366040516115e3929190612a5d565b6000604051808303816000865af19150503d8060008114611620576040519150601f19603f3d011682016040523d82523d6000602084013e611625565b606091505b50509050806000811461163457fe5b60046000803e6000517fffffffff00000000000000000000000000000000000000000000000000000000167f43adbafb000000000000000000000000000000000000000000000000000000008114611690573d6000803e3d6000fd5b506020600460003e604060205260243d03602460403e601c3d016000f35b6116b6610e83565b60606116c0610ecc565b90506116cc87826117d7565b600060606116e48c8c8c8c8c8c898d8d63ffffffff16565b915091506116f681848663ffffffff16565b80517fffffffffffffffffffffffffffffffffffffffffffffffffffffffffffffffe082018390526343adbafb7fffffffffffffffffffffffffffffffffffffffffffffffffffffffffffffffc08301526020027fffffffffffffffffffffffffffffffffffffffffffffffffffffffffffffffdc82016044820181fd5b6000808251118015610685575060ff8016828060200190518101906117999190612990565b60ff161492915050565b6108046117ae610b8a565b6101b6610e75565b6000606060006117c584611f60565b90506117cf6105a3565b959350505050565b815181516117e69082906114d4565b60005b818110156115ac5761182184828151811061180057fe5b602002602001015184838151811061181457fe5b6020026020010151611f76565b84828151811061182d57fe5b60209081029190910101526001016117e9565b610e658282611fa9565b815181516118599082906114d4565b60005b818110156115ac5761189484828151811061187357fe5b602002602001015184838151811061188757fe5b60200260200101516120b6565b8482815181106118a057fe5b602090810291909101015260010161185c565b60006118bd610a88565b73ffffffffffffffffffffffffffffffffffffffff1663aaabadc56040518163ffffffff1660e01b815260040160206040518083038186803b15801561190257600080fd5b505afa158015611916573d6000803e3d6000fd5b505050506040513d601f19601f820116820180604052508101906106c49190612793565b1c60011690565b60408051604180825260808201909252606091829190602082018180368337019050509050836020820152826040820152846060820153949350505050565b600061198b85612103565b90506119a161199b87838761211f565b83610e75565b6119b0428410156101b8610e75565b50505073ffffffffffffffffffffffffffffffffffffffff9092166000908152600660205260409020805460010190555050565b60006060806119f284612213565b90506000805b8251811015611a2657828181518110611a0d57fe5b60200260200101518201915080806001019150506119f8565b509890975095505050505050565b620f424090565b610e658282612229565b73ffffffffffffffffffffffffffffffffffffffff918216600090815260016020908152604080832093909416825291909152205490565b60007f00000000000000000000000000000000000000000000000000000000000000007f00000000000000000000000000000000000000000000000000000000000000007f0000000000000000000000000000000000000000000000000000000000000000611aea6122d6565b30604051602001611aff959493929190612cb2565b60405160208183030381529060405280519060200120905090565b6000808573ffffffffffffffffffffffffffffffffffffffff166309b2760f866040518263ffffffff1660e01b8152600401611b569190612d09565b602060405180830381600087803b158015611b7057600080fd5b505af1158015611b84573d6000803e3d6000fd5b505050506040513d601f19601f82011682018060405250810190611ba89190612698565b6040517f66a9c7d200000000000000000000000000000000000000000000000000000000815290915073ffffffffffffffffffffffffffffffffffffffff8716906366a9c7d290611c0190849088908890600401612c2c565b600060405180830381600087803b158015611c1b57600080fd5b505af1158015611c2f573d6000803e3d6000fd5b509298975050505050505050565b611c4c61010083106064610e75565b611c7460018210158015610ec05750611c6a60ff8461010003610e69565b8211156064610e75565b610ec783821c156101b4610e75565b600281511015611c9257610783565b600081600081518110611ca157fe5b602002602001015190506000600190505b8251811015610ec7576000838281518110611cc957fe5b60200260200101519050611d0c8173ffffffffffffffffffffffffffffffffffffffff168473ffffffffffffffffffffffffffffffffffffffff16106065610e75565b9150600101611cb2565b610783817f42414c00000000000000000000000000000000000000000000000000000000006122da565b60006113c28383611f76565b6000611d566105a3565b505050506060015190565b60006113c283836120b6565b6000610685611d82611d7d61085a565b612355565b83906120b6565b600080611d9e611d9761085a565b8490612367565b90506113c2838261239f565b60006113c28383611f0d565b6000611dc58484111583610e75565b5050900390565b600073ba1ba1ba1ba1ba1ba1ba1ba1ba1ba1ba1ba1ba1b611deb610a64565b73ffffffffffffffffffffffffffffffffffffffff1614158015611e135750611e13836123b5565b15611e5557611e20610a64565b73ffffffffffffffffffffffffffffffffffffffff163373ffffffffffffffffffffffffffffffffffffffff16149050610685565b611e5d6118b3565b73ffffffffffffffffffffffffffffffffffffffff16639be2a8848484306040518463ffffffff1660e01b8152600401611e9993929190612bbf565b60206040518083038186803b158015611eb157600080fd5b505afa158015611ec5573d6000803e3d6000fd5b505050506040513d601f19601f82011682018060405250810190610e079190612678565b64e8d4a5100090565b67016345785d8a000090565b6001811b1992909216911b1790565b6000611f1c8215156004610e75565b670de0b6b3a76400008302611f4e841580611f475750670de0b6b3a7640000858381611f4457fe5b04145b6005610e75565b828181611f5757fe5b04949350505050565b6000818060200190518101906113c291906129ac565b6000828202611f9a841580611f93575083858381611f9057fe5b04145b6003610e75565b670de0b6b3a764000081611f57565b611fcd73ffffffffffffffffffffffffffffffffffffffff8316151561019b610e75565b611fd982600083610ec7565b73ffffffffffffffffffffffffffffffffffffffff821660009081526020819052604090205461200c90826101b2611db6565b73ffffffffffffffffffffffffffffffffffffffff831660009081526020819052604090205561204c6120478261204161068b565b906123f1565b6123ff565b600073ffffffffffffffffffffffffffffffffffffffff168273ffffffffffffffffffffffffffffffffffffffff167fddf252ad1be2c89b69c2b068fc378daa952ba7f163c4a11628f55a4df523b3ef836040516120aa9190612bb6565b60405180910390a35050565b60006120c58215156004610e75565b670de0b6b3a764000083026120ed841580611f475750670de0b6b3a7640000858381611f4457fe5b6001836001830304018115150291505092915050565b600061210d611a7d565b82604051602001610a21929190612a6d565b600061213182516041146101b9610e75565b60208281015160408085015160608601518251600080825295019283905292939092811a9160019061216a908990859088908890612ceb565b6020604051602081039080840390855afa15801561218c573d6000803e3d6000fd5b50506040517fffffffffffffffffffffffffffffffffffffffffffffffffffffffffffffffe0015191505073ffffffffffffffffffffffffffffffffffffffff81161580159061220757508773ffffffffffffffffffffffffffffffffffffffff168173ffffffffffffffffffffffffffffffffffffffff16145b98975050505050505050565b6060818060200190518101906113c291906127af565b61223560008383610ec7565b61224a6120478261224461068b565b906113b0565b73ffffffffffffffffffffffffffffffffffffffff821660009081526020819052604090205461227a90826113b0565b73ffffffffffffffffffffffffffffffffffffffff83166000818152602081905260408082209390935591519091907fddf252ad1be2c89b69c2b068fc378daa952ba7f163c4a11628f55a4df523b3ef906120aa908590612bb6565b4690565b7f08c379a000000000000000000000000000000000000000000000000000000000600090815260206004526007602452600a808404818106603090810160081b958390069590950190829004918206850160101b01602363ffffff0060e086901c160160181b0190930160c81b60445260e882901c90606490fd5b670de0b6b3a764000081810391100290565b6000828202612381841580611f93575083858381611f9057fe5b6001670de0b6b3a76400006001830304018115150291505092915050565b60006123af838311156001610e75565b50900390565b60006123e07f38e9922e000000000000000000000000000000000000000000000000000000006109ec565b821480610685575061068582612404565b60006113c283836001611db6565b600255565b50600090565b6040805160a081019091528060008152600060208201819052604082018190526060820181905260809091015290565b803561068581612e1d565b600082601f830112612455578081fd5b813561246861246382612de4565b612dbd565b81815291506020808301908481018184028601820187101561248957600080fd5b60005b848110156124a85781358452928201929082019060010161248c565b505050505092915050565b600082601f8301126124c3578081fd5b813567ffffffffffffffff8111156124d9578182fd5b61250a60207fffffffffffffffffffffffffffffffffffffffffffffffffffffffffffffffe0601f84011601612dbd565b915080825283602082850101111561252157600080fd5b8060208401602084013760009082016020015292915050565b80356002811061068557600080fd5b60006020828403121561255a578081fd5b81356113c281612e1d565b60008060408385031215612577578081fd5b823561258281612e1d565b9150602083013561259281612e1d565b809150509250929050565b6000806000606084860312156125b1578081fd5b83356125bc81612e1d565b925060208401356125cc81612e1d565b929592945050506040919091013590565b600080600080600080600060e0888a0312156125f7578283fd5b873561260281612e1d565b9650602088013561261281612e1d565b95506040880135945060608801359350608088013561263081612e3f565b9699959850939692959460a0840135945060c09093013592915050565b6000806040838503121561265f578182fd5b823561266a81612e1d565b946020939093013593505050565b600060208284031215612689578081fd5b815180151581146113c2578182fd5b6000602082840312156126a9578081fd5b5051919050565b600080600080600080600060e0888a0312156126ca578081fd5b8735965060208801356126dc81612e1d565b955060408801356126ec81612e1d565b9450606088013567ffffffffffffffff80821115612708578283fd5b6127148b838c01612445565b955060808a0135945060a08a0135935060c08a0135915080821115612737578283fd5b506127448a828b016124b3565b91505092959891949750929550565b600060208284031215612764578081fd5b81357fffffffff00000000000000000000000000000000000000000000000000000000811681146113c2578182fd5b6000602082840312156127a4578081fd5b81516113c281612e1d565b600080604083850312156127c1578182fd5b8251600481106127cf578283fd5b8092505060208084015167ffffffffffffffff8111156127ed578283fd5b8401601f810186136127fd578283fd5b805161280b61246382612de4565b81815283810190838501858402850186018a1015612827578687fd5b8694505b8385101561284957805183526001949094019391850191850161282b565b5080955050505050509250929050565b6000806000806080858703121561286e578182fd5b843567ffffffffffffffff80821115612885578384fd5b818701915061012080838a03121561289b578485fd5b6128a481612dbd565b90506128b0898461253a565b81526128bf896020850161243a565b60208201526128d1896040850161243a565b6040820152606083013560608201526080830135608082015260a083013560a08201526129018960c0850161243a565b60c08201526129138960e0850161243a565b60e0820152610100808401358381111561292b578687fd5b6129378b8287016124b3565b828401525050809650506020870135915080821115612954578384fd5b5061296187828801612445565b949794965050505060408301359260600135919050565b600060208284031215612989578081fd5b5035919050565b6000602082840312156129a1578081fd5b81516113c281612e3f565b600080604083850312156129be578182fd5b82516129c981612e3f565b6020939093015192949293505050565b73ffffffffffffffffffffffffffffffffffffffff169052565b6000815180845260208085019450808401835b83811015612a2257815187529582019590820190600101612a06565b509495945050505050565b9182527fffffffff0000000000000000000000000000000000000000000000000000000016602082015260240190565b6000828483379101908152919050565b7f190100000000000000000000000000000000000000000000000000000000000081526002810192909252602282015260420190565b73ffffffffffffffffffffffffffffffffffffffff91909116815260200190565b602080825282518282018190526000919060409081850190868401855b82811015612b4e578151805160048110612af757fe5b855280870151612b09888701826129d9565b508581015186860152606080820151612b24828801826129d9565b505060809081015190612b39868201836129d9565b505060a0939093019290850190600101612ae1565b5091979650505050505050565b6000602082526113c260208301846129f3565b600060408252612b8160408301856129f3565b8281036020840152610e2f81856129f3565b901515815260200190565b92151583526020830191909152604082015260600190565b90815260200190565b92835273ffffffffffffffffffffffffffffffffffffffff918216602084015216604082015260600190565b95865273ffffffffffffffffffffffffffffffffffffffff94851660208701529290931660408501526060840152608083019190915260a082015260c00190565b60006060820185835260206060818501528186518084526080860191508288019350845b81811015612c7457612c628551612e04565b83529383019391830191600101612c50565b505084810360408601528551808252908201925081860190845b81811015611c2f57612ca08351612e04565b85529383019391830191600101612c8e565b94855260208501939093526040840191909152606083015273ffffffffffffffffffffffffffffffffffffffff16608082015260a00190565b93845260ff9290921660208401526040830152606082015260800190565b6020810160038310612d1757fe5b91905290565b6000602080835283518082850152825b81811015612d4957858101830151858201604001528201612d2d565b81811115612d5a5783604083870101525b50601f017fffffffffffffffffffffffffffffffffffffffffffffffffffffffffffffffe016929092016040019392505050565b600083825260406020830152612da760408301846129f3565b949350505050565b60ff91909116815260200190565b60405181810167ffffffffffffffff81118282101715612ddc57600080fd5b604052919050565b600067ffffffffffffffff821115612dfa578081fd5b5060209081020190565b73ffffffffffffffffffffffffffffffffffffffff1690565b73ffffffffffffffffffffffffffffffffffffffff8116811461078357600080fd5b60ff8116811461078357600080fdfea26469706673582212203e2b4716503a0d09f81555e539f64d8afd973e83dfbc7ac95e93d204873a80b964736f6c63430007010033",
  "linkReferences": {},
  "deployedLinkReferences": {}
}