{
  "_format": "hh-sol-artifact-1",
  "contractName": "BasePoolUserData",
  "sourceName": "contracts/pool-utils/BasePoolUserData.sol",
  "abi": [
    {
      "inputs": [],
      "name": "RECOVERY_MODE_EXIT_KIND",
      "outputs": [
        {
          "internalType": "uint8",
          "name": "",
          "type": "uint8"
        }
      ],
      "stateMutability": "view",
      "type": "function"
    }
  ],
  "bytecode": "0x608f610024600b82828239805160001a607314601757fe5b30600052607381538281f3fe730000000000000000000000000000000000000000301460806040526004361060335760003560e01c806309564cb1146038575b600080fd5b603e6054565b6040805160ff9092168252519081900360200190f35b60ff8156fea2646970667358221220b80a70659838847d15aed1df512588a70d5a42e3772d6e18f669ccdd6213ed2564736f6c63430007010033",
  "linkReferences": {},
  "deployedLinkReferences": {}
}