{
  "_format": "hh-sol-artifact-1",
  "contractName": "BaseRelayerLibrary",
  "sourceName": "contracts/relayer/BaseRelayerLibrary.sol",
  "abi": [
    {
      "inputs": [
        {
          "internalType": "contract IVault",
          "name": "vault",
          "type": "address"
        }
      ],
      "stateMutability": "nonpayable",
      "type": "constructor"
    },
    {
      "inputs": [
        {
          "internalType": "contract IERC20",
          "name": "token",
          "type": "address"
        },
        {
          "internalType": "uint256",
          "name": "amount",
          "type": "uint256"
        }
      ],
      "name": "approveVault",
      "outputs": [],
      "stateMutability": "payable",
      "type": "function"
    },
    {
      "inputs": [],
      "name": "getEntrypoint",
      "outputs": [
        {
          "internalType": "contract IBalancerRelayer",
          "name": "",
          "type": "address"
        }
      ],
      "stateMutability": "view",
      "type": "function"
    },
    {
      "inputs": [],
      "name": "getVault",
      "outputs": [
        {
          "internalType": "contract IVault",
          "name": "",
          "type": "address"
        }
      ],
      "stateMutability": "view",
      "type": "function"
    },
    {
      "inputs": [
        {
          "internalType": "uint256",
          "name": "ref",
          "type": "uint256"
        }
      ],
      "name": "peekChainedReferenceValue",
      "outputs": [
        {
          "internalType": "uint256",
          "name": "value",
          "type": "uint256"
        }
      ],
      "stateMutability": "view",
      "type": "function"
    },
    {
      "inputs": [
        {
          "internalType": "address",
          "name": "relayer",
          "type": "address"
        },
        {
          "internalType": "bool",
          "name": "approved",
          "type": "bool"
        },
        {
          "internalType": "bytes",
          "name": "authorisation",
          "type": "bytes"
        }
      ],
      "name": "setRelayerApproval",
      "outputs": [],
      "stateMutability": "payable",
      "type": "function"
    }
  ],
  "bytecode": "0x6101006040527fae1dc54057af8e8e5ce068cdd4383149c7efcb30e8fb95b592ee1594367fb50960e05234801561003557600080fd5b506040516114553803806114558339810160408190526100549161013b565b806001600160a01b031663ad5c46486040518163ffffffff1660e01b815260040160206040518083038186803b15801561008d57600080fd5b505afa1580156100a1573d6000803e3d6000fd5b505050506040513d601f19601f820116820180604052508101906100c5919061013b565b6001600160601b0319606091821b81166080529082901b1660a052604051819030906100f09061012e565b6100fb92919061015e565b604051809103906000f080158015610117573d6000803e3d6000fd5b5060601b6001600160601b03191660c05250610190565b61078780610cce83390190565b60006020828403121561014c578081fd5b815161015781610178565b9392505050565b6001600160a01b0392831681529116602082015260400190565b6001600160a01b038116811461018d57600080fd5b50565b60805160601c60a05160601c60c05160601c60e051610b016101cd600039806106d952508060f652508061026f528061029f525050610b016000f3fe60806040526004361061005a5760003560e01c80638d928af8116100435780638d928af81461009f578063b6d24737146100b4578063f3cab685146100c75761005a565b80637fd0e5d51461005f57806380db15bd1461008a575b600080fd5b34801561006b57600080fd5b506100746100f4565b6040516100819190610a3a565b60405180910390f35b61009d61009836600461081f565b610118565b005b3480156100ab57600080fd5b5061007461029d565b61009d6100c23660046108c8565b6102c1565b3480156100d357600080fd5b506100e76100e23660046108f3565b610308565b6040516100819190610a92565b7f000000000000000000000000000000000000000000000000000000000000000090565b73ffffffffffffffffffffffffffffffffffffffff841630148061013a575082155b610179576040517f08c379a000000000000000000000000000000000000000000000000000000000815260040161017090610a5b565b60405180910390fd5b606063fa6e671d60e01b33868660405160240161019893929190610993565b604080517fffffffffffffffffffffffffffffffffffffffffffffffffffffffffffffffe0818403018152918152602080830180517bffffffffffffffffffffffffffffffffffffffffffffffffffffffff167fffffffff000000000000000000000000000000000000000000000000000000009095169490941790935251610225928691869101610968565b604080517fffffffffffffffffffffffffffffffffffffffffffffffffffffffffffffffe0818403018152919052905061029573ffffffffffffffffffffffffffffffffffffffff7f0000000000000000000000000000000000000000000000000000000000000000168261031a565b505050505050565b7f000000000000000000000000000000000000000000000000000000000000000090565b6102ca816103a1565b156102db576102d8816103e8565b90505b6103046102e661029d565b73ffffffffffffffffffffffffffffffffffffffff84169083610413565b5050565b60006103138261058f565b9392505050565b6060600060608473ffffffffffffffffffffffffffffffffffffffff1684604051610345919061095c565b6000604051808303816000865af19150503d8060008114610382576040519150601f19603f3d011682016040523d82523d6000602084013e610387565b606091505b509150915061039682826105a6565b925050505b92915050565b7ffff0000000000000000000000000000000000000000000000000000000000000167fba100000000000000000000000000000000000000000000000000000000000001490565b60008060006103f68461058f565b91509150610403846105d0565b1561031357600082559392505050565b80158015906104c457506040517fdd62ed3e00000000000000000000000000000000000000000000000000000000815273ffffffffffffffffffffffffffffffffffffffff84169063dd62ed3e9061047190309086906004016109c4565b60206040518083038186803b15801561048957600080fd5b505afa15801561049d573d6000803e3d6000fd5b505050506040513d601f19601f820116820180604052508101906104c1919061090b565b15155b1561056b5761056b8363095ea7b360e01b8460006040516024016104e99291906109eb565b604080517fffffffffffffffffffffffffffffffffffffffffffffffffffffffffffffffe08184030181529190526020810180517bffffffffffffffffffffffffffffffffffffffffffffffffffffffff167fffffffff0000000000000000000000000000000000000000000000000000000090931692909217909152610617565b61058a8363095ea7b360e01b84846040516024016104e9929190610a14565b505050565b60008061059b836106ca565b915081549050915091565b606082156105b557508061039b565b8151156105c55781518083602001fd5b61039b6101ae610746565b7fffff000000000000000000000000000000000000000000000000000000000000167fba100000000000000000000000000000000000000000000000000000000000001490565b600060608373ffffffffffffffffffffffffffffffffffffffff1683604051610640919061095c565b6000604051808303816000865af19150503d806000811461067d576040519150601f19603f3d011682016040523d82523d6000602084013e610682565b606091505b5091509150600082141561069a573d6000803e3d6000fd5b6106c48151600014806106bc5750818060200190518101906106bc91906108ac565b6101a2610773565b50505050565b600060016106d783610781565b7f0000000000000000000000000000000000000000000000000000000000000000604051602001610709929190610985565b604080518083037fffffffffffffffffffffffffffffffffffffffffffffffffffffffffffffffe001815291905280516020909101200392915050565b610770817f42414c00000000000000000000000000000000000000000000000000000000006107a4565b50565b816103045761030481610746565b7dffffffffffffffffffffffffffffffffffffffffffffffffffffffffffff1690565b7f08c379a000000000000000000000000000000000000000000000000000000000600090815260206004526007602452600a808404818106603090810160081b958390069590950190829004918206850160101b01602363ffffff0060e086901c160160181b0190930160c81b60445260e882901c90606490fd5b60008060008060608587031215610834578384fd5b843561083f81610a9b565b9350602085013561084f81610abd565b9250604085013567ffffffffffffffff8082111561086b578384fd5b818701915087601f83011261087e578384fd5b81358181111561088c578485fd5b88602082850101111561089d578485fd5b95989497505060200194505050565b6000602082840312156108bd578081fd5b815161031381610abd565b600080604083850312156108da578182fd5b82356108e581610a9b565b946020939093013593505050565b600060208284031215610904578081fd5b5035919050565b60006020828403121561091c578081fd5b5051919050565b60008151815b818110156109435760208185018101518683015201610929565b818111156109515782828601525b509290920192915050565b60006103138284610923565b60006109748286610923565b838582379092019182525092915050565b918252602082015260400190565b73ffffffffffffffffffffffffffffffffffffffff9384168152919092166020820152901515604082015260600190565b73ffffffffffffffffffffffffffffffffffffffff92831681529116602082015260400190565b73ffffffffffffffffffffffffffffffffffffffff92909216825260ff16602082015260400190565b73ffffffffffffffffffffffffffffffffffffffff929092168252602082015260400190565b73ffffffffffffffffffffffffffffffffffffffff91909116815260200190565b6020808252601f908201527f52656c617965722063616e206f6e6c7920617070726f766520697473656c6600604082015260600190565b90815260200190565b73ffffffffffffffffffffffffffffffffffffffff8116811461077057600080fd5b801515811461077057600080fdfea2646970667358221220e41f7594ee33548e59475761b77ab029bcd03d0f7262cf39354befde0c21beed64736f6c6343000701003360c060405234801561001057600080fd5b5060405161078738038061078783398101604081905261002f91610052565b60016000556001600160601b0319606092831b8116608052911b1660a0526100a3565b60008060408385031215610064578182fd5b825161006f8161008b565b60208401519092506100808161008b565b809150509250929050565b6001600160a01b03811681146100a057600080fd5b50565b60805160601c60a05160601c6106b36100d46000398060fc528061020f5250806058528061012052506106b36000f3fe6080604052600436106100385760003560e01c80637678922e146100885780638d928af8146100b3578063ac9650d8146100c857610083565b36610083576100813373ffffffffffffffffffffffffffffffffffffffff7f000000000000000000000000000000000000000000000000000000000000000016146102066100e8565b005b600080fd5b34801561009457600080fd5b5061009d6100fa565b6040516100aa919061050e565b60405180910390f35b3480156100bf57600080fd5b5061009d61011e565b6100db6100d6366004610480565b610142565b6040516100aa919061052f565b816100f6576100f68161026e565b5050565b7f000000000000000000000000000000000000000000000000000000000000000090565b7f000000000000000000000000000000000000000000000000000000000000000090565b606061014c61029b565b8167ffffffffffffffff8111801561016357600080fd5b5060405190808252806020026020018201604052801561019757816020015b60608152602001906001900390816101825790505b50905060005b82811015610257576102388484838181106101b457fe5b90506020028101906101c691906105e3565b8080601f0160208091040260200160405190810160405280939291908181526020018383808284376000920191909152505073ffffffffffffffffffffffffffffffffffffffff7f000000000000000000000000000000000000000000000000000000000000000016929150506102b4565b82828151811061024457fe5b602090810291909101015260010161019d565b50610260610337565b610268610348565b92915050565b610298817f42414c000000000000000000000000000000000000000000000000000000000061034f565b50565b6102ad600260005414156101906100e8565b6002600055565b6060600060608473ffffffffffffffffffffffffffffffffffffffff16846040516102df91906104ef565b600060405180830381855af49150503d806000811461031a576040519150601f19603f3d011682016040523d82523d6000602084013e61031f565b606091505b509150915061032e82826103ca565b95945050505050565b4780156102985761029833826103f4565b6001600055565b7f08c379a000000000000000000000000000000000000000000000000000000000600090815260206004526007602452600a808404818106603090810160081b958390069590950190829004918206850160101b01602363ffffff0060e086901c160160181b0190930160c81b60445260e882901c90606490fd5b606082156103d9575080610268565b8151156103e95781518083602001fd5b6102686101ae61026e565b610403814710156101a36100e8565b60008273ffffffffffffffffffffffffffffffffffffffff16826040516104299061050b565b60006040518083038185875af1925050503d8060008114610466576040519150601f19603f3d011682016040523d82523d6000602084013e61046b565b606091505b5050905061047b816101a46100e8565b505050565b60008060208385031215610492578182fd5b823567ffffffffffffffff808211156104a9578384fd5b818501915085601f8301126104bc578384fd5b8135818111156104ca578485fd5b86602080830285010111156104dd578485fd5b60209290920196919550909350505050565b6000825161050181846020870161064d565b9190910192915050565b90565b73ffffffffffffffffffffffffffffffffffffffff91909116815260200190565b6000602080830181845280855180835260408601915060408482028701019250838701855b828110156105d6577fffffffffffffffffffffffffffffffffffffffffffffffffffffffffffffffc088860301845281518051808752610599818989018a850161064d565b601f017fffffffffffffffffffffffffffffffffffffffffffffffffffffffffffffffe01695909501860194509285019290850190600101610554565b5092979650505050505050565b60008083357fffffffffffffffffffffffffffffffffffffffffffffffffffffffffffffffe1843603018112610617578283fd5b83018035915067ffffffffffffffff821115610631578283fd5b60200191503681900382131561064657600080fd5b9250929050565b60005b83811015610668578181015183820152602001610650565b83811115610677576000848401525b5050505056fea26469706673582212201120b234fb57d56607056c92dd83b5cf9c324b095090d2b5b628463e9259399564736f6c63430007010033",
  "linkReferences": {},
  "deployedLinkReferences": {}
}