{
  "_format": "hh-sol-artifact-1",
  "contractName": "MockStaticATokenLM",
  "sourceName": "contracts/test/MockStaticATokenLM.sol",
  "abi": [
    {
      "inputs": [
        {
          "internalType": "string",
          "name": "name",
          "type": "string"
        },
        {
          "internalType": "string",
          "name": "symbol",
          "type": "string"
        },
        {
          "internalType": "contract IERC20",
          "name": "underlyingAsset",
          "type": "address"
        },
        {
          "internalType": "contract IERC20",
          "name": "aToken",
          "type": "address"
        }
      ],
      "stateMutability": "nonpayable",
      "type": "constructor"
    },
    {
      "anonymous": false,
      "inputs": [
        {
          "indexed": true,
          "internalType": "address",
          "name": "owner",
          "type": "address"
        },
        {
          "indexed": true,
          "internalType": "address",
          "name": "spender",
          "type": "address"
        },
        {
          "indexed": false,
          "internalType": "uint256",
          "name": "value",
          "type": "uint256"
        }
      ],
      "name": "Approval",
      "type": "event"
    },
    {
      "anonymous": false,
      "inputs": [
        {
          "indexed": false,
          "internalType": "address",
          "name": "depositor",
          "type": "address"
        },
        {
          "indexed": false,
          "internalType": "address",
          "name": "recipient",
          "type": "address"
        },
        {
          "indexed": false,
          "internalType": "uint256",
          "name": "amount",
          "type": "uint256"
        },
        {
          "indexed": false,
          "internalType": "uint16",
          "name": "referralCode",
          "type": "uint16"
        },
        {
          "indexed": false,
          "internalType": "bool",
          "name": "fromUnderlying",
          "type": "bool"
        }
      ],
      "name": "Deposit",
      "type": "event"
    },
    {
      "anonymous": false,
      "inputs": [
        {
          "indexed": true,
          "internalType": "address",
          "name": "from",
          "type": "address"
        },
        {
          "indexed": true,
          "internalType": "address",
          "name": "to",
          "type": "address"
        },
        {
          "indexed": false,
          "internalType": "uint256",
          "name": "value",
          "type": "uint256"
        }
      ],
      "name": "Transfer",
      "type": "event"
    },
    {
      "anonymous": false,
      "inputs": [
        {
          "indexed": false,
          "internalType": "address",
          "name": "owner",
          "type": "address"
        },
        {
          "indexed": false,
          "internalType": "address",
          "name": "recipient",
          "type": "address"
        },
        {
          "indexed": false,
          "internalType": "uint256",
          "name": "staticAmount",
          "type": "uint256"
        },
        {
          "indexed": false,
          "internalType": "uint256",
          "name": "dynamicAmount",
          "type": "uint256"
        },
        {
          "indexed": false,
          "internalType": "bool",
          "name": "toUnderlying",
          "type": "bool"
        }
      ],
      "name": "Withdraw",
      "type": "event"
    },
    {
      "inputs": [],
      "name": "ASSET",
      "outputs": [
        {
          "internalType": "contract IERC20",
          "name": "",
          "type": "address"
        }
      ],
      "stateMutability": "view",
      "type": "function"
    },
    {
      "inputs": [],
      "name": "ATOKEN",
      "outputs": [
        {
          "internalType": "contract IERC20",
          "name": "",
          "type": "address"
        }
      ],
      "stateMutability": "view",
      "type": "function"
    },
    {
      "inputs": [],
      "name": "INCENTIVES_CONTROLLER",
      "outputs": [
        {
          "internalType": "address",
          "name": "",
          "type": "address"
        }
      ],
      "stateMutability": "pure",
      "type": "function"
    },
    {
      "inputs": [],
      "name": "LENDING_POOL",
      "outputs": [
        {
          "internalType": "address",
          "name": "",
          "type": "address"
        }
      ],
      "stateMutability": "pure",
      "type": "function"
    },
    {
      "inputs": [],
      "name": "REWARD_TOKEN",
      "outputs": [
        {
          "internalType": "contract IERC20",
          "name": "",
          "type": "address"
        }
      ],
      "stateMutability": "pure",
      "type": "function"
    },
    {
      "inputs": [
        {
          "internalType": "address",
          "name": "owner",
          "type": "address"
        },
        {
          "internalType": "address",
          "name": "spender",
          "type": "address"
        }
      ],
      "name": "allowance",
      "outputs": [
        {
          "internalType": "uint256",
          "name": "",
          "type": "uint256"
        }
      ],
      "stateMutability": "view",
      "type": "function"
    },
    {
      "inputs": [
        {
          "internalType": "address",
          "name": "spender",
          "type": "address"
        },
        {
          "internalType": "uint256",
          "name": "amount",
          "type": "uint256"
        }
      ],
      "name": "approve",
      "outputs": [
        {
          "internalType": "bool",
          "name": "",
          "type": "bool"
        }
      ],
      "stateMutability": "nonpayable",
      "type": "function"
    },
    {
      "inputs": [
        {
          "internalType": "address",
          "name": "account",
          "type": "address"
        }
      ],
      "name": "balanceOf",
      "outputs": [
        {
          "internalType": "uint256",
          "name": "",
          "type": "uint256"
        }
      ],
      "stateMutability": "view",
      "type": "function"
    },
    {
      "inputs": [
        {
          "internalType": "address",
          "name": "sender",
          "type": "address"
        },
        {
          "internalType": "uint256",
          "name": "amount",
          "type": "uint256"
        }
      ],
      "name": "burn",
      "outputs": [],
      "stateMutability": "nonpayable",
      "type": "function"
    },
    {
      "inputs": [
        {
          "internalType": "address",
          "name": "",
          "type": "address"
        },
        {
          "internalType": "bool",
          "name": "",
          "type": "bool"
        }
      ],
      "name": "claimRewards",
      "outputs": [],
      "stateMutability": "pure",
      "type": "function"
    },
    {
      "inputs": [
        {
          "internalType": "address",
          "name": "",
          "type": "address"
        },
        {
          "internalType": "address",
          "name": "",
          "type": "address"
        },
        {
          "internalType": "bool",
          "name": "",
          "type": "bool"
        }
      ],
      "name": "claimRewardsOnBehalf",
      "outputs": [],
      "stateMutability": "pure",
      "type": "function"
    },
    {
      "inputs": [
        {
          "internalType": "bool",
          "name": "",
          "type": "bool"
        }
      ],
      "name": "claimRewardsToSelf",
      "outputs": [],
      "stateMutability": "pure",
      "type": "function"
    },
    {
      "inputs": [],
      "name": "collectAndUpdateRewards",
      "outputs": [],
      "stateMutability": "pure",
      "type": "function"
    },
    {
      "inputs": [],
      "name": "decimals",
      "outputs": [
        {
          "internalType": "uint8",
          "name": "",
          "type": "uint8"
        }
      ],
      "stateMutability": "view",
      "type": "function"
    },
    {
      "inputs": [
        {
          "internalType": "address",
          "name": "spender",
          "type": "address"
        },
        {
          "internalType": "uint256",
          "name": "subtractedValue",
          "type": "uint256"
        }
      ],
      "name": "decreaseAllowance",
      "outputs": [
        {
          "internalType": "bool",
          "name": "",
          "type": "bool"
        }
      ],
      "stateMutability": "nonpayable",
      "type": "function"
    },
    {
      "inputs": [
        {
          "internalType": "address",
          "name": "recipient",
          "type": "address"
        },
        {
          "internalType": "uint256",
          "name": "amount",
          "type": "uint256"
        },
        {
          "internalType": "uint16",
          "name": "referralCode",
          "type": "uint16"
        },
        {
          "internalType": "bool",
          "name": "fromUnderlying",
          "type": "bool"
        }
      ],
      "name": "deposit",
      "outputs": [
        {
          "internalType": "uint256",
          "name": "",
          "type": "uint256"
        }
      ],
      "stateMutability": "nonpayable",
      "type": "function"
    },
    {
      "inputs": [
        {
          "internalType": "address",
          "name": "",
          "type": "address"
        }
      ],
      "name": "dynamicBalanceOf",
      "outputs": [
        {
          "internalType": "uint256",
          "name": "",
          "type": "uint256"
        }
      ],
      "stateMutability": "pure",
      "type": "function"
    },
    {
      "inputs": [
        {
          "internalType": "uint256",
          "name": "amount",
          "type": "uint256"
        }
      ],
      "name": "dynamicToStaticAmount",
      "outputs": [
        {
          "internalType": "uint256",
          "name": "",
          "type": "uint256"
        }
      ],
      "stateMutability": "pure",
      "type": "function"
    },
    {
      "inputs": [],
      "name": "getAccRewardsPerToken",
      "outputs": [
        {
          "internalType": "uint256",
          "name": "",
          "type": "uint256"
        }
      ],
      "stateMutability": "pure",
      "type": "function"
    },
    {
      "inputs": [
        {
          "internalType": "address",
          "name": "",
          "type": "address"
        }
      ],
      "name": "getClaimableRewards",
      "outputs": [
        {
          "internalType": "uint256",
          "name": "",
          "type": "uint256"
        }
      ],
      "stateMutability": "pure",
      "type": "function"
    },
    {
      "inputs": [],
      "name": "getDomainSeparator",
      "outputs": [
        {
          "internalType": "bytes32",
          "name": "",
          "type": "bytes32"
        }
      ],
      "stateMutability": "pure",
      "type": "function"
    },
    {
      "inputs": [],
      "name": "getLastRewardBlock",
      "outputs": [
        {
          "internalType": "uint256",
          "name": "",
          "type": "uint256"
        }
      ],
      "stateMutability": "pure",
      "type": "function"
    },
    {
      "inputs": [],
      "name": "getLifetimeRewards",
      "outputs": [
        {
          "internalType": "uint256",
          "name": "",
          "type": "uint256"
        }
      ],
      "stateMutability": "pure",
      "type": "function"
    },
    {
      "inputs": [],
      "name": "getLifetimeRewardsClaimed",
      "outputs": [
        {
          "internalType": "uint256",
          "name": "",
          "type": "uint256"
        }
      ],
      "stateMutability": "pure",
      "type": "function"
    },
    {
      "inputs": [],
      "name": "getTotalClaimableRewards",
      "outputs": [
        {
          "internalType": "uint256",
          "name": "",
          "type": "uint256"
        }
      ],
      "stateMutability": "pure",
      "type": "function"
    },
    {
      "inputs": [
        {
          "internalType": "address",
          "name": "",
          "type": "address"
        }
      ],
      "name": "getUnclaimedRewards",
      "outputs": [
        {
          "internalType": "uint256",
          "name": "",
          "type": "uint256"
        }
      ],
      "stateMutability": "pure",
      "type": "function"
    },
    {
      "inputs": [
        {
          "internalType": "address",
          "name": "spender",
          "type": "address"
        },
        {
          "internalType": "uint256",
          "name": "addedValue",
          "type": "uint256"
        }
      ],
      "name": "increaseAllowance",
      "outputs": [
        {
          "internalType": "bool",
          "name": "",
          "type": "bool"
        }
      ],
      "stateMutability": "nonpayable",
      "type": "function"
    },
    {
      "inputs": [
        {
          "internalType": "address",
          "name": "",
          "type": "address"
        },
        {
          "internalType": "address",
          "name": "",
          "type": "address"
        },
        {
          "internalType": "uint256",
          "name": "",
          "type": "uint256"
        },
        {
          "internalType": "uint16",
          "name": "",
          "type": "uint16"
        },
        {
          "internalType": "bool",
          "name": "",
          "type": "bool"
        },
        {
          "internalType": "uint256",
          "name": "",
          "type": "uint256"
        },
        {
          "components": [
            {
              "internalType": "uint8",
              "name": "v",
              "type": "uint8"
            },
            {
              "internalType": "bytes32",
              "name": "r",
              "type": "bytes32"
            },
            {
              "internalType": "bytes32",
              "name": "s",
              "type": "bytes32"
            }
          ],
          "internalType": "struct IStaticATokenLM.SignatureParams",
          "name": "",
          "type": "tuple"
        }
      ],
      "name": "metaDeposit",
      "outputs": [
        {
          "internalType": "uint256",
          "name": "",
          "type": "uint256"
        }
      ],
      "stateMutability": "pure",
      "type": "function"
    },
    {
      "inputs": [
        {
          "internalType": "address",
          "name": "",
          "type": "address"
        },
        {
          "internalType": "address",
          "name": "",
          "type": "address"
        },
        {
          "internalType": "uint256",
          "name": "",
          "type": "uint256"
        },
        {
          "internalType": "uint256",
          "name": "",
          "type": "uint256"
        },
        {
          "internalType": "bool",
          "name": "",
          "type": "bool"
        },
        {
          "internalType": "uint256",
          "name": "",
          "type": "uint256"
        },
        {
          "components": [
            {
              "internalType": "uint8",
              "name": "v",
              "type": "uint8"
            },
            {
              "internalType": "bytes32",
              "name": "r",
              "type": "bytes32"
            },
            {
              "internalType": "bytes32",
              "name": "s",
              "type": "bytes32"
            }
          ],
          "internalType": "struct IStaticATokenLM.SignatureParams",
          "name": "",
          "type": "tuple"
        }
      ],
      "name": "metaWithdraw",
      "outputs": [
        {
          "internalType": "uint256",
          "name": "",
          "type": "uint256"
        },
        {
          "internalType": "uint256",
          "name": "",
          "type": "uint256"
        }
      ],
      "stateMutability": "pure",
      "type": "function"
    },
    {
      "inputs": [
        {
          "internalType": "address",
          "name": "recipient",
          "type": "address"
        },
        {
          "internalType": "uint256",
          "name": "amount",
          "type": "uint256"
        }
      ],
      "name": "mint",
      "outputs": [],
      "stateMutability": "nonpayable",
      "type": "function"
    },
    {
      "inputs": [],
      "name": "name",
      "outputs": [
        {
          "internalType": "string",
          "name": "",
          "type": "string"
        }
      ],
      "stateMutability": "view",
      "type": "function"
    },
    {
      "inputs": [
        {
          "internalType": "address",
          "name": "",
          "type": "address"
        },
        {
          "internalType": "address",
          "name": "",
          "type": "address"
        },
        {
          "internalType": "uint256",
          "name": "",
          "type": "uint256"
        },
        {
          "internalType": "uint256",
          "name": "",
          "type": "uint256"
        },
        {
          "internalType": "uint8",
          "name": "",
          "type": "uint8"
        },
        {
          "internalType": "bytes32",
          "name": "",
          "type": "bytes32"
        },
        {
          "internalType": "bytes32",
          "name": "",
          "type": "bytes32"
        }
      ],
      "name": "permit",
      "outputs": [],
      "stateMutability": "pure",
      "type": "function"
    },
    {
      "inputs": [],
      "name": "rate",
      "outputs": [
        {
          "internalType": "uint256",
          "name": "",
          "type": "uint256"
        }
      ],
      "stateMutability": "pure",
      "type": "function"
    },
    {
      "inputs": [
        {
          "internalType": "uint256",
          "name": "amount",
          "type": "uint256"
        }
      ],
      "name": "staticToDynamicAmount",
      "outputs": [
        {
          "internalType": "uint256",
          "name": "",
          "type": "uint256"
        }
      ],
      "stateMutability": "pure",
      "type": "function"
    },
    {
      "inputs": [],
      "name": "symbol",
      "outputs": [
        {
          "internalType": "string",
          "name": "",
          "type": "string"
        }
      ],
      "stateMutability": "view",
      "type": "function"
    },
    {
      "inputs": [],
      "name": "totalSupply",
      "outputs": [
        {
          "internalType": "uint256",
          "name": "",
          "type": "uint256"
        }
      ],
      "stateMutability": "view",
      "type": "function"
    },
    {
      "inputs": [
        {
          "internalType": "address",
          "name": "recipient",
          "type": "address"
        },
        {
          "internalType": "uint256",
          "name": "amount",
          "type": "uint256"
        }
      ],
      "name": "transfer",
      "outputs": [
        {
          "internalType": "bool",
          "name": "",
          "type": "bool"
        }
      ],
      "stateMutability": "nonpayable",
      "type": "function"
    },
    {
      "inputs": [
        {
          "internalType": "address",
          "name": "sender",
          "type": "address"
        },
        {
          "internalType": "address",
          "name": "recipient",
          "type": "address"
        },
        {
          "internalType": "uint256",
          "name": "amount",
          "type": "uint256"
        }
      ],
      "name": "transferFrom",
      "outputs": [
        {
          "internalType": "bool",
          "name": "",
          "type": "bool"
        }
      ],
      "stateMutability": "nonpayable",
      "type": "function"
    },
    {
      "inputs": [
        {
          "internalType": "address",
          "name": "recipient",
          "type": "address"
        },
        {
          "internalType": "uint256",
          "name": "amount",
          "type": "uint256"
        },
        {
          "internalType": "bool",
          "name": "toUnderlying",
          "type": "bool"
        }
      ],
      "name": "withdraw",
      "outputs": [
        {
          "internalType": "uint256",
          "name": "",
          "type": "uint256"
        },
        {
          "internalType": "uint256",
          "name": "",
          "type": "uint256"
        }
      ],
      "stateMutability": "nonpayable",
      "type": "function"
    },
    {
      "inputs": [
        {
          "internalType": "address",
          "name": "",
          "type": "address"
        },
        {
          "internalType": "uint256",
          "name": "",
          "type": "uint256"
        },
        {
          "internalType": "bool",
          "name": "",
          "type": "bool"
        }
      ],
      "name": "withdrawDynamicAmount",
      "outputs": [
        {
          "internalType": "uint256",
          "name": "",
          "type": "uint256"
        },
        {
          "internalType": "uint256",
          "name": "",
          "type": "uint256"
        }
      ],
      "stateMutability": "pure",
      "type": "function"
    }
  ],
  "bytecode": "0x60c06040523480156200001157600080fd5b506040516200154e3803806200154e8339810160408190526200003491620001fb565b838381818160039080519060200190620000509291906200009a565b508051620000669060049060208401906200009a565b50506005805460ff191660121790555050506001600160601b0319606092831b8116608052911b1660a05250620002899050565b828054600181600116156101000203166002900490600052602060002090601f016020900481019282601f10620000dd57805160ff19168380011785556200010d565b828001600101855582156200010d579182015b828111156200010d578251825591602001919060010190620000f0565b506200011b9291506200011f565b5090565b5b808211156200011b576000815560010162000120565b80516001600160a01b03811681146200014e57600080fd5b92915050565b600082601f83011262000165578081fd5b81516001600160401b03808211156200017c578283fd5b6040516020601f8401601f19168201810183811183821017156200019e578586fd5b80604052508194508382528681858801011115620001bb57600080fd5b600092505b83831015620001df5785830181015182840182015291820191620001c0565b83831115620001f15760008185840101525b5050505092915050565b6000806000806080858703121562000211578384fd5b84516001600160401b038082111562000228578586fd5b620002368883890162000154565b955060208701519150808211156200024c578485fd5b506200025b8782880162000154565b9350506200026d866040870162000136565b91506200027e866060870162000136565b905092959194509250565b60805160601c60a05160601c61129b620002b36000398061075b52508061072c525061129b6000f3fe608060405234801561001057600080fd5b50600436106102c85760003560e01c8063602665571161017b578063b3a59022116100d8578063dd05aa121161008c578063ead5d35911610071578063ead5d359146104e0578063ed24911d146103ac578063f57d0b40146103b4576102c8565b8063dd05aa12146104ba578063dd62ed3e146104cd576102c8565b8063bf62bee6116100bd578063bf62bee6146103ac578063c485852b14610494578063d505accf146104a7576102c8565b8063b3a59022146103ac578063b4dcfc771461030b576102c8565b806399248ea71161012f578063a135a55e11610114578063a135a55e146103ac578063a457c2d71461046e578063a9059cbb14610481576102c8565b806399248ea71461030b5780639dc29fac1461045b576102c8565b806370a082311161016057806370a08231146104405780637f372cff146103ac57806395d89b4114610453576102c8565b8063602665571461042d57806369a69e2914610384576102c8565b806331a5cfa41161022957806344b68c3f116101dd5780634800d97f116101c25780634800d97f1461040a578063491c011a1461041257806351c0e06114610425576102c8565b806344b68c3f1461038457806345c1ace7146103f7576102c8565b8063395093511161020e57806339509351146103c75780633eb2eba6146103da57806340c10f19146103e4576102c8565b806331a5cfa4146103ac57806336a5a6d6146103b4576102c8565b8063288587ce116102805780632f2cab87116102655780632f2cab8714610371578063308e401e14610384578063313ce56714610397576102c8565b8063288587ce146103485780632c4e722e14610369576102c8565b806310d0ab22116102b157806310d0ab221461030b57806318160ddd1461032057806323b872dd14610335576102c8565b806306fdde03146102cd578063095ea7b3146102eb575b600080fd5b6102d56104f3565b6040516102e291906111d8565b60405180910390f35b6102fe6102f9366004611043565b6105a8565b6040516102e291906111c4565b6103136105bf565b6040516102e29190611123565b6103286105cc565b6040516102e291906111cf565b6102fe610343366004610e9a565b6105d2565b61035b61035636600461106d565b610633565b6040516102e2929190611249565b610328610649565b61032861037f3660046110a1565b610659565b610328610392366004610e06565b6106a3565b61039f6106b5565b6040516102e29190611257565b6103286105bf565b6103286103c236600461110b565b6105a5565b6102fe6103d5366004611043565b6106be565b6103e2610701565b005b6103e26103f2366004611043565b61070e565b6103e26104053660046110f0565b61071c565b61031361072a565b6103e2610420366004611018565b61074e565b610313610759565b61035b61043b366004610f54565b61077d565b61032861044e366004610e06565b610797565b6102d56107bf565b6103e2610469366004611043565b61083e565b6102fe61047c366004611043565b610848565b6102fe61048f366004611043565b61088e565b6103286104a2366004610ed7565b61089b565b6103e26104b5366004610fa5565b6108b3565b6103e26104c8366004610e55565b6108c7565b6103286104db366004610e21565b6108d7565b61035b6104ee36600461106d565b61090f565b60038054604080516020601f60027fffffffffffffffffffffffffffffffffffffffffffffffffffffffffffffffff61010060018816150201909516949094049384018190048102820181019092528281526060939092909183018282801561059d5780601f106105725761010080835404028352916020019161059d565b820191906000526020600020905b81548152906001019060200180831161058057829003601f168201915b505050505090505b90565b60006105b5338484610964565b5060015b92915050565b60006105a56103e66109d9565b60025490565b60006105df848484610a03565b73ffffffffffffffffffffffffffffffffffffffff8416600090815260016020908152604080832033808552925290912054610629918691610624908661019e610b24565b610964565b5060019392505050565b6000806106416103e66109d9565b935093915050565b6b033b2e3c9fd0803ce800000090565b60007f453f5ceaa8d79b7748d93ffec5a1173bcd603ff626bdd89a7986e213602672a63386868686604051610692959493929190611144565b60405180910390a150919392505050565b60006106b06103e66109d9565b919050565b60055460ff1690565b33600081815260016020908152604080832073ffffffffffffffffffffffffffffffffffffffff8716845290915281205490916105b59185906106249086610b3a565b61070c6103e66109d9565b565b6107188282610b53565b5050565b6107276103e66109d9565b50565b7f000000000000000000000000000000000000000000000000000000000000000090565b6107186103e66109d9565b7f000000000000000000000000000000000000000000000000000000000000000090565b60008061078b6103e66109d9565b97509795505050505050565b73ffffffffffffffffffffffffffffffffffffffff1660009081526020819052604090205490565b60048054604080516020601f60027fffffffffffffffffffffffffffffffffffffffffffffffffffffffffffffffff61010060018816150201909516949094049384018190048102820181019092528281526060939092909183018282801561059d5780601f106105725761010080835404028352916020019161059d565b6107188282610c11565b33600081815260016020908152604080832073ffffffffffffffffffffffffffffffffffffffff8716845290915281205490916105b5918590610624908661019f610b24565b60006105b5338484610a03565b60006108a86103e66109d9565b979650505050505050565b6108be6103e66109d9565b50505050505050565b6108d26103e66109d9565b505050565b73ffffffffffffffffffffffffffffffffffffffff918216600090815260016020908152604080832093909416825291909152205490565b6000807fcccf99d807f7fed9cc525109ed9b8899ad8b2cdd7ab053190ccdf7c977dcaf6133868661093f886105a5565b87604051610951959493929190611186565b60405180910390a1509193849350915050565b73ffffffffffffffffffffffffffffffffffffffff80841660008181526001602090815260408083209487168084529490915290819020849055517f8c5be1e5ebec7d5bd14f71427d1e84f3dd0314c0f7b2291e5b200ac8c7c3b925906109cc9085906111cf565b60405180910390a3505050565b610727817f42414c0000000000000000000000000000000000000000000000000000000000610d0d565b610a2773ffffffffffffffffffffffffffffffffffffffff84161515610198610d88565b610a4b73ffffffffffffffffffffffffffffffffffffffff83161515610199610d88565b610a568383836108d2565b73ffffffffffffffffffffffffffffffffffffffff8316600090815260208190526040902054610a8990826101a0610b24565b73ffffffffffffffffffffffffffffffffffffffff8085166000908152602081905260408082209390935590841681522054610ac59082610b3a565b73ffffffffffffffffffffffffffffffffffffffff80841660008181526020819052604090819020939093559151908516907fddf252ad1be2c89b69c2b068fc378daa952ba7f163c4a11628f55a4df523b3ef906109cc9085906111cf565b6000610b338484111583610d88565b5050900390565b6000828201610b4c8482101583610d88565b9392505050565b610b5f600083836108d2565b610b79610b7482610b6e6105cc565b90610b3a565b610d96565b73ffffffffffffffffffffffffffffffffffffffff8216600090815260208190526040902054610ba99082610b3a565b73ffffffffffffffffffffffffffffffffffffffff83166000818152602081905260408082209390935591519091907fddf252ad1be2c89b69c2b068fc378daa952ba7f163c4a11628f55a4df523b3ef90610c059085906111cf565b60405180910390a35050565b610c3573ffffffffffffffffffffffffffffffffffffffff8316151561019b610d88565b610c41826000836108d2565b73ffffffffffffffffffffffffffffffffffffffff8216600090815260208190526040902054610c7490826101b2610b24565b73ffffffffffffffffffffffffffffffffffffffff8316600090815260208190526040902055610caf610b7482610ca96105cc565b90610d9b565b600073ffffffffffffffffffffffffffffffffffffffff168273ffffffffffffffffffffffffffffffffffffffff167fddf252ad1be2c89b69c2b068fc378daa952ba7f163c4a11628f55a4df523b3ef83604051610c0591906111cf565b7f08c379a000000000000000000000000000000000000000000000000000000000600090815260206004526007602452600a808404818106603090810160081b958390069590950190829004918206850160101b01602363ffffff0060e086901c160160181b0190930160c81b60445260e882901c90606490fd5b8161071857610718816109d9565b600255565b6000610b4c83836001610b24565b803573ffffffffffffffffffffffffffffffffffffffff811681146105b957600080fd5b803580151581146105b957600080fd5b600060608284031215610dee578081fd5b50919050565b803561ffff811681146105b957600080fd5b600060208284031215610e17578081fd5b610b4c8383610da9565b60008060408385031215610e33578081fd5b610e3d8484610da9565b9150610e4c8460208501610da9565b90509250929050565b600080600060608486031215610e69578081fd5b610e738585610da9565b9250610e828560208601610da9565b9150610e918560408601610dcd565b90509250925092565b600080600060608486031215610eae578283fd5b610eb88585610da9565b9250610ec78560208601610da9565b9150604084013590509250925092565b6000806000806000806000610120888a031215610ef2578283fd5b610efc8989610da9565b9650610f0b8960208a01610da9565b955060408801359450610f218960608a01610df4565b9350610f308960808a01610dcd565b925060a08801359150610f468960c08a01610ddd565b905092959891949750929550565b6000806000806000806000610120888a031215610f6f578283fd5b610f798989610da9565b9650610f888960208a01610da9565b95506040880135945060608801359350610f308960808a01610dcd565b600080600080600080600060e0888a031215610fbf578283fd5b610fc98989610da9565b9650610fd88960208a01610da9565b95506040880135945060608801359350608088013560ff81168114610ffb578384fd5b9699959850939692959460a0840135945060c09093013592915050565b6000806040838503121561102a578182fd5b6110348484610da9565b9150610e4c8460208501610dcd565b60008060408385031215611055578182fd5b61105f8484610da9565b946020939093013593505050565b600080600060608486031215611081578081fd5b61108b8585610da9565b925060208401359150610e918560408601610dcd565b600080600080608085870312156110b6578182fd5b6110c08686610da9565b9350602085013592506110d68660408701610df4565b91506110e58660608701610dcd565b905092959194509250565b600060208284031215611101578081fd5b610b4c8383610dcd565b60006020828403121561111c578081fd5b5035919050565b73ffffffffffffffffffffffffffffffffffffffff91909116815260200190565b73ffffffffffffffffffffffffffffffffffffffff9586168152939094166020840152604083019190915261ffff166060820152901515608082015260a00190565b73ffffffffffffffffffffffffffffffffffffffff958616815293909416602084015260408301919091526060820152901515608082015260a00190565b901515815260200190565b90815260200190565b6000602080835283518082850152825b81811015611204578581018301518582016040015282016111e8565b818111156112155783604083870101525b50601f017fffffffffffffffffffffffffffffffffffffffffffffffffffffffffffffffe016929092016040019392505050565b918252602082015260400190565b60ff9190911681526020019056fea26469706673582212202426ae069b4e73711d4fd379880222c176c3ffdb05e2a4c4a523cc10699d351764736f6c63430007010033",
  "linkReferences": {},
  "deployedLinkReferences": {}
}