{
  "_format": "hh-sol-artifact-1",
  "contractName": "MockRevertingRateProvider",
  "sourceName": "contracts/test/MockRevertingRateProvider.sol",
  "abi": [
    {
      "inputs": [],
      "stateMutability": "nonpayable",
      "type": "constructor"
    },
    {
      "inputs": [],
      "name": "getRate",
      "outputs": [
        {
          "internalType": "uint256",
          "name": "",
          "type": "uint256"
        }
      ],
      "stateMutability": "view",
      "type": "function"
    },
    {
      "inputs": [
        {
          "internalType": "bool",
          "name": "revertOnGetRate",
          "type": "bool"
        }
      ],
      "name": "setRevertOnGetRate",
      "outputs": [],
      "stateMutability": "nonpayable",
      "type": "function"
    }
  ],
  "bytecode": "0x608060405234801561001057600080fd5b50670de0b6b3a76400006000556001805460ff19169055610159806100366000396000f3fe608060405234801561001057600080fd5b50600436106100365760003560e01c8063679aefce1461003b578063fa38825c14610055575b600080fd5b610043610076565b60408051918252519081900360200190f35b6100746004803603602081101561006b57600080fd5b503515156100f2565b005b60015460009060ff16156100eb57604080517f08c379a000000000000000000000000000000000000000000000000000000000815260206004820152600e60248201527f6765745261746520726576657274000000000000000000000000000000000000604482015290519081900360640190fd5b5060005490565b600180547fffffffffffffffffffffffffffffffffffffffffffffffffffffffffffffff001691151591909117905556fea2646970667358221220707f1ff9173988b5132beaf6e46826019ed77871e6b2d6a80ea334959b1dd8f264736f6c63430007010033",
  "linkReferences": {},
  "deployedLinkReferences": {}
}