{
  "_format": "hh-sol-artifact-1",
  "contractName": "MockSilo",
  "sourceName": "contracts/test/MockSilo.sol",
  "abi": [
    {
      "inputs": [
        {
          "internalType": "address",
          "name": "_siloAsset",
          "type": "address"
        }
      ],
      "stateMutability": "nonpayable",
      "type": "constructor"
    },
    {
      "inputs": [
        {
          "internalType": "address",
          "name": "_asset",
          "type": "address"
        }
      ],
      "name": "assetStorage",
      "outputs": [
        {
          "components": [
            {
              "internalType": "contract IShareToken",
              "name": "collateralToken",
              "type": "address"
            },
            {
              "internalType": "contract IShareToken",
              "name": "collateralOnlyToken",
              "type": "address"
            },
            {
              "internalType": "contract IShareToken",
              "name": "debtToken",
              "type": "address"
            },
            {
              "internalType": "uint256",
              "name": "totalDeposits",
              "type": "uint256"
            },
            {
              "internalType": "uint256",
              "name": "collateralOnlyDeposits",
              "type": "uint256"
            },
            {
              "internalType": "uint256",
              "name": "totalBorrowAmount",
              "type": "uint256"
            }
          ],
          "internalType": "struct IBaseSilo.AssetStorage",
          "name": "",
          "type": "tuple"
        }
      ],
      "stateMutability": "view",
      "type": "function"
    },
    {
      "inputs": [
        {
          "internalType": "address",
          "name": "_asset",
          "type": "address"
        },
        {
          "internalType": "address",
          "name": "_depositor",
          "type": "address"
        },
        {
          "internalType": "uint256",
          "name": "_amount",
          "type": "uint256"
        },
        {
          "internalType": "bool",
          "name": "",
          "type": "bool"
        }
      ],
      "name": "depositFor",
      "outputs": [
        {
          "internalType": "uint256",
          "name": "collateralAmount",
          "type": "uint256"
        },
        {
          "internalType": "uint256",
          "name": "collateralShare",
          "type": "uint256"
        }
      ],
      "stateMutability": "nonpayable",
      "type": "function"
    },
    {
      "inputs": [],
      "name": "rate",
      "outputs": [
        {
          "internalType": "uint256",
          "name": "",
          "type": "uint256"
        }
      ],
      "stateMutability": "view",
      "type": "function"
    },
    {
      "inputs": [
        {
          "internalType": "address",
          "name": "interestBearingAsset",
          "type": "address"
        },
        {
          "internalType": "contract IShareToken",
          "name": "collateralToken",
          "type": "address"
        },
        {
          "internalType": "contract IShareToken",
          "name": "collateralOnlyToken",
          "type": "address"
        },
        {
          "internalType": "contract IShareToken",
          "name": "debtToken",
          "type": "address"
        },
        {
          "internalType": "uint256",
          "name": "totalDeposits",
          "type": "uint256"
        },
        {
          "internalType": "uint256",
          "name": "collateralOnlyDeposits",
          "type": "uint256"
        },
        {
          "internalType": "uint256",
          "name": "totalBorrowAmount",
          "type": "uint256"
        }
      ],
      "name": "setAssetStorage",
      "outputs": [],
      "stateMutability": "nonpayable",
      "type": "function"
    },
    {
      "inputs": [
        {
          "internalType": "uint256",
          "name": "_rate",
          "type": "uint256"
        }
      ],
      "name": "setRate",
      "outputs": [],
      "stateMutability": "nonpayable",
      "type": "function"
    },
    {
      "inputs": [
        {
          "internalType": "uint256",
          "name": "_amount",
          "type": "uint256"
        }
      ],
      "name": "sharesToUnderlying",
      "outputs": [
        {
          "internalType": "uint256",
          "name": "",
          "type": "uint256"
        }
      ],
      "stateMutability": "view",
      "type": "function"
    },
    {
      "inputs": [
        {
          "internalType": "uint256",
          "name": "_amount",
          "type": "uint256"
        }
      ],
      "name": "underlyingToShares",
      "outputs": [
        {
          "internalType": "uint256",
          "name": "",
          "type": "uint256"
        }
      ],
      "stateMutability": "view",
      "type": "function"
    },
    {
      "inputs": [
        {
          "internalType": "address",
          "name": "_asset",
          "type": "address"
        },
        {
          "internalType": "uint256",
          "name": "_amount",
          "type": "uint256"
        },
        {
          "internalType": "bool",
          "name": "",
          "type": "bool"
        }
      ],
      "name": "withdraw",
      "outputs": [
        {
          "internalType": "uint256",
          "name": "withdrawnAmount",
          "type": "uint256"
        },
        {
          "internalType": "uint256",
          "name": "withdrawnShare",
          "type": "uint256"
        }
      ],
      "stateMutability": "nonpayable",
      "type": "function"
    }
  ],
  "bytecode": "0x60a060405234801561001057600080fd5b50604051610c63380380610c6383398101604081905261002f91610050565b60601b6001600160601b031916608052671bc16d674ec8000060015561007e565b600060208284031215610061578081fd5b81516001600160a01b0381168114610077578182fd5b9392505050565b60805160601c610bcd61009660003950610bcd6000f3fe608060405234801561001057600080fd5b50600436106100885760003560e01c8063bf2730411161005b578063bf273041146100e6578063ead5d35914610106578063f3e7387514610127578063fbf178db1461013a57610088565b80632c4e722e1461008d57806334fcf437146100ab578063686196d0146100c05780638c871019146100d3575b600080fd5b61009561014d565b6040516100a29190610b50565b60405180910390f35b6100be6100b9366004610a0f565b610153565b005b6100be6100ce36600461093c565b610158565b6100956100e1366004610a0f565b61022b565b6100f96100f43660046108c7565b610248565b6040516100a29190610af0565b6101196101143660046109b2565b6102c6565b6040516100a2929190610b59565b610095610135366004610a0f565b61048e565b6101196101483660046108ea565b6104a5565b60015481565b600155565b61016061084f565b506040805160c08101825273ffffffffffffffffffffffffffffffffffffffff97881681529587166020808801918252958816878301908152606088019586526080880194855260a088019384529888166000908152958690529420945185549087167fffffffffffffffffffffffff0000000000000000000000000000000000000000918216178655935160018601805491881691861691909117905595516002850180549190961693169290921790935591516003820155905160048201559051600590910155565b60006102426001548361059590919063ffffffff16565b92915050565b61025061084f565b5073ffffffffffffffffffffffffffffffffffffffff90811660009081526020818152604091829020825160c0810184528154851681526001820154851692810192909252600281015490931691810191909152600382015460608201526004820154608082015260059091015460a082015290565b73ffffffffffffffffffffffffffffffffffffffff8084166000908152602081905260408120549091829116817fffffffffffffffffffffffffffffffffffffffffffffffffffffffffffffffff8614156103cf576040517f70a0823100000000000000000000000000000000000000000000000000000000815273ffffffffffffffffffffffffffffffffffffffff8316906370a082319061036d903390600401610a78565b60206040518083038186803b15801561038557600080fd5b505afa158015610399573d6000803e3d6000fd5b505050506040513d601f19601f820116820180604052508101906103bd9190610a27565b90506103c88161048e565b95506103db565b6103d88661022b565b90505b6040517f7c602bc200000000000000000000000000000000000000000000000000000000815273ffffffffffffffffffffffffffffffffffffffff831690637c602bc29061042f9033908590600401610a99565b600060405180830381600087803b15801561044957600080fd5b505af115801561045d573d6000803e3d6000fd5b506104839250505073ffffffffffffffffffffffffffffffffffffffff881633886105e8565b949694955050505050565b60006102426001548361068e90919063ffffffff16565b6000806104ca73ffffffffffffffffffffffffffffffffffffffff87163330876106c1565b73ffffffffffffffffffffffffffffffffffffffff808716600090815260208190526040812054909116906104fe8661022b565b6040517f40c10f1900000000000000000000000000000000000000000000000000000000815290915073ffffffffffffffffffffffffffffffffffffffff8316906340c10f1990610555908a908590600401610a99565b600060405180830381600087803b15801561056f57600080fd5b505af1158015610583573d6000803e3d6000fd5b50979a92995091975050505050505050565b60006105a482151560046106e8565b670de0b6b3a764000083026105d68415806105cf5750670de0b6b3a76400008583816105cc57fe5b04145b60056106e8565b8281816105df57fe5b04949350505050565b6106898363a9059cbb60e01b8484604051602401610607929190610a99565b604080517fffffffffffffffffffffffffffffffffffffffffffffffffffffffffffffffe08184030181529190526020810180517bffffffffffffffffffffffffffffffffffffffffffffffffffffffff167fffffffff00000000000000000000000000000000000000000000000000000000909316929092179091526106fa565b505050565b60008282026106b28415806106ab5750838583816106a857fe5b04145b60036106e8565b670de0b6b3a7640000816105df565b6106e2846323b872dd60e01b85858560405160240161060793929190610abf565b50505050565b816106f6576106f6816107a7565b5050565b600060608373ffffffffffffffffffffffffffffffffffffffff16836040516107239190610a3f565b6000604051808303816000865af19150503d8060008114610760576040519150601f19603f3d011682016040523d82523d6000602084013e610765565b606091505b5091509150600082141561077d573d6000803e3d6000fd5b6106e281516000148061079f57508180602001905181019061079f91906109f3565b6101a26106e8565b6107d1817f42414c00000000000000000000000000000000000000000000000000000000006107d4565b50565b7f08c379a000000000000000000000000000000000000000000000000000000000600090815260206004526007602452600a808404818106603090810160081b958390069590950190829004918206850160101b01602363ffffff0060e086901c160160181b0190930160c81b60445260e882901c90606490fd5b6040518060c00160405280600073ffffffffffffffffffffffffffffffffffffffff168152602001600073ffffffffffffffffffffffffffffffffffffffff168152602001600073ffffffffffffffffffffffffffffffffffffffff1681526020016000815260200160008152602001600081525090565b6000602082840312156108d8578081fd5b81356108e381610b67565b9392505050565b600080600080608085870312156108ff578283fd5b843561090a81610b67565b9350602085013561091a81610b67565b925060408501359150606085013561093181610b89565b939692955090935050565b600080600080600080600060e0888a031215610956578283fd5b873561096181610b67565b9650602088013561097181610b67565b9550604088013561098181610b67565b9450606088013561099181610b67565b9699959850939660808101359560a0820135955060c0909101359350915050565b6000806000606084860312156109c6578283fd5b83356109d181610b67565b92506020840135915060408401356109e881610b89565b809150509250925092565b600060208284031215610a04578081fd5b81516108e381610b89565b600060208284031215610a20578081fd5b5035919050565b600060208284031215610a38578081fd5b5051919050565b60008251815b81811015610a5f5760208186018101518583015201610a45565b81811115610a6d5782828501525b509190910192915050565b73ffffffffffffffffffffffffffffffffffffffff91909116815260200190565b73ffffffffffffffffffffffffffffffffffffffff929092168252602082015260400190565b73ffffffffffffffffffffffffffffffffffffffff9384168152919092166020820152604081019190915260600190565b600060c08201905073ffffffffffffffffffffffffffffffffffffffff80845116835280602085015116602084015280604085015116604084015250606083015160608301526080830151608083015260a083015160a083015292915050565b90815260200190565b918252602082015260400190565b73ffffffffffffffffffffffffffffffffffffffff811681146107d157600080fd5b80151581146107d157600080fdfea26469706673582212205b69feb403d29a0c5431e2d13cc02e5caa3146877b06480cb117a26a62f74cff64736f6c63430007010033",
  "linkReferences": {},
  "deployedLinkReferences": {}
}