{
  "_format": "hh-sol-artifact-1",
  "contractName": "MockBaseSilo",
  "sourceName": "contracts/test/MockSilo.sol",
  "abi": [
    {
      "inputs": [
        {
          "internalType": "address",
          "name": "siloAsset",
          "type": "address"
        }
      ],
      "stateMutability": "nonpayable",
      "type": "constructor"
    },
    {
      "inputs": [
        {
          "internalType": "address",
          "name": "_asset",
          "type": "address"
        }
      ],
      "name": "assetStorage",
      "outputs": [
        {
          "components": [
            {
              "internalType": "contract IShareToken",
              "name": "collateralToken",
              "type": "address"
            },
            {
              "internalType": "contract IShareToken",
              "name": "collateralOnlyToken",
              "type": "address"
            },
            {
              "internalType": "contract IShareToken",
              "name": "debtToken",
              "type": "address"
            },
            {
              "internalType": "uint256",
              "name": "totalDeposits",
              "type": "uint256"
            },
            {
              "internalType": "uint256",
              "name": "collateralOnlyDeposits",
              "type": "uint256"
            },
            {
              "internalType": "uint256",
              "name": "totalBorrowAmount",
              "type": "uint256"
            }
          ],
          "internalType": "struct IBaseSilo.AssetStorage",
          "name": "",
          "type": "tuple"
        }
      ],
      "stateMutability": "view",
      "type": "function"
    },
    {
      "inputs": [
        {
          "internalType": "address",
          "name": "interestBearingAsset",
          "type": "address"
        },
        {
          "internalType": "contract IShareToken",
          "name": "collateralToken",
          "type": "address"
        },
        {
          "internalType": "contract IShareToken",
          "name": "collateralOnlyToken",
          "type": "address"
        },
        {
          "internalType": "contract IShareToken",
          "name": "debtToken",
          "type": "address"
        },
        {
          "internalType": "uint256",
          "name": "totalDeposits",
          "type": "uint256"
        },
        {
          "internalType": "uint256",
          "name": "collateralOnlyDeposits",
          "type": "uint256"
        },
        {
          "internalType": "uint256",
          "name": "totalBorrowAmount",
          "type": "uint256"
        }
      ],
      "name": "setAssetStorage",
      "outputs": [],
      "stateMutability": "nonpayable",
      "type": "function"
    }
  ],
  "bytecode": "0x60a060405234801561001057600080fd5b5060405161042038038061042083398101604081905261002f91610044565b60601b6001600160601b031916608052610072565b600060208284031215610055578081fd5b81516001600160a01b038116811461006b578182fd5b9392505050565b60805160601c61039661008a600039506103966000f3fe608060405234801561001057600080fd5b50600436106100365760003560e01c8063686196d01461003b578063bf27304114610050575b600080fd5b61004e610049366004610265565b610079565b005b61006361005e366004610242565b61014c565b60405161007091906102db565b60405180910390f35b6100816101ca565b506040805160c08101825273ffffffffffffffffffffffffffffffffffffffff97881681529587166020808801918252958816878301908152606088019586526080880194855260a088019384529888166000908152958690529420945185549087167fffffffffffffffffffffffff0000000000000000000000000000000000000000918216178655935160018601805491881691861691909117905595516002850180549190961693169290921790935591516003820155905160048201559051600590910155565b6101546101ca565b5073ffffffffffffffffffffffffffffffffffffffff90811660009081526020818152604091829020825160c0810184528154851681526001820154851692810192909252600281015490931691810191909152600382015460608201526004820154608082015260059091015460a082015290565b6040518060c00160405280600073ffffffffffffffffffffffffffffffffffffffff168152602001600073ffffffffffffffffffffffffffffffffffffffff168152602001600073ffffffffffffffffffffffffffffffffffffffff1681526020016000815260200160008152602001600081525090565b600060208284031215610253578081fd5b813561025e8161033b565b9392505050565b600080600080600080600060e0888a03121561027f578283fd5b873561028a8161033b565b9650602088013561029a8161033b565b955060408801356102aa8161033b565b945060608801356102ba8161033b565b9699959850939660808101359560a0820135955060c0909101359350915050565b600060c08201905073ffffffffffffffffffffffffffffffffffffffff80845116835280602085015116602084015280604085015116604084015250606083015160608301526080830151608083015260a083015160a083015292915050565b73ffffffffffffffffffffffffffffffffffffffff8116811461035d57600080fd5b5056fea2646970667358221220757b63ab0ca6def8ec3d54e1b1f3728058ce667ae9dc8c07f2b6c62880e72bec64736f6c63430007010033",
  "linkReferences": {},
  "deployedLinkReferences": {}
}