{
  "_format": "hh-sol-artifact-1",
  "contractName": "MockExternalCaller",
  "sourceName": "contracts/test/MockExternalCaller.sol",
  "abi": [
    {
      "inputs": [
        {
          "internalType": "contract MaliciousQueryReverter",
          "name": "callee",
          "type": "address"
        }
      ],
      "stateMutability": "nonpayable",
      "type": "constructor"
    },
    {
      "inputs": [],
      "name": "protectedExternalCall",
      "outputs": [],
      "stateMutability": "payable",
      "type": "function"
    },
    {
      "inputs": [],
      "name": "unprotectedExternalCall",
      "outputs": [],
      "stateMutability": "payable",
      "type": "function"
    }
  ],
  "bytecode": "0x608060405234801561001057600080fd5b5060405161032d38038061032d8339818101604052602081101561003357600080fd5b5051600080546001600160a01b039092166001600160a01b03199092169190911790556102c8806100656000396000f3fe6080604052600436106100295760003560e01c8063889cf0c41461002e578063f099667114610038575b600080fd5b610036610040565b005b6100366100c0565b60008054604080517f29478cb4000000000000000000000000000000000000000000000000000000008152905173ffffffffffffffffffffffffffffffffffffffff909216926329478cb492600480840193829003018186803b1580156100a657600080fd5b505afa1580156100ba573d6000803e3d6000fd5b50505050565b60008054604080517f29478cb4000000000000000000000000000000000000000000000000000000008152905173ffffffffffffffffffffffffffffffffffffffff909216926329478cb492600480840193829003018186803b15801561012657600080fd5b505afa925050508015610137575060015b610176573d808015610165576040519150601f19603f3d011682016040523d82523d6000602084013e61016a565b606091505b5061017481610178565b505b565b805160208201517fffffffff00000000000000000000000000000000000000000000000000000000167f43adbafb0000000000000000000000000000000000000000000000000000000081147ffa61cc12000000000000000000000000000000000000000000000000000000008214176101f3578160208401fd5b506101ff610165610203565b5050565b7f08c379a000000000000000000000000000000000000000000000000000000000600090815260206004526007602452600a808304818106603090810160081b83860601918390049283060160101b016642414c230000300160c81b604452610174917f42414c0000000000000000000000000000000000000000000000000000000000906242414c90606490fdfea26469706673582212206cc8f05d2e368e0deedd2adce7849c1f57241ade989620257bdb75a80b8f868764736f6c63430007010033",
  "linkReferences": {},
  "deployedLinkReferences": {}
}