{
  "_format": "hh-sol-artifact-1",
  "contractName": "MockProtocolFeeCache",
  "sourceName": "contracts/test/MockProtocolFeeCache.sol",
  "abi": [
    {
      "inputs": [
        {
          "internalType": "contract IVault",
          "name": "vault",
          "type": "address"
        },
        {
          "internalType": "contract IProtocolFeePercentagesProvider",
          "name": "protocolFeeProvider",
          "type": "address"
        },
        {
          "components": [
            {
              "internalType": "uint256",
              "name": "swap",
              "type": "uint256"
            },
            {
              "internalType": "uint256",
              "name": "yield",
              "type": "uint256"
            },
            {
              "internalType": "uint256",
              "name": "aum",
              "type": "uint256"
            }
          ],
          "internalType": "struct ProtocolFeeCache.ProviderFeeIDs",
          "name": "providerFeeIDs",
          "type": "tuple"
        }
      ],
      "stateMutability": "nonpayable",
      "type": "constructor"
    },
    {
      "anonymous": false,
      "inputs": [
        {
          "indexed": false,
          "internalType": "uint256",
          "name": "swap",
          "type": "uint256"
        },
        {
          "indexed": false,
          "internalType": "uint256",
          "name": "yield",
          "type": "uint256"
        },
        {
          "indexed": false,
          "internalType": "uint256",
          "name": "aum",
          "type": "uint256"
        }
      ],
      "name": "FeesInBeforeHook",
      "type": "event"
    },
    {
      "anonymous": false,
      "inputs": [
        {
          "indexed": false,
          "internalType": "bytes32",
          "name": "feeCache",
          "type": "bytes32"
        }
      ],
      "name": "ProtocolFeePercentageCacheUpdated",
      "type": "event"
    },
    {
      "anonymous": false,
      "inputs": [
        {
          "indexed": false,
          "internalType": "bool",
          "name": "enabled",
          "type": "bool"
        }
      ],
      "name": "RecoveryModeStateChanged",
      "type": "event"
    },
    {
      "inputs": [],
      "name": "disableRecoveryMode",
      "outputs": [],
      "stateMutability": "nonpayable",
      "type": "function"
    },
    {
      "inputs": [],
      "name": "enableRecoveryMode",
      "outputs": [],
      "stateMutability": "nonpayable",
      "type": "function"
    },
    {
      "inputs": [
        {
          "internalType": "bytes4",
          "name": "selector",
          "type": "bytes4"
        }
      ],
      "name": "getActionId",
      "outputs": [
        {
          "internalType": "bytes32",
          "name": "",
          "type": "bytes32"
        }
      ],
      "stateMutability": "view",
      "type": "function"
    },
    {
      "inputs": [],
      "name": "getAuthorizer",
      "outputs": [
        {
          "internalType": "contract IAuthorizer",
          "name": "",
          "type": "address"
        }
      ],
      "stateMutability": "view",
      "type": "function"
    },
    {
      "inputs": [],
      "name": "getOwner",
      "outputs": [
        {
          "internalType": "address",
          "name": "",
          "type": "address"
        }
      ],
      "stateMutability": "view",
      "type": "function"
    },
    {
      "inputs": [
        {
          "internalType": "uint256",
          "name": "feeType",
          "type": "uint256"
        }
      ],
      "name": "getProtocolFeePercentageCache",
      "outputs": [
        {
          "internalType": "uint256",
          "name": "",
          "type": "uint256"
        }
      ],
      "stateMutability": "view",
      "type": "function"
    },
    {
      "inputs": [
        {
          "internalType": "uint256",
          "name": "feeType",
          "type": "uint256"
        }
      ],
      "name": "getProviderFeeId",
      "outputs": [
        {
          "internalType": "uint256",
          "name": "",
          "type": "uint256"
        }
      ],
      "stateMutability": "view",
      "type": "function"
    },
    {
      "inputs": [],
      "name": "inRecoveryMode",
      "outputs": [
        {
          "internalType": "bool",
          "name": "",
          "type": "bool"
        }
      ],
      "stateMutability": "view",
      "type": "function"
    },
    {
      "inputs": [],
      "name": "updateProtocolFeePercentageCache",
      "outputs": [],
      "stateMutability": "nonpayable",
      "type": "function"
    },
    {
      "inputs": [],
      "name": "vault",
      "outputs": [
        {
          "internalType": "contract IVault",
          "name": "",
          "type": "address"
        }
      ],
      "stateMutability": "view",
      "type": "function"
    }
  ],
  "bytecode": "0x6101206040523480156200001257600080fd5b506040516200125938038062001259833981016040819052620000359162000488565b3060805233606090811b60a05283811b6001600160601b031990811660c0529083901b1660e0526040810151839083908390600090620000859060106008620000e7602090811b620003d417901c565b620000a6836020015160086000016008620000e760201b620003d41760201c565b620000c4846000015160006008620000e760201b620003d41760201c565b17176101008190529050620000da8382620000fc565b5050505050505062000555565b6000620000f684848462000382565b50501b90565b6000826001600160a01b0316631a7c32636200012b6000600886620003e260201b620003e7179092919060201c565b6040518263ffffffff1660e01b815260040162000149919062000536565b60206040518083038186803b1580156200016257600080fd5b505afa15801562000177573d6000803e3d6000fd5b505050506040513d601f19601f820116820180604052508101906200019d91906200051d565b905060006001600160a01b038416631a7c3263620001ca85600880620003e2602090811b620003e717901c565b6040518263ffffffff1660e01b8152600401620001e8919062000536565b60206040518083038186803b1580156200020157600080fd5b505afa15801562000216573d6000803e3d6000fd5b505050506040513d601f19601f820116820180604052508101906200023c91906200051d565b905060006001600160a01b038516631a7c32636200026a8660106008620003e2602090811b620003e717901c565b6040518263ffffffff1660e01b815260040162000288919062000536565b60206040518083038186803b158015620002a157600080fd5b505afa158015620002b6573d6000803e3d6000fd5b505050506040513d601f19601f82011682018060405250810190620002dc91906200051d565b90506000620002ff82604080600001016040620000e760201b620003d41760201c565b6200031c8460406000016040620000e760201b620003d41760201c565b620003368660006040620000e760201b620003d41760201c565b17179050806000819055507fc3f0acc358200d8e08ac6ce20bc2f9f27893a344f813bf682b7859b3e521502e8160405162000372919062000536565b60405180910390a1505050505050565b6200039361010083106064620003f1565b620003cc60018210158015620003c45750620003c060ff84610100036200040660201b620004141760201c565b8211155b6064620003f1565b620003dd83821c156101b4620003f1565b505050565b6001901b6000190191901c1690565b816200040257620004028162000412565b5050565b80820390821102900390565b62000424816210905360ea1b62000427565b50565b62461bcd60e51b600090815260206004526007602452600a808404818106603090810160081b958390069590950190829004918206850160101b01602363ffffff0060e086901c160160181b0190930160c81b60445260e882901c90606490fd5b600080600083850360a08112156200049e578384fd5b8451620004ab816200053f565b6020860151909450620004be816200053f565b92506060603f1982011215620004d2578182fd5b50604051606081016001600160401b0381118282101715620004f2578283fd5b8060405250604085015181526060850151602082015260808501516040820152809150509250925092565b6000602082840312156200052f578081fd5b5051919050565b90815260200190565b6001600160a01b03811681146200042457600080fd5b60805160a05160601c60c05160601c60e05160601c61010051610cb6620005a3600039806101a4528061020c5250806101835250806104225250806103465250806102f65250610cb66000f3fe608060405234801561001057600080fd5b50600436106100be5760003560e01c8063893d20e811610076578063b35056b81161005b578063b35056b814610141578063b7b814fc14610156578063fbfa77cf1461015e576100be565b8063893d20e814610124578063aaabadc514610139576100be565b806354a844ba116100a757806354a844ba146100f657806370464016146100fe578063851c1bb314610111576100be565b80630da0669c146100c35780634df77ce0146100cd575b600080fd5b6100cb610166565b005b6100e06100db366004610af8565b6101ca565b6040516100ed9190610c35565b60405180910390f35b6100cb61023c565b6100e061010c366004610af8565b610290565b6100e061011f366004610ab8565b6102f2565b61012c610344565b6040516100ed9190610b72565b61012c610368565b610149610377565b6040516100ed9190610c2a565b6100cb610380565b61012c6103ca565b610176610171610420565b610444565b61017e610503565b6101c87f00000000000000000000000000000000000000000000000000000000000000007f0000000000000000000000000000000000000000000000000000000000000000610551565b565b600080826101da57506000610207565b60028314156101eb57506008610207565b60038314156101fc57506010610207565b6102076101bb61078c565b6102337f00000000000000000000000000000000000000000000000000000000000000008260086103e7565b9150505b919050565b6102446107b9565b61024c6107ff565b6102566001610813565b7feff3d4d215b42bf0960be9c6d5e05c22cba4df6627a3a523e2acee733b5854c860016040516102869190610c2a565b60405180910390a1565b600061029a610377565b156102a757506000610237565b6000826102b6575060006102e3565b60028314156102c7575060406102e3565b60038314156102d8575060806102e3565b6102e36101bb61078c565b600054610233908260406103e7565b60007f000000000000000000000000000000000000000000000000000000000000000082604051602001610327929190610b42565b604051602081830303815290604052805190602001209050919050565b7f000000000000000000000000000000000000000000000000000000000000000090565b6000610372610844565b905090565b60015460ff1690565b6103886107b9565b610390610849565b61039a6000610813565b7feff3d4d215b42bf0960be9c6d5e05c22cba4df6627a3a523e2acee733b5854c860006040516102869190610c2a565b6000610372610420565b60006103e184848461085c565b50501b90565b6001901b7fffffffffffffffffffffffffffffffffffffffffffffffffffffffffffffffff0191901c1690565b80820390821102900390565b7f000000000000000000000000000000000000000000000000000000000000000090565b60408051600080825260208201909252606091610477565b610464610a61565b81526020019060019003908161045c5790505b506040517f0e8e3e8400000000000000000000000000000000000000000000000000000000815290915073ffffffffffffffffffffffffffffffffffffffff831690630e8e3e84906104cd908490600401610b93565b600060405180830381600087803b1580156104e757600080fd5b505af11580156104fb573d6000803e3d6000fd5b505050505050565b7f9f41eccee4205bc754af44e73f0e2f3ed709cf812c29ad1f654485c51d0c66be61052e6000610290565b6105386002610290565b6105426003610290565b60405161028693929190610c6a565b600073ffffffffffffffffffffffffffffffffffffffff8316631a7c326361057b848460086103e7565b6040518263ffffffff1660e01b81526004016105979190610c35565b60206040518083038186803b1580156105af57600080fd5b505afa1580156105c3573d6000803e3d6000fd5b505050506040513d601f19601f820116820180604052508101906105e79190610b10565b9050600073ffffffffffffffffffffffffffffffffffffffff8416631a7c3263610613856008806103e7565b6040518263ffffffff1660e01b815260040161062f9190610c35565b60206040518083038186803b15801561064757600080fd5b505afa15801561065b573d6000803e3d6000fd5b505050506040513d601f19601f8201168201806040525081019061067f9190610b10565b9050600073ffffffffffffffffffffffffffffffffffffffff8516631a7c32636106ac86601060086103e7565b6040518263ffffffff1660e01b81526004016106c89190610c35565b60206040518083038186803b1580156106e057600080fd5b505afa1580156106f4573d6000803e3d6000fd5b505050506040513d601f19601f820116820180604052508101906107189190610b10565b9050600061072982608060406103d4565b610735846040806103d4565b61074286600060406103d4565b17179050806000819055507fc3f0acc358200d8e08ac6ce20bc2f9f27893a344f813bf682b7859b3e521502e8160405161077c9190610c35565b60405180910390a1505050505050565b6107b6817f42414c00000000000000000000000000000000000000000000000000000000006108a8565b50565b60006107e86000357fffffffff00000000000000000000000000000000000000000000000000000000166102f2565b90506107b66107f78233610923565b610191610a49565b6101c861080a610377565b156101b5610a49565b600180547fffffffffffffffffffffffffffffffffffffffffffffffffffffffffffffff0016911515919091179055565b600090565b6101c8610854610377565b6101b6610a49565b61086b61010083106064610a49565b6108946001821015801561088d575061088960ff8461010003610414565b8211155b6064610a49565b6108a383821c156101b4610a49565b505050565b7f08c379a000000000000000000000000000000000000000000000000000000000600090815260206004526007602452600a808404818106603090810160081b958390069590950190829004918206850160101b01602363ffffff0060e086901c160160181b0190930160c81b60445260e882901c90606490fd5b600073ba1ba1ba1ba1ba1ba1ba1ba1ba1ba1ba1ba1ba1b610942610344565b73ffffffffffffffffffffffffffffffffffffffff161415801561096a575061096a83610a5b565b156109ac57610977610344565b73ffffffffffffffffffffffffffffffffffffffff163373ffffffffffffffffffffffffffffffffffffffff16149050610a43565b6109b4610844565b73ffffffffffffffffffffffffffffffffffffffff16639be2a8848484306040518463ffffffff1660e01b81526004016109f093929190610c3e565b60206040518083038186803b158015610a0857600080fd5b505afa158015610a1c573d6000803e3d6000fd5b505050506040513d601f19601f82011682018060405250810190610a409190610a91565b90505b92915050565b81610a5757610a578161078c565b5050565b50600190565b6040805160a081019091528060008152600060208201819052604082018190526060820181905260809091015290565b600060208284031215610aa2578081fd5b81518015158114610ab1578182fd5b9392505050565b600060208284031215610ac9578081fd5b81357fffffffff0000000000000000000000000000000000000000000000000000000081168114610ab1578182fd5b600060208284031215610b09578081fd5b5035919050565b600060208284031215610b21578081fd5b5051919050565b73ffffffffffffffffffffffffffffffffffffffff169052565b9182527fffffffff0000000000000000000000000000000000000000000000000000000016602082015260240190565b73ffffffffffffffffffffffffffffffffffffffff91909116815260200190565b602080825282518282018190526000919060409081850190868401855b82811015610c1d578151805160048110610bc657fe5b855280870151610bd888870182610b28565b508581015186860152606080820151610bf382880182610b28565b505060809081015190610c0886820183610b28565b505060a0939093019290850190600101610bb0565b5091979650505050505050565b901515815260200190565b90815260200190565b92835273ffffffffffffffffffffffffffffffffffffffff918216602084015216604082015260600190565b928352602083019190915260408201526060019056fea2646970667358221220619c1a950e8144f47877969840f271b0beb0ace79b228b1aa6b73102f77de08464736f6c63430007010033",
  "linkReferences": {},
  "deployedLinkReferences": {}
}