{
  "address": "0xbd4FA9958D00bfed889fc494A3789031F4691975",
  "abi": [
    {
      "inputs": [
        {
          "internalType": "address",
          "name": "initialOwner",
          "type": "address"
        },
        {
          "internalType": "uint256",
          "name": "initialTimelock",
          "type": "uint256"
        },
        {
          "internalType": "address",
          "name": "asset",
          "type": "address"
        },
        {
          "internalType": "string",
          "name": "name",
          "type": "string"
        },
        {
          "internalType": "string",
          "name": "symbol",
          "type": "string"
        },
        {
          "internalType": "bytes32",
          "name": "salt",
          "type": "bytes32"
        }
      ],
      "name": "createMetaMorpho",
      "outputs": [
        {
          "internalType": "contract IMetaMorpho",
          "name": "metaMorpho",
          "type": "address"
        }
      ],
      "stateMutability": "nonpayable",
      "type": "function"
    },
    {
      "inputs": [
        {
          "internalType": "address",
          "name": "",
          "type": "address"
        }
      ],
      "name": "isMetaMorpho",
      "outputs": [
        {
          "internalType": "bool",
          "name": "",
          "type": "bool"
        }
      ],
      "stateMutability": "view",
      "type": "function"
    },
    {
      "anonymous": false,
      "inputs": [
        {
          "indexed": true,
          "internalType": "address",
          "name": "metaMorpho",
          "type": "address"
        },
        {
          "indexed": true,
          "internalType": "address",
          "name": "caller",
          "type": "address"
        },
        {
          "indexed": false,
          "internalType": "address",
          "name": "initialOwner",
          "type": "address"
        },
        {
          "indexed": false,
          "internalType": "uint256",
          "name": "initialTimelock",
          "type": "uint256"
        },
        {
          "indexed": true,
          "internalType": "address",
          "name": "asset",
          "type": "address"
        },
        {
          "indexed": false,
          "internalType": "string",
          "name": "name",
          "type": "string"
        },
        {
          "indexed": false,
          "internalType": "string",
          "name": "symbol",
          "type": "string"
        },
        {
          "indexed": false,
          "internalType": "bytes32",
          "name": "salt",
          "type": "bytes32"
        }
      ],
      "name": "CreateMetaMorpho",
      "type": "event"
    }
  ],
  "bytecode": "0x6080604052348015600e575f5ffd5b506159c58061001c5f395ff3fe608060405234801561000f575f5ffd5b5060043610610034575f3560e01c806329b5352c14610038578063b51020251461006f575b5f5ffd5b61005a610046366004610178565b5f6020819052908152604090205460ff1681565b60405190151581526020015b60405180910390f35b61008261007d366004610237565b61009a565b6040516001600160a01b039091168152602001610066565b5f8187878787876040516100ad90610150565b6100bb9594939291906102fb565b8190604051809103905ff59050801580156100d8573d5f5f3e3d5ffd5b506001600160a01b038082165f8181526020819052604090819020805460ff1916600117905551929350908716913391907fed8c95d05909b0f217f3e68171ef917df4b278d5addfe4dda888e90279be7d1d9061013e908c908c908b908b908b9061034b565b60405180910390a49695505050505050565b6155f98061039783390190565b80356001600160a01b0381168114610173575f5ffd5b919050565b5f60208284031215610188575f5ffd5b6101918261015d565b9392505050565b634e487b7160e01b5f52604160045260245ffd5b5f82601f8301126101bb575f5ffd5b813567ffffffffffffffff8111156101d5576101d5610198565b604051601f8201601f19908116603f0116810167ffffffffffffffff8111828210171561020457610204610198565b60405281815283820160200185101561021b575f5ffd5b816020850160208301375f918101602001919091529392505050565b5f5f5f5f5f5f60c0878903121561024c575f5ffd5b6102558761015d565b95506020870135945061026a6040880161015d565b9350606087013567ffffffffffffffff811115610285575f5ffd5b61029189828a016101ac565b935050608087013567ffffffffffffffff8111156102ad575f5ffd5b6102b989828a016101ac565b92505060a087013590509295509295509295565b5f81518084528060208401602086015e5f602082860101526020601f19601f83011685010191505092915050565b6001600160a01b038681168252602082018690528416604082015260a0606082018190525f9061032d908301856102cd565b828103608084015261033f81856102cd565b98975050505050505050565b60018060a01b038616815284602082015260a060408201525f61037160a08301866102cd565b828103606084015261038381866102cd565b915050826080830152969550505050505056fe6101c0604052348015610010575f5ffd5b506040516155f93803806155f983398101604081905261002f9161053e565b848280604051806040016040528060018152602001603160f81b815250868686816003908161005e9190610652565b50600461006b8282610652565b5050505f5f61007f8361024b60201b60201c565b915091508161008f576012610091565b805b60ff1660a05250506001600160a01b03166080526100b0826005610321565b610160526100bf816006610321565b61018052815160208084019190912061012052815190820120610140524660e05261014d6101205161014051604080517f8b73c3c69bb8fe3d512ecc4cf759cc79239f7b179b0ffacaa9a75d522b39400f60208201529081019290925260608201524660808201523060a08201525f9060c00160405160208183030381529060405280519060200120905090565b60c05250503061010052506001600160a01b03811661018657604051631e4fbdf760e01b81525f60048201526024015b60405180910390fd5b61018f81610353565b506001600160a01b0383166101b75760405163d92e233d60e01b815260040160405180910390fd5b6102286012846001600160a01b031663313ce5676040518163ffffffff1660e01b8152600401602060405180830381865afa1580156101f8573d5f5f3e3d5ffd5b505050506040513d601f19601f8201168201806040525081019061021c919061070c565b60ff1680821191030290565b60ff166101a0526102388461036f565b610241846103b7565b50505050506107b8565b60408051600481526024810182526020810180516001600160e01b031663313ce56760e01b17905290515f918291829182916001600160a01b0387169161029191610733565b5f60405180830381855afa9150503d805f81146102c9576040519150601f19603f3d011682016040523d82523d5f602084013e6102ce565b606091505b50915091508180156102e257506020815110155b15610315575f818060200190518101906102fc9190610749565b905060ff8111610313576001969095509350505050565b505b505f9485945092505050565b5f60208351101561033c57610335836103f8565b905061034d565b816103478482610652565b5060ff90505b92915050565b600980546001600160a01b031916905561036c81610435565b50565b62127500811115610393576040516346fedb5760e01b815260040160405180910390fd5b6201518081101561036c57604051631a1593df60e11b815260040160405180910390fd5b600e81905560405181815233907fd28e9b90ee9b37c5936ff84392d71f29ff18117d7e76bcee60615262a90a3f759060200160405180910390a2505f601155565b5f5f829050601f81511115610422578260405163305a27a960e01b815260040161017d9190610760565b805161042d82610795565b179392505050565b600880546001600160a01b038381166001600160a01b0319831681179093556040519116919082907f8be0079c531659141344cd1fd0a4f28419497f9722a3daafe3b4186f6b6457e0905f90a35050565b80516001600160a01b038116811461049c575f5ffd5b919050565b634e487b7160e01b5f52604160045260245ffd5b5f82601f8301126104c4575f5ffd5b81516001600160401b038111156104dd576104dd6104a1565b604051601f8201601f19908116603f011681016001600160401b038111828210171561050b5761050b6104a1565b604052818152838201602001851015610522575f5ffd5b8160208501602083015e5f918101602001919091529392505050565b5f5f5f5f5f60a08688031215610552575f5ffd5b61055b86610486565b6020870151909550935061057160408701610486565b60608701519093506001600160401b0381111561058c575f5ffd5b610598888289016104b5565b608088015190935090506001600160401b038111156105b5575f5ffd5b6105c1888289016104b5565b9150509295509295909350565b600181811c908216806105e257607f821691505b60208210810361060057634e487b7160e01b5f52602260045260245ffd5b50919050565b601f82111561064d57805f5260205f20601f840160051c8101602085101561062b5750805b601f840160051c820191505b8181101561064a575f8155600101610637565b50505b505050565b81516001600160401b0381111561066b5761066b6104a1565b61067f8161067984546105ce565b84610606565b6020601f8211600181146106b1575f831561069a5750848201515b5f19600385901b1c1916600184901b17845561064a565b5f84815260208120601f198516915b828110156106e057878501518255602094850194600190920191016106c0565b50848210156106fd57868401515f19600387901b60f8161c191681555b50505050600190811b01905550565b5f6020828403121561071c575f5ffd5b815160ff8116811461072c575f5ffd5b9392505050565b5f82518060208501845e5f920191825250919050565b5f60208284031215610759575f5ffd5b5051919050565b602081525f82518060208401528060208501604085015e5f604082850101526040601f19601f83011684010191505092915050565b80516020808301519190811015610600575f1960209190910360031b1b16919050565b60805160a05160c05160e05161010051610120516101405161016051610180516101a051614d9a61085f5f395f81816108aa01528181612b8301528181612e89015261330e01525f6132d401525f6132a701525f612ca101525f612c7901525f612bd401525f612bfe01525f612c2801525f612ba401525f8181610596015281816126a5015281816130fd015281816131aa015281816139860152613ef60152614d9a5ff3fe608060405234801561000f575f5ffd5b5060043610610417575f3560e01c806384b0196e11610221578063be9c58001161012a578063ddca3f43116100b4578063e90956cf11610084578063e90956cf14610a48578063ee7a4b3314610a5b578063ef8b30f714610951578063f2fde38b14610a6e578063f7d1852114610a81575f5ffd5b8063ddca3f43146109e6578063e30c397814610a11578063e66f53b714610a22578063e74b981b14610a35575f5ffd5b8063ce96cb77116100fa578063ce96cb771461096c578063d33219b41461097f578063d505accf14610988578063d905777e1461099b578063dd62ed3e146109ae575f5ffd5b8063be9c58001461092b578063c63d75b61461093e578063c6e6f59214610951578063c9649aa914610964575f5ffd5b8063a9059cbb116101ab578063b192a84a1161017b578063b192a84a146108cc578063b3d7f6b9146108df578063b460af94146108f2578063ba08765214610905578063bc25cf7714610918575f5ffd5b8063a9059cbb1461085f578063ac88990c14610872578063ac9650d814610885578063aea70acc146108a5575f5ffd5b806395d89b41116101f157806395d89b41146107fa578063987ee783146108025780639d6b4a451461083c578063a17b31301461084f578063a5f31d6114610857575f5ffd5b806384b0196e146107b35780638a2c7b39146107ce5780638da5cb5b146107d657806394bf804d146107e7575f5ffd5b8063452a9320116103235780636e553f65116102ad578063762c31ba1161027d578063762c31ba146106ed57806379ba5097146107395780637cc4d9a1146107415780637ecebe001461078d57806381bc23a6146107a0575f5ffd5b80636e553f651461069757806370a08231146106aa578063715018a6146106d25780637224a512146106da575f5ffd5b80634e083eb3116102f35780634e083eb314610642578063568efc07146106555780635897a06d1461065e57806362518ddf1461067157806369fe0e2d14610684575f5ffd5b8063452a9320146105f357806346904840146106065780634cdad5061461044b5780634dedf20e14610620575f5ffd5b80632b30997b116103a4578063388af5b511610374578063388af5b51461056957806338d52e0f146105945780633a72efdf146105ba578063402d267d146105cd57806341b67833146105e0575f5ffd5b80632b30997b1461052c578063313ce5671461053f57806333f91ebb146105595780633644e51514610561575f5ffd5b80630a28a477116103ea5780630a28a477146104815780630e68ec951461049457806318160ddd146105075780631ecca77c1461050f57806323b872dd14610519575f5ffd5b806301e1d1141461041b57806306fdde031461043657806307a2d13a1461044b578063095ea7b31461045e575b5f5ffd5b610423610a94565b6040519081526020015b60405180910390f35b61043e610aee565b60405161042d9190614578565b61042361045936600461458a565b610b7e565b61047161046c3660046145b5565b610b8f565b604051901515815260200161042d565b61042361048f36600461458a565b610ba6565b6104d96104a23660046145df565b600d6020525f90815260409020546001600160b81b03811690600160b81b810460ff1690600160c01b90046001600160401b031683565b604080516001600160b81b03909416845291151560208401526001600160401b03169082015260600161042d565b600254610423565b610517610bb2565b005b6104716105273660046145fa565b610c3b565b61051761053a3660046145df565b610c60565b610547610ce0565b60405160ff909116815260200161042d565b601554610423565b610423610cee565b60135461057c906001600160a01b031681565b6040516001600160a01b03909116815260200161042d565b7f000000000000000000000000000000000000000000000000000000000000000061057c565b6105176105c83660046145df565b610cf7565b6104236105db3660046145df565b610da8565b6105176105ee36600461467f565b610db1565b600c5461057c906001600160a01b031681565b60125461057c90600160601b90046001600160a01b031681565b61047161062e3660046145df565b600b6020525f908152604090205460ff1681565b61051761065036600461467f565b611212565b61042360165481565b61051761066c3660046145df565b61137c565b61057c61067f36600461458a565b61156f565b61051761069236600461458a565b611597565b6104236106a53660046146bd565b61169c565b6104236106b83660046145df565b6001600160a01b03165f9081526020819052604090205490565b6105176116d6565b6105176106e836600461458a565b6116e9565b600f54610712906001600160a01b03811690600160a01b90046001600160401b031682565b604080516001600160a01b0390931683526001600160401b0390911660208301520161042d565b6105176117ab565b601154610766906001600160c01b03811690600160c01b90046001600160401b031682565b604080516001600160c01b0390931683526001600160401b0390911660208301520161042d565b61042361079b3660046145df565b6117ec565b6105176107ae3660046145df565b611809565b6107bb6118a3565b60405161042d97969594939291906146eb565b6105176118e5565b6008546001600160a01b031661057c565b6104236107f53660046146bd565b61194f565b61043e611983565b6107666108103660046145df565b60106020525f90815260409020546001600160c01b03811690600160c01b90046001600160401b031682565b61051761084a3660046145df565b611992565b601454610423565b610517611a5a565b61047161086d3660046145b5565b611ac4565b6105176108803660046145df565b611ad1565b61089861089336600461467f565b611b8c565b60405161042d9190614781565b6105477f000000000000000000000000000000000000000000000000000000000000000081565b6105176108da3660046147f1565b611c71565b6104236108ed36600461458a565b611d17565b61042361090036600461481d565b611d23565b61042361091336600461481d565b611d6a565b6105176109263660046145df565b611da8565b61051761093936600461485c565b611e9a565b61042361094c3660046145df565b6122f2565b61042361095f36600461458a565b612308565b610517612313565b61042361097a3660046145df565b612390565b610423600e5481565b6105176109963660046148cb565b6123a3565b6104236109a93660046145df565b6124d9565b6104236109bc36600461493c565b6001600160a01b039182165f90815260016020908152604080832093909416825291909152205490565b6012546109f9906001600160601b031681565b6040516001600160601b03909116815260200161042d565b6009546001600160a01b031661057c565b600a5461057c906001600160a01b031681565b610517610a433660046145df565b612501565b610517610a563660046145df565b6125da565b610517610a693660046145b5565b61265a565b610517610a7c3660046145df565b6128c0565b61057c610a8f36600461458a565b612931565b5f5f5b601554811015610aea575f60158281548110610ab557610ab5614968565b5f918252602090912001546001600160a01b03169050610ad58130612940565b610adf9084614990565b925050600101610a97565b5090565b606060038054610afd906149a3565b80601f0160208091040260200160405190810160405280929190818152602001828054610b29906149a3565b8015610b745780601f10610b4b57610100808354040283529160200191610b74565b820191905f5260205f20905b815481529060010190602001808311610b5757829003601f168201915b5050505050905090565b5f610b89825f612a10565b92915050565b5f33610b9c818585612a3e565b5060019392505050565b5f610b89826001612a50565b6008546001600160a01b03163314801590610be15750600c546001600160a01b0316336001600160a01b031614155b15610bff57604051637cf97e4d60e11b815260040160405180910390fd5b600f80546001600160e01b031916905560405133907fc40a085ccfa20f5fd518ade5c3a77a7ecbdfbb4c75efcdca6146a8e3c841d663905f90a2565b5f33610c48858285612a7e565b610c53858585612af3565b60019150505b9392505050565b610c68612b50565b6013546001600160a01b0390811690821603610c975760405163a741a04560e01b815260040160405180910390fd5b601380546001600160a01b0319166001600160a01b0383169081179091556040517f2e7908865670e21b9779422cadf5f1cba271a62bb95c71eaaf615c0a1c48ebee905f90a250565b5f610ce9612b7d565b905090565b5f610ce9612bc8565b600c546001600160a01b0316336001600160a01b031614158015610d2f5750600a546001600160a01b0316336001600160a01b031614155b8015610d4657506008546001600160a01b03163314155b15610d645760405163d080fa3160e01b815260040160405180910390fd5b6001600160a01b0381165f818152601060205260408082208290555133917f23edd264f2dcc193d13a29cdab4ac169d60d9b4a0e74f0303c753036d8eb1c1391a350565b5f610b89612cf1565b335f818152600b602052604090205460ff16158015610dde5750600a546001600160a01b03828116911614155b8015610df857506008546001600160a01b03828116911614155b15610e165760405163f7137c0f60e01b815260040160405180910390fd5b60155482905f816001600160401b03811115610e3457610e346149db565b604051908082528060200260200182016040528015610e5d578160200160208202803683370190505b5090505f836001600160401b03811115610e7957610e796149db565b604051908082528060200260200182016040528015610ea2578160200160208202803683370190505b5090505f5b84811015610f9c575f888883818110610ec257610ec2614968565b9050602002013590505f60158281548110610edf57610edf614968565b5f9182526020909120015485516001600160a01b039091169150859083908110610f0b57610f0b614968565b602002602001015115610f4157604051633d85a77d60e11b81526001600160a01b03821660048201526024015b60405180910390fd5b6001858381518110610f5557610f55614968565b60200260200101901515908115158152505080848481518110610f7a57610f7a614968565b6001600160a01b03909216602092830291909101909101525050600101610ea7565b505f5b838110156111b357828181518110610fb957610fb9614968565b60200260200101516111ab575f60158281548110610fd957610fd9614968565b5f9182526020808320909101546001600160a01b0316808352600d9091526040909120549091506001600160b81b031615611032576040516301554f3760e71b81526001600160a01b0382166004820152602401610f38565b6001600160a01b0381165f90815260106020526040902054600160c01b90046001600160401b03161561108357604051634fc6b6fd60e01b81526001600160a01b0382166004820152602401610f38565b6040516370a0823160e01b81523060048201526001600160a01b038216906370a0823190602401602060405180830381865afa1580156110c5573d5f5f3e3d5ffd5b505050506040513d601f19601f820116820180604052508101906110e991906149ef565b15611193576001600160a01b0381165f908152600d6020526040812054600160c01b90046001600160401b03169003611140576040516325dce25160e21b81526001600160a01b0382166004820152602401610f38565b6001600160a01b0381165f908152600d6020526040902054600160c01b90046001600160401b031642101561119357604051634b74115160e01b81526001600160a01b0382166004820152602401610f38565b6001600160a01b03165f908152600d60205260408120555b600101610f9f565b5080516111c7906015906020840190614486565b50336001600160a01b03167f834ae37621cd31f2636b1cb6f1bded844d79ecf755af866b5d896da642d7b567826040516112019190614a06565b60405180910390a250505050505050565b335f818152600b602052604090205460ff1615801561123f5750600a546001600160a01b03828116911614155b801561125957506008546001600160a01b03828116911614155b156112775760405163f7137c0f60e01b815260040160405180910390fd5b81601e81111561129a576040516340797bd760e11b815260040160405180910390fd5b5f5b81811015611325575f8585838181106112b7576112b7614968565b90506020020160208101906112cc91906145df565b6001600160a01b0381165f908152600d60205260408120549192506001600160b81b03909116900361131c5760405163320b1e2560e21b81526001600160a01b0382166004820152602401610f38565b5060010161129c565b50611332601485856144e5565b50336001600160a01b03167fb07686dd0abe7422b9801e8f38bafd24669a65591071f11120c2f6a7c175813e858560405161136e929190614a51565b60405180910390a250505050565b600a5433906001600160a01b031681148015906113a757506008546001600160a01b03828116911614155b156113c5576040516332a2673b60e21b815260040160405180910390fd5b6001600160a01b0382165f908152600d6020526040902054600160c01b90046001600160401b03161561140b576040516324d9026760e11b815260040160405180910390fd5b6001600160a01b0382165f908152600d60205260409020546001600160b81b03161561144a5760405163624718b960e11b815260040160405180910390fd5b6001600160a01b0382165f908152600d6020526040902054600160b81b900460ff1661149457604051632215cda760e01b81526001600160a01b0383166004820152602401610f38565b6001600160a01b0382165f90815260106020526040902054600160c01b90046001600160401b0316156114e557604051634fc6b6fd60e01b81526001600160a01b0383166004820152602401610f38565b600e546114f29042614990565b6001600160a01b0383165f818152600d6020526040902080546001600160401b0393909316600160c01b026001600160c01b03909316929092179091556115363390565b6001600160a01b03167f354f25f4208ab6528fb2d016019c0e2a66f51376cbb2cc8571064779735d348560405160405180910390a35050565b6015818154811061157e575f80fd5b5f918252602090912001546001600160a01b0316905081565b61159f612b50565b6012546001600160601b031681036115ca5760405163a741a04560e01b815260040160405180910390fd5b6706f05b59d3b200008111156115f35760405163f4df6ae560e01b815260040160405180910390fd5b80158015906116125750601254600160601b90046001600160a01b0316155b15611630576040516333fe7c6560e21b815260040160405180910390fd5b61164061163b612ddd565b612e4b565b601280546001600160601b0383166bffffffffffffffffffffffff199091168117909155604080519182525133917f01fe2943baee27f47add82886c2200f910c749c461c9b63c5fe83901a53bdb49919081900360200190a250565b5f5f6116a6612ddd565b601681905590506116c1846116ba60025490565b835f612e80565b91506116cf33848685612ecd565b5092915050565b6116de612b50565b6116e75f612ef3565b565b6116f1612b50565b600e5481036117135760405163a741a04560e01b815260040160405180910390fd5b601154600160c01b90046001600160401b031615611744576040516324d9026760e11b815260040160405180910390fd5b61174d81612f0c565b600e548111156117635761176081612f54565b50565b600e54611774906011908390612f95565b6040518181527fb3aa0ade2442acf51d06713c2d1a5a3ec0373cce969d42b53f4689f97bccf380906020015b60405180910390a150565b60095433906001600160a01b031681146117e35760405163118cdaa760e01b81526001600160a01b0382166004820152602401610f38565b61176081612ef3565b6001600160a01b0381165f90815260076020526040812054610b89565b6001600160a01b0381165f90815260106020526040812054600160c01b90046001600160401b0316908190036118525760405163e5f408a560e01b815260040160405180910390fd5b804210156118735760405163333bd2cb60e11b815260040160405180910390fd5b6001600160a01b0382165f9081526010602052604090205461189f9083906001600160c01b0316612fdf565b5050565b5f6060805f5f5f60606118b46132a0565b6118bc6132cd565b604080515f80825260208201909252600f60f81b9b939a50919850469750309650945092509050565b601154600160c01b90046001600160401b03165f8190036119195760405163e5f408a560e01b815260040160405180910390fd5b8042101561193a5760405163333bd2cb60e11b815260040160405180910390fd5b601154611760906001600160c01b0316612f54565b5f5f611959612ddd565b601681905590506119758461196d60025490565b8360016132fa565b91506116cf33848487612ecd565b606060048054610afd906149a3565b61199a612b50565b600c546001600160a01b03908116908216036119c95760405163a741a04560e01b815260040160405180910390fd5b600f54600160a01b90046001600160401b0316156119fa576040516324d9026760e11b815260040160405180910390fd5b600c546001600160a01b0316611a13576117608161333e565b600e54611a2490600f908390613399565b6040516001600160a01b038216907f7633313af54753bce8a149927263b1a55eba857ba4ef1d13c6aee25d384d3c4b905f90a250565b600f54600160a01b90046001600160401b03165f819003611a8e5760405163e5f408a560e01b815260040160405180910390fd5b80421015611aaf5760405163333bd2cb60e11b815260040160405180910390fd5b600f54611760906001600160a01b031661333e565b5f33610b9c818585612af3565b600c546001600160a01b0316336001600160a01b031614158015611b095750600a546001600160a01b0316336001600160a01b031614155b8015611b2057506008546001600160a01b03163314155b15611b3e5760405163d080fa3160e01b815260040160405180910390fd5b6001600160a01b0381165f818152600d602052604080822080546001600160c01b031690555133917f8387c3346650400a72032f8bd1aa3f5f44038cf2bf32945e8eeb8a498decea7791a350565b604080515f815260208101909152606090826001600160401b03811115611bb557611bb56149db565b604051908082528060200260200182016040528015611be857816020015b6060815260200190600190039081611bd35790505b5091505f5b83811015611c6957611c4430868684818110611c0b57611c0b614968565b9050602002810190611c1d9190614ab0565b85604051602001611c3093929190614b09565b6040516020818303038152906040526133e8565b838281518110611c5657611c56614968565b6020908102919091010152600101611bed565b505092915050565b611c79612b50565b6001600160a01b0382165f908152600b602052604090205481151560ff909116151503611cb95760405163a741a04560e01b815260040160405180910390fd5b6001600160a01b0382165f818152600b6020908152604091829020805460ff191685151590811790915591519182527f74dc60cbc81a9472d04ad1d20e151d369c41104d655ed3f2f3091166a502cd8d910160405180910390a25050565b5f610b89826001612a10565b5f5f611d2d612ddd565b9050611d4485611d3c60025490565b836001612e80565b9150611d5585820386831102612e4b565b611d623385858886613451565b509392505050565b5f5f611d74612ddd565b9050611d8a85611d8360025490565b835f6132fa565b9150611d9b82820383831102612e4b565b611d623385858589613451565b6013546001600160a01b0316611dd15760405163d92e233d60e01b815260040160405180910390fd5b6040516370a0823160e01b81523060048201525f906001600160a01b038316906370a0823190602401602060405180830381865afa158015611e15573d5f5f3e3d5ffd5b505050506040513d601f19601f82011682018060405250810190611e3991906149ef565b601354909150611e56906001600160a01b03848116911683613467565b6040518181526001600160a01b0383169033907f2ae72b44f59d038340fca5739135a1d51fc5ab720bb02d983e4c5ff4119ca7b89060200160405180910390a35050565b335f818152600b602052604090205460ff16158015611ec75750600a546001600160a01b03828116911614155b8015611ee157506008546001600160a01b03828116911614155b15611eff5760405163f7137c0f60e01b815260040160405180910390fd5b5f5f5f5b848110156122ca575f868683818110611f1e57611f1e614968565b905060400201803603810190611f349190614b1e565b90505f5f611f44835f01516134c6565b915091505f611f5b83856020015180821191030290565b905080156121285783516001600160a01b03165f908152600d6020526040902054600160b81b900460ff16611fb1578351604051632215cda760e01b81526001600160a01b039091166004820152602401610f38565b5f84602001515f03611fc357505f9050815b5f80821561204d578651604051635d043b2960e11b815260048101859052306024820181905260448201526001600160a01b039091169063ba087652906064016020604051808303815f875af115801561201f573d5f5f3e3d5ffd5b505050506040513d601f19601f8201168201806040525081019061204391906149ef565b91508290506120cb565b8651604051632d182be560e21b815260048101869052306024820181905260448201528593506001600160a01b039091169063b460af94906064016020604051808303815f875af11580156120a4573d5f5f3e3d5ffd5b505050506040513d601f19601f820116820180604052508101906120c891906149ef565b90505b865160408051848152602081018490526001600160a01b039092169133917f416d9fcbb15941508bf9f557a950fb085de673ae90db45a32efdc9b35f29b0f1910160405180910390a361211e828a614990565b98505050506122bd565b5f5f1985602001511461214c5761214785602001518580821191030290565b612154565b878703888811025b9050805f036121675750505050506122c2565b84516001600160a01b03165f908152600d60205260408120546001600160b81b0316908190036121b857855160405163320b1e2560e21b81526001600160a01b039091166004820152602401610f38565b806121c38387614990565b11156121f057855160405163034506ef60e21b81526001600160a01b039091166004820152602401610f38565b8551604051636e553f6560e01b8152600481018490523060248201525f916001600160a01b031690636e553f65906044016020604051808303815f875af115801561223d573d5f5f3e3d5ffd5b505050506040513d601f19601f8201168201806040525081019061226191906149ef565b875160408051868152602081018490529293506001600160a01b039091169133917f73e8a9d66522fa5c6fcec2e89aad8e52f6f66eadeb7fc7c172cfcbacb5283851910160405180910390a36122b7838b614990565b99505050505b505050505b600101611f03565b508181146122eb576040516309e36b8960e41b815260040160405180910390fd5b5050505050565b5f5f6122fc612cf1565b9050610c59815f612a50565b5f610b89825f612a50565b6008546001600160a01b031633148015906123425750600c546001600160a01b0316336001600160a01b031614155b1561236057604051637cf97e4d60e11b815260040160405180910390fd5b5f601181905560405133917f921828337692c347c634c5d2aacbc7b756014674bd236f3cc2058d8e284a951b91a2565b5f61239a826135a1565b50909392505050565b834211156123c75760405163313c898160e11b815260048101859052602401610f38565b5f7f6e71edae12b1b97f4d1f60370fef10105fa2faae0126114a169c64845d6126c98888886124128c6001600160a01b03165f90815260076020526040902080546001810190915590565b6040805160208101969096526001600160a01b0394851690860152929091166060840152608083015260a082015260c0810186905260e0016040516020818303038152906040528051906020012090505f61246c8261360f565b90505f61247b8287878761363b565b9050896001600160a01b0316816001600160a01b0316146124c2576040516325c0072360e11b81526001600160a01b0380831660048301528b166024820152604401610f38565b6124cd8a8a8a612a3e565b50505050505050505050565b5f5f5f5f6124e6856135a1565b9250925092506124f88383835f612e80565b95945050505050565b612509612b50565b6012546001600160a01b03600160601b90910481169082160361253f5760405163a741a04560e01b815260040160405180910390fd5b6001600160a01b03811615801561256057506012546001600160601b031615155b1561257e576040516333fe7c6560e21b815260040160405180910390fd5b61258961163b612ddd565b601280546001600160601b0316600160601b6001600160a01b038416908102919091179091556040517f2e979f80fe4d43055c584cf4a8467c55875ea36728fc37176c05acd784eb7a73905f90a250565b6125e2612b50565b600a546001600160a01b03908116908216036126115760405163a741a04560e01b815260040160405180910390fd5b600a80546001600160a01b0319166001600160a01b0383169081179091556040517fbd0a63c12948fbc9194a5839019f99c9d71db924e5c70018265bc778b8f1a506905f90a250565b600a5433906001600160a01b0316811480159061268557506008546001600160a01b03828116911614155b156126a3576040516332a2673b60e21b815260040160405180910390fd5b7f00000000000000000000000000000000000000000000000000000000000000006001600160a01b0316836001600160a01b03166338d52e0f6040518163ffffffff1660e01b8152600401602060405180830381865afa158015612709573d5f5f3e3d5ffd5b505050506040513d601f19601f8201168201806040525081019061272d9190614b81565b6001600160a01b03161461275f57604051634854a41360e11b81526001600160a01b0384166004820152602401610f38565b6001600160a01b0383165f90815260106020526040902054600160c01b90046001600160401b0316156127a5576040516324d9026760e11b815260040160405180910390fd5b6001600160a01b0383165f908152600d6020526040902054600160c01b90046001600160401b0316156127eb576040516325f600a360e11b815260040160405180910390fd5b6001600160a01b0383165f908152600d60205260409020546001600160b81b031680830361282c5760405163a741a04560e01b815260040160405180910390fd5b8083101561284b576128468461284185613667565b612fdf565b6128ba565b61287861285784613667565b600e546001600160a01b0387165f9081526010602052604090209190612f95565b6040518381526001600160a01b0385169033907f7bfc48861a5d71fc7afd7b9c92b4feeef1628ab1d5145dede52590c46dd155e9906020015b60405180910390a35b50505050565b6128c8612b50565b600980546001600160a01b0383166001600160a01b031990911681179091556128f96008546001600160a01b031690565b6001600160a01b03167f38d16b8cac22d99fc7c124b9cd0de2d3fa1faef420bfe791d8c362d765e2270060405160405180910390a350565b6014818154811061157e575f80fd5b6040516370a0823160e01b81526001600160a01b0382811660048301525f91908416906307a2d13a9082906370a0823190602401602060405180830381865afa15801561298f573d5f5f3e3d5ffd5b505050506040513d601f19601f820116820180604052508101906129b391906149ef565b6040518263ffffffff1660e01b81526004016129d191815260200190565b602060405180830381865afa1580156129ec573d5f5f3e3d5ffd5b505050506040513d601f19601f82011682018060405250810190610c5991906149ef565b5f5f5f612a1b61369a565b915091506124f88583612a2d60025490565b612a379190614990565b83876132fa565b612a4b8383836001613721565b505050565b5f5f5f612a5b61369a565b915091506124f88583612a6d60025490565b612a779190614990565b8387612e80565b6001600160a01b038381165f908152600160209081526040808320938616835292905220545f1981146128ba5781811015612ae557604051637dc7a0d960e11b81526001600160a01b03841660048201526024810182905260448101839052606401610f38565b6128ba84848484035f613721565b6001600160a01b038316612b1c57604051634b637e8f60e11b81525f6004820152602401610f38565b6001600160a01b038216612b455760405163ec442f0560e01b81525f6004820152602401610f38565b612a4b8383836137e5565b6008546001600160a01b031633146116e75760405163118cdaa760e01b8152336004820152602401610f38565b5f610ce97f00000000000000000000000000000000000000000000000000000000000000007f0000000000000000000000000000000000000000000000000000000000000000614b9c565b5f306001600160a01b037f000000000000000000000000000000000000000000000000000000000000000016148015612c2057507f000000000000000000000000000000000000000000000000000000000000000046145b15612c4a57507f000000000000000000000000000000000000000000000000000000000000000090565b610ce9604080517f8b73c3c69bb8fe3d512ecc4cf759cc79239f7b179b0ffacaa9a75d522b39400f60208201527f0000000000000000000000000000000000000000000000000000000000000000918101919091527f000000000000000000000000000000000000000000000000000000000000000060608201524660808201523060a08201525f9060c00160405160208183030381529060405280519060200120905090565b5f5f5b601454811015610aea575f60148281548110612d1257612d12614968565b5f9182526020808320909101546001600160a01b0316808352600d90915260408220549092506001600160b81b031690819003612d50575050612dd5565b60405163402d267d60e01b8152306004820152612dc69082906001600160a01b0385169063402d267d906024015b602060405180830381865afa158015612d99573d5f5f3e3d5ffd5b505050506040513d601f19601f82011682018060405250810190612dbd91906149ef565b80821191030290565b612dd09085614990565b935050505b600101612cf4565b5f5f612de761369a565b925090508015612e0e57601254612e0e90600160601b90046001600160a01b03168261390b565b60408051838152602081018390527ff66f28b40975dbb933913542c7e6a0f50a1d0f20aa74ea6e0efe65ab616323ec910160405180910390a15090565b60168190556040518181527f15c027cc4fd826d986cad358803439f7326d3aa4ed969ff90dbee4bc150f68e9906020016117a0565b5f6124f8612eaf7f0000000000000000000000000000000000000000000000000000000000000000600a614c98565b612eb99086614990565b612ec4856001614990565b8791908561393f565b612ed984848484613981565b612ee282613a05565b6128ba8260165461163b9190614990565b600980546001600160a01b031916905561176081613c09565b62127500811115612f30576040516346fedb5760e01b815260040160405180910390fd5b6201518081101561176057604051631a1593df60e11b815260040160405180910390fd5b600e81905560405181815233907fd28e9b90ee9b37c5936ff84392d71f29ff18117d7e76bcee60615262a90a3f759060200160405180910390a2505f601155565b82546001600160c01b0319166001600160b81b038316178355612fb88142614990565b83546001600160401b0391909116600160c01b026001600160c01b03909116179092555050565b6001600160a01b0382165f908152600d602052604090206001600160b81b0382161561318f578054600160b81b900460ff166130ee57601580546001810182555f8290527f55f448fdea98c4d29eb340757ef0a66cd03dbb9538908a6a81d96026b71ec4750180546001600160a01b0319166001600160a01b03861617905554601e1015613080576040516340797bd760e11b815260040160405180910390fd5b805460ff60b81b1916600160b81b1781556130ab61309e8430612940565b60165461163b9190614990565b336001600160a01b03167f834ae37621cd31f2636b1cb6f1bded844d79ecf755af866b5d896da642d7b56760156040516130e59190614ca6565b60405180910390a25b80546001600160c01b031681557f000000000000000000000000000000000000000000000000000000000000000060405163095ea7b360e01b81526001600160a01b0385811660048301525f6024830152919091169063095ea7b3906044016020604051808303815f875af1158015613169573d5f5f3e3d5ffd5b505050506040513d601f19601f8201168201806040525081019061318d9190614ce9565b505b80546001600160b81b0319166001600160b81b0383161781557f000000000000000000000000000000000000000000000000000000000000000060405163095ea7b360e01b81526001600160a01b0385811660048301525f196024830152919091169063095ea7b3906044016020604051808303815f875af1158015613217573d5f5f3e3d5ffd5b505050506040513d601f19601f8201168201806040525081019061323b9190614ce9565b50604080516001600160b81b038416815290516001600160a01b0385169133917f10dbbfa98a21bc7a80d86cb89391600c590e0e2ce25698013741bcad429565699181900360200190a350506001600160a01b03165f90815260106020526040812055565b6060610ce97f00000000000000000000000000000000000000000000000000000000000000006005613c5a565b6060610ce97f00000000000000000000000000000000000000000000000000000000000000006006613c5a565b5f6124f8613309846001614990565b6133347f0000000000000000000000000000000000000000000000000000000000000000600a614c98565b612ec49087614990565b600c80546001600160a01b0319166001600160a01b03831690811790915560405133907fcb11cc8aade2f5a556749d1b2380d108a16fac3431e6a5d5ce12ef9de0bd76e3905f90a350600f80546001600160e01b0319169055565b82546001600160a01b0319166001600160a01b0383161783556133bc8142614990565b83546001600160401b0391909116600160a01b0267ffffffffffffffff60a01b19909116179092555050565b60605f5f846001600160a01b0316846040516134049190614d04565b5f60405180830381855af49150503d805f811461343c576040519150601f19603f3d011682016040523d82523d5f602084013e613441565b606091505b50915091506124f8858383613d03565b61345a82613d5f565b6122eb8585858585613ec3565b6040516001600160a01b03838116602483015260448201839052612a4b91859182169063a9059cbb906064015b604051602081830303815290604052915060e01b6020820180516001600160e01b038381831617835250505050613f83565b6040516370a0823160e01b81523060048201525f9081906001600160a01b038416906370a0823190602401602060405180830381865afa15801561350c573d5f5f3e3d5ffd5b505050506040513d601f19601f8201168201806040525081019061353091906149ef565b6040516303d1689d60e11b8152600481018290529091506001600160a01b038416906307a2d13a90602401602060405180830381865afa158015613576573d5f5f3e3d5ffd5b505050506040513d601f19601f8201168201806040525081019061359a91906149ef565b9150915091565b5f5f5f5f6135ad61369a565b92509050806135bb60025490565b6135c59190614990565b92506135f06135e8866001600160a01b03165f9081526020819052604090205490565b84845f6132fa565b93506135fb84613fe4565b6136059085614a9d565b9350509193909250565b5f610b8961361b612bc8565b8360405161190160f01b8152600281019290925260228201526042902090565b5f5f5f5f61364b88888888614065565b92509250925061365b828261412d565b50909695505050505050565b5f6001600160b81b03821115610aea576040516306dfcc6560e41b815260b8600482015260248101839052604401610f38565b5f5f6136a4610a94565b90505f6136b78260165480821191030290565b905080158015906136d257506012546001600160601b031615155b1561371c576012545f906136f99083906001600160601b0316670de0b6b3a76400006141e5565b90506137188161370860025490565b6137128487614a9d565b5f612e80565b9350505b509091565b6001600160a01b03841661374a5760405163e602df0560e01b81525f6004820152602401610f38565b6001600160a01b03831661377357604051634a1406b160e11b81525f6004820152602401610f38565b6001600160a01b038085165f90815260016020908152604080832093871683529290522082905580156128ba57826001600160a01b0316846001600160a01b03167f8c5be1e5ebec7d5bd14f71427d1e84f3dd0314c0f7b2291e5b200ac8c7c3b925846040516128b191815260200190565b6001600160a01b03831661380f578060025f8282546138049190614990565b9091555061387f9050565b6001600160a01b0383165f90815260208190526040902054818110156138615760405163391434e360e21b81526001600160a01b03851660048201526024810182905260448101839052606401610f38565b6001600160a01b0384165f9081526020819052604090209082900390555b6001600160a01b03821661389b576002805482900390556138b9565b6001600160a01b0382165f9081526020819052604090208054820190555b816001600160a01b0316836001600160a01b03167fddf252ad1be2c89b69c2b068fc378daa952ba7f163c4a11628f55a4df523b3ef836040516138fe91815260200190565b60405180910390a3505050565b6001600160a01b0382166139345760405163ec442f0560e01b81525f6004820152602401610f38565b61189f5f83836137e5565b5f61396c61394c836142a2565b801561396757505f848061396257613962614d0f565b868809115b151590565b6139778686866141e5565b6124f89190614990565b6139ad7f00000000000000000000000000000000000000000000000000000000000000008530856142ce565b6139b7838261390b565b826001600160a01b0316846001600160a01b03167fdcbc1c05240f31ff3ad067ef1ee35ce4997762752e3a095284754544f4c709d784846040516128b1929190918252602082015260400190565b5f5b601454811015613be9575f60148281548110613a2557613a25614968565b5f9182526020808320909101546001600160a01b0316808352600d90915260408220549092506001600160b81b031690819003613a63575050613be1565b6040516370a0823160e01b81523060048201525f906001600160a01b038416906370a0823190602401602060405180830381865afa158015613aa7573d5f5f3e3d5ffd5b505050506040513d601f19601f82011682018060405250810190613acb91906149ef565b6040516303d1689d60e11b8152600481018290529091505f906001600160a01b038516906307a2d13a90602401602060405180830381865afa158015613b13573d5f5f3e3d5ffd5b505050506040513d601f19601f82011682018060405250810190613b3791906149ef565b905080830381841102868111878218028082189114613bcb57604051636e553f6560e01b8152600481018290523060248201526001600160a01b03861690636e553f65906044016020604051808303815f875af1925050508015613bb8575060408051601f3d908101601f19168201909252613bb5918101906149ef565b60015b15613bcb5750613bc88188614a9d565b96505b865f03613bdb5750505050505050565b50505050505b600101613a07565b5080156117605760405163ded0652d60e01b815260040160405180910390fd5b600880546001600160a01b038381166001600160a01b0319831681179093556040519116919082907f8be0079c531659141344cd1fd0a4f28419497f9722a3daafe3b4186f6b6457e0905f90a35050565b606060ff8314613c7457613c6d83614307565b9050610b89565b818054613c80906149a3565b80601f0160208091040260200160405190810160405280929190818152602001828054613cac906149a3565b8015613cf75780601f10613cce57610100808354040283529160200191613cf7565b820191905f5260205f20905b815481529060010190602001808311613cda57829003601f168201915b50505050509050610b89565b606082613d1857613d1382614344565b610c59565b8151158015613d2f57506001600160a01b0384163b155b15613d5857604051639996b31560e01b81526001600160a01b0385166004820152602401610f38565b5080610c59565b5f5b601554811015613ea3575f60158281548110613d7f57613d7f614968565b5f91825260208220015460405163ce96cb7760e01b81523060048201526001600160a01b039091169250613e0290839063ce96cb7790602401602060405180830381865afa158015613dd3573d5f5f3e3d5ffd5b505050506040513d601f19601f82011682018060405250810190613df791906149ef565b858111818718021890565b90508015613e8c57604051632d182be560e21b815260048101829052306024820181905260448201526001600160a01b0383169063b460af94906064016020604051808303815f875af1925050508015613e79575060408051601f3d908101601f19168201909252613e76918101906149ef565b60015b15613e8c5750613e898185614a9d565b93505b835f03613e995750505050565b5050600101613d61565b50801561176057604051634323a55560e01b815260040160405180910390fd5b826001600160a01b0316856001600160a01b031614613ee757613ee7838683612a7e565b613ef1838261436d565b613f1c7f00000000000000000000000000000000000000000000000000000000000000008584613467565b826001600160a01b0316846001600160a01b0316866001600160a01b03167ffbde797d201c681b91056529119e0b02407c7bb96a4a2c75c01fc9667232c8db8585604051613f74929190918252602082015260400190565b60405180910390a45050505050565b5f613f976001600160a01b038416836143a1565b905080515f14158015613fbb575080806020019051810190613fb99190614ce9565b155b15612a4b57604051635274afe760e01b81526001600160a01b0384166004820152602401610f38565b5f5f5b60155481101561405e575f6015828154811061400557614005614968565b5f9182526020909120015460405163ce96cb7760e01b81523060048201526001600160a01b039091169150614046908590839063ce96cb7790602401612d7e565b9350835f03614055575061405e565b50600101613fe7565b5090919050565b5f80807f7fffffffffffffffffffffffffffffff5d576e7357a4501ddfe92f46681b20a084111561409e57505f91506003905082614123565b604080515f808252602082018084528a905260ff891692820192909252606081018790526080810186905260019060a0016020604051602081039080840390855afa1580156140ef573d5f5f3e3d5ffd5b5050604051601f1901519150506001600160a01b03811661411a57505f925060019150829050614123565b92505f91508190505b9450945094915050565b5f82600381111561414057614140614d23565b03614149575050565b600182600381111561415d5761415d614d23565b0361417b5760405163f645eedf60e01b815260040160405180910390fd5b600282600381111561418f5761418f614d23565b036141b05760405163fce698f760e01b815260048101829052602401610f38565b60038260038111156141c4576141c4614d23565b0361189f576040516335e2f38360e21b815260048101829052602401610f38565b5f838302815f1985870982811083820303915050805f036142195783828161420f5761420f614d0f565b0492505050610c59565b8084116142375761423784156142305760116143ae565b60126143ae565b5f848688095f868103871696879004966002600389028118808a02820302808a02820302808a02820302808a02820302808a02820302808a02909103029181900381900460010186841190950394909402919094039290920491909117919091029150509392505050565b5f60028260038111156142b7576142b7614d23565b6142c19190614d37565b60ff166001149050919050565b6040516001600160a01b0384811660248301528381166044830152606482018390526128ba9186918216906323b872dd90608401613494565b60605f614313836143bf565b6040805160208082528183019092529192505f91906020820181803683375050509182525060208101929092525090565b8051156143545780518082602001fd5b60405163d6bda27560e01b815260040160405180910390fd5b6001600160a01b03821661439657604051634b637e8f60e11b81525f6004820152602401610f38565b61189f825f836137e5565b6060610c5983835f6143e6565b634e487b715f52806020526024601cfd5b5f60ff8216601f811115610b8957604051632cd44ac360e21b815260040160405180910390fd5b6060814710156144125760405163cf47918160e01b815247600482015260248101839052604401610f38565b5f5f856001600160a01b0316848660405161442d9190614d04565b5f6040518083038185875af1925050503d805f8114614467576040519150601f19603f3d011682016040523d82523d5f602084013e61446c565b606091505b509150915061447c868383613d03565b9695505050505050565b828054828255905f5260205f209081019282156144d9579160200282015b828111156144d957825182546001600160a01b0319166001600160a01b039091161782556020909201916001909101906144a4565b50610aea929150614536565b828054828255905f5260205f209081019282156144d9579160200282015b828111156144d95781546001600160a01b0319166001600160a01b03843516178255602090920191600190910190614503565b5b80821115610aea575f8155600101614537565b5f81518084528060208401602086015e5f602082860101526020601f19601f83011685010191505092915050565b602081525f610c59602083018461454a565b5f6020828403121561459a575f5ffd5b5035919050565b6001600160a01b0381168114611760575f5ffd5b5f5f604083850312156145c6575f5ffd5b82356145d1816145a1565b946020939093013593505050565b5f602082840312156145ef575f5ffd5b8135610c59816145a1565b5f5f5f6060848603121561460c575f5ffd5b8335614617816145a1565b92506020840135614627816145a1565b929592945050506040919091013590565b5f5f83601f840112614648575f5ffd5b5081356001600160401b0381111561465e575f5ffd5b6020830191508360208260051b8501011115614678575f5ffd5b9250929050565b5f5f60208385031215614690575f5ffd5b82356001600160401b038111156146a5575f5ffd5b6146b185828601614638565b90969095509350505050565b5f5f604083850312156146ce575f5ffd5b8235915060208301356146e0816145a1565b809150509250929050565b60ff60f81b8816815260e060208201525f61470960e083018961454a565b828103604084015261471b818961454a565b606084018890526001600160a01b038716608085015260a0840186905283810360c0850152845180825260208087019350909101905f5b81811015614770578351835260209384019390920191600101614752565b50909b9a5050505050505050505050565b5f602082016020835280845180835260408501915060408160051b8601019250602086015f5b828110156147d857603f198786030184526147c385835161454a565b945060209384019391909101906001016147a7565b50929695505050505050565b8015158114611760575f5ffd5b5f5f60408385031215614802575f5ffd5b823561480d816145a1565b915060208301356146e0816147e4565b5f5f5f6060848603121561482f575f5ffd5b833592506020840135614841816145a1565b91506040840135614851816145a1565b809150509250925092565b5f5f6020838503121561486d575f5ffd5b82356001600160401b03811115614882575f5ffd5b8301601f81018513614892575f5ffd5b80356001600160401b038111156148a7575f5ffd5b8560208260061b84010111156148bb575f5ffd5b6020919091019590945092505050565b5f5f5f5f5f5f5f60e0888a0312156148e1575f5ffd5b87356148ec816145a1565b965060208801356148fc816145a1565b95506040880135945060608801359350608088013560ff8116811461491f575f5ffd5b9699959850939692959460a0840135945060c09093013592915050565b5f5f6040838503121561494d575f5ffd5b8235614958816145a1565b915060208301356146e0816145a1565b634e487b7160e01b5f52603260045260245ffd5b634e487b7160e01b5f52601160045260245ffd5b80820180821115610b8957610b8961497c565b600181811c908216806149b757607f821691505b6020821081036149d557634e487b7160e01b5f52602260045260245ffd5b50919050565b634e487b7160e01b5f52604160045260245ffd5b5f602082840312156149ff575f5ffd5b5051919050565b602080825282518282018190525f918401906040840190835b81811015614a465783516001600160a01b0316835260209384019390920191600101614a1f565b509095945050505050565b602080825281018290525f8360408301825b85811015614a93578235614a76816145a1565b6001600160a01b0316825260209283019290910190600101614a63565b5095945050505050565b81810381811115610b8957610b8961497c565b5f5f8335601e19843603018112614ac5575f5ffd5b8301803591506001600160401b03821115614ade575f5ffd5b602001915036819003821315614678575f5ffd5b5f81518060208401855e5f93019283525090919050565b828482375f8382015f815261447c8185614af2565b5f6040828403128015614b2f575f5ffd5b50604080519081016001600160401b0381118282101715614b5e57634e487b7160e01b5f52604160045260245ffd5b6040528235614b6c816145a1565b81526020928301359281019290925250919050565b5f60208284031215614b91575f5ffd5b8151610c59816145a1565b60ff8181168382160190811115610b8957610b8961497c565b6001815b6001841115614bf057808504811115614bd457614bd461497c565b6001841615614be257908102905b60019390931c928002614bb9565b935093915050565b5f82614c0657506001610b89565b81614c1257505f610b89565b8160018114614c285760028114614c3257614c4e565b6001915050610b89565b60ff841115614c4357614c4361497c565b50506001821b610b89565b5060208310610133831016604e8410600b8410161715614c71575081810a610b89565b614c7d5f198484614bb5565b805f1904821115614c9057614c9061497c565b029392505050565b5f610c5960ff841683614bf8565b602080825282548282018190525f848152918220906040840190835b81811015614a465783546001600160a01b0316835260019384019360209093019201614cc2565b5f60208284031215614cf9575f5ffd5b8151610c59816147e4565b5f610c598284614af2565b634e487b7160e01b5f52601260045260245ffd5b634e487b7160e01b5f52602160045260245ffd5b5f60ff831680614d5557634e487b7160e01b5f52601260045260245ffd5b8060ff8416069150509291505056fea26469706673582212207ba853c61284e9a49240371218c07645300b519837140492f37c03ae9c67cc6364736f6c634300081c0033a2646970667358221220c6a0a766b65fa0d5fc883b68c4be99850ea39bc33bae4e404a8568a30e2d69ae64736f6c634300081c0033",
  "language": "Solidity",
  "compiler": "0.8.28+commit.7893614a"
}