{
  "_format": "hh-sol-artifact-1",
  "contractName": "MockAssetTransfersHandler",
  "sourceName": "contracts/test/MockAssetTransfersHandler.sol",
  "abi": [
    {
      "inputs": [
        {
          "internalType": "contract IWETH",
          "name": "weth",
          "type": "address"
        }
      ],
      "stateMutability": "nonpayable",
      "type": "constructor"
    },
    {
      "inputs": [
        {
          "internalType": "address",
          "name": "account",
          "type": "address"
        },
        {
          "internalType": "contract IERC20",
          "name": "token",
          "type": "address"
        },
        {
          "internalType": "uint256",
          "name": "amount",
          "type": "uint256"
        }
      ],
      "name": "depositToInternalBalance",
      "outputs": [],
      "stateMutability": "nonpayable",
      "type": "function"
    },
    {
      "inputs": [
        {
          "internalType": "address",
          "name": "account",
          "type": "address"
        },
        {
          "internalType": "contract IERC20",
          "name": "token",
          "type": "address"
        }
      ],
      "name": "getInternalBalance",
      "outputs": [
        {
          "internalType": "uint256",
          "name": "",
          "type": "uint256"
        }
      ],
      "stateMutability": "view",
      "type": "function"
    },
    {
      "inputs": [
        {
          "internalType": "contract IAsset",
          "name": "asset",
          "type": "address"
        },
        {
          "internalType": "uint256",
          "name": "amount",
          "type": "uint256"
        },
        {
          "internalType": "address",
          "name": "sender",
          "type": "address"
        },
        {
          "internalType": "bool",
          "name": "fromInternalBalance",
          "type": "bool"
        }
      ],
      "name": "receiveAsset",
      "outputs": [],
      "stateMutability": "payable",
      "type": "function"
    },
    {
      "inputs": [
        {
          "internalType": "contract IAsset",
          "name": "asset",
          "type": "address"
        },
        {
          "internalType": "uint256",
          "name": "amount",
          "type": "uint256"
        },
        {
          "internalType": "address payable",
          "name": "recipient",
          "type": "address"
        },
        {
          "internalType": "bool",
          "name": "toInternalBalance",
          "type": "bool"
        }
      ],
      "name": "sendAsset",
      "outputs": [],
      "stateMutability": "nonpayable",
      "type": "function"
    },
    {
      "stateMutability": "payable",
      "type": "receive"
    }
  ],
  "bytecode": "0x60a060405234801561001057600080fd5b50604051610a0d380380610a0d83398101604081905261002f91610044565b60601b6001600160601b031916608052610072565b600060208284031215610055578081fd5b81516001600160a01b038116811461006b578182fd5b9392505050565b60805160601c61097e61008f6000398061011b525061097e6000f3fe6080604052600436106100435760003560e01c80631f51af7d146100905780638a65d2e0146100b057806390c185ae146100e6578063e65f9702146101065761008b565b3661008b57610089610053610119565b73ffffffffffffffffffffffffffffffffffffffff163373ffffffffffffffffffffffffffffffffffffffff161461020661013d565b005b600080fd5b34801561009c57600080fd5b506100896100ab366004610818565b61014f565b3480156100bc57600080fd5b506100d06100cb36600461077d565b610161565b6040516100dd919061090f565b60405180910390f35b3480156100f257600080fd5b506100896101013660046107b5565b610197565b61008961011436600461086a565b6101c9565b7f000000000000000000000000000000000000000000000000000000000000000090565b8161014b5761014b816101d5565b5050565b61015b84848484610202565b50505050565b73ffffffffffffffffffffffffffffffffffffffff91821660009081526020818152604080832093909416825291909152205490565b6101b973ffffffffffffffffffffffffffffffffffffffff831684308461030a565b6101c48383836103ad565b505050565b61015b848484846103ea565b6101ff817f42414c00000000000000000000000000000000000000000000000000000000006104db565b50565b8261020c5761015b565b61021584610556565b156102bf57610227811561020261013d565b61022f610119565b73ffffffffffffffffffffffffffffffffffffffff16632e1a7d4d846040518263ffffffff1660e01b8152600401610267919061090f565b600060405180830381600087803b15801561028157600080fd5b505af1158015610295573d6000803e3d6000fd5b506102ba9250505073ffffffffffffffffffffffffffffffffffffffff831684610570565b61015b565b60006102ca856105f7565b905081156102e2576102dd8382866103ad565b610303565b61030373ffffffffffffffffffffffffffffffffffffffff821684866105fa565b5050505050565b61015b846323b872dd60e01b85858560405160240161032b939291906108b8565b604080517fffffffffffffffffffffffffffffffffffffffffffffffffffffffffffffffe08184030181529190526020810180517bffffffffffffffffffffffffffffffffffffffffffffffffffffffff167fffffffff0000000000000000000000000000000000000000000000000000000090931692909217909152610619565b73ffffffffffffffffffffffffffffffffffffffff9283166000908152602081815260408083209490951682529290925291902080549091019055565b826103f45761015b565b6103fd84610556565b1561048b5761040f811561020261013d565b61041e8347101561020461013d565b610426610119565b73ffffffffffffffffffffffffffffffffffffffff1663d0e30db0846040518263ffffffff1660e01b81526004016000604051808303818588803b15801561046d57600080fd5b505af1158015610481573d6000803e3d6000fd5b505050505061015b565b6000610496856105f7565b905081156104b35760006104ad84838760016106c6565b90940393505b83156103035761030373ffffffffffffffffffffffffffffffffffffffff821684308761030a565b7f08c379a000000000000000000000000000000000000000000000000000000000600090815260206004526007602452600a808404818106603090810160081b958390069590950190829004918206850160101b01602363ffffff0060e086901c160160181b0190930160c81b60445260e882901c90606490fd5b73ffffffffffffffffffffffffffffffffffffffff161590565b61057f814710156101a361013d565b60008273ffffffffffffffffffffffffffffffffffffffff16826040516105a5906105f7565b60006040518083038185875af1925050503d80600081146105e2576040519150601f19603f3d011682016040523d82523d6000602084013e6105e7565b606091505b505090506101c4816101a461013d565b90565b6101c48363a9059cbb60e01b848460405160240161032b9291906108e9565b600060608373ffffffffffffffffffffffffffffffffffffffff1683604051610642919061087f565b6000604051808303816000865af19150503d806000811461067f576040519150601f19603f3d011682016040523d82523d6000602084013e610684565b606091505b5091509150600082141561069c573d6000803e3d6000fd5b61015b8151600014806106be5750818060200190518101906106be91906107f5565b6101a261013d565b73ffffffffffffffffffffffffffffffffffffffff80851660009081526020818152604080832093871683529290529081205482610704578361070e565b61070e818561075b565b915061071a8183610767565b73ffffffffffffffffffffffffffffffffffffffff968716600090815260208181526040808320989099168252969096529590942094909455509192915050565b80820390821102900390565b600061077783831115600161013d565b50900390565b6000806040838503121561078f578182fd5b823561079a81610918565b915060208301356107aa81610918565b809150509250929050565b6000806000606084860312156107c9578081fd5b83356107d481610918565b925060208401356107e481610918565b929592945050506040919091013590565b600060208284031215610806578081fd5b81516108118161093a565b9392505050565b6000806000806080858703121561082d578081fd5b843561083881610918565b935060208501359250604085013561084f81610918565b9150606085013561085f8161093a565b939692955090935050565b6000806000806080858703121561082d578384fd5b60008251815b8181101561089f5760208186018101518583015201610885565b818111156108ad5782828501525b509190910192915050565b73ffffffffffffffffffffffffffffffffffffffff9384168152919092166020820152604081019190915260600190565b73ffffffffffffffffffffffffffffffffffffffff929092168252602082015260400190565b90815260200190565b73ffffffffffffffffffffffffffffffffffffffff811681146101ff57600080fd5b80151581146101ff57600080fdfea26469706673582212200c52a3be52835b0f654c98b77f5e61e84b6433ef88bafaff71b9952c441464bb64736f6c63430007010033",
  "linkReferences": {},
  "deployedLinkReferences": {}
}