{
  "_format": "hh-sol-artifact-1",
  "contractName": "TestFeeDistributor",
  "sourceName": "contracts/test/TestFeeDistributor.sol",
  "abi": [
    {
      "inputs": [
        {
          "internalType": "contract IVotingEscrow",
          "name": "votingEscrow",
          "type": "address"
        },
        {
          "internalType": "uint256",
          "name": "startTime",
          "type": "uint256"
        }
      ],
      "stateMutability": "nonpayable",
      "type": "constructor"
    },
    {
      "anonymous": false,
      "inputs": [
        {
          "indexed": false,
          "internalType": "address",
          "name": "user",
          "type": "address"
        },
        {
          "indexed": false,
          "internalType": "bool",
          "name": "enabled",
          "type": "bool"
        }
      ],
      "name": "OnlyCallerOptIn",
      "type": "event"
    },
    {
      "anonymous": false,
      "inputs": [
        {
          "indexed": false,
          "internalType": "contract IERC20",
          "name": "token",
          "type": "address"
        },
        {
          "indexed": false,
          "internalType": "uint256",
          "name": "amount",
          "type": "uint256"
        },
        {
          "indexed": false,
          "internalType": "uint256",
          "name": "lastCheckpointTimestamp",
          "type": "uint256"
        }
      ],
      "name": "TokenCheckpointed",
      "type": "event"
    },
    {
      "anonymous": false,
      "inputs": [
        {
          "indexed": false,
          "internalType": "address",
          "name": "user",
          "type": "address"
        },
        {
          "indexed": false,
          "internalType": "contract IERC20",
          "name": "token",
          "type": "address"
        },
        {
          "indexed": false,
          "internalType": "uint256",
          "name": "amount",
          "type": "uint256"
        },
        {
          "indexed": false,
          "internalType": "uint256",
          "name": "userTokenTimeCursor",
          "type": "uint256"
        }
      ],
      "name": "TokensClaimed",
      "type": "event"
    },
    {
      "inputs": [],
      "name": "checkpoint",
      "outputs": [],
      "stateMutability": "nonpayable",
      "type": "function"
    },
    {
      "inputs": [
        {
          "internalType": "contract IERC20",
          "name": "token",
          "type": "address"
        }
      ],
      "name": "checkpointToken",
      "outputs": [],
      "stateMutability": "nonpayable",
      "type": "function"
    },
    {
      "inputs": [
        {
          "internalType": "contract IERC20[]",
          "name": "tokens",
          "type": "address[]"
        }
      ],
      "name": "checkpointTokens",
      "outputs": [],
      "stateMutability": "nonpayable",
      "type": "function"
    },
    {
      "inputs": [
        {
          "internalType": "address",
          "name": "user",
          "type": "address"
        }
      ],
      "name": "checkpointUser",
      "outputs": [],
      "stateMutability": "nonpayable",
      "type": "function"
    },
    {
      "inputs": [
        {
          "internalType": "address",
          "name": "user",
          "type": "address"
        },
        {
          "internalType": "contract IERC20",
          "name": "token",
          "type": "address"
        }
      ],
      "name": "claimToken",
      "outputs": [
        {
          "internalType": "uint256",
          "name": "",
          "type": "uint256"
        }
      ],
      "stateMutability": "nonpayable",
      "type": "function"
    },
    {
      "inputs": [
        {
          "internalType": "address",
          "name": "user",
          "type": "address"
        },
        {
          "internalType": "contract IERC20[]",
          "name": "tokens",
          "type": "address[]"
        }
      ],
      "name": "claimTokens",
      "outputs": [
        {
          "internalType": "uint256[]",
          "name": "",
          "type": "uint256[]"
        }
      ],
      "stateMutability": "nonpayable",
      "type": "function"
    },
    {
      "inputs": [
        {
          "internalType": "contract IERC20",
          "name": "token",
          "type": "address"
        },
        {
          "internalType": "uint256",
          "name": "amount",
          "type": "uint256"
        }
      ],
      "name": "depositToken",
      "outputs": [],
      "stateMutability": "nonpayable",
      "type": "function"
    },
    {
      "inputs": [
        {
          "internalType": "contract IERC20[]",
          "name": "tokens",
          "type": "address[]"
        },
        {
          "internalType": "uint256[]",
          "name": "amounts",
          "type": "uint256[]"
        }
      ],
      "name": "depositTokens",
      "outputs": [],
      "stateMutability": "nonpayable",
      "type": "function"
    },
    {
      "inputs": [],
      "name": "getDomainSeparator",
      "outputs": [
        {
          "internalType": "bytes32",
          "name": "",
          "type": "bytes32"
        }
      ],
      "stateMutability": "view",
      "type": "function"
    },
    {
      "inputs": [
        {
          "internalType": "address",
          "name": "account",
          "type": "address"
        }
      ],
      "name": "getNextNonce",
      "outputs": [
        {
          "internalType": "uint256",
          "name": "",
          "type": "uint256"
        }
      ],
      "stateMutability": "view",
      "type": "function"
    },
    {
      "inputs": [],
      "name": "getTimeCursor",
      "outputs": [
        {
          "internalType": "uint256",
          "name": "",
          "type": "uint256"
        }
      ],
      "stateMutability": "view",
      "type": "function"
    },
    {
      "inputs": [
        {
          "internalType": "contract IERC20",
          "name": "token",
          "type": "address"
        }
      ],
      "name": "getTokenLastBalance",
      "outputs": [
        {
          "internalType": "uint256",
          "name": "",
          "type": "uint256"
        }
      ],
      "stateMutability": "view",
      "type": "function"
    },
    {
      "inputs": [
        {
          "internalType": "contract IERC20",
          "name": "token",
          "type": "address"
        }
      ],
      "name": "getTokenTimeCursor",
      "outputs": [
        {
          "internalType": "uint256",
          "name": "",
          "type": "uint256"
        }
      ],
      "stateMutability": "view",
      "type": "function"
    },
    {
      "inputs": [
        {
          "internalType": "contract IERC20",
          "name": "token",
          "type": "address"
        },
        {
          "internalType": "uint256",
          "name": "timestamp",
          "type": "uint256"
        }
      ],
      "name": "getTokensDistributedInWeek",
      "outputs": [
        {
          "internalType": "uint256",
          "name": "",
          "type": "uint256"
        }
      ],
      "stateMutability": "view",
      "type": "function"
    },
    {
      "inputs": [
        {
          "internalType": "uint256",
          "name": "timestamp",
          "type": "uint256"
        }
      ],
      "name": "getTotalSupplyAtTimestamp",
      "outputs": [
        {
          "internalType": "uint256",
          "name": "",
          "type": "uint256"
        }
      ],
      "stateMutability": "view",
      "type": "function"
    },
    {
      "inputs": [
        {
          "internalType": "address",
          "name": "user",
          "type": "address"
        },
        {
          "internalType": "uint256",
          "name": "timestamp",
          "type": "uint256"
        }
      ],
      "name": "getUserBalanceAtTimestamp",
      "outputs": [
        {
          "internalType": "uint256",
          "name": "",
          "type": "uint256"
        }
      ],
      "stateMutability": "view",
      "type": "function"
    },
    {
      "inputs": [
        {
          "internalType": "address",
          "name": "user",
          "type": "address"
        }
      ],
      "name": "getUserLastEpochCheckpointed",
      "outputs": [
        {
          "internalType": "uint256",
          "name": "",
          "type": "uint256"
        }
      ],
      "stateMutability": "view",
      "type": "function"
    },
    {
      "inputs": [
        {
          "internalType": "address",
          "name": "user",
          "type": "address"
        }
      ],
      "name": "getUserTimeCursor",
      "outputs": [
        {
          "internalType": "uint256",
          "name": "",
          "type": "uint256"
        }
      ],
      "stateMutability": "view",
      "type": "function"
    },
    {
      "inputs": [
        {
          "internalType": "address",
          "name": "user",
          "type": "address"
        },
        {
          "internalType": "contract IERC20",
          "name": "token",
          "type": "address"
        }
      ],
      "name": "getUserTokenTimeCursor",
      "outputs": [
        {
          "internalType": "uint256",
          "name": "",
          "type": "uint256"
        }
      ],
      "stateMutability": "view",
      "type": "function"
    },
    {
      "inputs": [],
      "name": "getVotingEscrow",
      "outputs": [
        {
          "internalType": "contract IVotingEscrow",
          "name": "",
          "type": "address"
        }
      ],
      "stateMutability": "view",
      "type": "function"
    },
    {
      "inputs": [
        {
          "internalType": "address",
          "name": "user",
          "type": "address"
        }
      ],
      "name": "isOnlyCallerEnabled",
      "outputs": [
        {
          "internalType": "bool",
          "name": "",
          "type": "bool"
        }
      ],
      "stateMutability": "view",
      "type": "function"
    },
    {
      "inputs": [
        {
          "internalType": "bool",
          "name": "enabled",
          "type": "bool"
        }
      ],
      "name": "setOnlyCallerCheck",
      "outputs": [],
      "stateMutability": "nonpayable",
      "type": "function"
    },
    {
      "inputs": [
        {
          "internalType": "address",
          "name": "user",
          "type": "address"
        },
        {
          "internalType": "bool",
          "name": "enabled",
          "type": "bool"
        },
        {
          "internalType": "bytes",
          "name": "signature",
          "type": "bytes"
        }
      ],
      "name": "setOnlyCallerCheckWithSignature",
      "outputs": [],
      "stateMutability": "nonpayable",
      "type": "function"
    }
  ],
  "bytecode": "0x6101206040523480156200001257600080fd5b50604051620027af380380620027af8339810160408190526200003591620001d5565b604080518082018252600e81526d2332b2a234b9ba3934b13aba37b960911b602080830191825283518085019094526001808552603160f81b9185019182529251909120608052915190912060a0527f8b73c3c69bb8fe3d512ecc4cf759cc79239f7b179b0ffacaa9a75d522b39400f60c0526002556001600160601b0319606083901b1660e0528181620000ca81620001c9565b90506000620000d942620001c9565b905080821015620001075760405162461bcd60e51b8152600401620000fe9062000228565b60405180910390fd5b80821415620001b55760405163bd85b03960e01b81526000906001600160a01b0385169063bd85b0399062000141908590600401620002a5565b60206040518083038186803b1580156200015a57600080fd5b505afa1580156200016f573d6000803e3d6000fd5b505050506040513d601f19601f820116820180604052508101906200019591906200020f565b11620001b55760405162461bcd60e51b8152600401620000fe906200025d565b5061010081905260035550620002ae915050565b62093a80908190040290565b60008060408385031215620001e8578182fd5b82516001600160a01b0381168114620001ff578283fd5b6020939093015192949293505050565b60006020828403121562000221578081fd5b5051919050565b6020808252818101527f43616e6e6f74207374617274206265666f72652063757272656e74207765656b604082015260600190565b60208082526028908201527f5a65726f20746f74616c20737570706c7920726573756c747320696e206c6f736040820152677420746f6b656e7360c01b606082015260800190565b90815260200190565b60805160a05160c05160e05160601c610100516124916200031e6000398061097b5280610acd5280610b325280610e8852508061035c52806108aa5280610a3d5280610c3852806113a1528061145b52806118955250806117665250806117a852508061178752506124916000f3fe608060405234801561001057600080fd5b506004361061018d5760003560e01c806388720467116100e3578063ca31879d1161008c578063e811f44b11610066578063e811f44b1461032c578063ed24911d1461033f578063fcaa54ee146103475761018d565b8063ca31879d146102f3578063d3dc4ca114610306578063de681faf146103195761018d565b8063a1648aa5116100bd578063a1648aa5146102b8578063acbc1428146102d8578063c2c4c5c1146102eb5761018d565b8063887204671461027257806390193b7c14610292578063905d10ac146102a55761018d565b80633902b9bc116101455780638050a7ee1161011f5780638050a7ee1461024457806382aa5ad414610257578063876e69a11461025f5761018d565b80633902b9bc1461020b5780634f3c50901461021e5780637b8d6221146102315761018d565b80632308805b116101765780632308805b146101c5578063286d5e7f146101e5578063338b5dea146101f85761018d565b806308b0308a1461019257806314866e08146101b0575b600080fd5b61019a61035a565b6040516101a79190612187565b60405180910390f35b6101c36101be366004611dec565b61037e565b005b6101d86101d3366004611dec565b61039a565b6040516101a7919061225f565b6101d86101f3366004611dec565b6103db565b6101c3610206366004611f62565b61041c565b6101c3610219366004611dec565b61045b565b6101d861022c366004612105565b61046e565b6101c361023f366004611fcd565b610480565b6101d8610252366004611f2a565b610556565b6101d861056b565b6101d861026d366004611dec565b610571565b610285610280366004611e08565b6105a2565b6040516101a7919061221c565b6101d86102a0366004611dec565b610685565b6101c36102b3366004611f8d565b6106a0565b6102cb6102c6366004611dec565b6106d5565b6040516101a79190612254565b6101d86102e6366004611dec565b6106f3565b6101c3610724565b6101d8610301366004611f2a565b61073e565b6101d8610314366004611f62565b610786565b6101d8610327366004611f62565b6107ae565b6101c361033a366004612036565b6107d6565b6101d86107e0565b6101c3610355366004611e5b565b6107ef565b7f000000000000000000000000000000000000000000000000000000000000000090565b610386610860565b61038f81610877565b610397610e06565b50565b6001600160a01b031660009081526005602052604090205470010000000000000000000000000000000090046fffffffffffffffffffffffffffffffff1690565b6001600160a01b031660009081526007602052604090205470010000000000000000000000000000000090046fffffffffffffffffffffffffffffffff1690565b610424610860565b61042f826000610e0d565b6104446001600160a01b038316333084611210565b61044f826001610e0d565b610457610e06565b5050565b610463610860565b61038f816001610e0d565b60009081526004602052604090205490565b610488610860565b61049283826112b3565b8260005b81811015610546576104c98686838181106104ad57fe5b90506020020160208101906104c29190611dec565b6000610e0d565b61051333308686858181106104da57fe5b905060200201358989868181106104ed57fe5b90506020020160208101906105029190611dec565b6001600160a01b0316929190611210565b61053e86868381811061052257fe5b90506020020160208101906105379190611dec565b6001610e0d565b600101610496565b5050610550610e06565b50505050565b600061056283836112c0565b90505b92915050565b60035490565b6001600160a01b031660009081526007602052604090205468010000000000000000900467ffffffffffffffff1690565b60606105ac610860565b836105b68161133e565b6105be611376565b6105c785610877565b8260608167ffffffffffffffff811180156105e157600080fd5b5060405190808252806020026020018201604052801561060b578160200160208202803683370190505b50905060005b82811015610671576106288787838181106104ad57fe5b6106528888888481811061063857fe5b905060200201602081019061064d9190611dec565b611506565b82828151811061065e57fe5b6020908102919091010152600101610611565b509250505061067e610e06565b9392505050565b6001600160a01b031660009081526020819052604090205490565b6106a8610860565b8060005b818110156106cb576106c384848381811061052257fe5b6001016106ac565b5050610457610e06565b6001600160a01b031660009081526001602052604090205460ff1690565b6001600160a01b031660009081526005602052604090205468010000000000000000900467ffffffffffffffff1690565b61072c610860565b610734611376565b61073c610e06565b565b6000610748610860565b826107528161133e565b61075a611376565b61076384610877565b61076e836000610e0d565b600061077a8585611506565b92505050610565610e06565b6001600160a01b03919091166000908152600660209081526040808320938352929052205490565b6001600160a01b03919091166000908152600860209081526040808320938352929052205490565b61039733826116e2565b60006107ea611762565b905090565b60007fbd291ffccec065968fe20c5f8debdad73ab50837733f357eeae8814178015a90848461081d87610685565b6040516020016108309493929190612268565b6040516020818303038152906040528051906020012090506108568482846101f86117ff565b61055084846116e2565b61087160028054141561019061182c565b60028055565b6040517f010ae7570000000000000000000000000000000000000000000000000000000081526000906001600160a01b037f0000000000000000000000000000000000000000000000000000000000000000169063010ae757906108df908590600401612187565b60206040518083038186803b1580156108f757600080fd5b505afa15801561090b573d6000803e3d6000fd5b505050506040513d601f19601f8201168201806040525081019061092f919061211d565b90508061093c5750610397565b6001600160a01b0382166000908152600760205260408120805490916801000000000000000090910467ffffffffffffffff1690816109a9576109a2857f000000000000000000000000000000000000000000000000000000000000000060008761183a565b90506109fc565b4282106109b95750505050610397565b50815470010000000000000000000000000000000090046fffffffffffffffffffffffffffffffff16601481850311156109fc576109f98583838761183a565b90505b80610a05575060015b610a0d611d63565b6040517f28d09d470000000000000000000000000000000000000000000000000000000081526001600160a01b037f000000000000000000000000000000000000000000000000000000000000000016906328d09d4790610a749089908690600401612203565b60806040518083038186803b158015610a8c57600080fd5b505afa158015610aa0573d6000803e3d6000fd5b505050506040513d601f19601f82011682018060405250810190610ac491906120ae565b905082610b98577f00000000000000000000000000000000000000000000000000000000000000004211610b2d576040517f08c379a0000000000000000000000000000000000000000000000000000000008152600401610b2490612388565b60405180910390fd5b610b637f0000000000000000000000000000000000000000000000000000000000000000610b5e836040015161194e565b61195e565b84547fffffffffffffffffffffffffffffffffffffffffffffffff00000000000000001667ffffffffffffffff821617855592505b610ba0611d63565b60005b6032811015610d6b5782604001518510158015610bc05750868411155b15610cc75760018401935082915086841115610c085760405180608001604052806000600f0b81526020016000600f0b81526020016000815260200160008152509250610cc2565b6040517f28d09d470000000000000000000000000000000000000000000000000000000081526001600160a01b037f000000000000000000000000000000000000000000000000000000000000000016906328d09d4790610c6f908b908890600401612203565b60806040518083038186803b158015610c8757600080fd5b505afa158015610c9b573d6000803e3d6000fd5b505050506040513d601f19601f82011682018060405250810190610cbf91906120ae565b92505b610d63565b428510610cd357610d6b565b6000826040015186039050600081846020015102600f0b8460000151600f0b13610cfe576000610d0f565b81846020015102846000015103600f0b5b905080158015610d1e57508886115b15610d3557610d2c4261194e565b96505050610d6b565b6001600160a01b038a1660009081526008602090815260408083208a84529091529020555062093a80909401935b600101610ba3565b505083546fffffffffffffffffffffffffffffffff167fffffffffffffffffffffffffffffffffffffffffffffffffffffffffffffffff9290920167ffffffffffffffff90811670010000000000000000000000000000000002929092177fffffffffffffffffffffffffffffffff0000000000000000ffffffffffffffff1668010000000000000000939092169290920217909155505050565b6001600255565b6001600160a01b0382166000908152600560205260408120805490916801000000000000000090910467ffffffffffffffff169081610ee457429150610e524261196a565b83547fffffffffffffffffffffffffffffffffffffffffffffffff00000000000000001667ffffffffffffffff919091161783557f00000000000000000000000000000000000000000000000000000000000000004211610edf576040517f08c379a0000000000000000000000000000000000000000000000000000000008152600401610b2490612388565b610f36565b814203905083610f36576000610ef98361196a565b610f024261196a565b14905060006201518042610f154261194e565b03109050818015610f24575080155b15610f33575050505050610457565b50505b82547fffffffffffffffffffffffffffffffff0000000000000000ffffffffffffffff16680100000000000000004267ffffffffffffffff16021783556040517f70a082310000000000000000000000000000000000000000000000000000000081526000906001600160a01b038716906370a0823190610fbb903090600401612187565b60206040518083038186803b158015610fd357600080fd5b505afa158015610fe7573d6000803e3d6000fd5b505050506040513d601f19601f8201168201806040525081019061100b919061211d565b845490915060009061104490839070010000000000000000000000000000000090046fffffffffffffffffffffffffffffffff16611976565b905080611055575050505050610457565b6fffffffffffffffffffffffffffffffff82111561109f576040517f08c379a0000000000000000000000000000000000000000000000000000000008152600401610b2490612351565b84546fffffffffffffffffffffffffffffffff80841670010000000000000000000000000000000002911617855560006110d88561196a565b6001600160a01b038916600090815260066020526040812091925090815b60148110156111c8578362093a8001925082421015611166578615801561111c57508742145b1561113a576000848152602083905260409020805486019055611161565b8688420386028161114757fe5b600086815260208590526040902080549290910490910190555b6111c8565b8615801561117357508783145b156111915760008481526020839052604090208054860190556111b8565b8688840386028161119e57fe5b600086815260208590526040902080549290910490910190555b91965086925082916001016110f6565b507f9b7f1a85a4c9b4e59e1b6527d9969c50cdfb3a1a467d0c4a51fb0ed8bf07f1308a85896040516111fc93929190612330565b60405180910390a150505050505050505050565b610550846323b872dd60e01b8585856040516024016112319392919061219b565b604080517fffffffffffffffffffffffffffffffffffffffffffffffffffffffffffffffe08184030181529190526020810180517bffffffffffffffffffffffffffffffffffffffffffffffffffffffff167fffffffff0000000000000000000000000000000000000000000000000000000090931692909217909152611984565b610457818314606761182c565b6001600160a01b03808316600090815260096020908152604080832093851683529290529081205480156112f5579050610565565b6001600160a01b03808516600090815260076020908152604080832054938716835260059091529020546113369167ffffffffffffffff908116911661195e565b949350505050565b6001600160a01b03811660009081526001602052604090205460ff161561039757610397336001600160a01b0383161461019161182c565b60035460006113844261196a565b90508082118061139357504281145b1561139f57505061073c565b7f00000000000000000000000000000000000000000000000000000000000000006001600160a01b031663c2c4c5c16040518163ffffffff1660e01b8152600401600060405180830381600087803b1580156113fa57600080fd5b505af115801561140e573d6000803e3d6000fd5b5050505060005b60148110156114ff578183111561142b576114ff565b6040517fbd85b0390000000000000000000000000000000000000000000000000000000081526001600160a01b037f0000000000000000000000000000000000000000000000000000000000000000169063bd85b0399061149090869060040161225f565b60206040518083038186803b1580156114a857600080fd5b505afa1580156114bc573d6000803e3d6000fd5b505050506040513d601f19601f820116820180604052508101906114e0919061211d565b60008481526004602052604090205562093a8090920191600101611415565b5050600355565b6001600160a01b03811660009081526005602052604081208161152985856112c0565b6003546001600160a01b0387166000908152600760205260408120549293509161159c9161157691611571919068010000000000000000900467ffffffffffffffff16611a24565b61194e565b84546115979068010000000000000000900467ffffffffffffffff1661196a565b611a24565b6001600160a01b038087166000908152600660209081526040808320938b16835260089091528120929350909190805b6014811015611620578486106115e157611620565b6000868152600460209081526040808320548683528184205492889052922054028161160957fe5b62093a8097909701960491909101906001016115cc565b506001600160a01b03808a166000908152600960209081526040808320938c1683529290522085905580156116d65785546fffffffffffffffffffffffffffffffff700100000000000000000000000000000000808304821684900382160291161786556116986001600160a01b0389168a83611a30565b7fff097c7d8b1957a4ff09ef1361b5fb54dcede3941ba836d0beb9d10bec725de6898983886040516116cd94939291906121da565b60405180910390a15b98975050505050505050565b6001600160a01b0382166000908152600160205260409081902080547fffffffffffffffffffffffffffffffffffffffffffffffffffffffffffffff0016831515179055517fac9874a7a931a3f5c9f202c6d9cf40de5d21506993c9f9c38ca8265add89584c9061175690849084906121bf565b60405180910390a15050565b60007f00000000000000000000000000000000000000000000000000000000000000007f00000000000000000000000000000000000000000000000000000000000000007f00000000000000000000000000000000000000000000000000000000000000006117cf611a54565b306040516020016117e495949392919061228e565b60405160208183030381529060405280519060200120905090565b6105508484847fffffffffffffffffffffffffffffffffffffffffffffffffffffffffffffffff85611a58565b816104575761045781611aaf565b60008282825b60808110156119425781831061185557611942565b6002828401810104611865611d63565b6040517f28d09d470000000000000000000000000000000000000000000000000000000081526001600160a01b037f000000000000000000000000000000000000000000000000000000000000000016906328d09d47906118cc908d908690600401612203565b60806040518083038186803b1580156118e457600080fd5b505afa1580156118f8573d6000803e3d6000fd5b505050506040513d601f19601f8201168201806040525081019061191c91906120ae565b90508881604001511161193157819450611938565b6001820393505b5050600101611840565b50909695505050505050565b600061056562093a7f830161196a565b80820390821002900390565b62093a80908190040290565b600061056283836001611ad9565b60006060836001600160a01b0316836040516119a09190612135565b6000604051808303816000865af19150503d80600081146119dd576040519150601f19603f3d011682016040523d82523d6000602084013e6119e2565b606091505b509150915060008214156119fa573d6000803e3d6000fd5b610550815160001480611a1c575081806020019051810190611a1c9190612052565b6101a261182c565b80820390821102900390565b611a4f8363a9059cbb60e01b8484604051602401611231929190612203565b505050565b4690565b6000611a6385611aef565b9050611a79611a73878387611b28565b8361182c565b611a88428410156101b861182c565b5050506001600160a01b039092166000908152602081905260409020805460010190555050565b610397817f42414c0000000000000000000000000000000000000000000000000000000000611c16565b6000611ae8848411158361182c565b5050900390565b6000611af9611762565b82604051602001611b0b929190612151565b604051602081830303815290604052805190602001209050919050565b6000611b3c846001600160a01b0316611c91565b15611c04576040517f1626ba7e00000000000000000000000000000000000000000000000000000000808252906001600160a01b03861690631626ba7e90611b8a90879087906004016122ba565b60206040518083038186803b158015611ba257600080fd5b505afa158015611bb6573d6000803e3d6000fd5b505050506040513d601f19601f82011682018060405250810190611bda919061206e565b7fffffffff000000000000000000000000000000000000000000000000000000001614905061067e565b611c0f848484611c97565b905061067e565b7f08c379a000000000000000000000000000000000000000000000000000000000600090815260206004526007602452600a808404818106603090810160081b958390069590950190829004918206850160101b01602363ffffff0060e086901c160160181b0190930160c81b60445260e882901c90606490fd5b3b151590565b6000611ca982516041146101b961182c565b60208281015160408085015160608601518251600080825295019283905292939092811a91600190611ce2908990859088908890612312565b6020604051602081039080840390855afa158015611d04573d6000803e3d6000fd5b50506040517fffffffffffffffffffffffffffffffffffffffffffffffffffffffffffffffe001519150506001600160a01b038116158015906116d65750876001600160a01b0316816001600160a01b03161498975050505050505050565b60405180608001604052806000600f0b81526020016000600f0b815260200160008152602001600081525090565b60008083601f840112611da2578182fd5b50813567ffffffffffffffff811115611db9578182fd5b6020830191508360208083028501011115611dd357600080fd5b9250929050565b8051600f81900b811461056557600080fd5b600060208284031215611dfd578081fd5b813561067e81612438565b600080600060408486031215611e1c578182fd5b8335611e2781612438565b9250602084013567ffffffffffffffff811115611e42578283fd5b611e4e86828701611d91565b9497909650939450505050565b600080600060608486031215611e6f578283fd5b8335611e7a81612438565b9250602084810135611e8b8161244d565b9250604085013567ffffffffffffffff80821115611ea7578384fd5b818701915087601f830112611eba578384fd5b813581811115611ec8578485fd5b611ef8847fffffffffffffffffffffffffffffffffffffffffffffffffffffffffffffffe0601f840116016123e5565b91508082528884828501011115611f0d578485fd5b808484018584013784848284010152508093505050509250925092565b60008060408385031215611f3c578182fd5b8235611f4781612438565b91506020830135611f5781612438565b809150509250929050565b60008060408385031215611f74578182fd5b8235611f7f81612438565b946020939093013593505050565b60008060208385031215611f9f578182fd5b823567ffffffffffffffff811115611fb5578283fd5b611fc185828601611d91565b90969095509350505050565b60008060008060408587031215611fe2578081fd5b843567ffffffffffffffff80821115611ff9578283fd5b61200588838901611d91565b9096509450602087013591508082111561201d578283fd5b5061202a87828801611d91565b95989497509550505050565b600060208284031215612047578081fd5b813561067e8161244d565b600060208284031215612063578081fd5b815161067e8161244d565b60006020828403121561207f578081fd5b81517fffffffff000000000000000000000000000000000000000000000000000000008116811461067e578182fd5b6000608082840312156120bf578081fd5b6120c960806123e5565b6120d38484611dda565b81526120e28460208501611dda565b602082015260408301516040820152606083015160608201528091505092915050565b600060208284031215612116578081fd5b5035919050565b60006020828403121561212e578081fd5b5051919050565b6000825161214781846020870161240c565b9190910192915050565b7f190100000000000000000000000000000000000000000000000000000000000081526002810192909252602282015260420190565b6001600160a01b0391909116815260200190565b6001600160a01b039384168152919092166020820152604081019190915260600190565b6001600160a01b039290921682521515602082015260400190565b6001600160a01b0394851681529290931660208301526040820152606081019190915260800190565b6001600160a01b03929092168252602082015260400190565b6020808252825182820181905260009190848201906040850190845b8181101561194257835183529284019291840191600101612238565b901515815260200190565b90815260200190565b9384526001600160a01b0392909216602084015215156040830152606082015260800190565b9485526020850193909352604084019190915260608301526001600160a01b0316608082015260a00190565b60008382526040602083015282518060408401526122df81606085016020870161240c565b601f017fffffffffffffffffffffffffffffffffffffffffffffffffffffffffffffffe016919091016060019392505050565b93845260ff9290921660208401526040830152606082015260800190565b6001600160a01b039390931683526020830191909152604082015260600190565b6020808252601e908201527f4d6178696d756d20746f6b656e2062616c616e63652065786365656465640000604082015260600190565b60208082526024908201527f46656520646973747269627574696f6e20686173206e6f74207374617274656460408201527f2079657400000000000000000000000000000000000000000000000000000000606082015260800190565b60405181810167ffffffffffffffff8111828210171561240457600080fd5b604052919050565b60005b8381101561242757818101518382015260200161240f565b838111156105505750506000910152565b6001600160a01b038116811461039757600080fd5b801515811461039757600080fdfea26469706673582212203a094045f803b249e5ca6948b5dadd54aff32304b40d2faa3ca1c046c07c4b7c64736f6c63430007010033",
  "linkReferences": {},
  "deployedLinkReferences": {}
}