{
  "_format": "hh-sol-artifact-1",
  "contractName": "MockBalancerPoolToken",
  "sourceName": "contracts/test/MockBalancerPoolToken.sol",
  "abi": [
    {
      "inputs": [
        {
          "internalType": "string",
          "name": "name",
          "type": "string"
        },
        {
          "internalType": "string",
          "name": "symbol",
          "type": "string"
        },
        {
          "internalType": "contract IVault",
          "name": "vault",
          "type": "address"
        }
      ],
      "stateMutability": "nonpayable",
      "type": "constructor"
    },
    {
      "anonymous": false,
      "inputs": [
        {
          "indexed": true,
          "internalType": "address",
          "name": "owner",
          "type": "address"
        },
        {
          "indexed": true,
          "internalType": "address",
          "name": "spender",
          "type": "address"
        },
        {
          "indexed": false,
          "internalType": "uint256",
          "name": "value",
          "type": "uint256"
        }
      ],
      "name": "Approval",
      "type": "event"
    },
    {
      "anonymous": false,
      "inputs": [
        {
          "indexed": true,
          "internalType": "address",
          "name": "from",
          "type": "address"
        },
        {
          "indexed": true,
          "internalType": "address",
          "name": "to",
          "type": "address"
        },
        {
          "indexed": false,
          "internalType": "uint256",
          "name": "value",
          "type": "uint256"
        }
      ],
      "name": "Transfer",
      "type": "event"
    },
    {
      "inputs": [],
      "name": "DOMAIN_SEPARATOR",
      "outputs": [
        {
          "internalType": "bytes32",
          "name": "",
          "type": "bytes32"
        }
      ],
      "stateMutability": "view",
      "type": "function"
    },
    {
      "inputs": [
        {
          "internalType": "address",
          "name": "owner",
          "type": "address"
        },
        {
          "internalType": "address",
          "name": "spender",
          "type": "address"
        }
      ],
      "name": "allowance",
      "outputs": [
        {
          "internalType": "uint256",
          "name": "",
          "type": "uint256"
        }
      ],
      "stateMutability": "view",
      "type": "function"
    },
    {
      "inputs": [
        {
          "internalType": "address",
          "name": "spender",
          "type": "address"
        },
        {
          "internalType": "uint256",
          "name": "amount",
          "type": "uint256"
        }
      ],
      "name": "approve",
      "outputs": [
        {
          "internalType": "bool",
          "name": "",
          "type": "bool"
        }
      ],
      "stateMutability": "nonpayable",
      "type": "function"
    },
    {
      "inputs": [
        {
          "internalType": "address",
          "name": "account",
          "type": "address"
        }
      ],
      "name": "balanceOf",
      "outputs": [
        {
          "internalType": "uint256",
          "name": "",
          "type": "uint256"
        }
      ],
      "stateMutability": "view",
      "type": "function"
    },
    {
      "inputs": [
        {
          "internalType": "address",
          "name": "sender",
          "type": "address"
        },
        {
          "internalType": "uint256",
          "name": "amount",
          "type": "uint256"
        }
      ],
      "name": "burn",
      "outputs": [],
      "stateMutability": "nonpayable",
      "type": "function"
    },
    {
      "inputs": [],
      "name": "decimals",
      "outputs": [
        {
          "internalType": "uint8",
          "name": "",
          "type": "uint8"
        }
      ],
      "stateMutability": "view",
      "type": "function"
    },
    {
      "inputs": [
        {
          "internalType": "address",
          "name": "spender",
          "type": "address"
        },
        {
          "internalType": "uint256",
          "name": "amount",
          "type": "uint256"
        }
      ],
      "name": "decreaseAllowance",
      "outputs": [
        {
          "internalType": "bool",
          "name": "",
          "type": "bool"
        }
      ],
      "stateMutability": "nonpayable",
      "type": "function"
    },
    {
      "inputs": [],
      "name": "getDomainSeparator",
      "outputs": [
        {
          "internalType": "bytes32",
          "name": "",
          "type": "bytes32"
        }
      ],
      "stateMutability": "view",
      "type": "function"
    },
    {
      "inputs": [
        {
          "internalType": "address",
          "name": "account",
          "type": "address"
        }
      ],
      "name": "getNextNonce",
      "outputs": [
        {
          "internalType": "uint256",
          "name": "",
          "type": "uint256"
        }
      ],
      "stateMutability": "view",
      "type": "function"
    },
    {
      "inputs": [],
      "name": "getVault",
      "outputs": [
        {
          "internalType": "contract IVault",
          "name": "",
          "type": "address"
        }
      ],
      "stateMutability": "view",
      "type": "function"
    },
    {
      "inputs": [
        {
          "internalType": "address",
          "name": "spender",
          "type": "address"
        },
        {
          "internalType": "uint256",
          "name": "addedValue",
          "type": "uint256"
        }
      ],
      "name": "increaseAllowance",
      "outputs": [
        {
          "internalType": "bool",
          "name": "",
          "type": "bool"
        }
      ],
      "stateMutability": "nonpayable",
      "type": "function"
    },
    {
      "inputs": [
        {
          "internalType": "address",
          "name": "recipient",
          "type": "address"
        },
        {
          "internalType": "uint256",
          "name": "amount",
          "type": "uint256"
        }
      ],
      "name": "mint",
      "outputs": [],
      "stateMutability": "nonpayable",
      "type": "function"
    },
    {
      "inputs": [],
      "name": "name",
      "outputs": [
        {
          "internalType": "string",
          "name": "",
          "type": "string"
        }
      ],
      "stateMutability": "view",
      "type": "function"
    },
    {
      "inputs": [
        {
          "internalType": "address",
          "name": "owner",
          "type": "address"
        }
      ],
      "name": "nonces",
      "outputs": [
        {
          "internalType": "uint256",
          "name": "",
          "type": "uint256"
        }
      ],
      "stateMutability": "view",
      "type": "function"
    },
    {
      "inputs": [
        {
          "internalType": "address",
          "name": "owner",
          "type": "address"
        },
        {
          "internalType": "address",
          "name": "spender",
          "type": "address"
        },
        {
          "internalType": "uint256",
          "name": "value",
          "type": "uint256"
        },
        {
          "internalType": "uint256",
          "name": "deadline",
          "type": "uint256"
        },
        {
          "internalType": "uint8",
          "name": "v",
          "type": "uint8"
        },
        {
          "internalType": "bytes32",
          "name": "r",
          "type": "bytes32"
        },
        {
          "internalType": "bytes32",
          "name": "s",
          "type": "bytes32"
        }
      ],
      "name": "permit",
      "outputs": [],
      "stateMutability": "nonpayable",
      "type": "function"
    },
    {
      "inputs": [],
      "name": "symbol",
      "outputs": [
        {
          "internalType": "string",
          "name": "",
          "type": "string"
        }
      ],
      "stateMutability": "view",
      "type": "function"
    },
    {
      "inputs": [],
      "name": "totalSupply",
      "outputs": [
        {
          "internalType": "uint256",
          "name": "",
          "type": "uint256"
        }
      ],
      "stateMutability": "view",
      "type": "function"
    },
    {
      "inputs": [
        {
          "internalType": "address",
          "name": "recipient",
          "type": "address"
        },
        {
          "internalType": "uint256",
          "name": "amount",
          "type": "uint256"
        }
      ],
      "name": "transfer",
      "outputs": [
        {
          "internalType": "bool",
          "name": "",
          "type": "bool"
        }
      ],
      "stateMutability": "nonpayable",
      "type": "function"
    },
    {
      "inputs": [
        {
          "internalType": "address",
          "name": "sender",
          "type": "address"
        },
        {
          "internalType": "address",
          "name": "recipient",
          "type": "address"
        },
        {
          "internalType": "uint256",
          "name": "amount",
          "type": "uint256"
        }
      ],
      "name": "transferFrom",
      "outputs": [
        {
          "internalType": "bool",
          "name": "",
          "type": "bool"
        }
      ],
      "stateMutability": "nonpayable",
      "type": "function"
    }
  ],
  "bytecode": "0x6101006040523480156200001257600080fd5b50604051620014a0380380620014a0833981810160405260608110156200003857600080fd5b81019080805160405193929190846401000000008211156200005957600080fd5b9083019060208201858111156200006f57600080fd5b82516401000000008111828201881017156200008a57600080fd5b82525081516020918201929091019080838360005b83811015620000b95781810151838201526020016200009f565b50505050905090810190601f168015620000e75780820380516001836020036101000a031916815260200191505b50604052602001805160405193929190846401000000008211156200010b57600080fd5b9083019060208201858111156200012157600080fd5b82516401000000008111828201881017156200013c57600080fd5b82525081516020918201929091019080838360005b838110156200016b57818101518382015260200162000151565b50505050905090810190601f168015620001995780820380516001836020036101000a031916815260200191505b50604081815260209283015182820190915260018252603160f81b838301528651909450869350859285928592839283918791620001dd9160039185019062000259565b508051620001f390600490602084019062000259565b505060058054601260ff19909116179055508151602092830120608052805191012060a052507f8b73c3c69bb8fe3d512ecc4cf759cc79239f7b179b0ffacaa9a75d522b39400f60c05260601b6001600160601b03191660e05250620002f59350505050565b828054600181600116156101000203166002900490600052602060002090601f016020900481019282601f106200029c57805160ff1916838001178555620002cc565b82800160010185558215620002cc579182015b82811115620002cc578251825591602001919060010190620002af565b50620002da929150620002de565b5090565b5b80821115620002da5760008155600101620002df565b60805160a05160c05160e05160601c6111726200032e60003980610755525080610c79525080610cbb525080610c9a52506111726000f3fe608060405234801561001057600080fd5b50600436106101515760003560e01c80637ecebe00116100cd578063a457c2d711610081578063d505accf11610066578063d505accf14610494578063dd62ed3e146104f2578063ed24911d1461052d57610151565b8063a457c2d714610422578063a9059cbb1461045b57610151565b806390193b7c116100b257806390193b7c146103ae57806395d89b41146103e15780639dc29fac146103e957610151565b80637ecebe001461034a5780638d928af81461037d57610151565b8063313ce56711610124578063395093511161010957806339509351146102a357806340c10f19146102dc57806370a082311461031757610151565b8063313ce5671461027d5780633644e5151461029b57610151565b806306fdde0314610156578063095ea7b3146101d357806318160ddd1461022057806323b872dd1461023a575b600080fd5b61015e610535565b6040805160208082528351818301528351919283929083019185019080838360005b83811015610198578181015183820152602001610180565b50505050905090810190601f1680156101c55780820380516001836020036101000a031916815260200191505b509250505060405180910390f35b61020c600480360360408110156101e957600080fd5b5073ffffffffffffffffffffffffffffffffffffffff81351690602001356105e9565b604080519115158252519081900360200190f35b610228610600565b60408051918252519081900360200190f35b61020c6004803603606081101561025057600080fd5b5073ffffffffffffffffffffffffffffffffffffffff813581169160208101359091169060400135610606565b6102856106b2565b6040805160ff9092168252519081900360200190f35b6102286106bb565b61020c600480360360408110156102b957600080fd5b5073ffffffffffffffffffffffffffffffffffffffff81351690602001356106ca565b610315600480360360408110156102f257600080fd5b5073ffffffffffffffffffffffffffffffffffffffff8135169060200135610712565b005b6102286004803603602081101561032d57600080fd5b503573ffffffffffffffffffffffffffffffffffffffff16610720565b6102286004803603602081101561036057600080fd5b503573ffffffffffffffffffffffffffffffffffffffff16610748565b610385610753565b6040805173ffffffffffffffffffffffffffffffffffffffff9092168252519081900360200190f35b610228600480360360208110156103c457600080fd5b503573ffffffffffffffffffffffffffffffffffffffff16610777565b61015e61079f565b610315600480360360408110156103ff57600080fd5b5073ffffffffffffffffffffffffffffffffffffffff813516906020013561081e565b61020c6004803603604081101561043857600080fd5b5073ffffffffffffffffffffffffffffffffffffffff8135169060200135610828565b61020c6004803603604081101561047157600080fd5b5073ffffffffffffffffffffffffffffffffffffffff8135169060200135610866565b610315600480360360e08110156104aa57600080fd5b5073ffffffffffffffffffffffffffffffffffffffff813581169160208101359091169060408101359060608101359060ff6080820135169060a08101359060c00135610873565b6102286004803603604081101561050857600080fd5b5073ffffffffffffffffffffffffffffffffffffffff81358116916020013516610948565b6102286109bd565b60038054604080516020601f60027fffffffffffffffffffffffffffffffffffffffffffffffffffffffffffffffff6101006001881615020190951694909404938401819004810282018101909252828152606093909290918301828280156105df5780601f106105b4576101008083540402835291602001916105df565b820191906000526020600020905b8154815290600101906020018083116105c257829003601f168201915b5050505050905090565b60006105f63384846109c7565b5060015b92915050565b60025490565b6000806106138533610948565b90506106443373ffffffffffffffffffffffffffffffffffffffff8716148061063c5750838210155b61019e610a36565b61064f858585610a44565b3373ffffffffffffffffffffffffffffffffffffffff86161480159061069557507fffffffffffffffffffffffffffffffffffffffffffffffffffffffffffffffff8114155b156106a7576106a785338584036109c7565b506001949350505050565b60055460ff1690565b60006106c56109bd565b905090565b33600081815260016020908152604080832073ffffffffffffffffffffffffffffffffffffffff8716845290915281205490916105f691859061070d9086610b6d565b6109c7565b61071c8282610b86565b5050565b73ffffffffffffffffffffffffffffffffffffffff1660009081526020819052604090205490565b60006105fa82610777565b7f000000000000000000000000000000000000000000000000000000000000000090565b73ffffffffffffffffffffffffffffffffffffffff1660009081526006602052604090205490565b60048054604080516020601f60027fffffffffffffffffffffffffffffffffffffffffffffffffffffffffffffffff6101006001881615020190951694909404938401819004810282018101909252828152606093909290918301828280156105df5780601f106105b4576101008083540402835291602001916105df565b61071c8282610b90565b6000806108353385610948565b905080831061084f5761084a338560006109c7565b61085c565b61085c33858584036109c7565b5060019392505050565b60006105f6338484610a44565b60007f6e71edae12b1b97f4d1f60370fef10105fa2faae0126114a169c64845d6126c98888886108a28c610777565b89604051602001808781526020018673ffffffffffffffffffffffffffffffffffffffff1681526020018573ffffffffffffffffffffffffffffffffffffffff1681526020018481526020018381526020018281526020019650505050505050604051602081830303815290604052805190602001209050610933888261092a878787610b9a565b886101f8610bd9565b61093e8888886109c7565b5050505050505050565b6000610952610753565b73ffffffffffffffffffffffffffffffffffffffff168273ffffffffffffffffffffffffffffffffffffffff1614156109ac57507fffffffffffffffffffffffffffffffffffffffffffffffffffffffffffffffff6105fa565b6109b68383610c3d565b90506105fa565b60006106c5610c75565b73ffffffffffffffffffffffffffffffffffffffff808416600081815260016020908152604080832094871680845294825291829020859055815185815291517f8c5be1e5ebec7d5bd14f71427d1e84f3dd0314c0f7b2291e5b200ac8c7c3b9259281900390910190a3505050565b8161071c5761071c81610d40565b610a6873ffffffffffffffffffffffffffffffffffffffff84161515610198610a36565b610a8c73ffffffffffffffffffffffffffffffffffffffff83161515610199610a36565b610a97838383610d6d565b73ffffffffffffffffffffffffffffffffffffffff8316600090815260208190526040902054610aca90826101a0610d72565b73ffffffffffffffffffffffffffffffffffffffff8085166000908152602081905260408082209390935590841681522054610b069082610b6d565b73ffffffffffffffffffffffffffffffffffffffff8084166000818152602081815260409182902094909455805185815290519193928716927fddf252ad1be2c89b69c2b068fc378daa952ba7f163c4a11628f55a4df523b3ef92918290030190a3505050565b6000828201610b7f8482101583610a36565b9392505050565b61071c8282610d88565b61071c8282610e41565b60408051604180825260808201909252606091829190602082018180368337019050509050836020820152826040820152846060820153949350505050565b6000610be485610f31565b9050610bfa610bf4878387610f98565b83610a36565b610c09428410156101b8610a36565b50505073ffffffffffffffffffffffffffffffffffffffff9092166000908152600660205260409020805460010190555050565b73ffffffffffffffffffffffffffffffffffffffff918216600090815260016020908152604080832093909416825291909152205490565b60007f00000000000000000000000000000000000000000000000000000000000000007f00000000000000000000000000000000000000000000000000000000000000007f0000000000000000000000000000000000000000000000000000000000000000610ce26110aa565b30604051602001808681526020018581526020018481526020018381526020018273ffffffffffffffffffffffffffffffffffffffff1681526020019550505050505060405160208183030381529060405280519060200120905090565b610d6a817f42414c00000000000000000000000000000000000000000000000000000000006110ae565b50565b505050565b6000610d818484111583610a36565b5050900390565b610d9460008383610d6d565b610dae610da982610da3610600565b90610b6d565b611129565b73ffffffffffffffffffffffffffffffffffffffff8216600090815260208190526040902054610dde9082610b6d565b73ffffffffffffffffffffffffffffffffffffffff83166000818152602081815260408083209490945583518581529351929391927fddf252ad1be2c89b69c2b068fc378daa952ba7f163c4a11628f55a4df523b3ef9281900390910190a35050565b610e6573ffffffffffffffffffffffffffffffffffffffff8316151561019b610a36565b610e7182600083610d6d565b73ffffffffffffffffffffffffffffffffffffffff8216600090815260208190526040902054610ea490826101b2610d72565b73ffffffffffffffffffffffffffffffffffffffff8316600090815260208190526040902055610edf610da982610ed9610600565b9061112e565b60408051828152905160009173ffffffffffffffffffffffffffffffffffffffff8516917fddf252ad1be2c89b69c2b068fc378daa952ba7f163c4a11628f55a4df523b3ef9181900360200190a35050565b6000610f3b610c75565b8260405160200180807f190100000000000000000000000000000000000000000000000000000000000081525060020183815260200182815260200192505050604051602081830303815290604052805190602001209050919050565b6000610faa82516041146101b9610a36565b60008060006020850151925060408501519150606085015160001a9050600060018783868660405160008152602001604052604051808581526020018460ff1681526020018381526020018281526020019450505050506020604051602081039080840390855afa158015611023573d6000803e3d6000fd5b50506040517fffffffffffffffffffffffffffffffffffffffffffffffffffffffffffffffe0015191505073ffffffffffffffffffffffffffffffffffffffff81161580159061109e57508773ffffffffffffffffffffffffffffffffffffffff168173ffffffffffffffffffffffffffffffffffffffff16145b98975050505050505050565b4690565b7f08c379a000000000000000000000000000000000000000000000000000000000600090815260206004526007602452600a808404818106603090810160081b958390069590950190829004918206850160101b01602363ffffff0060e086901c160160181b0190930160c81b60445260e882901c90606490fd5b600255565b6000610b7f83836001610d7256fea26469706673582212206185903b31c0f9b90b4f23a84151647b26cbb76612405a9401b0e422009eef6c64736f6c63430007010033",
  "linkReferences": {},
  "deployedLinkReferences": {}
}