{
  "_format": "hh-sol-artifact-1",
  "contractName": "MockTetuSmartVault",
  "sourceName": "contracts/test/MockTetuSmartVault.sol",
  "abi": [
    {
      "inputs": [
        {
          "internalType": "string",
          "name": "name",
          "type": "string"
        },
        {
          "internalType": "string",
          "name": "symbol",
          "type": "string"
        },
        {
          "internalType": "uint8",
          "name": "decimals",
          "type": "uint8"
        },
        {
          "internalType": "address",
          "name": "_underlyingAsset",
          "type": "address"
        },
        {
          "internalType": "contract MockTetuStrategy",
          "name": "tetuStrategy",
          "type": "address"
        }
      ],
      "stateMutability": "nonpayable",
      "type": "constructor"
    },
    {
      "anonymous": false,
      "inputs": [
        {
          "indexed": true,
          "internalType": "address",
          "name": "owner",
          "type": "address"
        },
        {
          "indexed": true,
          "internalType": "address",
          "name": "spender",
          "type": "address"
        },
        {
          "indexed": false,
          "internalType": "uint256",
          "name": "value",
          "type": "uint256"
        }
      ],
      "name": "Approval",
      "type": "event"
    },
    {
      "anonymous": false,
      "inputs": [
        {
          "indexed": true,
          "internalType": "address",
          "name": "from",
          "type": "address"
        },
        {
          "indexed": true,
          "internalType": "address",
          "name": "to",
          "type": "address"
        },
        {
          "indexed": false,
          "internalType": "uint256",
          "name": "value",
          "type": "uint256"
        }
      ],
      "name": "Transfer",
      "type": "event"
    },
    {
      "inputs": [],
      "name": "DOMAIN_SEPARATOR",
      "outputs": [
        {
          "internalType": "bytes32",
          "name": "",
          "type": "bytes32"
        }
      ],
      "stateMutability": "view",
      "type": "function"
    },
    {
      "inputs": [
        {
          "internalType": "address",
          "name": "owner",
          "type": "address"
        },
        {
          "internalType": "address",
          "name": "spender",
          "type": "address"
        }
      ],
      "name": "allowance",
      "outputs": [
        {
          "internalType": "uint256",
          "name": "",
          "type": "uint256"
        }
      ],
      "stateMutability": "view",
      "type": "function"
    },
    {
      "inputs": [
        {
          "internalType": "address",
          "name": "spender",
          "type": "address"
        },
        {
          "internalType": "uint256",
          "name": "amount",
          "type": "uint256"
        }
      ],
      "name": "approve",
      "outputs": [
        {
          "internalType": "bool",
          "name": "",
          "type": "bool"
        }
      ],
      "stateMutability": "nonpayable",
      "type": "function"
    },
    {
      "inputs": [
        {
          "internalType": "address",
          "name": "account",
          "type": "address"
        }
      ],
      "name": "balanceOf",
      "outputs": [
        {
          "internalType": "uint256",
          "name": "",
          "type": "uint256"
        }
      ],
      "stateMutability": "view",
      "type": "function"
    },
    {
      "inputs": [
        {
          "internalType": "uint256",
          "name": "amount",
          "type": "uint256"
        }
      ],
      "name": "burn",
      "outputs": [],
      "stateMutability": "nonpayable",
      "type": "function"
    },
    {
      "inputs": [
        {
          "internalType": "address",
          "name": "account",
          "type": "address"
        },
        {
          "internalType": "uint256",
          "name": "amount",
          "type": "uint256"
        }
      ],
      "name": "burnFrom",
      "outputs": [],
      "stateMutability": "nonpayable",
      "type": "function"
    },
    {
      "inputs": [
        {
          "internalType": "address",
          "name": "sender",
          "type": "address"
        },
        {
          "internalType": "uint256",
          "name": "amount",
          "type": "uint256"
        }
      ],
      "name": "burnWithoutAllowance",
      "outputs": [],
      "stateMutability": "nonpayable",
      "type": "function"
    },
    {
      "inputs": [],
      "name": "decimals",
      "outputs": [
        {
          "internalType": "uint8",
          "name": "",
          "type": "uint8"
        }
      ],
      "stateMutability": "view",
      "type": "function"
    },
    {
      "inputs": [
        {
          "internalType": "address",
          "name": "spender",
          "type": "address"
        },
        {
          "internalType": "uint256",
          "name": "subtractedValue",
          "type": "uint256"
        }
      ],
      "name": "decreaseAllowance",
      "outputs": [
        {
          "internalType": "bool",
          "name": "",
          "type": "bool"
        }
      ],
      "stateMutability": "nonpayable",
      "type": "function"
    },
    {
      "inputs": [
        {
          "internalType": "uint256",
          "name": "amount",
          "type": "uint256"
        }
      ],
      "name": "deposit",
      "outputs": [],
      "stateMutability": "nonpayable",
      "type": "function"
    },
    {
      "inputs": [
        {
          "internalType": "uint256",
          "name": "",
          "type": "uint256"
        },
        {
          "internalType": "address",
          "name": "",
          "type": "address"
        }
      ],
      "name": "depositFor",
      "outputs": [],
      "stateMutability": "pure",
      "type": "function"
    },
    {
      "inputs": [
        {
          "internalType": "uint256",
          "name": "wrappedAmount",
          "type": "uint256"
        },
        {
          "internalType": "contract ITetuSmartVault",
          "name": "wrappedToken",
          "type": "address"
        }
      ],
      "name": "fromTetuAmount",
      "outputs": [
        {
          "internalType": "uint256",
          "name": "",
          "type": "uint256"
        }
      ],
      "stateMutability": "view",
      "type": "function"
    },
    {
      "inputs": [],
      "name": "getDomainSeparator",
      "outputs": [
        {
          "internalType": "bytes32",
          "name": "",
          "type": "bytes32"
        }
      ],
      "stateMutability": "view",
      "type": "function"
    },
    {
      "inputs": [
        {
          "internalType": "address",
          "name": "account",
          "type": "address"
        }
      ],
      "name": "getNextNonce",
      "outputs": [
        {
          "internalType": "uint256",
          "name": "",
          "type": "uint256"
        }
      ],
      "stateMutability": "view",
      "type": "function"
    },
    {
      "inputs": [],
      "name": "getPricePerFullShare",
      "outputs": [
        {
          "internalType": "uint256",
          "name": "",
          "type": "uint256"
        }
      ],
      "stateMutability": "pure",
      "type": "function"
    },
    {
      "inputs": [
        {
          "internalType": "address",
          "name": "spender",
          "type": "address"
        },
        {
          "internalType": "uint256",
          "name": "addedValue",
          "type": "uint256"
        }
      ],
      "name": "increaseAllowance",
      "outputs": [
        {
          "internalType": "bool",
          "name": "",
          "type": "bool"
        }
      ],
      "stateMutability": "nonpayable",
      "type": "function"
    },
    {
      "inputs": [
        {
          "internalType": "address",
          "name": "recipient",
          "type": "address"
        },
        {
          "internalType": "uint256",
          "name": "amount",
          "type": "uint256"
        }
      ],
      "name": "mint",
      "outputs": [],
      "stateMutability": "nonpayable",
      "type": "function"
    },
    {
      "inputs": [],
      "name": "name",
      "outputs": [
        {
          "internalType": "string",
          "name": "",
          "type": "string"
        }
      ],
      "stateMutability": "view",
      "type": "function"
    },
    {
      "inputs": [
        {
          "internalType": "address",
          "name": "owner",
          "type": "address"
        }
      ],
      "name": "nonces",
      "outputs": [
        {
          "internalType": "uint256",
          "name": "",
          "type": "uint256"
        }
      ],
      "stateMutability": "view",
      "type": "function"
    },
    {
      "inputs": [
        {
          "internalType": "address",
          "name": "owner",
          "type": "address"
        },
        {
          "internalType": "address",
          "name": "spender",
          "type": "address"
        },
        {
          "internalType": "uint256",
          "name": "value",
          "type": "uint256"
        },
        {
          "internalType": "uint256",
          "name": "deadline",
          "type": "uint256"
        },
        {
          "internalType": "uint8",
          "name": "v",
          "type": "uint8"
        },
        {
          "internalType": "bytes32",
          "name": "r",
          "type": "bytes32"
        },
        {
          "internalType": "bytes32",
          "name": "s",
          "type": "bytes32"
        }
      ],
      "name": "permit",
      "outputs": [],
      "stateMutability": "nonpayable",
      "type": "function"
    },
    {
      "inputs": [
        {
          "internalType": "uint256",
          "name": "newRate",
          "type": "uint256"
        }
      ],
      "name": "setRate",
      "outputs": [],
      "stateMutability": "nonpayable",
      "type": "function"
    },
    {
      "inputs": [],
      "name": "strategy",
      "outputs": [
        {
          "internalType": "address",
          "name": "",
          "type": "address"
        }
      ],
      "stateMutability": "view",
      "type": "function"
    },
    {
      "inputs": [],
      "name": "symbol",
      "outputs": [
        {
          "internalType": "string",
          "name": "",
          "type": "string"
        }
      ],
      "stateMutability": "view",
      "type": "function"
    },
    {
      "inputs": [
        {
          "internalType": "uint256",
          "name": "mainAmount",
          "type": "uint256"
        },
        {
          "internalType": "contract ITetuSmartVault",
          "name": "wrappedToken",
          "type": "address"
        }
      ],
      "name": "toTetuAmount",
      "outputs": [
        {
          "internalType": "uint256",
          "name": "",
          "type": "uint256"
        }
      ],
      "stateMutability": "view",
      "type": "function"
    },
    {
      "inputs": [],
      "name": "totalSupply",
      "outputs": [
        {
          "internalType": "uint256",
          "name": "",
          "type": "uint256"
        }
      ],
      "stateMutability": "view",
      "type": "function"
    },
    {
      "inputs": [
        {
          "internalType": "address",
          "name": "recipient",
          "type": "address"
        },
        {
          "internalType": "uint256",
          "name": "amount",
          "type": "uint256"
        }
      ],
      "name": "transfer",
      "outputs": [
        {
          "internalType": "bool",
          "name": "",
          "type": "bool"
        }
      ],
      "stateMutability": "nonpayable",
      "type": "function"
    },
    {
      "inputs": [
        {
          "internalType": "address",
          "name": "sender",
          "type": "address"
        },
        {
          "internalType": "address",
          "name": "recipient",
          "type": "address"
        },
        {
          "internalType": "uint256",
          "name": "amount",
          "type": "uint256"
        }
      ],
      "name": "transferFrom",
      "outputs": [
        {
          "internalType": "bool",
          "name": "",
          "type": "bool"
        }
      ],
      "stateMutability": "nonpayable",
      "type": "function"
    },
    {
      "inputs": [
        {
          "internalType": "uint256",
          "name": "amount",
          "type": "uint256"
        },
        {
          "internalType": "address",
          "name": "to",
          "type": "address"
        }
      ],
      "name": "transferUnderlying",
      "outputs": [],
      "stateMutability": "nonpayable",
      "type": "function"
    },
    {
      "inputs": [],
      "name": "underlying",
      "outputs": [
        {
          "internalType": "address",
          "name": "",
          "type": "address"
        }
      ],
      "stateMutability": "view",
      "type": "function"
    },
    {
      "inputs": [],
      "name": "underlyingAsset",
      "outputs": [
        {
          "internalType": "contract IERC20",
          "name": "",
          "type": "address"
        }
      ],
      "stateMutability": "view",
      "type": "function"
    },
    {
      "inputs": [],
      "name": "underlyingBalanceInVault",
      "outputs": [
        {
          "internalType": "uint256",
          "name": "",
          "type": "uint256"
        }
      ],
      "stateMutability": "view",
      "type": "function"
    },
    {
      "inputs": [
        {
          "internalType": "address",
          "name": "",
          "type": "address"
        }
      ],
      "name": "underlyingBalanceWithInvestmentForHolder",
      "outputs": [
        {
          "internalType": "uint256",
          "name": "",
          "type": "uint256"
        }
      ],
      "stateMutability": "view",
      "type": "function"
    },
    {
      "inputs": [],
      "name": "underlyingUnit",
      "outputs": [
        {
          "internalType": "uint256",
          "name": "",
          "type": "uint256"
        }
      ],
      "stateMutability": "view",
      "type": "function"
    },
    {
      "inputs": [
        {
          "internalType": "uint256",
          "name": "numberOfShares",
          "type": "uint256"
        }
      ],
      "name": "withdraw",
      "outputs": [],
      "stateMutability": "nonpayable",
      "type": "function"
    }
  ],
  "bytecode": "0x610160604052670de0b6b3a764000060e05260006007553480156200002357600080fd5b5060405162001def38038062001def833981810160405260a08110156200004957600080fd5b81019080805160405193929190846401000000008211156200006a57600080fd5b9083019060208201858111156200008057600080fd5b82516401000000008111828201881017156200009b57600080fd5b82525081516020918201929091019080838360005b83811015620000ca578181015183820152602001620000b0565b50505050905090810190601f168015620000f85780820380516001836020036101000a031916815260200191505b50604052602001805160405193929190846401000000008211156200011c57600080fd5b9083019060208201858111156200013257600080fd5b82516401000000008111828201881017156200014d57600080fd5b82525081516020918201929091019080838360005b838110156200017c57818101518382015260200162000162565b50505050905090810190601f168015620001aa5780820380516001836020036101000a031916815260200191505b5060408181526020838101518483015160609095015184840190935260018452603160f81b828501528851909650939450909287928792879285928392909183918791620001ff9160039190850190620002ae565b50805162000215906004906020840190620002ae565b50506005805460ff19166012179055508151602092830120608052805191012060a052507f8b73c3c69bb8fe3d512ecc4cf759cc79239f7b179b0ffacaa9a75d522b39400f60c052620002688162000298565b5050506001600160601b0319606092831b81166101005260ff90931661012052901b1661014052506200034a9050565b6005805460ff191660ff92909216919091179055565b828054600181600116156101000203166002900490600052602060002090601f016020900481019282601f10620002f157805160ff191683800117855562000321565b8280016001018555821562000321579182015b828111156200032157825182559160200191906001019062000304565b506200032f92915062000333565b5090565b5b808211156200032f576000815560010162000334565b60805160a05160c05160e0516101005160601c610120516101405160601c611a28620003c760003980610bc2528061103f5250806109065280610fc4525080610848528061092d52806109705280610a505280610bfe52508061141a528061195d5250806112205250806112625250806112415250611a286000f3fe608060405234801561001057600080fd5b50600436106102265760003560e01c806377c7b8fc1161012a578063a457c2d7116100bd578063c2baf3561161008c578063d505accf11610071578063d505accf14610678578063dd62ed3e146106c9578063ed24911d146106f757610226565b8063c2baf35614610644578063c8f93a9d1461064c57610226565b8063a457c2d7146105c7578063a8c62e76146105f3578063a9059cbb146105fb578063b6b55f251461062757610226565b80638bbd3768116100f95780638bbd3768146105475780638cb1d67f1461057357806390193b7c1461059957806395d89b41146105bf57610226565b806377c7b8fc146104c157806379cc6790146104c95780637c602bc2146104f55780637ecebe001461052157610226565b806336efd16f116101bd5780634d9ab5cb1161018c5780636f307dc3116101715780636f307dc31461046f57806370a08231146104935780637158da7c146104b957610226565b80634d9ab5cb1461043b57806353ceb01c1461046757610226565b806336efd16f1461039a57806339509351146103c657806340c10f19146103f257806342966c681461041e57610226565b80632e1a7d4d116101f95780632e1a7d4d14610338578063313ce5671461035757806334fcf437146103755780633644e5151461039257610226565b806306fdde031461022b578063095ea7b3146102a857806318160ddd146102e857806323b872dd14610302575b600080fd5b6102336106ff565b6040805160208082528351818301528351919283929083019185019080838360005b8381101561026d578181015183820152602001610255565b50505050905090810190601f16801561029a5780820380516001836020036101000a031916815260200191505b509250505060405180910390f35b6102d4600480360360408110156102be57600080fd5b506001600160a01b0381351690602001356107b3565b604080519115158252519081900360200190f35b6102f06107c9565b60408051918252519081900360200190f35b6102d46004803603606081101561031857600080fd5b506001600160a01b038135811691602081013590911690604001356107cf565b6103556004803603602081101561034e57600080fd5b5035610823565b005b61035f610873565b6040805160ff9092168252519081900360200190f35b6103556004803603602081101561038b57600080fd5b503561087c565b6102f061088d565b610355600480360360408110156103b057600080fd5b50803590602001356001600160a01b031661089c565b6102d4600480360360408110156103dc57600080fd5b506001600160a01b0381351690602001356108a7565b6103556004803603604081101561040857600080fd5b506001600160a01b0381351690602001356108dd565b6103556004803603602081101561043457600080fd5b50356108e7565b6102f06004803603604081101561045157600080fd5b50803590602001356001600160a01b03166108f1565b6102f0610904565b61047761092b565b604080516001600160a01b039092168252519081900360200190f35b6102f0600480360360208110156104a957600080fd5b50356001600160a01b031661094f565b61047761096e565b6102f0610992565b610355600480360360408110156104df57600080fd5b506001600160a01b0381351690602001356109fb565b6103556004803603604081101561050b57600080fd5b506001600160a01b038135169060200135610a31565b6102f06004803603602081101561053757600080fd5b50356001600160a01b0316610a3b565b6103556004803603604081101561055d57600080fd5b50803590602001356001600160a01b031661086f565b6102f06004803603602081101561058957600080fd5b50356001600160a01b0316610a4c565b6102f0600480360360208110156105af57600080fd5b50356001600160a01b0316610aed565b610233610b08565b6102d4600480360360408110156105dd57600080fd5b506001600160a01b038135169060200135610b87565b610477610bc0565b6102d46004803603604081101561061157600080fd5b506001600160a01b038135169060200135610be4565b6103556004803603602081101561063d57600080fd5b5035610bf1565b6102f0610c3e565b6102f06004803603604081101561066257600080fd5b50803590602001356001600160a01b0316610c44565b610355600480360360e081101561068e57600080fd5b506001600160a01b03813581169160208101359091169060408101359060608101359060ff6080820135169060a08101359060c00135610c50565b6102f0600480360360408110156106df57600080fd5b506001600160a01b0381358116916020013516610d0b565b6102f0610d36565b60038054604080516020601f60027fffffffffffffffffffffffffffffffffffffffffffffffffffffffffffffffff6101006001881615020190951694909404938401819004810282018101909252828152606093909290918301828280156107a95780601f1061077e576101008083540402835291602001916107a9565b820191906000526020600020905b81548152906001019060200180831161078c57829003601f168201915b5050505050905090565b60006107c0338484610d40565b50600192915050565b60025490565b60006107dc848484610da2565b6001600160a01b038416600090815260016020908152604080832033808552925290912054610819918691610814908661019e610e8a565b610d40565b5060019392505050565b61082d3382610ea0565b60006108398230610eb5565b905061086f6001600160a01b037f0000000000000000000000000000000000000000000000000000000000000000163383610ed5565b5050565b60055460ff1690565b600881905561088a81610f55565b50565b6000610897610d36565b905090565b61086f6103e761109a565b3360008181526001602090815260408083206001600160a01b038716845290915281205490916107c091859061081490866110c4565b61086f82826110d6565b61088a3382610ea0565b60006108fd8383610eb5565b9392505050565b7f0000000000000000000000000000000000000000000000000000000000000000600a0a90565b7f000000000000000000000000000000000000000000000000000000000000000090565b6001600160a01b0381166000908152602081905260409020545b919050565b7f000000000000000000000000000000000000000000000000000000000000000081565b604080517f08c379a000000000000000000000000000000000000000000000000000000000815260206004820152601460248201527f53686f756c64206e6f742063616c6c20746869730000000000000000000000006044820152905160009181900360640190fd5b6000610a15826101a1610a0e8633610d0b565b9190610e8a565b9050610a22833383610d40565b610a2c8383610ea0565b505050565b61086f8282610ea0565b6000610a4682610aed565b92915050565b60007f00000000000000000000000000000000000000000000000000000000000000006001600160a01b03166370a08231306040518263ffffffff1660e01b815260040180826001600160a01b0316815260200191505060206040518083038186803b158015610abb57600080fd5b505afa158015610acf573d6000803e3d6000fd5b505050506040513d6020811015610ae557600080fd5b505192915050565b6001600160a01b031660009081526006602052604090205490565b60048054604080516020601f60027fffffffffffffffffffffffffffffffffffffffffffffffffffffffffffffffff6101006001881615020190951694909404938401819004810282018101909252828152606093909290918301828280156107a95780601f1061077e576101008083540402835291602001916107a9565b3360008181526001602090815260408083206001600160a01b038716845290915281205490916107c0918590610814908661019f610e8a565b7f000000000000000000000000000000000000000000000000000000000000000090565b60006107c0338484610da2565b610c266001600160a01b037f0000000000000000000000000000000000000000000000000000000000000000163330846110e0565b6000610c32823061116e565b905061086f33826110d6565b60075490565b60006108fd838361116e565b60007f6e71edae12b1b97f4d1f60370fef10105fa2faae0126114a169c64845d6126c9888888610c7f8c610aed565b8960405160200180878152602001866001600160a01b03168152602001856001600160a01b031681526020018481526020018381526020018281526020019650505050505050604051602081830303815290604052805190602001209050610cf68882610ced878787611186565b886101f86111c5565b610d01888888610d40565b5050505050505050565b6001600160a01b03918216600090815260016020908152604080832093909416825291909152205490565b600061089761121c565b6001600160a01b03808416600081815260016020908152604080832094871680845294825291829020859055815185815291517f8c5be1e5ebec7d5bd14f71427d1e84f3dd0314c0f7b2291e5b200ac8c7c3b9259281900390910190a3505050565b610db96001600160a01b03841615156101986112da565b610dd06001600160a01b03831615156101996112da565b610ddb838383610a2c565b6001600160a01b038316600090815260208190526040902054610e0190826101a0610e8a565b6001600160a01b038085166000908152602081905260408082209390935590841681522054610e3090826110c4565b6001600160a01b038084166000818152602081815260409182902094909455805185815290519193928716927fddf252ad1be2c89b69c2b068fc378daa952ba7f163c4a11628f55a4df523b3ef92918290030190a3505050565b6000610e9984841115836112da565b5050900390565b610eaa82826112e8565b61086f600854610f55565b600080610ec1836113a9565b9050610ecd84826114da565b949350505050565b604080516001600160a01b038416602482015260448082018490528251808303909101815260649091019091526020810180517bffffffffffffffffffffffffffffffffffffffffffffffffffffffff167fa9059cbb00000000000000000000000000000000000000000000000000000000179052610a2c908490611512565b6000306001600160a01b03166318160ddd6040518163ffffffff1660e01b815260040160206040518083038186803b158015610f9057600080fd5b505afa158015610fa4573d6000803e3d6000fd5b505050506040513d6020811015610fba57600080fd5b50519050600360007f0000000000000000000000000000000000000000000000000000000000000000600a0a84840281610ff057fe5b0490508160ff168181610fff57fe5b046007819055604080517fc4ee6db90000000000000000000000000000000000000000000000000000000081529183036004830152516001600160a01b037f0000000000000000000000000000000000000000000000000000000000000000169163c4ee6db991602480830192600092919082900301818387803b15801561108657600080fd5b505af1158015610d01573d6000803e3d6000fd5b61088a817f42414c000000000000000000000000000000000000000000000000000000000061161b565b60008282016108fd84821015836112da565b610eaa8282611696565b604080516001600160a01b0380861660248301528416604482015260648082018490528251808303909101815260849091019091526020810180517bffffffffffffffffffffffffffffffffffffffffffffffffffffffff167f23b872dd00000000000000000000000000000000000000000000000000000000179052611168908590611512565b50505050565b60008061117a836113a9565b9050610ecd8482611730565b60408051604180825260808201909252606091829190602082018180368337019050509050836020820152826040820152846060820153949350505050565b60006111d08561177a565b90506111e66111e08783876117e1565b836112da565b6111f5428410156101b86112da565b5050506001600160a01b039092166000908152600660205260409020805460010190555050565b60007f00000000000000000000000000000000000000000000000000000000000000007f00000000000000000000000000000000000000000000000000000000000000007f00000000000000000000000000000000000000000000000000000000000000006112896118cc565b3060405160200180868152602001858152602001848152602001838152602001826001600160a01b031681526020019550505050505060405160208183030381529060405280519060200120905090565b8161086f5761086f8161109a565b6112ff6001600160a01b038316151561019b6112da565b61130b82600083610a2c565b6001600160a01b03821660009081526020819052604090205461133190826101b2610e8a565b6001600160a01b03831660009081526020819052604090205561136461135f826113596107c9565b906118d0565b6118de565b6040805182815290516000916001600160a01b038516917fddf252ad1be2c89b69c2b068fc378daa952ba7f163c4a11628f55a4df523b3ef9181900360200190a35050565b600080826001600160a01b03166318160ddd6040518163ffffffff1660e01b815260040160206040518083038186803b1580156113e557600080fd5b505afa1580156113f9573d6000803e3d6000fd5b505050506040513d602081101561140f57600080fd5b5051905080611441577f0000000000000000000000000000000000000000000000000000000000000000915050610969565b6000836001600160a01b031663c2baf3566040518163ffffffff1660e01b815260040160206040518083038186803b15801561147c57600080fd5b505afa158015611490573d6000803e3d6000fd5b505050506040513d60208110156114a657600080fd5b5051905060006114b5856118e3565b905060006114c383836110c4565b90506114cf8185611730565b945050505050610969565b60008282026114fe8415806114f75750838583816114f457fe5b04145b60036112da565b670de0b6b3a7640000815b04949350505050565b60006060836001600160a01b0316836040518082805190602001908083835b6020831061156e57805182527fffffffffffffffffffffffffffffffffffffffffffffffffffffffffffffffe09092019160209182019101611531565b6001836020036101000a0380198251168184511680821785525050505050509050019150506000604051808303816000865af19150503d80600081146115d0576040519150601f19603f3d011682016040523d82523d6000602084013e6115d5565b606091505b509150915060008214156115ed573d6000803e3d6000fd5b611168815160001480611613575081806020019051602081101561161057600080fd5b50515b6101a26112da565b7f08c379a000000000000000000000000000000000000000000000000000000000600090815260206004526007602452600a808404818106603090810160081b958390069590950190829004918206850160101b01602363ffffff0060e086901c160160181b0190930160c81b60445260e882901c90606490fd5b6116a260008383610a2c565b6116b761135f826116b16107c9565b906110c4565b6001600160a01b0382166000908152602081905260409020546116da90826110c4565b6001600160a01b0383166000818152602081815260408083209490945583518581529351929391927fddf252ad1be2c89b69c2b068fc378daa952ba7f163c4a11628f55a4df523b3ef9281900390910190a35050565b600061173f82151560046112da565b670de0b6b3a7640000830261177184158061176a5750670de0b6b3a764000085838161176757fe5b04145b60056112da565b82818161150957fe5b600061178461121c565b8260405160200180807f190100000000000000000000000000000000000000000000000000000000000081525060020183815260200182815260200192505050604051602081830303815290604052805190602001209050919050565b60006117f382516041146101b96112da565b60008060006020850151925060408501519150606085015160001a9050600060018783868660405160008152602001604052604051808581526020018460ff1681526020018381526020018281526020019450505050506020604051602081039080840390855afa15801561186c573d6000803e3d6000fd5b50506040517fffffffffffffffffffffffffffffffffffffffffffffffffffffffffffffffe001519150506001600160a01b038116158015906118c05750876001600160a01b0316816001600160a01b0316145b98975050505050505050565b4690565b60006108fd83836001610e8a565b600255565b600080826001600160a01b031663a8c62e766040518163ffffffff1660e01b815260040160206040518083038186803b15801561191f57600080fd5b505afa158015611933573d6000803e3d6000fd5b505050506040513d602081101561194957600080fd5b505190506001600160a01b038116611984577f0000000000000000000000000000000000000000000000000000000000000000915050610969565b806001600160a01b03166345d01e4a6040518163ffffffff1660e01b815260040160206040518083038186803b1580156119bd57600080fd5b505afa1580156119d1573d6000803e3d6000fd5b505050506040513d60208110156119e757600080fd5b50519150610969905056fea2646970667358221220a2a6225196f5f544ac91be619d0ae84c57032cb4d3760c07ee7ee26043831f8964736f6c63430007010033",
  "linkReferences": {},
  "deployedLinkReferences": {}
}