{
  "_format": "hh-sol-artifact-1",
  "contractName": "MockPoolRegistrationLib",
  "sourceName": "contracts/test/MockPoolRegistrationLib.sol",
  "abi": [
    {
      "inputs": [
        {
          "internalType": "contract IVault",
          "name": "vault",
          "type": "address"
        },
        {
          "internalType": "bytes32",
          "name": "poolId",
          "type": "bytes32"
        },
        {
          "internalType": "contract IERC20",
          "name": "token",
          "type": "address"
        }
      ],
      "name": "deregisterToken",
      "outputs": [],
      "stateMutability": "nonpayable",
      "type": "function"
    },
    {
      "inputs": [
        {
          "internalType": "contract IVault",
          "name": "vault",
          "type": "address"
        },
        {
          "internalType": "enum IVault.PoolSpecialization",
          "name": "specialization",
          "type": "uint8"
        },
        {
          "internalType": "contract IERC20[]",
          "name": "tokens",
          "type": "address[]"
        },
        {
          "internalType": "address[]",
          "name": "assetManagers",
          "type": "address[]"
        }
      ],
      "name": "registerComposablePool",
      "outputs": [
        {
          "internalType": "bytes32",
          "name": "",
          "type": "bytes32"
        }
      ],
      "stateMutability": "nonpayable",
      "type": "function"
    },
    {
      "inputs": [
        {
          "internalType": "contract IVault",
          "name": "vault",
          "type": "address"
        },
        {
          "internalType": "enum IVault.PoolSpecialization",
          "name": "specialization",
          "type": "uint8"
        },
        {
          "internalType": "contract IERC20[]",
          "name": "tokens",
          "type": "address[]"
        }
      ],
      "name": "registerPool",
      "outputs": [
        {
          "internalType": "bytes32",
          "name": "",
          "type": "bytes32"
        }
      ],
      "stateMutability": "nonpayable",
      "type": "function"
    },
    {
      "inputs": [
        {
          "internalType": "contract IVault",
          "name": "vault",
          "type": "address"
        },
        {
          "internalType": "enum IVault.PoolSpecialization",
          "name": "specialization",
          "type": "uint8"
        },
        {
          "internalType": "contract IERC20[]",
          "name": "tokens",
          "type": "address[]"
        },
        {
          "internalType": "address[]",
          "name": "assetManagers",
          "type": "address[]"
        }
      ],
      "name": "registerPoolWithAssetManagers",
      "outputs": [
        {
          "internalType": "bytes32",
          "name": "",
          "type": "bytes32"
        }
      ],
      "stateMutability": "nonpayable",
      "type": "function"
    },
    {
      "inputs": [
        {
          "internalType": "contract IVault",
          "name": "vault",
          "type": "address"
        },
        {
          "internalType": "bytes32",
          "name": "poolId",
          "type": "bytes32"
        },
        {
          "internalType": "contract IERC20",
          "name": "token",
          "type": "address"
        },
        {
          "internalType": "address",
          "name": "assetManager",
          "type": "address"
        }
      ],
      "name": "registerToken",
      "outputs": [],
      "stateMutability": "nonpayable",
      "type": "function"
    }
  ],
  "bytecode": "0x608060405234801561001057600080fd5b50610d34806100206000396000f3fe608060405234801561001057600080fd5b50600436106100675760003560e01c806370d1ff531161005057806370d1ff53146102925780637425780e146102dd578063e557fb7c1461032057610067565b806333959d9f1461006c5780634aefed35146101ca575b600080fd5b6101b86004803603608081101561008257600080fd5b73ffffffffffffffffffffffffffffffffffffffff8235169160ff602082013516918101906060810160408201356401000000008111156100c257600080fd5b8201836020820111156100d457600080fd5b803590602001918460208302840111640100000000831117156100f657600080fd5b919080806020026020016040519081016040528093929190818152602001838360200280828437600092019190915250929594936020810193503591505064010000000081111561014657600080fd5b82018360208201111561015857600080fd5b8035906020019184602083028401116401000000008311171561017a57600080fd5b91908080602002602001604051908101604052809392919081815260200183836020028082843760009201919091525092955061046c945050505050565b60408051918252519081900360200190f35b6101b8600480360360608110156101e057600080fd5b73ffffffffffffffffffffffffffffffffffffffff8235169160ff6020820135169181019060608101604082013564010000000081111561022057600080fd5b82018360208201111561023257600080fd5b8035906020019184602083028401116401000000008311171561025457600080fd5b919080806020026020016040519081016040528093929190818152602001838360200280828437600092019190915250929550610483945050505050565b6102db600480360360808110156102a857600080fd5b5073ffffffffffffffffffffffffffffffffffffffff813581169160208101359160408201358116916060013516610498565b005b6102db600480360360608110156102f357600080fd5b5073ffffffffffffffffffffffffffffffffffffffff8135811691602081013591604090910135166104aa565b6101b86004803603608081101561033657600080fd5b73ffffffffffffffffffffffffffffffffffffffff8235169160ff6020820135169181019060608101604082013564010000000081111561037657600080fd5b82018360208201111561038857600080fd5b803590602001918460208302840111640100000000831117156103aa57600080fd5b91908080602002602001604051908101604052809392919081815260200183836020028082843760009201919091525092959493602081019350359150506401000000008111156103fa57600080fd5b82018360208201111561040c57600080fd5b8035906020019184602083028401116401000000008311171561042e57600080fd5b9190808060200260200160405190810160405280939291908181526020018383602002808284376000920191909152509295506104ba945050505050565b600061047a858585856104c8565b95945050505050565b60006104908484846106c9565b949350505050565b6104a484848484610719565b50505050565b6104b58383836108da565b505050565b600061047a858585856109fb565b60006104d383610a12565b6060835160010167ffffffffffffffff811180156104f057600080fd5b5060405190808252806020026020018201604052801561051a578160200160208202803683370190505b509050308160008151811061052b57fe5b602002602001019073ffffffffffffffffffffffffffffffffffffffff16908173ffffffffffffffffffffffffffffffffffffffff168152505060005b84518110156105c15784818151811061057d57fe5b602002602001015182826001018151811061059457fe5b73ffffffffffffffffffffffffffffffffffffffff90921660209283029190910190910152600101610568565b506060835160010167ffffffffffffffff811180156105df57600080fd5b50604051908082528060200260200182016040528015610609578160200160208202803683370190505b50905060008160008151811061061b57fe5b602002602001019073ffffffffffffffffffffffffffffffffffffffff16908173ffffffffffffffffffffffffffffffffffffffff168152505060005b84518110156106b15784818151811061066d57fe5b602002602001015182826001018151811061068457fe5b73ffffffffffffffffffffffffffffffffffffffff90921660209283029190910190910152600101610658565b506106be87878484610a20565b979650505050505050565b6000610490848484855167ffffffffffffffff811180156106e957600080fd5b50604051908082528060200260200182016040528015610713578160200160208202803683370190505b506109fb565b60408051600180825281830190925260609160208083019080368337019050509050828160008151811061074957fe5b73ffffffffffffffffffffffffffffffffffffffff929092166020928302919091019091015260408051600180825281830190925260609181602001602082028036833701905050905082816000815181106107a157fe5b602002602001019073ffffffffffffffffffffffffffffffffffffffff16908173ffffffffffffffffffffffffffffffffffffffff16815250508573ffffffffffffffffffffffffffffffffffffffff166366a9c7d28684846040518463ffffffff1660e01b8152600401808481526020018060200180602001838103835285818151815260200191508051906020019060200280838360005b8381101561085357818101518382015260200161083b565b50505050905001838103825284818151815260200191508051906020019060200280838360005b8381101561089257818101518382015260200161087a565b5050505090500195505050505050600060405180830381600087803b1580156108ba57600080fd5b505af11580156108ce573d6000803e3d6000fd5b50505050505050505050565b60408051600180825281830190925260609160208083019080368337019050509050818160008151811061090a57fe5b602002602001019073ffffffffffffffffffffffffffffffffffffffff16908173ffffffffffffffffffffffffffffffffffffffff16815250508373ffffffffffffffffffffffffffffffffffffffff16637d3aeb9684836040518363ffffffff1660e01b81526004018083815260200180602001828103825283818151815260200191508051906020019060200280838360005b838110156109b757818101518382015260200161099f565b505050509050019350505050600060405180830381600087803b1580156109dd57600080fd5b505af11580156109f1573d6000803e3d6000fd5b5050505050505050565b6000610a0683610a12565b61047a85858585610a20565b80610a1c81610bce565b5050565b6000808573ffffffffffffffffffffffffffffffffffffffff166309b2760f866040518263ffffffff1660e01b815260040180826002811115610a5f57fe5b8152602001915050602060405180830381600087803b158015610a8157600080fd5b505af1158015610a95573d6000803e3d6000fd5b505050506040513d6020811015610aab57600080fd5b50516040517f66a9c7d20000000000000000000000000000000000000000000000000000000081526004810182815260606024830190815287516064840152875193945073ffffffffffffffffffffffffffffffffffffffff8a16936366a9c7d29386938a938a93919290916044820191608401906020878101910280838360005b83811015610b45578181015183820152602001610b2d565b50505050905001838103825284818151815260200191508051906020019060200280838360005b83811015610b84578181015183820152602001610b6c565b5050505090500195505050505050600060405180830381600087803b158015610bac57600080fd5b505af1158015610bc0573d6000803e3d6000fd5b509298975050505050505050565b600281511015610bdd57610c61565b600081600081518110610bec57fe5b602002602001015190506000600190505b82518110156104b5576000838281518110610c1457fe5b60200260200101519050610c578173ffffffffffffffffffffffffffffffffffffffff168473ffffffffffffffffffffffffffffffffffffffff16106065610c64565b9150600101610bfd565b50565b81610a1c577f08c379a000000000000000000000000000000000000000000000000000000000600090815260206004526007602452600a808304818106603090810160081b83860601918390049283060160101b016642414c230000300160c81b604452610a1c918391610c61917f42414c0000000000000000000000000000000000000000000000000000000000906242414c90606490fdfea264697066735822122039bbc1dd48d2df5ba921afb58b702d71a87db48e92d83a35cb5775f4e35d506564736f6c63430007010033",
  "linkReferences": {},
  "deployedLinkReferences": {}
}