{
  "address": "0x80cbD56c6D7Ed866040Ed1c24a0B7B519f15a628",
  "abi": [
    {
      "inputs": [],
      "name": "AddressZero",
      "type": "error"
    },
    {
      "inputs": [],
      "name": "AlreadyConnected",
      "type": "error"
    },
    {
      "inputs": [],
      "name": "DeployConfigFirst",
      "type": "error"
    },
    {
      "inputs": [],
      "name": "InvalidBeta",
      "type": "error"
    },
    {
      "inputs": [],
      "name": "InvalidKcrit",
      "type": "error"
    },
    {
      "inputs": [],
      "name": "InvalidKi",
      "type": "error"
    },
    {
      "inputs": [],
      "name": "InvalidKlin",
      "type": "error"
    },
    {
      "inputs": [],
      "name": "InvalidKlow",
      "type": "error"
    },
    {
      "inputs": [],
      "name": "InvalidRi",
      "type": "error"
    },
    {
      "inputs": [],
      "name": "InvalidTcrit",
      "type": "error"
    },
    {
      "inputs": [],
      "name": "InvalidTimestamps",
      "type": "error"
    },
    {
      "inputs": [],
      "name": "InvalidUcrit",
      "type": "error"
    },
    {
      "inputs": [],
      "name": "InvalidUlow",
      "type": "error"
    },
    {
      "inputs": [],
      "name": "InvalidUopt",
      "type": "error"
    },
    {
      "anonymous": false,
      "inputs": [
        {
          "indexed": true,
          "internalType": "address",
          "name": "silo",
          "type": "address"
        },
        {
          "indexed": true,
          "internalType": "address",
          "name": "config",
          "type": "address"
        }
      ],
      "name": "Initialized",
      "type": "event"
    },
    {
      "inputs": [],
      "name": "ASSET_DATA_OVERFLOW_LIMIT",
      "outputs": [
        {
          "internalType": "uint256",
          "name": "",
          "type": "uint256"
        }
      ],
      "stateMutability": "view",
      "type": "function"
    },
    {
      "inputs": [],
      "name": "RCOMP_MAX",
      "outputs": [
        {
          "internalType": "uint256",
          "name": "",
          "type": "uint256"
        }
      ],
      "stateMutability": "view",
      "type": "function"
    },
    {
      "inputs": [],
      "name": "X_MAX",
      "outputs": [
        {
          "internalType": "int256",
          "name": "",
          "type": "int256"
        }
      ],
      "stateMutability": "view",
      "type": "function"
    },
    {
      "inputs": [
        {
          "components": [
            {
              "internalType": "int256",
              "name": "uopt",
              "type": "int256"
            },
            {
              "internalType": "int256",
              "name": "ucrit",
              "type": "int256"
            },
            {
              "internalType": "int256",
              "name": "ulow",
              "type": "int256"
            },
            {
              "internalType": "int256",
              "name": "ki",
              "type": "int256"
            },
            {
              "internalType": "int256",
              "name": "kcrit",
              "type": "int256"
            },
            {
              "internalType": "int256",
              "name": "klow",
              "type": "int256"
            },
            {
              "internalType": "int256",
              "name": "klin",
              "type": "int256"
            },
            {
              "internalType": "int256",
              "name": "beta",
              "type": "int256"
            },
            {
              "internalType": "int256",
              "name": "ri",
              "type": "int256"
            },
            {
              "internalType": "int256",
              "name": "Tcrit",
              "type": "int256"
            }
          ],
          "internalType": "struct IInterestRateModelV2.ConfigWithState",
          "name": "_c",
          "type": "tuple"
        },
        {
          "internalType": "uint256",
          "name": "_totalDeposits",
          "type": "uint256"
        },
        {
          "internalType": "uint256",
          "name": "_totalBorrowAmount",
          "type": "uint256"
        },
        {
          "internalType": "uint256",
          "name": "_interestRateTimestamp",
          "type": "uint256"
        },
        {
          "internalType": "uint256",
          "name": "_blockTimestamp",
          "type": "uint256"
        }
      ],
      "name": "calculateCompoundInterestRate",
      "outputs": [
        {
          "internalType": "uint256",
          "name": "rcomp",
          "type": "uint256"
        },
        {
          "internalType": "int256",
          "name": "ri",
          "type": "int256"
        },
        {
          "internalType": "int256",
          "name": "Tcrit",
          "type": "int256"
        }
      ],
      "stateMutability": "pure",
      "type": "function"
    },
    {
      "inputs": [
        {
          "components": [
            {
              "internalType": "int256",
              "name": "uopt",
              "type": "int256"
            },
            {
              "internalType": "int256",
              "name": "ucrit",
              "type": "int256"
            },
            {
              "internalType": "int256",
              "name": "ulow",
              "type": "int256"
            },
            {
              "internalType": "int256",
              "name": "ki",
              "type": "int256"
            },
            {
              "internalType": "int256",
              "name": "kcrit",
              "type": "int256"
            },
            {
              "internalType": "int256",
              "name": "klow",
              "type": "int256"
            },
            {
              "internalType": "int256",
              "name": "klin",
              "type": "int256"
            },
            {
              "internalType": "int256",
              "name": "beta",
              "type": "int256"
            },
            {
              "internalType": "int256",
              "name": "ri",
              "type": "int256"
            },
            {
              "internalType": "int256",
              "name": "Tcrit",
              "type": "int256"
            }
          ],
          "internalType": "struct IInterestRateModelV2.ConfigWithState",
          "name": "_c",
          "type": "tuple"
        },
        {
          "internalType": "uint256",
          "name": "_totalDeposits",
          "type": "uint256"
        },
        {
          "internalType": "uint256",
          "name": "_totalBorrowAmount",
          "type": "uint256"
        },
        {
          "internalType": "uint256",
          "name": "_interestRateTimestamp",
          "type": "uint256"
        },
        {
          "internalType": "uint256",
          "name": "_blockTimestamp",
          "type": "uint256"
        }
      ],
      "name": "calculateCompoundInterestRateWithOverflowDetection",
      "outputs": [
        {
          "internalType": "uint256",
          "name": "rcomp",
          "type": "uint256"
        },
        {
          "internalType": "int256",
          "name": "ri",
          "type": "int256"
        },
        {
          "internalType": "int256",
          "name": "Tcrit",
          "type": "int256"
        },
        {
          "internalType": "bool",
          "name": "overflow",
          "type": "bool"
        }
      ],
      "stateMutability": "pure",
      "type": "function"
    },
    {
      "inputs": [
        {
          "components": [
            {
              "internalType": "int256",
              "name": "uopt",
              "type": "int256"
            },
            {
              "internalType": "int256",
              "name": "ucrit",
              "type": "int256"
            },
            {
              "internalType": "int256",
              "name": "ulow",
              "type": "int256"
            },
            {
              "internalType": "int256",
              "name": "ki",
              "type": "int256"
            },
            {
              "internalType": "int256",
              "name": "kcrit",
              "type": "int256"
            },
            {
              "internalType": "int256",
              "name": "klow",
              "type": "int256"
            },
            {
              "internalType": "int256",
              "name": "klin",
              "type": "int256"
            },
            {
              "internalType": "int256",
              "name": "beta",
              "type": "int256"
            },
            {
              "internalType": "int256",
              "name": "ri",
              "type": "int256"
            },
            {
              "internalType": "int256",
              "name": "Tcrit",
              "type": "int256"
            }
          ],
          "internalType": "struct IInterestRateModelV2.ConfigWithState",
          "name": "_c",
          "type": "tuple"
        },
        {
          "internalType": "uint256",
          "name": "_totalDeposits",
          "type": "uint256"
        },
        {
          "internalType": "uint256",
          "name": "_totalBorrowAmount",
          "type": "uint256"
        },
        {
          "internalType": "uint256",
          "name": "_interestRateTimestamp",
          "type": "uint256"
        },
        {
          "internalType": "uint256",
          "name": "_blockTimestamp",
          "type": "uint256"
        }
      ],
      "name": "calculateCurrentInterestRate",
      "outputs": [
        {
          "internalType": "uint256",
          "name": "rcur",
          "type": "uint256"
        }
      ],
      "stateMutability": "pure",
      "type": "function"
    },
    {
      "inputs": [
        {
          "internalType": "address",
          "name": "_configAddress",
          "type": "address"
        }
      ],
      "name": "connect",
      "outputs": [],
      "stateMutability": "nonpayable",
      "type": "function"
    },
    {
      "inputs": [],
      "name": "decimals",
      "outputs": [
        {
          "internalType": "uint256",
          "name": "",
          "type": "uint256"
        }
      ],
      "stateMutability": "view",
      "type": "function"
    },
    {
      "inputs": [
        {
          "internalType": "address",
          "name": "_silo",
          "type": "address"
        },
        {
          "internalType": "uint256",
          "name": "_blockTimestamp",
          "type": "uint256"
        }
      ],
      "name": "getCompoundInterestRate",
      "outputs": [
        {
          "internalType": "uint256",
          "name": "rcomp",
          "type": "uint256"
        }
      ],
      "stateMutability": "view",
      "type": "function"
    },
    {
      "inputs": [
        {
          "internalType": "uint256",
          "name": "_blockTimestamp",
          "type": "uint256"
        }
      ],
      "name": "getCompoundInterestRateAndUpdate",
      "outputs": [
        {
          "internalType": "uint256",
          "name": "rcomp",
          "type": "uint256"
        }
      ],
      "stateMutability": "nonpayable",
      "type": "function"
    },
    {
      "inputs": [
        {
          "internalType": "address",
          "name": "_silo",
          "type": "address"
        }
      ],
      "name": "getConfig",
      "outputs": [
        {
          "components": [
            {
              "internalType": "int256",
              "name": "uopt",
              "type": "int256"
            },
            {
              "internalType": "int256",
              "name": "ucrit",
              "type": "int256"
            },
            {
              "internalType": "int256",
              "name": "ulow",
              "type": "int256"
            },
            {
              "internalType": "int256",
              "name": "ki",
              "type": "int256"
            },
            {
              "internalType": "int256",
              "name": "kcrit",
              "type": "int256"
            },
            {
              "internalType": "int256",
              "name": "klow",
              "type": "int256"
            },
            {
              "internalType": "int256",
              "name": "klin",
              "type": "int256"
            },
            {
              "internalType": "int256",
              "name": "beta",
              "type": "int256"
            },
            {
              "internalType": "int256",
              "name": "ri",
              "type": "int256"
            },
            {
              "internalType": "int256",
              "name": "Tcrit",
              "type": "int256"
            }
          ],
          "internalType": "struct IInterestRateModelV2.ConfigWithState",
          "name": "fullConfig",
          "type": "tuple"
        }
      ],
      "stateMutability": "view",
      "type": "function"
    },
    {
      "inputs": [
        {
          "internalType": "address",
          "name": "_silo",
          "type": "address"
        },
        {
          "internalType": "uint256",
          "name": "_blockTimestamp",
          "type": "uint256"
        }
      ],
      "name": "getCurrentInterestRate",
      "outputs": [
        {
          "internalType": "uint256",
          "name": "rcur",
          "type": "uint256"
        }
      ],
      "stateMutability": "view",
      "type": "function"
    },
    {
      "inputs": [
        {
          "internalType": "address",
          "name": "",
          "type": "address"
        }
      ],
      "name": "getSetup",
      "outputs": [
        {
          "internalType": "contract IInterestRateModelV2Config",
          "name": "config",
          "type": "address"
        },
        {
          "internalType": "int256",
          "name": "ri",
          "type": "int256"
        },
        {
          "internalType": "int256",
          "name": "Tcrit",
          "type": "int256"
        }
      ],
      "stateMutability": "view",
      "type": "function"
    },
    {
      "inputs": [
        {
          "internalType": "address",
          "name": "_silo",
          "type": "address"
        },
        {
          "internalType": "uint256",
          "name": "_blockTimestamp",
          "type": "uint256"
        }
      ],
      "name": "overflowDetected",
      "outputs": [
        {
          "internalType": "bool",
          "name": "overflow",
          "type": "bool"
        }
      ],
      "stateMutability": "view",
      "type": "function"
    }
  ],
  "bytecode": "0x608060405234801561001057600080fd5b506120f3806100206000396000f3fe608060405234801561001057600080fd5b50600436106100ea5760003560e01c8063b78fec821161008c578063d9d0f22e11610066578063d9d0f22e14610247578063e076a5511461025a578063e48a5f7b1461026b578063ee8f931b146102f757600080fd5b8063b78fec82146101b3578063c6c721b3146101d6578063cfdfcffa1461023457600080fd5b80633ced7d0d116100c85780633ced7d0d1461014957806364efe1771461015c5780636e1a41401461016f57806381b51e0c146101a457600080fd5b8063023279ce146100ef578063109a006e14610122578063313ce5671461013b575b600080fd5b6101026100fd366004611c42565b61030c565b604080519384526020840192909252908201526060015b60405180910390f35b61012d600160c41b81565b604051908152602001610119565b670de0b6b3a764000061012d565b61012d610157366004611c42565b610330565b61012d61016a366004611d0f565b6105b4565b61018261017d366004611c42565b61064b565b6040805194855260208501939093529183015215156060820152608001610119565b61012d6799e8e8e3d530368181565b6101c66101c1366004611d0f565b610acc565b6040519015158152602001610119565b61020f6101e4366004611d39565b6000602081905290815260409020805460018201546002909201546001600160a01b03909116919083565b604080516001600160a01b039094168452602084019290925290820152606001610119565b61012d610242366004611d0f565b610b66565b61012d610255366004611d54565b610c00565b61012d690de0b6b3a7640000000081565b61027e610279366004611d39565b610cc3565b6040516101199190600061014082019050825182526020830151602083015260408301516040830152606083015160608301526080830151608083015260a083015160a083015260c083015160c083015260e083015160e083015261010080840151818401525061012080840151818401525092915050565b61030a610305366004611d39565b610e1c565b005b600080600061031e888888888861064b565b50919a90995090975095505050505050565b6000818311156103535760405163d22806e360e01b815260040160405180910390fd5b60006040518060e001604052806000815260200160008152602001600081526020016000815260200160008152602001600081526020016000151581525090506103a0878787878761064b565b15801560c086015292506103bb9150505760009150506105ab565b6103c6848403610ea9565b81526103e36103de670de0b6b3a76400008888610f1c565b610ea9565b6020808301829052670de0b6b3a7640000604084015288015112156104875780604001518760200151826020015161041b9190611d83565b6040830151835160e08b01516104319190611daa565b8a610120015185604001516104469190611dda565b6104509190611dda565b8a6080015161045f9190611daa565b6104699190611e18565b6104739190611daa565b61047d9190611e18565b60608201526104c9565b6104c360008260400151896040015184602001516104a59190611d83565b8a60a001516104b49190611daa565b6104be9190611e18565b610f66565b60608201525b806040015181602001518860c001516104e29190611daa565b6104ec9190611e18565b6080820181905261010088015161050291610f80565b60a0820152604081015181518851602084015161056093929161052491611d83565b8a606001516105339190611daa565b61053d9190611daa565b6105479190611e18565b8260a001516105569190611dda565b8260800151610f80565b60a08201819052606082015161058c916105879161057d91611dda565b8360800151610f80565b610f8f565b915061059c6301e1338083611e54565b91506105a782610fe1565b9150505b95945050505050565b600080836001600160a01b0316639ef2fda06040518163ffffffff1660e01b8152600401606060405180830381865afa1580156105f5573d6000803e3d6000fd5b505050506040513d601f19601f820116820180604052508101906106199190611e6b565b905061064361062785610cc3565b82516020840151604085015167ffffffffffffffff1687610330565b949350505050565b60008060008088610100015192508861012001519150600060405180610140016040528060008152602001600081526020016000815260200160008152602001600081526020016000815260200160008152602001600081526020016000815260200160008152509050858711156106d65760405163d22806e360e01b815260040160405180910390fd5b6106e1878703610ea9565b8152670de0b6b3a76400006106fa6103de828c8c610f1c565b61012083018190528b5182916107109190611d83565b8c6060015161071f9190611daa565b6107299190611e18565b6020808401919091528b0151610120830151131561081357808b602001518361012001516107579190611d83565b826107628782611dda565b8e608001516107719190611daa565b61077b9190611e18565b6107859190611daa565b61078f9190611e18565b604083015260208b015161012083015182916107aa91611d83565b828d60e001518e608001516107bf9190611daa565b6107c99190611e18565b6107d39190611daa565b6107dd9190611e18565b82602001516107ec9190611dda565b6060830152815160e08c01516108029190611daa565b61080c9085611dda565b9350610876565b61083d6000828d6040015185610120015161082e9190611d83565b8e60a001516104b49190611daa565b604083015260208201516060830152815160e08c0151610873916000916108649190611daa565b61086e9087611d83565b610f80565b93505b808261012001518c60c0015161088c9190611daa565b6108969190611e18565b60a083018190526108a8908690610f80565b94508160400151856108ba9190611dda565b6080830152815160608301516108d09190611daa565b82608001516108df9190611dda565b60c083015260a082015160808301511280159061090457508160a001518260c0015112155b1561094057815160c083015160808401516002929161092291611dda565b61092c9190611daa565b6109369190611e18565b60e0830152610a4a565b8160a00151826080015112801561095e57508160a001518260c00151125b1561097457815160a08301516109369190611daa565b8160a0015182608001511215801561099357508160a001518260c00151125b156109ee576002826060015160028460a0015185608001516109b59190611d83565b6109bf9190612010565b6109c99190611e18565b6109d39190611e18565b825160a08401516109e49190611daa565b6109369190611d83565b6002826060015160028460a001518560c00151610a0b9190611d83565b610a159190612010565b610a1f9190611e18565b610a299190611e18565b825160a0840151610a3a9190611daa565b610a449190611dda565b60e08301525b81516020830151610a7291610a5e91611daa565b610a689087611dda565b8360a00151610f80565b9450610a838a8a8460e00151610ffa565b83519197509350600090610aa1908890610a9c90610f8f565b611118565b90975090508380610aaf5750805b15610abd5760009550600094505b50505095509550955095915050565b600080836001600160a01b0316639ef2fda06040518163ffffffff1660e01b8152600401606060405180830381865afa158015610b0d573d6000803e3d6000fd5b505050506040513d601f19601f82011682018060405250810190610b319190611e6b565b9050610b5b610b3f85610cc3565b82516020840151604085015167ffffffffffffffff168761064b565b979650505050505050565b600080836001600160a01b0316639ef2fda06040518163ffffffff1660e01b8152600401606060405180830381865afa158015610ba7573d6000803e3d6000fd5b505050506040513d601f19601f82011682018060405250810190610bcb9190611e6b565b9050610bf5610bd985610cc3565b82516020840151604085015167ffffffffffffffff168761030c565b509095945050505050565b6000803390506000816001600160a01b0316639ef2fda06040518163ffffffff1660e01b8152600401606060405180830381865afa158015610c46573d6000803e3d6000fd5b505050506040513d601f19601f82011682018060405250810190610c6a9190611e6b565b6001600160a01b0383166000908152602081905260409020909150610cad610c9184610cc3565b83516020850151604086015167ffffffffffffffff168961030c565b6002840155600190920191909155949350505050565b610d19604051806101400160405280600081526020016000815260200160008152602001600081526020016000815260200160008152602001600081526020016000815260200160008152602001600081525090565b6001600160a01b0380831660009081526020818152604080832081516060810183528154909516808652600182015493860193909352600201548482015280516330fe427560e21b8152905163c3f909d491600480820192610100929091908290030181865afa158015610d91573d6000803e3d6000fd5b505050506040513d601f19601f82011682018060405250810190610db5919061201f565b805184526020808201518186015260408083015181870152606080840151908701526080808401519087015260a0808401519087015260c0808401519087015260e09283015192860192909252830151610100850152919091015161012083015250919050565b336000908152602081905260409020546001600160a01b031615610e52576040516239c01160e31b815260040160405180910390fd5b3360008181526020819052604080822080546001600160a01b0319166001600160a01b03861690811790915590519092917f3cd5ec01b1ae7cfec6ca1863e2cd6aa25d6d1702825803ff2b7cc95010fffdc291a350565b60006001600160ff1b03821115610f185760405162461bcd60e51b815260206004820152602860248201527f53616665436173743a2076616c756520646f65736e27742066697420696e2061604482015267371034b73a191a9b60c11b60648201526084015b60405180910390fd5b5090565b6000821580610f29575081155b15610f3657506000610f5f565b610f408483611e54565b9050828181610f5157610f51611e02565b04905083811115610f5f5750825b9392505050565b6000818312610f755781610f77565b825b90505b92915050565b6000818313610f755781610f77565b600080821215610f185760405162461bcd60e51b815260206004820181905260248201527f53616665436173743a2076616c7565206d75737420626520706f7369746976656044820152606401610f0f565b600068056bc75e2d63100000808311610f7a5782610f5f565b60008060006799e8e8e3d5303681841261102457690de0b6b3a7640000000092506001915061105d565b670de0b6b3a76400006110368561114d565b6110409190611d83565b90506000811361105157600061105a565b61105a81610f8f565b92505b600085871161106c578561106e565b865b9050600160c41b811061108a5760006001935093505050611110565b838602600081900361109e57505050611110565b868582816110ae576110ae611e02565b041415806110d8575081600160c41b03670de0b6b3a764000082816110d5576110d5611e02565b04115b1561110c5786670de0b6b3a764000083600160c41b0302816110fc576110fc611e02565b0494506001935061111092505050565b5050505b935093915050565b6000808061112c846502e24d16b5a8611e54565b905080851161113d57846000611141565b8060015b92509250509250929050565b600068023f2fa8f6da5b9d311982121561116957506000919050565b6804cf46d8192b672ecc821261117e57600080fd5b6714057b7ef767814f8202610f5f670de0b6b3a76400006706f05b59d3b200008301055b6000808212156111f65768033dd1780914b97114198212156111c657506000919050565b6111d2826000036111a2565b6ec097ce7bc90715b34b9f1000000000816111ef576111ef611e02565b0592915050565b6806f05b59d3b2000000821261120b57600080fd5b670de0b6b3a7640000608083901b04610f5f81611228565b919050565b6001607f1b8181161561124c5770016a09e667f3bcc908b2fb1366ea957d3e0260801c5b6001607e1b82161561126f577001306fe0a31b7152de8d5a46305c85eded0260801c5b6001607d1b821615611292577001172b83c7d517adcdf7c8c50eb14a79200260801c5b6001607c1b8216156112b55770010b5586cf9890f6298b92b71842a983640260801c5b6001607b1b8216156112d8577001059b0d31585743ae7c548eb68ca417fe0260801c5b6001607a1b8216156112fb57700102c9a3e778060ee6f7caca4f7a29bde90260801c5b600160791b82161561131e5770010163da9fb33356d84a66ae336dcdfa400260801c5b600160781b82161561134157700100b1afa5abcbed6129ab13ec11dc95440260801c5b600160771b8216156113645770010058c86da1c09ea1ff19d294cf2f679c0260801c5b600160761b821615611387577001002c605e2e8cec506d21bfc89a23a0110260801c5b600160751b8216156113aa57700100162f3904051fa128bca9c55c31e5e00260801c5b600160741b8216156113cd577001000b175effdc76ba38e31671ca9397260260801c5b600160731b8216156113f057700100058ba01fb9f96d6cacd4b180917c3e0260801c5b600160721b8216156114135770010002c5cc37da9491d0985c348c68e7b40260801c5b600160711b821615611436577001000162e525ee054754457d59952920270260801c5b600160701b8216156114595770010000b17255775c040618bf4a4ade83fd0260801c5b6001606f1b82161561147c577001000058b91b5bc9ae2eed81e9b7d4cfac0260801c5b6001606e1b82161561149f57700100002c5c89d5ec6ca4d7c8acc017b7ca0260801c5b6001606d1b8216156114c25770010000162e43f4f831060e02d839a9d16d0260801c5b6001606c1b8216156114e557700100000b1721bcfc99d9f890ea069117630260801c5b6001606b1b8216156115085770010000058b90cf1e6d97f9ca14dbcc16290260801c5b6001606a1b82161561152b577001000002c5c863b73f016468f6bac5ca2c0260801c5b600160691b82161561154e57700100000162e430e5a18f6119e3c02282a60260801c5b600160681b821615611571577001000000b1721835514b86e6d96efd1bff0260801c5b600160671b82161561159457700100000058b90c0b48c6be5df846c5b2f00260801c5b600160661b8216156115b75770010000002c5c8601cc6b9e94213c72737b0260801c5b600160651b8216156115da577001000000162e42fff037df38aa2b219f070260801c5b600160641b8216156115fd5770010000000b17217fba9c739aa5819f44fa0260801c5b600160631b821615611620577001000000058b90bfcdee5acd3c1cedc8240260801c5b600160621b82161561164357700100000002c5c85fe31f35a6a30da1be510260801c5b600160611b8216156116665770010000000162e42ff0999ce3541b9fffd00260801c5b600160601b82161561168957700100000000b17217f80f4ef5aadda455540260801c5b6001605f1b8216156116ac5770010000000058b90bfbf8479bd5a81b51ae0260801c5b6001605e1b8216156116cf577001000000002c5c85fdf84bd62ae30a74cd0260801c5b6001605d1b8216156116f257700100000000162e42fefb2fed257559bdaa0260801c5b6001605c1b821615611715577001000000000b17217f7d5a7716bba4a9af0260801c5b6001605b1b82161561173857700100000000058b90bfbe9ddbac5e109ccf0260801c5b6001605a1b82161561175b5770010000000002c5c85fdf4b15de6f17eb0e0260801c5b600160591b82161561177e577001000000000162e42fefa494f1478fde050260801c5b600160581b8216156117a15770010000000000b17217f7d20cf927c8e94d0260801c5b600160571b8216156117c4577001000000000058b90bfbe8f71cb4e4b33e0260801c5b600160561b8216156117e757700100000000002c5c85fdf477b662b269460260801c5b600160551b82161561180a5770010000000000162e42fefa3ae53369388d0260801c5b600160541b82161561182d57700100000000000b17217f7d1d351a389d410260801c5b600160531b8216156118505770010000000000058b90bfbe8e8b2d3d4edf0260801c5b600160521b821615611873577001000000000002c5c85fdf4741bea6e77f0260801c5b600160511b82161561189657700100000000000162e42fefa39fe95583c30260801c5b600160501b8216156118b9577001000000000000b17217f7d1cfb72b45e30260801c5b69800000000000000000008216156118e257700100000000000058b90bfbe8e7cc35c3f20260801c5b694000000000000000000082161561190b5770010000000000002c5c85fdf473e242ea390260801c5b6920000000000000000000821615611934577001000000000000162e42fefa39f02b772c0260801c5b691000000000000000000082161561195d5770010000000000000b17217f7d1cf7d83c1a0260801c5b6908000000000000000000821615611986577001000000000000058b90bfbe8e7bdcbe2e0260801c5b69040000000000000000008216156119af57700100000000000002c5c85fdf473dea871f0260801c5b69020000000000000000008216156119d85770010000000000000162e42fefa39ef44d920260801c5b6901000000000000000000821615611a0157700100000000000000b17217f7d1cf79e9490260801c5b68800000000000000000821615611a295770010000000000000058b90bfbe8e7bce5450260801c5b68400000000000000000821615611a51577001000000000000002c5c85fdf473de6eca0260801c5b68200000000000000000821615611a7957700100000000000000162e42fefa39ef366f0260801c5b68100000000000000000821615611aa1577001000000000000000b17217f7d1cf79afa0260801c5b68080000000000000000821615611ac957700100000000000000058b90bfbe8e7bcd6e0260801c5b68040000000000000000821615611af15770010000000000000002c5c85fdf473de6b30260801c5b68020000000000000000821615611b19577001000000000000000162e42fefa39ef3590260801c5b68010000000000000000821615611b415770010000000000000000b17217f7d1cf79ac0260801c5b6001608083901c011b610f7a81670de0b6b3a7640000600160801b6000808060001985870985870292508281108382030391505080600003611b955760008411611b8a57600080fd5b508290049050610f5f565b808411611ba157600080fd5b60008486880960026001871981018816978890046003810283188082028403028082028403028082028403028082028403028082028403029081029092039091026000889003889004909101858311909403939093029303949094049190911702949350505050565b604051610140810167ffffffffffffffff81118282101715611c3c57634e487b7160e01b600052604160045260246000fd5b60405290565b60008060008060008587036101c0811215611c5c57600080fd5b61014080821215611c6c57600080fd5b611c74611c0a565b883581526020808a0135908201526040808a0135908201526060808a0135908201526080808a01359082015260a0808a01359082015260c0808a01359082015260e0808a013590820152610100808a013590820152610120808a013590820152999088013598506101608801359761018081013597506101a0013595509350505050565b80356001600160a01b038116811461122357600080fd5b60008060408385031215611d2257600080fd5b611d2b83611cf8565b946020939093013593505050565b600060208284031215611d4b57600080fd5b610f7782611cf8565b600060208284031215611d6657600080fd5b5035919050565b634e487b7160e01b600052601160045260246000fd5b8181036000831280158383131683831282161715611da357611da3611d6d565b5092915050565b80820260008212600160ff1b84141615611dc657611dc6611d6d565b8181058314821517610f7a57610f7a611d6d565b8082018281126000831280158216821582161715611dfa57611dfa611d6d565b505092915050565b634e487b7160e01b600052601260045260246000fd5b600082611e3557634e487b7160e01b600052601260045260246000fd5b600160ff1b821460001984141615611e4f57611e4f611d6d565b500590565b8082028115828204841417610f7a57610f7a611d6d565b600060608284031215611e7d57600080fd5b6040516060810167ffffffffffffffff8282108183111715611eaf57634e487b7160e01b600052604160045260246000fd5b816040528451835260208501516020840152604085015191508082168214611ed657600080fd5b5060408201529392505050565b80825b6001808611611ef55750611110565b6001600160ff1b03829004821115611f0f57611f0f611d6d565b80861615611f1c57918102915b9490941c938002611ee6565b6000828015611f3e5760018114611f4857611f51565b6001915050610f7a565b82915050610f7a565b5081611f5f57506000610f7a565b50600160008213808214611f78578015611f9757611fb1565b6001600160ff1b03839004831115611f9257611f92611d6d565b611fb1565b6001600160ff1b03839005831215611fb157611fb1611d6d565b5080831615611fbd5750805b611fcd8360011c83840283611ee3565b600082136001600160ff1b0382900483111615611fec57611fec611d6d565b60008212600160ff1b8290058312161561200857612008611d6d565b029392505050565b6000610f7760ff841683611f28565b600061010080838503121561203357600080fd5b6040519081019067ffffffffffffffff8211818310171561206457634e487b7160e01b600052604160045260246000fd5b81604052835181526020840151602082015260408401516040820152606084015160608201526080840151608082015260a084015160a082015260c084015160c082015260e084015160e082015280925050509291505056fea26469706673582212202914ba2de6177a18c8b77e7e64744ca1e0b3a53531c9c576ef6cd9197693654564736f6c63430008130033",
  "language": "Solidity",
  "compiler": "0.8.19+commit.7dd6d404"
}