{
  "address": "0x761F0A136A61634EC5516CbdF81fed729D82731D",
  "abi": [
    {
      "inputs": [],
      "name": "InvalidDeployer",
      "type": "error"
    },
    {
      "inputs": [],
      "name": "InvalidFee",
      "type": "error"
    },
    {
      "inputs": [],
      "name": "InvalidIrm",
      "type": "error"
    },
    {
      "inputs": [],
      "name": "InvalidIrmConfig",
      "type": "error"
    },
    {
      "inputs": [],
      "name": "InvalidLt",
      "type": "error"
    },
    {
      "inputs": [],
      "name": "InvalidMaxLt",
      "type": "error"
    },
    {
      "inputs": [],
      "name": "InvalidMaxLtv",
      "type": "error"
    },
    {
      "inputs": [],
      "name": "MaxDeployerFee",
      "type": "error"
    },
    {
      "inputs": [],
      "name": "MaxFee",
      "type": "error"
    },
    {
      "inputs": [],
      "name": "MaxFlashloanFee",
      "type": "error"
    },
    {
      "inputs": [],
      "name": "MaxLiquidationFee",
      "type": "error"
    },
    {
      "inputs": [],
      "name": "NonBorrowableSilo",
      "type": "error"
    },
    {
      "inputs": [],
      "name": "SameAsset",
      "type": "error"
    },
    {
      "inputs": [],
      "name": "ZeroAddress",
      "type": "error"
    },
    {
      "anonymous": false,
      "inputs": [
        {
          "indexed": true,
          "internalType": "address",
          "name": "owner",
          "type": "address"
        },
        {
          "indexed": true,
          "internalType": "address",
          "name": "approved",
          "type": "address"
        },
        {
          "indexed": true,
          "internalType": "uint256",
          "name": "tokenId",
          "type": "uint256"
        }
      ],
      "name": "Approval",
      "type": "event"
    },
    {
      "anonymous": false,
      "inputs": [
        {
          "indexed": true,
          "internalType": "address",
          "name": "owner",
          "type": "address"
        },
        {
          "indexed": true,
          "internalType": "address",
          "name": "operator",
          "type": "address"
        },
        {
          "indexed": false,
          "internalType": "bool",
          "name": "approved",
          "type": "bool"
        }
      ],
      "name": "ApprovalForAll",
      "type": "event"
    },
    {
      "anonymous": false,
      "inputs": [
        {
          "indexed": false,
          "internalType": "uint256",
          "name": "daoFeeInBp",
          "type": "uint256"
        }
      ],
      "name": "DaoFeeChanged",
      "type": "event"
    },
    {
      "anonymous": false,
      "inputs": [
        {
          "indexed": false,
          "internalType": "address",
          "name": "daoFeeReceiver",
          "type": "address"
        }
      ],
      "name": "DaoFeeReceiverChanged",
      "type": "event"
    },
    {
      "anonymous": false,
      "inputs": [
        {
          "indexed": false,
          "internalType": "uint8",
          "name": "version",
          "type": "uint8"
        }
      ],
      "name": "Initialized",
      "type": "event"
    },
    {
      "anonymous": false,
      "inputs": [
        {
          "indexed": false,
          "internalType": "uint256",
          "name": "maxDeployerFeeInBp",
          "type": "uint256"
        }
      ],
      "name": "MaxDeployerFeeChanged",
      "type": "event"
    },
    {
      "anonymous": false,
      "inputs": [
        {
          "indexed": false,
          "internalType": "uint256",
          "name": "maxFlashloanFee",
          "type": "uint256"
        }
      ],
      "name": "MaxFlashloanFeeChanged",
      "type": "event"
    },
    {
      "anonymous": false,
      "inputs": [
        {
          "indexed": false,
          "internalType": "uint256",
          "name": "maxLiquidationFee",
          "type": "uint256"
        }
      ],
      "name": "MaxLiquidationFeeChanged",
      "type": "event"
    },
    {
      "anonymous": false,
      "inputs": [
        {
          "indexed": true,
          "internalType": "address",
          "name": "token0",
          "type": "address"
        },
        {
          "indexed": true,
          "internalType": "address",
          "name": "token1",
          "type": "address"
        },
        {
          "indexed": false,
          "internalType": "address",
          "name": "silo0",
          "type": "address"
        },
        {
          "indexed": false,
          "internalType": "address",
          "name": "silo1",
          "type": "address"
        },
        {
          "indexed": false,
          "internalType": "address",
          "name": "siloConfig",
          "type": "address"
        }
      ],
      "name": "NewSilo",
      "type": "event"
    },
    {
      "anonymous": false,
      "inputs": [
        {
          "indexed": true,
          "internalType": "address",
          "name": "previousOwner",
          "type": "address"
        },
        {
          "indexed": true,
          "internalType": "address",
          "name": "newOwner",
          "type": "address"
        }
      ],
      "name": "OwnershipTransferred",
      "type": "event"
    },
    {
      "anonymous": false,
      "inputs": [
        {
          "indexed": true,
          "internalType": "address",
          "name": "from",
          "type": "address"
        },
        {
          "indexed": true,
          "internalType": "address",
          "name": "to",
          "type": "address"
        },
        {
          "indexed": true,
          "internalType": "uint256",
          "name": "tokenId",
          "type": "uint256"
        }
      ],
      "name": "Transfer",
      "type": "event"
    },
    {
      "inputs": [],
      "name": "MAX_FEE_IN_BP",
      "outputs": [
        {
          "internalType": "uint256",
          "name": "",
          "type": "uint256"
        }
      ],
      "stateMutability": "view",
      "type": "function"
    },
    {
      "inputs": [
        {
          "internalType": "address",
          "name": "to",
          "type": "address"
        },
        {
          "internalType": "uint256",
          "name": "tokenId",
          "type": "uint256"
        }
      ],
      "name": "approve",
      "outputs": [],
      "stateMutability": "nonpayable",
      "type": "function"
    },
    {
      "inputs": [
        {
          "internalType": "address",
          "name": "owner",
          "type": "address"
        }
      ],
      "name": "balanceOf",
      "outputs": [
        {
          "internalType": "uint256",
          "name": "",
          "type": "uint256"
        }
      ],
      "stateMutability": "view",
      "type": "function"
    },
    {
      "inputs": [
        {
          "components": [
            {
              "internalType": "address",
              "name": "deployer",
              "type": "address"
            },
            {
              "internalType": "uint256",
              "name": "deployerFeeInBp",
              "type": "uint256"
            },
            {
              "internalType": "address",
              "name": "token0",
              "type": "address"
            },
            {
              "internalType": "address",
              "name": "solvencyOracle0",
              "type": "address"
            },
            {
              "internalType": "address",
              "name": "maxLtvOracle0",
              "type": "address"
            },
            {
              "internalType": "address",
              "name": "interestRateModel0",
              "type": "address"
            },
            {
              "internalType": "address",
              "name": "interestRateModelConfig0",
              "type": "address"
            },
            {
              "internalType": "uint64",
              "name": "maxLtv0",
              "type": "uint64"
            },
            {
              "internalType": "uint64",
              "name": "lt0",
              "type": "uint64"
            },
            {
              "internalType": "uint64",
              "name": "liquidationFee0",
              "type": "uint64"
            },
            {
              "internalType": "uint64",
              "name": "flashloanFee0",
              "type": "uint64"
            },
            {
              "internalType": "bool",
              "name": "callBeforeQuote0",
              "type": "bool"
            },
            {
              "internalType": "address",
              "name": "protectedHookReceiver0",
              "type": "address"
            },
            {
              "internalType": "address",
              "name": "collateralHookReceiver0",
              "type": "address"
            },
            {
              "internalType": "address",
              "name": "debtHookReceiver0",
              "type": "address"
            },
            {
              "internalType": "address",
              "name": "token1",
              "type": "address"
            },
            {
              "internalType": "address",
              "name": "solvencyOracle1",
              "type": "address"
            },
            {
              "internalType": "address",
              "name": "maxLtvOracle1",
              "type": "address"
            },
            {
              "internalType": "address",
              "name": "interestRateModel1",
              "type": "address"
            },
            {
              "internalType": "address",
              "name": "interestRateModelConfig1",
              "type": "address"
            },
            {
              "internalType": "uint64",
              "name": "maxLtv1",
              "type": "uint64"
            },
            {
              "internalType": "uint64",
              "name": "lt1",
              "type": "uint64"
            },
            {
              "internalType": "uint64",
              "name": "liquidationFee1",
              "type": "uint64"
            },
            {
              "internalType": "uint64",
              "name": "flashloanFee1",
              "type": "uint64"
            },
            {
              "internalType": "bool",
              "name": "callBeforeQuote1",
              "type": "bool"
            },
            {
              "internalType": "address",
              "name": "protectedHookReceiver1",
              "type": "address"
            },
            {
              "internalType": "address",
              "name": "collateralHookReceiver1",
              "type": "address"
            },
            {
              "internalType": "address",
              "name": "debtHookReceiver1",
              "type": "address"
            }
          ],
          "internalType": "struct ISiloConfig.InitData",
          "name": "_initData",
          "type": "tuple"
        }
      ],
      "name": "createSilo",
      "outputs": [
        {
          "internalType": "contract ISiloConfig",
          "name": "siloConfig",
          "type": "address"
        }
      ],
      "stateMutability": "nonpayable",
      "type": "function"
    },
    {
      "inputs": [],
      "name": "daoFeeInBp",
      "outputs": [
        {
          "internalType": "uint256",
          "name": "",
          "type": "uint256"
        }
      ],
      "stateMutability": "view",
      "type": "function"
    },
    {
      "inputs": [],
      "name": "daoFeeReceiver",
      "outputs": [
        {
          "internalType": "address",
          "name": "",
          "type": "address"
        }
      ],
      "stateMutability": "view",
      "type": "function"
    },
    {
      "inputs": [
        {
          "internalType": "uint256",
          "name": "tokenId",
          "type": "uint256"
        }
      ],
      "name": "getApproved",
      "outputs": [
        {
          "internalType": "address",
          "name": "",
          "type": "address"
        }
      ],
      "stateMutability": "view",
      "type": "function"
    },
    {
      "inputs": [
        {
          "internalType": "address",
          "name": "_silo",
          "type": "address"
        }
      ],
      "name": "getFeeReceivers",
      "outputs": [
        {
          "internalType": "address",
          "name": "dao",
          "type": "address"
        },
        {
          "internalType": "address",
          "name": "deployer",
          "type": "address"
        }
      ],
      "stateMutability": "view",
      "type": "function"
    },
    {
      "inputs": [],
      "name": "getNextSiloId",
      "outputs": [
        {
          "internalType": "uint256",
          "name": "",
          "type": "uint256"
        }
      ],
      "stateMutability": "view",
      "type": "function"
    },
    {
      "inputs": [
        {
          "internalType": "uint256",
          "name": "_id",
          "type": "uint256"
        }
      ],
      "name": "idToSilos",
      "outputs": [
        {
          "internalType": "address[2]",
          "name": "silos",
          "type": "address[2]"
        }
      ],
      "stateMutability": "view",
      "type": "function"
    },
    {
      "inputs": [
        {
          "internalType": "address",
          "name": "_siloImpl",
          "type": "address"
        },
        {
          "internalType": "address",
          "name": "_shareCollateralTokenImpl",
          "type": "address"
        },
        {
          "internalType": "address",
          "name": "_shareDebtTokenImpl",
          "type": "address"
        },
        {
          "internalType": "uint256",
          "name": "_daoFeeInBp",
          "type": "uint256"
        },
        {
          "internalType": "address",
          "name": "_daoFeeReceiver",
          "type": "address"
        }
      ],
      "name": "initialize",
      "outputs": [],
      "stateMutability": "nonpayable",
      "type": "function"
    },
    {
      "inputs": [
        {
          "internalType": "address",
          "name": "owner",
          "type": "address"
        },
        {
          "internalType": "address",
          "name": "operator",
          "type": "address"
        }
      ],
      "name": "isApprovedForAll",
      "outputs": [
        {
          "internalType": "bool",
          "name": "",
          "type": "bool"
        }
      ],
      "stateMutability": "view",
      "type": "function"
    },
    {
      "inputs": [
        {
          "internalType": "address",
          "name": "_silo",
          "type": "address"
        }
      ],
      "name": "isSilo",
      "outputs": [
        {
          "internalType": "bool",
          "name": "",
          "type": "bool"
        }
      ],
      "stateMutability": "view",
      "type": "function"
    },
    {
      "inputs": [],
      "name": "maxDeployerFeeInBp",
      "outputs": [
        {
          "internalType": "uint256",
          "name": "",
          "type": "uint256"
        }
      ],
      "stateMutability": "view",
      "type": "function"
    },
    {
      "inputs": [],
      "name": "maxFlashloanFeeInBp",
      "outputs": [
        {
          "internalType": "uint256",
          "name": "",
          "type": "uint256"
        }
      ],
      "stateMutability": "view",
      "type": "function"
    },
    {
      "inputs": [],
      "name": "maxLiquidationFeeInBp",
      "outputs": [
        {
          "internalType": "uint256",
          "name": "",
          "type": "uint256"
        }
      ],
      "stateMutability": "view",
      "type": "function"
    },
    {
      "inputs": [],
      "name": "name",
      "outputs": [
        {
          "internalType": "string",
          "name": "",
          "type": "string"
        }
      ],
      "stateMutability": "view",
      "type": "function"
    },
    {
      "inputs": [],
      "name": "owner",
      "outputs": [
        {
          "internalType": "address",
          "name": "",
          "type": "address"
        }
      ],
      "stateMutability": "view",
      "type": "function"
    },
    {
      "inputs": [
        {
          "internalType": "uint256",
          "name": "tokenId",
          "type": "uint256"
        }
      ],
      "name": "ownerOf",
      "outputs": [
        {
          "internalType": "address",
          "name": "",
          "type": "address"
        }
      ],
      "stateMutability": "view",
      "type": "function"
    },
    {
      "inputs": [],
      "name": "renounceOwnership",
      "outputs": [],
      "stateMutability": "nonpayable",
      "type": "function"
    },
    {
      "inputs": [
        {
          "internalType": "address",
          "name": "from",
          "type": "address"
        },
        {
          "internalType": "address",
          "name": "to",
          "type": "address"
        },
        {
          "internalType": "uint256",
          "name": "tokenId",
          "type": "uint256"
        }
      ],
      "name": "safeTransferFrom",
      "outputs": [],
      "stateMutability": "nonpayable",
      "type": "function"
    },
    {
      "inputs": [
        {
          "internalType": "address",
          "name": "from",
          "type": "address"
        },
        {
          "internalType": "address",
          "name": "to",
          "type": "address"
        },
        {
          "internalType": "uint256",
          "name": "tokenId",
          "type": "uint256"
        },
        {
          "internalType": "bytes",
          "name": "data",
          "type": "bytes"
        }
      ],
      "name": "safeTransferFrom",
      "outputs": [],
      "stateMutability": "nonpayable",
      "type": "function"
    },
    {
      "inputs": [
        {
          "internalType": "address",
          "name": "operator",
          "type": "address"
        },
        {
          "internalType": "bool",
          "name": "approved",
          "type": "bool"
        }
      ],
      "name": "setApprovalForAll",
      "outputs": [],
      "stateMutability": "nonpayable",
      "type": "function"
    },
    {
      "inputs": [
        {
          "internalType": "uint256",
          "name": "_newDaoFee",
          "type": "uint256"
        }
      ],
      "name": "setDaoFee",
      "outputs": [],
      "stateMutability": "nonpayable",
      "type": "function"
    },
    {
      "inputs": [
        {
          "internalType": "address",
          "name": "_newDaoFeeReceiver",
          "type": "address"
        }
      ],
      "name": "setDaoFeeReceiver",
      "outputs": [],
      "stateMutability": "nonpayable",
      "type": "function"
    },
    {
      "inputs": [
        {
          "internalType": "uint256",
          "name": "_newMaxDeployerFeeInBp",
          "type": "uint256"
        }
      ],
      "name": "setMaxDeployerFee",
      "outputs": [],
      "stateMutability": "nonpayable",
      "type": "function"
    },
    {
      "inputs": [
        {
          "internalType": "uint256",
          "name": "_newMaxFlashloanFeeInBp",
          "type": "uint256"
        }
      ],
      "name": "setMaxFlashloanFee",
      "outputs": [],
      "stateMutability": "nonpayable",
      "type": "function"
    },
    {
      "inputs": [
        {
          "internalType": "uint256",
          "name": "_newMaxLiquidationFeeInBp",
          "type": "uint256"
        }
      ],
      "name": "setMaxLiquidationFee",
      "outputs": [],
      "stateMutability": "nonpayable",
      "type": "function"
    },
    {
      "inputs": [],
      "name": "shareCollateralTokenImpl",
      "outputs": [
        {
          "internalType": "address",
          "name": "",
          "type": "address"
        }
      ],
      "stateMutability": "view",
      "type": "function"
    },
    {
      "inputs": [],
      "name": "shareDebtTokenImpl",
      "outputs": [
        {
          "internalType": "address",
          "name": "",
          "type": "address"
        }
      ],
      "stateMutability": "view",
      "type": "function"
    },
    {
      "inputs": [],
      "name": "siloImpl",
      "outputs": [
        {
          "internalType": "address",
          "name": "",
          "type": "address"
        }
      ],
      "stateMutability": "view",
      "type": "function"
    },
    {
      "inputs": [
        {
          "internalType": "address",
          "name": "silo",
          "type": "address"
        }
      ],
      "name": "siloToId",
      "outputs": [
        {
          "internalType": "uint256",
          "name": "id",
          "type": "uint256"
        }
      ],
      "stateMutability": "view",
      "type": "function"
    },
    {
      "inputs": [
        {
          "internalType": "bytes4",
          "name": "interfaceId",
          "type": "bytes4"
        }
      ],
      "name": "supportsInterface",
      "outputs": [
        {
          "internalType": "bool",
          "name": "",
          "type": "bool"
        }
      ],
      "stateMutability": "view",
      "type": "function"
    },
    {
      "inputs": [],
      "name": "symbol",
      "outputs": [
        {
          "internalType": "string",
          "name": "",
          "type": "string"
        }
      ],
      "stateMutability": "view",
      "type": "function"
    },
    {
      "inputs": [
        {
          "internalType": "uint256",
          "name": "tokenId",
          "type": "uint256"
        }
      ],
      "name": "tokenURI",
      "outputs": [
        {
          "internalType": "string",
          "name": "",
          "type": "string"
        }
      ],
      "stateMutability": "view",
      "type": "function"
    },
    {
      "inputs": [
        {
          "internalType": "address",
          "name": "from",
          "type": "address"
        },
        {
          "internalType": "address",
          "name": "to",
          "type": "address"
        },
        {
          "internalType": "uint256",
          "name": "tokenId",
          "type": "uint256"
        }
      ],
      "name": "transferFrom",
      "outputs": [],
      "stateMutability": "nonpayable",
      "type": "function"
    },
    {
      "inputs": [
        {
          "internalType": "address",
          "name": "newOwner",
          "type": "address"
        }
      ],
      "name": "transferOwnership",
      "outputs": [],
      "stateMutability": "nonpayable",
      "type": "function"
    }
  ],
  "bytecode": "0x608060405234801561001057600080fd5b50614f8a806100206000396000f3fe60806040523480156200001157600080fd5b5060043610620002555760003560e01c80636352211e1162000149578063b14a25a811620000c7578063c87b56dd1162000086578063c87b56dd1462000542578063ce41fff31462000559578063e93919b81462000563578063e985e9c51462000589578063f2fde38b14620005c857600080fd5b8063b14a25a814620004d0578063b20ff79014620004e7578063b88d4fde146200050a578063b8d78eb21462000521578063bc2ef3f3146200052b57600080fd5b806379ff4812116200011457806379ff4812146200047c5780638da5cb5b146200048657806395d89b411462000498578063a22cb46514620004a2578063ab12bf8014620004b957600080fd5b80636352211e14620004305780636abd4e19146200044757806370a08231146200045b578063715018a6146200047257600080fd5b80633021de9411620001d7578063530b97a411620001a2578063530b97a414620003c35780635410b1a914620003da578063552490e614620003f157806356bf27ae146200040557806361ed96f5146200041c57600080fd5b80633021de94146200038157806342842e0e146200038b578063497622e514620003a257806349f33f2e14620003b957600080fd5b80630a6e948211620002245780630a6e948214620002e857806312f0dcd81462000301578063181a0a72146200032f5780632396ef0c146200035657806323b872dd146200036a57600080fd5b806301ffc9a7146200025a57806306fdde031462000286578063081812fc146200029f578063095ea7b314620002cf575b600080fd5b620002716200026b366004620027cc565b620005df565b60405190151581526020015b60405180910390f35b6200029062000633565b6040516200027d919062002840565b620002b6620002b036600462002855565b620006cd565b6040516001600160a01b0390911681526020016200027d565b620002e6620002e036600462002887565b620006f6565b005b620002f260cb5481565b6040519081526020016200027d565b6200027162000312366004620028b4565b6001600160a01b0316600090815260d36020526040902054151590565b6200034662000340366004620028b4565b6200081a565b6040516200027d929190620028d2565b60cf54620002b6906001600160a01b031681565b620002e66200037b366004620028ec565b62000866565b620002f2610fa081565b620002e66200039c366004620028ec565b6200089e565b620002b6620003b3366004620029cb565b620008bb565b620002f262000c65565b620002e6620003d436600462002c09565b62000c76565b620002e6620003eb36600462002855565b62000ed2565b60d154620002b6906001600160a01b031681565b620002e66200041636600462002855565b62000eea565b60ce54620002b6906001600160a01b031681565b620002b66200044136600462002855565b62000eff565b60d054620002b6906001600160a01b031681565b620002f26200046c366004620028b4565b62000f61565b620002e662000fe9565b620002f260ca5481565b6097546001600160a01b0316620002b6565b6200029062001001565b620002e6620004b336600462002c70565b62001012565b620002e6620004ca366004620028b4565b62001023565b620002e6620004e136600462002855565b62001038565b620002f2620004f8366004620028b4565b60d36020526000908152604090205481565b620002e66200051b36600462002ca8565b6200104d565b620002f260cd5481565b620002e66200053c36600462002855565b6200108c565b620002906200055336600462002855565b620010a1565b620002f260cc5481565b6200057a6200057436600462002855565b62001143565b6040516200027d919062002d74565b620002716200059a36600462002db0565b6001600160a01b039182166000908152606a6020908152604080832093909416825291909152205460ff1690565b620002e6620005d9366004620028b4565b62001197565b60006001600160e01b031982166380ac58cd60e01b14806200061157506001600160e01b03198216635b5e139f60e01b145b806200062d57506301ffc9a760e01b6001600160e01b03198316145b92915050565b606060658054620006449062002ddf565b80601f0160208091040260200160405190810160405280929190818152602001828054620006729062002ddf565b8015620006c35780601f106200069757610100808354040283529160200191620006c3565b820191906000526020600020905b815481529060010190602001808311620006a557829003601f168201915b5050505050905090565b6000620006da8262001213565b506000908152606960205260409020546001600160a01b031690565b6000620007038262000eff565b9050806001600160a01b0316836001600160a01b031603620007765760405162461bcd60e51b815260206004820152602160248201527f4552433732313a20617070726f76616c20746f2063757272656e74206f776e656044820152603960f91b60648201526084015b60405180910390fd5b336001600160a01b03821614806200079557506200079581336200059a565b620008095760405162461bcd60e51b815260206004820152603d60248201527f4552433732313a20617070726f76652063616c6c6572206973206e6f7420746f60448201527f6b656e206f776e6572206f7220617070726f76656420666f7220616c6c00000060648201526084016200076d565b62000815838362001274565b505050565b60ce546001600160a01b03828116600090815260d360205260408120549092839216906200085d906000908152606760205260409020546001600160a01b031690565b91509150915091565b620008723382620012e4565b620008915760405162461bcd60e51b81526004016200076d9062002e1b565b6200081583838362001369565b62000815838383604051806020016040528060008152506200104d565b6000620008c882620014d9565b600080620008d68462001811565b915091506000620008e660c95490565b9050620008f760c980546001019055565b60ca54808452825260d05462000916906001600160a01b031662001aab565b6001600160a01b0390811660a085015260d05462000935911662001aab565b6001600160a01b0390811660c085015260d15462000954911662001aab565b6001600160a01b0390811660e085015260d05462000973911662001aab565b6001600160a01b0390811660a084015260d05462000992911662001aab565b6001600160a01b0390811660c084015260d154620009b1911662001aab565b6001600160a01b0390811660e084015260cf54620009d0911662001aab565b6001600160a01b03908116604085015260cf54620009ef911662001aab565b6001600160a01b03166040808401919091525181908490849062000a139062002691565b62000a219392919062002fa7565b604051809103906000f08015801562000a3e573d6000803e3d6000fd5b50935082604001516001600160a01b031663485cc955858760c001516040518363ffffffff1660e01b815260040162000a79929190620028d2565b600060405180830381600087803b15801562000a9457600080fd5b505af115801562000aa9573d6000803e3d6000fd5b5050505081604001516001600160a01b031663485cc955858761026001516040518363ffffffff1660e01b815260040162000ae6929190620028d2565b600060405180830381600087803b15801562000b0157600080fd5b505af115801562000b16573d6000803e3d6000fd5b5050505062000b3c838660000151876101800151886101a00151896101c0015162001b47565b62000b5e82866000015187610320015188610340015189610360015162001b47565b604080840180516001600160a01b03908116600090815260d3602090815284822086905586850180518416835285832087905585518087018752945184168552519092168383015284815260d29091529190912062000bbf9160026200269f565b5084516001600160a01b03161562000bdf57845162000bdf908262001dfa565b81608001516001600160a01b031683608001516001600160a01b03167f14581c35c816c9e78ddb2643fc50083788783d932b9fac097874be56ce1f2dcc856040015185604001518860405162000c55939291906001600160a01b0393841681529183166020830152909116604082015260600190565b60405180910390a3505050919050565b600062000c7160c95490565b905090565b600054610100900460ff161580801562000c975750600054600160ff909116105b8062000cb35750303b15801562000cb3575060005460ff166001145b62000d185760405162461bcd60e51b815260206004820152602e60248201527f496e697469616c697a61626c653a20636f6e747261637420697320616c72656160448201526d191e481a5b9a5d1a585b1a5e995960921b60648201526084016200076d565b6000805460ff19166001179055801562000d3c576000805461ff0019166101001790555b62000d9c6040518060400160405280601981526020017f53696c6f2046696e616e636520466565205265636569766572000000000000008152506040518060400160405280600781526020016666656553494c4f60c81b81525062001f8b565b62000da662001fc1565b62000db560c980546001019055565b6001600160a01b038616158062000dd357506001600160a01b038516155b8062000de657506001600160a01b038416155b1562000e055760405163d92e233d60e01b815260040160405180910390fd5b60cf80546001600160a01b038089166001600160a01b03199283161790925560d0805488841690831617905560d18054928716929091169190911790556105dc80610bb862000e548662001ff5565b62000e5f8562002055565b62000e6a83620020cc565b62000e758262002125565b62000e80816200217e565b505050801562000eca576000805461ff0019169055604051600181527f7f26b83ff96e1f2b6a682f133852f6798a09c465da95921460cefb38474024989060200160405180910390a15b505050505050565b62000edc620021d7565b62000ee781620020cc565b50565b62000ef4620021d7565b62000ee78162002125565b6000818152606760205260408120546001600160a01b0316806200062d5760405162461bcd60e51b8152602060048201526018602482015277115490cdcc8c4e881a5b9d985b1a59081d1bdad95b88125160421b60448201526064016200076d565b60006001600160a01b03821662000fcd5760405162461bcd60e51b815260206004820152602960248201527f4552433732313a2061646472657373207a65726f206973206e6f7420612076616044820152683634b21037bbb732b960b91b60648201526084016200076d565b506001600160a01b031660009081526068602052604090205490565b62000ff3620021d7565b62000fff600062002233565b565b606060668054620006449062002ddf565b6200101f33838362002285565b5050565b6200102d620021d7565b62000ee78162002055565b62001042620021d7565b62000ee78162001ff5565b620010593383620012e4565b620010785760405162461bcd60e51b81526004016200076d9062002e1b565b620010868484848462002355565b50505050565b62001096620021d7565b62000ee7816200217e565b6060620010ae8262001213565b6000620010eb60408051808201909152601881527f2f2f6170702e73696c6f2e66696e616e63652f73696c6f2f0000000000000000602082015290565b905060008151116200110d57604051806020016040528060008152506200113c565b8062001119846200238f565b6040516020016200112c92919062002fce565b6040516020818303038152906040525b9392505050565b6200114d620026fc565b600082815260d26020526040908190208151808301928390529160029082845b81546001600160a01b031681526001909101906020018083116200116d5750505050509050919050565b620011a1620021d7565b6001600160a01b038116620012085760405162461bcd60e51b815260206004820152602660248201527f4f776e61626c653a206e6577206f776e657220697320746865207a65726f206160448201526564647265737360d01b60648201526084016200076d565b62000ee78162002233565b6000818152606760205260409020546001600160a01b031662000ee75760405162461bcd60e51b8152602060048201526018602482015277115490cdcc8c4e881a5b9d985b1a59081d1bdad95b88125160421b60448201526064016200076d565b600081815260696020526040902080546001600160a01b0319166001600160a01b0384169081179091558190620012ab8262000eff565b6001600160a01b03167f8c5be1e5ebec7d5bd14f71427d1e84f3dd0314c0f7b2291e5b200ac8c7c3b92560405160405180910390a45050565b600080620012f28362000eff565b9050806001600160a01b0316846001600160a01b031614806200133a57506001600160a01b038082166000908152606a602090815260408083209388168352929052205460ff165b80620013615750836001600160a01b03166200135684620006cd565b6001600160a01b0316145b949350505050565b826001600160a01b03166200137e8262000eff565b6001600160a01b031614620013a75760405162461bcd60e51b81526004016200076d9062003001565b6001600160a01b0382166200140b5760405162461bcd60e51b8152602060048201526024808201527f4552433732313a207472616e7366657220746f20746865207a65726f206164646044820152637265737360e01b60648201526084016200076d565b826001600160a01b0316620014208262000eff565b6001600160a01b031614620014495760405162461bcd60e51b81526004016200076d9062003001565b600081815260696020908152604080832080546001600160a01b03199081169091556001600160a01b0387811680865260688552838620805460001901905590871680865283862080546001019055868652606790945282852080549092168417909155905184937fddf252ad1be2c89b69c2b068fc378daa952ba7f163c4a11628f55a4df523b3ef91a4505050565b806101e001516001600160a01b031681604001516001600160a01b031603620015155760405163534c524d60e11b815260040160405180910390fd5b8061010001516001600160401b03168160e001516001600160401b0316111562001552576040516375fcbb8960e01b815260040160405180910390fd5b806102a001516001600160401b03168161028001516001600160401b0316111562001590576040516375fcbb8960e01b815260040160405180910390fd5b60e08101516001600160401b0316158015620015b857506102808101516001600160401b0316155b15620015d7576040516375fcbb8960e01b815260040160405180910390fd5b6127108161010001516001600160401b03161180620016055750612710816102a001516001600160401b0316115b1562001624576040516313fd16a560e11b815260040160405180910390fd5b8061016001511580156200163b5750806103000151155b156200165a5760405163065202db60e11b815260040160405180910390fd5b6000816020015111801562001677575080516001600160a01b0316155b15620016965760405163043c669f60e01b815260040160405180910390fd5b60cb5481602001511115620016be5760405163589a63d960e01b815260040160405180910390fd5b60cc548161014001516001600160401b03161115620016f05760405163e88639bf60e01b815260040160405180910390fd5b60cc54816102e001516001600160401b03161115620017225760405163e88639bf60e01b815260040160405180910390fd5b60cd548161012001516001600160401b031611156200175457604051638ef8260d60e01b815260040160405180910390fd5b60cd54816102c001516001600160401b031611156200178657604051638ef8260d60e01b815260040160405180910390fd5b60c08101516001600160a01b03161580620017ac575060c08101516001600160a01b0316155b15620017cb57604051630283cdcf60e51b815260040160405180910390fd5b60a08101516001600160a01b03161580620017f257506102408101516001600160a01b0316155b1562000ee757604051632e4e395f60e01b815260040160405180910390fd5b6200181b6200271a565b620018256200271a565b8260200151826020018181525050826040015182608001906001600160a01b031690816001600160a01b03168152505082606001518261010001906001600160a01b031690816001600160a01b03168152505082608001518261012001906001600160a01b031690816001600160a01b0316815250508260a001518261014001906001600160a01b031690816001600160a01b0316815250508260e001518261016001906001600160401b031690816001600160401b0316815250508261010001518261018001906001600160401b031690816001600160401b031681525050826101200151826101a001906001600160401b031690816001600160401b031681525050826101400151826101c001906001600160401b031690816001600160401b031681525050826101600151826101e00190151590811515815250508260200151816020018181525050826101e0015181608001906001600160a01b031690816001600160a01b0316815250508261020001518161010001906001600160a01b031690816001600160a01b0316815250508261022001518161012001906001600160a01b031690816001600160a01b0316815250508261024001518161014001906001600160a01b031690816001600160a01b0316815250508261028001518161016001906001600160401b031690816001600160401b031681525050826102a001518161018001906001600160401b031690816001600160401b031681525050826102c00151816101a001906001600160401b031690816001600160401b031681525050826102e00151816101c001906001600160401b031690816001600160401b031681525050826103000151816101e0019015159081151581525050915091565b6000763d602d80600a3d3981f3363d3d373d3d3d363d730000008260601b60e81c176000526e5af43d82803e903d91602b57fd5bf38260781b17602052603760096000f090506001600160a01b03811662001b425760405162461bcd60e51b8152602060048201526016602482015275115490cc4c4d8dce8818dc99585d194819985a5b195960521b60448201526064016200076d565b919050565b6001600160a01b0383161562001bbf5760a085015160405163485cc95560e01b81526001600160a01b0385169163485cc9559162001b8a918891600401620028d2565b600060405180830381600087803b15801562001ba557600080fd5b505af115801562001bba573d6000803e3d6000fd5b505050505b6001600160a01b0382161562001c375760c085015160405163485cc95560e01b81526001600160a01b0384169163485cc9559162001c02918891600401620028d2565b600060405180830381600087803b15801562001c1d57600080fd5b505af115801562001c32573d6000803e3d6000fd5b505050505b6001600160a01b0381161562001caf5760e085015160405163485cc95560e01b81526001600160a01b0383169163485cc9559162001c7a918891600401620028d2565b600060405180830381600087803b15801562001c9557600080fd5b505af115801562001caa573d6000803e3d6000fd5b505050505b8460a001516001600160a01b031663485cc9558660400151856040518363ffffffff1660e01b815260040162001ce7929190620028d2565b600060405180830381600087803b15801562001d0257600080fd5b505af115801562001d17573d6000803e3d6000fd5b505050508460c001516001600160a01b031663485cc9558660400151846040518363ffffffff1660e01b815260040162001d53929190620028d2565b600060405180830381600087803b15801562001d6e57600080fd5b505af115801562001d83573d6000803e3d6000fd5b505050508460e001516001600160a01b031663485cc9558660400151836040518363ffffffff1660e01b815260040162001dbf929190620028d2565b600060405180830381600087803b15801562001dda57600080fd5b505af115801562001def573d6000803e3d6000fd5b505050505050505050565b6001600160a01b03821662001e525760405162461bcd60e51b815260206004820181905260248201527f4552433732313a206d696e7420746f20746865207a65726f206164647265737360448201526064016200076d565b6000818152606760205260409020546001600160a01b03161562001eb95760405162461bcd60e51b815260206004820152601c60248201527f4552433732313a20746f6b656e20616c7265616479206d696e7465640000000060448201526064016200076d565b6000818152606760205260409020546001600160a01b03161562001f205760405162461bcd60e51b815260206004820152601c60248201527f4552433732313a20746f6b656e20616c7265616479206d696e7465640000000060448201526064016200076d565b6001600160a01b038216600081815260686020908152604080832080546001019055848352606790915280822080546001600160a01b0319168417905551839291907fddf252ad1be2c89b69c2b068fc378daa952ba7f163c4a11628f55a4df523b3ef908290a45050565b600054610100900460ff1662001fb55760405162461bcd60e51b81526004016200076d9062003046565b6200101f828262002428565b600054610100900460ff1662001feb5760405162461bcd60e51b81526004016200076d9062003046565b62000fff6200246f565b610fa0811115620020195760405163e3ca8ad560e01b815260040160405180910390fd5b60ca8190556040518181527f4fad9480b42671731d484ac2e96b50de7c154624b63f3d3eb30c38dc6ebfb0c7906020015b60405180910390a150565b6001600160a01b0381166200207d5760405163d92e233d60e01b815260040160405180910390fd5b60ce80546001600160a01b0319166001600160a01b0383169081179091556040519081527fd4d4983241668aa2825c51b20af727fb71c4842fec0f87360e3a242e420d8a30906020016200204a565b610fa08110620020ef576040516358d620b360e01b815260040160405180910390fd5b60cb8190556040518181527f2d968512555a43164b980ee73a764cfa2aecd7305806fda33d94fdca1bc6d4cf906020016200204a565b610fa0811062002148576040516358d620b360e01b815260040160405180910390fd5b60cc8190556040518181527fb85fdb9b20a2472208897b9903ae1a3e943769ab70ef74e679ecd80ec2ab5020906020016200204a565b610fa08110620021a1576040516358d620b360e01b815260040160405180910390fd5b60cd8190556040518181527f0565ffb26c5ec0ddf0975584b3c48758d8486aea008bd280bf2c98f2464f441f906020016200204a565b6097546001600160a01b0316331462000fff5760405162461bcd60e51b815260206004820181905260248201527f4f776e61626c653a2063616c6c6572206973206e6f7420746865206f776e657260448201526064016200076d565b609780546001600160a01b038381166001600160a01b0319831681179093556040519116919082907f8be0079c531659141344cd1fd0a4f28419497f9722a3daafe3b4186f6b6457e090600090a35050565b816001600160a01b0316836001600160a01b031603620022e85760405162461bcd60e51b815260206004820152601960248201527f4552433732313a20617070726f766520746f2063616c6c65720000000000000060448201526064016200076d565b6001600160a01b038381166000818152606a6020908152604080832094871680845294825291829020805460ff191686151590811790915591519182527f17307eab39ab6107e8899845ad3d59bd9653f200f220920489ca2b5937696c31910160405180910390a3505050565b6200236284848462001369565b6200237084848484620024a4565b620010865760405162461bcd60e51b81526004016200076d9062003091565b606060006200239e83620025b2565b60010190506000816001600160401b03811115620023c057620023c06200292d565b6040519080825280601f01601f191660200182016040528015620023eb576020820181803683370190505b5090508181016020015b600019016f181899199a1a9b1b9c1cb0b131b232b360811b600a86061a8153600a8504945084620023f557509392505050565b600054610100900460ff16620024525760405162461bcd60e51b81526004016200076d9062003046565b60656200246083826200312d565b5060666200081582826200312d565b600054610100900460ff16620024995760405162461bcd60e51b81526004016200076d9062003046565b62000fff3362002233565b60006001600160a01b0384163b15620025a757604051630a85bd0160e11b81526001600160a01b0385169063150b7a0290620024eb903390899088908890600401620031f9565b6020604051808303816000875af192505050801562002529575060408051601f3d908101601f19168201909252620025269181019062003238565b60015b6200258c573d8080156200255a576040519150601f19603f3d011682016040523d82523d6000602084013e6200255f565b606091505b508051600003620025845760405162461bcd60e51b81526004016200076d9062003091565b805181602001fd5b6001600160e01b031916630a85bd0160e11b14905062001361565b506001949350505050565b60008072184f03e93ff9f4daa797ed6e38ed64bf6a1f0160401b8310620025f25772184f03e93ff9f4daa797ed6e38ed64bf6a1f0160401b830492506040015b6d04ee2d6d415b85acef810000000083106200261f576d04ee2d6d415b85acef8100000000830492506020015b662386f26fc1000083106200263e57662386f26fc10000830492506010015b6305f5e100831062002657576305f5e100830492506008015b61271083106200266c57612710830492506004015b606483106200267f576064830492506002015b600a83106200062d5760010192915050565b611cfc806200325983390190565b8260028101928215620026ea579160200282015b82811115620026ea57825182546001600160a01b0319166001600160a01b03909116178255602090920191600190910190620026b3565b50620026f89291506200279e565b5090565b60405180604001604052806002906020820280368337509192915050565b6040805161020081018252600080825260208201819052918101829052606081018290526080810182905260a0810182905260c0810182905260e08101829052610100810182905261012081018290526101408101829052610160810182905261018081018290526101a081018290526101c081018290526101e081019190915290565b5b80821115620026f857600081556001016200279f565b6001600160e01b03198116811462000ee757600080fd5b600060208284031215620027df57600080fd5b81356200113c81620027b5565b60005b8381101562002809578181015183820152602001620027ef565b50506000910152565b600081518084526200282c816020860160208601620027ec565b601f01601f19169290920160200192915050565b6020815260006200113c602083018462002812565b6000602082840312156200286857600080fd5b5035919050565b80356001600160a01b038116811462001b4257600080fd5b600080604083850312156200289b57600080fd5b620028a6836200286f565b946020939093013593505050565b600060208284031215620028c757600080fd5b6200113c826200286f565b6001600160a01b0392831681529116602082015260400190565b6000806000606084860312156200290257600080fd5b6200290d846200286f565b92506200291d602085016200286f565b9150604084013590509250925092565b634e487b7160e01b600052604160045260246000fd5b60405161038081016001600160401b03811182821017156200296957620029696200292d565b60405290565b604051601f8201601f191681016001600160401b03811182821017156200299a576200299a6200292d565b604052919050565b80356001600160401b038116811462001b4257600080fd5b8035801515811462001b4257600080fd5b60006103808284031215620029df57600080fd5b620029e962002943565b620029f4836200286f565b81526020830135602082015262002a0e604084016200286f565b604082015262002a21606084016200286f565b606082015262002a34608084016200286f565b608082015262002a4760a084016200286f565b60a082015262002a5a60c084016200286f565b60c082015262002a6d60e08401620029a2565b60e082015261010062002a82818501620029a2565b9082015261012062002a96848201620029a2565b9082015261014062002aaa848201620029a2565b9082015261016062002abe848201620029ba565b9082015261018062002ad28482016200286f565b908201526101a062002ae68482016200286f565b908201526101c062002afa8482016200286f565b908201526101e062002b0e8482016200286f565b9082015261020062002b228482016200286f565b9082015261022062002b368482016200286f565b9082015261024062002b4a8482016200286f565b9082015261026062002b5e8482016200286f565b9082015261028062002b72848201620029a2565b908201526102a062002b86848201620029a2565b908201526102c062002b9a848201620029a2565b908201526102e062002bae848201620029a2565b9082015261030062002bc2848201620029ba565b9082015261032062002bd68482016200286f565b9082015261034062002bea8482016200286f565b9082015261036062002bfe8482016200286f565b908201529392505050565b600080600080600060a0868803121562002c2257600080fd5b62002c2d866200286f565b945062002c3d602087016200286f565b935062002c4d604087016200286f565b92506060860135915062002c64608087016200286f565b90509295509295909350565b6000806040838503121562002c8457600080fd5b62002c8f836200286f565b915062002c9f60208401620029ba565b90509250929050565b6000806000806080858703121562002cbf57600080fd5b62002cca856200286f565b9350602062002cdb8187016200286f565b93506040860135925060608601356001600160401b038082111562002cff57600080fd5b818801915088601f83011262002d1457600080fd5b81358181111562002d295762002d296200292d565b62002d3d601f8201601f191685016200296f565b9150808252898482850101111562002d5457600080fd5b808484018584013760008482840101525080935050505092959194509250565b60408101818360005b600281101562002da75781516001600160a01b031683526020928301929091019060010162002d7d565b50505092915050565b6000806040838503121562002dc457600080fd5b62002dcf836200286f565b915062002c9f602084016200286f565b600181811c9082168062002df457607f821691505b60208210810362002e1557634e487b7160e01b600052602260045260246000fd5b50919050565b6020808252602d908201527f4552433732313a2063616c6c6572206973206e6f7420746f6b656e206f776e6560408201526c1c881bdc88185c1c1c9bdd9959609a1b606082015260800190565b8051825260208101516020830152604081015162002e9160408401826001600160a01b03169052565b50606081015162002ead60608401826001600160a01b03169052565b50608081015162002ec960808401826001600160a01b03169052565b5060a081015162002ee560a08401826001600160a01b03169052565b5060c081015162002f0160c08401826001600160a01b03169052565b5060e081015162002f1d60e08401826001600160a01b03169052565b50610100818101516001600160a01b0390811691840191909152610120808301518216908401526101408083015190911690830152610160808201516001600160401b0390811691840191909152610180808301518216908401526101a0808301518216908401526101c080830151909116908301526101e0808201518015158285015262001086565b838152610420810162002fbe602083018562002e68565b6200136161022083018462002e68565b6000835162002fe2818460208801620027ec565b83519083019062002ff8818360208801620027ec565b01949350505050565b60208082526025908201527f4552433732313a207472616e736665722066726f6d20696e636f72726563742060408201526437bbb732b960d91b606082015260800190565b6020808252602b908201527f496e697469616c697a61626c653a20636f6e7472616374206973206e6f74206960408201526a6e697469616c697a696e6760a81b606082015260800190565b60208082526032908201527f4552433732313a207472616e7366657220746f206e6f6e20455243373231526560408201527131b2b4bb32b91034b6b83632b6b2b73a32b960711b606082015260800190565b601f8211156200081557600081815260208120601f850160051c810160208610156200310c5750805b601f850160051c820191505b8181101562000eca5782815560010162003118565b81516001600160401b038111156200314957620031496200292d565b62003161816200315a845462002ddf565b84620030e3565b602080601f831160018114620031995760008415620031805750858301515b600019600386901b1c1916600185901b17855562000eca565b600085815260208120601f198616915b82811015620031ca57888601518255948401946001909101908401620031a9565b5085821015620031e95787850151600019600388901b60f8161c191681555b5050505050600190811b01905550565b6001600160a01b03858116825284166020820152604081018390526080606082018190526000906200322e9083018462002812565b9695505050505050565b6000602082840312156200324b57600080fd5b81516200113c81620027b556fe6104206040523480156200001257600080fd5b5060405162001cfc38038062001cfc83398101604081905262000035916200053b565b8260808181525050816000015160a08181525050816020015160c0818152505081604001516001600160a01b031660e0816001600160a01b03168152505081608001516001600160a01b0316610100816001600160a01b0316815250508160a001516001600160a01b0316610120816001600160a01b0316815250508160c001516001600160a01b0316610140816001600160a01b0316815250508160e001516001600160a01b0316610160816001600160a01b0316815250508161010001516001600160a01b0316610180816001600160a01b0316815250508161012001516001600160a01b03166101a0816001600160a01b0316815250508161014001516001600160a01b03166101c0816001600160a01b0316815250508161016001516001600160401b03166101e0816001600160401b0316815250508161018001516001600160401b0316610200816001600160401b031681525050816101a001516001600160401b0316610220816001600160401b031681525050816101c001516001600160401b0316610240816001600160401b031681525050816101e0015115156102608115158152505080604001516001600160a01b0316610280816001600160a01b03168152505080608001516001600160a01b03166102a0816001600160a01b0316815250508060a001516001600160a01b03166102c0816001600160a01b0316815250508060c001516001600160a01b03166102e0816001600160a01b0316815250508060e001516001600160a01b0316610300816001600160a01b0316815250508061010001516001600160a01b0316610320816001600160a01b0316815250508061012001516001600160a01b0316610340816001600160a01b0316815250508061014001516001600160a01b0316610360816001600160a01b0316815250508061016001516001600160401b0316610380816001600160401b0316815250508061018001516001600160401b03166103a0816001600160401b031681525050806101a001516001600160401b03166103c0816001600160401b031681525050806101c001516001600160401b03166103e0816001600160401b031681525050806101e0015115156104008115158152505050505062000580565b60405161020081016001600160401b0381118282101715620003a957634e487b7160e01b600052604160045260246000fd5b60405290565b80516001600160a01b0381168114620003c757600080fd5b919050565b80516001600160401b0381168114620003c757600080fd5b80518015158114620003c757600080fd5b600061020082840312156200040957600080fd5b6200041362000377565b905081518152602082015160208201526200043160408301620003af565b60408201526200044460608301620003af565b60608201526200045760808301620003af565b60808201526200046a60a08301620003af565b60a08201526200047d60c08301620003af565b60c08201526200049060e08301620003af565b60e0820152610100620004a5818401620003af565b90820152610120620004b9838201620003af565b90820152610140620004cd838201620003af565b90820152610160620004e1838201620003cc565b90820152610180620004f5838201620003cc565b908201526101a062000509838201620003cc565b908201526101c06200051d838201620003cc565b908201526101e062000531838201620003e4565b9082015292915050565b600080600061042084860312156200055257600080fd5b83519250620005658560208601620003f5565b915062000577856102208601620003f5565b90509250925092565b60805160a05160c05160e05161010051610120516101405161016051610180516101a0516101c0516101e05161020051610220516102405161026051610280516102a0516102c0516102e05161030051610320516103405161036051610380516103a0516103c0516103e0516104005161147e6200087e60003960008181610b3a015261120401526000818161053d01528181610b0b01526111d5015260008181610adc01526111a6015260008181610aad0152611177015260008181610a7e0152611148015260008181610a4f0152611119015260008181610a2001526110ea0152600081816109f101526110bb015260008181610407015281816109c2015261108c0152600081816103e401528181610993015261105d0152600081816103c101528181610964015261102e01526000818161029d0152818161055f015281816109350152610fff0152600081816101930152818161026301528181610387015281816104fa01528181610621015281816108d701528181610ba501528181610caf01528181610f100152610fa10152600081816108550152610ee30152600081816104b2015281816108260152610eb40152600081816107f70152610e850152600081816107c80152610e560152600081816107990152610e2701526000818161076a0152610df801526000818161073b0152610dc901526000818161070c0152610d9a015260008181610361015281816106dd0152610d6b01526000818161033e015281816106ae0152610d3c01526000818161031b0152818161067f0152610d0d01526000818161023d015281816104d4015281816106500152610cde01526000818161016e01528181610203015281816102e10152818161047d015281816105f20152818161090601528181610b6201528181610bef01528181610c800152610fd0015260008181610451015281816105cc015281816108b101528181610c5a0152610f7b015260008181610430015281816105a60152818161088b01528181610c340152610f550152600060b7015261147e6000f3fe608060405234801561001057600080fd5b506004361061007d5760003560e01c8063a135e0a01161005b578063a135e0a014610124578063aecc90cb14610160578063c7b4d16a146101be578063e48a5f7b146101df57600080fd5b806307439b4914610082578063189e17e4146100b2578063483b24f0146100e7575b600080fd5b6100956100903660046112b3565b6101ff565b6040516001600160a01b0390911681526020015b60405180910390f35b6100d97f000000000000000000000000000000000000000000000000000000000000000081565b6040519081526020016100a9565b6100fa6100f53660046112b3565b6102da565b604080516001600160a01b03948516815292841660208401529216918101919091526060016100a9565b6101376101323660046112b3565b61042e565b604080519485526020850193909352918301526001600160a01b031660608201526080016100a9565b604080516001600160a01b037f0000000000000000000000000000000000000000000000000000000000000000811682527f0000000000000000000000000000000000000000000000000000000000000000166020820152016100a9565b6101d16101cc3660046112b3565b610586565b6040516100a9929190611416565b6101f26101ed3660046112b3565b610be5565b6040516100a99190611433565b60007f00000000000000000000000000000000000000000000000000000000000000006001600160a01b0316826001600160a01b03160361026157507f0000000000000000000000000000000000000000000000000000000000000000919050565b7f00000000000000000000000000000000000000000000000000000000000000006001600160a01b0316826001600160a01b0316036102c157507f0000000000000000000000000000000000000000000000000000000000000000919050565b6040516349d73a2760e01b815260040160405180910390fd5b60008060007f00000000000000000000000000000000000000000000000000000000000000006001600160a01b0316846001600160a01b03160361038557507f000000000000000000000000000000000000000000000000000000000000000091507f000000000000000000000000000000000000000000000000000000000000000090507f0000000000000000000000000000000000000000000000000000000000000000610427565b7f00000000000000000000000000000000000000000000000000000000000000006001600160a01b0316846001600160a01b0316036102c157507f000000000000000000000000000000000000000000000000000000000000000091507f000000000000000000000000000000000000000000000000000000000000000090507f00000000000000000000000000000000000000000000000000000000000000005b9193909250565b7f00000000000000000000000000000000000000000000000000000000000000007f00000000000000000000000000000000000000000000000000000000000000006000806001600160a01b037f00000000000000000000000000000000000000000000000000000000000000008116908616036104f85750506001600160401b037f0000000000000000000000000000000000000000000000000000000000000000167f000000000000000000000000000000000000000000000000000000000000000061057f565b7f00000000000000000000000000000000000000000000000000000000000000006001600160a01b0316856001600160a01b0316036102c15750506001600160401b037f0000000000000000000000000000000000000000000000000000000000000000167f00000000000000000000000000000000000000000000000000000000000000005b9193509193565b61058e61122f565b61059661122f565b60006040518061020001604052807f000000000000000000000000000000000000000000000000000000000000000081526020017f000000000000000000000000000000000000000000000000000000000000000081526020017f00000000000000000000000000000000000000000000000000000000000000006001600160a01b031681526020017f00000000000000000000000000000000000000000000000000000000000000006001600160a01b031681526020017f00000000000000000000000000000000000000000000000000000000000000006001600160a01b031681526020017f00000000000000000000000000000000000000000000000000000000000000006001600160a01b031681526020017f00000000000000000000000000000000000000000000000000000000000000006001600160a01b031681526020017f00000000000000000000000000000000000000000000000000000000000000006001600160a01b031681526020017f00000000000000000000000000000000000000000000000000000000000000006001600160a01b031681526020017f00000000000000000000000000000000000000000000000000000000000000006001600160a01b031681526020017f00000000000000000000000000000000000000000000000000000000000000006001600160a01b031681526020017f00000000000000000000000000000000000000000000000000000000000000006001600160401b031681526020017f00000000000000000000000000000000000000000000000000000000000000006001600160401b031681526020017f00000000000000000000000000000000000000000000000000000000000000006001600160401b031681526020017f00000000000000000000000000000000000000000000000000000000000000006001600160401b031681526020017f00000000000000000000000000000000000000000000000000000000000000001515815250905060006040518061020001604052807f000000000000000000000000000000000000000000000000000000000000000081526020017f000000000000000000000000000000000000000000000000000000000000000081526020017f00000000000000000000000000000000000000000000000000000000000000006001600160a01b031681526020017f00000000000000000000000000000000000000000000000000000000000000006001600160a01b031681526020017f00000000000000000000000000000000000000000000000000000000000000006001600160a01b031681526020017f00000000000000000000000000000000000000000000000000000000000000006001600160a01b031681526020017f00000000000000000000000000000000000000000000000000000000000000006001600160a01b031681526020017f00000000000000000000000000000000000000000000000000000000000000006001600160a01b031681526020017f00000000000000000000000000000000000000000000000000000000000000006001600160a01b031681526020017f00000000000000000000000000000000000000000000000000000000000000006001600160a01b031681526020017f00000000000000000000000000000000000000000000000000000000000000006001600160a01b031681526020017f00000000000000000000000000000000000000000000000000000000000000006001600160401b031681526020017f00000000000000000000000000000000000000000000000000000000000000006001600160401b031681526020017f00000000000000000000000000000000000000000000000000000000000000006001600160401b031681526020017f00000000000000000000000000000000000000000000000000000000000000006001600160401b031681526020017f0000000000000000000000000000000000000000000000000000000000000000151581525090507f00000000000000000000000000000000000000000000000000000000000000006001600160a01b0316856001600160a01b031603610ba3579094909350915050565b7f00000000000000000000000000000000000000000000000000000000000000006001600160a01b0316856001600160a01b0316036102c15794909350915050565b610bed61122f565b7f00000000000000000000000000000000000000000000000000000000000000006001600160a01b0316826001600160a01b031603610f0e576040518061020001604052807f000000000000000000000000000000000000000000000000000000000000000081526020017f000000000000000000000000000000000000000000000000000000000000000081526020017f00000000000000000000000000000000000000000000000000000000000000006001600160a01b031681526020017f00000000000000000000000000000000000000000000000000000000000000006001600160a01b031681526020017f00000000000000000000000000000000000000000000000000000000000000006001600160a01b031681526020017f00000000000000000000000000000000000000000000000000000000000000006001600160a01b031681526020017f00000000000000000000000000000000000000000000000000000000000000006001600160a01b031681526020017f00000000000000000000000000000000000000000000000000000000000000006001600160a01b031681526020017f00000000000000000000000000000000000000000000000000000000000000006001600160a01b031681526020017f00000000000000000000000000000000000000000000000000000000000000006001600160a01b031681526020017f00000000000000000000000000000000000000000000000000000000000000006001600160a01b031681526020017f00000000000000000000000000000000000000000000000000000000000000006001600160401b031681526020017f00000000000000000000000000000000000000000000000000000000000000006001600160401b031681526020017f00000000000000000000000000000000000000000000000000000000000000006001600160401b031681526020017f00000000000000000000000000000000000000000000000000000000000000006001600160401b031681526020017f000000000000000000000000000000000000000000000000000000000000000015158152509050919050565b7f00000000000000000000000000000000000000000000000000000000000000006001600160a01b0316826001600160a01b0316036102c1576040518061020001604052807f000000000000000000000000000000000000000000000000000000000000000081526020017f000000000000000000000000000000000000000000000000000000000000000081526020017f00000000000000000000000000000000000000000000000000000000000000006001600160a01b031681526020017f00000000000000000000000000000000000000000000000000000000000000006001600160a01b031681526020017f00000000000000000000000000000000000000000000000000000000000000006001600160a01b031681526020017f00000000000000000000000000000000000000000000000000000000000000006001600160a01b031681526020017f00000000000000000000000000000000000000000000000000000000000000006001600160a01b031681526020017f00000000000000000000000000000000000000000000000000000000000000006001600160a01b031681526020017f00000000000000000000000000000000000000000000000000000000000000006001600160a01b031681526020017f00000000000000000000000000000000000000000000000000000000000000006001600160a01b031681526020017f00000000000000000000000000000000000000000000000000000000000000006001600160a01b031681526020017f00000000000000000000000000000000000000000000000000000000000000006001600160401b031681526020017f00000000000000000000000000000000000000000000000000000000000000006001600160401b031681526020017f00000000000000000000000000000000000000000000000000000000000000006001600160401b031681526020017f00000000000000000000000000000000000000000000000000000000000000006001600160401b031681526020017f000000000000000000000000000000000000000000000000000000000000000015158152509050919050565b6040805161020081018252600080825260208201819052918101829052606081018290526080810182905260a0810182905260c0810182905260e08101829052610100810182905261012081018290526101408101829052610160810182905261018081018290526101a081018290526101c081018290526101e081019190915290565b6000602082840312156112c557600080fd5b81356001600160a01b03811681146112dc57600080fd5b9392505050565b8051825260208101516020830152604081015161130b60408401826001600160a01b03169052565b50606081015161132660608401826001600160a01b03169052565b50608081015161134160808401826001600160a01b03169052565b5060a081015161135c60a08401826001600160a01b03169052565b5060c081015161137760c08401826001600160a01b03169052565b5060e081015161139260e08401826001600160a01b03169052565b50610100818101516001600160a01b0390811691840191909152610120808301518216908401526101408083015190911690830152610160808201516001600160401b0390811691840191909152610180808301518216908401526101a0808301518216908401526101c080830151909116908301526101e0908101511515910152565b610400810161142582856112e3565b6112dc6102008301846112e3565b610200810161144282846112e3565b9291505056fea26469706673582212205b9ec8b49cfe6907821eab0b84fd5e4902c45b5221c2fb2880a80dcfde53f1ee64736f6c63430008130033a2646970667358221220d1f112419ec188886f3b81a8f2d8d5faa9778d2ca5beffcb13a8a2c1a603a5ae64736f6c63430008130033",
  "language": "Solidity",
  "compiler": "0.8.19+commit.7dd6d404"
}