{
  "_format": "hh-sol-artifact-1",
  "contractName": "SafeERC20Mock",
  "sourceName": "contracts/test/SafeERC20Mock.sol",
  "abi": [
    {
      "inputs": [],
      "stateMutability": "nonpayable",
      "type": "constructor"
    },
    {
      "inputs": [
        {
          "internalType": "contract IERC20",
          "name": "token",
          "type": "address"
        },
        {
          "internalType": "address",
          "name": "to",
          "type": "address"
        },
        {
          "internalType": "uint256",
          "name": "value",
          "type": "uint256"
        }
      ],
      "name": "safeApprove",
      "outputs": [],
      "stateMutability": "nonpayable",
      "type": "function"
    }
  ],
  "bytecode": "0x608060405234801561001057600080fd5b50610474806100206000396000f3fe608060405234801561001057600080fd5b506004361061002b5760003560e01c8063eb5625d914610030575b600080fd5b6100736004803603606081101561004657600080fd5b5073ffffffffffffffffffffffffffffffffffffffff813581169160208101359091169060400135610075565b005b61009673ffffffffffffffffffffffffffffffffffffffff8416838361009b565b505050565b801580159061014a5750604080517fdd62ed3e00000000000000000000000000000000000000000000000000000000815230600482015273ffffffffffffffffffffffffffffffffffffffff848116602483015291519185169163dd62ed3e91604480820192602092909190829003018186803b15801561011b57600080fd5b505afa15801561012f573d6000803e3d6000fd5b505050506040513d602081101561014557600080fd5b505115155b156101df576040805173ffffffffffffffffffffffffffffffffffffffff8416602482015260006044808301919091528251808303909101815260649091019091526020810180517bffffffffffffffffffffffffffffffffffffffffffffffffffffffff167f095ea7b3000000000000000000000000000000000000000000000000000000001790526101df908490610268565b6040805173ffffffffffffffffffffffffffffffffffffffff8416602482015260448082018490528251808303909101815260649091019091526020810180517bffffffffffffffffffffffffffffffffffffffffffffffffffffffff167f095ea7b3000000000000000000000000000000000000000000000000000000001790526100969084905b600060608373ffffffffffffffffffffffffffffffffffffffff16836040518082805190602001908083835b602083106102d157805182527fffffffffffffffffffffffffffffffffffffffffffffffffffffffffffffffe09092019160209182019101610294565b6001836020036101000a0380198251168184511680821785525050505050509050019150506000604051808303816000865af19150503d8060008114610333576040519150601f19603f3d011682016040523d82523d6000602084013e610338565b606091505b50915091506000821415610350573d6000803e3d6000fd5b61037e815160001480610376575081806020019051602081101561037357600080fd5b50515b6101a2610384565b50505050565b816103925761039281610396565b5050565b6103c0817f42414c00000000000000000000000000000000000000000000000000000000006103c3565b50565b7f08c379a000000000000000000000000000000000000000000000000000000000600090815260206004526007602452600a808404818106603090810160081b958390069590950190829004918206850160101b01602363ffffff0060e086901c160160181b0190930160c81b60445260e882901c90606490fdfea264697066735822122087095c72dd9b5b6e8ccfa1095f0c54180a2cc0ad1528323cdaea43ac84a9e03364736f6c63430007010033",
  "linkReferences": {},
  "deployedLinkReferences": {}
}