{
  "_format": "hh-sol-artifact-1",
  "contractName": "MockVault",
  "sourceName": "contracts/test/MockVault.sol",
  "abi": [
    {
      "inputs": [
        {
          "internalType": "contract IAuthorizer",
          "name": "authorizer",
          "type": "address"
        }
      ],
      "stateMutability": "nonpayable",
      "type": "constructor"
    },
    {
      "anonymous": false,
      "inputs": [
        {
          "indexed": true,
          "internalType": "bytes32",
          "name": "poolId",
          "type": "bytes32"
        },
        {
          "indexed": true,
          "internalType": "address",
          "name": "liquidityProvider",
          "type": "address"
        },
        {
          "indexed": false,
          "internalType": "contract IERC20[]",
          "name": "tokens",
          "type": "address[]"
        },
        {
          "indexed": false,
          "internalType": "int256[]",
          "name": "deltas",
          "type": "int256[]"
        },
        {
          "indexed": false,
          "internalType": "uint256[]",
          "name": "protocolFeeAmounts",
          "type": "uint256[]"
        }
      ],
      "name": "PoolBalanceChanged",
      "type": "event"
    },
    {
      "anonymous": false,
      "inputs": [
        {
          "indexed": true,
          "internalType": "bytes32",
          "name": "poolId",
          "type": "bytes32"
        },
        {
          "indexed": true,
          "internalType": "contract IERC20",
          "name": "tokenIn",
          "type": "address"
        },
        {
          "indexed": true,
          "internalType": "contract IERC20",
          "name": "tokenOut",
          "type": "address"
        },
        {
          "indexed": false,
          "internalType": "uint256",
          "name": "amountIn",
          "type": "uint256"
        },
        {
          "indexed": false,
          "internalType": "uint256",
          "name": "amountOut",
          "type": "uint256"
        }
      ],
      "name": "Swap",
      "type": "event"
    },
    {
      "inputs": [
        {
          "internalType": "address",
          "name": "poolAddress",
          "type": "address"
        },
        {
          "internalType": "bytes32",
          "name": "poolId",
          "type": "bytes32"
        },
        {
          "internalType": "address",
          "name": "recipient",
          "type": "address"
        },
        {
          "internalType": "uint256[]",
          "name": "currentBalances",
          "type": "uint256[]"
        },
        {
          "internalType": "uint256",
          "name": "lastChangeBlock",
          "type": "uint256"
        },
        {
          "internalType": "uint256",
          "name": "protocolFeePercentage",
          "type": "uint256"
        },
        {
          "internalType": "bytes",
          "name": "userData",
          "type": "bytes"
        }
      ],
      "name": "callExitPool",
      "outputs": [],
      "stateMutability": "nonpayable",
      "type": "function"
    },
    {
      "inputs": [
        {
          "internalType": "address",
          "name": "pool",
          "type": "address"
        },
        {
          "components": [
            {
              "internalType": "enum IVault.SwapKind",
              "name": "kind",
              "type": "uint8"
            },
            {
              "internalType": "contract IERC20",
              "name": "tokenIn",
              "type": "address"
            },
            {
              "internalType": "contract IERC20",
              "name": "tokenOut",
              "type": "address"
            },
            {
              "internalType": "uint256",
              "name": "amount",
              "type": "uint256"
            },
            {
              "internalType": "bytes32",
              "name": "poolId",
              "type": "bytes32"
            },
            {
              "internalType": "uint256",
              "name": "lastChangeBlock",
              "type": "uint256"
            },
            {
              "internalType": "address",
              "name": "from",
              "type": "address"
            },
            {
              "internalType": "address",
              "name": "to",
              "type": "address"
            },
            {
              "internalType": "bytes",
              "name": "userData",
              "type": "bytes"
            }
          ],
          "internalType": "struct IPoolSwapStructs.SwapRequest",
          "name": "request",
          "type": "tuple"
        },
        {
          "internalType": "uint256[]",
          "name": "balances",
          "type": "uint256[]"
        },
        {
          "internalType": "uint256",
          "name": "indexIn",
          "type": "uint256"
        },
        {
          "internalType": "uint256",
          "name": "indexOut",
          "type": "uint256"
        }
      ],
      "name": "callGeneralPoolSwap",
      "outputs": [],
      "stateMutability": "nonpayable",
      "type": "function"
    },
    {
      "inputs": [
        {
          "internalType": "address",
          "name": "poolAddress",
          "type": "address"
        },
        {
          "internalType": "bytes32",
          "name": "poolId",
          "type": "bytes32"
        },
        {
          "internalType": "address",
          "name": "recipient",
          "type": "address"
        },
        {
          "internalType": "uint256[]",
          "name": "currentBalances",
          "type": "uint256[]"
        },
        {
          "internalType": "uint256",
          "name": "lastChangeBlock",
          "type": "uint256"
        },
        {
          "internalType": "uint256",
          "name": "protocolFeePercentage",
          "type": "uint256"
        },
        {
          "internalType": "bytes",
          "name": "userData",
          "type": "bytes"
        }
      ],
      "name": "callJoinPool",
      "outputs": [],
      "stateMutability": "nonpayable",
      "type": "function"
    },
    {
      "inputs": [
        {
          "internalType": "address",
          "name": "pool",
          "type": "address"
        },
        {
          "components": [
            {
              "internalType": "enum IVault.SwapKind",
              "name": "kind",
              "type": "uint8"
            },
            {
              "internalType": "contract IERC20",
              "name": "tokenIn",
              "type": "address"
            },
            {
              "internalType": "contract IERC20",
              "name": "tokenOut",
              "type": "address"
            },
            {
              "internalType": "uint256",
              "name": "amount",
              "type": "uint256"
            },
            {
              "internalType": "bytes32",
              "name": "poolId",
              "type": "bytes32"
            },
            {
              "internalType": "uint256",
              "name": "lastChangeBlock",
              "type": "uint256"
            },
            {
              "internalType": "address",
              "name": "from",
              "type": "address"
            },
            {
              "internalType": "address",
              "name": "to",
              "type": "address"
            },
            {
              "internalType": "bytes",
              "name": "userData",
              "type": "bytes"
            }
          ],
          "internalType": "struct IPoolSwapStructs.SwapRequest",
          "name": "request",
          "type": "tuple"
        },
        {
          "internalType": "uint256",
          "name": "balanceTokenIn",
          "type": "uint256"
        },
        {
          "internalType": "uint256",
          "name": "balanceTokenOut",
          "type": "uint256"
        }
      ],
      "name": "callMinimalPoolSwap",
      "outputs": [],
      "stateMutability": "nonpayable",
      "type": "function"
    },
    {
      "inputs": [
        {
          "internalType": "bytes4",
          "name": "selector",
          "type": "bytes4"
        }
      ],
      "name": "getActionId",
      "outputs": [
        {
          "internalType": "bytes32",
          "name": "",
          "type": "bytes32"
        }
      ],
      "stateMutability": "view",
      "type": "function"
    },
    {
      "inputs": [],
      "name": "getAuthorizer",
      "outputs": [
        {
          "internalType": "contract IAuthorizer",
          "name": "",
          "type": "address"
        }
      ],
      "stateMutability": "view",
      "type": "function"
    },
    {
      "inputs": [
        {
          "internalType": "bytes32",
          "name": "poolId",
          "type": "bytes32"
        },
        {
          "internalType": "contract IERC20",
          "name": "token",
          "type": "address"
        }
      ],
      "name": "getPoolTokenInfo",
      "outputs": [
        {
          "internalType": "uint256",
          "name": "cash",
          "type": "uint256"
        },
        {
          "internalType": "uint256",
          "name": "managed",
          "type": "uint256"
        },
        {
          "internalType": "uint256",
          "name": "",
          "type": "uint256"
        },
        {
          "internalType": "address",
          "name": "",
          "type": "address"
        }
      ],
      "stateMutability": "view",
      "type": "function"
    },
    {
      "inputs": [
        {
          "internalType": "bytes32",
          "name": "poolId",
          "type": "bytes32"
        }
      ],
      "name": "getPoolTokens",
      "outputs": [
        {
          "internalType": "contract IERC20[]",
          "name": "tokens",
          "type": "address[]"
        },
        {
          "internalType": "uint256[]",
          "name": "balances",
          "type": "uint256[]"
        }
      ],
      "stateMutability": "view",
      "type": "function"
    },
    {
      "inputs": [],
      "name": "getProtocolFeesCollector",
      "outputs": [
        {
          "internalType": "contract IProtocolFeesCollector",
          "name": "",
          "type": "address"
        }
      ],
      "stateMutability": "view",
      "type": "function"
    },
    {
      "inputs": [
        {
          "components": [
            {
              "internalType": "enum IVault.UserBalanceOpKind",
              "name": "kind",
              "type": "uint8"
            },
            {
              "internalType": "contract IAsset",
              "name": "asset",
              "type": "address"
            },
            {
              "internalType": "uint256",
              "name": "amount",
              "type": "uint256"
            },
            {
              "internalType": "address",
              "name": "sender",
              "type": "address"
            },
            {
              "internalType": "address payable",
              "name": "recipient",
              "type": "address"
            }
          ],
          "internalType": "struct IVault.UserBalanceOp[]",
          "name": "ops",
          "type": "tuple[]"
        }
      ],
      "name": "manageUserBalance",
      "outputs": [],
      "stateMutability": "payable",
      "type": "function"
    },
    {
      "inputs": [
        {
          "internalType": "enum IVault.PoolSpecialization",
          "name": "",
          "type": "uint8"
        }
      ],
      "name": "registerPool",
      "outputs": [
        {
          "internalType": "bytes32",
          "name": "",
          "type": "bytes32"
        }
      ],
      "stateMutability": "view",
      "type": "function"
    },
    {
      "inputs": [
        {
          "internalType": "bytes32",
          "name": "poolId",
          "type": "bytes32"
        },
        {
          "internalType": "contract IERC20[]",
          "name": "tokens",
          "type": "address[]"
        },
        {
          "internalType": "address[]",
          "name": "",
          "type": "address[]"
        }
      ],
      "name": "registerTokens",
      "outputs": [],
      "stateMutability": "nonpayable",
      "type": "function"
    },
    {
      "inputs": [
        {
          "internalType": "contract IAuthorizer",
          "name": "newAuthorizer",
          "type": "address"
        }
      ],
      "name": "setAuthorizer",
      "outputs": [],
      "stateMutability": "nonpayable",
      "type": "function"
    },
    {
      "inputs": [
        {
          "internalType": "bytes32",
          "name": "poolId",
          "type": "bytes32"
        },
        {
          "internalType": "uint256[]",
          "name": "cash",
          "type": "uint256[]"
        }
      ],
      "name": "updateCash",
      "outputs": [],
      "stateMutability": "nonpayable",
      "type": "function"
    },
    {
      "inputs": [
        {
          "internalType": "bytes32",
          "name": "poolId",
          "type": "bytes32"
        },
        {
          "internalType": "uint256[]",
          "name": "managed",
          "type": "uint256[]"
        }
      ],
      "name": "updateManaged",
      "outputs": [],
      "stateMutability": "nonpayable",
      "type": "function"
    }
  ],
  "bytecode": "0x60806040523480156200001157600080fd5b5060405162002828380380620028288339810160408190526200003491620000be565b600080546001600160a01b0319166001600160a01b03831617905560405130906200005f90620000b0565b6200006b9190620000ee565b604051809103906000f08015801562000088573d6000803e3d6000fd5b50600180546001600160a01b0319166001600160a01b03929092169190911790555062000102565b610cb18062001b7783390190565b600060208284031215620000d0578081fd5b81516001600160a01b0381168114620000e7578182fd5b9392505050565b6001600160a01b0391909116815260200190565b611a6580620001126000396000f3fe6080604052600436106100e85760003560e01c806366a9c7d21161008a578063d2946c2b11610059578063d2946c2b1461026a578063f76102db1461027f578063f94d46681461029f578063fc6156c5146102cd576100e8565b806366a9c7d2146101d8578063851c1bb3146101f8578063aaabadc514610218578063b05f8e481461023a576100e8565b80630e8e3e84116100c65780630e8e3e841461016557806311c8522f1461017857806314f8141a146101985780631cf8afb8146101b8576100e8565b8063058a628f146100ed57806309b2760f1461010f5780630b08cf8914610145575b600080fd5b3480156100f957600080fd5b5061010d6101083660046115d7565b6102ed565b005b34801561011b57600080fd5b5061012f61012a3660046115f3565b610334565b60405161013c9190611894565b60405180910390f35b34801561015157600080fd5b5061010d61016036600461120a565b61033a565b61010d6101733660046112ed565b610493565b34801561018457600080fd5b5061010d610193366004611526565b610496565b3480156101a457600080fd5b5061010d6101b3366004611526565b610518565b3480156101c457600080fd5b5061010d6101d3366004611167565b610594565b3480156101e457600080fd5b5061010d6101f336600461145b565b610807565b34801561020457600080fd5b5061012f610213366004611590565b6108a1565b34801561022457600080fd5b5061022d6108d4565b60405161013c9190611908565b34801561024657600080fd5b5061025a610255366004611561565b6108f0565b60405161013c9493929190611995565b34801561027657600080fd5b5061022d610937565b34801561028b57600080fd5b5061010d61029a36600461128f565b610953565b3480156102ab57600080fd5b506102bf6102ba366004611443565b610aa9565b60405161013c929190611866565b3480156102d957600080fd5b5061010d6102e8366004611167565b610ca4565b600080547fffffffffffffffffffffffff00000000000000000000000000000000000000001673ffffffffffffffffffffffffffffffffffffffff92909216919091179055565b50600090565b6040517f01ec954a00000000000000000000000000000000000000000000000000000000815260009073ffffffffffffffffffffffffffffffffffffffff8716906301ec954a90610395908890889088908890600401611929565b602060405180830381600087803b1580156103af57600080fd5b505af11580156103c3573d6000803e3d6000fd5b505050506040513d601f19601f820116820180604052508101906103e79190611612565b905060008080875160018111156103fa57fe5b1461040a57828760600151610411565b8660600151835b91509150866040015173ffffffffffffffffffffffffffffffffffffffff16876020015173ffffffffffffffffffffffffffffffffffffffff1688608001517f2170c741c41531aec20e7c107c24eecfdd15e69c9bb0a8dd37b1840b9e0b207b8585604051610481929190611987565b60405180910390a45050505050505050565b50565b6000828152600260205260408120905b8251811015610512578281815181106104bb57fe5b60200260200101518260020160008460000184815481106104d857fe5b600091825260208083209091015473ffffffffffffffffffffffffffffffffffffffff1683528201929092526040019020556001016104a6565b50505050565b6000828152600260205260408120905b82518110156105125782818151811061053d57fe5b602002602001015182600101600084600001848154811061055a57fe5b600091825260208083209091015473ffffffffffffffffffffffffffffffffffffffff168352820192909252604001902055600101610528565b6060808873ffffffffffffffffffffffffffffffffffffffff1663d5c096c489338a8a8a8a8a6040518863ffffffff1660e01b81526004016105dc979695949392919061189d565b600060405180830381600087803b1580156105f657600080fd5b505af115801561060a573d6000803e3d6000fd5b505050506040513d6000823e601f3d9081017fffffffffffffffffffffffffffffffffffffffffffffffffffffffffffffffe016820160405261065091908101906113e2565b60008a81526002602052604081209294509092505b81548110156106d75783818151811061067a57fe5b602002602001015182600101600084600001848154811061069757fe5b600091825260208083209091015473ffffffffffffffffffffffffffffffffffffffff168352820192909252604001902080549091019055600101610665565b506060875167ffffffffffffffff811180156106f257600080fd5b5060405190808252806020026020018201604052801561071c578160200160208202803683370190505b5090506060845167ffffffffffffffff8111801561073957600080fd5b50604051908082528060200260200182016040528015610763578160200160208202803683370190505b50905060005b85518110156107a55785818151811061077e57fe5b602002602001015182828151811061079257fe5b6020908102919091010152600101610769565b503373ffffffffffffffffffffffffffffffffffffffff168b7fe5ce249087ce04f05a957192435400fd97868dba0e6a4b4c049abf8af80dae788484886040516107f1939291906117fd565b60405180910390a3505050505050505050505050565b6000838152600260205260408120905b835181101561089a578160000184828151811061083057fe5b60209081029190910181015182546001808201855560009485529290932090920180547fffffffffffffffffffffffff00000000000000000000000000000000000000001673ffffffffffffffffffffffffffffffffffffffff9093169290921790915501610817565b5050505050565b6040516000906108b790309084906020016117cd565b604051602081830303815290604052805190602001209050919050565b60005473ffffffffffffffffffffffffffffffffffffffff1690565b600091825260026020818152604080852073ffffffffffffffffffffffffffffffffffffffff90941685526001840182528085205493909201905282205490929091908190565b60015473ffffffffffffffffffffffffffffffffffffffff1690565b6040517f9d2c110c00000000000000000000000000000000000000000000000000000000815260009073ffffffffffffffffffffffffffffffffffffffff861690639d2c110c906109ac90879087908790600401611962565b602060405180830381600087803b1580156109c657600080fd5b505af11580156109da573d6000803e3d6000fd5b505050506040513d601f19601f820116820180604052508101906109fe9190611612565b90506000808086516001811115610a1157fe5b14610a2157828660600151610a28565b8560600151835b91509150856040015173ffffffffffffffffffffffffffffffffffffffff16866020015173ffffffffffffffffffffffffffffffffffffffff1687608001517f2170c741c41531aec20e7c107c24eecfdd15e69c9bb0a8dd37b1840b9e0b207b8585604051610a98929190611987565b60405180910390a450505050505050565b60008181526002602052604090208054606091829167ffffffffffffffff81118015610ad457600080fd5b50604051908082528060200260200182016040528015610afe578160200160208202803683370190505b50815490935067ffffffffffffffff81118015610b1a57600080fd5b50604051908082528060200260200182016040528015610b44578160200160208202803683370190505b50915060005b8154811015610c9d57816000018181548110610b6257fe5b9060005260206000200160009054906101000a900473ffffffffffffffffffffffffffffffffffffffff16848281518110610b9957fe5b602002602001019073ffffffffffffffffffffffffffffffffffffffff16908173ffffffffffffffffffffffffffffffffffffffff1681525050816002016000858381518110610be557fe5b602002602001015173ffffffffffffffffffffffffffffffffffffffff1673ffffffffffffffffffffffffffffffffffffffff16815260200190815260200160002054826001016000868481518110610c3a57fe5b602002602001015173ffffffffffffffffffffffffffffffffffffffff1673ffffffffffffffffffffffffffffffffffffffff1681526020019081526020016000205401838281518110610c8a57fe5b6020908102919091010152600101610b4a565b5050915091565b6060808873ffffffffffffffffffffffffffffffffffffffff166374f3b00989338a8a8a8a8a6040518863ffffffff1660e01b8152600401610cec979695949392919061189d565b600060405180830381600087803b158015610d0657600080fd5b505af1158015610d1a573d6000803e3d6000fd5b505050506040513d6000823e601f3d9081017fffffffffffffffffffffffffffffffffffffffffffffffffffffffffffffffe0168201604052610d6091908101906113e2565b60008a81526002602052604081209294509092505b8154811015610de857838181518110610d8a57fe5b6020026020010151826001016000846000018481548110610da757fe5b600091825260208083209091015473ffffffffffffffffffffffffffffffffffffffff16835282019290925260400190208054919091039055600101610d75565b506060875167ffffffffffffffff81118015610e0357600080fd5b50604051908082528060200260200182016040528015610e2d578160200160208202803683370190505b5090506060845167ffffffffffffffff81118015610e4a57600080fd5b50604051908082528060200260200182016040528015610e74578160200160208202803683370190505b50905060005b85518110156107a557858181518110610e8f57fe5b6020026020010151600003828281518110610ea657fe5b6020908102919091010152600101610e7a565b8035610ec481611a0d565b92915050565b600082601f830112610eda578081fd5b8135610eed610ee8826119ed565b6119c6565b818152915060208083019084810181840286018201871015610f0e57600080fd5b60005b84811015610f36578135610f2481611a0d565b84529282019290820190600101610f11565b505050505092915050565b600082601f830112610f51578081fd5b8135610f5f610ee8826119ed565b818152915060208083019084810181840286018201871015610f8057600080fd5b60005b84811015610f3657813584529282019290820190600101610f83565b600082601f830112610faf578081fd5b8151610fbd610ee8826119ed565b818152915060208083019084810181840286018201871015610fde57600080fd5b60005b84811015610f3657815184529282019290820190600101610fe1565b600082601f83011261100d578081fd5b813567ffffffffffffffff811115611023578182fd5b61105460207fffffffffffffffffffffffffffffffffffffffffffffffffffffffffffffffe0601f840116016119c6565b915080825283602082850101111561106b57600080fd5b8060208401602084013760009082016020015292915050565b803560028110610ec457600080fd5b803560048110610ec457600080fd5b60006101208083850312156110b5578182fd5b6110be816119c6565b9150506110cb8383611084565b81526110da8360208401610eb9565b60208201526110ec8360408401610eb9565b6040820152606082013560608201526080820135608082015260a082013560a082015261111c8360c08401610eb9565b60c082015261112e8360e08401610eb9565b60e08201526101008083013567ffffffffffffffff81111561114f57600080fd5b61115b85828601610ffd565b82840152505092915050565b600080600080600080600060e0888a031215611181578283fd5b873561118c81611a0d565b96506020880135955060408801356111a381611a0d565b9450606088013567ffffffffffffffff808211156111bf578485fd5b6111cb8b838c01610f41565b955060808a0135945060a08a0135935060c08a01359150808211156111ee578283fd5b506111fb8a828b01610ffd565b91505092959891949750929550565b600080600080600060a08688031215611221578283fd5b853561122c81611a0d565b9450602086013567ffffffffffffffff80821115611248578485fd5b61125489838a016110a2565b95506040880135915080821115611269578485fd5b5061127688828901610f41565b9598949750949560608101359550608001359392505050565b600080600080608085870312156112a4578182fd5b84356112af81611a0d565b9350602085013567ffffffffffffffff8111156112ca578283fd5b6112d6878288016110a2565b949794965050505060408301359260600135919050565b600060208083850312156112ff578182fd5b823567ffffffffffffffff811115611315578283fd5b8301601f81018513611325578283fd5b8035611333610ee8826119ed565b8181528381019083850160a0808502860187018a1015611351578788fd5b8795505b848610156113d45780828b03121561136b578788fd5b611374816119c6565b61137e8b84611093565b815261138c8b898501610eb9565b818901526040838101359082015260606113a88c828601610eb9565b9082015260806113ba8c858301610eb9565b908201528452600195909501949286019290810190611355565b509098975050505050505050565b600080604083850312156113f4578182fd5b825167ffffffffffffffff8082111561140b578384fd5b61141786838701610f9f565b9350602085015191508082111561142c578283fd5b5061143985828601610f9f565b9150509250929050565b600060208284031215611454578081fd5b5035919050565b60008060006060848603121561146f578081fd5b8335925060208085013567ffffffffffffffff8082111561148e578384fd5b818701915087601f8301126114a1578384fd5b81356114af610ee8826119ed565b81815284810190848601868402860187018c10156114cb578788fd5b8795505b838610156114f65780356114e281611a0d565b8352600195909501949186019186016114cf565b5096505050604087013592508083111561150e578384fd5b505061151c86828701610eca565b9150509250925092565b60008060408385031215611538578182fd5b82359150602083013567ffffffffffffffff811115611555578182fd5b61143985828601610f41565b60008060408385031215611573578182fd5b82359150602083013561158581611a0d565b809150509250929050565b6000602082840312156115a1578081fd5b81357fffffffff00000000000000000000000000000000000000000000000000000000811681146115d0578182fd5b9392505050565b6000602082840312156115e8578081fd5b81356115d081611a0d565b600060208284031215611604578081fd5b8135600381106115d0578182fd5b600060208284031215611623578081fd5b5051919050565b73ffffffffffffffffffffffffffffffffffffffff169052565b6000815180845260208085019450808401835b8381101561168957815173ffffffffffffffffffffffffffffffffffffffff1687529582019590820190600101611657565b509495945050505050565b6000815180845260208085019450808401835b83811015611689578151875295820195908201906001016116a7565b60008151808452815b818110156116e8576020818501810151868301820152016116cc565b818111156116f95782602083870101525b50601f017fffffffffffffffffffffffffffffffffffffffffffffffffffffffffffffffe0169290920160200192915050565b600061012082516002811061173d57fe5b808552506020830151611753602086018261162a565b506040830151611766604086018261162a565b50606083015160608501526080830151608085015260a083015160a085015260c083015161179760c086018261162a565b5060e08301516117aa60e086018261162a565b506101008084015182828701526117c3838701826116c3565b9695505050505050565b9182527fffffffff0000000000000000000000000000000000000000000000000000000016602082015260240190565b6000606082526118106060830186611644565b828103602084810191909152855180835286820192820190845b818110156118465784518352938301939183019160010161182a565b5050848103604086015261185a8187611694565b98975050505050505050565b6000604082526118796040830185611644565b828103602084015261188b8185611694565b95945050505050565b90815260200190565b600088825273ffffffffffffffffffffffffffffffffffffffff808916602084015280881660408401525060e060608301526118dc60e0830187611694565b8560808401528460a084015282810360c08401526118fa81856116c3565b9a9950505050505050505050565b73ffffffffffffffffffffffffffffffffffffffff91909116815260200190565b60006080825261193c608083018761172c565b828103602084015261194e8187611694565b604084019590955250506060015292915050565b600060608252611975606083018661172c565b60208301949094525060400152919050565b918252602082015260400190565b9384526020840192909252604083015273ffffffffffffffffffffffffffffffffffffffff16606082015260800190565b60405181810167ffffffffffffffff811182821017156119e557600080fd5b604052919050565b600067ffffffffffffffff821115611a03578081fd5b5060209081020190565b73ffffffffffffffffffffffffffffffffffffffff8116811461049357600080fdfea26469706673582212203e50a64eecc8a4212b13931395cd9589d847d2eace174318711be2a76d309f9764736f6c6343000701003360c060405234801561001057600080fd5b50604051610cb1380380610cb183398101604081905261002f9161004d565b30608052600160005560601b6001600160601b03191660a05261007b565b60006020828403121561005e578081fd5b81516001600160a01b0381168114610074578182fd5b9392505050565b60805160a05160601c610c0b6100a66000398061042d52806105815250806102b45250610c0b6000f3fe608060405234801561001057600080fd5b50600436106100a35760003560e01c8063851c1bb311610076578063d877845c1161005b578063d877845c14610129578063e42abf3514610131578063fbfa77cf14610151576100a3565b8063851c1bb314610101578063aaabadc514610114576100a3565b806338e9922e146100a857806355c67628146100bd5780636b6b9f69146100db5780636daefab6146100ee575b600080fd5b6100bb6100b6366004610a33565b610159565b005b6100c56101b8565b6040516100d29190610b57565b60405180910390f35b6100bb6100e9366004610a33565b6101be565b6100bb6100fc366004610868565b610211565b6100c561010f3660046109bb565b6102b0565b61011c610302565b6040516100d29190610acc565b6100c5610311565b61014461013f3660046108e9565b610317565b6040516100d29190610b13565b61011c61042b565b61016161044f565b6101786706f05b59d3b20000821115610258610498565b60018190556040517fa9ba3ffe0b6c366b81232caab38605a0699ad5398d6cce76f91ee809e322dafc906101ad908390610b57565b60405180910390a150565b60015490565b6101c661044f565b6101dc662386f26fc10000821115610259610498565b60028190556040517f5a0b7386237e7f07fa741efc64e59c9387d2cccafec760efed4d53387f20e19a906101ad908390610b57565b6102196104aa565b61022161044f565b61022b84836104c3565b60005b848110156102a057600086868381811061024457fe5b90506020020160208101906102599190610a17565b9050600085858481811061026957fe5b60200291909101359150610296905073ffffffffffffffffffffffffffffffffffffffff831685836104d0565b505060010161022e565b506102a9610576565b5050505050565b60007f0000000000000000000000000000000000000000000000000000000000000000826040516020016102e5929190610a63565b604051602081830303815290604052805190602001209050919050565b600061030c61057d565b905090565b60025490565b6060815167ffffffffffffffff8111801561033157600080fd5b5060405190808252806020026020018201604052801561035b578160200160208202803683370190505b50905060005b82518110156104255782818151811061037657fe5b602002602001015173ffffffffffffffffffffffffffffffffffffffff166370a08231306040518263ffffffff1660e01b81526004016103b69190610acc565b60206040518083038186803b1580156103ce57600080fd5b505afa1580156103e2573d6000803e3d6000fd5b505050506040513d601f19601f820116820180604052508101906104069190610a4b565b82828151811061041257fe5b6020908102919091010152600101610361565b50919050565b7f000000000000000000000000000000000000000000000000000000000000000081565b600061047e6000357fffffffff00000000000000000000000000000000000000000000000000000000166102b0565b905061049561048d823361061d565b610191610498565b50565b816104a6576104a6816106bc565b5050565b6104bc60026000541415610190610498565b6002600055565b6104a68183146067610498565b6105718363a9059cbb60e01b84846040516024016104ef929190610aed565b604080517fffffffffffffffffffffffffffffffffffffffffffffffffffffffffffffffe08184030181529190526020810180517bffffffffffffffffffffffffffffffffffffffffffffffffffffffff167fffffffff00000000000000000000000000000000000000000000000000000000909316929092179091526106e6565b505050565b6001600055565b60007f000000000000000000000000000000000000000000000000000000000000000073ffffffffffffffffffffffffffffffffffffffff1663aaabadc56040518163ffffffff1660e01b815260040160206040518083038186803b1580156105e557600080fd5b505afa1580156105f9573d6000803e3d6000fd5b505050506040513d601f19601f8201168201806040525081019061030c91906109fb565b600061062761057d565b73ffffffffffffffffffffffffffffffffffffffff16639be2a8848484306040518463ffffffff1660e01b815260040161066393929190610b60565b60206040518083038186803b15801561067b57600080fd5b505afa15801561068f573d6000803e3d6000fd5b505050506040513d601f19601f820116820180604052508101906106b39190610994565b90505b92915050565b610495817f42414c0000000000000000000000000000000000000000000000000000000000610799565b600060608373ffffffffffffffffffffffffffffffffffffffff168360405161070f9190610a93565b6000604051808303816000865af19150503d806000811461074c576040519150601f19603f3d011682016040523d82523d6000602084013e610751565b606091505b50915091506000821415610769573d6000803e3d6000fd5b61079381516000148061078b57508180602001905181019061078b9190610994565b6101a2610498565b50505050565b7f08c379a000000000000000000000000000000000000000000000000000000000600090815260206004526007602452600a808404818106603090810160081b958390069590950190829004918206850160101b01602363ffffff0060e086901c160160181b0190930160c81b60445260e882901c90606490fd5b60008083601f840112610825578182fd5b50813567ffffffffffffffff81111561083c578182fd5b602083019150836020808302850101111561085657600080fd5b9250929050565b80356106b681610bb3565b60008060008060006060868803121561087f578081fd5b853567ffffffffffffffff80821115610896578283fd5b6108a289838a01610814565b909750955060208801359150808211156108ba578283fd5b506108c788828901610814565b90945092505060408601356108db81610bb3565b809150509295509295909350565b600060208083850312156108fb578182fd5b823567ffffffffffffffff80821115610912578384fd5b818501915085601f830112610925578384fd5b813581811115610933578485fd5b8381029150610943848301610b8c565b8181528481019084860184860187018a101561095d578788fd5b8795505b83861015610987576109738a8261085d565b835260019590950194918601918601610961565b5098975050505050505050565b6000602082840312156109a5578081fd5b815180151581146109b4578182fd5b9392505050565b6000602082840312156109cc578081fd5b81357fffffffff00000000000000000000000000000000000000000000000000000000811681146109b4578182fd5b600060208284031215610a0c578081fd5b81516109b481610bb3565b600060208284031215610a28578081fd5b81356109b481610bb3565b600060208284031215610a44578081fd5b5035919050565b600060208284031215610a5c578081fd5b5051919050565b9182527fffffffff0000000000000000000000000000000000000000000000000000000016602082015260240190565b60008251815b81811015610ab35760208186018101518583015201610a99565b81811115610ac15782828501525b509190910192915050565b73ffffffffffffffffffffffffffffffffffffffff91909116815260200190565b73ffffffffffffffffffffffffffffffffffffffff929092168252602082015260400190565b6020808252825182820181905260009190848201906040850190845b81811015610b4b57835183529284019291840191600101610b2f565b50909695505050505050565b90815260200190565b92835273ffffffffffffffffffffffffffffffffffffffff918216602084015216604082015260600190565b60405181810167ffffffffffffffff81118282101715610bab57600080fd5b604052919050565b73ffffffffffffffffffffffffffffffffffffffff8116811461049557600080fdfea2646970667358221220d63752003142d1937745f7544773886ee280223f99345904d820f058b228afd964736f6c63430007010033",
  "linkReferences": {},
  "deployedLinkReferences": {}
}