{
  "_format": "hh-sol-artifact-1",
  "contractName": "MockBasicAuthorizer",
  "sourceName": "contracts/test/MockBasicAuthorizer.sol",
  "abi": [
    {
      "inputs": [],
      "stateMutability": "nonpayable",
      "type": "constructor"
    },
    {
      "inputs": [],
      "name": "DEFAULT_ADMIN_ROLE",
      "outputs": [
        {
          "internalType": "bytes32",
          "name": "",
          "type": "bytes32"
        }
      ],
      "stateMutability": "view",
      "type": "function"
    },
    {
      "inputs": [
        {
          "internalType": "bytes32",
          "name": "actionId",
          "type": "bytes32"
        },
        {
          "internalType": "address",
          "name": "account",
          "type": "address"
        },
        {
          "internalType": "address",
          "name": "",
          "type": "address"
        }
      ],
      "name": "canPerform",
      "outputs": [
        {
          "internalType": "bool",
          "name": "",
          "type": "bool"
        }
      ],
      "stateMutability": "view",
      "type": "function"
    },
    {
      "inputs": [
        {
          "internalType": "bytes32",
          "name": "role",
          "type": "bytes32"
        }
      ],
      "name": "getRoleAdmin",
      "outputs": [
        {
          "internalType": "bytes32",
          "name": "",
          "type": "bytes32"
        }
      ],
      "stateMutability": "view",
      "type": "function"
    },
    {
      "inputs": [
        {
          "internalType": "bytes32",
          "name": "role",
          "type": "bytes32"
        },
        {
          "internalType": "uint256",
          "name": "index",
          "type": "uint256"
        }
      ],
      "name": "getRoleMember",
      "outputs": [
        {
          "internalType": "address",
          "name": "",
          "type": "address"
        }
      ],
      "stateMutability": "view",
      "type": "function"
    },
    {
      "inputs": [
        {
          "internalType": "bytes32",
          "name": "role",
          "type": "bytes32"
        }
      ],
      "name": "getRoleMemberCount",
      "outputs": [
        {
          "internalType": "uint256",
          "name": "",
          "type": "uint256"
        }
      ],
      "stateMutability": "view",
      "type": "function"
    },
    {
      "inputs": [
        {
          "internalType": "bytes32",
          "name": "role",
          "type": "bytes32"
        },
        {
          "internalType": "address",
          "name": "account",
          "type": "address"
        }
      ],
      "name": "grantRole",
      "outputs": [],
      "stateMutability": "nonpayable",
      "type": "function"
    },
    {
      "inputs": [
        {
          "internalType": "bytes32[]",
          "name": "roles",
          "type": "bytes32[]"
        },
        {
          "internalType": "address[]",
          "name": "accounts",
          "type": "address[]"
        }
      ],
      "name": "grantRolesToMany",
      "outputs": [],
      "stateMutability": "nonpayable",
      "type": "function"
    },
    {
      "inputs": [
        {
          "internalType": "bytes32",
          "name": "role",
          "type": "bytes32"
        },
        {
          "internalType": "address",
          "name": "account",
          "type": "address"
        }
      ],
      "name": "hasRole",
      "outputs": [
        {
          "internalType": "bool",
          "name": "",
          "type": "bool"
        }
      ],
      "stateMutability": "view",
      "type": "function"
    },
    {
      "inputs": [
        {
          "internalType": "bytes32",
          "name": "role",
          "type": "bytes32"
        },
        {
          "internalType": "address",
          "name": "account",
          "type": "address"
        }
      ],
      "name": "revokeRole",
      "outputs": [],
      "stateMutability": "nonpayable",
      "type": "function"
    }
  ],
  "bytecode": "0x608060405234801561001057600080fd5b5061001c600033610021565b6100ce565b6000828152602081815260409091206100439183906102b5610048821b17901c565b505050565b600061005483836100ad565b6100a357508154600180820184556000848152602080822090930180546001600160a01b0319166001600160a01b038616908117909155855490825282860190935260409020919091556100a7565b5060005b92915050565b6001600160a01b031660009081526001919091016020526040902054151590565b61090e806100dd6000396000f3fe608060405234801561001057600080fd5b50600436106100a35760003560e01c80639be2a88411610076578063a73cb2ab1161005b578063a73cb2ab14610141578063ca15c87314610154578063d547741f14610167576100a3565b80639be2a88414610126578063a217fddf14610139576100a3565b8063248a9ca3146100a85780632f2ff15d146100d15780639010d07c146100e657806391d1485414610106575b600080fd5b6100bb6100b63660046107ba565b61017a565b6040516100c89190610888565b60405180910390f35b6100e46100df3660046107d2565b61018f565b005b6100f96100f436600461083b565b6101c5565b6040516100c8919061085c565b6101196101143660046107d2565b6101e6565b6040516100c8919061087d565b6101196101343660046107fe565b6101fe565b6100bb610212565b6100e461014f366004610700565b610217565b6100bb6101623660046107ba565b61026c565b6100e46101753660046107d2565b610283565b60009081526020819052604090206002015490565b6000828152602081905260409020600201546101b7906101af90336101e6565b6101a661033d565b6101c1828261034b565b5050565b60008281526020819052604081206101dd9083610363565b90505b92915050565b60008281526020819052604081206101dd908361037f565b600061020a84846101e6565b949350505050565b600081565b610223825182516103ad565b60005b82518110156102675761025f83828151811061023e57fe5b602002602001015183838151811061025257fe5b602002602001015161018f565b600101610226565b505050565b60008181526020819052604081206101e0906103ba565b6000828152602081905260409020600201546102ab906102a390336101e6565b6101a761033d565b6101c182826103be565b60006102c1838361037f565b61033557508154600180820184556000848152602080822090930180547fffffffffffffffffffffffff00000000000000000000000000000000000000001673ffffffffffffffffffffffffffffffffffffffff8616908117909155855490825282860190935260409020919091556101e0565b5060006101e0565b816101c1576101c1816103d6565b600082815260208190526040902061026790826102b5565b8154600090610375908310606461033d565b6101dd8383610403565b73ffffffffffffffffffffffffffffffffffffffff1660009081526001919091016020526040902054151590565b6101c1818314606761033d565b5490565b6000828152602081905260409020610267908261043d565b610400817f42414c00000000000000000000000000000000000000000000000000000000006105eb565b50565b600082600001828154811061041457fe5b60009182526020909120015473ffffffffffffffffffffffffffffffffffffffff169392505050565b73ffffffffffffffffffffffffffffffffffffffff8116600090815260018301602052604081205480156105e15783547fffffffffffffffffffffffffffffffffffffffffffffffffffffffffffffffff80830191018082146105465760008660000182815481106104ab57fe5b600091825260209091200154875473ffffffffffffffffffffffffffffffffffffffff909116915081908890859081106104e157fe5b600091825260208083209190910180547fffffffffffffffffffffffff00000000000000000000000000000000000000001673ffffffffffffffffffffffffffffffffffffffff94851617905592909116815260018881019092526040902090830190555b855486908061055157fe5b6000828152602080822083017fffffffffffffffffffffffffffffffffffffffffffffffffffffffffffffffff90810180547fffffffffffffffffffffffff000000000000000000000000000000000000000016905590920190925573ffffffffffffffffffffffffffffffffffffffff871682526001888101909152604082209190915593506101e092505050565b60009150506101e0565b7f08c379a000000000000000000000000000000000000000000000000000000000600090815260206004526007602452600a808404818106603090810160081b958390069590950190829004918206850160101b01602363ffffff0060e086901c160160181b0190930160c81b60445260e882901c90606490fd5b803573ffffffffffffffffffffffffffffffffffffffff811681146101e057600080fd5b600082601f83011261069a578081fd5b81356106ad6106a8826108b8565b610891565b8181529150602080830190848101818402860182018710156106ce57600080fd5b60005b848110156106f5576106e38883610666565b845292820192908201906001016106d1565b505050505092915050565b60008060408385031215610712578182fd5b823567ffffffffffffffff80821115610729578384fd5b818501915085601f83011261073c578384fd5b813561074a6106a8826108b8565b80828252602080830192508086018a82838702890101111561076a578889fd5b8896505b8487101561078c57803584526001969096019592810192810161076e565b5090965087013593505050808211156107a3578283fd5b506107b08582860161068a565b9150509250929050565b6000602082840312156107cb578081fd5b5035919050565b600080604083850312156107e4578182fd5b823591506107f58460208501610666565b90509250929050565b600080600060608486031215610812578081fd5b833592506108238560208601610666565b91506108328560408601610666565b90509250925092565b6000806040838503121561084d578182fd5b50508035926020909101359150565b73ffffffffffffffffffffffffffffffffffffffff91909116815260200190565b901515815260200190565b90815260200190565b60405181810167ffffffffffffffff811182821017156108b057600080fd5b604052919050565b600067ffffffffffffffff8211156108ce578081fd5b506020908102019056fea264697066735822122040e109f0ca748ef5eff5e90d26e931a23dc18d6d6debded7d0f4d28cedc2eb3464736f6c63430007010033",
  "linkReferences": {},
  "deployedLinkReferences": {}
}