{
  "address": "0x86AE73b783EC1B6FEbA46B54B85Dd098E30b04f2",
  "abi": [
    {
      "inputs": [],
      "stateMutability": "nonpayable",
      "type": "constructor"
    },
    {
      "inputs": [],
      "name": "ORACLE_IMPLEMENTATION",
      "outputs": [
        {
          "internalType": "address",
          "name": "",
          "type": "address"
        }
      ],
      "stateMutability": "view",
      "type": "function"
    },
    {
      "inputs": [
        {
          "components": [
            {
              "internalType": "contract IERC20Metadata",
              "name": "baseToken",
              "type": "address"
            },
            {
              "internalType": "contract IERC20Metadata",
              "name": "quoteToken",
              "type": "address"
            },
            {
              "internalType": "contract AggregatorV3Interface",
              "name": "primaryAggregator",
              "type": "address"
            },
            {
              "internalType": "uint32",
              "name": "primaryHeartbeat",
              "type": "uint32"
            },
            {
              "internalType": "contract AggregatorV3Interface",
              "name": "secondaryAggregator",
              "type": "address"
            },
            {
              "internalType": "uint32",
              "name": "secondaryHeartbeat",
              "type": "uint32"
            }
          ],
          "internalType": "struct IChainlinkV3Oracle.ChainlinkV3DeploymentConfig",
          "name": "_config",
          "type": "tuple"
        }
      ],
      "name": "create",
      "outputs": [
        {
          "internalType": "contract ChainlinkV3Oracle",
          "name": "oracle",
          "type": "address"
        }
      ],
      "stateMutability": "nonpayable",
      "type": "function"
    },
    {
      "inputs": [
        {
          "internalType": "bytes32",
          "name": "",
          "type": "bytes32"
        }
      ],
      "name": "getConfigAddress",
      "outputs": [
        {
          "internalType": "address",
          "name": "",
          "type": "address"
        }
      ],
      "stateMutability": "view",
      "type": "function"
    },
    {
      "inputs": [
        {
          "internalType": "address",
          "name": "",
          "type": "address"
        }
      ],
      "name": "getOracleAddress",
      "outputs": [
        {
          "internalType": "address",
          "name": "",
          "type": "address"
        }
      ],
      "stateMutability": "view",
      "type": "function"
    },
    {
      "inputs": [
        {
          "components": [
            {
              "internalType": "contract IERC20Metadata",
              "name": "baseToken",
              "type": "address"
            },
            {
              "internalType": "contract IERC20Metadata",
              "name": "quoteToken",
              "type": "address"
            },
            {
              "internalType": "contract AggregatorV3Interface",
              "name": "primaryAggregator",
              "type": "address"
            },
            {
              "internalType": "uint32",
              "name": "primaryHeartbeat",
              "type": "uint32"
            },
            {
              "internalType": "contract AggregatorV3Interface",
              "name": "secondaryAggregator",
              "type": "address"
            },
            {
              "internalType": "uint32",
              "name": "secondaryHeartbeat",
              "type": "uint32"
            }
          ],
          "internalType": "struct IChainlinkV3Oracle.ChainlinkV3DeploymentConfig",
          "name": "_config",
          "type": "tuple"
        }
      ],
      "name": "hashConfig",
      "outputs": [
        {
          "internalType": "bytes32",
          "name": "configId",
          "type": "bytes32"
        }
      ],
      "stateMutability": "view",
      "type": "function"
    },
    {
      "inputs": [
        {
          "components": [
            {
              "internalType": "contract IERC20Metadata",
              "name": "baseToken",
              "type": "address"
            },
            {
              "internalType": "contract IERC20Metadata",
              "name": "quoteToken",
              "type": "address"
            },
            {
              "internalType": "contract AggregatorV3Interface",
              "name": "primaryAggregator",
              "type": "address"
            },
            {
              "internalType": "uint32",
              "name": "primaryHeartbeat",
              "type": "uint32"
            },
            {
              "internalType": "contract AggregatorV3Interface",
              "name": "secondaryAggregator",
              "type": "address"
            },
            {
              "internalType": "uint32",
              "name": "secondaryHeartbeat",
              "type": "uint32"
            }
          ],
          "internalType": "struct IChainlinkV3Oracle.ChainlinkV3DeploymentConfig",
          "name": "_config",
          "type": "tuple"
        }
      ],
      "name": "verifyConfig",
      "outputs": [
        {
          "internalType": "uint256",
          "name": "secondaryPriceDecimals",
          "type": "uint256"
        }
      ],
      "stateMutability": "view",
      "type": "function"
    },
    {
      "inputs": [
        {
          "components": [
            {
              "internalType": "contract IERC20Metadata",
              "name": "baseToken",
              "type": "address"
            },
            {
              "internalType": "contract IERC20Metadata",
              "name": "quoteToken",
              "type": "address"
            },
            {
              "internalType": "contract AggregatorV3Interface",
              "name": "primaryAggregator",
              "type": "address"
            },
            {
              "internalType": "uint32",
              "name": "primaryHeartbeat",
              "type": "uint32"
            },
            {
              "internalType": "contract AggregatorV3Interface",
              "name": "secondaryAggregator",
              "type": "address"
            },
            {
              "internalType": "uint32",
              "name": "secondaryHeartbeat",
              "type": "uint32"
            }
          ],
          "internalType": "struct IChainlinkV3Oracle.ChainlinkV3DeploymentConfig",
          "name": "_config",
          "type": "tuple"
        }
      ],
      "name": "verifyHeartbeat",
      "outputs": [],
      "stateMutability": "pure",
      "type": "function"
    },
    {
      "anonymous": false,
      "inputs": [
        {
          "indexed": true,
          "internalType": "address",
          "name": "oracle",
          "type": "address"
        }
      ],
      "name": "NewOracle",
      "type": "event"
    },
    {
      "inputs": [],
      "name": "AddressZero",
      "type": "error"
    },
    {
      "inputs": [],
      "name": "AggregatorsAreTheSame",
      "type": "error"
    },
    {
      "inputs": [],
      "name": "InvalidEthHeartbeat",
      "type": "error"
    },
    {
      "inputs": [],
      "name": "InvalidHeartbeat",
      "type": "error"
    },
    {
      "inputs": [],
      "name": "Overflow",
      "type": "error"
    },
    {
      "inputs": [],
      "name": "TokensAreTheSame",
      "type": "error"
    }
  ],
  "bytecode": "0x60a060405234801561001057600080fd5b5060405161001d90610093565b604051809103906000f080158015610039573d6000803e3d6000fd5b506001600160a01b0381166100825760405162461bcd60e51b815260206004820152600b60248201526a5a65726f4164647265737360a81b604482015260640160405180910390fd5b6001600160a01b03166080526100a0565b6109e38061123283390190565b6080516111706100c260003960008181610118015261030101526111706000f3fe60806040523480156200001157600080fd5b5060043610620000875760003560e01c8063a8f39f661162000062578063a8f39f661462000112578063b971b8df146200013a578063f16ce9f61462000151578063f896503a146200016a57600080fd5b80633c091b39146200008c5780635448217314620000b6578063a7e1f51214620000fb575b600080fd5b620000a36200009d366004620009ce565b62000196565b6040519081526020015b60405180910390f35b620000e2620000c736600462000a89565b6001602052600090815260409020546001600160a01b031681565b6040516001600160a01b039091168152602001620000ad565b620000e26200010c366004620009ce565b620001c8565b620000e27f000000000000000000000000000000000000000000000000000000000000000081565b620000a36200014b366004620009ce565b6200039c565b6200016862000162366004620009ce565b6200051e565b005b620000e26200017b36600462000ab0565b6000602081905290815260409020546001600160a01b031681565b600081604051602001620001ab919062000b20565b604051602081830303815290604052805190602001209050919050565b600080620001d68362000196565b6000818152602081905260409020549091506001600160a01b031680156200021a576001600160a01b03908116600090815260016020526040902054169392505050565b600062000227856200039c565b905062000234856200051e565b600080620002b88760000151886020015189604001516001600160a01b031663313ce5676040518163ffffffff1660e01b8152600401602060405180830381865afa15801562000288573d6000803e3d6000fd5b505050506040513d601f19601f82011682018060405250810190620002ae919062000b36565b60ff1686620005e8565b91509150868282604051620002cd9062000988565b620002db9392919062000b5b565b604051809103906000f080158015620002f8573d6000803e3d6000fd5b509350620003267f000000000000000000000000000000000000000000000000000000000000000062000820565b955062000335868587620008bb565b60405163189acdbd60e31b81526001600160a01b03858116600483015287169063c4d66de890602401600060405180830381600087803b1580156200037957600080fd5b505af11580156200038e573d6000803e3d6000fd5b505050505050505050919050565b60208101516000906001600160a01b0316620003cb57604051639fabe1c160e01b815260040160405180910390fd5b81516001600160a01b0316620003f457604051639fabe1c160e01b815260040160405180910390fd5b81600001516001600160a01b031682602001516001600160a01b0316036200042f57604051633d4cfcc560e11b815260040160405180910390fd5b60408201516001600160a01b03166200045b57604051639fabe1c160e01b815260040160405180910390fd5b81608001516001600160a01b031682604001516001600160a01b0316036200049657604051630e04002960e11b815260040160405180910390fd5b60808201516001600160a01b031615620005195781608001516001600160a01b031663313ce5676040518163ffffffff1660e01b8152600401602060405180830381865afa158015620004ed573d6000803e3d6000fd5b505050506040513d601f19601f8201168201806040525081019062000513919062000b36565b60ff1690505b919050565b601e816060015163ffffffff1610806200054457506202a300816060015163ffffffff16115b156200056357604051638f1825c960e01b815260040160405180910390fd5b60808101516001600160a01b0316620005a35760a081015163ffffffff1615620005a0576040516329c5e8f160e21b815260040160405180910390fd5b50565b601e8160a0015163ffffffff161080620005c957506202a3008160a0015163ffffffff16115b15620005a0576040516329c5e8f160e21b815260040160405180910390fd5b6000806000856001600160a01b031663313ce5676040518163ffffffff1660e01b8152600401602060405180830381865afa1580156200062c573d6000803e3d6000fd5b505050506040513d601f19601f8201168201806040525081019062000652919062000b36565b60ff1690506024808211156200067b57604051631a93c68960e11b815260040160405180910390fd5b6000886001600160a01b031663313ce5676040518163ffffffff1660e01b8152600401602060405180830381865afa158015620006bc573d6000803e3d6000fd5b505050506040513d601f19601f82011682018060405250810190620006e2919062000b36565b60ff1690506000620006f5888362000b93565b8411156200070d575080870183039350600162000737565b828211156200072f57604051631a93c68960e11b815260040160405180910390fd5b838883010395505b8660000362000785578062000759576200075386600a62000ca6565b6200075c565b60005b816200076a57600062000777565b6200077786600a62000ca6565b955095505050505062000817565b82871115620007a757604051631a93c68960e11b815260040160405180910390fd5b8015620007b85793860193620007d7565b85871115620007d15750600094860393506001620007d7565b86860395505b80620007f057620007ea86600a62000ca6565b620007f3565b60005b81620008015760006200080e565b6200080e86600a62000ca6565b95509550505050505b94509492505050565b6000763d602d80600a3d3981f3363d3d373d3d3d363d730000008260601b60e81c176000526e5af43d82803e903d91602b57fd5bf38260781b17602052603760096000f090506001600160a01b038116620005195760405162461bcd60e51b8152602060048201526016602482015275115490cc4c4d8dce8818dc99585d194819985a5b195960521b60448201526064015b60405180910390fd5b6000818152602081905260409020546001600160a01b031615620009175760405162461bcd60e51b815260206004820152601260248201527110dbdb999a59d05b1c9958591e515e1a5cdd60721b6044820152606401620008b2565b60008181526020818152604080832080546001600160a01b038088166001600160a01b03199283168117909355918552600190935281842080549188169190931681179092555190917fb3eacd0e351fafdfefdec84e1cd19679b38dbcd63ea7c2c24da17fd2bc3b3c0e91a2505050565b6104868062000cb583390190565b6001600160a01b0381168114620005a057600080fd5b8035620005198162000996565b803563ffffffff811681146200051957600080fd5b600060c08284031215620009e157600080fd5b60405160c0810181811067ffffffffffffffff8211171562000a1357634e487b7160e01b600052604160045260246000fd5b60405262000a2183620009ac565b815262000a3160208401620009ac565b602082015262000a4460408401620009ac565b604082015262000a5760608401620009b9565b606082015262000a6a60808401620009ac565b608082015262000a7d60a08401620009b9565b60a08201529392505050565b60006020828403121562000a9c57600080fd5b813562000aa98162000996565b9392505050565b60006020828403121562000ac357600080fd5b5035919050565b60018060a01b03808251168352806020830151166020840152806040830151166040840152606082015163ffffffff80821660608601528260808501511660808601528060a08501511660a08601525050505050565b60c0810162000b30828462000aca565b92915050565b60006020828403121562000b4957600080fd5b815160ff8116811462000aa957600080fd5b610100810162000b6c828662000aca565b60c082019390935260e00152919050565b634e487b7160e01b600052601160045260246000fd5b8082018082111562000b305762000b3062000b7d565b600181815b8085111562000bea57816000190482111562000bce5762000bce62000b7d565b8085161562000bdc57918102915b93841c939080029062000bae565b509250929050565b60008262000c035750600162000b30565b8162000c125750600062000b30565b816001811462000c2b576002811462000c365762000c56565b600191505062000b30565b60ff84111562000c4a5762000c4a62000b7d565b50506001821b62000b30565b5060208310610133831016604e8410600b841016171562000c7b575081810a62000b30565b62000c87838362000ba9565b806000190482111562000c9e5762000c9e62000b7d565b029392505050565b600062000aa9838362000bf256fe6101a060405234801561001157600080fd5b50604051610486380380610486833981016040819052610030916100c4565b82516020840151606085015160a094855260c0939093526001600160a01b0391821660e05281166101005263ffffffff9182166080908152604085015182166101205284018051821661014052929093015116610160525116151561018052610194565b80516001600160a01b03811681146100ab57600080fd5b919050565b805163ffffffff811681146100ab57600080fd5b60008060008385036101008112156100db57600080fd5b60c08112156100e957600080fd5b5060405160c081016001600160401b038111828210171561011a57634e487b7160e01b600052604160045260246000fd5b60405261012685610094565b815261013460208601610094565b602082015261014560408601610094565b6040820152610156606086016100b0565b606082015261016760808601610094565b608082015261017860a086016100b0565b60a082015260c085015160e09095015190969495509392505050565b60805160a05160c05160e05161010051610120516101405161016051610180516102876101ff60003960006101780152600060b701526000606a0152600060450152600061015101526000610129015260006101030152600060dd01526000609201526102876000f3fe608060405234801561001057600080fd5b506004361061002b5760003560e01c8063c3f909d414610030575b600080fd5b60408051610120810182526001600160a01b037f0000000000000000000000000000000000000000000000000000000000000000811682527f0000000000000000000000000000000000000000000000000000000000000000811660208301527f0000000000000000000000000000000000000000000000000000000000000000828401527f000000000000000000000000000000000000000000000000000000000000000060608301527f000000000000000000000000000000000000000000000000000000000000000060808301527f000000000000000000000000000000000000000000000000000000000000000060a08301527f0000000000000000000000000000000000000000000000000000000000000000811660c08301527f00000000000000000000000000000000000000000000000000000000000000001660e08201527f0000000000000000000000000000000000000000000000000000000000000000151561010082015290516101ab91906101b4565b60405180910390f35b81516001600160a01b031681526020808301516101208301916101e1908401826001600160a01b03169052565b5060408301516040830152606083015160608301526080830151608083015260a083015160a083015260c083015161022460c08401826001600160a01b03169052565b5060e083015161023f60e08401826001600160a01b03169052565b5061010092830151151591909201529056fea26469706673582212209661983d81ccbfa5758b44af7fb144a4f3c9820180c14573e1378cf55509d3ec64736f6c63430008120033a26469706673582212205ddaec3f50749e558ea6265fae40d33fe5d28f7b6868a6af4ac01092d00fc18264736f6c63430008120033608060405234801561001057600080fd5b5061001961001e565b6100dd565b600054610100900460ff161561008a5760405162461bcd60e51b815260206004820152602760248201527f496e697469616c697a61626c653a20636f6e747261637420697320696e697469604482015266616c697a696e6760c81b606482015260840160405180910390fd5b60005460ff908116146100db576000805460ff191660ff9081179091556040519081527f7f26b83ff96e1f2b6a682f133852f6798a09c465da95921460cefb38474024989060200160405180910390a15b565b6108f7806100ec6000396000f3fe608060405234801561001057600080fd5b50600436106100625760003560e01c806313b0be3314610067578063217a4b701461008d578063324b8d6e146100ad578063c4d66de8146100c6578063c71ed1e6146100db578063f9fa619a14610105575b600080fd5b61007a6100753660046106b0565b610116565b6040519081526020015b60405180910390f35b6100956102b2565b6040516001600160a01b039091168152602001610084565b600054610095906201000090046001600160a01b031681565b6100d96100d43660046106e0565b610337565b005b6100ee6100e9366004610712565b6104a0565b604080519215158352602083019190915201610084565b6100d96101133660046106e0565b50565b600080600060029054906101000a90046001600160a01b03166001600160a01b031663c3f909d46040518163ffffffff1660e01b815260040161012060405180830381865afa15801561016d573d6000803e3d6000fd5b505050506040513d601f19601f820116820180604052508101906101919190610782565b90508060c001516001600160a01b0316836001600160a01b0316146101c95760405163981a2a2b60e01b815260040160405180910390fd5b6fffffffffffffffffffffffffffffffff8411156101fa57604051631df5999960e21b815260040160405180910390fd5b60008061020f83600001518460400151610556565b91509150816102305760405162bfc92160e01b815260040160405180910390fd5b8261010001516102585761024e868285608001518660a00151610601565b93505050506102ac565b60008061026d85602001518660600151610556565b915091508161028f57604051637c5ab47160e01b815260040160405180910390fd5b6102a488848388608001518960a0015161063d565b955050505050505b92915050565b600080600060029054906101000a90046001600160a01b03166001600160a01b031663c3f909d46040518163ffffffff1660e01b815260040161012060405180830381865afa158015610309573d6000803e3d6000fd5b505050506040513d601f19601f8201168201806040525081019061032d9190610782565b60e0015192915050565b600054610100900460ff16158080156103575750600054600160ff909116105b806103715750303b158015610371575060005460ff166001145b6103d85760405162461bcd60e51b815260206004820152602e60248201527f496e697469616c697a61626c653a20636f6e747261637420697320616c72656160448201526d191e481a5b9a5d1a585b1a5e995960921b606482015260840160405180910390fd5b6000805460ff1916600117905580156103fb576000805461ff0019166101001790555b6000805462010000600160b01b031916620100006001600160a01b038516908102919091179091556040519081527f077847d1fadf50041a730385b3d6b2de1cdeb5e078cb933fb091003e7f10e07a9060200160405180910390a1801561049c576000805461ff0019169055604051600181527f7f26b83ff96e1f2b6a682f133852f6798a09c465da95921460cefb38474024989060200160405180910390a15b5050565b60008060008060029054906101000a90046001600160a01b03166001600160a01b031663c3f909d46040518163ffffffff1660e01b815260040161012060405180830381865afa1580156104f8573d6000803e3d6000fd5b505050506040513d601f19601f8201168201806040525081019061051c9190610782565b90508361053a5761053581602001518260600151610556565b61054c565b61054c81600001518260400151610556565b9250925050915091565b600080600080856001600160a01b031663feaf968c6040518163ffffffff1660e01b815260040160a060405180830381865afa15801561059a573d6000803e3d6000fd5b505050506040513d601f19601f820116820180604052508101906105be9190610836565b50935050925050600085420390506000831380156105db57508082115b156105ef57600183945094505050506105fa565b600080945094505050505b9250929050565b60008160000361062457828486028161061c5761061c610886565b049050610635565b848402610631838261089c565b9150505b949350505050565b60008160000361066f5783838688028161065957610659610886565b048161066757610667610886565b049050610692565b85850261067c838261089c565b905084818161068d5761068d610886565b049150505b95945050505050565b6001600160a01b038116811461011357600080fd5b600080604083850312156106c357600080fd5b8235915060208301356106d58161069b565b809150509250929050565b6000602082840312156106f257600080fd5b81356106fd8161069b565b9392505050565b801515811461011357600080fd5b60006020828403121561072457600080fd5b81356106fd81610704565b604051610120810167ffffffffffffffff8111828210171561076157634e487b7160e01b600052604160045260246000fd5b60405290565b80516107728161069b565b919050565b805161077281610704565b6000610120828403121561079557600080fd5b61079d61072f565b6107a683610767565b81526107b460208401610767565b602082015260408301516040820152606083015160608201526080830151608082015260a083015160a08201526107ed60c08401610767565b60c08201526107fe60e08401610767565b60e0820152610100610811818501610777565b908201529392505050565b805169ffffffffffffffffffff8116811461077257600080fd5b600080600080600060a0868803121561084e57600080fd5b6108578661081c565b945060208601519350604086015192506060860151915061087a6080870161081c565b90509295509295909350565b634e487b7160e01b600052601260045260246000fd5b80820281158282048414176102ac57634e487b7160e01b600052601160045260246000fdfea26469706673582212209156e44384c0bade20b4d05949a1cad7184845ac08585a335e6dcccc06a6fbdb64736f6c63430008120033",
  "language": "Solidity",
  "compiler": "0.8.18+commit.87f61d96"
}