{
  "address": "0xBCd67f35c7A2F212db0AD7f68fC773b5aC15377c",
  "abi": [
    {
      "inputs": [
        {
          "internalType": "contract IUniswapV3Factory",
          "name": "_factory",
          "type": "address"
        }
      ],
      "stateMutability": "nonpayable",
      "type": "constructor"
    },
    {
      "anonymous": false,
      "inputs": [
        {
          "indexed": true,
          "internalType": "address",
          "name": "oracle",
          "type": "address"
        }
      ],
      "name": "NewOracle",
      "type": "event"
    },
    {
      "inputs": [],
      "name": "ORACLE_IMPLEMENTATION",
      "outputs": [
        {
          "internalType": "address",
          "name": "",
          "type": "address"
        }
      ],
      "stateMutability": "view",
      "type": "function"
    },
    {
      "inputs": [],
      "name": "UNISWAPV3_FACTORY",
      "outputs": [
        {
          "internalType": "contract IUniswapV3Factory",
          "name": "",
          "type": "address"
        }
      ],
      "stateMutability": "view",
      "type": "function"
    },
    {
      "inputs": [
        {
          "components": [
            {
              "internalType": "contract IUniswapV3Pool",
              "name": "pool",
              "type": "address"
            },
            {
              "internalType": "address",
              "name": "quoteToken",
              "type": "address"
            },
            {
              "internalType": "uint32",
              "name": "periodForAvgPrice",
              "type": "uint32"
            },
            {
              "internalType": "uint8",
              "name": "blockTime",
              "type": "uint8"
            }
          ],
          "internalType": "struct IUniswapV3Oracle.UniswapV3DeploymentConfig",
          "name": "_config",
          "type": "tuple"
        }
      ],
      "name": "create",
      "outputs": [
        {
          "internalType": "contract UniswapV3Oracle",
          "name": "oracle",
          "type": "address"
        }
      ],
      "stateMutability": "nonpayable",
      "type": "function"
    },
    {
      "inputs": [
        {
          "internalType": "bytes32",
          "name": "",
          "type": "bytes32"
        }
      ],
      "name": "getConfigAddress",
      "outputs": [
        {
          "internalType": "address",
          "name": "",
          "type": "address"
        }
      ],
      "stateMutability": "view",
      "type": "function"
    },
    {
      "inputs": [
        {
          "internalType": "address",
          "name": "",
          "type": "address"
        }
      ],
      "name": "getOracleAddress",
      "outputs": [
        {
          "internalType": "address",
          "name": "",
          "type": "address"
        }
      ],
      "stateMutability": "view",
      "type": "function"
    },
    {
      "inputs": [
        {
          "components": [
            {
              "internalType": "contract IUniswapV3Pool",
              "name": "pool",
              "type": "address"
            },
            {
              "internalType": "address",
              "name": "quoteToken",
              "type": "address"
            },
            {
              "internalType": "uint32",
              "name": "periodForAvgPrice",
              "type": "uint32"
            },
            {
              "internalType": "uint8",
              "name": "blockTime",
              "type": "uint8"
            }
          ],
          "internalType": "struct IUniswapV3Oracle.UniswapV3DeploymentConfig",
          "name": "_config",
          "type": "tuple"
        }
      ],
      "name": "hashConfig",
      "outputs": [
        {
          "internalType": "bytes32",
          "name": "configId",
          "type": "bytes32"
        }
      ],
      "stateMutability": "view",
      "type": "function"
    },
    {
      "inputs": [
        {
          "internalType": "contract IUniswapV3Pool",
          "name": "_pool",
          "type": "address"
        },
        {
          "internalType": "uint16",
          "name": "_requiredCardinality",
          "type": "uint16"
        }
      ],
      "name": "observationsStatus",
      "outputs": [
        {
          "internalType": "bool",
          "name": "bufferFull",
          "type": "bool"
        },
        {
          "internalType": "bool",
          "name": "enoughObservations",
          "type": "bool"
        },
        {
          "internalType": "uint16",
          "name": "currentCardinality",
          "type": "uint16"
        }
      ],
      "stateMutability": "view",
      "type": "function"
    },
    {
      "inputs": [
        {
          "components": [
            {
              "internalType": "contract IUniswapV3Pool",
              "name": "pool",
              "type": "address"
            },
            {
              "internalType": "address",
              "name": "quoteToken",
              "type": "address"
            },
            {
              "internalType": "uint32",
              "name": "periodForAvgPrice",
              "type": "uint32"
            },
            {
              "internalType": "uint8",
              "name": "blockTime",
              "type": "uint8"
            }
          ],
          "internalType": "struct IUniswapV3Oracle.UniswapV3DeploymentConfig",
          "name": "_config",
          "type": "tuple"
        }
      ],
      "name": "verifyConfig",
      "outputs": [
        {
          "internalType": "uint16",
          "name": "requiredCardinality",
          "type": "uint16"
        }
      ],
      "stateMutability": "view",
      "type": "function"
    },
    {
      "inputs": [
        {
          "internalType": "contract IUniswapV3Pool",
          "name": "_pool",
          "type": "address"
        },
        {
          "internalType": "address",
          "name": "_quoteToken",
          "type": "address"
        },
        {
          "internalType": "uint16",
          "name": "_requiredCardinality",
          "type": "uint16"
        }
      ],
      "name": "verifyPool",
      "outputs": [],
      "stateMutability": "view",
      "type": "function"
    }
  ],
  "bytecode": "0x60c06040523480156200001157600080fd5b5060405162002c7b38038062002c7b833981016040819052620000349162000163565b604051620000429062000155565b604051809103906000f0801580156200005f573d6000803e3d6000fd5b506001600160a01b038116620000aa576040805162461bcd60e51b815260206004820152600b60248201526a5a65726f4164647265737360a81b604482015290519081900360640190fd5b60601b6001600160601b0319166080526040516322afcccb60e01b81526001600160a01b038216906322afcccb90620000ea906103e890600401620001b6565b60206040518083038186803b1580156200010357600080fd5b505afa15801562000118573d6000803e3d6000fd5b505050506040513d601f19601f820116820180604052508101906200013e919062000193565b5060601b6001600160601b03191660a052620001c6565b61168e80620015ed83390190565b60006020828403121562000175578081fd5b81516001600160a01b03811681146200018c578182fd5b9392505050565b600060208284031215620001a5578081fd5b81518060020b81146200018c578182fd5b62ffffff91909116815260200190565b60805160601c60a05160601c6113f3620001fa6000398061034152806108c15250806106b0528061084d52506113f36000f3fe60806040523480156200001157600080fd5b5060043610620000a05760003560e01c8063a8f39f66116200006f578063a8f39f66146200012a578063b36f41481462000134578063b76265fd146200015a578063e2d4624d1462000182578063f896503a146200018c57620000a0565b80635448217314620000a55780635784b41314620000d4578063931a5f2a14620000ed5780639b71f5861462000104575b600080fd5b620000bc620000b636600462000b1b565b620001a3565b604051620000cb919062000dc0565b60405180910390f35b620000eb620000e536600462000b79565b620001be565b005b620000bc620000fe36600462000c07565b62000609565b6200011b6200011536600462000c07565b6200074f565b604051620000cb919062001001565b620000bc6200084b565b6200014b6200014536600462000c07565b6200086f565b604051620000cb919062000e18565b620001716200016b36600462000bca565b620008a1565b604051620000cb9392919062000dfc565b620000bc620008bf565b620000bc6200019d36600462000b60565b620008e3565b6001602052600090815260409020546001600160a01b031681565b6000836001600160a01b0316630dfe16816040518163ffffffff1660e01b815260040160206040518083038186803b158015620001fa57600080fd5b505afa1580156200020f573d6000803e3d6000fd5b505050506040513d601f19601f8201168201806040525081019062000235919062000b41565b90506000846001600160a01b031663d21220a76040518163ffffffff1660e01b815260040160206040518083038186803b1580156200027357600080fd5b505afa15801562000288573d6000803e3d6000fd5b505050506040513d601f19601f82011682018060405250810190620002ae919062000b41565b9050836001600160a01b0316826001600160a01b031614158015620002e55750836001600160a01b0316816001600160a01b031614155b156200030e5760405162461bcd60e51b8152600401620003059062000f4f565b60405180910390fd5b6000826001600160a01b0316856001600160a01b03161462000331578262000333565b815b9050856001600160a01b03167f00000000000000000000000000000000000000000000000000000000000000006001600160a01b0316631698ee8287848a6001600160a01b031663ddca3f436040518163ffffffff1660e01b815260040160206040518083038186803b158015620003aa57600080fd5b505afa158015620003bf573d6000803e3d6000fd5b505050506040513d601f19601f82011682018060405250810190620003e5919062000d48565b6040518463ffffffff1660e01b8152600401620004059392919062000dd4565b60206040518083038186803b1580156200041e57600080fd5b505afa15801562000433573d6000803e3d6000fd5b505050506040513d601f19601f8201168201806040525081019062000459919062000b41565b6001600160a01b031614620004825760405162461bcd60e51b8152600401620003059062000e81565b6040516370a0823160e01b81526000906001600160a01b038516906370a0823190620004b3908a9060040162000dc0565b60206040518083038186803b158015620004cc57600080fd5b505afa158015620004e1573d6000803e3d6000fd5b505050506040513d601f19601f8201168201806040525081019062000507919062000d6d565b905080620005295760405162461bcd60e51b8152600401620003059062000f07565b6040516370a0823160e01b81526001600160a01b038416906370a082319062000557908a9060040162000dc0565b60206040518083038186803b1580156200057057600080fd5b505afa15801562000585573d6000803e3d6000fd5b505050506040513d601f19601f82011682018060405250810190620005ab919062000d6d565b905080620005cd5760405162461bcd60e51b8152600401620003059062000f2b565b6000620005db8887620008fe565b5050905080620005ff5760405162461bcd60e51b8152600401620003059062000f86565b5050505050505050565b60008062000617836200086f565b6000818152602081905260409020549091506001600160a01b031680156200065e576001600160a01b039081166000908152600160205260409020541691506200074a9050565b60006200066b856200074f565b905084816040516200067d9062000b0d565b6200068a92919062000fe0565b604051809103906000f080158015620006a7573d6000803e3d6000fd5b509150620006d57f00000000000000000000000000000000000000000000000000000000000000006200099e565b9350620006e484838562000a3c565b60405163189acdbd60e31b81526001600160a01b0385169063c4d66de8906200071290859060040162000dc0565b600060405180830381600087803b1580156200072d57600080fd5b505af115801562000742573d6000803e3d6000fd5b505050505050505b919050565b6000816060015160ff16600014156200077c5760405162461bcd60e51b8152600401620003059062000ea6565b604082015163ffffffff16620007a65760405162461bcd60e51b8152600401620003059062000ed0565b6000826060015160ff16836040015163ffffffff16600a0281620007c657fe5b04905061ffff811115620007ee5760405162461bcd60e51b8152600401620003059062000e21565b82516001600160a01b0316620008185760405162461bcd60e51b8152600401620003059062000fad565b60208301516001600160a01b0316620008455760405162461bcd60e51b8152600401620003059062000e58565b92915050565b7f000000000000000000000000000000000000000000000000000000000000000081565b60008160405160200162000884919062000fd0565b604051602081830303815290604052805190602001209050919050565b6000806000620008b28585620008fe565b9250925092509250925092565b7f000000000000000000000000000000000000000000000000000000000000000081565b6000602081905290815260409020546001600160a01b031681565b6000806000806000866001600160a01b0316633850c7bd6040518163ffffffff1660e01b815260040160e06040518083038186803b1580156200094057600080fd5b505afa15801562000955573d6000803e3d6000fd5b505050506040513d601f19601f820116820180604052508101906200097b919062000c96565b505061ffff9a8b168b83168111159d9b90911610159a5098975050505050505050565b6000604051733d602d80600a3d3981f3363d3d373d3d3d363d7360601b81528260601b60148201526e5af43d82803e903d91602b57fd5bf360881b60288201526037816000f09150506001600160a01b0381166200074a576040805162461bcd60e51b8152602060048201526016602482015275115490cc4c4d8dce8818dc99585d194819985a5b195960521b604482015290519081900360640190fd5b6000818152602081905260409020546001600160a01b03161562000a9c576040805162461bcd60e51b815260206004820152601260248201527110dbdb999a59d05b1c9958591e515e1a5cdd60721b604482015290519081900360640190fd5b60008181526020818152604080832080546001600160a01b038088166001600160a01b03199283168117909355918552600190935281842080549188169190931681179092555190917fb3eacd0e351fafdfefdec84e1cd19679b38dbcd63ea7c2c24da17fd2bc3b3c0e91a2505050565b610373806200104b83390190565b60006020828403121562000b2d578081fd5b813562000b3a8162001010565b9392505050565b60006020828403121562000b53578081fd5b815162000b3a8162001010565b60006020828403121562000b72578081fd5b5035919050565b60008060006060848603121562000b8e578182fd5b833562000b9b8162001010565b9250602084013562000bad8162001010565b9150604084013562000bbf8162001029565b809150509250925092565b6000806040838503121562000bdd578182fd5b823562000bea8162001010565b9150602083013562000bfc8162001029565b809150509250929050565b60006080828403121562000c19578081fd5b6040516080810181811067ffffffffffffffff8211171562000c3757fe5b604052823562000c478162001010565b8152602083013562000c598162001010565b6020820152604083013563ffffffff8116811462000c75578283fd5b6040820152606083013562000c8a816200103a565b60608201529392505050565b600080600080600080600060e0888a03121562000cb1578283fd5b875162000cbe8162001010565b8097505060208801518060020b811462000cd6578384fd5b604089015190965062000ce98162001029565b606089015190955062000cfc8162001029565b608089015190945062000d0f8162001029565b60a089015190935062000d22816200103a565b60c0890151909250801515811462000d38578182fd5b8091505092959891949750929550565b60006020828403121562000d5a578081fd5b815162ffffff8116811462000b3a578182fd5b60006020828403121562000d7f578081fd5b5051919050565b80516001600160a01b0390811683526020808301519091169083015260408082015163ffffffff169083015260609081015160ff16910152565b6001600160a01b0391909116815260200190565b6001600160a01b03938416815291909216602082015262ffffff909116604082015260600190565b9215158352901515602083015261ffff16604082015260600190565b90815260200190565b6020808252601a908201527f496e76616c6964526571756972656443617264696e616c697479000000000000604082015260600190565b6020808252600f908201526e22b6b83a3ca8bab7ba32aa37b5b2b760891b604082015260600190565b6020808252600b908201526a125b9d985b1a59141bdbdb60aa1b604082015260600190565b60208082526010908201526f496e76616c6964426c6f636b54696d6560801b604082015260600190565b60208082526018908201527f496e76616c6964506572696f64466f7241766750726963650000000000000000604082015260600190565b6020808252600a90820152690456d707479506f6f6c360b41b604082015260600190565b6020808252600a9082015269456d707479506f6f6c3160b01b604082015260600190565b60208082526018908201527f496e76616c6964506f6f6c466f7251756f7465546f6b656e0000000000000000604082015260600190565b6020808252600d908201526c109d5999995c939bdd119d5b1b609a1b604082015260600190565b602080825260099082015268115b5c1d1e541bdbdb60ba1b604082015260600190565b6080810162000845828462000d86565b60a0810162000ff0828562000d86565b61ffff831660808301529392505050565b61ffff91909116815260200190565b6001600160a01b03811681146200102657600080fd5b50565b61ffff811681146200102657600080fd5b60ff811681146200102657600080fdfe61012060405234801561001157600080fd5b50604051610373380380610373833981016040819052610030916100d0565b60f01b6001600160f01b03191660e09081528151606090811b6001600160601b03199081166080526020840151821b1660a052604083015190911b6001600160e01b03191660c052015160f81b7fff00000000000000000000000000000000000000000000000000000000000000166101005261018b565b805161ffff811681146100ba57600080fd5b919050565b805160ff811681146100ba57600080fd5b60008082840360a08112156100e3578283fd5b60808112156100f0578283fd5b50604051608081016001600160401b038111828210171561010d57fe5b604052835161011b81610173565b8152602084015161012b81610173565b6020820152604084015163ffffffff81168114610146578384fd5b6040820152610157606085016100bf565b6060820152915061016a608084016100a8565b90509250929050565b6001600160a01b038116811461018857600080fd5b50565b60805160601c60a05160601c60c05160e01c60e05160f01c6101005160f81c6101a36101d0600039508060db52508060b15250806085525080606052506101a36000f3fe608060405234801561001057600080fd5b506004361061002b5760003560e01c8063c3f909d414610030575b600080fd5b61003861004e565b604051610045919061012a565b60405180910390f35b610056610103565b6001600160a01b037f0000000000000000000000000000000000000000000000000000000000000000811682527f000000000000000000000000000000000000000000000000000000000000000016602082015263ffffffff7f000000000000000000000000000000000000000000000000000000000000000016604082015261ffff7f000000000000000000000000000000000000000000000000000000000000000016606082015290565b60408051608081018252600080825260208201819052918101829052606081019190915290565b81516001600160a01b0390811682526020808401519091169082015260408083015163ffffffff169082015260609182015161ffff16918101919091526080019056fea2646970667358221220de3e07b0983d018328a4d9cf4f03b4c4e230868148a37f5e4093d29945c564f364736f6c63430007060033a264697066735822122046cf6c48f68b2cafc8db1b0efd218d4e1dc1beff5b8eeead52ebc82db7d7b49d64736f6c63430007060033608060405234801561001057600080fd5b5061166e806100206000396000f3fe608060405234801561001057600080fd5b50600436106100935760003560e01c80636a6acf22116100665780636a6acf22146100e85780639af0a55114610108578063c4d66de814610110578063dd3c351714610123578063f9fa619a1461012b57610093565b806313b0be3314610098578063217a4b70146100c1578063324b8d6e146100d657806368a79f9c146100de575b600080fd5b6100ab6100a63660046113c6565b61013e565b6040516100b891906114a8565b60405180910390f35b6100c961027c565b6040516100b8919061144a565b6100c961030c565b6100e6610321565b005b6100fb6100f636600461125f565b6104bc565b6040516100b89190611592565b6100fb6105ea565b6100e661011e366004611182565b61070d565b6100ab61080a565b6100e6610139366004611182565b610849565b60006001600160801b038311156101705760405162461bcd60e51b8152600401610167906114b1565b60405180910390fd5b60008060029054906101000a90046001600160a01b03166001600160a01b031663c3f909d46040518163ffffffff1660e01b815260040160806040518083038186803b1580156101bf57600080fd5b505afa1580156101d3573d6000803e3d6000fd5b505050506040513d601f19601f820116820180604052508101906101f791906112a9565b905080602001516001600160a01b0316836001600160a01b0316141561022f5760405162461bcd60e51b81526004016101679061155c565b60006102438260000151836040015161084c565b905061025581868685602001516108e0565b9250826102745760405162461bcd60e51b8152600401610167906114d3565b505092915050565b60008060029054906101000a90046001600160a01b03166001600160a01b031663c3f909d46040518163ffffffff1660e01b815260040160806040518083038186803b1580156102cb57600080fd5b505afa1580156102df573d6000803e3d6000fd5b505050506040513d601f19601f8201168201806040525081019061030391906112a9565b60200151905090565b6000546201000090046001600160a01b031681565b60008060029054906101000a90046001600160a01b03166001600160a01b031663c3f909d46040518163ffffffff1660e01b815260040160806040518083038186803b15801561037057600080fd5b505afa158015610384573d6000803e3d6000fd5b505050506040513d601f19601f820116820180604052508101906103a891906112a9565b9050600081600001516001600160a01b0316633850c7bd6040518163ffffffff1660e01b815260040160e06040518083038186803b1580156103e957600080fd5b505afa1580156103fd573d6000803e3d6000fd5b505050506040513d601f19601f820116820180604052508101906104219190611325565b5050945050505050816060015161ffff168161ffff16106104545760405162461bcd60e51b815260040161016790611519565b815160608301516040516332148f6760e01b81526001600160a01b03909216916332148f679161048691600401611583565b600060405180830381600087803b1580156104a057600080fd5b505af11580156104b4573d6000803e3d6000fd5b505050505050565b600080846001600160a01b031663252c09d78461ffff168660010161ffff16816104e257fe5b066040518263ffffffff1660e01b81526004016104ff9190611583565b60806040518083038186803b15801561051757600080fd5b505afa15801561052b573d6000803e3d6000fd5b505050506040513d601f19601f8201168201806040525081019061054f91906113f5565b9294509192508291506105e290505760405163252c09d760e01b81526001600160a01b0386169063252c09d79061058b906000906004016114a8565b60806040518083038186803b1580156105a357600080fd5b505afa1580156105b7573d6000803e3d6000fd5b505050506040513d601f19601f820116820180604052508101906105db91906113f5565b5091935050505b509392505050565b600080600060029054906101000a90046001600160a01b03166001600160a01b031663c3f909d46040518163ffffffff1660e01b815260040160806040518083038186803b15801561063b57600080fd5b505afa15801561064f573d6000803e3d6000fd5b505050506040513d601f19601f8201168201806040525081019061067391906112a9565b905060008082600001516001600160a01b0316633850c7bd6040518163ffffffff1660e01b815260040160e06040518083038186803b1580156106b557600080fd5b505afa1580156106c9573d6000803e3d6000fd5b505050506040513d601f19601f820116820180604052508101906106ed9190611325565b505050935093505050610705836000015183836104bc565b935050505090565b600054610100900460ff168061072657506107266109d7565b80610734575060005460ff16155b61076f5760405162461bcd60e51b815260040180806020018281038252602e81526020018061160b602e913960400191505060405180910390fd5b600054610100900460ff1615801561079a576000805460ff1961ff0019909116610100171660011790555b6000805462010000600160b01b031916620100006001600160a01b038516021790556040517fed1366a3ee45e9f12efb7c60c52c940da558f2e33acd595abf783bd741c2efcf906107ec90849061144a565b60405180910390a18015610806576000805461ff00191690555b5050565b6040516024016108199061153f565b60408051601f198184030181529190526020810180516001600160e01b031662461bcd60e51b1781529051902081565b50565b600080600061085b85856109e8565b9150915060008160008151811061086e57fe5b60200260200101518260018151811061088357fe5b60200260200101510390508263ffffffff168160060b816108a057fe5b05935060008160060b1280156108ca57508263ffffffff168160060b816108c357fe5b0760060b15155b156108d757600019909301925b50505092915050565b6000806108ec86610ad2565b90506001600160801b036001600160a01b0382161161095b576001600160a01b038082168002908481169086161061093b57610936600160c01b876001600160801b031683610e04565b610953565b61095381876001600160801b0316600160c01b610e04565b9250506109ce565b600061097a6001600160a01b0383168068010000000000000000610e04565b9050836001600160a01b0316856001600160a01b0316106109b2576109ad600160801b876001600160801b031683610e04565b6109ca565b6109ca81876001600160801b0316600160801b610e04565b9250505b50949350505050565b60006109e230610eb4565b15905090565b80606060006109f78584610ebe565b90925090508015610aca57600080866001600160a01b0316633850c7bd6040518163ffffffff1660e01b815260040160e06040518083038186803b158015610a3e57600080fd5b505afa158015610a52573d6000803e3d6000fd5b505050506040513d601f19601f82011682018060405250810190610a769190611325565b5050509350935050506000610a8c8884846104bc565b90508063ffffffff1642039550610aa38887610ebe565b90955093508315610ac65760405162461bcd60e51b8152600401610167906114f6565b5050505b509250929050565b60008060008360020b12610ae9578260020b610af1565b8260020b6000035b9050620d89e8811115610b2f576040805162461bcd60e51b81526020600482015260016024820152601560fa1b604482015290519081900360640190fd5b600060018216610b4357600160801b610b55565b6ffffcb933bd6fad37aa2d162d1a5940015b70ffffffffffffffffffffffffffffffffff1690506002821615610b89576ffff97272373d413259a46990580e213a0260801c5b6004821615610ba8576ffff2e50f5f656932ef12357cf3c7fdcc0260801c5b6008821615610bc7576fffe5caca7e10e4e61c3624eaa0941cd00260801c5b6010821615610be6576fffcb9843d60f6159c9db58835c9266440260801c5b6020821615610c05576fff973b41fa98c081472e6896dfb254c00260801c5b6040821615610c24576fff2ea16466c96a3843ec78b326b528610260801c5b6080821615610c43576ffe5dee046a99a2a811c461f1969c30530260801c5b610100821615610c63576ffcbe86c7900a88aedcffc83b479aa3a40260801c5b610200821615610c83576ff987a7253ac413176f2b074cf7815e540260801c5b610400821615610ca3576ff3392b0822b70005940c7a398e4b70f30260801c5b610800821615610cc3576fe7159475a2c29b7443b29c7fa6e889d90260801c5b611000821615610ce3576fd097f3bdfd2022b8845ad8f792aa58250260801c5b612000821615610d03576fa9f746462d870fdf8a65dc1f90e061e50260801c5b614000821615610d23576f70d869a156d2a1b890bb3df62baf32f70260801c5b618000821615610d43576f31be135f97d08fd981231505542fcfa60260801c5b62010000821615610d64576f09aa508b5b7a84e1c677de54f3e99bc90260801c5b62020000821615610d84576e5d6af8dedb81196699c329225ee6040260801c5b62040000821615610da3576d2216e584f5fa1ea926041bedfe980260801c5b62080000821615610dc0576b048a170391f7dc42444e8fa20260801c5b60008460020b1315610ddb578060001981610dd757fe5b0490505b640100000000810615610def576001610df2565b60005b60ff16602082901c0192505050919050565b6000808060001985870986860292508281109083900303905080610e3a5760008411610e2f57600080fd5b508290049050610ead565b808411610e4657600080fd5b6000848688096000868103871696879004966002600389028118808a02820302808a02820302808a02820302808a02820302808a02820302808a02909103029181900381900460010186841190950394909402919094039290920491909117919091029150505b9392505050565b803b15155b919050565b604080516002808252606082810190935260009182918160200160208202803683370190505090508381600081518110610ef457fe5b63ffffffff9092166020928302919091019091015260405163883bdbfd60e01b81526001600160a01b0386169063883bdbfd90610f3590849060040161145e565b60006040518083038186803b158015610f4d57600080fd5b505afa925050508015610f8257506040513d6000823e601f3d908101601f19168201604052610f7f919081019061119e565b60015b611036573d808015610fb0576040519150601f19603f3d011682016040523d82523d6000602084013e610fb5565b606091505b50604051602401610fc59061153f565b60408051601f19818403018152919052602080820180516001600160e01b031662461bcd60e51b17815291519091208251918301919091201461102c576040805180820190915260088152675f6f62736572766560c01b602082015261102c908290611043565b6001925050610aca565b5095600095509350505050565b81511561105257815182602001fd5b8060405162461bcd60e51b81526004018080602001828103825283818151815260200191508051906020019080838360005b8381101561109c578181015183820152602001611084565b50505050905090810190601f1680156110c95780820380516001836020036101000a031916815260200191505b509250505060405180910390fd5b600082601f8301126110e7578081fd5b815160206110fc6110f7836115c7565b6115a3565b8281528181019085830183850287018401881015611118578586fd5b855b8581101561113f57815161112d816115e5565b8452928401929084019060010161111a565b5090979650505050505050565b80518015158114610eb957600080fd5b8051600681900b8114610eb957600080fd5b805163ffffffff81168114610eb957600080fd5b600060208284031215611193578081fd5b8135610ead816115e5565b600080604083850312156111b0578081fd5b825167ffffffffffffffff808211156111c7578283fd5b818501915085601f8301126111da578283fd5b815160206111ea6110f7836115c7565b82815281810190858301838502870184018b1015611206578788fd5b8796505b8487101561122f5761121b8161115c565b83526001969096019591830191830161120a565b5091880151919650909350505080821115611248578283fd5b50611255858286016110d7565b9150509250929050565b600080600060608486031215611273578081fd5b833561127e816115e5565b9250602084013561128e816115fa565b9150604084013561129e816115fa565b809150509250925092565b6000608082840312156112ba578081fd5b6040516080810181811067ffffffffffffffff821117156112d757fe5b60405282516112e5816115e5565b815260208301516112f5816115e5565b60208201526113066040840161116e565b60408201526060830151611319816115fa565b60608201529392505050565b600080600080600080600060e0888a03121561133f578283fd5b875161134a816115e5565b8097505060208801518060020b8114611361578384fd5b6040890151909650611372816115fa565b6060890151909550611383816115fa565b6080890151909450611394816115fa565b60a089015190935060ff811681146113aa578283fd5b91506113b860c0890161114c565b905092959891949750929550565b600080604083850312156113d8578182fd5b8235915060208301356113ea816115e5565b809150509250929050565b6000806000806080858703121561140a578182fd5b6114138561116e565b93506114216020860161115c565b92506040850151611431816115e5565b915061143f6060860161114c565b905092959194509250565b6001600160a01b0391909116815260200190565b6020808252825182820181905260009190848201906040850190845b8181101561149c57835163ffffffff168352928401929184019160010161147a565b50909695505050505050565b90815260200190565b6020808252600890820152674f766572666c6f7760c01b604082015260600190565b6020808252600990820152685a65726f51756f746560b81b604082015260600190565b60208082526009908201526814d51253130813d31160ba1b604082015260600190565b6020808252600c908201526b4e6f744e656365737361727960a01b604082015260600190565b60208082526003908201526213d31160ea1b604082015260600190565b6020808252600d908201526c155cd950985cd9505b5bdd5b9d609a1b604082015260600190565b61ffff91909116815260200190565b63ffffffff91909116815260200190565b60405181810167ffffffffffffffff811182821017156115bf57fe5b604052919050565b600067ffffffffffffffff8211156115db57fe5b5060209081020190565b6001600160a01b038116811461084957600080fd5b61ffff8116811461084957600080fdfe496e697469616c697a61626c653a20636f6e747261637420697320616c726561647920696e697469616c697a6564a264697066735822122088b241564cbb34850a92c09ca9c6a74901d68cee3ef9597ad476e7bc9973e3e264736f6c63430007060033",
  "language": "Solidity",
  "compiler": "0.7.6+commit.7338295f"
}