{
  "_format": "hh-sol-artifact-1",
  "contractName": "MockGearboxVault",
  "sourceName": "contracts/test/MockGearboxVault.sol",
  "abi": [
    {
      "inputs": [
        {
          "internalType": "address",
          "name": "underlyingTokenAddress",
          "type": "address"
        }
      ],
      "stateMutability": "nonpayable",
      "type": "constructor"
    },
    {
      "inputs": [
        {
          "internalType": "uint256",
          "name": "amount",
          "type": "uint256"
        },
        {
          "internalType": "address",
          "name": "onBehalfOf",
          "type": "address"
        },
        {
          "internalType": "uint256",
          "name": "",
          "type": "uint256"
        }
      ],
      "name": "addLiquidity",
      "outputs": [],
      "stateMutability": "nonpayable",
      "type": "function"
    },
    {
      "inputs": [
        {
          "internalType": "uint256",
          "name": "amountDiesel",
          "type": "uint256"
        }
      ],
      "name": "fromDiesel",
      "outputs": [
        {
          "internalType": "uint256",
          "name": "",
          "type": "uint256"
        }
      ],
      "stateMutability": "view",
      "type": "function"
    },
    {
      "inputs": [],
      "name": "getDieselRate_RAY",
      "outputs": [
        {
          "internalType": "uint256",
          "name": "",
          "type": "uint256"
        }
      ],
      "stateMutability": "view",
      "type": "function"
    },
    {
      "inputs": [
        {
          "internalType": "uint256",
          "name": "wrappedAmount",
          "type": "uint256"
        },
        {
          "internalType": "address",
          "name": "to",
          "type": "address"
        }
      ],
      "name": "removeLiquidity",
      "outputs": [],
      "stateMutability": "nonpayable",
      "type": "function"
    },
    {
      "inputs": [
        {
          "internalType": "address",
          "name": "dieselTokenAddress",
          "type": "address"
        }
      ],
      "name": "setDieselToken",
      "outputs": [],
      "stateMutability": "nonpayable",
      "type": "function"
    },
    {
      "inputs": [
        {
          "internalType": "uint256",
          "name": "amountUnderlying",
          "type": "uint256"
        }
      ],
      "name": "toDiesel",
      "outputs": [
        {
          "internalType": "uint256",
          "name": "",
          "type": "uint256"
        }
      ],
      "stateMutability": "view",
      "type": "function"
    },
    {
      "inputs": [],
      "name": "underlyingToken",
      "outputs": [
        {
          "internalType": "address",
          "name": "",
          "type": "address"
        }
      ],
      "stateMutability": "view",
      "type": "function"
    }
  ],
  "bytecode": "0x60c06040526b033b2e3c9fd0803ce800000060805234801561002057600080fd5b506040516108da3803806108da8339818101604052602081101561004357600080fd5b5051606081901b6001600160601b03191660a052608051906001600160a01b031661084561009560003980610267528061029552806103115250806102d5528061043152806104fe52506108456000f3fe608060405234801561001057600080fd5b506004361061007d5760003560e01c80635427c9381161005b5780635427c9381461011d578063788c6bfe1461013a5780639aa5d46214610142578063a245a295146101815761007d565b806305fe138b146100825780632495a599146100bd5780634d778ad1146100ee575b600080fd5b6100bb6004803603604081101561009857600080fd5b508035906020013573ffffffffffffffffffffffffffffffffffffffff166101b4565b005b6100c5610293565b6040805173ffffffffffffffffffffffffffffffffffffffff9092168252519081900360200190f35b61010b6004803603602081101561010457600080fd5b50356102b7565b60408051918252519081900360200190f35b61010b6004803603602081101561013357600080fd5b50356102c8565b61010b6102d3565b6100bb6004803603606081101561015857600080fd5b5080359073ffffffffffffffffffffffffffffffffffffffff60208201351690604001356102f7565b6100bb6004803603602081101561019757600080fd5b503573ffffffffffffffffffffffffffffffffffffffff166103dd565b60008054604080517f7c602bc200000000000000000000000000000000000000000000000000000000815233600482015260248101869052905173ffffffffffffffffffffffffffffffffffffffff90921692637c602bc29260448084019382900301818387803b15801561022857600080fd5b505af115801561023c573d6000803e3d6000fd5b50505050600061024b83610424565b905061028e73ffffffffffffffffffffffffffffffffffffffff7f0000000000000000000000000000000000000000000000000000000000000000168383610463565b505050565b7f000000000000000000000000000000000000000000000000000000000000000090565b60006102c2826104f0565b92915050565b60006102c282610424565b7f000000000000000000000000000000000000000000000000000000000000000090565b61033973ffffffffffffffffffffffffffffffffffffffff7f000000000000000000000000000000000000000000000000000000000000000016333086610522565b6000610344846104f0565b60008054604080517f40c10f1900000000000000000000000000000000000000000000000000000000815273ffffffffffffffffffffffffffffffffffffffff88811660048301526024820186905291519495509116926340c10f199260448084019391929182900301818387803b1580156103bf57600080fd5b505af11580156103d3573d6000803e3d6000fd5b5050505050505050565b600080547fffffffffffffffffffffffff00000000000000000000000000000000000000001673ffffffffffffffffffffffffffffffffffffffff92909216919091179055565b6000633b9aca00610455837f00000000000000000000000000000000000000000000000000000000000000006105bd565b8161045c57fe5b0492915050565b6040805173ffffffffffffffffffffffffffffffffffffffff8416602482015260448082018490528251808303909101815260649091019091526020810180517bffffffffffffffffffffffffffffffffffffffffffffffffffffffff167fa9059cbb0000000000000000000000000000000000000000000000000000000017905261028e9084906105f5565b60006102c2633b9aca0083027f000000000000000000000000000000000000000000000000000000000000000061070b565b6040805173ffffffffffffffffffffffffffffffffffffffff80861660248301528416604482015260648082018490528251808303909101815260849091019091526020810180517bffffffffffffffffffffffffffffffffffffffffffffffffffffffff167f23b872dd000000000000000000000000000000000000000000000000000000001790526105b79085906105f5565b50505050565b60008282026105e18415806105da5750838583816105d757fe5b04145b6003610755565b670de0b6b3a7640000815b04949350505050565b600060608373ffffffffffffffffffffffffffffffffffffffff16836040518082805190602001908083835b6020831061065e57805182527fffffffffffffffffffffffffffffffffffffffffffffffffffffffffffffffe09092019160209182019101610621565b6001836020036101000a0380198251168184511680821785525050505050509050019150506000604051808303816000865af19150503d80600081146106c0576040519150601f19603f3d011682016040523d82523d6000602084013e6106c5565b606091505b509150915060008214156106dd573d6000803e3d6000fd5b6105b7815160001480610703575081806020019051602081101561070057600080fd5b50515b6101a2610755565b600061071a8215156004610755565b670de0b6b3a7640000830261074c8415806107455750670de0b6b3a764000085838161074257fe5b04145b6005610755565b8281816105ec57fe5b816107635761076381610767565b5050565b610791817f42414c0000000000000000000000000000000000000000000000000000000000610794565b50565b7f08c379a000000000000000000000000000000000000000000000000000000000600090815260206004526007602452600a808404818106603090810160081b958390069590950190829004918206850160101b01602363ffffff0060e086901c160160181b0190930160c81b60445260e882901c90606490fdfea26469706673582212206af840b992379bce62a4f2c568cb5557cabcef2320af5a0a6c8df6eba4fc9ff764736f6c63430007010033",
  "linkReferences": {},
  "deployedLinkReferences": {}
}