{
  "_format": "hh-sol-artifact-1",
  "contractName": "MockExternalAUMFees",
  "sourceName": "contracts/test/MockExternalAUMFees.sol",
  "abi": [
    {
      "inputs": [
        {
          "internalType": "uint256",
          "name": "totalSupply",
          "type": "uint256"
        },
        {
          "internalType": "uint256",
          "name": "currentTime",
          "type": "uint256"
        },
        {
          "internalType": "uint256",
          "name": "lastCollection",
          "type": "uint256"
        },
        {
          "internalType": "uint256",
          "name": "annualAumFeePercentage",
          "type": "uint256"
        }
      ],
      "name": "getAumFeesBptAmount",
      "outputs": [
        {
          "internalType": "uint256",
          "name": "",
          "type": "uint256"
        }
      ],
      "stateMutability": "pure",
      "type": "function"
    }
  ],
  "bytecode": "0x608060405234801561001057600080fd5b50610265806100206000396000f3fe608060405234801561001057600080fd5b506004361061002b5760003560e01c80632ce33a8114610030575b600080fd5b61004361003e3660046101f5565b610059565b6040516100509190610226565b60405180910390f35b600061006785858585610072565b90505b949350505050565b60008284111580610081575081155b1561008e5750600061006a565b600061009a86846100c1565b90508385036100b66100ac83836100e5565b6301e13380610109565b979650505050505050565b60006100de6100d084846100e5565b6100d984610129565b610109565b9392505050565b60008282026100de8415806101025750838583816100ff57fe5b04145b600361013b565b6000610118821515600461013b565b81838161012157fe5b049392505050565b670de0b6b3a764000081810391100290565b81610149576101498161014d565b5050565b610177817f42414c000000000000000000000000000000000000000000000000000000000061017a565b50565b7f08c379a000000000000000000000000000000000000000000000000000000000600090815260206004526007602452600a808404818106603090810160081b958390069590950190829004918206850160101b01602363ffffff0060e086901c160160181b0190930160c81b60445260e882901c90606490fd5b6000806000806080858703121561020a578384fd5b5050823594602084013594506040840135936060013592509050565b9081526020019056fea2646970667358221220c69044f03cff65f10011695833df4b612581bfe32176cadc9c1442f019b5f2b464736f6c63430007010033",
  "linkReferences": {},
  "deployedLinkReferences": {}
}