{
  "_format": "hh-sol-artifact-1",
  "contractName": "FactoryWidePauseWindow",
  "sourceName": "contracts/factories/FactoryWidePauseWindow.sol",
  "abi": [
    {
      "inputs": [
        {
          "internalType": "uint256",
          "name": "initialPauseWindowDuration",
          "type": "uint256"
        },
        {
          "internalType": "uint256",
          "name": "bufferPeriodDuration",
          "type": "uint256"
        }
      ],
      "stateMutability": "nonpayable",
      "type": "constructor"
    },
    {
      "inputs": [],
      "name": "getPauseConfiguration",
      "outputs": [
        {
          "internalType": "uint256",
          "name": "pauseWindowDuration",
          "type": "uint256"
        },
        {
          "internalType": "uint256",
          "name": "bufferPeriodDuration",
          "type": "uint256"
        }
      ],
      "stateMutability": "view",
      "type": "function"
    }
  ],
  "bytecode": "0x60e060405234801561001057600080fd5b5060405161024938038061024983398101604081905261002f916100ec565b610042630163f500831115610194610066565b6100546276a700821115610195610066565b608082905260a052420160c05261010f565b816100745761007481610078565b5050565b610088816210905360ea1b61008b565b50565b62461bcd60e51b600090815260206004526007602452600a808404818106603090810160081b958390069590950190829004918206850160101b01602363ffffff0060e086901c160160181b0190930160c81b60445260e882901c90606490fd5b600080604083850312156100fe578182fd5b505080516020909101519092909150565b60805160a05160c05161011161013860003980604e52806076525080609a5250506101116000f3fe6080604052348015600f57600080fd5b506004361060285760003560e01c80632da47c4014602d575b600080fd5b60336048565b604051603f92919060cd565b60405180910390f35b600080427f000000000000000000000000000000000000000000000000000000000000000081101560bf57807f00000000000000000000000000000000000000000000000000000000000000000392507f0000000000000000000000000000000000000000000000000000000000000000915060c8565b60009250600091505b509091565b91825260208201526040019056fea2646970667358221220407d2ba966aa7b82d086106bd8253780b3032ba86475c5b5fdb8929cea1146a464736f6c63430007010033",
  "linkReferences": {},
  "deployedLinkReferences": {}
}