{
  "_format": "hh-sol-artifact-1",
  "contractName": "MockEulerProtocol",
  "sourceName": "contracts/test/MockEulerProtocol.sol",
  "abi": [
    {
      "inputs": [
        {
          "internalType": "address",
          "name": "underlying",
          "type": "address"
        },
        {
          "internalType": "uint256",
          "name": "amount",
          "type": "uint256"
        },
        {
          "internalType": "address",
          "name": "relayer",
          "type": "address"
        }
      ],
      "name": "requestUnderlyingFromRelayer",
      "outputs": [],
      "stateMutability": "nonpayable",
      "type": "function"
    },
    {
      "inputs": [
        {
          "internalType": "address",
          "name": "underlying",
          "type": "address"
        },
        {
          "internalType": "uint256",
          "name": "amount",
          "type": "uint256"
        },
        {
          "internalType": "address",
          "name": "relayer",
          "type": "address"
        }
      ],
      "name": "sendUnderlyingToRelayer",
      "outputs": [],
      "stateMutability": "nonpayable",
      "type": "function"
    }
  ],
  "bytecode": "0x608060405234801561001057600080fd5b50610430806100206000396000f3fe608060405234801561001057600080fd5b50600436106100365760003560e01c80633d4216d91461003b578063d218fe8814610080575b600080fd5b61007e6004803603606081101561005157600080fd5b5073ffffffffffffffffffffffffffffffffffffffff8135811691602081013591604090910135166100c3565b005b61007e6004803603606081101561009657600080fd5b5073ffffffffffffffffffffffffffffffffffffffff8135811691602081013591604090910135166100ea565b6100e573ffffffffffffffffffffffffffffffffffffffff841682308561010b565b505050565b6100e573ffffffffffffffffffffffffffffffffffffffff841682846101a6565b6040805173ffffffffffffffffffffffffffffffffffffffff80861660248301528416604482015260648082018490528251808303909101815260849091019091526020810180517bffffffffffffffffffffffffffffffffffffffffffffffffffffffff167f23b872dd000000000000000000000000000000000000000000000000000000001790526101a090859061022f565b50505050565b6040805173ffffffffffffffffffffffffffffffffffffffff8416602482015260448082018490528251808303909101815260649091019091526020810180517bffffffffffffffffffffffffffffffffffffffffffffffffffffffff167fa9059cbb000000000000000000000000000000000000000000000000000000001790526100e59084905b600060608373ffffffffffffffffffffffffffffffffffffffff16836040518082805190602001908083835b6020831061029857805182527fffffffffffffffffffffffffffffffffffffffffffffffffffffffffffffffe0909201916020918201910161025b565b6001836020036101000a0380198251168184511680821785525050505050509050019150506000604051808303816000865af19150503d80600081146102fa576040519150601f19603f3d011682016040523d82523d6000602084013e6102ff565b606091505b50915091506000821415610317573d6000803e3d6000fd5b6101a081516000148061033d575081806020019051602081101561033a57600080fd5b50515b6101a28161034e5761034e81610352565b5050565b61037c817f42414c000000000000000000000000000000000000000000000000000000000061037f565b50565b7f08c379a000000000000000000000000000000000000000000000000000000000600090815260206004526007602452600a808404818106603090810160081b958390069590950190829004918206850160101b01602363ffffff0060e086901c160160181b0190930160c81b60445260e882901c90606490fdfea2646970667358221220690502b60e615c2518c6c0e1f8ebc0b959d4c43f331ec2a755cbbe81a9502dd164736f6c63430007010033",
  "linkReferences": {},
  "deployedLinkReferences": {}
}