{
  "address": "0x528E61638a72E60a1a127A80734B24D6369591a2",
  "abi": [
    {
      "inputs": [],
      "stateMutability": "nonpayable",
      "type": "constructor"
    },
    {
      "inputs": [],
      "name": "acceptOwnership",
      "outputs": [],
      "stateMutability": "nonpayable",
      "type": "function"
    },
    {
      "inputs": [
        {
          "internalType": "address",
          "name": "_silo",
          "type": "address"
        },
        {
          "internalType": "uint256",
          "name": "_action",
          "type": "uint256"
        },
        {
          "internalType": "bytes",
          "name": "_inputAndOutput",
          "type": "bytes"
        }
      ],
      "name": "afterAction",
      "outputs": [],
      "stateMutability": "nonpayable",
      "type": "function"
    },
    {
      "inputs": [
        {
          "internalType": "address",
          "name": "",
          "type": "address"
        },
        {
          "internalType": "uint256",
          "name": "",
          "type": "uint256"
        },
        {
          "internalType": "bytes",
          "name": "",
          "type": "bytes"
        }
      ],
      "name": "beforeAction",
      "outputs": [],
      "stateMutability": "nonpayable",
      "type": "function"
    },
    {
      "inputs": [
        {
          "internalType": "contract IShareToken",
          "name": "",
          "type": "address"
        }
      ],
      "name": "configuredGauges",
      "outputs": [
        {
          "internalType": "contract IGaugeLike",
          "name": "",
          "type": "address"
        }
      ],
      "stateMutability": "view",
      "type": "function"
    },
    {
      "inputs": [],
      "name": "gauge",
      "outputs": [
        {
          "internalType": "contract IGaugeLike",
          "name": "",
          "type": "address"
        }
      ],
      "stateMutability": "view",
      "type": "function"
    },
    {
      "inputs": [
        {
          "internalType": "address",
          "name": "_silo",
          "type": "address"
        }
      ],
      "name": "hookReceiverConfig",
      "outputs": [
        {
          "internalType": "uint24",
          "name": "hooksBefore",
          "type": "uint24"
        },
        {
          "internalType": "uint24",
          "name": "hooksAfter",
          "type": "uint24"
        }
      ],
      "stateMutability": "view",
      "type": "function"
    },
    {
      "inputs": [
        {
          "internalType": "contract ISiloConfig",
          "name": "_siloConfig",
          "type": "address"
        },
        {
          "internalType": "bytes",
          "name": "_data",
          "type": "bytes"
        }
      ],
      "name": "initialize",
      "outputs": [],
      "stateMutability": "nonpayable",
      "type": "function"
    },
    {
      "inputs": [
        {
          "internalType": "address",
          "name": "_collateralAsset",
          "type": "address"
        },
        {
          "internalType": "address",
          "name": "_debtAsset",
          "type": "address"
        },
        {
          "internalType": "address",
          "name": "_borrower",
          "type": "address"
        },
        {
          "internalType": "uint256",
          "name": "_debtToCover",
          "type": "uint256"
        },
        {
          "internalType": "bool",
          "name": "_receiveSToken",
          "type": "bool"
        }
      ],
      "name": "liquidationCall",
      "outputs": [
        {
          "internalType": "uint256",
          "name": "withdrawCollateral",
          "type": "uint256"
        },
        {
          "internalType": "uint256",
          "name": "repayDebtAssets",
          "type": "uint256"
        }
      ],
      "stateMutability": "nonpayable",
      "type": "function"
    },
    {
      "inputs": [
        {
          "internalType": "address",
          "name": "_borrower",
          "type": "address"
        }
      ],
      "name": "maxLiquidation",
      "outputs": [
        {
          "internalType": "uint256",
          "name": "collateralToLiquidate",
          "type": "uint256"
        },
        {
          "internalType": "uint256",
          "name": "debtToRepay",
          "type": "uint256"
        },
        {
          "internalType": "bool",
          "name": "sTokenRequired",
          "type": "bool"
        }
      ],
      "stateMutability": "view",
      "type": "function"
    },
    {
      "inputs": [],
      "name": "owner",
      "outputs": [
        {
          "internalType": "address",
          "name": "",
          "type": "address"
        }
      ],
      "stateMutability": "view",
      "type": "function"
    },
    {
      "inputs": [],
      "name": "pendingOwner",
      "outputs": [
        {
          "internalType": "address",
          "name": "",
          "type": "address"
        }
      ],
      "stateMutability": "view",
      "type": "function"
    },
    {
      "inputs": [
        {
          "internalType": "contract IShareToken",
          "name": "_shareToken",
          "type": "address"
        }
      ],
      "name": "removeGauge",
      "outputs": [],
      "stateMutability": "nonpayable",
      "type": "function"
    },
    {
      "inputs": [],
      "name": "renounceOwnership",
      "outputs": [],
      "stateMutability": "nonpayable",
      "type": "function"
    },
    {
      "inputs": [
        {
          "internalType": "contract IGaugeLike",
          "name": "_gauge",
          "type": "address"
        },
        {
          "internalType": "contract IShareToken",
          "name": "_shareToken",
          "type": "address"
        }
      ],
      "name": "setGauge",
      "outputs": [],
      "stateMutability": "nonpayable",
      "type": "function"
    },
    {
      "inputs": [],
      "name": "shareToken",
      "outputs": [
        {
          "internalType": "contract IShareToken",
          "name": "",
          "type": "address"
        }
      ],
      "stateMutability": "view",
      "type": "function"
    },
    {
      "inputs": [],
      "name": "siloConfig",
      "outputs": [
        {
          "internalType": "contract ISiloConfig",
          "name": "",
          "type": "address"
        }
      ],
      "stateMutability": "view",
      "type": "function"
    },
    {
      "inputs": [
        {
          "internalType": "address",
          "name": "newOwner",
          "type": "address"
        }
      ],
      "name": "transferOwnership",
      "outputs": [],
      "stateMutability": "nonpayable",
      "type": "function"
    },
    {
      "anonymous": false,
      "inputs": [
        {
          "indexed": false,
          "internalType": "address",
          "name": "gauge",
          "type": "address"
        },
        {
          "indexed": false,
          "internalType": "address",
          "name": "shareToken",
          "type": "address"
        }
      ],
      "name": "GaugeConfigured",
      "type": "event"
    },
    {
      "anonymous": false,
      "inputs": [
        {
          "indexed": false,
          "internalType": "address",
          "name": "shareToken",
          "type": "address"
        }
      ],
      "name": "GaugeRemoved",
      "type": "event"
    },
    {
      "anonymous": false,
      "inputs": [
        {
          "indexed": false,
          "internalType": "address",
          "name": "silo",
          "type": "address"
        },
        {
          "indexed": false,
          "internalType": "uint24",
          "name": "hooksBefore",
          "type": "uint24"
        },
        {
          "indexed": false,
          "internalType": "uint24",
          "name": "hooksAfter",
          "type": "uint24"
        }
      ],
      "name": "HookConfigured",
      "type": "event"
    },
    {
      "anonymous": false,
      "inputs": [
        {
          "indexed": false,
          "internalType": "uint64",
          "name": "version",
          "type": "uint64"
        }
      ],
      "name": "Initialized",
      "type": "event"
    },
    {
      "anonymous": false,
      "inputs": [
        {
          "indexed": true,
          "internalType": "address",
          "name": "liquidator",
          "type": "address"
        },
        {
          "indexed": false,
          "internalType": "bool",
          "name": "receiveSToken",
          "type": "bool"
        }
      ],
      "name": "LiquidationCall",
      "type": "event"
    },
    {
      "anonymous": false,
      "inputs": [
        {
          "indexed": true,
          "internalType": "address",
          "name": "previousOwner",
          "type": "address"
        },
        {
          "indexed": true,
          "internalType": "address",
          "name": "newOwner",
          "type": "address"
        }
      ],
      "name": "OwnershipTransferStarted",
      "type": "event"
    },
    {
      "anonymous": false,
      "inputs": [
        {
          "indexed": true,
          "internalType": "address",
          "name": "previousOwner",
          "type": "address"
        },
        {
          "indexed": true,
          "internalType": "address",
          "name": "newOwner",
          "type": "address"
        }
      ],
      "name": "OwnershipTransferred",
      "type": "event"
    },
    {
      "inputs": [
        {
          "internalType": "address",
          "name": "target",
          "type": "address"
        }
      ],
      "name": "AddressEmptyCode",
      "type": "error"
    },
    {
      "inputs": [],
      "name": "AlreadyConfigured",
      "type": "error"
    },
    {
      "inputs": [],
      "name": "CantRemoveActiveGauge",
      "type": "error"
    },
    {
      "inputs": [],
      "name": "DebtToCoverTooSmall",
      "type": "error"
    },
    {
      "inputs": [],
      "name": "EmptyDebtToCover",
      "type": "error"
    },
    {
      "inputs": [],
      "name": "EmptyGaugeAddress",
      "type": "error"
    },
    {
      "inputs": [],
      "name": "EmptySiloConfig",
      "type": "error"
    },
    {
      "inputs": [],
      "name": "FailedCall",
      "type": "error"
    },
    {
      "inputs": [],
      "name": "GaugeAlreadyConfigured",
      "type": "error"
    },
    {
      "inputs": [],
      "name": "GaugeIsNotConfigured",
      "type": "error"
    },
    {
      "inputs": [],
      "name": "Insolvency",
      "type": "error"
    },
    {
      "inputs": [
        {
          "internalType": "uint256",
          "name": "balance",
          "type": "uint256"
        },
        {
          "internalType": "uint256",
          "name": "needed",
          "type": "uint256"
        }
      ],
      "name": "InsufficientBalance",
      "type": "error"
    },
    {
      "inputs": [],
      "name": "InsufficientLiquidation",
      "type": "error"
    },
    {
      "inputs": [],
      "name": "InvalidInitialization",
      "type": "error"
    },
    {
      "inputs": [],
      "name": "InvalidShareToken",
      "type": "error"
    },
    {
      "inputs": [],
      "name": "InvalidSiloForCollateral",
      "type": "error"
    },
    {
      "inputs": [],
      "name": "LiquidationTooBig",
      "type": "error"
    },
    {
      "inputs": [],
      "name": "LiquidityFeeToHi",
      "type": "error"
    },
    {
      "inputs": [],
      "name": "NoDebtToCover",
      "type": "error"
    },
    {
      "inputs": [],
      "name": "NotInitializing",
      "type": "error"
    },
    {
      "inputs": [],
      "name": "OnlyDelegateCall",
      "type": "error"
    },
    {
      "inputs": [
        {
          "internalType": "address",
          "name": "owner",
          "type": "address"
        }
      ],
      "name": "OwnableInvalidOwner",
      "type": "error"
    },
    {
      "inputs": [
        {
          "internalType": "address",
          "name": "account",
          "type": "address"
        }
      ],
      "name": "OwnableUnauthorizedAccount",
      "type": "error"
    },
    {
      "inputs": [],
      "name": "OwnerIsZeroAddress",
      "type": "error"
    },
    {
      "inputs": [],
      "name": "RequestNotSupported",
      "type": "error"
    },
    {
      "inputs": [],
      "name": "RevertRequestFromHook",
      "type": "error"
    },
    {
      "inputs": [
        {
          "internalType": "address",
          "name": "token",
          "type": "address"
        }
      ],
      "name": "SafeERC20FailedOperation",
      "type": "error"
    },
    {
      "inputs": [],
      "name": "UnexpectedCollateralToken",
      "type": "error"
    },
    {
      "inputs": [],
      "name": "UnexpectedDebtToken",
      "type": "error"
    },
    {
      "inputs": [],
      "name": "UnknownRatio",
      "type": "error"
    },
    {
      "inputs": [],
      "name": "UserIsSolvent",
      "type": "error"
    },
    {
      "inputs": [],
      "name": "WrongGaugeShareToken",
      "type": "error"
    }
  ],
  "bytecode": "0x608060405234801562000010575f80fd5b5033806200003757604051631e4fbdf760e01b81525f600482015260240160405180910390fd5b62000042816200005e565b506200004d6200007c565b620000585f6200005e565b62000180565b600380546001600160a01b031916905562000079816200012f565b50565b7ff0c57e16840df040f15088dc2f81fe391c3923bec73e23a9662efc9c229c6a00805468010000000000000000900460ff1615620000cd5760405163f92ee8a960e01b815260040160405180910390fd5b80546001600160401b0390811614620000795780546001600160401b0319166001600160401b0390811782556040519081527fc7f505b2f371ae2175ee4913f4499e1f2633a7b5936321eed1cdaeb6115181d29060200160405180910390a150565b600280546001600160a01b038381166001600160a01b0319831681179093556040519116919082907f8be0079c531659141344cd1fd0a4f28419497f9722a3daafe3b4186f6b6457e0905f90a35050565b613305806200018e5f395ff3fe608060405234801561000f575f80fd5b5060043610610105575f3560e01c8063a37d94111161009e578063d1f578941161006e578063d1f578941461023b578063d714fd191461024e578063e30c397814610260578063e4784fa914610271578063f2fde38b146102db575f80fd5b8063a37d9411146101bd578063a6f19c84146101e5578063aef28235146101f8578063bd02d8481461020b575f80fd5b80636c9fa59e116100d95780636c9fa59e14610171578063715018a61461019c57806379ba5097146101a45780638da5cb5b146101ac575f80fd5b8062a718a914610109578063237e6d641461013657806335cb10991461014b5780633a0451451461015e575b5f80fd5b61011c610117366004612c87565b6102ee565b604080519283526020830191909152015b60405180910390f35b610149610144366004612ceb565b6106df565b005b610149610159366004612d60565b6108e0565b61014961016c366004612db8565b6108f9565b600554610184906001600160a01b031681565b6040516001600160a01b03909116815260200161012d565b610149610aa0565b610149610ab3565b6002546001600160a01b0316610184565b6101846101cb366004612db8565b60066020525f90815260409020546001600160a01b031681565b600454610184906001600160a01b031681565b610149610206366004612d60565b610afc565b61021e610219366004612db8565b610c8b565b60408051938452602084019290925215159082015260600161012d565b610149610249366004612dd3565b610cb2565b5f54610184906001600160a01b031681565b6003546001600160a01b0316610184565b6102bf61027f366004612db8565b6001600160a01b03165f9081526001602090815260409182902082518084019093525462ffffff8082168085526301000000909204169290910182905291565b6040805162ffffff93841681529290911660208301520161012d565b6101496102e9366004612db8565b610e02565b5f805481906001600160a01b03168061031a576040516379c39cf960e01b815260040160405180910390fd5b845f0361033a576040516317ff0e0960e11b815260040160405180910390fd5b5f80610348838b8b8b610e73565b90925090505f8080806001600160a01b038c16331461037c87878f8f85610374578b6101800151610376565b5f5b86611090565b9a5090935091505f8990036103a4576040516317ff0e0960e11b815260040160405180910390fd5b8b8911156103c557604051635d6d60f760e01b815260040160405180910390fd5b6040518b1515815233907fe24aa47ff635f1a546a55407c1830a99c50045332faba28455dedecb35b07a7e9060200160405180910390a2876001600160a01b0316639dd413306040518163ffffffff1660e01b81526004015f604051808303815f87803b158015610434575f80fd5b505af1158015610446573d5f803e3d5ffd5b505050606087015161046491506001600160a01b031633308c611126565b61048a86604001518a88606001516001600160a01b031661118d9092919063ffffffff16565b876001600160a01b03166362402b046040518163ffffffff1660e01b81526004015f604051808303815f87803b1580156104c2575f80fd5b505af11580156104d4573d5f803e3d5ffd5b5050505085604001516001600160a01b031663acb708158a8f6040518363ffffffff1660e01b815260040161051c9291909182526001600160a01b0316602082015260400190565b6020604051808303815f875af1158015610538573d5f803e3d5ffd5b505050506040513d601f19601f8201168201806040525081019061055c9190612e24565b505f8b610569573061056b565b335b905061059588604001518f83878c60a001516001600281111561059057610590612e3b565b611214565b95506105b988604001518f83868c608001515f600281111561059057610590612e3b565b94508b156105cb578284019a506106cc565b851561064b5787604001516001600160a01b031663da53766087333060016040518563ffffffff1660e01b81526004016106089493929190612e6b565b6020604051808303815f875af1158015610624573d5f803e3d5ffd5b505050506040513d601f19601f820116820180604052508101906106489190612e24565b9a505b84156106cc5787604001516001600160a01b031663da5376608633305f6040518563ffffffff1660e01b81526004016106879493929190612e6b565b6020604051808303815f875af11580156106a3573d5f803e3d5ffd5b505050506040513d601f19601f820116820180604052508101906106c79190612e24565b8b019a505b5050505050505050509550959350505050565b6106e7611404565b6001600160a01b03821661070e5760405163d1af83ef60e01b815260040160405180910390fd5b806001600160a01b0316826001600160a01b0316632ad87c6f6040518163ffffffff1660e01b8152600401602060405180830381865afa158015610754573d5f803e3d5ffd5b505050506040513d601f19601f820116820180604052508101906107789190612eb1565b6001600160a01b03161461079f5760405163060a0aaf60e41b815260040160405180910390fd5b6001600160a01b038082165f908152600660205260409020541680156107d85760405163d0c7225560e01b815260040160405180910390fd5b5f826001600160a01b031663eb3beb296040518163ffffffff1660e01b8152600401602060405180830381865afa158015610815573d5f803e3d5ffd5b505050506040513d601f19601f820116820180604052508101906108399190612eb1565b90505f6108468285611431565b90505f6108528361153a565b9050610800821761086282821790565b915061086f845f84611560565b6001600160a01b038681165f8181526006602090815260409182902080546001600160a01b0319168c86161790556004548251941684528301919091527f213d54ca7d6adb897962b4f78f6c2424aa527ee584f57a6000f961c507e0ec27910160405180910390a150505050505050565b604051632a188cb160e21b815260040160405180910390fd5b610901611404565b6001600160a01b038082165f90815260066020526040902054168061093957604051632e77844760e21b815260040160405180910390fd5b806001600160a01b0316639c868ac06040518163ffffffff1660e01b8152600401602060405180830381865afa158015610975573d5f803e3d5ffd5b505050506040513d601f19601f820116820180604052508101906109999190612ed7565b6109b657604051630d0ab16560e01b815260040160405180910390fd5b5f826001600160a01b031663eb3beb296040518163ffffffff1660e01b8152600401602060405180830381865afa1580156109f3573d5f803e3d5ffd5b505050506040513d601f19601f82011682018060405250810190610a179190612eb1565b90505f610a248285611431565b90505f610a308361153a565b8219169050610a40835f83611560565b6001600160a01b0385165f8181526006602090815260409182902080546001600160a01b031916905590519182527f94ac12f5301759f065db9de7f23677e50bef009f062b028d4d4612f620f0f5fb910160405180910390a15050505050565b610aa8611404565b610ab15f611643565b565b60035433906001600160a01b03168114610af05760405163118cdaa760e01b81526001600160a01b03821660048201526024015b60405180910390fd5b610af981611643565b50565b335f908152600660205260409020546001600160a01b031680610b3257604051632e77844760e21b815260040160405180910390fd5b806001600160a01b0316639c868ac06040518163ffffffff1660e01b8152600401602060405180830381865afa158015610b6e573d5f803e3d5ffd5b505050506040513d601f19601f82011682018060405250810190610b929190612ed7565b15610b9d5750610c85565b610bb084610baa8761153a565b81161490565b610bba5750610c85565b5f610bf984848080601f0160208091040260200160405190810160405280939291908181526020018383808284375f9201919091525061165c92505050565b805160608201516020830151608084015160a08501516040516370f1a76560e11b81526001600160a01b039586166004820152602481019490945291841660448401526064830152608482015291925083169063e1e34eca9060a4015f604051808303815f87803b158015610c6c575f80fd5b505af1158015610c7e573d5f803e3d5ffd5b5050505050505b50505050565b5f805481908190610ca5906001600160a01b031685611700565b9250925092509193909250565b7ff0c57e16840df040f15088dc2f81fe391c3923bec73e23a9662efc9c229c6a008054600160401b810460ff16159067ffffffffffffffff165f81158015610cf75750825b90505f8267ffffffffffffffff166001148015610d135750303b155b905081158015610d21575080155b15610d3f5760405163f92ee8a960e01b815260040160405180910390fd5b845467ffffffffffffffff191660011785558315610d6957845460ff60401b1916600160401b1785555b5f610d7687890189612db8565b90506001600160a01b038116610d9f576040516354a4010f60e01b815260040160405180910390fd5b610da8896118db565b610db181611643565b508315610df857845460ff60401b19168555604051600181527fc7f505b2f371ae2175ee4913f4499e1f2633a7b5936321eed1cdaeb6115181d29060200160405180910390a15b5050505050505050565b610e0a611404565b600380546001600160a01b0383166001600160a01b03199091168117909155610e3b6002546001600160a01b031690565b6001600160a01b03167f38d16b8cac22d99fc7c124b9cd0de2d3fa1faef420bfe791d8c362d765e2270060405160405180910390a350565b610e7b612be3565b610e83612be3565b6040516394c0527d60e01b81526001600160a01b0384811660048301528716906394c0527d9060240161040060405180830381865afa158015610ec8573d5f803e3d5ffd5b505050506040513d601f19601f82011682018060405250810190610eec9190613039565b604081015191935091506001600160a01b0316610f1c57604051632f13551560e11b815260040160405180910390fd5b81606001516001600160a01b0316856001600160a01b031614610f525760405163055692d760e21b815260040160405180910390fd5b80606001516001600160a01b0316846001600160a01b031614610f885760405163129e080d60e21b815260040160405180910390fd5b80604001516001600160a01b031663a6afed956040518163ffffffff1660e01b81526004016020604051808303815f875af1158015610fc9573d5f803e3d5ffd5b505050506040513d601f19601f82011682018060405250810190610fed9190612e24565b5080604001516001600160a01b031682604001516001600160a01b0316146110875781604001516001600160a01b031663a6afed956040518163ffffffff1660e01b81526004016020604051808303815f875af1158015611050573d5f803e3d5ffd5b505050506040513d601f19601f820116820180604052508101906110749190612e24565b5061107e8261194c565b6110878161194c565b94509492505050565b5f805f806110a28a8a8a5f805f6119d2565b90505f6110fc826040518060c001604052808e610160015181526020018e606001516001600160a01b031681526020018d606001516001600160a01b031681526020018b81526020018a8152602001891515815250611c4c565b8094508192505050611112818360400151611d9a565b909c909b5092995091975050505050505050565b6040516001600160a01b038481166024830152838116604483015260648201839052610c859186918216906323b872dd906084015b604051602081830303815290604052915060e01b6020820180516001600160e01b038381831617835250505050611dcb565b604051636eb1769f60e11b81523060048201526001600160a01b0383811660248301525f919085169063dd62ed3e90604401602060405180830381865afa1580156111da573d5f803e3d5ffd5b505050506040513d601f19601f820116820180604052508101906111fe9190612e24565b9050610c85848461120f8585613082565b611e31565b5f835f0361122357505f6113fa565b604051630805bcfb60e31b8152600481018390526113089085906001600160a01b038a169063402de7d890602401602060405180830381865afa15801561126c573d5f803e3d5ffd5b505050506040513d601f19601f820116820180604052508101906112909190612e24565b856001600160a01b03166318160ddd6040518163ffffffff1660e01b8152600401602060405180830381865afa1580156112cc573d5f803e3d5ffd5b505050506040513d601f19601f820116820180604052508101906112f09190612e24565b5f86600281111561130357611303612e3b565b611ec0565b9050805f0361131857505f6113fa565b604080516001600160a01b0388811660248301528781166044830152606480830185905283518084039091018152608490920183526020820180516001600160e01b0316633661585b60e21b1790529151634624c6a760e01b81525f928392908b1691634624c6a79161139491899186918291906004016130e2565b5f604051808303815f875af11580156113af573d5f803e3d5ffd5b505050506040513d5f823e601f3d908101601f191682016040526113d69190810190613119565b91509150816113f7576113f78160405180602001604052805f815250611efd565b50505b9695505050505050565b6002546001600160a01b03163314610ab15760405163118cdaa760e01b8152336004820152602401610ae7565b5f8054604051630483b24f60e41b81526001600160a01b0385811660048301528392839283929091169063483b24f090602401606060405180830381865afa15801561147f573d5f803e3d5ffd5b505050506040513d601f19601f820116820180604052508101906114a391906131d7565b925092509250816001600160a01b0316856001600160a01b0316036114cf576110009350505050611534565b826001600160a01b0316856001600160a01b0316036114f5576120009350505050611534565b806001600160a01b0316856001600160a01b03160361151b576140009350505050611534565b60405163d938fa3760e01b815260040160405180910390fd5b92915050565b6001600160a01b03165f908152600160205260409020546301000000900462ffffff1690565b60408051808201825262ffffff84811680835284821660208085018281526001600160a01b038a165f81815260018452889020965187549251871663010000000265ffffffffffff1990931696169590951717909455845192835292820152918201527f1c26a8451bc890d476a0e7bb8310f00750604879bb30d4813a7718a1ee089fa69060600160405180910390a1826001600160a01b031663cad1aacf6040518163ffffffff1660e01b81526004015f604051808303815f87803b158015611628575f80fd5b505af115801561163a573d5f803e3d5ffd5b50505050505050565b600380546001600160a01b0319169055610af981611f26565b6116a16040518060c001604052805f6001600160a01b031681526020015f6001600160a01b031681526020015f81526020015f81526020015f81526020015f81525090565b506014810151602882015160488301516068840151608885015160a8909501516040805160c0810182526001600160a01b039687168152959094166020860152928401919091526060830152608082019290925260a081019190915290565b6040516394c0527d60e01b81526001600160a01b0382811660048301525f918291829182918291908816906394c0527d9060240161040060405180830381865afa158015611750573d5f803e3d5ffd5b505050506040513d601f19601f820116820180604052508101906117749190613039565b604081015191935091506001600160a01b031661179b575f805f94509450945050506118d4565b5f6117ab8383895f60015f6119d2565b905080608001515f036117c9575f805f9550955095505050506118d4565b5f806117de8386606001518660600151611f77565b915091505f83606001518460400151019050825f0361180f578084608001515f9850985098505050505050506118d4565b5f61181a83856120c3565b9050866101600151811161183d575f805f995099509950505050505050506118d4565b61185982858760800151868b61016001518c61018001516120e0565b809a50819b50505086604001516001600160a01b0316630910a5106040518163ffffffff1660e01b8152600401602060405180830381865afa1580156118a1573d5f803e3d5ffd5b505050506040513d601f19601f820116820180604052508101906118c59190612e24565b8a600201119750505050505050505b9250925092565b6001600160a01b038116611902576040516379c39cf960e01b815260040160405180910390fd5b5f546001600160a01b03161561192b576040516308db0db560e11b815260040160405180910390fd5b5f80546001600160a01b0319166001600160a01b0392909216919091179055565b806101e00151801561196a575060e08101516001600160a01b031615155b15610af95760e08101516060820151604051637cfd30cd60e11b81526001600160a01b03918216600482015291169063f9fa619a906024015f604051808303815f87803b1580156119b9575f80fd5b505af11580156119cb573d5f803e3d5ffd5b5050505050565b611a116040518060a001604052805f6001600160a01b031681526020015f6001600160a01b031681526020015f81526020015f81526020015f81525090565b85606001516001600160a01b031687606001516001600160a01b031614611a7b576001846001811115611a4657611a46612e3b565b14611a5a578660e001518660e00151611a67565b8661010001518661010001515b6001600160a01b0390811660208401521681525b5f80611a8c8960800151885f61213b565b80935081925050505f808a604001516001600160a01b031663ffbaaf7a6040518163ffffffff1660e01b81526004016040805180830381865afa158015611ad5573d5f803e3d5ffd5b505050506040513d601f19601f82011682018060405250810190611af99190613221565b91509150611b0a8382865f80612223565b604086015260a08b0151611b1f908a5f61213b565b945092506001876001811115611b3757611b37612e3b565b14611b425781611b5e565b611b5e8b604001518c61012001518d5f01518e60200151612252565b9150611b6e8383865f6001612223565b606086015260c08a0151611b83908a8861213b565b945092505f6001886001811115611b9c57611b9c612e3b565b14611c135760408b8101519051630805bcfb60e31b8152600260048201526001600160a01b039091169063402de7d890602401602060405180830381865afa158015611bea573d5f803e3d5ffd5b505050506040513d601f19601f82011682018060405250810190611c0e9190612e24565b611c26565b611c268b604001518c6101200151612348565b9050611c3784828760016002612223565b608087015250939a9950505050505050505050565b6040820151606083015160808401515f92839201901580611c6f57506060840151155b15611c80575f809250925050611d93565b805f03611cb1575f8560800151856060015111611ca1578460600151611ca7565b85608001515b9250925050611d93565b5f805f611cc78888602001518960400151612437565b9250925092508660a0015115611cfd578760800151876060015110611cf85750505060808501519092509050611d93565b611d14565b86518111611d14575f809550955050505050611d93565b5f611d278286868c60800151878d61248d565b91985096509050861580611d39575085155b15611d4e575f80965096505050505050611d93565b8015611d8d578760a0015115611d8d5787518211801590611d6f5750875181115b15611d8d57604051635209961b60e11b815260040160405180910390fd5b50505050505b9250929050565b5f80835f03611dad57505f905080611d93565b828411611dbb575f84611dc0565b828403835b909590945092505050565b5f611ddf6001600160a01b0384168361258b565b905080515f14158015611e03575080806020019051810190611e019190612ed7565b155b15611e2c57604051635274afe760e01b81526001600160a01b0384166004820152602401610ae7565b505050565b604080516001600160a01b038416602482015260448082018490528251808303909101815260649091019091526020810180516001600160e01b031663095ea7b360e01b179052611e828482612598565b610c85576040516001600160a01b0384811660248301525f6044830152611eb691869182169063095ea7b39060640161115b565b610c858482611dcb565b5f805f611ece878786612635565b91509150815f03611ee3578792505050611ef4565b611eef88838388612677565b925050505b95945050505050565b815115611f0c57815182602001fd5b8060405162461bcd60e51b8152600401610ae79190613243565b600280546001600160a01b038381166001600160a01b0319831681179093556040519116919082907f8be0079c531659141344cd1fd0a4f28419497f9722a3daafe3b4186f6b6457e0905f90a35050565b606083015160408401515f9182910180156120165785516001600160a01b0316611fa15780612013565b85516040516313b0be3360e01b8152600481018390526001600160a01b038781166024830152909116906313b0be3390604401602060405180830381865afa158015611fef573d5f803e3d5ffd5b505050506040513d601f19601f820116820180604052508101906120139190612e24565b92505b6080860151156120ba5760208601516001600160a01b031661203c5785608001516120b7565b602086015160808701516040516313b0be3360e01b815260048101919091526001600160a01b038681166024830152909116906313b0be3390604401602060405180830381865afa158015612093573d5f803e3d5ffd5b505050506040513d601f19601f820116820180604052508101906120b79190612e24565b91505b50935093915050565b5f6120d983670de0b6b3a7640000846001612677565b9392505050565b5f805f806120f889886120f2896126c4565b886126e2565b91509150612107828b8b612708565b9350600184111561211d57600284039350612121565b5f93505b61212c818989612708565b92505050965096945050505050565b5f80825f036121b55760405163dce5c2db60e01b81526001600160a01b03858116600483015286169063dce5c2db906024016040805180830381865afa158015612187573d5f803e3d5ffd5b505050506040513d601f19601f820116820180604052508101906121ab9190613221565b909250905061221b565b829150846001600160a01b03166318160ddd6040518163ffffffff1660e01b8152600401602060405180830381865afa1580156121f4573d5f803e3d5ffd5b505050506040513d601f19601f820116820180604052508101906122189190612e24565b90505b935093915050565b5f805f612231878786612635565b91509150815f03612246578792505050611ef4565b611eef88828488612677565b6040516367efe7fd60e11b81526001600160a01b0385811660048301524260248301525f91829186169063cfdfcffa90604401602060405180830381865afa1580156122a0573d5f803e3d5ffd5b505050506040513d601f19601f820116820180604052508101906122c49190612e24565b90505f80876001600160a01b03166339c5c5056040518163ffffffff1660e01b81526004016040805180830381865afa158015612303573d5f803e3d5ffd5b505050506040513d601f19601f820116820180604052508101906123279190613221565b91509150612338828285898961274d565b50919a9950505050505050505050565b6040516367efe7fd60e11b81526001600160a01b0383811660048301524260248301525f91829184169063cfdfcffa90604401602060405180830381865afa158015612396573d5f803e3d5ffd5b505050506040513d601f19601f820116820180604052508101906123ba9190612e24565b604051630805bcfb60e31b81526002600482015290915061242e906001600160a01b0386169063402de7d890602401602060405180830381865afa158015612404573d5f803e3d5ffd5b505050506040513d601f19601f820116820180604052508101906124289190612e24565b82612795565b50949350505050565b5f805f612445868686611f77565b909350915082158015612456575081155b1561246857505f915081905080612484565b825f0361247757505f19612484565b61248182846120c3565b90505b93509350939050565b5f805f805f8560a00151806124aa5750670de0b6b3a76400008b10155b156124da57878660600151116124c45785606001516124c6565b875b93506124d384888a612708565b9050612542565b5f6124f6888b6124ec8a5f01516126c4565b8a6080015161280a565b905087810361250a57889450879150612540565b5f612516828b8b612708565b90508088606001511161252d57876060015161252f565b805b955061253c868a8c612708565b9250505b505b612560818a8860a0015161255a578860800151612913565b5f612913565b915061256d828b8b612708565b945061257b8988848461294c565b9250505096509650969350505050565b60606120d983835f612974565b5f805f846001600160a01b0316846040516125b39190613255565b5f604051808303815f865af19150503d805f81146125ec576040519150601f19603f3d011682016040523d82523d5f602084013e6125f1565b606091505b509150915081801561261b57508051158061261b57508080602001905181019061261b9190612ed7565b8015611ef45750505050506001600160a01b03163b151590565b5f80835f03612642575f94505b600283600281111561265657612656612e3b565b1461266857600184018560010161266b565b83855b90969095509350505050565b5f6126a461268483612a0a565b801561269f57505f848061269a5761269a613270565b868809115b151590565b6126af868686612a36565b6126b99190613082565b90505b949350505050565b5f61153482670c7d713b49da0000670de0b6b3a76400006001612677565b5f806126f08587868661280a565b90506126fd818785612913565b915094509492505050565b5f815f036127295760405163658c7bff60e11b815260040160405180910390fd5b6127338385613284565b905081818161274457612744613270565b04949350505050565b5f805f8061275b8888612795565b9093509050670de0b6b3a76400008686018202049150818103891981811015612782578091505b818b019550505095509550955095915050565b5f808315806127a2575082155b156127b157508290505f611d93565b670de0b6b3a76400008404835f19816127cc576127cc613270565b0411156127ee576127e78484670de0b6b3a76400005f612677565b90506127f2565b505f195b831980821115612800578091505b5092830193915050565b5f845f0361281957505f6126bc565b670de0b6b3a7640000821061282f57505f6126bc565b83851061283d5750836126bc565b825f0361284b5750836126bc565b5f6128568585613284565b905061286a670de0b6b3a764000087613284565b955085811061287c575f9150506126bc565b670de0b6b3a764000080870496829003925083850281900485019081106128a75786925050506126bc565b80670de0b6b3a76400000383816128c0576128c0613270565b049250868311156128d55786925050506126bc565b670c7d713b49da0000876128f1670de0b6b3a764000086613284565b6128fb919061329b565b116129065782612908565b865b979650505050505050565b5f8061291f8386613284565b670de0b6b3a7640000900490506129368186613082565b915083821115612944578391505b509392505050565b5f8285148061295a57508184145b1561296657505f6126bc565b6126b9838603838603612af3565b6060814710156129a05760405163cf47918160e01b815247600482015260248101839052604401610ae7565b5f80856001600160a01b031684866040516129bb9190613255565b5f6040518083038185875af1925050503d805f81146129f5576040519150601f19603f3d011682016040523d82523d5f602084013e6129fa565b606091505b50915091506113fa868383612b12565b5f6002826003811115612a1f57612a1f612e3b565b612a2991906132ae565b60ff166001149050919050565b5f838302815f1985870982811083820303915050805f03612a6a57838281612a6057612a60613270565b04925050506120d9565b808411612a8857612a888415612a81576011612b6e565b6012612b6e565b5f848688095f868103871696879004966002600389028118808a02820302808a02820302808a02820302808a02820302808a02820302808a02909103029181900381900460010186841190950394909402919094039290920491909117919091029150509392505050565b5f612b06670de0b6b3a764000083613284565b90506120d98184612b7f565b606082612b2757612b2282612bba565b6120d9565b8151158015612b3e57506001600160a01b0384163b155b15612b6757604051639996b31560e01b81526001600160a01b0385166004820152602401610ae7565b50806120d9565b634e487b715f52806020526024601cfd5b5f815f03612b9157612b916012612b6e565b8215612bb257816001840381612ba957612ba9613270565b046001016120d9565b505f92915050565b805115612bca5780518082602001fd5b60405163d6bda27560e01b815260040160405180910390fd5b60408051610200810182525f80825260208201819052918101829052606081018290526080810182905260a0810182905260c0810182905260e08101829052610100810182905261012081018290526101408101829052610160810182905261018081018290526101a081018290526101c081018290526101e081019190915290565b6001600160a01b0381168114610af9575f80fd5b8015158114610af9575f80fd5b5f805f805f60a08688031215612c9b575f80fd5b8535612ca681612c66565b94506020860135612cb681612c66565b93506040860135612cc681612c66565b9250606086013591506080860135612cdd81612c7a565b809150509295509295909350565b5f8060408385031215612cfc575f80fd5b8235612d0781612c66565b91506020830135612d1781612c66565b809150509250929050565b5f8083601f840112612d32575f80fd5b50813567ffffffffffffffff811115612d49575f80fd5b602083019150836020828501011115611d93575f80fd5b5f805f8060608587031215612d73575f80fd5b8435612d7e81612c66565b935060208501359250604085013567ffffffffffffffff811115612da0575f80fd5b612dac87828801612d22565b95989497509550505050565b5f60208284031215612dc8575f80fd5b81356120d981612c66565b5f805f60408486031215612de5575f80fd5b8335612df081612c66565b9250602084013567ffffffffffffffff811115612e0b575f80fd5b612e1786828701612d22565b9497909650939450505050565b5f60208284031215612e34575f80fd5b5051919050565b634e487b7160e01b5f52602160045260245ffd5b60028110610af957634e487b7160e01b5f52602160045260245ffd5b8481526001600160a01b0384811660208301528316604082015260808101612e9283612e4f565b82606083015295945050505050565b8051612eac81612c66565b919050565b5f60208284031215612ec1575f80fd5b81516120d981612c66565b8051612eac81612c7a565b5f60208284031215612ee7575f80fd5b81516120d981612c7a565b634e487b7160e01b5f52604160045260245ffd5b604051610200810167ffffffffffffffff81118282101715612f2a57612f2a612ef2565b60405290565b5f6102008284031215612f41575f80fd5b612f49612f06565b90508151815260208201516020820152612f6560408301612ea1565b6040820152612f7660608301612ea1565b6060820152612f8760808301612ea1565b6080820152612f9860a08301612ea1565b60a0820152612fa960c08301612ea1565b60c0820152612fba60e08301612ea1565b60e0820152610100612fcd818401612ea1565b90820152610120612fdf838201612ea1565b908201526101408281015190820152610160808301519082015261018080830151908201526101a080830151908201526101c061301d818401612ea1565b908201526101e061302f838201612ecc565b9082015292915050565b5f80610400838503121561304b575f80fd5b6130558484612f30565b9150613065846102008501612f30565b90509250929050565b634e487b7160e01b5f52601160045260245ffd5b808201808211156115345761153461306e565b5f5b838110156130af578181015183820152602001613097565b50505f910152565b5f81518084526130ce816020860160208601613095565b601f01601f19169290920160200192915050565b6001600160a01b0385168152602081018490526130fe83612e4f565b826040820152608060608201525f6113fa60808301846130b7565b5f806040838503121561312a575f80fd5b825161313581612c7a565b602084015190925067ffffffffffffffff80821115613152575f80fd5b818501915085601f830112613165575f80fd5b81518181111561317757613177612ef2565b604051601f8201601f19908116603f0116810190838211818310171561319f5761319f612ef2565b816040528281528860208487010111156131b7575f80fd5b6131c8836020830160208801613095565b80955050505050509250929050565b5f805f606084860312156131e9575f80fd5b83516131f481612c66565b602085015190935061320581612c66565b604085015190925061321681612c66565b809150509250925092565b5f8060408385031215613232575f80fd5b505080516020909101519092909150565b602081525f6120d960208301846130b7565b5f8251613266818460208701613095565b9190910192915050565b634e487b7160e01b5f52601260045260245ffd5b80820281158282048414176115345761153461306e565b5f826132a9576132a9613270565b500490565b5f60ff8316806132c0576132c0613270565b8060ff8416069150509291505056fea26469706673582212203e88a74b9ab23a7064d4915111e9ecc836b7b6e8f1a583b897f39cad5299e61764736f6c63430008180033",
  "language": "Solidity",
  "compiler": "0.8.24+commit.e11b9ed9"
}