{
  "address": "0x6bF5529aFCc07b669f37D9D29C5118d7a5117A0D",
  "abi": [
    {
      "inputs": [],
      "stateMutability": "nonpayable",
      "type": "constructor"
    },
    {
      "inputs": [],
      "name": "DP",
      "outputs": [
        {
          "internalType": "uint256",
          "name": "",
          "type": "uint256"
        }
      ],
      "stateMutability": "view",
      "type": "function"
    },
    {
      "inputs": [],
      "name": "IRM",
      "outputs": [
        {
          "internalType": "address",
          "name": "",
          "type": "address"
        }
      ],
      "stateMutability": "view",
      "type": "function"
    },
    {
      "inputs": [
        {
          "components": [
            {
              "internalType": "int256",
              "name": "uopt",
              "type": "int256"
            },
            {
              "internalType": "int256",
              "name": "ucrit",
              "type": "int256"
            },
            {
              "internalType": "int256",
              "name": "ulow",
              "type": "int256"
            },
            {
              "internalType": "int256",
              "name": "ki",
              "type": "int256"
            },
            {
              "internalType": "int256",
              "name": "kcrit",
              "type": "int256"
            },
            {
              "internalType": "int256",
              "name": "klow",
              "type": "int256"
            },
            {
              "internalType": "int256",
              "name": "klin",
              "type": "int256"
            },
            {
              "internalType": "int256",
              "name": "beta",
              "type": "int256"
            }
          ],
          "internalType": "struct IInterestRateModelV2.Config",
          "name": "_config",
          "type": "tuple"
        }
      ],
      "name": "create",
      "outputs": [
        {
          "internalType": "bytes32",
          "name": "configHash",
          "type": "bytes32"
        },
        {
          "internalType": "contract IInterestRateModelV2",
          "name": "irm",
          "type": "address"
        }
      ],
      "stateMutability": "nonpayable",
      "type": "function"
    },
    {
      "inputs": [
        {
          "components": [
            {
              "internalType": "int256",
              "name": "uopt",
              "type": "int256"
            },
            {
              "internalType": "int256",
              "name": "ucrit",
              "type": "int256"
            },
            {
              "internalType": "int256",
              "name": "ulow",
              "type": "int256"
            },
            {
              "internalType": "int256",
              "name": "ki",
              "type": "int256"
            },
            {
              "internalType": "int256",
              "name": "kcrit",
              "type": "int256"
            },
            {
              "internalType": "int256",
              "name": "klow",
              "type": "int256"
            },
            {
              "internalType": "int256",
              "name": "klin",
              "type": "int256"
            },
            {
              "internalType": "int256",
              "name": "beta",
              "type": "int256"
            }
          ],
          "internalType": "struct IInterestRateModelV2.Config",
          "name": "_config",
          "type": "tuple"
        }
      ],
      "name": "hashConfig",
      "outputs": [
        {
          "internalType": "bytes32",
          "name": "configId",
          "type": "bytes32"
        }
      ],
      "stateMutability": "pure",
      "type": "function"
    },
    {
      "inputs": [
        {
          "internalType": "bytes32",
          "name": "configHash",
          "type": "bytes32"
        }
      ],
      "name": "irmByConfigHash",
      "outputs": [
        {
          "internalType": "contract IInterestRateModelV2",
          "name": "",
          "type": "address"
        }
      ],
      "stateMutability": "view",
      "type": "function"
    },
    {
      "inputs": [
        {
          "components": [
            {
              "internalType": "int256",
              "name": "uopt",
              "type": "int256"
            },
            {
              "internalType": "int256",
              "name": "ucrit",
              "type": "int256"
            },
            {
              "internalType": "int256",
              "name": "ulow",
              "type": "int256"
            },
            {
              "internalType": "int256",
              "name": "ki",
              "type": "int256"
            },
            {
              "internalType": "int256",
              "name": "kcrit",
              "type": "int256"
            },
            {
              "internalType": "int256",
              "name": "klow",
              "type": "int256"
            },
            {
              "internalType": "int256",
              "name": "klin",
              "type": "int256"
            },
            {
              "internalType": "int256",
              "name": "beta",
              "type": "int256"
            }
          ],
          "internalType": "struct IInterestRateModelV2.Config",
          "name": "_config",
          "type": "tuple"
        }
      ],
      "name": "verifyConfig",
      "outputs": [],
      "stateMutability": "view",
      "type": "function"
    },
    {
      "anonymous": false,
      "inputs": [
        {
          "indexed": true,
          "internalType": "bytes32",
          "name": "configHash",
          "type": "bytes32"
        },
        {
          "indexed": true,
          "internalType": "contract IInterestRateModelV2",
          "name": "irm",
          "type": "address"
        }
      ],
      "name": "NewInterestRateModelV2",
      "type": "event"
    },
    {
      "inputs": [],
      "name": "FailedDeployment",
      "type": "error"
    },
    {
      "inputs": [
        {
          "internalType": "uint256",
          "name": "balance",
          "type": "uint256"
        },
        {
          "internalType": "uint256",
          "name": "needed",
          "type": "uint256"
        }
      ],
      "name": "InsufficientBalance",
      "type": "error"
    },
    {
      "inputs": [],
      "name": "InvalidBeta",
      "type": "error"
    },
    {
      "inputs": [],
      "name": "InvalidKcrit",
      "type": "error"
    },
    {
      "inputs": [],
      "name": "InvalidKi",
      "type": "error"
    },
    {
      "inputs": [],
      "name": "InvalidKlin",
      "type": "error"
    },
    {
      "inputs": [],
      "name": "InvalidKlow",
      "type": "error"
    },
    {
      "inputs": [],
      "name": "InvalidUcrit",
      "type": "error"
    },
    {
      "inputs": [],
      "name": "InvalidUlow",
      "type": "error"
    },
    {
      "inputs": [],
      "name": "InvalidUopt",
      "type": "error"
    }
  ],
  "bytecode": "0x60a060405234801561000f575f80fd5b5060405161001c90610047565b604051809103905ff080158015610035573d5f803e3d5ffd5b506001600160a01b0316608052610054565b612286806109b083390190565b60805161093e6100725f395f81816069015261031d015261093e5ff3fe608060405234801561000f575f80fd5b5060043610610060575f3560e01c80631e75db16146100645780632864e091146100a8578063288b63ba146100d0578063511042ad146100e55780636bcc821614610115578063ac8c937514610132575b5f80fd5b61008b7f000000000000000000000000000000000000000000000000000000000000000081565b6040516001600160a01b0390911681526020015b60405180910390f35b61008b6100b63660046104d5565b5f602081905290815260409020546001600160a01b031681565b6100e36100de3660046104ec565b610145565b005b6100f86100f33660046104ec565b6102a9565b604080519283526001600160a01b0390911660208301520161009f565b610124670de0b6b3a764000081565b60405190815260200161009f565b6101246101403660046104ec565b6103f4565b670de0b6b3a76400005f823513158061015f575081358113155b1561017d576040516313e9c00360e21b815260040160405180910390fd5b81356020830135131580610195575080826020013512155b156101b3576040516339bda99160e11b815260040160405180910390fd5b5f82604001351315806101cb57508135604083013512155b156101e957604051635c65494d60e01b815260040160405180910390fd5b5f8260600135121561020e5760405163fe06781560e01b815260040160405180910390fd5b5f82608001351215610233576040516320d12cb560e21b815260040160405180910390fd5b5f8260a00135121561025b576040516001627ddb5960e01b0319815260040160405180910390fd5b5f8260c00135121561028057604051634e435a2160e01b815260040160405180910390fd5b5f8260e0013512156102a5576040516378a8371160e01b815260040160405180910390fd5b5050565b5f806102b4836103f4565b5f818152602081905260409020549092506001600160a01b0316905080156102db57915091565b6102e483610145565b5f836040516102f2906104c8565b6102fc9190610503565b604051809103905ff080158015610315573d5f803e3d5ffd5b5090506103417f0000000000000000000000000000000000000000000000000000000000000000610423565b60405163189acdbd60e31b81526001600160a01b0383811660048301529193509083169063c4d66de8906024015f604051808303815f87803b158015610385575f80fd5b505af1158015610397573d5f803e3d5ffd5b5050505f8481526020819052604080822080546001600160a01b0319166001600160a01b038716908117909155905190925085917f7a56c031e2e076b9c466d347a09b8bc9458baafdcfc59a33dfffb06f37bbc54291a350915091565b5f816040516020016104069190610503565b604051602081830303815290604052805190602001209050919050565b5f61042e825f610434565b92915050565b5f814710156104635760405163cf47918160e01b81524760048201526024810183905260440160405180910390fd5b6e5af43d82803e903d91602b57fd5bf360205282601152763d602d80600a3d3981f3363d3d373d3d3d363d730000008360881c175f526037600983f090506001600160a01b03811661042e5760405163b06ebf3d60e01b815260040160405180910390fd5b6103ad8061055c83390190565b5f602082840312156104e5575f80fd5b5035919050565b5f61010082840312156104fd575f80fd5b50919050565b5f61010082019050823582526020830135602083015260408301356040830152606083013560608301526080830135608083015260a083013560a083015260c083013560c083015260e083013560e08301529291505056fe610180604052348015610010575f80fd5b506040516103ad3803806103ad83398101604081905261002f91610076565b80516080908152602082015160a0908152604083015160c0908152606084015160e0908152928401516101005290830151610120528201516101405201516101605261010f565b5f610100808385031215610088575f80fd5b604051908101906001600160401b03821181831017156100b657634e487b7160e01b5f52604160045260245ffd5b81604052835181526020840151602082015260408401516040820152606084015160608201526080840151608082015260a084015160a082015260c084015160c082015260e084015160e0820152809250505092915050565b60805160a05160c05160e051610100516101205161014051610160516102446101695f395f6101e701525f6101c101525f61019b01525f61017501525f61014f01525f61012901525f61010301525f60e001526102445ff3fe608060405234801561000f575f80fd5b5060043610610029575f3560e01c8063c3f909d41461002d575b5f80fd5b61003561009e565b60405161009591905f61010082019050825182526020830151602083015260408301516040830152606083015160608301526080830151608083015260a083015160a083015260c083015160c083015260e083015160e083015292915050565b60405180910390f35b6100de6040518061010001604052805f81526020015f81526020015f81526020015f81526020015f81526020015f81526020015f81526020015f81525090565b7f000000000000000000000000000000000000000000000000000000000000000081527f000000000000000000000000000000000000000000000000000000000000000060208201527f000000000000000000000000000000000000000000000000000000000000000060408201527f000000000000000000000000000000000000000000000000000000000000000060608201527f000000000000000000000000000000000000000000000000000000000000000060808201527f000000000000000000000000000000000000000000000000000000000000000060a08201527f000000000000000000000000000000000000000000000000000000000000000060c08201527f000000000000000000000000000000000000000000000000000000000000000060e08201529056fea264697066735822122051b97ff5d679ef08dd0ea5b2bb6c5a0721ef0667d5a2ed771fadc715617abbfd64736f6c63430008180033a26469706673582212202b361a39d614c4a7235602e100da70dfc0fda32d60708aac757bfa86cc01208964736f6c63430008180033608060405234801561000f575f80fd5b506122698061001d5f395ff3fe608060405234801561000f575f80fd5b50600436106100f0575f3560e01c806381b51e0c11610093578063c6c721b311610063578063c6c721b314610224578063cfdfcffa1461026c578063e076a5511461027f578063e48a5f7b14610290575f80fd5b806381b51e0c146101ca57806384de969a146101d9578063b78fec82146101ec578063c4d66de81461020f575f80fd5b80633ced7d0d116100ce5780633ced7d0d146101445780634fa165e61461015757806364efe177146101825780636e1a414014610195575f80fd5b8063023279ce146100f4578063109a006e14610127578063313ce5671461013d575b5f80fd5b610107610102366004611d7d565b61031b565b604080519384526020840192909252908201526060015b60405180910390f35b61012f61033d565b60405190815260200161011e565b601261012f565b61012f610152366004611d7d565b610355565b60015461016a906001600160a01b031681565b6040516001600160a01b03909116815260200161011e565b61012f610190366004611e44565b6105ce565b6101a86101a3366004611d7d565b610662565b604080519485526020850193909352918301521515606082015260800161011e565b61012f6799e8e8e3d530368181565b61012f6101e7366004611e6c565b610ad1565b6101ff6101fa366004611e44565b610bbc565b604051901515815260200161011e565b61022261021d366004611e95565b610c53565b005b610252610232366004611e95565b5f60208190529081526040902054600f81810b91600160801b9004900b82565b60408051600f93840b81529190920b60208201520161011e565b61012f61027a366004611e44565b610cec565b61012f690de0b6b3a7640000000081565b6102a361029e366004611e95565b610d83565b60405161011e91905f61014082019050825182526020830151602083015260408301516040830152606083015160608301526080830151608083015260a083015160a083015260c083015160c083015260e083015160e083015261010080840151818401525061012080840151818401525092915050565b5f805f61032b8888888888610662565b50919a90995090975095505050505050565b610352690de0b6b3a764000000005f19611ed6565b81565b5f818311156103775760405163d22806e360e01b815260040160405180910390fd5b5f6040518060e001604052805f81526020015f81526020015f81526020015f81526020015f81526020015f81526020015f151581525090506103bc8787878787610662565b15801560c086015292506103d6915050575f9150506105c5565b6103e1848403610ed8565b81526103fe6103f9670de0b6b3a76400008888610f0d565b610ed8565b6020808301829052670de0b6b3a7640000604084015288015112156104a2578060400151876020015182602001516104369190611ee9565b6040830151835160e08b015161044c9190611f0f565b8a610120015185604001516104619190611f3e565b61046b9190611f3e565b8a6080015161047a9190611f0f565b6104849190611f65565b61048e9190611f0f565b6104989190611f65565b60608201526104e3565b6104dd5f8260400151896040015184602001516104bf9190611ee9565b8a60a001516104ce9190611f0f565b6104d89190611f65565b610f7d565b60608201525b806040015181602001518860c001516104fc9190611f0f565b6105069190611f65565b6080820181905261010088015161051c91610f96565b60a0820152604081015181518851602084015161057a93929161053e91611ee9565b8a6060015161054d9190611f0f565b6105579190611f0f565b6105619190611f65565b8260a001516105709190611f3e565b8260800151610f96565b60a0820181905260608201516105a6916105a19161059791611f3e565b8360800151610f96565b610fa4565b91506105b66301e1338083611f91565b91506105c182610fc9565b9150505b95945050505050565b5f80836001600160a01b0316639ef2fda06040518163ffffffff1660e01b8152600401606060405180830381865afa15801561060c573d5f803e3d5ffd5b505050506040513d601f19601f820116820180604052508101906106309190611fa8565b905061065a61063e85610d83565b82516020840151604085015167ffffffffffffffff1687610355565b949350505050565b5f805f80886101000151925088610120015191505f6040518061014001604052805f81526020015f81526020015f81526020015f81526020015f81526020015f81526020015f81526020015f81526020015f81526020015f8152509050858711156106e05760405163d22806e360e01b815260040160405180910390fd5b6106eb878703610ed8565b8152670de0b6b3a76400006107046103f9828c8c610f0d565b61012083018190528b51829161071a9190611ee9565b8c606001516107299190611f0f565b6107339190611f65565b6020808401919091528b0151610120830151131561081d57808b602001518361012001516107619190611ee9565b8261076c8782611f3e565b8e6080015161077b9190611f0f565b6107859190611f65565b61078f9190611f0f565b6107999190611f65565b604083015260208b015161012083015182916107b491611ee9565b828d60e001518e608001516107c99190611f0f565b6107d39190611f65565b6107dd9190611f0f565b6107e79190611f65565b82602001516107f69190611f3e565b6060830152815160e08c015161080c9190611f0f565b6108169085611f3e565b935061087e565b6108465f828d604001518561012001516108379190611ee9565b8e60a001516104ce9190611f0f565b604083015260208201516060830152815160e08c015161087b915f9161086c9190611f0f565b6108769087611ee9565b610f96565b93505b808261012001518c60c001516108949190611f0f565b61089e9190611f65565b60a083018190526108b0908690610f96565b94508160400151856108c29190611f3e565b6080830152815160608301516108d89190611f0f565b82608001516108e79190611f3e565b60c083015260a082015160808301511280159061090c57508160a001518260c0015112155b1561094857815160c083015160808401516002929161092a91611f3e565b6109349190611f0f565b61093e9190611f65565b60e0830152610a52565b8160a00151826080015112801561096657508160a001518260c00151125b1561097c57815160a083015161093e9190611f0f565b8160a0015182608001511215801561099b57508160a001518260c00151125b156109f6576002826060015160028460a0015185608001516109bd9190611ee9565b6109c79190612143565b6109d19190611f65565b6109db9190611f65565b825160a08401516109ec9190611f0f565b61093e9190611ee9565b6002826060015160028460a001518560c00151610a139190611ee9565b610a1d9190612143565b610a279190611f65565b610a319190611f65565b825160a0840151610a429190611f0f565b610a4c9190611f3e565b60e08301525b81516020830151610a7a91610a6691611f0f565b610a709087611f3e565b8360a00151610f96565b9450610a8b8a8a8460e00151610fe1565b835191975093505f90610aa8908890610aa390610fa4565b611126565b90975090508380610ab65750805b15610ac2575f95505f94505b50505095509550955095915050565b335f8181526020819052604081209091908280610af9610af085610d83565b8989894261031b565b9196509250905060016001607f1b038213610b315760016001607f1b03198212610b235781610b3a565b60016001607f1b0319610b3a565b60016001607f1b035b83546fffffffffffffffffffffffffffffffff19166001600160801b039190911617835560016001607f1b038113610b8f5760016001607f1b03198112610b815780610b98565b60016001607f1b0319610b98565b60016001607f1b035b83546001600160801b03918216600160801b02911617909255509195945050505050565b5f80836001600160a01b0316639ef2fda06040518163ffffffff1660e01b8152600401606060405180830381865afa158015610bfa573d5f803e3d5ffd5b505050506040513d601f19601f82011682018060405250810190610c1e9190611fa8565b9050610c48610c2c85610d83565b82516020840151604085015167ffffffffffffffff1687610662565b979650505050505050565b6001600160a01b038116610c7a57604051639fabe1c160e01b815260040160405180910390fd5b6001546001600160a01b031615610ca35760405162dc149f60e41b815260040160405180910390fd5b600180546001600160a01b0319166001600160a01b0383169081179091556040517f908408e307fc569b417f6cbec5d5a06f44a0a505ac0479b47d421a4b2fd6a1e6905f90a250565b5f80836001600160a01b0316639ef2fda06040518163ffffffff1660e01b8152600401606060405180830381865afa158015610d2a573d5f803e3d5ffd5b505050506040513d601f19601f82011682018060405250810190610d4e9190611fa8565b9050610d78610d5c85610d83565b82516020840151604085015167ffffffffffffffff168761031b565b509095945050505050565b610dcf6040518061014001604052805f81526020015f81526020015f81526020015f81526020015f81526020015f81526020015f81526020015f81526020015f81526020015f81525090565b6001600160a01b038083165f90815260208181526040808320815180830183529054600f81810b8352600160801b909104900b9281019290925260015481516330fe427560e21b815291519294169163c3f909d491600480820192610100929091908290030181865afa158015610e48573d5f803e3d5ffd5b505050506040513d601f19601f82011682018060405250810190610e6c9190612151565b805184526020808201518186015260408083015190860152606080830151908601526080808301519086015260a0808301519086015260c0808301519086015260e091820151918501919091528251600f90810b61010086015292015190910b61012083015250919050565b5f6001600160ff1b03821115610f095760405163123baf0360e11b8152600481018390526024015b60405180910390fd5b5090565b5f821580610f19575081155b80610f22575083155b15610f2e57505f610f76565b828281610f3d57610f3d611eae565b04845f1981610f4e57610f4e611eae565b041115610f7357610f618285855f611159565b905083811115610f6e5750825b610f76565b50825b9392505050565b5f818312610f8b5781610f8d565b825b90505b92915050565b5f818313610f8b5781610f8d565b5f80821215610f0957604051635467221960e11b815260048101839052602401610f00565b5f68056bc75e2d63100000808311610f905782610f76565b5f805f6799e8e8e3d5303681841261100957690de0b6b3a76400000000925060019150611040565b670de0b6b3a764000061101b8561119b565b6110259190611ee9565b90505f8113611034575f61103d565b61103d81610fa4565b92505b5f85871161104e5785611050565b865b90507612725dd1d243aba0e75fe645cc4873f9e65afe688c928e811061107e575f600193509350505061111e565b8386025f8190036110915750505061111e565b868582816110a1576110a1611eae565b041415806110d257507612725dd1d243aba0e75fe645cc4873f9e65afe688c928e829003670de0b6b3a76400008204115b1561111a57867612725dd1d243aba0e75fe645cc4873f9e65afe688c928e839003670de0b6b3a7640000028161110a5761110a611eae565b0494506001935061111e92505050565b5050505b935093915050565b5f8080611139846502e24d16b5a8611f91565b905080851161114957845f61114d565b8060015b92509250509250929050565b5f611186611166836111f1565b801561118157505f848061117c5761117c611eae565b868809115b151590565b61119186868661121d565b6105c591906121eb565b5f68023f2fa8f6da5b9d31198212156111b557505f919050565b6804cf46d8192b672ecc82126111c9575f80fd5b6714057b7ef767814f8202610f76670de0b6b3a76400006706f05b59d3b200008301056112da565b5f6002826003811115611206576112066121fe565b6112109190612212565b60ff166001149050919050565b5f838302815f1985870982811083820303915050805f036112515783828161124757611247611eae565b0492505050610f76565b80841161126f5761126f841561126857601161135c565b601261135c565b5f848688095f868103871696879004966002600389028118808a02820302808a02820302808a02820302808a02820302808a02820302808a02909103029181900381900460010186841190950394909402919094039290920491909117919091029150509392505050565b5f8082121561132b5768033dd1780914b97114198212156112fc57505f919050565b611307825f036112da565b6ec097ce7bc90715b34b9f10000000008161132457611324611eae565b0592915050565b6806f05b59d3b2000000821261133f575f80fd5b670de0b6b3a7640000608083901b04610f768161136d565b919050565b634e487b715f52806020526024601cfd5b6001607f1b818116156113915770016a09e667f3bcc908b2fb1366ea957d3e0260801c5b6001607e1b8216156113b4577001306fe0a31b7152de8d5a46305c85eded0260801c5b6001607d1b8216156113d7577001172b83c7d517adcdf7c8c50eb14a79200260801c5b6001607c1b8216156113fa5770010b5586cf9890f6298b92b71842a983640260801c5b6001607b1b82161561141d577001059b0d31585743ae7c548eb68ca417fe0260801c5b6001607a1b82161561144057700102c9a3e778060ee6f7caca4f7a29bde90260801c5b600160791b8216156114635770010163da9fb33356d84a66ae336dcdfa400260801c5b600160781b82161561148657700100b1afa5abcbed6129ab13ec11dc95440260801c5b600160771b8216156114a95770010058c86da1c09ea1ff19d294cf2f679c0260801c5b600160761b8216156114cc577001002c605e2e8cec506d21bfc89a23a0110260801c5b600160751b8216156114ef57700100162f3904051fa128bca9c55c31e5e00260801c5b600160741b821615611512577001000b175effdc76ba38e31671ca9397260260801c5b600160731b82161561153557700100058ba01fb9f96d6cacd4b180917c3e0260801c5b600160721b8216156115585770010002c5cc37da9491d0985c348c68e7b40260801c5b600160711b82161561157b577001000162e525ee054754457d59952920270260801c5b600160701b82161561159e5770010000b17255775c040618bf4a4ade83fd0260801c5b6001606f1b8216156115c1577001000058b91b5bc9ae2eed81e9b7d4cfac0260801c5b6001606e1b8216156115e457700100002c5c89d5ec6ca4d7c8acc017b7ca0260801c5b6001606d1b8216156116075770010000162e43f4f831060e02d839a9d16d0260801c5b6001606c1b82161561162a57700100000b1721bcfc99d9f890ea069117630260801c5b6001606b1b82161561164d5770010000058b90cf1e6d97f9ca14dbcc16290260801c5b6001606a1b821615611670577001000002c5c863b73f016468f6bac5ca2c0260801c5b600160691b82161561169357700100000162e430e5a18f6119e3c02282a60260801c5b600160681b8216156116b6577001000000b1721835514b86e6d96efd1bff0260801c5b600160671b8216156116d957700100000058b90c0b48c6be5df846c5b2f00260801c5b600160661b8216156116fc5770010000002c5c8601cc6b9e94213c72737b0260801c5b600160651b82161561171f577001000000162e42fff037df38aa2b219f070260801c5b600160641b8216156117425770010000000b17217fba9c739aa5819f44fa0260801c5b600160631b821615611765577001000000058b90bfcdee5acd3c1cedc8240260801c5b600160621b82161561178857700100000002c5c85fe31f35a6a30da1be510260801c5b600160611b8216156117ab5770010000000162e42ff0999ce3541b9fffd00260801c5b600160601b8216156117ce57700100000000b17217f80f4ef5aadda455540260801c5b6001605f1b8216156117f15770010000000058b90bfbf8479bd5a81b51ae0260801c5b6001605e1b821615611814577001000000002c5c85fdf84bd62ae30a74cd0260801c5b6001605d1b82161561183757700100000000162e42fefb2fed257559bdaa0260801c5b6001605c1b82161561185a577001000000000b17217f7d5a7716bba4a9af0260801c5b6001605b1b82161561187d57700100000000058b90bfbe9ddbac5e109ccf0260801c5b6001605a1b8216156118a05770010000000002c5c85fdf4b15de6f17eb0e0260801c5b600160591b8216156118c3577001000000000162e42fefa494f1478fde050260801c5b600160581b8216156118e65770010000000000b17217f7d20cf927c8e94d0260801c5b600160571b821615611909577001000000000058b90bfbe8f71cb4e4b33e0260801c5b600160561b82161561192c57700100000000002c5c85fdf477b662b269460260801c5b600160551b82161561194f5770010000000000162e42fefa3ae53369388d0260801c5b600160541b82161561197257700100000000000b17217f7d1d351a389d410260801c5b600160531b8216156119955770010000000000058b90bfbe8e8b2d3d4edf0260801c5b600160521b8216156119b8577001000000000002c5c85fdf4741bea6e77f0260801c5b600160511b8216156119db57700100000000000162e42fefa39fe95583c30260801c5b600160501b8216156119fe577001000000000000b17217f7d1cfb72b45e30260801c5b6980000000000000000000821615611a2757700100000000000058b90bfbe8e7cc35c3f20260801c5b6940000000000000000000821615611a505770010000000000002c5c85fdf473e242ea390260801c5b6920000000000000000000821615611a79577001000000000000162e42fefa39f02b772c0260801c5b6910000000000000000000821615611aa25770010000000000000b17217f7d1cf7d83c1a0260801c5b6908000000000000000000821615611acb577001000000000000058b90bfbe8e7bdcbe2e0260801c5b6904000000000000000000821615611af457700100000000000002c5c85fdf473dea871f0260801c5b6902000000000000000000821615611b1d5770010000000000000162e42fefa39ef44d920260801c5b6901000000000000000000821615611b4657700100000000000000b17217f7d1cf79e9490260801c5b68800000000000000000821615611b6e5770010000000000000058b90bfbe8e7bce5450260801c5b68400000000000000000821615611b96577001000000000000002c5c85fdf473de6eca0260801c5b68200000000000000000821615611bbe57700100000000000000162e42fefa39ef366f0260801c5b68100000000000000000821615611be6577001000000000000000b17217f7d1cf79afa0260801c5b68080000000000000000821615611c0e57700100000000000000058b90bfbe8e7bcd6e0260801c5b68040000000000000000821615611c365770010000000000000002c5c85fdf473de6b30260801c5b68020000000000000000821615611c5e577001000000000000000162e42fefa39ef3590260801c5b68010000000000000000821615611c865770010000000000000000b17217f7d1cf79ac0260801c5b6001608083901c011b610f9081670de0b6b3a7640000600160801b5f80805f19858709858702925082811083820303915050805f03611cd5575f8411611cca575f80fd5b508290049050610f76565b808411611ce0575f80fd5b5f8486880960026001871981018816978890046003810283188082028403028082028403028082028403028082028403028082028403029081029092039091025f889003889004909101858311909403939093029303949094049190911702949350505050565b604051610140810167ffffffffffffffff81118282101715611d7757634e487b7160e01b5f52604160045260245ffd5b60405290565b5f805f805f8587036101c0811215611d93575f80fd5b61014080821215611da2575f80fd5b611daa611d47565b883581526020808a0135908201526040808a0135908201526060808a0135908201526080808a01359082015260a0808a01359082015260c0808a01359082015260e0808a013590820152610100808a013590820152610120808a013590820152999088013598506101608801359761018081013597506101a0013595509350505050565b80356001600160a01b0381168114611357575f80fd5b5f8060408385031215611e55575f80fd5b611e5e83611e2e565b946020939093013593505050565b5f805f60608486031215611e7e575f80fd5b505081359360208301359350604090920135919050565b5f60208284031215611ea5575f80fd5b610f8d82611e2e565b634e487b7160e01b5f52601260045260245ffd5b634e487b7160e01b5f52601160045260245ffd5b5f82611ee457611ee4611eae565b500490565b8181035f831280158383131683831282161715611f0857611f08611ec2565b5092915050565b8082025f8212600160ff1b84141615611f2a57611f2a611ec2565b8181058314821517610f9057610f90611ec2565b8082018281125f831280158216821582161715611f5d57611f5d611ec2565b505092915050565b5f82611f7357611f73611eae565b600160ff1b82145f1984141615611f8c57611f8c611ec2565b500590565b8082028115828204841417610f9057610f90611ec2565b5f60608284031215611fb8575f80fd5b6040516060810167ffffffffffffffff8282108183111715611fe857634e487b7160e01b5f52604160045260245ffd5b81604052845183526020850151602084015260408501519150808216821461200e575f80fd5b5060408201529392505050565b80825b600180861161202d575061111e565b6001600160ff1b0382900482111561204757612047611ec2565b8086161561205457918102915b9490941c93800261201e565b5f828015612075576001811461207f57612088565b6001915050610f90565b82915050610f90565b508161209557505f610f90565b5060015f82138082146120ad5780156120cc576120e6565b6001600160ff1b038390048311156120c7576120c7611ec2565b6120e6565b6001600160ff1b038390058312156120e6576120e6611ec2565b50808316156120f25750805b6121028360011c8384028361201b565b5f82136001600160ff1b038290048311161561212057612120611ec2565b5f8212600160ff1b8290058312161561213b5761213b611ec2565b029392505050565b5f610f8d60ff841683612060565b5f610100808385031215612163575f80fd5b6040519081019067ffffffffffffffff8211818310171561219257634e487b7160e01b5f52604160045260245ffd5b81604052835181526020840151602082015260408401516040820152606084015160608201526080840151608082015260a084015160a082015260c084015160c082015260e084015160e0820152809250505092915050565b80820180821115610f9057610f90611ec2565b634e487b7160e01b5f52602160045260245ffd5b5f60ff83168061222457612224611eae565b8060ff8416069150509291505056fea2646970667358221220800b6b1913a296660077a6cb712d3cc86ae532cfd84b3ad3dac98ec6bacf1fc664736f6c63430008180033",
  "language": "Solidity",
  "compiler": "0.8.24+commit.e11b9ed9"
}