{
  "address": "0xF668250Af083b2B963E9F99DD5713952ac3CaA67",
  "abi": [
    {
      "inputs": [],
      "name": "ASSET_DATA_OVERFLOW_LIMIT",
      "outputs": [
        {
          "internalType": "uint256",
          "name": "",
          "type": "uint256"
        }
      ],
      "stateMutability": "view",
      "type": "function"
    },
    {
      "inputs": [],
      "name": "RCOMP_MAX",
      "outputs": [
        {
          "internalType": "uint256",
          "name": "",
          "type": "uint256"
        }
      ],
      "stateMutability": "view",
      "type": "function"
    },
    {
      "inputs": [],
      "name": "X_MAX",
      "outputs": [
        {
          "internalType": "int256",
          "name": "",
          "type": "int256"
        }
      ],
      "stateMutability": "view",
      "type": "function"
    },
    {
      "inputs": [
        {
          "components": [
            {
              "internalType": "int256",
              "name": "uopt",
              "type": "int256"
            },
            {
              "internalType": "int256",
              "name": "ucrit",
              "type": "int256"
            },
            {
              "internalType": "int256",
              "name": "ulow",
              "type": "int256"
            },
            {
              "internalType": "int256",
              "name": "ki",
              "type": "int256"
            },
            {
              "internalType": "int256",
              "name": "kcrit",
              "type": "int256"
            },
            {
              "internalType": "int256",
              "name": "klow",
              "type": "int256"
            },
            {
              "internalType": "int256",
              "name": "klin",
              "type": "int256"
            },
            {
              "internalType": "int256",
              "name": "beta",
              "type": "int256"
            },
            {
              "internalType": "int256",
              "name": "ri",
              "type": "int256"
            },
            {
              "internalType": "int256",
              "name": "Tcrit",
              "type": "int256"
            }
          ],
          "internalType": "struct IInterestRateModelV2.ConfigWithState",
          "name": "_c",
          "type": "tuple"
        },
        {
          "internalType": "uint256",
          "name": "_totalDeposits",
          "type": "uint256"
        },
        {
          "internalType": "uint256",
          "name": "_totalBorrowAmount",
          "type": "uint256"
        },
        {
          "internalType": "uint256",
          "name": "_interestRateTimestamp",
          "type": "uint256"
        },
        {
          "internalType": "uint256",
          "name": "_blockTimestamp",
          "type": "uint256"
        }
      ],
      "name": "calculateCompoundInterestRate",
      "outputs": [
        {
          "internalType": "uint256",
          "name": "rcomp",
          "type": "uint256"
        },
        {
          "internalType": "int256",
          "name": "ri",
          "type": "int256"
        },
        {
          "internalType": "int256",
          "name": "Tcrit",
          "type": "int256"
        }
      ],
      "stateMutability": "pure",
      "type": "function"
    },
    {
      "inputs": [
        {
          "components": [
            {
              "internalType": "int256",
              "name": "uopt",
              "type": "int256"
            },
            {
              "internalType": "int256",
              "name": "ucrit",
              "type": "int256"
            },
            {
              "internalType": "int256",
              "name": "ulow",
              "type": "int256"
            },
            {
              "internalType": "int256",
              "name": "ki",
              "type": "int256"
            },
            {
              "internalType": "int256",
              "name": "kcrit",
              "type": "int256"
            },
            {
              "internalType": "int256",
              "name": "klow",
              "type": "int256"
            },
            {
              "internalType": "int256",
              "name": "klin",
              "type": "int256"
            },
            {
              "internalType": "int256",
              "name": "beta",
              "type": "int256"
            },
            {
              "internalType": "int256",
              "name": "ri",
              "type": "int256"
            },
            {
              "internalType": "int256",
              "name": "Tcrit",
              "type": "int256"
            }
          ],
          "internalType": "struct IInterestRateModelV2.ConfigWithState",
          "name": "_c",
          "type": "tuple"
        },
        {
          "internalType": "uint256",
          "name": "_totalDeposits",
          "type": "uint256"
        },
        {
          "internalType": "uint256",
          "name": "_totalBorrowAmount",
          "type": "uint256"
        },
        {
          "internalType": "uint256",
          "name": "_interestRateTimestamp",
          "type": "uint256"
        },
        {
          "internalType": "uint256",
          "name": "_blockTimestamp",
          "type": "uint256"
        }
      ],
      "name": "calculateCompoundInterestRateWithOverflowDetection",
      "outputs": [
        {
          "internalType": "uint256",
          "name": "rcomp",
          "type": "uint256"
        },
        {
          "internalType": "int256",
          "name": "ri",
          "type": "int256"
        },
        {
          "internalType": "int256",
          "name": "Tcrit",
          "type": "int256"
        },
        {
          "internalType": "bool",
          "name": "overflow",
          "type": "bool"
        }
      ],
      "stateMutability": "pure",
      "type": "function"
    },
    {
      "inputs": [
        {
          "components": [
            {
              "internalType": "int256",
              "name": "uopt",
              "type": "int256"
            },
            {
              "internalType": "int256",
              "name": "ucrit",
              "type": "int256"
            },
            {
              "internalType": "int256",
              "name": "ulow",
              "type": "int256"
            },
            {
              "internalType": "int256",
              "name": "ki",
              "type": "int256"
            },
            {
              "internalType": "int256",
              "name": "kcrit",
              "type": "int256"
            },
            {
              "internalType": "int256",
              "name": "klow",
              "type": "int256"
            },
            {
              "internalType": "int256",
              "name": "klin",
              "type": "int256"
            },
            {
              "internalType": "int256",
              "name": "beta",
              "type": "int256"
            },
            {
              "internalType": "int256",
              "name": "ri",
              "type": "int256"
            },
            {
              "internalType": "int256",
              "name": "Tcrit",
              "type": "int256"
            }
          ],
          "internalType": "struct IInterestRateModelV2.ConfigWithState",
          "name": "_c",
          "type": "tuple"
        },
        {
          "internalType": "uint256",
          "name": "_totalDeposits",
          "type": "uint256"
        },
        {
          "internalType": "uint256",
          "name": "_totalBorrowAmount",
          "type": "uint256"
        },
        {
          "internalType": "uint256",
          "name": "_interestRateTimestamp",
          "type": "uint256"
        },
        {
          "internalType": "uint256",
          "name": "_blockTimestamp",
          "type": "uint256"
        }
      ],
      "name": "calculateCurrentInterestRate",
      "outputs": [
        {
          "internalType": "uint256",
          "name": "rcur",
          "type": "uint256"
        }
      ],
      "stateMutability": "pure",
      "type": "function"
    },
    {
      "inputs": [
        {
          "internalType": "address",
          "name": "_configAddress",
          "type": "address"
        }
      ],
      "name": "connect",
      "outputs": [],
      "stateMutability": "nonpayable",
      "type": "function"
    },
    {
      "inputs": [],
      "name": "decimals",
      "outputs": [
        {
          "internalType": "uint256",
          "name": "",
          "type": "uint256"
        }
      ],
      "stateMutability": "view",
      "type": "function"
    },
    {
      "inputs": [
        {
          "internalType": "address",
          "name": "_silo",
          "type": "address"
        },
        {
          "internalType": "uint256",
          "name": "_blockTimestamp",
          "type": "uint256"
        }
      ],
      "name": "getCompoundInterestRate",
      "outputs": [
        {
          "internalType": "uint256",
          "name": "rcomp",
          "type": "uint256"
        }
      ],
      "stateMutability": "view",
      "type": "function"
    },
    {
      "inputs": [
        {
          "internalType": "uint256",
          "name": "_collateralAssets",
          "type": "uint256"
        },
        {
          "internalType": "uint256",
          "name": "_debtAssets",
          "type": "uint256"
        },
        {
          "internalType": "uint256",
          "name": "_interestRateTimestamp",
          "type": "uint256"
        }
      ],
      "name": "getCompoundInterestRateAndUpdate",
      "outputs": [
        {
          "internalType": "uint256",
          "name": "rcomp",
          "type": "uint256"
        }
      ],
      "stateMutability": "nonpayable",
      "type": "function"
    },
    {
      "inputs": [
        {
          "internalType": "address",
          "name": "_silo",
          "type": "address"
        }
      ],
      "name": "getConfig",
      "outputs": [
        {
          "components": [
            {
              "internalType": "int256",
              "name": "uopt",
              "type": "int256"
            },
            {
              "internalType": "int256",
              "name": "ucrit",
              "type": "int256"
            },
            {
              "internalType": "int256",
              "name": "ulow",
              "type": "int256"
            },
            {
              "internalType": "int256",
              "name": "ki",
              "type": "int256"
            },
            {
              "internalType": "int256",
              "name": "kcrit",
              "type": "int256"
            },
            {
              "internalType": "int256",
              "name": "klow",
              "type": "int256"
            },
            {
              "internalType": "int256",
              "name": "klin",
              "type": "int256"
            },
            {
              "internalType": "int256",
              "name": "beta",
              "type": "int256"
            },
            {
              "internalType": "int256",
              "name": "ri",
              "type": "int256"
            },
            {
              "internalType": "int256",
              "name": "Tcrit",
              "type": "int256"
            }
          ],
          "internalType": "struct IInterestRateModelV2.ConfigWithState",
          "name": "fullConfig",
          "type": "tuple"
        }
      ],
      "stateMutability": "view",
      "type": "function"
    },
    {
      "inputs": [
        {
          "internalType": "address",
          "name": "_silo",
          "type": "address"
        },
        {
          "internalType": "uint256",
          "name": "_blockTimestamp",
          "type": "uint256"
        }
      ],
      "name": "getCurrentInterestRate",
      "outputs": [
        {
          "internalType": "uint256",
          "name": "rcur",
          "type": "uint256"
        }
      ],
      "stateMutability": "view",
      "type": "function"
    },
    {
      "inputs": [
        {
          "internalType": "address",
          "name": "",
          "type": "address"
        }
      ],
      "name": "getSetup",
      "outputs": [
        {
          "internalType": "int128",
          "name": "ri",
          "type": "int128"
        },
        {
          "internalType": "int128",
          "name": "Tcrit",
          "type": "int128"
        },
        {
          "internalType": "contract IInterestRateModelV2Config",
          "name": "config",
          "type": "address"
        }
      ],
      "stateMutability": "view",
      "type": "function"
    },
    {
      "inputs": [
        {
          "internalType": "address",
          "name": "_silo",
          "type": "address"
        },
        {
          "internalType": "uint256",
          "name": "_blockTimestamp",
          "type": "uint256"
        }
      ],
      "name": "overflowDetected",
      "outputs": [
        {
          "internalType": "bool",
          "name": "overflow",
          "type": "bool"
        }
      ],
      "stateMutability": "view",
      "type": "function"
    },
    {
      "anonymous": false,
      "inputs": [
        {
          "indexed": true,
          "internalType": "address",
          "name": "silo",
          "type": "address"
        },
        {
          "indexed": true,
          "internalType": "address",
          "name": "config",
          "type": "address"
        }
      ],
      "name": "Initialized",
      "type": "event"
    },
    {
      "inputs": [],
      "name": "AddressZero",
      "type": "error"
    },
    {
      "inputs": [],
      "name": "AlreadyConnected",
      "type": "error"
    },
    {
      "inputs": [],
      "name": "DeployConfigFirst",
      "type": "error"
    },
    {
      "inputs": [],
      "name": "InvalidBeta",
      "type": "error"
    },
    {
      "inputs": [],
      "name": "InvalidKcrit",
      "type": "error"
    },
    {
      "inputs": [],
      "name": "InvalidKi",
      "type": "error"
    },
    {
      "inputs": [],
      "name": "InvalidKlin",
      "type": "error"
    },
    {
      "inputs": [],
      "name": "InvalidKlow",
      "type": "error"
    },
    {
      "inputs": [],
      "name": "InvalidRi",
      "type": "error"
    },
    {
      "inputs": [],
      "name": "InvalidTcrit",
      "type": "error"
    },
    {
      "inputs": [],
      "name": "InvalidTimestamps",
      "type": "error"
    },
    {
      "inputs": [],
      "name": "InvalidUcrit",
      "type": "error"
    },
    {
      "inputs": [],
      "name": "InvalidUlow",
      "type": "error"
    },
    {
      "inputs": [],
      "name": "InvalidUopt",
      "type": "error"
    },
    {
      "inputs": [
        {
          "internalType": "int256",
          "name": "value",
          "type": "int256"
        }
      ],
      "name": "SafeCastOverflowedIntToUint",
      "type": "error"
    },
    {
      "inputs": [
        {
          "internalType": "uint256",
          "name": "value",
          "type": "uint256"
        }
      ],
      "name": "SafeCastOverflowedUintToInt",
      "type": "error"
    }
  ],
  "bytecode": "0x608060405234801561000f575f80fd5b506120a98061001d5f395ff3fe608060405234801561000f575f80fd5b50600436106100e5575f3560e01c806384de969a11610088578063cfdfcffa11610063578063cfdfcffa14610244578063e076a55114610257578063e48a5f7b14610268578063ee8f931b146102f3575f80fd5b806384de969a146101a3578063b78fec82146101b6578063c6c721b3146101d9575f80fd5b80633ced7d0d116100c35780633ced7d0d1461013957806364efe1771461014c5780636e1a41401461015f57806381b51e0c14610194575f80fd5b8063023279ce146100e9578063109a006e1461011c578063313ce56714610132575b5f80fd5b6100fc6100f7366004611c05565b610308565b604080519384526020840192909252908201526060015b60405180910390f35b61012461032a565b604051908152602001610113565b6012610124565b610124610147366004611c05565b610342565b61012461015a366004611ccc565b6105bb565b61017261016d366004611c05565b61064f565b6040805194855260208501939093529183015215156060820152608001610113565b6101246799e8e8e3d530368181565b6101246101b1366004611cf4565b610abe565b6101c96101c4366004611ccc565b610ba9565b6040519015158152602001610113565b6102186101e7366004611d1d565b5f6020819052908152604090208054600190910154600f82810b92600160801b9004900b906001600160a01b031683565b60408051600f94850b81529290930b60208301526001600160a01b031691810191909152606001610113565b610124610252366004611ccc565b610c40565b610124690de0b6b3a7640000000081565b61027b610276366004611d1d565b610cd7565b60405161011391905f61014082019050825182526020830151602083015260408301516040830152606083015160608301526080830151608083015260a083015160a083015260c083015160c083015260e083015160e083015261010080840151818401525061012080840151818401525092915050565b610306610301366004611d1d565b610e37565b005b5f805f610318888888888861064f565b50919a90995090975095505050505050565b61033f690de0b6b3a764000000005f19611d5e565b81565b5f818311156103645760405163d22806e360e01b815260040160405180910390fd5b5f6040518060e001604052805f81526020015f81526020015f81526020015f81526020015f81526020015f81526020015f151581525090506103a9878787878761064f565b15801560c086015292506103c3915050575f9150506105b2565b6103ce848403610ec8565b81526103eb6103e6670de0b6b3a76400008888610efd565b610ec8565b6020808301829052670de0b6b3a76400006040840152880151121561048f578060400151876020015182602001516104239190611d71565b6040830151835160e08b01516104399190611d97565b8a6101200151856040015161044e9190611dc6565b6104589190611dc6565b8a608001516104679190611d97565b6104719190611ded565b61047b9190611d97565b6104859190611ded565b60608201526104d0565b6104ca5f8260400151896040015184602001516104ac9190611d71565b8a60a001516104bb9190611d97565b6104c59190611ded565b610f45565b60608201525b806040015181602001518860c001516104e99190611d97565b6104f39190611ded565b6080820181905261010088015161050991610f5e565b60a0820152604081015181518851602084015161056793929161052b91611d71565b8a6060015161053a9190611d97565b6105449190611d97565b61054e9190611ded565b8260a0015161055d9190611dc6565b8260800151610f5e565b60a0820181905260608201516105939161058e9161058491611dc6565b8360800151610f5e565b610f6c565b91506105a36301e1338083611e19565b91506105ae82610f91565b9150505b95945050505050565b5f80836001600160a01b0316639ef2fda06040518163ffffffff1660e01b8152600401606060405180830381865afa1580156105f9573d5f803e3d5ffd5b505050506040513d601f19601f8201168201806040525081019061061d9190611e30565b905061064761062b85610cd7565b82516020840151604085015167ffffffffffffffff1687610342565b949350505050565b5f805f80886101000151925088610120015191505f6040518061014001604052805f81526020015f81526020015f81526020015f81526020015f81526020015f81526020015f81526020015f81526020015f81526020015f8152509050858711156106cd5760405163d22806e360e01b815260040160405180910390fd5b6106d8878703610ec8565b8152670de0b6b3a76400006106f16103e6828c8c610efd565b61012083018190528b5182916107079190611d71565b8c606001516107169190611d97565b6107209190611ded565b6020808401919091528b0151610120830151131561080a57808b6020015183610120015161074e9190611d71565b826107598782611dc6565b8e608001516107689190611d97565b6107729190611ded565b61077c9190611d97565b6107869190611ded565b604083015260208b015161012083015182916107a191611d71565b828d60e001518e608001516107b69190611d97565b6107c09190611ded565b6107ca9190611d97565b6107d49190611ded565b82602001516107e39190611dc6565b6060830152815160e08c01516107f99190611d97565b6108039085611dc6565b935061086b565b6108335f828d604001518561012001516108249190611d71565b8e60a001516104bb9190611d97565b604083015260208201516060830152815160e08c0151610868915f916108599190611d97565b6108639087611d71565b610f5e565b93505b808261012001518c60c001516108819190611d97565b61088b9190611ded565b60a0830181905261089d908690610f5e565b94508160400151856108af9190611dc6565b6080830152815160608301516108c59190611d97565b82608001516108d49190611dc6565b60c083015260a08201516080830151128015906108f957508160a001518260c0015112155b1561093557815160c083015160808401516002929161091791611dc6565b6109219190611d97565b61092b9190611ded565b60e0830152610a3f565b8160a00151826080015112801561095357508160a001518260c00151125b1561096957815160a083015161092b9190611d97565b8160a0015182608001511215801561098857508160a001518260c00151125b156109e3576002826060015160028460a0015185608001516109aa9190611d71565b6109b49190611fcb565b6109be9190611ded565b6109c89190611ded565b825160a08401516109d99190611d97565b61092b9190611d71565b6002826060015160028460a001518560c00151610a009190611d71565b610a0a9190611fcb565b610a149190611ded565b610a1e9190611ded565b825160a0840151610a2f9190611d97565b610a399190611dc6565b60e08301525b81516020830151610a6791610a5391611d97565b610a5d9087611dc6565b8360a00151610f5e565b9450610a788a8a8460e00151610fa9565b835191975093505f90610a95908890610a9090610f6c565b6110ee565b90975090508380610aa35750805b15610aaf575f95505f94505b50505095509550955095915050565b335f8181526020819052604081209091908280610ae6610add85610cd7565b89898942610308565b9196509250905060016001607f1b038213610b1e5760016001607f1b03198212610b105781610b27565b60016001607f1b0319610b27565b60016001607f1b035b83546fffffffffffffffffffffffffffffffff19166001600160801b039190911617835560016001607f1b038113610b7c5760016001607f1b03198112610b6e5780610b85565b60016001607f1b0319610b85565b60016001607f1b035b83546001600160801b03918216600160801b02911617909255509195945050505050565b5f80836001600160a01b0316639ef2fda06040518163ffffffff1660e01b8152600401606060405180830381865afa158015610be7573d5f803e3d5ffd5b505050506040513d601f19601f82011682018060405250810190610c0b9190611e30565b9050610c35610c1985610cd7565b82516020840151604085015167ffffffffffffffff168761064f565b979650505050505050565b5f80836001600160a01b0316639ef2fda06040518163ffffffff1660e01b8152600401606060405180830381865afa158015610c7e573d5f803e3d5ffd5b505050506040513d601f19601f82011682018060405250810190610ca29190611e30565b9050610ccc610cb085610cd7565b82516020840151604085015167ffffffffffffffff1687610308565b509095945050505050565b610d236040518061014001604052805f81526020015f81526020015f81526020015f81526020015f81526020015f81526020015f81526020015f81526020015f81526020015f81525090565b6001600160a01b038083165f9081526020818152604080832081516060810183528154600f81810b8352600160801b909104900b938101939093526001015490931681840181905283516330fe427560e21b815293519193909163c3f909d491600480820192610100929091908290030181865afa158015610da7573d5f803e3d5ffd5b505050506040513d601f19601f82011682018060405250810190610dcb9190611fd9565b805184526020808201518186015260408083015190860152606080830151908601526080808301519086015260a0808301519086015260c0808301519086015260e091820151918501919091528251600f90810b61010086015292015190910b61012083015250919050565b335f908152602081905260409020600101546001600160a01b031615610e6f576040516239c01160e31b815260040160405180910390fd5b335f8181526020819052604080822060010180546001600160a01b0319166001600160a01b03861690811790915590519092917f3cd5ec01b1ae7cfec6ca1863e2cd6aa25d6d1702825803ff2b7cc95010fffdc291a350565b5f6001600160ff1b03821115610ef95760405163123baf0360e11b8152600481018390526024015b60405180910390fd5b5090565b5f821580610f09575081155b15610f1557505f610f3e565b610f1f8483611e19565b9050828181610f3057610f30611d36565b04905083811115610f3e5750825b9392505050565b5f818312610f535781610f55565b825b90505b92915050565b5f818313610f535781610f55565b5f80821215610ef957604051635467221960e11b815260048101839052602401610ef0565b5f68056bc75e2d63100000808311610f585782610f3e565b5f805f6799e8e8e3d53036818412610fd157690de0b6b3a76400000000925060019150611008565b670de0b6b3a7640000610fe385611121565b610fed9190611d71565b90505f8113610ffc575f611005565b61100581610f6c565b92505b5f8587116110165785611018565b865b90507612725dd1d243aba0e75fe645cc4873f9e65afe688c928e8110611046575f60019350935050506110e6565b8386025f819003611059575050506110e6565b8685828161106957611069611d36565b0414158061109a57507612725dd1d243aba0e75fe645cc4873f9e65afe688c928e829003670de0b6b3a76400008204115b156110e257867612725dd1d243aba0e75fe645cc4873f9e65afe688c928e839003670de0b6b3a764000002816110d2576110d2611d36565b049450600193506110e692505050565b5050505b935093915050565b5f8080611101846502e24d16b5a8611e19565b905080851161111157845f611115565b8060015b92509250509250929050565b5f68023f2fa8f6da5b9d311982121561113b57505f919050565b6804cf46d8192b672ecc821261114f575f80fd5b6714057b7ef767814f8202610f3e670de0b6b3a76400006706f05b59d3b200008301055b5f808212156111c45768033dd1780914b971141982121561119557505f919050565b6111a0825f03611173565b6ec097ce7bc90715b34b9f1000000000816111bd576111bd611d36565b0592915050565b6806f05b59d3b200000082126111d8575f80fd5b670de0b6b3a7640000608083901b04610f3e816111f5565b919050565b6001607f1b818116156112195770016a09e667f3bcc908b2fb1366ea957d3e0260801c5b6001607e1b82161561123c577001306fe0a31b7152de8d5a46305c85eded0260801c5b6001607d1b82161561125f577001172b83c7d517adcdf7c8c50eb14a79200260801c5b6001607c1b8216156112825770010b5586cf9890f6298b92b71842a983640260801c5b6001607b1b8216156112a5577001059b0d31585743ae7c548eb68ca417fe0260801c5b6001607a1b8216156112c857700102c9a3e778060ee6f7caca4f7a29bde90260801c5b600160791b8216156112eb5770010163da9fb33356d84a66ae336dcdfa400260801c5b600160781b82161561130e57700100b1afa5abcbed6129ab13ec11dc95440260801c5b600160771b8216156113315770010058c86da1c09ea1ff19d294cf2f679c0260801c5b600160761b821615611354577001002c605e2e8cec506d21bfc89a23a0110260801c5b600160751b82161561137757700100162f3904051fa128bca9c55c31e5e00260801c5b600160741b82161561139a577001000b175effdc76ba38e31671ca9397260260801c5b600160731b8216156113bd57700100058ba01fb9f96d6cacd4b180917c3e0260801c5b600160721b8216156113e05770010002c5cc37da9491d0985c348c68e7b40260801c5b600160711b821615611403577001000162e525ee054754457d59952920270260801c5b600160701b8216156114265770010000b17255775c040618bf4a4ade83fd0260801c5b6001606f1b821615611449577001000058b91b5bc9ae2eed81e9b7d4cfac0260801c5b6001606e1b82161561146c57700100002c5c89d5ec6ca4d7c8acc017b7ca0260801c5b6001606d1b82161561148f5770010000162e43f4f831060e02d839a9d16d0260801c5b6001606c1b8216156114b257700100000b1721bcfc99d9f890ea069117630260801c5b6001606b1b8216156114d55770010000058b90cf1e6d97f9ca14dbcc16290260801c5b6001606a1b8216156114f8577001000002c5c863b73f016468f6bac5ca2c0260801c5b600160691b82161561151b57700100000162e430e5a18f6119e3c02282a60260801c5b600160681b82161561153e577001000000b1721835514b86e6d96efd1bff0260801c5b600160671b82161561156157700100000058b90c0b48c6be5df846c5b2f00260801c5b600160661b8216156115845770010000002c5c8601cc6b9e94213c72737b0260801c5b600160651b8216156115a7577001000000162e42fff037df38aa2b219f070260801c5b600160641b8216156115ca5770010000000b17217fba9c739aa5819f44fa0260801c5b600160631b8216156115ed577001000000058b90bfcdee5acd3c1cedc8240260801c5b600160621b82161561161057700100000002c5c85fe31f35a6a30da1be510260801c5b600160611b8216156116335770010000000162e42ff0999ce3541b9fffd00260801c5b600160601b82161561165657700100000000b17217f80f4ef5aadda455540260801c5b6001605f1b8216156116795770010000000058b90bfbf8479bd5a81b51ae0260801c5b6001605e1b82161561169c577001000000002c5c85fdf84bd62ae30a74cd0260801c5b6001605d1b8216156116bf57700100000000162e42fefb2fed257559bdaa0260801c5b6001605c1b8216156116e2577001000000000b17217f7d5a7716bba4a9af0260801c5b6001605b1b82161561170557700100000000058b90bfbe9ddbac5e109ccf0260801c5b6001605a1b8216156117285770010000000002c5c85fdf4b15de6f17eb0e0260801c5b600160591b82161561174b577001000000000162e42fefa494f1478fde050260801c5b600160581b82161561176e5770010000000000b17217f7d20cf927c8e94d0260801c5b600160571b821615611791577001000000000058b90bfbe8f71cb4e4b33e0260801c5b600160561b8216156117b457700100000000002c5c85fdf477b662b269460260801c5b600160551b8216156117d75770010000000000162e42fefa3ae53369388d0260801c5b600160541b8216156117fa57700100000000000b17217f7d1d351a389d410260801c5b600160531b82161561181d5770010000000000058b90bfbe8e8b2d3d4edf0260801c5b600160521b821615611840577001000000000002c5c85fdf4741bea6e77f0260801c5b600160511b82161561186357700100000000000162e42fefa39fe95583c30260801c5b600160501b821615611886577001000000000000b17217f7d1cfb72b45e30260801c5b69800000000000000000008216156118af57700100000000000058b90bfbe8e7cc35c3f20260801c5b69400000000000000000008216156118d85770010000000000002c5c85fdf473e242ea390260801c5b6920000000000000000000821615611901577001000000000000162e42fefa39f02b772c0260801c5b691000000000000000000082161561192a5770010000000000000b17217f7d1cf7d83c1a0260801c5b6908000000000000000000821615611953577001000000000000058b90bfbe8e7bdcbe2e0260801c5b690400000000000000000082161561197c57700100000000000002c5c85fdf473dea871f0260801c5b69020000000000000000008216156119a55770010000000000000162e42fefa39ef44d920260801c5b69010000000000000000008216156119ce57700100000000000000b17217f7d1cf79e9490260801c5b688000000000000000008216156119f65770010000000000000058b90bfbe8e7bce5450260801c5b68400000000000000000821615611a1e577001000000000000002c5c85fdf473de6eca0260801c5b68200000000000000000821615611a4657700100000000000000162e42fefa39ef366f0260801c5b68100000000000000000821615611a6e577001000000000000000b17217f7d1cf79afa0260801c5b68080000000000000000821615611a9657700100000000000000058b90bfbe8e7bcd6e0260801c5b68040000000000000000821615611abe5770010000000000000002c5c85fdf473de6b30260801c5b68020000000000000000821615611ae6577001000000000000000162e42fefa39ef3590260801c5b68010000000000000000821615611b0e5770010000000000000000b17217f7d1cf79ac0260801c5b6001608083901c011b610f5881670de0b6b3a7640000600160801b5f80805f19858709858702925082811083820303915050805f03611b5d575f8411611b52575f80fd5b508290049050610f3e565b808411611b68575f80fd5b5f8486880960026001871981018816978890046003810283188082028403028082028403028082028403028082028403028082028403029081029092039091025f889003889004909101858311909403939093029303949094049190911702949350505050565b604051610140810167ffffffffffffffff81118282101715611bff57634e487b7160e01b5f52604160045260245ffd5b60405290565b5f805f805f8587036101c0811215611c1b575f80fd5b61014080821215611c2a575f80fd5b611c32611bcf565b883581526020808a0135908201526040808a0135908201526060808a0135908201526080808a01359082015260a0808a01359082015260c0808a01359082015260e0808a013590820152610100808a013590820152610120808a013590820152999088013598506101608801359761018081013597506101a0013595509350505050565b80356001600160a01b03811681146111f0575f80fd5b5f8060408385031215611cdd575f80fd5b611ce683611cb6565b946020939093013593505050565b5f805f60608486031215611d06575f80fd5b505081359360208301359350604090920135919050565b5f60208284031215611d2d575f80fd5b610f5582611cb6565b634e487b7160e01b5f52601260045260245ffd5b634e487b7160e01b5f52601160045260245ffd5b5f82611d6c57611d6c611d36565b500490565b8181035f831280158383131683831282161715611d9057611d90611d4a565b5092915050565b8082025f8212600160ff1b84141615611db257611db2611d4a565b8181058314821517610f5857610f58611d4a565b8082018281125f831280158216821582161715611de557611de5611d4a565b505092915050565b5f82611dfb57611dfb611d36565b600160ff1b82145f1984141615611e1457611e14611d4a565b500590565b8082028115828204841417610f5857610f58611d4a565b5f60608284031215611e40575f80fd5b6040516060810167ffffffffffffffff8282108183111715611e7057634e487b7160e01b5f52604160045260245ffd5b816040528451835260208501516020840152604085015191508082168214611e96575f80fd5b5060408201529392505050565b80825b6001808611611eb557506110e6565b6001600160ff1b03829004821115611ecf57611ecf611d4a565b80861615611edc57918102915b9490941c938002611ea6565b5f828015611efd5760018114611f0757611f10565b6001915050610f58565b82915050610f58565b5081611f1d57505f610f58565b5060015f8213808214611f35578015611f5457611f6e565b6001600160ff1b03839004831115611f4f57611f4f611d4a565b611f6e565b6001600160ff1b03839005831215611f6e57611f6e611d4a565b5080831615611f7a5750805b611f8a8360011c83840283611ea3565b5f82136001600160ff1b0382900483111615611fa857611fa8611d4a565b5f8212600160ff1b82900583121615611fc357611fc3611d4a565b029392505050565b5f610f5560ff841683611ee8565b5f610100808385031215611feb575f80fd5b6040519081019067ffffffffffffffff8211818310171561201a57634e487b7160e01b5f52604160045260245ffd5b81604052835181526020840151602082015260408401516040820152606084015160608201526080840151608082015260a084015160a082015260c084015160c082015260e084015160e082015280925050509291505056fea264697066735822122052a67dafc547fc2ed75cfe4e18d47d02e78c399b8a11c85670cdc40e36c8c52d64736f6c63430008180033",
  "language": "Solidity",
  "compiler": "0.8.24+commit.e11b9ed9"
}