{
  "address": "0xf1268Fd0F285fCDcA2bC130E1B44229079487DD1",
  "abi": [
    {
      "inputs": [],
      "name": "AddressZero",
      "type": "error"
    },
    {
      "inputs": [],
      "name": "AlreadyConnected",
      "type": "error"
    },
    {
      "inputs": [],
      "name": "DeployConfigFirst",
      "type": "error"
    },
    {
      "inputs": [],
      "name": "InvalidBeta",
      "type": "error"
    },
    {
      "inputs": [],
      "name": "InvalidKcrit",
      "type": "error"
    },
    {
      "inputs": [],
      "name": "InvalidKi",
      "type": "error"
    },
    {
      "inputs": [],
      "name": "InvalidKlin",
      "type": "error"
    },
    {
      "inputs": [],
      "name": "InvalidKlow",
      "type": "error"
    },
    {
      "inputs": [],
      "name": "InvalidRi",
      "type": "error"
    },
    {
      "inputs": [],
      "name": "InvalidTcrit",
      "type": "error"
    },
    {
      "inputs": [],
      "name": "InvalidTimestamps",
      "type": "error"
    },
    {
      "inputs": [],
      "name": "InvalidUcrit",
      "type": "error"
    },
    {
      "inputs": [],
      "name": "InvalidUlow",
      "type": "error"
    },
    {
      "inputs": [],
      "name": "InvalidUopt",
      "type": "error"
    },
    {
      "anonymous": false,
      "inputs": [
        {
          "indexed": true,
          "internalType": "address",
          "name": "silo",
          "type": "address"
        },
        {
          "indexed": true,
          "internalType": "address",
          "name": "config",
          "type": "address"
        }
      ],
      "name": "Initialized",
      "type": "event"
    },
    {
      "inputs": [],
      "name": "ASSET_DATA_OVERFLOW_LIMIT",
      "outputs": [
        {
          "internalType": "uint256",
          "name": "",
          "type": "uint256"
        }
      ],
      "stateMutability": "view",
      "type": "function"
    },
    {
      "inputs": [],
      "name": "RCOMP_MAX",
      "outputs": [
        {
          "internalType": "uint256",
          "name": "",
          "type": "uint256"
        }
      ],
      "stateMutability": "view",
      "type": "function"
    },
    {
      "inputs": [],
      "name": "X_MAX",
      "outputs": [
        {
          "internalType": "int256",
          "name": "",
          "type": "int256"
        }
      ],
      "stateMutability": "view",
      "type": "function"
    },
    {
      "inputs": [
        {
          "components": [
            {
              "internalType": "int256",
              "name": "uopt",
              "type": "int256"
            },
            {
              "internalType": "int256",
              "name": "ucrit",
              "type": "int256"
            },
            {
              "internalType": "int256",
              "name": "ulow",
              "type": "int256"
            },
            {
              "internalType": "int256",
              "name": "ki",
              "type": "int256"
            },
            {
              "internalType": "int256",
              "name": "kcrit",
              "type": "int256"
            },
            {
              "internalType": "int256",
              "name": "klow",
              "type": "int256"
            },
            {
              "internalType": "int256",
              "name": "klin",
              "type": "int256"
            },
            {
              "internalType": "int256",
              "name": "beta",
              "type": "int256"
            },
            {
              "internalType": "int256",
              "name": "ri",
              "type": "int256"
            },
            {
              "internalType": "int256",
              "name": "Tcrit",
              "type": "int256"
            }
          ],
          "internalType": "struct IInterestRateModelV2.ConfigWithState",
          "name": "_c",
          "type": "tuple"
        },
        {
          "internalType": "uint256",
          "name": "_totalDeposits",
          "type": "uint256"
        },
        {
          "internalType": "uint256",
          "name": "_totalBorrowAmount",
          "type": "uint256"
        },
        {
          "internalType": "uint256",
          "name": "_interestRateTimestamp",
          "type": "uint256"
        },
        {
          "internalType": "uint256",
          "name": "_blockTimestamp",
          "type": "uint256"
        }
      ],
      "name": "calculateCompoundInterestRate",
      "outputs": [
        {
          "internalType": "uint256",
          "name": "rcomp",
          "type": "uint256"
        },
        {
          "internalType": "int256",
          "name": "ri",
          "type": "int256"
        },
        {
          "internalType": "int256",
          "name": "Tcrit",
          "type": "int256"
        }
      ],
      "stateMutability": "pure",
      "type": "function"
    },
    {
      "inputs": [
        {
          "components": [
            {
              "internalType": "int256",
              "name": "uopt",
              "type": "int256"
            },
            {
              "internalType": "int256",
              "name": "ucrit",
              "type": "int256"
            },
            {
              "internalType": "int256",
              "name": "ulow",
              "type": "int256"
            },
            {
              "internalType": "int256",
              "name": "ki",
              "type": "int256"
            },
            {
              "internalType": "int256",
              "name": "kcrit",
              "type": "int256"
            },
            {
              "internalType": "int256",
              "name": "klow",
              "type": "int256"
            },
            {
              "internalType": "int256",
              "name": "klin",
              "type": "int256"
            },
            {
              "internalType": "int256",
              "name": "beta",
              "type": "int256"
            },
            {
              "internalType": "int256",
              "name": "ri",
              "type": "int256"
            },
            {
              "internalType": "int256",
              "name": "Tcrit",
              "type": "int256"
            }
          ],
          "internalType": "struct IInterestRateModelV2.ConfigWithState",
          "name": "_c",
          "type": "tuple"
        },
        {
          "internalType": "uint256",
          "name": "_totalDeposits",
          "type": "uint256"
        },
        {
          "internalType": "uint256",
          "name": "_totalBorrowAmount",
          "type": "uint256"
        },
        {
          "internalType": "uint256",
          "name": "_interestRateTimestamp",
          "type": "uint256"
        },
        {
          "internalType": "uint256",
          "name": "_blockTimestamp",
          "type": "uint256"
        }
      ],
      "name": "calculateCompoundInterestRateWithOverflowDetection",
      "outputs": [
        {
          "internalType": "uint256",
          "name": "rcomp",
          "type": "uint256"
        },
        {
          "internalType": "int256",
          "name": "ri",
          "type": "int256"
        },
        {
          "internalType": "int256",
          "name": "Tcrit",
          "type": "int256"
        },
        {
          "internalType": "bool",
          "name": "overflow",
          "type": "bool"
        }
      ],
      "stateMutability": "pure",
      "type": "function"
    },
    {
      "inputs": [
        {
          "components": [
            {
              "internalType": "int256",
              "name": "uopt",
              "type": "int256"
            },
            {
              "internalType": "int256",
              "name": "ucrit",
              "type": "int256"
            },
            {
              "internalType": "int256",
              "name": "ulow",
              "type": "int256"
            },
            {
              "internalType": "int256",
              "name": "ki",
              "type": "int256"
            },
            {
              "internalType": "int256",
              "name": "kcrit",
              "type": "int256"
            },
            {
              "internalType": "int256",
              "name": "klow",
              "type": "int256"
            },
            {
              "internalType": "int256",
              "name": "klin",
              "type": "int256"
            },
            {
              "internalType": "int256",
              "name": "beta",
              "type": "int256"
            },
            {
              "internalType": "int256",
              "name": "ri",
              "type": "int256"
            },
            {
              "internalType": "int256",
              "name": "Tcrit",
              "type": "int256"
            }
          ],
          "internalType": "struct IInterestRateModelV2.ConfigWithState",
          "name": "_c",
          "type": "tuple"
        },
        {
          "internalType": "uint256",
          "name": "_totalDeposits",
          "type": "uint256"
        },
        {
          "internalType": "uint256",
          "name": "_totalBorrowAmount",
          "type": "uint256"
        },
        {
          "internalType": "uint256",
          "name": "_interestRateTimestamp",
          "type": "uint256"
        },
        {
          "internalType": "uint256",
          "name": "_blockTimestamp",
          "type": "uint256"
        }
      ],
      "name": "calculateCurrentInterestRate",
      "outputs": [
        {
          "internalType": "uint256",
          "name": "rcur",
          "type": "uint256"
        }
      ],
      "stateMutability": "pure",
      "type": "function"
    },
    {
      "inputs": [
        {
          "internalType": "address",
          "name": "_configAddress",
          "type": "address"
        }
      ],
      "name": "connect",
      "outputs": [],
      "stateMutability": "nonpayable",
      "type": "function"
    },
    {
      "inputs": [],
      "name": "decimals",
      "outputs": [
        {
          "internalType": "uint256",
          "name": "",
          "type": "uint256"
        }
      ],
      "stateMutability": "view",
      "type": "function"
    },
    {
      "inputs": [
        {
          "internalType": "address",
          "name": "_silo",
          "type": "address"
        },
        {
          "internalType": "uint256",
          "name": "_blockTimestamp",
          "type": "uint256"
        }
      ],
      "name": "getCompoundInterestRate",
      "outputs": [
        {
          "internalType": "uint256",
          "name": "rcomp",
          "type": "uint256"
        }
      ],
      "stateMutability": "view",
      "type": "function"
    },
    {
      "inputs": [
        {
          "internalType": "uint256",
          "name": "_collateralAssets",
          "type": "uint256"
        },
        {
          "internalType": "uint256",
          "name": "_debtAssets",
          "type": "uint256"
        },
        {
          "internalType": "uint256",
          "name": "_interestRateTimestamp",
          "type": "uint256"
        }
      ],
      "name": "getCompoundInterestRateAndUpdate",
      "outputs": [
        {
          "internalType": "uint256",
          "name": "rcomp",
          "type": "uint256"
        }
      ],
      "stateMutability": "nonpayable",
      "type": "function"
    },
    {
      "inputs": [
        {
          "internalType": "address",
          "name": "_silo",
          "type": "address"
        }
      ],
      "name": "getConfig",
      "outputs": [
        {
          "components": [
            {
              "internalType": "int256",
              "name": "uopt",
              "type": "int256"
            },
            {
              "internalType": "int256",
              "name": "ucrit",
              "type": "int256"
            },
            {
              "internalType": "int256",
              "name": "ulow",
              "type": "int256"
            },
            {
              "internalType": "int256",
              "name": "ki",
              "type": "int256"
            },
            {
              "internalType": "int256",
              "name": "kcrit",
              "type": "int256"
            },
            {
              "internalType": "int256",
              "name": "klow",
              "type": "int256"
            },
            {
              "internalType": "int256",
              "name": "klin",
              "type": "int256"
            },
            {
              "internalType": "int256",
              "name": "beta",
              "type": "int256"
            },
            {
              "internalType": "int256",
              "name": "ri",
              "type": "int256"
            },
            {
              "internalType": "int256",
              "name": "Tcrit",
              "type": "int256"
            }
          ],
          "internalType": "struct IInterestRateModelV2.ConfigWithState",
          "name": "fullConfig",
          "type": "tuple"
        }
      ],
      "stateMutability": "view",
      "type": "function"
    },
    {
      "inputs": [
        {
          "internalType": "address",
          "name": "_silo",
          "type": "address"
        },
        {
          "internalType": "uint256",
          "name": "_blockTimestamp",
          "type": "uint256"
        }
      ],
      "name": "getCurrentInterestRate",
      "outputs": [
        {
          "internalType": "uint256",
          "name": "rcur",
          "type": "uint256"
        }
      ],
      "stateMutability": "view",
      "type": "function"
    },
    {
      "inputs": [
        {
          "internalType": "address",
          "name": "",
          "type": "address"
        }
      ],
      "name": "getSetup",
      "outputs": [
        {
          "internalType": "int128",
          "name": "ri",
          "type": "int128"
        },
        {
          "internalType": "int128",
          "name": "Tcrit",
          "type": "int128"
        },
        {
          "internalType": "contract IInterestRateModelV2Config",
          "name": "config",
          "type": "address"
        }
      ],
      "stateMutability": "view",
      "type": "function"
    },
    {
      "inputs": [
        {
          "internalType": "address",
          "name": "_silo",
          "type": "address"
        },
        {
          "internalType": "uint256",
          "name": "_blockTimestamp",
          "type": "uint256"
        }
      ],
      "name": "overflowDetected",
      "outputs": [
        {
          "internalType": "bool",
          "name": "overflow",
          "type": "bool"
        }
      ],
      "stateMutability": "view",
      "type": "function"
    }
  ],
  "bytecode": "0x608060405234801561001057600080fd5b506121a1806100206000396000f3fe608060405234801561001057600080fd5b50600436106100ea5760003560e01c806384de969a1161008c578063cfdfcffa11610066578063cfdfcffa14610252578063e076a55114610265578063e48a5f7b14610276578063ee8f931b1461030257600080fd5b806384de969a146101b0578063b78fec82146101c3578063c6c721b3146101e657600080fd5b80633ced7d0d116100c85780633ced7d0d1461014657806364efe177146101595780636e1a41401461016c57806381b51e0c146101a157600080fd5b8063023279ce146100ef578063109a006e14610122578063313ce56714610138575b600080fd5b6101026100fd366004611cd7565b610317565b604080519384526020840192909252908201526060015b60405180910390f35b61012a61033b565b604051908152602001610119565b670de0b6b3a764000061012a565b61012a610154366004611cd7565b610354565b61012a610167366004611da4565b6105d8565b61017f61017a366004611cd7565b61066f565b6040805194855260208501939093529183015215156060820152608001610119565b61012a6799e8e8e3d530368181565b61012a6101be366004611dce565b610af0565b6101d66101d1366004611da4565b610bdc565b6040519015158152602001610119565b6102266101f4366004611dfa565b60006020819052908152604090208054600190910154600f82810b92600160801b9004900b906001600160a01b031683565b60408051600f94850b81529290930b60208301526001600160a01b031691810191909152606001610119565b61012a610260366004611da4565b610c76565b61012a690de0b6b3a7640000000081565b610289610284366004611dfa565b610d10565b6040516101199190600061014082019050825182526020830151602083015260408301516040830152606083015160608301526080830151608083015260a083015160a083015260c083015160c083015260e083015160e083015261010080840151818401525061012080840151818401525092915050565b610315610310366004611dfa565b610e7d565b005b6000806000610329888888888861066f565b50919a90995090975095505050505050565b610351690de0b6b3a76400000000600019611e41565b81565b6000818311156103775760405163d22806e360e01b815260040160405180910390fd5b60006040518060e001604052806000815260200160008152602001600081526020016000815260200160008152602001600081526020016000151581525090506103c4878787878761066f565b15801560c086015292506103df9150505760009150506105cf565b6103ea848403610f10565b8152610407610402670de0b6b3a76400008888610f83565b610f10565b6020808301829052670de0b6b3a7640000604084015288015112156104ab5780604001518760200151826020015161043f9190611e55565b6040830151835160e08b01516104559190611e7c565b8a6101200151856040015161046a9190611eac565b6104749190611eac565b8a608001516104839190611e7c565b61048d9190611ed4565b6104979190611e7c565b6104a19190611ed4565b60608201526104ed565b6104e760008260400151896040015184602001516104c99190611e55565b8a60a001516104d89190611e7c565b6104e29190611ed4565b610fcd565b60608201525b806040015181602001518860c001516105069190611e7c565b6105109190611ed4565b6080820181905261010088015161052691610fe7565b60a0820152604081015181518851602084015161058493929161054891611e55565b8a606001516105579190611e7c565b6105619190611e7c565b61056b9190611ed4565b8260a0015161057a9190611eac565b8260800151610fe7565b60a0820181905260608201516105b0916105ab916105a191611eac565b8360800151610fe7565b610ff6565b91506105c06301e1338083611f02565b91506105cb82611048565b9150505b95945050505050565b600080836001600160a01b0316639ef2fda06040518163ffffffff1660e01b8152600401606060405180830381865afa158015610619573d6000803e3d6000fd5b505050506040513d601f19601f8201168201806040525081019061063d9190611f19565b905061066761064b85610d10565b82516020840151604085015167ffffffffffffffff1687610354565b949350505050565b60008060008088610100015192508861012001519150600060405180610140016040528060008152602001600081526020016000815260200160008152602001600081526020016000815260200160008152602001600081526020016000815260200160008152509050858711156106fa5760405163d22806e360e01b815260040160405180910390fd5b610705878703610f10565b8152670de0b6b3a764000061071e610402828c8c610f83565b61012083018190528b5182916107349190611e55565b8c606001516107439190611e7c565b61074d9190611ed4565b6020808401919091528b0151610120830151131561083757808b6020015183610120015161077b9190611e55565b826107868782611eac565b8e608001516107959190611e7c565b61079f9190611ed4565b6107a99190611e7c565b6107b39190611ed4565b604083015260208b015161012083015182916107ce91611e55565b828d60e001518e608001516107e39190611e7c565b6107ed9190611ed4565b6107f79190611e7c565b6108019190611ed4565b82602001516108109190611eac565b6060830152815160e08c01516108269190611e7c565b6108309085611eac565b935061089a565b6108616000828d604001518561012001516108529190611e55565b8e60a001516104d89190611e7c565b604083015260208201516060830152815160e08c0151610897916000916108889190611e7c565b6108929087611e55565b610fe7565b93505b808261012001518c60c001516108b09190611e7c565b6108ba9190611ed4565b60a083018190526108cc908690610fe7565b94508160400151856108de9190611eac565b6080830152815160608301516108f49190611e7c565b82608001516109039190611eac565b60c083015260a082015160808301511280159061092857508160a001518260c0015112155b1561096457815160c083015160808401516002929161094691611eac565b6109509190611e7c565b61095a9190611ed4565b60e0830152610a6e565b8160a00151826080015112801561098257508160a001518260c00151125b1561099857815160a083015161095a9190611e7c565b8160a001518260800151121580156109b757508160a001518260c00151125b15610a12576002826060015160028460a0015185608001516109d99190611e55565b6109e391906120be565b6109ed9190611ed4565b6109f79190611ed4565b825160a0840151610a089190611e7c565b61095a9190611e55565b6002826060015160028460a001518560c00151610a2f9190611e55565b610a3991906120be565b610a439190611ed4565b610a4d9190611ed4565b825160a0840151610a5e9190611e7c565b610a689190611eac565b60e08301525b81516020830151610a9691610a8291611e7c565b610a8c9087611eac565b8360a00151610fe7565b9450610aa78a8a8460e00151611061565b83519197509350600090610ac5908890610ac090610ff6565b6111ad565b90975090508380610ad35750805b15610ae15760009550600094505b50505095509550955095915050565b3360008181526020819052604081209091908280610b19610b1085610d10565b89898942610317565b9196509250905060016001607f1b038213610b515760016001607f1b03198212610b435781610b5a565b60016001607f1b0319610b5a565b60016001607f1b035b83546fffffffffffffffffffffffffffffffff19166001600160801b039190911617835560016001607f1b038113610baf5760016001607f1b03198112610ba15780610bb8565b60016001607f1b0319610bb8565b60016001607f1b035b83546001600160801b03918216600160801b02911617909255509195945050505050565b600080836001600160a01b0316639ef2fda06040518163ffffffff1660e01b8152600401606060405180830381865afa158015610c1d573d6000803e3d6000fd5b505050506040513d601f19601f82011682018060405250810190610c419190611f19565b9050610c6b610c4f85610d10565b82516020840151604085015167ffffffffffffffff168761066f565b979650505050505050565b600080836001600160a01b0316639ef2fda06040518163ffffffff1660e01b8152600401606060405180830381865afa158015610cb7573d6000803e3d6000fd5b505050506040513d601f19601f82011682018060405250810190610cdb9190611f19565b9050610d05610ce985610d10565b82516020840151604085015167ffffffffffffffff1687610317565b509095945050505050565b610d66604051806101400160405280600081526020016000815260200160008152602001600081526020016000815260200160008152602001600081526020016000815260200160008152602001600081525090565b6001600160a01b0380831660009081526020818152604080832081516060810183528154600f81810b8352600160801b909104900b938101939093526001015490931681840181905283516330fe427560e21b815293519193909163c3f909d491600480820192610100929091908290030181865afa158015610ded573d6000803e3d6000fd5b505050506040513d601f19601f82011682018060405250810190610e1191906120cd565b805184526020808201518186015260408083015190860152606080830151908601526080808301519086015260a0808301519086015260c0808301519086015260e091820151918501919091528251600f90810b61010086015292015190910b61012083015250919050565b336000908152602081905260409020600101546001600160a01b031615610eb6576040516239c01160e31b815260040160405180910390fd5b3360008181526020819052604080822060010180546001600160a01b0319166001600160a01b03861690811790915590519092917f3cd5ec01b1ae7cfec6ca1863e2cd6aa25d6d1702825803ff2b7cc95010fffdc291a350565b60006001600160ff1b03821115610f7f5760405162461bcd60e51b815260206004820152602860248201527f53616665436173743a2076616c756520646f65736e27742066697420696e2061604482015267371034b73a191a9b60c11b60648201526084015b60405180910390fd5b5090565b6000821580610f90575081155b15610f9d57506000610fc6565b610fa78483611f02565b9050828181610fb857610fb8611e15565b04905083811115610fc65750825b9392505050565b6000818312610fdc5781610fde565b825b90505b92915050565b6000818313610fdc5781610fde565b600080821215610f7f5760405162461bcd60e51b815260206004820181905260248201527f53616665436173743a2076616c7565206d75737420626520706f7369746976656044820152606401610f76565b600068056bc75e2d63100000808311610fe15782610fc6565b60008060006799e8e8e3d5303681841261108b57690de0b6b3a764000000009250600191506110c4565b670de0b6b3a764000061109d856111e2565b6110a79190611e55565b9050600081136110b85760006110c1565b6110c181610ff6565b92505b60008587116110d357856110d5565b865b90507612725dd1d243aba0e75fe645cc4873f9e65afe688c928e811061110457600060019350935050506111a5565b8386026000819003611118575050506111a5565b8685828161112857611128611e15565b0414158061115957507612725dd1d243aba0e75fe645cc4873f9e65afe688c928e829003670de0b6b3a76400008204115b156111a157867612725dd1d243aba0e75fe645cc4873f9e65afe688c928e839003670de0b6b3a7640000028161119157611191611e15565b049450600193506111a592505050565b5050505b935093915050565b600080806111c1846502e24d16b5a8611f02565b90508085116111d2578460006111d6565b8060015b92509250509250929050565b600068023f2fa8f6da5b9d31198212156111fe57506000919050565b6804cf46d8192b672ecc821261121357600080fd5b6714057b7ef767814f8202610fc6670de0b6b3a76400006706f05b59d3b200008301055b60008082121561128b5768033dd1780914b971141982121561125b57506000919050565b61126782600003611237565b6ec097ce7bc90715b34b9f10000000008161128457611284611e15565b0592915050565b6806f05b59d3b200000082126112a057600080fd5b670de0b6b3a7640000608083901b04610fc6816112bd565b919050565b6001607f1b818116156112e15770016a09e667f3bcc908b2fb1366ea957d3e0260801c5b6001607e1b821615611304577001306fe0a31b7152de8d5a46305c85eded0260801c5b6001607d1b821615611327577001172b83c7d517adcdf7c8c50eb14a79200260801c5b6001607c1b82161561134a5770010b5586cf9890f6298b92b71842a983640260801c5b6001607b1b82161561136d577001059b0d31585743ae7c548eb68ca417fe0260801c5b6001607a1b82161561139057700102c9a3e778060ee6f7caca4f7a29bde90260801c5b600160791b8216156113b35770010163da9fb33356d84a66ae336dcdfa400260801c5b600160781b8216156113d657700100b1afa5abcbed6129ab13ec11dc95440260801c5b600160771b8216156113f95770010058c86da1c09ea1ff19d294cf2f679c0260801c5b600160761b82161561141c577001002c605e2e8cec506d21bfc89a23a0110260801c5b600160751b82161561143f57700100162f3904051fa128bca9c55c31e5e00260801c5b600160741b821615611462577001000b175effdc76ba38e31671ca9397260260801c5b600160731b82161561148557700100058ba01fb9f96d6cacd4b180917c3e0260801c5b600160721b8216156114a85770010002c5cc37da9491d0985c348c68e7b40260801c5b600160711b8216156114cb577001000162e525ee054754457d59952920270260801c5b600160701b8216156114ee5770010000b17255775c040618bf4a4ade83fd0260801c5b6001606f1b821615611511577001000058b91b5bc9ae2eed81e9b7d4cfac0260801c5b6001606e1b82161561153457700100002c5c89d5ec6ca4d7c8acc017b7ca0260801c5b6001606d1b8216156115575770010000162e43f4f831060e02d839a9d16d0260801c5b6001606c1b82161561157a57700100000b1721bcfc99d9f890ea069117630260801c5b6001606b1b82161561159d5770010000058b90cf1e6d97f9ca14dbcc16290260801c5b6001606a1b8216156115c0577001000002c5c863b73f016468f6bac5ca2c0260801c5b600160691b8216156115e357700100000162e430e5a18f6119e3c02282a60260801c5b600160681b821615611606577001000000b1721835514b86e6d96efd1bff0260801c5b600160671b82161561162957700100000058b90c0b48c6be5df846c5b2f00260801c5b600160661b82161561164c5770010000002c5c8601cc6b9e94213c72737b0260801c5b600160651b82161561166f577001000000162e42fff037df38aa2b219f070260801c5b600160641b8216156116925770010000000b17217fba9c739aa5819f44fa0260801c5b600160631b8216156116b5577001000000058b90bfcdee5acd3c1cedc8240260801c5b600160621b8216156116d857700100000002c5c85fe31f35a6a30da1be510260801c5b600160611b8216156116fb5770010000000162e42ff0999ce3541b9fffd00260801c5b600160601b82161561171e57700100000000b17217f80f4ef5aadda455540260801c5b6001605f1b8216156117415770010000000058b90bfbf8479bd5a81b51ae0260801c5b6001605e1b821615611764577001000000002c5c85fdf84bd62ae30a74cd0260801c5b6001605d1b82161561178757700100000000162e42fefb2fed257559bdaa0260801c5b6001605c1b8216156117aa577001000000000b17217f7d5a7716bba4a9af0260801c5b6001605b1b8216156117cd57700100000000058b90bfbe9ddbac5e109ccf0260801c5b6001605a1b8216156117f05770010000000002c5c85fdf4b15de6f17eb0e0260801c5b600160591b821615611813577001000000000162e42fefa494f1478fde050260801c5b600160581b8216156118365770010000000000b17217f7d20cf927c8e94d0260801c5b600160571b821615611859577001000000000058b90bfbe8f71cb4e4b33e0260801c5b600160561b82161561187c57700100000000002c5c85fdf477b662b269460260801c5b600160551b82161561189f5770010000000000162e42fefa3ae53369388d0260801c5b600160541b8216156118c257700100000000000b17217f7d1d351a389d410260801c5b600160531b8216156118e55770010000000000058b90bfbe8e8b2d3d4edf0260801c5b600160521b821615611908577001000000000002c5c85fdf4741bea6e77f0260801c5b600160511b82161561192b57700100000000000162e42fefa39fe95583c30260801c5b600160501b82161561194e577001000000000000b17217f7d1cfb72b45e30260801c5b698000000000000000000082161561197757700100000000000058b90bfbe8e7cc35c3f20260801c5b69400000000000000000008216156119a05770010000000000002c5c85fdf473e242ea390260801c5b69200000000000000000008216156119c9577001000000000000162e42fefa39f02b772c0260801c5b69100000000000000000008216156119f25770010000000000000b17217f7d1cf7d83c1a0260801c5b6908000000000000000000821615611a1b577001000000000000058b90bfbe8e7bdcbe2e0260801c5b6904000000000000000000821615611a4457700100000000000002c5c85fdf473dea871f0260801c5b6902000000000000000000821615611a6d5770010000000000000162e42fefa39ef44d920260801c5b6901000000000000000000821615611a9657700100000000000000b17217f7d1cf79e9490260801c5b68800000000000000000821615611abe5770010000000000000058b90bfbe8e7bce5450260801c5b68400000000000000000821615611ae6577001000000000000002c5c85fdf473de6eca0260801c5b68200000000000000000821615611b0e57700100000000000000162e42fefa39ef366f0260801c5b68100000000000000000821615611b36577001000000000000000b17217f7d1cf79afa0260801c5b68080000000000000000821615611b5e57700100000000000000058b90bfbe8e7bcd6e0260801c5b68040000000000000000821615611b865770010000000000000002c5c85fdf473de6b30260801c5b68020000000000000000821615611bae577001000000000000000162e42fefa39ef3590260801c5b68010000000000000000821615611bd65770010000000000000000b17217f7d1cf79ac0260801c5b6001608083901c011b610fe181670de0b6b3a7640000600160801b6000808060001985870985870292508281108382030391505080600003611c2a5760008411611c1f57600080fd5b508290049050610fc6565b808411611c3657600080fd5b60008486880960026001871981018816978890046003810283188082028403028082028403028082028403028082028403028082028403029081029092039091026000889003889004909101858311909403939093029303949094049190911702949350505050565b604051610140810167ffffffffffffffff81118282101715611cd157634e487b7160e01b600052604160045260246000fd5b60405290565b60008060008060008587036101c0811215611cf157600080fd5b61014080821215611d0157600080fd5b611d09611c9f565b883581526020808a0135908201526040808a0135908201526060808a0135908201526080808a01359082015260a0808a01359082015260c0808a01359082015260e0808a013590820152610100808a013590820152610120808a013590820152999088013598506101608801359761018081013597506101a0013595509350505050565b80356001600160a01b03811681146112b857600080fd5b60008060408385031215611db757600080fd5b611dc083611d8d565b946020939093013593505050565b600080600060608486031215611de357600080fd5b505081359360208301359350604090920135919050565b600060208284031215611e0c57600080fd5b610fde82611d8d565b634e487b7160e01b600052601260045260246000fd5b634e487b7160e01b600052601160045260246000fd5b600082611e5057611e50611e15565b500490565b8181036000831280158383131683831282161715611e7557611e75611e2b565b5092915050565b80820260008212600160ff1b84141615611e9857611e98611e2b565b8181058314821517610fe157610fe1611e2b565b8082018281126000831280158216821582161715611ecc57611ecc611e2b565b505092915050565b600082611ee357611ee3611e15565b600160ff1b821460001984141615611efd57611efd611e2b565b500590565b8082028115828204841417610fe157610fe1611e2b565b600060608284031215611f2b57600080fd5b6040516060810167ffffffffffffffff8282108183111715611f5d57634e487b7160e01b600052604160045260246000fd5b816040528451835260208501516020840152604085015191508082168214611f8457600080fd5b5060408201529392505050565b80825b6001808611611fa357506111a5565b6001600160ff1b03829004821115611fbd57611fbd611e2b565b80861615611fca57918102915b9490941c938002611f94565b6000828015611fec5760018114611ff657611fff565b6001915050610fe1565b82915050610fe1565b508161200d57506000610fe1565b506001600082138082146120265780156120455761205f565b6001600160ff1b0383900483111561204057612040611e2b565b61205f565b6001600160ff1b0383900583121561205f5761205f611e2b565b508083161561206b5750805b61207b8360011c83840283611f91565b600082136001600160ff1b038290048311161561209a5761209a611e2b565b60008212600160ff1b829005831216156120b6576120b6611e2b565b029392505050565b6000610fde60ff841683611fd6565b60006101008083850312156120e157600080fd5b6040519081019067ffffffffffffffff8211818310171561211257634e487b7160e01b600052604160045260246000fd5b81604052835181526020840151602082015260408401516040820152606084015160608201526080840151608082015260a084015160a082015260c084015160c082015260e084015160e082015280925050509291505056fea264697066735822122017ca3bbd7d62fcc5a0c61dbedcd873e861527de4da8cefb0c0f604a5cee1057964736f6c63430008150033",
  "language": "Solidity",
  "compiler": "0.8.21+commit.d9974bed"
}