{
  "address": "0xc9C78B7Cd16f88a7749B7BD924052f26d36245e2",
  "abi": [
    {
      "inputs": [
        {
          "internalType": "address",
          "name": "",
          "type": "address"
        },
        {
          "internalType": "uint256",
          "name": "",
          "type": "uint256"
        },
        {
          "internalType": "bytes",
          "name": "",
          "type": "bytes"
        }
      ],
      "name": "afterAction",
      "outputs": [],
      "stateMutability": "nonpayable",
      "type": "function"
    },
    {
      "inputs": [
        {
          "internalType": "address",
          "name": "",
          "type": "address"
        },
        {
          "internalType": "uint256",
          "name": "",
          "type": "uint256"
        },
        {
          "internalType": "bytes",
          "name": "",
          "type": "bytes"
        }
      ],
      "name": "beforeAction",
      "outputs": [],
      "stateMutability": "nonpayable",
      "type": "function"
    },
    {
      "inputs": [
        {
          "internalType": "address",
          "name": "",
          "type": "address"
        }
      ],
      "name": "hookReceiverConfig",
      "outputs": [
        {
          "internalType": "uint24",
          "name": "hooksBefore",
          "type": "uint24"
        },
        {
          "internalType": "uint24",
          "name": "hooksAfter",
          "type": "uint24"
        }
      ],
      "stateMutability": "view",
      "type": "function"
    },
    {
      "inputs": [
        {
          "internalType": "contract ISiloConfig",
          "name": "_siloConfig",
          "type": "address"
        },
        {
          "internalType": "bytes",
          "name": "",
          "type": "bytes"
        }
      ],
      "name": "initialize",
      "outputs": [],
      "stateMutability": "nonpayable",
      "type": "function"
    },
    {
      "inputs": [
        {
          "internalType": "address",
          "name": "_collateralAsset",
          "type": "address"
        },
        {
          "internalType": "address",
          "name": "_debtAsset",
          "type": "address"
        },
        {
          "internalType": "address",
          "name": "_borrower",
          "type": "address"
        },
        {
          "internalType": "uint256",
          "name": "_debtToCover",
          "type": "uint256"
        },
        {
          "internalType": "bool",
          "name": "_receiveSToken",
          "type": "bool"
        }
      ],
      "name": "liquidationCall",
      "outputs": [
        {
          "internalType": "uint256",
          "name": "withdrawCollateral",
          "type": "uint256"
        },
        {
          "internalType": "uint256",
          "name": "repayDebtAssets",
          "type": "uint256"
        }
      ],
      "stateMutability": "nonpayable",
      "type": "function"
    },
    {
      "inputs": [
        {
          "internalType": "address",
          "name": "_borrower",
          "type": "address"
        }
      ],
      "name": "maxLiquidation",
      "outputs": [
        {
          "internalType": "uint256",
          "name": "collateralToLiquidate",
          "type": "uint256"
        },
        {
          "internalType": "uint256",
          "name": "debtToRepay",
          "type": "uint256"
        },
        {
          "internalType": "bool",
          "name": "sTokenRequired",
          "type": "bool"
        }
      ],
      "stateMutability": "view",
      "type": "function"
    },
    {
      "inputs": [],
      "name": "siloConfig",
      "outputs": [
        {
          "internalType": "contract ISiloConfig",
          "name": "",
          "type": "address"
        }
      ],
      "stateMutability": "view",
      "type": "function"
    },
    {
      "anonymous": false,
      "inputs": [
        {
          "indexed": false,
          "internalType": "address",
          "name": "silo",
          "type": "address"
        },
        {
          "indexed": false,
          "internalType": "uint24",
          "name": "hooksBefore",
          "type": "uint24"
        },
        {
          "indexed": false,
          "internalType": "uint24",
          "name": "hooksAfter",
          "type": "uint24"
        }
      ],
      "name": "HookConfigured",
      "type": "event"
    },
    {
      "anonymous": false,
      "inputs": [
        {
          "indexed": true,
          "internalType": "address",
          "name": "liquidator",
          "type": "address"
        },
        {
          "indexed": false,
          "internalType": "bool",
          "name": "receiveSToken",
          "type": "bool"
        }
      ],
      "name": "LiquidationCall",
      "type": "event"
    },
    {
      "inputs": [
        {
          "internalType": "address",
          "name": "target",
          "type": "address"
        }
      ],
      "name": "AddressEmptyCode",
      "type": "error"
    },
    {
      "inputs": [],
      "name": "AlreadyConfigured",
      "type": "error"
    },
    {
      "inputs": [],
      "name": "DebtToCoverTooSmall",
      "type": "error"
    },
    {
      "inputs": [],
      "name": "EmptyDebtToCover",
      "type": "error"
    },
    {
      "inputs": [],
      "name": "EmptySiloConfig",
      "type": "error"
    },
    {
      "inputs": [],
      "name": "FailedCall",
      "type": "error"
    },
    {
      "inputs": [],
      "name": "Insolvency",
      "type": "error"
    },
    {
      "inputs": [
        {
          "internalType": "uint256",
          "name": "balance",
          "type": "uint256"
        },
        {
          "internalType": "uint256",
          "name": "needed",
          "type": "uint256"
        }
      ],
      "name": "InsufficientBalance",
      "type": "error"
    },
    {
      "inputs": [],
      "name": "InsufficientLiquidation",
      "type": "error"
    },
    {
      "inputs": [],
      "name": "InvalidSiloForCollateral",
      "type": "error"
    },
    {
      "inputs": [],
      "name": "LiquidationTooBig",
      "type": "error"
    },
    {
      "inputs": [],
      "name": "LiquidityFeeToHi",
      "type": "error"
    },
    {
      "inputs": [],
      "name": "NoDebtToCover",
      "type": "error"
    },
    {
      "inputs": [],
      "name": "OnlyDelegateCall",
      "type": "error"
    },
    {
      "inputs": [],
      "name": "RevertRequestFromHook",
      "type": "error"
    },
    {
      "inputs": [
        {
          "internalType": "address",
          "name": "token",
          "type": "address"
        }
      ],
      "name": "SafeERC20FailedOperation",
      "type": "error"
    },
    {
      "inputs": [],
      "name": "UnexpectedCollateralToken",
      "type": "error"
    },
    {
      "inputs": [],
      "name": "UnexpectedDebtToken",
      "type": "error"
    },
    {
      "inputs": [],
      "name": "UnknownRatio",
      "type": "error"
    },
    {
      "inputs": [],
      "name": "UserIsSolvent",
      "type": "error"
    }
  ],
  "bytecode": "0x608060405234801561000f575f80fd5b506126348061001d5f395ff3fe608060405234801561000f575f80fd5b5060043610610079575f3560e01c8063bd02d84811610058578063bd02d848146100c0578063d1f57894146100f0578063d714fd1914610103578063e4784fa91461012d575f80fd5b8062a718a91461007d57806335cb1099146100aa578063aef28235146100aa575b5f80fd5b61009061008b366004612052565b61015e565b604080519283526020830191909152015b60405180910390f35b6100be6100b83660046120f4565b50505050565b005b6100d36100ce36600461214c565b61054f565b6040805193845260208401929092521515908201526060016100a1565b6100be6100fe366004612167565b610576565b5f54610115906001600160a01b031681565b6040516001600160a01b0390911681526020016100a1565b61014261013b36600461214c565b505f908190565b6040805162ffffff9384168152929091166020830152016100a1565b5f805481906001600160a01b03168061018a576040516379c39cf960e01b815260040160405180910390fd5b845f036101aa576040516317ff0e0960e11b815260040160405180910390fd5b5f806101b8838b8b8b610584565b90925090505f8080806001600160a01b038c1633146101ec87878f8f856101e4578b61018001516101e6565b5f5b866107a1565b9a5090935091505f899003610214576040516317ff0e0960e11b815260040160405180910390fd5b8b89111561023557604051635d6d60f760e01b815260040160405180910390fd5b6040518b1515815233907fe24aa47ff635f1a546a55407c1830a99c50045332faba28455dedecb35b07a7e9060200160405180910390a2876001600160a01b0316639dd413306040518163ffffffff1660e01b81526004015f604051808303815f87803b1580156102a4575f80fd5b505af11580156102b6573d5f803e3d5ffd5b50505060608701516102d491506001600160a01b031633308c610837565b6102fa86604001518a88606001516001600160a01b031661089e9092919063ffffffff16565b876001600160a01b03166362402b046040518163ffffffff1660e01b81526004015f604051808303815f87803b158015610332575f80fd5b505af1158015610344573d5f803e3d5ffd5b5050505085604001516001600160a01b031663acb708158a8f6040518363ffffffff1660e01b815260040161038c9291909182526001600160a01b0316602082015260400190565b6020604051808303815f875af11580156103a8573d5f803e3d5ffd5b505050506040513d601f19601f820116820180604052508101906103cc91906121b8565b505f8b6103d957306103db565b335b905061040588604001518f83878c60a0015160016002811115610400576104006121cf565b610925565b955061042988604001518f83868c608001515f6002811115610400576104006121cf565b94508b1561043b578284019a5061053c565b85156104bb5787604001516001600160a01b031663da53766087333060016040518563ffffffff1660e01b815260040161047894939291906121ff565b6020604051808303815f875af1158015610494573d5f803e3d5ffd5b505050506040513d601f19601f820116820180604052508101906104b891906121b8565b9a505b841561053c5787604001516001600160a01b031663da5376608633305f6040518563ffffffff1660e01b81526004016104f794939291906121ff565b6020604051808303815f875af1158015610513573d5f803e3d5ffd5b505050506040513d601f19601f8201168201806040525081019061053791906121b8565b8b019a505b5050505050505050509550959350505050565b5f805481908190610569906001600160a01b031685610b15565b9250925092509193909250565b61057f83610cf0565b505050565b61058c611fae565b610594611fae565b6040516394c0527d60e01b81526001600160a01b0384811660048301528716906394c0527d9060240161040060405180830381865afa1580156105d9573d5f803e3d5ffd5b505050506040513d601f19601f820116820180604052508101906105fd9190612397565b604081015191935091506001600160a01b031661062d57604051632f13551560e11b815260040160405180910390fd5b81606001516001600160a01b0316856001600160a01b0316146106635760405163055692d760e21b815260040160405180910390fd5b80606001516001600160a01b0316846001600160a01b0316146106995760405163129e080d60e21b815260040160405180910390fd5b80604001516001600160a01b031663a6afed956040518163ffffffff1660e01b81526004016020604051808303815f875af11580156106da573d5f803e3d5ffd5b505050506040513d601f19601f820116820180604052508101906106fe91906121b8565b5080604001516001600160a01b031682604001516001600160a01b0316146107985781604001516001600160a01b031663a6afed956040518163ffffffff1660e01b81526004016020604051808303815f875af1158015610761573d5f803e3d5ffd5b505050506040513d601f19601f8201168201806040525081019061078591906121b8565b5061078f82610d61565b61079881610d61565b94509492505050565b5f805f806107b38a8a8a5f805f610de8565b90505f61080d826040518060c001604052808e610160015181526020018e606001516001600160a01b031681526020018d606001516001600160a01b031681526020018b81526020018a8152602001891515815250611062565b80945081925050506108238183604001516111b0565b909c909b5092995091975050505050505050565b6040516001600160a01b0384811660248301528381166044830152606482018390526100b89186918216906323b872dd906084015b604051602081830303815290604052915060e01b6020820180516001600160e01b0383818316178352505050506111e1565b604051636eb1769f60e11b81523060048201526001600160a01b0383811660248301525f919085169063dd62ed3e90604401602060405180830381865afa1580156108eb573d5f803e3d5ffd5b505050506040513d601f19601f8201168201806040525081019061090f91906121b8565b90506100b8848461092085856123e0565b611247565b5f835f0361093457505f610b0b565b604051630805bcfb60e31b815260048101839052610a199085906001600160a01b038a169063402de7d890602401602060405180830381865afa15801561097d573d5f803e3d5ffd5b505050506040513d601f19601f820116820180604052508101906109a191906121b8565b856001600160a01b03166318160ddd6040518163ffffffff1660e01b8152600401602060405180830381865afa1580156109dd573d5f803e3d5ffd5b505050506040513d601f19601f82011682018060405250810190610a0191906121b8565b5f866002811115610a1457610a146121cf565b6112d6565b9050805f03610a2957505f610b0b565b604080516001600160a01b0388811660248301528781166044830152606480830185905283518084039091018152608490920183526020820180516001600160e01b0316633661585b60e21b1790529151634624c6a760e01b81525f928392908b1691634624c6a791610aa59189918691829190600401612440565b5f604051808303815f875af1158015610ac0573d5f803e3d5ffd5b505050506040513d5f823e601f3d908101601f19168201604052610ae79190810190612477565b9150915081610b0857610b088160405180602001604052805f815250611313565b50505b9695505050505050565b6040516394c0527d60e01b81526001600160a01b0382811660048301525f918291829182918291908816906394c0527d9060240161040060405180830381865afa158015610b65573d5f803e3d5ffd5b505050506040513d601f19601f82011682018060405250810190610b899190612397565b604081015191935091506001600160a01b0316610bb0575f805f9450945094505050610ce9565b5f610bc08383895f60015f610de8565b905080608001515f03610bde575f805f955095509550505050610ce9565b5f80610bf3838660600151866060015161133c565b915091505f83606001518460400151019050825f03610c24578084608001515f985098509850505050505050610ce9565b5f610c2f8385611488565b90508661016001518111610c52575f805f99509950995050505050505050610ce9565b610c6e82858760800151868b61016001518c61018001516114a5565b809a50819b50505086604001516001600160a01b0316630910a5106040518163ffffffff1660e01b8152600401602060405180830381865afa158015610cb6573d5f803e3d5ffd5b505050506040513d601f19601f82011682018060405250810190610cda91906121b8565b8a600201119750505050505050505b9250925092565b6001600160a01b038116610d17576040516379c39cf960e01b815260040160405180910390fd5b5f546001600160a01b031615610d40576040516308db0db560e11b815260040160405180910390fd5b5f80546001600160a01b0319166001600160a01b0392909216919091179055565b806101e001518015610d7f575060e08101516001600160a01b031615155b15610de55760e08101516060820151604051637cfd30cd60e11b81526001600160a01b03918216600482015291169063f9fa619a906024015f604051808303815f87803b158015610dce575f80fd5b505af1158015610de0573d5f803e3d5ffd5b505050505b50565b610e276040518060a001604052805f6001600160a01b031681526020015f6001600160a01b031681526020015f81526020015f81526020015f81525090565b85606001516001600160a01b031687606001516001600160a01b031614610e91576001846001811115610e5c57610e5c6121cf565b14610e70578660e001518660e00151610e7d565b8661010001518661010001515b6001600160a01b0390811660208401521681525b5f80610ea28960800151885f611500565b80935081925050505f808a604001516001600160a01b031663ffbaaf7a6040518163ffffffff1660e01b81526004016040805180830381865afa158015610eeb573d5f803e3d5ffd5b505050506040513d601f19601f82011682018060405250810190610f0f9190612535565b91509150610f208382865f806115e8565b604086015260a08b0151610f35908a5f611500565b945092506001876001811115610f4d57610f4d6121cf565b14610f585781610f74565b610f748b604001518c61012001518d5f01518e60200151611617565b9150610f848383865f60016115e8565b606086015260c08a0151610f99908a88611500565b945092505f6001886001811115610fb257610fb26121cf565b146110295760408b8101519051630805bcfb60e31b8152600260048201526001600160a01b039091169063402de7d890602401602060405180830381865afa158015611000573d5f803e3d5ffd5b505050506040513d601f19601f8201168201806040525081019061102491906121b8565b61103c565b61103c8b604001518c610120015161170d565b905061104d848287600160026115e8565b608087015250939a9950505050505050505050565b6040820151606083015160808401515f9283920190158061108557506060840151155b15611096575f8092509250506111a9565b805f036110c7575f85608001518560600151116110b75784606001516110bd565b85608001515b92509250506111a9565b5f805f6110dd88886020015189604001516117fc565b9250925092508660a001511561111357876080015187606001511061110e57505050608085015190925090506111a9565b61112a565b8651811161112a575f8095509550505050506111a9565b5f61113d8286868c60800151878d611852565b9198509650905086158061114f575085155b15611164575f809650965050505050506111a9565b80156111a3578760a00151156111a357875182118015906111855750875181115b156111a357604051635209961b60e11b815260040160405180910390fd5b50505050505b9250929050565b5f80835f036111c357505f9050806111a9565b8284116111d1575f846111d6565b828403835b909590945092505050565b5f6111f56001600160a01b03841683611950565b905080515f141580156112195750808060200190518101906112179190612557565b155b1561057f57604051635274afe760e01b81526001600160a01b03841660048201526024015b60405180910390fd5b604080516001600160a01b038416602482015260448082018490528251808303909101815260649091019091526020810180516001600160e01b031663095ea7b360e01b1790526112988482611963565b6100b8576040516001600160a01b0384811660248301525f60448301526112cc91869182169063095ea7b39060640161086c565b6100b884826111e1565b5f805f6112e4878786611a00565b91509150815f036112f957879250505061130a565b61130588838388611a42565b925050505b95945050505050565b81511561132257815182602001fd5b8060405162461bcd60e51b815260040161123e9190612572565b606083015160408401515f9182910180156113db5785516001600160a01b031661136657806113d8565b85516040516313b0be3360e01b8152600481018390526001600160a01b038781166024830152909116906313b0be3390604401602060405180830381865afa1580156113b4573d5f803e3d5ffd5b505050506040513d601f19601f820116820180604052508101906113d891906121b8565b92505b60808601511561147f5760208601516001600160a01b031661140157856080015161147c565b602086015160808701516040516313b0be3360e01b815260048101919091526001600160a01b038681166024830152909116906313b0be3390604401602060405180830381865afa158015611458573d5f803e3d5ffd5b505050506040513d601f19601f8201168201806040525081019061147c91906121b8565b91505b50935093915050565b5f61149e83670de0b6b3a7640000846001611a42565b9392505050565b5f805f806114bd89886114b789611a8f565b88611aad565b915091506114cc828b8b611ad3565b935060018411156114e2576002840393506114e6565b5f93505b6114f1818989611ad3565b92505050965096945050505050565b5f80825f0361157a5760405163dce5c2db60e01b81526001600160a01b03858116600483015286169063dce5c2db906024016040805180830381865afa15801561154c573d5f803e3d5ffd5b505050506040513d601f19601f820116820180604052508101906115709190612535565b90925090506115e0565b829150846001600160a01b03166318160ddd6040518163ffffffff1660e01b8152600401602060405180830381865afa1580156115b9573d5f803e3d5ffd5b505050506040513d601f19601f820116820180604052508101906115dd91906121b8565b90505b935093915050565b5f805f6115f6878786611a00565b91509150815f0361160b57879250505061130a565b61130588828488611a42565b6040516367efe7fd60e11b81526001600160a01b0385811660048301524260248301525f91829186169063cfdfcffa90604401602060405180830381865afa158015611665573d5f803e3d5ffd5b505050506040513d601f19601f8201168201806040525081019061168991906121b8565b90505f80876001600160a01b03166339c5c5056040518163ffffffff1660e01b81526004016040805180830381865afa1580156116c8573d5f803e3d5ffd5b505050506040513d601f19601f820116820180604052508101906116ec9190612535565b915091506116fd8282858989611b18565b50919a9950505050505050505050565b6040516367efe7fd60e11b81526001600160a01b0383811660048301524260248301525f91829184169063cfdfcffa90604401602060405180830381865afa15801561175b573d5f803e3d5ffd5b505050506040513d601f19601f8201168201806040525081019061177f91906121b8565b604051630805bcfb60e31b8152600260048201529091506117f3906001600160a01b0386169063402de7d890602401602060405180830381865afa1580156117c9573d5f803e3d5ffd5b505050506040513d601f19601f820116820180604052508101906117ed91906121b8565b82611b60565b50949350505050565b5f805f61180a86868661133c565b90935091508215801561181b575081155b1561182d57505f915081905080611849565b825f0361183c57505f19611849565b6118468284611488565b90505b93509350939050565b5f805f805f8560a001518061186f5750670de0b6b3a76400008b10155b1561189f578786606001511161188957856060015161188b565b875b935061189884888a611ad3565b9050611907565b5f6118bb888b6118b18a5f0151611a8f565b8a60800151611bd5565b90508781036118cf57889450879150611905565b5f6118db828b8b611ad3565b9050808860600151116118f25787606001516118f4565b805b9550611901868a8c611ad3565b9250505b505b611925818a8860a0015161191f578860800151611cde565b5f611cde565b9150611932828b8b611ad3565b945061194089888484611d17565b9250505096509650969350505050565b606061149e83835f611d3f565b92915050565b5f805f846001600160a01b03168460405161197e9190612584565b5f604051808303815f865af19150503d805f81146119b7576040519150601f19603f3d011682016040523d82523d5f602084013e6119bc565b606091505b50915091508180156119e65750805115806119e65750808060200190518101906119e69190612557565b801561130a5750505050506001600160a01b03163b151590565b5f80835f03611a0d575f94505b6002836002811115611a2157611a216121cf565b14611a33576001840185600101611a36565b83855b90969095509350505050565b5f611a6f611a4f83611dd5565b8015611a6a57505f8480611a6557611a6561259f565b868809115b151590565b611a7a868686611e01565b611a8491906123e0565b90505b949350505050565b5f61195d82670c7d713b49da0000670de0b6b3a76400006001611a42565b5f80611abb85878686611bd5565b9050611ac8818785611cde565b915094509492505050565b5f815f03611af45760405163658c7bff60e11b815260040160405180910390fd5b611afe83856125b3565b9050818181611b0f57611b0f61259f565b04949350505050565b5f805f80611b268888611b60565b9093509050670de0b6b3a76400008686018202049150818103891981811015611b4d578091505b818b019550505095509550955095915050565b5f80831580611b6d575082155b15611b7c57508290505f6111a9565b670de0b6b3a76400008404835f1981611b9757611b9761259f565b041115611bb957611bb28484670de0b6b3a76400005f611a42565b9050611bbd565b505f195b831980821115611bcb578091505b5092830193915050565b5f845f03611be457505f611a87565b670de0b6b3a76400008210611bfa57505f611a87565b838510611c08575083611a87565b825f03611c16575083611a87565b5f611c2185856125b3565b9050611c35670de0b6b3a7640000876125b3565b9550858110611c47575f915050611a87565b670de0b6b3a76400008087049682900392508385028190048501908110611c72578692505050611a87565b80670de0b6b3a7640000038381611c8b57611c8b61259f565b04925086831115611ca0578692505050611a87565b670c7d713b49da000087611cbc670de0b6b3a7640000866125b3565b611cc691906125ca565b11611cd15782611cd3565b865b979650505050505050565b5f80611cea83866125b3565b670de0b6b3a764000090049050611d0181866123e0565b915083821115611d0f578391505b509392505050565b5f82851480611d2557508184145b15611d3157505f611a87565b611a84838603838603611ebe565b606081471015611d6b5760405163cf47918160e01b81524760048201526024810183905260440161123e565b5f80856001600160a01b03168486604051611d869190612584565b5f6040518083038185875af1925050503d805f8114611dc0576040519150601f19603f3d011682016040523d82523d5f602084013e611dc5565b606091505b5091509150610b0b868383611edd565b5f6002826003811115611dea57611dea6121cf565b611df491906125dd565b60ff166001149050919050565b5f838302815f1985870982811083820303915050805f03611e3557838281611e2b57611e2b61259f565b049250505061149e565b808411611e5357611e538415611e4c576011611f39565b6012611f39565b5f848688095f868103871696879004966002600389028118808a02820302808a02820302808a02820302808a02820302808a02820302808a02909103029181900381900460010186841190950394909402919094039290920491909117919091029150509392505050565b5f611ed1670de0b6b3a7640000836125b3565b905061149e8184611f4a565b606082611ef257611eed82611f85565b61149e565b8151158015611f0957506001600160a01b0384163b155b15611f3257604051639996b31560e01b81526001600160a01b038516600482015260240161123e565b508061149e565b634e487b715f52806020526024601cfd5b5f815f03611f5c57611f5c6012611f39565b8215611f7d57816001840381611f7457611f7461259f565b0460010161149e565b505f92915050565b805115611f955780518082602001fd5b60405163d6bda27560e01b815260040160405180910390fd5b60408051610200810182525f80825260208201819052918101829052606081018290526080810182905260a0810182905260c0810182905260e08101829052610100810182905261012081018290526101408101829052610160810182905261018081018290526101a081018290526101c081018290526101e081019190915290565b6001600160a01b0381168114610de5575f80fd5b8015158114610de5575f80fd5b5f805f805f60a08688031215612066575f80fd5b853561207181612031565b9450602086013561208181612031565b9350604086013561209181612031565b92506060860135915060808601356120a881612045565b809150509295509295909350565b5f8083601f8401126120c6575f80fd5b50813567ffffffffffffffff8111156120dd575f80fd5b6020830191508360208285010111156111a9575f80fd5b5f805f8060608587031215612107575f80fd5b843561211281612031565b935060208501359250604085013567ffffffffffffffff811115612134575f80fd5b612140878288016120b6565b95989497509550505050565b5f6020828403121561215c575f80fd5b813561149e81612031565b5f805f60408486031215612179575f80fd5b833561218481612031565b9250602084013567ffffffffffffffff81111561219f575f80fd5b6121ab868287016120b6565b9497909650939450505050565b5f602082840312156121c8575f80fd5b5051919050565b634e487b7160e01b5f52602160045260245ffd5b60028110610de557634e487b7160e01b5f52602160045260245ffd5b8481526001600160a01b0384811660208301528316604082015260808101612226836121e3565b82606083015295945050505050565b634e487b7160e01b5f52604160045260245ffd5b604051610200810167ffffffffffffffff8111828210171561226d5761226d612235565b60405290565b805161227e81612031565b919050565b805161227e81612045565b5f610200828403121561229f575f80fd5b6122a7612249565b905081518152602082015160208201526122c360408301612273565b60408201526122d460608301612273565b60608201526122e560808301612273565b60808201526122f660a08301612273565b60a082015261230760c08301612273565b60c082015261231860e08301612273565b60e082015261010061232b818401612273565b9082015261012061233d838201612273565b908201526101408281015190820152610160808301519082015261018080830151908201526101a080830151908201526101c061237b818401612273565b908201526101e061238d838201612283565b9082015292915050565b5f8061040083850312156123a9575f80fd5b6123b3848461228e565b91506123c384610200850161228e565b90509250929050565b634e487b7160e01b5f52601160045260245ffd5b8082018082111561195d5761195d6123cc565b5f5b8381101561240d5781810151838201526020016123f5565b50505f910152565b5f815180845261242c8160208601602086016123f3565b601f01601f19169290920160200192915050565b6001600160a01b03851681526020810184905261245c836121e3565b826040820152608060608201525f610b0b6080830184612415565b5f8060408385031215612488575f80fd5b825161249381612045565b602084015190925067ffffffffffffffff808211156124b0575f80fd5b818501915085601f8301126124c3575f80fd5b8151818111156124d5576124d5612235565b604051601f8201601f19908116603f011681019083821181831017156124fd576124fd612235565b81604052828152886020848701011115612515575f80fd5b6125268360208301602088016123f3565b80955050505050509250929050565b5f8060408385031215612546575f80fd5b505080516020909101519092909150565b5f60208284031215612567575f80fd5b815161149e81612045565b602081525f61149e6020830184612415565b5f82516125958184602087016123f3565b9190910192915050565b634e487b7160e01b5f52601260045260245ffd5b808202811582820484141761195d5761195d6123cc565b5f826125d8576125d861259f565b500490565b5f60ff8316806125ef576125ef61259f565b8060ff8416069150509291505056fea2646970667358221220457c67696e2dd38c81f2dfe87be1fbae71256a160eebde1c24771e3ff7c0141264736f6c63430008180033",
  "language": "Solidity",
  "compiler": "0.8.24+commit.e11b9ed9"
}