{
  "address": "0xc0A646F5D48337A4dEAbE111de58f3c7fa607A8A",
  "abi": [
    {
      "inputs": [
        {
          "internalType": "address",
          "name": "_silo",
          "type": "address"
        }
      ],
      "name": "hookSetup",
      "outputs": [
        {
          "components": [
            {
              "internalType": "address",
              "name": "hookReceiver",
              "type": "address"
            },
            {
              "internalType": "uint24",
              "name": "hooksBefore",
              "type": "uint24"
            },
            {
              "internalType": "uint24",
              "name": "hooksAfter",
              "type": "uint24"
            }
          ],
          "internalType": "struct IPartialLiquidation.HookSetup",
          "name": "",
          "type": "tuple"
        }
      ],
      "stateMutability": "view",
      "type": "function"
    },
    {
      "inputs": [
        {
          "internalType": "address",
          "name": "_siloWithDebt",
          "type": "address"
        },
        {
          "internalType": "address",
          "name": "_collateralAsset",
          "type": "address"
        },
        {
          "internalType": "address",
          "name": "_debtAsset",
          "type": "address"
        },
        {
          "internalType": "address",
          "name": "_borrower",
          "type": "address"
        },
        {
          "internalType": "uint256",
          "name": "_debtToCover",
          "type": "uint256"
        },
        {
          "internalType": "bool",
          "name": "_receiveSToken",
          "type": "bool"
        }
      ],
      "name": "liquidationCall",
      "outputs": [
        {
          "internalType": "uint256",
          "name": "withdrawCollateral",
          "type": "uint256"
        },
        {
          "internalType": "uint256",
          "name": "repayDebtAssets",
          "type": "uint256"
        }
      ],
      "stateMutability": "nonpayable",
      "type": "function"
    },
    {
      "inputs": [
        {
          "internalType": "address",
          "name": "_siloWithDebt",
          "type": "address"
        },
        {
          "internalType": "address",
          "name": "_borrower",
          "type": "address"
        }
      ],
      "name": "maxLiquidation",
      "outputs": [
        {
          "internalType": "uint256",
          "name": "collateralToLiquidate",
          "type": "uint256"
        },
        {
          "internalType": "uint256",
          "name": "debtToRepay",
          "type": "uint256"
        }
      ],
      "stateMutability": "view",
      "type": "function"
    },
    {
      "inputs": [
        {
          "internalType": "address",
          "name": "_hookReceiver",
          "type": "address"
        },
        {
          "internalType": "uint24",
          "name": "_hooksBefore",
          "type": "uint24"
        },
        {
          "internalType": "uint24",
          "name": "_hooksAfter",
          "type": "uint24"
        }
      ],
      "name": "synchronizeHooks",
      "outputs": [],
      "stateMutability": "nonpayable",
      "type": "function"
    },
    {
      "anonymous": false,
      "inputs": [
        {
          "indexed": true,
          "internalType": "address",
          "name": "liquidator",
          "type": "address"
        },
        {
          "indexed": false,
          "internalType": "bool",
          "name": "receiveSToken",
          "type": "bool"
        }
      ],
      "name": "LiquidationCall",
      "type": "event"
    },
    {
      "inputs": [],
      "name": "DebtToCoverTooSmall",
      "type": "error"
    },
    {
      "inputs": [],
      "name": "Insolvency",
      "type": "error"
    },
    {
      "inputs": [],
      "name": "InsufficientLiquidation",
      "type": "error"
    },
    {
      "inputs": [],
      "name": "InvalidSiloForCollateral",
      "type": "error"
    },
    {
      "inputs": [],
      "name": "LiquidationTooBig",
      "type": "error"
    },
    {
      "inputs": [],
      "name": "LiquidityFeeToHi",
      "type": "error"
    },
    {
      "inputs": [],
      "name": "NoDebtToCover",
      "type": "error"
    },
    {
      "inputs": [],
      "name": "ThereIsDebtInOtherSilo",
      "type": "error"
    },
    {
      "inputs": [],
      "name": "UnexpectedCollateralToken",
      "type": "error"
    },
    {
      "inputs": [],
      "name": "UnexpectedDebtToken",
      "type": "error"
    },
    {
      "inputs": [],
      "name": "UnknownRatio",
      "type": "error"
    },
    {
      "inputs": [],
      "name": "UserIsSolvent",
      "type": "error"
    },
    {
      "inputs": [],
      "name": "WrongSilo",
      "type": "error"
    }
  ],
  "bytecode": "0x608060405234801561000f575f80fd5b5061208f8061001d5f395ff3fe608060405234801561000f575f80fd5b506004361061004a575f3560e01c80635c6441a61461004e578063658bef931461007b57806384951f4b1461008e578063875ccb7a146100f0575b5f80fd5b61006161005c366004611b74565b610197565b604080519283526020830191909152015b60405180910390f35b610061610089366004611be9565b610422565b6100ee61009c366004611c37565b335f90815260208190526040902080546001600160a01b03949094166001600160b81b031990941693909317600160a01b62ffffff938416021762ffffff60b81b1916600160b81b9190921602179055565b005b61015f6100fe366004611c79565b60408051606080820183525f80835260208084018290529284018190526001600160a01b0394851681528083528390208351918201845254938416815262ffffff600160a01b8504811692820192909252600160b81b909304169082015290565b6040805182516001600160a01b0316815260208084015162ffffff908116918301919091529282015190921690820152606001610072565b6001600160a01b038087165f9081526020818152604080832081516060810183529054948516815262ffffff600160a01b8604811693820193909352600160b81b909404909116908301529081906101f4818a8a8a8a8a8a61043a565b5f805f6102038c8c8c8c610532565b919450925090506001600160a01b03891633145f8061023785858e8e8761022f57896101a00151610231565b5f5b886108a2565b995090925090505f88900361025f576040516317ff0e0960e11b815260040160405180910390fd5b8a88111561028057604051635d6d60f760e01b815260040160405180910390fd5b6040518a15158152828201995033907fe24aa47ff635f1a546a55407c1830a99c50045332faba28455dedecb35b07a7e9060200160405180910390a2604080850151905163d4ca6d1d60e01b8152600481018a90526001600160a01b038e811660248301523360448301529091169063d4ca6d1d906064016020604051808303815f875af1158015610314573d5f803e3d5ffd5b505050506040513d601f19601f820116820180604052508101906103389190611c94565b50604080860151905163b96f174360e01b815260048101849052602481018390526001600160a01b038e811660448301523360648301528c151560848301529091169063b96f17439060a4015f604051808303815f87803b15801561039b575f80fd5b505af11580156103ad573d5f803e3d5ffd5b50505050505050826001600160a01b0316637d9996286040518163ffffffff1660e01b81526004015f604051808303815f87803b1580156103ec575f80fd5b505af11580156103fe573d5f803e3d5ffd5b50505050610413848d8d8d8d8d8d8d8d610938565b50505050965096945050505050565b5f8061042e8484610a41565b915091505b9250929050565b86516001600160a01b031615610529576020870151612008906104629062ffffff1682610be8565b61046c5750610529565b8751604080516bffffffffffffffffffffffff1960608b811b821660208401528a811b8216603484015289811b8216604884015288901b16605c8201526070810186905284151560f81b60908201528151808203607101815260918201928390526335cb109960e01b9092526001600160a01b03909216916335cb1099916104fa918b918691609501611cab565b5f604051808303815f87803b158015610511575f80fd5b505af1158015610523573d5f803e3d5ffd5b50505050505b50505050505050565b5f61053b611ac0565b610543611ac0565b866001600160a01b03166379502c556040518163ffffffff1660e01b8152600401602060405180830381865afa15801561057f573d5f803e3d5ffd5b505050506040513d601f19601f820116820180604052508101906105a39190611d0e565b604080516080810182525f80825260208201819052818301819052606082015290516305f2d7f360e11b81526001600160a01b038a81166004830152878116602483015261200060448301529295509091851690630be5afe690606401610500604051808303815f875af115801561061d573d5f803e3d5ffd5b505050506040513d601f19601f820116820180604052508101906106419190611ea2565b8093508194508295505050505f8084604001516001600160a01b03166379502c556040518163ffffffff1660e01b8152600401602060405180830381865afa15801561068f573d5f803e3d5ffd5b505050506040513d601f19601f820116820180604052508101906106b39190611d0e565b6001600160a01b031663aecc90cb6040518163ffffffff1660e01b81526004016040805180830381865afa1580156106ed573d5f803e3d5ffd5b505050506040513d601f19601f820116820180604052508101906107119190611f70565b91509150816001600160a01b03168a6001600160a01b0316141580156107495750806001600160a01b03168a6001600160a01b031614155b15610767576040516349d73a2760e01b815260040160405180910390fd5b825161078657604051632f13551560e11b815260040160405180910390fd5b82606001516107a8576040516310c5e41f60e21b815260040160405180910390fd5b84608001516001600160a01b0316896001600160a01b0316146107de5760405163055692d760e21b815260040160405180910390fd5b83608001516001600160a01b0316886001600160a01b0316146108145760405163129e080d60e21b815260040160405180910390fd5b82602001516108955783606001516001600160a01b031663a6afed956040518163ffffffff1660e01b81526004016020604051808303815f875af115801561085e573d5f803e3d5ffd5b505050506040513d601f19601f820116820180604052508101906108829190611c94565b5061088c85610bf4565b61089584610bf4565b5050509450945094915050565b5f805f806108b48a8a8a5f805f610c7d565b90505f61090e826040518060c001604052808e610180015181526020018e608001516001600160a01b031681526020018d608001516001600160a01b031681526020018b81526020018a8152602001891515815250610ef9565b8094508192505050610924818360400151611046565b909c909b5092995091975050505050505050565b88516001600160a01b031615610a36576040890151612010906109609062ffffff1682610be8565b61096a5750610a36565b8951604080516bffffffffffffffffffffffff1960608d811b821660208401528c811b821660348401528b811b821660488401528a901b16605c8201526070810188905286151560f81b60908201526091810186905260b18082018690528251808303909101815260d182019283905263aef2823560e01b9092526001600160a01b039092169163aef2823591610a07918d91869160d501611cab565b5f604051808303815f87803b158015610a1e575f80fd5b505af1158015610a30573d5f803e3d5ffd5b50505050505b505050505050505050565b5f805f805f866001600160a01b03166379502c556040518163ffffffff1660e01b8152600401602060405180830381865afa158015610a82573d5f803e3d5ffd5b505050506040513d601f19601f82011682018060405250810190610aa69190611d0e565b604051633b691b9f60e01b81526001600160a01b03898116600483015288811660248301525f60448301529190911690633b691b9f9060640161050060405180830381865afa158015610afb573d5f803e3d5ffd5b505050506040513d601f19601f82011682018060405250810190610b1f9190611ea2565b925092509250805f01511580610b3757508060600151155b15610b4a575f8094509450505050610433565b5f610b5a8484895f60015f610c7d565b905080608001515f03610b76575f809550955050505050610433565b5f80610b8b8387608001518760800151611077565b915091505f83606001518460400151019050825f03610bba578084608001519850985050505050505050610433565b610bd681848660800151858b61018001518c6101a001516111c3565b98509850505050505050509250929050565b81811681145b92915050565b8061022001518015610c1357506101008101516001600160a01b031615155b15610c7a576101008101516080820151604051637cfd30cd60e11b81526001600160a01b03918216600482015291169063f9fa619a906024015f604051808303815f87803b158015610c63575f80fd5b505af1158015610c75573d5f803e3d5ffd5b505050505b50565b610cbc6040518060a001604052805f6001600160a01b031681526020015f6001600160a01b031681526020015f81526020015f81526020015f81525090565b85608001516001600160a01b031687608001516001600160a01b031614610d28576001846001811115610cf157610cf1611f9d565b14610d0757866101000151866101000151610d14565b8661012001518661012001515b6001600160a01b0390811660208401521681525b5f80610d398960a00151885f611212565b80935081925050505f808a604001516001600160a01b03166399d499c16040518163ffffffff1660e01b81526004016040805180830381865afa158015610d82573d5f803e3d5ffd5b505050506040513d601f19601f82011682018060405250810190610da69190611fb1565b91509150610db78382865f806112f4565b604086015260c08b0151610dcc908a5f611212565b945092506001876001811115610de457610de4611f9d565b14610def5781610e0b565b610e0b8b604001518c61014001518d5f01518e60200151611331565b9150610e1b8383865f60016112f4565b606086015260e08a0151610e30908a88611212565b945092505f6001886001811115610e4957610e49611f9d565b14610ec05760408b810151905163588cf5ff60e11b8152600260048201526001600160a01b039091169063b119ebfe90602401602060405180830381865afa158015610e97573d5f803e3d5ffd5b505050506040513d601f19601f82011682018060405250810190610ebb9190611c94565b610ed3565b610ed38b604001518c6101400151611427565b9050610ee4848287600160026112f4565b608087015250939a9950505050505050505050565b6040820151606083015160808401515f92839201901580610f1c57506060840151155b15610f2d575f809250925050610433565b805f03610f5e575f8560800151856060015111610f4e578460600151610f54565b85608001515b9250925050610433565b5f805f610f748888602001518960400151611516565b9250925092508660a0015115610faa578760800151876060015110610fa55750505060808501519092509050610433565b610fc1565b86518111610fc1575f809550955050505050610433565b5f610fd48286868c60800151878d611577565b91985096509050861580610fe6575085155b15610ffb575f80965096505050505050610433565b801561103a578760a001511561103a578751821180159061101c5750875181115b1561103a57604051635209961b60e11b815260040160405180910390fd5b50505050509250929050565b5f80835f0361105957505f905080610433565b828411611067575f8461106c565b828403835b909590945092505050565b606083015160408401515f9182910180156111165785516001600160a01b03166110a15780611113565b85516040516313b0be3360e01b8152600481018390526001600160a01b038781166024830152909116906313b0be3390604401602060405180830381865afa1580156110ef573d5f803e3d5ffd5b505050506040513d601f19601f820116820180604052508101906111139190611c94565b92505b6080860151156111ba5760208601516001600160a01b031661113c5785608001516111b7565b602086015160808701516040516313b0be3360e01b815260048101919091526001600160a01b038681166024830152909116906313b0be3390604401602060405180830381865afa158015611193573d5f803e3d5ffd5b505050506040513d601f19601f820116820180604052508101906111b79190611c94565b91505b50935093915050565b5f8080806111e78988670de0b6b3a7640000670c7d713b49da00008a02048861168a565b915091506111f6828b8b6116b0565b93506112038189896116b0565b92505050965096945050505050565b5f8082156112205782611288565b6040516370a0823160e01b81526001600160a01b0385811660048301528616906370a0823190602401602060405180830381865afa158015611264573d5f803e3d5ffd5b505050506040513d601f19601f820116820180604052508101906112889190611c94565b9150846001600160a01b03166318160ddd6040518163ffffffff1660e01b8152600401602060405180830381865afa1580156112c6573d5f803e3d5ffd5b505050506040513d601f19601f820116820180604052508101906112ea9190611c94565b9050935093915050565b5f805f6113028787866116f5565b91509150815f03611317578792505050611328565b61132388828488611737565b925050505b95945050505050565b6040516367efe7fd60e11b81526001600160a01b0385811660048301524260248301525f91829186169063cfdfcffa90604401602060405180830381865afa15801561137f573d5f803e3d5ffd5b505050506040513d601f19601f820116820180604052508101906113a39190611c94565b90505f80876001600160a01b031663e64e16216040518163ffffffff1660e01b81526004016040805180830381865afa1580156113e2573d5f803e3d5ffd5b505050506040513d601f19601f820116820180604052508101906114069190611fb1565b915091506114178282858989611784565b50919a9950505050505050505050565b6040516367efe7fd60e11b81526001600160a01b0383811660048301524260248301525f91829184169063cfdfcffa90604401602060405180830381865afa158015611475573d5f803e3d5ffd5b505050506040513d601f19601f820116820180604052508101906114999190611c94565b60405163588cf5ff60e11b81526002600482015290915061150d906001600160a01b0386169063b119ebfe90602401602060405180830381865afa1580156114e3573d5f803e3d5ffd5b505050506040513d601f19601f820116820180604052508101906115079190611c94565b826117c4565b50949350505050565b5f805f611524868686611077565b909350915082158015611535575081155b1561154757505f91508190508061156e565b825f0361155657505f1961156e565b61156b82670de0b6b3a7640000856001611737565b90505b93509350939050565b5f805f805f8560a00151806115945750670de0b6b3a76400008b10155b156115c457878660600151116115ae5785606001516115b0565b875b93506115bd84888a6116b0565b9050611641565b5f6115f5888b6115eb8a5f0151670de0b6b3a7640000670c7d713b49da0000919091020490565b8a60800151611801565b90508781036116095788945087915061163f565b5f611615828b8b6116b0565b90508088606001511161162c57876060015161162e565b805b955061163b868a8c6116b0565b9250505b505b61165f818a8860a0015161165957886080015161190a565b5f61190a565b915061166c828b8b6116b0565b945061167a89888484611943565b9250505096509650969350505050565b5f8061169885878686611801565b90506116a581878561190a565b915094509492505050565b5f815f036116d15760405163658c7bff60e11b815260040160405180910390fd5b6116db8385611ffb565b90508181816116ec576116ec611fd3565b04949350505050565b5f80835f03611702575f94505b600283600281111561171657611716611f9d565b1461172857600184018560010161172b565b83855b90969095509350505050565b5f6117646117448361196b565b801561175f57505f848061175a5761175a611fd3565b868809115b151590565b61176f868686611997565b6117799190612012565b90505b949350505050565b5f805f8061179288886117c4565b909350670de0b6b3a7640000868801820204925090508181036117b5818b612012565b94505095509550955095915050565b5f808315806117d1575082155b156117e057508290505f610433565b50670de0b6b3a7640000828402046117f88185612012565b91509250929050565b5f845f0361181057505f61177c565b670de0b6b3a7640000821061182657505f61177c565b83851061183457508361177c565b825f0361184257508361177c565b5f61184d8585611ffb565b9050611861670de0b6b3a764000087611ffb565b9550858110611873575f91505061177c565b670de0b6b3a7640000808704968290039250838502819004850190811061189e57869250505061177c565b80670de0b6b3a76400000383816118b7576118b7611fd3565b049250868311156118cc57869250505061177c565b670c7d713b49da0000876118e8670de0b6b3a764000086611ffb565b6118f29190612025565b116118fd57826118ff565b865b979650505050505050565b5f806119168386611ffb565b670de0b6b3a76400009004905061192d8186612012565b91508382111561193b578391505b509392505050565b5f8285148061195157508184145b1561195d57505f61177c565b611779838603838603611a55565b5f600282600381111561198057611980611f9d565b61198a9190612038565b60ff166001149050919050565b5f838302815f1985870982811083820303915050805f036119cb578382816119c1576119c1611fd3565b0492505050611a4e565b8084116119e9576119e984156119e2576011611a74565b6012611a74565b5f848688095f868103871696879004966002600389028118808a02820302808a02820302808a02820302808a02820302808a02820302808a02909103029181900381900460010186841190950394909402919094039290920491909117919091029150505b9392505050565b5f611a68670de0b6b3a764000083611ffb565b9050611a4e8184611a85565b634e487b715f52806020526024601cfd5b5f815f03611a9757611a976012611a74565b8215611ab857816001840381611aaf57611aaf611fd3565b04600101611a4e565b505f92915050565b60408051610240810182525f80825260208201819052918101829052606081018290526080810182905260a0810182905260c0810182905260e08101829052610100810182905261012081018290526101408101829052610160810182905261018081018290526101a081018290526101c081018290526101e08101829052610200810182905261022081019190915290565b6001600160a01b0381168114610c7a575f80fd5b8015158114610c7a575f80fd5b5f805f805f8060c08789031215611b89575f80fd5b8635611b9481611b53565b95506020870135611ba481611b53565b94506040870135611bb481611b53565b93506060870135611bc481611b53565b92506080870135915060a0870135611bdb81611b67565b809150509295509295509295565b5f8060408385031215611bfa575f80fd5b8235611c0581611b53565b91506020830135611c1581611b53565b809150509250929050565b803562ffffff81168114611c32575f80fd5b919050565b5f805f60608486031215611c49575f80fd5b8335611c5481611b53565b9250611c6260208501611c20565b9150611c7060408501611c20565b90509250925092565b5f60208284031215611c89575f80fd5b8135611a4e81611b53565b5f60208284031215611ca4575f80fd5b5051919050565b60018060a01b03841681525f60208460208401526060604084015283518060608501525f5b81811015611cec57858101830151858201608001528201611cd0565b505f608082860101526080601f19601f83011685010192505050949350505050565b5f60208284031215611d1e575f80fd5b8151611a4e81611b53565b604051610240810167ffffffffffffffff81118282101715611d5957634e487b7160e01b5f52604160045260245ffd5b60405290565b8051611c3281611b53565b8051611c3281611b67565b5f6102408284031215611d86575f80fd5b611d8e611d29565b90508151815260208201516020820152611daa60408301611d5f565b6040820152611dbb60608301611d5f565b6060820152611dcc60808301611d5f565b6080820152611ddd60a08301611d5f565b60a0820152611dee60c08301611d5f565b60c0820152611dff60e08301611d5f565b60e0820152610100611e12818401611d5f565b90820152610120611e24838201611d5f565b90820152610140611e36838201611d5f565b90820152610160828101519082015261018080830151908201526101a080830151908201526101c080830151908201526101e0611e74818401611d5f565b90820152610200611e86838201611d5f565b90820152610220611e98838201611d6a565b9082015292915050565b5f805f838503610500811215611eb6575f80fd5b611ec08686611d75565b9350611ed0866102408701611d75565b9250608061047f1982011215611ee4575f80fd5b506040516080810181811067ffffffffffffffff82111715611f1457634e487b7160e01b5f52604160045260245ffd5b604052610480850151611f2681611b67565b81526104a0850151611f3781611b67565b60208201526104c0850151611f4b81611b67565b60408201526104e0850151611f5f81611b67565b606082015292959194509192509050565b5f8060408385031215611f81575f80fd5b8251611f8c81611b53565b6020840151909250611c1581611b53565b634e487b7160e01b5f52602160045260245ffd5b5f8060408385031215611fc2575f80fd5b505080516020909101519092909150565b634e487b7160e01b5f52601260045260245ffd5b634e487b7160e01b5f52601160045260245ffd5b8082028115828204841417610bee57610bee611fe7565b80820180821115610bee57610bee611fe7565b5f8261203357612033611fd3565b500490565b5f60ff83168061204a5761204a611fd3565b8060ff8416069150509291505056fea2646970667358221220f8223344f7f209880ee559e317b6317fb0408d52598fb99066034dd38431422564736f6c63430008180033",
  "language": "Solidity",
  "compiler": "0.8.24+commit.e11b9ed9"
}