{
  "address": "0xA4e921BCEE8f9ae26D03f418AB22985803BAB638",
  "abi": [
    {
      "inputs": [],
      "name": "DOMAIN_SEPARATOR",
      "outputs": [
        {
          "internalType": "bytes32",
          "name": "",
          "type": "bytes32"
        }
      ],
      "stateMutability": "view",
      "type": "function"
    },
    {
      "inputs": [
        {
          "internalType": "address",
          "name": "owner",
          "type": "address"
        },
        {
          "internalType": "address",
          "name": "spender",
          "type": "address"
        }
      ],
      "name": "allowance",
      "outputs": [
        {
          "internalType": "uint256",
          "name": "",
          "type": "uint256"
        }
      ],
      "stateMutability": "view",
      "type": "function"
    },
    {
      "inputs": [
        {
          "internalType": "address",
          "name": "spender",
          "type": "address"
        },
        {
          "internalType": "uint256",
          "name": "value",
          "type": "uint256"
        }
      ],
      "name": "approve",
      "outputs": [
        {
          "internalType": "bool",
          "name": "result",
          "type": "bool"
        }
      ],
      "stateMutability": "nonpayable",
      "type": "function"
    },
    {
      "inputs": [
        {
          "internalType": "address",
          "name": "account",
          "type": "address"
        }
      ],
      "name": "balanceOf",
      "outputs": [
        {
          "internalType": "uint256",
          "name": "",
          "type": "uint256"
        }
      ],
      "stateMutability": "view",
      "type": "function"
    },
    {
      "inputs": [
        {
          "internalType": "address",
          "name": "_account",
          "type": "address"
        }
      ],
      "name": "balanceOfAndTotalSupply",
      "outputs": [
        {
          "internalType": "uint256",
          "name": "",
          "type": "uint256"
        },
        {
          "internalType": "uint256",
          "name": "",
          "type": "uint256"
        }
      ],
      "stateMutability": "view",
      "type": "function"
    },
    {
      "inputs": [
        {
          "internalType": "address",
          "name": "_owner",
          "type": "address"
        },
        {
          "internalType": "address",
          "name": "_spender",
          "type": "address"
        },
        {
          "internalType": "uint256",
          "name": "_amount",
          "type": "uint256"
        }
      ],
      "name": "burn",
      "outputs": [],
      "stateMutability": "nonpayable",
      "type": "function"
    },
    {
      "inputs": [],
      "name": "decimals",
      "outputs": [
        {
          "internalType": "uint8",
          "name": "",
          "type": "uint8"
        }
      ],
      "stateMutability": "view",
      "type": "function"
    },
    {
      "inputs": [],
      "name": "eip712Domain",
      "outputs": [
        {
          "internalType": "bytes1",
          "name": "fields",
          "type": "bytes1"
        },
        {
          "internalType": "string",
          "name": "name",
          "type": "string"
        },
        {
          "internalType": "string",
          "name": "version",
          "type": "string"
        },
        {
          "internalType": "uint256",
          "name": "chainId",
          "type": "uint256"
        },
        {
          "internalType": "address",
          "name": "verifyingContract",
          "type": "address"
        },
        {
          "internalType": "bytes32",
          "name": "salt",
          "type": "bytes32"
        },
        {
          "internalType": "uint256[]",
          "name": "extensions",
          "type": "uint256[]"
        }
      ],
      "stateMutability": "view",
      "type": "function"
    },
    {
      "inputs": [
        {
          "internalType": "address",
          "name": "_from",
          "type": "address"
        },
        {
          "internalType": "address",
          "name": "_to",
          "type": "address"
        },
        {
          "internalType": "uint256",
          "name": "_amount",
          "type": "uint256"
        }
      ],
      "name": "forwardTransferFromNoChecks",
      "outputs": [],
      "stateMutability": "nonpayable",
      "type": "function"
    },
    {
      "inputs": [],
      "name": "hookReceiver",
      "outputs": [
        {
          "internalType": "address",
          "name": "",
          "type": "address"
        }
      ],
      "stateMutability": "view",
      "type": "function"
    },
    {
      "inputs": [],
      "name": "hookSetup",
      "outputs": [
        {
          "components": [
            {
              "internalType": "address",
              "name": "hookReceiver",
              "type": "address"
            },
            {
              "internalType": "uint24",
              "name": "hooksBefore",
              "type": "uint24"
            },
            {
              "internalType": "uint24",
              "name": "hooksAfter",
              "type": "uint24"
            },
            {
              "internalType": "uint24",
              "name": "tokenType",
              "type": "uint24"
            }
          ],
          "internalType": "struct IShareToken.HookSetup",
          "name": "",
          "type": "tuple"
        }
      ],
      "stateMutability": "view",
      "type": "function"
    },
    {
      "inputs": [
        {
          "internalType": "contract ISilo",
          "name": "_silo",
          "type": "address"
        },
        {
          "internalType": "address",
          "name": "_hookReceiver",
          "type": "address"
        },
        {
          "internalType": "uint24",
          "name": "_tokenType",
          "type": "uint24"
        }
      ],
      "name": "initialize",
      "outputs": [],
      "stateMutability": "nonpayable",
      "type": "function"
    },
    {
      "inputs": [
        {
          "internalType": "address",
          "name": "_owner",
          "type": "address"
        },
        {
          "internalType": "address",
          "name": "",
          "type": "address"
        },
        {
          "internalType": "uint256",
          "name": "_amount",
          "type": "uint256"
        }
      ],
      "name": "mint",
      "outputs": [],
      "stateMutability": "nonpayable",
      "type": "function"
    },
    {
      "inputs": [],
      "name": "name",
      "outputs": [
        {
          "internalType": "string",
          "name": "",
          "type": "string"
        }
      ],
      "stateMutability": "view",
      "type": "function"
    },
    {
      "inputs": [
        {
          "internalType": "address",
          "name": "owner",
          "type": "address"
        }
      ],
      "name": "nonces",
      "outputs": [
        {
          "internalType": "uint256",
          "name": "",
          "type": "uint256"
        }
      ],
      "stateMutability": "view",
      "type": "function"
    },
    {
      "inputs": [
        {
          "internalType": "address",
          "name": "owner",
          "type": "address"
        },
        {
          "internalType": "address",
          "name": "spender",
          "type": "address"
        },
        {
          "internalType": "uint256",
          "name": "value",
          "type": "uint256"
        },
        {
          "internalType": "uint256",
          "name": "deadline",
          "type": "uint256"
        },
        {
          "internalType": "uint8",
          "name": "v",
          "type": "uint8"
        },
        {
          "internalType": "bytes32",
          "name": "r",
          "type": "bytes32"
        },
        {
          "internalType": "bytes32",
          "name": "s",
          "type": "bytes32"
        }
      ],
      "name": "permit",
      "outputs": [],
      "stateMutability": "nonpayable",
      "type": "function"
    },
    {
      "inputs": [],
      "name": "silo",
      "outputs": [
        {
          "internalType": "contract ISilo",
          "name": "",
          "type": "address"
        }
      ],
      "stateMutability": "view",
      "type": "function"
    },
    {
      "inputs": [],
      "name": "siloConfig",
      "outputs": [
        {
          "internalType": "contract ISiloConfig",
          "name": "",
          "type": "address"
        }
      ],
      "stateMutability": "view",
      "type": "function"
    },
    {
      "inputs": [],
      "name": "symbol",
      "outputs": [
        {
          "internalType": "string",
          "name": "",
          "type": "string"
        }
      ],
      "stateMutability": "view",
      "type": "function"
    },
    {
      "inputs": [
        {
          "internalType": "uint24",
          "name": "_hooksBefore",
          "type": "uint24"
        },
        {
          "internalType": "uint24",
          "name": "_hooksAfter",
          "type": "uint24"
        }
      ],
      "name": "synchronizeHooks",
      "outputs": [],
      "stateMutability": "nonpayable",
      "type": "function"
    },
    {
      "inputs": [],
      "name": "totalSupply",
      "outputs": [
        {
          "internalType": "uint256",
          "name": "",
          "type": "uint256"
        }
      ],
      "stateMutability": "view",
      "type": "function"
    },
    {
      "inputs": [
        {
          "internalType": "address",
          "name": "_to",
          "type": "address"
        },
        {
          "internalType": "uint256",
          "name": "_amount",
          "type": "uint256"
        }
      ],
      "name": "transfer",
      "outputs": [
        {
          "internalType": "bool",
          "name": "result",
          "type": "bool"
        }
      ],
      "stateMutability": "nonpayable",
      "type": "function"
    },
    {
      "inputs": [
        {
          "internalType": "address",
          "name": "_from",
          "type": "address"
        },
        {
          "internalType": "address",
          "name": "_to",
          "type": "address"
        },
        {
          "internalType": "uint256",
          "name": "_amount",
          "type": "uint256"
        }
      ],
      "name": "transferFrom",
      "outputs": [
        {
          "internalType": "bool",
          "name": "result",
          "type": "bool"
        }
      ],
      "stateMutability": "nonpayable",
      "type": "function"
    },
    {
      "anonymous": false,
      "inputs": [
        {
          "indexed": true,
          "internalType": "address",
          "name": "owner",
          "type": "address"
        },
        {
          "indexed": true,
          "internalType": "address",
          "name": "spender",
          "type": "address"
        },
        {
          "indexed": false,
          "internalType": "uint256",
          "name": "value",
          "type": "uint256"
        }
      ],
      "name": "Approval",
      "type": "event"
    },
    {
      "anonymous": false,
      "inputs": [],
      "name": "EIP712DomainChanged",
      "type": "event"
    },
    {
      "anonymous": false,
      "inputs": [
        {
          "indexed": false,
          "internalType": "uint64",
          "name": "version",
          "type": "uint64"
        }
      ],
      "name": "Initialized",
      "type": "event"
    },
    {
      "anonymous": false,
      "inputs": [
        {
          "indexed": true,
          "internalType": "address",
          "name": "notificationReceiver",
          "type": "address"
        },
        {
          "indexed": false,
          "internalType": "bool",
          "name": "success",
          "type": "bool"
        }
      ],
      "name": "NotificationSent",
      "type": "event"
    },
    {
      "anonymous": false,
      "inputs": [
        {
          "indexed": true,
          "internalType": "address",
          "name": "from",
          "type": "address"
        },
        {
          "indexed": true,
          "internalType": "address",
          "name": "to",
          "type": "address"
        },
        {
          "indexed": false,
          "internalType": "uint256",
          "name": "value",
          "type": "uint256"
        }
      ],
      "name": "Transfer",
      "type": "event"
    },
    {
      "inputs": [],
      "name": "AmountExceedsAllowance",
      "type": "error"
    },
    {
      "inputs": [],
      "name": "CrossReentrantCall",
      "type": "error"
    },
    {
      "inputs": [],
      "name": "ECDSAInvalidSignature",
      "type": "error"
    },
    {
      "inputs": [
        {
          "internalType": "uint256",
          "name": "length",
          "type": "uint256"
        }
      ],
      "name": "ECDSAInvalidSignatureLength",
      "type": "error"
    },
    {
      "inputs": [
        {
          "internalType": "bytes32",
          "name": "s",
          "type": "bytes32"
        }
      ],
      "name": "ECDSAInvalidSignatureS",
      "type": "error"
    },
    {
      "inputs": [
        {
          "internalType": "address",
          "name": "spender",
          "type": "address"
        },
        {
          "internalType": "uint256",
          "name": "allowance",
          "type": "uint256"
        },
        {
          "internalType": "uint256",
          "name": "needed",
          "type": "uint256"
        }
      ],
      "name": "ERC20InsufficientAllowance",
      "type": "error"
    },
    {
      "inputs": [
        {
          "internalType": "address",
          "name": "sender",
          "type": "address"
        },
        {
          "internalType": "uint256",
          "name": "balance",
          "type": "uint256"
        },
        {
          "internalType": "uint256",
          "name": "needed",
          "type": "uint256"
        }
      ],
      "name": "ERC20InsufficientBalance",
      "type": "error"
    },
    {
      "inputs": [
        {
          "internalType": "address",
          "name": "approver",
          "type": "address"
        }
      ],
      "name": "ERC20InvalidApprover",
      "type": "error"
    },
    {
      "inputs": [
        {
          "internalType": "address",
          "name": "receiver",
          "type": "address"
        }
      ],
      "name": "ERC20InvalidReceiver",
      "type": "error"
    },
    {
      "inputs": [
        {
          "internalType": "address",
          "name": "sender",
          "type": "address"
        }
      ],
      "name": "ERC20InvalidSender",
      "type": "error"
    },
    {
      "inputs": [
        {
          "internalType": "address",
          "name": "spender",
          "type": "address"
        }
      ],
      "name": "ERC20InvalidSpender",
      "type": "error"
    },
    {
      "inputs": [
        {
          "internalType": "uint256",
          "name": "deadline",
          "type": "uint256"
        }
      ],
      "name": "ERC2612ExpiredSignature",
      "type": "error"
    },
    {
      "inputs": [
        {
          "internalType": "address",
          "name": "signer",
          "type": "address"
        },
        {
          "internalType": "address",
          "name": "owner",
          "type": "address"
        }
      ],
      "name": "ERC2612InvalidSigner",
      "type": "error"
    },
    {
      "inputs": [
        {
          "internalType": "address",
          "name": "account",
          "type": "address"
        },
        {
          "internalType": "uint256",
          "name": "currentNonce",
          "type": "uint256"
        }
      ],
      "name": "InvalidAccountNonce",
      "type": "error"
    },
    {
      "inputs": [],
      "name": "InvalidInitialization",
      "type": "error"
    },
    {
      "inputs": [],
      "name": "NotInitializing",
      "type": "error"
    },
    {
      "inputs": [],
      "name": "OnlySilo",
      "type": "error"
    },
    {
      "inputs": [],
      "name": "OnlySiloConfig",
      "type": "error"
    },
    {
      "inputs": [],
      "name": "OwnerIsZero",
      "type": "error"
    },
    {
      "inputs": [],
      "name": "RecipientIsZero",
      "type": "error"
    },
    {
      "inputs": [],
      "name": "RecipientNotSolventAfterTransfer",
      "type": "error"
    },
    {
      "inputs": [],
      "name": "SenderNotSolventAfterTransfer",
      "type": "error"
    },
    {
      "inputs": [],
      "name": "ShareTransferNotAllowed",
      "type": "error"
    },
    {
      "inputs": [],
      "name": "ZeroTransfer",
      "type": "error"
    }
  ],
  "bytecode": "0x6080604052348015600e575f5ffd5b5060156019565b60c9565b7ff0c57e16840df040f15088dc2f81fe391c3923bec73e23a9662efc9c229c6a00805468010000000000000000900460ff161560685760405163f92ee8a960e01b815260040160405180910390fd5b80546001600160401b039081161460c65780546001600160401b0319166001600160401b0390811782556040519081527fc7f505b2f371ae2175ee4913f4499e1f2633a7b5936321eed1cdaeb6115181d29060200160405180910390a15b50565b611f6a806100d65f395ff3fe608060405234801561000f575f5ffd5b5060043610610148575f3560e01c806384b0196e116100bf578063d714fd1911610079578063d714fd19146103af578063d985616c146103b7578063dce5c2db146103ca578063dd62ed3e146103f2578063eb3beb2914610405578063f6b911bc1461040d575f5ffd5b806384b0196e1461030f5780638fea80621461032a57806395d89b411461036e578063a9059cbb14610376578063c6c3bbe614610389578063d505accf1461039c575f5ffd5b8063313ce56711610110578063313ce5671461029f578063336c8d70146102b95780633644e515146102ce5780634c7b0f3c146102d657806370a08231146102e95780637ecebe00146102fc575f5ffd5b806306fdde031461014c578063095ea7b31461016a5780630ed4fe311461018d57806318160ddd1461025b57806323b872dd1461028c575b5f5ffd5b610154610420565b60405161016191906119bd565b60405180910390f35b61017d6101783660046119e3565b610494565b6040519015158152602001610161565b610212604080516080810182525f8082526020820181905291810182905260608101919091525f516020611ef55f395f51905f5260408051608081018252600292909201546001600160a01b038116835262ffffff600160a01b820481166020850152600160b81b8204811692840192909252600160d01b9004166060820152919050565b604051610161919081516001600160a01b0316815260208083015162ffffff90811691830191909152604080840151821690830152606092830151169181019190915260800190565b7f52c63247e1f47db19d5ce0460030c497f067ca4cebf71ba98eeadabe20bace02545b604051908152602001610161565b61017d61029a366004611a0d565b6104b6565b6102a7610525565b60405160ff9091168152602001610161565b6102cc6102c7366004611a62565b61059d565b005b61027e6105ad565b6102cc6102e4366004611aa6565b6105b6565b61027e6102f7366004611ad7565b61064a565b61027e61030a366004611ad7565b61068d565b61031761069d565b6040516101619796959493929190611af2565b7f01b0b3f9d6e360167e522fa2b18ba597ad7b2b35841fec7e1ca4dbb0adea1202546001600160a01b03165b6040516001600160a01b039091168152602001610161565b61015461074b565b61017d6103843660046119e3565b610793565b6102cc610397366004611a0d565b610800565b6102cc6103aa366004611b96565b610843565b610356610866565b6102cc6103c5366004611a0d565b61086f565b6103dd6103d8366004611ad7565b6108fd565b60408051928352602083019190915201610161565b61027e610400366004611c02565b610933565b61035661097c565b6102cc61041b366004611a0d565b610985565b606073__$e36323ec861de5853ea34405a6a6c240f5$__6306fdde036040518163ffffffff1660e01b81526004015f60405180830381865af4158015610468573d5f5f3e3d5ffd5b505050506040513d5f823e601f3d908101601f1916820160405261048f9190810190611c4d565b905090565b5f6104a56104a06109ec565b610a1a565b6104af8383610a9b565b9392505050565b5f5f6104c0610ab2565b90506104cd858585610b0e565b9150806001600160a01b03166362402b046040518163ffffffff1660e01b81526004015f604051808303815f87803b158015610507575f5ffd5b505af1158015610519573d5f5f3e3d5ffd5b50505050509392505050565b5f600373__$e36323ec861de5853ea34405a6a6c240f5$__63313ce5676040518163ffffffff1660e01b8152600401602060405180830381865af415801561056f573d5f5f3e3d5ffd5b505050506040513d601f19601f820116820180604052508101906105939190611d00565b61048f9190611d2f565b6105a8838383610b31565b505050565b5f61048f610cf0565b6105be610cf9565b6001600160a01b0316336001600160a01b0316146105ef576040516310528c6d60e11b815260040160405180910390fd5b7f01b0b3f9d6e360167e522fa2b18ba597ad7b2b35841fec7e1ca4dbb0adea1202805465ffffffffffff60a01b1916600160a01b62ffffff9485160262ffffff60b81b191617600160b81b9290931691909102919091179055565b5f807f52c63247e1f47db19d5ce0460030c497f067ca4cebf71ba98eeadabe20bace005b6001600160a01b039093165f9081526020939093525050604090205490565b5f61069782610d14565b92915050565b5f60608082808083815f516020611f155f395f51905f5280549091501580156106c857506001810154155b6107115760405162461bcd60e51b81526020600482015260156024820152741152540dcc4c8e88155b9a5b9a5d1a585b1a5e9959605a1b60448201526064015b60405180910390fd5b610719610d3c565b610721610dfc565b604080515f80825260208201909252600f60f81b9c939b5091995046985030975095509350915050565b606073__$e36323ec861de5853ea34405a6a6c240f5$__6395d89b416040518163ffffffff1660e01b81526004015f60405180830381865af4158015610468573d5f5f3e3d5ffd5b5f5f61079d610ab2565b90506107a98484610e3a565b9150806001600160a01b03166362402b046040518163ffffffff1660e01b81526004015f604051808303815f87803b1580156107e3575f5ffd5b505af11580156107f5573d5f5f3e3d5ffd5b505050505092915050565b610808610cf9565b6001600160a01b0316336001600160a01b031614610839576040516310528c6d60e11b815260040160405180910390fd5b6105a88382610e47565b61084e6104a06109ec565b61085d87878787878787610e7f565b50505050505050565b5f61048f6109ec565b610877610cf9565b6001600160a01b0316336001600160a01b0316146108a8576040516310528c6d60e11b815260040160405180910390fd5b7f01b0b3f9d6e360167e522fa2b18ba597ad7b2b35841fec7e1ca4dbb0adea1203805460ff191690555f516020611ef55f395f51905f526108ea848484610fd4565b600301805460ff19166001179055505050565b5f5f6109088361064a565b7f52c63247e1f47db19d5ce0460030c497f067ca4cebf71ba98eeadabe20bace025491509150915091565b6001600160a01b039182165f9081527f52c63247e1f47db19d5ce0460030c497f067ca4cebf71ba98eeadabe20bace016020908152604080832093909416825291909152205490565b5f61048f610cf9565b61098d610cf9565b6001600160a01b0316336001600160a01b0316146109be576040516310528c6d60e11b815260040160405180910390fd5b816001600160a01b0316836001600160a01b0316146109e2576109e2838383611031565b6105a88382611094565b7f01b0b3f9d6e360167e522fa2b18ba597ad7b2b35841fec7e1ca4dbb0adea1201546001600160a01b031690565b806001600160a01b031663d2c725e06040518163ffffffff1660e01b8152600401602060405180830381865afa158015610a56573d5f5f3e3d5ffd5b505050506040513d601f19601f82011682018060405250810190610a7a9190611d48565b15610a985760405163e17fbf8960e01b815260040160405180910390fd5b50565b5f33610aa88185856110c8565b5060019392505050565b5f610abb6109ec565b9050806001600160a01b0316639dd413306040518163ffffffff1660e01b81526004015f604051808303815f87803b158015610af5575f5ffd5b505af1158015610b07573d5f5f3e3d5ffd5b5050505090565b5f33610b1b858285611031565b610b26858585610fd4565b506001949350505050565b7ff0c57e16840df040f15088dc2f81fe391c3923bec73e23a9662efc9c229c6a008054600160401b810460ff16159067ffffffffffffffff165f81158015610b765750825b90505f8267ffffffffffffffff166001148015610b925750303b155b905081158015610ba0575080155b15610bbe5760405163f92ee8a960e01b815260040160405180910390fd5b845467ffffffffffffffff191660011785558315610be857845460ff60401b1916600160401b1785555b610c266040518060400160405280601881526020017f53696c6f5368617265546f6b656e4549503731324e616d6500000000000000008152506110d5565b604051631983f68f60e21b81526001600160a01b03808a1660048301528816602482015262ffffff8716604482015273__$e36323ec861de5853ea34405a6a6c240f5$__9063660fda3c906064015f6040518083038186803b158015610c8a575f5ffd5b505af4158015610c9c573d5f5f3e3d5ffd5b505050508315610ce657845460ff60401b19168555604051600181527fc7f505b2f371ae2175ee4913f4499e1f2633a7b5936321eed1cdaeb6115181d29060200160405180910390a15b5050505050505050565b5f61048f611100565b5f516020611ef55f395f51905f52546001600160a01b031690565b5f807f5ab42ced628888259c08ac98db1eb0cf702fc1501344311d8b100cd1bfe4bb0061066e565b7fa16a46d94261c7517cc8ff89f61c0ce93598e3c849801011dee649a6a557d10280546060915f516020611f155f395f51905f5291610d7a90611d67565b80601f0160208091040260200160405190810160405280929190818152602001828054610da690611d67565b8015610df15780601f10610dc857610100808354040283529160200191610df1565b820191905f5260205f20905b815481529060010190602001808311610dd457829003601f168201915b505050505091505090565b7fa16a46d94261c7517cc8ff89f61c0ce93598e3c849801011dee649a6a557d10380546060915f516020611f155f395f51905f5291610d7a90611d67565b5f33610aa8818585610fd4565b6001600160a01b038216610e705760405163ec442f0560e01b81525f6004820152602401610708565b610e7b5f8383611173565b5050565b83421115610ea35760405163313c898160e11b815260048101859052602401610708565b5f7f6e71edae12b1b97f4d1f60370fef10105fa2faae0126114a169c64845d6126c9888888610f0d8c6001600160a01b03165f9081527f5ab42ced628888259c08ac98db1eb0cf702fc1501344311d8b100cd1bfe4bb006020526040902080546001810190915590565b6040805160208101969096526001600160a01b0394851690860152929091166060840152608083015260a082015260c0810186905260e0016040516020818303038152906040528051906020012090505f610f67826111a9565b90505f610f76828787876111d5565b9050896001600160a01b0316816001600160a01b031614610fbd576040516325c0072360e11b81526001600160a01b0380831660048301528b166024820152604401610708565b610fc88a8a8a6110c8565b50505050505050505050565b6001600160a01b038316610ffd57604051634b637e8f60e11b81525f6004820152602401610708565b6001600160a01b0382166110265760405163ec442f0560e01b81525f6004820152602401610708565b6105a8838383611173565b5f61103c8484610933565b90505f19811461108e578181101561108057604051637dc7a0d960e11b81526001600160a01b03841660048201526024810182905260448101839052606401610708565b61108e84848484035f611201565b50505050565b6001600160a01b0382166110bd57604051634b637e8f60e11b81525f6004820152602401610708565b610e7b825f83611173565b6105a88383836001611201565b6110dd6112f8565b610a9881604051806040016040528060018152602001603160f81b815250611343565b5f7f8b73c3c69bb8fe3d512ecc4cf759cc79239f7b179b0ffacaa9a75d522b39400f61112a6113a2565b61113261140a565b60408051602081019490945283019190915260608201524660808201523060a082015260c00160405160208183030381529060405280519060200120905090565b805f03611193576040516310cadee360e01b815260040160405180910390fd5b61119e83838361144c565b6105a8838383611598565b5f6106976111b5610cf0565b8360405161190160f01b8152600281019290925260228201526042902090565b5f5f5f5f6111e58888888861166e565b9250925092506111f58282611736565b50909695505050505050565b7f52c63247e1f47db19d5ce0460030c497f067ca4cebf71ba98eeadabe20bace006001600160a01b03851661124b5760405163e602df0560e01b81525f6004820152602401610708565b6001600160a01b03841661127457604051634a1406b160e11b81525f6004820152602401610708565b6001600160a01b038086165f908152600183016020908152604080832093881683529290522083905581156112f157836001600160a01b0316856001600160a01b03167f8c5be1e5ebec7d5bd14f71427d1e84f3dd0314c0f7b2291e5b200ac8c7c3b925856040516112e891815260200190565b60405180910390a35b5050505050565b7ff0c57e16840df040f15088dc2f81fe391c3923bec73e23a9662efc9c229c6a0054600160401b900460ff1661134157604051631afcd79f60e31b815260040160405180910390fd5b565b61134b6112f8565b5f516020611f155f395f51905f527fa16a46d94261c7517cc8ff89f61c0ce93598e3c849801011dee649a6a557d1026113848482611de3565b50600381016113938382611de3565b505f8082556001909101555050565b5f5f516020611f155f395f51905f52816113ba610d3c565b8051909150156113d257805160209091012092915050565b815480156113e1579392505050565b7fc5d2460186f7233c927e7db2dcc703c0e500b653ca82273b7bfad8045d85a470935050505090565b5f5f516020611f155f395f51905f5281611422610dfc565b80519091501561143a57805160209091012092915050565b600182015480156113e1579392505050565b7f52c63247e1f47db19d5ce0460030c497f067ca4cebf71ba98eeadabe20bace006001600160a01b0384166114995781816002015f82825461148e9190611e9e565b909155506115099050565b6001600160a01b0384165f90815260208290526040902054828110156114eb5760405163391434e360e21b81526001600160a01b03861660048201526024810182905260448101849052606401610708565b6001600160a01b0385165f9081526020839052604090209083900390555b6001600160a01b038316611527576002810180548390039055611545565b6001600160a01b0383165f9081526020829052604090208054830190555b826001600160a01b0316846001600160a01b03167fddf252ad1be2c89b69c2b068fc378daa952ba7f163c4a11628f55a4df523b3ef8460405161158a91815260200190565b60405180910390a350505050565b5f516020611ef55f395f51905f526115b084846117ee565b80156115c05750600381015460ff165b1561166357604051636f15550f60e11b81526001600160a01b03851660048201525f9073__$0c603b63fef61d2abd9717344845f11cca$__9063de2aaa1e90602401602060405180830381865af415801561161d573d5f5f3e3d5ffd5b505050506040513d601f19601f820116820180604052508101906116419190611d48565b90508061166157604051633c3b8e1b60e21b815260040160405180910390fd5b505b61108e848484611813565b5f80807f7fffffffffffffffffffffffffffffff5d576e7357a4501ddfe92f46681b20a08411156116a757505f9150600390508261172c565b604080515f808252602082018084528a905260ff891692820192909252606081018790526080810186905260019060a0016020604051602081039080840390855afa1580156116f8573d5f5f3e3d5ffd5b5050604051601f1901519150506001600160a01b03811661172357505f92506001915082905061172c565b92505f91508190505b9450945094915050565b5f82600381111561174957611749611eb1565b03611752575050565b600182600381111561176657611766611eb1565b036117845760405163f645eedf60e01b815260040160405180910390fd5b600282600381111561179857611798611eb1565b036117b95760405163fce698f760e01b815260048101829052602401610708565b60038260038111156117cd576117cd611eb1565b03610e7b576040516335e2f38360e21b815260048101829052602401610708565b5f6001600160a01b038316158015906104af5750506001600160a01b03161515919050565b604080516080810182527f01b0b3f9d6e360167e522fa2b18ba597ad7b2b35841fec7e1ca4dbb0adea1202546001600160a01b038116825262ffffff600160a01b820481166020840152600160b81b820480821694840194909452600160d01b9091048116606083018190525f516020611ef55f395f51905f5293610400909117919082161681146118a757505050505050565b815183546001600160a01b039182169163aef282359116838989896118cb8361064a565b6118d48d61064a565b7f52c63247e1f47db19d5ce0460030c497f067ca4cebf71ba98eeadabe20bace02546040516bffffffffffffffffffffffff19606097881b811660208301529590961b909416603486015260488501929092526068840152608883015260a882015260c8016040516020818303038152906040526040518463ffffffff1660e01b815260040161196693929190611ec5565b5f604051808303815f87803b15801561197d575f5ffd5b505af1158015610fc8573d5f5f3e3d5ffd5b5f81518084528060208401602086015e5f602082860101526020601f19601f83011685010191505092915050565b602081525f6104af602083018461198f565b6001600160a01b0381168114610a98575f5ffd5b5f5f604083850312156119f4575f5ffd5b82356119ff816119cf565b946020939093013593505050565b5f5f5f60608486031215611a1f575f5ffd5b8335611a2a816119cf565b92506020840135611a3a816119cf565b929592945050506040919091013590565b803562ffffff81168114611a5d575f5ffd5b919050565b5f5f5f60608486031215611a74575f5ffd5b8335611a7f816119cf565b92506020840135611a8f816119cf565b9150611a9d60408501611a4b565b90509250925092565b5f5f60408385031215611ab7575f5ffd5b611ac083611a4b565b9150611ace60208401611a4b565b90509250929050565b5f60208284031215611ae7575f5ffd5b81356104af816119cf565b60ff60f81b8816815260e060208201525f611b1060e083018961198f565b8281036040840152611b22818961198f565b606084018890526001600160a01b038716608085015260a0840186905283810360c0850152845180825260208087019350909101905f5b81811015611b77578351835260209384019390920191600101611b59565b50909b9a5050505050505050505050565b60ff81168114610a98575f5ffd5b5f5f5f5f5f5f5f60e0888a031215611bac575f5ffd5b8735611bb7816119cf565b96506020880135611bc7816119cf565b955060408801359450606088013593506080880135611be581611b88565b9699959850939692959460a0840135945060c09093013592915050565b5f5f60408385031215611c13575f5ffd5b8235611c1e816119cf565b91506020830135611c2e816119cf565b809150509250929050565b634e487b7160e01b5f52604160045260245ffd5b5f60208284031215611c5d575f5ffd5b815167ffffffffffffffff811115611c73575f5ffd5b8201601f81018413611c83575f5ffd5b805167ffffffffffffffff811115611c9d57611c9d611c39565b604051601f8201601f19908116603f0116810167ffffffffffffffff81118282101715611ccc57611ccc611c39565b604052818152828201602001861015611ce3575f5ffd5b8160208401602083015e5f91810160200191909152949350505050565b5f60208284031215611d10575f5ffd5b81516104af81611b88565b634e487b7160e01b5f52601160045260245ffd5b60ff818116838216019081111561069757610697611d1b565b5f60208284031215611d58575f5ffd5b815180151581146104af575f5ffd5b600181811c90821680611d7b57607f821691505b602082108103611d9957634e487b7160e01b5f52602260045260245ffd5b50919050565b601f8211156105a857805f5260205f20601f840160051c81016020851015611dc45750805b601f840160051c820191505b818110156112f1575f8155600101611dd0565b815167ffffffffffffffff811115611dfd57611dfd611c39565b611e1181611e0b8454611d67565b84611d9f565b6020601f821160018114611e43575f8315611e2c5750848201515b5f19600385901b1c1916600184901b1784556112f1565b5f84815260208120601f198516915b82811015611e725787850151825560209485019460019092019101611e52565b5084821015611e8f57868401515f19600387901b60f8161c191681555b50505050600190811b01905550565b8082018082111561069757610697611d1b565b634e487b7160e01b5f52602160045260245ffd5b60018060a01b0384168152826020820152606060408201525f611eeb606083018461198f565b9594505050505056fe01b0b3f9d6e360167e522fa2b18ba597ad7b2b35841fec7e1ca4dbb0adea1200a16a46d94261c7517cc8ff89f61c0ce93598e3c849801011dee649a6a557d100a26469706673582212200a6ec342ec102f328494cea0814a296bad1a02d43b48caa23fdb0dffc355bb2764736f6c634300081c0033",
  "language": "Solidity",
  "compiler": "0.8.28+commit.7893614a"
}