{
  "address": "0xA013e7252EdfB2CE93eEe4073DC03eDA16AfcfEf",
  "abi": [
    {
      "inputs": [],
      "name": "DOMAIN_SEPARATOR",
      "outputs": [
        {
          "internalType": "bytes32",
          "name": "",
          "type": "bytes32"
        }
      ],
      "stateMutability": "view",
      "type": "function"
    },
    {
      "inputs": [
        {
          "internalType": "address",
          "name": "owner",
          "type": "address"
        },
        {
          "internalType": "address",
          "name": "spender",
          "type": "address"
        }
      ],
      "name": "allowance",
      "outputs": [
        {
          "internalType": "uint256",
          "name": "",
          "type": "uint256"
        }
      ],
      "stateMutability": "view",
      "type": "function"
    },
    {
      "inputs": [
        {
          "internalType": "address",
          "name": "spender",
          "type": "address"
        },
        {
          "internalType": "uint256",
          "name": "value",
          "type": "uint256"
        }
      ],
      "name": "approve",
      "outputs": [
        {
          "internalType": "bool",
          "name": "result",
          "type": "bool"
        }
      ],
      "stateMutability": "nonpayable",
      "type": "function"
    },
    {
      "inputs": [
        {
          "internalType": "address",
          "name": "account",
          "type": "address"
        }
      ],
      "name": "balanceOf",
      "outputs": [
        {
          "internalType": "uint256",
          "name": "",
          "type": "uint256"
        }
      ],
      "stateMutability": "view",
      "type": "function"
    },
    {
      "inputs": [
        {
          "internalType": "address",
          "name": "_account",
          "type": "address"
        }
      ],
      "name": "balanceOfAndTotalSupply",
      "outputs": [
        {
          "internalType": "uint256",
          "name": "",
          "type": "uint256"
        },
        {
          "internalType": "uint256",
          "name": "",
          "type": "uint256"
        }
      ],
      "stateMutability": "view",
      "type": "function"
    },
    {
      "inputs": [
        {
          "internalType": "address",
          "name": "_owner",
          "type": "address"
        },
        {
          "internalType": "address",
          "name": "",
          "type": "address"
        },
        {
          "internalType": "uint256",
          "name": "_amount",
          "type": "uint256"
        }
      ],
      "name": "burn",
      "outputs": [],
      "stateMutability": "nonpayable",
      "type": "function"
    },
    {
      "inputs": [],
      "name": "decimals",
      "outputs": [
        {
          "internalType": "uint8",
          "name": "",
          "type": "uint8"
        }
      ],
      "stateMutability": "view",
      "type": "function"
    },
    {
      "inputs": [
        {
          "internalType": "address",
          "name": "_owner",
          "type": "address"
        },
        {
          "internalType": "uint256",
          "name": "_subtractedValue",
          "type": "uint256"
        }
      ],
      "name": "decreaseReceiveAllowance",
      "outputs": [],
      "stateMutability": "nonpayable",
      "type": "function"
    },
    {
      "inputs": [],
      "name": "eip712Domain",
      "outputs": [
        {
          "internalType": "bytes1",
          "name": "fields",
          "type": "bytes1"
        },
        {
          "internalType": "string",
          "name": "name",
          "type": "string"
        },
        {
          "internalType": "string",
          "name": "version",
          "type": "string"
        },
        {
          "internalType": "uint256",
          "name": "chainId",
          "type": "uint256"
        },
        {
          "internalType": "address",
          "name": "verifyingContract",
          "type": "address"
        },
        {
          "internalType": "bytes32",
          "name": "salt",
          "type": "bytes32"
        },
        {
          "internalType": "uint256[]",
          "name": "extensions",
          "type": "uint256[]"
        }
      ],
      "stateMutability": "view",
      "type": "function"
    },
    {
      "inputs": [
        {
          "internalType": "address",
          "name": "_from",
          "type": "address"
        },
        {
          "internalType": "address",
          "name": "_to",
          "type": "address"
        },
        {
          "internalType": "uint256",
          "name": "_amount",
          "type": "uint256"
        }
      ],
      "name": "forwardTransferFromNoChecks",
      "outputs": [],
      "stateMutability": "nonpayable",
      "type": "function"
    },
    {
      "inputs": [],
      "name": "hookReceiver",
      "outputs": [
        {
          "internalType": "address",
          "name": "",
          "type": "address"
        }
      ],
      "stateMutability": "view",
      "type": "function"
    },
    {
      "inputs": [],
      "name": "hookSetup",
      "outputs": [
        {
          "components": [
            {
              "internalType": "address",
              "name": "hookReceiver",
              "type": "address"
            },
            {
              "internalType": "uint24",
              "name": "hooksBefore",
              "type": "uint24"
            },
            {
              "internalType": "uint24",
              "name": "hooksAfter",
              "type": "uint24"
            },
            {
              "internalType": "uint24",
              "name": "tokenType",
              "type": "uint24"
            }
          ],
          "internalType": "struct IShareToken.HookSetup",
          "name": "",
          "type": "tuple"
        }
      ],
      "stateMutability": "view",
      "type": "function"
    },
    {
      "inputs": [
        {
          "internalType": "address",
          "name": "_owner",
          "type": "address"
        },
        {
          "internalType": "uint256",
          "name": "_addedValue",
          "type": "uint256"
        }
      ],
      "name": "increaseReceiveAllowance",
      "outputs": [],
      "stateMutability": "nonpayable",
      "type": "function"
    },
    {
      "inputs": [
        {
          "internalType": "contract ISilo",
          "name": "_silo",
          "type": "address"
        },
        {
          "internalType": "address",
          "name": "_hookReceiver",
          "type": "address"
        },
        {
          "internalType": "uint24",
          "name": "_tokenType",
          "type": "uint24"
        }
      ],
      "name": "initialize",
      "outputs": [],
      "stateMutability": "nonpayable",
      "type": "function"
    },
    {
      "inputs": [
        {
          "internalType": "address",
          "name": "_owner",
          "type": "address"
        },
        {
          "internalType": "address",
          "name": "_spender",
          "type": "address"
        },
        {
          "internalType": "uint256",
          "name": "_amount",
          "type": "uint256"
        }
      ],
      "name": "mint",
      "outputs": [],
      "stateMutability": "nonpayable",
      "type": "function"
    },
    {
      "inputs": [],
      "name": "name",
      "outputs": [
        {
          "internalType": "string",
          "name": "",
          "type": "string"
        }
      ],
      "stateMutability": "view",
      "type": "function"
    },
    {
      "inputs": [
        {
          "internalType": "address",
          "name": "owner",
          "type": "address"
        }
      ],
      "name": "nonces",
      "outputs": [
        {
          "internalType": "uint256",
          "name": "",
          "type": "uint256"
        }
      ],
      "stateMutability": "view",
      "type": "function"
    },
    {
      "inputs": [
        {
          "internalType": "address",
          "name": "owner",
          "type": "address"
        },
        {
          "internalType": "address",
          "name": "spender",
          "type": "address"
        },
        {
          "internalType": "uint256",
          "name": "value",
          "type": "uint256"
        },
        {
          "internalType": "uint256",
          "name": "deadline",
          "type": "uint256"
        },
        {
          "internalType": "uint8",
          "name": "v",
          "type": "uint8"
        },
        {
          "internalType": "bytes32",
          "name": "r",
          "type": "bytes32"
        },
        {
          "internalType": "bytes32",
          "name": "s",
          "type": "bytes32"
        }
      ],
      "name": "permit",
      "outputs": [],
      "stateMutability": "nonpayable",
      "type": "function"
    },
    {
      "inputs": [
        {
          "internalType": "address",
          "name": "_owner",
          "type": "address"
        },
        {
          "internalType": "address",
          "name": "_recipient",
          "type": "address"
        }
      ],
      "name": "receiveAllowance",
      "outputs": [
        {
          "internalType": "uint256",
          "name": "",
          "type": "uint256"
        }
      ],
      "stateMutability": "view",
      "type": "function"
    },
    {
      "inputs": [
        {
          "internalType": "address",
          "name": "owner",
          "type": "address"
        },
        {
          "internalType": "uint256",
          "name": "_amount",
          "type": "uint256"
        }
      ],
      "name": "setReceiveApproval",
      "outputs": [],
      "stateMutability": "nonpayable",
      "type": "function"
    },
    {
      "inputs": [],
      "name": "silo",
      "outputs": [
        {
          "internalType": "contract ISilo",
          "name": "",
          "type": "address"
        }
      ],
      "stateMutability": "view",
      "type": "function"
    },
    {
      "inputs": [],
      "name": "siloConfig",
      "outputs": [
        {
          "internalType": "contract ISiloConfig",
          "name": "",
          "type": "address"
        }
      ],
      "stateMutability": "view",
      "type": "function"
    },
    {
      "inputs": [],
      "name": "symbol",
      "outputs": [
        {
          "internalType": "string",
          "name": "",
          "type": "string"
        }
      ],
      "stateMutability": "view",
      "type": "function"
    },
    {
      "inputs": [
        {
          "internalType": "uint24",
          "name": "_hooksBefore",
          "type": "uint24"
        },
        {
          "internalType": "uint24",
          "name": "_hooksAfter",
          "type": "uint24"
        }
      ],
      "name": "synchronizeHooks",
      "outputs": [],
      "stateMutability": "nonpayable",
      "type": "function"
    },
    {
      "inputs": [],
      "name": "totalSupply",
      "outputs": [
        {
          "internalType": "uint256",
          "name": "",
          "type": "uint256"
        }
      ],
      "stateMutability": "view",
      "type": "function"
    },
    {
      "inputs": [
        {
          "internalType": "address",
          "name": "_to",
          "type": "address"
        },
        {
          "internalType": "uint256",
          "name": "_amount",
          "type": "uint256"
        }
      ],
      "name": "transfer",
      "outputs": [
        {
          "internalType": "bool",
          "name": "result",
          "type": "bool"
        }
      ],
      "stateMutability": "nonpayable",
      "type": "function"
    },
    {
      "inputs": [
        {
          "internalType": "address",
          "name": "_from",
          "type": "address"
        },
        {
          "internalType": "address",
          "name": "_to",
          "type": "address"
        },
        {
          "internalType": "uint256",
          "name": "_amount",
          "type": "uint256"
        }
      ],
      "name": "transferFrom",
      "outputs": [
        {
          "internalType": "bool",
          "name": "result",
          "type": "bool"
        }
      ],
      "stateMutability": "nonpayable",
      "type": "function"
    },
    {
      "anonymous": false,
      "inputs": [
        {
          "indexed": true,
          "internalType": "address",
          "name": "owner",
          "type": "address"
        },
        {
          "indexed": true,
          "internalType": "address",
          "name": "spender",
          "type": "address"
        },
        {
          "indexed": false,
          "internalType": "uint256",
          "name": "value",
          "type": "uint256"
        }
      ],
      "name": "Approval",
      "type": "event"
    },
    {
      "anonymous": false,
      "inputs": [],
      "name": "EIP712DomainChanged",
      "type": "event"
    },
    {
      "anonymous": false,
      "inputs": [
        {
          "indexed": false,
          "internalType": "uint64",
          "name": "version",
          "type": "uint64"
        }
      ],
      "name": "Initialized",
      "type": "event"
    },
    {
      "anonymous": false,
      "inputs": [
        {
          "indexed": true,
          "internalType": "address",
          "name": "notificationReceiver",
          "type": "address"
        },
        {
          "indexed": false,
          "internalType": "bool",
          "name": "success",
          "type": "bool"
        }
      ],
      "name": "NotificationSent",
      "type": "event"
    },
    {
      "anonymous": false,
      "inputs": [
        {
          "indexed": true,
          "internalType": "address",
          "name": "_owner",
          "type": "address"
        },
        {
          "indexed": true,
          "internalType": "address",
          "name": "_receiver",
          "type": "address"
        },
        {
          "indexed": false,
          "internalType": "uint256",
          "name": "_value",
          "type": "uint256"
        }
      ],
      "name": "ReceiveApproval",
      "type": "event"
    },
    {
      "anonymous": false,
      "inputs": [
        {
          "indexed": true,
          "internalType": "address",
          "name": "from",
          "type": "address"
        },
        {
          "indexed": true,
          "internalType": "address",
          "name": "to",
          "type": "address"
        },
        {
          "indexed": false,
          "internalType": "uint256",
          "name": "value",
          "type": "uint256"
        }
      ],
      "name": "Transfer",
      "type": "event"
    },
    {
      "inputs": [],
      "name": "AmountExceedsAllowance",
      "type": "error"
    },
    {
      "inputs": [],
      "name": "CrossReentrantCall",
      "type": "error"
    },
    {
      "inputs": [],
      "name": "ECDSAInvalidSignature",
      "type": "error"
    },
    {
      "inputs": [
        {
          "internalType": "uint256",
          "name": "length",
          "type": "uint256"
        }
      ],
      "name": "ECDSAInvalidSignatureLength",
      "type": "error"
    },
    {
      "inputs": [
        {
          "internalType": "bytes32",
          "name": "s",
          "type": "bytes32"
        }
      ],
      "name": "ECDSAInvalidSignatureS",
      "type": "error"
    },
    {
      "inputs": [
        {
          "internalType": "address",
          "name": "spender",
          "type": "address"
        },
        {
          "internalType": "uint256",
          "name": "allowance",
          "type": "uint256"
        },
        {
          "internalType": "uint256",
          "name": "needed",
          "type": "uint256"
        }
      ],
      "name": "ERC20InsufficientAllowance",
      "type": "error"
    },
    {
      "inputs": [
        {
          "internalType": "address",
          "name": "sender",
          "type": "address"
        },
        {
          "internalType": "uint256",
          "name": "balance",
          "type": "uint256"
        },
        {
          "internalType": "uint256",
          "name": "needed",
          "type": "uint256"
        }
      ],
      "name": "ERC20InsufficientBalance",
      "type": "error"
    },
    {
      "inputs": [
        {
          "internalType": "address",
          "name": "approver",
          "type": "address"
        }
      ],
      "name": "ERC20InvalidApprover",
      "type": "error"
    },
    {
      "inputs": [
        {
          "internalType": "address",
          "name": "receiver",
          "type": "address"
        }
      ],
      "name": "ERC20InvalidReceiver",
      "type": "error"
    },
    {
      "inputs": [
        {
          "internalType": "address",
          "name": "sender",
          "type": "address"
        }
      ],
      "name": "ERC20InvalidSender",
      "type": "error"
    },
    {
      "inputs": [
        {
          "internalType": "address",
          "name": "spender",
          "type": "address"
        }
      ],
      "name": "ERC20InvalidSpender",
      "type": "error"
    },
    {
      "inputs": [
        {
          "internalType": "uint256",
          "name": "deadline",
          "type": "uint256"
        }
      ],
      "name": "ERC2612ExpiredSignature",
      "type": "error"
    },
    {
      "inputs": [
        {
          "internalType": "address",
          "name": "signer",
          "type": "address"
        },
        {
          "internalType": "address",
          "name": "owner",
          "type": "address"
        }
      ],
      "name": "ERC2612InvalidSigner",
      "type": "error"
    },
    {
      "inputs": [
        {
          "internalType": "address",
          "name": "account",
          "type": "address"
        },
        {
          "internalType": "uint256",
          "name": "currentNonce",
          "type": "uint256"
        }
      ],
      "name": "InvalidAccountNonce",
      "type": "error"
    },
    {
      "inputs": [],
      "name": "InvalidInitialization",
      "type": "error"
    },
    {
      "inputs": [],
      "name": "NotInitializing",
      "type": "error"
    },
    {
      "inputs": [],
      "name": "OnlySilo",
      "type": "error"
    },
    {
      "inputs": [],
      "name": "OnlySiloConfig",
      "type": "error"
    },
    {
      "inputs": [],
      "name": "OwnerIsZero",
      "type": "error"
    },
    {
      "inputs": [],
      "name": "RecipientIsZero",
      "type": "error"
    },
    {
      "inputs": [],
      "name": "RecipientNotSolventAfterTransfer",
      "type": "error"
    },
    {
      "inputs": [],
      "name": "SenderNotSolventAfterTransfer",
      "type": "error"
    },
    {
      "inputs": [],
      "name": "ShareTransferNotAllowed",
      "type": "error"
    },
    {
      "inputs": [],
      "name": "ZeroTransfer",
      "type": "error"
    }
  ],
  "bytecode": "0x6080604052348015600e575f5ffd5b5060156019565b60c9565b7ff0c57e16840df040f15088dc2f81fe391c3923bec73e23a9662efc9c229c6a00805468010000000000000000900460ff161560685760405163f92ee8a960e01b815260040160405180910390fd5b80546001600160401b039081161460c65780546001600160401b0319166001600160401b0390811782556040519081527fc7f505b2f371ae2175ee4913f4499e1f2633a7b5936321eed1cdaeb6115181d29060200160405180910390a15b50565b612576806100d65f395ff3fe608060405234801561000f575f5ffd5b50600436106101a1575f3560e01c80637ecebe00116100f3578063d505accf11610093578063dce5c2db1161006e578063dce5c2db1461046f578063dd62ed3e14610497578063eb3beb29146104aa578063f6b911bc146104b2575f5ffd5b8063d505accf14610441578063d714fd1914610454578063d985616c1461045c575f5ffd5b80638fea8062116100ce5780638fea8062146103cf57806395d89b4114610413578063a9059cbb1461041b578063c6c3bbe61461042e575f5ffd5b80637ecebe001461038e57806380d4336e146103a157806384b0196e146103b4575f5ffd5b8063336c8d701161015e5780634c7b0f3c116101395780634c7b0f3c1461034257806362221ca11461035557806370a082311461036857806375d680161461037b575f5ffd5b8063336c8d701461031257806334deadf2146103275780633644e5151461033a575f5ffd5b806306fdde03146101a5578063095ea7b3146101c35780630ed4fe31146101e657806318160ddd146102b457806323b872dd146102e5578063313ce567146102f8575b5f5ffd5b6101ad6104c5565b6040516101ba9190611e61565b60405180910390f35b6101d66101d1366004611e87565b610539565b60405190151581526020016101ba565b61026b604080516080810182525f8082526020820181905291810182905260608101919091525f5160206125015f395f51905f5260408051608081018252600292909201546001600160a01b038116835262ffffff600160a01b820481166020850152600160b81b8204811692840192909252600160d01b9004166060820152919050565b6040516101ba919081516001600160a01b0316815260208083015162ffffff90811691830191909152604080840151821690830152606092830151169181019190915260800190565b7f52c63247e1f47db19d5ce0460030c497f067ca4cebf71ba98eeadabe20bace02545b6040519081526020016101ba565b6101d66102f3366004611eb1565b61055b565b6103006105ca565b60405160ff90911681526020016101ba565b610325610320366004611f06565b610636565b005b610325610335366004611e87565b610646565b6102d761067a565b610325610350366004611f4a565b610683565b6102d7610363366004611f7b565b610717565b6102d7610376366004611fb2565b610728565b610325610389366004611e87565b61076b565b6102d761039c366004611fb2565b6107a2565b6103256103af366004611e87565b6107ac565b6103bc6107f3565b6040516101ba9796959493929190611fcd565b7f01b0b3f9d6e360167e522fa2b18ba597ad7b2b35841fec7e1ca4dbb0adea1202546001600160a01b03165b6040516001600160a01b0390911681526020016101ba565b6101ad6108a1565b6101d6610429366004611e87565b6108e9565b61032561043c366004611eb1565b610956565b61032561044f366004612071565b6109bd565b6103fb6109e0565b61032561046a366004611eb1565b6109e9565b61048261047d366004611fb2565b610a77565b604080519283526020830191909152016101ba565b6102d76104a5366004611f7b565b610aad565b6103fb610af6565b6103256104c0366004611eb1565b610aff565b606073__$e36323ec861de5853ea34405a6a6c240f5$__6306fdde036040518163ffffffff1660e01b81526004015f60405180830381865af415801561050d573d5f5f3e3d5ffd5b505050506040513d5f823e601f3d908101601f19168201604052610534919081019061214c565b905090565b5f61054a610545610b42565b610b70565b6105548383610bf1565b9392505050565b5f5f610565610c08565b9050610572858585610c64565b9150806001600160a01b03166362402b046040518163ffffffff1660e01b81526004015f604051808303815f87803b1580156105ac575f5ffd5b505af11580156105be573d5f5f3e3d5ffd5b50505050509392505050565b5f73__$e36323ec861de5853ea34405a6a6c240f5$__63313ce5676040518163ffffffff1660e01b8152600401602060405180830381865af4158015610612573d5f5f3e3d5ffd5b505050506040513d601f19601f8201168201806040525081019061053491906121e0565b610641838383610c87565b505050565b61066a5f5160206125015f395f51905f525b600101546001600160a01b0316610b70565b61067682335b83610e46565b5050565b5f610534610f19565b61068b610f22565b6001600160a01b0316336001600160a01b0316146106bc576040516310528c6d60e11b815260040160405180910390fd5b7f01b0b3f9d6e360167e522fa2b18ba597ad7b2b35841fec7e1ca4dbb0adea1202805465ffffffffffff60a01b1916600160a01b62ffffff9485160262ffffff60b81b191617600160b81b9290931691909102919091179055565b5f6105548383610f3d565b92915050565b5f807f52c63247e1f47db19d5ce0460030c497f067ca4cebf71ba98eeadabe20bace005b6001600160a01b039093165f9081526020939093525050604090205490565b6107815f5160206125015f395f51905f52610658565b5f61078c8333610f3d565b9050610641833361079d85856121fb565b610e46565b5f61072282610f86565b6107c25f5160206125015f395f51905f52610658565b5f6107cd8333610f3d565b90505f8282106107df578282036107e1565b5f5b90506107ed8433610670565b50505050565b5f60608082808083815f5160206125215f395f51905f52805490915015801561081e57506001810154155b6108675760405162461bcd60e51b81526020600482015260156024820152741152540dcc4c8e88155b9a5b9a5d1a585b1a5e9959605a1b60448201526064015b60405180910390fd5b61086f610fae565b61087761106e565b604080515f80825260208201909252600f60f81b9c939b5091995046985030975095509350915050565b606073__$e36323ec861de5853ea34405a6a6c240f5$__6395d89b416040518163ffffffff1660e01b81526004015f60405180830381865af415801561050d573d5f5f3e3d5ffd5b5f5f6108f3610c08565b90506108ff84846110ac565b9150806001600160a01b03166362402b046040518163ffffffff1660e01b81526004015f604051808303815f87803b158015610939575f5ffd5b505af115801561094b573d5f5f3e3d5ffd5b505050505092915050565b61095e610f22565b6001600160a01b0316336001600160a01b03161461098f576040516310528c6d60e11b815260040160405180910390fd5b816001600160a01b0316836001600160a01b0316146109b3576109b38383836110b9565b6106418382611116565b6109c8610545610b42565b6109d78787878787878761114a565b50505050505050565b5f610534610b42565b6109f1610f22565b6001600160a01b0316336001600160a01b031614610a22576040516310528c6d60e11b815260040160405180910390fd5b7f01b0b3f9d6e360167e522fa2b18ba597ad7b2b35841fec7e1ca4dbb0adea1203805460ff191690555f5160206125015f395f51905f52610a6484848461129f565b600301805460ff19166001179055505050565b5f5f610a8283610728565b7f52c63247e1f47db19d5ce0460030c497f067ca4cebf71ba98eeadabe20bace025491509150915091565b6001600160a01b039182165f9081527f52c63247e1f47db19d5ce0460030c497f067ca4cebf71ba98eeadabe20bace016020908152604080832093909416825291909152205490565b5f610534610f22565b610b07610f22565b6001600160a01b0316336001600160a01b031614610b38576040516310528c6d60e11b815260040160405180910390fd5b61064183826112fc565b7f01b0b3f9d6e360167e522fa2b18ba597ad7b2b35841fec7e1ca4dbb0adea1201546001600160a01b031690565b806001600160a01b031663d2c725e06040518163ffffffff1660e01b8152600401602060405180830381865afa158015610bac573d5f5f3e3d5ffd5b505050506040513d601f19601f82011682018060405250810190610bd09190612229565b15610bee5760405163e17fbf8960e01b815260040160405180910390fd5b50565b5f33610bfe818585611330565b5060019392505050565b5f610c11610b42565b9050806001600160a01b0316639dd413306040518163ffffffff1660e01b81526004015f604051808303815f87803b158015610c4b575f5ffd5b505af1158015610c5d573d5f5f3e3d5ffd5b5050505090565b5f33610c718582856110b9565b610c7c85858561129f565b506001949350505050565b7ff0c57e16840df040f15088dc2f81fe391c3923bec73e23a9662efc9c229c6a008054600160401b810460ff16159067ffffffffffffffff165f81158015610ccc5750825b90505f8267ffffffffffffffff166001148015610ce85750303b155b905081158015610cf6575080155b15610d145760405163f92ee8a960e01b815260040160405180910390fd5b845467ffffffffffffffff191660011785558315610d3e57845460ff60401b1916600160401b1785555b610d7c6040518060400160405280601881526020017f53696c6f5368617265546f6b656e4549503731324e616d65000000000000000081525061133d565b604051631983f68f60e21b81526001600160a01b03808a1660048301528816602482015262ffffff8716604482015273__$e36323ec861de5853ea34405a6a6c240f5$__9063660fda3c906064015f6040518083038186803b158015610de0575f5ffd5b505af4158015610df2573d5f5f3e3d5ffd5b505050508315610e3c57845460ff60401b19168555604051600181527fc7f505b2f371ae2175ee4913f4499e1f2633a7b5936321eed1cdaeb6115181d29060200160405180910390a15b5050505050505050565b6001600160a01b038316610e6d57604051634269a05960e01b815260040160405180910390fd5b6001600160a01b038216610e945760405163b05313bb60e01b815260040160405180910390fd5b6001600160a01b038381165f8181527f5a499b742bad5e18c139447ced974d19a977bcf86e03691ee458d10efcd04d0060208181526040808420958816808552958252928390208690559151858152909392917fa80d0efa8328d29034668db835056d5d5e5876f77ffc7bc09f1e06b2ba18b12191015b60405180910390a350505050565b5f610534611368565b5f5160206125015f395f51905f52546001600160a01b031690565b6001600160a01b039182165f9081527f5a499b742bad5e18c139447ced974d19a977bcf86e03691ee458d10efcd04d006020908152604080832093909416825291909152205490565b5f807f5ab42ced628888259c08ac98db1eb0cf702fc1501344311d8b100cd1bfe4bb0061074c565b7fa16a46d94261c7517cc8ff89f61c0ce93598e3c849801011dee649a6a557d10280546060915f5160206125215f395f51905f5291610fec90612242565b80601f016020809104026020016040519081016040528092919081815260200182805461101890612242565b80156110635780601f1061103a57610100808354040283529160200191611063565b820191905f5260205f20905b81548152906001019060200180831161104657829003601f168201915b505050505091505090565b7fa16a46d94261c7517cc8ff89f61c0ce93598e3c849801011dee649a6a557d10380546060915f5160206125215f395f51905f5291610fec90612242565b5f33610bfe81858561129f565b5f6110c48484610aad565b90505f1981146107ed578181101561110857604051637dc7a0d960e11b81526001600160a01b0384166004820152602481018290526044810183905260640161085e565b6107ed84848484035f6113db565b6001600160a01b03821661113f5760405163ec442f0560e01b81525f600482015260240161085e565b6106765f83836114d2565b8342111561116e5760405163313c898160e11b81526004810185905260240161085e565b5f7f6e71edae12b1b97f4d1f60370fef10105fa2faae0126114a169c64845d6126c98888886111d88c6001600160a01b03165f9081527f5ab42ced628888259c08ac98db1eb0cf702fc1501344311d8b100cd1bfe4bb006020526040902080546001810190915590565b6040805160208101969096526001600160a01b0394851690860152929091166060840152608083015260a082015260c0810186905260e0016040516020818303038152906040528051906020012090505f61123282611513565b90505f6112418287878761153f565b9050896001600160a01b0316816001600160a01b031614611288576040516325c0072360e11b81526001600160a01b0380831660048301528b16602482015260440161085e565b6112938a8a8a611330565b50505050505050505050565b6001600160a01b0383166112c857604051634b637e8f60e11b81525f600482015260240161085e565b6001600160a01b0382166112f15760405163ec442f0560e01b81525f600482015260240161085e565b6106418383836114d2565b6001600160a01b03821661132557604051634b637e8f60e11b81525f600482015260240161085e565b610676825f836114d2565b61064183838360016113db565b61134561156b565b610bee81604051806040016040528060018152602001603160f81b8152506115b6565b5f7f8b73c3c69bb8fe3d512ecc4cf759cc79239f7b179b0ffacaa9a75d522b39400f611392611615565b61139a61167d565b60408051602081019490945283019190915260608201524660808201523060a082015260c00160405160208183030381529060405280519060200120905090565b7f52c63247e1f47db19d5ce0460030c497f067ca4cebf71ba98eeadabe20bace006001600160a01b0385166114255760405163e602df0560e01b81525f600482015260240161085e565b6001600160a01b03841661144e57604051634a1406b160e11b81525f600482015260240161085e565b6001600160a01b038086165f908152600183016020908152604080832093881683529290522083905581156114cb57836001600160a01b0316856001600160a01b03167f8c5be1e5ebec7d5bd14f71427d1e84f3dd0314c0f7b2291e5b200ac8c7c3b925856040516114c291815260200190565b60405180910390a35b5050505050565b805f036114f2576040516310cadee360e01b815260040160405180910390fd5b6114fd8383836116bf565b611508838383611796565b6106418383836118d4565b5f61072261151f610f19565b8360405161190160f01b8152600281019290925260228201526042902090565b5f5f5f5f61154f88888888611a10565b92509250925061155f8282611ad8565b50909695505050505050565b7ff0c57e16840df040f15088dc2f81fe391c3923bec73e23a9662efc9c229c6a0054600160401b900460ff166115b457604051631afcd79f60e31b815260040160405180910390fd5b565b6115be61156b565b5f5160206125215f395f51905f527fa16a46d94261c7517cc8ff89f61c0ce93598e3c849801011dee649a6a557d1026115f784826122be565b506003810161160683826122be565b505f8082556001909101555050565b5f5f5160206125215f395f51905f528161162d610fae565b80519091501561164557805160209091012092915050565b81548015611654579392505050565b7fc5d2460186f7233c927e7db2dcc703c0e500b653ca82273b7bfad8045d85a470935050505090565b5f5f5160206125215f395f51905f528161169561106e565b8051909150156116ad57805160209091012092915050565b60018201548015611654579392505050565b5f5160206125015f395f51905f526116d78484611b90565b156107ed5760018101546040516372db655960e01b81526001600160a01b0386811660048301528581166024830152909116906372db6559906044015f604051808303815f87803b15801561172a575f5ffd5b505af115801561173c573d5f5f3e3d5ffd5b50505050600381015460ff166117525750505050565b5f61175d8585610f3d565b905082811015611780576040516303814af160e61b815260040160405180910390fd5b82810361178e868683610e46565b505050505050565b7f52c63247e1f47db19d5ce0460030c497f067ca4cebf71ba98eeadabe20bace006001600160a01b0384166117e35781816002015f8282546117d891906121fb565b909155506118539050565b6001600160a01b0384165f90815260208290526040902054828110156118355760405163391434e360e21b81526001600160a01b0386166004820152602481018290526044810184905260640161085e565b6001600160a01b0385165f9081526020839052604090209083900390555b6001600160a01b03831661187157600281018054839003905561188f565b6001600160a01b0383165f9081526020829052604090208054830190555b826001600160a01b0316846001600160a01b03167fddf252ad1be2c89b69c2b068fc378daa952ba7f163c4a11628f55a4df523b3ef84604051610f0b91815260200190565b5f5160206125015f395f51905f526118ec8484611b90565b80156118fc5750600381015460ff165b15611a0557806001015f9054906101000a90046001600160a01b03166001600160a01b0316637d16b1f56040518163ffffffff1660e01b81526004015f604051808303815f87803b15801561194f575f5ffd5b505af1158015611961573d5f5f3e3d5ffd5b505050600182015461197d91506001600160a01b031684611bb5565b80546040516338b51ce160e01b81526001600160a01b038581166004830152909116906338b51ce190602401602060405180830381865afa1580156119c4573d5f5f3e3d5ffd5b505050506040513d601f19601f820116820180604052508101906119e89190612229565b611a05576040516377b1921f60e11b815260040160405180910390fd5b6107ed848484611c38565b5f80807f7fffffffffffffffffffffffffffffff5d576e7357a4501ddfe92f46681b20a0841115611a4957505f91506003905082611ace565b604080515f808252602082018084528a905260ff891692820192909252606081018790526080810186905260019060a0016020604051602081039080840390855afa158015611a9a573d5f5f3e3d5ffd5b5050604051601f1901519150506001600160a01b038116611ac557505f925060019150829050611ace565b92505f91508190505b9450945094915050565b5f826003811115611aeb57611aeb612379565b03611af4575050565b6001826003811115611b0857611b08612379565b03611b265760405163f645eedf60e01b815260040160405180910390fd5b6002826003811115611b3a57611b3a612379565b03611b5b5760405163fce698f760e01b81526004810182905260240161085e565b6003826003811115611b6f57611b6f612379565b03610676576040516335e2f38360e21b81526004810182905260240161085e565b5f6001600160a01b038316158015906105545750506001600160a01b03161515919050565b6040516394c0527d60e01b81526001600160a01b0382811660048301525f9182918516906394c0527d9060240161040060405180830381865afa158015611bfe573d5f5f3e3d5ffd5b505050506040513d601f19601f82011682018060405250810190611c2291906124a5565b91509150611c2f82611db4565b6107ed81611db4565b604080516080810182527f01b0b3f9d6e360167e522fa2b18ba597ad7b2b35841fec7e1ca4dbb0adea1202546001600160a01b038116825262ffffff600160a01b820481166020840152600160b81b820480821694840194909452600160d01b9091048116606083018190525f5160206125015f395f51905f529361040090911791908216168114611ccc57505050505050565b815183546001600160a01b039182169163aef28235911683898989611cf083610728565b611cf98d610728565b7f52c63247e1f47db19d5ce0460030c497f067ca4cebf71ba98eeadabe20bace02546040516bffffffffffffffffffffffff19606097881b811660208301529590961b909416603486015260488501929092526068840152608883015260a882015260c8016040516020818303038152906040526040518463ffffffff1660e01b8152600401611d8b939291906124d1565b5f604051808303815f87803b158015611da2575f5ffd5b505af1158015611293573d5f5f3e3d5ffd5b806101e001518015611dd2575060e08101516001600160a01b031615155b15610bee5760e08101516060820151604051637cfd30cd60e11b81526001600160a01b03918216600482015291169063f9fa619a906024015f604051808303815f87803b158015611e21575f5ffd5b505af11580156114cb573d5f5f3e3d5ffd5b5f81518084528060208401602086015e5f602082860101526020601f19601f83011685010191505092915050565b602081525f6105546020830184611e33565b6001600160a01b0381168114610bee575f5ffd5b5f5f60408385031215611e98575f5ffd5b8235611ea381611e73565b946020939093013593505050565b5f5f5f60608486031215611ec3575f5ffd5b8335611ece81611e73565b92506020840135611ede81611e73565b929592945050506040919091013590565b803562ffffff81168114611f01575f5ffd5b919050565b5f5f5f60608486031215611f18575f5ffd5b8335611f2381611e73565b92506020840135611f3381611e73565b9150611f4160408501611eef565b90509250925092565b5f5f60408385031215611f5b575f5ffd5b611f6483611eef565b9150611f7260208401611eef565b90509250929050565b5f5f60408385031215611f8c575f5ffd5b8235611f9781611e73565b91506020830135611fa781611e73565b809150509250929050565b5f60208284031215611fc2575f5ffd5b813561055481611e73565b60ff60f81b8816815260e060208201525f611feb60e0830189611e33565b8281036040840152611ffd8189611e33565b606084018890526001600160a01b038716608085015260a0840186905283810360c0850152845180825260208087019350909101905f5b81811015612052578351835260209384019390920191600101612034565b50909b9a5050505050505050505050565b60ff81168114610bee575f5ffd5b5f5f5f5f5f5f5f60e0888a031215612087575f5ffd5b873561209281611e73565b965060208801356120a281611e73565b9550604088013594506060880135935060808801356120c081612063565b9699959850939692959460a0840135945060c09093013592915050565b634e487b7160e01b5f52604160045260245ffd5b604051610200810167ffffffffffffffff81118282101715612115576121156120dd565b60405290565b604051601f8201601f1916810167ffffffffffffffff81118282101715612144576121446120dd565b604052919050565b5f6020828403121561215c575f5ffd5b815167ffffffffffffffff811115612172575f5ffd5b8201601f81018413612182575f5ffd5b805167ffffffffffffffff81111561219c5761219c6120dd565b6121af601f8201601f191660200161211b565b8181528560208385010111156121c3575f5ffd5b8160208401602083015e5f91810160200191909152949350505050565b5f602082840312156121f0575f5ffd5b815161055481612063565b8082018082111561072257634e487b7160e01b5f52601160045260245ffd5b80518015158114611f01575f5ffd5b5f60208284031215612239575f5ffd5b6105548261221a565b600181811c9082168061225657607f821691505b60208210810361227457634e487b7160e01b5f52602260045260245ffd5b50919050565b601f82111561064157805f5260205f20601f840160051c8101602085101561229f5750805b601f840160051c820191505b818110156114cb575f81556001016122ab565b815167ffffffffffffffff8111156122d8576122d86120dd565b6122ec816122e68454612242565b8461227a565b6020601f82116001811461231e575f83156123075750848201515b5f19600385901b1c1916600184901b1784556114cb565b5f84815260208120601f198516915b8281101561234d578785015182556020948501946001909201910161232d565b508482101561236a57868401515f19600387901b60f8161c191681555b50505050600190811b01905550565b634e487b7160e01b5f52602160045260245ffd5b8051611f0181611e73565b5f61020082840312156123a9575f5ffd5b6123b16120f1565b825181526020808401519082015290506123cd6040830161238d565b60408201526123de6060830161238d565b60608201526123ef6080830161238d565b608082015261240060a0830161238d565b60a082015261241160c0830161238d565b60c082015261242260e0830161238d565b60e0820152612434610100830161238d565b610100820152612447610120830161238d565b6101208201526101408281015190820152610160808301519082015261018080830151908201526101a080830151908201526124866101c0830161238d565b6101c08201526124996101e0830161221a565b6101e082015292915050565b5f5f61040083850312156124b7575f5ffd5b6124c18484612398565b9150611f72846102008501612398565b60018060a01b0384168152826020820152606060408201525f6124f76060830184611e33565b9594505050505056fe01b0b3f9d6e360167e522fa2b18ba597ad7b2b35841fec7e1ca4dbb0adea1200a16a46d94261c7517cc8ff89f61c0ce93598e3c849801011dee649a6a557d100a2646970667358221220710081cd668cd4401fa4e9703eef8a62361ace6e241217d80d026b7fc62b8b2664736f6c634300081c0033",
  "language": "Solidity",
  "compiler": "0.8.28+commit.7893614a"
}