{
  "address": "0x626e6A8D4EB33D77A8b631ABfE2E98dA69E3100e",
  "abi": [
    {
      "inputs": [
        {
          "internalType": "address",
          "name": "owner",
          "type": "address"
        },
        {
          "internalType": "address",
          "name": "spender",
          "type": "address"
        }
      ],
      "name": "allowance",
      "outputs": [
        {
          "internalType": "uint256",
          "name": "",
          "type": "uint256"
        }
      ],
      "stateMutability": "view",
      "type": "function"
    },
    {
      "inputs": [
        {
          "internalType": "address",
          "name": "spender",
          "type": "address"
        },
        {
          "internalType": "uint256",
          "name": "value",
          "type": "uint256"
        }
      ],
      "name": "approve",
      "outputs": [
        {
          "internalType": "bool",
          "name": "",
          "type": "bool"
        }
      ],
      "stateMutability": "nonpayable",
      "type": "function"
    },
    {
      "inputs": [
        {
          "internalType": "address",
          "name": "account",
          "type": "address"
        }
      ],
      "name": "balanceOf",
      "outputs": [
        {
          "internalType": "uint256",
          "name": "",
          "type": "uint256"
        }
      ],
      "stateMutability": "view",
      "type": "function"
    },
    {
      "inputs": [
        {
          "internalType": "address",
          "name": "_account",
          "type": "address"
        }
      ],
      "name": "balanceOfAndTotalSupply",
      "outputs": [
        {
          "internalType": "uint256",
          "name": "",
          "type": "uint256"
        },
        {
          "internalType": "uint256",
          "name": "",
          "type": "uint256"
        }
      ],
      "stateMutability": "view",
      "type": "function"
    },
    {
      "inputs": [
        {
          "internalType": "address",
          "name": "_owner",
          "type": "address"
        },
        {
          "internalType": "address",
          "name": "_spender",
          "type": "address"
        },
        {
          "internalType": "uint256",
          "name": "_amount",
          "type": "uint256"
        }
      ],
      "name": "burn",
      "outputs": [],
      "stateMutability": "nonpayable",
      "type": "function"
    },
    {
      "inputs": [],
      "name": "decimals",
      "outputs": [
        {
          "internalType": "uint8",
          "name": "",
          "type": "uint8"
        }
      ],
      "stateMutability": "view",
      "type": "function"
    },
    {
      "inputs": [
        {
          "internalType": "address",
          "name": "_owner",
          "type": "address"
        },
        {
          "internalType": "address",
          "name": "_spender",
          "type": "address"
        },
        {
          "internalType": "uint256",
          "name": "_amount",
          "type": "uint256"
        }
      ],
      "name": "forwardApprove",
      "outputs": [],
      "stateMutability": "nonpayable",
      "type": "function"
    },
    {
      "inputs": [
        {
          "internalType": "address",
          "name": "_owner",
          "type": "address"
        },
        {
          "internalType": "address",
          "name": "_recipient",
          "type": "address"
        },
        {
          "internalType": "uint256",
          "name": "_amount",
          "type": "uint256"
        }
      ],
      "name": "forwardTransfer",
      "outputs": [],
      "stateMutability": "nonpayable",
      "type": "function"
    },
    {
      "inputs": [
        {
          "internalType": "address",
          "name": "_spender",
          "type": "address"
        },
        {
          "internalType": "address",
          "name": "_from",
          "type": "address"
        },
        {
          "internalType": "address",
          "name": "_to",
          "type": "address"
        },
        {
          "internalType": "uint256",
          "name": "_amount",
          "type": "uint256"
        }
      ],
      "name": "forwardTransferFrom",
      "outputs": [],
      "stateMutability": "nonpayable",
      "type": "function"
    },
    {
      "inputs": [],
      "name": "hookReceiver",
      "outputs": [
        {
          "internalType": "address",
          "name": "",
          "type": "address"
        }
      ],
      "stateMutability": "view",
      "type": "function"
    },
    {
      "inputs": [],
      "name": "hookSetup",
      "outputs": [
        {
          "components": [
            {
              "internalType": "address",
              "name": "hookReceiver",
              "type": "address"
            },
            {
              "internalType": "uint24",
              "name": "hooksBefore",
              "type": "uint24"
            },
            {
              "internalType": "uint24",
              "name": "hooksAfter",
              "type": "uint24"
            },
            {
              "internalType": "uint24",
              "name": "tokenType",
              "type": "uint24"
            }
          ],
          "internalType": "struct IShareToken.HookSetup",
          "name": "",
          "type": "tuple"
        }
      ],
      "stateMutability": "view",
      "type": "function"
    },
    {
      "inputs": [
        {
          "internalType": "contract ISilo",
          "name": "_silo",
          "type": "address"
        }
      ],
      "name": "initialize",
      "outputs": [],
      "stateMutability": "nonpayable",
      "type": "function"
    },
    {
      "inputs": [
        {
          "internalType": "address",
          "name": "_owner",
          "type": "address"
        },
        {
          "internalType": "address",
          "name": "",
          "type": "address"
        },
        {
          "internalType": "uint256",
          "name": "_amount",
          "type": "uint256"
        }
      ],
      "name": "mint",
      "outputs": [],
      "stateMutability": "nonpayable",
      "type": "function"
    },
    {
      "inputs": [],
      "name": "name",
      "outputs": [
        {
          "internalType": "string",
          "name": "",
          "type": "string"
        }
      ],
      "stateMutability": "view",
      "type": "function"
    },
    {
      "inputs": [],
      "name": "silo",
      "outputs": [
        {
          "internalType": "contract ISilo",
          "name": "",
          "type": "address"
        }
      ],
      "stateMutability": "view",
      "type": "function"
    },
    {
      "inputs": [],
      "name": "siloConfig",
      "outputs": [
        {
          "internalType": "contract ISiloConfig",
          "name": "",
          "type": "address"
        }
      ],
      "stateMutability": "view",
      "type": "function"
    },
    {
      "inputs": [],
      "name": "symbol",
      "outputs": [
        {
          "internalType": "string",
          "name": "",
          "type": "string"
        }
      ],
      "stateMutability": "view",
      "type": "function"
    },
    {
      "inputs": [
        {
          "internalType": "address",
          "name": "_hookReceiver",
          "type": "address"
        },
        {
          "internalType": "uint24",
          "name": "_hooksBefore",
          "type": "uint24"
        },
        {
          "internalType": "uint24",
          "name": "_hooksAfter",
          "type": "uint24"
        },
        {
          "internalType": "uint24",
          "name": "_tokenType",
          "type": "uint24"
        }
      ],
      "name": "synchronizeHooks",
      "outputs": [],
      "stateMutability": "nonpayable",
      "type": "function"
    },
    {
      "inputs": [],
      "name": "totalSupply",
      "outputs": [
        {
          "internalType": "uint256",
          "name": "",
          "type": "uint256"
        }
      ],
      "stateMutability": "view",
      "type": "function"
    },
    {
      "inputs": [
        {
          "internalType": "address",
          "name": "_to",
          "type": "address"
        },
        {
          "internalType": "uint256",
          "name": "_amount",
          "type": "uint256"
        }
      ],
      "name": "transfer",
      "outputs": [
        {
          "internalType": "bool",
          "name": "result",
          "type": "bool"
        }
      ],
      "stateMutability": "nonpayable",
      "type": "function"
    },
    {
      "inputs": [
        {
          "internalType": "address",
          "name": "_from",
          "type": "address"
        },
        {
          "internalType": "address",
          "name": "_to",
          "type": "address"
        },
        {
          "internalType": "uint256",
          "name": "_amount",
          "type": "uint256"
        }
      ],
      "name": "transferFrom",
      "outputs": [
        {
          "internalType": "bool",
          "name": "result",
          "type": "bool"
        }
      ],
      "stateMutability": "nonpayable",
      "type": "function"
    },
    {
      "anonymous": false,
      "inputs": [
        {
          "indexed": true,
          "internalType": "address",
          "name": "owner",
          "type": "address"
        },
        {
          "indexed": true,
          "internalType": "address",
          "name": "spender",
          "type": "address"
        },
        {
          "indexed": false,
          "internalType": "uint256",
          "name": "value",
          "type": "uint256"
        }
      ],
      "name": "Approval",
      "type": "event"
    },
    {
      "anonymous": false,
      "inputs": [
        {
          "indexed": false,
          "internalType": "uint64",
          "name": "version",
          "type": "uint64"
        }
      ],
      "name": "Initialized",
      "type": "event"
    },
    {
      "anonymous": false,
      "inputs": [
        {
          "indexed": true,
          "internalType": "address",
          "name": "notificationReceiver",
          "type": "address"
        },
        {
          "indexed": false,
          "internalType": "bool",
          "name": "success",
          "type": "bool"
        }
      ],
      "name": "NotificationSent",
      "type": "event"
    },
    {
      "anonymous": false,
      "inputs": [
        {
          "indexed": true,
          "internalType": "address",
          "name": "from",
          "type": "address"
        },
        {
          "indexed": true,
          "internalType": "address",
          "name": "to",
          "type": "address"
        },
        {
          "indexed": false,
          "internalType": "uint256",
          "name": "value",
          "type": "uint256"
        }
      ],
      "name": "Transfer",
      "type": "event"
    },
    {
      "inputs": [],
      "name": "AmountExceedsAllowance",
      "type": "error"
    },
    {
      "inputs": [
        {
          "internalType": "address",
          "name": "spender",
          "type": "address"
        },
        {
          "internalType": "uint256",
          "name": "allowance",
          "type": "uint256"
        },
        {
          "internalType": "uint256",
          "name": "needed",
          "type": "uint256"
        }
      ],
      "name": "ERC20InsufficientAllowance",
      "type": "error"
    },
    {
      "inputs": [
        {
          "internalType": "address",
          "name": "sender",
          "type": "address"
        },
        {
          "internalType": "uint256",
          "name": "balance",
          "type": "uint256"
        },
        {
          "internalType": "uint256",
          "name": "needed",
          "type": "uint256"
        }
      ],
      "name": "ERC20InsufficientBalance",
      "type": "error"
    },
    {
      "inputs": [
        {
          "internalType": "address",
          "name": "approver",
          "type": "address"
        }
      ],
      "name": "ERC20InvalidApprover",
      "type": "error"
    },
    {
      "inputs": [
        {
          "internalType": "address",
          "name": "receiver",
          "type": "address"
        }
      ],
      "name": "ERC20InvalidReceiver",
      "type": "error"
    },
    {
      "inputs": [
        {
          "internalType": "address",
          "name": "sender",
          "type": "address"
        }
      ],
      "name": "ERC20InvalidSender",
      "type": "error"
    },
    {
      "inputs": [
        {
          "internalType": "address",
          "name": "spender",
          "type": "address"
        }
      ],
      "name": "ERC20InvalidSpender",
      "type": "error"
    },
    {
      "inputs": [],
      "name": "Forbidden",
      "type": "error"
    },
    {
      "inputs": [],
      "name": "InvalidInitialization",
      "type": "error"
    },
    {
      "inputs": [],
      "name": "NotInitializing",
      "type": "error"
    },
    {
      "inputs": [],
      "name": "OnlySilo",
      "type": "error"
    },
    {
      "inputs": [],
      "name": "OnlySiloConfig",
      "type": "error"
    },
    {
      "inputs": [],
      "name": "OwnerIsZero",
      "type": "error"
    },
    {
      "inputs": [],
      "name": "RecipientIsZero",
      "type": "error"
    },
    {
      "inputs": [],
      "name": "RecipientNotSolventAfterTransfer",
      "type": "error"
    },
    {
      "inputs": [],
      "name": "SenderNotSolventAfterTransfer",
      "type": "error"
    },
    {
      "inputs": [],
      "name": "ShareTransferNotAllowed",
      "type": "error"
    },
    {
      "inputs": [],
      "name": "TokenIsNotAContract",
      "type": "error"
    }
  ],
  "bytecode": "0x608060405234801562000010575f80fd5b50604080518082018252600e8082526d29b4b637a9b430b932aa37b5b2b760911b60208084018290528451808601909552918452908301529060036200005783826200011f565b5060046200006682826200011f565b5050600580546001600160a01b0319163017905550620001eb565b634e487b7160e01b5f52604160045260245ffd5b600181811c90821680620000aa57607f821691505b602082108103620000c957634e487b7160e01b5f52602260045260245ffd5b50919050565b601f8211156200011a57805f5260205f20601f840160051c81016020851015620000f65750805b601f840160051c820191505b8181101562000117575f815560010162000102565b50505b505050565b81516001600160401b038111156200013b576200013b62000081565b62000153816200014c845462000095565b84620000cf565b602080601f83116001811462000189575f8415620001715750858301515b5f19600386901b1c1916600185901b178555620001e3565b5f85815260208120601f198616915b82811015620001b95788860151825594840194600190910190840162000198565b5085821015620001d757878501515f19600388901b60f8161c191681555b505060018460011b0185555b505050505050565b611ed980620001f95f395ff3fe608060405234801561000f575f80fd5b5060043610610132575f3560e01c806395d89b41116100b4578063c6c3bbe611610079578063c6c3bbe61461033c578063d714fd191461034f578063dce5c2db14610362578063dd62ed3e146103a3578063eb3beb29146103db578063f6b911bc146103ee575f80fd5b806395d89b41146102e857806397ede0ee146102f0578063a9059cbb14610303578063c37d11c214610316578063c4d66de814610329575f80fd5b806323b872dd116100fa57806323b872dd1461025b578063313ce5671461026e5780633947d87e1461028857806370a082311461029b5780638fea8062146102c3575f80fd5b806306fdde0314610136578063095ea7b3146101545780630ed4fe31146101775780631339c6491461023457806318160ddd14610249575b5f80fd5b61013e610401565b60405161014b9190611818565b60405180910390f35b61016761016236600461183e565b610615565b604051901515815260200161014b565b6101eb604080516080810182525f80825260208201819052918101829052606081019190915250604080516080810182526007546001600160a01b038116825262ffffff600160a01b820481166020840152600160b81b8204811693830193909352600160d01b9004909116606082015290565b60405161014b919081516001600160a01b0316815260208083015162ffffff90811691830191909152604080840151821690830152606092830151169181019190915260800190565b610247610242366004611868565b61062e565b005b6002545b60405190815260200161014b565b610167610269366004611868565b610669565b6102766106d8565b60405160ff909116815260200161014b565b6102476102963660046118a6565b61075f565b61024d6102a93660046118f4565b6001600160a01b03165f9081526020819052604090205490565b6007546001600160a01b03165b6040516001600160a01b03909116815260200161014b565b61013e6107a6565b6102476102fe366004611926565b61094c565b61016761031136600461183e565b6109d9565b610247610324366004611868565b610a46565b6102476103373660046118f4565b610a7c565b61024761034a366004611868565b610b8a565b6006546102d0906001600160a01b031681565b61038e6103703660046118f4565b6001600160a01b03165f908152602081905260409020546002549091565b6040805192835260208301919091520161014b565b61024d6103b1366004611979565b6001600160a01b039182165f90815260016020908152604080832093909416825291909152205490565b6005546102d0906001600160a01b031681565b6102476103fc366004611868565b610bbf565b60065460055460405163e48a5f7b60e01b81526001600160a01b0391821660048201526060925f92169063e48a5f7b9060240161024060405180830381865afa158015610450573d5f803e3d5ffd5b505050506040513d601f19601f820116820180604052508101906104749190611b35565b90505f6104f360065f9054906101000a90046001600160a01b03166001600160a01b031663189e17e46040518163ffffffff1660e01b8152600401602060405180830381865afa1580156104ca573d5f803e3d5ffd5b505050506040513d601f19601f820116820180604052508101906104ee9190611b50565b610c18565b60408051602080820183525f8252825180840190935260088352670811195c1bdcda5d60c21b9083015260a0850151929350916001600160a01b03163003610564576040518060400160405280600f81526020016e02737b716b137b93937bbb0b136329608d1b81525091506105d5565b60c08401516001600160a01b031630036105a3576040518060400160405280600b81526020016a02137b93937bbb0b13632960ad1b81525091506105d5565b60e08401516001600160a01b031630036105d55750604080518082019091526005815264081119589d60da1b60208201525b5f6105e38560800151610ca8565b9050828183866040516020016105fc9493929190611b67565b6040516020818303038152906040529550505050505090565b5f33610622818585610d4d565b60019150505b92915050565b6005546001600160a01b03163314610659576040516310528c6d60e11b815260040160405180910390fd5b610664838383610d5a565b505050565b5f80610673610dbc565b9050610680858585610e2c565b9150806001600160a01b0316637d9996286040518163ffffffff1660e01b81526004015f604051808303815f87803b1580156106ba575f80fd5b505af11580156106cc573d5f803e3d5ffd5b50505050509392505050565b60065460055460405163e48a5f7b60e01b81526001600160a01b0391821660048201525f928392169063e48a5f7b9060240161024060405180830381865afa158015610726573d5f803e3d5ffd5b505050506040513d601f19601f8201168201806040525081019061074a9190611b35565b90506107598160800151610e4f565b91505090565b6005546001600160a01b0316331461078a576040516310528c6d60e11b815260040160405180910390fd5b610795838583610eba565b6107a0838383610d5a565b50505050565b60065460055460405163e48a5f7b60e01b81526001600160a01b0391821660048201526060925f92169063e48a5f7b9060240161024060405180830381865afa1580156107f5573d5f803e3d5ffd5b505050506040513d601f19601f820116820180604052508101906108199190611b35565b90505f61086f60065f9054906101000a90046001600160a01b03166001600160a01b031663189e17e46040518163ffffffff1660e01b8152600401602060405180830381865afa1580156104ca573d5f803e3d5ffd5b905060608260a001516001600160a01b0316306001600160a01b0316036108af5750604080518082019091526002815261373160f11b602082015261090f565b60c08301516001600160a01b031630036108e157506040805180820190915260018152603160f91b602082015261090f565b60e08301516001600160a01b0316300361090f57506040805180820190915260018152601960fa1b60208201525b5f61091d8460800151610ca8565b905081818460405160200161093493929190611bf4565b60405160208183030381529060405294505050505090565b6005546001600160a01b03163314610977576040516310528c6d60e11b815260040160405180910390fd5b600780546001600160a01b03959095166001600160b81b031990951694909417600160a01b62ffffff948516021765ffffffffffff60b81b1916600160b81b9284169290920262ffffff60d01b191691909117600160d01b9190921602179055565b5f806109e3610dbc565b90506109ef8484610f2f565b9150806001600160a01b0316637d9996286040518163ffffffff1660e01b81526004015f604051808303815f87803b158015610a29575f80fd5b505af1158015610a3b573d5f803e3d5ffd5b505050505092915050565b6005546001600160a01b03163314610a71576040516310528c6d60e11b815260040160405180910390fd5b610664838383610d4d565b7ff0c57e16840df040f15088dc2f81fe391c3923bec73e23a9662efc9c229c6a008054600160401b810460ff16159067ffffffffffffffff165f81158015610ac15750825b90505f8267ffffffffffffffff166001148015610add5750303b155b905081158015610aeb575080155b15610b095760405163f92ee8a960e01b815260040160405180910390fd5b845467ffffffffffffffff191660011785558315610b3357845460ff60401b1916600160401b1785555b610b3c86610f3c565b8315610b8257845460ff60401b19168555604051600181527fc7f505b2f371ae2175ee4913f4499e1f2633a7b5936321eed1cdaeb6115181d29060200160405180910390a15b505050505050565b6005546001600160a01b03163314610bb5576040516310528c6d60e11b815260040160405180910390fd5b6106648382610fda565b6005546001600160a01b03163314610bea576040516310528c6d60e11b815260040160405180910390fd5b816001600160a01b0316836001600160a01b031614610c0e57610c0e838383610eba565b6106648382611012565b60605f610c2483611046565b60010190505f8167ffffffffffffffff811115610c4357610c436119b0565b6040519080825280601f01601f191660200182016040528015610c6d576020820181803683370190505b5090508181016020015b5f19016f181899199a1a9b1b9c1cb0b131b232b360811b600a86061a8153600a8504945084610c7757509392505050565b6040805160048152602481019091526020810180516001600160e01b03166395d89b4160e01b1790526060905f908190610ce390859061111d565b91509150811580610cf357508051155b15610d185750506040805180820190915260018152603f60f81b602082015292915050565b6020815103610d3257610d2a816111d3565b949350505050565b80806020019051810190610d2a9190611c43565b5050919050565b6106648383836001611251565b6001600160a01b038316610d8857604051634b637e8f60e11b81525f60048201526024015b60405180910390fd5b6001600160a01b038216610db15760405163ec442f0560e01b81525f6004820152602401610d7f565b610664838383611323565b600654600754604051632132b46560e11b8152600160d01b90910462ffffff166140001760048201526001600160a01b0390911690819063426568ca906024015f604051808303815f87803b158015610e13575f80fd5b505af1158015610e25573d5f803e3d5ffd5b5050505090565b5f33610e39858285610eba565b610e44858585610d5a565b506001949350505050565b6040805160048152602481019091526020810180516001600160e01b031663313ce56760e01b1790525f9081908190610e8990859061111d565b9150915081610e9b57505f9392505050565b80806020019051810190610eaf9190611ceb565b60ff16949350505050565b6001600160a01b038381165f908152600160209081526040808320938616835292905220545f1981146107a05781811015610f2157604051637dc7a0d960e11b81526001600160a01b03841660048201526024810182905260448101839052606401610d7f565b6107a084848484035f611251565b5f33610622818585610d5a565b600580546001600160a01b0319166001600160a01b038316908117909155604080516379502c5560e01b815290516379502c55916004808201926020929091908290030181865afa158015610f93573d5f803e3d5ffd5b505050506040513d601f19601f82011682018060405250810190610fb79190611d0b565b600680546001600160a01b0319166001600160a01b039290921691909117905550565b6001600160a01b0382166110035760405163ec442f0560e01b81525f6004820152602401610d7f565b61100e5f8383611323565b5050565b6001600160a01b03821661103b57604051634b637e8f60e11b81525f6004820152602401610d7f565b61100e825f83611323565b5f8072184f03e93ff9f4daa797ed6e38ed64bf6a1f0160401b83106110845772184f03e93ff9f4daa797ed6e38ed64bf6a1f0160401b830492506040015b6d04ee2d6d415b85acef810000000083106110b0576d04ee2d6d415b85acef8100000000830492506020015b662386f26fc1000083106110ce57662386f26fc10000830492506010015b6305f5e10083106110e6576305f5e100830492506008015b61271083106110fa57612710830492506004015b6064831061110c576064830492506002015b600a83106106285760010192915050565b5f60606001600160a01b0384163b611148576040516373d39f9d60e01b815260040160405180910390fd5b5f80856001600160a01b0316856040516111629190611d26565b5f60405180830381855afa9150503d805f811461119a576040519150601f19603f3d011682016040523d82523d5f602084013e61119f565b606091505b5091509150816111c4575f60405180602001604052805f8152509350935050506111cc565b600193509150505b9250929050565b80516060905f5b81811015610d46578381815181106111f4576111f4611d41565b01602001516001600160f81b03191615611249578284828151811061121b5761121b611d41565b602001015160f81c60f81b604051602001611237929190611d55565b60405160208183030381529060405292505b6001016111da565b6001600160a01b03841661127a5760405163e602df0560e01b81525f6004820152602401610d7f565b6001600160a01b0383166112a357604051634a1406b160e11b81525f6004820152602401610d7f565b6001600160a01b038085165f90815260016020908152604080832093871683529290522082905580156107a057826001600160a01b0316846001600160a01b03167f8c5be1e5ebec7d5bd14f71427d1e84f3dd0314c0f7b2291e5b200ac8c7c3b9258460405161131591815260200190565b60405180910390a350505050565b61132e838383611339565b61066483838361145f565b6001600160a01b038316611363578060025f8282546113589190611d83565b909155506113d39050565b6001600160a01b0383165f90815260208190526040902054818110156113b55760405163391434e360e21b81526001600160a01b03851660048201526024810182905260448101839052606401610d7f565b6001600160a01b0384165f9081526020819052604090209082900390555b6001600160a01b0382166113ef5760028054829003905561140d565b6001600160a01b0382165f9081526020819052604090208054820190555b816001600160a01b0316836001600160a01b03167fddf252ad1be2c89b69c2b068fc378daa952ba7f163c4a11628f55a4df523b3ef8360405161145291815260200190565b60405180910390a3505050565b611469838361150b565b156115005761147783611533565b6005546040516338b51ce160e01b81526001600160a01b038581166004830152909116906338b51ce190602401602060405180830381865afa1580156114bf573d5f803e3d5ffd5b505050506040513d601f19601f820116820180604052508101906114e39190611da2565b61150057604051633c3b8e1b60e21b815260040160405180910390fd5b6106648383836115cb565b5f6001600160a01b0383161580159061152c57506001600160a01b03821615155b9392505050565b600654600554604051633b691b9f60e01b81526001600160a01b03918216600482015283821660248201525f604482018190529283921690633b691b9f9060640161050060405180830381865afa158015611590573d5f803e3d5ffd5b505050506040513d601f19601f820116820180604052508101906115b49190611dbb565b50915091506115c282611742565b61066481611742565b604080516080810182526007546001600160a01b03811680835262ffffff600160a01b830481166020850152600160b81b8304811694840194909452600160d01b9091049092166060820152906116225750505050565b6060810151604082015161400062ffffff9283161791908216168114611649575050505050565b81516005546001600160a01b039182169163aef28235911683888888611683836001600160a01b03165f9081526020819052604090205490565b6001600160a01b038c165f908152602081905260409020546002546040516bffffffffffffffffffffffff19606097881b811660208301529590961b909416603486015260488501929092526068840152608883015260a882015260c8016040516020818303038152906040526040518463ffffffff1660e01b815260040161170e93929190611e74565b5f604051808303815f87803b158015611725575f80fd5b505af1158015611737573d5f803e3d5ffd5b505050505050505050565b806102200151801561176157506101008101516001600160a01b031615155b156117c8576101008101516080820151604051637cfd30cd60e11b81526001600160a01b03918216600482015291169063f9fa619a906024015f604051808303815f87803b1580156117b1575f80fd5b505af11580156117c3573d5f803e3d5ffd5b505050505b50565b5f5b838110156117e55781810151838201526020016117cd565b50505f910152565b5f81518084526118048160208601602086016117cb565b601f01601f19169290920160200192915050565b602081525f61152c60208301846117ed565b6001600160a01b03811681146117c8575f80fd5b5f806040838503121561184f575f80fd5b823561185a8161182a565b946020939093013593505050565b5f805f6060848603121561187a575f80fd5b83356118858161182a565b925060208401356118958161182a565b929592945050506040919091013590565b5f805f80608085870312156118b9575f80fd5b84356118c48161182a565b935060208501356118d48161182a565b925060408501356118e48161182a565b9396929550929360600135925050565b5f60208284031215611904575f80fd5b813561152c8161182a565b803562ffffff81168114611921575f80fd5b919050565b5f805f8060808587031215611939575f80fd5b84356119448161182a565b93506119526020860161190f565b92506119606040860161190f565b915061196e6060860161190f565b905092959194509250565b5f806040838503121561198a575f80fd5b82356119958161182a565b915060208301356119a58161182a565b809150509250929050565b634e487b7160e01b5f52604160045260245ffd5b604051610240810167ffffffffffffffff811182821017156119e8576119e86119b0565b60405290565b80516119218161182a565b80518015158114611921575f80fd5b5f6102408284031215611a19575f80fd5b611a216119c4565b90508151815260208201516020820152611a3d604083016119ee565b6040820152611a4e606083016119ee565b6060820152611a5f608083016119ee565b6080820152611a7060a083016119ee565b60a0820152611a8160c083016119ee565b60c0820152611a9260e083016119ee565b60e0820152610100611aa58184016119ee565b90820152610120611ab78382016119ee565b90820152610140611ac98382016119ee565b90820152610160828101519082015261018080830151908201526101a080830151908201526101c080830151908201526101e0611b078184016119ee565b90820152610200611b198382016119ee565b90820152610220611b2b8382016119f9565b9082015292915050565b5f6102408284031215611b46575f80fd5b61152c8383611a08565b5f60208284031215611b60575f80fd5b5051919050565b6c029b4b637902334b730b731b29609d1b81525f8551611b8e81600d850160208a016117cb565b855190830190611ba581600d840160208a016117cb565b8551910190611bbb81600d8401602089016117cb565b690161029b4b637a4b21d160b51b600d92909101918201528351611be68160178401602088016117cb565b016017019695505050505050565b5f8451611c058184602089016117cb565b845190830190611c198183602089016117cb565b602d60f81b91019081528351611c368160018401602088016117cb565b0160010195945050505050565b5f60208284031215611c53575f80fd5b815167ffffffffffffffff80821115611c6a575f80fd5b818401915084601f830112611c7d575f80fd5b815181811115611c8f57611c8f6119b0565b604051601f8201601f19908116603f01168101908382118183101715611cb757611cb76119b0565b81604052828152876020848701011115611ccf575f80fd5b611ce08360208301602088016117cb565b979650505050505050565b5f60208284031215611cfb575f80fd5b815160ff8116811461152c575f80fd5b5f60208284031215611d1b575f80fd5b815161152c8161182a565b5f8251611d378184602087016117cb565b9190910192915050565b634e487b7160e01b5f52603260045260245ffd5b5f8351611d668184602088016117cb565b6001600160f81b0319939093169190920190815260010192915050565b8082018082111561062857634e487b7160e01b5f52601160045260245ffd5b5f60208284031215611db2575f80fd5b61152c826119f9565b5f805f838503610500811215611dcf575f80fd5b611dd98686611a08565b9350611de9866102408701611a08565b9250608061047f1982011215611dfd575f80fd5b506040516080810181811067ffffffffffffffff82111715611e2157611e216119b0565b604052611e3161048086016119f9565b8152611e406104a086016119f9565b6020820152611e526104c086016119f9565b6040820152611e646104e086016119f9565b6060820152809150509250925092565b60018060a01b0384168152826020820152606060408201525f611e9a60608301846117ed565b9594505050505056fea264697066735822122060f38331d87a14d29475c946c44d7714692afddaa707de564be5555a46543e8064736f6c63430008180033",
  "language": "Solidity",
  "compiler": "0.8.24+commit.e11b9ed9"
}