{
  "address": "0x196D312fd81412B6443620Ca81B41103b4E123FD",
  "abi": [
    {
      "inputs": [],
      "name": "AmountExceedsAllowance",
      "type": "error"
    },
    {
      "inputs": [],
      "name": "Forbidden",
      "type": "error"
    },
    {
      "inputs": [],
      "name": "OnlySilo",
      "type": "error"
    },
    {
      "inputs": [],
      "name": "OwnerIsZero",
      "type": "error"
    },
    {
      "inputs": [],
      "name": "RecipientIsZero",
      "type": "error"
    },
    {
      "inputs": [],
      "name": "RecipientNotSolventAfterTransfer",
      "type": "error"
    },
    {
      "inputs": [],
      "name": "ShareTransferNotAllowed",
      "type": "error"
    },
    {
      "inputs": [],
      "name": "TokenIsNotAContract",
      "type": "error"
    },
    {
      "anonymous": false,
      "inputs": [
        {
          "indexed": true,
          "internalType": "address",
          "name": "owner",
          "type": "address"
        },
        {
          "indexed": true,
          "internalType": "address",
          "name": "spender",
          "type": "address"
        },
        {
          "indexed": false,
          "internalType": "uint256",
          "name": "value",
          "type": "uint256"
        }
      ],
      "name": "Approval",
      "type": "event"
    },
    {
      "anonymous": false,
      "inputs": [
        {
          "indexed": false,
          "internalType": "uint8",
          "name": "version",
          "type": "uint8"
        }
      ],
      "name": "Initialized",
      "type": "event"
    },
    {
      "anonymous": false,
      "inputs": [
        {
          "indexed": true,
          "internalType": "address",
          "name": "notificationReceiver",
          "type": "address"
        },
        {
          "indexed": false,
          "internalType": "bool",
          "name": "success",
          "type": "bool"
        }
      ],
      "name": "NotificationSent",
      "type": "event"
    },
    {
      "anonymous": false,
      "inputs": [
        {
          "indexed": true,
          "internalType": "address",
          "name": "_owner",
          "type": "address"
        },
        {
          "indexed": true,
          "internalType": "address",
          "name": "_receiver",
          "type": "address"
        },
        {
          "indexed": false,
          "internalType": "uint256",
          "name": "_value",
          "type": "uint256"
        }
      ],
      "name": "ReceiveApproval",
      "type": "event"
    },
    {
      "anonymous": false,
      "inputs": [
        {
          "indexed": true,
          "internalType": "address",
          "name": "from",
          "type": "address"
        },
        {
          "indexed": true,
          "internalType": "address",
          "name": "to",
          "type": "address"
        },
        {
          "indexed": false,
          "internalType": "uint256",
          "name": "value",
          "type": "uint256"
        }
      ],
      "name": "Transfer",
      "type": "event"
    },
    {
      "inputs": [
        {
          "internalType": "address",
          "name": "owner",
          "type": "address"
        },
        {
          "internalType": "address",
          "name": "spender",
          "type": "address"
        }
      ],
      "name": "allowance",
      "outputs": [
        {
          "internalType": "uint256",
          "name": "",
          "type": "uint256"
        }
      ],
      "stateMutability": "view",
      "type": "function"
    },
    {
      "inputs": [
        {
          "internalType": "address",
          "name": "spender",
          "type": "address"
        },
        {
          "internalType": "uint256",
          "name": "amount",
          "type": "uint256"
        }
      ],
      "name": "approve",
      "outputs": [
        {
          "internalType": "bool",
          "name": "",
          "type": "bool"
        }
      ],
      "stateMutability": "nonpayable",
      "type": "function"
    },
    {
      "inputs": [
        {
          "internalType": "address",
          "name": "account",
          "type": "address"
        }
      ],
      "name": "balanceOf",
      "outputs": [
        {
          "internalType": "uint256",
          "name": "",
          "type": "uint256"
        }
      ],
      "stateMutability": "view",
      "type": "function"
    },
    {
      "inputs": [
        {
          "internalType": "address",
          "name": "_account",
          "type": "address"
        }
      ],
      "name": "balanceOfAndTotalSupply",
      "outputs": [
        {
          "internalType": "uint256",
          "name": "",
          "type": "uint256"
        },
        {
          "internalType": "uint256",
          "name": "",
          "type": "uint256"
        }
      ],
      "stateMutability": "view",
      "type": "function"
    },
    {
      "inputs": [
        {
          "internalType": "address",
          "name": "_owner",
          "type": "address"
        },
        {
          "internalType": "address",
          "name": "",
          "type": "address"
        },
        {
          "internalType": "uint256",
          "name": "_amount",
          "type": "uint256"
        }
      ],
      "name": "burn",
      "outputs": [],
      "stateMutability": "nonpayable",
      "type": "function"
    },
    {
      "inputs": [],
      "name": "decimals",
      "outputs": [
        {
          "internalType": "uint8",
          "name": "",
          "type": "uint8"
        }
      ],
      "stateMutability": "view",
      "type": "function"
    },
    {
      "inputs": [
        {
          "internalType": "address",
          "name": "spender",
          "type": "address"
        },
        {
          "internalType": "uint256",
          "name": "subtractedValue",
          "type": "uint256"
        }
      ],
      "name": "decreaseAllowance",
      "outputs": [
        {
          "internalType": "bool",
          "name": "",
          "type": "bool"
        }
      ],
      "stateMutability": "nonpayable",
      "type": "function"
    },
    {
      "inputs": [
        {
          "internalType": "address",
          "name": "_owner",
          "type": "address"
        },
        {
          "internalType": "uint256",
          "name": "_subtractedValue",
          "type": "uint256"
        }
      ],
      "name": "decreaseReceiveAllowance",
      "outputs": [],
      "stateMutability": "nonpayable",
      "type": "function"
    },
    {
      "inputs": [
        {
          "internalType": "address",
          "name": "_owner",
          "type": "address"
        },
        {
          "internalType": "address",
          "name": "_spender",
          "type": "address"
        },
        {
          "internalType": "uint256",
          "name": "_amount",
          "type": "uint256"
        }
      ],
      "name": "forwardApprove",
      "outputs": [],
      "stateMutability": "nonpayable",
      "type": "function"
    },
    {
      "inputs": [
        {
          "internalType": "address",
          "name": "_owner",
          "type": "address"
        },
        {
          "internalType": "address",
          "name": "_recipient",
          "type": "address"
        },
        {
          "internalType": "uint256",
          "name": "_amount",
          "type": "uint256"
        }
      ],
      "name": "forwardTransfer",
      "outputs": [],
      "stateMutability": "nonpayable",
      "type": "function"
    },
    {
      "inputs": [
        {
          "internalType": "address",
          "name": "_spender",
          "type": "address"
        },
        {
          "internalType": "address",
          "name": "_from",
          "type": "address"
        },
        {
          "internalType": "address",
          "name": "_to",
          "type": "address"
        },
        {
          "internalType": "uint256",
          "name": "_amount",
          "type": "uint256"
        }
      ],
      "name": "forwardTransferFrom",
      "outputs": [],
      "stateMutability": "nonpayable",
      "type": "function"
    },
    {
      "inputs": [],
      "name": "hookReceiver",
      "outputs": [
        {
          "internalType": "address",
          "name": "",
          "type": "address"
        }
      ],
      "stateMutability": "view",
      "type": "function"
    },
    {
      "inputs": [
        {
          "internalType": "address",
          "name": "spender",
          "type": "address"
        },
        {
          "internalType": "uint256",
          "name": "addedValue",
          "type": "uint256"
        }
      ],
      "name": "increaseAllowance",
      "outputs": [
        {
          "internalType": "bool",
          "name": "",
          "type": "bool"
        }
      ],
      "stateMutability": "nonpayable",
      "type": "function"
    },
    {
      "inputs": [
        {
          "internalType": "address",
          "name": "_owner",
          "type": "address"
        },
        {
          "internalType": "uint256",
          "name": "_addedValue",
          "type": "uint256"
        }
      ],
      "name": "increaseReceiveAllowance",
      "outputs": [],
      "stateMutability": "nonpayable",
      "type": "function"
    },
    {
      "inputs": [
        {
          "internalType": "contract ISilo",
          "name": "_silo",
          "type": "address"
        },
        {
          "internalType": "address",
          "name": "_hookReceiver",
          "type": "address"
        }
      ],
      "name": "initialize",
      "outputs": [],
      "stateMutability": "nonpayable",
      "type": "function"
    },
    {
      "inputs": [
        {
          "internalType": "address",
          "name": "_owner",
          "type": "address"
        },
        {
          "internalType": "address",
          "name": "_spender",
          "type": "address"
        },
        {
          "internalType": "uint256",
          "name": "_amount",
          "type": "uint256"
        }
      ],
      "name": "mint",
      "outputs": [],
      "stateMutability": "nonpayable",
      "type": "function"
    },
    {
      "inputs": [],
      "name": "name",
      "outputs": [
        {
          "internalType": "string",
          "name": "",
          "type": "string"
        }
      ],
      "stateMutability": "view",
      "type": "function"
    },
    {
      "inputs": [
        {
          "internalType": "address",
          "name": "_owner",
          "type": "address"
        },
        {
          "internalType": "address",
          "name": "_recipient",
          "type": "address"
        }
      ],
      "name": "receiveAllowance",
      "outputs": [
        {
          "internalType": "uint256",
          "name": "",
          "type": "uint256"
        }
      ],
      "stateMutability": "view",
      "type": "function"
    },
    {
      "inputs": [
        {
          "internalType": "address",
          "name": "owner",
          "type": "address"
        },
        {
          "internalType": "uint256",
          "name": "_amount",
          "type": "uint256"
        }
      ],
      "name": "setReceiveApproval",
      "outputs": [],
      "stateMutability": "nonpayable",
      "type": "function"
    },
    {
      "inputs": [],
      "name": "silo",
      "outputs": [
        {
          "internalType": "contract ISilo",
          "name": "",
          "type": "address"
        }
      ],
      "stateMutability": "view",
      "type": "function"
    },
    {
      "inputs": [],
      "name": "symbol",
      "outputs": [
        {
          "internalType": "string",
          "name": "",
          "type": "string"
        }
      ],
      "stateMutability": "view",
      "type": "function"
    },
    {
      "inputs": [],
      "name": "totalSupply",
      "outputs": [
        {
          "internalType": "uint256",
          "name": "",
          "type": "uint256"
        }
      ],
      "stateMutability": "view",
      "type": "function"
    },
    {
      "inputs": [
        {
          "internalType": "address",
          "name": "to",
          "type": "address"
        },
        {
          "internalType": "uint256",
          "name": "amount",
          "type": "uint256"
        }
      ],
      "name": "transfer",
      "outputs": [
        {
          "internalType": "bool",
          "name": "",
          "type": "bool"
        }
      ],
      "stateMutability": "nonpayable",
      "type": "function"
    },
    {
      "inputs": [
        {
          "internalType": "address",
          "name": "from",
          "type": "address"
        },
        {
          "internalType": "address",
          "name": "to",
          "type": "address"
        },
        {
          "internalType": "uint256",
          "name": "amount",
          "type": "uint256"
        }
      ],
      "name": "transferFrom",
      "outputs": [
        {
          "internalType": "bool",
          "name": "",
          "type": "bool"
        }
      ],
      "stateMutability": "nonpayable",
      "type": "function"
    }
  ],
  "bytecode": "0x608060405234801561001057600080fd5b5061001961001e565b6100dd565b600054610100900460ff161561008a5760405162461bcd60e51b815260206004820152602760248201527f496e697469616c697a61626c653a20636f6e747261637420697320696e697469604482015266616c697a696e6760c81b606482015260840160405180910390fd5b60005460ff908116146100db576000805460ff191660ff9081179091556040519081527f7f26b83ff96e1f2b6a682f133852f6798a09c465da95921460cefb38474024989060200160405180910390a15b565b61205c80620000ed6000396000f3fe608060405234801561001057600080fd5b50600436106101585760003560e01c806375d68016116100c3578063c37d11c21161007c578063c37d11c21461031f578063c6c3bbe614610332578063dce5c2db14610345578063dd62ed3e14610387578063eb3beb291461039a578063f6b911bc146103ad57600080fd5b806375d68016146102a057806380d4336e146102b35780638fea8062146102c657806395d89b41146102f1578063a457c2d7146102f9578063a9059cbb1461030c57600080fd5b806334deadf21161011557806334deadf2146101f25780633947d87e146102055780633950935114610218578063485cc9551461022b57806362221ca11461023e57806370a082311461027757600080fd5b806306fdde031461015d578063095ea7b31461017b5780631339c6491461019e57806318160ddd146101b357806323b872dd146101c5578063313ce567146101d8575b600080fd5b6101656103c0565b6040516101729190611ac1565b60405180910390f35b61018e610189366004611b0c565b610643565b6040519015158152602001610172565b6101b16101ac366004611b38565b61065d565b005b6035545b604051908152602001610172565b61018e6101d3366004611b38565b610698565b6101e06106bc565b60405160ff9091168152602001610172565b6101b1610200366004611b0c565b6107c1565b6101b1610213366004611b79565b6107d0565b61018e610226366004611b0c565b610817565b6101b1610239366004611bca565b610839565b6101b761024c366004611bca565b6001600160a01b03918216600090815260676020908152604080832093909416825291909152205490565b6101b7610285366004611c03565b6001600160a01b031660009081526033602052604090205490565b6101b16102ae366004611b0c565b610952565b6101b16102c1366004611b0c565b61098d565b6066546102d9906001600160a01b031681565b6040516001600160a01b039091168152602001610172565b6101656109c3565b61018e610307366004611b0c565b610bd7565b61018e61031a366004611b0c565b610c52565b6101b161032d366004611b38565b610c60565b6101b1610340366004611b38565b610c96565b610372610353366004611c03565b6001600160a01b03166000908152603360205260409020546035549091565b60408051928352602083019190915201610172565b6101b7610395366004611bca565b610cef565b6065546102d9906001600160a01b031681565b6101b16103bb366004611b38565b610d1a565b60606000606560009054906101000a90046001600160a01b03166001600160a01b03166379502c556040518163ffffffff1660e01b8152600401602060405180830381865afa158015610417573d6000803e3d6000fd5b505050506040513d601f19601f8201168201806040525081019061043b9190611c20565b60655460405163e48a5f7b60e01b81526001600160a01b0391821660048201529192506000919083169063e48a5f7b9060240161020060405180830381865afa15801561048c573d6000803e3d6000fd5b505050506040513d601f19601f820116820180604052508101906104b09190611c9d565b9050600061051e836001600160a01b031663189e17e46040518163ffffffff1660e01b8152600401602060405180830381865afa1580156104f5573d6000803e3d6000fd5b505050506040513d601f19601f820116820180604052508101906105199190611da7565b610d4f565b604080516020808201835260008252825180840190935260088352670811195c1bdcda5d60c21b9083015260a0850151929350916001600160a01b03163003610590576040518060400160405280600f81526020016e02737b716b137b93937bbb0b136329608d1b8152509150610601565b60c08401516001600160a01b031630036105cf576040518060400160405280600b81526020016a02137b93937bbb0b13632960ad1b8152509150610601565b60e08401516001600160a01b031630036106015750604080518082019091526005815264081119589d60da1b60208201525b60006106108560800151610de2565b9050828183866040516020016106299493929190611dc0565b604051602081830303815290604052965050505050505090565b600033610651818585610e88565b60019150505b92915050565b6065546001600160a01b03163314610688576040516310528c6d60e11b815260040160405180910390fd5b610693838383610fad565b505050565b6000336106a6858285611169565b6106b1858585610fad565b506001949350505050565b600080606560009054906101000a90046001600160a01b03166001600160a01b03166379502c556040518163ffffffff1660e01b8152600401602060405180830381865afa158015610712573d6000803e3d6000fd5b505050506040513d601f19601f820116820180604052508101906107369190611c20565b60655460405163e48a5f7b60e01b81526001600160a01b0391821660048201529192506000919083169063e48a5f7b9060240161020060405180830381865afa158015610787573d6000803e3d6000fd5b505050506040513d601f19601f820116820180604052508101906107ab9190611c9d565b90506107ba81608001516111dd565b9250505090565b6107cc82338361124a565b5050565b6065546001600160a01b031633146107fb576040516310528c6d60e11b815260040160405180910390fd5b610806838583611169565b610811838383610fad565b50505050565b60003361065181858561082a8383610cef565b6108349190611e64565b610e88565b600054610100900460ff16158080156108595750600054600160ff909116105b806108735750303b158015610873575060005460ff166001145b6108db5760405162461bcd60e51b815260206004820152602e60248201527f496e697469616c697a61626c653a20636f6e747261637420697320616c72656160448201526d191e481a5b9a5d1a585b1a5e995960921b60648201526084015b60405180910390fd5b6000805460ff1916600117905580156108fe576000805461ff0019166101001790555b61090883836112f1565b8015610693576000805461ff0019169055604051600181527f7f26b83ff96e1f2b6a682f133852f6798a09c465da95921460cefb38474024989060200160405180910390a1505050565b6001600160a01b038216600090815260676020908152604080832033808552925290912054906106939084906109888585611e64565b61124a565b6001600160a01b038216600090815260676020908152604080832033808552925290912054906106939084906109888585611e77565b60606000606560009054906101000a90046001600160a01b03166001600160a01b03166379502c556040518163ffffffff1660e01b8152600401602060405180830381865afa158015610a1a573d6000803e3d6000fd5b505050506040513d601f19601f82011682018060405250810190610a3e9190611c20565b60655460405163e48a5f7b60e01b81526001600160a01b0391821660048201529192506000919083169063e48a5f7b9060240161020060405180830381865afa158015610a8f573d6000803e3d6000fd5b505050506040513d601f19601f82011682018060405250810190610ab39190611c9d565b90506000610af8836001600160a01b031663189e17e46040518163ffffffff1660e01b8152600401602060405180830381865afa1580156104f5573d6000803e3d6000fd5b905060608260a001516001600160a01b0316306001600160a01b031603610b385750604080518082019091526002815261373160f11b6020820152610b98565b60c08301516001600160a01b03163003610b6a57506040805180820190915260018152603160f91b6020820152610b98565b60e08301516001600160a01b03163003610b9857506040805180820190915260018152601960fa1b60208201525b6000610ba78460800151610de2565b9050818184604051602001610bbe93929190611e8a565b6040516020818303038152906040529550505050505090565b60003381610be58286610cef565b905083811015610c455760405162461bcd60e51b815260206004820152602560248201527f45524332303a2064656372656173656420616c6c6f77616e63652062656c6f77604482015264207a65726f60d81b60648201526084016108d2565b6106b18286868403610e88565b600033610651818585610fad565b6065546001600160a01b03163314610c8b576040516310528c6d60e11b815260040160405180910390fd5b610693838383610e88565b6065546001600160a01b03163314610cc1576040516310528c6d60e11b815260040160405180910390fd5b816001600160a01b0316836001600160a01b031614610ce557610ce5838383611169565b610693838261138a565b6001600160a01b03918216600090815260346020908152604080832093909416825291909152205490565b6065546001600160a01b03163314610d45576040516310528c6d60e11b815260040160405180910390fd5b610693838261145f565b60606000610d5c836115a6565b600101905060008167ffffffffffffffff811115610d7c57610d7c611c3d565b6040519080825280601f01601f191660200182016040528015610da6576020820181803683370190505b5090508181016020015b600019016f181899199a1a9b1b9c1cb0b131b232b360811b600a86061a8153600a8504945084610db057509392505050565b6040805160048152602481019091526020810180516001600160e01b03166395d89b4160e01b1790526060906000908190610e1e90859061167e565b91509150811580610e2e57508051155b15610e535750506040805180820190915260018152603f60f81b602082015292915050565b6020815103610e6d57610e658161173b565b949350505050565b80806020019051810190610e659190611eda565b5050919050565b6001600160a01b038316610eea5760405162461bcd60e51b8152602060048201526024808201527f45524332303a20617070726f76652066726f6d20746865207a65726f206164646044820152637265737360e01b60648201526084016108d2565b6001600160a01b038216610f4b5760405162461bcd60e51b815260206004820152602260248201527f45524332303a20617070726f766520746f20746865207a65726f206164647265604482015261737360f01b60648201526084016108d2565b6001600160a01b0383811660008181526034602090815260408083209487168084529482529182902085905590518481527f8c5be1e5ebec7d5bd14f71427d1e84f3dd0314c0f7b2291e5b200ac8c7c3b92591015b60405180910390a3505050565b6001600160a01b0383166110115760405162461bcd60e51b815260206004820152602560248201527f45524332303a207472616e736665722066726f6d20746865207a65726f206164604482015264647265737360d81b60648201526084016108d2565b6001600160a01b0382166110735760405162461bcd60e51b815260206004820152602360248201527f45524332303a207472616e7366657220746f20746865207a65726f206164647260448201526265737360e81b60648201526084016108d2565b61107e8383836117ba565b6001600160a01b038316600090815260336020526040902054818110156110f65760405162461bcd60e51b815260206004820152602660248201527f45524332303a207472616e7366657220616d6f756e7420657863656564732062604482015265616c616e636560d01b60648201526084016108d2565b6001600160a01b0380851660008181526033602052604080822086860390559286168082529083902080548601905591517fddf252ad1be2c89b69c2b068fc378daa952ba7f163c4a11628f55a4df523b3ef906111569086815260200190565b60405180910390a36108118484846118a8565b60006111758484610cef565b9050600019811461081157818110156111d05760405162461bcd60e51b815260206004820152601d60248201527f45524332303a20696e73756666696369656e7420616c6c6f77616e636500000060448201526064016108d2565b6108118484848403610e88565b6040805160048152602481019091526020810180516001600160e01b031663313ce56760e01b1790526000908190819061121890859061167e565b915091508161122b575060009392505050565b8080602001905181019061123f9190611f87565b60ff16949350505050565b6001600160a01b03831661127157604051634269a05960e01b815260040160405180910390fd5b6001600160a01b0382166112985760405163b05313bb60e01b815260040160405180910390fd5b6001600160a01b0383811660008181526067602090815260408083209487168084529482529182902085905590518481527fa80d0efa8328d29034668db835056d5d5e5876f77ffc7bc09f1e06b2ba18b1219101610fa0565b600054610100900460ff1661135c5760405162461bcd60e51b815260206004820152602b60248201527f496e697469616c697a61626c653a20636f6e7472616374206973206e6f74206960448201526a6e697469616c697a696e6760a81b60648201526084016108d2565b606580546001600160a01b039384166001600160a01b03199182161790915560668054929093169116179055565b6001600160a01b0382166113e05760405162461bcd60e51b815260206004820152601f60248201527f45524332303a206d696e7420746f20746865207a65726f20616464726573730060448201526064016108d2565b6113ec600083836117ba565b80603560008282546113fe9190611e64565b90915550506001600160a01b0382166000818152603360209081526040808320805486019055518481527fddf252ad1be2c89b69c2b068fc378daa952ba7f163c4a11628f55a4df523b3ef910160405180910390a36107cc600083836118a8565b6001600160a01b0382166114bf5760405162461bcd60e51b815260206004820152602160248201527f45524332303a206275726e2066726f6d20746865207a65726f206164647265736044820152607360f81b60648201526084016108d2565b6114cb826000836117ba565b6001600160a01b0382166000908152603360205260409020548181101561153f5760405162461bcd60e51b815260206004820152602260248201527f45524332303a206275726e20616d6f756e7420657863656564732062616c616e604482015261636560f01b60648201526084016108d2565b6001600160a01b03831660008181526033602090815260408083208686039055603580548790039055518581529192917fddf252ad1be2c89b69c2b068fc378daa952ba7f163c4a11628f55a4df523b3ef910160405180910390a3610693836000846118a8565b60008072184f03e93ff9f4daa797ed6e38ed64bf6a1f0160401b83106115e55772184f03e93ff9f4daa797ed6e38ed64bf6a1f0160401b830492506040015b6d04ee2d6d415b85acef81000000008310611611576d04ee2d6d415b85acef8100000000830492506020015b662386f26fc10000831061162f57662386f26fc10000830492506010015b6305f5e1008310611647576305f5e100830492506008015b612710831061165b57612710830492506004015b6064831061166d576064830492506002015b600a83106106575760010192915050565b600060606001600160a01b0384163b6116aa576040516373d39f9d60e01b815260040160405180910390fd5b600080856001600160a01b0316856040516116c59190611faa565b600060405180830381855afa9150503d8060008114611700576040519150601f19603f3d011682016040523d82523d6000602084013e611705565b606091505b50915091508161172c57600060405180602001604052806000815250935093505050611734565b600193509150505b9250929050565b805160609060005b81811015610e815783818151811061175d5761175d611fc6565b01602001516001600160f81b031916156117b2578284828151811061178457611784611fc6565b602001015160f81c60f81b6040516020016117a0929190611fdc565b60405160208183030381529060405292505b600101611743565b6117c48383611952565b1561069357606554604051630e9e2f7d60e21b81526001600160a01b03848116600483015290911690633a78bdf490602401602060405180830381865afa158015611813573d6000803e3d6000fd5b505050506040513d601f19601f82011682018060405250810190611837919061200b565b611854576040516349bb6ced60e11b815260040160405180910390fd5b6001600160a01b038381166000908152606760209081526040808320938616835292905220548181101561189b576040516303814af160e61b815260040160405180910390fd5b610811848484840361124a565b6118b383838361197b565b6118bd8383611952565b801561193457506065546040516338b51ce160e01b81526001600160a01b038481166004830152909116906338b51ce190602401602060405180830381865afa15801561190e573d6000803e3d6000fd5b505050506040513d601f19601f82011682018060405250810190611932919061200b565b155b15610693576040516377b1921f60e11b815260040160405180910390fd5b60006001600160a01b0383161580159061197457506001600160a01b03821615155b9392505050565b6066546001600160a01b031661199057505050565b6066546000906001600160a01b0316846119bf816001600160a01b031660009081526033602052604090205490565b856119df876001600160a01b031660009081526033602052604090205490565b6035546040516001600160a01b0395861660248201526044810194909452939091166064830152608482015260a481019190915260c4810184905260e40160408051601f198184030181529181526020820180516001600160e01b031663bbdc013b60e01b17905251611a529190611faa565b6000604051808303816000865af19150503d8060008114611a8f576040519150601f19603f3d011682016040523d82523d6000602084013e611a94565b606091505b50505050505050565b60005b83811015611ab8578181015183820152602001611aa0565b50506000910152565b6020815260008251806020840152611ae0816040850160208701611a9d565b601f01601f19169190910160400192915050565b6001600160a01b0381168114611b0957600080fd5b50565b60008060408385031215611b1f57600080fd5b8235611b2a81611af4565b946020939093013593505050565b600080600060608486031215611b4d57600080fd5b8335611b5881611af4565b92506020840135611b6881611af4565b929592945050506040919091013590565b60008060008060808587031215611b8f57600080fd5b8435611b9a81611af4565b93506020850135611baa81611af4565b92506040850135611bba81611af4565b9396929550929360600135925050565b60008060408385031215611bdd57600080fd5b8235611be881611af4565b91506020830135611bf881611af4565b809150509250929050565b600060208284031215611c1557600080fd5b813561197481611af4565b600060208284031215611c3257600080fd5b815161197481611af4565b634e487b7160e01b600052604160045260246000fd5b604051610200810167ffffffffffffffff81118282101715611c7757611c77611c3d565b60405290565b8051611c8881611af4565b919050565b80518015158114611c8857600080fd5b60006102008284031215611cb057600080fd5b611cb8611c53565b8251815260208301516020820152611cd260408401611c7d565b6040820152611ce360608401611c7d565b6060820152611cf460808401611c7d565b6080820152611d0560a08401611c7d565b60a0820152611d1660c08401611c7d565b60c0820152611d2760e08401611c7d565b60e0820152610100611d3a818501611c7d565b90820152610120611d4c848201611c7d565b90820152610140611d5e848201611c7d565b90820152610160838101519082015261018080840151908201526101a080840151908201526101c080840151908201526101e0611d9c818501611c8d565b908201529392505050565b600060208284031215611db957600080fd5b5051919050565b6c029b4b637902334b730b731b29609d1b815260008551611de881600d850160208a01611a9d565b855190830190611dff81600d840160208a01611a9d565b8551910190611e1581600d840160208901611a9d565b690161029b4b637a4b21d160b51b600d92909101918201528351611e40816017840160208801611a9d565b016017019695505050505050565b634e487b7160e01b600052601160045260246000fd5b8082018082111561065757610657611e4e565b8181038181111561065757610657611e4e565b60008451611e9c818460208901611a9d565b845190830190611eb0818360208901611a9d565b602d60f81b91019081528351611ecd816001840160208801611a9d565b0160010195945050505050565b600060208284031215611eec57600080fd5b815167ffffffffffffffff80821115611f0457600080fd5b818401915084601f830112611f1857600080fd5b815181811115611f2a57611f2a611c3d565b604051601f8201601f19908116603f01168101908382118183101715611f5257611f52611c3d565b81604052828152876020848701011115611f6b57600080fd5b611f7c836020830160208801611a9d565b979650505050505050565b600060208284031215611f9957600080fd5b815160ff8116811461197457600080fd5b60008251611fbc818460208701611a9d565b9190910192915050565b634e487b7160e01b600052603260045260246000fd5b60008351611fee818460208801611a9d565b6001600160f81b0319939093169190920190815260010192915050565b60006020828403121561201d57600080fd5b61197482611c8d56fea264697066735822122030dbaf86f8cd88c616a191d9135cec09b1a5fc16c7406fa92c19d4c7401abf9064736f6c63430008150033",
  "language": "Solidity",
  "compiler": "0.8.21+commit.d9974bed"
}