{
  "address": "0xC662194321D50CbF8A148951f9EfB6E7b9f0664f",
  "abi": [
    {
      "inputs": [
        {
          "internalType": "contract IInterestRateModelV2Factory",
          "name": "_irmConfigFactory",
          "type": "address"
        },
        {
          "internalType": "contract ISiloFactory",
          "name": "_siloFactory",
          "type": "address"
        },
        {
          "internalType": "address",
          "name": "_siloImpl",
          "type": "address"
        },
        {
          "internalType": "address",
          "name": "_shareProtectedCollateralTokenImpl",
          "type": "address"
        },
        {
          "internalType": "address",
          "name": "_shareDebtTokenImpl",
          "type": "address"
        }
      ],
      "stateMutability": "nonpayable",
      "type": "constructor"
    },
    {
      "inputs": [],
      "name": "IRM_CONFIG_FACTORY",
      "outputs": [
        {
          "internalType": "contract IInterestRateModelV2Factory",
          "name": "",
          "type": "address"
        }
      ],
      "stateMutability": "view",
      "type": "function"
    },
    {
      "inputs": [],
      "name": "SHARE_DEBT_TOKEN_IMPL",
      "outputs": [
        {
          "internalType": "address",
          "name": "",
          "type": "address"
        }
      ],
      "stateMutability": "view",
      "type": "function"
    },
    {
      "inputs": [],
      "name": "SHARE_PROTECTED_COLLATERAL_TOKEN_IMPL",
      "outputs": [
        {
          "internalType": "address",
          "name": "",
          "type": "address"
        }
      ],
      "stateMutability": "view",
      "type": "function"
    },
    {
      "inputs": [],
      "name": "SILO_FACTORY",
      "outputs": [
        {
          "internalType": "contract ISiloFactory",
          "name": "",
          "type": "address"
        }
      ],
      "stateMutability": "view",
      "type": "function"
    },
    {
      "inputs": [],
      "name": "SILO_IMPL",
      "outputs": [
        {
          "internalType": "address",
          "name": "",
          "type": "address"
        }
      ],
      "stateMutability": "view",
      "type": "function"
    },
    {
      "inputs": [
        {
          "components": [
            {
              "components": [
                {
                  "internalType": "address",
                  "name": "factory",
                  "type": "address"
                },
                {
                  "internalType": "bytes",
                  "name": "txInput",
                  "type": "bytes"
                }
              ],
              "internalType": "struct ISiloDeployer.OracleCreationTxData",
              "name": "solvencyOracle0",
              "type": "tuple"
            },
            {
              "components": [
                {
                  "internalType": "address",
                  "name": "factory",
                  "type": "address"
                },
                {
                  "internalType": "bytes",
                  "name": "txInput",
                  "type": "bytes"
                }
              ],
              "internalType": "struct ISiloDeployer.OracleCreationTxData",
              "name": "maxLtvOracle0",
              "type": "tuple"
            },
            {
              "components": [
                {
                  "internalType": "address",
                  "name": "factory",
                  "type": "address"
                },
                {
                  "internalType": "bytes",
                  "name": "txInput",
                  "type": "bytes"
                }
              ],
              "internalType": "struct ISiloDeployer.OracleCreationTxData",
              "name": "solvencyOracle1",
              "type": "tuple"
            },
            {
              "components": [
                {
                  "internalType": "address",
                  "name": "factory",
                  "type": "address"
                },
                {
                  "internalType": "bytes",
                  "name": "txInput",
                  "type": "bytes"
                }
              ],
              "internalType": "struct ISiloDeployer.OracleCreationTxData",
              "name": "maxLtvOracle1",
              "type": "tuple"
            }
          ],
          "internalType": "struct ISiloDeployer.Oracles",
          "name": "_oracles",
          "type": "tuple"
        },
        {
          "components": [
            {
              "internalType": "int256",
              "name": "uopt",
              "type": "int256"
            },
            {
              "internalType": "int256",
              "name": "ucrit",
              "type": "int256"
            },
            {
              "internalType": "int256",
              "name": "ulow",
              "type": "int256"
            },
            {
              "internalType": "int256",
              "name": "ki",
              "type": "int256"
            },
            {
              "internalType": "int256",
              "name": "kcrit",
              "type": "int256"
            },
            {
              "internalType": "int256",
              "name": "klow",
              "type": "int256"
            },
            {
              "internalType": "int256",
              "name": "klin",
              "type": "int256"
            },
            {
              "internalType": "int256",
              "name": "beta",
              "type": "int256"
            }
          ],
          "internalType": "struct IInterestRateModelV2.Config",
          "name": "_irmConfigData0",
          "type": "tuple"
        },
        {
          "components": [
            {
              "internalType": "int256",
              "name": "uopt",
              "type": "int256"
            },
            {
              "internalType": "int256",
              "name": "ucrit",
              "type": "int256"
            },
            {
              "internalType": "int256",
              "name": "ulow",
              "type": "int256"
            },
            {
              "internalType": "int256",
              "name": "ki",
              "type": "int256"
            },
            {
              "internalType": "int256",
              "name": "kcrit",
              "type": "int256"
            },
            {
              "internalType": "int256",
              "name": "klow",
              "type": "int256"
            },
            {
              "internalType": "int256",
              "name": "klin",
              "type": "int256"
            },
            {
              "internalType": "int256",
              "name": "beta",
              "type": "int256"
            }
          ],
          "internalType": "struct IInterestRateModelV2.Config",
          "name": "_irmConfigData1",
          "type": "tuple"
        },
        {
          "components": [
            {
              "internalType": "address",
              "name": "implementation",
              "type": "address"
            },
            {
              "internalType": "bytes",
              "name": "initializationData",
              "type": "bytes"
            }
          ],
          "internalType": "struct ISiloDeployer.ClonableHookReceiver",
          "name": "_clonableHookReceiver",
          "type": "tuple"
        },
        {
          "components": [
            {
              "internalType": "address",
              "name": "deployer",
              "type": "address"
            },
            {
              "internalType": "address",
              "name": "hookReceiver",
              "type": "address"
            },
            {
              "internalType": "uint256",
              "name": "deployerFee",
              "type": "uint256"
            },
            {
              "internalType": "address",
              "name": "token0",
              "type": "address"
            },
            {
              "internalType": "address",
              "name": "solvencyOracle0",
              "type": "address"
            },
            {
              "internalType": "address",
              "name": "maxLtvOracle0",
              "type": "address"
            },
            {
              "internalType": "address",
              "name": "interestRateModel0",
              "type": "address"
            },
            {
              "internalType": "uint256",
              "name": "maxLtv0",
              "type": "uint256"
            },
            {
              "internalType": "uint256",
              "name": "lt0",
              "type": "uint256"
            },
            {
              "internalType": "uint256",
              "name": "liquidationFee0",
              "type": "uint256"
            },
            {
              "internalType": "uint256",
              "name": "flashloanFee0",
              "type": "uint256"
            },
            {
              "internalType": "bool",
              "name": "callBeforeQuote0",
              "type": "bool"
            },
            {
              "internalType": "address",
              "name": "token1",
              "type": "address"
            },
            {
              "internalType": "address",
              "name": "solvencyOracle1",
              "type": "address"
            },
            {
              "internalType": "address",
              "name": "maxLtvOracle1",
              "type": "address"
            },
            {
              "internalType": "address",
              "name": "interestRateModel1",
              "type": "address"
            },
            {
              "internalType": "uint256",
              "name": "maxLtv1",
              "type": "uint256"
            },
            {
              "internalType": "uint256",
              "name": "lt1",
              "type": "uint256"
            },
            {
              "internalType": "uint256",
              "name": "liquidationFee1",
              "type": "uint256"
            },
            {
              "internalType": "uint256",
              "name": "flashloanFee1",
              "type": "uint256"
            },
            {
              "internalType": "bool",
              "name": "callBeforeQuote1",
              "type": "bool"
            }
          ],
          "internalType": "struct ISiloConfig.InitData",
          "name": "_siloInitData",
          "type": "tuple"
        }
      ],
      "name": "deploy",
      "outputs": [
        {
          "internalType": "contract ISiloConfig",
          "name": "siloConfig",
          "type": "address"
        }
      ],
      "stateMutability": "nonpayable",
      "type": "function"
    },
    {
      "anonymous": false,
      "inputs": [
        {
          "indexed": false,
          "internalType": "contract ISiloConfig",
          "name": "siloConfig",
          "type": "address"
        }
      ],
      "name": "SiloCreated",
      "type": "event"
    },
    {
      "inputs": [],
      "name": "FailedDeployment",
      "type": "error"
    },
    {
      "inputs": [
        {
          "internalType": "address",
          "name": "_factory",
          "type": "address"
        }
      ],
      "name": "FailedToCreateAnOracle",
      "type": "error"
    },
    {
      "inputs": [],
      "name": "HookReceiverMissconfigured",
      "type": "error"
    },
    {
      "inputs": [
        {
          "internalType": "uint256",
          "name": "balance",
          "type": "uint256"
        },
        {
          "internalType": "uint256",
          "name": "needed",
          "type": "uint256"
        }
      ],
      "name": "InsufficientBalance",
      "type": "error"
    }
  ],
  "bytecode": "0x61012060405234801562000011575f80fd5b506040516200462a3803806200462a833981016040819052620000349162000076565b6001600160a01b0394851660805292841660a05290831660c052821660e0521661010052620000f2565b6001600160a01b038116811462000073575f80fd5b50565b5f805f805f60a086880312156200008b575f80fd5b855162000098816200005e565b6020870151909550620000ab816200005e565b6040870151909450620000be816200005e565b6060870151909350620000d1816200005e565b6080870151909250620000e4816200005e565b809150509295509295909350565b60805160a05160c05160e05161010051614471620001b95f395f818160f501528181610240015281816107c7015261082201525f818161011d0152818161021e01528181610711015261076c01525f8181610145015281816101fc0152818161063f015261069a01525f818160b6015281816101ca0152818161059201528181610661015281816106bc015281816107330152818161078e015281816107e901528181610844015261088901525f8181607201528181610303015261038201526144715ff3fe608060405234801562000010575f80fd5b506004361062000068575f3560e01c806328cdfde0146200006c5780635956617c14620000b057806364046c5914620000d8578063654ec41114620000ef578063c2bcfc511462000117578063db35c403146200013f575b5f80fd5b620000947f000000000000000000000000000000000000000000000000000000000000000081565b6040516001600160a01b03909116815260200160405180910390f35b620000947f000000000000000000000000000000000000000000000000000000000000000081565b62000094620000e936600462001129565b62000167565b620000947f000000000000000000000000000000000000000000000000000000000000000081565b620000947f000000000000000000000000000000000000000000000000000000000000000081565b620000947f000000000000000000000000000000000000000000000000000000000000000081565b5f62000175858584620002ea565b6200018b82620001858862001402565b62000433565b620001a5826200019f6020860186620014c2565b6200051c565b620001b0826200058e565b6040516337edcb1960e11b81529091506001600160a01b037f00000000000000000000000000000000000000000000000000000000000000001690636fdb9632906200026990859085907f0000000000000000000000000000000000000000000000000000000000000000907f0000000000000000000000000000000000000000000000000000000000000000907f000000000000000000000000000000000000000000000000000000000000000090600401620014e7565b5f604051808303815f87803b15801562000281575f80fd5b505af115801562000294573d5f803e3d5ffd5b50505050620002a58282856200095a565b6040516001600160a01b03821681527f520b4351811464729581037d20341082d8883f518612cfb0d3c2f75c12b0c29d9060200160405180910390a195945050505050565b60405163511042ad60e01b81525f906001600160a01b037f0000000000000000000000000000000000000000000000000000000000000000169063511042ad906200033a9087906004016200166e565b60408051808303815f875af115801562000356573d5f803e3d5ffd5b505050506040513d601f19601f820116820180604052508101906200037c9190620016c6565b9150505f7f00000000000000000000000000000000000000000000000000000000000000006001600160a01b031663511042ad856040518263ffffffff1660e01b8152600401620003ce91906200166e565b60408051808303815f875af1158015620003ea573d5f803e3d5ffd5b505050506040513d601f19601f82011682018060405250810190620004109190620016c6565b6001600160a01b0393841660c08601529092166101e09093019290925250505050565b60808201516001600160a01b0316620004595780516200045390620009f4565b6200045f565b81608001515b6001600160a01b03908116608084015260a0830151166200048f57620004898160200151620009f4565b62000495565b8160a001515b6001600160a01b0390811660a08401526101a083015116620004c657620004c08160400151620009f4565b620004cd565b816101a001515b6001600160a01b039081166101a08401526101c083015116620004ff57620004f98160600151620009f4565b62000506565b816101c001515b6001600160a01b03166101c09092019190915250565b6001600160a01b0381161580159062000541575060208201516001600160a01b031615155b1562000560576040516311cbd2b760e21b815260040160405180910390fd5b6001600160a01b038116156200058a576200057b8162000ac7565b6001600160a01b031660208301525b5050565b5f807f00000000000000000000000000000000000000000000000000000000000000006001600160a01b03166349f33f2e6040518163ffffffff1660e01b8152600401602060405180830381865afa158015620005ed573d5f803e3d5ffd5b505050506040513d601f19601f82011682018060405250810190620006139190620016f7565b90506200061f62000f85565b6200062962000f85565b620006348562000ada565b9092509050620006867f0000000000000000000000000000000000000000000000000000000000000000847f000000000000000000000000000000000000000000000000000000000000000062000c98565b6001600160a01b03166040830152620006e17f0000000000000000000000000000000000000000000000000000000000000000847f000000000000000000000000000000000000000000000000000000000000000062000d0c565b6001600160a01b039081166040808401918252840151821660a080860191909152905190911690820152620007587f0000000000000000000000000000000000000000000000000000000000000000847f000000000000000000000000000000000000000000000000000000000000000062000d1d565b6001600160a01b03166080830152620007b37f0000000000000000000000000000000000000000000000000000000000000000847f000000000000000000000000000000000000000000000000000000000000000062000d2e565b6001600160a01b031660808201526200080e7f0000000000000000000000000000000000000000000000000000000000000000847f000000000000000000000000000000000000000000000000000000000000000062000d3f565b6001600160a01b031660c0830152620008697f0000000000000000000000000000000000000000000000000000000000000000847f000000000000000000000000000000000000000000000000000000000000000062000d50565b8160c001906001600160a01b031690816001600160a01b0316815250505f7f00000000000000000000000000000000000000000000000000000000000000006001600160a01b0316632957b8396040518163ffffffff1660e01b8152600401602060405180830381865afa158015620008e4573d5f803e3d5ffd5b505050506040513d601f19601f820116820180604052508101906200090a9190620016f7565b808452808352604051909150849084908490620009279062001008565b620009359392919062001833565b604051809103905ff0801580156200094f573d5f803e3d5ffd5b509695505050505050565b5f6200096a6020830183620014c2565b6001600160a01b031614620009ef5782602001516001600160a01b031663d1f57894838380602001906200099f91906200185a565b6040518463ffffffff1660e01b8152600401620009bf93929190620018a7565b5f604051808303815f87803b158015620009d7575f80fd5b505af1158015620009ea573d5f803e3d5ffd5b505050505b505050565b80515f906001600160a01b03811662000a0f57505f92915050565b5f80826001600160a01b0316856020015160405162000a2f9190620018e6565b5f604051808303815f865af19150503d805f811462000a6a576040519150601f19603f3d011682016040523d82523d5f602084013e62000a6f565b606091505b509150915081158062000a8457508051602014155b1562000ab357604051630557304160e31b81526001600160a01b03841660048201526024015b60405180910390fd5b62000abe8162001914565b95945050505050565b5f62000ad4825f62000d61565b92915050565b62000ae462000f85565b62000aee62000f85565b60208301516001600160a01b039081166101c08401526060808501518216908401526080840151811660e084015260a0840151161562000b33578260a0015162000b39565b82608001515b6001600160a01b039081166101008085019190915260c08501519091166101208085019190915260e08501516101408086019190915291850151610160808601919091526040860151602086015290850151610180850152908401516101a0840152830151801562000bb857506101008201516001600160a01b031615155b15156101e083015260208301516001600160a01b039081166101c080840191909152610180850151821660608401526101a0850151821660e0840152840151161562000c0a57826101c0015162000c11565b826101a001515b6001600160a01b039081166101008301526101e084015116610120820152610200830151610140820152610220830151610160820152604083015160208201526102408301516101808201526102608301516101a0820152610280830151801562000c8957506101008101516001600160a01b031615155b15156101e08201529092909150565b5f62000d048462000ca98562000df4565b604051603881018690526f5af43d82803e903d91602b57fd5bf3ff60248201526014810192909252733d602d80600a3d3981f3363d3d373d3d3d363d73825260588201526037600c8201206078820152605560439091012090565b949350505050565b5f62000d048462000ca98562000e4f565b5f62000d048462000ca98562000e8d565b5f62000d048462000ca98562000ecb565b5f62000d048462000ca98562000f09565b5f62000d048462000ca98562000f47565b5f8147101562000d8e5760405163cf47918160e01b81524760048201526024810183905260440162000aaa565b6e5af43d82803e903d91602b57fd5bf360205282601152763d602d80600a3d3981f3363d3d373d3d3d363d730000008360881c175f526037600983f090506001600160a01b03811662000ad45760405163b06ebf3d60e01b815260040160405180910390fd5b5f817f1d056e62b182fd7d4dada6cf9079a3ba83adb009746718f4f8751cbe6b93da6160405160200162000e32929190918252602082015260400190565b604051602081830303815290604052805190602001209050919050565b5f817fccf028ea8322db4ac7e226915bfb048583cd927e584ca9a1865904fbc439f66360405160200162000e32929190918252602082015260400190565b5f817f4245b46a55891445529f9a01161a9f64cdec348f693a26b07e5f0aa22b486b7d60405160200162000e32929190918252602082015260400190565b5f817f700bad9da2e1385ef7139f09887b5c24cdbc6e2d1b8562842d95da2e68c340cd60405160200162000e32929190918252602082015260400190565b5f817fbe4a9bb64c254c9ac164216a73a2afa86df28fb3a0204a98a311293dcd5f35fc60405160200162000e32929190918252602082015260400190565b5f817ff36c517579d731f207a45998256dee21125b3bb93f46a3a5d2a4caff5251ca7460405160200162000e32929190918252602082015260400190565b60408051610200810182525f80825260208201819052918101829052606081018290526080810182905260a0810182905260c0810182905260e08101829052610100810182905261012081018290526101408101829052610160810182905261018081018290526101a081018290526101c081018290526101e081019190915290565b612b03806200193983390190565b5f610100828403121562001028575f80fd5b50919050565b634e487b7160e01b5f52604160045260245ffd5b6040516102a0810167ffffffffffffffff811182821017156200106957620010696200102e565b60405290565b6040805190810167ffffffffffffffff811182821017156200106957620010696200102e565b6040516080810167ffffffffffffffff811182821017156200106957620010696200102e565b604051601f8201601f1916810167ffffffffffffffff81118282101715620010e757620010e76200102e565b604052919050565b6001600160a01b038116811462001104575f80fd5b50565b80356200111481620010ef565b919050565b8035801515811462001114575f80fd5b5f805f805f8587036104e081121562001140575f80fd5b863567ffffffffffffffff8082111562001158575f80fd5b908801906080828b0312156200116c575f80fd5b8197506200117e8a60208b0162001016565b96506101209150620011938a838b0162001016565b9550610220808a013582811115620011a9575f80fd5b8a0191506040828c031215620011bd575f80fd5b909450610240906102a061023f198501811315620011d9575f80fd5b620011e362001042565b9450620011f2838c0162001107565b855261026062001204818d0162001107565b6020870152610280808d0135604088015262001222838e0162001107565b6060880152620012366102c08e0162001107565b60808801526200124a6102e08e0162001107565b60a08801526200125e6103008e0162001107565b60c08801526103208d013560e08801526103408d01356101008801526103608d0135868801526103808d01356101408801526200129f6103a08e0162001119565b610160880152620012b46103c08e0162001107565b610180880152620012c96103e08e0162001107565b6101a0880152620012de6104008e0162001107565b6101c0880152620012f36104208e0162001107565b6101e08801526104408d01356102008801526104608d0135848801526104808d0135858801526104a08d013582880152620013326104c08e0162001119565b81880152505050505050809150509295509295909350565b5f604082840312156200135b575f80fd5b620013656200106f565b905081356200137481620010ef565b815260208281013567ffffffffffffffff8082111562001392575f80fd5b818501915085601f830112620013a6575f80fd5b813581811115620013bb57620013bb6200102e565b620013cf601f8201601f19168501620010bb565b91508082528684828501011115620013e5575f80fd5b80848401858401375f908201840152918301919091525092915050565b5f6080823603121562001413575f80fd5b6200141d62001095565b823567ffffffffffffffff8082111562001435575f80fd5b62001443368387016200134a565b8352602085013591508082111562001459575f80fd5b62001467368387016200134a565b6020840152604085013591508082111562001480575f80fd5b6200148e368387016200134a565b60408401526060850135915080821115620014a7575f80fd5b50620014b6368286016200134a565b60608301525092915050565b5f60208284031215620014d3575f80fd5b8135620014e081620010ef565b9392505050565b85516001600160a01b03168152610320810160208701516200151460208401826001600160a01b03169052565b506040870151604083015260608701516200153a60608401826001600160a01b03169052565b5060808701516200155660808401826001600160a01b03169052565b5060a08701516200157260a08401826001600160a01b03169052565b5060c08701516200158e60c08401826001600160a01b03169052565b5060e0878101519083015261010080880151908301526101208088015190830152610140808801519083015261016080880151151590830152610180808801516001600160a01b03908116918401919091526101a0808901518216908401526101c0808901518216908401526101e0808901518216908401526102008089015190840152610220808901519084015261024080890151908401526102608089015190840152610280978801511515978301979097529486166102a08201529285166102c08401529084166102e08301529092166103009092019190915290565b5f61010082019050823582526020830135602083015260408301356040830152606083013560608301526080830135608083015260a083013560a083015260c083013560c083015260e083013560e083015292915050565b5f8060408385031215620016d8575f80fd5b825191506020830151620016ec81620010ef565b809150509250929050565b5f6020828403121562001708575f80fd5b5051919050565b805182526020810151602083015260408101516200173860408401826001600160a01b03169052565b5060608101516200175460608401826001600160a01b03169052565b5060808101516200177060808401826001600160a01b03169052565b5060a08101516200178c60a08401826001600160a01b03169052565b5060c0810151620017a860c08401826001600160a01b03169052565b5060e0810151620017c460e08401826001600160a01b03169052565b50610100818101516001600160a01b0390811691840191909152610120808301518216908401526101408083015190840152610160808301519084015261018080830151908401526101a080830151908401526101c080830151909116908301526101e0908101511515910152565b83815261042081016200184a60208301856200170f565b62000d046102208301846200170f565b5f808335601e1984360301811262001870575f80fd5b83018035915067ffffffffffffffff8211156200188b575f80fd5b602001915036819003821315620018a0575f80fd5b9250929050565b6001600160a01b03841681526040602082018190528101829052818360608301375f818301606090810191909152601f909201601f1916010192915050565b5f82515f5b81811015620019075760208186018101518583015201620018eb565b505f920191825250919050565b8051602080830151919081101562001028575f1960209190910360031b1b1691905056fe61044060405234801562000011575f80fd5b5060405162002b0338038062002b03833981016040819052620000349162000329565b60015f55608083905260208201518251670de0b6b3a76400009162000059916200036b565b10620000785760405163cd4e616760e01b815260040160405180910390fd5b815160a052602082015160c09081526101c0808401516001600160a01b0390811660e09081526040808701805184166101009081526060808a015186166101209081526080808c01518816610140908152945188166101609081528a8d01518916610180908152888e01518a166101a0908152868f01518b16909b52838e01518a166101e0908152878f015161020052828f015161022052818f0151610240528b8f0151610260529d8e0151151561028052968c0180518a166102a052938c015189166102c052908b015188166102e052915187166103005297890151861661032052938801518516610340528701518416610360529486015190921661038052928401516103a052918301516103c052908201516103e0528101516104005201511515610420525062000391565b60405161020081016001600160401b0381118282101715620001d757634e487b7160e01b5f52604160045260245ffd5b60405290565b80516001600160a01b0381168114620001f4575f80fd5b919050565b80518015158114620001f4575f80fd5b5f61020082840312156200021b575f80fd5b62000225620001a7565b905081518152602082015160208201526200024360408301620001dd565b60408201526200025660608301620001dd565b60608201526200026960808301620001dd565b60808201526200027c60a08301620001dd565b60a08201526200028f60c08301620001dd565b60c0820152620002a260e08301620001dd565b60e0820152610100620002b7818401620001dd565b90820152610120620002cb838201620001dd565b908201526101408281015190820152610160808301519082015261018080830151908201526101a080830151908201526101c06200030b818401620001dd565b908201526101e06200031f838201620001f9565b9082015292915050565b5f805f61042084860312156200033d575f80fd5b8351925062000350856020860162000209565b91506200036285610220860162000209565b90509250925092565b808201808211156200038b57634e487b7160e01b5f52601160045260245ffd5b92915050565b60805160a05160c05160e05161010051610120516101405161016051610180516101a0516101c0516101e05161020051610220516102405161026051610280516102a0516102c0516102e05161030051610320516103405161036051610380516103a0516103c0516103e0516104005161042051612362620007a15f395f611ff901525f81816112ee0152611fa401525f611f7e01525f611f5801525f611f3201525f81816107e20152818161108a015281816117e70152611f0301525f611ed401525f611ea501525f818161042f015281816105d901528181610a5201528181610bf401528181610e5701528181611a4d0152611e7601525f8181610bd101528181610d9e0152818161173d015281816119790152611e4701525f8181610bae01528181610d560152818161176c015281816119e30152611e1801525f818161057c01528181610a7401528181610d7701528181610dc1015281816113110152818161170e0152611de901525f818161038f0152818161045f015281816105420152818161064f015281816107a8015281816108f50152818161091b01528181610a1801528181610b7401528181610d0401528181610ecb015281816110fe015281816112b401528181611383015281816114220152818161169b015281816116df01528181611858015281816118da0152611dba01525f611d2f01525f818161126b0152611cda01525f611cb401525f611c8e01525f611c6801525f818161078201528181610faa015281816116670152611c3901525f611c0a01525f611bdb01525f818161049b015281816105ac015281816109cf01528181610b4e01528181610e2301528181610ea401528181611a180152611bac01525f8181610b2b01528181610cb8015281816115bd015281816119440152611b7d01525f8181610b0801528181610c71015281816115ec015281816119ae0152611b4e01525f818161051c015281816109f101528181610c9201528181610cd90152818161128e0152818161158e0152611b1f01525f818161036e015281816103f3015281816104e20152818161067501528181610748015281816108bb015281816109550152818161099501528181610ace01528181610c1f01528181610ef10152818161101e0152818161123f01528181611342015281816113d5015281816113fc0152818161151b0152818161155f01528181611824015281816118a60152611af001525f818161190f01528181611d000152611fca01525f818161084701528181610ff8015281816110d80152818161121401528181611641015281816117c101528181611aca0152611d9401525f818161082101528181610fd2015281816110b2015281816111f30152818161161b0152818161179b01528181611aa40152611d6e01525f6101ce01526123625ff3fe608060405234801561000f575f80fd5b506004361061013d575f3560e01c806362402b04116100b4578063a135e0a011610079578063a135e0a014610308578063a5abc68a14610344578063aecc90cb1461036c578063d2c725e0146103b3578063e48a5f7b146103bd578063f6f8174f146103dd575f80fd5b806362402b04146102ca57806372db6559146102d25780637d16b1f5146102e557806394c0527d146102ed5780639dd4133014610300575f80fd5b8063255d70c811610105578063255d70c8146101fe5780632e6da205146102135780633c3eac121461023457806340c755e114610267578063483b24f01461027a5780634b82d63d146102b7575f80fd5b8063038c0a5e1461014157806307439b49146101695780630b1d67c6146101945780631544a6db146101a7578063189e17e4146101c9575b5f80fd5b61015461014f3660046120bb565b6103f0565b60405190151581526020015b60405180910390f35b61017c6101773660046120ec565b6104df565b6040516001600160a01b039091168152602001610160565b61017c6101a23660046120ec565b6105a5565b6101ba6101b53660046120bb565b61069d565b60405161016093929190612228565b6101f07f000000000000000000000000000000000000000000000000000000000000000081565b604051908152602001610160565b61021161020c3660046120ec565b610745565b005b6102266102213660046120ec565b6108a8565b60405161016092919061229d565b6102476102423660046120ec565b610991565b604080516001600160a01b03938416815292909116602083015201610160565b6102116102753660046120ec565b610a99565b61028d6102883660046120ec565b610ac9565b604080516001600160a01b0394851681529284166020840152921691810191909152606001610160565b6102476102c53660046122ba565b610c1b565b610211610de8565b6102116102e03660046120bb565b610e18565b610211610f93565b6102266102fb3660046120ec565b611159565b6102116111c0565b61031b6103163660046120ec565b6111f1565b604080519485526020850193909352918301526001600160a01b03166060820152608001610160565b61017c6103523660046120ec565b60016020525f90815260409020546001600160a01b031681565b7f00000000000000000000000000000000000000000000000000000000000000007f0000000000000000000000000000000000000000000000000000000000000000610247565b5f54600214610154565b6103d06103cb3660046120ec565b611338565b60405161016091906122f2565b6102116103eb3660046120ec565b6113c2565b5f7f00000000000000000000000000000000000000000000000000000000000000006001600160a01b0316836001600160a01b03160361045d576104547f00000000000000000000000000000000000000000000000000000000000000008361146f565b151590506104d9565b7f00000000000000000000000000000000000000000000000000000000000000006001600160a01b0316836001600160a01b0316036104c0576104547f00000000000000000000000000000000000000000000000000000000000000008361146f565b6040516349d73a2760e01b815260040160405180910390fd5b92915050565b5f7f00000000000000000000000000000000000000000000000000000000000000006001600160a01b0316826001600160a01b03160361054057507f0000000000000000000000000000000000000000000000000000000000000000919050565b7f00000000000000000000000000000000000000000000000000000000000000006001600160a01b0316826001600160a01b0316036104c057507f0000000000000000000000000000000000000000000000000000000000000000919050565b919050565b5f806105d17f00000000000000000000000000000000000000000000000000000000000000008461146f565b90505f6105fe7f00000000000000000000000000000000000000000000000000000000000000008561146f565b90505f8211801561060e57505f81115b1561062c5760405163fc6ba97d60e01b815260040160405180910390fd5b81158015610638575080155b1561064657505f9392505050565b815f03610673577f0000000000000000000000000000000000000000000000000000000000000000610695565b7f00000000000000000000000000000000000000000000000000000000000000005b949350505050565b6040805160e0810182525f80825260208201819052918101829052606081018290526080810182905260a0810182905260c08101919091526106dd612022565b6106e5612022565b6106ee856114e1565b92505f6106fa856105a5565b90506001600160a01b0381161561073d576001600160a01b038086165f908152600160205260409020541661072e81611338565b935061073982611338565b9250505b509250925092565b5f7f00000000000000000000000000000000000000000000000000000000000000006001600160a01b0316826001600160a01b0316036107a657507f0000000000000000000000000000000000000000000000000000000000000000610802565b7f00000000000000000000000000000000000000000000000000000000000000006001600160a01b0316826001600160a01b0316036104c057507f00000000000000000000000000000000000000000000000000000000000000005b604051631b88d98560e21b81526001600160a01b0382811660048301527f000000000000000000000000000000000000000000000000000000000000000060248301527f00000000000000000000000000000000000000000000000000000000000000006044830152831690636e236614906064015f604051808303815f87803b15801561088e575f80fd5b505af11580156108a0573d5f803e3d5ffd5b505050505050565b6108b0612022565b6108b8612022565b5f7f00000000000000000000000000000000000000000000000000000000000000006001600160a01b0316846001600160a01b03160361091957507f0000000000000000000000000000000000000000000000000000000000000000610975565b7f00000000000000000000000000000000000000000000000000000000000000006001600160a01b0316846001600160a01b0316036104c057507f00000000000000000000000000000000000000000000000000000000000000005b61097e81611338565b925061098984611338565b915050915091565b5f807f00000000000000000000000000000000000000000000000000000000000000006001600160a01b0316836001600160a01b031603610a1657507f0000000000000000000000000000000000000000000000000000000000000000927f000000000000000000000000000000000000000000000000000000000000000092509050565b7f00000000000000000000000000000000000000000000000000000000000000006001600160a01b0316836001600160a01b0316036104c057507f0000000000000000000000000000000000000000000000000000000000000000927f000000000000000000000000000000000000000000000000000000000000000092509050565b610aa1611819565b6001600160a01b03165f90815260016020526040902080546001600160a01b03191633179055565b5f805f7f00000000000000000000000000000000000000000000000000000000000000006001600160a01b0316846001600160a01b031603610b7257507f000000000000000000000000000000000000000000000000000000000000000091507f000000000000000000000000000000000000000000000000000000000000000090507f0000000000000000000000000000000000000000000000000000000000000000610c14565b7f00000000000000000000000000000000000000000000000000000000000000006001600160a01b0316846001600160a01b0316036104c057507f000000000000000000000000000000000000000000000000000000000000000091507f000000000000000000000000000000000000000000000000000000000000000090507f00000000000000000000000000000000000000000000000000000000000000005b9193909250565b5f807f00000000000000000000000000000000000000000000000000000000000000006001600160a01b0316846001600160a01b031603610d02576001836001811115610c6a57610c6a612301565b14610cb6577f00000000000000000000000000000000000000000000000000000000000000007f0000000000000000000000000000000000000000000000000000000000000000610cf9565b7f00000000000000000000000000000000000000000000000000000000000000007f00000000000000000000000000000000000000000000000000000000000000005b91509150610de1565b7f00000000000000000000000000000000000000000000000000000000000000006001600160a01b0316846001600160a01b0316036104c0576001836001811115610d4f57610d4f612301565b14610d9b577f00000000000000000000000000000000000000000000000000000000000000007f0000000000000000000000000000000000000000000000000000000000000000610cf9565b507f000000000000000000000000000000000000000000000000000000000000000090507f00000000000000000000000000000000000000000000000000000000000000005b9250929050565b610df061189b565b5f545f1901610e125760405163f874d85960e01b815260040160405180910390fd5b60015f55565b336001600160a01b037f00000000000000000000000000000000000000000000000000000000000000001614801590610e7a5750336001600160a01b037f00000000000000000000000000000000000000000000000000000000000000001614155b15610e98576040516336ed4fb960e01b815260040160405180910390fd5b5f336001600160a01b037f00000000000000000000000000000000000000000000000000000000000000001614610eef577f0000000000000000000000000000000000000000000000000000000000000000610f11565b7f00000000000000000000000000000000000000000000000000000000000000005b9050610f1d81836103f0565b15610f3b5760405163fc6ba97d60e01b815260040160405180910390fd5b6001600160a01b038281165f9081526001602052604090205416610f8e576001600160a01b038084165f90815260016020526040808220548584168352912080546001600160a01b031916919092161790555b505050565b604051631b88d98560e21b81526001600160a01b037f0000000000000000000000000000000000000000000000000000000000000000811660048301527f000000000000000000000000000000000000000000000000000000000000000060248301527f000000000000000000000000000000000000000000000000000000000000000060448301527f00000000000000000000000000000000000000000000000000000000000000001690636e236614906064015f604051808303815f87803b15801561105f575f80fd5b505af1158015611071573d5f803e3d5ffd5b5050604051631b88d98560e21b81526001600160a01b037f0000000000000000000000000000000000000000000000000000000000000000811660048301527f000000000000000000000000000000000000000000000000000000000000000060248301527f000000000000000000000000000000000000000000000000000000000000000060448301527f0000000000000000000000000000000000000000000000000000000000000000169250636e23661491506064015f604051808303815f87803b158015611141575f80fd5b505af1158015611153573d5f803e3d5ffd5b50505050565b611161612022565b611169612022565b5f611173846105a5565b90506001600160a01b0381166111895750915091565b6001600160a01b038085165f90815260016020526040902054166111ac81611338565b93506111b782611338565b92505050915091565b6111c861189b565b5f54600119016111eb5760405163e17fbf8960e01b815260040160405180910390fd5b60025f55565b7f00000000000000000000000000000000000000000000000000000000000000007f00000000000000000000000000000000000000000000000000000000000000005f806001600160a01b037f00000000000000000000000000000000000000000000000000000000000000008116908616036112b257507f000000000000000000000000000000000000000000000000000000000000000090507f0000000000000000000000000000000000000000000000000000000000000000611331565b7f00000000000000000000000000000000000000000000000000000000000000006001600160a01b0316856001600160a01b0316036104c057507f000000000000000000000000000000000000000000000000000000000000000090507f00000000000000000000000000000000000000000000000000000000000000005b9193509193565b611340612022565b7f00000000000000000000000000000000000000000000000000000000000000006001600160a01b0316826001600160a01b031603611381576104d9611a8e565b7f00000000000000000000000000000000000000000000000000000000000000006001600160a01b0316826001600160a01b0316036104c0576104d9611d58565b6113ca611819565b336001600160a01b037f00000000000000000000000000000000000000000000000000000000000000001614611420577f0000000000000000000000000000000000000000000000000000000000000000611442565b7f00000000000000000000000000000000000000000000000000000000000000005b6001600160a01b039182165f90815260016020526040902080546001600160a01b03191691909216179055565b6040516370a0823160e01b81526001600160a01b0382811660048301525f91908416906370a0823190602401602060405180830381865afa1580156114b6573d5f803e3d5ffd5b505050506040513d601f19601f820116820180604052508101906114da9190612315565b9392505050565b6040805160e0810182525f80825260208201819052918101829052606081018290526080810182905260a0810182905260c08101919091527f00000000000000000000000000000000000000000000000000000000000000006001600160a01b0316826001600160a01b031603611699576040518060e001604052807f00000000000000000000000000000000000000000000000000000000000000006001600160a01b031681526020017f00000000000000000000000000000000000000000000000000000000000000006001600160a01b031681526020017f00000000000000000000000000000000000000000000000000000000000000006001600160a01b031681526020017f00000000000000000000000000000000000000000000000000000000000000006001600160a01b031681526020017f000000000000000000000000000000000000000000000000000000000000000081526020017f000000000000000000000000000000000000000000000000000000000000000081526020017f00000000000000000000000000000000000000000000000000000000000000006001600160a01b03168152509050919050565b7f00000000000000000000000000000000000000000000000000000000000000006001600160a01b0316826001600160a01b0316036104c0576040518060e001604052807f00000000000000000000000000000000000000000000000000000000000000006001600160a01b031681526020017f00000000000000000000000000000000000000000000000000000000000000006001600160a01b031681526020017f00000000000000000000000000000000000000000000000000000000000000006001600160a01b031681526020017f00000000000000000000000000000000000000000000000000000000000000006001600160a01b031681526020017f000000000000000000000000000000000000000000000000000000000000000081526020017f000000000000000000000000000000000000000000000000000000000000000081526020017f00000000000000000000000000000000000000000000000000000000000000006001600160a01b03168152509050919050565b336001600160a01b037f0000000000000000000000000000000000000000000000000000000000000000161480159061187b5750336001600160a01b037f00000000000000000000000000000000000000000000000000000000000000001614155b15611899576040516310528c6d60e11b815260040160405180910390fd5b565b336001600160a01b037f000000000000000000000000000000000000000000000000000000000000000016148015906118fd5750336001600160a01b037f00000000000000000000000000000000000000000000000000000000000000001614155b80156119325750336001600160a01b037f00000000000000000000000000000000000000000000000000000000000000001614155b80156119675750336001600160a01b037f00000000000000000000000000000000000000000000000000000000000000001614155b801561199c5750336001600160a01b037f00000000000000000000000000000000000000000000000000000000000000001614155b80156119d15750336001600160a01b037f00000000000000000000000000000000000000000000000000000000000000001614155b8015611a065750336001600160a01b037f00000000000000000000000000000000000000000000000000000000000000001614155b8015611a3b5750336001600160a01b037f00000000000000000000000000000000000000000000000000000000000000001614155b8015611a705750336001600160a01b037f00000000000000000000000000000000000000000000000000000000000000001614155b156118995760405163329409fd60e01b815260040160405180910390fd5b611a96612022565b6040518061020001604052807f000000000000000000000000000000000000000000000000000000000000000081526020017f000000000000000000000000000000000000000000000000000000000000000081526020017f00000000000000000000000000000000000000000000000000000000000000006001600160a01b031681526020017f00000000000000000000000000000000000000000000000000000000000000006001600160a01b031681526020017f00000000000000000000000000000000000000000000000000000000000000006001600160a01b031681526020017f00000000000000000000000000000000000000000000000000000000000000006001600160a01b031681526020017f00000000000000000000000000000000000000000000000000000000000000006001600160a01b031681526020017f00000000000000000000000000000000000000000000000000000000000000006001600160a01b031681526020017f00000000000000000000000000000000000000000000000000000000000000006001600160a01b031681526020017f00000000000000000000000000000000000000000000000000000000000000006001600160a01b031681526020017f000000000000000000000000000000000000000000000000000000000000000081526020017f000000000000000000000000000000000000000000000000000000000000000081526020017f000000000000000000000000000000000000000000000000000000000000000081526020017f000000000000000000000000000000000000000000000000000000000000000081526020017f00000000000000000000000000000000000000000000000000000000000000006001600160a01b031681526020017f00000000000000000000000000000000000000000000000000000000000000001515815250905090565b611d60612022565b6040518061020001604052807f000000000000000000000000000000000000000000000000000000000000000081526020017f000000000000000000000000000000000000000000000000000000000000000081526020017f00000000000000000000000000000000000000000000000000000000000000006001600160a01b031681526020017f00000000000000000000000000000000000000000000000000000000000000006001600160a01b031681526020017f00000000000000000000000000000000000000000000000000000000000000006001600160a01b031681526020017f00000000000000000000000000000000000000000000000000000000000000006001600160a01b031681526020017f00000000000000000000000000000000000000000000000000000000000000006001600160a01b031681526020017f00000000000000000000000000000000000000000000000000000000000000006001600160a01b031681526020017f00000000000000000000000000000000000000000000000000000000000000006001600160a01b031681526020017f00000000000000000000000000000000000000000000000000000000000000006001600160a01b031681526020017f000000000000000000000000000000000000000000000000000000000000000081526020017f000000000000000000000000000000000000000000000000000000000000000081526020017f000000000000000000000000000000000000000000000000000000000000000081526020017f000000000000000000000000000000000000000000000000000000000000000081526020017f00000000000000000000000000000000000000000000000000000000000000006001600160a01b031681526020017f00000000000000000000000000000000000000000000000000000000000000001515815250905090565b60408051610200810182525f80825260208201819052918101829052606081018290526080810182905260a0810182905260c0810182905260e08101829052610100810182905261012081018290526101408101829052610160810182905261018081018290526101a081018290526101c081018290526101e081019190915290565b80356001600160a01b03811681146105a0575f80fd5b5f80604083850312156120cc575f80fd5b6120d5836120a5565b91506120e3602084016120a5565b90509250929050565b5f602082840312156120fc575f80fd5b6114da826120a5565b8051825260208101516020830152604081015161212d60408401826001600160a01b03169052565b50606081015161214860608401826001600160a01b03169052565b50608081015161216360808401826001600160a01b03169052565b5060a081015161217e60a08401826001600160a01b03169052565b5060c081015161219960c08401826001600160a01b03169052565b5060e08101516121b460e08401826001600160a01b03169052565b50610100818101516001600160a01b0390811691840191909152610120808301518216908401526101408083015190840152610160808301519084015261018080830151908401526101a080830151908401526101c080830151909116908301526101e08082015180151582850152611153565b5f6104e08201905060018060a01b038086511683528060208701511660208401528060408701511660408401528060608701511660608401526080860151608084015260a086015160a08401528060c08701511660c08401525061228f60e0830185612105565b6106956102e0830184612105565b61040081016122ac8285612105565b6114da610200830184612105565b5f80604083850312156122cb575f80fd5b6122d4836120a5565b91506020830135600281106122e7575f80fd5b809150509250929050565b61020081016104d98284612105565b634e487b7160e01b5f52602160045260245ffd5b5f60208284031215612325575f80fd5b505191905056fea2646970667358221220b8c99189690323b7fe1dcdb1e19dd8458ef49af48dbda896c6c5134afc69b02464736f6c63430008180033a2646970667358221220b5235192a23a5a822e2b6b75b0d920dc84543422c9a6db3c72d806568b7abaf564736f6c63430008180033",
  "language": "Solidity",
  "compiler": "0.8.24+commit.e11b9ed9"
}