{
  "address": "0xfce6c652f5E9cb2E6AEf60F8d8BC4a9894F351A8",
  "abi": [
    {
      "inputs": [
        {
          "internalType": "contract ISiloFactory",
          "name": "_siloFactory",
          "type": "address"
        }
      ],
      "stateMutability": "nonpayable",
      "type": "constructor"
    },
    {
      "stateMutability": "payable",
      "type": "receive"
    },
    {
      "inputs": [],
      "name": "DOMAIN_SEPARATOR",
      "outputs": [
        {
          "internalType": "bytes32",
          "name": "",
          "type": "bytes32"
        }
      ],
      "stateMutability": "view",
      "type": "function"
    },
    {
      "inputs": [],
      "name": "accrueInterest",
      "outputs": [
        {
          "internalType": "uint256",
          "name": "accruedInterest",
          "type": "uint256"
        }
      ],
      "stateMutability": "nonpayable",
      "type": "function"
    },
    {
      "inputs": [
        {
          "internalType": "address",
          "name": "_interestRateModel",
          "type": "address"
        },
        {
          "internalType": "uint256",
          "name": "_daoFee",
          "type": "uint256"
        },
        {
          "internalType": "uint256",
          "name": "_deployerFee",
          "type": "uint256"
        }
      ],
      "name": "accrueInterestForConfig",
      "outputs": [],
      "stateMutability": "nonpayable",
      "type": "function"
    },
    {
      "inputs": [
        {
          "internalType": "address",
          "name": "owner",
          "type": "address"
        },
        {
          "internalType": "address",
          "name": "spender",
          "type": "address"
        }
      ],
      "name": "allowance",
      "outputs": [
        {
          "internalType": "uint256",
          "name": "",
          "type": "uint256"
        }
      ],
      "stateMutability": "view",
      "type": "function"
    },
    {
      "inputs": [
        {
          "internalType": "address",
          "name": "spender",
          "type": "address"
        },
        {
          "internalType": "uint256",
          "name": "value",
          "type": "uint256"
        }
      ],
      "name": "approve",
      "outputs": [
        {
          "internalType": "bool",
          "name": "result",
          "type": "bool"
        }
      ],
      "stateMutability": "nonpayable",
      "type": "function"
    },
    {
      "inputs": [],
      "name": "asset",
      "outputs": [
        {
          "internalType": "address",
          "name": "assetTokenAddress",
          "type": "address"
        }
      ],
      "stateMutability": "view",
      "type": "function"
    },
    {
      "inputs": [
        {
          "internalType": "address",
          "name": "account",
          "type": "address"
        }
      ],
      "name": "balanceOf",
      "outputs": [
        {
          "internalType": "uint256",
          "name": "",
          "type": "uint256"
        }
      ],
      "stateMutability": "view",
      "type": "function"
    },
    {
      "inputs": [
        {
          "internalType": "address",
          "name": "_account",
          "type": "address"
        }
      ],
      "name": "balanceOfAndTotalSupply",
      "outputs": [
        {
          "internalType": "uint256",
          "name": "",
          "type": "uint256"
        },
        {
          "internalType": "uint256",
          "name": "",
          "type": "uint256"
        }
      ],
      "stateMutability": "view",
      "type": "function"
    },
    {
      "inputs": [
        {
          "internalType": "uint256",
          "name": "_assets",
          "type": "uint256"
        },
        {
          "internalType": "address",
          "name": "_receiver",
          "type": "address"
        },
        {
          "internalType": "address",
          "name": "_borrower",
          "type": "address"
        }
      ],
      "name": "borrow",
      "outputs": [
        {
          "internalType": "uint256",
          "name": "shares",
          "type": "uint256"
        }
      ],
      "stateMutability": "nonpayable",
      "type": "function"
    },
    {
      "inputs": [
        {
          "internalType": "uint256",
          "name": "_assets",
          "type": "uint256"
        },
        {
          "internalType": "address",
          "name": "_receiver",
          "type": "address"
        },
        {
          "internalType": "address",
          "name": "_borrower",
          "type": "address"
        }
      ],
      "name": "borrowSameAsset",
      "outputs": [
        {
          "internalType": "uint256",
          "name": "shares",
          "type": "uint256"
        }
      ],
      "stateMutability": "nonpayable",
      "type": "function"
    },
    {
      "inputs": [
        {
          "internalType": "uint256",
          "name": "_shares",
          "type": "uint256"
        },
        {
          "internalType": "address",
          "name": "_receiver",
          "type": "address"
        },
        {
          "internalType": "address",
          "name": "_borrower",
          "type": "address"
        }
      ],
      "name": "borrowShares",
      "outputs": [
        {
          "internalType": "uint256",
          "name": "assets",
          "type": "uint256"
        }
      ],
      "stateMutability": "nonpayable",
      "type": "function"
    },
    {
      "inputs": [
        {
          "internalType": "address",
          "name": "_owner",
          "type": "address"
        },
        {
          "internalType": "address",
          "name": "_spender",
          "type": "address"
        },
        {
          "internalType": "uint256",
          "name": "_amount",
          "type": "uint256"
        }
      ],
      "name": "burn",
      "outputs": [],
      "stateMutability": "nonpayable",
      "type": "function"
    },
    {
      "inputs": [
        {
          "internalType": "address",
          "name": "_target",
          "type": "address"
        },
        {
          "internalType": "uint256",
          "name": "_value",
          "type": "uint256"
        },
        {
          "internalType": "enum ISilo.CallType",
          "name": "_callType",
          "type": "uint8"
        },
        {
          "internalType": "bytes",
          "name": "_input",
          "type": "bytes"
        }
      ],
      "name": "callOnBehalfOfSilo",
      "outputs": [
        {
          "internalType": "bool",
          "name": "success",
          "type": "bool"
        },
        {
          "internalType": "bytes",
          "name": "result",
          "type": "bytes"
        }
      ],
      "stateMutability": "payable",
      "type": "function"
    },
    {
      "inputs": [],
      "name": "config",
      "outputs": [
        {
          "internalType": "contract ISiloConfig",
          "name": "siloConfig",
          "type": "address"
        }
      ],
      "stateMutability": "view",
      "type": "function"
    },
    {
      "inputs": [
        {
          "internalType": "uint256",
          "name": "_shares",
          "type": "uint256"
        }
      ],
      "name": "convertToAssets",
      "outputs": [
        {
          "internalType": "uint256",
          "name": "assets",
          "type": "uint256"
        }
      ],
      "stateMutability": "view",
      "type": "function"
    },
    {
      "inputs": [
        {
          "internalType": "uint256",
          "name": "_shares",
          "type": "uint256"
        },
        {
          "internalType": "enum ISilo.AssetType",
          "name": "_assetType",
          "type": "uint8"
        }
      ],
      "name": "convertToAssets",
      "outputs": [
        {
          "internalType": "uint256",
          "name": "assets",
          "type": "uint256"
        }
      ],
      "stateMutability": "view",
      "type": "function"
    },
    {
      "inputs": [
        {
          "internalType": "uint256",
          "name": "_assets",
          "type": "uint256"
        },
        {
          "internalType": "enum ISilo.AssetType",
          "name": "_assetType",
          "type": "uint8"
        }
      ],
      "name": "convertToShares",
      "outputs": [
        {
          "internalType": "uint256",
          "name": "shares",
          "type": "uint256"
        }
      ],
      "stateMutability": "view",
      "type": "function"
    },
    {
      "inputs": [
        {
          "internalType": "uint256",
          "name": "_assets",
          "type": "uint256"
        }
      ],
      "name": "convertToShares",
      "outputs": [
        {
          "internalType": "uint256",
          "name": "shares",
          "type": "uint256"
        }
      ],
      "stateMutability": "view",
      "type": "function"
    },
    {
      "inputs": [],
      "name": "decimals",
      "outputs": [
        {
          "internalType": "uint8",
          "name": "",
          "type": "uint8"
        }
      ],
      "stateMutability": "view",
      "type": "function"
    },
    {
      "inputs": [
        {
          "internalType": "uint256",
          "name": "_assets",
          "type": "uint256"
        },
        {
          "internalType": "address",
          "name": "_receiver",
          "type": "address"
        }
      ],
      "name": "deposit",
      "outputs": [
        {
          "internalType": "uint256",
          "name": "shares",
          "type": "uint256"
        }
      ],
      "stateMutability": "nonpayable",
      "type": "function"
    },
    {
      "inputs": [
        {
          "internalType": "uint256",
          "name": "_assets",
          "type": "uint256"
        },
        {
          "internalType": "address",
          "name": "_receiver",
          "type": "address"
        },
        {
          "internalType": "enum ISilo.CollateralType",
          "name": "_collateralType",
          "type": "uint8"
        }
      ],
      "name": "deposit",
      "outputs": [
        {
          "internalType": "uint256",
          "name": "shares",
          "type": "uint256"
        }
      ],
      "stateMutability": "nonpayable",
      "type": "function"
    },
    {
      "inputs": [],
      "name": "eip712Domain",
      "outputs": [
        {
          "internalType": "bytes1",
          "name": "fields",
          "type": "bytes1"
        },
        {
          "internalType": "string",
          "name": "name",
          "type": "string"
        },
        {
          "internalType": "string",
          "name": "version",
          "type": "string"
        },
        {
          "internalType": "uint256",
          "name": "chainId",
          "type": "uint256"
        },
        {
          "internalType": "address",
          "name": "verifyingContract",
          "type": "address"
        },
        {
          "internalType": "bytes32",
          "name": "salt",
          "type": "bytes32"
        },
        {
          "internalType": "uint256[]",
          "name": "extensions",
          "type": "uint256[]"
        }
      ],
      "stateMutability": "view",
      "type": "function"
    },
    {
      "inputs": [],
      "name": "factory",
      "outputs": [
        {
          "internalType": "contract ISiloFactory",
          "name": "",
          "type": "address"
        }
      ],
      "stateMutability": "view",
      "type": "function"
    },
    {
      "inputs": [
        {
          "internalType": "address",
          "name": "_token",
          "type": "address"
        },
        {
          "internalType": "uint256",
          "name": "_amount",
          "type": "uint256"
        }
      ],
      "name": "flashFee",
      "outputs": [
        {
          "internalType": "uint256",
          "name": "fee",
          "type": "uint256"
        }
      ],
      "stateMutability": "view",
      "type": "function"
    },
    {
      "inputs": [
        {
          "internalType": "contract IERC3156FlashBorrower",
          "name": "_receiver",
          "type": "address"
        },
        {
          "internalType": "address",
          "name": "_token",
          "type": "address"
        },
        {
          "internalType": "uint256",
          "name": "_amount",
          "type": "uint256"
        },
        {
          "internalType": "bytes",
          "name": "_data",
          "type": "bytes"
        }
      ],
      "name": "flashLoan",
      "outputs": [
        {
          "internalType": "bool",
          "name": "success",
          "type": "bool"
        }
      ],
      "stateMutability": "nonpayable",
      "type": "function"
    },
    {
      "inputs": [
        {
          "internalType": "address",
          "name": "_from",
          "type": "address"
        },
        {
          "internalType": "address",
          "name": "_to",
          "type": "address"
        },
        {
          "internalType": "uint256",
          "name": "_amount",
          "type": "uint256"
        }
      ],
      "name": "forwardTransferFromNoChecks",
      "outputs": [],
      "stateMutability": "nonpayable",
      "type": "function"
    },
    {
      "inputs": [],
      "name": "getCollateralAndDebtTotalsStorage",
      "outputs": [
        {
          "internalType": "uint256",
          "name": "totalCollateralAssets",
          "type": "uint256"
        },
        {
          "internalType": "uint256",
          "name": "totalDebtAssets",
          "type": "uint256"
        }
      ],
      "stateMutability": "view",
      "type": "function"
    },
    {
      "inputs": [],
      "name": "getCollateralAndProtectedTotalsStorage",
      "outputs": [
        {
          "internalType": "uint256",
          "name": "totalCollateralAssets",
          "type": "uint256"
        },
        {
          "internalType": "uint256",
          "name": "totalProtectedAssets",
          "type": "uint256"
        }
      ],
      "stateMutability": "view",
      "type": "function"
    },
    {
      "inputs": [],
      "name": "getCollateralAssets",
      "outputs": [
        {
          "internalType": "uint256",
          "name": "totalCollateralAssets",
          "type": "uint256"
        }
      ],
      "stateMutability": "view",
      "type": "function"
    },
    {
      "inputs": [],
      "name": "getDebtAssets",
      "outputs": [
        {
          "internalType": "uint256",
          "name": "totalDebtAssets",
          "type": "uint256"
        }
      ],
      "stateMutability": "view",
      "type": "function"
    },
    {
      "inputs": [],
      "name": "getLiquidity",
      "outputs": [
        {
          "internalType": "uint256",
          "name": "liquidity",
          "type": "uint256"
        }
      ],
      "stateMutability": "view",
      "type": "function"
    },
    {
      "inputs": [],
      "name": "getSiloStorage",
      "outputs": [
        {
          "internalType": "uint192",
          "name": "daoAndDeployerRevenue",
          "type": "uint192"
        },
        {
          "internalType": "uint64",
          "name": "interestRateTimestamp",
          "type": "uint64"
        },
        {
          "internalType": "uint256",
          "name": "protectedAssets",
          "type": "uint256"
        },
        {
          "internalType": "uint256",
          "name": "collateralAssets",
          "type": "uint256"
        },
        {
          "internalType": "uint256",
          "name": "debtAssets",
          "type": "uint256"
        }
      ],
      "stateMutability": "view",
      "type": "function"
    },
    {
      "inputs": [
        {
          "internalType": "uint256",
          "name": "_assetType",
          "type": "uint256"
        }
      ],
      "name": "getTotalAssetsStorage",
      "outputs": [
        {
          "internalType": "uint256",
          "name": "totalAssetsByType",
          "type": "uint256"
        }
      ],
      "stateMutability": "view",
      "type": "function"
    },
    {
      "inputs": [],
      "name": "hookReceiver",
      "outputs": [
        {
          "internalType": "address",
          "name": "",
          "type": "address"
        }
      ],
      "stateMutability": "view",
      "type": "function"
    },
    {
      "inputs": [],
      "name": "hookSetup",
      "outputs": [
        {
          "components": [
            {
              "internalType": "address",
              "name": "hookReceiver",
              "type": "address"
            },
            {
              "internalType": "uint24",
              "name": "hooksBefore",
              "type": "uint24"
            },
            {
              "internalType": "uint24",
              "name": "hooksAfter",
              "type": "uint24"
            },
            {
              "internalType": "uint24",
              "name": "tokenType",
              "type": "uint24"
            }
          ],
          "internalType": "struct IShareToken.HookSetup",
          "name": "",
          "type": "tuple"
        }
      ],
      "stateMutability": "view",
      "type": "function"
    },
    {
      "inputs": [
        {
          "internalType": "contract ISiloConfig",
          "name": "_config",
          "type": "address"
        }
      ],
      "name": "initialize",
      "outputs": [],
      "stateMutability": "nonpayable",
      "type": "function"
    },
    {
      "inputs": [
        {
          "internalType": "address",
          "name": "_borrower",
          "type": "address"
        }
      ],
      "name": "isSolvent",
      "outputs": [
        {
          "internalType": "bool",
          "name": "",
          "type": "bool"
        }
      ],
      "stateMutability": "view",
      "type": "function"
    },
    {
      "inputs": [
        {
          "internalType": "uint256",
          "name": "_depositAssets",
          "type": "uint256"
        },
        {
          "internalType": "uint256",
          "name": "_borrowAssets",
          "type": "uint256"
        },
        {
          "internalType": "address",
          "name": "_borrower",
          "type": "address"
        },
        {
          "internalType": "enum ISilo.CollateralType",
          "name": "_collateralType",
          "type": "uint8"
        }
      ],
      "name": "leverageSameAsset",
      "outputs": [
        {
          "internalType": "uint256",
          "name": "depositedShares",
          "type": "uint256"
        },
        {
          "internalType": "uint256",
          "name": "borrowedShares",
          "type": "uint256"
        }
      ],
      "stateMutability": "nonpayable",
      "type": "function"
    },
    {
      "inputs": [
        {
          "internalType": "address",
          "name": "_borrower",
          "type": "address"
        }
      ],
      "name": "maxBorrow",
      "outputs": [
        {
          "internalType": "uint256",
          "name": "maxAssets",
          "type": "uint256"
        }
      ],
      "stateMutability": "view",
      "type": "function"
    },
    {
      "inputs": [
        {
          "internalType": "address",
          "name": "_borrower",
          "type": "address"
        }
      ],
      "name": "maxBorrowSameAsset",
      "outputs": [
        {
          "internalType": "uint256",
          "name": "maxAssets",
          "type": "uint256"
        }
      ],
      "stateMutability": "view",
      "type": "function"
    },
    {
      "inputs": [
        {
          "internalType": "address",
          "name": "_borrower",
          "type": "address"
        }
      ],
      "name": "maxBorrowShares",
      "outputs": [
        {
          "internalType": "uint256",
          "name": "maxShares",
          "type": "uint256"
        }
      ],
      "stateMutability": "view",
      "type": "function"
    },
    {
      "inputs": [
        {
          "internalType": "address",
          "name": "",
          "type": "address"
        }
      ],
      "name": "maxDeposit",
      "outputs": [
        {
          "internalType": "uint256",
          "name": "maxAssets",
          "type": "uint256"
        }
      ],
      "stateMutability": "view",
      "type": "function"
    },
    {
      "inputs": [
        {
          "internalType": "address",
          "name": "",
          "type": "address"
        },
        {
          "internalType": "enum ISilo.CollateralType",
          "name": "_collateralType",
          "type": "uint8"
        }
      ],
      "name": "maxDeposit",
      "outputs": [
        {
          "internalType": "uint256",
          "name": "maxAssets",
          "type": "uint256"
        }
      ],
      "stateMutability": "view",
      "type": "function"
    },
    {
      "inputs": [
        {
          "internalType": "address",
          "name": "_token",
          "type": "address"
        }
      ],
      "name": "maxFlashLoan",
      "outputs": [
        {
          "internalType": "uint256",
          "name": "maxLoan",
          "type": "uint256"
        }
      ],
      "stateMutability": "view",
      "type": "function"
    },
    {
      "inputs": [
        {
          "internalType": "address",
          "name": "",
          "type": "address"
        },
        {
          "internalType": "enum ISilo.CollateralType",
          "name": "_collateralType",
          "type": "uint8"
        }
      ],
      "name": "maxMint",
      "outputs": [
        {
          "internalType": "uint256",
          "name": "maxShares",
          "type": "uint256"
        }
      ],
      "stateMutability": "view",
      "type": "function"
    },
    {
      "inputs": [
        {
          "internalType": "address",
          "name": "",
          "type": "address"
        }
      ],
      "name": "maxMint",
      "outputs": [
        {
          "internalType": "uint256",
          "name": "maxShares",
          "type": "uint256"
        }
      ],
      "stateMutability": "view",
      "type": "function"
    },
    {
      "inputs": [
        {
          "internalType": "address",
          "name": "_owner",
          "type": "address"
        },
        {
          "internalType": "enum ISilo.CollateralType",
          "name": "_collateralType",
          "type": "uint8"
        }
      ],
      "name": "maxRedeem",
      "outputs": [
        {
          "internalType": "uint256",
          "name": "maxShares",
          "type": "uint256"
        }
      ],
      "stateMutability": "view",
      "type": "function"
    },
    {
      "inputs": [
        {
          "internalType": "address",
          "name": "_owner",
          "type": "address"
        }
      ],
      "name": "maxRedeem",
      "outputs": [
        {
          "internalType": "uint256",
          "name": "maxShares",
          "type": "uint256"
        }
      ],
      "stateMutability": "view",
      "type": "function"
    },
    {
      "inputs": [
        {
          "internalType": "address",
          "name": "_borrower",
          "type": "address"
        }
      ],
      "name": "maxRepay",
      "outputs": [
        {
          "internalType": "uint256",
          "name": "assets",
          "type": "uint256"
        }
      ],
      "stateMutability": "view",
      "type": "function"
    },
    {
      "inputs": [
        {
          "internalType": "address",
          "name": "_borrower",
          "type": "address"
        }
      ],
      "name": "maxRepayShares",
      "outputs": [
        {
          "internalType": "uint256",
          "name": "shares",
          "type": "uint256"
        }
      ],
      "stateMutability": "view",
      "type": "function"
    },
    {
      "inputs": [
        {
          "internalType": "address",
          "name": "_owner",
          "type": "address"
        },
        {
          "internalType": "enum ISilo.CollateralType",
          "name": "_collateralType",
          "type": "uint8"
        }
      ],
      "name": "maxWithdraw",
      "outputs": [
        {
          "internalType": "uint256",
          "name": "maxAssets",
          "type": "uint256"
        }
      ],
      "stateMutability": "view",
      "type": "function"
    },
    {
      "inputs": [
        {
          "internalType": "address",
          "name": "_owner",
          "type": "address"
        }
      ],
      "name": "maxWithdraw",
      "outputs": [
        {
          "internalType": "uint256",
          "name": "maxAssets",
          "type": "uint256"
        }
      ],
      "stateMutability": "view",
      "type": "function"
    },
    {
      "inputs": [
        {
          "internalType": "uint256",
          "name": "_shares",
          "type": "uint256"
        },
        {
          "internalType": "address",
          "name": "_receiver",
          "type": "address"
        }
      ],
      "name": "mint",
      "outputs": [
        {
          "internalType": "uint256",
          "name": "assets",
          "type": "uint256"
        }
      ],
      "stateMutability": "nonpayable",
      "type": "function"
    },
    {
      "inputs": [
        {
          "internalType": "uint256",
          "name": "_shares",
          "type": "uint256"
        },
        {
          "internalType": "address",
          "name": "_receiver",
          "type": "address"
        },
        {
          "internalType": "enum ISilo.CollateralType",
          "name": "_collateralType",
          "type": "uint8"
        }
      ],
      "name": "mint",
      "outputs": [
        {
          "internalType": "uint256",
          "name": "assets",
          "type": "uint256"
        }
      ],
      "stateMutability": "nonpayable",
      "type": "function"
    },
    {
      "inputs": [
        {
          "internalType": "address",
          "name": "_owner",
          "type": "address"
        },
        {
          "internalType": "address",
          "name": "",
          "type": "address"
        },
        {
          "internalType": "uint256",
          "name": "_amount",
          "type": "uint256"
        }
      ],
      "name": "mint",
      "outputs": [],
      "stateMutability": "nonpayable",
      "type": "function"
    },
    {
      "inputs": [],
      "name": "name",
      "outputs": [
        {
          "internalType": "string",
          "name": "",
          "type": "string"
        }
      ],
      "stateMutability": "view",
      "type": "function"
    },
    {
      "inputs": [
        {
          "internalType": "address",
          "name": "owner",
          "type": "address"
        }
      ],
      "name": "nonces",
      "outputs": [
        {
          "internalType": "uint256",
          "name": "",
          "type": "uint256"
        }
      ],
      "stateMutability": "view",
      "type": "function"
    },
    {
      "inputs": [
        {
          "internalType": "address",
          "name": "owner",
          "type": "address"
        },
        {
          "internalType": "address",
          "name": "spender",
          "type": "address"
        },
        {
          "internalType": "uint256",
          "name": "value",
          "type": "uint256"
        },
        {
          "internalType": "uint256",
          "name": "deadline",
          "type": "uint256"
        },
        {
          "internalType": "uint8",
          "name": "v",
          "type": "uint8"
        },
        {
          "internalType": "bytes32",
          "name": "r",
          "type": "bytes32"
        },
        {
          "internalType": "bytes32",
          "name": "s",
          "type": "bytes32"
        }
      ],
      "name": "permit",
      "outputs": [],
      "stateMutability": "nonpayable",
      "type": "function"
    },
    {
      "inputs": [
        {
          "internalType": "uint256",
          "name": "_assets",
          "type": "uint256"
        }
      ],
      "name": "previewBorrow",
      "outputs": [
        {
          "internalType": "uint256",
          "name": "shares",
          "type": "uint256"
        }
      ],
      "stateMutability": "view",
      "type": "function"
    },
    {
      "inputs": [
        {
          "internalType": "uint256",
          "name": "_shares",
          "type": "uint256"
        }
      ],
      "name": "previewBorrowShares",
      "outputs": [
        {
          "internalType": "uint256",
          "name": "assets",
          "type": "uint256"
        }
      ],
      "stateMutability": "view",
      "type": "function"
    },
    {
      "inputs": [
        {
          "internalType": "uint256",
          "name": "_assets",
          "type": "uint256"
        },
        {
          "internalType": "enum ISilo.CollateralType",
          "name": "_collateralType",
          "type": "uint8"
        }
      ],
      "name": "previewDeposit",
      "outputs": [
        {
          "internalType": "uint256",
          "name": "shares",
          "type": "uint256"
        }
      ],
      "stateMutability": "view",
      "type": "function"
    },
    {
      "inputs": [
        {
          "internalType": "uint256",
          "name": "_assets",
          "type": "uint256"
        }
      ],
      "name": "previewDeposit",
      "outputs": [
        {
          "internalType": "uint256",
          "name": "shares",
          "type": "uint256"
        }
      ],
      "stateMutability": "view",
      "type": "function"
    },
    {
      "inputs": [
        {
          "internalType": "uint256",
          "name": "_shares",
          "type": "uint256"
        },
        {
          "internalType": "enum ISilo.CollateralType",
          "name": "_collateralType",
          "type": "uint8"
        }
      ],
      "name": "previewMint",
      "outputs": [
        {
          "internalType": "uint256",
          "name": "assets",
          "type": "uint256"
        }
      ],
      "stateMutability": "view",
      "type": "function"
    },
    {
      "inputs": [
        {
          "internalType": "uint256",
          "name": "_shares",
          "type": "uint256"
        }
      ],
      "name": "previewMint",
      "outputs": [
        {
          "internalType": "uint256",
          "name": "assets",
          "type": "uint256"
        }
      ],
      "stateMutability": "view",
      "type": "function"
    },
    {
      "inputs": [
        {
          "internalType": "uint256",
          "name": "_shares",
          "type": "uint256"
        }
      ],
      "name": "previewRedeem",
      "outputs": [
        {
          "internalType": "uint256",
          "name": "assets",
          "type": "uint256"
        }
      ],
      "stateMutability": "view",
      "type": "function"
    },
    {
      "inputs": [
        {
          "internalType": "uint256",
          "name": "_shares",
          "type": "uint256"
        },
        {
          "internalType": "enum ISilo.CollateralType",
          "name": "_collateralType",
          "type": "uint8"
        }
      ],
      "name": "previewRedeem",
      "outputs": [
        {
          "internalType": "uint256",
          "name": "assets",
          "type": "uint256"
        }
      ],
      "stateMutability": "view",
      "type": "function"
    },
    {
      "inputs": [
        {
          "internalType": "uint256",
          "name": "_assets",
          "type": "uint256"
        }
      ],
      "name": "previewRepay",
      "outputs": [
        {
          "internalType": "uint256",
          "name": "shares",
          "type": "uint256"
        }
      ],
      "stateMutability": "view",
      "type": "function"
    },
    {
      "inputs": [
        {
          "internalType": "uint256",
          "name": "_shares",
          "type": "uint256"
        }
      ],
      "name": "previewRepayShares",
      "outputs": [
        {
          "internalType": "uint256",
          "name": "assets",
          "type": "uint256"
        }
      ],
      "stateMutability": "view",
      "type": "function"
    },
    {
      "inputs": [
        {
          "internalType": "uint256",
          "name": "_assets",
          "type": "uint256"
        }
      ],
      "name": "previewWithdraw",
      "outputs": [
        {
          "internalType": "uint256",
          "name": "shares",
          "type": "uint256"
        }
      ],
      "stateMutability": "view",
      "type": "function"
    },
    {
      "inputs": [
        {
          "internalType": "uint256",
          "name": "_assets",
          "type": "uint256"
        },
        {
          "internalType": "enum ISilo.CollateralType",
          "name": "_collateralType",
          "type": "uint8"
        }
      ],
      "name": "previewWithdraw",
      "outputs": [
        {
          "internalType": "uint256",
          "name": "shares",
          "type": "uint256"
        }
      ],
      "stateMutability": "view",
      "type": "function"
    },
    {
      "inputs": [
        {
          "internalType": "uint256",
          "name": "_shares",
          "type": "uint256"
        },
        {
          "internalType": "address",
          "name": "_receiver",
          "type": "address"
        },
        {
          "internalType": "address",
          "name": "_owner",
          "type": "address"
        }
      ],
      "name": "redeem",
      "outputs": [
        {
          "internalType": "uint256",
          "name": "assets",
          "type": "uint256"
        }
      ],
      "stateMutability": "nonpayable",
      "type": "function"
    },
    {
      "inputs": [
        {
          "internalType": "uint256",
          "name": "_shares",
          "type": "uint256"
        },
        {
          "internalType": "address",
          "name": "_receiver",
          "type": "address"
        },
        {
          "internalType": "address",
          "name": "_owner",
          "type": "address"
        },
        {
          "internalType": "enum ISilo.CollateralType",
          "name": "_collateralType",
          "type": "uint8"
        }
      ],
      "name": "redeem",
      "outputs": [
        {
          "internalType": "uint256",
          "name": "assets",
          "type": "uint256"
        }
      ],
      "stateMutability": "nonpayable",
      "type": "function"
    },
    {
      "inputs": [
        {
          "internalType": "uint256",
          "name": "_assets",
          "type": "uint256"
        },
        {
          "internalType": "address",
          "name": "_borrower",
          "type": "address"
        }
      ],
      "name": "repay",
      "outputs": [
        {
          "internalType": "uint256",
          "name": "shares",
          "type": "uint256"
        }
      ],
      "stateMutability": "nonpayable",
      "type": "function"
    },
    {
      "inputs": [
        {
          "internalType": "uint256",
          "name": "_shares",
          "type": "uint256"
        },
        {
          "internalType": "address",
          "name": "_borrower",
          "type": "address"
        }
      ],
      "name": "repayShares",
      "outputs": [
        {
          "internalType": "uint256",
          "name": "assets",
          "type": "uint256"
        }
      ],
      "stateMutability": "nonpayable",
      "type": "function"
    },
    {
      "inputs": [],
      "name": "silo",
      "outputs": [
        {
          "internalType": "contract ISilo",
          "name": "",
          "type": "address"
        }
      ],
      "stateMutability": "view",
      "type": "function"
    },
    {
      "inputs": [],
      "name": "siloConfig",
      "outputs": [
        {
          "internalType": "contract ISiloConfig",
          "name": "",
          "type": "address"
        }
      ],
      "stateMutability": "view",
      "type": "function"
    },
    {
      "inputs": [],
      "name": "switchCollateralToThisSilo",
      "outputs": [],
      "stateMutability": "nonpayable",
      "type": "function"
    },
    {
      "inputs": [],
      "name": "symbol",
      "outputs": [
        {
          "internalType": "string",
          "name": "",
          "type": "string"
        }
      ],
      "stateMutability": "view",
      "type": "function"
    },
    {
      "inputs": [
        {
          "internalType": "uint24",
          "name": "_hooksBefore",
          "type": "uint24"
        },
        {
          "internalType": "uint24",
          "name": "_hooksAfter",
          "type": "uint24"
        }
      ],
      "name": "synchronizeHooks",
      "outputs": [],
      "stateMutability": "nonpayable",
      "type": "function"
    },
    {
      "inputs": [],
      "name": "totalAssets",
      "outputs": [
        {
          "internalType": "uint256",
          "name": "totalManagedAssets",
          "type": "uint256"
        }
      ],
      "stateMutability": "view",
      "type": "function"
    },
    {
      "inputs": [],
      "name": "totalSupply",
      "outputs": [
        {
          "internalType": "uint256",
          "name": "",
          "type": "uint256"
        }
      ],
      "stateMutability": "view",
      "type": "function"
    },
    {
      "inputs": [
        {
          "internalType": "address",
          "name": "_to",
          "type": "address"
        },
        {
          "internalType": "uint256",
          "name": "_amount",
          "type": "uint256"
        }
      ],
      "name": "transfer",
      "outputs": [
        {
          "internalType": "bool",
          "name": "result",
          "type": "bool"
        }
      ],
      "stateMutability": "nonpayable",
      "type": "function"
    },
    {
      "inputs": [
        {
          "internalType": "address",
          "name": "_from",
          "type": "address"
        },
        {
          "internalType": "address",
          "name": "_to",
          "type": "address"
        },
        {
          "internalType": "uint256",
          "name": "_amount",
          "type": "uint256"
        }
      ],
      "name": "transferFrom",
      "outputs": [
        {
          "internalType": "bool",
          "name": "result",
          "type": "bool"
        }
      ],
      "stateMutability": "nonpayable",
      "type": "function"
    },
    {
      "inputs": [
        {
          "internalType": "uint256",
          "name": "_shares",
          "type": "uint256"
        },
        {
          "internalType": "address",
          "name": "_owner",
          "type": "address"
        },
        {
          "internalType": "enum ISilo.CollateralType",
          "name": "_transitionFrom",
          "type": "uint8"
        }
      ],
      "name": "transitionCollateral",
      "outputs": [
        {
          "internalType": "uint256",
          "name": "assets",
          "type": "uint256"
        }
      ],
      "stateMutability": "nonpayable",
      "type": "function"
    },
    {
      "inputs": [],
      "name": "updateHooks",
      "outputs": [],
      "stateMutability": "nonpayable",
      "type": "function"
    },
    {
      "inputs": [],
      "name": "utilizationData",
      "outputs": [
        {
          "components": [
            {
              "internalType": "uint256",
              "name": "collateralAssets",
              "type": "uint256"
            },
            {
              "internalType": "uint256",
              "name": "debtAssets",
              "type": "uint256"
            },
            {
              "internalType": "uint64",
              "name": "interestRateTimestamp",
              "type": "uint64"
            }
          ],
          "internalType": "struct ISilo.UtilizationData",
          "name": "",
          "type": "tuple"
        }
      ],
      "stateMutability": "view",
      "type": "function"
    },
    {
      "inputs": [
        {
          "internalType": "uint256",
          "name": "_assets",
          "type": "uint256"
        },
        {
          "internalType": "address",
          "name": "_receiver",
          "type": "address"
        },
        {
          "internalType": "address",
          "name": "_owner",
          "type": "address"
        }
      ],
      "name": "withdraw",
      "outputs": [
        {
          "internalType": "uint256",
          "name": "shares",
          "type": "uint256"
        }
      ],
      "stateMutability": "nonpayable",
      "type": "function"
    },
    {
      "inputs": [
        {
          "internalType": "uint256",
          "name": "_assets",
          "type": "uint256"
        },
        {
          "internalType": "address",
          "name": "_receiver",
          "type": "address"
        },
        {
          "internalType": "address",
          "name": "_owner",
          "type": "address"
        },
        {
          "internalType": "enum ISilo.CollateralType",
          "name": "_collateralType",
          "type": "uint8"
        }
      ],
      "name": "withdraw",
      "outputs": [
        {
          "internalType": "uint256",
          "name": "shares",
          "type": "uint256"
        }
      ],
      "stateMutability": "nonpayable",
      "type": "function"
    },
    {
      "inputs": [],
      "name": "withdrawFees",
      "outputs": [],
      "stateMutability": "nonpayable",
      "type": "function"
    },
    {
      "anonymous": false,
      "inputs": [
        {
          "indexed": false,
          "internalType": "uint256",
          "name": "hooksBefore",
          "type": "uint256"
        }
      ],
      "name": "AccruedInterest",
      "type": "event"
    },
    {
      "anonymous": false,
      "inputs": [
        {
          "indexed": true,
          "internalType": "address",
          "name": "owner",
          "type": "address"
        },
        {
          "indexed": true,
          "internalType": "address",
          "name": "spender",
          "type": "address"
        },
        {
          "indexed": false,
          "internalType": "uint256",
          "name": "value",
          "type": "uint256"
        }
      ],
      "name": "Approval",
      "type": "event"
    },
    {
      "anonymous": false,
      "inputs": [
        {
          "indexed": true,
          "internalType": "address",
          "name": "sender",
          "type": "address"
        },
        {
          "indexed": true,
          "internalType": "address",
          "name": "receiver",
          "type": "address"
        },
        {
          "indexed": true,
          "internalType": "address",
          "name": "owner",
          "type": "address"
        },
        {
          "indexed": false,
          "internalType": "uint256",
          "name": "assets",
          "type": "uint256"
        },
        {
          "indexed": false,
          "internalType": "uint256",
          "name": "shares",
          "type": "uint256"
        }
      ],
      "name": "Borrow",
      "type": "event"
    },
    {
      "anonymous": false,
      "inputs": [
        {
          "indexed": true,
          "internalType": "address",
          "name": "borrower",
          "type": "address"
        }
      ],
      "name": "CollateralTypeChanged",
      "type": "event"
    },
    {
      "anonymous": false,
      "inputs": [
        {
          "indexed": true,
          "internalType": "address",
          "name": "sender",
          "type": "address"
        },
        {
          "indexed": true,
          "internalType": "address",
          "name": "owner",
          "type": "address"
        },
        {
          "indexed": false,
          "internalType": "uint256",
          "name": "assets",
          "type": "uint256"
        },
        {
          "indexed": false,
          "internalType": "uint256",
          "name": "shares",
          "type": "uint256"
        }
      ],
      "name": "Deposit",
      "type": "event"
    },
    {
      "anonymous": false,
      "inputs": [
        {
          "indexed": true,
          "internalType": "address",
          "name": "sender",
          "type": "address"
        },
        {
          "indexed": true,
          "internalType": "address",
          "name": "owner",
          "type": "address"
        },
        {
          "indexed": false,
          "internalType": "uint256",
          "name": "assets",
          "type": "uint256"
        },
        {
          "indexed": false,
          "internalType": "uint256",
          "name": "shares",
          "type": "uint256"
        }
      ],
      "name": "DepositProtected",
      "type": "event"
    },
    {
      "anonymous": false,
      "inputs": [],
      "name": "EIP712DomainChanged",
      "type": "event"
    },
    {
      "anonymous": false,
      "inputs": [
        {
          "indexed": false,
          "internalType": "uint256",
          "name": "amount",
          "type": "uint256"
        }
      ],
      "name": "FlashLoan",
      "type": "event"
    },
    {
      "anonymous": false,
      "inputs": [
        {
          "indexed": false,
          "internalType": "uint24",
          "name": "hooksBefore",
          "type": "uint24"
        },
        {
          "indexed": false,
          "internalType": "uint24",
          "name": "hooksAfter",
          "type": "uint24"
        }
      ],
      "name": "HooksUpdated",
      "type": "event"
    },
    {
      "anonymous": false,
      "inputs": [
        {
          "indexed": false,
          "internalType": "uint64",
          "name": "version",
          "type": "uint64"
        }
      ],
      "name": "Initialized",
      "type": "event"
    },
    {
      "anonymous": false,
      "inputs": [
        {
          "indexed": true,
          "internalType": "address",
          "name": "notificationReceiver",
          "type": "address"
        },
        {
          "indexed": false,
          "internalType": "bool",
          "name": "success",
          "type": "bool"
        }
      ],
      "name": "NotificationSent",
      "type": "event"
    },
    {
      "anonymous": false,
      "inputs": [
        {
          "indexed": true,
          "internalType": "address",
          "name": "sender",
          "type": "address"
        },
        {
          "indexed": true,
          "internalType": "address",
          "name": "owner",
          "type": "address"
        },
        {
          "indexed": false,
          "internalType": "uint256",
          "name": "assets",
          "type": "uint256"
        },
        {
          "indexed": false,
          "internalType": "uint256",
          "name": "shares",
          "type": "uint256"
        }
      ],
      "name": "Repay",
      "type": "event"
    },
    {
      "anonymous": false,
      "inputs": [
        {
          "indexed": true,
          "internalType": "address",
          "name": "from",
          "type": "address"
        },
        {
          "indexed": true,
          "internalType": "address",
          "name": "to",
          "type": "address"
        },
        {
          "indexed": false,
          "internalType": "uint256",
          "name": "value",
          "type": "uint256"
        }
      ],
      "name": "Transfer",
      "type": "event"
    },
    {
      "anonymous": false,
      "inputs": [
        {
          "indexed": true,
          "internalType": "address",
          "name": "sender",
          "type": "address"
        },
        {
          "indexed": true,
          "internalType": "address",
          "name": "receiver",
          "type": "address"
        },
        {
          "indexed": true,
          "internalType": "address",
          "name": "owner",
          "type": "address"
        },
        {
          "indexed": false,
          "internalType": "uint256",
          "name": "assets",
          "type": "uint256"
        },
        {
          "indexed": false,
          "internalType": "uint256",
          "name": "shares",
          "type": "uint256"
        }
      ],
      "name": "Withdraw",
      "type": "event"
    },
    {
      "anonymous": false,
      "inputs": [
        {
          "indexed": true,
          "internalType": "address",
          "name": "sender",
          "type": "address"
        },
        {
          "indexed": true,
          "internalType": "address",
          "name": "receiver",
          "type": "address"
        },
        {
          "indexed": true,
          "internalType": "address",
          "name": "owner",
          "type": "address"
        },
        {
          "indexed": false,
          "internalType": "uint256",
          "name": "assets",
          "type": "uint256"
        },
        {
          "indexed": false,
          "internalType": "uint256",
          "name": "shares",
          "type": "uint256"
        }
      ],
      "name": "WithdrawProtected",
      "type": "event"
    },
    {
      "inputs": [],
      "name": "AboveMaxLtv",
      "type": "error"
    },
    {
      "inputs": [],
      "name": "AmountExceedsAllowance",
      "type": "error"
    },
    {
      "inputs": [],
      "name": "BorrowNotPossible",
      "type": "error"
    },
    {
      "inputs": [],
      "name": "CollateralSiloAlreadySet",
      "type": "error"
    },
    {
      "inputs": [],
      "name": "CrossReentrantCall",
      "type": "error"
    },
    {
      "inputs": [],
      "name": "ECDSAInvalidSignature",
      "type": "error"
    },
    {
      "inputs": [
        {
          "internalType": "uint256",
          "name": "length",
          "type": "uint256"
        }
      ],
      "name": "ECDSAInvalidSignatureLength",
      "type": "error"
    },
    {
      "inputs": [
        {
          "internalType": "bytes32",
          "name": "s",
          "type": "bytes32"
        }
      ],
      "name": "ECDSAInvalidSignatureS",
      "type": "error"
    },
    {
      "inputs": [
        {
          "internalType": "address",
          "name": "spender",
          "type": "address"
        },
        {
          "internalType": "uint256",
          "name": "allowance",
          "type": "uint256"
        },
        {
          "internalType": "uint256",
          "name": "needed",
          "type": "uint256"
        }
      ],
      "name": "ERC20InsufficientAllowance",
      "type": "error"
    },
    {
      "inputs": [
        {
          "internalType": "address",
          "name": "sender",
          "type": "address"
        },
        {
          "internalType": "uint256",
          "name": "balance",
          "type": "uint256"
        },
        {
          "internalType": "uint256",
          "name": "needed",
          "type": "uint256"
        }
      ],
      "name": "ERC20InsufficientBalance",
      "type": "error"
    },
    {
      "inputs": [
        {
          "internalType": "address",
          "name": "approver",
          "type": "address"
        }
      ],
      "name": "ERC20InvalidApprover",
      "type": "error"
    },
    {
      "inputs": [
        {
          "internalType": "address",
          "name": "receiver",
          "type": "address"
        }
      ],
      "name": "ERC20InvalidReceiver",
      "type": "error"
    },
    {
      "inputs": [
        {
          "internalType": "address",
          "name": "sender",
          "type": "address"
        }
      ],
      "name": "ERC20InvalidSender",
      "type": "error"
    },
    {
      "inputs": [
        {
          "internalType": "address",
          "name": "spender",
          "type": "address"
        }
      ],
      "name": "ERC20InvalidSpender",
      "type": "error"
    },
    {
      "inputs": [
        {
          "internalType": "uint256",
          "name": "deadline",
          "type": "uint256"
        }
      ],
      "name": "ERC2612ExpiredSignature",
      "type": "error"
    },
    {
      "inputs": [
        {
          "internalType": "address",
          "name": "signer",
          "type": "address"
        },
        {
          "internalType": "address",
          "name": "owner",
          "type": "address"
        }
      ],
      "name": "ERC2612InvalidSigner",
      "type": "error"
    },
    {
      "inputs": [],
      "name": "EarnedZero",
      "type": "error"
    },
    {
      "inputs": [],
      "name": "FlashloanFailed",
      "type": "error"
    },
    {
      "inputs": [],
      "name": "Forbidden",
      "type": "error"
    },
    {
      "inputs": [],
      "name": "InputCanBeAssetsOrShares",
      "type": "error"
    },
    {
      "inputs": [],
      "name": "Insolvency",
      "type": "error"
    },
    {
      "inputs": [
        {
          "internalType": "address",
          "name": "account",
          "type": "address"
        },
        {
          "internalType": "uint256",
          "name": "currentNonce",
          "type": "uint256"
        }
      ],
      "name": "InvalidAccountNonce",
      "type": "error"
    },
    {
      "inputs": [],
      "name": "InvalidInitialization",
      "type": "error"
    },
    {
      "inputs": [],
      "name": "LeverageFailed",
      "type": "error"
    },
    {
      "inputs": [],
      "name": "LeverageTooHigh",
      "type": "error"
    },
    {
      "inputs": [],
      "name": "NoDebt",
      "type": "error"
    },
    {
      "inputs": [],
      "name": "NoLiquidity",
      "type": "error"
    },
    {
      "inputs": [],
      "name": "NotEnoughLiquidity",
      "type": "error"
    },
    {
      "inputs": [],
      "name": "NotInitializing",
      "type": "error"
    },
    {
      "inputs": [],
      "name": "NotSolvent",
      "type": "error"
    },
    {
      "inputs": [],
      "name": "NothingToWithdraw",
      "type": "error"
    },
    {
      "inputs": [],
      "name": "OnlyHookReceiver",
      "type": "error"
    },
    {
      "inputs": [],
      "name": "OnlySilo",
      "type": "error"
    },
    {
      "inputs": [],
      "name": "OnlySiloConfig",
      "type": "error"
    },
    {
      "inputs": [],
      "name": "OwnerIsZero",
      "type": "error"
    },
    {
      "inputs": [],
      "name": "RecipientIsZero",
      "type": "error"
    },
    {
      "inputs": [],
      "name": "RecipientNotSolventAfterTransfer",
      "type": "error"
    },
    {
      "inputs": [],
      "name": "RepayTooHigh",
      "type": "error"
    },
    {
      "inputs": [],
      "name": "SenderNotSolventAfterTransfer",
      "type": "error"
    },
    {
      "inputs": [],
      "name": "ShareTransferNotAllowed",
      "type": "error"
    },
    {
      "inputs": [],
      "name": "SiloInitialized",
      "type": "error"
    },
    {
      "inputs": [],
      "name": "ThereIsDebtInOtherSilo",
      "type": "error"
    },
    {
      "inputs": [],
      "name": "TwoAssetsDebt",
      "type": "error"
    },
    {
      "inputs": [],
      "name": "Unsupported",
      "type": "error"
    },
    {
      "inputs": [],
      "name": "WrongToken",
      "type": "error"
    },
    {
      "inputs": [],
      "name": "ZeroAssets",
      "type": "error"
    },
    {
      "inputs": [],
      "name": "ZeroShares",
      "type": "error"
    },
    {
      "inputs": [],
      "name": "ZeroTransfer",
      "type": "error"
    }
  ],
  "bytecode": "0x60a060405234801562000010575f80fd5b506040516200585d3803806200585d833981016040819052620000339162000103565b6200003d6200004f565b6001600160a01b031660805262000132565b7ff0c57e16840df040f15088dc2f81fe391c3923bec73e23a9662efc9c229c6a00805468010000000000000000900460ff1615620000a05760405163f92ee8a960e01b815260040160405180910390fd5b80546001600160401b0390811614620001005780546001600160401b0319166001600160401b0390811782556040519081527fc7f505b2f371ae2175ee4913f4499e1f2633a7b5936321eed1cdaeb6115181d29060200160405180910390a15b50565b5f6020828403121562000114575f80fd5b81516001600160a01b03811681146200012b575f80fd5b9392505050565b6080516157126200014b5f395f610e0301526157125ff3fe6080604052600436106104c9575f3560e01c80638fea806211610278578063c4d66de811610155578063d9d98ce4116100c9578063eb3beb2911610083578063eb3beb291461100a578063ecd658b41461101c578063ef8b30f714611030578063f6b911bc1461104f578063fa9b1c6a1461106e578063ffbaaf7a1461108d575f80fd5b8063d9d98ce414610f50578063da53766014610f6f578063dce5c2db14610f8e578063dd62ed3e14610fad578063e36754eb14610fcc578063e72bec5714610feb575f80fd5b8063ce96cb771161011a578063ce96cb7714610eb5578063d505accf14610ed4578063d516418414610ef3578063d714fd1914610a70578063d905777e14610f12578063d985616c14610f31575f80fd5b8063c4d66de814610e25578063c63d75b614610e44578063c6c3bbe614610e63578063c6e6f59214610e82578063cad1aacf14610ea1575f80fd5b8063acb70815116101ec578063b8337c2a116101b1578063b8337c2a14610d57578063ba08765214610d76578063ba8ffe6514610d95578063bf722ca214610db4578063c061ddc714610dd3578063c45a015514610df2575f80fd5b8063acb7081514610cbc578063b17a124714610cdb578063b3d7f6b914610cfa578063b460af9414610d19578063b7ec8d4b14610d38575f80fd5b80639ef2fda01161023d5780639ef2fda014610c03578063a1ecef5c14610c42578063a1ff9bee14610c56578063a6afed9514610c6a578063a7d6e44b14610c7e578063a9059cbb14610c9d575f80fd5b80638fea806214610b2757806394bf804d14610b6357806395d89b4114610b8257806397a9d45714610b965780639d35abaf14610bb5575f80fd5b8063421a1aee116103a65780636e1f8f7e1161031a57806379502c55116102df57806379502c5514610a705780637ecebe0014610a845780637fe2c8b714610aa35780637ff0007714610ac257806384b0196e14610ae1578063889576f714610b08575f80fd5b80636e1f8f7e146109d55780636e236614146109f45780636e553f6514610a1357806370a0823114610a3257806378007e2314610a51575f80fd5b8063571b95441161036b578063571b95441461091b5780635cffe9de1461093a5780635d0868f6146109595780635d4086af146109785780635f30114914610997578063613255ab146109b6575f80fd5b8063421a1aee146108875780634624c6a7146108a6578063476343ee146108c75780634c7b0f3c146108dd5780634cdad506146108fc575f80fd5b806318160ddd1161043d5780633644e515116104025780633644e515146107be57806338b51ce1146107d257806338d52e0f146107f157806339c5c5051461081d578063402d267d14610831578063402de7d814610850575f80fd5b806318160ddd1461070857806323b872dd1461073b578063267e54a71461075a57806329d6509a14610779578063313ce56714610798575f80fd5b80630910a5101161048e5780630910a5101461058e578063095ea7b3146105a25780630a28a477146105d15780630ed4fe31146105f057806311b5e682146106ca57806312d4c574146106e9575f80fd5b806301e1d114146104d4578063066846e1146104fb57806306fdde031461052f578063071bf3ff1461055057806307a2d13a1461056f575f80fd5b366104d057005b5f80fd5b3480156104df575f80fd5b506104e86110a1565b6040519081526020015b60405180910390f35b348015610506575f80fd5b5061051a610515366004614a78565b6110b2565b604080519283526020830191909152016104f2565b34801561053a575f80fd5b50610543611267565b6040516104f29190614b0c565b34801561055b575f80fd5b506104e861056a366004614b1e565b6112db565b34801561057a575f80fd5b506104e8610589366004614b55565b6112ee565b348015610599575f80fd5b506104e861130d565b3480156105ad575f80fd5b506105c16105bc366004614b6c565b61131e565b60405190151581526020016104f2565b3480156105dc575f80fd5b506104e86105eb366004614b55565b611340565b3480156105fb575f80fd5b50610681604080516080810182525f8082526020820181905291810182905260608101919091525f8051602061561d83398151915260408051608081018252600292909201546001600160a01b038116835262ffffff600160a01b820481166020850152600160b81b8204811692840192909252600160d01b9004166060820152919050565b6040516104f2919081516001600160a01b0316815260208083015162ffffff90811691830191909152604080840151821690830152606092830151169181019190915260800190565b3480156106d5575f80fd5b506104e86106e4366004614b96565b611352565b3480156106f4575f80fd5b506104e8610703366004614b1e565b61135d565b348015610713575f80fd5b507f52c63247e1f47db19d5ce0460030c497f067ca4cebf71ba98eeadabe20bace02546104e8565b348015610746575f80fd5b506105c1610755366004614bb9565b611370565b348015610765575f80fd5b506104e8610774366004614b96565b6113df565b348015610784575f80fd5b506104e8610793366004614bf7565b6113ea565b3480156107a3575f80fd5b506107ac611464565b60405160ff90911681526020016104f2565b3480156107c9575f80fd5b506104e86114d0565b3480156107dd575f80fd5b506105c16107ec366004614bf7565b6114d9565b3480156107fc575f80fd5b50610805611555565b6040516001600160a01b0390911681526020016104f2565b348015610828575f80fd5b5061051a6115c6565b34801561083c575f80fd5b506104e861084b366004614bf7565b6115d9565b34801561085b575f80fd5b506104e861086a366004614b55565b5f9081525f8051602061569d833981519152602052604090205490565b348015610892575f80fd5b506104e86108a1366004614bf7565b6115e4565b6108b96108b4366004614c4f565b611666565b6040516104f2929190614cbc565b3480156108d2575f80fd5b506108db611684565b005b3480156108e8575f80fd5b506108db6108f7366004614ce6565b6116ed565b348015610907575f80fd5b506104e8610916366004614b55565b611781565b348015610926575f80fd5b506104e8610935366004614bf7565b61178d565b348015610945575f80fd5b506105c1610954366004614d12565b611817565b348015610964575f80fd5b506104e8610973366004614b1e565b6118dc565b348015610983575f80fd5b506104e8610992366004614d62565b6118e6565b3480156109a2575f80fd5b506104e86109b1366004614bf7565b611903565b3480156109c1575f80fd5b506104e86109d0366004614bf7565b611980565b3480156109e0575f80fd5b506104e86109ef366004614b96565b611a51565b3480156109ff575f80fd5b506108db610a0e366004614d88565b611a5c565b348015610a1e575f80fd5b506104e8610a2d366004614dba565b611aa0565b348015610a3d575f80fd5b506104e8610a4c366004614bf7565b611aae565b348015610a5c575f80fd5b506104e8610a6b366004614b55565b611ade565b348015610a7b575f80fd5b50610805611afe565b348015610a8f575f80fd5b506104e8610a9e366004614bf7565b611b07565b348015610aae575f80fd5b506104e8610abd366004614ddd565b611b11565b348015610acd575f80fd5b506104e8610adc366004614d62565b611c0a565b348015610aec575f80fd5b50610af5611c49565b6040516104f29796959493929190614e1c565b348015610b13575f80fd5b506104e8610b22366004614ddd565b611cf7565b348015610b32575f80fd5b507f01b0b3f9d6e360167e522fa2b18ba597ad7b2b35841fec7e1ca4dbb0adea1202546001600160a01b0316610805565b348015610b6e575f80fd5b506104e8610b7d366004614dba565b611de4565b348015610b8d575f80fd5b50610543611df2565b348015610ba1575f80fd5b506104e8610bb0366004614bf7565b611e3a565b348015610bc0575f80fd5b50610bc9611e83565b604080516001600160c01b0390961686526001600160401b039094166020860152928401919091526060830152608082015260a0016104f2565b348015610c0e575f80fd5b50610c17611f35565b604080518251815260208084015190820152918101516001600160401b0316908201526060016104f2565b348015610c4d575f80fd5b506108db611f67565b348015610c61575f80fd5b506104e8611feb565b348015610c75575f80fd5b506104e8611ff4565b348015610c89575f80fd5b506104e8610c98366004614b96565b611ffd565b348015610ca8575f80fd5b506105c1610cb7366004614b6c565b612008565b348015610cc7575f80fd5b506104e8610cd6366004614dba565b612075565b348015610ce6575f80fd5b506104e8610cf5366004614b1e565b61215a565b348015610d05575f80fd5b506104e8610d14366004614b55565b6121ae565b348015610d24575f80fd5b506104e8610d33366004614ddd565b6121ba565b348015610d43575f80fd5b506104e8610d52366004614eb3565b6121ca565b348015610d62575f80fd5b506104e8610d71366004614ee7565b6121d7565b348015610d81575f80fd5b506104e8610d90366004614ddd565b6121f0565b348015610da0575f80fd5b506104e8610daf366004614b55565b61220b565b348015610dbf575f80fd5b506104e8610dce366004614b55565b61222a565b348015610dde575f80fd5b506104e8610ded366004614eb3565b612249565b348015610dfd575f80fd5b506108057f000000000000000000000000000000000000000000000000000000000000000081565b348015610e30575f80fd5b506108db610e3f366004614bf7565b61225f565b348015610e4f575f80fd5b506104e8610e5e366004614bf7565b6122ee565b348015610e6e575f80fd5b506108db610e7d366004614bb9565b612328565b348015610e8d575f80fd5b506104e8610e9c366004614b55565b612370565b348015610eac575f80fd5b506108db61238f565b348015610ec0575f80fd5b506104e8610ecf366004614bf7565b612444565b348015610edf575f80fd5b506108db610eee366004614f2a565b612450565b348015610efe575f80fd5b506104e8610f0d366004614ddd565b612473565b348015610f1d575f80fd5b506104e8610f2c366004614bf7565b6124d4565b348015610f3c575f80fd5b506108db610f4b366004614bb9565b6124e0565b348015610f5b575f80fd5b506104e8610f6a366004614b6c565b61256e565b348015610f7a575f80fd5b506104e8610f89366004614ee7565b6125b7565b348015610f99575f80fd5b5061051a610fa8366004614bf7565b6125c6565b348015610fb8575f80fd5b506104e8610fc7366004614f96565b6125fd565b348015610fd7575f80fd5b506104e8610fe6366004614dba565b612646565b348015610ff6575f80fd5b506104e8611005366004614b55565b612720565b348015611015575f80fd5b5030610805565b348015611027575f80fd5b506104e8612740565b34801561103b575f80fd5b506104e861104a366004614b55565b612749565b34801561105a575f80fd5b506108db611069366004614bb9565b612755565b348015611079575f80fd5b506104e8611088366004614eb3565b6127bc565b348015611098575f80fd5b5061051a6129ae565b5f6110ac60016129b8565b50919050565b5f8073__$1c8c6ee4f595ff59af83bdc8e432701c1d$__63f893879d6040518060800160405280898152602001888152602001876001600160a01b0316815260200186600181111561110657611106614fc2565b8152506040518263ffffffff1660e01b81526004016111259190614ff6565b6040805180830381865af415801561113f573d5f803e3d5ffd5b505050506040513d601f19601f82011682018060405250810190611163919061502e565b60408051888152602081018390529294509092506001600160a01b03861691829133917f96558a334f4759f0e7c423d68c84721860bd8fbf94ddc4e55158ecb125ad04b5910160405180910390a460018360018111156111c5576111c5614fc2565b036112165760408051878152602081018490526001600160a01b0386169133917fdcbc1c05240f31ff3ad067ef1ee35ce4997762752e3a095284754544f4c709d791015b60405180910390a361125e565b60408051878152602081018490526001600160a01b0386169133917f1ad348f5de3e19e23d88e34248ceb6ab09804a35a3abc0e7758045b7b9036acd91015b60405180910390a35b94509492505050565b606073__$e36323ec861de5853ea34405a6a6c240f5$__6306fdde036040518163ffffffff1660e01b81526004015f60405180830381865af41580156112af573d5f803e3d5ffd5b505050506040513d5f823e601f3d908101601f191682016040526112d6919081019061508d565b905090565b5f6112e683836129cb565b949350505050565b5f805f6112fb60016129b8565b915091506112e68483835f6001612a50565b5f6112d6611319612a8b565b612ab9565b5f61132f61132a612a8b565b612b47565b6113398383612bc8565b9392505050565b5f61134c826001612bdf565b92915050565b5f6113398383612c23565b5f61136883836129cb565b509392505050565b5f8061137a612c67565b9050611387858585612cc3565b9150806001600160a01b03166362402b046040518163ffffffff1660e01b81526004015f604051808303815f87803b1580156113c1575f80fd5b505af11580156113d3573d5f803e3d5ffd5b50505050509392505050565b5f6113398383612bdf565b5f806113f4612ce6565b60c08101516040516370a0823160e01b81526001600160a01b0386811660048301529293509116906370a0823190602401602060405180830381865afa158015611440573d5f803e3d5ffd5b505050506040513d601f19601f820116820180604052508101906113399190615134565b5f73__$e36323ec861de5853ea34405a6a6c240f5$__63313ce5676040518163ffffffff1660e01b8152600401602060405180830381865af41580156114ac573d5f803e3d5ffd5b505050506040513d601f19601f820116820180604052508101906112d6919061514b565b5f6112d6612de0565b6040516338b51ce160e01b81526001600160a01b03821660048201525f9073__$882f5dc3094afdd9d0e814b3c0cd9c4ee7$__906338b51ce190602401602060405180830381865af4158015611531573d5f803e3d5ffd5b505050506040513d601f19601f8201168201806040525081019061134c919061517a565b5f61155e612a8b565b6040516307439b4960e01b81523060048201526001600160a01b0391909116906307439b4990602401602060405180830381865afa1580156115a2573d5f803e3d5ffd5b505050506040513d601f19601f820116820180604052508101906112d6919061519e565b5f806115d0612de9565b90939092509050565b5f61134c6001612e3b565b604051634383e19f60e11b81526001600160a01b03821660048201525f602482018190529073__$882f5dc3094afdd9d0e814b3c0cd9c4ee7$__90638707c33e906044016040805180830381865af4158015611642573d5f803e3d5ffd5b505050506040513d601f19601f82011682018060405250810190611339919061502e565b5f60606116768787878787612e77565b909890975095505050505050565b61168c612f9a565b50604051631123456160e31b815230600482015273__$1c8c6ee4f595ff59af83bdc8e432701c1d$__9063891a2b08906024015f6040518083038186803b1580156116d5575f80fd5b505af41580156116e7573d5f803e3d5ffd5b50505050565b6116f5612fc3565b6001600160a01b0316336001600160a01b031614611726576040516310528c6d60e11b815260040160405180910390fd5b7f01b0b3f9d6e360167e522fa2b18ba597ad7b2b35841fec7e1ca4dbb0adea1202805465ffffffffffff60a01b1916600160a01b62ffffff9485160262ffffff60b81b191617600160b81b9290931691909102919091179055565b5f61134c826001612fde565b604051634383e19f60e11b81526001600160a01b0382166004820152600160248201525f9073__$882f5dc3094afdd9d0e814b3c0cd9c4ee7$__90638707c33e906044015b6040805180830381865af41580156117ec573d5f803e3d5ffd5b505050506040513d601f19601f82011682018060405250810190611810919061502e565b5092915050565b6040516369f958a560e11b81525f9073__$1c8c6ee4f595ff59af83bdc8e432701c1d$__9063d3f2b14a9061185890899089908990899089906004016151b9565b602060405180830381865af4158015611873573d5f803e3d5ffd5b505050506040513d601f19601f82011682018060405250810190611897919061517a565b905080156118d3576040518481527f97bf554031869ec4edcf72b0dcdc2234dd406afe091f3631be088f348e1795749060200160405180910390a15b95945050505050565b5f61133982612e3b565b5f805f6118f2846129b8565b915091506118d38583835f88613021565b604051635f30114960e01b81526001600160a01b03821660048201525f9073__$882f5dc3094afdd9d0e814b3c0cd9c4ee7$__90635f301149906024015b602060405180830381865af415801561195c573d5f803e3d5ffd5b505050506040513d601f19601f8201168201806040525081019061134c9190615134565b5f611989612a8b565b6040516307439b4960e01b81523060048201526001600160a01b0391909116906307439b4990602401602060405180830381865afa1580156119cd573d5f803e3d5ffd5b505050506040513d601f19601f820116820180604052508101906119f1919061519e565b6001600160a01b0316826001600160a01b031614611a0f575f61134c565b6040516370a0823160e01b81523060048201526001600160a01b038316906370a0823190602401602060405180830381865afa15801561195c573d5f803e3d5ffd5b5f6113398383613050565b611a64612a8b565b6001600160a01b0316336001600160a01b031614611a95576040516359d74a4160e01b815260040160405180910390fd5b6116e7838383613093565b5f6112e6835f84600161315f565b5f805f8051602061563d8339815191525b6001600160a01b039093165f9081526020939093525050604090205490565b5f805f611aeb60026129b8565b915091506112e684838360016002613021565b5f6112d6612a8b565b5f61134c82613280565b604080516080810182528481525f602082018190526001600160a01b0380861683850152841660608301529151639a2f31f160e01b8152829173__$1c8c6ee4f595ff59af83bdc8e432701c1d$__91639a2f31f191611b729160040161520b565b6040805180830381865af4158015611b8c573d5f803e3d5ffd5b505050506040513d601f19601f82011682018060405250810190611bb0919061502e565b60408051838152602081018390529194509192506001600160a01b03808616929087169133917f96558a334f4759f0e7c423d68c84721860bd8fbf94ddc4e55158ecb125ad04b591015b60405180910390a4509392505050565b5f805f611c16846129b8565b90925090506118d38583836002886002811115611c3557611c35614fc2565b14611c40575f611c43565b60015b88612a50565b5f60608082808083815f8051602061567d8339815191528054909150158015611c7457506001810154155b611cbd5760405162461bcd60e51b81526020600482015260156024820152741152540dcc4c8e88155b9a5b9a5d1a585b1a5e9959605a1b60448201526064015b60405180910390fd5b611cc56132a8565b611ccd613368565b604080515f80825260208201909252600f60f81b9c939b5091995046985030975095509350915050565b604080516080810182525f808252602082018690526001600160a01b0380861683850152841660608301529151635937128b60e01b8152829173__$1c8c6ee4f595ff59af83bdc8e432701c1d$__91635937128b91611d589160040161520b565b6040805180830381865af4158015611d72573d5f803e3d5ffd5b505050506040513d601f19601f82011682018060405250810190611d96919061502e565b60408051838152602081018390529294509092506001600160a01b03808616929087169133917f96558a334f4759f0e7c423d68c84721860bd8fbf94ddc4e55158ecb125ad04b59101611bfa565b5f6113685f8484600161315f565b606073__$e36323ec861de5853ea34405a6a6c240f5$__6395d89b416040518163ffffffff1660e01b81526004015f60405180830381865af41580156112af573d5f803e3d5ffd5b604051634383e19f60e11b81526001600160a01b03821660048201525f602482018190529073__$882f5dc3094afdd9d0e814b3c0cd9c4ee7$__90638707c33e906044016117d2565b5f805f805f611f245f8051602061565d833981519152545f8051602061569d8339815191526020527f4d2d7760e154c15f5300cc4c37d05178e23007d6f2160bcd750c6af7887140f6545f805160206156bd8339815191525460025f527f48b831d600d3a8486411d9e9b2dcae2eea5dd7e8bc9c97a119670ecbb2e7f763546001600160c01b038416946001600160401b03600160c01b9095049490941693565b945094509450945094509091929394565b611f5f60405180606001604052805f81526020015f81526020015f6001600160401b031681525090565b6112d66133a6565b73__$1c8c6ee4f595ff59af83bdc8e432701c1d$__63a1ecef5c6040518163ffffffff1660e01b81526004015f6040518083038186803b158015611fa9575f80fd5b505af4158015611fbb573d5f803e3d5ffd5b50506040513392507f4aa7ec2e9d912271d4af0f59b2735f825ef583f4d6ee04f0242be6f58febc0fc91505f90a2565b5f6112d6613452565b5f6112d6612f9a565b5f6113398383612fde565b5f80612012612c67565b905061201e848461347a565b9150806001600160a01b03166362402b046040518163ffffffff1660e01b81526004015f604051808303815f87803b158015612058575f80fd5b505af115801561206a573d5f803e3d5ffd5b505050505092915050565b60405163b006213960e01b8152600481018390525f602482018190526001600160a01b038316604483015233606483015290819073__$1c8c6ee4f595ff59af83bdc8e432701c1d$__9063b0062139906084016040805180830381865af41580156120e2573d5f803e3d5ffd5b505050506040513d601f19601f82011682018060405250810190612106919061502e565b60408051838152602081018390529194509192506001600160a01b0385169133917fe4a1ae657f49cb1fb1c7d3a94ae6093565c4c8c0e03de488f79c377c3c3a24e091015b60405180910390a35092915050565b60405163f0e0787560e01b81525f9073__$882f5dc3094afdd9d0e814b3c0cd9c4ee7$__9063f0e0787590612193908590600401615245565b602060405180830381865af4158015611440573d5f803e3d5ffd5b5f61134c826001612c23565b5f6118d3845f8585336001613487565b5f6118d3845f858561315f565b5f6121e6855f86863387613487565b9695505050505050565b5f8061220181868686336001613487565b5095945050505050565b5f805f61221860026129b8565b915091506112e68483835f6002612a50565b5f805f61223760026129b8565b915091506112e68483835f6002613021565b5f6122565f85858561315f565b50949350505050565b604051630f5cbacf60e21b81526001600160a01b03821660048201525f9073__$1c8c6ee4f595ff59af83bdc8e432701c1d$__90633d72eb3c90602401602060405180830381865af41580156122b7573d5f803e3d5ffd5b505050506040513d601f19601f820116820180604052508101906122db919061519e565b90506122ea308261100061361b565b5050565b60405163f0e0787560e01b81525f9073__$882f5dc3094afdd9d0e814b3c0cd9c4ee7$__9063f0e078759061194190600190600401615245565b612330612fc3565b6001600160a01b0316336001600160a01b031614612361576040516310528c6d60e11b815260040160405180910390fd5b61236b838261381f565b505050565b5f805f61237d60016129b8565b915091506112e68483835f6001613021565b5f8073__$1c8c6ee4f595ff59af83bdc8e432701c1d$__63cad1aacf6040518163ffffffff1660e01b81526004016040805180830381865af41580156123d7573d5f803e3d5ffd5b505050506040513d601f19601f820116820180604052508101906123fb9190615253565b6040805162ffffff8085168252831660208201529294509092507f2b7ec2cd1f9292c7a9ae800c2479f6be4217beacb0c01ef2d7e4e84fced3d75b910160405180910390a15050565b5f6118108260016129cb565b61245b61132a612a8b565b61246a87878787878787613853565b50505050505050565b604080516080810182528481525f602082018190526001600160a01b0380861683850152841660608301529151635937128b60e01b8152829173__$1c8c6ee4f595ff59af83bdc8e432701c1d$__91635937128b91611b729160040161520b565b5f6113398260016129cb565b6124e8612fc3565b6001600160a01b0316336001600160a01b031614612519576040516310528c6d60e11b815260040160405180910390fd5b7f01b0b3f9d6e360167e522fa2b18ba597ad7b2b35841fec7e1ca4dbb0adea1203805460ff191690555f8051602061561d83398151915261255b8484846139a8565b600301805460ff19166001179055505050565b604051633676633960e21b81526001600160a01b0383166004820152602481018290525f9073__$882f5dc3094afdd9d0e814b3c0cd9c4ee7$__9063d9d98ce490604401612193565b5f6122015f8686863387613487565b5f806125d183611aae565b7f52c63247e1f47db19d5ce0460030c497f067ca4cebf71ba98eeadabe20bace02545b91509150915091565b6001600160a01b039182165f9081527f52c63247e1f47db19d5ce0460030c497f067ca4cebf71ba98eeadabe20bace016020908152604080832093909416825291909152205490565b60405163b006213960e01b81525f60048201819052602482018490526001600160a01b038316604483015233606483015290819073__$1c8c6ee4f595ff59af83bdc8e432701c1d$__9063b0062139906084016040805180830381865af41580156126b3573d5f803e3d5ffd5b505050506040513d601f19601f820116820180604052508101906126d7919061502e565b60408051838152602081018390529294509092506001600160a01b0385169133917fe4a1ae657f49cb1fb1c7d3a94ae6093565c4c8c0e03de488f79c377c3c3a24e0910161214b565b5f805f61272d60026129b8565b915091506112e684838360016002612a50565b5f6112d6613a05565b5f61134c826001613050565b61275d612fc3565b6001600160a01b0316336001600160a01b03161461278e576040516310528c6d60e11b815260040160405180910390fd5b816001600160a01b0316836001600160a01b0316146127b2576127b2838383613a24565b61236b8382613a81565b5f8073__$1c8c6ee4f595ff59af83bdc8e432701c1d$__635ca5797b6040518060600160405280888152602001876001600160a01b0316815260200186600181111561280a5761280a614fc2565b8152506040518263ffffffff1660e01b81526004016128299190615280565b6040805180830381865af4158015612843573d5f803e3d5ffd5b505050506040513d601f19601f82011682018060405250810190612867919061502e565b9092509050600183600181111561288057612880614fc2565b036129185760408051838152602081018790526001600160a01b03861691829133917ffbde797d201c681b91056529119e0b02407c7bb96a4a2c75c01fc9667232c8db910160405180910390a460408051838152602081018390526001600160a01b0386169133917f1ad348f5de3e19e23d88e34248ceb6ab09804a35a3abc0e7758045b7b9036acd910160405180910390a3611368565b60408051838152602081018790526001600160a01b03861691829133917f2dac01ea07cfa812db5881eaad96ba201c018c042b8f9ea7278cdf6f29e65f24910160405180910390a460408051838152602081018390526001600160a01b0386169133917fdcbc1c05240f31ff3ad067ef1ee35ce4997762752e3a095284754544f4c709d7910160405180910390a3509392505050565b5f806115d0613ab5565b5f806125f46129c5612ce6565b84613af5565b5f8073__$882f5dc3094afdd9d0e814b3c0cd9c4ee7$__6367df3cb485856040518363ffffffff1660e01b8152600401612a069291906152ae565b6040805180830381865af4158015612a20573d5f803e3d5ffd5b505050506040513d601f19601f82011682018060405250810190612a44919061502e565b915091505b9250929050565b5f805f612a5e878786613ce1565b91509150815f03612a735787925050506118d3565b612a7f88828488613d23565b98975050505050505050565b7f01b0b3f9d6e360167e522fa2b18ba597ad7b2b35841fec7e1ca4dbb0adea1201546001600160a01b031690565b60405163e48a5f7b60e01b81523060048201525f9081906001600160a01b0384169063e48a5f7b9060240161020060405180830381865afa158015612b00573d5f803e3d5ffd5b505050506040513d601f19601f82011682018060405250810190612b2491906152cb565b9050612b3d816101200151825f01518360200151613d65565b5090949350505050565b806001600160a01b031663d2c725e06040518163ffffffff1660e01b8152600401602060405180830381865afa158015612b83573d5f803e3d5ffd5b505050506040513d601f19601f82011682018060405250810190612ba7919061517a565b15612bc55760405163e17fbf8960e01b815260040160405180910390fd5b50565b5f33612bd5818585613d97565b5060019392505050565b5f80826001811115612bf357612bf3614fc2565b6002811115612c0457612c04614fc2565b90505f80612c11836129b8565b915091506121e6868383600187613021565b5f80826001811115612c3757612c37614fc2565b6002811115612c4857612c48614fc2565b90505f80612c55836129b8565b915091506121e6868383600187612a50565b5f612c70612a8b565b9050806001600160a01b0316639dd413306040518163ffffffff1660e01b81526004015f604051808303815f87803b158015612caa575f80fd5b505af1158015612cbc573d5f803e3d5ffd5b5050505090565b5f33612cd0858285613a24565b612cdb8585856139a8565b506001949350505050565b60408051610200810182525f80825260208201819052918101829052606081018290526080810182905260a0810182905260c0810182905260e08101829052610100810182905261012081018290526101408101829052610160810182905261018081018290526101a081018290526101c081018290526101e08101919091525f8051602061561d8339815191526001015460405163e48a5f7b60e01b81523060048201526001600160a01b039091169063e48a5f7b9060240161020060405180830381865afa158015612dbc573d5f803e3d5ffd5b505050506040513d601f19601f820116820180604052508101906112d691906152cb565b5f6112d6613da4565b60015f9081525f8051602061569d83398151915260208190525f805160206156bd8339815191525491905f8051602061565d833981519152908260025b81526020019081526020015f20549150509091565b5f805f8051602061569d83398151915281846001811115612e5e57612e5e614fc2565b81526020019081526020015f2054905061133981613e17565b5f60605f8051602061561d833981519152600201546001600160a01b03163314612eb4576040516380897acb60e01b815260040160405180910390fd5b6001856001811115612ec857612ec8614fc2565b03612f2f57866001600160a01b03168484604051612ee79291906153d3565b5f60405180830381855af49150503d805f8114612f1f576040519150601f19603f3d011682016040523d82523d5f602084013e612f24565b606091505b509092509050612f90565b866001600160a01b0316868585604051612f4a9291906153d3565b5f6040518083038185875af1925050503d805f8114612f84576040519150601f19603f3d011682016040523d82523d5f602084013e612f89565b606091505b5090925090505b9550959350505050565b5f80612fa4612ce6565b9050612fbd816101200151825f01518360200151613093565b91505090565b5f8051602061561d833981519152546001600160a01b031690565b5f80826001811115612ff257612ff2614fc2565b600281111561300357613003614fc2565b90505f80613010836129b8565b915091506121e68683835f87612a50565b5f805f61302f878786613ce1565b91509150815f036130445787925050506118d3565b612a7f88838388613d23565b5f8082600181111561306457613064614fc2565b600281111561307557613075614fc2565b90505f80613082836129b8565b915091506121e68683835f87613021565b60405163e9c1bd6160e01b81526001600160a01b038416600482015260248101839052604481018290525f9073__$1c8c6ee4f595ff59af83bdc8e432701c1d$__9063e9c1bd6190606401602060405180830381865af41580156130f9573d5f803e3d5ffd5b505050506040513d601f19601f8201168201806040525081019061311d9190615134565b90508015611339576040518181527fd1fe0093c54116fe147366ec7de3cfa98e1e02e91d7ccb124241f6beae255b4c9060200160405180910390a19392505050565b5f8073__$1c8c6ee4f595ff59af83bdc8e432701c1d$__637ca0c3c5878787876040518563ffffffff1660e01b815260040161319e94939291906153e2565b6040805180830381865af41580156131b8573d5f803e3d5ffd5b505050506040513d601f19601f820116820180604052508101906131dc919061502e565b909250905060018360018111156131f5576131f5614fc2565b0361323d5760408051838152602081018390526001600160a01b0386169133917fdcbc1c05240f31ff3ad067ef1ee35ce4997762752e3a095284754544f4c709d79101611209565b60408051838152602081018390526001600160a01b0386169133917f1ad348f5de3e19e23d88e34248ceb6ab09804a35a3abc0e7758045b7b9036acd9101611255565b5f807f5ab42ced628888259c08ac98db1eb0cf702fc1501344311d8b100cd1bfe4bb00611abf565b7fa16a46d94261c7517cc8ff89f61c0ce93598e3c849801011dee649a6a557d10280546060915f8051602061567d833981519152916132e69061540c565b80601f01602080910402602001604051908101604052809291908181526020018280546133129061540c565b801561335d5780601f106133345761010080835404028352916020019161335d565b820191905f5260205f20905b81548152906001019060200180831161334057829003601f168201915b505050505091505090565b7fa16a46d94261c7517cc8ff89f61c0ce93598e3c849801011dee649a6a557d10380546060915f8051602061567d833981519152916132e69061540c565b6133d060405180606001604052805f81526020015f81526020015f6001600160401b031681525090565b50604080516060810182525f805160206156bd83398151915254815260025f525f8051602061569d83398151915260209081527f48b831d600d3a8486411d9e9b2dcae2eea5dd7e8bc9c97a119670ecbb2e7f76354908201525f8051602061565d83398151915254600160c01b90046001600160401b03169181019190915290565b5f8061345c612ce6565b9050612fbd8160400151826101200151835f01518460200151613e51565b5f33612bd58185856139a8565b5f8073__$1c8c6ee4f595ff59af83bdc8e432701c1d$__635af0d5b86040518060c001604052808b81526020018a8152602001896001600160a01b03168152602001886001600160a01b03168152602001876001600160a01b031681526020018660018111156134f9576134f9614fc2565b8152506040518263ffffffff1660e01b8152600401613518919061543e565b6040805180830381865af4158015613532573d5f803e3d5ffd5b505050506040513d601f19601f82011682018060405250810190613556919061502e565b9092509050600183600181111561356f5761356f614fc2565b036135c45760408051838152602081018390526001600160a01b03808816929089169133917ffbde797d201c681b91056529119e0b02407c7bb96a4a2c75c01fc9667232c8db910160405180910390a4613610565b60408051838152602081018390526001600160a01b03808816929089169133917f2dac01ea07cfa812db5881eaad96ba201c018c042b8f9ea7278cdf6f29e65f24910160405180910390a45b965096945050505050565b7ff0c57e16840df040f15088dc2f81fe391c3923bec73e23a9662efc9c229c6a008054600160401b810460ff1615906001600160401b03165f8115801561365f5750825b90505f826001600160401b0316600114801561367a5750303b155b905081158015613688575080155b156136a65760405163f92ee8a960e01b815260040160405180910390fd5b845467ffffffffffffffff1916600117855583156136d057845460ff60401b1916600160401b1785555b6136ff6040518060400160405280600e81526020016d29b4b637a9b430b932aa37b5b2b760911b815250613f47565b6137556040518060400160405280600e81526020016d29b4b637a9b430b932aa37b5b2b760911b8152506040518060400160405280600e81526020016d29b4b637a9b430b932aa37b5b2b760911b815250613f72565b604051631983f68f60e21b81526001600160a01b03808a1660048301528816602482015262ffffff8716604482015273__$e36323ec861de5853ea34405a6a6c240f5$__9063660fda3c906064015f6040518083038186803b1580156137b9575f80fd5b505af41580156137cb573d5f803e3d5ffd5b50505050831561381557845460ff60401b19168555604051600181527fc7f505b2f371ae2175ee4913f4499e1f2633a7b5936321eed1cdaeb6115181d29060200160405180910390a15b5050505050505050565b6001600160a01b0382166138485760405163ec442f0560e01b81525f6004820152602401611cb4565b6122ea5f8383613f84565b834211156138775760405163313c898160e11b815260048101859052602401611cb4565b5f7f6e71edae12b1b97f4d1f60370fef10105fa2faae0126114a169c64845d6126c98888886138e18c6001600160a01b03165f9081527f5ab42ced628888259c08ac98db1eb0cf702fc1501344311d8b100cd1bfe4bb006020526040902080546001810190915590565b6040805160208101969096526001600160a01b0394851690860152929091166060840152608083015260a082015260c0810186905260e0016040516020818303038152906040528051906020012090505f61393b82613fba565b90505f61394a82878787613fe6565b9050896001600160a01b0316816001600160a01b031614613991576040516325c0072360e11b81526001600160a01b0380831660048301528b166024820152604401611cb4565b61399c8a8a8a613d97565b50505050505050505050565b6001600160a01b0383166139d157604051634b637e8f60e11b81525f6004820152602401611cb4565b6001600160a01b0382166139fa5760405163ec442f0560e01b81525f6004820152602401611cb4565b61236b838383613f84565b5f80613a0f612ce6565b9050612fbd8160400151826101200151614012565b5f613a2f84846125fd565b90505f1981146116e75781811015613a7357604051637dc7a0d960e11b81526001600160a01b03841660048201526024810182905260448101839052606401611cb4565b6116e784848484035f6140f8565b6001600160a01b038216613aaa57604051634b637e8f60e11b81525f6004820152602401611cb4565b6122ea825f83613f84565b60015f9081525f8051602061569d83398151915260208190525f805160206156bd8339815191525491905f8051602061565d833981519152908280612e26565b5f8080836002811115613b0a57613b0a614fc2565b03613be8576040848101519051630805bcfb60e31b81525f60048201526001600160a01b039091169063402de7d890602401602060405180830381865afa158015613b57573d5f803e3d5ffd5b505050506040513d601f19601f82011682018060405250810190613b7b9190615134565b915083608001516001600160a01b03166318160ddd6040518163ffffffff1660e01b8152600401602060405180830381865afa158015613bbd573d5f803e3d5ffd5b505050506040513d601f19601f82011682018060405250810190613be19190615134565b9050612a49565b6001836002811115613bfc57613bfc614fc2565b03613c5f57613c1d8460400151856101200151865f01518760200151613e51565b91508360a001516001600160a01b03166318160ddd6040518163ffffffff1660e01b8152600401602060405180830381865afa158015613bbd573d5f803e3d5ffd5b613c728460400151856101200151614012565b91508360c001516001600160a01b03166318160ddd6040518163ffffffff1660e01b8152600401602060405180830381865afa158015613cb4573d5f803e3d5ffd5b505050506040513d601f19601f82011682018060405250810190613cd89190615134565b90509250929050565b5f80835f03613cee575f94505b6002836002811115613d0257613d02614fc2565b14613d14576001840185600101613d17565b83855b90969095509350505050565b5f613d50613d30836141dc565b8015613d4b57505f8480613d4657613d46615493565b868809115b151590565b613d5b868686614208565b6118d391906154a7565b5f805f613d7430878787613e51565b9150613d803087614012565b9050613d8c82826142c5565b925093509350939050565b61236b83838360016140f8565b5f7f8b73c3c69bb8fe3d512ecc4cf759cc79239f7b179b0ffacaa9a75d522b39400f613dce6142dd565b613dd6614345565b60408051602081019490945283019190915260608201524660808201523060a082015260c00160405160208183030381529060405280519060200120905090565b5f8115613e43576001600160801b03821015613e3d576001600160801b0382900361134c565b5f61134c565b6001600160801b0392915050565b6040516367efe7fd60e11b81526001600160a01b0385811660048301524260248301525f91829186169063cfdfcffa90604401602060405180830381865afa158015613e9f573d5f803e3d5ffd5b505050506040513d601f19601f82011682018060405250810190613ec39190615134565b90505f80876001600160a01b03166339c5c5056040518163ffffffff1660e01b81526004016040805180830381865afa158015613f02573d5f803e3d5ffd5b505050506040513d601f19601f82011682018060405250810190613f26919061502e565b91509150613f378282858989614387565b50919a9950505050505050505050565b613f4f6143cf565b612bc581604051806040016040528060018152602001603160f81b81525061441a565b613f7a6143cf565b6122ea8282614479565b805f03613fa4576040516310cadee360e01b815260040160405180910390fd5b613faf8383836144c9565b61236b838383614602565b5f61134c613fc6612de0565b8360405161190160f01b8152600281019290925260228201526042902090565b5f805f80613ff6888888886146b1565b9250925092506140068282614779565b50909695505050505050565b6040516367efe7fd60e11b81526001600160a01b0383811660048301524260248301525f91829184169063cfdfcffa90604401602060405180830381865afa158015614060573d5f803e3d5ffd5b505050506040513d601f19601f820116820180604052508101906140849190615134565b604051630805bcfb60e31b815260026004820152909150612256906001600160a01b0386169063402de7d890602401602060405180830381865afa1580156140ce573d5f803e3d5ffd5b505050506040513d601f19601f820116820180604052508101906140f29190615134565b82614831565b5f8051602061563d8339815191526001600160a01b03851661412f5760405163e602df0560e01b81525f6004820152602401611cb4565b6001600160a01b03841661415857604051634a1406b160e11b81525f6004820152602401611cb4565b6001600160a01b038086165f908152600183016020908152604080832093881683529290522083905581156141d557836001600160a01b0316856001600160a01b03167f8c5be1e5ebec7d5bd14f71427d1e84f3dd0314c0f7b2291e5b200ac8c7c3b925856040516141cc91815260200190565b60405180910390a35b5050505050565b5f60028260038111156141f1576141f1614fc2565b6141fb91906154c6565b60ff166001149050919050565b5f838302815f1985870982811083820303915050805f0361423c5783828161423257614232615493565b0492505050611339565b80841161425a5761425a84156142535760116148a6565b60126148a6565b5f848688095f868103871696879004966002600389028118808a02820302808a02820302808a02820302808a02820302808a02820302808a02909103029181900381900460010186841190950394909402919094039290920491909117919091029150509392505050565b5f8282116142d557818303611339565b5f9392505050565b5f5f8051602061567d833981519152816142f56132a8565b80519091501561430d57805160209091012092915050565b8154801561431c579392505050565b7fc5d2460186f7233c927e7db2dcc703c0e500b653ca82273b7bfad8045d85a470935050505090565b5f5f8051602061567d8339815191528161435d613368565b80519091501561437557805160209091012092915050565b6001820154801561431c579392505050565b5f805f806143958888614831565b9093509050670de0b6b3a764000086860182020491508181038919818110156143bc578091505b818b019550505095509550955095915050565b7ff0c57e16840df040f15088dc2f81fe391c3923bec73e23a9662efc9c229c6a0054600160401b900460ff1661441857604051631afcd79f60e31b815260040160405180910390fd5b565b6144226143cf565b5f8051602061567d8339815191527fa16a46d94261c7517cc8ff89f61c0ce93598e3c849801011dee649a6a557d10261445b8482615537565b506003810161446a8382615537565b505f8082556001909101555050565b6144816143cf565b5f8051602061563d8339815191527f52c63247e1f47db19d5ce0460030c497f067ca4cebf71ba98eeadabe20bace036144ba8482615537565b50600481016116e78382615537565b5f8051602061563d8339815191526001600160a01b0384166145035781816002015f8282546144f891906154a7565b909155506145739050565b6001600160a01b0384165f90815260208290526040902054828110156145555760405163391434e360e21b81526001600160a01b03861660048201526024810182905260448101849052606401611cb4565b6001600160a01b0385165f9081526020839052604090209083900390555b6001600160a01b0383166145915760028101805483900390556145af565b6001600160a01b0383165f9081526020829052604090208054830190555b826001600160a01b0316846001600160a01b03167fddf252ad1be2c89b69c2b068fc378daa952ba7f163c4a11628f55a4df523b3ef846040516145f491815260200190565b60405180910390a350505050565b5f8051602061561d83398151915261461a84846148b7565b801561462a5750600381015460ff165b156146a657604051636fb12c5f60e11b81526001600160a01b038086166004830152841660248201526044810183905273__$0c603b63fef61d2abd9717344845f11cca$__9063df6258be906064015f6040518083038186803b15801561468f575f80fd5b505af41580156146a1573d5f803e3d5ffd5b505050505b6116e78484846148dc565b5f80807f7fffffffffffffffffffffffffffffff5d576e7357a4501ddfe92f46681b20a08411156146ea57505f9150600390508261476f565b604080515f808252602082018084528a905260ff891692820192909252606081018790526080810186905260019060a0016020604051602081039080840390855afa15801561473b573d5f803e3d5ffd5b5050604051601f1901519150506001600160a01b03811661476657505f92506001915082905061476f565b92505f91508190505b9450945094915050565b5f82600381111561478c5761478c614fc2565b03614795575050565b60018260038111156147a9576147a9614fc2565b036147c75760405163f645eedf60e01b815260040160405180910390fd5b60028260038111156147db576147db614fc2565b036147fc5760405163fce698f760e01b815260048101829052602401611cb4565b600382600381111561481057614810614fc2565b036122ea576040516335e2f38360e21b815260048101829052602401611cb4565b5f8083158061483e575082155b1561484d57508290505f612a49565b670de0b6b3a76400008404835f198161486857614868615493565b04111561488a576148838484670de0b6b3a76400005f613d23565b905061488e565b505f195b83198082111561489c578091505b5092830193915050565b634e487b715f52806020526024601cfd5b5f6001600160a01b038316158015906113395750506001600160a01b03161515919050565b604080516080810182527f01b0b3f9d6e360167e522fa2b18ba597ad7b2b35841fec7e1ca4dbb0adea1202546001600160a01b038116825262ffffff600160a01b820481166020840152600160b81b820480821694840194909452600160d01b9091048116606083018190525f8051602061561d833981519152936108009091179190821616811461497057505050505050565b815183546001600160a01b039182169163aef2823591168389898961499483611aae565b61499d8d611aae565b7f52c63247e1f47db19d5ce0460030c497f067ca4cebf71ba98eeadabe20bace02546040516bffffffffffffffffffffffff19606097881b811660208301529590961b909416603486015260488501929092526068840152608883015260a882015260c8016040516020818303038152906040526040518463ffffffff1660e01b8152600401614a2f939291906155f6565b5f604051808303815f87803b158015614a46575f80fd5b505af115801561399c573d5f803e3d5ffd5b6001600160a01b0381168114612bc5575f80fd5b60028110612bc5575f80fd5b5f805f8060808587031215614a8b575f80fd5b84359350602085013592506040850135614aa481614a58565b91506060850135614ab481614a6c565b939692955090935050565b5f5b83811015614ad9578181015183820152602001614ac1565b50505f910152565b5f8151808452614af8816020860160208601614abf565b601f01601f19169290920160200192915050565b602081525f6113396020830184614ae1565b5f8060408385031215614b2f575f80fd5b8235614b3a81614a58565b91506020830135614b4a81614a6c565b809150509250929050565b5f60208284031215614b65575f80fd5b5035919050565b5f8060408385031215614b7d575f80fd5b8235614b8881614a58565b946020939093013593505050565b5f8060408385031215614ba7575f80fd5b823591506020830135614b4a81614a6c565b5f805f60608486031215614bcb575f80fd5b8335614bd681614a58565b92506020840135614be681614a58565b929592945050506040919091013590565b5f60208284031215614c07575f80fd5b813561133981614a58565b5f8083601f840112614c22575f80fd5b5081356001600160401b03811115614c38575f80fd5b602083019150836020828501011115612a49575f80fd5b5f805f805f60808688031215614c63575f80fd5b8535614c6e81614a58565b9450602086013593506040860135614c8581614a6c565b925060608601356001600160401b03811115614c9f575f80fd5b614cab88828901614c12565b969995985093965092949392505050565b8215158152604060208201525f6112e66040830184614ae1565b62ffffff81168114612bc5575f80fd5b5f8060408385031215614cf7575f80fd5b8235614d0281614cd6565b91506020830135614b4a81614cd6565b5f805f805f60808688031215614d26575f80fd5b8535614d3181614a58565b94506020860135614d4181614a58565b93506040860135925060608601356001600160401b03811115614c9f575f80fd5b5f8060408385031215614d73575f80fd5b82359150602083013560038110614b4a575f80fd5b5f805f60608486031215614d9a575f80fd5b8335614da581614a58565b95602085013595506040909401359392505050565b5f8060408385031215614dcb575f80fd5b823591506020830135614b4a81614a58565b5f805f60608486031215614def575f80fd5b833592506020840135614e0181614a58565b91506040840135614e1181614a58565b809150509250925092565b60ff60f81b881681525f602060e06020840152614e3c60e084018a614ae1565b8381036040850152614e4e818a614ae1565b606085018990526001600160a01b038816608086015260a0850187905284810360c0860152855180825260208088019350909101905f5b81811015614ea157835183529284019291840191600101614e85565b50909c9b505050505050505050505050565b5f805f60608486031215614ec5575f80fd5b833592506020840135614ed781614a58565b91506040840135614e1181614a6c565b5f805f8060808587031215614efa575f80fd5b843593506020850135614f0c81614a58565b92506040850135614aa481614a58565b60ff81168114612bc5575f80fd5b5f805f805f805f60e0888a031215614f40575f80fd5b8735614f4b81614a58565b96506020880135614f5b81614a58565b955060408801359450606088013593506080880135614f7981614f1c565b9699959850939692959460a0840135945060c09093013592915050565b5f8060408385031215614fa7575f80fd5b8235614fb281614a58565b91506020830135614b4a81614a58565b634e487b7160e01b5f52602160045260245ffd5b60028110614ff257634e487b7160e01b5f52602160045260245ffd5b9052565b81518152602080830151908201526040808301516001600160a01b031690820152606080830151608083019161181090840182614fd6565b5f806040838503121561503f575f80fd5b505080516020909101519092909150565b634e487b7160e01b5f52604160045260245ffd5b60405161020081016001600160401b038111828210171561508757615087615050565b60405290565b5f6020828403121561509d575f80fd5b81516001600160401b03808211156150b3575f80fd5b818401915084601f8301126150c6575f80fd5b8151818111156150d8576150d8615050565b604051601f8201601f19908116603f0116810190838211818310171561510057615100615050565b81604052828152876020848701011115615118575f80fd5b615129836020830160208801614abf565b979650505050505050565b5f60208284031215615144575f80fd5b5051919050565b5f6020828403121561515b575f80fd5b815161133981614f1c565b80518015158114615175575f80fd5b919050565b5f6020828403121561518a575f80fd5b61133982615166565b805161517581614a58565b5f602082840312156151ae575f80fd5b815161133981614a58565b6001600160a01b038681168252851660208201526040810184905260806060820181905281018290525f828460a08401375f60a0848401015260a0601f19601f85011683010190509695505050505050565b81518152602080830151908201526040808301516001600160a01b0390811691830191909152606092830151169181019190915260800190565b6020810161134c8284614fd6565b5f8060408385031215615264575f80fd5b825161526f81614cd6565b6020840151909250614b4a81614cd6565b815181526020808301516001600160a01b031690820152604080830151606083019161181090840182614fd6565b6001600160a01b0383168152604081016113396020830184614fd6565b5f61020082840312156152dc575f80fd5b6152e4615064565b82518152602083015160208201526152fe60408401615193565b604082015261530f60608401615193565b606082015261532060808401615193565b608082015261533160a08401615193565b60a082015261534260c08401615193565b60c082015261535360e08401615193565b60e0820152610100615366818501615193565b90820152610120615378848201615193565b908201526101408381015190820152610160808401519082015261018080840151908201526101a080840151908201526101c06153b6818501615193565b908201526101e06153c8848201615166565b908201529392505050565b818382375f9101908152919050565b848152602081018490526001600160a01b0383166040820152608081016118d36060830184614fd6565b600181811c9082168061542057607f821691505b6020821081036110ac57634e487b7160e01b5f52602260045260245ffd5b5f60c0820190508251825260208301516020830152604083015160018060a01b038082166040850152806060860151166060850152806080860151166080850152505060a083015161181060a0840182614fd6565b634e487b7160e01b5f52601260045260245ffd5b8082018082111561134c57634e487b7160e01b5f52601160045260245ffd5b5f60ff8316806154e457634e487b7160e01b5f52601260045260245ffd5b8060ff84160691505092915050565b601f82111561236b57805f5260205f20601f840160051c810160208510156155185750805b601f840160051c820191505b818110156141d5575f8155600101615524565b81516001600160401b0381111561555057615550615050565b6155648161555e845461540c565b846154f3565b602080601f831160018114615597575f84156155805750858301515b5f19600386901b1c1916600185901b1785556155ee565b5f85815260208120601f198616915b828110156155c5578886015182559484019460019091019084016155a6565b50858210156155e257878501515f19600388901b60f8161c191681555b505060018460011b0185555b505050505050565b60018060a01b0384168152826020820152606060408201525f6118d36060830184614ae156fe01b0b3f9d6e360167e522fa2b18ba597ad7b2b35841fec7e1ca4dbb0adea120052c63247e1f47db19d5ce0460030c497f067ca4cebf71ba98eeadabe20bace00d7513ffe3a01a9f6606089d1b67011bca35bec018ac0faa914e1c529408f8300a16a46d94261c7517cc8ff89f61c0ce93598e3c849801011dee649a6a557d100d7513ffe3a01a9f6606089d1b67011bca35bec018ac0faa914e1c529408f8301d99536106475fccaebf473dbe452ecd44d90eee21d2e2c5de0ee1bfd62ccc07ea2646970667358221220bc72c89fd3fe3b033192112a5d71a8f9601452b145390b8e0dfadc8a6f60b9d164736f6c63430008180033",
  "language": "Solidity",
  "compiler": "0.8.24+commit.e11b9ed9"
}