{
  "address": "0x2C7E816323B2E3894EB98d53B2cbec659aE26441",
  "abi": [
    {
      "inputs": [
        {
          "internalType": "contract ISilo",
          "name": "_silo",
          "type": "address"
        },
        {
          "internalType": "address",
          "name": "_borrower",
          "type": "address"
        }
      ],
      "name": "borrowPossible",
      "outputs": [
        {
          "internalType": "bool",
          "name": "",
          "type": "bool"
        }
      ],
      "stateMutability": "view",
      "type": "function"
    },
    {
      "inputs": [
        {
          "internalType": "contract ISilo",
          "name": "_silo",
          "type": "address"
        },
        {
          "internalType": "address",
          "name": "_depositor",
          "type": "address"
        }
      ],
      "name": "depositPossible",
      "outputs": [
        {
          "internalType": "bool",
          "name": "",
          "type": "bool"
        }
      ],
      "stateMutability": "view",
      "type": "function"
    },
    {
      "inputs": [
        {
          "internalType": "contract ISilo",
          "name": "_silo",
          "type": "address"
        }
      ],
      "name": "getFeesAndFeeReceivers",
      "outputs": [
        {
          "internalType": "address",
          "name": "daoFeeReceiver",
          "type": "address"
        },
        {
          "internalType": "address",
          "name": "deployerFeeReceiver",
          "type": "address"
        },
        {
          "internalType": "uint256",
          "name": "daoFee",
          "type": "uint256"
        },
        {
          "internalType": "uint256",
          "name": "deployerFee",
          "type": "uint256"
        }
      ],
      "stateMutability": "view",
      "type": "function"
    },
    {
      "inputs": [
        {
          "internalType": "contract ISilo",
          "name": "_silo",
          "type": "address"
        }
      ],
      "name": "getLt",
      "outputs": [
        {
          "internalType": "uint256",
          "name": "lt",
          "type": "uint256"
        }
      ],
      "stateMutability": "view",
      "type": "function"
    },
    {
      "inputs": [
        {
          "internalType": "contract ISilo",
          "name": "_silo",
          "type": "address"
        },
        {
          "internalType": "address",
          "name": "_borrower",
          "type": "address"
        }
      ],
      "name": "getLtv",
      "outputs": [
        {
          "internalType": "uint256",
          "name": "ltv",
          "type": "uint256"
        }
      ],
      "stateMutability": "view",
      "type": "function"
    },
    {
      "inputs": [
        {
          "internalType": "contract ISilo",
          "name": "_silo",
          "type": "address"
        }
      ],
      "name": "getMaxLtv",
      "outputs": [
        {
          "internalType": "uint256",
          "name": "maxLtv",
          "type": "uint256"
        }
      ],
      "stateMutability": "view",
      "type": "function"
    }
  ],
  "bytecode": "0x608060405234801561001057600080fd5b506115bd806100206000396000f3fe608060405234801561001057600080fd5b50600436106100625760003560e01c8063249a64961461006757806337febff4146100aa578063647e0c20146100cb578063a6e08aa1146100de578063f3d470c214610101578063f5125d3f14610114575b600080fd5b61007a610075366004611249565b610127565b604080516001600160a01b0395861681529490931660208501529183015260608201526080015b60405180910390f35b6100bd6100b8366004611249565b6101bc565b6040519081526020016100a1565b6100bd6100d9366004611249565b6101d6565b6100f16100ec366004611266565b6101ea565b60405190151581526020016100a1565b6100f161010f366004611266565b610206565b6100bd610122366004611266565b61021b565b604051630a0f956d60e21b81526001600160a01b038216600482015260009081908190819073__$35324b2b5c5ee97b5b21e500a23bd2480c$__9063283e55b49060240160a060405180830381865af4158015610188573d6000803e3d6000fd5b505050506040513d601f19601f820116820180604052508101906101ac91906112af565b5092989197509550909350915050565b60006101d0826001600160a01b0316610230565b92915050565b60006101d0826001600160a01b031661030c565b60006101ff6001600160a01b038416836103e8565b9392505050565b60006101ff6001600160a01b038416836104d2565b60006101ff6001600160a01b038416836105b9565b6000816001600160a01b03166379502c556040518163ffffffff1660e01b8152600401602060405180830381865afa158015610270573d6000803e3d6000fd5b505050506040513d601f19601f820116820180604052508101906102949190611311565b60405163e48a5f7b60e01b81526001600160a01b038481166004830152919091169063e48a5f7b9060240161020060405180830381865afa1580156102dd573d6000803e3d6000fd5b505050506040513d601f19601f820116820180604052508101906103019190611481565b610180015192915050565b6000816001600160a01b03166379502c556040518163ffffffff1660e01b8152600401602060405180830381865afa15801561034c573d6000803e3d6000fd5b505050506040513d601f19601f820116820180604052508101906103709190611311565b60405163e48a5f7b60e01b81526001600160a01b038481166004830152919091169063e48a5f7b9060240161020060405180830381865afa1580156103b9573d6000803e3d6000fd5b505050506040513d601f19601f820116820180604052508101906103dd9190611481565b610160015192915050565b600080836001600160a01b03166379502c556040518163ffffffff1660e01b8152600401602060405180830381865afa158015610429573d6000803e3d6000fd5b505050506040513d601f19601f8201168201806040525081019061044d9190611311565b60405163e48a5f7b60e01b81526001600160a01b038681166004830152919091169063e48a5f7b9060240161020060405180830381865afa158015610496573d6000803e3d6000fd5b505050506040513d601f19601f820116820180604052508101906104ba9190611481565b60e0015190506104ca8184610750565b949350505050565b600080836001600160a01b03166379502c556040518163ffffffff1660e01b8152600401602060405180830381865afa158015610513573d6000803e3d6000fd5b505050506040513d601f19601f820116820180604052508101906105379190611311565b60405163e48a5f7b60e01b81526001600160a01b038681166004830152919091169063e48a5f7b9060240161020060405180830381865afa158015610580573d6000803e3d6000fd5b505050506040513d601f19601f820116820180604052508101906105a49190611481565b90506104ca8160a001518260c00151856107c6565b600080600073__$5f084e02cba86e37595b38f777b0951815$__633b1919b686876001600160a01b03166379502c556040518163ffffffff1660e01b8152600401602060405180830381865afa158015610617573d6000803e3d6000fd5b505050506040513d601f19601f8201168201806040525081019061063b9190611311565b6040516001600160e01b031960e085901b1681526001600160a01b0392831660048201529082166024820152908716604482015260640161040060405180830381865af4158015610690573d6000803e3d6000fd5b505050506040513d601f19601f820116820180604052508101906106b4919061149e565b91509150610747828286600060018660e001516001600160a01b03166370a082318b6040518263ffffffff1660e01b815260040161070191906001600160a01b0391909116815260200190565b602060405180830381865afa15801561071e573d6000803e3d6000fd5b505050506040513d601f19601f8201168201806040525081019061074291906114d5565b6108af565b95945050505050565b6040516370a0823160e01b81526001600160a01b038281166004830152600091908416906370a0823190602401602060405180830381865afa15801561079a573d6000803e3d6000fd5b505050506040513d601f19601f820116820180604052508101906107be91906114d5565b159392505050565b6040516370a0823160e01b81526001600160a01b038281166004830152600091908516906370a0823190602401602060405180830381865afa158015610810573d6000803e3d6000fd5b505050506040513d601f19601f8201168201806040525081019061083491906114d5565b1580156104ca57506040516370a0823160e01b81526001600160a01b0383811660048301528416906370a0823190602401602060405180830381865afa158015610882573d6000803e3d6000fd5b505050506040513d601f19601f820116820180604052508101906108a691906114d5565b15949350505050565b6000816000036108c157506000610902565b60006108d188888888888861090c565b905080608001516000036108e9576000915050610902565b6108fc8189608001518960800151610b7c565b93505050505b9695505050505050565b6109506040518060a0016040528060006001600160a01b0316815260200160006001600160a01b031681526020016000815260200160008152602001600081525090565b6001846001811115610964576109646114ee565b1461097a57866101000151866101000151610987565b8661012001518661012001515b6001600160a01b03908116602084015216815260a087015160009081906109af908883610be2565b80935081925050506000808a604001516001600160a01b03166399d499c16040518163ffffffff1660e01b81526004016040805180830381865afa1580156109fb573d6000803e3d6000fd5b505050506040513d601f19601f82011682018060405250810190610a1f9190611504565b91509150610a31838286600080610cc9565b604086015260c08b0151610a47908a6000610be2565b945092506001876001811115610a5f57610a5f6114ee565b14610a6a5781610a87565b610a878b604001518c61014001518d600001518e60200151610d2d565b9150610a9883838660006001610cc9565b606086015260e08a0151610aad908a88610be2565b9450925060006001886001811115610ac757610ac76114ee565b14610b43578a604001516001600160a01b03166340aa004b60026040518263ffffffff1660e01b8152600401610afd9190611528565b602060405180830381865afa158015610b1a573d6000803e3d6000fd5b505050506040513d601f19601f82011682018060405250810190610b3e91906114d5565b610b56565b610b568b604001518c6101400151610e29565b9050610b6784828760016002610cc9565b608087015250939a9950505050505050505050565b6000806000610b8c868686610f20565b909350915082158015610b9d575081155b15610bb057506000915081905080610bd9565b82600003610bc15750600019610bd9565b610bd682670de0b6b3a7640000856001611071565b90505b93509350939050565b6000808215610bf15782610c5b565b6040516370a0823160e01b81526001600160a01b0385811660048301528616906370a0823190602401602060405180830381865afa158015610c37573d6000803e3d6000fd5b505050506040513d601f19601f82011682018060405250810190610c5b91906114d5565b9150846001600160a01b03166318160ddd6040518163ffffffff1660e01b8152600401602060405180830381865afa158015610c9b573d6000803e3d6000fd5b505050506040513d601f19601f82011682018060405250810190610cbf91906114d5565b9050935093915050565b600080806002846002811115610ce157610ce16114ee565b14610cf3576001860187600101610cf6565b85875b9092509050811580610d06575080155b15610d15578792505050610747565b610d2188828488611071565b98975050505050505050565b6040516367efe7fd60e11b81526001600160a01b038581166004830152426024830152600091829186169063cfdfcffa90604401602060405180830381865afa158015610d7e573d6000803e3d6000fd5b505050506040513d601f19601f82011682018060405250810190610da291906114d5565b9050600080876001600160a01b031663e64e16216040518163ffffffff1660e01b81526004016040805180830381865afa158015610de4573d6000803e3d6000fd5b505050506040513d601f19601f82011682018060405250810190610e089190611504565b91509150610e1982828589896110c2565b50919a9950505050505050505050565b6040516367efe7fd60e11b81526001600160a01b038381166004830152426024830152600091829184169063cfdfcffa90604401602060405180830381865afa158015610e7a573d6000803e3d6000fd5b505050506040513d601f19601f82011682018060405250810190610e9e91906114d5565b9050610f17846001600160a01b03166340aa004b60026040518263ffffffff1660e01b8152600401610ed09190611528565b602060405180830381865afa158015610eed573d6000803e3d6000fd5b505050506040513d601f19601f82011682018060405250810190610f1191906114d5565b82611104565b50949350505050565b606083015160408401516000918291018015610fc25785516001600160a01b0316610f4b5780610fbf565b85516040516313b0be3360e01b8152600481018390526001600160a01b038781166024830152909116906313b0be3390604401602060405180830381865afa158015610f9b573d6000803e3d6000fd5b505050506040513d601f19601f82011682018060405250810190610fbf91906114d5565b92505b6080860151156110685760208601516001600160a01b0316610fe8578560800151611065565b602086015160808701516040516313b0be3360e01b815260048101919091526001600160a01b038681166024830152909116906313b0be3390604401602060405180830381865afa158015611041573d6000803e3d6000fd5b505050506040513d601f19601f8201168201806040525081019061106591906114d5565b91505b50935093915050565b60008061107f868686611144565b90506001836002811115611095576110956114ee565b1480156110b25750600084806110ad576110ad611550565b868809115b1561074757610902600182611566565b6000806000806110d28888611104565b909350670de0b6b3a7640000868801820204925090508181036110f5818b611566565b94505095509550955095915050565b600080831580611112575082155b156111225750829050600061113d565b50670de0b6b3a76400008284020461113a8185611566565b91505b9250929050565b600080806000198587098587029250828110838203039150508060000361117e5783828161117457611174611550565b04925050506101ff565b8084116111c95760405162461bcd60e51b81526020600482015260156024820152744d6174683a206d756c446976206f766572666c6f7760581b604482015260640160405180910390fd5b600084868809600260036001881981018916988990049182028318808302840302808302840302808302840302808302840302808302840302918202909203026000889003889004909101858311909403939093029303949094049190911702949350505050565b6001600160a01b038116811461124657600080fd5b50565b60006020828403121561125b57600080fd5b81356101ff81611231565b6000806040838503121561127957600080fd5b823561128481611231565b9150602083013561129481611231565b809150509250929050565b80516112aa81611231565b919050565b600080600080600060a086880312156112c757600080fd5b85516112d281611231565b60208701519095506112e381611231565b809450506040860151925060608601519150608086015161130381611231565b809150509295509295909350565b60006020828403121561132357600080fd5b81516101ff81611231565b604051610200810167ffffffffffffffff8111828210171561136057634e487b7160e01b600052604160045260246000fd5b60405290565b805180151581146112aa57600080fd5b6000610200828403121561138957600080fd5b61139161132e565b905081518152602082015160208201526113ad6040830161129f565b60408201526113be6060830161129f565b60608201526113cf6080830161129f565b60808201526113e060a0830161129f565b60a08201526113f160c0830161129f565b60c082015261140260e0830161129f565b60e082015261010061141581840161129f565b9082015261012061142783820161129f565b9082015261014061143983820161129f565b90820152610160828101519082015261018080830151908201526101a080830151908201526101c080830151908201526101e0611477818401611366565b9082015292915050565b6000610200828403121561149457600080fd5b6101ff8383611376565b60008061040083850312156114b257600080fd5b6114bc8484611376565b91506114cc846102008501611376565b90509250929050565b6000602082840312156114e757600080fd5b5051919050565b634e487b7160e01b600052602160045260246000fd5b6000806040838503121561151757600080fd5b505080516020909101519092909150565b602081016003831061154a57634e487b7160e01b600052602160045260246000fd5b91905290565b634e487b7160e01b600052601260045260246000fd5b808201808211156101d057634e487b7160e01b600052601160045260246000fdfea26469706673582212200273f69cec99c82a94c9f19a6b88f269cad2a26581597ae98d0968a5a899344464736f6c63430008150033",
  "language": "Solidity",
  "compiler": "0.8.21+commit.d9974bed"
}