{
  "address": "0x308c4B397469e55B60137cd69f44b809C1d788DE",
  "abi": [
    {
      "inputs": [
        {
          "internalType": "address",
          "name": "_wrappedNativeToken",
          "type": "address"
        }
      ],
      "stateMutability": "nonpayable",
      "type": "constructor"
    },
    {
      "stateMutability": "payable",
      "type": "receive"
    },
    {
      "inputs": [],
      "name": "WRAPPED_NATIVE_TOKEN",
      "outputs": [
        {
          "internalType": "contract IWrappedNativeToken",
          "name": "",
          "type": "address"
        }
      ],
      "stateMutability": "view",
      "type": "function"
    },
    {
      "inputs": [
        {
          "components": [
            {
              "internalType": "enum SiloRouter.ActionType",
              "name": "actionType",
              "type": "uint8"
            },
            {
              "internalType": "contract ISilo",
              "name": "silo",
              "type": "address"
            },
            {
              "internalType": "contract IERC20",
              "name": "asset",
              "type": "address"
            },
            {
              "internalType": "bytes",
              "name": "options",
              "type": "bytes"
            }
          ],
          "internalType": "struct SiloRouter.Action[]",
          "name": "_actions",
          "type": "tuple[]"
        }
      ],
      "name": "execute",
      "outputs": [],
      "stateMutability": "payable",
      "type": "function"
    },
    {
      "inputs": [
        {
          "internalType": "address",
          "name": "target",
          "type": "address"
        }
      ],
      "name": "AddressEmptyCode",
      "type": "error"
    },
    {
      "inputs": [],
      "name": "ApprovalFailed",
      "type": "error"
    },
    {
      "inputs": [],
      "name": "ERC20TransferFailed",
      "type": "error"
    },
    {
      "inputs": [],
      "name": "EthTransferFailed",
      "type": "error"
    },
    {
      "inputs": [],
      "name": "FailedCall",
      "type": "error"
    },
    {
      "inputs": [
        {
          "internalType": "uint256",
          "name": "balance",
          "type": "uint256"
        },
        {
          "internalType": "uint256",
          "name": "needed",
          "type": "uint256"
        }
      ],
      "name": "InsufficientBalance",
      "type": "error"
    },
    {
      "inputs": [],
      "name": "InvalidSilo",
      "type": "error"
    },
    {
      "inputs": [
        {
          "internalType": "address",
          "name": "token",
          "type": "address"
        }
      ],
      "name": "SafeERC20FailedOperation",
      "type": "error"
    },
    {
      "inputs": [],
      "name": "TokenIsNotAContract",
      "type": "error"
    },
    {
      "inputs": [],
      "name": "UnsupportedAction",
      "type": "error"
    }
  ],
  "bytecode": "0x60a060405234801562000010575f80fd5b506040516200105a3803806200105a833981016040819052620000339162000183565b6200003e8162000051565b506001600160a01b031660805262000202565b6040805160048152602481019091526020810180516001600160e01b0390811663313ce56760e01b179091525f91829182916200009291869190620000c616565b9150915081620000a557505f9392505050565b80806020019051810190620000bb9190620001b2565b60ff16949350505050565b5f60606001600160a01b0384163b620000f2576040516373d39f9d60e01b815260040160405180910390fd5b5f80856001600160a01b0316856040516200010e9190620001d4565b5f60405180830381855afa9150503d805f811462000148576040519150601f19603f3d011682016040523d82523d5f602084013e6200014d565b606091505b50915091508162000174575f60405180602001604052805f8152509350935050506200017c565b600193509150505b9250929050565b5f6020828403121562000194575f80fd5b81516001600160a01b0381168114620001ab575f80fd5b9392505050565b5f60208284031215620001c3575f80fd5b815160ff81168114620001ab575f80fd5b5f82515f5b81811015620001f55760208186018101518583015201620001d9565b505f920191825250919050565b608051610e24620002365f395f8181604701528181610559015281816105a6015281816108e0015261091b0152610e245ff3fe60806040526004361061002b575f3560e01c80631b3f8c5e14610036578063c3cd3eda14610085575f80fd5b3661003257005b5f80fd5b348015610041575f80fd5b506100697f000000000000000000000000000000000000000000000000000000000000000081565b6040516001600160a01b03909116815260200160405180910390f35b610098610093366004610b7e565b61009a565b005b805f5b818110156100d9576100d18484838181106100ba576100ba610bed565b90506020028101906100cc9190610c01565b610222565b60010161009d565b505f5b818110156101a1575f8484838181106100f7576100f7610bed565b90506020028101906101099190610c01565b61011a906060810190604001610c33565b6040516370a0823160e01b81523060048201529091505f906001600160a01b038316906370a0823190602401602060405180830381865afa158015610161573d5f803e3d5ffd5b505050506040513d601f19601f820116820180604052508101906101859190610c4e565b90508015610197576101978282610557565b50506001016100dc565b5034158015906101b057504715155b1561021d576040515f90339047908381818185875af1925050503d805f81146101f4576040519150601f19603f3d011682016040523d82523d5f602084013e6101f9565b606091505b505090508061021b57604051630db2c7f160e31b815260040160405180910390fd5b505b505050565b5f6102306020830183610c79565b600381111561024157610241610c65565b0361032d575f6102546060830183610c97565b8101906102619190610ce1565b905061027d6102766060840160408501610c33565b8251610683565b6102a76102906060840160408501610c33565b6102a06040850160208601610c33565b8351610716565b6102b76040830160208401610c33565b6001600160a01b031663b7ec8d4b825f01513384602001516040518463ffffffff1660e01b81526004016102ed93929190610d44565b6020604051808303815f875af1158015610309573d5f803e3d5ffd5b505050506040513d601f19601f8201168201806040525081019061021d9190610c4e565b600161033c6020830183610c79565b600381111561034d5761034d610c65565b036103db575f6103606060830183610c97565b81019061036d9190610ce1565b90506103826102766060840160408501610c33565b6103956102906060840160408501610c33565b6103a56040830160208401610c33565b6001600160a01b031663c061ddc7825f01513384602001516040518463ffffffff1660e01b81526004016102ed93929190610d44565b60026103ea6020830183610c79565b60038111156103fb576103fb610c65565b0361048b575f61040e6060830183610c97565b81019061041b9190610ce1565b90506104306102766060840160408501610c33565b6104436102906060840160408501610c33565b6104536040830160208401610c33565b815160405163acb7081560e01b815260048101919091523360248201526001600160a01b03919091169063acb70815906044016102ed565b600361049a6020830183610c79565b60038111156104ab576104ab610c65565b0361053b575f6104be6060830183610c97565b8101906104cb9190610ce1565b90506104e06102766060840160408501610c33565b6104f36102906060840160408501610c33565b6105036040830160208401610c33565b815160405163e36754eb60e01b815260048101919091523360248201526001600160a01b03919091169063e36754eb906044016102ed565b6040516325e9714f60e01b815260040160405180910390fd5b50565b7f00000000000000000000000000000000000000000000000000000000000000006001600160a01b0316826001600160a01b03160361066b57604051632e1a7d4d60e01b8152600481018290527f00000000000000000000000000000000000000000000000000000000000000006001600160a01b031690632e1a7d4d906024015f604051808303815f87803b1580156105ef575f80fd5b505af1158015610601573d5f803e3d5ffd5b50506040515f925033915083908381818185875af1925050503d805f8114610644576040519150601f19603f3d011682016040523d82523d5f602084013e610649565b606091505b505090508061021d57604051633c9fd93960e21b815260040160405180910390fd5b61067f6001600160a01b0383163383610875565b5050565b6040516370a0823160e01b81523060048201525f906001600160a01b038416906370a0823190602401602060405180830381865afa1580156106c7573d5f803e3d5ffd5b505050506040513d601f19601f820116820180604052508101906106eb9190610c4e565b90508181106106fa575f610704565b6107048183610d84565b9150811561021d5761021d83836108d4565b604051636eb1769f60e11b81523060048201526001600160a01b03838116602483015282919085169063dd62ed3e90604401602060405180830381865afa158015610763573d5f803e3d5ffd5b505050506040513d601f19601f820116820180604052508101906107879190610c4e565b101561021d576040516001600160a01b0383811660248301525f1960448301525f91829186169060640160408051601f198184030181529181526020820180516001600160e01b031663095ea7b360e01b179052516107e69190610da3565b5f604051808303815f865af19150503d805f811461081f576040519150601f19603f3d011682016040523d82523d5f602084013e610824565b606091505b509150915081158061085057508051158061084e57508080602001905181019061084e9190610dcf565b155b1561086e576040516340b27c2160e11b815260040160405180910390fd5b5050505050565b6040516001600160a01b0383811660248301526044820183905261021d91859182169063a9059cbb906064015b604051602081830303815290604052915060e01b6020820180516001600160e01b0383818316178352505050506109a2565b341580159061091457507f00000000000000000000000000000000000000000000000000000000000000006001600160a01b0316826001600160a01b0316145b1561098d577f00000000000000000000000000000000000000000000000000000000000000006001600160a01b031663d0e30db0826040518263ffffffff1660e01b81526004015f604051808303818588803b158015610972575f80fd5b505af1158015610984573d5f803e3d5ffd5b50505050505050565b61067f6001600160a01b038316333084610a08565b5f6109b66001600160a01b03841683610a41565b905080515f141580156109da5750808060200190518101906109d89190610dcf565b155b1561021d57604051635274afe760e01b81526001600160a01b03841660048201526024015b60405180910390fd5b6040516001600160a01b03848116602483015283811660448301526064820183905261021b9186918216906323b872dd906084016108a2565b6060610a4e83835f610a57565b90505b92915050565b606081471015610a835760405163cf47918160e01b8152476004820152602481018390526044016109ff565b5f80856001600160a01b03168486604051610a9e9190610da3565b5f6040518083038185875af1925050503d805f8114610ad8576040519150601f19603f3d011682016040523d82523d5f602084013e610add565b606091505b5091509150610aed868383610af9565b925050505b9392505050565b606082610b0e57610b0982610b55565b610af2565b8151158015610b2557506001600160a01b0384163b155b15610b4e57604051639996b31560e01b81526001600160a01b03851660048201526024016109ff565b5080610af2565b805115610b655780518082602001fd5b60405163d6bda27560e01b815260040160405180910390fd5b5f8060208385031215610b8f575f80fd5b823567ffffffffffffffff80821115610ba6575f80fd5b818501915085601f830112610bb9575f80fd5b813581811115610bc7575f80fd5b8660208260051b8501011115610bdb575f80fd5b60209290920196919550909350505050565b634e487b7160e01b5f52603260045260245ffd5b5f8235607e19833603018112610c15575f80fd5b9190910192915050565b6001600160a01b0381168114610554575f80fd5b5f60208284031215610c43575f80fd5b8135610af281610c1f565b5f60208284031215610c5e575f80fd5b5051919050565b634e487b7160e01b5f52602160045260245ffd5b5f60208284031215610c89575f80fd5b813560048110610af2575f80fd5b5f808335601e19843603018112610cac575f80fd5b83018035915067ffffffffffffffff821115610cc6575f80fd5b602001915036819003821315610cda575f80fd5b9250929050565b5f60408284031215610cf1575f80fd5b6040516040810181811067ffffffffffffffff82111715610d2057634e487b7160e01b5f52604160045260245ffd5b60405282358152602083013560028110610d38575f80fd5b60208201529392505050565b8381526001600160a01b03831660208201526060810160028310610d7657634e487b7160e01b5f52602160045260245ffd5b826040830152949350505050565b81810381811115610a5157634e487b7160e01b5f52601160045260245ffd5b5f82515f5b81811015610dc25760208186018101518583015201610da8565b505f920191825250919050565b5f60208284031215610ddf575f80fd5b81518015158114610af2575f80fdfea26469706673582212209ffc98e90bbb61f5ad48414e6f67f7422990e41fd47ceca63ed29443131982ec64736f6c63430008180033",
  "language": "Solidity",
  "compiler": "0.8.24+commit.e11b9ed9"
}