{
  "_format": "hh-sol-artifact-1",
  "contractName": "MockPoolFactory",
  "sourceName": "contracts/test/MockPoolFactory.sol",
  "abi": [
    {
      "inputs": [
        {
          "internalType": "contract IVault",
          "name": "_vault",
          "type": "address"
        },
        {
          "internalType": "contract IProtocolFeePercentagesProvider",
          "name": "protocolFeeProvider",
          "type": "address"
        },
        {
          "internalType": "uint256",
          "name": "initialPauseWindowDuration",
          "type": "uint256"
        },
        {
          "internalType": "uint256",
          "name": "bufferPeriodDuration",
          "type": "uint256"
        }
      ],
      "stateMutability": "nonpayable",
      "type": "constructor"
    },
    {
      "anonymous": false,
      "inputs": [],
      "name": "FactoryDisabled",
      "type": "event"
    },
    {
      "anonymous": false,
      "inputs": [
        {
          "indexed": true,
          "internalType": "address",
          "name": "pool",
          "type": "address"
        }
      ],
      "name": "PoolCreated",
      "type": "event"
    },
    {
      "inputs": [],
      "name": "create",
      "outputs": [
        {
          "internalType": "address",
          "name": "",
          "type": "address"
        }
      ],
      "stateMutability": "nonpayable",
      "type": "function"
    },
    {
      "inputs": [],
      "name": "disable",
      "outputs": [],
      "stateMutability": "nonpayable",
      "type": "function"
    },
    {
      "inputs": [
        {
          "internalType": "bytes4",
          "name": "selector",
          "type": "bytes4"
        }
      ],
      "name": "getActionId",
      "outputs": [
        {
          "internalType": "bytes32",
          "name": "",
          "type": "bytes32"
        }
      ],
      "stateMutability": "view",
      "type": "function"
    },
    {
      "inputs": [],
      "name": "getAuthorizer",
      "outputs": [
        {
          "internalType": "contract IAuthorizer",
          "name": "",
          "type": "address"
        }
      ],
      "stateMutability": "view",
      "type": "function"
    },
    {
      "inputs": [],
      "name": "getCreationCode",
      "outputs": [
        {
          "internalType": "bytes",
          "name": "",
          "type": "bytes"
        }
      ],
      "stateMutability": "view",
      "type": "function"
    },
    {
      "inputs": [],
      "name": "getCreationCodeContracts",
      "outputs": [
        {
          "internalType": "address",
          "name": "contractA",
          "type": "address"
        },
        {
          "internalType": "address",
          "name": "contractB",
          "type": "address"
        }
      ],
      "stateMutability": "view",
      "type": "function"
    },
    {
      "inputs": [],
      "name": "getMaxBufferPeriodDuration",
      "outputs": [
        {
          "internalType": "uint256",
          "name": "",
          "type": "uint256"
        }
      ],
      "stateMutability": "pure",
      "type": "function"
    },
    {
      "inputs": [],
      "name": "getMaxPauseWindowDuration",
      "outputs": [
        {
          "internalType": "uint256",
          "name": "",
          "type": "uint256"
        }
      ],
      "stateMutability": "pure",
      "type": "function"
    },
    {
      "inputs": [],
      "name": "getPauseConfiguration",
      "outputs": [
        {
          "internalType": "uint256",
          "name": "pauseWindowDuration",
          "type": "uint256"
        },
        {
          "internalType": "uint256",
          "name": "bufferPeriodDuration",
          "type": "uint256"
        }
      ],
      "stateMutability": "view",
      "type": "function"
    },
    {
      "inputs": [],
      "name": "getProtocolFeePercentagesProvider",
      "outputs": [
        {
          "internalType": "contract IProtocolFeePercentagesProvider",
          "name": "",
          "type": "address"
        }
      ],
      "stateMutability": "view",
      "type": "function"
    },
    {
      "inputs": [],
      "name": "getVault",
      "outputs": [
        {
          "internalType": "contract IVault",
          "name": "",
          "type": "address"
        }
      ],
      "stateMutability": "view",
      "type": "function"
    },
    {
      "inputs": [],
      "name": "isDisabled",
      "outputs": [
        {
          "internalType": "bool",
          "name": "",
          "type": "bool"
        }
      ],
      "stateMutability": "view",
      "type": "function"
    },
    {
      "inputs": [
        {
          "internalType": "address",
          "name": "pool",
          "type": "address"
        }
      ],
      "name": "isPoolFromFactory",
      "outputs": [
        {
          "internalType": "bool",
          "name": "",
          "type": "bool"
        }
      ],
      "stateMutability": "view",
      "type": "function"
    }
  ],
  "bytecode": "0x6101c06040523480156200001257600080fd5b5060405162000e6538038062000e6583398101604081905262000035916200023d565b83838383604051806020016200004b9062000230565b601f1982820381018352601f9091011660405280518390839087903090859060006002820460a081905280830360e0819052818552909150836200009b8162000151602090811b6200048d17901c565b60601b6001600160601b0319166080528285018051838252620000ca8262000151602090811b6200048d17901c565b6001600160601b0319606091821b811660c0529690935290526101009590955250509290911b90911661012052506200010d630163f500831115610194620001a5565b620001216276a700821115610195620001a5565b6101408290526101605242016101805250505060601b6001600160601b0319166101a052506200029f9350505050565b80517f602038038060206000396000f3fefefefefefefefefefefefefefefefefefefe808352600091602081018484f090845291506200019f6001600160a01b03831615156101ac620001a5565b50919050565b81620001b657620001b681620001ba565b5050565b620001cc816210905360ea1b620001cf565b50565b62461bcd60e51b600090815260206004526007602452600a808404818106603090810160081b958390069590950190829004918206850160101b01602363ffffff0060e086901c160160181b0190930160c81b60445260e882901c90606490fd5b605c8062000e0983390190565b6000806000806080858703121562000253578384fd5b8451620002608162000289565b6020860151909450620002738162000289565b6040860151606090960151949790965092505050565b6001600160a01b0381168114620001cc57600080fd5b60805160601c60a05160c05160601c60e051610100516101205160601c6101405161016051610180516101a05160601c610ae262000327600039806103435250806102275280610250525080610274525050806103c05250806103695250806104f45250806101fe52806105705250806105155250806101dd528061054c5250610ae26000f3fe608060405234801561001057600080fd5b50600436106100de5760003560e01c8063739238d61161008c5780638d928af8116100665780638d928af81461019c578063aaabadc5146101a4578063cd43a4d5146101ac578063efc81a8c146101b4576100de565b8063739238d61461015f578063851c1bb31461017457806388f1d20414610194576100de565b80632f2770db116100bd5780632f2770db1461012d5780636634b753146101375780636c57f5a914610157576100de565b8062c194db146100e3578063174481fa146101015780632da47c4014610117575b600080fd5b6100eb6101bc565b6040516100f89190610a0b565b60405180910390f35b6101096101db565b6040516100f89291906109a4565b61011f610221565b6040516100f8929190610a7c565b6101356102a8565b005b61014a6101453660046108bb565b61030d565b6040516100f891906109cb565b61014a610338565b610167610341565b6040516100f89190610983565b6101876101823660046108f7565b610365565b6040516100f891906109d6565b6101876103b7565b6101676103be565b6101676103e2565b610187610469565b610167610471565b60606101d6604051806020016040528060008152506104ec565b905090565b7f00000000000000000000000000000000000000000000000000000000000000007f00000000000000000000000000000000000000000000000000000000000000009091565b600080427f000000000000000000000000000000000000000000000000000000000000000081101561029a57807f00000000000000000000000000000000000000000000000000000000000000000392507f000000000000000000000000000000000000000000000000000000000000000091506102a3565b60009250600091505b509091565b6102b06105c5565b6102b861060e565b600180547fffffffffffffffffffffffffffffffffffffffffffffffffffffffffffffff0016811790556040517f432acbfd662dbb5d8b378384a67159b47ca9d0f1b79f97cf64cf8585fa362d5090600090a1565b73ffffffffffffffffffffffffffffffffffffffff1660009081526020819052604090205460ff1690565b60015460ff1690565b7f000000000000000000000000000000000000000000000000000000000000000090565b60007f00000000000000000000000000000000000000000000000000000000000000008260405160200161039a929190610953565b604051602081830303815290604052805190602001209050919050565b6276a70090565b7f000000000000000000000000000000000000000000000000000000000000000090565b60006103ec6103be565b73ffffffffffffffffffffffffffffffffffffffff1663aaabadc56040518163ffffffff1660e01b815260040160206040518083038186803b15801561043157600080fd5b505afa158015610445573d6000803e3d6000fd5b505050506040513d601f19601f820116820180604052508101906101d69190610937565b630163f50090565b60006101d6604051806020016040528060008152506000610623565b80517f602038038060206000396000f3fefefefefefefefefefefefefefefefefefefe808352600091602081018484f090845291506104e673ffffffffffffffffffffffffffffffffffffffff831615156101ac6106b9565b50919050565b8051604080517f00000000000000000000000000000000000000000000000000000000000000007f0000000000000000000000000000000000000000000000000000000000000000818101858101848101602090810190965280855293957f00000000000000000000000000000000000000000000000000000000000000009592947f000000000000000000000000000000000000000000000000000000000000000094938801866000828a3c846000888301883c50602089810190898501016105b78183866106cb565b505050505050505050919050565b60006105f46000357fffffffff0000000000000000000000000000000000000000000000000000000016610365565b905061060b6106038233610745565b6101916106b9565b50565b610621610619610338565b1560d36106b9565b565b600061062d61060e565b600061063984846107e2565b73ffffffffffffffffffffffffffffffffffffffff811660008181526020819052604080822080547fffffffffffffffffffffffffffffffffffffffffffffffffffffffffffffff001660011790555192935090917f83a48fbcfc991335314e74d0496aab6a1987e992ddc85dddbcc4d6dd6ef2e9fc9190a29392505050565b816106c7576106c78161082c565b5050565b5b602081106107095781518352602092830192909101907fffffffffffffffffffffffffffffffffffffffffffffffffffffffffffffffe0016106cc565b905182516020929092036101000a7fffffffffffffffffffffffffffffffffffffffffffffffffffffffffffffffff0180199091169116179052565b600061074f6103e2565b73ffffffffffffffffffffffffffffffffffffffff16639be2a8848484306040518463ffffffff1660e01b815260040161078b939291906109df565b60206040518083038186803b1580156107a357600080fd5b505afa1580156107b7573d6000803e3d6000fd5b505050506040513d601f19601f820116820180604052508101906107db91906108d7565b9392505050565b600060606107ef846104ec565b90506000838251602084016000f5905073ffffffffffffffffffffffffffffffffffffffff8116610824573d6000803e3d6000fd5b949350505050565b7f08c379a000000000000000000000000000000000000000000000000000000000600090815260206004526007602452600a808304818106603090810160081b83860601918390049283060160101b016642414c230000300160c81b60445261060b917f42414c0000000000000000000000000000000000000000000000000000000000906242414c90606490fd5b6000602082840312156108cc578081fd5b81356107db81610a8a565b6000602082840312156108e8578081fd5b815180151581146107db578182fd5b600060208284031215610908578081fd5b81357fffffffff00000000000000000000000000000000000000000000000000000000811681146107db578182fd5b600060208284031215610948578081fd5b81516107db81610a8a565b9182527fffffffff0000000000000000000000000000000000000000000000000000000016602082015260240190565b73ffffffffffffffffffffffffffffffffffffffff91909116815260200190565b73ffffffffffffffffffffffffffffffffffffffff92831681529116602082015260400190565b901515815260200190565b90815260200190565b92835273ffffffffffffffffffffffffffffffffffffffff918216602084015216604082015260600190565b6000602080835283518082850152825b81811015610a3757858101830151858201604001528201610a1b565b81811115610a485783604083870101525b50601f017fffffffffffffffffffffffffffffffffffffffffffffffffffffffffffffffe016929092016040019392505050565b918252602082015260400190565b73ffffffffffffffffffffffffffffffffffffffff8116811461060b57600080fdfea2646970667358221220b97e5b1843a160681a063776902166c7fde362c06e78af1fa601270a69faf38764736f6c634300070100336080604052348015600f57600080fd5b50603f80601d6000396000f3fe6080604052600080fdfea2646970667358221220cf5cc38ca1a2cb6d0707e37f50aef2a866edf3140c515450047a0d02cb3f492e64736f6c63430007010033",
  "linkReferences": {},
  "deployedLinkReferences": {}
}