{
  "_format": "hh-sol-artifact-1",
  "contractName": "ChildChainGaugeTokenAdder",
  "sourceName": "contracts/admin/ChildChainGaugeTokenAdder.sol",
  "abi": [
    {
      "inputs": [
        {
          "internalType": "contract IChildChainLiquidityGaugeFactory",
          "name": "gaugeFactory",
          "type": "address"
        },
        {
          "internalType": "contract IAuthorizerAdaptorEntrypoint",
          "name": "authorizerAdaptorEntrypoint",
          "type": "address"
        }
      ],
      "stateMutability": "nonpayable",
      "type": "constructor"
    },
    {
      "inputs": [
        {
          "internalType": "contract IRewardsOnlyGauge",
          "name": "gauge",
          "type": "address"
        },
        {
          "internalType": "contract IERC20",
          "name": "rewardToken",
          "type": "address"
        },
        {
          "internalType": "address",
          "name": "distributor",
          "type": "address"
        }
      ],
      "name": "addTokenToGauge",
      "outputs": [],
      "stateMutability": "nonpayable",
      "type": "function"
    },
    {
      "inputs": [
        {
          "internalType": "bytes4",
          "name": "selector",
          "type": "bytes4"
        }
      ],
      "name": "getActionId",
      "outputs": [
        {
          "internalType": "bytes32",
          "name": "",
          "type": "bytes32"
        }
      ],
      "stateMutability": "view",
      "type": "function"
    },
    {
      "inputs": [],
      "name": "getAuthorizer",
      "outputs": [
        {
          "internalType": "contract IAuthorizer",
          "name": "",
          "type": "address"
        }
      ],
      "stateMutability": "view",
      "type": "function"
    },
    {
      "inputs": [],
      "name": "getAuthorizerAdaptorEntrypoint",
      "outputs": [
        {
          "internalType": "contract IAuthorizerAdaptorEntrypoint",
          "name": "",
          "type": "address"
        }
      ],
      "stateMutability": "view",
      "type": "function"
    },
    {
      "inputs": [],
      "name": "getVault",
      "outputs": [
        {
          "internalType": "contract IVault",
          "name": "",
          "type": "address"
        }
      ],
      "stateMutability": "view",
      "type": "function"
    }
  ],
  "bytecode": "0x61010060405234801561001157600080fd5b50604051610eb8380380610eb8833981016040819052610030916100cd565b806001600160a01b0316638d928af86040518163ffffffff1660e01b815260040160206040518083038186803b15801561006957600080fd5b505afa15801561007d573d6000803e3d6000fd5b505050506040513d601f19601f820116820180604052508101906100a19190610106565b306080526001600160601b0319606091821b811660a05291811b821660c0529190911b1660e052610141565b600080604083850312156100df578182fd5b82516100ea81610129565b60208401519092506100fb81610129565b809150509250929050565b600060208284031215610117578081fd5b815161012281610129565b9392505050565b6001600160a01b038116811461013e57600080fd5b50565b60805160a05160601c60c05160601c60e05160601c610d2c61018c6000398061023a528061033e52508060d152806105fa528061077a52508061014752508060f75250610d2c6000f3fe608060405234801561001057600080fd5b50600436106100675760003560e01c80638d928af8116100505780638d928af8146100aa578063aaabadc5146100b2578063d411ee4d146100ba57610067565b80637afcf0e61461006c578063851c1bb31461008a575b600080fd5b6100746100cf565b6040516100819190610ae7565b60405180910390f35b61009d610098366004610974565b6100f3565b6040516100819190610b76565b610074610145565b610074610169565b6100cd6100c8366004610a6d565b6101f5565b005b7f000000000000000000000000000000000000000000000000000000000000000090565b60007f000000000000000000000000000000000000000000000000000000000000000082604051602001610128929190610ab7565b604051602081830303815290604052805190602001209050919050565b7f000000000000000000000000000000000000000000000000000000000000000090565b6000610173610145565b73ffffffffffffffffffffffffffffffffffffffff1663aaabadc56040518163ffffffff1660e01b815260040160206040518083038186803b1580156101b857600080fd5b505afa1580156101cc573d6000803e3d6000fd5b505050506040513d601f19601f820116820180604052508101906101f09190610938565b905090565b6101fd6105af565b6040517fce3cc8bd00000000000000000000000000000000000000000000000000000000815273ffffffffffffffffffffffffffffffffffffffff7f0000000000000000000000000000000000000000000000000000000000000000169063ce3cc8bd9061026f908690600401610ae7565b60206040518083038186803b15801561028757600080fd5b505afa15801561029b573d6000803e3d6000fd5b505050506040513d601f19601f820116820180604052508101906102bf9190610954565b6102fe576040517f08c379a00000000000000000000000000000000000000000000000000000000081526004016102f590610c71565b60405180910390fd5b6040517f90b2008700000000000000000000000000000000000000000000000000000000815260009073ffffffffffffffffffffffffffffffffffffffff7f000000000000000000000000000000000000000000000000000000000000000016906390b2008790610373908790600401610ae7565b60206040518083038186803b15801561038b57600080fd5b505afa15801561039f573d6000803e3d6000fd5b505050506040513d601f19601f820116820180604052508101906103c39190610938565b90508373ffffffffffffffffffffffffffffffffffffffff1663bf88a6ff6040518163ffffffff1660e01b815260040160206040518083038186803b15801561040b57600080fd5b505afa15801561041f573d6000803e3d6000fd5b505050506040513d601f19601f820116820180604052508101906104439190610938565b73ffffffffffffffffffffffffffffffffffffffff168173ffffffffffffffffffffffffffffffffffffffff16146104a7576040517f08c379a00000000000000000000000000000000000000000000000000000000081526004016102f590610c3a565b6104b28184846105f8565b6104ba610919565b60005b600881101561059c576040517f54c49fe900000000000000000000000000000000000000000000000000000000815273ffffffffffffffffffffffffffffffffffffffff8416906354c49fe990610518908490600401610b76565b60206040518083038186803b15801561053057600080fd5b505afa158015610544573d6000803e3d6000fd5b505050506040513d601f19601f820116820180604052508101906105689190610938565b82826008811061057457fe5b73ffffffffffffffffffffffffffffffffffffffff90921660209290920201526001016104bd565b506105a8858383610760565b5050505050565b60006105de6000357fffffffff00000000000000000000000000000000000000000000000000000000166100f3565b90506105f56105ed82336107db565b610191610878565b50565b7f000000000000000000000000000000000000000000000000000000000000000073ffffffffffffffffffffffffffffffffffffffff16634036176a8463661ab0b260e01b858562093a8060405160240161065593929190610c09565b604080517fffffffffffffffffffffffffffffffffffffffffffffffffffffffffffffffe08184030181529181526020820180517bffffffffffffffffffffffffffffffffffffffffffffffffffffffff167fffffffff000000000000000000000000000000000000000000000000000000009485161790525160e085901b90921682526106e69291600401610b08565b600060405180830381600087803b15801561070057600080fd5b505af1158015610714573d6000803e3d6000fd5b505050506040513d6000823e601f3d9081017fffffffffffffffffffffffffffffffffffffffffffffffffffffffffffffffe016820160405261075a91908101906109b4565b50505050565b60405173ffffffffffffffffffffffffffffffffffffffff7f00000000000000000000000000000000000000000000000000000000000000001690634036176a9085907f47d2d5d30000000000000000000000000000000000000000000000000000000090610655908790631afe22a6908890602401610bab565b60006107e5610169565b73ffffffffffffffffffffffffffffffffffffffff16639be2a8848484306040518463ffffffff1660e01b815260040161082193929190610b7f565b60206040518083038186803b15801561083957600080fd5b505afa15801561084d573d6000803e3d6000fd5b505050506040513d601f19601f820116820180604052508101906108719190610954565b9392505050565b81610886576108868161088a565b5050565b7f08c379a000000000000000000000000000000000000000000000000000000000600090815260206004526007602452600a808304818106603090810160081b83860601918390049283060160101b016642414c230000300160c81b6044526105f5917f42414c0000000000000000000000000000000000000000000000000000000000906242414c90606490fd5b6040518061010001604052806008906020820280368337509192915050565b600060208284031215610949578081fd5b815161087181610cd4565b600060208284031215610965578081fd5b81518015158114610871578182fd5b600060208284031215610985578081fd5b81357fffffffff0000000000000000000000000000000000000000000000000000000081168114610871578182fd5b6000602082840312156109c5578081fd5b815167ffffffffffffffff808211156109dc578283fd5b818401915084601f8301126109ef578283fd5b8151818111156109fd578384fd5b60405160207fffffffffffffffffffffffffffffffffffffffffffffffffffffffffffffffe0601f8401168201018181108482111715610a3b578586fd5b604052818152838201602001871015610a52578485fd5b610a63826020830160208701610ca8565b9695505050505050565b600080600060608486031215610a81578182fd5b8335610a8c81610cd4565b92506020840135610a9c81610cd4565b91506040840135610aac81610cd4565b809150509250925092565b9182527fffffffff0000000000000000000000000000000000000000000000000000000016602082015260240190565b73ffffffffffffffffffffffffffffffffffffffff91909116815260200190565b600073ffffffffffffffffffffffffffffffffffffffff84168252604060208301528251806040840152610b43816060850160208701610ca8565b601f017fffffffffffffffffffffffffffffffffffffffffffffffffffffffffffffffe016919091016060019392505050565b90815260200190565b92835273ffffffffffffffffffffffffffffffffffffffff918216602084015216604082015260600190565b60006101408201905073ffffffffffffffffffffffffffffffffffffffff808616835260208581850152604084018560005b6008811015610bfc578151851683529183019190830190600101610bdd565b5050505050949350505050565b73ffffffffffffffffffffffffffffffffffffffff9384168152919092166020820152604081019190915260600190565b6020808252601b908201527f4e6f74206f726967696e616c2067617567652073747265616d65720000000000604082015260600190565b6020808252600d908201527f496e76616c696420676175676500000000000000000000000000000000000000604082015260600190565b60005b83811015610cc3578181015183820152602001610cab565b8381111561075a5750506000910152565b73ffffffffffffffffffffffffffffffffffffffff811681146105f557600080fdfea2646970667358221220ba609e4fcb2f319d867014747854a54183ca932e5ad39bd634b61b7c3b9d78e364736f6c63430007010033",
  "linkReferences": {},
  "deployedLinkReferences": {}
}