{
  "_format": "hh-sol-artifact-1",
  "contractName": "FixedPointMock",
  "sourceName": "contracts/test/FixedPointMock.sol",
  "abi": [
    {
      "inputs": [
        {
          "internalType": "uint256",
          "name": "x",
          "type": "uint256"
        },
        {
          "internalType": "uint256",
          "name": "y",
          "type": "uint256"
        }
      ],
      "name": "powDown",
      "outputs": [
        {
          "internalType": "uint256",
          "name": "",
          "type": "uint256"
        }
      ],
      "stateMutability": "pure",
      "type": "function"
    },
    {
      "inputs": [
        {
          "internalType": "uint256",
          "name": "x",
          "type": "uint256"
        },
        {
          "internalType": "uint256",
          "name": "y",
          "type": "uint256"
        }
      ],
      "name": "powUp",
      "outputs": [
        {
          "internalType": "uint256",
          "name": "",
          "type": "uint256"
        }
      ],
      "stateMutability": "pure",
      "type": "function"
    }
  ],
  "bytecode": "0x608060405234801561001057600080fd5b50610e41806100206000396000f3fe608060405234801561001057600080fd5b50600436106100365760003560e01c8063164c95d51461003b57806344735d4f14610070575b600080fd5b61005e6004803603604081101561005157600080fd5b5080359060200135610093565b60408051918252519081900360200190f35b61005e6004803603604081101561008657600080fd5b50803590602001356100a8565b600061009f83836100b4565b90505b92915050565b600061009f8383610159565b6000670de0b6b3a76400008214156100cd5750816100a2565b671bc16d674ec800008214156100ee576100e783846101f2565b90506100a2565b673782dace9d90000082141561011e57600061010a84856101f2565b905061011681826101f2565b9150506100a2565b600061012a8484610234565b9050600061014461013d836127106101f2565b6001610354565b90506101508282610354565b925050506100a2565b6000670de0b6b3a76400008214156101725750816100a2565b671bc16d674ec8000082141561018c576100e78384610366565b673782dace9d9000008214156101b45760006101a88485610366565b90506101168182610366565b60006101c08484610234565b905060006101d361013d836127106101f2565b9050808210156101e8576000925050506100a2565b6101508282610392565b600082820261021684158061020f57508385838161020c57fe5b04145b60036103a8565b6001670de0b6b3a76400006001830304018115150291505092915050565b60008161024a5750670de0b6b3a76400006100a2565b82610257575060006100a2565b61026760ff84901c1560066103a8565b8261028d770bce5086492111aea88f4bb1ca6bcf584181ea8059f76532841060076103a8565b826000670c7d713b49da0000831380156102ae5750670f43fc2c04ee000083125b156102e55760006102be846103ba565b9050670de0b6b3a764000080820784020583670de0b6b3a7640000830502019150506102f3565b816102ef846104f3565b0290505b670de0b6b3a764000090056103417ffffffffffffffffffffffffffffffffffffffffffffffffdc702bd3a30fc0000821280159061033a575068070c1cc73b00c800008213155b60086103a8565b61034a81610893565b9695505050505050565b600082820161009f84821015836103a8565b600082820261038084158061020f57508385838161020c57fe5b670de0b6b3a764000090049392505050565b60006103a28383111560016103a8565b50900390565b816103b6576103b681610d63565b5050565b670de0b6b3a7640000026000806ec097ce7bc90715b34b9f1000000000808401907fffffffffffffffffffffffffffffffffff3f68318436f8ea4cb460f0000000008501028161040657fe5b05905060006ec097ce7bc90715b34b9f100000000082800205905081806ec097ce7bc90715b34b9f100000000081840205915060038205016ec097ce7bc90715b34b9f100000000082840205915060058205016ec097ce7bc90715b34b9f100000000082840205915060078205016ec097ce7bc90715b34b9f100000000082840205915060098205016ec097ce7bc90715b34b9f1000000000828402059150600b8205016ec097ce7bc90715b34b9f1000000000828402059150600d8205016ec097ce7bc90715b34b9f1000000000828402059150600f820581019050806002029450505050505b919050565b6000670de0b6b3a764000082121561053057610526826ec097ce7bc90715b34b9f10000000008161052057fe5b056104f3565b60000390506104ee565b60007e1600ef3172e58d2e933ec884fde10064c63b5372d805e203c0000000000000831261058157770195e54c5dd42177f53a27172fa9ec630262827000000000830592506806f05b59d3b2000000015b73011798004d755d3c8bc8e03204cf44619e00000083126105b9576b1425982cf597cd205cef7380830592506803782dace9d9000000015b606492830292026e01855144814a7ff805980ff00840008312610601576e01855144814a7ff805980ff008400068056bc75e2d63100000840205925068ad78ebc5ac62000000015b6b02df0ab5a80a22c61ab5a700831261063c576b02df0ab5a80a22c61ab5a70068056bc75e2d6310000084020592506856bc75e2d631000000015b693f1fce3da636ea5cf850831261067357693f1fce3da636ea5cf85068056bc75e2d631000008402059250682b5e3af16b18800000015b690127fa27722cc06cc5e283126106aa57690127fa27722cc06cc5e268056bc75e2d6310000084020592506815af1d78b58c400000015b68280e60114edb805d0383126106df5768280e60114edb805d0368056bc75e2d631000008402059250680ad78ebc5ac6200000015b680ebc5fb41746121110831261070a57680ebc5fb4174612111068056bc75e2d631000009384020592015b6808f00f760a4b2db55d831261073f576808f00f760a4b2db55d68056bc75e2d6310000084020592506802b5e3af16b1880000015b6806f5f17757889379378312610774576806f5f177578893793768056bc75e2d63100000840205925068015af1d78b58c40000015b6806248f33704b28660383126107a8576806248f33704b28660368056bc75e2d63100000840205925067ad78ebc5ac620000015b6805c548670b9510e7ac83126107dc576805c548670b9510e7ac68056bc75e2d6310000084020592506756bc75e2d6310000015b600068056bc75e2d63100000840168056bc75e2d6310000080860302816107ff57fe5b059050600068056bc75e2d63100000828002059050818068056bc75e2d63100000818402059150600382050168056bc75e2d63100000828402059150600582050168056bc75e2d63100000828402059150600782050168056bc75e2d63100000828402059150600982050168056bc75e2d63100000828402059150600b820501600202606485820105979650505050505050565b60006108d87ffffffffffffffffffffffffffffffffffffffffffffffffdc702bd3a30fc000083121580156108d1575068070c1cc73b00c800008313155b60096103a8565b600082121561090c576108ed82600003610893565b6ec097ce7bc90715b34b9f10000000008161090457fe5b0590506104ee565b60006806f05b59d3b2000000831261096257507ffffffffffffffffffffffffffffffffffffffffffffffff90fa4a62c4e00000090910190770195e54c5dd42177f53a27172fa9ec6302628270000000006109ae565b6803782dace9d900000083126109aa57507ffffffffffffffffffffffffffffffffffffffffffffffffc87d2531627000000909101906b1425982cf597cd205cef73806109ae565b5060015b6064929092029168056bc75e2d6310000068ad78ebc5ac620000008412610a14577fffffffffffffffffffffffffffffffffffffffffffffff5287143a539e0000009093019268056bc75e2d631000006e01855144814a7ff805980ff008400082020590505b6856bc75e2d6310000008412610a66577fffffffffffffffffffffffffffffffffffffffffffffffa9438a1d29cf0000009093019268056bc75e2d631000006b02df0ab5a80a22c61ab5a70082020590505b682b5e3af16b188000008412610ab6577fffffffffffffffffffffffffffffffffffffffffffffffd4a1c50e94e78000009093019268056bc75e2d63100000693f1fce3da636ea5cf85082020590505b6815af1d78b58c4000008412610b06577fffffffffffffffffffffffffffffffffffffffffffffffea50e2874a73c000009093019268056bc75e2d63100000690127fa27722cc06cc5e282020590505b680ad78ebc5ac62000008412610b55577ffffffffffffffffffffffffffffffffffffffffffffffff5287143a539e000009093019268056bc75e2d6310000068280e60114edb805d0382020590505b68056bc75e2d631000008412610ba4577ffffffffffffffffffffffffffffffffffffffffffffffffa9438a1d29cf000009093019268056bc75e2d63100000680ebc5fb4174612111082020590505b6802b5e3af16b18800008412610bf3577ffffffffffffffffffffffffffffffffffffffffffffffffd4a1c50e94e7800009093019268056bc75e2d631000006808f00f760a4b2db55d82020590505b68015af1d78b58c400008412610c42577ffffffffffffffffffffffffffffffffffffffffffffffffea50e2874a73c00009093019268056bc75e2d631000006806f5f177578893793782020590505b68056bc75e2d631000008481019085906002908280020505918201919050600368056bc75e2d631000008783020505918201919050600468056bc75e2d631000008783020505918201919050600568056bc75e2d631000008783020505918201919050600668056bc75e2d631000008783020505918201919050600768056bc75e2d631000008783020505918201919050600868056bc75e2d631000008783020505918201919050600968056bc75e2d631000008783020505918201919050600a68056bc75e2d631000008783020505918201919050600b68056bc75e2d631000008783020505918201919050600c68056bc75e2d631000008783020505918201919050606468056bc75e2d63100000848402058502059695505050505050565b610d8d817f42414c0000000000000000000000000000000000000000000000000000000000610d90565b50565b7f08c379a000000000000000000000000000000000000000000000000000000000600090815260206004526007602452600a808404818106603090810160081b958390069590950190829004918206850160101b01602363ffffff0060e086901c160160181b0190930160c81b60445260e882901c90606490fdfea264697066735822122051b6ed8dc7bf6d7f0b70033a2c3669356f427be524b6c3a9fdb9ca9ea2c6a08964736f6c63430007010033",
  "linkReferences": {},
  "deployedLinkReferences": {}
}