{
  "_format": "hh-sol-artifact-1",
  "contractName": "MockNewBasePool",
  "sourceName": "contracts/test/MockNewBasePool.sol",
  "abi": [
    {
      "inputs": [
        {
          "internalType": "contract IVault",
          "name": "vault",
          "type": "address"
        },
        {
          "internalType": "enum IVault.PoolSpecialization",
          "name": "specialization",
          "type": "uint8"
        },
        {
          "internalType": "string",
          "name": "name",
          "type": "string"
        },
        {
          "internalType": "string",
          "name": "symbol",
          "type": "string"
        },
        {
          "internalType": "contract IERC20[]",
          "name": "tokens",
          "type": "address[]"
        },
        {
          "internalType": "address[]",
          "name": "assetManagers",
          "type": "address[]"
        },
        {
          "internalType": "uint256",
          "name": "pauseWindowDuration",
          "type": "uint256"
        },
        {
          "internalType": "uint256",
          "name": "bufferPeriodDuration",
          "type": "uint256"
        },
        {
          "internalType": "address",
          "name": "owner",
          "type": "address"
        }
      ],
      "stateMutability": "nonpayable",
      "type": "constructor"
    },
    {
      "anonymous": false,
      "inputs": [
        {
          "indexed": true,
          "internalType": "address",
          "name": "owner",
          "type": "address"
        },
        {
          "indexed": true,
          "internalType": "address",
          "name": "spender",
          "type": "address"
        },
        {
          "indexed": false,
          "internalType": "uint256",
          "name": "value",
          "type": "uint256"
        }
      ],
      "name": "Approval",
      "type": "event"
    },
    {
      "anonymous": false,
      "inputs": [
        {
          "indexed": false,
          "internalType": "address",
          "name": "sender",
          "type": "address"
        },
        {
          "indexed": false,
          "internalType": "uint256[]",
          "name": "balances",
          "type": "uint256[]"
        },
        {
          "indexed": false,
          "internalType": "bytes",
          "name": "userData",
          "type": "bytes"
        }
      ],
      "name": "InnerOnExitPoolCalled",
      "type": "event"
    },
    {
      "anonymous": false,
      "inputs": [
        {
          "indexed": false,
          "internalType": "bytes",
          "name": "userData",
          "type": "bytes"
        }
      ],
      "name": "InnerOnInitializePoolCalled",
      "type": "event"
    },
    {
      "anonymous": false,
      "inputs": [
        {
          "indexed": false,
          "internalType": "address",
          "name": "sender",
          "type": "address"
        },
        {
          "indexed": false,
          "internalType": "uint256[]",
          "name": "balances",
          "type": "uint256[]"
        },
        {
          "indexed": false,
          "internalType": "bytes",
          "name": "userData",
          "type": "bytes"
        }
      ],
      "name": "InnerOnJoinPoolCalled",
      "type": "event"
    },
    {
      "anonymous": false,
      "inputs": [
        {
          "components": [
            {
              "internalType": "enum IVault.SwapKind",
              "name": "kind",
              "type": "uint8"
            },
            {
              "internalType": "contract IERC20",
              "name": "tokenIn",
              "type": "address"
            },
            {
              "internalType": "contract IERC20",
              "name": "tokenOut",
              "type": "address"
            },
            {
              "internalType": "uint256",
              "name": "amount",
              "type": "uint256"
            },
            {
              "internalType": "bytes32",
              "name": "poolId",
              "type": "bytes32"
            },
            {
              "internalType": "uint256",
              "name": "lastChangeBlock",
              "type": "uint256"
            },
            {
              "internalType": "address",
              "name": "from",
              "type": "address"
            },
            {
              "internalType": "address",
              "name": "to",
              "type": "address"
            },
            {
              "internalType": "bytes",
              "name": "userData",
              "type": "bytes"
            }
          ],
          "indexed": false,
          "internalType": "struct IPoolSwapStructs.SwapRequest",
          "name": "request",
          "type": "tuple"
        },
        {
          "indexed": false,
          "internalType": "uint256[]",
          "name": "balances",
          "type": "uint256[]"
        },
        {
          "indexed": false,
          "internalType": "uint256",
          "name": "indexIn",
          "type": "uint256"
        },
        {
          "indexed": false,
          "internalType": "uint256",
          "name": "indexOut",
          "type": "uint256"
        }
      ],
      "name": "InnerOnSwapGeneralCalled",
      "type": "event"
    },
    {
      "anonymous": false,
      "inputs": [
        {
          "components": [
            {
              "internalType": "enum IVault.SwapKind",
              "name": "kind",
              "type": "uint8"
            },
            {
              "internalType": "contract IERC20",
              "name": "tokenIn",
              "type": "address"
            },
            {
              "internalType": "contract IERC20",
              "name": "tokenOut",
              "type": "address"
            },
            {
              "internalType": "uint256",
              "name": "amount",
              "type": "uint256"
            },
            {
              "internalType": "bytes32",
              "name": "poolId",
              "type": "bytes32"
            },
            {
              "internalType": "uint256",
              "name": "lastChangeBlock",
              "type": "uint256"
            },
            {
              "internalType": "address",
              "name": "from",
              "type": "address"
            },
            {
              "internalType": "address",
              "name": "to",
              "type": "address"
            },
            {
              "internalType": "bytes",
              "name": "userData",
              "type": "bytes"
            }
          ],
          "indexed": false,
          "internalType": "struct IPoolSwapStructs.SwapRequest",
          "name": "request",
          "type": "tuple"
        },
        {
          "indexed": false,
          "internalType": "uint256",
          "name": "balanceTokenIn",
          "type": "uint256"
        },
        {
          "indexed": false,
          "internalType": "uint256",
          "name": "balanceTokenOut",
          "type": "uint256"
        }
      ],
      "name": "InnerOnSwapMinimalCalled",
      "type": "event"
    },
    {
      "anonymous": false,
      "inputs": [
        {
          "indexed": false,
          "internalType": "bool",
          "name": "paused",
          "type": "bool"
        }
      ],
      "name": "PausedStateChanged",
      "type": "event"
    },
    {
      "anonymous": false,
      "inputs": [
        {
          "indexed": false,
          "internalType": "uint256",
          "name": "totalSupply",
          "type": "uint256"
        },
        {
          "indexed": false,
          "internalType": "uint256[]",
          "name": "balances",
          "type": "uint256[]"
        },
        {
          "indexed": false,
          "internalType": "uint256",
          "name": "bptAmountIn",
          "type": "uint256"
        }
      ],
      "name": "RecoveryModeExit",
      "type": "event"
    },
    {
      "anonymous": false,
      "inputs": [
        {
          "indexed": false,
          "internalType": "bool",
          "name": "enabled",
          "type": "bool"
        }
      ],
      "name": "RecoveryModeStateChanged",
      "type": "event"
    },
    {
      "anonymous": false,
      "inputs": [
        {
          "indexed": true,
          "internalType": "address",
          "name": "from",
          "type": "address"
        },
        {
          "indexed": true,
          "internalType": "address",
          "name": "to",
          "type": "address"
        },
        {
          "indexed": false,
          "internalType": "uint256",
          "name": "value",
          "type": "uint256"
        }
      ],
      "name": "Transfer",
      "type": "event"
    },
    {
      "inputs": [],
      "name": "DOMAIN_SEPARATOR",
      "outputs": [
        {
          "internalType": "bytes32",
          "name": "",
          "type": "bytes32"
        }
      ],
      "stateMutability": "view",
      "type": "function"
    },
    {
      "inputs": [],
      "name": "ON_EXIT_RETURN",
      "outputs": [
        {
          "internalType": "uint256",
          "name": "",
          "type": "uint256"
        }
      ],
      "stateMutability": "view",
      "type": "function"
    },
    {
      "inputs": [],
      "name": "ON_JOIN_RETURN",
      "outputs": [
        {
          "internalType": "uint256",
          "name": "",
          "type": "uint256"
        }
      ],
      "stateMutability": "view",
      "type": "function"
    },
    {
      "inputs": [],
      "name": "ON_SWAP_GENERAL_RETURN",
      "outputs": [
        {
          "internalType": "uint256",
          "name": "",
          "type": "uint256"
        }
      ],
      "stateMutability": "view",
      "type": "function"
    },
    {
      "inputs": [],
      "name": "ON_SWAP_MINIMAL_RETURN",
      "outputs": [
        {
          "internalType": "uint256",
          "name": "",
          "type": "uint256"
        }
      ],
      "stateMutability": "view",
      "type": "function"
    },
    {
      "inputs": [
        {
          "internalType": "address",
          "name": "owner",
          "type": "address"
        },
        {
          "internalType": "address",
          "name": "spender",
          "type": "address"
        }
      ],
      "name": "allowance",
      "outputs": [
        {
          "internalType": "uint256",
          "name": "",
          "type": "uint256"
        }
      ],
      "stateMutability": "view",
      "type": "function"
    },
    {
      "inputs": [
        {
          "internalType": "address",
          "name": "spender",
          "type": "address"
        },
        {
          "internalType": "uint256",
          "name": "amount",
          "type": "uint256"
        }
      ],
      "name": "approve",
      "outputs": [
        {
          "internalType": "bool",
          "name": "",
          "type": "bool"
        }
      ],
      "stateMutability": "nonpayable",
      "type": "function"
    },
    {
      "inputs": [
        {
          "internalType": "address",
          "name": "account",
          "type": "address"
        }
      ],
      "name": "balanceOf",
      "outputs": [
        {
          "internalType": "uint256",
          "name": "",
          "type": "uint256"
        }
      ],
      "stateMutability": "view",
      "type": "function"
    },
    {
      "inputs": [],
      "name": "decimals",
      "outputs": [
        {
          "internalType": "uint8",
          "name": "",
          "type": "uint8"
        }
      ],
      "stateMutability": "view",
      "type": "function"
    },
    {
      "inputs": [
        {
          "internalType": "address",
          "name": "spender",
          "type": "address"
        },
        {
          "internalType": "uint256",
          "name": "amount",
          "type": "uint256"
        }
      ],
      "name": "decreaseAllowance",
      "outputs": [
        {
          "internalType": "bool",
          "name": "",
          "type": "bool"
        }
      ],
      "stateMutability": "nonpayable",
      "type": "function"
    },
    {
      "inputs": [],
      "name": "disableRecoveryMode",
      "outputs": [],
      "stateMutability": "nonpayable",
      "type": "function"
    },
    {
      "inputs": [],
      "name": "enableRecoveryMode",
      "outputs": [],
      "stateMutability": "nonpayable",
      "type": "function"
    },
    {
      "inputs": [
        {
          "internalType": "bytes4",
          "name": "selector",
          "type": "bytes4"
        }
      ],
      "name": "getActionId",
      "outputs": [
        {
          "internalType": "bytes32",
          "name": "",
          "type": "bytes32"
        }
      ],
      "stateMutability": "view",
      "type": "function"
    },
    {
      "inputs": [],
      "name": "getAuthorizer",
      "outputs": [
        {
          "internalType": "contract IAuthorizer",
          "name": "",
          "type": "address"
        }
      ],
      "stateMutability": "view",
      "type": "function"
    },
    {
      "inputs": [],
      "name": "getDomainSeparator",
      "outputs": [
        {
          "internalType": "bytes32",
          "name": "",
          "type": "bytes32"
        }
      ],
      "stateMutability": "view",
      "type": "function"
    },
    {
      "inputs": [],
      "name": "getMinimumBpt",
      "outputs": [
        {
          "internalType": "uint256",
          "name": "",
          "type": "uint256"
        }
      ],
      "stateMutability": "pure",
      "type": "function"
    },
    {
      "inputs": [
        {
          "internalType": "address",
          "name": "account",
          "type": "address"
        }
      ],
      "name": "getNextNonce",
      "outputs": [
        {
          "internalType": "uint256",
          "name": "",
          "type": "uint256"
        }
      ],
      "stateMutability": "view",
      "type": "function"
    },
    {
      "inputs": [],
      "name": "getOwner",
      "outputs": [
        {
          "internalType": "address",
          "name": "",
          "type": "address"
        }
      ],
      "stateMutability": "view",
      "type": "function"
    },
    {
      "inputs": [],
      "name": "getPausedState",
      "outputs": [
        {
          "internalType": "bool",
          "name": "paused",
          "type": "bool"
        },
        {
          "internalType": "uint256",
          "name": "pauseWindowEndTime",
          "type": "uint256"
        },
        {
          "internalType": "uint256",
          "name": "bufferPeriodEndTime",
          "type": "uint256"
        }
      ],
      "stateMutability": "view",
      "type": "function"
    },
    {
      "inputs": [],
      "name": "getPoolId",
      "outputs": [
        {
          "internalType": "bytes32",
          "name": "",
          "type": "bytes32"
        }
      ],
      "stateMutability": "view",
      "type": "function"
    },
    {
      "inputs": [],
      "name": "getProtocolFeesCollector",
      "outputs": [
        {
          "internalType": "contract IProtocolFeesCollector",
          "name": "",
          "type": "address"
        }
      ],
      "stateMutability": "view",
      "type": "function"
    },
    {
      "inputs": [],
      "name": "getScalingFactors",
      "outputs": [
        {
          "internalType": "uint256[]",
          "name": "",
          "type": "uint256[]"
        }
      ],
      "stateMutability": "pure",
      "type": "function"
    },
    {
      "inputs": [],
      "name": "getSwapFeePercentage",
      "outputs": [
        {
          "internalType": "uint256",
          "name": "",
          "type": "uint256"
        }
      ],
      "stateMutability": "pure",
      "type": "function"
    },
    {
      "inputs": [],
      "name": "getVault",
      "outputs": [
        {
          "internalType": "contract IVault",
          "name": "",
          "type": "address"
        }
      ],
      "stateMutability": "view",
      "type": "function"
    },
    {
      "inputs": [],
      "name": "inRecoveryMode",
      "outputs": [
        {
          "internalType": "bool",
          "name": "",
          "type": "bool"
        }
      ],
      "stateMutability": "view",
      "type": "function"
    },
    {
      "inputs": [
        {
          "internalType": "address",
          "name": "spender",
          "type": "address"
        },
        {
          "internalType": "uint256",
          "name": "addedValue",
          "type": "uint256"
        }
      ],
      "name": "increaseAllowance",
      "outputs": [
        {
          "internalType": "bool",
          "name": "",
          "type": "bool"
        }
      ],
      "stateMutability": "nonpayable",
      "type": "function"
    },
    {
      "inputs": [],
      "name": "name",
      "outputs": [
        {
          "internalType": "string",
          "name": "",
          "type": "string"
        }
      ],
      "stateMutability": "view",
      "type": "function"
    },
    {
      "inputs": [
        {
          "internalType": "address",
          "name": "owner",
          "type": "address"
        }
      ],
      "name": "nonces",
      "outputs": [
        {
          "internalType": "uint256",
          "name": "",
          "type": "uint256"
        }
      ],
      "stateMutability": "view",
      "type": "function"
    },
    {
      "inputs": [
        {
          "internalType": "bytes32",
          "name": "poolId",
          "type": "bytes32"
        },
        {
          "internalType": "address",
          "name": "sender",
          "type": "address"
        },
        {
          "internalType": "address",
          "name": "",
          "type": "address"
        },
        {
          "internalType": "uint256[]",
          "name": "balances",
          "type": "uint256[]"
        },
        {
          "internalType": "uint256",
          "name": "",
          "type": "uint256"
        },
        {
          "internalType": "uint256",
          "name": "",
          "type": "uint256"
        },
        {
          "internalType": "bytes",
          "name": "userData",
          "type": "bytes"
        }
      ],
      "name": "onExitPool",
      "outputs": [
        {
          "internalType": "uint256[]",
          "name": "amountsOut",
          "type": "uint256[]"
        },
        {
          "internalType": "uint256[]",
          "name": "dueProtocolFees",
          "type": "uint256[]"
        }
      ],
      "stateMutability": "nonpayable",
      "type": "function"
    },
    {
      "inputs": [
        {
          "internalType": "bytes32",
          "name": "poolId",
          "type": "bytes32"
        },
        {
          "internalType": "address",
          "name": "sender",
          "type": "address"
        },
        {
          "internalType": "address",
          "name": "recipient",
          "type": "address"
        },
        {
          "internalType": "uint256[]",
          "name": "balances",
          "type": "uint256[]"
        },
        {
          "internalType": "uint256",
          "name": "",
          "type": "uint256"
        },
        {
          "internalType": "uint256",
          "name": "",
          "type": "uint256"
        },
        {
          "internalType": "bytes",
          "name": "userData",
          "type": "bytes"
        }
      ],
      "name": "onJoinPool",
      "outputs": [
        {
          "internalType": "uint256[]",
          "name": "amountsIn",
          "type": "uint256[]"
        },
        {
          "internalType": "uint256[]",
          "name": "dueProtocolFees",
          "type": "uint256[]"
        }
      ],
      "stateMutability": "nonpayable",
      "type": "function"
    },
    {
      "inputs": [
        {
          "components": [
            {
              "internalType": "enum IVault.SwapKind",
              "name": "kind",
              "type": "uint8"
            },
            {
              "internalType": "contract IERC20",
              "name": "tokenIn",
              "type": "address"
            },
            {
              "internalType": "contract IERC20",
              "name": "tokenOut",
              "type": "address"
            },
            {
              "internalType": "uint256",
              "name": "amount",
              "type": "uint256"
            },
            {
              "internalType": "bytes32",
              "name": "poolId",
              "type": "bytes32"
            },
            {
              "internalType": "uint256",
              "name": "lastChangeBlock",
              "type": "uint256"
            },
            {
              "internalType": "address",
              "name": "from",
              "type": "address"
            },
            {
              "internalType": "address",
              "name": "to",
              "type": "address"
            },
            {
              "internalType": "bytes",
              "name": "userData",
              "type": "bytes"
            }
          ],
          "internalType": "struct IPoolSwapStructs.SwapRequest",
          "name": "request",
          "type": "tuple"
        },
        {
          "internalType": "uint256[]",
          "name": "balances",
          "type": "uint256[]"
        },
        {
          "internalType": "uint256",
          "name": "indexIn",
          "type": "uint256"
        },
        {
          "internalType": "uint256",
          "name": "indexOut",
          "type": "uint256"
        }
      ],
      "name": "onSwap",
      "outputs": [
        {
          "internalType": "uint256",
          "name": "",
          "type": "uint256"
        }
      ],
      "stateMutability": "nonpayable",
      "type": "function"
    },
    {
      "inputs": [
        {
          "components": [
            {
              "internalType": "enum IVault.SwapKind",
              "name": "kind",
              "type": "uint8"
            },
            {
              "internalType": "contract IERC20",
              "name": "tokenIn",
              "type": "address"
            },
            {
              "internalType": "contract IERC20",
              "name": "tokenOut",
              "type": "address"
            },
            {
              "internalType": "uint256",
              "name": "amount",
              "type": "uint256"
            },
            {
              "internalType": "bytes32",
              "name": "poolId",
              "type": "bytes32"
            },
            {
              "internalType": "uint256",
              "name": "lastChangeBlock",
              "type": "uint256"
            },
            {
              "internalType": "address",
              "name": "from",
              "type": "address"
            },
            {
              "internalType": "address",
              "name": "to",
              "type": "address"
            },
            {
              "internalType": "bytes",
              "name": "userData",
              "type": "bytes"
            }
          ],
          "internalType": "struct IPoolSwapStructs.SwapRequest",
          "name": "request",
          "type": "tuple"
        },
        {
          "internalType": "uint256",
          "name": "balanceTokenIn",
          "type": "uint256"
        },
        {
          "internalType": "uint256",
          "name": "balanceTokenOut",
          "type": "uint256"
        }
      ],
      "name": "onSwap",
      "outputs": [
        {
          "internalType": "uint256",
          "name": "",
          "type": "uint256"
        }
      ],
      "stateMutability": "nonpayable",
      "type": "function"
    },
    {
      "inputs": [
        {
          "internalType": "bytes32",
          "name": "poolId",
          "type": "bytes32"
        }
      ],
      "name": "onlyVaultCallable",
      "outputs": [],
      "stateMutability": "view",
      "type": "function"
    },
    {
      "inputs": [],
      "name": "pause",
      "outputs": [],
      "stateMutability": "nonpayable",
      "type": "function"
    },
    {
      "inputs": [
        {
          "internalType": "uint256",
          "name": "bptAmount",
          "type": "uint256"
        }
      ],
      "name": "payProtocolFees",
      "outputs": [],
      "stateMutability": "nonpayable",
      "type": "function"
    },
    {
      "inputs": [
        {
          "internalType": "address",
          "name": "owner",
          "type": "address"
        },
        {
          "internalType": "address",
          "name": "spender",
          "type": "address"
        },
        {
          "internalType": "uint256",
          "name": "value",
          "type": "uint256"
        },
        {
          "internalType": "uint256",
          "name": "deadline",
          "type": "uint256"
        },
        {
          "internalType": "uint8",
          "name": "v",
          "type": "uint8"
        },
        {
          "internalType": "bytes32",
          "name": "r",
          "type": "bytes32"
        },
        {
          "internalType": "bytes32",
          "name": "s",
          "type": "bytes32"
        }
      ],
      "name": "permit",
      "outputs": [],
      "stateMutability": "nonpayable",
      "type": "function"
    },
    {
      "inputs": [
        {
          "internalType": "bytes32",
          "name": "",
          "type": "bytes32"
        },
        {
          "internalType": "address",
          "name": "sender",
          "type": "address"
        },
        {
          "internalType": "address",
          "name": "",
          "type": "address"
        },
        {
          "internalType": "uint256[]",
          "name": "balances",
          "type": "uint256[]"
        },
        {
          "internalType": "uint256",
          "name": "",
          "type": "uint256"
        },
        {
          "internalType": "uint256",
          "name": "",
          "type": "uint256"
        },
        {
          "internalType": "bytes",
          "name": "userData",
          "type": "bytes"
        }
      ],
      "name": "queryExit",
      "outputs": [
        {
          "internalType": "uint256",
          "name": "bptIn",
          "type": "uint256"
        },
        {
          "internalType": "uint256[]",
          "name": "amountsOut",
          "type": "uint256[]"
        }
      ],
      "stateMutability": "view",
      "type": "function"
    },
    {
      "inputs": [
        {
          "internalType": "bytes32",
          "name": "",
          "type": "bytes32"
        },
        {
          "internalType": "address",
          "name": "sender",
          "type": "address"
        },
        {
          "internalType": "address",
          "name": "",
          "type": "address"
        },
        {
          "internalType": "uint256[]",
          "name": "balances",
          "type": "uint256[]"
        },
        {
          "internalType": "uint256",
          "name": "",
          "type": "uint256"
        },
        {
          "internalType": "uint256",
          "name": "",
          "type": "uint256"
        },
        {
          "internalType": "bytes",
          "name": "userData",
          "type": "bytes"
        }
      ],
      "name": "queryJoin",
      "outputs": [
        {
          "internalType": "uint256",
          "name": "bptOut",
          "type": "uint256"
        },
        {
          "internalType": "uint256[]",
          "name": "amountsIn",
          "type": "uint256[]"
        }
      ],
      "stateMutability": "view",
      "type": "function"
    },
    {
      "inputs": [],
      "name": "symbol",
      "outputs": [
        {
          "internalType": "string",
          "name": "",
          "type": "string"
        }
      ],
      "stateMutability": "view",
      "type": "function"
    },
    {
      "inputs": [],
      "name": "totalSupply",
      "outputs": [
        {
          "internalType": "uint256",
          "name": "",
          "type": "uint256"
        }
      ],
      "stateMutability": "view",
      "type": "function"
    },
    {
      "inputs": [
        {
          "internalType": "address",
          "name": "recipient",
          "type": "address"
        },
        {
          "internalType": "uint256",
          "name": "amount",
          "type": "uint256"
        }
      ],
      "name": "transfer",
      "outputs": [
        {
          "internalType": "bool",
          "name": "",
          "type": "bool"
        }
      ],
      "stateMutability": "nonpayable",
      "type": "function"
    },
    {
      "inputs": [
        {
          "internalType": "address",
          "name": "sender",
          "type": "address"
        },
        {
          "internalType": "address",
          "name": "recipient",
          "type": "address"
        },
        {
          "internalType": "uint256",
          "name": "amount",
          "type": "uint256"
        }
      ],
      "name": "transferFrom",
      "outputs": [
        {
          "internalType": "bool",
          "name": "",
          "type": "bool"
        }
      ],
      "stateMutability": "nonpayable",
      "type": "function"
    },
    {
      "inputs": [],
      "name": "unpause",
      "outputs": [],
      "stateMutability": "nonpayable",
      "type": "function"
    },
    {
      "inputs": [],
      "name": "vault",
      "outputs": [
        {
          "internalType": "contract IVault",
          "name": "",
          "type": "address"
        }
      ],
      "stateMutability": "view",
      "type": "function"
    }
  ],
  "bytecode": "0x6101e06040523480156200001257600080fd5b5060405162003484380380620034848339810160408190526200003591620006dc565b886200004f8a8a88886200021260201b62000e531760201c565b888886868686838387878b86336001600160a01b031660001b8480604051806040016040528060018152602001603160f81b815250878781600390805190602001906200009e9291906200045e565b508051620000b49060049060208401906200045e565b50506005805460ff19166012179055508151602092830120608052805191012060a052507f8b73c3c69bb8fe3d512ecc4cf759cc79239f7b179b0ffacaa9a75d522b39400f60c05260e0526001600160601b0319606091821b81166101005291901b166101205250620001339050630163f50083111561019462000241565b620001476276a70082111561019562000241565b4291909101610140819052016101605260601b6001600160601b031916610180526101a08690526040805163d2946c2b60e01b815290516001600160a01b0389169163d2946c2b916004808301926020929190829003018186803b158015620001af57600080fd5b505afa158015620001c4573d6000803e3d6000fd5b505050506040513d601f19601f82011682018060405250810190620001ea9190620006b6565b60601b6001600160601b0319166101c05250620008ec9e505050505050505050505050505050565b60006200022a836200025660201b62000e6a1760201c565b620002388585858562000262565b95945050505050565b81620002525762000252816200035c565b5050565b80620002528162000371565b600080856001600160a01b03166309b2760f866040518263ffffffff1660e01b81526004016200029391906200086e565b602060405180830381600087803b158015620002ae57600080fd5b505af1158015620002c3573d6000803e3d6000fd5b505050506040513d601f19601f82011682018060405250810190620002e991906200069d565b604051633354e3e960e11b81529091506001600160a01b038716906366a9c7d2906200031e90849088908890600401620007e0565b600060405180830381600087803b1580156200033957600080fd5b505af11580156200034e573d6000803e3d6000fd5b509298975050505050505050565b6200036e816210905360ea1b620003fd565b50565b60028151101562000382576200036e565b6000816000815181106200039257fe5b602002602001015190506000600190505b8251811015620003f8576000838281518110620003bc57fe5b60200260200101519050620003ed816001600160a01b0316846001600160a01b03161060656200024160201b60201c565b9150600101620003a3565b505050565b62461bcd60e51b600090815260206004526007602452600a808404818106603090810160081b958390069590950190829004918206850160101b01602363ffffff0060e086901c160160181b0190930160c81b60445260e882901c90606490fd5b828054600181600116156101000203166002900490600052602060002090601f016020900481019282601f10620004a157805160ff1916838001178555620004d1565b82800160010185558215620004d1579182015b82811115620004d1578251825591602001919060010190620004b4565b50620004df929150620004e3565b5090565b5b80821115620004df5760008155600101620004e4565b80516200050781620008d6565b92915050565b600082601f8301126200051e578081fd5b8151620005356200052f82620008aa565b62000883565b8181529150602080830190848101818402860182018710156200055757600080fd5b60005b84811015620005835781516200057081620008d6565b845292820192908201906001016200055a565b505050505092915050565b600082601f8301126200059f578081fd5b8151620005b06200052f82620008aa565b818152915060208083019084810181840286018201871015620005d257600080fd5b60005b8481101562000583578151620005eb81620008d6565b84529282019290820190600101620005d5565b8051600381106200050757600080fd5b600082601f8301126200061f578081fd5b81516001600160401b0381111562000635578182fd5b60206200064b601f8301601f1916820162000883565b925081835284818386010111156200066257600080fd5b60005b828110156200068257848101820151848201830152810162000665565b82811115620006945760008284860101525b50505092915050565b600060208284031215620006af578081fd5b5051919050565b600060208284031215620006c8578081fd5b8151620006d581620008d6565b9392505050565b60008060008060008060008060006101208a8c031215620006fb578485fd5b620007078b8b620004fa565b9850620007188b60208c01620005fe565b60408b01519098506001600160401b038082111562000735578687fd5b620007438d838e016200060e565b985060608c015191508082111562000759578687fd5b620007678d838e016200060e565b975060808c01519150808211156200077d578687fd5b6200078b8d838e016200058e565b965060a08c0151915080821115620007a1578586fd5b50620007b08c828d016200050d565b94505060c08a0151925060e08a01519150620007d18b6101008c01620004fa565b90509295985092959850929598565b60006060820185835260206060818501528186518084526080860191508288019350845b818110156200082c57620008198551620008ca565b8352938301939183019160010162000804565b505084810360408601528551808252908201925081860190845b818110156200034e576200085b8351620008ca565b8552938301939183019160010162000846565b60208101600383106200087d57fe5b91905290565b6040518181016001600160401b0381118282101715620008a257600080fd5b604052919050565b60006001600160401b03821115620008c0578081fd5b5060209081020190565b6001600160a01b031690565b6001600160a01b03811681146200036e57600080fd5b60805160a05160c05160e0516101005160601c6101205160601c61014051610160516101805160601c6101a0516101c05160601c612b106200097460003980610c865250806108375250806118f2525080610fa2525080610f7e525080610acc525080610aa8525080610a465250806118575250806118995250806118785250612b106000f3fe608060405234801561001057600080fd5b50600436106102f45760003560e01c806374f3b00911610191578063a9059cbb116100e3578063d2946c2b11610097578063dd62ed3e11610071578063dd62ed3e1461058b578063ed24911d1461059e578063fbfa77cf146105a6576102f4565b8063d2946c2b1461055d578063d505accf14610565578063d5c096c414610578576102f4565b8063ab73ca8f116100c8578063ab73ca8f14610545578063b35056b81461054d578063b7b814fc14610555576102f4565b8063a9059cbb1461052a578063aaabadc51461053d576102f4565b8063893d20e81161014557806395d89b411161011f57806395d89b41146104fc5780639d2c110c14610504578063a457c2d714610517576102f4565b8063893d20e8146104cc5780638d928af8146104e157806390193b7c146104e9576102f4565b80638456cb59116101765780638456cb591461049e578063851c1bb3146104a657806387ec6817146104b9576102f4565b806374f3b0091461046a5780637ecebe001461048b576102f4565b8063313ce5671161024a5780633f4ba83a116101fe5780636028bfd4116101d85780636028bfd41461042e5780636f70f4c81461044f57806370a0823114610457576102f4565b80633f4ba83a1461041657806354a844ba1461041e57806355c6762814610426576102f4565b80633644e5151161022f5780633644e515146103f357806338fff2d0146103fb5780633950935114610403576102f4565b8063313ce567146103cb57806334e4b62a146103e0576102f4565b8063095ea7b3116102ac5780631c0de051116102865780631c0de0511461038c5780631dd746ea146103a357806323b872dd146103b8576102f4565b8063095ea7b31461035c5780630f70725c1461037c57806318160ddd14610384576102f4565b806302aa8fa5116102dd57806302aa8fa51461032a57806304842d4c1461033f57806306fdde0314610347576102f4565b806301ec954a146102f95780630272d5d414610322575b600080fd5b61030c61030736600461248c565b6105ae565b6040516103199190612819565b60405180910390f35b61030c610628565b61033d6103383660046122b3565b610631565b005b61030c61064c565b61034f61065c565b604051610319919061296c565b61036f61036a366004612268565b610710565b60405161031991906127f6565b61030c610727565b61030c61072e565b610394610734565b60405161031993929190612801565b6103ab61075d565b60405161031991906127be565b61036f6103c63660046121b8565b61076a565b6103d3610816565b6040516103199190612a3b565b61033d6103ee3660046122b3565b61081f565b61030c61082b565b61030c610835565b61036f610411366004612268565b610859565b61033d6108a1565b61033d6108b5565b61030c610909565b61044161043c3660046122e3565b610916565b6040516103199291906129f1565b61030c610934565b61030c610465366004612164565b61093b565b61047d6104783660046122e3565b610963565b6040516103199291906127d1565b61030c610499366004612164565b610a25565b61033d610a30565b61030c6104b4366004612386565b610a42565b6104416104c73660046122e3565b610a94565b6104d4610aa6565b604051610319919061275c565b6104d4610aca565b61030c6104f7366004612164565b610aee565b61034f610b16565b61030c6105123660046124fd565b610b95565b61036f610525366004612268565b610bce565b61036f610538366004612268565b610c0c565b6104d4610c19565b61030c610c23565b61036f610c2c565b61033d610c3a565b6104d4610c84565b61033d6105733660046121f8565b610ca8565b61047d6105863660046122e3565b610d33565b61030c610599366004612180565b610dca565b61030c610e3f565b6104d4610e49565b600084608001516105f56105c0610aca565b73ffffffffffffffffffffffffffffffffffffffff163373ffffffffffffffffffffffffffffffffffffffff161460cd610e74565b61060a610600610835565b82146101f4610e74565b610612610e82565b61061e86868686610e95565b9695505050505050565b64a98765432181565b8061063d6105c0610aca565b610648610600610835565b5050565b6000610656610ee3565b90505b90565b60038054604080516020601f60027fffffffffffffffffffffffffffffffffffffffffffffffffffffffffffffffff6101006001881615020190951694909404938401819004810282018101909252828152606093909290918301828280156107065780601f106106db57610100808354040283529160200191610706565b820191906000526020600020905b8154815290600101906020018083116106e957829003601f168201915b5050505050905090565b600061071d338484610eea565b5060015b92915050565b62bbaa1181565b60025490565b6000806000610741610f5f565b15925061074c610f7c565b9150610756610fa0565b9050909192565b60606106596103e6610fc4565b6000806107778533610dca565b90506107a83373ffffffffffffffffffffffffffffffffffffffff871614806107a05750838210155b61019e610e74565b6107b3858585610fee565b3373ffffffffffffffffffffffffffffffffffffffff8616148015906107f957507fffffffffffffffffffffffffffffffffffffffffffffffffffffffffffffffff8114155b1561080b5761080b8533858403610eea565b506001949350505050565b60055460ff1690565b6108288161110f565b50565b6000610656610e3f565b7f000000000000000000000000000000000000000000000000000000000000000090565b33600081815260016020908152604080832073ffffffffffffffffffffffffffffffffffffffff87168452909152812054909161071d91859061089c9086611126565b610eea565b6108a961113f565b6108b36000611185565b565b6108bd61113f565b6108c5611221565b6108cf6001611235565b7feff3d4d215b42bf0960be9c6d5e05c22cba4df6627a3a523e2acee733b5854c860016040516108ff91906127f6565b60405180910390a1565b60006106596103e6610fc4565b6000606061092888878561126c61132f565b97509795505050505050565b6211aabb81565b73ffffffffffffffffffffffffffffffffffffffff1660009081526020819052604090205490565b606080886109726105c0610aca565b61097d610600610835565b6000610988856114c1565b156109b0576109956114f0565b6109a7886109a161072e565b87611503565b945090506109c8565b6109b8610e82565b6109c38a898761126c565b945090505b6109d28a82611557565b835167ffffffffffffffff811180156109ea57600080fd5b50604051908082528060200260200182016040528015610a14578160200160208202803683370190505b509250505097509795505050505050565b600061072182610aee565b610a3861113f565b6108b36001611185565b60007f000000000000000000000000000000000000000000000000000000000000000082604051602001610a779291906126e6565b604051602081830303815290604052805190602001209050919050565b6000606061092888878561156161132f565b7f000000000000000000000000000000000000000000000000000000000000000090565b7f000000000000000000000000000000000000000000000000000000000000000090565b73ffffffffffffffffffffffffffffffffffffffff1660009081526006602052604090205490565b60048054604080516020601f60027fffffffffffffffffffffffffffffffffffffffffffffffffffffffffffffffff6101006001881615020190951694909404938401819004810282018101909252828152606093909290918301828280156107065780601f106106db57610100808354040283529160200191610706565b60008360800151610ba76105c0610aca565b610bb2610600610835565b610bba610e82565b610bc5858585611616565b95945050505050565b600080610bdb3385610dca565b9050808310610bf557610bf033856000610eea565b610c02565b610c023385858403610eea565b5060019392505050565b600061071d338484610fee565b6000610656611661565b64123456789a81565b600754610100900460ff1690565b610c4261113f565b610c4a6114f0565b610c546000611235565b7feff3d4d215b42bf0960be9c6d5e05c22cba4df6627a3a523e2acee733b5854c860006040516108ff91906127f6565b7f000000000000000000000000000000000000000000000000000000000000000090565b60007f6e71edae12b1b97f4d1f60370fef10105fa2faae0126114a169c64845d6126c9888888610cd78c610aee565b89604051602001610ced9695949392919061284e565b604051602081830303815290604052805190602001209050610d1e8882610d158787876116e8565b886101f8611727565b610d29888888610eea565b5050505050505050565b60608088610d426105c0610aca565b610d4d610600610835565b6000610d57610e82565b610d5f61072e565b610db157610d6e8a8a8761178b565b94509050610d87610d7d610ee3565b82101560cc610e74565b610d996000610d94610ee3565b611811565b610dac89610da5610ee3565b8303611811565b6109d2565b610dbc8a8987611561565b945090506109d28982611811565b6000610dd4610aca565b73ffffffffffffffffffffffffffffffffffffffff168273ffffffffffffffffffffffffffffffffffffffff161415610e2e57507fffffffffffffffffffffffffffffffffffffffffffffffffffffffffffffffff610721565b610e38838361181b565b9050610721565b6000610656611853565b60006106566118f0565b6000610e5e83610e6a565b610bc585858585611914565b8061064881611a37565b816106485761064881610fc4565b6108b3610e8d610f5f565b610192610e74565b60007fafcf428dc9960e9f25a3fa8b35858ebcf25d549b5a0e8cd3fcf04b398d5f124c85858585604051610ecc9493929190612993565b60405180910390a15064123456789a949350505050565b620f424090565b73ffffffffffffffffffffffffffffffffffffffff80841660008181526001602090815260408083209487168084529490915290819020849055517f8c5be1e5ebec7d5bd14f71427d1e84f3dd0314c0f7b2291e5b200ac8c7c3b92590610f52908590612819565b60405180910390a3505050565b6000610f69610fa0565b42118061065657505060075460ff161590565b7f000000000000000000000000000000000000000000000000000000000000000090565b7f000000000000000000000000000000000000000000000000000000000000000090565b610828817f42414c0000000000000000000000000000000000000000000000000000000000611acf565b61101273ffffffffffffffffffffffffffffffffffffffff84161515610198610e74565b61103673ffffffffffffffffffffffffffffffffffffffff83161515610199610e74565b611041838383611aca565b73ffffffffffffffffffffffffffffffffffffffff831660009081526020819052604090205461107490826101a0611b4a565b73ffffffffffffffffffffffffffffffffffffffff80851660009081526020819052604080822093909355908416815220546110b09082611126565b73ffffffffffffffffffffffffffffffffffffffff80841660008181526020819052604090819020939093559151908516907fddf252ad1be2c89b69c2b068fc378daa952ba7f163c4a11628f55a4df523b3ef90610f52908590612819565b801561082857610828611120610c84565b82611811565b60008282016111388482101583610e74565b9392505050565b600061116e6000357fffffffff0000000000000000000000000000000000000000000000000000000016610a42565b905061082861117d8233611b60565b610191610e74565b80156111a5576111a0611196610f7c565b4210610193610e74565b6111ba565b6111ba6111b0610fa0565b42106101a9610e74565b600780547fffffffffffffffffffffffffffffffffffffffffffffffffffffffffffffff00168215151790556040517f9e3a5e37224532dea67b89face185703738a228a6e8a23dee546960180d3be64906112169083906127f6565b60405180910390a150565b6108b361122c610c2c565b156101b5610e74565b60078054911515610100027fffffffffffffffffffffffffffffffffffffffffffffffffffffffffffff00ff909216919091179055565b600060607f7d8a00170bba4aedf386ede4ce9a3f989b04ab56bf34afd92d39683fb73a662b8585856040516112a39392919061277d565b60405180910390a16060845167ffffffffffffffff811180156112c557600080fd5b506040519080825280602002602001820160405280156112ef578160200160208202803683370190505b50905060005b8151811015611321576211aabb82828151811061130e57fe5b60209081029190910101526001016112f5565b506000969095509350505050565b33301461142b5760003073ffffffffffffffffffffffffffffffffffffffff16600036604051611360929190612716565b6000604051808303816000865af19150503d806000811461139d576040519150601f19603f3d011682016040523d82523d6000602084013e6113a2565b606091505b5050905080600081146113b157fe5b60046000803e6000517fffffffff00000000000000000000000000000000000000000000000000000000167f43adbafb00000000000000000000000000000000000000000000000000000000811461140d573d6000803e3d6000fd5b506020600460003e604060205260243d03602460403e601c3d016000f35b6000606061143e8686868663ffffffff16565b80517fffffffffffffffffffffffffffffffffffffffffffffffffffffffffffffffe082018390526343adbafb7fffffffffffffffffffffffffffffffffffffffffffffffffffffffffffffffc083015291935091506020027fffffffffffffffffffffffffffffffffffffffffffffffffffffffffffffffdc82016044820181fd5b6000808251118015610721575060ff8016828060200190518101906114e69190612549565b60ff161492915050565b6108b36114fb610c2c565b6101b6610e74565b60006060600061151284611c7d565b90507fc20ee812af06c7785bb9614f2839663d5fac6d3ab49272582cd3b005e33defa185878360405161154793929190612a12565b60405180910390a1959350505050565b6106488282611c93565b600060607fe2f684231132bf51feaa6bd10c948d1fe24fec7fc417cdd095d301c1bd30e6b78585856040516115989392919061277d565b60405180910390a16060845167ffffffffffffffff811180156115ba57600080fd5b506040519080825280602002602001820160405280156115e4578160200160208202803683370190505b50905060005b81518110156113215762bbaa1182828151811061160357fe5b60209081029190910101526001016115ea565b60007fe8e1ebc488fab5985b2831be8414dc9b39d2bfc742c1521a71663497fd91b9b284848460405161164b939291906129cc565b60405180910390a15064a9876543219392505050565b600061166b610aca565b73ffffffffffffffffffffffffffffffffffffffff1663aaabadc56040518163ffffffff1660e01b815260040160206040518083038186803b1580156116b057600080fd5b505afa1580156116c4573d6000803e3d6000fd5b505050506040513d601f19601f8201168201806040525081019061065691906123c6565b60408051604180825260808201909252606091829190602082018180368337019050509050836020820152826040820152846060820153949350505050565b600061173285611da0565b9050611748611742878387611dbc565b83610e74565b611757428410156101b8610e74565b50505073ffffffffffffffffffffffffffffffffffffffff9092166000908152600660205260409020805460010190555050565b600060607fa5248259e5935e1580c29572d5aec9f23f16655d47f159715b60242c19400e05836040516117be919061296c565b60405180910390a160606117d184611eb0565b90506000805b8251811015611805578281815181106117ec57fe5b60200260200101518201915080806001019150506117d7565b50969095509350505050565b6106488282611ec6565b73ffffffffffffffffffffffffffffffffffffffff918216600090815260016020908152604080832093909416825291909152205490565b60007f00000000000000000000000000000000000000000000000000000000000000007f00000000000000000000000000000000000000000000000000000000000000007f00000000000000000000000000000000000000000000000000000000000000006118c0611f73565b306040516020016118d5959493929190612915565b60405160208183030381529060405280519060200120905090565b7f000000000000000000000000000000000000000000000000000000000000000090565b6000808573ffffffffffffffffffffffffffffffffffffffff166309b2760f866040518263ffffffff1660e01b8152600401611950919061297f565b602060405180830381600087803b15801561196a57600080fd5b505af115801561197e573d6000803e3d6000fd5b505050506040513d601f19601f820116820180604052508101906119a291906122cb565b6040517f66a9c7d200000000000000000000000000000000000000000000000000000000815290915073ffffffffffffffffffffffffffffffffffffffff8716906366a9c7d2906119fb9084908890889060040161288f565b600060405180830381600087803b158015611a1557600080fd5b505af1158015611a29573d6000803e3d6000fd5b509298975050505050505050565b600281511015611a4657610828565b600081600081518110611a5557fe5b602002602001015190506000600190505b8251811015611aca576000838281518110611a7d57fe5b60200260200101519050611ac08173ffffffffffffffffffffffffffffffffffffffff168473ffffffffffffffffffffffffffffffffffffffff16106065610e74565b9150600101611a66565b505050565b7f08c379a000000000000000000000000000000000000000000000000000000000600090815260206004526007602452600a808404818106603090810160081b958390069590950190829004918206850160101b01602363ffffff0060e086901c160160181b0190930160c81b60445260e882901c90606490fd5b6000611b598484111583610e74565b5050900390565b600073ba1ba1ba1ba1ba1ba1ba1ba1ba1ba1ba1ba1ba1b611b7f610aa6565b73ffffffffffffffffffffffffffffffffffffffff1614158015611ba75750611ba783611f77565b15611be957611bb4610aa6565b73ffffffffffffffffffffffffffffffffffffffff163373ffffffffffffffffffffffffffffffffffffffff16149050610721565b611bf1611661565b73ffffffffffffffffffffffffffffffffffffffff16639be2a8848484306040518463ffffffff1660e01b8152600401611c2d93929190612822565b60206040518083038186803b158015611c4557600080fd5b505afa158015611c59573d6000803e3d6000fd5b505050506040513d601f19601f82011682018060405250810190610e389190612293565b6000818060200190518101906111389190612565565b611cb773ffffffffffffffffffffffffffffffffffffffff8316151561019b610e74565b611cc382600083611aca565b73ffffffffffffffffffffffffffffffffffffffff8216600090815260208190526040902054611cf690826101b2611b4a565b73ffffffffffffffffffffffffffffffffffffffff8316600090815260208190526040902055611d36611d3182611d2b61072e565b90611f7d565b611f8b565b600073ffffffffffffffffffffffffffffffffffffffff168273ffffffffffffffffffffffffffffffffffffffff167fddf252ad1be2c89b69c2b068fc378daa952ba7f163c4a11628f55a4df523b3ef83604051611d949190612819565b60405180910390a35050565b6000611daa611853565b82604051602001610a77929190612726565b6000611dce82516041146101b9610e74565b60208281015160408085015160608601518251600080825295019283905292939092811a91600190611e0790899085908890889061294e565b6020604051602081039080840390855afa158015611e29573d6000803e3d6000fd5b50506040517fffffffffffffffffffffffffffffffffffffffffffffffffffffffffffffffe0015191505073ffffffffffffffffffffffffffffffffffffffff811615801590611ea457508773ffffffffffffffffffffffffffffffffffffffff168173ffffffffffffffffffffffffffffffffffffffff16145b98975050505050505050565b60608180602001905181019061113891906123e2565b611ed260008383611aca565b611ee7611d3182611ee161072e565b90611126565b73ffffffffffffffffffffffffffffffffffffffff8216600090815260208190526040902054611f179082611126565b73ffffffffffffffffffffffffffffffffffffffff83166000818152602081905260408082209390935591519091907fddf252ad1be2c89b69c2b068fc378daa952ba7f163c4a11628f55a4df523b3ef90611d94908590612819565b4690565b50600090565b600061113883836001611b4a565b600255565b803561072181612aa9565b600082601f830112611fab578081fd5b8135611fbe611fb982612a70565b612a49565b818152915060208083019084810181840286018201871015611fdf57600080fd5b60005b84811015611ffe57813584529282019290820190600101611fe2565b505050505092915050565b600082601f830112612019578081fd5b813567ffffffffffffffff81111561202f578182fd5b61206060207fffffffffffffffffffffffffffffffffffffffffffffffffffffffffffffffe0601f84011601612a49565b915080825283602082850101111561207757600080fd5b8060208401602084013760009082016020015292915050565b80356002811061072157600080fd5b60006101208083850312156120b2578182fd5b6120bb81612a49565b9150506120c88383612090565b81526120d78360208401611f90565b60208201526120e98360408401611f90565b6040820152606082013560608201526080820135608082015260a082013560a08201526121198360c08401611f90565b60c082015261212b8360e08401611f90565b60e08201526101008083013567ffffffffffffffff81111561214c57600080fd5b61215885828601612009565b82840152505092915050565b600060208284031215612175578081fd5b813561113881612aa9565b60008060408385031215612192578081fd5b823561219d81612aa9565b915060208301356121ad81612aa9565b809150509250929050565b6000806000606084860312156121cc578081fd5b83356121d781612aa9565b925060208401356121e781612aa9565b929592945050506040919091013590565b600080600080600080600060e0888a031215612212578283fd5b873561221d81612aa9565b9650602088013561222d81612aa9565b95506040880135945060608801359350608088013561224b81612acb565b9699959850939692959460a0840135945060c09093013592915050565b6000806040838503121561227a578182fd5b823561228581612aa9565b946020939093013593505050565b6000602082840312156122a4578081fd5b81518015158114611138578182fd5b6000602082840312156122c4578081fd5b5035919050565b6000602082840312156122dc578081fd5b5051919050565b600080600080600080600060e0888a0312156122fd578081fd5b87359650602088013561230f81612aa9565b9550604088013561231f81612aa9565b9450606088013567ffffffffffffffff8082111561233b578283fd5b6123478b838c01611f9b565b955060808a0135945060a08a0135935060c08a013591508082111561236a578283fd5b506123778a828b01612009565b91505092959891949750929550565b600060208284031215612397578081fd5b81357fffffffff0000000000000000000000000000000000000000000000000000000081168114611138578182fd5b6000602082840312156123d7578081fd5b815161113881612aa9565b600080604083850312156123f4578182fd5b825160048110612402578283fd5b8092505060208084015167ffffffffffffffff811115612420578283fd5b8401601f81018613612430578283fd5b805161243e611fb982612a70565b81815283810190838501858402850186018a101561245a578687fd5b8694505b8385101561247c57805183526001949094019391850191850161245e565b5080955050505050509250929050565b600080600080608085870312156124a1578182fd5b843567ffffffffffffffff808211156124b8578384fd5b6124c48883890161209f565b955060208701359150808211156124d9578384fd5b506124e687828801611f9b565b949794965050505060408301359260600135919050565b600080600060608486031215612511578081fd5b833567ffffffffffffffff811115612527578182fd5b6125338682870161209f565b9660208601359650604090950135949350505050565b60006020828403121561255a578081fd5b815161113881612acb565b60008060408385031215612577578182fd5b825161258281612acb565b6020939093015192949293505050565b73ffffffffffffffffffffffffffffffffffffffff169052565b6000815180845260208085019450808401835b838110156125db578151875295820195908201906001016125bf565b509495945050505050565b60008151808452815b8181101561260b576020818501810151868301820152016125ef565b8181111561261c5782602083870101525b50601f017fffffffffffffffffffffffffffffffffffffffffffffffffffffffffffffffe0169290920160200192915050565b600061012082516002811061266057fe5b8085525060208301516126766020860182612592565b5060408301516126896040860182612592565b50606083015160608501526080830151608085015260a083015160a085015260c08301516126ba60c0860182612592565b5060e08301516126cd60e0860182612592565b5061010080840151828287015261061e838701826125e6565b9182527fffffffff0000000000000000000000000000000000000000000000000000000016602082015260240190565b6000828483379101908152919050565b7f190100000000000000000000000000000000000000000000000000000000000081526002810192909252602282015260420190565b73ffffffffffffffffffffffffffffffffffffffff91909116815260200190565b600073ffffffffffffffffffffffffffffffffffffffff85168252606060208301526127ac60608301856125ac565b828103604084015261061e81856125e6565b60006020825261113860208301846125ac565b6000604082526127e460408301856125ac565b8281036020840152610bc581856125ac565b901515815260200190565b92151583526020830191909152604082015260600190565b90815260200190565b92835273ffffffffffffffffffffffffffffffffffffffff918216602084015216604082015260600190565b95865273ffffffffffffffffffffffffffffffffffffffff94851660208701529290931660408501526060840152608083019190915260a082015260c00190565b60006060820185835260206060818501528186518084526080860191508288019350845b818110156128d7576128c58551612a90565b835293830193918301916001016128b3565b505084810360408601528551808252908201925081860190845b81811015611a29576129038351612a90565b855293830193918301916001016128f1565b94855260208501939093526040840191909152606083015273ffffffffffffffffffffffffffffffffffffffff16608082015260a00190565b93845260ff9290921660208401526040830152606082015260800190565b60006020825261113860208301846125e6565b602081016003831061298d57fe5b91905290565b6000608082526129a6608083018761264f565b82810360208401526129b881876125ac565b604084019590955250506060015292915050565b6000606082526129df606083018661264f565b60208301949094525060400152919050565b600083825260406020830152612a0a60408301846125ac565b949350505050565b600084825260606020830152612a2b60608301856125ac565b9050826040830152949350505050565b60ff91909116815260200190565b60405181810167ffffffffffffffff81118282101715612a6857600080fd5b604052919050565b600067ffffffffffffffff821115612a86578081fd5b5060209081020190565b73ffffffffffffffffffffffffffffffffffffffff1690565b73ffffffffffffffffffffffffffffffffffffffff8116811461082857600080fd5b60ff8116811461082857600080fdfea2646970667358221220c59645ec9d01a70ad9dbdbd848896e39cc9f72b45a5b91f3aa765bbd3ea3474e64736f6c63430007010033",
  "linkReferences": {},
  "deployedLinkReferences": {}
}