{
  "_format": "hh-sol-artifact-1",
  "contractName": "MockUnbuttonERC20",
  "sourceName": "contracts/test/MockUnbuttonERC20.sol",
  "abi": [
    {
      "inputs": [
        {
          "internalType": "address",
          "name": "underlying_",
          "type": "address"
        },
        {
          "internalType": "string",
          "name": "name_",
          "type": "string"
        },
        {
          "internalType": "string",
          "name": "symbol_",
          "type": "string"
        }
      ],
      "stateMutability": "nonpayable",
      "type": "constructor"
    },
    {
      "anonymous": false,
      "inputs": [
        {
          "indexed": true,
          "internalType": "address",
          "name": "owner",
          "type": "address"
        },
        {
          "indexed": true,
          "internalType": "address",
          "name": "spender",
          "type": "address"
        },
        {
          "indexed": false,
          "internalType": "uint256",
          "name": "value",
          "type": "uint256"
        }
      ],
      "name": "Approval",
      "type": "event"
    },
    {
      "anonymous": false,
      "inputs": [
        {
          "indexed": true,
          "internalType": "address",
          "name": "from",
          "type": "address"
        },
        {
          "indexed": true,
          "internalType": "address",
          "name": "to",
          "type": "address"
        },
        {
          "indexed": false,
          "internalType": "uint256",
          "name": "value",
          "type": "uint256"
        }
      ],
      "name": "Transfer",
      "type": "event"
    },
    {
      "inputs": [],
      "name": "INITIAL_DEPOSIT",
      "outputs": [
        {
          "internalType": "uint256",
          "name": "",
          "type": "uint256"
        }
      ],
      "stateMutability": "view",
      "type": "function"
    },
    {
      "inputs": [
        {
          "internalType": "address",
          "name": "owner",
          "type": "address"
        },
        {
          "internalType": "address",
          "name": "spender",
          "type": "address"
        }
      ],
      "name": "allowance",
      "outputs": [
        {
          "internalType": "uint256",
          "name": "",
          "type": "uint256"
        }
      ],
      "stateMutability": "view",
      "type": "function"
    },
    {
      "inputs": [
        {
          "internalType": "address",
          "name": "spender",
          "type": "address"
        },
        {
          "internalType": "uint256",
          "name": "amount",
          "type": "uint256"
        }
      ],
      "name": "approve",
      "outputs": [
        {
          "internalType": "bool",
          "name": "",
          "type": "bool"
        }
      ],
      "stateMutability": "nonpayable",
      "type": "function"
    },
    {
      "inputs": [
        {
          "internalType": "address",
          "name": "account",
          "type": "address"
        }
      ],
      "name": "balanceOf",
      "outputs": [
        {
          "internalType": "uint256",
          "name": "",
          "type": "uint256"
        }
      ],
      "stateMutability": "view",
      "type": "function"
    },
    {
      "inputs": [
        {
          "internalType": "address",
          "name": "owner",
          "type": "address"
        }
      ],
      "name": "balanceOfUnderlying",
      "outputs": [
        {
          "internalType": "uint256",
          "name": "",
          "type": "uint256"
        }
      ],
      "stateMutability": "view",
      "type": "function"
    },
    {
      "inputs": [
        {
          "internalType": "uint256",
          "name": "amount",
          "type": "uint256"
        }
      ],
      "name": "burn",
      "outputs": [
        {
          "internalType": "uint256",
          "name": "",
          "type": "uint256"
        }
      ],
      "stateMutability": "nonpayable",
      "type": "function"
    },
    {
      "inputs": [],
      "name": "burnAll",
      "outputs": [
        {
          "internalType": "uint256",
          "name": "",
          "type": "uint256"
        }
      ],
      "stateMutability": "nonpayable",
      "type": "function"
    },
    {
      "inputs": [
        {
          "internalType": "address",
          "name": "to",
          "type": "address"
        }
      ],
      "name": "burnAllTo",
      "outputs": [
        {
          "internalType": "uint256",
          "name": "",
          "type": "uint256"
        }
      ],
      "stateMutability": "nonpayable",
      "type": "function"
    },
    {
      "inputs": [
        {
          "internalType": "address",
          "name": "to",
          "type": "address"
        },
        {
          "internalType": "uint256",
          "name": "amount",
          "type": "uint256"
        }
      ],
      "name": "burnTo",
      "outputs": [
        {
          "internalType": "uint256",
          "name": "",
          "type": "uint256"
        }
      ],
      "stateMutability": "nonpayable",
      "type": "function"
    },
    {
      "inputs": [],
      "name": "decimals",
      "outputs": [
        {
          "internalType": "uint8",
          "name": "",
          "type": "uint8"
        }
      ],
      "stateMutability": "view",
      "type": "function"
    },
    {
      "inputs": [
        {
          "internalType": "address",
          "name": "spender",
          "type": "address"
        },
        {
          "internalType": "uint256",
          "name": "subtractedValue",
          "type": "uint256"
        }
      ],
      "name": "decreaseAllowance",
      "outputs": [
        {
          "internalType": "bool",
          "name": "",
          "type": "bool"
        }
      ],
      "stateMutability": "nonpayable",
      "type": "function"
    },
    {
      "inputs": [
        {
          "internalType": "uint256",
          "name": "uAmount",
          "type": "uint256"
        }
      ],
      "name": "deposit",
      "outputs": [
        {
          "internalType": "uint256",
          "name": "",
          "type": "uint256"
        }
      ],
      "stateMutability": "nonpayable",
      "type": "function"
    },
    {
      "inputs": [
        {
          "internalType": "address",
          "name": "to",
          "type": "address"
        },
        {
          "internalType": "uint256",
          "name": "uAmount",
          "type": "uint256"
        }
      ],
      "name": "depositFor",
      "outputs": [
        {
          "internalType": "uint256",
          "name": "",
          "type": "uint256"
        }
      ],
      "stateMutability": "nonpayable",
      "type": "function"
    },
    {
      "inputs": [
        {
          "internalType": "address",
          "name": "spender",
          "type": "address"
        },
        {
          "internalType": "uint256",
          "name": "addedValue",
          "type": "uint256"
        }
      ],
      "name": "increaseAllowance",
      "outputs": [
        {
          "internalType": "bool",
          "name": "",
          "type": "bool"
        }
      ],
      "stateMutability": "nonpayable",
      "type": "function"
    },
    {
      "inputs": [
        {
          "internalType": "uint256",
          "name": "initialRate",
          "type": "uint256"
        }
      ],
      "name": "initialize",
      "outputs": [],
      "stateMutability": "nonpayable",
      "type": "function"
    },
    {
      "inputs": [
        {
          "internalType": "uint256",
          "name": "amount",
          "type": "uint256"
        }
      ],
      "name": "mint",
      "outputs": [
        {
          "internalType": "uint256",
          "name": "",
          "type": "uint256"
        }
      ],
      "stateMutability": "nonpayable",
      "type": "function"
    },
    {
      "inputs": [
        {
          "internalType": "address",
          "name": "to",
          "type": "address"
        },
        {
          "internalType": "uint256",
          "name": "amount",
          "type": "uint256"
        }
      ],
      "name": "mintFor",
      "outputs": [
        {
          "internalType": "uint256",
          "name": "",
          "type": "uint256"
        }
      ],
      "stateMutability": "nonpayable",
      "type": "function"
    },
    {
      "inputs": [],
      "name": "name",
      "outputs": [
        {
          "internalType": "string",
          "name": "",
          "type": "string"
        }
      ],
      "stateMutability": "view",
      "type": "function"
    },
    {
      "inputs": [],
      "name": "symbol",
      "outputs": [
        {
          "internalType": "string",
          "name": "",
          "type": "string"
        }
      ],
      "stateMutability": "view",
      "type": "function"
    },
    {
      "inputs": [],
      "name": "totalSupply",
      "outputs": [
        {
          "internalType": "uint256",
          "name": "",
          "type": "uint256"
        }
      ],
      "stateMutability": "view",
      "type": "function"
    },
    {
      "inputs": [],
      "name": "totalUnderlying",
      "outputs": [
        {
          "internalType": "uint256",
          "name": "",
          "type": "uint256"
        }
      ],
      "stateMutability": "view",
      "type": "function"
    },
    {
      "inputs": [
        {
          "internalType": "address",
          "name": "recipient",
          "type": "address"
        },
        {
          "internalType": "uint256",
          "name": "amount",
          "type": "uint256"
        }
      ],
      "name": "transfer",
      "outputs": [
        {
          "internalType": "bool",
          "name": "",
          "type": "bool"
        }
      ],
      "stateMutability": "nonpayable",
      "type": "function"
    },
    {
      "inputs": [
        {
          "internalType": "address",
          "name": "sender",
          "type": "address"
        },
        {
          "internalType": "address",
          "name": "recipient",
          "type": "address"
        },
        {
          "internalType": "uint256",
          "name": "amount",
          "type": "uint256"
        }
      ],
      "name": "transferFrom",
      "outputs": [
        {
          "internalType": "bool",
          "name": "",
          "type": "bool"
        }
      ],
      "stateMutability": "nonpayable",
      "type": "function"
    },
    {
      "inputs": [],
      "name": "underlying",
      "outputs": [
        {
          "internalType": "address",
          "name": "",
          "type": "address"
        }
      ],
      "stateMutability": "view",
      "type": "function"
    },
    {
      "inputs": [
        {
          "internalType": "uint256",
          "name": "uAmount",
          "type": "uint256"
        }
      ],
      "name": "underlyingToWrapper",
      "outputs": [
        {
          "internalType": "uint256",
          "name": "",
          "type": "uint256"
        }
      ],
      "stateMutability": "view",
      "type": "function"
    },
    {
      "inputs": [
        {
          "internalType": "uint256",
          "name": "uAmount",
          "type": "uint256"
        }
      ],
      "name": "withdraw",
      "outputs": [
        {
          "internalType": "uint256",
          "name": "",
          "type": "uint256"
        }
      ],
      "stateMutability": "nonpayable",
      "type": "function"
    },
    {
      "inputs": [],
      "name": "withdrawAll",
      "outputs": [
        {
          "internalType": "uint256",
          "name": "",
          "type": "uint256"
        }
      ],
      "stateMutability": "nonpayable",
      "type": "function"
    },
    {
      "inputs": [
        {
          "internalType": "address",
          "name": "to",
          "type": "address"
        }
      ],
      "name": "withdrawAllTo",
      "outputs": [
        {
          "internalType": "uint256",
          "name": "",
          "type": "uint256"
        }
      ],
      "stateMutability": "nonpayable",
      "type": "function"
    },
    {
      "inputs": [
        {
          "internalType": "address",
          "name": "to",
          "type": "address"
        },
        {
          "internalType": "uint256",
          "name": "uAmount",
          "type": "uint256"
        }
      ],
      "name": "withdrawTo",
      "outputs": [
        {
          "internalType": "uint256",
          "name": "",
          "type": "uint256"
        }
      ],
      "stateMutability": "nonpayable",
      "type": "function"
    },
    {
      "inputs": [
        {
          "internalType": "uint256",
          "name": "amount",
          "type": "uint256"
        }
      ],
      "name": "wrapperToUnderlying",
      "outputs": [
        {
          "internalType": "uint256",
          "name": "",
          "type": "uint256"
        }
      ],
      "stateMutability": "view",
      "type": "function"
    }
  ],
  "bytecode": "0x60806040523480156200001157600080fd5b50604051620017ab380380620017ab833981810160405260608110156200003757600080fd5b8151602083018051604051929492938301929190846401000000008211156200005f57600080fd5b9083019060208201858111156200007557600080fd5b82516401000000008111828201881017156200009057600080fd5b82525081516020918201929091019080838360005b83811015620000bf578181015183820152602001620000a5565b50505050905090810190601f168015620000ed5780820380516001836020036101000a031916815260200191505b50604052602001805160405193929190846401000000008211156200011157600080fd5b9083019060208201858111156200012757600080fd5b82516401000000008111828201881017156200014257600080fd5b82525081516020918201929091019080838360005b838110156200017157818101518382015260200162000157565b50505050905090810190601f1680156200019f5780820380516001836020036101000a031916815260200191505b50604052505082518391508290620001bf90600390602085019062000212565b508051620001d590600490602084019062000212565b5050600580546001600160a01b0390951661010002610100600160a81b031960ff19909616601217959095169490941790935550620002ae915050565b828054600181600116156101000203166002900490600052602060002090601f016020900481019282601f106200025557805160ff191683800117855562000285565b8280016001018555821562000285579182015b828111156200028557825182559160200191906001019062000268565b506200029392915062000297565b5090565b5b8082111562000293576000815560010162000298565b6114ed80620002be6000396000f3fe608060405234801561001057600080fd5b50600436106101da5760003560e01c806395d89b4111610104578063b6b55f25116100a2578063dd62ed3e11610071578063dd62ed3e14610630578063ea785a5e1461066b578063ed0287c0146106a4578063fe4b84df146106c1576101da565b8063b6b55f251461059f578063c70920bc146105bc578063ca9add8f146105c4578063da1919b3146105f7576101da565b8063a457c2d7116100de578063a457c2d7146104dd578063a4fa956814610516578063a9059cbb14610549578063aab3b7db14610582576101da565b806395d89b41146104b05780639975038c146104b8578063a0712d68146104c0576101da565b8063313ce5671161017c5780636f307dc31161014b5780636f307dc31461043c57806370a082311461046d578063853828b6146104a05780638eb4f434146104a8576101da565b8063313ce5671461039557806339509351146103b35780633af9e669146103ec57806342966c681461041f576101da565b8063205c2878116101b8578063205c2878146102c357806323b872dd146102fc5780632e1a7d4d1461033f5780632f4f21e21461035c576101da565b806306fdde03146101df578063095ea7b31461025c57806318160ddd146102a9575b600080fd5b6101e76106e0565b6040805160208082528351818301528351919283929083019185019080838360005b83811015610221578181015183820152602001610209565b50505050905090810190601f16801561024e5780820380516001836020036101000a031916815260200191505b509250505060405180910390f35b6102956004803603604081101561027257600080fd5b5073ffffffffffffffffffffffffffffffffffffffff8135169060200135610794565b604080519115158252519081900360200190f35b6102b16107aa565b60408051918252519081900360200190f35b6102b1600480360360408110156102d957600080fd5b5073ffffffffffffffffffffffffffffffffffffffff81351690602001356107b0565b6102956004803603606081101561031257600080fd5b5073ffffffffffffffffffffffffffffffffffffffff8135811691602081013590911690604001356107e1565b6102b16004803603602081101561035557600080fd5b5035610842565b6102b16004803603604081101561037257600080fd5b5073ffffffffffffffffffffffffffffffffffffffff8135169060200135610865565b61039d610882565b6040805160ff9092168252519081900360200190f35b610295600480360360408110156103c957600080fd5b5073ffffffffffffffffffffffffffffffffffffffff813516906020013561088b565b6102b16004803603602081101561040257600080fd5b503573ffffffffffffffffffffffffffffffffffffffff166108ce565b6102b16004803603602081101561043557600080fd5b50356108f1565b61044461090e565b6040805173ffffffffffffffffffffffffffffffffffffffff9092168252519081900360200190f35b6102b16004803603602081101561048357600080fd5b503573ffffffffffffffffffffffffffffffffffffffff1661092f565b6102b1610957565b6102b1610987565b6101e761098d565b6102b1610a0c565b6102b1600480360360208110156104d657600080fd5b5035610a3c565b610295600480360360408110156104f357600080fd5b5073ffffffffffffffffffffffffffffffffffffffff8135169060200135610a59565b6102b16004803603602081101561052c57600080fd5b503573ffffffffffffffffffffffffffffffffffffffff16610a9f565b6102956004803603604081101561055f57600080fd5b5073ffffffffffffffffffffffffffffffffffffffff8135169060200135610ac9565b6102b16004803603602081101561059857600080fd5b5035610ad6565b6102b1600480360360208110156105b557600080fd5b5035610ae4565b6102b1610b01565b6102b1600480360360208110156105da57600080fd5b503573ffffffffffffffffffffffffffffffffffffffff16610b10565b6102b16004803603604081101561060d57600080fd5b5073ffffffffffffffffffffffffffffffffffffffff8135169060200135610b41565b6102b16004803603604081101561064657600080fd5b5073ffffffffffffffffffffffffffffffffffffffff81358116916020013516610b5e565b6102b16004803603604081101561068157600080fd5b5073ffffffffffffffffffffffffffffffffffffffff8135169060200135610b96565b6102b1600480360360208110156106ba57600080fd5b5035610bb3565b6106de600480360360208110156106d757600080fd5b5035610bc1565b005b60038054604080516020601f60027fffffffffffffffffffffffffffffffffffffffffffffffffffffffffffffffff61010060018816150201909516949094049384018190048102820181019092528281526060939092909183018282801561078a5780601f1061075f5761010080835404028352916020019161078a565b820191906000526020600020905b81548152906001019060200180831161076d57829003601f168201915b5050505050905090565b60006107a1338484610c03565b50600192915050565b60025490565b6000806107cc836107bf610c72565b6107c76107aa565b610d19565b90506107da33858584610d2f565b9392505050565b60006107ee848484610dc1565b73ffffffffffffffffffffffffffffffffffffffff8416600090815260016020908152604080832033808552925290912054610838918691610833908661019e610eea565b610c03565b5060019392505050565b600080610851836107bf610c72565b905061085f33338584610d2f565b92915050565b600080610874836107bf610c72565b90506107da33858584610f00565b60055460ff1690565b33600081815260016020908152604080832073ffffffffffffffffffffffffffffffffffffffff8716845290915281205490916107a19185906108339086610f8d565b600061085f6108dc8361092f565b6108e4610c72565b6108ec6107aa565b610f9f565b600080610900836108e4610c72565b905061085f33338386610d2f565b600554610100900473ffffffffffffffffffffffffffffffffffffffff1690565b73ffffffffffffffffffffffffffffffffffffffff1660009081526020819052604090205490565b6000806109633361092f565b90506000610973826108e4610c72565b905061098133338385610d2f565b50905090565b6103e881565b60048054604080516020601f60027fffffffffffffffffffffffffffffffffffffffffffffffffffffffffffffffff61010060018816150201909516949094049384018190048102820181019092528281526060939092909183018282801561078a5780601f1061075f5761010080835404028352916020019161078a565b600080610a183361092f565b90506000610a28826108e4610c72565b9050610a3633338385610d2f565b91505090565b600080610a4b836108e4610c72565b905061085f33338386610f00565b33600081815260016020908152604080832073ffffffffffffffffffffffffffffffffffffffff8716845290915281205490916107a1918590610833908661019f610eea565b600080610aab3361092f565b90506000610abb826108e4610c72565b90506107da33858385610d2f565b60006107a1338484610dc1565b600061085f826108e4610c72565b600080610af3836107bf610c72565b905061085f33338584610f00565b6000610b0b610c72565b905090565b600080610b1c3361092f565b90506000610b2c826108e4610c72565b9050610b3a33858385610d2f565b5092915050565b600080610b50836108e4610c72565b90506107da33858386610f00565b73ffffffffffffffffffffffffffffffffffffffff918216600090815260016020908152604080832093909416825291909152205490565b600080610ba5836108e4610c72565b90506107da33858386610d2f565b600061085f826107bf610c72565b6005546103e882810291610bf59161010090910473ffffffffffffffffffffffffffffffffffffffff169033903090610fac565b610bff3082611041565b5050565b73ffffffffffffffffffffffffffffffffffffffff808416600081815260016020908152604080832094871680845294825291829020859055815185815291517f8c5be1e5ebec7d5bd14f71427d1e84f3dd0314c0f7b2291e5b200ac8c7c3b9259281900390910190a3505050565b600554604080517f70a082310000000000000000000000000000000000000000000000000000000081523060048201529051600092610100900473ffffffffffffffffffffffffffffffffffffffff16916370a08231916024808301926020929190829003018186803b158015610ce857600080fd5b505afa158015610cfc573d6000803e3d6000fd5b505050506040513d6020811015610d1257600080fd5b5051905090565b60008282850281610d2657fe5b04949350505050565b60008111610d88576040517f08c379a000000000000000000000000000000000000000000000000000000000815260040180806020018281038252602e81526020018061145c602e913960400191505060405180910390fd5b610d9284826110fa565b600554610dbb90610100900473ffffffffffffffffffffffffffffffffffffffff1684846111ea565b50505050565b610de573ffffffffffffffffffffffffffffffffffffffff8416151561019861127c565b610e0973ffffffffffffffffffffffffffffffffffffffff8316151561019961127c565b610e14838383611277565b73ffffffffffffffffffffffffffffffffffffffff8316600090815260208190526040902054610e4790826101a0610eea565b73ffffffffffffffffffffffffffffffffffffffff8085166000908152602081905260408082209390935590841681522054610e839082610f8d565b73ffffffffffffffffffffffffffffffffffffffff8084166000818152602081815260409182902094909455805185815290519193928716927fddf252ad1be2c89b69c2b068fc378daa952ba7f163c4a11628f55a4df523b3ef92918290030190a3505050565b6000610ef9848411158361127c565b5050900390565b60008111610f59576040517f08c379a000000000000000000000000000000000000000000000000000000000815260040180806020018281038252602e81526020018061148a602e913960400191505060405180910390fd5b600554610f8390610100900473ffffffffffffffffffffffffffffffffffffffff16853085610fac565b610dbb8382611041565b60008282016107da848210158361127c565b60008183850281610d2657fe5b6040805173ffffffffffffffffffffffffffffffffffffffff80861660248301528416604482015260648082018490528251808303909101815260849091019091526020810180517bffffffffffffffffffffffffffffffffffffffffffffffffffffffff167f23b872dd00000000000000000000000000000000000000000000000000000000179052610dbb90859061128a565b61104d60008383611277565b6110676110628261105c6107aa565b90610f8d565b6113a0565b73ffffffffffffffffffffffffffffffffffffffff82166000908152602081905260409020546110979082610f8d565b73ffffffffffffffffffffffffffffffffffffffff83166000818152602081815260408083209490945583518581529351929391927fddf252ad1be2c89b69c2b068fc378daa952ba7f163c4a11628f55a4df523b3ef9281900390910190a35050565b61111e73ffffffffffffffffffffffffffffffffffffffff8316151561019b61127c565b61112a82600083611277565b73ffffffffffffffffffffffffffffffffffffffff821660009081526020819052604090205461115d90826101b2610eea565b73ffffffffffffffffffffffffffffffffffffffff8316600090815260208190526040902055611198611062826111926107aa565b906113a5565b60408051828152905160009173ffffffffffffffffffffffffffffffffffffffff8516917fddf252ad1be2c89b69c2b068fc378daa952ba7f163c4a11628f55a4df523b3ef9181900360200190a35050565b6040805173ffffffffffffffffffffffffffffffffffffffff8416602482015260448082018490528251808303909101815260649091019091526020810180517bffffffffffffffffffffffffffffffffffffffffffffffffffffffff167fa9059cbb0000000000000000000000000000000000000000000000000000000017905261127790849061128a565b505050565b81610bff57610bff816113b3565b600060608373ffffffffffffffffffffffffffffffffffffffff16836040518082805190602001908083835b602083106112f357805182527fffffffffffffffffffffffffffffffffffffffffffffffffffffffffffffffe090920191602091820191016112b6565b6001836020036101000a0380198251168184511680821785525050505050509050019150506000604051808303816000865af19150503d8060008114611355576040519150601f19603f3d011682016040523d82523d6000602084013e61135a565b606091505b50915091506000821415611372573d6000803e3d6000fd5b610dbb815160001480611398575081806020019051602081101561139557600080fd5b50515b6101a261127c565b600255565b60006107da83836001610eea565b6113dd817f42414c00000000000000000000000000000000000000000000000000000000006113e0565b50565b7f08c379a000000000000000000000000000000000000000000000000000000000600090815260206004526007602452600a808404818106603090810160081b958390069590950190829004918206850160101b01602363ffffff0060e086901c160160181b0190930160c81b60445260e882901c90606490fdfe556e627574746f6e546f6b656e3a20746f6f2066657720756e627574746f6e20746f6b656e7320746f206275726e556e627574746f6e546f6b656e3a20746f6f2066657720756e627574746f6e20746f6b656e7320746f206d696e74a26469706673582212200fe15fc6f1e566531a3458637b3c99743791eb00e37331b48e5815419a58d4be64736f6c63430007010033",
  "linkReferences": {},
  "deployedLinkReferences": {}
}