{
  "_format": "hh-sol-artifact-1",
  "contractName": "MockCToken",
  "sourceName": "contracts/test/MockCToken.sol",
  "abi": [
    {
      "inputs": [
        {
          "internalType": "string",
          "name": "name",
          "type": "string"
        },
        {
          "internalType": "string",
          "name": "symbol",
          "type": "string"
        },
        {
          "internalType": "address",
          "name": "underlyingAsset",
          "type": "address"
        },
        {
          "internalType": "uint256",
          "name": "exchangeRate",
          "type": "uint256"
        }
      ],
      "stateMutability": "nonpayable",
      "type": "constructor"
    },
    {
      "anonymous": false,
      "inputs": [
        {
          "indexed": true,
          "internalType": "address",
          "name": "owner",
          "type": "address"
        },
        {
          "indexed": true,
          "internalType": "address",
          "name": "spender",
          "type": "address"
        },
        {
          "indexed": false,
          "internalType": "uint256",
          "name": "value",
          "type": "uint256"
        }
      ],
      "name": "Approval",
      "type": "event"
    },
    {
      "anonymous": false,
      "inputs": [
        {
          "indexed": true,
          "internalType": "address",
          "name": "from",
          "type": "address"
        },
        {
          "indexed": true,
          "internalType": "address",
          "name": "to",
          "type": "address"
        },
        {
          "indexed": false,
          "internalType": "uint256",
          "name": "value",
          "type": "uint256"
        }
      ],
      "name": "Transfer",
      "type": "event"
    },
    {
      "inputs": [],
      "name": "DOMAIN_SEPARATOR",
      "outputs": [
        {
          "internalType": "bytes32",
          "name": "",
          "type": "bytes32"
        }
      ],
      "stateMutability": "view",
      "type": "function"
    },
    {
      "inputs": [
        {
          "internalType": "address",
          "name": "owner",
          "type": "address"
        },
        {
          "internalType": "address",
          "name": "spender",
          "type": "address"
        }
      ],
      "name": "allowance",
      "outputs": [
        {
          "internalType": "uint256",
          "name": "",
          "type": "uint256"
        }
      ],
      "stateMutability": "view",
      "type": "function"
    },
    {
      "inputs": [
        {
          "internalType": "address",
          "name": "spender",
          "type": "address"
        },
        {
          "internalType": "uint256",
          "name": "amount",
          "type": "uint256"
        }
      ],
      "name": "approve",
      "outputs": [
        {
          "internalType": "bool",
          "name": "",
          "type": "bool"
        }
      ],
      "stateMutability": "nonpayable",
      "type": "function"
    },
    {
      "inputs": [
        {
          "internalType": "address",
          "name": "account",
          "type": "address"
        }
      ],
      "name": "balanceOf",
      "outputs": [
        {
          "internalType": "uint256",
          "name": "",
          "type": "uint256"
        }
      ],
      "stateMutability": "view",
      "type": "function"
    },
    {
      "inputs": [
        {
          "internalType": "uint256",
          "name": "amount",
          "type": "uint256"
        }
      ],
      "name": "burn",
      "outputs": [],
      "stateMutability": "nonpayable",
      "type": "function"
    },
    {
      "inputs": [
        {
          "internalType": "address",
          "name": "account",
          "type": "address"
        },
        {
          "internalType": "uint256",
          "name": "amount",
          "type": "uint256"
        }
      ],
      "name": "burnFrom",
      "outputs": [],
      "stateMutability": "nonpayable",
      "type": "function"
    },
    {
      "inputs": [
        {
          "internalType": "address",
          "name": "sender",
          "type": "address"
        },
        {
          "internalType": "uint256",
          "name": "amount",
          "type": "uint256"
        }
      ],
      "name": "burnWithoutAllowance",
      "outputs": [],
      "stateMutability": "nonpayable",
      "type": "function"
    },
    {
      "inputs": [],
      "name": "decimals",
      "outputs": [
        {
          "internalType": "uint8",
          "name": "",
          "type": "uint8"
        }
      ],
      "stateMutability": "view",
      "type": "function"
    },
    {
      "inputs": [
        {
          "internalType": "address",
          "name": "spender",
          "type": "address"
        },
        {
          "internalType": "uint256",
          "name": "subtractedValue",
          "type": "uint256"
        }
      ],
      "name": "decreaseAllowance",
      "outputs": [
        {
          "internalType": "bool",
          "name": "",
          "type": "bool"
        }
      ],
      "stateMutability": "nonpayable",
      "type": "function"
    },
    {
      "inputs": [
        {
          "internalType": "uint256",
          "name": "amount",
          "type": "uint256"
        }
      ],
      "name": "fromCTokenAmount",
      "outputs": [
        {
          "internalType": "uint256",
          "name": "",
          "type": "uint256"
        }
      ],
      "stateMutability": "view",
      "type": "function"
    },
    {
      "inputs": [],
      "name": "getDomainSeparator",
      "outputs": [
        {
          "internalType": "bytes32",
          "name": "",
          "type": "bytes32"
        }
      ],
      "stateMutability": "view",
      "type": "function"
    },
    {
      "inputs": [
        {
          "internalType": "address",
          "name": "account",
          "type": "address"
        }
      ],
      "name": "getNextNonce",
      "outputs": [
        {
          "internalType": "uint256",
          "name": "",
          "type": "uint256"
        }
      ],
      "stateMutability": "view",
      "type": "function"
    },
    {
      "inputs": [
        {
          "internalType": "address",
          "name": "spender",
          "type": "address"
        },
        {
          "internalType": "uint256",
          "name": "addedValue",
          "type": "uint256"
        }
      ],
      "name": "increaseAllowance",
      "outputs": [
        {
          "internalType": "bool",
          "name": "",
          "type": "bool"
        }
      ],
      "stateMutability": "nonpayable",
      "type": "function"
    },
    {
      "inputs": [
        {
          "internalType": "address",
          "name": "recipient",
          "type": "address"
        },
        {
          "internalType": "uint256",
          "name": "amount",
          "type": "uint256"
        }
      ],
      "name": "mint",
      "outputs": [],
      "stateMutability": "nonpayable",
      "type": "function"
    },
    {
      "inputs": [
        {
          "internalType": "uint256",
          "name": "mintAmount",
          "type": "uint256"
        }
      ],
      "name": "mint",
      "outputs": [
        {
          "internalType": "uint256",
          "name": "",
          "type": "uint256"
        }
      ],
      "stateMutability": "nonpayable",
      "type": "function"
    },
    {
      "inputs": [
        {
          "internalType": "address",
          "name": "receiver",
          "type": "address"
        },
        {
          "internalType": "uint256",
          "name": "mintAmount",
          "type": "uint256"
        }
      ],
      "name": "mintTestTokens",
      "outputs": [],
      "stateMutability": "nonpayable",
      "type": "function"
    },
    {
      "inputs": [],
      "name": "name",
      "outputs": [
        {
          "internalType": "string",
          "name": "",
          "type": "string"
        }
      ],
      "stateMutability": "view",
      "type": "function"
    },
    {
      "inputs": [
        {
          "internalType": "address",
          "name": "owner",
          "type": "address"
        }
      ],
      "name": "nonces",
      "outputs": [
        {
          "internalType": "uint256",
          "name": "",
          "type": "uint256"
        }
      ],
      "stateMutability": "view",
      "type": "function"
    },
    {
      "inputs": [
        {
          "internalType": "address",
          "name": "owner",
          "type": "address"
        },
        {
          "internalType": "address",
          "name": "spender",
          "type": "address"
        },
        {
          "internalType": "uint256",
          "name": "value",
          "type": "uint256"
        },
        {
          "internalType": "uint256",
          "name": "deadline",
          "type": "uint256"
        },
        {
          "internalType": "uint8",
          "name": "v",
          "type": "uint8"
        },
        {
          "internalType": "bytes32",
          "name": "r",
          "type": "bytes32"
        },
        {
          "internalType": "bytes32",
          "name": "s",
          "type": "bytes32"
        }
      ],
      "name": "permit",
      "outputs": [],
      "stateMutability": "nonpayable",
      "type": "function"
    },
    {
      "inputs": [
        {
          "internalType": "uint256",
          "name": "redeemTokens",
          "type": "uint256"
        }
      ],
      "name": "redeem",
      "outputs": [
        {
          "internalType": "uint256",
          "name": "",
          "type": "uint256"
        }
      ],
      "stateMutability": "nonpayable",
      "type": "function"
    },
    {
      "inputs": [
        {
          "internalType": "uint256",
          "name": "newExchangeRate",
          "type": "uint256"
        }
      ],
      "name": "setExchangeRate",
      "outputs": [],
      "stateMutability": "nonpayable",
      "type": "function"
    },
    {
      "inputs": [],
      "name": "symbol",
      "outputs": [
        {
          "internalType": "string",
          "name": "",
          "type": "string"
        }
      ],
      "stateMutability": "view",
      "type": "function"
    },
    {
      "inputs": [
        {
          "internalType": "uint256",
          "name": "amount",
          "type": "uint256"
        }
      ],
      "name": "toCTokenAmount",
      "outputs": [
        {
          "internalType": "uint256",
          "name": "",
          "type": "uint256"
        }
      ],
      "stateMutability": "view",
      "type": "function"
    },
    {
      "inputs": [],
      "name": "totalSupply",
      "outputs": [
        {
          "internalType": "uint256",
          "name": "",
          "type": "uint256"
        }
      ],
      "stateMutability": "view",
      "type": "function"
    },
    {
      "inputs": [
        {
          "internalType": "address",
          "name": "recipient",
          "type": "address"
        },
        {
          "internalType": "uint256",
          "name": "amount",
          "type": "uint256"
        }
      ],
      "name": "transfer",
      "outputs": [
        {
          "internalType": "bool",
          "name": "",
          "type": "bool"
        }
      ],
      "stateMutability": "nonpayable",
      "type": "function"
    },
    {
      "inputs": [
        {
          "internalType": "address",
          "name": "sender",
          "type": "address"
        },
        {
          "internalType": "address",
          "name": "recipient",
          "type": "address"
        },
        {
          "internalType": "uint256",
          "name": "amount",
          "type": "uint256"
        }
      ],
      "name": "transferFrom",
      "outputs": [
        {
          "internalType": "bool",
          "name": "",
          "type": "bool"
        }
      ],
      "stateMutability": "nonpayable",
      "type": "function"
    },
    {
      "inputs": [],
      "name": "underlying",
      "outputs": [
        {
          "internalType": "address",
          "name": "",
          "type": "address"
        }
      ],
      "stateMutability": "view",
      "type": "function"
    }
  ],
  "bytecode": "0x6101206040523480156200001257600080fd5b5060405162001b2e38038062001b2e833981810160405260808110156200003857600080fd5b81019080805160405193929190846401000000008211156200005957600080fd5b9083019060208201858111156200006f57600080fd5b82516401000000008111828201881017156200008a57600080fd5b82525081516020918201929091019080838360005b83811015620000b95781810151838201526020016200009f565b50505050905090810190601f168015620000e75780820380516001836020036101000a031916815260200191505b50604052602001805160405193929190846401000000008211156200010b57600080fd5b9083019060208201858111156200012157600080fd5b82516401000000008111828201881017156200013c57600080fd5b82525081516020918201929091019080838360005b838110156200016b57818101518382015260200162000151565b50505050905090810190601f168015620001995780820380516001836020036101000a031916815260200191505b5060408181526020838101519382015183830190925260018352603160f81b81840152875193955090935086928692600892859283929183918791620001e5916003918501906200041c565b508051620001fb9060049060208401906200041c565b50506005805460ff19166012179055508151602092830120608052805191012060a052507f8b73c3c69bb8fe3d512ecc4cf759cc79239f7b179b0ffacaa9a75d522b39400f60c0526200024e8162000326565b505050816001600160a01b031660e0816001600160a01b031660601b815250506000620002f4836001600160a01b031663313ce5676040518163ffffffff1660e01b815260040160206040518083038186803b158015620002ae57600080fd5b505afa158015620002c3573d6000803e3d6000fd5b505050506040513d6020811015620002da57600080fd5b5051600a9060ff166200033c602090811b62000bf017901c565b600a0a610100819052905062000317828262000357602090811b62000c0917901c565b60075550620004b89350505050565b6005805460ff191660ff92909216919091179055565b600082820162000350848210158362000391565b9392505050565b60008282026200037f841580620003775750838583816200037457fe5b04145b600362000391565b670de0b6b3a764000090049392505050565b81620003a257620003a281620003a6565b5050565b620003b8816210905360ea1b620003bb565b50565b62461bcd60e51b600090815260206004526007602452600a808404818106603090810160081b958390069590950190829004918206850160101b01602363ffffff0060e086901c160160181b0190930160c81b60445260e882901c90606490fd5b828054600181600116156101000203166002900490600052602060002090601f016020900481019282601f106200045f57805160ff19168380011785556200048f565b828001600101855582156200048f579182015b828111156200048f57825182559160200191906001019062000472565b506200049d929150620004a1565b5090565b5b808211156200049d5760008155600101620004a2565b60805160a05160c05160e05160601c610100516116296200050560003980610b8452508061086152806109c15280610b575250806111e952508061122b52508061120a52506116296000f3fe608060405234801561001057600080fd5b50600436106101b95760003560e01c806370a08231116100f9578063a457c2d711610097578063db006a7511610071578063db006a7514610607578063db068e0e14610624578063dd62ed3e14610641578063ed24911d1461067c576101b9565b8063a457c2d714610537578063a9059cbb14610570578063d505accf146105a9576101b9565b80637ecebe00116100d35780637ecebe00146104ac57806390193b7c146104df57806395d89b4114610512578063a0712d681461051a576101b9565b806370a082311461040757806379cc67901461043a5780637c602bc214610473576101b9565b806339509351116101665780634b5da1ed116101405780634b5da1ed146103445780635fc0b7271461039c57806363fac3c7146103b95780636f307dc3146103d6576101b9565b8063395093511461030b57806340c10f191461034457806342966c681461037f576101b9565b806323b872dd1161019757806323b872dd146102a2578063313ce567146102e55780633644e51514610303576101b9565b806306fdde03146101be578063095ea7b31461023b57806318160ddd14610288575b600080fd5b6101c6610684565b6040805160208082528351818301528351919283929083019185019080838360005b838110156102005781810151838201526020016101e8565b50505050905090810190601f16801561022d5780820380516001836020036101000a031916815260200191505b509250505060405180910390f35b6102746004803603604081101561025157600080fd5b5073ffffffffffffffffffffffffffffffffffffffff8135169060200135610738565b604080519115158252519081900360200190f35b61029061074e565b60408051918252519081900360200190f35b610274600480360360608110156102b857600080fd5b5073ffffffffffffffffffffffffffffffffffffffff813581169160208101359091169060400135610754565b6102ed6107b5565b6040805160ff9092168252519081900360200190f35b6102906107be565b6102746004803603604081101561032157600080fd5b5073ffffffffffffffffffffffffffffffffffffffff81351690602001356107cd565b61037d6004803603604081101561035a57600080fd5b5073ffffffffffffffffffffffffffffffffffffffff8135169060200135610810565b005b61037d6004803603602081101561039557600080fd5b503561081e565b610290600480360360208110156103b257600080fd5b503561082b565b610290600480360360208110156103cf57600080fd5b5035610848565b6103de61085f565b6040805173ffffffffffffffffffffffffffffffffffffffff9092168252519081900360200190f35b6102906004803603602081101561041d57600080fd5b503573ffffffffffffffffffffffffffffffffffffffff16610883565b61037d6004803603604081101561045057600080fd5b5073ffffffffffffffffffffffffffffffffffffffff81351690602001356108ab565b61037d6004803603604081101561048957600080fd5b5073ffffffffffffffffffffffffffffffffffffffff81351690602001356108e1565b610290600480360360208110156104c257600080fd5b503573ffffffffffffffffffffffffffffffffffffffff166108eb565b610290600480360360208110156104f557600080fd5b503573ffffffffffffffffffffffffffffffffffffffff166108f2565b6101c661091a565b6102906004803603602081101561053057600080fd5b5035610999565b6102746004803603604081101561054d57600080fd5b5073ffffffffffffffffffffffffffffffffffffffff81351690602001356109fc565b6102746004803603604081101561058657600080fd5b5073ffffffffffffffffffffffffffffffffffffffff8135169060200135610a42565b61037d600480360360e08110156105bf57600080fd5b5073ffffffffffffffffffffffffffffffffffffffff813581169160208101359091169060408101359060608101359060ff6080820135169060a08101359060c00135610a4f565b6102906004803603602081101561061d57600080fd5b5035610b24565b61037d6004803603602081101561063a57600080fd5b5035610b7e565b6102906004803603604081101561065757600080fd5b5073ffffffffffffffffffffffffffffffffffffffff81358116916020013516610bae565b610290610be6565b60038054604080516020601f60027fffffffffffffffffffffffffffffffffffffffffffffffffffffffffffffffff61010060018816150201909516949094049384018190048102820181019092528281526060939092909183018282801561072e5780601f106107035761010080835404028352916020019161072e565b820191906000526020600020905b81548152906001019060200180831161071157829003601f168201915b5050505050905090565b6000610745338484610c41565b50600192915050565b60025490565b6000610761848484610cb0565b73ffffffffffffffffffffffffffffffffffffffff84166000908152600160209081526040808320338085529252909120546107ab9186916107a6908661019e610dd9565b610c41565b5060019392505050565b60055460ff1690565b60006107c8610be6565b905090565b33600081815260016020908152604080832073ffffffffffffffffffffffffffffffffffffffff8716845290915281205490916107459185906107a69086610bf0565b61081a8282610def565b5050565b6108283382610ea8565b50565b600061084260075483610f9890919063ffffffff16565b92915050565b600061084260075483610fe290919063ffffffff16565b7f000000000000000000000000000000000000000000000000000000000000000090565b73ffffffffffffffffffffffffffffffffffffffff1660009081526020819052604090205490565b60006108c5826101a16108be8633610bae565b9190610dd9565b90506108d2833383610c41565b6108dc8383610ea8565b505050565b61081a8282610ea8565b6000610842825b73ffffffffffffffffffffffffffffffffffffffff1660009081526006602052604090205490565b60048054604080516020601f60027fffffffffffffffffffffffffffffffffffffffffffffffffffffffffffffffff61010060018816150201909516949094049384018190048102820181019092528281526060939092909183018282801561072e5780601f106107035761010080835404028352916020019161072e565b6000806109a58361082b565b90506109e973ffffffffffffffffffffffffffffffffffffffff7f00000000000000000000000000000000000000000000000000000000000000001633308661101a565b6109f33382610def565b50600092915050565b33600081815260016020908152604080832073ffffffffffffffffffffffffffffffffffffffff8716845290915281205490916107459185906107a6908661019f610dd9565b6000610745338484610cb0565b60007f6e71edae12b1b97f4d1f60370fef10105fa2faae0126114a169c64845d6126c9888888610a7e8c6108f2565b89604051602001808781526020018673ffffffffffffffffffffffffffffffffffffffff1681526020018573ffffffffffffffffffffffffffffffffffffffff1681526020018481526020018381526020018281526020019650505050505050604051602081830303815290604052805190602001209050610b0f8882610b068787876110b5565b886101f86110f4565b610b1a888888610c41565b5050505050505050565b6000610b303383610ea8565b6000610b3b83610848565b90506109f373ffffffffffffffffffffffffffffffffffffffff7f0000000000000000000000000000000000000000000000000000000000000000163383611158565b610ba8817f0000000000000000000000000000000000000000000000000000000000000000610c09565b60075550565b73ffffffffffffffffffffffffffffffffffffffff918216600090815260016020908152604080832093909416825291909152205490565b60006107c86111e5565b6000828201610c0284821015836112b0565b9392505050565b6000828202610c2d841580610c26575083858381610c2357fe5b04145b60036112b0565b670de0b6b3a7640000815b04949350505050565b73ffffffffffffffffffffffffffffffffffffffff808416600081815260016020908152604080832094871680845294825291829020859055815185815291517f8c5be1e5ebec7d5bd14f71427d1e84f3dd0314c0f7b2291e5b200ac8c7c3b9259281900390910190a3505050565b610cd473ffffffffffffffffffffffffffffffffffffffff841615156101986112b0565b610cf873ffffffffffffffffffffffffffffffffffffffff831615156101996112b0565b610d038383836108dc565b73ffffffffffffffffffffffffffffffffffffffff8316600090815260208190526040902054610d3690826101a0610dd9565b73ffffffffffffffffffffffffffffffffffffffff8085166000908152602081905260408082209390935590841681522054610d729082610bf0565b73ffffffffffffffffffffffffffffffffffffffff8084166000818152602081815260409182902094909455805185815290519193928716927fddf252ad1be2c89b69c2b068fc378daa952ba7f163c4a11628f55a4df523b3ef92918290030190a3505050565b6000610de884841115836112b0565b5050900390565b610dfb600083836108dc565b610e15610e1082610e0a61074e565b90610bf0565b6112be565b73ffffffffffffffffffffffffffffffffffffffff8216600090815260208190526040902054610e459082610bf0565b73ffffffffffffffffffffffffffffffffffffffff83166000818152602081815260408083209490945583518581529351929391927fddf252ad1be2c89b69c2b068fc378daa952ba7f163c4a11628f55a4df523b3ef9281900390910190a35050565b610ecc73ffffffffffffffffffffffffffffffffffffffff8316151561019b6112b0565b610ed8826000836108dc565b73ffffffffffffffffffffffffffffffffffffffff8216600090815260208190526040902054610f0b90826101b2610dd9565b73ffffffffffffffffffffffffffffffffffffffff8316600090815260208190526040902055610f46610e1082610f4061074e565b906112c3565b60408051828152905160009173ffffffffffffffffffffffffffffffffffffffff8516917fddf252ad1be2c89b69c2b068fc378daa952ba7f163c4a11628f55a4df523b3ef9181900360200190a35050565b6000610fa782151560046112b0565b670de0b6b3a76400008302610fd9841580610fd25750670de0b6b3a7640000858381610fcf57fe5b04145b60056112b0565b828181610c3857fe5b6000828202610ffc841580610c26575083858381610c2357fe5b6001670de0b6b3a76400006001830304018115150291505092915050565b6040805173ffffffffffffffffffffffffffffffffffffffff80861660248301528416604482015260648082018490528251808303909101815260849091019091526020810180517bffffffffffffffffffffffffffffffffffffffffffffffffffffffff167f23b872dd000000000000000000000000000000000000000000000000000000001790526110af9085906112d1565b50505050565b60408051604180825260808201909252606091829190602082018180368337019050509050836020820152826040820152846060820153949350505050565b60006110ff856113e7565b905061111561110f87838761144e565b836112b0565b611124428410156101b86112b0565b50505073ffffffffffffffffffffffffffffffffffffffff9092166000908152600660205260409020805460010190555050565b6040805173ffffffffffffffffffffffffffffffffffffffff8416602482015260448082018490528251808303909101815260649091019091526020810180517bffffffffffffffffffffffffffffffffffffffffffffffffffffffff167fa9059cbb000000000000000000000000000000000000000000000000000000001790526108dc9084906112d1565b60007f00000000000000000000000000000000000000000000000000000000000000007f00000000000000000000000000000000000000000000000000000000000000007f0000000000000000000000000000000000000000000000000000000000000000611252611560565b30604051602001808681526020018581526020018481526020018381526020018273ffffffffffffffffffffffffffffffffffffffff1681526020019550505050505060405160208183030381529060405280519060200120905090565b8161081a5761081a81611564565b600255565b6000610c0283836001610dd9565b600060608373ffffffffffffffffffffffffffffffffffffffff16836040518082805190602001908083835b6020831061133a57805182527fffffffffffffffffffffffffffffffffffffffffffffffffffffffffffffffe090920191602091820191016112fd565b6001836020036101000a0380198251168184511680821785525050505050509050019150506000604051808303816000865af19150503d806000811461139c576040519150601f19603f3d011682016040523d82523d6000602084013e6113a1565b606091505b509150915060008214156113b9573d6000803e3d6000fd5b6110af8151600014806113df57508180602001905160208110156113dc57600080fd5b50515b6101a26112b0565b60006113f16111e5565b8260405160200180807f190100000000000000000000000000000000000000000000000000000000000081525060020183815260200182815260200192505050604051602081830303815290604052805190602001209050919050565b600061146082516041146101b96112b0565b60008060006020850151925060408501519150606085015160001a9050600060018783868660405160008152602001604052604051808581526020018460ff1681526020018381526020018281526020019450505050506020604051602081039080840390855afa1580156114d9573d6000803e3d6000fd5b50506040517fffffffffffffffffffffffffffffffffffffffffffffffffffffffffffffffe0015191505073ffffffffffffffffffffffffffffffffffffffff81161580159061155457508773ffffffffffffffffffffffffffffffffffffffff168173ffffffffffffffffffffffffffffffffffffffff16145b98975050505050505050565b4690565b7f08c379a000000000000000000000000000000000000000000000000000000000600090815260206004526007602452600a808304818106603090810160081b83860601918390049283060160101b016642414c230000300160c81b604452610828917f42414c0000000000000000000000000000000000000000000000000000000000906242414c90606490fdfea26469706673582212203c45d9be2111cdbcb73a7e88ba4fe61d31369ad28cc276a7ff38416bf6a69d2564736f6c63430007010033",
  "linkReferences": {},
  "deployedLinkReferences": {}
}