{
  "_format": "hh-sol-artifact-1",
  "contractName": "MockBalancerMinter",
  "sourceName": "contracts/test/MockBalancerMinter.sol",
  "abi": [
    {
      "inputs": [
        {
          "internalType": "contract IERC20",
          "name": "token",
          "type": "address"
        }
      ],
      "stateMutability": "nonpayable",
      "type": "constructor"
    },
    {
      "anonymous": false,
      "inputs": [
        {
          "indexed": false,
          "internalType": "address",
          "name": "gauge",
          "type": "address"
        },
        {
          "indexed": false,
          "internalType": "address",
          "name": "user",
          "type": "address"
        }
      ],
      "name": "MintFor",
      "type": "event"
    },
    {
      "anonymous": false,
      "inputs": [
        {
          "indexed": false,
          "internalType": "address[]",
          "name": "gauges",
          "type": "address[]"
        },
        {
          "indexed": false,
          "internalType": "address",
          "name": "user",
          "type": "address"
        }
      ],
      "name": "MintForMany",
      "type": "event"
    },
    {
      "anonymous": false,
      "inputs": [
        {
          "indexed": true,
          "internalType": "address",
          "name": "recipient",
          "type": "address"
        },
        {
          "indexed": false,
          "internalType": "address",
          "name": "gauge",
          "type": "address"
        },
        {
          "indexed": false,
          "internalType": "uint256",
          "name": "minted",
          "type": "uint256"
        }
      ],
      "name": "Minted",
      "type": "event"
    },
    {
      "anonymous": false,
      "inputs": [
        {
          "indexed": true,
          "internalType": "address",
          "name": "user",
          "type": "address"
        },
        {
          "indexed": true,
          "internalType": "address",
          "name": "minter",
          "type": "address"
        },
        {
          "indexed": false,
          "internalType": "bool",
          "name": "approval",
          "type": "bool"
        }
      ],
      "name": "MinterApprovalSet",
      "type": "event"
    },
    {
      "inputs": [
        {
          "internalType": "address",
          "name": "minter",
          "type": "address"
        },
        {
          "internalType": "address",
          "name": "user",
          "type": "address"
        }
      ],
      "name": "allowed_to_mint_for",
      "outputs": [
        {
          "internalType": "bool",
          "name": "",
          "type": "bool"
        }
      ],
      "stateMutability": "view",
      "type": "function"
    },
    {
      "inputs": [],
      "name": "getBalancerToken",
      "outputs": [
        {
          "internalType": "contract IERC20",
          "name": "",
          "type": "address"
        }
      ],
      "stateMutability": "view",
      "type": "function"
    },
    {
      "inputs": [],
      "name": "getDomainSeparator",
      "outputs": [
        {
          "internalType": "bytes32",
          "name": "",
          "type": "bytes32"
        }
      ],
      "stateMutability": "view",
      "type": "function"
    },
    {
      "inputs": [
        {
          "internalType": "address",
          "name": "minter",
          "type": "address"
        },
        {
          "internalType": "address",
          "name": "user",
          "type": "address"
        }
      ],
      "name": "getMinterApproval",
      "outputs": [
        {
          "internalType": "bool",
          "name": "",
          "type": "bool"
        }
      ],
      "stateMutability": "view",
      "type": "function"
    },
    {
      "inputs": [
        {
          "internalType": "address",
          "name": "account",
          "type": "address"
        }
      ],
      "name": "getNextNonce",
      "outputs": [
        {
          "internalType": "uint256",
          "name": "",
          "type": "uint256"
        }
      ],
      "stateMutability": "view",
      "type": "function"
    },
    {
      "inputs": [
        {
          "internalType": "address",
          "name": "gauge",
          "type": "address"
        }
      ],
      "name": "mint",
      "outputs": [
        {
          "internalType": "uint256",
          "name": "",
          "type": "uint256"
        }
      ],
      "stateMutability": "nonpayable",
      "type": "function"
    },
    {
      "inputs": [
        {
          "internalType": "address",
          "name": "gauge",
          "type": "address"
        },
        {
          "internalType": "address",
          "name": "user",
          "type": "address"
        }
      ],
      "name": "mintFor",
      "outputs": [
        {
          "internalType": "uint256",
          "name": "",
          "type": "uint256"
        }
      ],
      "stateMutability": "nonpayable",
      "type": "function"
    },
    {
      "inputs": [
        {
          "internalType": "address[]",
          "name": "gauges",
          "type": "address[]"
        }
      ],
      "name": "mintMany",
      "outputs": [
        {
          "internalType": "uint256",
          "name": "",
          "type": "uint256"
        }
      ],
      "stateMutability": "nonpayable",
      "type": "function"
    },
    {
      "inputs": [
        {
          "internalType": "address[]",
          "name": "gauges",
          "type": "address[]"
        },
        {
          "internalType": "address",
          "name": "user",
          "type": "address"
        }
      ],
      "name": "mintManyFor",
      "outputs": [
        {
          "internalType": "uint256",
          "name": "",
          "type": "uint256"
        }
      ],
      "stateMutability": "nonpayable",
      "type": "function"
    },
    {
      "inputs": [
        {
          "internalType": "address",
          "name": "gauge",
          "type": "address"
        },
        {
          "internalType": "address",
          "name": "user",
          "type": "address"
        }
      ],
      "name": "mint_for",
      "outputs": [],
      "stateMutability": "nonpayable",
      "type": "function"
    },
    {
      "inputs": [
        {
          "internalType": "address[8]",
          "name": "gauges",
          "type": "address[8]"
        }
      ],
      "name": "mint_many",
      "outputs": [],
      "stateMutability": "nonpayable",
      "type": "function"
    },
    {
      "inputs": [
        {
          "internalType": "address",
          "name": "user",
          "type": "address"
        },
        {
          "internalType": "address",
          "name": "gauge",
          "type": "address"
        }
      ],
      "name": "minted",
      "outputs": [
        {
          "internalType": "uint256",
          "name": "",
          "type": "uint256"
        }
      ],
      "stateMutability": "view",
      "type": "function"
    },
    {
      "inputs": [
        {
          "internalType": "address",
          "name": "user",
          "type": "address"
        },
        {
          "internalType": "address",
          "name": "gauge",
          "type": "address"
        },
        {
          "internalType": "uint256",
          "name": "value",
          "type": "uint256"
        }
      ],
      "name": "setMinted",
      "outputs": [],
      "stateMutability": "nonpayable",
      "type": "function"
    },
    {
      "inputs": [
        {
          "internalType": "address",
          "name": "minter",
          "type": "address"
        },
        {
          "internalType": "bool",
          "name": "approval",
          "type": "bool"
        }
      ],
      "name": "setMinterApproval",
      "outputs": [],
      "stateMutability": "nonpayable",
      "type": "function"
    },
    {
      "inputs": [
        {
          "internalType": "address",
          "name": "minter",
          "type": "address"
        },
        {
          "internalType": "bool",
          "name": "approval",
          "type": "bool"
        },
        {
          "internalType": "address",
          "name": "user",
          "type": "address"
        },
        {
          "internalType": "uint256",
          "name": "deadline",
          "type": "uint256"
        },
        {
          "internalType": "uint8",
          "name": "v",
          "type": "uint8"
        },
        {
          "internalType": "bytes32",
          "name": "r",
          "type": "bytes32"
        },
        {
          "internalType": "bytes32",
          "name": "s",
          "type": "bytes32"
        }
      ],
      "name": "setMinterApprovalWithSignature",
      "outputs": [],
      "stateMutability": "nonpayable",
      "type": "function"
    },
    {
      "inputs": [
        {
          "internalType": "uint256",
          "name": "mintForReturn",
          "type": "uint256"
        }
      ],
      "name": "setMockMintFor",
      "outputs": [],
      "stateMutability": "nonpayable",
      "type": "function"
    },
    {
      "inputs": [
        {
          "internalType": "uint256",
          "name": "mintForManyReturn",
          "type": "uint256"
        }
      ],
      "name": "setMockMintForMany",
      "outputs": [],
      "stateMutability": "nonpayable",
      "type": "function"
    },
    {
      "inputs": [
        {
          "internalType": "address",
          "name": "minter",
          "type": "address"
        }
      ],
      "name": "toggle_approve_mint",
      "outputs": [],
      "stateMutability": "nonpayable",
      "type": "function"
    }
  ],
  "bytecode": "0x61010060405234801561001157600080fd5b506040516110d43803806110d48339818101604052602081101561003457600080fd5b5051604080518082018252600f81526e2130b630b731b2b91026b4b73a32b960891b602082810191825283518085019094526001808552603160f81b918501918252600055915190206080529051902060a0527f8b73c3c69bb8fe3d512ecc4cf759cc79239f7b179b0ffacaa9a75d522b39400f60c0526001600160601b031960609190911b1660e05260805160a05160c05160e05160601c610fde6100f660003980610897525080610ca4525080610ce6525080610cc55250610fde6000f3fe608060405234801561001057600080fd5b50600436106101365760003560e01c806390193b7c116100b2578063c003969911610081578063dd289d6011610066578063dd289d60146104f2578063e96ff98314610525578063ed24911d1461054257610136565b8063c003969914610463578063c65427941461049457610136565b806390193b7c146103f657806395c3d17c14610429578063a0990033146102bb578063a51e19041461044657610136565b80633c543bc6116101095780636a627842116100ee5780636a6278421461034d5780637504a15d146103805780638b752bb0146103bb57610136565b80633c543bc6146102bb578063484935a21461030a57610136565b80630de54ba01461013b57806327f18ae314610178578063397ada21146101b35780633b9f738414610235575b600080fd5b6101766004803603604081101561015157600080fd5b5073ffffffffffffffffffffffffffffffffffffffff8135169060200135151561054a565b005b6101766004803603604081101561018e57600080fd5b5073ffffffffffffffffffffffffffffffffffffffff81358116916020013516610559565b610223600480360360208110156101c957600080fd5b8101906020810181356401000000008111156101e457600080fd5b8201836020820111156101f657600080fd5b8035906020019184602083028401116401000000008311171561021857600080fd5b5090925090506105ae565b60408051918252519081900360200190f35b6102236004803603604081101561024b57600080fd5b81019060208101813564010000000081111561026657600080fd5b82018360208201111561027857600080fd5b8035906020019184602083028401116401000000008311171561029a57600080fd5b91935091503573ffffffffffffffffffffffffffffffffffffffff166105d3565b6102f6600480360360408110156102d157600080fd5b5073ffffffffffffffffffffffffffffffffffffffff81358116916020013516610682565b604080519115158252519081900360200190f35b6101766004803603606081101561032057600080fd5b5073ffffffffffffffffffffffffffffffffffffffff8135811691602081013590911690604001356106bd565b6102236004803603602081101561036357600080fd5b503573ffffffffffffffffffffffffffffffffffffffff166106cd565b6102236004803603604081101561039657600080fd5b5073ffffffffffffffffffffffffffffffffffffffff813581169160200135166106f0565b610223600480360360408110156103d157600080fd5b5073ffffffffffffffffffffffffffffffffffffffff8135811691602001351661078d565b6102236004803603602081101561040c57600080fd5b503573ffffffffffffffffffffffffffffffffffffffff166107c5565b6101766004803603602081101561043f57600080fd5b50356107ed565b610176600480360361010081101561045d57600080fd5b506107f2565b61046b610895565b6040805173ffffffffffffffffffffffffffffffffffffffff9092168252519081900360200190f35b610176600480360360e08110156104aa57600080fd5b5073ffffffffffffffffffffffffffffffffffffffff813581169160208101351515916040820135169060608101359060ff6080820135169060a08101359060c001356108b9565b6101766004803603602081101561050857600080fd5b503573ffffffffffffffffffffffffffffffffffffffff1661096b565b6101766004803603602081101561053b57600080fd5b50356109ab565b6102236109b0565b6105558233836109bf565b5050565b610561610a5b565b33600090815260036020908152604080832073ffffffffffffffffffffffffffffffffffffffff8516845290915290205460ff16156105a6576105a48282610a74565b505b610555610ad0565b60006105b8610a5b565b6105c3838333610ad7565b90506105cd610ad0565b92915050565b60006105dd610a5b565b33600090815260036020908152604080832073ffffffffffffffffffffffffffffffffffffffff8616845290915290205460ff16610666576040517f08c379a0000000000000000000000000000000000000000000000000000000008152600401808060200182810382526023815260200180610f866023913960400191505060405180910390fd5b610671848484610ad7565b905061067b610ad0565b9392505050565b73ffffffffffffffffffffffffffffffffffffffff918216600090815260036020908152604080832093909416825291909152205460ff1690565b6106c8838383610b83565b505050565b60006106d7610a5b565b6106e18233610a74565b90506106eb610ad0565b919050565b60006106fa610a5b565b33600090815260036020908152604080832073ffffffffffffffffffffffffffffffffffffffff8616845290915290205460ff16610783576040517f08c379a0000000000000000000000000000000000000000000000000000000008152600401808060200182810382526023815260200180610f866023913960400191505060405180910390fd5b6105c38383610a74565b73ffffffffffffffffffffffffffffffffffffffff918216600090815260026020908152604080832093909416825291909152205490565b73ffffffffffffffffffffffffffffffffffffffff1660009081526001602052604090205490565b600455565b6107fa610a5b565b60005b600881101561088957600082826008811061081457fe5b602002013573ffffffffffffffffffffffffffffffffffffffff1673ffffffffffffffffffffffffffffffffffffffff16141561085057610889565b61088082826008811061085f57fe5b602002013573ffffffffffffffffffffffffffffffffffffffff1633610a74565b506001016107fd565b50610892610ad0565b50565b7f000000000000000000000000000000000000000000000000000000000000000090565b60007fc87351a089bbdc3b2b9299d2ce29f08fd982826b275b3642939a2f7fdd81538088886108e7896107c5565b6040805160208082019690965273ffffffffffffffffffffffffffffffffffffffff909416848201529115156060840152608083015260a08083018990528151808403909101815260c0909201905280519101209050610956868261094d878787610bfa565b886101f8610c39565b6109618887896109bf565b5050505050505050565b73ffffffffffffffffffffffffffffffffffffffff8116600090815260036020908152604080832033845290915290205461089290829060ff161561054a565b600555565b60006109ba610ca0565b905090565b73ffffffffffffffffffffffffffffffffffffffff83811660008181526003602090815260408083209487168084529482529182902080547fffffffffffffffffffffffffffffffffffffffffffffffffffffffffffffff0016861515908117909155825190815291519293927fa3ffb51320bbca4e61e7423e3c97dd7bd7e31b6ea7429eb26ef92780e84572a09281900390910190a3505050565b610a6d60026000541415610190610d6b565b6002600055565b6040805173ffffffffffffffffffffffffffffffffffffffff80851682528316602082015281516000927fe79957009f47ab19e55b0de47f86d50b7aa34415b86803b58042231fddb55ca1928290030190a15060045492915050565b6001600055565b60007f21f839751f19294048b530b9f94549c7e8191986f1d59d75f002b051401014c084848460405180806020018373ffffffffffffffffffffffffffffffffffffffff1681526020018281038252858582818152602001925060200280828437600083820152604051601f9091017fffffffffffffffffffffffffffffffffffffffffffffffffffffffffffffffe016909201829003965090945050505050a1506005549392505050565b73ffffffffffffffffffffffffffffffffffffffff80841660008181526002602090815260408083209487168084529482529182902085905581519384528301849052805191927f9d228d69b5fdb8d273a2336f8fb8612d039631024ea9bf09c424a9503aa078f0929081900390910190a2505050565b60408051604180825260808201909252606091829190602082018180368337019050509050836020820152826040820152846060820153949350505050565b6000610c4485610d79565b9050610c5a610c54878387610de0565b83610d6b565b610c69428410156101b8610d6b565b50505073ffffffffffffffffffffffffffffffffffffffff9092166000908152600160208190526040909120805490910190555050565b60007f00000000000000000000000000000000000000000000000000000000000000007f00000000000000000000000000000000000000000000000000000000000000007f0000000000000000000000000000000000000000000000000000000000000000610d0d610ef2565b30604051602001808681526020018581526020018481526020018381526020018273ffffffffffffffffffffffffffffffffffffffff1681526020019550505050505060405160208183030381529060405280519060200120905090565b816105555761055581610ef6565b6000610d83610ca0565b8260405160200180807f190100000000000000000000000000000000000000000000000000000000000081525060020183815260200182815260200192505050604051602081830303815290604052805190602001209050919050565b6000610df282516041146101b9610d6b565b60008060006020850151925060408501519150606085015160001a9050600060018783868660405160008152602001604052604051808581526020018460ff1681526020018381526020018281526020019450505050506020604051602081039080840390855afa158015610e6b573d6000803e3d6000fd5b50506040517fffffffffffffffffffffffffffffffffffffffffffffffffffffffffffffffe0015191505073ffffffffffffffffffffffffffffffffffffffff811615801590610ee657508773ffffffffffffffffffffffffffffffffffffffff168173ffffffffffffffffffffffffffffffffffffffff16145b98975050505050505050565b4690565b7f08c379a000000000000000000000000000000000000000000000000000000000600090815260206004526007602452600a808304818106603090810160081b83860601918390049283060160101b016642414c230000300160c81b604452610892917f42414c0000000000000000000000000000000000000000000000000000000000906242414c90606490fdfe43616c6c6572206e6f7420616c6c6f77656420746f206d696e7420666f722075736572a2646970667358221220bbf4de1b8547d06129adb792a46e77e0a26c69a79de7f6dee9a2a0463878e75264736f6c63430007010033",
  "linkReferences": {},
  "deployedLinkReferences": {}
}