{
  "_format": "hh-sol-artifact-1",
  "contractName": "MockAuthenticatedContract",
  "sourceName": "contracts/test/MockAuthenticatedContract.sol",
  "abi": [
    {
      "inputs": [
        {
          "internalType": "contract IVault",
          "name": "vault",
          "type": "address"
        }
      ],
      "stateMutability": "nonpayable",
      "type": "constructor"
    },
    {
      "anonymous": false,
      "inputs": [
        {
          "indexed": false,
          "internalType": "bytes",
          "name": "data",
          "type": "bytes"
        }
      ],
      "name": "ProtectedFunctionCalled",
      "type": "event"
    },
    {
      "anonymous": false,
      "inputs": [
        {
          "indexed": false,
          "internalType": "bytes",
          "name": "data",
          "type": "bytes"
        }
      ],
      "name": "SecondProtectedFunctionCalled",
      "type": "event"
    },
    {
      "inputs": [
        {
          "internalType": "bytes4",
          "name": "selector",
          "type": "bytes4"
        }
      ],
      "name": "getActionId",
      "outputs": [
        {
          "internalType": "bytes32",
          "name": "",
          "type": "bytes32"
        }
      ],
      "stateMutability": "view",
      "type": "function"
    },
    {
      "inputs": [],
      "name": "getAuthorizer",
      "outputs": [
        {
          "internalType": "contract IAuthorizer",
          "name": "",
          "type": "address"
        }
      ],
      "stateMutability": "view",
      "type": "function"
    },
    {
      "inputs": [],
      "name": "getVault",
      "outputs": [
        {
          "internalType": "contract IVault",
          "name": "",
          "type": "address"
        }
      ],
      "stateMutability": "view",
      "type": "function"
    },
    {
      "inputs": [
        {
          "internalType": "bytes",
          "name": "data",
          "type": "bytes"
        }
      ],
      "name": "protectedFunction",
      "outputs": [
        {
          "internalType": "bytes",
          "name": "",
          "type": "bytes"
        }
      ],
      "stateMutability": "nonpayable",
      "type": "function"
    },
    {
      "inputs": [
        {
          "internalType": "bytes",
          "name": "data",
          "type": "bytes"
        }
      ],
      "name": "secondProtectedFunction",
      "outputs": [
        {
          "internalType": "bytes",
          "name": "",
          "type": "bytes"
        }
      ],
      "stateMutability": "nonpayable",
      "type": "function"
    }
  ],
  "bytecode": "0x60c060405234801561001057600080fd5b5060405161074138038061074183398101604081905261002f91610048565b3060805260601b6001600160601b03191660a052610076565b600060208284031215610059578081fd5b81516001600160a01b038116811461006f578182fd5b9392505050565b60805160a05160601c6106a561009c600039806101ba52508061016a52506106a56000f3fe608060405234801561001057600080fd5b50600436106100675760003560e01c80638d928af8116100505780638d928af8146100b5578063aaabadc5146100ca578063eaf75da6146100d257610067565b806344ed868a1461006c578063851c1bb314610095575b600080fd5b61007f61007a36600461048a565b6100e5565b60405161008c91906105dd565b60405180910390f35b6100a86100a336600461044a565b610166565b60405161008c919061055b565b6100bd6101b8565b60405161008c919061064e565b6100bd6101dc565b61007f6100e036600461048a565b610268565b60606100ef6102a3565b7fad425ca9de76acbfdb3bfdcd021628ce76f73c606d8bfc841ef54022170227dd8383604051610120929190610590565b60405180910390a182828080601f016020809104026020016040519081016040528093929190818152602001838380828437600092019190915250929695505050505050565b60007f00000000000000000000000000000000000000000000000000000000000000008260405160200161019b92919061052b565b604051602081830303815290604052805190602001209050919050565b7f000000000000000000000000000000000000000000000000000000000000000090565b60006101e66101b8565b73ffffffffffffffffffffffffffffffffffffffff1663aaabadc56040518163ffffffff1660e01b815260040160206040518083038186803b15801561022b57600080fd5b505afa15801561023f573d6000803e3d6000fd5b505050506040513d601f19601f8201168201806040525081019061026391906104f7565b905090565b60606102726102a3565b7f556b9a54a0bd68ccf3b420f1d91ff66912c731027a84f36dd353c7d0cd557a878383604051610120929190610590565b60006102d26000357fffffffff0000000000000000000000000000000000000000000000000000000016610166565b90506102e96102e182336102ec565b610191610389565b50565b60006102f66101dc565b73ffffffffffffffffffffffffffffffffffffffff16639be2a8848484306040518463ffffffff1660e01b815260040161033293929190610564565b60206040518083038186803b15801561034a57600080fd5b505afa15801561035e573d6000803e3d6000fd5b505050506040513d601f19601f82011682018060405250810190610382919061042a565b9392505050565b81610397576103978161039b565b5050565b7f08c379a000000000000000000000000000000000000000000000000000000000600090815260206004526007602452600a808304818106603090810160081b83860601918390049283060160101b016642414c230000300160c81b6044526102e9917f42414c0000000000000000000000000000000000000000000000000000000000906242414c90606490fd5b60006020828403121561043b578081fd5b81518015158114610382578182fd5b60006020828403121561045b578081fd5b81357fffffffff0000000000000000000000000000000000000000000000000000000081168114610382578182fd5b6000806020838503121561049c578081fd5b823567ffffffffffffffff808211156104b3578283fd5b818501915085601f8301126104c6578283fd5b8135818111156104d4578384fd5b8660208285010111156104e5578384fd5b60209290920196919550909350505050565b600060208284031215610508578081fd5b815173ffffffffffffffffffffffffffffffffffffffff81168114610382578182fd5b9182527fffffffff0000000000000000000000000000000000000000000000000000000016602082015260240190565b90815260200190565b92835273ffffffffffffffffffffffffffffffffffffffff918216602084015216604082015260600190565b60006020825282602083015282846040840137818301604090810191909152601f9092017fffffffffffffffffffffffffffffffffffffffffffffffffffffffffffffffe0160101919050565b6000602080835283518082850152825b81811015610609578581018301518582016040015282016105ed565b8181111561061a5783604083870101525b50601f017fffffffffffffffffffffffffffffffffffffffffffffffffffffffffffffffe016929092016040019392505050565b73ffffffffffffffffffffffffffffffffffffffff9190911681526020019056fea264697066735822122039b07a27a2db2d810ed336782202aeb165e83057745fbc368a45f79c708760ad64736f6c63430007010033",
  "linkReferences": {},
  "deployedLinkReferences": {}
}