{
  "_format": "hh-sol-artifact-1",
  "contractName": "USDTMock",
  "sourceName": "contracts/test/USDTMock.sol",
  "abi": [
    {
      "inputs": [],
      "stateMutability": "nonpayable",
      "type": "constructor"
    },
    {
      "anonymous": false,
      "inputs": [
        {
          "indexed": true,
          "internalType": "address",
          "name": "owner",
          "type": "address"
        },
        {
          "indexed": true,
          "internalType": "address",
          "name": "spender",
          "type": "address"
        },
        {
          "indexed": false,
          "internalType": "uint256",
          "name": "value",
          "type": "uint256"
        }
      ],
      "name": "Approval",
      "type": "event"
    },
    {
      "inputs": [
        {
          "internalType": "address",
          "name": "owner",
          "type": "address"
        },
        {
          "internalType": "address",
          "name": "spender",
          "type": "address"
        }
      ],
      "name": "allowance",
      "outputs": [
        {
          "internalType": "uint256",
          "name": "",
          "type": "uint256"
        }
      ],
      "stateMutability": "view",
      "type": "function"
    },
    {
      "inputs": [
        {
          "internalType": "address",
          "name": "spender",
          "type": "address"
        },
        {
          "internalType": "uint256",
          "name": "amount",
          "type": "uint256"
        }
      ],
      "name": "approve",
      "outputs": [],
      "stateMutability": "nonpayable",
      "type": "function"
    },
    {
      "inputs": [
        {
          "internalType": "address",
          "name": "owner",
          "type": "address"
        },
        {
          "internalType": "address",
          "name": "spender",
          "type": "address"
        },
        {
          "internalType": "uint256",
          "name": "amount",
          "type": "uint256"
        }
      ],
      "name": "setAllowance",
      "outputs": [],
      "stateMutability": "nonpayable",
      "type": "function"
    }
  ],
  "bytecode": "0x608060405234801561001057600080fd5b50610267806100206000396000f3fe608060405234801561001057600080fd5b50600436106100415760003560e01c8063095ea7b314610046578063da46098c14610081578063dd62ed3e146100c4575b600080fd5b61007f6004803603604081101561005c57600080fd5b5073ffffffffffffffffffffffffffffffffffffffff8135169060200135610111565b005b61007f6004803603606081101561009757600080fd5b5073ffffffffffffffffffffffffffffffffffffffff8135811691602081013590911690604001356101c4565b6100ff600480360360408110156100da57600080fd5b5073ffffffffffffffffffffffffffffffffffffffff813581169160200135166101fb565b60408051918252519081900360200190f35b801580159061014d57503360009081526020818152604080832073ffffffffffffffffffffffffffffffffffffffff8616845290915290205415155b1561015757600080fd5b3360008181526020818152604080832073ffffffffffffffffffffffffffffffffffffffff871680855290835292819020859055805185815290519293927f8c5be1e5ebec7d5bd14f71427d1e84f3dd0314c0f7b2291e5b200ac8c7c3b925929181900390910190a35050565b73ffffffffffffffffffffffffffffffffffffffff9283166000908152602081815260408083209490951682529290925291902055565b73ffffffffffffffffffffffffffffffffffffffff9182166000908152602081815260408083209390941682529190915220549056fea2646970667358221220d00485e9a95dde5e12d80536c458a553863af5fc0f81e0cbfcc9c613459bb45664736f6c63430007010033",
  "linkReferences": {},
  "deployedLinkReferences": {}
}