{
  "_format": "hh-sol-artifact-1",
  "contractName": "MockWstETH",
  "sourceName": "contracts/test/MockWstETH.sol",
  "abi": [
    {
      "inputs": [
        {
          "internalType": "contract IstETH",
          "name": "token",
          "type": "address"
        }
      ],
      "stateMutability": "nonpayable",
      "type": "constructor"
    },
    {
      "anonymous": false,
      "inputs": [
        {
          "indexed": true,
          "internalType": "address",
          "name": "owner",
          "type": "address"
        },
        {
          "indexed": true,
          "internalType": "address",
          "name": "spender",
          "type": "address"
        },
        {
          "indexed": false,
          "internalType": "uint256",
          "name": "value",
          "type": "uint256"
        }
      ],
      "name": "Approval",
      "type": "event"
    },
    {
      "anonymous": false,
      "inputs": [
        {
          "indexed": true,
          "internalType": "address",
          "name": "from",
          "type": "address"
        },
        {
          "indexed": true,
          "internalType": "address",
          "name": "to",
          "type": "address"
        },
        {
          "indexed": false,
          "internalType": "uint256",
          "name": "value",
          "type": "uint256"
        }
      ],
      "name": "Transfer",
      "type": "event"
    },
    {
      "inputs": [
        {
          "internalType": "address",
          "name": "owner",
          "type": "address"
        },
        {
          "internalType": "address",
          "name": "spender",
          "type": "address"
        }
      ],
      "name": "allowance",
      "outputs": [
        {
          "internalType": "uint256",
          "name": "",
          "type": "uint256"
        }
      ],
      "stateMutability": "view",
      "type": "function"
    },
    {
      "inputs": [
        {
          "internalType": "address",
          "name": "spender",
          "type": "address"
        },
        {
          "internalType": "uint256",
          "name": "amount",
          "type": "uint256"
        }
      ],
      "name": "approve",
      "outputs": [
        {
          "internalType": "bool",
          "name": "",
          "type": "bool"
        }
      ],
      "stateMutability": "nonpayable",
      "type": "function"
    },
    {
      "inputs": [
        {
          "internalType": "address",
          "name": "account",
          "type": "address"
        }
      ],
      "name": "balanceOf",
      "outputs": [
        {
          "internalType": "uint256",
          "name": "",
          "type": "uint256"
        }
      ],
      "stateMutability": "view",
      "type": "function"
    },
    {
      "inputs": [],
      "name": "decimals",
      "outputs": [
        {
          "internalType": "uint8",
          "name": "",
          "type": "uint8"
        }
      ],
      "stateMutability": "view",
      "type": "function"
    },
    {
      "inputs": [
        {
          "internalType": "address",
          "name": "spender",
          "type": "address"
        },
        {
          "internalType": "uint256",
          "name": "subtractedValue",
          "type": "uint256"
        }
      ],
      "name": "decreaseAllowance",
      "outputs": [
        {
          "internalType": "bool",
          "name": "",
          "type": "bool"
        }
      ],
      "stateMutability": "nonpayable",
      "type": "function"
    },
    {
      "inputs": [
        {
          "internalType": "uint256",
          "name": "_wstETHAmount",
          "type": "uint256"
        }
      ],
      "name": "getStETHByWstETH",
      "outputs": [
        {
          "internalType": "uint256",
          "name": "",
          "type": "uint256"
        }
      ],
      "stateMutability": "view",
      "type": "function"
    },
    {
      "inputs": [
        {
          "internalType": "uint256",
          "name": "_stETHAmount",
          "type": "uint256"
        }
      ],
      "name": "getWstETHByStETH",
      "outputs": [
        {
          "internalType": "uint256",
          "name": "",
          "type": "uint256"
        }
      ],
      "stateMutability": "view",
      "type": "function"
    },
    {
      "inputs": [
        {
          "internalType": "address",
          "name": "spender",
          "type": "address"
        },
        {
          "internalType": "uint256",
          "name": "addedValue",
          "type": "uint256"
        }
      ],
      "name": "increaseAllowance",
      "outputs": [
        {
          "internalType": "bool",
          "name": "",
          "type": "bool"
        }
      ],
      "stateMutability": "nonpayable",
      "type": "function"
    },
    {
      "inputs": [],
      "name": "name",
      "outputs": [
        {
          "internalType": "string",
          "name": "",
          "type": "string"
        }
      ],
      "stateMutability": "view",
      "type": "function"
    },
    {
      "inputs": [],
      "name": "rate",
      "outputs": [
        {
          "internalType": "uint256",
          "name": "",
          "type": "uint256"
        }
      ],
      "stateMutability": "view",
      "type": "function"
    },
    {
      "inputs": [],
      "name": "stETH",
      "outputs": [
        {
          "internalType": "contract IstETH",
          "name": "",
          "type": "address"
        }
      ],
      "stateMutability": "view",
      "type": "function"
    },
    {
      "inputs": [],
      "name": "stEthPerToken",
      "outputs": [
        {
          "internalType": "uint256",
          "name": "",
          "type": "uint256"
        }
      ],
      "stateMutability": "view",
      "type": "function"
    },
    {
      "inputs": [],
      "name": "symbol",
      "outputs": [
        {
          "internalType": "string",
          "name": "",
          "type": "string"
        }
      ],
      "stateMutability": "view",
      "type": "function"
    },
    {
      "inputs": [],
      "name": "tokensPerStEth",
      "outputs": [
        {
          "internalType": "uint256",
          "name": "",
          "type": "uint256"
        }
      ],
      "stateMutability": "view",
      "type": "function"
    },
    {
      "inputs": [],
      "name": "totalSupply",
      "outputs": [
        {
          "internalType": "uint256",
          "name": "",
          "type": "uint256"
        }
      ],
      "stateMutability": "view",
      "type": "function"
    },
    {
      "inputs": [
        {
          "internalType": "address",
          "name": "recipient",
          "type": "address"
        },
        {
          "internalType": "uint256",
          "name": "amount",
          "type": "uint256"
        }
      ],
      "name": "transfer",
      "outputs": [
        {
          "internalType": "bool",
          "name": "",
          "type": "bool"
        }
      ],
      "stateMutability": "nonpayable",
      "type": "function"
    },
    {
      "inputs": [
        {
          "internalType": "address",
          "name": "sender",
          "type": "address"
        },
        {
          "internalType": "address",
          "name": "recipient",
          "type": "address"
        },
        {
          "internalType": "uint256",
          "name": "amount",
          "type": "uint256"
        }
      ],
      "name": "transferFrom",
      "outputs": [
        {
          "internalType": "bool",
          "name": "",
          "type": "bool"
        }
      ],
      "stateMutability": "nonpayable",
      "type": "function"
    },
    {
      "inputs": [
        {
          "internalType": "uint256",
          "name": "_wstETHAmount",
          "type": "uint256"
        }
      ],
      "name": "unwrap",
      "outputs": [
        {
          "internalType": "uint256",
          "name": "",
          "type": "uint256"
        }
      ],
      "stateMutability": "nonpayable",
      "type": "function"
    },
    {
      "inputs": [
        {
          "internalType": "uint256",
          "name": "_stETHAmount",
          "type": "uint256"
        }
      ],
      "name": "wrap",
      "outputs": [
        {
          "internalType": "uint256",
          "name": "",
          "type": "uint256"
        }
      ],
      "stateMutability": "nonpayable",
      "type": "function"
    },
    {
      "stateMutability": "payable",
      "type": "receive"
    }
  ],
  "bytecode": "0x60806040526714d1120d7b1600006006553480156200001d57600080fd5b50604051620012c1380380620012c1833981810160405260208110156200004357600080fd5b5051604080518082018252601481527f57726170706564205374616b65642045746865720000000000000000000000006020828101918252835180850190945260068452650eee6e88aa8960d31b908401528151919291620000a891600391620000f8565b508051620000be906004906020840190620000f8565b5050600580546001600160a01b0390931661010002610100600160a81b031960ff1990941660121793909316929092179091555062000194565b828054600181600116156101000203166002900490600052602060002090601f016020900481019282601f106200013b57805160ff19168380011785556200016b565b828001600101855582156200016b579182015b828111156200016b5782518255916020019190600101906200014e565b50620001799291506200017d565b5090565b5b808211156200017957600081556001016200017e565b61111d80620001a46000396000f3fe6080604052600436106101485760003560e01c80639576a0c8116100c0578063bb2952fc11610074578063dd62ed3e11610059578063dd62ed3e14610589578063de0e9a3e146105d1578063ea598cb0146105fb57610206565b8063bb2952fc14610521578063c1fe3e481461054b57610206565b8063a457c2d7116100a5578063a457c2d71461046b578063a9059cbb146104b1578063b0e38900146104f757610206565b80639576a0c81461044157806395d89b411461045657610206565b806323b872dd11610117578063313ce567116100fc578063313ce5671461039057806339509351146103bb57806370a082311461040157610206565b806323b872dd1461032b5780632c4e722e1461037b57610206565b8063035faf821461020b57806306fdde0314610232578063095ea7b3146102bc57806318160ddd1461031657610206565b3661020657600554604080517fa1903eab000000000000000000000000000000000000000000000000000000008152306004820152905161010090920473ffffffffffffffffffffffffffffffffffffffff169163a1903eab913491602480830192602092919082900301818588803b1580156101c457600080fd5b505af11580156101d8573d6000803e3d6000fd5b50505050506040513d60208110156101ef57600080fd5b506102049050336101ff34610625565b610642565b005b600080fd5b34801561021757600080fd5b506102206106fb565b60408051918252519081900360200190f35b34801561023e57600080fd5b50610247610713565b6040805160208082528351818301528351919283929083019185019080838360005b83811015610281578181015183820152602001610269565b50505050905090810190601f1680156102ae5780820380516001836020036101000a031916815260200191505b509250505060405180910390f35b3480156102c857600080fd5b50610302600480360360408110156102df57600080fd5b5073ffffffffffffffffffffffffffffffffffffffff81351690602001356107c7565b604080519115158252519081900360200190f35b34801561032257600080fd5b506102206107dd565b34801561033757600080fd5b506103026004803603606081101561034e57600080fd5b5073ffffffffffffffffffffffffffffffffffffffff8135811691602081013590911690604001356107e3565b34801561038757600080fd5b50610220610844565b34801561039c57600080fd5b506103a561084a565b6040805160ff9092168252519081900360200190f35b3480156103c757600080fd5b50610302600480360360408110156103de57600080fd5b5073ffffffffffffffffffffffffffffffffffffffff8135169060200135610853565b34801561040d57600080fd5b506102206004803603602081101561042457600080fd5b503573ffffffffffffffffffffffffffffffffffffffff16610896565b34801561044d57600080fd5b506102206108be565b34801561046257600080fd5b506102476108d1565b34801561047757600080fd5b506103026004803603604081101561048e57600080fd5b5073ffffffffffffffffffffffffffffffffffffffff8135169060200135610950565b3480156104bd57600080fd5b50610302600480360360408110156104d457600080fd5b5073ffffffffffffffffffffffffffffffffffffffff8135169060200135610996565b34801561050357600080fd5b506102206004803603602081101561051a57600080fd5b5035610625565b34801561052d57600080fd5b506102206004803603602081101561054457600080fd5b50356109a3565b34801561055757600080fd5b506105606109ba565b6040805173ffffffffffffffffffffffffffffffffffffffff9092168252519081900360200190f35b34801561059557600080fd5b50610220600480360360408110156105ac57600080fd5b5073ffffffffffffffffffffffffffffffffffffffff813581169160200135166109db565b3480156105dd57600080fd5b50610220600480360360208110156105f457600080fd5b5035610a13565b34801561060757600080fd5b506102206004803603602081101561061e57600080fd5b5035610a56565b600061063c60065483610a9a90919063ffffffff16565b92915050565b61064e60008383610aed565b6106686106638261065d6107dd565b90610af2565b610b0b565b73ffffffffffffffffffffffffffffffffffffffff82166000908152602081905260409020546106989082610af2565b73ffffffffffffffffffffffffffffffffffffffff83166000818152602081815260408083209490945583518581529351929391927fddf252ad1be2c89b69c2b068fc378daa952ba7f163c4a11628f55a4df523b3ef9281900390910190a35050565b600061070e670de0b6b3a76400006109a3565b905090565b60038054604080516020601f60027fffffffffffffffffffffffffffffffffffffffffffffffffffffffffffffffff6101006001881615020190951694909404938401819004810282018101909252828152606093909290918301828280156107bd5780601f10610792576101008083540402835291602001916107bd565b820191906000526020600020905b8154815290600101906020018083116107a057829003601f168201915b5050505050905090565b60006107d4338484610b10565b50600192915050565b60025490565b60006107f0848484610b7f565b73ffffffffffffffffffffffffffffffffffffffff841660009081526001602090815260408083203380855292529091205461083a918691610835908661019e610ca8565b610b10565b5060019392505050565b60065481565b60055460ff1690565b33600081815260016020908152604080832073ffffffffffffffffffffffffffffffffffffffff8716845290915281205490916107d49185906108359086610af2565b73ffffffffffffffffffffffffffffffffffffffff1660009081526020819052604090205490565b600061070e670de0b6b3a7640000610625565b60048054604080516020601f60027fffffffffffffffffffffffffffffffffffffffffffffffffffffffffffffffff6101006001881615020190951694909404938401819004810282018101909252828152606093909290918301828280156107bd5780601f10610792576101008083540402835291602001916107bd565b33600081815260016020908152604080832073ffffffffffffffffffffffffffffffffffffffff8716845290915281205490916107d4918590610835908661019f610ca8565b60006107d4338484610b7f565b600061063c60065483610cbe90919063ffffffff16565b600554610100900473ffffffffffffffffffffffffffffffffffffffff1681565b73ffffffffffffffffffffffffffffffffffffffff918216600090815260016020908152604080832093909416825291909152205490565b6000610a1f3383610cf1565b6000610a2a836109a3565b60055490915061063c90610100900473ffffffffffffffffffffffffffffffffffffffff163383610de1565b600554600090610a8390610100900473ffffffffffffffffffffffffffffffffffffffff16333085610e6e565b6000610a8e83610625565b905061063c3382610642565b6000610aa98215156004610f09565b670de0b6b3a76400008302610adb841580610ad45750670de0b6b3a7640000858381610ad157fe5b04145b6005610f09565b828181610ae457fe5b04949350505050565b505050565b6000828201610b048482101583610f09565b9392505050565b600255565b73ffffffffffffffffffffffffffffffffffffffff808416600081815260016020908152604080832094871680845294825291829020859055815185815291517f8c5be1e5ebec7d5bd14f71427d1e84f3dd0314c0f7b2291e5b200ac8c7c3b9259281900390910190a3505050565b610ba373ffffffffffffffffffffffffffffffffffffffff84161515610198610f09565b610bc773ffffffffffffffffffffffffffffffffffffffff83161515610199610f09565b610bd2838383610aed565b73ffffffffffffffffffffffffffffffffffffffff8316600090815260208190526040902054610c0590826101a0610ca8565b73ffffffffffffffffffffffffffffffffffffffff8085166000908152602081905260408082209390935590841681522054610c419082610af2565b73ffffffffffffffffffffffffffffffffffffffff8084166000818152602081815260409182902094909455805185815290519193928716927fddf252ad1be2c89b69c2b068fc378daa952ba7f163c4a11628f55a4df523b3ef92918290030190a3505050565b6000610cb78484111583610f09565b5050900390565b6000828202610ce2841580610cdb575083858381610cd857fe5b04145b6003610f09565b670de0b6b3a764000081610ae4565b610d1573ffffffffffffffffffffffffffffffffffffffff8316151561019b610f09565b610d2182600083610aed565b73ffffffffffffffffffffffffffffffffffffffff8216600090815260208190526040902054610d5490826101b2610ca8565b73ffffffffffffffffffffffffffffffffffffffff8316600090815260208190526040902055610d8f61066382610d896107dd565b90610f1b565b60408051828152905160009173ffffffffffffffffffffffffffffffffffffffff8516917fddf252ad1be2c89b69c2b068fc378daa952ba7f163c4a11628f55a4df523b3ef9181900360200190a35050565b6040805173ffffffffffffffffffffffffffffffffffffffff8416602482015260448082018490528251808303909101815260649091019091526020810180517bffffffffffffffffffffffffffffffffffffffffffffffffffffffff167fa9059cbb00000000000000000000000000000000000000000000000000000000179052610aed908490610f29565b6040805173ffffffffffffffffffffffffffffffffffffffff80861660248301528416604482015260648082018490528251808303909101815260849091019091526020810180517bffffffffffffffffffffffffffffffffffffffffffffffffffffffff167f23b872dd00000000000000000000000000000000000000000000000000000000179052610f03908590610f29565b50505050565b81610f1757610f178161103f565b5050565b6000610b0483836001610ca8565b600060608373ffffffffffffffffffffffffffffffffffffffff16836040518082805190602001908083835b60208310610f9257805182527fffffffffffffffffffffffffffffffffffffffffffffffffffffffffffffffe09092019160209182019101610f55565b6001836020036101000a0380198251168184511680821785525050505050509050019150506000604051808303816000865af19150503d8060008114610ff4576040519150601f19603f3d011682016040523d82523d6000602084013e610ff9565b606091505b50915091506000821415611011573d6000803e3d6000fd5b610f03815160001480611037575081806020019051602081101561103457600080fd5b50515b6101a2610f09565b611069817f42414c000000000000000000000000000000000000000000000000000000000061106c565b50565b7f08c379a000000000000000000000000000000000000000000000000000000000600090815260206004526007602452600a808404818106603090810160081b958390069590950190829004918206850160101b01602363ffffff0060e086901c160160181b0190930160c81b60445260e882901c90606490fdfea2646970667358221220ab0a0bcb9126784acad6847446fded3323d05a43c0bc8ab32155c551055cb26b64736f6c63430007010033",
  "linkReferences": {},
  "deployedLinkReferences": {}
}