{
  "_format": "hh-sol-artifact-1",
  "contractName": "MockStETH",
  "sourceName": "contracts/test/MockStETH.sol",
  "abi": [
    {
      "inputs": [
        {
          "internalType": "string",
          "name": "name",
          "type": "string"
        },
        {
          "internalType": "string",
          "name": "symbol",
          "type": "string"
        },
        {
          "internalType": "uint8",
          "name": "decimals",
          "type": "uint8"
        }
      ],
      "stateMutability": "nonpayable",
      "type": "constructor"
    },
    {
      "anonymous": false,
      "inputs": [
        {
          "indexed": true,
          "internalType": "address",
          "name": "owner",
          "type": "address"
        },
        {
          "indexed": true,
          "internalType": "address",
          "name": "spender",
          "type": "address"
        },
        {
          "indexed": false,
          "internalType": "uint256",
          "name": "value",
          "type": "uint256"
        }
      ],
      "name": "Approval",
      "type": "event"
    },
    {
      "anonymous": false,
      "inputs": [
        {
          "indexed": false,
          "internalType": "uint256",
          "name": "amount",
          "type": "uint256"
        }
      ],
      "name": "EthStaked",
      "type": "event"
    },
    {
      "anonymous": false,
      "inputs": [
        {
          "indexed": true,
          "internalType": "address",
          "name": "from",
          "type": "address"
        },
        {
          "indexed": true,
          "internalType": "address",
          "name": "to",
          "type": "address"
        },
        {
          "indexed": false,
          "internalType": "uint256",
          "name": "value",
          "type": "uint256"
        }
      ],
      "name": "Transfer",
      "type": "event"
    },
    {
      "inputs": [],
      "name": "DOMAIN_SEPARATOR",
      "outputs": [
        {
          "internalType": "bytes32",
          "name": "",
          "type": "bytes32"
        }
      ],
      "stateMutability": "view",
      "type": "function"
    },
    {
      "inputs": [
        {
          "internalType": "address",
          "name": "owner",
          "type": "address"
        },
        {
          "internalType": "address",
          "name": "spender",
          "type": "address"
        }
      ],
      "name": "allowance",
      "outputs": [
        {
          "internalType": "uint256",
          "name": "",
          "type": "uint256"
        }
      ],
      "stateMutability": "view",
      "type": "function"
    },
    {
      "inputs": [
        {
          "internalType": "address",
          "name": "spender",
          "type": "address"
        },
        {
          "internalType": "uint256",
          "name": "amount",
          "type": "uint256"
        }
      ],
      "name": "approve",
      "outputs": [
        {
          "internalType": "bool",
          "name": "",
          "type": "bool"
        }
      ],
      "stateMutability": "nonpayable",
      "type": "function"
    },
    {
      "inputs": [
        {
          "internalType": "address",
          "name": "account",
          "type": "address"
        }
      ],
      "name": "balanceOf",
      "outputs": [
        {
          "internalType": "uint256",
          "name": "",
          "type": "uint256"
        }
      ],
      "stateMutability": "view",
      "type": "function"
    },
    {
      "inputs": [
        {
          "internalType": "uint256",
          "name": "amount",
          "type": "uint256"
        }
      ],
      "name": "burn",
      "outputs": [],
      "stateMutability": "nonpayable",
      "type": "function"
    },
    {
      "inputs": [
        {
          "internalType": "address",
          "name": "account",
          "type": "address"
        },
        {
          "internalType": "uint256",
          "name": "amount",
          "type": "uint256"
        }
      ],
      "name": "burnFrom",
      "outputs": [],
      "stateMutability": "nonpayable",
      "type": "function"
    },
    {
      "inputs": [
        {
          "internalType": "address",
          "name": "sender",
          "type": "address"
        },
        {
          "internalType": "uint256",
          "name": "amount",
          "type": "uint256"
        }
      ],
      "name": "burnWithoutAllowance",
      "outputs": [],
      "stateMutability": "nonpayable",
      "type": "function"
    },
    {
      "inputs": [],
      "name": "decimals",
      "outputs": [
        {
          "internalType": "uint8",
          "name": "",
          "type": "uint8"
        }
      ],
      "stateMutability": "view",
      "type": "function"
    },
    {
      "inputs": [
        {
          "internalType": "address",
          "name": "spender",
          "type": "address"
        },
        {
          "internalType": "uint256",
          "name": "subtractedValue",
          "type": "uint256"
        }
      ],
      "name": "decreaseAllowance",
      "outputs": [
        {
          "internalType": "bool",
          "name": "",
          "type": "bool"
        }
      ],
      "stateMutability": "nonpayable",
      "type": "function"
    },
    {
      "inputs": [],
      "name": "getDomainSeparator",
      "outputs": [
        {
          "internalType": "bytes32",
          "name": "",
          "type": "bytes32"
        }
      ],
      "stateMutability": "view",
      "type": "function"
    },
    {
      "inputs": [
        {
          "internalType": "address",
          "name": "account",
          "type": "address"
        }
      ],
      "name": "getNextNonce",
      "outputs": [
        {
          "internalType": "uint256",
          "name": "",
          "type": "uint256"
        }
      ],
      "stateMutability": "view",
      "type": "function"
    },
    {
      "inputs": [
        {
          "internalType": "address",
          "name": "spender",
          "type": "address"
        },
        {
          "internalType": "uint256",
          "name": "addedValue",
          "type": "uint256"
        }
      ],
      "name": "increaseAllowance",
      "outputs": [
        {
          "internalType": "bool",
          "name": "",
          "type": "bool"
        }
      ],
      "stateMutability": "nonpayable",
      "type": "function"
    },
    {
      "inputs": [
        {
          "internalType": "address",
          "name": "recipient",
          "type": "address"
        },
        {
          "internalType": "uint256",
          "name": "amount",
          "type": "uint256"
        }
      ],
      "name": "mint",
      "outputs": [],
      "stateMutability": "nonpayable",
      "type": "function"
    },
    {
      "inputs": [],
      "name": "name",
      "outputs": [
        {
          "internalType": "string",
          "name": "",
          "type": "string"
        }
      ],
      "stateMutability": "view",
      "type": "function"
    },
    {
      "inputs": [
        {
          "internalType": "address",
          "name": "owner",
          "type": "address"
        }
      ],
      "name": "nonces",
      "outputs": [
        {
          "internalType": "uint256",
          "name": "",
          "type": "uint256"
        }
      ],
      "stateMutability": "view",
      "type": "function"
    },
    {
      "inputs": [
        {
          "internalType": "address",
          "name": "owner",
          "type": "address"
        },
        {
          "internalType": "address",
          "name": "spender",
          "type": "address"
        },
        {
          "internalType": "uint256",
          "name": "value",
          "type": "uint256"
        },
        {
          "internalType": "uint256",
          "name": "deadline",
          "type": "uint256"
        },
        {
          "internalType": "uint8",
          "name": "v",
          "type": "uint8"
        },
        {
          "internalType": "bytes32",
          "name": "r",
          "type": "bytes32"
        },
        {
          "internalType": "bytes32",
          "name": "s",
          "type": "bytes32"
        }
      ],
      "name": "permit",
      "outputs": [],
      "stateMutability": "nonpayable",
      "type": "function"
    },
    {
      "inputs": [
        {
          "internalType": "address",
          "name": "",
          "type": "address"
        }
      ],
      "name": "submit",
      "outputs": [
        {
          "internalType": "uint256",
          "name": "",
          "type": "uint256"
        }
      ],
      "stateMutability": "payable",
      "type": "function"
    },
    {
      "inputs": [],
      "name": "symbol",
      "outputs": [
        {
          "internalType": "string",
          "name": "",
          "type": "string"
        }
      ],
      "stateMutability": "view",
      "type": "function"
    },
    {
      "inputs": [],
      "name": "totalSupply",
      "outputs": [
        {
          "internalType": "uint256",
          "name": "",
          "type": "uint256"
        }
      ],
      "stateMutability": "view",
      "type": "function"
    },
    {
      "inputs": [
        {
          "internalType": "address",
          "name": "recipient",
          "type": "address"
        },
        {
          "internalType": "uint256",
          "name": "amount",
          "type": "uint256"
        }
      ],
      "name": "transfer",
      "outputs": [
        {
          "internalType": "bool",
          "name": "",
          "type": "bool"
        }
      ],
      "stateMutability": "nonpayable",
      "type": "function"
    },
    {
      "inputs": [
        {
          "internalType": "address",
          "name": "sender",
          "type": "address"
        },
        {
          "internalType": "address",
          "name": "recipient",
          "type": "address"
        },
        {
          "internalType": "uint256",
          "name": "amount",
          "type": "uint256"
        }
      ],
      "name": "transferFrom",
      "outputs": [
        {
          "internalType": "bool",
          "name": "",
          "type": "bool"
        }
      ],
      "stateMutability": "nonpayable",
      "type": "function"
    }
  ],
  "bytecode": "0x60e06040523480156200001157600080fd5b506040516200159238038062001592833981810160405260608110156200003757600080fd5b81019080805160405193929190846401000000008211156200005857600080fd5b9083019060208201858111156200006e57600080fd5b82516401000000008111828201881017156200008957600080fd5b82525081516020918201929091019080838360005b83811015620000b85781810151838201526020016200009e565b50505050905090810190601f168015620000e65780820380516001836020036101000a031916815260200191505b50604052602001805160405193929190846401000000008211156200010a57600080fd5b9083019060208201858111156200012057600080fd5b82516401000000008111828201881017156200013b57600080fd5b82525081516020918201929091019080838360005b838110156200016a57818101518382015260200162000150565b50505050905090810190601f168015620001985780820380516001836020036101000a031916815260200191505b50604081815260209283015182820190915260018252603160f81b838301528651909450869350859285928592839283918791620001dc9160039185019062000267565b508051620001f290600490602084019062000267565b50506005805460ff19166012179055508151602092830120608052805191012060a052507f8b73c3c69bb8fe3d512ecc4cf759cc79239f7b179b0ffacaa9a75d522b39400f60c052620002458162000251565b50505050505062000303565b6005805460ff191660ff92909216919091179055565b828054600181600116156101000203166002900490600052602060002090601f016020900481019282601f10620002aa57805160ff1916838001178555620002da565b82800160010185558215620002da579182015b82811115620002da578251825591602001919060010190620002bd565b50620002e8929150620002ec565b5090565b5b80821115620002e85760008155600101620002ed565b60805160a05160c0516112626200033060003980610f38525080610f7a525080610f5952506112626000f3fe60806040526004361061016a5760003560e01c806379cc6790116100cb578063a1903eab1161007f578063d505accf11610059578063d505accf146105e2578063dd62ed3e1461064d578063ed24911d146106955761016a565b8063a1903eab14610523578063a457c2d714610556578063a9059cbb1461059c5761016a565b80637ecebe00116100b05780637ecebe001461048e57806390193b7c146104ce57806395d89b411461050e5761016a565b806379cc6790146104025780637c602bc2146104485761016a565b80633644e5151161012257806340c10f191161010757806340c10f191461035057806342966c681461039857806370a08231146103c25761016a565b80633644e515146102f5578063395093511461030a5761016a565b806318160ddd1161015357806318160ddd1461025357806323b872dd1461027a578063313ce567146102ca5761016a565b806306fdde031461016f578063095ea7b3146101f9575b600080fd5b34801561017b57600080fd5b506101846106aa565b6040805160208082528351818301528351919283929083019185019080838360005b838110156101be5781810151838201526020016101a6565b50505050905090810190601f1680156101eb5780820380516001836020036101000a031916815260200191505b509250505060405180910390f35b34801561020557600080fd5b5061023f6004803603604081101561021c57600080fd5b5073ffffffffffffffffffffffffffffffffffffffff813516906020013561075e565b604080519115158252519081900360200190f35b34801561025f57600080fd5b50610268610774565b60408051918252519081900360200190f35b34801561028657600080fd5b5061023f6004803603606081101561029d57600080fd5b5073ffffffffffffffffffffffffffffffffffffffff81358116916020810135909116906040013561077a565b3480156102d657600080fd5b506102df6107db565b6040805160ff9092168252519081900360200190f35b34801561030157600080fd5b506102686107e4565b34801561031657600080fd5b5061023f6004803603604081101561032d57600080fd5b5073ffffffffffffffffffffffffffffffffffffffff81351690602001356107f3565b34801561035c57600080fd5b506103966004803603604081101561037357600080fd5b5073ffffffffffffffffffffffffffffffffffffffff8135169060200135610836565b005b3480156103a457600080fd5b50610396600480360360208110156103bb57600080fd5b5035610844565b3480156103ce57600080fd5b50610268600480360360208110156103e557600080fd5b503573ffffffffffffffffffffffffffffffffffffffff16610851565b34801561040e57600080fd5b506103966004803603604081101561042557600080fd5b5073ffffffffffffffffffffffffffffffffffffffff8135169060200135610879565b34801561045457600080fd5b506103966004803603604081101561046b57600080fd5b5073ffffffffffffffffffffffffffffffffffffffff81351690602001356108af565b34801561049a57600080fd5b50610268600480360360208110156104b157600080fd5b503573ffffffffffffffffffffffffffffffffffffffff166108b9565b3480156104da57600080fd5b50610268600480360360208110156104f157600080fd5b503573ffffffffffffffffffffffffffffffffffffffff166108ca565b34801561051a57600080fd5b506101846108f2565b6102686004803603602081101561053957600080fd5b503573ffffffffffffffffffffffffffffffffffffffff16610971565b34801561056257600080fd5b5061023f6004803603604081101561057957600080fd5b5073ffffffffffffffffffffffffffffffffffffffff81351690602001356109b7565b3480156105a857600080fd5b5061023f600480360360408110156105bf57600080fd5b5073ffffffffffffffffffffffffffffffffffffffff81351690602001356109fd565b3480156105ee57600080fd5b50610396600480360360e081101561060557600080fd5b5073ffffffffffffffffffffffffffffffffffffffff813581169160208101359091169060408101359060608101359060ff6080820135169060a08101359060c00135610a0a565b34801561065957600080fd5b506102686004803603604081101561067057600080fd5b5073ffffffffffffffffffffffffffffffffffffffff81358116916020013516610adf565b3480156106a157600080fd5b50610268610b17565b60038054604080516020601f60027fffffffffffffffffffffffffffffffffffffffffffffffffffffffffffffffff6101006001881615020190951694909404938401819004810282018101909252828152606093909290918301828280156107545780601f1061072957610100808354040283529160200191610754565b820191906000526020600020905b81548152906001019060200180831161073757829003601f168201915b5050505050905090565b600061076b338484610b21565b50600192915050565b60025490565b6000610787848484610b90565b73ffffffffffffffffffffffffffffffffffffffff84166000908152600160209081526040808320338085529252909120546107d19186916107cc908661019e610cb9565b610b21565b5060019392505050565b60055460ff1690565b60006107ee610b17565b905090565b33600081815260016020908152604080832073ffffffffffffffffffffffffffffffffffffffff87168452909152812054909161076b9185906107cc9086610ccf565b6108408282610ce8565b5050565b61084e3382610da1565b50565b73ffffffffffffffffffffffffffffffffffffffff1660009081526020819052604090205490565b6000610893826101a161088c8633610adf565b9190610cb9565b90506108a0833383610b21565b6108aa8383610da1565b505050565b6108408282610da1565b60006108c4826108ca565b92915050565b73ffffffffffffffffffffffffffffffffffffffff1660009081526006602052604090205490565b60048054604080516020601f60027fffffffffffffffffffffffffffffffffffffffffffffffffffffffffffffffff6101006001881615020190951694909404938401819004810282018101909252828152606093909290918301828280156107545780601f1061072957610100808354040283529160200191610754565b600061097d3334610ce8565b6040805134815290517f5ac3d75f987a73cee9a456a277139319eee6559e3d027a360d2fc37ac93e74a39181900360200190a15034919050565b33600081815260016020908152604080832073ffffffffffffffffffffffffffffffffffffffff87168452909152812054909161076b9185906107cc908661019f610cb9565b600061076b338484610b90565b60007f6e71edae12b1b97f4d1f60370fef10105fa2faae0126114a169c64845d6126c9888888610a398c6108ca565b89604051602001808781526020018673ffffffffffffffffffffffffffffffffffffffff1681526020018573ffffffffffffffffffffffffffffffffffffffff1681526020018481526020018381526020018281526020019650505050505050604051602081830303815290604052805190602001209050610aca8882610ac1878787610e91565b886101f8610ed0565b610ad5888888610b21565b5050505050505050565b73ffffffffffffffffffffffffffffffffffffffff918216600090815260016020908152604080832093909416825291909152205490565b60006107ee610f34565b73ffffffffffffffffffffffffffffffffffffffff808416600081815260016020908152604080832094871680845294825291829020859055815185815291517f8c5be1e5ebec7d5bd14f71427d1e84f3dd0314c0f7b2291e5b200ac8c7c3b9259281900390910190a3505050565b610bb473ffffffffffffffffffffffffffffffffffffffff84161515610198610fff565b610bd873ffffffffffffffffffffffffffffffffffffffff83161515610199610fff565b610be38383836108aa565b73ffffffffffffffffffffffffffffffffffffffff8316600090815260208190526040902054610c1690826101a0610cb9565b73ffffffffffffffffffffffffffffffffffffffff8085166000908152602081905260408082209390935590841681522054610c529082610ccf565b73ffffffffffffffffffffffffffffffffffffffff8084166000818152602081815260409182902094909455805185815290519193928716927fddf252ad1be2c89b69c2b068fc378daa952ba7f163c4a11628f55a4df523b3ef92918290030190a3505050565b6000610cc88484111583610fff565b5050900390565b6000828201610ce18482101583610fff565b9392505050565b610cf4600083836108aa565b610d0e610d0982610d03610774565b90610ccf565b61100d565b73ffffffffffffffffffffffffffffffffffffffff8216600090815260208190526040902054610d3e9082610ccf565b73ffffffffffffffffffffffffffffffffffffffff83166000818152602081815260408083209490945583518581529351929391927fddf252ad1be2c89b69c2b068fc378daa952ba7f163c4a11628f55a4df523b3ef9281900390910190a35050565b610dc573ffffffffffffffffffffffffffffffffffffffff8316151561019b610fff565b610dd1826000836108aa565b73ffffffffffffffffffffffffffffffffffffffff8216600090815260208190526040902054610e0490826101b2610cb9565b73ffffffffffffffffffffffffffffffffffffffff8316600090815260208190526040902055610e3f610d0982610e39610774565b90611012565b60408051828152905160009173ffffffffffffffffffffffffffffffffffffffff8516917fddf252ad1be2c89b69c2b068fc378daa952ba7f163c4a11628f55a4df523b3ef9181900360200190a35050565b60408051604180825260808201909252606091829190602082018180368337019050509050836020820152826040820152846060820153949350505050565b6000610edb85611020565b9050610ef1610eeb878387611087565b83610fff565b610f00428410156101b8610fff565b50505073ffffffffffffffffffffffffffffffffffffffff9092166000908152600660205260409020805460010190555050565b60007f00000000000000000000000000000000000000000000000000000000000000007f00000000000000000000000000000000000000000000000000000000000000007f0000000000000000000000000000000000000000000000000000000000000000610fa1611199565b30604051602001808681526020018581526020018481526020018381526020018273ffffffffffffffffffffffffffffffffffffffff1681526020019550505050505060405160208183030381529060405280519060200120905090565b81610840576108408161119d565b600255565b6000610ce183836001610cb9565b600061102a610f34565b8260405160200180807f190100000000000000000000000000000000000000000000000000000000000081525060020183815260200182815260200192505050604051602081830303815290604052805190602001209050919050565b600061109982516041146101b9610fff565b60008060006020850151925060408501519150606085015160001a9050600060018783868660405160008152602001604052604051808581526020018460ff1681526020018381526020018281526020019450505050506020604051602081039080840390855afa158015611112573d6000803e3d6000fd5b50506040517fffffffffffffffffffffffffffffffffffffffffffffffffffffffffffffffe0015191505073ffffffffffffffffffffffffffffffffffffffff81161580159061118d57508773ffffffffffffffffffffffffffffffffffffffff168173ffffffffffffffffffffffffffffffffffffffff16145b98975050505050505050565b4690565b7f08c379a000000000000000000000000000000000000000000000000000000000600090815260206004526007602452600a808304818106603090810160081b83860601918390049283060160101b016642414c230000300160c81b60445261084e917f42414c0000000000000000000000000000000000000000000000000000000000906242414c90606490fdfea2646970667358221220002cf8bb89594ffb1c491eb1707d59ff04998f207d65d8dab6ef7ea11863381a64736f6c63430007010033",
  "linkReferences": {},
  "deployedLinkReferences": {}
}