{
  "_format": "hh-sol-artifact-1",
  "contractName": "MockPriceRateCache",
  "sourceName": "contracts/test/MockPriceRateCache.sol",
  "abi": [
    {
      "inputs": [],
      "name": "decode",
      "outputs": [
        {
          "internalType": "uint256",
          "name": "rate",
          "type": "uint256"
        },
        {
          "internalType": "uint256",
          "name": "duration",
          "type": "uint256"
        },
        {
          "internalType": "uint256",
          "name": "expires",
          "type": "uint256"
        }
      ],
      "stateMutability": "view",
      "type": "function"
    },
    {
      "inputs": [],
      "name": "getCurrentRate",
      "outputs": [
        {
          "internalType": "uint256",
          "name": "",
          "type": "uint256"
        }
      ],
      "stateMutability": "view",
      "type": "function"
    },
    {
      "inputs": [],
      "name": "getDuration",
      "outputs": [
        {
          "internalType": "uint256",
          "name": "",
          "type": "uint256"
        }
      ],
      "stateMutability": "view",
      "type": "function"
    },
    {
      "inputs": [],
      "name": "getOldRate",
      "outputs": [
        {
          "internalType": "uint256",
          "name": "",
          "type": "uint256"
        }
      ],
      "stateMutability": "view",
      "type": "function"
    },
    {
      "inputs": [],
      "name": "getTimestamps",
      "outputs": [
        {
          "internalType": "uint256",
          "name": "duration",
          "type": "uint256"
        },
        {
          "internalType": "uint256",
          "name": "expires",
          "type": "uint256"
        }
      ],
      "stateMutability": "view",
      "type": "function"
    },
    {
      "inputs": [
        {
          "internalType": "uint256",
          "name": "rate",
          "type": "uint256"
        }
      ],
      "name": "updateCurrentRate",
      "outputs": [
        {
          "internalType": "bytes32",
          "name": "",
          "type": "bytes32"
        }
      ],
      "stateMutability": "nonpayable",
      "type": "function"
    },
    {
      "inputs": [
        {
          "internalType": "uint256",
          "name": "duration",
          "type": "uint256"
        }
      ],
      "name": "updateDuration",
      "outputs": [
        {
          "internalType": "bytes32",
          "name": "",
          "type": "bytes32"
        }
      ],
      "stateMutability": "nonpayable",
      "type": "function"
    },
    {
      "inputs": [],
      "name": "updateOldRate",
      "outputs": [
        {
          "internalType": "bytes32",
          "name": "",
          "type": "bytes32"
        }
      ],
      "stateMutability": "nonpayable",
      "type": "function"
    },
    {
      "inputs": [
        {
          "internalType": "uint256",
          "name": "rate",
          "type": "uint256"
        },
        {
          "internalType": "uint256",
          "name": "duration",
          "type": "uint256"
        }
      ],
      "name": "updateRateAndDuration",
      "outputs": [
        {
          "internalType": "bytes32",
          "name": "",
          "type": "bytes32"
        }
      ],
      "stateMutability": "nonpayable",
      "type": "function"
    }
  ],
  "bytecode": "0x608060405234801561001057600080fd5b506104f9806100206000396000f3fe608060405234801561001057600080fd5b50600436106100a35760003560e01c80638df25a5611610076578063ad2e8c9b1161005b578063ad2e8c9b14610148578063c0f8940c14610150578063f7fb07b014610176576100a3565b80638df25a5614610108578063917a96931461012b576100a3565b80631b50ad09146100a8578063368094d0146100d757806357de8666146100df57806359abbfe4146100e7575b600080fd5b6100c5600480360360208110156100be57600080fd5b503561017e565b60408051918252519081900360200190f35b6100c5610197565b6100c56101a9565b6100ef6101c0565b6040805192835260208301919091528051918290030190f35b6100c56004803603604081101561011e57600080fd5b50803590602001356101d6565b6100c56004803603602081101561014157600080fd5b50356101f1565b6100c56101ff565b61015861020c565b60408051938452602084019290925282820152519081900360600190f35b6100c5610227565b600061018c60005483610234565b600081905592915050565b60006101a460005461025c565b905090565b60006101b6600054610270565b6000819055905090565b6000806101ce600054610288565b915091509091565b60006101e560005484846102aa565b60008190559392505050565b600061018c600054836102e2565b60006101a4600054610303565b600080600061021c600054610312565b925092509250909192565b60006101a4600054610335565b600061025542830160e0602061024d878760c084610343565b929190610343565b9392505050565b600061026a82606080610384565b92915050565b600061026a61027e83610335565b8390606080610343565b60008061029483610303565b91506102a38360e06020610384565b9050915091565b60006102bd606084901c156101496103b1565b6102da42830160e0602061024d8660c083838c8c60006060610343565b949350505050565b60006102f5606083901c156101496103b1565b610255838360006060610343565b600061026a8260c06020610384565b600080600061032084610335565b925061032b84610288565b9395909450915050565b600061026a82826060610384565b60006103508484846103c3565b506001901b7fffffffffffffffffffffffffffffffffffffffffffffffffffffffffffffffff01811b1992909216911b1790565b6001901b7fffffffffffffffffffffffffffffffffffffffffffffffffffffffffffffffff0191901c1690565b816103bf576103bf8161040f565b5050565b6103d2610100831060646103b1565b6103fb600182101580156103f457506103f060ff846101000361043c565b8211155b60646103b1565b61040a83821c156101b46103b1565b505050565b610439817f42414c0000000000000000000000000000000000000000000000000000000000610448565b50565b80820390821102900390565b7f08c379a000000000000000000000000000000000000000000000000000000000600090815260206004526007602452600a808404818106603090810160081b958390069590950190829004918206850160101b01602363ffffff0060e086901c160160181b0190930160c81b60445260e882901c90606490fdfea26469706673582212207917563597142468cb7d8b6acf30ac9ae85c3a85cf93b8ffeca8050633666fc564736f6c63430007010033",
  "linkReferences": {},
  "deployedLinkReferences": {}
}